{
  "_format": "hh-sol-artifact-1",
  "contractName": "ComplianceModule",
  "sourceName": "contracts/core/ComplianceModule.sol",
  "abi": [
    {
      "inputs": [
        {
          "internalType": "address",
          "name": "_identityRegistry",
          "type": "address"
        },
        {
          "internalType": "address",
          "name": "_attestationRegistry",
          "type": "address"
        },
        {
          "internalType": "bytes32",
          "name": "_assetId",
          "type": "bytes32"
        }
      ],
      "stateMutability": "nonpayable",
      "type": "constructor"
    },
    {
      "inputs": [],
      "name": "assetId",
      "outputs": [
        {
          "internalType": "bytes32",
          "name": "",
          "type": "bytes32"
        }
      ],
      "stateMutability": "view",
      "type": "function"
    },
    {
      "inputs": [],
      "name": "attestationRegistry",
      "outputs": [
        {
          "internalType": "contract AttestationRegistry",
          "name": "",
          "type": "address"
        }
      ],
      "stateMutability": "view",
      "type": "function"
    },
    {
      "inputs": [
        {
          "internalType": "address",
          "name": "from",
          "type": "address"
        },
        {
          "internalType": "address",
          "name": "to",
          "type": "address"
        },
        {
          "internalType": "uint256",
          "name": "",
          "type": "uint256"
        }
      ],
      "name": "canTransfer",
      "outputs": [
        {
          "internalType": "bool",
          "name": "",
          "type": "bool"
        }
      ],
      "stateMutability": "view",
      "type": "function"
    },
    {
      "inputs": [],
      "name": "identityRegistry",
      "outputs": [
        {
          "internalType": "contract IdentityRegistry",
          "name": "",
          "type": "address"
        }
      ],
      "stateMutability": "view",
      "type": "function"
    },
    {
      "inputs": [],
      "name": "owner",
      "outputs": [
        {
          "internalType": "address",
          "name": "",
          "type": "address"
        }
      ],
      "stateMutability": "view",
      "type": "function"
    },
    {
      "inputs": [
        {
          "internalType": "address",
          "name": "_attestationRegistry",
          "type": "address"
        }
      ],
      "name": "setAttestationRegistry",
      "outputs": [],
      "stateMutability": "nonpayable",
      "type": "function"
    },
    {
      "inputs": [
        {
          "internalType": "address",
          "name": "_identityRegistry",
          "type": "address"
        }
      ],
      "name": "setIdentityRegistry",
      "outputs": [],
      "stateMutability": "nonpayable",
      "type": "function"
    }
  ],
  "bytecode": "0x60803461009c57601f6104e838819003918201601f19168301916001600160401b038311848410176100a15780849260609460405283398101031261009c57610047816100b7565b906040610056602083016100b7565b9101519160018060a01b0319913383600354161760035560018060a01b038092168360005416176000551690600154161760015560025560405161041c90816100cc8239f35b600080fd5b634e487b7160e01b600052604160045260246000fd5b51906001600160a01b038216820361009c5756fe604060808152600436101561001357600080fd5b600090813560e01c806306d8560014610193578063134e18f41461016c57806344de240a1461014e5780638da5cb5b14610126578063cbf3f861146100de578063e46638e6146100975763ed6d73f91461006c57600080fd5b3461009357816003193601126100935760015490516001600160a01b039091168152602090f35b5080fd5b5034610093576060366003190112610093576100b16101e3565b602435926001600160a01b03841684036100db57506020926100d29161024e565b90519015158152f35b80fd5b82346100db5760203660031901126100db576100f86101e3565b6003546001600160a01b03919061011290831633146103ad565b82546001600160a01b031916911617815580f35b503461009357816003193601126100935760035490516001600160a01b039091168152602090f35b50346100935781600319360112610093576020906002549051908152f35b5034610093578160031936011261009357905490516001600160a01b039091168152602090f35b82346100db5760203660031901126100db576101ad6101e3565b6003546001600160a01b0391906101c790831633146103ad565b166bffffffffffffffffffffffff60a01b600154161760015580f35b600435906001600160a01b03821682036101f957565b600080fd5b90601f8019910116810190811067ffffffffffffffff82111761022057604052565b634e487b7160e01b600052604160045260246000fd5b908160209103126101f9575180151581036101f95790565b6001600160a01b03918291821680610347575b5016806102e6575b5060015416602060025460246040518094819363339f16a960e01b835260048301525afa9081156102da576000916102ac575b50156102a757600190565b600090565b6102cd915060203d81116102d3575b6102c581836101fe565b810190610236565b3861029c565b503d6102bb565b6040513d6000823e3d90fd5b602082600054169160246040518094819363b9209e3360e01b835260048301525afa9081156102da57600091610329575b50156103235738610269565b50600090565b610341915060203d81116102d3576102c581836101fe565b38610317565b9091602090600054169160246040518094819363b9209e3360e01b835260048301525afa9081156102da5760009161038f575b501561038857819038610261565b5050600090565b6103a7915060203d81116102d3576102c581836101fe565b3861037a565b156103b457565b60405162461bcd60e51b815260206004820152600a60248201526927b7363c9037bbb732b960b11b6044820152606490fdfea26469706673582212207761f5fb0bcc473b90d808eb85af9f158dbb4929fb8e84a9f0839def80cc963e64736f6c63430008140033",
  "linkReferences": {},
  "deployedLinkReferences": {}
}