{
  "_format": "hh-sol-artifact-1",
  "contractName": "LeverageVault",
  "sourceName": "contracts/core/LeverageVault.sol",
  "abi": [
    {
      "inputs": [
        {
          "internalType": "address",
          "name": "_mETH",
          "type": "address"
        },
        {
          "internalType": "address",
          "name": "_usdc",
          "type": "address"
        },
        {
          "internalType": "address",
          "name": "_seniorPool",
          "type": "address"
        },
        {
          "internalType": "address",
          "name": "_fluxionIntegration",
          "type": "address"
        }
      ],
      "stateMutability": "nonpayable",
      "type": "constructor"
    },
    {
      "inputs": [
        {
          "internalType": "address",
          "name": "owner",
          "type": "address"
        }
      ],
      "name": "OwnableInvalidOwner",
      "type": "error"
    },
    {
      "inputs": [
        {
          "internalType": "address",
          "name": "account",
          "type": "address"
        }
      ],
      "name": "OwnableUnauthorizedAccount",
      "type": "error"
    },
    {
      "inputs": [],
      "name": "ReentrancyGuardReentrantCall",
      "type": "error"
    },
    {
      "anonymous": false,
      "inputs": [
        {
          "indexed": true,
          "internalType": "uint256",
          "name": "positionId",
          "type": "uint256"
        },
        {
          "indexed": false,
          "internalType": "uint256",
          "name": "amount",
          "type": "uint256"
        }
      ],
      "name": "CollateralAdded",
      "type": "event"
    },
    {
      "anonymous": false,
      "inputs": [
        {
          "indexed": true,
          "internalType": "address",
          "name": "previousOwner",
          "type": "address"
        },
        {
          "indexed": true,
          "internalType": "address",
          "name": "newOwner",
          "type": "address"
        }
      ],
      "name": "OwnershipTransferred",
      "type": "event"
    },
    {
      "anonymous": false,
      "inputs": [
        {
          "indexed": true,
          "internalType": "uint256",
          "name": "positionId",
          "type": "uint256"
        },
        {
          "indexed": true,
          "internalType": "address",
          "name": "user",
          "type": "address"
        },
        {
          "indexed": false,
          "internalType": "uint256",
          "name": "mETHCollateral",
          "type": "uint256"
        },
        {
          "indexed": false,
          "internalType": "uint256",
          "name": "usdcBorrowed",
          "type": "uint256"
        },
        {
          "indexed": false,
          "internalType": "address",
          "name": "rwaToken",
          "type": "address"
        },
        {
          "indexed": false,
          "internalType": "uint256",
          "name": "rwaTokenAmount",
          "type": "uint256"
        }
      ],
      "name": "PositionCreated",
      "type": "event"
    },
    {
      "anonymous": false,
      "inputs": [
        {
          "indexed": true,
          "internalType": "uint256",
          "name": "positionId",
          "type": "uint256"
        },
        {
          "indexed": false,
          "internalType": "uint256",
          "name": "mETHSold",
          "type": "uint256"
        },
        {
          "indexed": false,
          "internalType": "uint256",
          "name": "usdcRecovered",
          "type": "uint256"
        },
        {
          "indexed": false,
          "internalType": "uint256",
          "name": "shortfall",
          "type": "uint256"
        },
        {
          "indexed": false,
          "internalType": "uint256",
          "name": "excessReturned",
          "type": "uint256"
        }
      ],
      "name": "PositionLiquidated",
      "type": "event"
    },
    {
      "anonymous": false,
      "inputs": [
        {
          "indexed": true,
          "internalType": "uint256",
          "name": "positionId",
          "type": "uint256"
        },
        {
          "indexed": false,
          "internalType": "uint256",
          "name": "seniorRepayment",
          "type": "uint256"
        },
        {
          "indexed": false,
          "internalType": "uint256",
          "name": "interestRepayment",
          "type": "uint256"
        },
        {
          "indexed": false,
          "internalType": "uint256",
          "name": "userYield",
          "type": "uint256"
        }
      ],
      "name": "SettlementProcessed",
      "type": "event"
    },
    {
      "anonymous": false,
      "inputs": [
        {
          "indexed": true,
          "internalType": "uint256",
          "name": "positionId",
          "type": "uint256"
        },
        {
          "indexed": false,
          "internalType": "uint256",
          "name": "mETHSwapped",
          "type": "uint256"
        },
        {
          "indexed": false,
          "internalType": "uint256",
          "name": "usdcReceived",
          "type": "uint256"
        },
        {
          "indexed": false,
          "internalType": "uint256",
          "name": "interestPaid",
          "type": "uint256"
        }
      ],
      "name": "YieldHarvested",
      "type": "event"
    },
    {
      "inputs": [],
      "name": "BASIS_POINTS",
      "outputs": [
        {
          "internalType": "uint256",
          "name": "",
          "type": "uint256"
        }
      ],
      "stateMutability": "view",
      "type": "function"
    },
    {
      "inputs": [],
      "name": "INITIAL_LTV",
      "outputs": [
        {
          "internalType": "uint256",
          "name": "",
          "type": "uint256"
        }
      ],
      "stateMutability": "view",
      "type": "function"
    },
    {
      "inputs": [],
      "name": "LIQUIDATION_THRESHOLD",
      "outputs": [
        {
          "internalType": "uint256",
          "name": "",
          "type": "uint256"
        }
      ],
      "stateMutability": "view",
      "type": "function"
    },
    {
      "inputs": [
        {
          "internalType": "uint256",
          "name": "positionId",
          "type": "uint256"
        },
        {
          "internalType": "uint256",
          "name": "mETHAmount",
          "type": "uint256"
        }
      ],
      "name": "addCollateral",
      "outputs": [],
      "stateMutability": "nonpayable",
      "type": "function"
    },
    {
      "inputs": [
        {
          "internalType": "uint256",
          "name": "positionId",
          "type": "uint256"
        },
        {
          "internalType": "address",
          "name": "_yieldVault",
          "type": "address"
        },
        {
          "internalType": "address",
          "name": "rwaToken",
          "type": "address"
        },
        {
          "internalType": "uint256",
          "name": "tokenAmount",
          "type": "uint256"
        }
      ],
      "name": "claimYieldFromBurn",
      "outputs": [
        {
          "internalType": "uint256",
          "name": "usdcReceived",
          "type": "uint256"
        }
      ],
      "stateMutability": "nonpayable",
      "type": "function"
    },
    {
      "inputs": [
        {
          "internalType": "address",
          "name": "user",
          "type": "address"
        },
        {
          "internalType": "uint256",
          "name": "mETHAmount",
          "type": "uint256"
        },
        {
          "internalType": "uint256",
          "name": "usdcToBorrow",
          "type": "uint256"
        },
        {
          "internalType": "address",
          "name": "rwaToken",
          "type": "address"
        },
        {
          "internalType": "uint256",
          "name": "rwaTokenAmount",
          "type": "uint256"
        },
        {
          "internalType": "string",
          "name": "assetId",
          "type": "string"
        },
        {
          "internalType": "bytes32",
          "name": "assetIdBytes",
          "type": "bytes32"
        },
        {
          "internalType": "uint256",
          "name": "mETHPriceUSD",
          "type": "uint256"
        }
      ],
      "name": "createPosition",
      "outputs": [
        {
          "internalType": "uint256",
          "name": "positionId",
          "type": "uint256"
        }
      ],
      "stateMutability": "nonpayable",
      "type": "function"
    },
    {
      "inputs": [],
      "name": "fluxionIntegration",
      "outputs": [
        {
          "internalType": "address",
          "name": "",
          "type": "address"
        }
      ],
      "stateMutability": "view",
      "type": "function"
    },
    {
      "inputs": [
        {
          "internalType": "uint256",
          "name": "positionId",
          "type": "uint256"
        },
        {
          "internalType": "uint256",
          "name": "mETHPriceUSD",
          "type": "uint256"
        }
      ],
      "name": "getHealthFactor",
      "outputs": [
        {
          "internalType": "uint256",
          "name": "",
          "type": "uint256"
        }
      ],
      "stateMutability": "view",
      "type": "function"
    },
    {
      "inputs": [
        {
          "internalType": "uint256",
          "name": "positionId",
          "type": "uint256"
        }
      ],
      "name": "getPosition",
      "outputs": [
        {
          "components": [
            {
              "internalType": "address",
              "name": "user",
              "type": "address"
            },
            {
              "internalType": "uint256",
              "name": "mETHCollateral",
              "type": "uint256"
            },
            {
              "internalType": "uint256",
              "name": "usdcBorrowed",
              "type": "uint256"
            },
            {
              "internalType": "address",
              "name": "rwaToken",
              "type": "address"
            },
            {
              "internalType": "uint256",
              "name": "rwaTokenAmount",
              "type": "uint256"
            },
            {
              "internalType": "string",
              "name": "assetId",
              "type": "string"
            },
            {
              "internalType": "uint256",
              "name": "createdAt",
              "type": "uint256"
            },
            {
              "internalType": "uint256",
              "name": "lastHarvestTime",
              "type": "uint256"
            },
            {
              "internalType": "uint256",
              "name": "totalInterestPaid",
              "type": "uint256"
            },
            {
              "internalType": "bool",
              "name": "active",
              "type": "bool"
            }
          ],
          "internalType": "struct LeverageVault.Position",
          "name": "",
          "type": "tuple"
        }
      ],
      "stateMutability": "view",
      "type": "function"
    },
    {
      "inputs": [
        {
          "internalType": "uint256",
          "name": "positionId",
          "type": "uint256"
        },
        {
          "internalType": "uint256",
          "name": "mETHPriceUSD",
          "type": "uint256"
        }
      ],
      "name": "harvestYield",
      "outputs": [
        {
          "internalType": "uint256",
          "name": "mETHSwapped",
          "type": "uint256"
        },
        {
          "internalType": "uint256",
          "name": "usdcReceived",
          "type": "uint256"
        },
        {
          "internalType": "uint256",
          "name": "interestPaid",
          "type": "uint256"
        }
      ],
      "stateMutability": "nonpayable",
      "type": "function"
    },
    {
      "inputs": [
        {
          "internalType": "uint256",
          "name": "positionId",
          "type": "uint256"
        },
        {
          "internalType": "uint256",
          "name": "mETHPriceUSD",
          "type": "uint256"
        }
      ],
      "name": "liquidatePosition",
      "outputs": [
        {
          "internalType": "uint256",
          "name": "usdcRecovered",
          "type": "uint256"
        },
        {
          "internalType": "uint256",
          "name": "shortfall",
          "type": "uint256"
        },
        {
          "internalType": "uint256",
          "name": "excessReturned",
          "type": "uint256"
        }
      ],
      "stateMutability": "nonpayable",
      "type": "function"
    },
    {
      "inputs": [],
      "name": "mETH",
      "outputs": [
        {
          "internalType": "contract IERC20",
          "name": "",
          "type": "address"
        }
      ],
      "stateMutability": "view",
      "type": "function"
    },
    {
      "inputs": [],
      "name": "nextPositionId",
      "outputs": [
        {
          "internalType": "uint256",
          "name": "",
          "type": "uint256"
        }
      ],
      "stateMutability": "view",
      "type": "function"
    },
    {
      "inputs": [],
      "name": "owner",
      "outputs": [
        {
          "internalType": "address",
          "name": "",
          "type": "address"
        }
      ],
      "stateMutability": "view",
      "type": "function"
    },
    {
      "inputs": [
        {
          "internalType": "uint256",
          "name": "",
          "type": "uint256"
        }
      ],
      "name": "positions",
      "outputs": [
        {
          "internalType": "address",
          "name": "user",
          "type": "address"
        },
        {
          "internalType": "uint256",
          "name": "mETHCollateral",
          "type": "uint256"
        },
        {
          "internalType": "uint256",
          "name": "usdcBorrowed",
          "type": "uint256"
        },
        {
          "internalType": "address",
          "name": "rwaToken",
          "type": "address"
        },
        {
          "internalType": "uint256",
          "name": "rwaTokenAmount",
          "type": "uint256"
        },
        {
          "internalType": "string",
          "name": "assetId",
          "type": "string"
        },
        {
          "internalType": "uint256",
          "name": "createdAt",
          "type": "uint256"
        },
        {
          "internalType": "uint256",
          "name": "lastHarvestTime",
          "type": "uint256"
        },
        {
          "internalType": "uint256",
          "name": "totalInterestPaid",
          "type": "uint256"
        },
        {
          "internalType": "bool",
          "name": "active",
          "type": "bool"
        }
      ],
      "stateMutability": "view",
      "type": "function"
    },
    {
      "inputs": [],
      "name": "primaryMarket",
      "outputs": [
        {
          "internalType": "address",
          "name": "",
          "type": "address"
        }
      ],
      "stateMutability": "view",
      "type": "function"
    },
    {
      "inputs": [
        {
          "internalType": "uint256",
          "name": "positionId",
          "type": "uint256"
        },
        {
          "internalType": "uint256",
          "name": "settlementUSDC",
          "type": "uint256"
        }
      ],
      "name": "processSettlement",
      "outputs": [
        {
          "internalType": "uint256",
          "name": "seniorRepayment",
          "type": "uint256"
        },
        {
          "internalType": "uint256",
          "name": "interestRepayment",
          "type": "uint256"
        },
        {
          "internalType": "uint256",
          "name": "userYield",
          "type": "uint256"
        }
      ],
      "stateMutability": "nonpayable",
      "type": "function"
    },
    {
      "inputs": [],
      "name": "renounceOwnership",
      "outputs": [],
      "stateMutability": "nonpayable",
      "type": "function"
    },
    {
      "inputs": [],
      "name": "seniorPool",
      "outputs": [
        {
          "internalType": "address",
          "name": "",
          "type": "address"
        }
      ],
      "stateMutability": "view",
      "type": "function"
    },
    {
      "inputs": [
        {
          "internalType": "address",
          "name": "_primaryMarket",
          "type": "address"
        }
      ],
      "name": "setPrimaryMarket",
      "outputs": [],
      "stateMutability": "nonpayable",
      "type": "function"
    },
    {
      "inputs": [
        {
          "internalType": "address",
          "name": "_yieldVault",
          "type": "address"
        }
      ],
      "name": "setYieldVault",
      "outputs": [],
      "stateMutability": "nonpayable",
      "type": "function"
    },
    {
      "inputs": [
        {
          "internalType": "address",
          "name": "newOwner",
          "type": "address"
        }
      ],
      "name": "transferOwnership",
      "outputs": [],
      "stateMutability": "nonpayable",
      "type": "function"
    },
    {
      "inputs": [],
      "name": "usdc",
      "outputs": [
        {
          "internalType": "contract IERC20",
          "name": "",
          "type": "address"
        }
      ],
      "stateMutability": "view",
      "type": "function"
    },
    {
      "inputs": [],
      "name": "yieldVault",
      "outputs": [
        {
          "internalType": "address",
          "name": "",
          "type": "address"
        }
      ],
      "stateMutability": "view",
      "type": "function"
    }
  ],
  "bytecode": "0x6080346200012557601f6200269738819003918201601f19168301916001600160401b038311848410176200012a5780849260809460405283398101031262000125576200004d8162000140565b906200005c6020820162000140565b620000786060620000706040850162000140565b930162000140565b33156200010c576000549360018060a01b03199333858716176000556040519560018060a01b03948580948193823391167f8be0079c531659141344cd1fd0a4f28419497f9722a3daafe3b4186f6b6457e0600080a3600180551687600254161760025516856003541617600355168360045416176004551690600554161760055560016009556125419081620001568239f35b604051631e4fbdf760e01b815260006004820152602490fd5b600080fd5b634e487b7160e01b600052604160045260246000fd5b51906001600160a01b0382168203620001255756fe6080604052600436101561001257600080fd5b6000803560e01c80630381b4dd14611bb1578063137c3f6914611b1f5780631e77ceda14611af657806329e8486714611acd5780633e413bee14611aa45780634d2c872a14611a82578063505aa21214611a595780635cacf42214611a3c578063715018a6146119e25780638482c795146111eb578063899346c7146111cd5780638da5cb5b146111a657806390a8ae9b14611189578063975d6dfb14610e8357806399fbab8814610dca578063a7f8a5e214610da1578063a8f35adf14610c37578063d3c4e4a6146107e3578063e1f1c4a7146107c6578063e2dc36661461077a578063eb02c301146105fd578063f2fde38b14610572578063f416fc1c146105495763ffc0d2331461012557600080fd5b3461054657602461013536611ff9565b919061013f6121ca565b610147612303565b8084526008602052604084209061016460ff600984015416612326565b61016f841515612234565b602060018060a01b036004541660405194858092639339ea6960e01b82528560048301525afa92831561053b578593610507575b5082156104cd576c0c9f2c9cd04674edea4000000083026c0c9f2c9cd04674edea3fffffff19848204016104b757846101db91612288565b92600183015484116104725760025460055460405163095ea7b360e01b81526001600160a01b03918216600482015260248101879052889790929091602091849160449183918c91165af19182156103cf57602092610455575b506005546040516307e8586d60e51b81526004810188905260248101929092529096879160449183916001600160a01b03165af194851561044a578695610411575b508085111561040957915b6003546004805460405163095ea7b360e01b81526001600160a01b0391821692810192909252602482018690529091602091839160449183918c91165af180156103cf576103da575b5085604060018060a01b0360045416604482518094819363d8aed14560e01b83528860048401528960248401525af180156103cf5761039d959697506103a1575b5061031b85600183015461237e565b60018201556008810161032f84825461238b565b90556007429101557f64cc470d924ef687ff28d709b7ef348c355fbe6f2b2e4157a21353815d9c477460405180610379858989846040919493926060820195825260208201520152565b0390a260018055604051938493846040919493926060820195825260208201520152565b0390f35b6103c29060403d6040116103c8575b6103ba818361206c565b810190612368565b5061030c565b503d6103b0565b6040513d89823e3d90fd5b6103fb9060203d602011610402575b6103f3818361206c565b8101906122a8565b50386102cb565b503d6103e9565b508391610282565b9094506020813d602011610442575b8161042d6020938361206c565b8101031261043d57519338610277565b600080fd5b3d9150610420565b6040513d88823e3d90fd5b61046b90833d8511610402576103f3818361206c565b5038610235565b60405162461bcd60e51b815260206004820152601760248201527f496e73756666696369656e7420636f6c6c61746572616c0000000000000000006044820152606490fd5b634e487b7160e01b600052601160045260246000fd5b60405162461bcd60e51b81526020600482015260126024820152714e6f20696e74657265737420746f2070617960701b6044820152606490fd5b9092506020813d602011610533575b816105236020938361206c565b8101031261043d575191386101a3565b3d9150610516565b6040513d87823e3d90fd5b80fd5b50346105465780600319360112610546576004546040516001600160a01b039091168152602090f35b50346105465760203660031901126105465761058c61200f565b6105946121ca565b6001600160a01b039081169081156105e457600054826001600160601b0360a01b821617600055167f8be0079c531659141344cd1fd0a4f28419497f9722a3daafe3b4186f6b6457e0600080a380f35b604051631e4fbdf760e01b815260048101849052602490fd5b5034610546576020366003190112610546578060409161012083516106218161204f565b8281528260208201528285820152826060820152826080820152606060a08201528260c08201528260e0820152826101008201520152600435815260086020522060ff6009604051926106738461204f565b80546001600160a01b03908116855260018201546020860152600282015460408601526003820154166060850152600481015460808501526106b7600582016120e4565b60a0850152600681015460c0850152600781015460e08501526008810154610100850152015416151561012082015260405180916020825260018060a01b038151166020830152602081015160408301526040810151606083015260018060a01b036060820151166080830152608081015160a083015260a081015161012061074e610140928360c087015261016086019061218a565b9260c081015160e086015260e08101516101008601526101008101518286015201511515908301520390f35b50346105465760203660031901126105465761079461200f565b61079c6121ca565b6001600160a01b03166107b08115156121f6565b6001600160601b0360a01b600754161760075580f35b503461054657806003193601126105465760206040516127108152f35b5034610546576107f236611ff9565b90916107fc6121ca565b610804612303565b828152602092600884526040822090600982019161082560ff845416612326565b610830851515612234565b612af861083d8684612398565b1015610bfc5780546001909101805460025460055460405163095ea7b360e01b8082526001600160a01b03928316600483015260248201859052949993959193918416928b90829060449082908d9089165af18015610bf157918b918a96959493610bd4575b5060448460055416916040519b8c9384926307e8586d60e51b84528b600485015260248401525af1978815610b22578498610ba5575b508160045416926040519363d559515760e01b85528760048601528b85602481845afa94851561044a57908c918796610b72575b506109549190868c1115610b6957869384915b6003546040519283526001600160a01b039091166004830152602482019290925292839187169082908a9082906044820190565b03925af1801561044a57918c6040928894610b4b575b505060448560045416918351948593849263d8aed14560e01b84528d600485015260248401525af1801561053b57610b2d575b5087831115610a2257505091858097986080936109de61039d997fff12c0216efb56216c8efbaf4798aa7b74300a23706d2a444f5a00a97cd237f59761237e565b9a81985b60ff19815416905555604051928352820152876040820152846060820152a260018055604051938493846040919493926060820195825260208201520152565b610a3384999399979297998961237e565b9687610a6f575b5050958097986080937fff12c0216efb56216c8efbaf4798aa7b74300a23706d2a444f5a00a97cd237f5959361039d996109e2565b60035460405163a9059cbb60e01b81526001600160a01b03939093166004840152602483018990528b91839160449183918991165af1908115610b22578491610b05575b5015610ac0573880610a3a565b60405162461bcd60e51b8152600481018a9052601b60248201527f4578636573732055534443207472616e73666572206661696c656400000000006044820152606490fd5b610b1c91508a3d8c11610402576103f3818361206c565b38610ab3565b6040513d86823e3d90fd5b610b459060403d6040116103c8576103ba818361206c565b5061099d565b81610b6192903d10610402576103f3818361206c565b508c3861096a565b8b938491610920565b8281939297503d8311610b9e575b610b8a818361206c565b8101031261043d5751938b9061095461090d565b503d610b80565b9097508981813d8311610bcd575b610bbd818361206c565b8101031261043d575196386108d9565b503d610bb3565b610bea90833d8511610402576103f3818361206c565b50386108a3565b6040513d8b823e3d90fd5b60405162461bcd60e51b8152600481018790526013602482015272506f736974696f6e206973206865616c74687960681b6044820152606490fd5b503461054657610c4636611ff9565b610c4e612303565b8183526020600881526040842091610c6c60ff600985015416612326565b82546001600160a01b039081163303610d67578115610d2d576002546040516323b872dd60e01b81523360048201523060248201526044810184905294918491869160649183918b91165af190811561044a57610cf46001927f244160b15e69cc411f041d94ae7fab6f6bba85dade8403216c05ff4b920d5449968991610d10575b506122c0565b01610d0082825461238b565b9055604051908152a26001805580f35b610d279150863d8811610402576103f3818361206c565b38610cee565b60405162461bcd60e51b81526004810184905260126024820152710416d6f756e74206d757374206265203e20360741b6044820152606490fd5b60405162461bcd60e51b81526004810184905260126024820152712737ba103837b9b4ba34b7b71037bbb732b960711b6044820152606490fd5b50346105465780600319360112610546576006546040516001600160a01b039091168152602090f35b503461054657602036600319011261054657604090600435815260086020522060018060a01b0390818154169060018101549260028201549060038301541691600481015492610e66610e1f600584016120e4565b60068401549560078501549360ff6009600888015497015416966040519a8b9a8b5260208b015260408a0152606089015260808801526101408060a089015287019061218a565b9360c086015260e085015261010084015215156101208301520390f35b5034610546576080366003190112610546576001600160a01b03906024803591838316830361043d57604435908482169283830361043d5760643594610ec76121ca565b610ecf612303565b60043583526020966008885260408420610eef60ff600983015416612326565b8682600383015416036111545760040195865488116111105760405163095ea7b360e01b81526001600160a01b0384166004820152602481018990529089908290604490829089905af1801561053b576110f3575b5080600354169160405195898786816370a0823160e01b978882523060048301525afa96871561044a578a8a9188996110bf575b5060408051630c34f5ed60e11b9281019283526001600160a01b0390941688850190815260208101939093528894859490938592610fc19183910103601f19810183528261206c565b51925af13d156110ba573d610fd58161208e565b90610fe3604051928361206c565b8152858a3d92013e5b156110765790879160035416926040518094819382523060048301525afa91821561106a579161103b575b5061102d916110259161237e565b92825461237e565b905560018055604051908152f35b90508481813d8311611063575b611052818361206c565b8101031261043d575161102d611017565b503d611048565b604051903d90823e3d90fd5b60405162461bcd60e51b8152600481018990526017818501527f5969656c645661756c7420636c61696d206661696c65640000000000000000006044820152606490fd5b610fec565b92939850905081813d83116110ec575b6110d9818361206c565b8101031261043d57519590888a87610f78565b503d6110cf565b61110990893d8b11610402576103f3818361206c565b5038610f44565b60405162461bcd60e51b8152600481018a90526017818601527f496e73756666696369656e742052574120746f6b656e730000000000000000006044820152606490fd5b60405162461bcd60e51b8152600481018a9052600e818601526d0a8ded6cadc40dad2e6dac2e8c6d60931b6044820152606490fd5b50346105465780600319360112610546576020604051612af88152f35b5034610546578060031936011261054657546040516001600160a01b039091168152602090f35b50346105465780600319360112610546576020600954604051908152f35b5034610546576101003660031901126105465761120661200f565b6064356001600160a01b03811681036118245760a4359167ffffffffffffffff83116117df57366023840112156117df57838360040135936112478561208e565b94611255604051968761206c565b80865236602482840101116118245780602460209301838801378501015260e43561127e6121ca565b611286612303565b6001600160a01b038216156119ae57602435156119695760443515611924576001600160a01b038316156118eb576112bf811515612234565b6007546001600160a01b0316156118ae576112ea6c0c9f2c9cd04674edea4000000091602435612275565b04613a9880604435029060443582040361189a57612710900411611841576002546040516323b872dd60e01b81526001600160a01b038381166004830152306024808401919091523560448301529091602091839160649183918a91165af1801561053b5761135f91869161182857506122c0565b60045460095485916001600160a01b0316803b1561182457604483926040519485938492630ecbcdab60e01b84526004840152833560248401525af1801561053b57611811575b5060035460075460405163095ea7b360e01b81526001600160a01b039182166004820152604480356024830152909260209284929183918a91165af1801561053b576117f2575b5060075484906001600160a01b0316803b156117ee578180916044604051809481936307f5d63360e01b835260c435600484015260843560248401525af180156117e3576117cb575b50506040516370a0823160e01b81523060048201526020816024816001600160a01b0387165afa90811561053b578591611799575b5060843511611754576009549260001984146117405760018401600955604051906114958261204f565b60018060a01b03831682526024356020830152604435604083015260018060a01b0384166060830152608435608083015260a08201524260c08201524260e082015284610100820152600161012082015283855260086020526040852060018060a01b038251166001600160601b0360a01b90818354161782556020830151600183015560408301516002830155600382019060018060a01b03606085015116908254161790556080820151600482015560a082015180519067ffffffffffffffff821161172c5761156a60058401546120aa565b601f81116116e8575b5060209787959493929189916001601f85111461164f57938360809694610120946009947f9b1464e9a9771c899bb0aa078d0a5338d3604792fa428d4d24d35e950e7a2ed69a9892611644575b50508160011b916000199060031b1c19161760058201555b60c0840151600682015560e08401516007820155610100840151600882015501910151151560ff801983541691161790556040519460243586526044358887015260018060a01b03166040860152608435606086015260018060a01b031693a360018055604051908152f35b0151905038806115c0565b91906005850183528a8320925b601f19851681106116ce575093600184610120946009947f9b1464e9a9771c899bb0aa078d0a5338d3604792fa428d4d24d35e950e7a2ed69a9860809a98601f198116106116b5575b505050811b0160058201556115d8565b015160001960f88460031b161c191690553880806116a5565b8183015184558a9850600190930192918b01918b0161165c565b60058401895260208920601f840160051c810160208510611725575b601f830160051c8201811061171a575050611573565b8a8155600101611704565b5080611704565b634e487b7160e01b88526041600452602488fd5b634e487b7160e01b85526011600452602485fd5b60405162461bcd60e51b815260206004820152601960248201527f52574120746f6b656e207075726368617365206661696c6564000000000000006044820152606490fd5b90506020813d6020116117c3575b816117b46020938361206c565b8101031261043d57513861146b565b3d91506117a7565b6117d490612025565b6117df578338611436565b8380fd5b6040513d84823e3d90fd5b5080fd5b61180a9060203d602011610402576103f3818361206c565b50386113ed565b61181d90949194612025565b92386113a6565b8280fd5b610d27915060203d602011610402576103f3818361206c565b60405162461bcd60e51b815260206004820152602b60248201527f496e73756666696369656e7420636f6c6c61746572616c202831353025204c5460448201526a562072657175697265642960a81b6064820152608490fd5b634e487b7160e01b86526011600452602486fd5b60405162461bcd60e51b8152602060048201526015602482015274141c9a5b585c9e53585c9ad95d081b9bdd081cd95d605a1b6044820152606490fd5b60405162461bcd60e51b815260206004820152601160248201527024b73b30b634b210292ba0903a37b5b2b760791b6044820152606490fd5b60405162461bcd60e51b815260206004820152601760248201527f5553444320616d6f756e74206d757374206265203e20300000000000000000006044820152606490fd5b60405162461bcd60e51b815260206004820152601760248201527f6d45544820616d6f756e74206d757374206265203e20300000000000000000006044820152606490fd5b60405162461bcd60e51b815260206004820152600c60248201526b24b73b30b634b2103ab9b2b960a11b6044820152606490fd5b50346105465780600319360112610546576119fb6121ca565b80546001600160a01b03198116825581906001600160a01b03167f8be0079c531659141344cd1fd0a4f28419497f9722a3daafe3b4186f6b6457e08280a380f35b50346105465780600319360112610546576020604051613a988152f35b50346105465780600319360112610546576005546040516001600160a01b039091168152602090f35b5034610546576020611a9c611a9636611ff9565b90612398565b604051908152f35b50346105465780600319360112610546576003546040516001600160a01b039091168152602090f35b50346105465780600319360112610546576002546040516001600160a01b039091168152602090f35b50346105465780600319360112610546576007546040516001600160a01b039091168152602090f35b503461054657602036600319011261054657611b3961200f565b611b416121ca565b600654906001600160a01b0390818316611b73571690611b628215156121f6565b6001600160a01b0319161760065580f35b60405162461bcd60e51b8152602060048201526016602482015275165a595b1915985d5b1d08185b1c9958591e481cd95d60521b6044820152606490fd5b503461054657611bc036611ff9565b611bcb9291926121ca565b611bd3612303565b82825260209260088452604083209060098201611bf360ff825416612326565b6004805460405163d559515760e01b81529182018490526001600160a01b03919082168882602481845afa918215611ede579089918993611fc4575b50828810611ee957506003546004805460405163095ea7b360e01b81529086166001600160a01b03169181019190915260248101849052919082908516818b816044810103925af18015611ede579088939291611ec1575b506040826004541660448251809b819363d8aed14560e01b83528a60048401528660248401525af18015611eb65783988491611e8f575b5090611ccb91989761237e565b9485611dde575b60018101549182611d30575b888861039d89898960ff1981541690557f2ad2842250c60e12f989a7e1ed97d0095f991ba01aea08bdac2f87c62782095b60405180610379858989846040919493926060820195825260208201520152565b600254915460405163a9059cbb60e01b81529082166001600160a01b03166004820152602481019390935289918391168185816044810103925af191821561106a5791611dc1575b5015611d875785808080611cde565b60405162461bcd60e51b81526004810187905260126024820152711b515512081c995d1d5c9b8819985a5b195960721b6044820152606490fd5b611dd89150873d8911610402576103f3818361206c565b38611d78565b600354815460405163a9059cbb60e01b81529084166001600160a01b0316600482015260248101889052908a90829085168187816044810103925af1908115610b22578491611e72575b50611cd25760405162461bcd60e51b8152600481018a9052601a60248201527f55736572207969656c64207472616e73666572206661696c65640000000000006044820152606490fd5b611e8991508a3d8c11610402576103f3818361206c565b38611e28565b611ccb929950611eae915060403d6040116103c8576103ba818361206c565b909891611cbe565b6040513d85823e3d90fd5b611ed7908a3d8c11610402576103f3818361206c565b5038611c87565b6040513d8a823e3d90fd5b60035460405163095ea7b360e01b81526001600160a01b0392909216600483015260248201899052939793909250829060449082908b908b165af180156103cf57916040918893611fa7575b5060448760045416918351998a93849263d8aed14560e01b845289600485015260248401525af18015611f9a5781968291611f75575b5095948194611cd2565b9050611f9191965060403d6040116103c8576103ba818361206c565b95909538611f6b565b50604051903d90823e3d90fd5b611fbd908a3d8c11610402576103f3818361206c565b5038611f35565b8281939294503d8311611ff2575b611fdc818361206c565b81010312611fee578890519138611c2f565b8780fd5b503d611fd2565b604090600319011261043d576004359060243590565b600435906001600160a01b038216820361043d57565b67ffffffffffffffff811161203957604052565b634e487b7160e01b600052604160045260246000fd5b610140810190811067ffffffffffffffff82111761203957604052565b90601f8019910116810190811067ffffffffffffffff82111761203957604052565b67ffffffffffffffff811161203957601f01601f191660200190565b90600182811c921680156120da575b60208310146120c457565b634e487b7160e01b600052602260045260246000fd5b91607f16916120b9565b90604051918260008254926120f8846120aa565b9081845260019485811690816000146121675750600114612124575b50506121229250038361206c565b565b9093915060005260209081600020936000915b81831061214f57505061212293508201013880612114565b85548884018501529485019487945091830191612137565b91505061212294506020925060ff191682840152151560051b8201013880612114565b919082519283825260005b8481106121b6575050826000602080949584010152601f8019910116010190565b602081830181015184830182015201612195565b6000546001600160a01b031633036121de57565b60405163118cdaa760e01b8152336004820152602490fd5b156121fd57565b60405162461bcd60e51b815260206004820152600f60248201526e496e76616c6964206164647265737360881b6044820152606490fd5b1561223b57565b60405162461bcd60e51b8152602060048201526012602482015271496e76616c6964206d45544820707269636560701b6044820152606490fd5b818102929181159184041417156104b757565b8115612292570490565b634e487b7160e01b600052601260045260246000fd5b9081602091031261043d5751801515810361043d5790565b156122c757565b60405162461bcd60e51b81526020600482015260146024820152731b515512081d1c985b9cd9995c8819985a5b195960621b6044820152606490fd5b600260015414612314576002600155565b604051633ee5aeb560e01b8152600490fd5b1561232d57565b60405162461bcd60e51b8152602060048201526013602482015272506f736974696f6e206e6f742061637469766560681b6044820152606490fd5b919082604091031261043d576020825192015190565b919082039182116104b757565b919082018092116104b757565b919091600092818452602091600883526040852091604051926123ba8461204f565b60018060a01b039384825416815260ff60096001840154938884019485526002810154604085015287600382015416606085015260048101546080850152612404600582016120e4565b60a0850152600681015460c0850152600781015460e08501526008810154610100850152015416159061012082159101526125045761245e826c0c9f2c9cd04674edea400000009261245888951515612234565b51612275565b0492600454169160246040518094819363d559515760e01b835260048301525afa92831561053b5785936124d4575b505081156124cb57612710908181029181830414901517156124b7576124b4929350612288565b90565b634e487b7160e01b84526011600452602484fd5b50600019925050565b9080929350813d83116124fd575b6124ec818361206c565b810103126117df575190388061248d565b503d6124e2565b505050505056fea26469706673582212206e9adc906e8500713c0c5a2f72be54f7b1f2ea743037a8fdf04ba81136262b7364736f6c63430008140033",
  "linkReferences": {},
  "deployedLinkReferences": {}
}