{"contracts/core/LeverageVault.sol":{"LeverageVault":{"abi":[{"inputs":[{"internalType":"address","name":"_mETH","type":"address"},{"internalType":"address","name":"_usdc","type":"address"},{"internalType":"address","name":"_seniorPool","type":"address"},{"internalType":"address","name":"_fluxionIntegration","type":"address"}],"stateMutability":"nonpayable","type":"constructor"},{"inputs":[{"internalType":"address","name":"owner","type":"address"}],"name":"OwnableInvalidOwner","type":"error"},{"inputs":[{"internalType":"address","name":"account","type":"address"}],"name":"OwnableUnauthorizedAccount","type":"error"},{"inputs":[],"name":"ReentrancyGuardReentrantCall","type":"error"},{"anonymous":false,"inputs":[{"indexed":true,"internalType":"uint256","name":"positionId","type":"uint256"},{"indexed":false,"internalType":"uint256","name":"amount","type":"uint256"}],"name":"CollateralAdded","type":"event"},{"anonymous":false,"inputs":[{"indexed":true,"internalType":"address","name":"previousOwner","type":"address"},{"indexed":true,"internalType":"address","name":"newOwner","type":"address"}],"name":"OwnershipTransferred","type":"event"},{"anonymous":false,"inputs":[{"indexed":true,"internalType":"uint256","name":"positionId","type":"uint256"},{"indexed":true,"internalType":"address","name":"user","type":"address"},{"indexed":false,"internalType":"uint256","name":"mETHCollateral","type":"uint256"},{"indexed":false,"internalType":"uint256","name":"usdcBorrowed","type":"uint256"},{"indexed":false,"internalType":"address","name":"rwaToken","type":"address"},{"indexed":false,"internalType":"uint256","name":"rwaTokenAmount","type":"uint256"}],"name":"PositionCreated","type":"event"},{"anonymous":false,"inputs":[{"indexed":true,"internalType":"uint256","name":"positionId","type":"uint256"},{"indexed":false,"internalType":"uint256","name":"mETHSold","type":"uint256"},{"indexed":false,"internalType":"uint256","name":"usdcRecovered","type":"uint256"},{"indexed":false,"internalType":"uint256","name":"shortfall","type":"uint256"},{"indexed":false,"internalType":"uint256","name":"excessReturned","type":"uint256"}],"name":"PositionLiquidated","type":"event"},{"anonymous":false,"inputs":[{"indexed":true,"internalType":"uint256","name":"positionId","type":"uint256"},{"indexed":false,"internalType":"uint256","name":"seniorRepayment","type":"uint256"},{"indexed":false,"internalType":"uint256","name":"interestRepayment","type":"uint256"},{"indexed":false,"internalType":"uint256","name":"userYield","type":"uint256"}],"name":"SettlementProcessed","type":"event"},{"anonymous":false,"inputs":[{"indexed":true,"internalType":"uint256","name":"positionId","type":"uint256"},{"indexed":false,"internalType":"uint256","name":"mETHSwapped","type":"uint256"},{"indexed":false,"internalType":"uint256","name":"usdcReceived","type":"uint256"},{"indexed":false,"internalType":"uint256","name":"interestPaid","type":"uint256"}],"name":"YieldHarvested","type":"event"},{"inputs":[],"name":"BASIS_POINTS","outputs":[{"internalType":"uint256","name":"","type":"uint256"}],"stateMutability":"view","type":"function"},{"inputs":[],"name":"INITIAL_LTV","outputs":[{"internalType":"uint256","name":"","type":"uint256"}],"stateMutability":"view","type":"function"},{"inputs":[],"name":"LIQUIDATION_THRESHOLD","outputs":[{"internalType":"uint256","name":"","type":"uint256"}],"stateMutability":"view","type":"function"},{"inputs":[{"internalType":"uint256","name":"positionId","type":"uint256"},{"internalType":"uint256","name":"mETHAmount","type":"uint256"}],"name":"addCollateral","outputs":[],"stateMutability":"nonpayable","type":"function"},{"inputs":[{"internalType":"uint256","name":"positionId","type":"uint256"},{"internalType":"address","name":"_yieldVault","type":"address"},{"internalType":"address","name":"rwaToken","type":"address"},{"internalType":"uint256","name":"tokenAmount","type":"uint256"}],"name":"claimYieldFromBurn","outputs":[{"internalType":"uint256","name":"usdcReceived","type":"uint256"}],"stateMutability":"nonpayable","type":"function"},{"inputs":[{"internalType":"address","name":"user","type":"address"},{"internalType":"uint256","name":"mETHAmount","type":"uint256"},{"internalType":"uint256","name":"usdcToBorrow","type":"uint256"},{"internalType":"address","name":"rwaToken","type":"address"},{"internalType":"uint256","name":"rwaTokenAmount","type":"uint256"},{"internalType":"string","name":"assetId","type":"string"},{"internalType":"bytes32","name":"assetIdBytes","type":"bytes32"},{"internalType":"uint256","name":"mETHPriceUSD","type":"uint256"}],"name":"createPosition","outputs":[{"internalType":"uint256","name":"positionId","type":"uint256"}],"stateMutability":"nonpayable","type":"function"},{"inputs":[],"name":"fluxionIntegration","outputs":[{"internalType":"address","name":"","type":"address"}],"stateMutability":"view","type":"function"},{"inputs":[{"internalType":"uint256","name":"positionId","type":"uint256"},{"internalType":"uint256","name":"mETHPriceUSD","type":"uint256"}],"name":"getHealthFactor","outputs":[{"internalType":"uint256","name":"","type":"uint256"}],"stateMutability":"view","type":"function"},{"inputs":[{"internalType":"uint256","name":"positionId","type":"uint256"}],"name":"getPosition","outputs":[{"components":[{"internalType":"address","name":"user","type":"address"},{"internalType":"uint256","name":"mETHCollateral","type":"uint256"},{"internalType":"uint256","name":"usdcBorrowed","type":"uint256"},{"internalType":"address","name":"rwaToken","type":"address"},{"internalType":"uint256","name":"rwaTokenAmount","type":"uint256"},{"internalType":"string","name":"assetId","type":"string"},{"internalType":"uint256","name":"createdAt","type":"uint256"},{"internalType":"uint256","name":"lastHarvestTime","type":"uint256"},{"internalType":"uint256","name":"totalInterestPaid","type":"uint256"},{"internalType":"bool","name":"active","type":"bool"}],"internalType":"struct LeverageVault.Position","name":"","type":"tuple"}],"stateMutability":"view","type":"function"},{"inputs":[{"internalType":"uint256","name":"positionId","type":"uint256"},{"internalType":"uint256","name":"mETHPriceUSD","type":"uint256"}],"name":"harvestYield","outputs":[{"internalType":"uint256","name":"mETHSwapped","type":"uint256"},{"internalType":"uint256","name":"usdcReceived","type":"uint256"},{"internalType":"uint256","name":"interestPaid","type":"uint256"}],"stateMutability":"nonpayable","type":"function"},{"inputs":[{"internalType":"uint256","name":"positionId","type":"uint256"},{"internalType":"uint256","name":"mETHPriceUSD","type":"uint256"}],"name":"liquidatePosition","outputs":[{"internalType":"uint256","name":"usdcRecovered","type":"uint256"},{"internalType":"uint256","name":"shortfall","type":"uint256"},{"internalType":"uint256","name":"excessReturned","type":"uint256"}],"stateMutability":"nonpayable","type":"function"},{"inputs":[],"name":"mETH","outputs":[{"internalType":"contract IERC20","name":"","type":"address"}],"stateMutability":"view","type":"function"},{"inputs":[],"name":"nextPositionId","outputs":[{"internalType":"uint256","name":"","type":"uint256"}],"stateMutability":"view","type":"function"},{"inputs":[],"name":"owner","outputs":[{"internalType":"address","name":"","type":"address"}],"stateMutability":"view","type":"function"},{"inputs":[{"internalType":"uint256","name":"","type":"uint256"}],"name":"positions","outputs":[{"internalType":"address","name":"user","type":"address"},{"internalType":"uint256","name":"mETHCollateral","type":"uint256"},{"internalType":"uint256","name":"usdcBorrowed","type":"uint256"},{"internalType":"address","name":"rwaToken","type":"address"},{"internalType":"uint256","name":"rwaTokenAmount","type":"uint256"},{"internalType":"string","name":"assetId","type":"string"},{"internalType":"uint256","name":"createdAt","type":"uint256"},{"internalType":"uint256","name":"lastHarvestTime","type":"uint256"},{"internalType":"uint256","name":"totalInterestPaid","type":"uint256"},{"internalType":"bool","name":"active","type":"bool"}],"stateMutability":"view","type":"function"},{"inputs":[],"name":"primaryMarket","outputs":[{"internalType":"address","name":"","type":"address"}],"stateMutability":"view","type":"function"},{"inputs":[{"internalType":"uint256","name":"positionId","type":"uint256"},{"internalType":"uint256","name":"settlementUSDC","type":"uint256"}],"name":"processSettlement","outputs":[{"internalType":"uint256","name":"seniorRepayment","type":"uint256"},{"internalType":"uint256","name":"interestRepayment","type":"uint256"},{"internalType":"uint256","name":"userYield","type":"uint256"}],"stateMutability":"nonpayable","type":"function"},{"inputs":[],"name":"renounceOwnership","outputs":[],"stateMutability":"nonpayable","type":"function"},{"inputs":[],"name":"seniorPool","outputs":[{"internalType":"address","name":"","type":"address"}],"stateMutability":"view","type":"function"},{"inputs":[{"internalType":"address","name":"_primaryMarket","type":"address"}],"name":"setPrimaryMarket","outputs":[],"stateMutability":"nonpayable","type":"function"},{"inputs":[{"internalType":"address","name":"_yieldVault","type":"address"}],"name":"setYieldVault","outputs":[],"stateMutability":"nonpayable","type":"function"},{"inputs":[{"internalType":"address","name":"newOwner","type":"address"}],"name":"transferOwnership","outputs":[],"stateMutability":"nonpayable","type":"function"},{"inputs":[],"name":"usdc","outputs":[{"internalType":"contract IERC20","name":"","type":"address"}],"stateMutability":"view","type":"function"},{"inputs":[],"name":"yieldVault","outputs":[{"internalType":"address","name":"","type":"address"}],"stateMutability":"view","type":"function"}],"evm":{"bytecode":{"linkReferences":{},"object":"6080346200012557601f6200269738819003918201601f19168301916001600160401b038311848410176200012a5780849260809460405283398101031262000125576200004d8162000140565b906200005c6020820162000140565b620000786060620000706040850162000140565b930162000140565b33156200010c576000549360018060a01b03199333858716176000556040519560018060a01b03948580948193823391167f8be0079c531659141344cd1fd0a4f28419497f9722a3daafe3b4186f6b6457e0600080a3600180551687600254161760025516856003541617600355168360045416176004551690600554161760055560016009556125419081620001568239f35b604051631e4fbdf760e01b815260006004820152602490fd5b600080fd5b634e487b7160e01b600052604160045260246000fd5b51906001600160a01b0382168203620001255756fe6080604052600436101561001257600080fd5b6000803560e01c80630381b4dd14611bb1578063137c3f6914611b1f5780631e77ceda14611af657806329e8486714611acd5780633e413bee14611aa45780634d2c872a14611a82578063505aa21214611a595780635cacf42214611a3c578063715018a6146119e25780638482c795146111eb578063899346c7146111cd5780638da5cb5b146111a657806390a8ae9b14611189578063975d6dfb14610e8357806399fbab8814610dca578063a7f8a5e214610da1578063a8f35adf14610c37578063d3c4e4a6146107e3578063e1f1c4a7146107c6578063e2dc36661461077a578063eb02c301146105fd578063f2fde38b14610572578063f416fc1c146105495763ffc0d2331461012557600080fd5b3461054657602461013536611ff9565b919061013f6121ca565b610147612303565b8084526008602052604084209061016460ff600984015416612326565b61016f841515612234565b602060018060a01b036004541660405194858092639339ea6960e01b82528560048301525afa92831561053b578593610507575b5082156104cd576c0c9f2c9cd04674edea4000000083026c0c9f2c9cd04674edea3fffffff19848204016104b757846101db91612288565b92600183015484116104725760025460055460405163095ea7b360e01b81526001600160a01b03918216600482015260248101879052889790929091602091849160449183918c91165af19182156103cf57602092610455575b506005546040516307e8586d60e51b81526004810188905260248101929092529096879160449183916001600160a01b03165af194851561044a578695610411575b508085111561040957915b6003546004805460405163095ea7b360e01b81526001600160a01b0391821692810192909252602482018690529091602091839160449183918c91165af180156103cf576103da575b5085604060018060a01b0360045416604482518094819363d8aed14560e01b83528860048401528960248401525af180156103cf5761039d959697506103a1575b5061031b85600183015461237e565b60018201556008810161032f84825461238b565b90556007429101557f64cc470d924ef687ff28d709b7ef348c355fbe6f2b2e4157a21353815d9c477460405180610379858989846040919493926060820195825260208201520152565b0390a260018055604051938493846040919493926060820195825260208201520152565b0390f35b6103c29060403d6040116103c8575b6103ba818361206c565b810190612368565b5061030c565b503d6103b0565b6040513d89823e3d90fd5b6103fb9060203d602011610402575b6103f3818361206c565b8101906122a8565b50386102cb565b503d6103e9565b508391610282565b9094506020813d602011610442575b8161042d6020938361206c565b8101031261043d57519338610277565b600080fd5b3d9150610420565b6040513d88823e3d90fd5b61046b90833d8511610402576103f3818361206c565b5038610235565b60405162461bcd60e51b815260206004820152601760248201527f496e73756666696369656e7420636f6c6c61746572616c0000000000000000006044820152606490fd5b634e487b7160e01b600052601160045260246000fd5b60405162461bcd60e51b81526020600482015260126024820152714e6f20696e74657265737420746f2070617960701b6044820152606490fd5b9092506020813d602011610533575b816105236020938361206c565b8101031261043d575191386101a3565b3d9150610516565b6040513d87823e3d90fd5b80fd5b50346105465780600319360112610546576004546040516001600160a01b039091168152602090f35b50346105465760203660031901126105465761058c61200f565b6105946121ca565b6001600160a01b039081169081156105e457600054826001600160601b0360a01b821617600055167f8be0079c531659141344cd1fd0a4f28419497f9722a3daafe3b4186f6b6457e0600080a380f35b604051631e4fbdf760e01b815260048101849052602490fd5b5034610546576020366003190112610546578060409161012083516106218161204f565b8281528260208201528285820152826060820152826080820152606060a08201528260c08201528260e0820152826101008201520152600435815260086020522060ff6009604051926106738461204f565b80546001600160a01b03908116855260018201546020860152600282015460408601526003820154166060850152600481015460808501526106b7600582016120e4565b60a0850152600681015460c0850152600781015460e08501526008810154610100850152015416151561012082015260405180916020825260018060a01b038151166020830152602081015160408301526040810151606083015260018060a01b036060820151166080830152608081015160a083015260a081015161012061074e610140928360c087015261016086019061218a565b9260c081015160e086015260e08101516101008601526101008101518286015201511515908301520390f35b50346105465760203660031901126105465761079461200f565b61079c6121ca565b6001600160a01b03166107b08115156121f6565b6001600160601b0360a01b600754161760075580f35b503461054657806003193601126105465760206040516127108152f35b5034610546576107f236611ff9565b90916107fc6121ca565b610804612303565b828152602092600884526040822090600982019161082560ff845416612326565b610830851515612234565b612af861083d8684612398565b1015610bfc5780546001909101805460025460055460405163095ea7b360e01b8082526001600160a01b03928316600483015260248201859052949993959193918416928b90829060449082908d9089165af18015610bf157918b918a96959493610bd4575b5060448460055416916040519b8c9384926307e8586d60e51b84528b600485015260248401525af1978815610b22578498610ba5575b508160045416926040519363d559515760e01b85528760048601528b85602481845afa94851561044a57908c918796610b72575b506109549190868c1115610b6957869384915b6003546040519283526001600160a01b039091166004830152602482019290925292839187169082908a9082906044820190565b03925af1801561044a57918c6040928894610b4b575b505060448560045416918351948593849263d8aed14560e01b84528d600485015260248401525af1801561053b57610b2d575b5087831115610a2257505091858097986080936109de61039d997fff12c0216efb56216c8efbaf4798aa7b74300a23706d2a444f5a00a97cd237f59761237e565b9a81985b60ff19815416905555604051928352820152876040820152846060820152a260018055604051938493846040919493926060820195825260208201520152565b610a3384999399979297998961237e565b9687610a6f575b5050958097986080937fff12c0216efb56216c8efbaf4798aa7b74300a23706d2a444f5a00a97cd237f5959361039d996109e2565b60035460405163a9059cbb60e01b81526001600160a01b03939093166004840152602483018990528b91839160449183918991165af1908115610b22578491610b05575b5015610ac0573880610a3a565b60405162461bcd60e51b8152600481018a9052601b60248201527f4578636573732055534443207472616e73666572206661696c656400000000006044820152606490fd5b610b1c91508a3d8c11610402576103f3818361206c565b38610ab3565b6040513d86823e3d90fd5b610b459060403d6040116103c8576103ba818361206c565b5061099d565b81610b6192903d10610402576103f3818361206c565b508c3861096a565b8b938491610920565b8281939297503d8311610b9e575b610b8a818361206c565b8101031261043d5751938b9061095461090d565b503d610b80565b9097508981813d8311610bcd575b610bbd818361206c565b8101031261043d575196386108d9565b503d610bb3565b610bea90833d8511610402576103f3818361206c565b50386108a3565b6040513d8b823e3d90fd5b60405162461bcd60e51b8152600481018790526013602482015272506f736974696f6e206973206865616c74687960681b6044820152606490fd5b503461054657610c4636611ff9565b610c4e612303565b8183526020600881526040842091610c6c60ff600985015416612326565b82546001600160a01b039081163303610d67578115610d2d576002546040516323b872dd60e01b81523360048201523060248201526044810184905294918491869160649183918b91165af190811561044a57610cf46001927f244160b15e69cc411f041d94ae7fab6f6bba85dade8403216c05ff4b920d5449968991610d10575b506122c0565b01610d0082825461238b565b9055604051908152a26001805580f35b610d279150863d8811610402576103f3818361206c565b38610cee565b60405162461bcd60e51b81526004810184905260126024820152710416d6f756e74206d757374206265203e20360741b6044820152606490fd5b60405162461bcd60e51b81526004810184905260126024820152712737ba103837b9b4ba34b7b71037bbb732b960711b6044820152606490fd5b50346105465780600319360112610546576006546040516001600160a01b039091168152602090f35b503461054657602036600319011261054657604090600435815260086020522060018060a01b0390818154169060018101549260028201549060038301541691600481015492610e66610e1f600584016120e4565b60068401549560078501549360ff6009600888015497015416966040519a8b9a8b5260208b015260408a0152606089015260808801526101408060a089015287019061218a565b9360c086015260e085015261010084015215156101208301520390f35b5034610546576080366003190112610546576001600160a01b03906024803591838316830361043d57604435908482169283830361043d5760643594610ec76121ca565b610ecf612303565b60043583526020966008885260408420610eef60ff600983015416612326565b8682600383015416036111545760040195865488116111105760405163095ea7b360e01b81526001600160a01b0384166004820152602481018990529089908290604490829089905af1801561053b576110f3575b5080600354169160405195898786816370a0823160e01b978882523060048301525afa96871561044a578a8a9188996110bf575b5060408051630c34f5ed60e11b9281019283526001600160a01b0390941688850190815260208101939093528894859490938592610fc19183910103601f19810183528261206c565b51925af13d156110ba573d610fd58161208e565b90610fe3604051928361206c565b8152858a3d92013e5b156110765790879160035416926040518094819382523060048301525afa91821561106a579161103b575b5061102d916110259161237e565b92825461237e565b905560018055604051908152f35b90508481813d8311611063575b611052818361206c565b8101031261043d575161102d611017565b503d611048565b604051903d90823e3d90fd5b60405162461bcd60e51b8152600481018990526017818501527f5969656c645661756c7420636c61696d206661696c65640000000000000000006044820152606490fd5b610fec565b92939850905081813d83116110ec575b6110d9818361206c565b8101031261043d57519590888a87610f78565b503d6110cf565b61110990893d8b11610402576103f3818361206c565b5038610f44565b60405162461bcd60e51b8152600481018a90526017818601527f496e73756666696369656e742052574120746f6b656e730000000000000000006044820152606490fd5b60405162461bcd60e51b8152600481018a9052600e818601526d0a8ded6cadc40dad2e6dac2e8c6d60931b6044820152606490fd5b50346105465780600319360112610546576020604051612af88152f35b5034610546578060031936011261054657546040516001600160a01b039091168152602090f35b50346105465780600319360112610546576020600954604051908152f35b5034610546576101003660031901126105465761120661200f565b6064356001600160a01b03811681036118245760a4359167ffffffffffffffff83116117df57366023840112156117df57838360040135936112478561208e565b94611255604051968761206c565b80865236602482840101116118245780602460209301838801378501015260e43561127e6121ca565b611286612303565b6001600160a01b038216156119ae57602435156119695760443515611924576001600160a01b038316156118eb576112bf811515612234565b6007546001600160a01b0316156118ae576112ea6c0c9f2c9cd04674edea4000000091602435612275565b04613a9880604435029060443582040361189a57612710900411611841576002546040516323b872dd60e01b81526001600160a01b038381166004830152306024808401919091523560448301529091602091839160649183918a91165af1801561053b5761135f91869161182857506122c0565b60045460095485916001600160a01b0316803b1561182457604483926040519485938492630ecbcdab60e01b84526004840152833560248401525af1801561053b57611811575b5060035460075460405163095ea7b360e01b81526001600160a01b039182166004820152604480356024830152909260209284929183918a91165af1801561053b576117f2575b5060075484906001600160a01b0316803b156117ee578180916044604051809481936307f5d63360e01b835260c435600484015260843560248401525af180156117e3576117cb575b50506040516370a0823160e01b81523060048201526020816024816001600160a01b0387165afa90811561053b578591611799575b5060843511611754576009549260001984146117405760018401600955604051906114958261204f565b60018060a01b03831682526024356020830152604435604083015260018060a01b0384166060830152608435608083015260a08201524260c08201524260e082015284610100820152600161012082015283855260086020526040852060018060a01b038251166001600160601b0360a01b90818354161782556020830151600183015560408301516002830155600382019060018060a01b03606085015116908254161790556080820151600482015560a082015180519067ffffffffffffffff821161172c5761156a60058401546120aa565b601f81116116e8575b5060209787959493929189916001601f85111461164f57938360809694610120946009947f9b1464e9a9771c899bb0aa078d0a5338d3604792fa428d4d24d35e950e7a2ed69a9892611644575b50508160011b916000199060031b1c19161760058201555b60c0840151600682015560e08401516007820155610100840151600882015501910151151560ff801983541691161790556040519460243586526044358887015260018060a01b03166040860152608435606086015260018060a01b031693a360018055604051908152f35b0151905038806115c0565b91906005850183528a8320925b601f19851681106116ce575093600184610120946009947f9b1464e9a9771c899bb0aa078d0a5338d3604792fa428d4d24d35e950e7a2ed69a9860809a98601f198116106116b5575b505050811b0160058201556115d8565b015160001960f88460031b161c191690553880806116a5565b8183015184558a9850600190930192918b01918b0161165c565b60058401895260208920601f840160051c810160208510611725575b601f830160051c8201811061171a575050611573565b8a8155600101611704565b5080611704565b634e487b7160e01b88526041600452602488fd5b634e487b7160e01b85526011600452602485fd5b60405162461bcd60e51b815260206004820152601960248201527f52574120746f6b656e207075726368617365206661696c6564000000000000006044820152606490fd5b90506020813d6020116117c3575b816117b46020938361206c565b8101031261043d57513861146b565b3d91506117a7565b6117d490612025565b6117df578338611436565b8380fd5b6040513d84823e3d90fd5b5080fd5b61180a9060203d602011610402576103f3818361206c565b50386113ed565b61181d90949194612025565b92386113a6565b8280fd5b610d27915060203d602011610402576103f3818361206c565b60405162461bcd60e51b815260206004820152602b60248201527f496e73756666696369656e7420636f6c6c61746572616c202831353025204c5460448201526a562072657175697265642960a81b6064820152608490fd5b634e487b7160e01b86526011600452602486fd5b60405162461bcd60e51b8152602060048201526015602482015274141c9a5b585c9e53585c9ad95d081b9bdd081cd95d605a1b6044820152606490fd5b60405162461bcd60e51b815260206004820152601160248201527024b73b30b634b210292ba0903a37b5b2b760791b6044820152606490fd5b60405162461bcd60e51b815260206004820152601760248201527f5553444320616d6f756e74206d757374206265203e20300000000000000000006044820152606490fd5b60405162461bcd60e51b815260206004820152601760248201527f6d45544820616d6f756e74206d757374206265203e20300000000000000000006044820152606490fd5b60405162461bcd60e51b815260206004820152600c60248201526b24b73b30b634b2103ab9b2b960a11b6044820152606490fd5b50346105465780600319360112610546576119fb6121ca565b80546001600160a01b03198116825581906001600160a01b03167f8be0079c531659141344cd1fd0a4f28419497f9722a3daafe3b4186f6b6457e08280a380f35b50346105465780600319360112610546576020604051613a988152f35b50346105465780600319360112610546576005546040516001600160a01b039091168152602090f35b5034610546576020611a9c611a9636611ff9565b90612398565b604051908152f35b50346105465780600319360112610546576003546040516001600160a01b039091168152602090f35b50346105465780600319360112610546576002546040516001600160a01b039091168152602090f35b50346105465780600319360112610546576007546040516001600160a01b039091168152602090f35b503461054657602036600319011261054657611b3961200f565b611b416121ca565b600654906001600160a01b0390818316611b73571690611b628215156121f6565b6001600160a01b0319161760065580f35b60405162461bcd60e51b8152602060048201526016602482015275165a595b1915985d5b1d08185b1c9958591e481cd95d60521b6044820152606490fd5b503461054657611bc036611ff9565b611bcb9291926121ca565b611bd3612303565b82825260209260088452604083209060098201611bf360ff825416612326565b6004805460405163d559515760e01b81529182018490526001600160a01b03919082168882602481845afa918215611ede579089918993611fc4575b50828810611ee957506003546004805460405163095ea7b360e01b81529086166001600160a01b03169181019190915260248101849052919082908516818b816044810103925af18015611ede579088939291611ec1575b506040826004541660448251809b819363d8aed14560e01b83528a60048401528660248401525af18015611eb65783988491611e8f575b5090611ccb91989761237e565b9485611dde575b60018101549182611d30575b888861039d89898960ff1981541690557f2ad2842250c60e12f989a7e1ed97d0095f991ba01aea08bdac2f87c62782095b60405180610379858989846040919493926060820195825260208201520152565b600254915460405163a9059cbb60e01b81529082166001600160a01b03166004820152602481019390935289918391168185816044810103925af191821561106a5791611dc1575b5015611d875785808080611cde565b60405162461bcd60e51b81526004810187905260126024820152711b515512081c995d1d5c9b8819985a5b195960721b6044820152606490fd5b611dd89150873d8911610402576103f3818361206c565b38611d78565b600354815460405163a9059cbb60e01b81529084166001600160a01b0316600482015260248101889052908a90829085168187816044810103925af1908115610b22578491611e72575b50611cd25760405162461bcd60e51b8152600481018a9052601a60248201527f55736572207969656c64207472616e73666572206661696c65640000000000006044820152606490fd5b611e8991508a3d8c11610402576103f3818361206c565b38611e28565b611ccb929950611eae915060403d6040116103c8576103ba818361206c565b909891611cbe565b6040513d85823e3d90fd5b611ed7908a3d8c11610402576103f3818361206c565b5038611c87565b6040513d8a823e3d90fd5b60035460405163095ea7b360e01b81526001600160a01b0392909216600483015260248201899052939793909250829060449082908b908b165af180156103cf57916040918893611fa7575b5060448760045416918351998a93849263d8aed14560e01b845289600485015260248401525af18015611f9a5781968291611f75575b5095948194611cd2565b9050611f9191965060403d6040116103c8576103ba818361206c565b95909538611f6b565b50604051903d90823e3d90fd5b611fbd908a3d8c11610402576103f3818361206c565b5038611f35565b8281939294503d8311611ff2575b611fdc818361206c565b81010312611fee578890519138611c2f565b8780fd5b503d611fd2565b604090600319011261043d576004359060243590565b600435906001600160a01b038216820361043d57565b67ffffffffffffffff811161203957604052565b634e487b7160e01b600052604160045260246000fd5b610140810190811067ffffffffffffffff82111761203957604052565b90601f8019910116810190811067ffffffffffffffff82111761203957604052565b67ffffffffffffffff811161203957601f01601f191660200190565b90600182811c921680156120da575b60208310146120c457565b634e487b7160e01b600052602260045260246000fd5b91607f16916120b9565b90604051918260008254926120f8846120aa565b9081845260019485811690816000146121675750600114612124575b50506121229250038361206c565b565b9093915060005260209081600020936000915b81831061214f57505061212293508201013880612114565b85548884018501529485019487945091830191612137565b91505061212294506020925060ff191682840152151560051b8201013880612114565b919082519283825260005b8481106121b6575050826000602080949584010152601f8019910116010190565b602081830181015184830182015201612195565b6000546001600160a01b031633036121de57565b60405163118cdaa760e01b8152336004820152602490fd5b156121fd57565b60405162461bcd60e51b815260206004820152600f60248201526e496e76616c6964206164647265737360881b6044820152606490fd5b1561223b57565b60405162461bcd60e51b8152602060048201526012602482015271496e76616c6964206d45544820707269636560701b6044820152606490fd5b818102929181159184041417156104b757565b8115612292570490565b634e487b7160e01b600052601260045260246000fd5b9081602091031261043d5751801515810361043d5790565b156122c757565b60405162461bcd60e51b81526020600482015260146024820152731b515512081d1c985b9cd9995c8819985a5b195960621b6044820152606490fd5b600260015414612314576002600155565b604051633ee5aeb560e01b8152600490fd5b1561232d57565b60405162461bcd60e51b8152602060048201526013602482015272506f736974696f6e206e6f742061637469766560681b6044820152606490fd5b919082604091031261043d576020825192015190565b919082039182116104b757565b919082018092116104b757565b919091600092818452602091600883526040852091604051926123ba8461204f565b60018060a01b039384825416815260ff60096001840154938884019485526002810154604085015287600382015416606085015260048101546080850152612404600582016120e4565b60a0850152600681015460c0850152600781015460e08501526008810154610100850152015416159061012082159101526125045761245e826c0c9f2c9cd04674edea400000009261245888951515612234565b51612275565b0492600454169160246040518094819363d559515760e01b835260048301525afa92831561053b5785936124d4575b505081156124cb57612710908181029181830414901517156124b7576124b4929350612288565b90565b634e487b7160e01b84526011600452602484fd5b50600019925050565b9080929350813d83116124fd575b6124ec818361206c565b810103126117df575190388061248d565b503d6124e2565b505050505056fea26469706673582212206e9adc906e8500713c0c5a2f72be54f7b1f2ea743037a8fdf04ba81136262b7364736f6c63430008140033","opcodes":"PUSH1 0x80 CALLVALUE PUSH3 0x125 JUMPI PUSH1 0x1F PUSH3 0x2697 CODESIZE DUP2 SWAP1 SUB SWAP2 DUP3 ADD PUSH1 0x1F NOT AND DUP4 ADD SWAP2 PUSH1 0x1 PUSH1 0x1 PUSH1 0x40 SHL SUB DUP4 GT DUP5 DUP5 LT OR PUSH3 0x12A JUMPI DUP1 DUP5 SWAP3 PUSH1 0x80 SWAP5 PUSH1 0x40 MSTORE DUP4 CODECOPY DUP2 ADD SUB SLT PUSH3 0x125 JUMPI PUSH3 0x4D DUP2 PUSH3 0x140 JUMP JUMPDEST SWAP1 PUSH3 0x5C PUSH1 0x20 DUP3 ADD PUSH3 0x140 JUMP JUMPDEST PUSH3 0x78 PUSH1 0x60 PUSH3 0x70 PUSH1 0x40 DUP6 ADD PUSH3 0x140 JUMP JUMPDEST SWAP4 ADD PUSH3 0x140 JUMP JUMPDEST CALLER ISZERO PUSH3 0x10C JUMPI PUSH1 0x0 SLOAD SWAP4 PUSH1 0x1 DUP1 PUSH1 0xA0 SHL SUB NOT SWAP4 CALLER DUP6 DUP8 AND OR PUSH1 0x0 SSTORE PUSH1 0x40 MLOAD SWAP6 PUSH1 0x1 DUP1 PUSH1 0xA0 SHL SUB SWAP5 DUP6 DUP1 SWAP5 DUP2 SWAP4 DUP3 CALLER SWAP2 AND PUSH32 0x8BE0079C531659141344CD1FD0A4F28419497F9722A3DAAFE3B4186F6B6457E0 PUSH1 0x0 DUP1 LOG3 PUSH1 0x1 DUP1 SSTORE AND DUP8 PUSH1 0x2 SLOAD AND OR PUSH1 0x2 SSTORE AND DUP6 PUSH1 0x3 SLOAD AND OR PUSH1 0x3 SSTORE AND DUP4 PUSH1 0x4 SLOAD AND OR PUSH1 0x4 SSTORE AND SWAP1 PUSH1 0x5 SLOAD AND OR PUSH1 0x5 SSTORE PUSH1 0x1 PUSH1 0x9 SSTORE PUSH2 0x2541 SWAP1 DUP2 PUSH3 0x156 DUP3 CODECOPY RETURN JUMPDEST PUSH1 0x40 MLOAD PUSH4 0x1E4FBDF7 PUSH1 0xE0 SHL DUP2 MSTORE PUSH1 0x0 PUSH1 0x4 DUP3 ADD MSTORE PUSH1 0x24 SWAP1 REVERT JUMPDEST PUSH1 0x0 DUP1 REVERT JUMPDEST PUSH4 0x4E487B71 PUSH1 0xE0 SHL PUSH1 0x0 MSTORE PUSH1 0x41 PUSH1 0x4 MSTORE PUSH1 0x24 PUSH1 0x0 REVERT JUMPDEST MLOAD SWAP1 PUSH1 0x1 PUSH1 0x1 PUSH1 0xA0 SHL SUB DUP3 AND DUP3 SUB PUSH3 0x125 JUMPI JUMP INVALID PUSH1 0x80 PUSH1 0x40 MSTORE PUSH1 0x4 CALLDATASIZE LT ISZERO PUSH2 0x12 JUMPI PUSH1 0x0 DUP1 REVERT JUMPDEST PUSH1 0x0 DUP1 CALLDATALOAD PUSH1 0xE0 SHR DUP1 PUSH4 0x381B4DD EQ PUSH2 0x1BB1 JUMPI DUP1 PUSH4 0x137C3F69 EQ PUSH2 0x1B1F JUMPI DUP1 PUSH4 0x1E77CEDA EQ PUSH2 0x1AF6 JUMPI DUP1 PUSH4 0x29E84867 EQ PUSH2 0x1ACD JUMPI DUP1 PUSH4 0x3E413BEE EQ PUSH2 0x1AA4 JUMPI DUP1 PUSH4 0x4D2C872A EQ PUSH2 0x1A82 JUMPI DUP1 PUSH4 0x505AA212 EQ PUSH2 0x1A59 JUMPI DUP1 PUSH4 0x5CACF422 EQ PUSH2 0x1A3C JUMPI DUP1 PUSH4 0x715018A6 EQ PUSH2 0x19E2 JUMPI DUP1 PUSH4 0x8482C795 EQ PUSH2 0x11EB JUMPI DUP1 PUSH4 0x899346C7 EQ PUSH2 0x11CD JUMPI DUP1 PUSH4 0x8DA5CB5B EQ PUSH2 0x11A6 JUMPI DUP1 PUSH4 0x90A8AE9B EQ PUSH2 0x1189 JUMPI DUP1 PUSH4 0x975D6DFB EQ PUSH2 0xE83 JUMPI DUP1 PUSH4 0x99FBAB88 EQ PUSH2 0xDCA JUMPI DUP1 PUSH4 0xA7F8A5E2 EQ PUSH2 0xDA1 JUMPI DUP1 PUSH4 0xA8F35ADF EQ PUSH2 0xC37 JUMPI DUP1 PUSH4 0xD3C4E4A6 EQ PUSH2 0x7E3 JUMPI DUP1 PUSH4 0xE1F1C4A7 EQ PUSH2 0x7C6 JUMPI DUP1 PUSH4 0xE2DC3666 EQ PUSH2 0x77A JUMPI DUP1 PUSH4 0xEB02C301 EQ PUSH2 0x5FD JUMPI DUP1 PUSH4 0xF2FDE38B EQ PUSH2 0x572 JUMPI DUP1 PUSH4 0xF416FC1C EQ PUSH2 0x549 JUMPI PUSH4 0xFFC0D233 EQ PUSH2 0x125 JUMPI PUSH1 0x0 DUP1 REVERT JUMPDEST CALLVALUE PUSH2 0x546 JUMPI PUSH1 0x24 PUSH2 0x135 CALLDATASIZE PUSH2 0x1FF9 JUMP JUMPDEST SWAP2 SWAP1 PUSH2 0x13F PUSH2 0x21CA JUMP JUMPDEST PUSH2 0x147 PUSH2 0x2303 JUMP JUMPDEST DUP1 DUP5 MSTORE PUSH1 0x8 PUSH1 0x20 MSTORE PUSH1 0x40 DUP5 KECCAK256 SWAP1 PUSH2 0x164 PUSH1 0xFF PUSH1 0x9 DUP5 ADD SLOAD AND PUSH2 0x2326 JUMP JUMPDEST PUSH2 0x16F DUP5 ISZERO ISZERO PUSH2 0x2234 JUMP JUMPDEST PUSH1 0x20 PUSH1 0x1 DUP1 PUSH1 0xA0 SHL SUB PUSH1 0x4 SLOAD AND PUSH1 0x40 MLOAD SWAP5 DUP6 DUP1 SWAP3 PUSH4 0x9339EA69 PUSH1 0xE0 SHL DUP3 MSTORE DUP6 PUSH1 0x4 DUP4 ADD MSTORE GAS STATICCALL SWAP3 DUP4 ISZERO PUSH2 0x53B JUMPI DUP6 SWAP4 PUSH2 0x507 JUMPI JUMPDEST POP DUP3 ISZERO PUSH2 0x4CD JUMPI PUSH13 0xC9F2C9CD04674EDEA40000000 DUP4 MUL PUSH13 0xC9F2C9CD04674EDEA3FFFFFFF NOT DUP5 DUP3 DIV ADD PUSH2 0x4B7 JUMPI DUP5 PUSH2 0x1DB SWAP2 PUSH2 0x2288 JUMP JUMPDEST SWAP3 PUSH1 0x1 DUP4 ADD SLOAD DUP5 GT PUSH2 0x472 JUMPI PUSH1 0x2 SLOAD PUSH1 0x5 SLOAD PUSH1 0x40 MLOAD PUSH4 0x95EA7B3 PUSH1 0xE0 SHL DUP2 MSTORE PUSH1 0x1 PUSH1 0x1 PUSH1 0xA0 SHL SUB SWAP2 DUP3 AND PUSH1 0x4 DUP3 ADD MSTORE PUSH1 0x24 DUP2 ADD DUP8 SWAP1 MSTORE DUP9 SWAP8 SWAP1 SWAP3 SWAP1 SWAP2 PUSH1 0x20 SWAP2 DUP5 SWAP2 PUSH1 0x44 SWAP2 DUP4 SWAP2 DUP13 SWAP2 AND GAS CALL SWAP2 DUP3 ISZERO PUSH2 0x3CF JUMPI PUSH1 0x20 SWAP3 PUSH2 0x455 JUMPI JUMPDEST POP PUSH1 0x5 SLOAD PUSH1 0x40 MLOAD PUSH4 0x7E8586D PUSH1 0xE5 SHL DUP2 MSTORE PUSH1 0x4 DUP2 ADD DUP9 SWAP1 MSTORE PUSH1 0x24 DUP2 ADD SWAP3 SWAP1 SWAP3 MSTORE SWAP1 SWAP7 DUP8 SWAP2 PUSH1 0x44 SWAP2 DUP4 SWAP2 PUSH1 0x1 PUSH1 0x1 PUSH1 0xA0 SHL SUB AND GAS CALL SWAP5 DUP6 ISZERO PUSH2 0x44A JUMPI DUP7 SWAP6 PUSH2 0x411 JUMPI JUMPDEST POP DUP1 DUP6 GT ISZERO PUSH2 0x409 JUMPI SWAP2 JUMPDEST PUSH1 0x3 SLOAD PUSH1 0x4 DUP1 SLOAD PUSH1 0x40 MLOAD PUSH4 0x95EA7B3 PUSH1 0xE0 SHL DUP2 MSTORE PUSH1 0x1 PUSH1 0x1 PUSH1 0xA0 SHL SUB SWAP2 DUP3 AND SWAP3 DUP2 ADD SWAP3 SWAP1 SWAP3 MSTORE PUSH1 0x24 DUP3 ADD DUP7 SWAP1 MSTORE SWAP1 SWAP2 PUSH1 0x20 SWAP2 DUP4 SWAP2 PUSH1 0x44 SWAP2 DUP4 SWAP2 DUP13 SWAP2 AND GAS CALL DUP1 ISZERO PUSH2 0x3CF JUMPI PUSH2 0x3DA JUMPI JUMPDEST POP DUP6 PUSH1 0x40 PUSH1 0x1 DUP1 PUSH1 0xA0 SHL SUB PUSH1 0x4 SLOAD AND PUSH1 0x44 DUP3 MLOAD DUP1 SWAP5 DUP2 SWAP4 PUSH4 0xD8AED145 PUSH1 0xE0 SHL DUP4 MSTORE DUP9 PUSH1 0x4 DUP5 ADD MSTORE DUP10 PUSH1 0x24 DUP5 ADD MSTORE GAS CALL DUP1 ISZERO PUSH2 0x3CF JUMPI PUSH2 0x39D SWAP6 SWAP7 SWAP8 POP PUSH2 0x3A1 JUMPI JUMPDEST POP PUSH2 0x31B DUP6 PUSH1 0x1 DUP4 ADD SLOAD PUSH2 0x237E JUMP JUMPDEST PUSH1 0x1 DUP3 ADD SSTORE PUSH1 0x8 DUP2 ADD PUSH2 0x32F DUP5 DUP3 SLOAD PUSH2 0x238B JUMP JUMPDEST SWAP1 SSTORE PUSH1 0x7 TIMESTAMP SWAP2 ADD SSTORE PUSH32 0x64CC470D924EF687FF28D709B7EF348C355FBE6F2B2E4157A21353815D9C4774 PUSH1 0x40 MLOAD DUP1 PUSH2 0x379 DUP6 DUP10 DUP10 DUP5 PUSH1 0x40 SWAP2 SWAP5 SWAP4 SWAP3 PUSH1 0x60 DUP3 ADD SWAP6 DUP3 MSTORE PUSH1 0x20 DUP3 ADD MSTORE ADD MSTORE JUMP JUMPDEST SUB SWAP1 LOG2 PUSH1 0x1 DUP1 SSTORE PUSH1 0x40 MLOAD SWAP4 DUP5 SWAP4 DUP5 PUSH1 0x40 SWAP2 SWAP5 SWAP4 SWAP3 PUSH1 0x60 DUP3 ADD SWAP6 DUP3 MSTORE PUSH1 0x20 DUP3 ADD MSTORE ADD MSTORE JUMP JUMPDEST SUB SWAP1 RETURN JUMPDEST PUSH2 0x3C2 SWAP1 PUSH1 0x40 RETURNDATASIZE PUSH1 0x40 GT PUSH2 0x3C8 JUMPI JUMPDEST PUSH2 0x3BA DUP2 DUP4 PUSH2 0x206C JUMP JUMPDEST DUP2 ADD SWAP1 PUSH2 0x2368 JUMP JUMPDEST POP PUSH2 0x30C JUMP JUMPDEST POP RETURNDATASIZE PUSH2 0x3B0 JUMP JUMPDEST PUSH1 0x40 MLOAD RETURNDATASIZE DUP10 DUP3 RETURNDATACOPY RETURNDATASIZE SWAP1 REVERT JUMPDEST PUSH2 0x3FB SWAP1 PUSH1 0x20 RETURNDATASIZE PUSH1 0x20 GT PUSH2 0x402 JUMPI JUMPDEST PUSH2 0x3F3 DUP2 DUP4 PUSH2 0x206C JUMP JUMPDEST DUP2 ADD SWAP1 PUSH2 0x22A8 JUMP JUMPDEST POP CODESIZE PUSH2 0x2CB JUMP JUMPDEST POP RETURNDATASIZE PUSH2 0x3E9 JUMP JUMPDEST POP DUP4 SWAP2 PUSH2 0x282 JUMP JUMPDEST SWAP1 SWAP5 POP PUSH1 0x20 DUP2 RETURNDATASIZE PUSH1 0x20 GT PUSH2 0x442 JUMPI JUMPDEST DUP2 PUSH2 0x42D PUSH1 0x20 SWAP4 DUP4 PUSH2 0x206C JUMP JUMPDEST DUP2 ADD SUB SLT PUSH2 0x43D JUMPI MLOAD SWAP4 CODESIZE PUSH2 0x277 JUMP JUMPDEST PUSH1 0x0 DUP1 REVERT JUMPDEST RETURNDATASIZE SWAP2 POP PUSH2 0x420 JUMP JUMPDEST PUSH1 0x40 MLOAD RETURNDATASIZE DUP9 DUP3 RETURNDATACOPY RETURNDATASIZE SWAP1 REVERT JUMPDEST PUSH2 0x46B SWAP1 DUP4 RETURNDATASIZE DUP6 GT PUSH2 0x402 JUMPI PUSH2 0x3F3 DUP2 DUP4 PUSH2 0x206C JUMP JUMPDEST POP CODESIZE PUSH2 0x235 JUMP JUMPDEST PUSH1 0x40 MLOAD PUSH3 0x461BCD PUSH1 0xE5 SHL DUP2 MSTORE PUSH1 0x20 PUSH1 0x4 DUP3 ADD MSTORE PUSH1 0x17 PUSH1 0x24 DUP3 ADD MSTORE PUSH32 0x496E73756666696369656E7420636F6C6C61746572616C000000000000000000 PUSH1 0x44 DUP3 ADD MSTORE PUSH1 0x64 SWAP1 REVERT JUMPDEST PUSH4 0x4E487B71 PUSH1 0xE0 SHL PUSH1 0x0 MSTORE PUSH1 0x11 PUSH1 0x4 MSTORE PUSH1 0x24 PUSH1 0x0 REVERT JUMPDEST PUSH1 0x40 MLOAD PUSH3 0x461BCD PUSH1 0xE5 SHL DUP2 MSTORE PUSH1 0x20 PUSH1 0x4 DUP3 ADD MSTORE PUSH1 0x12 PUSH1 0x24 DUP3 ADD MSTORE PUSH18 0x4E6F20696E74657265737420746F20706179 PUSH1 0x70 SHL PUSH1 0x44 DUP3 ADD MSTORE PUSH1 0x64 SWAP1 REVERT JUMPDEST SWAP1 SWAP3 POP PUSH1 0x20 DUP2 RETURNDATASIZE PUSH1 0x20 GT PUSH2 0x533 JUMPI JUMPDEST DUP2 PUSH2 0x523 PUSH1 0x20 SWAP4 DUP4 PUSH2 0x206C JUMP JUMPDEST DUP2 ADD SUB SLT PUSH2 0x43D JUMPI MLOAD SWAP2 CODESIZE PUSH2 0x1A3 JUMP JUMPDEST RETURNDATASIZE SWAP2 POP PUSH2 0x516 JUMP JUMPDEST PUSH1 0x40 MLOAD RETURNDATASIZE DUP8 DUP3 RETURNDATACOPY RETURNDATASIZE SWAP1 REVERT JUMPDEST DUP1 REVERT JUMPDEST POP CALLVALUE PUSH2 0x546 JUMPI DUP1 PUSH1 0x3 NOT CALLDATASIZE ADD SLT PUSH2 0x546 JUMPI PUSH1 0x4 SLOAD PUSH1 0x40 MLOAD PUSH1 0x1 PUSH1 0x1 PUSH1 0xA0 SHL SUB SWAP1 SWAP2 AND DUP2 MSTORE PUSH1 0x20 SWAP1 RETURN JUMPDEST POP CALLVALUE PUSH2 0x546 JUMPI PUSH1 0x20 CALLDATASIZE PUSH1 0x3 NOT ADD SLT PUSH2 0x546 JUMPI PUSH2 0x58C PUSH2 0x200F JUMP JUMPDEST PUSH2 0x594 PUSH2 0x21CA JUMP JUMPDEST PUSH1 0x1 PUSH1 0x1 PUSH1 0xA0 SHL SUB SWAP1 DUP2 AND SWAP1 DUP2 ISZERO PUSH2 0x5E4 JUMPI PUSH1 0x0 SLOAD DUP3 PUSH1 0x1 PUSH1 0x1 PUSH1 0x60 SHL SUB PUSH1 0xA0 SHL DUP3 AND OR PUSH1 0x0 SSTORE AND PUSH32 0x8BE0079C531659141344CD1FD0A4F28419497F9722A3DAAFE3B4186F6B6457E0 PUSH1 0x0 DUP1 LOG3 DUP1 RETURN JUMPDEST PUSH1 0x40 MLOAD PUSH4 0x1E4FBDF7 PUSH1 0xE0 SHL DUP2 MSTORE PUSH1 0x4 DUP2 ADD DUP5 SWAP1 MSTORE PUSH1 0x24 SWAP1 REVERT JUMPDEST POP CALLVALUE PUSH2 0x546 JUMPI PUSH1 0x20 CALLDATASIZE PUSH1 0x3 NOT ADD SLT PUSH2 0x546 JUMPI DUP1 PUSH1 0x40 SWAP2 PUSH2 0x120 DUP4 MLOAD PUSH2 0x621 DUP2 PUSH2 0x204F JUMP JUMPDEST DUP3 DUP2 MSTORE DUP3 PUSH1 0x20 DUP3 ADD MSTORE DUP3 DUP6 DUP3 ADD MSTORE DUP3 PUSH1 0x60 DUP3 ADD MSTORE DUP3 PUSH1 0x80 DUP3 ADD MSTORE PUSH1 0x60 PUSH1 0xA0 DUP3 ADD MSTORE DUP3 PUSH1 0xC0 DUP3 ADD MSTORE DUP3 PUSH1 0xE0 DUP3 ADD MSTORE DUP3 PUSH2 0x100 DUP3 ADD MSTORE ADD MSTORE PUSH1 0x4 CALLDATALOAD DUP2 MSTORE PUSH1 0x8 PUSH1 0x20 MSTORE KECCAK256 PUSH1 0xFF PUSH1 0x9 PUSH1 0x40 MLOAD SWAP3 PUSH2 0x673 DUP5 PUSH2 0x204F JUMP JUMPDEST DUP1 SLOAD PUSH1 0x1 PUSH1 0x1 PUSH1 0xA0 SHL SUB SWAP1 DUP2 AND DUP6 MSTORE PUSH1 0x1 DUP3 ADD SLOAD PUSH1 0x20 DUP7 ADD MSTORE PUSH1 0x2 DUP3 ADD SLOAD PUSH1 0x40 DUP7 ADD MSTORE PUSH1 0x3 DUP3 ADD SLOAD AND PUSH1 0x60 DUP6 ADD MSTORE PUSH1 0x4 DUP2 ADD SLOAD PUSH1 0x80 DUP6 ADD MSTORE PUSH2 0x6B7 PUSH1 0x5 DUP3 ADD PUSH2 0x20E4 JUMP JUMPDEST PUSH1 0xA0 DUP6 ADD MSTORE PUSH1 0x6 DUP2 ADD SLOAD PUSH1 0xC0 DUP6 ADD MSTORE PUSH1 0x7 DUP2 ADD SLOAD PUSH1 0xE0 DUP6 ADD MSTORE PUSH1 0x8 DUP2 ADD SLOAD PUSH2 0x100 DUP6 ADD MSTORE ADD SLOAD AND ISZERO ISZERO PUSH2 0x120 DUP3 ADD MSTORE PUSH1 0x40 MLOAD DUP1 SWAP2 PUSH1 0x20 DUP3 MSTORE PUSH1 0x1 DUP1 PUSH1 0xA0 SHL SUB DUP2 MLOAD AND PUSH1 0x20 DUP4 ADD MSTORE PUSH1 0x20 DUP2 ADD MLOAD PUSH1 0x40 DUP4 ADD MSTORE PUSH1 0x40 DUP2 ADD MLOAD PUSH1 0x60 DUP4 ADD MSTORE PUSH1 0x1 DUP1 PUSH1 0xA0 SHL SUB PUSH1 0x60 DUP3 ADD MLOAD AND PUSH1 0x80 DUP4 ADD MSTORE PUSH1 0x80 DUP2 ADD MLOAD PUSH1 0xA0 DUP4 ADD MSTORE PUSH1 0xA0 DUP2 ADD MLOAD PUSH2 0x120 PUSH2 0x74E PUSH2 0x140 SWAP3 DUP4 PUSH1 0xC0 DUP8 ADD MSTORE PUSH2 0x160 DUP7 ADD SWAP1 PUSH2 0x218A JUMP JUMPDEST SWAP3 PUSH1 0xC0 DUP2 ADD MLOAD PUSH1 0xE0 DUP7 ADD MSTORE PUSH1 0xE0 DUP2 ADD MLOAD PUSH2 0x100 DUP7 ADD MSTORE PUSH2 0x100 DUP2 ADD MLOAD DUP3 DUP7 ADD MSTORE ADD MLOAD ISZERO ISZERO SWAP1 DUP4 ADD MSTORE SUB SWAP1 RETURN JUMPDEST POP CALLVALUE PUSH2 0x546 JUMPI PUSH1 0x20 CALLDATASIZE PUSH1 0x3 NOT ADD SLT PUSH2 0x546 JUMPI PUSH2 0x794 PUSH2 0x200F JUMP JUMPDEST PUSH2 0x79C PUSH2 0x21CA JUMP JUMPDEST PUSH1 0x1 PUSH1 0x1 PUSH1 0xA0 SHL SUB AND PUSH2 0x7B0 DUP2 ISZERO ISZERO PUSH2 0x21F6 JUMP JUMPDEST PUSH1 0x1 PUSH1 0x1 PUSH1 0x60 SHL SUB PUSH1 0xA0 SHL PUSH1 0x7 SLOAD AND OR PUSH1 0x7 SSTORE DUP1 RETURN JUMPDEST POP CALLVALUE PUSH2 0x546 JUMPI DUP1 PUSH1 0x3 NOT CALLDATASIZE ADD SLT PUSH2 0x546 JUMPI PUSH1 0x20 PUSH1 0x40 MLOAD PUSH2 0x2710 DUP2 MSTORE RETURN JUMPDEST POP CALLVALUE PUSH2 0x546 JUMPI PUSH2 0x7F2 CALLDATASIZE PUSH2 0x1FF9 JUMP JUMPDEST SWAP1 SWAP2 PUSH2 0x7FC PUSH2 0x21CA JUMP JUMPDEST PUSH2 0x804 PUSH2 0x2303 JUMP JUMPDEST DUP3 DUP2 MSTORE PUSH1 0x20 SWAP3 PUSH1 0x8 DUP5 MSTORE PUSH1 0x40 DUP3 KECCAK256 SWAP1 PUSH1 0x9 DUP3 ADD SWAP2 PUSH2 0x825 PUSH1 0xFF DUP5 SLOAD AND PUSH2 0x2326 JUMP JUMPDEST PUSH2 0x830 DUP6 ISZERO ISZERO PUSH2 0x2234 JUMP JUMPDEST PUSH2 0x2AF8 PUSH2 0x83D DUP7 DUP5 PUSH2 0x2398 JUMP JUMPDEST LT ISZERO PUSH2 0xBFC JUMPI DUP1 SLOAD PUSH1 0x1 SWAP1 SWAP2 ADD DUP1 SLOAD PUSH1 0x2 SLOAD PUSH1 0x5 SLOAD PUSH1 0x40 MLOAD PUSH4 0x95EA7B3 PUSH1 0xE0 SHL DUP1 DUP3 MSTORE PUSH1 0x1 PUSH1 0x1 PUSH1 0xA0 SHL SUB SWAP3 DUP4 AND PUSH1 0x4 DUP4 ADD MSTORE PUSH1 0x24 DUP3 ADD DUP6 SWAP1 MSTORE SWAP5 SWAP10 SWAP4 SWAP6 SWAP2 SWAP4 SWAP2 DUP5 AND SWAP3 DUP12 SWAP1 DUP3 SWAP1 PUSH1 0x44 SWAP1 DUP3 SWAP1 DUP14 SWAP1 DUP10 AND GAS CALL DUP1 ISZERO PUSH2 0xBF1 JUMPI SWAP2 DUP12 SWAP2 DUP11 SWAP7 SWAP6 SWAP5 SWAP4 PUSH2 0xBD4 JUMPI JUMPDEST POP PUSH1 0x44 DUP5 PUSH1 0x5 SLOAD AND SWAP2 PUSH1 0x40 MLOAD SWAP12 DUP13 SWAP4 DUP5 SWAP3 PUSH4 0x7E8586D PUSH1 0xE5 SHL DUP5 MSTORE DUP12 PUSH1 0x4 DUP6 ADD MSTORE PUSH1 0x24 DUP5 ADD MSTORE GAS CALL SWAP8 DUP9 ISZERO PUSH2 0xB22 JUMPI DUP5 SWAP9 PUSH2 0xBA5 JUMPI JUMPDEST POP DUP2 PUSH1 0x4 SLOAD AND SWAP3 PUSH1 0x40 MLOAD SWAP4 PUSH4 0xD5595157 PUSH1 0xE0 SHL DUP6 MSTORE DUP8 PUSH1 0x4 DUP7 ADD MSTORE DUP12 DUP6 PUSH1 0x24 DUP2 DUP5 GAS STATICCALL SWAP5 DUP6 ISZERO PUSH2 0x44A JUMPI SWAP1 DUP13 SWAP2 DUP8 SWAP7 PUSH2 0xB72 JUMPI JUMPDEST POP PUSH2 0x954 SWAP2 SWAP1 DUP7 DUP13 GT ISZERO PUSH2 0xB69 JUMPI DUP7 SWAP4 DUP5 SWAP2 JUMPDEST PUSH1 0x3 SLOAD PUSH1 0x40 MLOAD SWAP3 DUP4 MSTORE PUSH1 0x1 PUSH1 0x1 PUSH1 0xA0 SHL SUB SWAP1 SWAP2 AND PUSH1 0x4 DUP4 ADD MSTORE PUSH1 0x24 DUP3 ADD SWAP3 SWAP1 SWAP3 MSTORE SWAP3 DUP4 SWAP2 DUP8 AND SWAP1 DUP3 SWAP1 DUP11 SWAP1 DUP3 SWAP1 PUSH1 0x44 DUP3 ADD SWAP1 JUMP JUMPDEST SUB SWAP3 GAS CALL DUP1 ISZERO PUSH2 0x44A JUMPI SWAP2 DUP13 PUSH1 0x40 SWAP3 DUP9 SWAP5 PUSH2 0xB4B JUMPI JUMPDEST POP POP PUSH1 0x44 DUP6 PUSH1 0x4 SLOAD AND SWAP2 DUP4 MLOAD SWAP5 DUP6 SWAP4 DUP5 SWAP3 PUSH4 0xD8AED145 PUSH1 0xE0 SHL DUP5 MSTORE DUP14 PUSH1 0x4 DUP6 ADD MSTORE PUSH1 0x24 DUP5 ADD MSTORE GAS CALL DUP1 ISZERO PUSH2 0x53B JUMPI PUSH2 0xB2D JUMPI JUMPDEST POP DUP8 DUP4 GT ISZERO PUSH2 0xA22 JUMPI POP POP SWAP2 DUP6 DUP1 SWAP8 SWAP9 PUSH1 0x80 SWAP4 PUSH2 0x9DE PUSH2 0x39D SWAP10 PUSH32 0xFF12C0216EFB56216C8EFBAF4798AA7B74300A23706D2A444F5A00A97CD237F5 SWAP8 PUSH2 0x237E JUMP JUMPDEST SWAP11 DUP2 SWAP9 JUMPDEST PUSH1 0xFF NOT DUP2 SLOAD AND SWAP1 SSTORE SSTORE PUSH1 0x40 MLOAD SWAP3 DUP4 MSTORE DUP3 ADD MSTORE DUP8 PUSH1 0x40 DUP3 ADD MSTORE DUP5 PUSH1 0x60 DUP3 ADD MSTORE LOG2 PUSH1 0x1 DUP1 SSTORE PUSH1 0x40 MLOAD SWAP4 DUP5 SWAP4 DUP5 PUSH1 0x40 SWAP2 SWAP5 SWAP4 SWAP3 PUSH1 0x60 DUP3 ADD SWAP6 DUP3 MSTORE PUSH1 0x20 DUP3 ADD MSTORE ADD MSTORE JUMP JUMPDEST PUSH2 0xA33 DUP5 SWAP10 SWAP4 SWAP10 SWAP8 SWAP3 SWAP8 SWAP10 DUP10 PUSH2 0x237E JUMP JUMPDEST SWAP7 DUP8 PUSH2 0xA6F JUMPI JUMPDEST POP POP SWAP6 DUP1 SWAP8 SWAP9 PUSH1 0x80 SWAP4 PUSH32 0xFF12C0216EFB56216C8EFBAF4798AA7B74300A23706D2A444F5A00A97CD237F5 SWAP6 SWAP4 PUSH2 0x39D SWAP10 PUSH2 0x9E2 JUMP JUMPDEST PUSH1 0x3 SLOAD PUSH1 0x40 MLOAD PUSH4 0xA9059CBB PUSH1 0xE0 SHL DUP2 MSTORE PUSH1 0x1 PUSH1 0x1 PUSH1 0xA0 SHL SUB SWAP4 SWAP1 SWAP4 AND PUSH1 0x4 DUP5 ADD MSTORE PUSH1 0x24 DUP4 ADD DUP10 SWAP1 MSTORE DUP12 SWAP2 DUP4 SWAP2 PUSH1 0x44 SWAP2 DUP4 SWAP2 DUP10 SWAP2 AND GAS CALL SWAP1 DUP2 ISZERO PUSH2 0xB22 JUMPI DUP5 SWAP2 PUSH2 0xB05 JUMPI JUMPDEST POP ISZERO PUSH2 0xAC0 JUMPI CODESIZE DUP1 PUSH2 0xA3A JUMP JUMPDEST PUSH1 0x40 MLOAD PUSH3 0x461BCD PUSH1 0xE5 SHL DUP2 MSTORE PUSH1 0x4 DUP2 ADD DUP11 SWAP1 MSTORE PUSH1 0x1B PUSH1 0x24 DUP3 ADD MSTORE PUSH32 0x4578636573732055534443207472616E73666572206661696C65640000000000 PUSH1 0x44 DUP3 ADD MSTORE PUSH1 0x64 SWAP1 REVERT JUMPDEST PUSH2 0xB1C SWAP2 POP DUP11 RETURNDATASIZE DUP13 GT PUSH2 0x402 JUMPI PUSH2 0x3F3 DUP2 DUP4 PUSH2 0x206C JUMP JUMPDEST CODESIZE PUSH2 0xAB3 JUMP JUMPDEST PUSH1 0x40 MLOAD RETURNDATASIZE DUP7 DUP3 RETURNDATACOPY RETURNDATASIZE SWAP1 REVERT JUMPDEST PUSH2 0xB45 SWAP1 PUSH1 0x40 RETURNDATASIZE PUSH1 0x40 GT PUSH2 0x3C8 JUMPI PUSH2 0x3BA DUP2 DUP4 PUSH2 0x206C JUMP JUMPDEST POP PUSH2 0x99D JUMP JUMPDEST DUP2 PUSH2 0xB61 SWAP3 SWAP1 RETURNDATASIZE LT PUSH2 0x402 JUMPI PUSH2 0x3F3 DUP2 DUP4 PUSH2 0x206C JUMP JUMPDEST POP DUP13 CODESIZE PUSH2 0x96A JUMP JUMPDEST DUP12 SWAP4 DUP5 SWAP2 PUSH2 0x920 JUMP JUMPDEST DUP3 DUP2 SWAP4 SWAP3 SWAP8 POP RETURNDATASIZE DUP4 GT PUSH2 0xB9E JUMPI JUMPDEST PUSH2 0xB8A DUP2 DUP4 PUSH2 0x206C JUMP JUMPDEST DUP2 ADD SUB SLT PUSH2 0x43D JUMPI MLOAD SWAP4 DUP12 SWAP1 PUSH2 0x954 PUSH2 0x90D JUMP JUMPDEST POP RETURNDATASIZE PUSH2 0xB80 JUMP JUMPDEST SWAP1 SWAP8 POP DUP10 DUP2 DUP2 RETURNDATASIZE DUP4 GT PUSH2 0xBCD JUMPI JUMPDEST PUSH2 0xBBD DUP2 DUP4 PUSH2 0x206C JUMP JUMPDEST DUP2 ADD SUB SLT PUSH2 0x43D JUMPI MLOAD SWAP7 CODESIZE PUSH2 0x8D9 JUMP JUMPDEST POP RETURNDATASIZE PUSH2 0xBB3 JUMP JUMPDEST PUSH2 0xBEA SWAP1 DUP4 RETURNDATASIZE DUP6 GT PUSH2 0x402 JUMPI PUSH2 0x3F3 DUP2 DUP4 PUSH2 0x206C JUMP JUMPDEST POP CODESIZE PUSH2 0x8A3 JUMP JUMPDEST PUSH1 0x40 MLOAD RETURNDATASIZE DUP12 DUP3 RETURNDATACOPY RETURNDATASIZE SWAP1 REVERT JUMPDEST PUSH1 0x40 MLOAD PUSH3 0x461BCD PUSH1 0xE5 SHL DUP2 MSTORE PUSH1 0x4 DUP2 ADD DUP8 SWAP1 MSTORE PUSH1 0x13 PUSH1 0x24 DUP3 ADD MSTORE PUSH19 0x506F736974696F6E206973206865616C746879 PUSH1 0x68 SHL PUSH1 0x44 DUP3 ADD MSTORE PUSH1 0x64 SWAP1 REVERT JUMPDEST POP CALLVALUE PUSH2 0x546 JUMPI PUSH2 0xC46 CALLDATASIZE PUSH2 0x1FF9 JUMP JUMPDEST PUSH2 0xC4E PUSH2 0x2303 JUMP JUMPDEST DUP2 DUP4 MSTORE PUSH1 0x20 PUSH1 0x8 DUP2 MSTORE PUSH1 0x40 DUP5 KECCAK256 SWAP2 PUSH2 0xC6C PUSH1 0xFF PUSH1 0x9 DUP6 ADD SLOAD AND PUSH2 0x2326 JUMP JUMPDEST DUP3 SLOAD PUSH1 0x1 PUSH1 0x1 PUSH1 0xA0 SHL SUB SWAP1 DUP2 AND CALLER SUB PUSH2 0xD67 JUMPI DUP2 ISZERO PUSH2 0xD2D JUMPI PUSH1 0x2 SLOAD PUSH1 0x40 MLOAD PUSH4 0x23B872DD PUSH1 0xE0 SHL DUP2 MSTORE CALLER PUSH1 0x4 DUP3 ADD MSTORE ADDRESS PUSH1 0x24 DUP3 ADD MSTORE PUSH1 0x44 DUP2 ADD DUP5 SWAP1 MSTORE SWAP5 SWAP2 DUP5 SWAP2 DUP7 SWAP2 PUSH1 0x64 SWAP2 DUP4 SWAP2 DUP12 SWAP2 AND GAS CALL SWAP1 DUP2 ISZERO PUSH2 0x44A JUMPI PUSH2 0xCF4 PUSH1 0x1 SWAP3 PUSH32 0x244160B15E69CC411F041D94AE7FAB6F6BBA85DADE8403216C05FF4B920D5449 SWAP7 DUP10 SWAP2 PUSH2 0xD10 JUMPI JUMPDEST POP PUSH2 0x22C0 JUMP JUMPDEST ADD PUSH2 0xD00 DUP3 DUP3 SLOAD PUSH2 0x238B JUMP JUMPDEST SWAP1 SSTORE PUSH1 0x40 MLOAD SWAP1 DUP2 MSTORE LOG2 PUSH1 0x1 DUP1 SSTORE DUP1 RETURN JUMPDEST PUSH2 0xD27 SWAP2 POP DUP7 RETURNDATASIZE DUP9 GT PUSH2 0x402 JUMPI PUSH2 0x3F3 DUP2 DUP4 PUSH2 0x206C JUMP JUMPDEST CODESIZE PUSH2 0xCEE JUMP JUMPDEST PUSH1 0x40 MLOAD PUSH3 0x461BCD PUSH1 0xE5 SHL DUP2 MSTORE PUSH1 0x4 DUP2 ADD DUP5 SWAP1 MSTORE PUSH1 0x12 PUSH1 0x24 DUP3 ADD MSTORE PUSH18 0x416D6F756E74206D757374206265203E203 PUSH1 0x74 SHL PUSH1 0x44 DUP3 ADD MSTORE PUSH1 0x64 SWAP1 REVERT JUMPDEST PUSH1 0x40 MLOAD PUSH3 0x461BCD PUSH1 0xE5 SHL DUP2 MSTORE PUSH1 0x4 DUP2 ADD DUP5 SWAP1 MSTORE PUSH1 0x12 PUSH1 0x24 DUP3 ADD MSTORE PUSH18 0x2737BA103837B9B4BA34B7B71037BBB732B9 PUSH1 0x71 SHL PUSH1 0x44 DUP3 ADD MSTORE PUSH1 0x64 SWAP1 REVERT JUMPDEST POP CALLVALUE PUSH2 0x546 JUMPI DUP1 PUSH1 0x3 NOT CALLDATASIZE ADD SLT PUSH2 0x546 JUMPI PUSH1 0x6 SLOAD PUSH1 0x40 MLOAD PUSH1 0x1 PUSH1 0x1 PUSH1 0xA0 SHL SUB SWAP1 SWAP2 AND DUP2 MSTORE PUSH1 0x20 SWAP1 RETURN JUMPDEST POP CALLVALUE PUSH2 0x546 JUMPI PUSH1 0x20 CALLDATASIZE PUSH1 0x3 NOT ADD SLT PUSH2 0x546 JUMPI PUSH1 0x40 SWAP1 PUSH1 0x4 CALLDATALOAD DUP2 MSTORE PUSH1 0x8 PUSH1 0x20 MSTORE KECCAK256 PUSH1 0x1 DUP1 PUSH1 0xA0 SHL SUB SWAP1 DUP2 DUP2 SLOAD AND SWAP1 PUSH1 0x1 DUP2 ADD SLOAD SWAP3 PUSH1 0x2 DUP3 ADD SLOAD SWAP1 PUSH1 0x3 DUP4 ADD SLOAD AND SWAP2 PUSH1 0x4 DUP2 ADD SLOAD SWAP3 PUSH2 0xE66 PUSH2 0xE1F PUSH1 0x5 DUP5 ADD PUSH2 0x20E4 JUMP JUMPDEST PUSH1 0x6 DUP5 ADD SLOAD SWAP6 PUSH1 0x7 DUP6 ADD SLOAD SWAP4 PUSH1 0xFF PUSH1 0x9 PUSH1 0x8 DUP9 ADD SLOAD SWAP8 ADD SLOAD AND SWAP7 PUSH1 0x40 MLOAD SWAP11 DUP12 SWAP11 DUP12 MSTORE PUSH1 0x20 DUP12 ADD MSTORE PUSH1 0x40 DUP11 ADD MSTORE PUSH1 0x60 DUP10 ADD MSTORE PUSH1 0x80 DUP9 ADD MSTORE PUSH2 0x140 DUP1 PUSH1 0xA0 DUP10 ADD MSTORE DUP8 ADD SWAP1 PUSH2 0x218A JUMP JUMPDEST SWAP4 PUSH1 0xC0 DUP7 ADD MSTORE PUSH1 0xE0 DUP6 ADD MSTORE PUSH2 0x100 DUP5 ADD MSTORE ISZERO ISZERO PUSH2 0x120 DUP4 ADD MSTORE SUB SWAP1 RETURN JUMPDEST POP CALLVALUE PUSH2 0x546 JUMPI PUSH1 0x80 CALLDATASIZE PUSH1 0x3 NOT ADD SLT PUSH2 0x546 JUMPI PUSH1 0x1 PUSH1 0x1 PUSH1 0xA0 SHL SUB SWAP1 PUSH1 0x24 DUP1 CALLDATALOAD SWAP2 DUP4 DUP4 AND DUP4 SUB PUSH2 0x43D JUMPI PUSH1 0x44 CALLDATALOAD SWAP1 DUP5 DUP3 AND SWAP3 DUP4 DUP4 SUB PUSH2 0x43D JUMPI PUSH1 0x64 CALLDATALOAD SWAP5 PUSH2 0xEC7 PUSH2 0x21CA JUMP JUMPDEST PUSH2 0xECF PUSH2 0x2303 JUMP JUMPDEST PUSH1 0x4 CALLDATALOAD DUP4 MSTORE PUSH1 0x20 SWAP7 PUSH1 0x8 DUP9 MSTORE PUSH1 0x40 DUP5 KECCAK256 PUSH2 0xEEF PUSH1 0xFF PUSH1 0x9 DUP4 ADD SLOAD AND PUSH2 0x2326 JUMP JUMPDEST DUP7 DUP3 PUSH1 0x3 DUP4 ADD SLOAD AND SUB PUSH2 0x1154 JUMPI PUSH1 0x4 ADD SWAP6 DUP7 SLOAD DUP9 GT PUSH2 0x1110 JUMPI PUSH1 0x40 MLOAD PUSH4 0x95EA7B3 PUSH1 0xE0 SHL DUP2 MSTORE PUSH1 0x1 PUSH1 0x1 PUSH1 0xA0 SHL SUB DUP5 AND PUSH1 0x4 DUP3 ADD MSTORE PUSH1 0x24 DUP2 ADD DUP10 SWAP1 MSTORE SWAP1 DUP10 SWAP1 DUP3 SWAP1 PUSH1 0x44 SWAP1 DUP3 SWAP1 DUP10 SWAP1 GAS CALL DUP1 ISZERO PUSH2 0x53B JUMPI PUSH2 0x10F3 JUMPI JUMPDEST POP DUP1 PUSH1 0x3 SLOAD AND SWAP2 PUSH1 0x40 MLOAD SWAP6 DUP10 DUP8 DUP7 DUP2 PUSH4 0x70A08231 PUSH1 0xE0 SHL SWAP8 DUP9 DUP3 MSTORE ADDRESS PUSH1 0x4 DUP4 ADD MSTORE GAS STATICCALL SWAP7 DUP8 ISZERO PUSH2 0x44A JUMPI DUP11 DUP11 SWAP2 DUP9 SWAP10 PUSH2 0x10BF JUMPI JUMPDEST POP PUSH1 0x40 DUP1 MLOAD PUSH4 0xC34F5ED PUSH1 0xE1 SHL SWAP3 DUP2 ADD SWAP3 DUP4 MSTORE PUSH1 0x1 PUSH1 0x1 PUSH1 0xA0 SHL SUB SWAP1 SWAP5 AND DUP9 DUP6 ADD SWAP1 DUP2 MSTORE PUSH1 0x20 DUP2 ADD SWAP4 SWAP1 SWAP4 MSTORE DUP9 SWAP5 DUP6 SWAP5 SWAP1 SWAP4 DUP6 SWAP3 PUSH2 0xFC1 SWAP2 DUP4 SWAP2 ADD SUB PUSH1 0x1F NOT DUP2 ADD DUP4 MSTORE DUP3 PUSH2 0x206C JUMP JUMPDEST MLOAD SWAP3 GAS CALL RETURNDATASIZE ISZERO PUSH2 0x10BA JUMPI RETURNDATASIZE PUSH2 0xFD5 DUP2 PUSH2 0x208E JUMP JUMPDEST SWAP1 PUSH2 0xFE3 PUSH1 0x40 MLOAD SWAP3 DUP4 PUSH2 0x206C JUMP JUMPDEST DUP2 MSTORE DUP6 DUP11 RETURNDATASIZE SWAP3 ADD RETURNDATACOPY JUMPDEST ISZERO PUSH2 0x1076 JUMPI SWAP1 DUP8 SWAP2 PUSH1 0x3 SLOAD AND SWAP3 PUSH1 0x40 MLOAD DUP1 SWAP5 DUP2 SWAP4 DUP3 MSTORE ADDRESS PUSH1 0x4 DUP4 ADD MSTORE GAS STATICCALL SWAP2 DUP3 ISZERO PUSH2 0x106A JUMPI SWAP2 PUSH2 0x103B JUMPI JUMPDEST POP PUSH2 0x102D SWAP2 PUSH2 0x1025 SWAP2 PUSH2 0x237E JUMP JUMPDEST SWAP3 DUP3 SLOAD PUSH2 0x237E JUMP JUMPDEST SWAP1 SSTORE PUSH1 0x1 DUP1 SSTORE PUSH1 0x40 MLOAD SWAP1 DUP2 MSTORE RETURN JUMPDEST SWAP1 POP DUP5 DUP2 DUP2 RETURNDATASIZE DUP4 GT PUSH2 0x1063 JUMPI JUMPDEST PUSH2 0x1052 DUP2 DUP4 PUSH2 0x206C JUMP JUMPDEST DUP2 ADD SUB SLT PUSH2 0x43D JUMPI MLOAD PUSH2 0x102D PUSH2 0x1017 JUMP JUMPDEST POP RETURNDATASIZE PUSH2 0x1048 JUMP JUMPDEST PUSH1 0x40 MLOAD SWAP1 RETURNDATASIZE SWAP1 DUP3 RETURNDATACOPY RETURNDATASIZE SWAP1 REVERT JUMPDEST PUSH1 0x40 MLOAD PUSH3 0x461BCD PUSH1 0xE5 SHL DUP2 MSTORE PUSH1 0x4 DUP2 ADD DUP10 SWAP1 MSTORE PUSH1 0x17 DUP2 DUP6 ADD MSTORE PUSH32 0x5969656C645661756C7420636C61696D206661696C6564000000000000000000 PUSH1 0x44 DUP3 ADD MSTORE PUSH1 0x64 SWAP1 REVERT JUMPDEST PUSH2 0xFEC JUMP JUMPDEST SWAP3 SWAP4 SWAP9 POP SWAP1 POP DUP2 DUP2 RETURNDATASIZE DUP4 GT PUSH2 0x10EC JUMPI JUMPDEST PUSH2 0x10D9 DUP2 DUP4 PUSH2 0x206C JUMP JUMPDEST DUP2 ADD SUB SLT PUSH2 0x43D JUMPI MLOAD SWAP6 SWAP1 DUP9 DUP11 DUP8 PUSH2 0xF78 JUMP JUMPDEST POP RETURNDATASIZE PUSH2 0x10CF JUMP JUMPDEST PUSH2 0x1109 SWAP1 DUP10 RETURNDATASIZE DUP12 GT PUSH2 0x402 JUMPI PUSH2 0x3F3 DUP2 DUP4 PUSH2 0x206C JUMP JUMPDEST POP CODESIZE PUSH2 0xF44 JUMP JUMPDEST PUSH1 0x40 MLOAD PUSH3 0x461BCD PUSH1 0xE5 SHL DUP2 MSTORE PUSH1 0x4 DUP2 ADD DUP11 SWAP1 MSTORE PUSH1 0x17 DUP2 DUP7 ADD MSTORE PUSH32 0x496E73756666696369656E742052574120746F6B656E73000000000000000000 PUSH1 0x44 DUP3 ADD MSTORE PUSH1 0x64 SWAP1 REVERT JUMPDEST PUSH1 0x40 MLOAD PUSH3 0x461BCD PUSH1 0xE5 SHL DUP2 MSTORE PUSH1 0x4 DUP2 ADD DUP11 SWAP1 MSTORE PUSH1 0xE DUP2 DUP7 ADD MSTORE PUSH14 0xA8DED6CADC40DAD2E6DAC2E8C6D PUSH1 0x93 SHL PUSH1 0x44 DUP3 ADD MSTORE PUSH1 0x64 SWAP1 REVERT JUMPDEST POP CALLVALUE PUSH2 0x546 JUMPI DUP1 PUSH1 0x3 NOT CALLDATASIZE ADD SLT PUSH2 0x546 JUMPI PUSH1 0x20 PUSH1 0x40 MLOAD PUSH2 0x2AF8 DUP2 MSTORE RETURN JUMPDEST POP CALLVALUE PUSH2 0x546 JUMPI DUP1 PUSH1 0x3 NOT CALLDATASIZE ADD SLT PUSH2 0x546 JUMPI SLOAD PUSH1 0x40 MLOAD PUSH1 0x1 PUSH1 0x1 PUSH1 0xA0 SHL SUB SWAP1 SWAP2 AND DUP2 MSTORE PUSH1 0x20 SWAP1 RETURN JUMPDEST POP CALLVALUE PUSH2 0x546 JUMPI DUP1 PUSH1 0x3 NOT CALLDATASIZE ADD SLT PUSH2 0x546 JUMPI PUSH1 0x20 PUSH1 0x9 SLOAD PUSH1 0x40 MLOAD SWAP1 DUP2 MSTORE RETURN JUMPDEST POP CALLVALUE PUSH2 0x546 JUMPI PUSH2 0x100 CALLDATASIZE PUSH1 0x3 NOT ADD SLT PUSH2 0x546 JUMPI PUSH2 0x1206 PUSH2 0x200F JUMP JUMPDEST PUSH1 0x64 CALLDATALOAD PUSH1 0x1 PUSH1 0x1 PUSH1 0xA0 SHL SUB DUP2 AND DUP2 SUB PUSH2 0x1824 JUMPI PUSH1 0xA4 CALLDATALOAD SWAP2 PUSH8 0xFFFFFFFFFFFFFFFF DUP4 GT PUSH2 0x17DF JUMPI CALLDATASIZE PUSH1 0x23 DUP5 ADD SLT ISZERO PUSH2 0x17DF JUMPI DUP4 DUP4 PUSH1 0x4 ADD CALLDATALOAD SWAP4 PUSH2 0x1247 DUP6 PUSH2 0x208E JUMP JUMPDEST SWAP5 PUSH2 0x1255 PUSH1 0x40 MLOAD SWAP7 DUP8 PUSH2 0x206C JUMP JUMPDEST DUP1 DUP7 MSTORE CALLDATASIZE PUSH1 0x24 DUP3 DUP5 ADD ADD GT PUSH2 0x1824 JUMPI DUP1 PUSH1 0x24 PUSH1 0x20 SWAP4 ADD DUP4 DUP9 ADD CALLDATACOPY DUP6 ADD ADD MSTORE PUSH1 0xE4 CALLDATALOAD PUSH2 0x127E PUSH2 0x21CA JUMP JUMPDEST PUSH2 0x1286 PUSH2 0x2303 JUMP JUMPDEST PUSH1 0x1 PUSH1 0x1 PUSH1 0xA0 SHL SUB DUP3 AND ISZERO PUSH2 0x19AE JUMPI PUSH1 0x24 CALLDATALOAD ISZERO PUSH2 0x1969 JUMPI PUSH1 0x44 CALLDATALOAD ISZERO PUSH2 0x1924 JUMPI PUSH1 0x1 PUSH1 0x1 PUSH1 0xA0 SHL SUB DUP4 AND ISZERO PUSH2 0x18EB JUMPI PUSH2 0x12BF DUP2 ISZERO ISZERO PUSH2 0x2234 JUMP JUMPDEST PUSH1 0x7 SLOAD PUSH1 0x1 PUSH1 0x1 PUSH1 0xA0 SHL SUB AND ISZERO PUSH2 0x18AE JUMPI PUSH2 0x12EA PUSH13 0xC9F2C9CD04674EDEA40000000 SWAP2 PUSH1 0x24 CALLDATALOAD PUSH2 0x2275 JUMP JUMPDEST DIV PUSH2 0x3A98 DUP1 PUSH1 0x44 CALLDATALOAD MUL SWAP1 PUSH1 0x44 CALLDATALOAD DUP3 DIV SUB PUSH2 0x189A JUMPI PUSH2 0x2710 SWAP1 DIV GT PUSH2 0x1841 JUMPI PUSH1 0x2 SLOAD PUSH1 0x40 MLOAD PUSH4 0x23B872DD PUSH1 0xE0 SHL DUP2 MSTORE PUSH1 0x1 PUSH1 0x1 PUSH1 0xA0 SHL SUB DUP4 DUP2 AND PUSH1 0x4 DUP4 ADD MSTORE ADDRESS PUSH1 0x24 DUP1 DUP5 ADD SWAP2 SWAP1 SWAP2 MSTORE CALLDATALOAD PUSH1 0x44 DUP4 ADD MSTORE SWAP1 SWAP2 PUSH1 0x20 SWAP2 DUP4 SWAP2 PUSH1 0x64 SWAP2 DUP4 SWAP2 DUP11 SWAP2 AND GAS CALL DUP1 ISZERO PUSH2 0x53B JUMPI PUSH2 0x135F SWAP2 DUP7 SWAP2 PUSH2 0x1828 JUMPI POP PUSH2 0x22C0 JUMP JUMPDEST PUSH1 0x4 SLOAD PUSH1 0x9 SLOAD DUP6 SWAP2 PUSH1 0x1 PUSH1 0x1 PUSH1 0xA0 SHL SUB AND DUP1 EXTCODESIZE ISZERO PUSH2 0x1824 JUMPI PUSH1 0x44 DUP4 SWAP3 PUSH1 0x40 MLOAD SWAP5 DUP6 SWAP4 DUP5 SWAP3 PUSH4 0xECBCDAB PUSH1 0xE0 SHL DUP5 MSTORE PUSH1 0x4 DUP5 ADD MSTORE DUP4 CALLDATALOAD PUSH1 0x24 DUP5 ADD MSTORE GAS CALL DUP1 ISZERO PUSH2 0x53B JUMPI PUSH2 0x1811 JUMPI JUMPDEST POP PUSH1 0x3 SLOAD PUSH1 0x7 SLOAD PUSH1 0x40 MLOAD PUSH4 0x95EA7B3 PUSH1 0xE0 SHL DUP2 MSTORE PUSH1 0x1 PUSH1 0x1 PUSH1 0xA0 SHL SUB SWAP2 DUP3 AND PUSH1 0x4 DUP3 ADD MSTORE PUSH1 0x44 DUP1 CALLDATALOAD PUSH1 0x24 DUP4 ADD MSTORE SWAP1 SWAP3 PUSH1 0x20 SWAP3 DUP5 SWAP3 SWAP2 DUP4 SWAP2 DUP11 SWAP2 AND GAS CALL DUP1 ISZERO PUSH2 0x53B JUMPI PUSH2 0x17F2 JUMPI JUMPDEST POP PUSH1 0x7 SLOAD DUP5 SWAP1 PUSH1 0x1 PUSH1 0x1 PUSH1 0xA0 SHL SUB AND DUP1 EXTCODESIZE ISZERO PUSH2 0x17EE JUMPI DUP2 DUP1 SWAP2 PUSH1 0x44 PUSH1 0x40 MLOAD DUP1 SWAP5 DUP2 SWAP4 PUSH4 0x7F5D633 PUSH1 0xE0 SHL DUP4 MSTORE PUSH1 0xC4 CALLDATALOAD PUSH1 0x4 DUP5 ADD MSTORE PUSH1 0x84 CALLDATALOAD PUSH1 0x24 DUP5 ADD MSTORE GAS CALL DUP1 ISZERO PUSH2 0x17E3 JUMPI PUSH2 0x17CB JUMPI JUMPDEST POP POP PUSH1 0x40 MLOAD PUSH4 0x70A08231 PUSH1 0xE0 SHL DUP2 MSTORE ADDRESS PUSH1 0x4 DUP3 ADD MSTORE PUSH1 0x20 DUP2 PUSH1 0x24 DUP2 PUSH1 0x1 PUSH1 0x1 PUSH1 0xA0 SHL SUB DUP8 AND GAS STATICCALL SWAP1 DUP2 ISZERO PUSH2 0x53B JUMPI DUP6 SWAP2 PUSH2 0x1799 JUMPI JUMPDEST POP PUSH1 0x84 CALLDATALOAD GT PUSH2 0x1754 JUMPI PUSH1 0x9 SLOAD SWAP3 PUSH1 0x0 NOT DUP5 EQ PUSH2 0x1740 JUMPI PUSH1 0x1 DUP5 ADD PUSH1 0x9 SSTORE PUSH1 0x40 MLOAD SWAP1 PUSH2 0x1495 DUP3 PUSH2 0x204F JUMP JUMPDEST PUSH1 0x1 DUP1 PUSH1 0xA0 SHL SUB DUP4 AND DUP3 MSTORE PUSH1 0x24 CALLDATALOAD PUSH1 0x20 DUP4 ADD MSTORE PUSH1 0x44 CALLDATALOAD PUSH1 0x40 DUP4 ADD MSTORE PUSH1 0x1 DUP1 PUSH1 0xA0 SHL SUB DUP5 AND PUSH1 0x60 DUP4 ADD MSTORE PUSH1 0x84 CALLDATALOAD PUSH1 0x80 DUP4 ADD MSTORE PUSH1 0xA0 DUP3 ADD MSTORE TIMESTAMP PUSH1 0xC0 DUP3 ADD MSTORE TIMESTAMP PUSH1 0xE0 DUP3 ADD MSTORE DUP5 PUSH2 0x100 DUP3 ADD MSTORE PUSH1 0x1 PUSH2 0x120 DUP3 ADD MSTORE DUP4 DUP6 MSTORE PUSH1 0x8 PUSH1 0x20 MSTORE PUSH1 0x40 DUP6 KECCAK256 PUSH1 0x1 DUP1 PUSH1 0xA0 SHL SUB DUP3 MLOAD AND PUSH1 0x1 PUSH1 0x1 PUSH1 0x60 SHL SUB PUSH1 0xA0 SHL SWAP1 DUP2 DUP4 SLOAD AND OR DUP3 SSTORE PUSH1 0x20 DUP4 ADD MLOAD PUSH1 0x1 DUP4 ADD SSTORE PUSH1 0x40 DUP4 ADD MLOAD PUSH1 0x2 DUP4 ADD SSTORE PUSH1 0x3 DUP3 ADD SWAP1 PUSH1 0x1 DUP1 PUSH1 0xA0 SHL SUB PUSH1 0x60 DUP6 ADD MLOAD AND SWAP1 DUP3 SLOAD AND OR SWAP1 SSTORE PUSH1 0x80 DUP3 ADD MLOAD PUSH1 0x4 DUP3 ADD SSTORE PUSH1 0xA0 DUP3 ADD MLOAD DUP1 MLOAD SWAP1 PUSH8 0xFFFFFFFFFFFFFFFF DUP3 GT PUSH2 0x172C JUMPI PUSH2 0x156A PUSH1 0x5 DUP5 ADD SLOAD PUSH2 0x20AA JUMP JUMPDEST PUSH1 0x1F DUP2 GT PUSH2 0x16E8 JUMPI JUMPDEST POP PUSH1 0x20 SWAP8 DUP8 SWAP6 SWAP5 SWAP4 SWAP3 SWAP2 DUP10 SWAP2 PUSH1 0x1 PUSH1 0x1F DUP6 GT EQ PUSH2 0x164F JUMPI SWAP4 DUP4 PUSH1 0x80 SWAP7 SWAP5 PUSH2 0x120 SWAP5 PUSH1 0x9 SWAP5 PUSH32 0x9B1464E9A9771C899BB0AA078D0A5338D3604792FA428D4D24D35E950E7A2ED6 SWAP11 SWAP9 SWAP3 PUSH2 0x1644 JUMPI JUMPDEST POP POP DUP2 PUSH1 0x1 SHL SWAP2 PUSH1 0x0 NOT SWAP1 PUSH1 0x3 SHL SHR NOT AND OR PUSH1 0x5 DUP3 ADD SSTORE JUMPDEST PUSH1 0xC0 DUP5 ADD MLOAD PUSH1 0x6 DUP3 ADD SSTORE PUSH1 0xE0 DUP5 ADD MLOAD PUSH1 0x7 DUP3 ADD SSTORE PUSH2 0x100 DUP5 ADD MLOAD PUSH1 0x8 DUP3 ADD SSTORE ADD SWAP2 ADD MLOAD ISZERO ISZERO PUSH1 0xFF DUP1 NOT DUP4 SLOAD AND SWAP2 AND OR SWAP1 SSTORE PUSH1 0x40 MLOAD SWAP5 PUSH1 0x24 CALLDATALOAD DUP7 MSTORE PUSH1 0x44 CALLDATALOAD DUP9 DUP8 ADD MSTORE PUSH1 0x1 DUP1 PUSH1 0xA0 SHL SUB AND PUSH1 0x40 DUP7 ADD MSTORE PUSH1 0x84 CALLDATALOAD PUSH1 0x60 DUP7 ADD MSTORE PUSH1 0x1 DUP1 PUSH1 0xA0 SHL SUB AND SWAP4 LOG3 PUSH1 0x1 DUP1 SSTORE PUSH1 0x40 MLOAD SWAP1 DUP2 MSTORE RETURN JUMPDEST ADD MLOAD SWAP1 POP CODESIZE DUP1 PUSH2 0x15C0 JUMP JUMPDEST SWAP2 SWAP1 PUSH1 0x5 DUP6 ADD DUP4 MSTORE DUP11 DUP4 KECCAK256 SWAP3 JUMPDEST PUSH1 0x1F NOT DUP6 AND DUP2 LT PUSH2 0x16CE JUMPI POP SWAP4 PUSH1 0x1 DUP5 PUSH2 0x120 SWAP5 PUSH1 0x9 SWAP5 PUSH32 0x9B1464E9A9771C899BB0AA078D0A5338D3604792FA428D4D24D35E950E7A2ED6 SWAP11 SWAP9 PUSH1 0x80 SWAP11 SWAP9 PUSH1 0x1F NOT DUP2 AND LT PUSH2 0x16B5 JUMPI JUMPDEST POP POP POP DUP2 SHL ADD PUSH1 0x5 DUP3 ADD SSTORE PUSH2 0x15D8 JUMP JUMPDEST ADD MLOAD PUSH1 0x0 NOT PUSH1 0xF8 DUP5 PUSH1 0x3 SHL AND SHR NOT AND SWAP1 SSTORE CODESIZE DUP1 DUP1 PUSH2 0x16A5 JUMP JUMPDEST DUP2 DUP4 ADD MLOAD DUP5 SSTORE DUP11 SWAP9 POP PUSH1 0x1 SWAP1 SWAP4 ADD SWAP3 SWAP2 DUP12 ADD SWAP2 DUP12 ADD PUSH2 0x165C JUMP JUMPDEST PUSH1 0x5 DUP5 ADD DUP10 MSTORE PUSH1 0x20 DUP10 KECCAK256 PUSH1 0x1F DUP5 ADD PUSH1 0x5 SHR DUP2 ADD PUSH1 0x20 DUP6 LT PUSH2 0x1725 JUMPI JUMPDEST PUSH1 0x1F DUP4 ADD PUSH1 0x5 SHR DUP3 ADD DUP2 LT PUSH2 0x171A JUMPI POP POP PUSH2 0x1573 JUMP JUMPDEST DUP11 DUP2 SSTORE PUSH1 0x1 ADD PUSH2 0x1704 JUMP JUMPDEST POP DUP1 PUSH2 0x1704 JUMP JUMPDEST PUSH4 0x4E487B71 PUSH1 0xE0 SHL DUP9 MSTORE PUSH1 0x41 PUSH1 0x4 MSTORE PUSH1 0x24 DUP9 REVERT JUMPDEST PUSH4 0x4E487B71 PUSH1 0xE0 SHL DUP6 MSTORE PUSH1 0x11 PUSH1 0x4 MSTORE PUSH1 0x24 DUP6 REVERT JUMPDEST PUSH1 0x40 MLOAD PUSH3 0x461BCD PUSH1 0xE5 SHL DUP2 MSTORE PUSH1 0x20 PUSH1 0x4 DUP3 ADD MSTORE PUSH1 0x19 PUSH1 0x24 DUP3 ADD MSTORE PUSH32 0x52574120746F6B656E207075726368617365206661696C656400000000000000 PUSH1 0x44 DUP3 ADD MSTORE PUSH1 0x64 SWAP1 REVERT JUMPDEST SWAP1 POP PUSH1 0x20 DUP2 RETURNDATASIZE PUSH1 0x20 GT PUSH2 0x17C3 JUMPI JUMPDEST DUP2 PUSH2 0x17B4 PUSH1 0x20 SWAP4 DUP4 PUSH2 0x206C JUMP JUMPDEST DUP2 ADD SUB SLT PUSH2 0x43D JUMPI MLOAD CODESIZE PUSH2 0x146B JUMP JUMPDEST RETURNDATASIZE SWAP2 POP PUSH2 0x17A7 JUMP JUMPDEST PUSH2 0x17D4 SWAP1 PUSH2 0x2025 JUMP JUMPDEST PUSH2 0x17DF JUMPI DUP4 CODESIZE PUSH2 0x1436 JUMP JUMPDEST DUP4 DUP1 REVERT JUMPDEST PUSH1 0x40 MLOAD RETURNDATASIZE DUP5 DUP3 RETURNDATACOPY RETURNDATASIZE SWAP1 REVERT JUMPDEST POP DUP1 REVERT JUMPDEST PUSH2 0x180A SWAP1 PUSH1 0x20 RETURNDATASIZE PUSH1 0x20 GT PUSH2 0x402 JUMPI PUSH2 0x3F3 DUP2 DUP4 PUSH2 0x206C JUMP JUMPDEST POP CODESIZE PUSH2 0x13ED JUMP JUMPDEST PUSH2 0x181D SWAP1 SWAP5 SWAP2 SWAP5 PUSH2 0x2025 JUMP JUMPDEST SWAP3 CODESIZE PUSH2 0x13A6 JUMP JUMPDEST DUP3 DUP1 REVERT JUMPDEST PUSH2 0xD27 SWAP2 POP PUSH1 0x20 RETURNDATASIZE PUSH1 0x20 GT PUSH2 0x402 JUMPI PUSH2 0x3F3 DUP2 DUP4 PUSH2 0x206C JUMP JUMPDEST PUSH1 0x40 MLOAD PUSH3 0x461BCD PUSH1 0xE5 SHL DUP2 MSTORE PUSH1 0x20 PUSH1 0x4 DUP3 ADD MSTORE PUSH1 0x2B PUSH1 0x24 DUP3 ADD MSTORE PUSH32 0x496E73756666696369656E7420636F6C6C61746572616C202831353025204C54 PUSH1 0x44 DUP3 ADD MSTORE PUSH11 0x5620726571756972656429 PUSH1 0xA8 SHL PUSH1 0x64 DUP3 ADD MSTORE PUSH1 0x84 SWAP1 REVERT JUMPDEST PUSH4 0x4E487B71 PUSH1 0xE0 SHL DUP7 MSTORE PUSH1 0x11 PUSH1 0x4 MSTORE PUSH1 0x24 DUP7 REVERT JUMPDEST PUSH1 0x40 MLOAD PUSH3 0x461BCD PUSH1 0xE5 SHL DUP2 MSTORE PUSH1 0x20 PUSH1 0x4 DUP3 ADD MSTORE PUSH1 0x15 PUSH1 0x24 DUP3 ADD MSTORE PUSH21 0x141C9A5B585C9E53585C9AD95D081B9BDD081CD95D PUSH1 0x5A SHL PUSH1 0x44 DUP3 ADD MSTORE PUSH1 0x64 SWAP1 REVERT JUMPDEST PUSH1 0x40 MLOAD PUSH3 0x461BCD PUSH1 0xE5 SHL DUP2 MSTORE PUSH1 0x20 PUSH1 0x4 DUP3 ADD MSTORE PUSH1 0x11 PUSH1 0x24 DUP3 ADD MSTORE PUSH17 0x24B73B30B634B210292BA0903A37B5B2B7 PUSH1 0x79 SHL PUSH1 0x44 DUP3 ADD MSTORE PUSH1 0x64 SWAP1 REVERT JUMPDEST PUSH1 0x40 MLOAD PUSH3 0x461BCD PUSH1 0xE5 SHL DUP2 MSTORE PUSH1 0x20 PUSH1 0x4 DUP3 ADD MSTORE PUSH1 0x17 PUSH1 0x24 DUP3 ADD MSTORE PUSH32 0x5553444320616D6F756E74206D757374206265203E2030000000000000000000 PUSH1 0x44 DUP3 ADD MSTORE PUSH1 0x64 SWAP1 REVERT JUMPDEST PUSH1 0x40 MLOAD PUSH3 0x461BCD PUSH1 0xE5 SHL DUP2 MSTORE PUSH1 0x20 PUSH1 0x4 DUP3 ADD MSTORE PUSH1 0x17 PUSH1 0x24 DUP3 ADD MSTORE PUSH32 0x6D45544820616D6F756E74206D757374206265203E2030000000000000000000 PUSH1 0x44 DUP3 ADD MSTORE PUSH1 0x64 SWAP1 REVERT JUMPDEST PUSH1 0x40 MLOAD PUSH3 0x461BCD PUSH1 0xE5 SHL DUP2 MSTORE PUSH1 0x20 PUSH1 0x4 DUP3 ADD MSTORE PUSH1 0xC PUSH1 0x24 DUP3 ADD MSTORE PUSH12 0x24B73B30B634B2103AB9B2B9 PUSH1 0xA1 SHL PUSH1 0x44 DUP3 ADD MSTORE PUSH1 0x64 SWAP1 REVERT JUMPDEST POP CALLVALUE PUSH2 0x546 JUMPI DUP1 PUSH1 0x3 NOT CALLDATASIZE ADD SLT PUSH2 0x546 JUMPI PUSH2 0x19FB PUSH2 0x21CA JUMP JUMPDEST DUP1 SLOAD PUSH1 0x1 PUSH1 0x1 PUSH1 0xA0 SHL SUB NOT DUP2 AND DUP3 SSTORE DUP2 SWAP1 PUSH1 0x1 PUSH1 0x1 PUSH1 0xA0 SHL SUB AND PUSH32 0x8BE0079C531659141344CD1FD0A4F28419497F9722A3DAAFE3B4186F6B6457E0 DUP3 DUP1 LOG3 DUP1 RETURN JUMPDEST POP CALLVALUE PUSH2 0x546 JUMPI DUP1 PUSH1 0x3 NOT CALLDATASIZE ADD SLT PUSH2 0x546 JUMPI PUSH1 0x20 PUSH1 0x40 MLOAD PUSH2 0x3A98 DUP2 MSTORE RETURN JUMPDEST POP CALLVALUE PUSH2 0x546 JUMPI DUP1 PUSH1 0x3 NOT CALLDATASIZE ADD SLT PUSH2 0x546 JUMPI PUSH1 0x5 SLOAD PUSH1 0x40 MLOAD PUSH1 0x1 PUSH1 0x1 PUSH1 0xA0 SHL SUB SWAP1 SWAP2 AND DUP2 MSTORE PUSH1 0x20 SWAP1 RETURN JUMPDEST POP CALLVALUE PUSH2 0x546 JUMPI PUSH1 0x20 PUSH2 0x1A9C PUSH2 0x1A96 CALLDATASIZE PUSH2 0x1FF9 JUMP JUMPDEST SWAP1 PUSH2 0x2398 JUMP JUMPDEST PUSH1 0x40 MLOAD SWAP1 DUP2 MSTORE RETURN JUMPDEST POP CALLVALUE PUSH2 0x546 JUMPI DUP1 PUSH1 0x3 NOT CALLDATASIZE ADD SLT PUSH2 0x546 JUMPI PUSH1 0x3 SLOAD PUSH1 0x40 MLOAD PUSH1 0x1 PUSH1 0x1 PUSH1 0xA0 SHL SUB SWAP1 SWAP2 AND DUP2 MSTORE PUSH1 0x20 SWAP1 RETURN JUMPDEST POP CALLVALUE PUSH2 0x546 JUMPI DUP1 PUSH1 0x3 NOT CALLDATASIZE ADD SLT PUSH2 0x546 JUMPI PUSH1 0x2 SLOAD PUSH1 0x40 MLOAD PUSH1 0x1 PUSH1 0x1 PUSH1 0xA0 SHL SUB SWAP1 SWAP2 AND DUP2 MSTORE PUSH1 0x20 SWAP1 RETURN JUMPDEST POP CALLVALUE PUSH2 0x546 JUMPI DUP1 PUSH1 0x3 NOT CALLDATASIZE ADD SLT PUSH2 0x546 JUMPI PUSH1 0x7 SLOAD PUSH1 0x40 MLOAD PUSH1 0x1 PUSH1 0x1 PUSH1 0xA0 SHL SUB SWAP1 SWAP2 AND DUP2 MSTORE PUSH1 0x20 SWAP1 RETURN JUMPDEST POP CALLVALUE PUSH2 0x546 JUMPI PUSH1 0x20 CALLDATASIZE PUSH1 0x3 NOT ADD SLT PUSH2 0x546 JUMPI PUSH2 0x1B39 PUSH2 0x200F JUMP JUMPDEST PUSH2 0x1B41 PUSH2 0x21CA JUMP JUMPDEST PUSH1 0x6 SLOAD SWAP1 PUSH1 0x1 PUSH1 0x1 PUSH1 0xA0 SHL SUB SWAP1 DUP2 DUP4 AND PUSH2 0x1B73 JUMPI AND SWAP1 PUSH2 0x1B62 DUP3 ISZERO ISZERO PUSH2 0x21F6 JUMP JUMPDEST PUSH1 0x1 PUSH1 0x1 PUSH1 0xA0 SHL SUB NOT AND OR PUSH1 0x6 SSTORE DUP1 RETURN JUMPDEST PUSH1 0x40 MLOAD PUSH3 0x461BCD PUSH1 0xE5 SHL DUP2 MSTORE PUSH1 0x20 PUSH1 0x4 DUP3 ADD MSTORE PUSH1 0x16 PUSH1 0x24 DUP3 ADD MSTORE PUSH22 0x165A595B1915985D5B1D08185B1C9958591E481CD95D PUSH1 0x52 SHL PUSH1 0x44 DUP3 ADD MSTORE PUSH1 0x64 SWAP1 REVERT JUMPDEST POP CALLVALUE PUSH2 0x546 JUMPI PUSH2 0x1BC0 CALLDATASIZE PUSH2 0x1FF9 JUMP JUMPDEST PUSH2 0x1BCB SWAP3 SWAP2 SWAP3 PUSH2 0x21CA JUMP JUMPDEST PUSH2 0x1BD3 PUSH2 0x2303 JUMP JUMPDEST DUP3 DUP3 MSTORE PUSH1 0x20 SWAP3 PUSH1 0x8 DUP5 MSTORE PUSH1 0x40 DUP4 KECCAK256 SWAP1 PUSH1 0x9 DUP3 ADD PUSH2 0x1BF3 PUSH1 0xFF DUP3 SLOAD AND PUSH2 0x2326 JUMP JUMPDEST PUSH1 0x4 DUP1 SLOAD PUSH1 0x40 MLOAD PUSH4 0xD5595157 PUSH1 0xE0 SHL DUP2 MSTORE SWAP2 DUP3 ADD DUP5 SWAP1 MSTORE PUSH1 0x1 PUSH1 0x1 PUSH1 0xA0 SHL SUB SWAP2 SWAP1 DUP3 AND DUP9 DUP3 PUSH1 0x24 DUP2 DUP5 GAS STATICCALL SWAP2 DUP3 ISZERO PUSH2 0x1EDE JUMPI SWAP1 DUP10 SWAP2 DUP10 SWAP4 PUSH2 0x1FC4 JUMPI JUMPDEST POP DUP3 DUP9 LT PUSH2 0x1EE9 JUMPI POP PUSH1 0x3 SLOAD PUSH1 0x4 DUP1 SLOAD PUSH1 0x40 MLOAD PUSH4 0x95EA7B3 PUSH1 0xE0 SHL DUP2 MSTORE SWAP1 DUP7 AND PUSH1 0x1 PUSH1 0x1 PUSH1 0xA0 SHL SUB AND SWAP2 DUP2 ADD SWAP2 SWAP1 SWAP2 MSTORE PUSH1 0x24 DUP2 ADD DUP5 SWAP1 MSTORE SWAP2 SWAP1 DUP3 SWAP1 DUP6 AND DUP2 DUP12 DUP2 PUSH1 0x44 DUP2 ADD SUB SWAP3 GAS CALL DUP1 ISZERO PUSH2 0x1EDE JUMPI SWAP1 DUP9 SWAP4 SWAP3 SWAP2 PUSH2 0x1EC1 JUMPI JUMPDEST POP PUSH1 0x40 DUP3 PUSH1 0x4 SLOAD AND PUSH1 0x44 DUP3 MLOAD DUP1 SWAP12 DUP2 SWAP4 PUSH4 0xD8AED145 PUSH1 0xE0 SHL DUP4 MSTORE DUP11 PUSH1 0x4 DUP5 ADD MSTORE DUP7 PUSH1 0x24 DUP5 ADD MSTORE GAS CALL DUP1 ISZERO PUSH2 0x1EB6 JUMPI DUP4 SWAP9 DUP5 SWAP2 PUSH2 0x1E8F JUMPI JUMPDEST POP SWAP1 PUSH2 0x1CCB SWAP2 SWAP9 SWAP8 PUSH2 0x237E JUMP JUMPDEST SWAP5 DUP6 PUSH2 0x1DDE JUMPI JUMPDEST PUSH1 0x1 DUP2 ADD SLOAD SWAP2 DUP3 PUSH2 0x1D30 JUMPI JUMPDEST DUP9 DUP9 PUSH2 0x39D DUP10 DUP10 DUP10 PUSH1 0xFF NOT DUP2 SLOAD AND SWAP1 SSTORE PUSH32 0x2AD2842250C60E12F989A7E1ED97D0095F991BA01AEA08BDAC2F87C62782095B PUSH1 0x40 MLOAD DUP1 PUSH2 0x379 DUP6 DUP10 DUP10 DUP5 PUSH1 0x40 SWAP2 SWAP5 SWAP4 SWAP3 PUSH1 0x60 DUP3 ADD SWAP6 DUP3 MSTORE PUSH1 0x20 DUP3 ADD MSTORE ADD MSTORE JUMP JUMPDEST PUSH1 0x2 SLOAD SWAP2 SLOAD PUSH1 0x40 MLOAD PUSH4 0xA9059CBB PUSH1 0xE0 SHL DUP2 MSTORE SWAP1 DUP3 AND PUSH1 0x1 PUSH1 0x1 PUSH1 0xA0 SHL SUB AND PUSH1 0x4 DUP3 ADD MSTORE PUSH1 0x24 DUP2 ADD SWAP4 SWAP1 SWAP4 MSTORE DUP10 SWAP2 DUP4 SWAP2 AND DUP2 DUP6 DUP2 PUSH1 0x44 DUP2 ADD SUB SWAP3 GAS CALL SWAP2 DUP3 ISZERO PUSH2 0x106A JUMPI SWAP2 PUSH2 0x1DC1 JUMPI JUMPDEST POP ISZERO PUSH2 0x1D87 JUMPI DUP6 DUP1 DUP1 DUP1 PUSH2 0x1CDE JUMP JUMPDEST PUSH1 0x40 MLOAD PUSH3 0x461BCD PUSH1 0xE5 SHL DUP2 MSTORE PUSH1 0x4 DUP2 ADD DUP8 SWAP1 MSTORE PUSH1 0x12 PUSH1 0x24 DUP3 ADD MSTORE PUSH18 0x1B515512081C995D1D5C9B8819985A5B1959 PUSH1 0x72 SHL PUSH1 0x44 DUP3 ADD MSTORE PUSH1 0x64 SWAP1 REVERT JUMPDEST PUSH2 0x1DD8 SWAP2 POP DUP8 RETURNDATASIZE DUP10 GT PUSH2 0x402 JUMPI PUSH2 0x3F3 DUP2 DUP4 PUSH2 0x206C JUMP JUMPDEST CODESIZE PUSH2 0x1D78 JUMP JUMPDEST PUSH1 0x3 SLOAD DUP2 SLOAD PUSH1 0x40 MLOAD PUSH4 0xA9059CBB PUSH1 0xE0 SHL DUP2 MSTORE SWAP1 DUP5 AND PUSH1 0x1 PUSH1 0x1 PUSH1 0xA0 SHL SUB AND PUSH1 0x4 DUP3 ADD MSTORE PUSH1 0x24 DUP2 ADD DUP9 SWAP1 MSTORE SWAP1 DUP11 SWAP1 DUP3 SWAP1 DUP6 AND DUP2 DUP8 DUP2 PUSH1 0x44 DUP2 ADD SUB SWAP3 GAS CALL SWAP1 DUP2 ISZERO PUSH2 0xB22 JUMPI DUP5 SWAP2 PUSH2 0x1E72 JUMPI JUMPDEST POP PUSH2 0x1CD2 JUMPI PUSH1 0x40 MLOAD PUSH3 0x461BCD PUSH1 0xE5 SHL DUP2 MSTORE PUSH1 0x4 DUP2 ADD DUP11 SWAP1 MSTORE PUSH1 0x1A PUSH1 0x24 DUP3 ADD MSTORE PUSH32 0x55736572207969656C64207472616E73666572206661696C6564000000000000 PUSH1 0x44 DUP3 ADD MSTORE PUSH1 0x64 SWAP1 REVERT JUMPDEST PUSH2 0x1E89 SWAP2 POP DUP11 RETURNDATASIZE DUP13 GT PUSH2 0x402 JUMPI PUSH2 0x3F3 DUP2 DUP4 PUSH2 0x206C JUMP JUMPDEST CODESIZE PUSH2 0x1E28 JUMP JUMPDEST PUSH2 0x1CCB SWAP3 SWAP10 POP PUSH2 0x1EAE SWAP2 POP PUSH1 0x40 RETURNDATASIZE PUSH1 0x40 GT PUSH2 0x3C8 JUMPI PUSH2 0x3BA DUP2 DUP4 PUSH2 0x206C JUMP JUMPDEST SWAP1 SWAP9 SWAP2 PUSH2 0x1CBE JUMP JUMPDEST PUSH1 0x40 MLOAD RETURNDATASIZE DUP6 DUP3 RETURNDATACOPY RETURNDATASIZE SWAP1 REVERT JUMPDEST PUSH2 0x1ED7 SWAP1 DUP11 RETURNDATASIZE DUP13 GT PUSH2 0x402 JUMPI PUSH2 0x3F3 DUP2 DUP4 PUSH2 0x206C JUMP JUMPDEST POP CODESIZE PUSH2 0x1C87 JUMP JUMPDEST PUSH1 0x40 MLOAD RETURNDATASIZE DUP11 DUP3 RETURNDATACOPY RETURNDATASIZE SWAP1 REVERT JUMPDEST PUSH1 0x3 SLOAD PUSH1 0x40 MLOAD PUSH4 0x95EA7B3 PUSH1 0xE0 SHL DUP2 MSTORE PUSH1 0x1 PUSH1 0x1 PUSH1 0xA0 SHL SUB SWAP3 SWAP1 SWAP3 AND PUSH1 0x4 DUP4 ADD MSTORE PUSH1 0x24 DUP3 ADD DUP10 SWAP1 MSTORE SWAP4 SWAP8 SWAP4 SWAP1 SWAP3 POP DUP3 SWAP1 PUSH1 0x44 SWAP1 DUP3 SWAP1 DUP12 SWAP1 DUP12 AND GAS CALL DUP1 ISZERO PUSH2 0x3CF JUMPI SWAP2 PUSH1 0x40 SWAP2 DUP9 SWAP4 PUSH2 0x1FA7 JUMPI JUMPDEST POP PUSH1 0x44 DUP8 PUSH1 0x4 SLOAD AND SWAP2 DUP4 MLOAD SWAP10 DUP11 SWAP4 DUP5 SWAP3 PUSH4 0xD8AED145 PUSH1 0xE0 SHL DUP5 MSTORE DUP10 PUSH1 0x4 DUP6 ADD MSTORE PUSH1 0x24 DUP5 ADD MSTORE GAS CALL DUP1 ISZERO PUSH2 0x1F9A JUMPI DUP2 SWAP7 DUP3 SWAP2 PUSH2 0x1F75 JUMPI JUMPDEST POP SWAP6 SWAP5 DUP2 SWAP5 PUSH2 0x1CD2 JUMP JUMPDEST SWAP1 POP PUSH2 0x1F91 SWAP2 SWAP7 POP PUSH1 0x40 RETURNDATASIZE PUSH1 0x40 GT PUSH2 0x3C8 JUMPI PUSH2 0x3BA DUP2 DUP4 PUSH2 0x206C JUMP JUMPDEST SWAP6 SWAP1 SWAP6 CODESIZE PUSH2 0x1F6B JUMP JUMPDEST POP PUSH1 0x40 MLOAD SWAP1 RETURNDATASIZE SWAP1 DUP3 RETURNDATACOPY RETURNDATASIZE SWAP1 REVERT JUMPDEST PUSH2 0x1FBD SWAP1 DUP11 RETURNDATASIZE DUP13 GT PUSH2 0x402 JUMPI PUSH2 0x3F3 DUP2 DUP4 PUSH2 0x206C JUMP JUMPDEST POP CODESIZE PUSH2 0x1F35 JUMP JUMPDEST DUP3 DUP2 SWAP4 SWAP3 SWAP5 POP RETURNDATASIZE DUP4 GT PUSH2 0x1FF2 JUMPI JUMPDEST PUSH2 0x1FDC DUP2 DUP4 PUSH2 0x206C JUMP JUMPDEST DUP2 ADD SUB SLT PUSH2 0x1FEE JUMPI DUP9 SWAP1 MLOAD SWAP2 CODESIZE PUSH2 0x1C2F JUMP JUMPDEST DUP8 DUP1 REVERT JUMPDEST POP RETURNDATASIZE PUSH2 0x1FD2 JUMP JUMPDEST PUSH1 0x40 SWAP1 PUSH1 0x3 NOT ADD SLT PUSH2 0x43D JUMPI PUSH1 0x4 CALLDATALOAD SWAP1 PUSH1 0x24 CALLDATALOAD SWAP1 JUMP JUMPDEST PUSH1 0x4 CALLDATALOAD SWAP1 PUSH1 0x1 PUSH1 0x1 PUSH1 0xA0 SHL SUB DUP3 AND DUP3 SUB PUSH2 0x43D JUMPI JUMP JUMPDEST PUSH8 0xFFFFFFFFFFFFFFFF DUP2 GT PUSH2 0x2039 JUMPI PUSH1 0x40 MSTORE JUMP JUMPDEST PUSH4 0x4E487B71 PUSH1 0xE0 SHL PUSH1 0x0 MSTORE PUSH1 0x41 PUSH1 0x4 MSTORE PUSH1 0x24 PUSH1 0x0 REVERT JUMPDEST PUSH2 0x140 DUP2 ADD SWAP1 DUP2 LT PUSH8 0xFFFFFFFFFFFFFFFF DUP3 GT OR PUSH2 0x2039 JUMPI PUSH1 0x40 MSTORE JUMP JUMPDEST SWAP1 PUSH1 0x1F DUP1 NOT SWAP2 ADD AND DUP2 ADD SWAP1 DUP2 LT PUSH8 0xFFFFFFFFFFFFFFFF DUP3 GT OR PUSH2 0x2039 JUMPI PUSH1 0x40 MSTORE JUMP JUMPDEST PUSH8 0xFFFFFFFFFFFFFFFF DUP2 GT PUSH2 0x2039 JUMPI PUSH1 0x1F ADD PUSH1 0x1F NOT AND PUSH1 0x20 ADD SWAP1 JUMP JUMPDEST SWAP1 PUSH1 0x1 DUP3 DUP2 SHR SWAP3 AND DUP1 ISZERO PUSH2 0x20DA JUMPI JUMPDEST PUSH1 0x20 DUP4 LT EQ PUSH2 0x20C4 JUMPI JUMP JUMPDEST PUSH4 0x4E487B71 PUSH1 0xE0 SHL PUSH1 0x0 MSTORE PUSH1 0x22 PUSH1 0x4 MSTORE PUSH1 0x24 PUSH1 0x0 REVERT JUMPDEST SWAP2 PUSH1 0x7F AND SWAP2 PUSH2 0x20B9 JUMP JUMPDEST SWAP1 PUSH1 0x40 MLOAD SWAP2 DUP3 PUSH1 0x0 DUP3 SLOAD SWAP3 PUSH2 0x20F8 DUP5 PUSH2 0x20AA JUMP JUMPDEST SWAP1 DUP2 DUP5 MSTORE PUSH1 0x1 SWAP5 DUP6 DUP2 AND SWAP1 DUP2 PUSH1 0x0 EQ PUSH2 0x2167 JUMPI POP PUSH1 0x1 EQ PUSH2 0x2124 JUMPI JUMPDEST POP POP PUSH2 0x2122 SWAP3 POP SUB DUP4 PUSH2 0x206C JUMP JUMPDEST JUMP JUMPDEST SWAP1 SWAP4 SWAP2 POP PUSH1 0x0 MSTORE PUSH1 0x20 SWAP1 DUP2 PUSH1 0x0 KECCAK256 SWAP4 PUSH1 0x0 SWAP2 JUMPDEST DUP2 DUP4 LT PUSH2 0x214F JUMPI POP POP PUSH2 0x2122 SWAP4 POP DUP3 ADD ADD CODESIZE DUP1 PUSH2 0x2114 JUMP JUMPDEST DUP6 SLOAD DUP9 DUP5 ADD DUP6 ADD MSTORE SWAP5 DUP6 ADD SWAP5 DUP8 SWAP5 POP SWAP2 DUP4 ADD SWAP2 PUSH2 0x2137 JUMP JUMPDEST SWAP2 POP POP PUSH2 0x2122 SWAP5 POP PUSH1 0x20 SWAP3 POP PUSH1 0xFF NOT AND DUP3 DUP5 ADD MSTORE ISZERO ISZERO PUSH1 0x5 SHL DUP3 ADD ADD CODESIZE DUP1 PUSH2 0x2114 JUMP JUMPDEST SWAP2 SWAP1 DUP3 MLOAD SWAP3 DUP4 DUP3 MSTORE PUSH1 0x0 JUMPDEST DUP5 DUP2 LT PUSH2 0x21B6 JUMPI POP POP DUP3 PUSH1 0x0 PUSH1 0x20 DUP1 SWAP5 SWAP6 DUP5 ADD ADD MSTORE PUSH1 0x1F DUP1 NOT SWAP2 ADD AND ADD ADD SWAP1 JUMP JUMPDEST PUSH1 0x20 DUP2 DUP4 ADD DUP2 ADD MLOAD DUP5 DUP4 ADD DUP3 ADD MSTORE ADD PUSH2 0x2195 JUMP JUMPDEST PUSH1 0x0 SLOAD PUSH1 0x1 PUSH1 0x1 PUSH1 0xA0 SHL SUB AND CALLER SUB PUSH2 0x21DE JUMPI JUMP JUMPDEST PUSH1 0x40 MLOAD PUSH4 0x118CDAA7 PUSH1 0xE0 SHL DUP2 MSTORE CALLER PUSH1 0x4 DUP3 ADD MSTORE PUSH1 0x24 SWAP1 REVERT JUMPDEST ISZERO PUSH2 0x21FD JUMPI JUMP JUMPDEST PUSH1 0x40 MLOAD PUSH3 0x461BCD PUSH1 0xE5 SHL DUP2 MSTORE PUSH1 0x20 PUSH1 0x4 DUP3 ADD MSTORE PUSH1 0xF PUSH1 0x24 DUP3 ADD MSTORE PUSH15 0x496E76616C69642061646472657373 PUSH1 0x88 SHL PUSH1 0x44 DUP3 ADD MSTORE PUSH1 0x64 SWAP1 REVERT JUMPDEST ISZERO PUSH2 0x223B JUMPI JUMP JUMPDEST PUSH1 0x40 MLOAD PUSH3 0x461BCD PUSH1 0xE5 SHL DUP2 MSTORE PUSH1 0x20 PUSH1 0x4 DUP3 ADD MSTORE PUSH1 0x12 PUSH1 0x24 DUP3 ADD MSTORE PUSH18 0x496E76616C6964206D455448207072696365 PUSH1 0x70 SHL PUSH1 0x44 DUP3 ADD MSTORE PUSH1 0x64 SWAP1 REVERT JUMPDEST DUP2 DUP2 MUL SWAP3 SWAP2 DUP2 ISZERO SWAP2 DUP5 DIV EQ OR ISZERO PUSH2 0x4B7 JUMPI JUMP JUMPDEST DUP2 ISZERO PUSH2 0x2292 JUMPI DIV SWAP1 JUMP JUMPDEST PUSH4 0x4E487B71 PUSH1 0xE0 SHL PUSH1 0x0 MSTORE PUSH1 0x12 PUSH1 0x4 MSTORE PUSH1 0x24 PUSH1 0x0 REVERT JUMPDEST SWAP1 DUP2 PUSH1 0x20 SWAP2 SUB SLT PUSH2 0x43D JUMPI MLOAD DUP1 ISZERO ISZERO DUP2 SUB PUSH2 0x43D JUMPI SWAP1 JUMP JUMPDEST ISZERO PUSH2 0x22C7 JUMPI JUMP JUMPDEST PUSH1 0x40 MLOAD PUSH3 0x461BCD PUSH1 0xE5 SHL DUP2 MSTORE PUSH1 0x20 PUSH1 0x4 DUP3 ADD MSTORE PUSH1 0x14 PUSH1 0x24 DUP3 ADD MSTORE PUSH20 0x1B515512081D1C985B9CD9995C8819985A5B1959 PUSH1 0x62 SHL PUSH1 0x44 DUP3 ADD MSTORE PUSH1 0x64 SWAP1 REVERT JUMPDEST PUSH1 0x2 PUSH1 0x1 SLOAD EQ PUSH2 0x2314 JUMPI PUSH1 0x2 PUSH1 0x1 SSTORE JUMP JUMPDEST PUSH1 0x40 MLOAD PUSH4 0x3EE5AEB5 PUSH1 0xE0 SHL DUP2 MSTORE PUSH1 0x4 SWAP1 REVERT JUMPDEST ISZERO PUSH2 0x232D JUMPI JUMP JUMPDEST PUSH1 0x40 MLOAD PUSH3 0x461BCD PUSH1 0xE5 SHL DUP2 MSTORE PUSH1 0x20 PUSH1 0x4 DUP3 ADD MSTORE PUSH1 0x13 PUSH1 0x24 DUP3 ADD MSTORE PUSH19 0x506F736974696F6E206E6F7420616374697665 PUSH1 0x68 SHL PUSH1 0x44 DUP3 ADD MSTORE PUSH1 0x64 SWAP1 REVERT JUMPDEST SWAP2 SWAP1 DUP3 PUSH1 0x40 SWAP2 SUB SLT PUSH2 0x43D JUMPI PUSH1 0x20 DUP3 MLOAD SWAP3 ADD MLOAD SWAP1 JUMP JUMPDEST SWAP2 SWAP1 DUP3 SUB SWAP2 DUP3 GT PUSH2 0x4B7 JUMPI JUMP JUMPDEST SWAP2 SWAP1 DUP3 ADD DUP1 SWAP3 GT PUSH2 0x4B7 JUMPI JUMP JUMPDEST SWAP2 SWAP1 SWAP2 PUSH1 0x0 SWAP3 DUP2 DUP5 MSTORE PUSH1 0x20 SWAP2 PUSH1 0x8 DUP4 MSTORE PUSH1 0x40 DUP6 KECCAK256 SWAP2 PUSH1 0x40 MLOAD SWAP3 PUSH2 0x23BA DUP5 PUSH2 0x204F JUMP JUMPDEST PUSH1 0x1 DUP1 PUSH1 0xA0 SHL SUB SWAP4 DUP5 DUP3 SLOAD AND DUP2 MSTORE PUSH1 0xFF PUSH1 0x9 PUSH1 0x1 DUP5 ADD SLOAD SWAP4 DUP9 DUP5 ADD SWAP5 DUP6 MSTORE PUSH1 0x2 DUP2 ADD SLOAD PUSH1 0x40 DUP6 ADD MSTORE DUP8 PUSH1 0x3 DUP3 ADD SLOAD AND PUSH1 0x60 DUP6 ADD MSTORE PUSH1 0x4 DUP2 ADD SLOAD PUSH1 0x80 DUP6 ADD MSTORE PUSH2 0x2404 PUSH1 0x5 DUP3 ADD PUSH2 0x20E4 JUMP JUMPDEST PUSH1 0xA0 DUP6 ADD MSTORE PUSH1 0x6 DUP2 ADD SLOAD PUSH1 0xC0 DUP6 ADD MSTORE PUSH1 0x7 DUP2 ADD SLOAD PUSH1 0xE0 DUP6 ADD MSTORE PUSH1 0x8 DUP2 ADD SLOAD PUSH2 0x100 DUP6 ADD MSTORE ADD SLOAD AND ISZERO SWAP1 PUSH2 0x120 DUP3 ISZERO SWAP2 ADD MSTORE PUSH2 0x2504 JUMPI PUSH2 0x245E DUP3 PUSH13 0xC9F2C9CD04674EDEA40000000 SWAP3 PUSH2 0x2458 DUP9 SWAP6 ISZERO ISZERO PUSH2 0x2234 JUMP JUMPDEST MLOAD PUSH2 0x2275 JUMP JUMPDEST DIV SWAP3 PUSH1 0x4 SLOAD AND SWAP2 PUSH1 0x24 PUSH1 0x40 MLOAD DUP1 SWAP5 DUP2 SWAP4 PUSH4 0xD5595157 PUSH1 0xE0 SHL DUP4 MSTORE PUSH1 0x4 DUP4 ADD MSTORE GAS STATICCALL SWAP3 DUP4 ISZERO PUSH2 0x53B JUMPI DUP6 SWAP4 PUSH2 0x24D4 JUMPI JUMPDEST POP POP DUP2 ISZERO PUSH2 0x24CB JUMPI PUSH2 0x2710 SWAP1 DUP2 DUP2 MUL SWAP2 DUP2 DUP4 DIV EQ SWAP1 ISZERO OR ISZERO PUSH2 0x24B7 JUMPI PUSH2 0x24B4 SWAP3 SWAP4 POP PUSH2 0x2288 JUMP JUMPDEST SWAP1 JUMP JUMPDEST PUSH4 0x4E487B71 PUSH1 0xE0 SHL DUP5 MSTORE PUSH1 0x11 PUSH1 0x4 MSTORE PUSH1 0x24 DUP5 REVERT JUMPDEST POP PUSH1 0x0 NOT SWAP3 POP POP JUMP JUMPDEST SWAP1 DUP1 SWAP3 SWAP4 POP DUP2 RETURNDATASIZE DUP4 GT PUSH2 0x24FD JUMPI JUMPDEST PUSH2 0x24EC DUP2 DUP4 PUSH2 0x206C JUMP JUMPDEST DUP2 ADD SUB SLT PUSH2 0x17DF JUMPI MLOAD SWAP1 CODESIZE DUP1 PUSH2 0x248D JUMP JUMPDEST POP RETURNDATASIZE PUSH2 0x24E2 JUMP JUMPDEST POP POP POP POP POP JUMP INVALID LOG2 PUSH5 0x6970667358 0x22 SLT KECCAK256 PUSH15 0x9ADC906E8500713C0C5A2F72BE54F7 0xB1 CALLCODE 0xEA PUSH21 0x3037A8FDF04BA81136262B7364736F6C6343000814 STOP CALLER "},"methodIdentifiers":{"BASIS_POINTS()":"e1f1c4a7","INITIAL_LTV()":"5cacf422","LIQUIDATION_THRESHOLD()":"90a8ae9b","addCollateral(uint256,uint256)":"a8f35adf","claimYieldFromBurn(uint256,address,address,uint256)":"975d6dfb","createPosition(address,uint256,uint256,address,uint256,string,bytes32,uint256)":"8482c795","fluxionIntegration()":"505aa212","getHealthFactor(uint256,uint256)":"4d2c872a","getPosition(uint256)":"eb02c301","harvestYield(uint256,uint256)":"ffc0d233","liquidatePosition(uint256,uint256)":"d3c4e4a6","mETH()":"29e84867","nextPositionId()":"899346c7","owner()":"8da5cb5b","positions(uint256)":"99fbab88","primaryMarket()":"1e77ceda","processSettlement(uint256,uint256)":"0381b4dd","renounceOwnership()":"715018a6","seniorPool()":"f416fc1c","setPrimaryMarket(address)":"e2dc3666","setYieldVault(address)":"137c3f69","transferOwnership(address)":"f2fde38b","usdc()":"3e413bee","yieldVault()":"a7f8a5e2"}}}}}