{"contracts/core/SolvencyVault.sol":{"SolvencyVault":{"abi":[{"inputs":[{"internalType":"address","name":"_usdc","type":"address"},{"internalType":"address","name":"_seniorPool","type":"address"}],"stateMutability":"nonpayable","type":"constructor"},{"inputs":[{"internalType":"address","name":"owner","type":"address"}],"name":"OwnableInvalidOwner","type":"error"},{"inputs":[{"internalType":"address","name":"account","type":"address"}],"name":"OwnableUnauthorizedAccount","type":"error"},{"inputs":[],"name":"ReentrancyGuardReentrantCall","type":"error"},{"anonymous":false,"inputs":[{"indexed":true,"internalType":"uint256","name":"positionId","type":"uint256"},{"indexed":true,"internalType":"address","name":"user","type":"address"},{"indexed":false,"internalType":"uint256","name":"amount","type":"uint256"}],"name":"CollateralWithdrawn","type":"event"},{"anonymous":false,"inputs":[{"indexed":true,"internalType":"uint256","name":"positionId","type":"uint256"},{"indexed":true,"internalType":"uint256","name":"creditLineId","type":"uint256"},{"indexed":false,"internalType":"string","name":"reason","type":"string"}],"name":"CreditLineRevoked","type":"event"},{"anonymous":false,"inputs":[{"indexed":true,"internalType":"uint256","name":"positionId","type":"uint256"},{"indexed":false,"internalType":"uint256","name":"yieldReceived","type":"uint256"},{"indexed":false,"internalType":"uint256","name":"debtRepaid","type":"uint256"},{"indexed":false,"internalType":"uint256","name":"liquidationFee","type":"uint256"},{"indexed":false,"internalType":"uint256","name":"userRefund","type":"uint256"}],"name":"LiquidationSettled","type":"event"},{"anonymous":false,"inputs":[{"indexed":true,"internalType":"uint256","name":"positionId","type":"uint256"},{"indexed":false,"internalType":"uint256","name":"amount","type":"uint256"},{"indexed":false,"internalType":"uint256","name":"principal","type":"uint256"},{"indexed":false,"internalType":"uint256","name":"interest","type":"uint256"},{"indexed":false,"internalType":"uint256","name":"remainingDebt","type":"uint256"}],"name":"LoanRepaid","type":"event"},{"anonymous":false,"inputs":[{"indexed":true,"internalType":"uint256","name":"positionId","type":"uint256"},{"indexed":false,"internalType":"uint256","name":"creditLineId","type":"uint256"},{"indexed":false,"internalType":"uint256","name":"creditLimit","type":"uint256"}],"name":"OAIDCreditIssued","type":"event"},{"anonymous":false,"inputs":[{"indexed":true,"internalType":"address","name":"previousOwner","type":"address"},{"indexed":true,"internalType":"address","name":"newOwner","type":"address"}],"name":"OwnershipTransferred","type":"event"},{"anonymous":false,"inputs":[{"indexed":true,"internalType":"uint256","name":"positionId","type":"uint256"},{"indexed":true,"internalType":"address","name":"user","type":"address"},{"indexed":false,"internalType":"address","name":"collateralToken","type":"address"},{"indexed":false,"internalType":"uint256","name":"collateralAmount","type":"uint256"},{"indexed":false,"internalType":"uint256","name":"tokenValueUSD","type":"uint256"},{"indexed":false,"internalType":"enum SolvencyVault.TokenType","name":"tokenType","type":"uint8"}],"name":"PositionCreated","type":"event"},{"anonymous":false,"inputs":[{"indexed":true,"internalType":"uint256","name":"positionId","type":"uint256"},{"indexed":false,"internalType":"uint256","name":"liquidationTime","type":"uint256"}],"name":"PositionLiquidated","type":"event"},{"anonymous":false,"inputs":[{"indexed":true,"internalType":"uint256","name":"positionId","type":"uint256"},{"indexed":true,"internalType":"address","name":"purchaser","type":"address"},{"indexed":false,"internalType":"uint256","name":"purchaseAmount","type":"uint256"},{"indexed":false,"internalType":"uint256","name":"tokensTransferred","type":"uint256"},{"indexed":false,"internalType":"uint256","name":"debtRepaid","type":"uint256"},{"indexed":false,"internalType":"uint256","name":"liquidationFee","type":"uint256"},{"indexed":false,"internalType":"uint256","name":"userRefund","type":"uint256"}],"name":"PrivateAssetLiquidationSettled","type":"event"},{"anonymous":false,"inputs":[{"indexed":true,"internalType":"uint256","name":"positionId","type":"uint256"},{"indexed":false,"internalType":"uint256","name":"loanDuration","type":"uint256"},{"indexed":false,"internalType":"uint256","name":"numberOfInstallments","type":"uint256"},{"indexed":false,"internalType":"uint256","name":"installmentInterval","type":"uint256"},{"indexed":false,"internalType":"uint256","name":"nextPaymentDue","type":"uint256"}],"name":"RepaymentPlanCreated","type":"event"},{"anonymous":false,"inputs":[{"indexed":true,"internalType":"uint256","name":"positionId","type":"uint256"},{"indexed":false,"internalType":"uint256","name":"amount","type":"uint256"},{"indexed":false,"internalType":"uint256","name":"totalDebt","type":"uint256"}],"name":"USDCBorrowed","type":"event"},{"inputs":[],"name":"BASIS_POINTS","outputs":[{"internalType":"uint256","name":"","type":"uint256"}],"stateMutability":"view","type":"function"},{"inputs":[],"name":"LIQUIDATION_FEE_BPS","outputs":[{"internalType":"uint256","name":"","type":"uint256"}],"stateMutability":"view","type":"function"},{"inputs":[],"name":"LIQUIDATION_THRESHOLD","outputs":[{"internalType":"uint256","name":"","type":"uint256"}],"stateMutability":"view","type":"function"},{"inputs":[],"name":"PRIVATE_ASSET_LTV","outputs":[{"internalType":"uint256","name":"","type":"uint256"}],"stateMutability":"view","type":"function"},{"inputs":[],"name":"RWA_LTV","outputs":[{"internalType":"uint256","name":"","type":"uint256"}],"stateMutability":"view","type":"function"},{"inputs":[{"internalType":"uint256","name":"positionId","type":"uint256"},{"internalType":"uint256","name":"amount","type":"uint256"},{"internalType":"uint256","name":"loanDuration","type":"uint256"},{"internalType":"uint256","name":"numberOfInstallments","type":"uint256"}],"name":"borrowUSDC","outputs":[],"stateMutability":"nonpayable","type":"function"},{"inputs":[{"internalType":"address","name":"collateralToken","type":"address"},{"internalType":"uint256","name":"collateralAmount","type":"uint256"},{"internalType":"uint256","name":"tokenValueUSD","type":"uint256"},{"internalType":"enum SolvencyVault.TokenType","name":"tokenType","type":"uint8"},{"internalType":"bool","name":"issueOAID","type":"bool"}],"name":"depositCollateral","outputs":[{"internalType":"uint256","name":"positionId","type":"uint256"}],"stateMutability":"nonpayable","type":"function"},{"inputs":[{"internalType":"uint256","name":"positionId","type":"uint256"}],"name":"getHealthFactor","outputs":[{"internalType":"uint256","name":"","type":"uint256"}],"stateMutability":"view","type":"function"},{"inputs":[{"internalType":"uint256","name":"positionId","type":"uint256"}],"name":"getMaxBorrow","outputs":[{"internalType":"uint256","name":"","type":"uint256"}],"stateMutability":"view","type":"function"},{"inputs":[{"internalType":"uint256","name":"positionId","type":"uint256"}],"name":"getPosition","outputs":[{"components":[{"internalType":"address","name":"user","type":"address"},{"internalType":"address","name":"collateralToken","type":"address"},{"internalType":"uint256","name":"collateralAmount","type":"uint256"},{"internalType":"uint256","name":"usdcBorrowed","type":"uint256"},{"internalType":"uint256","name":"tokenValueUSD","type":"uint256"},{"internalType":"uint256","name":"createdAt","type":"uint256"},{"internalType":"uint256","name":"liquidatedAt","type":"uint256"},{"internalType":"uint256","name":"creditLineId","type":"uint256"},{"internalType":"bool","name":"active","type":"bool"},{"internalType":"enum SolvencyVault.TokenType","name":"tokenType","type":"uint8"}],"internalType":"struct SolvencyVault.Position","name":"","type":"tuple"}],"stateMutability":"view","type":"function"},{"inputs":[{"internalType":"uint256","name":"positionId","type":"uint256"}],"name":"getRepaymentPlan","outputs":[{"components":[{"internalType":"uint256","name":"loanDuration","type":"uint256"},{"internalType":"uint256","name":"numberOfInstallments","type":"uint256"},{"internalType":"uint256","name":"installmentInterval","type":"uint256"},{"internalType":"uint256","name":"nextPaymentDue","type":"uint256"},{"internalType":"uint256","name":"installmentsPaid","type":"uint256"},{"internalType":"uint256","name":"missedPayments","type":"uint256"},{"internalType":"bool","name":"isActive","type":"bool"}],"internalType":"struct SolvencyVault.RepaymentPlan","name":"","type":"tuple"}],"stateMutability":"view","type":"function"},{"inputs":[{"internalType":"uint256","name":"positionId","type":"uint256"}],"name":"liquidatePosition","outputs":[],"stateMutability":"nonpayable","type":"function"},{"inputs":[],"name":"nextPositionId","outputs":[{"internalType":"uint256","name":"","type":"uint256"}],"stateMutability":"view","type":"function"},{"inputs":[],"name":"oaid","outputs":[{"internalType":"address","name":"","type":"address"}],"stateMutability":"view","type":"function"},{"inputs":[],"name":"owner","outputs":[{"internalType":"address","name":"","type":"address"}],"stateMutability":"view","type":"function"},{"inputs":[{"internalType":"uint256","name":"","type":"uint256"}],"name":"positions","outputs":[{"internalType":"address","name":"user","type":"address"},{"internalType":"address","name":"collateralToken","type":"address"},{"internalType":"uint256","name":"collateralAmount","type":"uint256"},{"internalType":"uint256","name":"usdcBorrowed","type":"uint256"},{"internalType":"uint256","name":"tokenValueUSD","type":"uint256"},{"internalType":"uint256","name":"createdAt","type":"uint256"},{"internalType":"uint256","name":"liquidatedAt","type":"uint256"},{"internalType":"uint256","name":"creditLineId","type":"uint256"},{"internalType":"bool","name":"active","type":"bool"},{"internalType":"enum SolvencyVault.TokenType","name":"tokenType","type":"uint8"}],"stateMutability":"view","type":"function"},{"inputs":[{"internalType":"uint256","name":"","type":"uint256"}],"name":"positionsInLiquidation","outputs":[{"internalType":"bool","name":"","type":"bool"}],"stateMutability":"view","type":"function"},{"inputs":[],"name":"primaryMarket","outputs":[{"internalType":"address","name":"","type":"address"}],"stateMutability":"view","type":"function"},{"inputs":[{"internalType":"uint256","name":"positionId","type":"uint256"},{"internalType":"uint256","name":"purchaseAmount","type":"uint256"}],"name":"purchaseAndSettleLiquidation","outputs":[{"internalType":"uint256","name":"liquidationFee","type":"uint256"},{"internalType":"uint256","name":"userRefund","type":"uint256"}],"stateMutability":"nonpayable","type":"function"},{"inputs":[],"name":"renounceOwnership","outputs":[],"stateMutability":"nonpayable","type":"function"},{"inputs":[{"internalType":"uint256","name":"positionId","type":"uint256"},{"internalType":"uint256","name":"amount","type":"uint256"}],"name":"repayLoan","outputs":[],"stateMutability":"nonpayable","type":"function"},{"inputs":[{"internalType":"uint256","name":"","type":"uint256"}],"name":"repaymentPlans","outputs":[{"internalType":"uint256","name":"loanDuration","type":"uint256"},{"internalType":"uint256","name":"numberOfInstallments","type":"uint256"},{"internalType":"uint256","name":"installmentInterval","type":"uint256"},{"internalType":"uint256","name":"nextPaymentDue","type":"uint256"},{"internalType":"uint256","name":"installmentsPaid","type":"uint256"},{"internalType":"uint256","name":"missedPayments","type":"uint256"},{"internalType":"bool","name":"isActive","type":"bool"}],"stateMutability":"view","type":"function"},{"inputs":[],"name":"seniorPool","outputs":[{"internalType":"address","name":"","type":"address"}],"stateMutability":"view","type":"function"},{"inputs":[{"internalType":"address","name":"_oaid","type":"address"}],"name":"setOAID","outputs":[],"stateMutability":"nonpayable","type":"function"},{"inputs":[{"internalType":"address","name":"_primaryMarket","type":"address"}],"name":"setPrimaryMarket","outputs":[],"stateMutability":"nonpayable","type":"function"},{"inputs":[{"internalType":"address","name":"_yieldVault","type":"address"}],"name":"setYieldVault","outputs":[],"stateMutability":"nonpayable","type":"function"},{"inputs":[{"internalType":"uint256","name":"positionId","type":"uint256"}],"name":"settleLiquidation","outputs":[{"internalType":"uint256","name":"yieldReceived","type":"uint256"},{"internalType":"uint256","name":"liquidationFee","type":"uint256"},{"internalType":"uint256","name":"userRefund","type":"uint256"}],"stateMutability":"nonpayable","type":"function"},{"inputs":[{"internalType":"address","name":"newOwner","type":"address"}],"name":"transferOwnership","outputs":[],"stateMutability":"nonpayable","type":"function"},{"inputs":[],"name":"usdc","outputs":[{"internalType":"contract IERC20","name":"","type":"address"}],"stateMutability":"view","type":"function"},{"inputs":[{"internalType":"uint256","name":"positionId","type":"uint256"},{"internalType":"uint256","name":"amount","type":"uint256"}],"name":"withdrawCollateral","outputs":[],"stateMutability":"nonpayable","type":"function"},{"inputs":[],"name":"yieldVault","outputs":[{"internalType":"address","name":"","type":"address"}],"stateMutability":"view","type":"function"}],"evm":{"bytecode":{"linkReferences":{},"object":"608034620000f557601f62002e1c38819003918201601f19168301916001600160401b03831184841017620000fa578084926040948552833981010312620000f5576200005a6020620000528362000110565b920162000110565b3315620000dc5760008054336001600160a01b0319808316821784556040519590946001600160a01b03949093859391908416907f8be0079c531659141344cd1fd0a4f28419497f9722a3daafe3b4186f6b6457e09080a36001805516836002541617600255169060035416176003556001600755612cf69081620001268239f35b604051631e4fbdf760e01b815260006004820152602490fd5b600080fd5b634e487b7160e01b600052604160045260246000fd5b51906001600160a01b0382168203620000f55756fe6080604052600436101561001257600080fd5b6000803560e01c80630bae9ef9146121f3578063137c3f69146121a757806316ef17291461217857806317845c69146121595780631e77ceda146121305780632be04392146121075780633e413bee146120de5780634d111a0514611c44578063518e8dfc14611c275780635403bc4a146117925780636c320cb014611746578063715018a6146116ec578063761c5f0a146116cf578063767a7b051461149a5780637b5210d814611473578063837c2a6114610e7e578063899346c714610e605780638a700b53146109e95780638da5cb5b146109c257806390a8ae9b146109a557806399fbab88146108ff578063a53ae06b1461088e578063a7f8a5e214610865578063cdddd4e5146104fc578063d79873b9146104df578063e1f1c4a7146104c2578063e2dc366614610476578063eb02c30114610309578063f2fde38b1461027e578063f416fc1c146102555763fea58e831461017257600080fd5b346102525760203660031901126102525760408160e09260c08351610196816126f3565b82815282602082015282858201528260608201528260808201528260a082015201526004358152600a602052206040516101cf816126f3565b815491828252600181015460208301908152600282015460408401908152600383015490606085019182526004840154926080860193845260c060ff600660058801549760a08a01988952015416960195151586526040519687525160208701525160408601525160608501525160808401525160a083015251151560c0820152f35b80fd5b50346102525780600319360112610252576003546040516001600160a01b039091168152602090f35b5034610252576020366003190112610252576102986125c6565b6102a0612615565b6001600160a01b039081169081156102f057600054826001600160601b0360a01b821617600055167f8be0079c531659141344cd1fd0a4f28419497f9722a3daafe3b4186f6b6457e0600080a380f35b604051631e4fbdf760e01b815260048101849052602490fd5b503461025257602036600319011261025257604081610140926101208351610330816126c0565b82815282602082015282858201528260608201528260808201528260a08201528260c08201528260e082015282610100820152015260043581526006602052206103f560ff600860405193610384856126c0565b80546001600160a01b0390811686526001820154166020860152600281015460408601526003810154606086015260048101546080860152600581015460a0860152600681015460c0860152600781015460e08601520154818116151561010085015260081c1661012083016127e2565b6104746101206040519260018060a01b03815116845260018060a01b03602082015116602085015260408101516040850152606081015160608501526080810151608085015260a081015160a085015260c081015160c085015260e081015160e0850152610100810151151561010085015201516101208301906125f2565bf35b5034610252576020366003190112610252576104906125c6565b610498612615565b6001600160a01b03166104ac811515612641565b6001600160601b0360a01b600454161760045580f35b503461025257806003193601126102525760206040516127108152f35b503461025257806003193601126102525760206040516117708152f35b50346102525760208060031936011261074c576004359061051b612615565b610523612821565b81835260068152604083209061053f60ff600884015416612844565b8284526008815260ff60408520541661082857612cec61055e84612a0b565b109184848652600a83526040862090600682019160ff8354169081610818575b50610810575b84908515610808575b50156107b557848652600883526040862060ff1990600182825416179055426006840155815460ff81166107aa575b50506005546001600160a01b03169390508315158061079d575b61060e575b50507f77493833e3b7f392bd715ffdc3abd21434418e6889264880074c970e1b5e61c89150604051428152a26001805580f35b1561075057600760405161062181612723565b603781527f506f736974696f6e206c697175696461746564202d20636f6c6c61746572616c848201527f206865616c74682062656c6f77207468726573686f6c640000000000000000006040820152915b0192858454823b1561074c5781906040519384916367cc7cff60e01b83526004830152604060248301528183816106ac604482018a61293a565b03925af191821561073f578692610724575b50507fd89109f5414f7b5415e9a3e20b055f6a8cc38b81f34d24eb5ae3512086356a8a61071a7f77493833e3b7f392bd715ffdc3abd21434418e6889264880074c970e1b5e61c89554936040519182918783528783019061293a565b0390a338806105db565b61072f91925061270f565b61073b578385386106be565b8480fd5b50604051903d90823e3d90fd5b5080fd5b600760405161075e81612723565b602781527f506f736974696f6e206c697175696461746564202d2072657061796d656e74208482015266191959985d5b1d60ca1b604082015291610672565b50600782015415156105d6565b1690553880806105bc565b60405162461bcd60e51b815260048101849052602560248201527f506f736974696f6e206973206865616c74687920616e64206e6f7420646566616044820152641d5b1d195960da1b6064820152608490fd5b90503861058d565b506001610584565b600391506005015410153861057e565b6064906040519062461bcd60e51b82526004820152601660248201527520b63932b0b23c9034b7103634b8bab4b230ba34b7b760511b6044820152fd5b50346102525780600319360112610252576009546040516001600160a01b039091168152602090f35b503461025257602036600319011261025257604060e0916004358152600a602052208054906001810154906002810154600382015460048301549160ff600660058601549501541694604051968752602087015260408601526060850152608084015260a0830152151560c0820152f35b503461025257602036600319011261025257604061014091600435815260066020522061047460018060a01b03918281541692600182015416906002810154600382015460048301546005840154916006850154936008600787015496015496604051998a5260208a015260408901526060880152608087015260a086015260c085015260e084015260ff8116151561010084015260ff61012084019160081c166125f2565b50346102525780600319360112610252576020604051612cec8152f35b5034610252578060031936011261025257546040516001600160a01b039091168152602090f35b5034610252576109f8366125dc565b610a00612821565b818352826020916006835260408220610a1f60ff600883015416612844565b610a3360018060a01b038254163314612886565b610a3e82151561267f565b6002546040516323b872dd60e01b8152336004820152306024820152604481018490529085908290606490829088906001600160a01b03165af18015610e3857610a8f918591610e43575b506128d4565b60025460035460405163095ea7b360e01b81526001600160a01b03918216600482015260248101859052918691839160449183918991165af18015610e3857610e0b575b5082604060018060a01b0360035416604482518097819363d8aed14560e01b83528b60048401528860248401525af191821561073f5760249582958394610dd4575b5060038201610b2587825461292d565b905560035460405163d559515760e01b8152600481018a905297829189919082906001600160a01b03165afa968715610dc9578397610d90575b50600a9088845252604082209060018392600681015460ff8116610cf0575b50506005546001600160a01b031680151580610ce3575b610bf2575b50505050507f91f28e20f26321cf8a71cadbefe77cfe670ee70b71a621e3ce3fb1b57e19dfaa93610be891604051948594859094939260609260808301968352602083015260408201520152565b0390a26001805580f35b87610c7b575b5060055460079290920154916001600160a01b0316803b1561073b57849283608492604051968795869463f2f6818f60e01b865260048601528b60248601521515604485015260648401525af18015610c7057610c58575b808080610b9a565b610c619061270f565b610c6c578538610c50565b8580fd5b6040513d84823e3d90fd5b6007830154813b15610c6c578591604483926040519485938492636ad75e1f60e01b845260048401528d60248401525af1908115610cd8578591610cc0575b50610bf8565b610cc99061270f565b610cd4578338610cba565b8380fd5b6040513d87823e3d90fd5b5060078301541515610b95565b6003820154804211610d37575b610d1c9060048401610d0f81546127bd565b90556002840154906128c7565b600383015589610b7e5760069060ff19169101553880610b7e565b9593945090915062015180610d4c864261292d565b04600181018111610d7c5790610d1c60018d9796959493019560058401610d7381546127bd565b90559050610cfd565b634e487b7160e01b8c52601160045260248cfd5b818098508194503d8311610dc2575b610da9818361273f565b81010312610dbd57600a8892519690610b5f565b600080fd5b503d610d9f565b6040513d85823e3d90fd5b909350610dfa91955060403d604011610e04575b610df2818361273f565b810190612917565b9490949238610b15565b503d610de8565b610e2a90853d8711610e31575b610e22818361273f565b810190612761565b5038610ad3565b503d610e18565b6040513d86823e3d90fd5b610e5a9150863d8811610e3157610e22818361273f565b38610a89565b50346102525780600319360112610252576020600754604051908152f35b5034610252576020908160031936011261025257600435610e9d612615565b610ea5612821565b8082526006835260408220600881019360ff8554610ec4828216612844565b84865260088352610eda8260408820541661297a565b60081c16600281101561145f57611425576009546001600160a01b039390841680156113eb5760018401805460028601805460405163095ea7b360e01b8082526001600160a01b03969096166004820152602481019190915298999092909186908a9060449082908e908d165af190811561113e57610f989987926113ce575b5060095490548454604051630c34f5ed60e11b8152918b166001600160a01b031660048301526024820152998a918a169082908d9082906044820190565b03925af19788156113c3578998611394575b50871561135b5786600354169260405163d559515760e01b81528560048201528681602481885afa9485156113505787918c9661131f575b508b9580611243575b505050508288111561120f57611001838961292d565b956103e88088029088820414881517156111fb576127106110249104809861292d565b9787611149575b88611099575b50509160609886927f1b5cd914bf77ee50de90263f47d89967bbce85a4eb078d958bfee08dc0d0cde7945b805460ff191690555560408051898152602081019290925281019190915260608101869052608090a2600180556040519384528301526040820152f35b600254915460405163a9059cbb60e01b81529082166001600160a01b03166004820152602481018a9052918791839116818d816044810103925af190811561113e57927f1b5cd914bf77ee50de90263f47d89967bbce85a4eb078d958bfee08dc0d0cde794926111158c938a9660609e91611121575b506129c6565b92945092819a50611031565b61113891508a3d8c11610e3157610e22818361273f565b3861110f565b6040513d8c823e3d90fd5b6002548b5460405163a9059cbb60e01b81529083166001600160a01b03166004820152602481018a905290889082908416818f816044810103925af19081156111f0578c916111d3575b5061102b5760405162461bcd60e51b8152600481018890526013602482015272119959481d1c985b9cd9995c8819985a5b1959606a1b6044820152606490fd5b6111ea9150883d8a11610e3157610e22818361273f565b38611193565b6040513d8e823e3d90fd5b634e487b7160e01b8b52601160045260248bfd5b95508794507f1b5cd914bf77ee50de90263f47d89967bbce85a4eb078d958bfee08dc0d0cde791606098958692819861105c565b61128c93949650808c11600014611315579384915b6002546040519283526001600160a01b03909116600483015260248201929092529283918b169082908e9082906044820190565b03925af1801561113e576112f8575b508860408860035416604482518094819363d8aed14560e01b83528a60048401528760248401525af1801561113e576112da575b509138858180610feb565b6112f29060403d604011610e0457610df2818361273f565b506112cf565b61130e90863d8811610e3157610e22818361273f565b503861129b565b508a938491611258565b8281939297503d8311611349575b611337818361273f565b81010312610dbd578690519438610fe2565b503d61132d565b6040513d8d823e3d90fd5b60405162461bcd60e51b8152600481018690526011602482015270139bc81e5a595b19081c9958d95a5d9959607a1b6044820152606490fd5b9097508481813d83116113bc575b6113ac818361273f565b81010312610dbd57519638610faa565b503d6113a2565b6040513d8b823e3d90fd5b6113e490833d8511610e3157610e22818361273f565b5038610f5a565b60405162461bcd60e51b8152600481018490526012602482015271165a595b1915985d5b1d081b9bdd081cd95d60721b6044820152606490fd5b6064906040519062461bcd60e51b8252600482015260136024820152724f6e6c7920666f722052574120746f6b656e7360681b6044820152fd5b634e487b7160e01b85526021600452602485fd5b5034610252576020366003190112610252576020611492600435612b5a565b604051908152f35b5034610252576114a9366125dc565b906114b2612821565b80835260206006815260408420600881019081546114d260ff8216612844565b81546001600160a01b0393906114eb9085163314612886565b6114f687151561267f565b60028301805480891161168a5760248787600354166040519283809263d559515760e01b82528d60048301525afa908115611350578b9161165d575b5061161857906115478960019695949361292d565b809155156115e5575b5050015460405163a9059cbb60e01b81523360048201526024810186905292918291849160449183918a91165af1918215610cd8577f7c5e5cb62e5ed3caf3764e4b0afedfedef533e27809d43367799787ad2abcd41926115b89187916115c8575b50612779565b6040519384523393a36001805580f35b6115df9150833d8511610e3157610e22818361273f565b386115b2565b60ff198092169055858852600a85526006604089200190815460ff811661160d575b50611550565b169055388080611607565b60405162461bcd60e51b815260048101889052601f60248201527f4f75747374616e64696e672064656274206d75737420626520726570616964006044820152606490fd5b90508781813d8311611683575b611674818361273f565b81010312610dbd575138611532565b503d61166a565b60405162461bcd60e51b815260048101889052601760248201527f496e73756666696369656e7420636f6c6c61746572616c0000000000000000006044820152606490fd5b50346102525780600319360112610252576020604051611b588152f35b5034610252578060031936011261025257611705612615565b600080546001600160a01b0319811682556001600160a01b03167f8be0079c531659141344cd1fd0a4f28419497f9722a3daafe3b4186f6b6457e08280a380f35b5034610252576020366003190112610252576117606125c6565b611768612615565b6001600160a01b031661177c811515612641565b6001600160601b0360a01b600554161760055580f35b5034610252576117a1366125dc565b6117a9612615565b6117b1612821565b8183526006602052604083209060ff60088301546117d0828216612844565b84865260086020526117e78260408820541661297a565b60081c16600281101561145f57600103611be2578015611b9d576002546040516323b872dd60e01b815233600482015230602482015260448101839052906020908290606490829089906001600160a01b03165af18015610cd857611852918691611b8457506128d4565b6001820154600283015460405163a9059cbb60e01b81523360048201526024810191909152906020908290604490829089906001600160a01b03165af18015610cd8576118a5918691611b6b5750612779565b60035460405163d559515760e01b81526004810185905293906001600160a01b0316602085602481845afa948515611aff578695611b37575b50859480611a37575b505083821115611a27576118fb848361292d565b936103e8808602908682041486151715611a135761271061191e9104809661292d565b938461198d575b958060026040985b60ff196008820154166008820155015586519384526020840152858301528360608301528260808301527fe8809f589fb6a4a715f089d80b78e1c37443064c63cad260285284847c9fc4a360a03393a36001805582519182526020820152f35b600254815460405163a9059cbb60e01b81526001600160a01b0391821660048201526024810188905291602091839160449183918d91165af1908115611a085788926119e5849360029360409c916119ef57506129c6565b9250509650611925565b611138915060203d602011610e3157610e22818361273f565b6040513d8a823e3d90fd5b634e487b7160e01b87526011600452602487fd5b849360409594806002819661192d565b9194509080831115611b29576020611a899180935b60025460405163095ea7b360e01b81526001600160a01b0392831660048201526024810193909352919384929091169082908a9082906044820190565b03925af18015611aff57611b0a575b506003546040805163d8aed14560e01b8152600481018790526024810184905291829060449082908a906001600160a01b03165af18015611aff57611ae1575b509238806118e7565b611af99060403d604011610e0457610df2818361273f565b50611ad8565b6040513d88823e3d90fd5b611b229060203d602011610e3157610e22818361273f565b5038611a98565b50611a896020838093611a4c565b9094506020813d602011611b63575b81611b536020938361273f565b81010312610dbd575193386118de565b3d9150611b46565b6115df915060203d602011610e3157610e22818361273f565b610e5a915060203d602011610e3157610e22818361273f565b60405162461bcd60e51b815260206004820152601b60248201527f507572636861736520616d6f756e74206d757374206265203e203000000000006044820152606490fd5b60405162461bcd60e51b815260206004820152601760248201527f4f6e6c7920666f722050726976617465204173736574730000000000000000006044820152606490fd5b503461025257806003193601126102525760206040516103e88152f35b503461025257608036600319011261025257600435604460648035908235906024803590611c70612821565b8688526020956006875260408920600881015492611c9060ff8516612844565b81546001600160a01b039490611ca99086163314612886565b611cb486151561267f565b87156120a557881561206357888810612021578a8c52600a8a5260408c206006015460ff16611fe95760081c60ff166002811015611fd657611fc857612710611d04611b585b60048501546127ee565b04956003830196611d168789546128c7565b11611f945750908794939291611dbf8860068d8f8e90611d368c86612801565b9b8c611d4281426128c7565b9160405197611d50896126f3565b8852848801908152604088019182526060880192835260406080890194808652600a60a08b019782895260c08c019960018b52835252209751885551600188015551600287015551600386015551600485015551600584015551151591019060ff801983541691151516179055565b8b8460035416803b1561074c578190858e6040519485938492630ecbcdab60e01b845260048401528b888401525af18015611f8957611f6e575b509084939291611e0b8d9689546128c7565b885583600554169182151580611f61575b611f03575b505060025460405163a9059cbb60e01b815233600482015260248101869052938b935084925060449183918891165af1918215610dc9577fdd4271a412a769f5ed0fe9b4b7c386bba5f674b53b01f0c0dab8a378c2991bb998610be896611eb37f0902160bbfee2201aa09b6b057b6f0b7d0f633b2bdefc04e987882df4aefd29c956040958e9891611eec57506128d4565b54908351928352820152a2611ec881426128c7565b90604051948594859094939260609260808301968352602083015260408201520152565b610e5a9150843d8611610e3157610e22818361273f565b6007015492823b15611f5d57859387809460405196879586946365a1782f60e01b865260048601528401525af1908115610e38578491611f45575b8080611e21565b611f4e9061270f565b611f59578238611f3e565b8280fd5b8680fd5b5060078101541515611e1c565b611f7e909c91959493929c61270f565b9a9091929338611df9565b6040513d8f823e3d90fd5b60405162461bcd60e51b8152600481018b905260118184015270115e18d959591cc8131515881b1a5b5a5d607a1b81860152fd5b612710611d04611770611cfa565b50634e487b7160e01b8b5260216004528afd5b60405162461bcd60e51b8152600481018b905260138184015272506c616e20616c72656164792061637469766560681b818601528790fd5b60405162461bcd60e51b8152600481018b9052601d818401527f496e76616c6964206475726174696f6e2f696e7374616c6c6d656e7473000000818601528790fd5b60405162461bcd60e51b8152600481018b90526018818401527f496e7374616c6c6d656e7473206d757374206265203e20300000000000000000818601528790fd5b60405162461bcd60e51b8152600481018b90526014818401527304475726174696f6e206d757374206265203e20360641b818601528790fd5b50346102525780600319360112610252576002546040516001600160a01b039091168152602090f35b50346102525780600319360112610252576005546040516001600160a01b039091168152602090f35b50346102525780600319360112610252576004546040516001600160a01b039091168152602090f35b5034610252576020366003190112610252576020611492600435612a0b565b50346102525760203660031901126102525760ff60406020926004358152600884522054166040519015158152f35b5034610252576020366003190112610252576121c16125c6565b6121c9612615565b6001600160a01b03166121dd811515612641565b6001600160601b0360a01b600954161760095580f35b50346102525760a03660031901126102525761220d6125c6565b6002606435101561074c5760843515156084350361074c5761222d612821565b6001600160a01b0381161561259157612249602435151561267f565b60443515612554576040516323b872dd60e01b815233600482015230602480830191909152356044820152602081606481866001600160a01b0387165af18015610dc95761229d918491611b6b5750612779565b600754906122aa826127bd565b6007556040516122b9816126c0565b3381526001600160a01b038216602082015260243560408201526060810184905260443560808201524260a082015260c0810184905260e081018490526001610100820152610120810161230f606435826127e2565b83855260066020526123ad61010060086040882060018060a01b038651166001600160601b0360a01b9081835416178255600182019060018060a01b036020890151169082541617905560408601516002820155606086015160038201556080860151600482015560a0860151600582015560c0860151600682015560e08601516007820155019301511515839060ff801983541691151516179055565b51600281101561145f5761ff0082549160081b169061ff00191617905560405160018060a01b0382168152602435602082015260443560408201526123f7606082016064356125f2565b827f93cb2591720fa23e5a51a39bf9d35b6a4e5cb6c11beae435c41e4482f3a30d2160803393a360843580612540575b61243b575b60208260018055604051908152f35b60643561252f57826020612710612457611b585b6044356127ee565b049260a460018060a01b0360055416916040519788938492637190caeb60e11b845233600485015260018060a01b03166024840152602435604484015260443560648401528860848401525af193841561073f5781946124fa575b50604084849360209660078486887ff71bf80fa0a269e5fdbe7113cc01a1ada492208f97e2857213258755d0cbbb5e985260068b52200155825191825286820152a23861242c565b9093506020813d602011612527575b816125166020938361273f565b81010312610cd457519260406124b2565b3d9150612509565b82602061271061245761177061244f565b506005546001600160a01b03161515612427565b60405162461bcd60e51b8152602060048201526015602482015274056616c756174696f6e206d757374206265203e203605c1b6044820152606490fd5b60405162461bcd60e51b815260206004820152600d60248201526c24b73b30b634b2103a37b5b2b760991b6044820152606490fd5b600435906001600160a01b0382168203610dbd57565b6040906003190112610dbd576004359060243590565b9060028210156125ff5752565b634e487b7160e01b600052602160045260246000fd5b6000546001600160a01b0316330361262957565b60405163118cdaa760e01b8152336004820152602490fd5b1561264857565b60405162461bcd60e51b815260206004820152600f60248201526e496e76616c6964206164647265737360881b6044820152606490fd5b1561268657565b60405162461bcd60e51b81526020600482015260126024820152710416d6f756e74206d757374206265203e20360741b6044820152606490fd5b610140810190811067ffffffffffffffff8211176126dd57604052565b634e487b7160e01b600052604160045260246000fd5b60e0810190811067ffffffffffffffff8211176126dd57604052565b67ffffffffffffffff81116126dd57604052565b6060810190811067ffffffffffffffff8211176126dd57604052565b90601f8019910116810190811067ffffffffffffffff8211176126dd57604052565b90816020910312610dbd57518015158103610dbd5790565b1561278057565b60405162461bcd60e51b8152602060048201526015602482015274151bdad95b881d1c985b9cd9995c8819985a5b1959605a1b6044820152606490fd5b60001981146127cc5760010190565b634e487b7160e01b600052601160045260246000fd5b60028210156125ff5752565b818102929181159184041417156127cc57565b811561280b570490565b634e487b7160e01b600052601260045260246000fd5b600260015414612832576002600155565b604051633ee5aeb560e01b8152600490fd5b1561284b57565b60405162461bcd60e51b8152602060048201526013602482015272506f736974696f6e206e6f742061637469766560681b6044820152606490fd5b1561288d57565b60405162461bcd60e51b81526020600482015260126024820152712737ba103837b9b4ba34b7b71037bbb732b960711b6044820152606490fd5b919082018092116127cc57565b156128db57565b60405162461bcd60e51b81526020600482015260146024820152731554d110c81d1c985b9cd9995c8819985a5b195960621b6044820152606490fd5b9190826040910312610dbd576020825192015190565b919082039182116127cc57565b919082519283825260005b848110612966575050826000602080949584010152601f8019910116010190565b602081830181015184830182015201612945565b1561298157565b60405162461bcd60e51b815260206004820152601760248201527f506f736974696f6e206e6f74206c6971756964617465640000000000000000006044820152606490fd5b156129cd57565b60405162461bcd60e51b81526020600482015260166024820152751499599d5b99081d1c985b9cd9995c8819985a5b195960521b6044820152606490fd5b90600091808352602090600682526040842090604051612a2a816126c0565b60018060a01b039081845416815281600185015416858201526002840154604082015260038401546060820152612aa7600860048601549560808401968752600581015460a0850152600681015460c0850152600781015460e085015201549161012060ff6101008301948181161515865260081c1691016127e2565b5115612b54578390600354169160246040518094819363d559515760e01b835260048301525afa928315610cd8578593612b24575b50508115612b1b575161271090818102918183041490151715612b0757612b04929350612801565b90565b634e487b7160e01b84526011600452602484fd5b50600019925050565b9080929350813d8311612b4d575b612b3c818361273f565b81010312610cd45751903880612adc565b503d612b32565b50505050565b60009080825260209060068252604083209060405191612b79836126c0565b60018060a01b039283825416815283600183015416858201526002820154604082015260038201546060820152600860048301549260808301938452600581015460a0840152600681015460c0840152600781015460e0840152015490612bf760ff61012061010084019382861615158552019360081c16836127e2565b5115612cb857516002811015612ca457612c2385926127109215600014612c9b57611b58905b516127ee565b0492600354169160246040518094819363d559515760e01b835260048301525afa928315610e38578493612c6b575b505081811115612c6657612b04925061292d565b505090565b9080929350813d8311612c94575b612c83818361273f565b81010312611f595751903880612c52565b503d612c79565b61177090612c1d565b634e487b7160e01b86526021600452602486fd5b50505050509056fea2646970667358221220974fef899b33d45bee4610b9d5f8681b3a0411de795c8f8ecfe89963361ca56164736f6c63430008140033","opcodes":"PUSH1 0x80 CALLVALUE PUSH3 0xF5 JUMPI PUSH1 0x1F PUSH3 0x2E1C CODESIZE DUP2 SWAP1 SUB SWAP2 DUP3 ADD PUSH1 0x1F NOT AND DUP4 ADD SWAP2 PUSH1 0x1 PUSH1 0x1 PUSH1 0x40 SHL SUB DUP4 GT DUP5 DUP5 LT OR PUSH3 0xFA JUMPI DUP1 DUP5 SWAP3 PUSH1 0x40 SWAP5 DUP6 MSTORE DUP4 CODECOPY DUP2 ADD SUB SLT PUSH3 0xF5 JUMPI PUSH3 0x5A PUSH1 0x20 PUSH3 0x52 DUP4 PUSH3 0x110 JUMP JUMPDEST SWAP3 ADD PUSH3 0x110 JUMP JUMPDEST CALLER ISZERO PUSH3 0xDC JUMPI PUSH1 0x0 DUP1 SLOAD CALLER PUSH1 0x1 PUSH1 0x1 PUSH1 0xA0 SHL SUB NOT DUP1 DUP4 AND DUP3 OR DUP5 SSTORE PUSH1 0x40 MLOAD SWAP6 SWAP1 SWAP5 PUSH1 0x1 PUSH1 0x1 PUSH1 0xA0 SHL SUB SWAP5 SWAP1 SWAP4 DUP6 SWAP4 SWAP2 SWAP1 DUP5 AND SWAP1 PUSH32 0x8BE0079C531659141344CD1FD0A4F28419497F9722A3DAAFE3B4186F6B6457E0 SWAP1 DUP1 LOG3 PUSH1 0x1 DUP1 SSTORE AND DUP4 PUSH1 0x2 SLOAD AND OR PUSH1 0x2 SSTORE AND SWAP1 PUSH1 0x3 SLOAD AND OR PUSH1 0x3 SSTORE PUSH1 0x1 PUSH1 0x7 SSTORE PUSH2 0x2CF6 SWAP1 DUP2 PUSH3 0x126 DUP3 CODECOPY RETURN JUMPDEST PUSH1 0x40 MLOAD PUSH4 0x1E4FBDF7 PUSH1 0xE0 SHL DUP2 MSTORE PUSH1 0x0 PUSH1 0x4 DUP3 ADD MSTORE PUSH1 0x24 SWAP1 REVERT JUMPDEST PUSH1 0x0 DUP1 REVERT JUMPDEST PUSH4 0x4E487B71 PUSH1 0xE0 SHL PUSH1 0x0 MSTORE PUSH1 0x41 PUSH1 0x4 MSTORE PUSH1 0x24 PUSH1 0x0 REVERT JUMPDEST MLOAD SWAP1 PUSH1 0x1 PUSH1 0x1 PUSH1 0xA0 SHL SUB DUP3 AND DUP3 SUB PUSH3 0xF5 JUMPI JUMP INVALID PUSH1 0x80 PUSH1 0x40 MSTORE PUSH1 0x4 CALLDATASIZE LT ISZERO PUSH2 0x12 JUMPI PUSH1 0x0 DUP1 REVERT JUMPDEST PUSH1 0x0 DUP1 CALLDATALOAD PUSH1 0xE0 SHR DUP1 PUSH4 0xBAE9EF9 EQ PUSH2 0x21F3 JUMPI DUP1 PUSH4 0x137C3F69 EQ PUSH2 0x21A7 JUMPI DUP1 PUSH4 0x16EF1729 EQ PUSH2 0x2178 JUMPI DUP1 PUSH4 0x17845C69 EQ PUSH2 0x2159 JUMPI DUP1 PUSH4 0x1E77CEDA EQ PUSH2 0x2130 JUMPI DUP1 PUSH4 0x2BE04392 EQ PUSH2 0x2107 JUMPI DUP1 PUSH4 0x3E413BEE EQ PUSH2 0x20DE JUMPI DUP1 PUSH4 0x4D111A05 EQ PUSH2 0x1C44 JUMPI DUP1 PUSH4 0x518E8DFC EQ PUSH2 0x1C27 JUMPI DUP1 PUSH4 0x5403BC4A EQ PUSH2 0x1792 JUMPI DUP1 PUSH4 0x6C320CB0 EQ PUSH2 0x1746 JUMPI DUP1 PUSH4 0x715018A6 EQ PUSH2 0x16EC JUMPI DUP1 PUSH4 0x761C5F0A EQ PUSH2 0x16CF JUMPI DUP1 PUSH4 0x767A7B05 EQ PUSH2 0x149A JUMPI DUP1 PUSH4 0x7B5210D8 EQ PUSH2 0x1473 JUMPI DUP1 PUSH4 0x837C2A61 EQ PUSH2 0xE7E JUMPI DUP1 PUSH4 0x899346C7 EQ PUSH2 0xE60 JUMPI DUP1 PUSH4 0x8A700B53 EQ PUSH2 0x9E9 JUMPI DUP1 PUSH4 0x8DA5CB5B EQ PUSH2 0x9C2 JUMPI DUP1 PUSH4 0x90A8AE9B EQ PUSH2 0x9A5 JUMPI DUP1 PUSH4 0x99FBAB88 EQ PUSH2 0x8FF JUMPI DUP1 PUSH4 0xA53AE06B EQ PUSH2 0x88E JUMPI DUP1 PUSH4 0xA7F8A5E2 EQ PUSH2 0x865 JUMPI DUP1 PUSH4 0xCDDDD4E5 EQ PUSH2 0x4FC JUMPI DUP1 PUSH4 0xD79873B9 EQ PUSH2 0x4DF JUMPI DUP1 PUSH4 0xE1F1C4A7 EQ PUSH2 0x4C2 JUMPI DUP1 PUSH4 0xE2DC3666 EQ PUSH2 0x476 JUMPI DUP1 PUSH4 0xEB02C301 EQ PUSH2 0x309 JUMPI DUP1 PUSH4 0xF2FDE38B EQ PUSH2 0x27E JUMPI DUP1 PUSH4 0xF416FC1C EQ PUSH2 0x255 JUMPI PUSH4 0xFEA58E83 EQ PUSH2 0x172 JUMPI PUSH1 0x0 DUP1 REVERT JUMPDEST CALLVALUE PUSH2 0x252 JUMPI PUSH1 0x20 CALLDATASIZE PUSH1 0x3 NOT ADD SLT PUSH2 0x252 JUMPI PUSH1 0x40 DUP2 PUSH1 0xE0 SWAP3 PUSH1 0xC0 DUP4 MLOAD PUSH2 0x196 DUP2 PUSH2 0x26F3 JUMP JUMPDEST DUP3 DUP2 MSTORE DUP3 PUSH1 0x20 DUP3 ADD MSTORE DUP3 DUP6 DUP3 ADD MSTORE DUP3 PUSH1 0x60 DUP3 ADD MSTORE DUP3 PUSH1 0x80 DUP3 ADD MSTORE DUP3 PUSH1 0xA0 DUP3 ADD MSTORE ADD MSTORE PUSH1 0x4 CALLDATALOAD DUP2 MSTORE PUSH1 0xA PUSH1 0x20 MSTORE KECCAK256 PUSH1 0x40 MLOAD PUSH2 0x1CF DUP2 PUSH2 0x26F3 JUMP JUMPDEST DUP2 SLOAD SWAP2 DUP3 DUP3 MSTORE PUSH1 0x1 DUP2 ADD SLOAD PUSH1 0x20 DUP4 ADD SWAP1 DUP2 MSTORE PUSH1 0x2 DUP3 ADD SLOAD PUSH1 0x40 DUP5 ADD SWAP1 DUP2 MSTORE PUSH1 0x3 DUP4 ADD SLOAD SWAP1 PUSH1 0x60 DUP6 ADD SWAP2 DUP3 MSTORE PUSH1 0x4 DUP5 ADD SLOAD SWAP3 PUSH1 0x80 DUP7 ADD SWAP4 DUP5 MSTORE PUSH1 0xC0 PUSH1 0xFF PUSH1 0x6 PUSH1 0x5 DUP9 ADD SLOAD SWAP8 PUSH1 0xA0 DUP11 ADD SWAP9 DUP10 MSTORE ADD SLOAD AND SWAP7 ADD SWAP6 ISZERO ISZERO DUP7 MSTORE PUSH1 0x40 MLOAD SWAP7 DUP8 MSTORE MLOAD PUSH1 0x20 DUP8 ADD MSTORE MLOAD PUSH1 0x40 DUP7 ADD MSTORE MLOAD PUSH1 0x60 DUP6 ADD MSTORE MLOAD PUSH1 0x80 DUP5 ADD MSTORE MLOAD PUSH1 0xA0 DUP4 ADD MSTORE MLOAD ISZERO ISZERO PUSH1 0xC0 DUP3 ADD MSTORE RETURN JUMPDEST DUP1 REVERT JUMPDEST POP CALLVALUE PUSH2 0x252 JUMPI DUP1 PUSH1 0x3 NOT CALLDATASIZE ADD SLT PUSH2 0x252 JUMPI PUSH1 0x3 SLOAD PUSH1 0x40 MLOAD PUSH1 0x1 PUSH1 0x1 PUSH1 0xA0 SHL SUB SWAP1 SWAP2 AND DUP2 MSTORE PUSH1 0x20 SWAP1 RETURN JUMPDEST POP CALLVALUE PUSH2 0x252 JUMPI PUSH1 0x20 CALLDATASIZE PUSH1 0x3 NOT ADD SLT PUSH2 0x252 JUMPI PUSH2 0x298 PUSH2 0x25C6 JUMP JUMPDEST PUSH2 0x2A0 PUSH2 0x2615 JUMP JUMPDEST PUSH1 0x1 PUSH1 0x1 PUSH1 0xA0 SHL SUB SWAP1 DUP2 AND SWAP1 DUP2 ISZERO PUSH2 0x2F0 JUMPI PUSH1 0x0 SLOAD DUP3 PUSH1 0x1 PUSH1 0x1 PUSH1 0x60 SHL SUB PUSH1 0xA0 SHL DUP3 AND OR PUSH1 0x0 SSTORE AND PUSH32 0x8BE0079C531659141344CD1FD0A4F28419497F9722A3DAAFE3B4186F6B6457E0 PUSH1 0x0 DUP1 LOG3 DUP1 RETURN JUMPDEST PUSH1 0x40 MLOAD PUSH4 0x1E4FBDF7 PUSH1 0xE0 SHL DUP2 MSTORE PUSH1 0x4 DUP2 ADD DUP5 SWAP1 MSTORE PUSH1 0x24 SWAP1 REVERT JUMPDEST POP CALLVALUE PUSH2 0x252 JUMPI PUSH1 0x20 CALLDATASIZE PUSH1 0x3 NOT ADD SLT PUSH2 0x252 JUMPI PUSH1 0x40 DUP2 PUSH2 0x140 SWAP3 PUSH2 0x120 DUP4 MLOAD PUSH2 0x330 DUP2 PUSH2 0x26C0 JUMP JUMPDEST DUP3 DUP2 MSTORE DUP3 PUSH1 0x20 DUP3 ADD MSTORE DUP3 DUP6 DUP3 ADD MSTORE DUP3 PUSH1 0x60 DUP3 ADD MSTORE DUP3 PUSH1 0x80 DUP3 ADD MSTORE DUP3 PUSH1 0xA0 DUP3 ADD MSTORE DUP3 PUSH1 0xC0 DUP3 ADD MSTORE DUP3 PUSH1 0xE0 DUP3 ADD MSTORE DUP3 PUSH2 0x100 DUP3 ADD MSTORE ADD MSTORE PUSH1 0x4 CALLDATALOAD DUP2 MSTORE PUSH1 0x6 PUSH1 0x20 MSTORE KECCAK256 PUSH2 0x3F5 PUSH1 0xFF PUSH1 0x8 PUSH1 0x40 MLOAD SWAP4 PUSH2 0x384 DUP6 PUSH2 0x26C0 JUMP JUMPDEST DUP1 SLOAD PUSH1 0x1 PUSH1 0x1 PUSH1 0xA0 SHL SUB SWAP1 DUP2 AND DUP7 MSTORE PUSH1 0x1 DUP3 ADD SLOAD AND PUSH1 0x20 DUP7 ADD MSTORE PUSH1 0x2 DUP2 ADD SLOAD PUSH1 0x40 DUP7 ADD MSTORE PUSH1 0x3 DUP2 ADD SLOAD PUSH1 0x60 DUP7 ADD MSTORE PUSH1 0x4 DUP2 ADD SLOAD PUSH1 0x80 DUP7 ADD MSTORE PUSH1 0x5 DUP2 ADD SLOAD PUSH1 0xA0 DUP7 ADD MSTORE PUSH1 0x6 DUP2 ADD SLOAD PUSH1 0xC0 DUP7 ADD MSTORE PUSH1 0x7 DUP2 ADD SLOAD PUSH1 0xE0 DUP7 ADD MSTORE ADD SLOAD DUP2 DUP2 AND ISZERO ISZERO PUSH2 0x100 DUP6 ADD MSTORE PUSH1 0x8 SHR AND PUSH2 0x120 DUP4 ADD PUSH2 0x27E2 JUMP JUMPDEST PUSH2 0x474 PUSH2 0x120 PUSH1 0x40 MLOAD SWAP3 PUSH1 0x1 DUP1 PUSH1 0xA0 SHL SUB DUP2 MLOAD AND DUP5 MSTORE PUSH1 0x1 DUP1 PUSH1 0xA0 SHL SUB PUSH1 0x20 DUP3 ADD MLOAD AND PUSH1 0x20 DUP6 ADD MSTORE PUSH1 0x40 DUP2 ADD MLOAD PUSH1 0x40 DUP6 ADD MSTORE PUSH1 0x60 DUP2 ADD MLOAD PUSH1 0x60 DUP6 ADD MSTORE PUSH1 0x80 DUP2 ADD MLOAD PUSH1 0x80 DUP6 ADD MSTORE PUSH1 0xA0 DUP2 ADD MLOAD PUSH1 0xA0 DUP6 ADD MSTORE PUSH1 0xC0 DUP2 ADD MLOAD PUSH1 0xC0 DUP6 ADD MSTORE PUSH1 0xE0 DUP2 ADD MLOAD PUSH1 0xE0 DUP6 ADD MSTORE PUSH2 0x100 DUP2 ADD MLOAD ISZERO ISZERO PUSH2 0x100 DUP6 ADD MSTORE ADD MLOAD PUSH2 0x120 DUP4 ADD SWAP1 PUSH2 0x25F2 JUMP JUMPDEST RETURN JUMPDEST POP CALLVALUE PUSH2 0x252 JUMPI PUSH1 0x20 CALLDATASIZE PUSH1 0x3 NOT ADD SLT PUSH2 0x252 JUMPI PUSH2 0x490 PUSH2 0x25C6 JUMP JUMPDEST PUSH2 0x498 PUSH2 0x2615 JUMP JUMPDEST PUSH1 0x1 PUSH1 0x1 PUSH1 0xA0 SHL SUB AND PUSH2 0x4AC DUP2 ISZERO ISZERO PUSH2 0x2641 JUMP JUMPDEST PUSH1 0x1 PUSH1 0x1 PUSH1 0x60 SHL SUB PUSH1 0xA0 SHL PUSH1 0x4 SLOAD AND OR PUSH1 0x4 SSTORE DUP1 RETURN JUMPDEST POP CALLVALUE PUSH2 0x252 JUMPI DUP1 PUSH1 0x3 NOT CALLDATASIZE ADD SLT PUSH2 0x252 JUMPI PUSH1 0x20 PUSH1 0x40 MLOAD PUSH2 0x2710 DUP2 MSTORE RETURN JUMPDEST POP CALLVALUE PUSH2 0x252 JUMPI DUP1 PUSH1 0x3 NOT CALLDATASIZE ADD SLT PUSH2 0x252 JUMPI PUSH1 0x20 PUSH1 0x40 MLOAD PUSH2 0x1770 DUP2 MSTORE RETURN JUMPDEST POP CALLVALUE PUSH2 0x252 JUMPI PUSH1 0x20 DUP1 PUSH1 0x3 NOT CALLDATASIZE ADD SLT PUSH2 0x74C JUMPI PUSH1 0x4 CALLDATALOAD SWAP1 PUSH2 0x51B PUSH2 0x2615 JUMP JUMPDEST PUSH2 0x523 PUSH2 0x2821 JUMP JUMPDEST DUP2 DUP4 MSTORE PUSH1 0x6 DUP2 MSTORE PUSH1 0x40 DUP4 KECCAK256 SWAP1 PUSH2 0x53F PUSH1 0xFF PUSH1 0x8 DUP5 ADD SLOAD AND PUSH2 0x2844 JUMP JUMPDEST DUP3 DUP5 MSTORE PUSH1 0x8 DUP2 MSTORE PUSH1 0xFF PUSH1 0x40 DUP6 KECCAK256 SLOAD AND PUSH2 0x828 JUMPI PUSH2 0x2CEC PUSH2 0x55E DUP5 PUSH2 0x2A0B JUMP JUMPDEST LT SWAP2 DUP5 DUP5 DUP7 MSTORE PUSH1 0xA DUP4 MSTORE PUSH1 0x40 DUP7 KECCAK256 SWAP1 PUSH1 0x6 DUP3 ADD SWAP2 PUSH1 0xFF DUP4 SLOAD AND SWAP1 DUP2 PUSH2 0x818 JUMPI JUMPDEST POP PUSH2 0x810 JUMPI JUMPDEST DUP5 SWAP1 DUP6 ISZERO PUSH2 0x808 JUMPI JUMPDEST POP ISZERO PUSH2 0x7B5 JUMPI DUP5 DUP7 MSTORE PUSH1 0x8 DUP4 MSTORE PUSH1 0x40 DUP7 KECCAK256 PUSH1 0xFF NOT SWAP1 PUSH1 0x1 DUP3 DUP3 SLOAD AND OR SWAP1 SSTORE TIMESTAMP PUSH1 0x6 DUP5 ADD SSTORE DUP2 SLOAD PUSH1 0xFF DUP2 AND PUSH2 0x7AA JUMPI JUMPDEST POP POP PUSH1 0x5 SLOAD PUSH1 0x1 PUSH1 0x1 PUSH1 0xA0 SHL SUB AND SWAP4 SWAP1 POP DUP4 ISZERO ISZERO DUP1 PUSH2 0x79D JUMPI JUMPDEST PUSH2 0x60E JUMPI JUMPDEST POP POP PUSH32 0x77493833E3B7F392BD715FFDC3ABD21434418E6889264880074C970E1B5E61C8 SWAP2 POP PUSH1 0x40 MLOAD TIMESTAMP DUP2 MSTORE LOG2 PUSH1 0x1 DUP1 SSTORE DUP1 RETURN JUMPDEST ISZERO PUSH2 0x750 JUMPI PUSH1 0x7 PUSH1 0x40 MLOAD PUSH2 0x621 DUP2 PUSH2 0x2723 JUMP JUMPDEST PUSH1 0x37 DUP2 MSTORE PUSH32 0x506F736974696F6E206C697175696461746564202D20636F6C6C61746572616C DUP5 DUP3 ADD MSTORE PUSH32 0x206865616C74682062656C6F77207468726573686F6C64000000000000000000 PUSH1 0x40 DUP3 ADD MSTORE SWAP2 JUMPDEST ADD SWAP3 DUP6 DUP5 SLOAD DUP3 EXTCODESIZE ISZERO PUSH2 0x74C JUMPI DUP2 SWAP1 PUSH1 0x40 MLOAD SWAP4 DUP5 SWAP2 PUSH4 0x67CC7CFF PUSH1 0xE0 SHL DUP4 MSTORE PUSH1 0x4 DUP4 ADD MSTORE PUSH1 0x40 PUSH1 0x24 DUP4 ADD MSTORE DUP2 DUP4 DUP2 PUSH2 0x6AC PUSH1 0x44 DUP3 ADD DUP11 PUSH2 0x293A JUMP JUMPDEST SUB SWAP3 GAS CALL SWAP2 DUP3 ISZERO PUSH2 0x73F JUMPI DUP7 SWAP3 PUSH2 0x724 JUMPI JUMPDEST POP POP PUSH32 0xD89109F5414F7B5415E9A3E20B055F6A8CC38B81F34D24EB5AE3512086356A8A PUSH2 0x71A PUSH32 0x77493833E3B7F392BD715FFDC3ABD21434418E6889264880074C970E1B5E61C8 SWAP6 SLOAD SWAP4 PUSH1 0x40 MLOAD SWAP2 DUP3 SWAP2 DUP8 DUP4 MSTORE DUP8 DUP4 ADD SWAP1 PUSH2 0x293A JUMP JUMPDEST SUB SWAP1 LOG3 CODESIZE DUP1 PUSH2 0x5DB JUMP JUMPDEST PUSH2 0x72F SWAP2 SWAP3 POP PUSH2 0x270F JUMP JUMPDEST PUSH2 0x73B JUMPI DUP4 DUP6 CODESIZE PUSH2 0x6BE JUMP JUMPDEST DUP5 DUP1 REVERT JUMPDEST POP PUSH1 0x40 MLOAD SWAP1 RETURNDATASIZE SWAP1 DUP3 RETURNDATACOPY RETURNDATASIZE SWAP1 REVERT JUMPDEST POP DUP1 REVERT JUMPDEST PUSH1 0x7 PUSH1 0x40 MLOAD PUSH2 0x75E DUP2 PUSH2 0x2723 JUMP JUMPDEST PUSH1 0x27 DUP2 MSTORE PUSH32 0x506F736974696F6E206C697175696461746564202D2072657061796D656E7420 DUP5 DUP3 ADD MSTORE PUSH7 0x191959985D5B1D PUSH1 0xCA SHL PUSH1 0x40 DUP3 ADD MSTORE SWAP2 PUSH2 0x672 JUMP JUMPDEST POP PUSH1 0x7 DUP3 ADD SLOAD ISZERO ISZERO PUSH2 0x5D6 JUMP JUMPDEST AND SWAP1 SSTORE CODESIZE DUP1 DUP1 PUSH2 0x5BC JUMP JUMPDEST PUSH1 0x40 MLOAD PUSH3 0x461BCD PUSH1 0xE5 SHL DUP2 MSTORE PUSH1 0x4 DUP2 ADD DUP5 SWAP1 MSTORE PUSH1 0x25 PUSH1 0x24 DUP3 ADD MSTORE PUSH32 0x506F736974696F6E206973206865616C74687920616E64206E6F742064656661 PUSH1 0x44 DUP3 ADD MSTORE PUSH5 0x1D5B1D1959 PUSH1 0xDA SHL PUSH1 0x64 DUP3 ADD MSTORE PUSH1 0x84 SWAP1 REVERT JUMPDEST SWAP1 POP CODESIZE PUSH2 0x58D JUMP JUMPDEST POP PUSH1 0x1 PUSH2 0x584 JUMP JUMPDEST PUSH1 0x3 SWAP2 POP PUSH1 0x5 ADD SLOAD LT ISZERO CODESIZE PUSH2 0x57E JUMP JUMPDEST PUSH1 0x64 SWAP1 PUSH1 0x40 MLOAD SWAP1 PUSH3 0x461BCD PUSH1 0xE5 SHL DUP3 MSTORE PUSH1 0x4 DUP3 ADD MSTORE PUSH1 0x16 PUSH1 0x24 DUP3 ADD MSTORE PUSH22 0x20B63932B0B23C9034B7103634B8BAB4B230BA34B7B7 PUSH1 0x51 SHL PUSH1 0x44 DUP3 ADD MSTORE REVERT JUMPDEST POP CALLVALUE PUSH2 0x252 JUMPI DUP1 PUSH1 0x3 NOT CALLDATASIZE ADD SLT PUSH2 0x252 JUMPI PUSH1 0x9 SLOAD PUSH1 0x40 MLOAD PUSH1 0x1 PUSH1 0x1 PUSH1 0xA0 SHL SUB SWAP1 SWAP2 AND DUP2 MSTORE PUSH1 0x20 SWAP1 RETURN JUMPDEST POP CALLVALUE PUSH2 0x252 JUMPI PUSH1 0x20 CALLDATASIZE PUSH1 0x3 NOT ADD SLT PUSH2 0x252 JUMPI PUSH1 0x40 PUSH1 0xE0 SWAP2 PUSH1 0x4 CALLDATALOAD DUP2 MSTORE PUSH1 0xA PUSH1 0x20 MSTORE KECCAK256 DUP1 SLOAD SWAP1 PUSH1 0x1 DUP2 ADD SLOAD SWAP1 PUSH1 0x2 DUP2 ADD SLOAD PUSH1 0x3 DUP3 ADD SLOAD PUSH1 0x4 DUP4 ADD SLOAD SWAP2 PUSH1 0xFF PUSH1 0x6 PUSH1 0x5 DUP7 ADD SLOAD SWAP6 ADD SLOAD AND SWAP5 PUSH1 0x40 MLOAD SWAP7 DUP8 MSTORE PUSH1 0x20 DUP8 ADD MSTORE PUSH1 0x40 DUP7 ADD MSTORE PUSH1 0x60 DUP6 ADD MSTORE PUSH1 0x80 DUP5 ADD MSTORE PUSH1 0xA0 DUP4 ADD MSTORE ISZERO ISZERO PUSH1 0xC0 DUP3 ADD MSTORE RETURN JUMPDEST POP CALLVALUE PUSH2 0x252 JUMPI PUSH1 0x20 CALLDATASIZE PUSH1 0x3 NOT ADD SLT PUSH2 0x252 JUMPI PUSH1 0x40 PUSH2 0x140 SWAP2 PUSH1 0x4 CALLDATALOAD DUP2 MSTORE PUSH1 0x6 PUSH1 0x20 MSTORE KECCAK256 PUSH2 0x474 PUSH1 0x1 DUP1 PUSH1 0xA0 SHL SUB SWAP2 DUP3 DUP2 SLOAD AND SWAP3 PUSH1 0x1 DUP3 ADD SLOAD AND SWAP1 PUSH1 0x2 DUP2 ADD SLOAD PUSH1 0x3 DUP3 ADD SLOAD PUSH1 0x4 DUP4 ADD SLOAD PUSH1 0x5 DUP5 ADD SLOAD SWAP2 PUSH1 0x6 DUP6 ADD SLOAD SWAP4 PUSH1 0x8 PUSH1 0x7 DUP8 ADD SLOAD SWAP7 ADD SLOAD SWAP7 PUSH1 0x40 MLOAD SWAP10 DUP11 MSTORE PUSH1 0x20 DUP11 ADD MSTORE PUSH1 0x40 DUP10 ADD MSTORE PUSH1 0x60 DUP9 ADD MSTORE PUSH1 0x80 DUP8 ADD MSTORE PUSH1 0xA0 DUP7 ADD MSTORE PUSH1 0xC0 DUP6 ADD MSTORE PUSH1 0xE0 DUP5 ADD MSTORE PUSH1 0xFF DUP2 AND ISZERO ISZERO PUSH2 0x100 DUP5 ADD MSTORE PUSH1 0xFF PUSH2 0x120 DUP5 ADD SWAP2 PUSH1 0x8 SHR AND PUSH2 0x25F2 JUMP JUMPDEST POP CALLVALUE PUSH2 0x252 JUMPI DUP1 PUSH1 0x3 NOT CALLDATASIZE ADD SLT PUSH2 0x252 JUMPI PUSH1 0x20 PUSH1 0x40 MLOAD PUSH2 0x2CEC DUP2 MSTORE RETURN JUMPDEST POP CALLVALUE PUSH2 0x252 JUMPI DUP1 PUSH1 0x3 NOT CALLDATASIZE ADD SLT PUSH2 0x252 JUMPI SLOAD PUSH1 0x40 MLOAD PUSH1 0x1 PUSH1 0x1 PUSH1 0xA0 SHL SUB SWAP1 SWAP2 AND DUP2 MSTORE PUSH1 0x20 SWAP1 RETURN JUMPDEST POP CALLVALUE PUSH2 0x252 JUMPI PUSH2 0x9F8 CALLDATASIZE PUSH2 0x25DC JUMP JUMPDEST PUSH2 0xA00 PUSH2 0x2821 JUMP JUMPDEST DUP2 DUP4 MSTORE DUP3 PUSH1 0x20 SWAP2 PUSH1 0x6 DUP4 MSTORE PUSH1 0x40 DUP3 KECCAK256 PUSH2 0xA1F PUSH1 0xFF PUSH1 0x8 DUP4 ADD SLOAD AND PUSH2 0x2844 JUMP JUMPDEST PUSH2 0xA33 PUSH1 0x1 DUP1 PUSH1 0xA0 SHL SUB DUP3 SLOAD AND CALLER EQ PUSH2 0x2886 JUMP JUMPDEST PUSH2 0xA3E DUP3 ISZERO ISZERO PUSH2 0x267F JUMP JUMPDEST PUSH1 0x2 SLOAD PUSH1 0x40 MLOAD PUSH4 0x23B872DD PUSH1 0xE0 SHL DUP2 MSTORE CALLER PUSH1 0x4 DUP3 ADD MSTORE ADDRESS PUSH1 0x24 DUP3 ADD MSTORE PUSH1 0x44 DUP2 ADD DUP5 SWAP1 MSTORE SWAP1 DUP6 SWAP1 DUP3 SWAP1 PUSH1 0x64 SWAP1 DUP3 SWAP1 DUP9 SWAP1 PUSH1 0x1 PUSH1 0x1 PUSH1 0xA0 SHL SUB AND GAS CALL DUP1 ISZERO PUSH2 0xE38 JUMPI PUSH2 0xA8F SWAP2 DUP6 SWAP2 PUSH2 0xE43 JUMPI JUMPDEST POP PUSH2 0x28D4 JUMP JUMPDEST PUSH1 0x2 SLOAD PUSH1 0x3 SLOAD PUSH1 0x40 MLOAD PUSH4 0x95EA7B3 PUSH1 0xE0 SHL DUP2 MSTORE PUSH1 0x1 PUSH1 0x1 PUSH1 0xA0 SHL SUB SWAP2 DUP3 AND PUSH1 0x4 DUP3 ADD MSTORE PUSH1 0x24 DUP2 ADD DUP6 SWAP1 MSTORE SWAP2 DUP7 SWAP2 DUP4 SWAP2 PUSH1 0x44 SWAP2 DUP4 SWAP2 DUP10 SWAP2 AND GAS CALL DUP1 ISZERO PUSH2 0xE38 JUMPI PUSH2 0xE0B JUMPI JUMPDEST POP DUP3 PUSH1 0x40 PUSH1 0x1 DUP1 PUSH1 0xA0 SHL SUB PUSH1 0x3 SLOAD AND PUSH1 0x44 DUP3 MLOAD DUP1 SWAP8 DUP2 SWAP4 PUSH4 0xD8AED145 PUSH1 0xE0 SHL DUP4 MSTORE DUP12 PUSH1 0x4 DUP5 ADD MSTORE DUP9 PUSH1 0x24 DUP5 ADD MSTORE GAS CALL SWAP2 DUP3 ISZERO PUSH2 0x73F JUMPI PUSH1 0x24 SWAP6 DUP3 SWAP6 DUP4 SWAP5 PUSH2 0xDD4 JUMPI JUMPDEST POP PUSH1 0x3 DUP3 ADD PUSH2 0xB25 DUP8 DUP3 SLOAD PUSH2 0x292D JUMP JUMPDEST SWAP1 SSTORE PUSH1 0x3 SLOAD PUSH1 0x40 MLOAD PUSH4 0xD5595157 PUSH1 0xE0 SHL DUP2 MSTORE PUSH1 0x4 DUP2 ADD DUP11 SWAP1 MSTORE SWAP8 DUP3 SWAP2 DUP10 SWAP2 SWAP1 DUP3 SWAP1 PUSH1 0x1 PUSH1 0x1 PUSH1 0xA0 SHL SUB AND GAS STATICCALL SWAP7 DUP8 ISZERO PUSH2 0xDC9 JUMPI DUP4 SWAP8 PUSH2 0xD90 JUMPI JUMPDEST POP PUSH1 0xA SWAP1 DUP9 DUP5 MSTORE MSTORE PUSH1 0x40 DUP3 KECCAK256 SWAP1 PUSH1 0x1 DUP4 SWAP3 PUSH1 0x6 DUP2 ADD SLOAD PUSH1 0xFF DUP2 AND PUSH2 0xCF0 JUMPI JUMPDEST POP POP PUSH1 0x5 SLOAD PUSH1 0x1 PUSH1 0x1 PUSH1 0xA0 SHL SUB AND DUP1 ISZERO ISZERO DUP1 PUSH2 0xCE3 JUMPI JUMPDEST PUSH2 0xBF2 JUMPI JUMPDEST POP POP POP POP POP PUSH32 0x91F28E20F26321CF8A71CADBEFE77CFE670EE70B71A621E3CE3FB1B57E19DFAA SWAP4 PUSH2 0xBE8 SWAP2 PUSH1 0x40 MLOAD SWAP5 DUP6 SWAP5 DUP6 SWAP1 SWAP5 SWAP4 SWAP3 PUSH1 0x60 SWAP3 PUSH1 0x80 DUP4 ADD SWAP7 DUP4 MSTORE PUSH1 0x20 DUP4 ADD MSTORE PUSH1 0x40 DUP3 ADD MSTORE ADD MSTORE JUMP JUMPDEST SUB SWAP1 LOG2 PUSH1 0x1 DUP1 SSTORE DUP1 RETURN JUMPDEST DUP8 PUSH2 0xC7B JUMPI JUMPDEST POP PUSH1 0x5 SLOAD PUSH1 0x7 SWAP3 SWAP1 SWAP3 ADD SLOAD SWAP2 PUSH1 0x1 PUSH1 0x1 PUSH1 0xA0 SHL SUB AND DUP1 EXTCODESIZE ISZERO PUSH2 0x73B JUMPI DUP5 SWAP3 DUP4 PUSH1 0x84 SWAP3 PUSH1 0x40 MLOAD SWAP7 DUP8 SWAP6 DUP7 SWAP5 PUSH4 0xF2F6818F PUSH1 0xE0 SHL DUP7 MSTORE PUSH1 0x4 DUP7 ADD MSTORE DUP12 PUSH1 0x24 DUP7 ADD MSTORE ISZERO ISZERO PUSH1 0x44 DUP6 ADD MSTORE PUSH1 0x64 DUP5 ADD MSTORE GAS CALL DUP1 ISZERO PUSH2 0xC70 JUMPI PUSH2 0xC58 JUMPI JUMPDEST DUP1 DUP1 DUP1 PUSH2 0xB9A JUMP JUMPDEST PUSH2 0xC61 SWAP1 PUSH2 0x270F JUMP JUMPDEST PUSH2 0xC6C JUMPI DUP6 CODESIZE PUSH2 0xC50 JUMP JUMPDEST DUP6 DUP1 REVERT JUMPDEST PUSH1 0x40 MLOAD RETURNDATASIZE DUP5 DUP3 RETURNDATACOPY RETURNDATASIZE SWAP1 REVERT JUMPDEST PUSH1 0x7 DUP4 ADD SLOAD DUP2 EXTCODESIZE ISZERO PUSH2 0xC6C JUMPI DUP6 SWAP2 PUSH1 0x44 DUP4 SWAP3 PUSH1 0x40 MLOAD SWAP5 DUP6 SWAP4 DUP5 SWAP3 PUSH4 0x6AD75E1F PUSH1 0xE0 SHL DUP5 MSTORE PUSH1 0x4 DUP5 ADD MSTORE DUP14 PUSH1 0x24 DUP5 ADD MSTORE GAS CALL SWAP1 DUP2 ISZERO PUSH2 0xCD8 JUMPI DUP6 SWAP2 PUSH2 0xCC0 JUMPI JUMPDEST POP PUSH2 0xBF8 JUMP JUMPDEST PUSH2 0xCC9 SWAP1 PUSH2 0x270F JUMP JUMPDEST PUSH2 0xCD4 JUMPI DUP4 CODESIZE PUSH2 0xCBA JUMP JUMPDEST DUP4 DUP1 REVERT JUMPDEST PUSH1 0x40 MLOAD RETURNDATASIZE DUP8 DUP3 RETURNDATACOPY RETURNDATASIZE SWAP1 REVERT JUMPDEST POP PUSH1 0x7 DUP4 ADD SLOAD ISZERO ISZERO PUSH2 0xB95 JUMP JUMPDEST PUSH1 0x3 DUP3 ADD SLOAD DUP1 TIMESTAMP GT PUSH2 0xD37 JUMPI JUMPDEST PUSH2 0xD1C SWAP1 PUSH1 0x4 DUP5 ADD PUSH2 0xD0F DUP2 SLOAD PUSH2 0x27BD JUMP JUMPDEST SWAP1 SSTORE PUSH1 0x2 DUP5 ADD SLOAD SWAP1 PUSH2 0x28C7 JUMP JUMPDEST PUSH1 0x3 DUP4 ADD SSTORE DUP10 PUSH2 0xB7E JUMPI PUSH1 0x6 SWAP1 PUSH1 0xFF NOT AND SWAP2 ADD SSTORE CODESIZE DUP1 PUSH2 0xB7E JUMP JUMPDEST SWAP6 SWAP4 SWAP5 POP SWAP1 SWAP2 POP PUSH3 0x15180 PUSH2 0xD4C DUP7 TIMESTAMP PUSH2 0x292D JUMP JUMPDEST DIV PUSH1 0x1 DUP2 ADD DUP2 GT PUSH2 0xD7C JUMPI SWAP1 PUSH2 0xD1C PUSH1 0x1 DUP14 SWAP8 SWAP7 SWAP6 SWAP5 SWAP4 ADD SWAP6 PUSH1 0x5 DUP5 ADD PUSH2 0xD73 DUP2 SLOAD PUSH2 0x27BD JUMP JUMPDEST SWAP1 SSTORE SWAP1 POP PUSH2 0xCFD JUMP JUMPDEST PUSH4 0x4E487B71 PUSH1 0xE0 SHL DUP13 MSTORE PUSH1 0x11 PUSH1 0x4 MSTORE PUSH1 0x24 DUP13 REVERT JUMPDEST DUP2 DUP1 SWAP9 POP DUP2 SWAP5 POP RETURNDATASIZE DUP4 GT PUSH2 0xDC2 JUMPI JUMPDEST PUSH2 0xDA9 DUP2 DUP4 PUSH2 0x273F JUMP JUMPDEST DUP2 ADD SUB SLT PUSH2 0xDBD JUMPI PUSH1 0xA DUP9 SWAP3 MLOAD SWAP7 SWAP1 PUSH2 0xB5F JUMP JUMPDEST PUSH1 0x0 DUP1 REVERT JUMPDEST POP RETURNDATASIZE PUSH2 0xD9F JUMP JUMPDEST PUSH1 0x40 MLOAD RETURNDATASIZE DUP6 DUP3 RETURNDATACOPY RETURNDATASIZE SWAP1 REVERT JUMPDEST SWAP1 SWAP4 POP PUSH2 0xDFA SWAP2 SWAP6 POP PUSH1 0x40 RETURNDATASIZE PUSH1 0x40 GT PUSH2 0xE04 JUMPI JUMPDEST PUSH2 0xDF2 DUP2 DUP4 PUSH2 0x273F JUMP JUMPDEST DUP2 ADD SWAP1 PUSH2 0x2917 JUMP JUMPDEST SWAP5 SWAP1 SWAP5 SWAP3 CODESIZE PUSH2 0xB15 JUMP JUMPDEST POP RETURNDATASIZE PUSH2 0xDE8 JUMP JUMPDEST PUSH2 0xE2A SWAP1 DUP6 RETURNDATASIZE DUP8 GT PUSH2 0xE31 JUMPI JUMPDEST PUSH2 0xE22 DUP2 DUP4 PUSH2 0x273F JUMP JUMPDEST DUP2 ADD SWAP1 PUSH2 0x2761 JUMP JUMPDEST POP CODESIZE PUSH2 0xAD3 JUMP JUMPDEST POP RETURNDATASIZE PUSH2 0xE18 JUMP JUMPDEST PUSH1 0x40 MLOAD RETURNDATASIZE DUP7 DUP3 RETURNDATACOPY RETURNDATASIZE SWAP1 REVERT JUMPDEST PUSH2 0xE5A SWAP2 POP DUP7 RETURNDATASIZE DUP9 GT PUSH2 0xE31 JUMPI PUSH2 0xE22 DUP2 DUP4 PUSH2 0x273F JUMP JUMPDEST CODESIZE PUSH2 0xA89 JUMP JUMPDEST POP CALLVALUE PUSH2 0x252 JUMPI DUP1 PUSH1 0x3 NOT CALLDATASIZE ADD SLT PUSH2 0x252 JUMPI PUSH1 0x20 PUSH1 0x7 SLOAD PUSH1 0x40 MLOAD SWAP1 DUP2 MSTORE RETURN JUMPDEST POP CALLVALUE PUSH2 0x252 JUMPI PUSH1 0x20 SWAP1 DUP2 PUSH1 0x3 NOT CALLDATASIZE ADD SLT PUSH2 0x252 JUMPI PUSH1 0x4 CALLDATALOAD PUSH2 0xE9D PUSH2 0x2615 JUMP JUMPDEST PUSH2 0xEA5 PUSH2 0x2821 JUMP JUMPDEST DUP1 DUP3 MSTORE PUSH1 0x6 DUP4 MSTORE PUSH1 0x40 DUP3 KECCAK256 PUSH1 0x8 DUP2 ADD SWAP4 PUSH1 0xFF DUP6 SLOAD PUSH2 0xEC4 DUP3 DUP3 AND PUSH2 0x2844 JUMP JUMPDEST DUP5 DUP7 MSTORE PUSH1 0x8 DUP4 MSTORE PUSH2 0xEDA DUP3 PUSH1 0x40 DUP9 KECCAK256 SLOAD AND PUSH2 0x297A JUMP JUMPDEST PUSH1 0x8 SHR AND PUSH1 0x2 DUP2 LT ISZERO PUSH2 0x145F JUMPI PUSH2 0x1425 JUMPI PUSH1 0x9 SLOAD PUSH1 0x1 PUSH1 0x1 PUSH1 0xA0 SHL SUB SWAP4 SWAP1 DUP5 AND DUP1 ISZERO PUSH2 0x13EB JUMPI PUSH1 0x1 DUP5 ADD DUP1 SLOAD PUSH1 0x2 DUP7 ADD DUP1 SLOAD PUSH1 0x40 MLOAD PUSH4 0x95EA7B3 PUSH1 0xE0 SHL DUP1 DUP3 MSTORE PUSH1 0x1 PUSH1 0x1 PUSH1 0xA0 SHL SUB SWAP7 SWAP1 SWAP7 AND PUSH1 0x4 DUP3 ADD MSTORE PUSH1 0x24 DUP2 ADD SWAP2 SWAP1 SWAP2 MSTORE SWAP9 SWAP10 SWAP1 SWAP3 SWAP1 SWAP2 DUP7 SWAP1 DUP11 SWAP1 PUSH1 0x44 SWAP1 DUP3 SWAP1 DUP15 SWAP1 DUP14 AND GAS CALL SWAP1 DUP2 ISZERO PUSH2 0x113E JUMPI PUSH2 0xF98 SWAP10 DUP8 SWAP3 PUSH2 0x13CE JUMPI JUMPDEST POP PUSH1 0x9 SLOAD SWAP1 SLOAD DUP5 SLOAD PUSH1 0x40 MLOAD PUSH4 0xC34F5ED PUSH1 0xE1 SHL DUP2 MSTORE SWAP2 DUP12 AND PUSH1 0x1 PUSH1 0x1 PUSH1 0xA0 SHL SUB AND PUSH1 0x4 DUP4 ADD MSTORE PUSH1 0x24 DUP3 ADD MSTORE SWAP10 DUP11 SWAP2 DUP11 AND SWAP1 DUP3 SWAP1 DUP14 SWAP1 DUP3 SWAP1 PUSH1 0x44 DUP3 ADD SWAP1 JUMP JUMPDEST SUB SWAP3 GAS CALL SWAP8 DUP9 ISZERO PUSH2 0x13C3 JUMPI DUP10 SWAP9 PUSH2 0x1394 JUMPI JUMPDEST POP DUP8 ISZERO PUSH2 0x135B JUMPI DUP7 PUSH1 0x3 SLOAD AND SWAP3 PUSH1 0x40 MLOAD PUSH4 0xD5595157 PUSH1 0xE0 SHL DUP2 MSTORE DUP6 PUSH1 0x4 DUP3 ADD MSTORE DUP7 DUP2 PUSH1 0x24 DUP2 DUP9 GAS STATICCALL SWAP5 DUP6 ISZERO PUSH2 0x1350 JUMPI DUP8 SWAP2 DUP13 SWAP7 PUSH2 0x131F JUMPI JUMPDEST POP DUP12 SWAP6 DUP1 PUSH2 0x1243 JUMPI JUMPDEST POP POP POP POP DUP3 DUP9 GT ISZERO PUSH2 0x120F JUMPI PUSH2 0x1001 DUP4 DUP10 PUSH2 0x292D JUMP JUMPDEST SWAP6 PUSH2 0x3E8 DUP1 DUP9 MUL SWAP1 DUP9 DUP3 DIV EQ DUP9 ISZERO OR ISZERO PUSH2 0x11FB JUMPI PUSH2 0x2710 PUSH2 0x1024 SWAP2 DIV DUP1 SWAP9 PUSH2 0x292D JUMP JUMPDEST SWAP8 DUP8 PUSH2 0x1149 JUMPI JUMPDEST DUP9 PUSH2 0x1099 JUMPI JUMPDEST POP POP SWAP2 PUSH1 0x60 SWAP9 DUP7 SWAP3 PUSH32 0x1B5CD914BF77EE50DE90263F47D89967BBCE85A4EB078D958BFEE08DC0D0CDE7 SWAP5 JUMPDEST DUP1 SLOAD PUSH1 0xFF NOT AND SWAP1 SSTORE SSTORE PUSH1 0x40 DUP1 MLOAD DUP10 DUP2 MSTORE PUSH1 0x20 DUP2 ADD SWAP3 SWAP1 SWAP3 MSTORE DUP2 ADD SWAP2 SWAP1 SWAP2 MSTORE PUSH1 0x60 DUP2 ADD DUP7 SWAP1 MSTORE PUSH1 0x80 SWAP1 LOG2 PUSH1 0x1 DUP1 SSTORE PUSH1 0x40 MLOAD SWAP4 DUP5 MSTORE DUP4 ADD MSTORE PUSH1 0x40 DUP3 ADD MSTORE RETURN JUMPDEST PUSH1 0x2 SLOAD SWAP2 SLOAD PUSH1 0x40 MLOAD PUSH4 0xA9059CBB PUSH1 0xE0 SHL DUP2 MSTORE SWAP1 DUP3 AND PUSH1 0x1 PUSH1 0x1 PUSH1 0xA0 SHL SUB AND PUSH1 0x4 DUP3 ADD MSTORE PUSH1 0x24 DUP2 ADD DUP11 SWAP1 MSTORE SWAP2 DUP8 SWAP2 DUP4 SWAP2 AND DUP2 DUP14 DUP2 PUSH1 0x44 DUP2 ADD SUB SWAP3 GAS CALL SWAP1 DUP2 ISZERO PUSH2 0x113E JUMPI SWAP3 PUSH32 0x1B5CD914BF77EE50DE90263F47D89967BBCE85A4EB078D958BFEE08DC0D0CDE7 SWAP5 SWAP3 PUSH2 0x1115 DUP13 SWAP4 DUP11 SWAP7 PUSH1 0x60 SWAP15 SWAP2 PUSH2 0x1121 JUMPI JUMPDEST POP PUSH2 0x29C6 JUMP JUMPDEST SWAP3 SWAP5 POP SWAP3 DUP2 SWAP11 POP PUSH2 0x1031 JUMP JUMPDEST PUSH2 0x1138 SWAP2 POP DUP11 RETURNDATASIZE DUP13 GT PUSH2 0xE31 JUMPI PUSH2 0xE22 DUP2 DUP4 PUSH2 0x273F JUMP JUMPDEST CODESIZE PUSH2 0x110F JUMP JUMPDEST PUSH1 0x40 MLOAD RETURNDATASIZE DUP13 DUP3 RETURNDATACOPY RETURNDATASIZE SWAP1 REVERT JUMPDEST PUSH1 0x2 SLOAD DUP12 SLOAD PUSH1 0x40 MLOAD PUSH4 0xA9059CBB PUSH1 0xE0 SHL DUP2 MSTORE SWAP1 DUP4 AND PUSH1 0x1 PUSH1 0x1 PUSH1 0xA0 SHL SUB AND PUSH1 0x4 DUP3 ADD MSTORE PUSH1 0x24 DUP2 ADD DUP11 SWAP1 MSTORE SWAP1 DUP9 SWAP1 DUP3 SWAP1 DUP5 AND DUP2 DUP16 DUP2 PUSH1 0x44 DUP2 ADD SUB SWAP3 GAS CALL SWAP1 DUP2 ISZERO PUSH2 0x11F0 JUMPI DUP13 SWAP2 PUSH2 0x11D3 JUMPI JUMPDEST POP PUSH2 0x102B JUMPI PUSH1 0x40 MLOAD PUSH3 0x461BCD PUSH1 0xE5 SHL DUP2 MSTORE PUSH1 0x4 DUP2 ADD DUP9 SWAP1 MSTORE PUSH1 0x13 PUSH1 0x24 DUP3 ADD MSTORE PUSH19 0x119959481D1C985B9CD9995C8819985A5B1959 PUSH1 0x6A SHL PUSH1 0x44 DUP3 ADD MSTORE PUSH1 0x64 SWAP1 REVERT JUMPDEST PUSH2 0x11EA SWAP2 POP DUP9 RETURNDATASIZE DUP11 GT PUSH2 0xE31 JUMPI PUSH2 0xE22 DUP2 DUP4 PUSH2 0x273F JUMP JUMPDEST CODESIZE PUSH2 0x1193 JUMP JUMPDEST PUSH1 0x40 MLOAD RETURNDATASIZE DUP15 DUP3 RETURNDATACOPY RETURNDATASIZE SWAP1 REVERT JUMPDEST PUSH4 0x4E487B71 PUSH1 0xE0 SHL DUP12 MSTORE PUSH1 0x11 PUSH1 0x4 MSTORE PUSH1 0x24 DUP12 REVERT JUMPDEST SWAP6 POP DUP8 SWAP5 POP PUSH32 0x1B5CD914BF77EE50DE90263F47D89967BBCE85A4EB078D958BFEE08DC0D0CDE7 SWAP2 PUSH1 0x60 SWAP9 SWAP6 DUP7 SWAP3 DUP2 SWAP9 PUSH2 0x105C JUMP JUMPDEST PUSH2 0x128C SWAP4 SWAP5 SWAP7 POP DUP1 DUP13 GT PUSH1 0x0 EQ PUSH2 0x1315 JUMPI SWAP4 DUP5 SWAP2 JUMPDEST PUSH1 0x2 SLOAD PUSH1 0x40 MLOAD SWAP3 DUP4 MSTORE PUSH1 0x1 PUSH1 0x1 PUSH1 0xA0 SHL SUB SWAP1 SWAP2 AND PUSH1 0x4 DUP4 ADD MSTORE PUSH1 0x24 DUP3 ADD SWAP3 SWAP1 SWAP3 MSTORE SWAP3 DUP4 SWAP2 DUP12 AND SWAP1 DUP3 SWAP1 DUP15 SWAP1 DUP3 SWAP1 PUSH1 0x44 DUP3 ADD SWAP1 JUMP JUMPDEST SUB SWAP3 GAS CALL DUP1 ISZERO PUSH2 0x113E JUMPI PUSH2 0x12F8 JUMPI JUMPDEST POP DUP9 PUSH1 0x40 DUP9 PUSH1 0x3 SLOAD AND PUSH1 0x44 DUP3 MLOAD DUP1 SWAP5 DUP2 SWAP4 PUSH4 0xD8AED145 PUSH1 0xE0 SHL DUP4 MSTORE DUP11 PUSH1 0x4 DUP5 ADD MSTORE DUP8 PUSH1 0x24 DUP5 ADD MSTORE GAS CALL DUP1 ISZERO PUSH2 0x113E JUMPI PUSH2 0x12DA JUMPI JUMPDEST POP SWAP2 CODESIZE DUP6 DUP2 DUP1 PUSH2 0xFEB JUMP JUMPDEST PUSH2 0x12F2 SWAP1 PUSH1 0x40 RETURNDATASIZE PUSH1 0x40 GT PUSH2 0xE04 JUMPI PUSH2 0xDF2 DUP2 DUP4 PUSH2 0x273F JUMP JUMPDEST POP PUSH2 0x12CF JUMP JUMPDEST PUSH2 0x130E SWAP1 DUP7 RETURNDATASIZE DUP9 GT PUSH2 0xE31 JUMPI PUSH2 0xE22 DUP2 DUP4 PUSH2 0x273F JUMP JUMPDEST POP CODESIZE PUSH2 0x129B JUMP JUMPDEST POP DUP11 SWAP4 DUP5 SWAP2 PUSH2 0x1258 JUMP JUMPDEST DUP3 DUP2 SWAP4 SWAP3 SWAP8 POP RETURNDATASIZE DUP4 GT PUSH2 0x1349 JUMPI JUMPDEST PUSH2 0x1337 DUP2 DUP4 PUSH2 0x273F JUMP JUMPDEST DUP2 ADD SUB SLT PUSH2 0xDBD JUMPI DUP7 SWAP1 MLOAD SWAP5 CODESIZE PUSH2 0xFE2 JUMP JUMPDEST POP RETURNDATASIZE PUSH2 0x132D JUMP JUMPDEST PUSH1 0x40 MLOAD RETURNDATASIZE DUP14 DUP3 RETURNDATACOPY RETURNDATASIZE SWAP1 REVERT JUMPDEST PUSH1 0x40 MLOAD PUSH3 0x461BCD PUSH1 0xE5 SHL DUP2 MSTORE PUSH1 0x4 DUP2 ADD DUP7 SWAP1 MSTORE PUSH1 0x11 PUSH1 0x24 DUP3 ADD MSTORE PUSH17 0x139BC81E5A595B19081C9958D95A5D9959 PUSH1 0x7A SHL PUSH1 0x44 DUP3 ADD MSTORE PUSH1 0x64 SWAP1 REVERT JUMPDEST SWAP1 SWAP8 POP DUP5 DUP2 DUP2 RETURNDATASIZE DUP4 GT PUSH2 0x13BC JUMPI JUMPDEST PUSH2 0x13AC DUP2 DUP4 PUSH2 0x273F JUMP JUMPDEST DUP2 ADD SUB SLT PUSH2 0xDBD JUMPI MLOAD SWAP7 CODESIZE PUSH2 0xFAA JUMP JUMPDEST POP RETURNDATASIZE PUSH2 0x13A2 JUMP JUMPDEST PUSH1 0x40 MLOAD RETURNDATASIZE DUP12 DUP3 RETURNDATACOPY RETURNDATASIZE SWAP1 REVERT JUMPDEST PUSH2 0x13E4 SWAP1 DUP4 RETURNDATASIZE DUP6 GT PUSH2 0xE31 JUMPI PUSH2 0xE22 DUP2 DUP4 PUSH2 0x273F JUMP JUMPDEST POP CODESIZE PUSH2 0xF5A JUMP JUMPDEST PUSH1 0x40 MLOAD PUSH3 0x461BCD PUSH1 0xE5 SHL DUP2 MSTORE PUSH1 0x4 DUP2 ADD DUP5 SWAP1 MSTORE PUSH1 0x12 PUSH1 0x24 DUP3 ADD MSTORE PUSH18 0x165A595B1915985D5B1D081B9BDD081CD95D PUSH1 0x72 SHL PUSH1 0x44 DUP3 ADD MSTORE PUSH1 0x64 SWAP1 REVERT JUMPDEST PUSH1 0x64 SWAP1 PUSH1 0x40 MLOAD SWAP1 PUSH3 0x461BCD PUSH1 0xE5 SHL DUP3 MSTORE PUSH1 0x4 DUP3 ADD MSTORE PUSH1 0x13 PUSH1 0x24 DUP3 ADD MSTORE PUSH19 0x4F6E6C7920666F722052574120746F6B656E73 PUSH1 0x68 SHL PUSH1 0x44 DUP3 ADD MSTORE REVERT JUMPDEST PUSH4 0x4E487B71 PUSH1 0xE0 SHL DUP6 MSTORE PUSH1 0x21 PUSH1 0x4 MSTORE PUSH1 0x24 DUP6 REVERT JUMPDEST POP CALLVALUE PUSH2 0x252 JUMPI PUSH1 0x20 CALLDATASIZE PUSH1 0x3 NOT ADD SLT PUSH2 0x252 JUMPI PUSH1 0x20 PUSH2 0x1492 PUSH1 0x4 CALLDATALOAD PUSH2 0x2B5A JUMP JUMPDEST PUSH1 0x40 MLOAD SWAP1 DUP2 MSTORE RETURN JUMPDEST POP CALLVALUE PUSH2 0x252 JUMPI PUSH2 0x14A9 CALLDATASIZE PUSH2 0x25DC JUMP JUMPDEST SWAP1 PUSH2 0x14B2 PUSH2 0x2821 JUMP JUMPDEST DUP1 DUP4 MSTORE PUSH1 0x20 PUSH1 0x6 DUP2 MSTORE PUSH1 0x40 DUP5 KECCAK256 PUSH1 0x8 DUP2 ADD SWAP1 DUP2 SLOAD PUSH2 0x14D2 PUSH1 0xFF DUP3 AND PUSH2 0x2844 JUMP JUMPDEST DUP2 SLOAD PUSH1 0x1 PUSH1 0x1 PUSH1 0xA0 SHL SUB SWAP4 SWAP1 PUSH2 0x14EB SWAP1 DUP6 AND CALLER EQ PUSH2 0x2886 JUMP JUMPDEST PUSH2 0x14F6 DUP8 ISZERO ISZERO PUSH2 0x267F JUMP JUMPDEST PUSH1 0x2 DUP4 ADD DUP1 SLOAD DUP1 DUP10 GT PUSH2 0x168A JUMPI PUSH1 0x24 DUP8 DUP8 PUSH1 0x3 SLOAD AND PUSH1 0x40 MLOAD SWAP3 DUP4 DUP1 SWAP3 PUSH4 0xD5595157 PUSH1 0xE0 SHL DUP3 MSTORE DUP14 PUSH1 0x4 DUP4 ADD MSTORE GAS STATICCALL SWAP1 DUP2 ISZERO PUSH2 0x1350 JUMPI DUP12 SWAP2 PUSH2 0x165D JUMPI JUMPDEST POP PUSH2 0x1618 JUMPI SWAP1 PUSH2 0x1547 DUP10 PUSH1 0x1 SWAP7 SWAP6 SWAP5 SWAP4 PUSH2 0x292D JUMP JUMPDEST DUP1 SWAP2 SSTORE ISZERO PUSH2 0x15E5 JUMPI JUMPDEST POP POP ADD SLOAD PUSH1 0x40 MLOAD PUSH4 0xA9059CBB PUSH1 0xE0 SHL DUP2 MSTORE CALLER PUSH1 0x4 DUP3 ADD MSTORE PUSH1 0x24 DUP2 ADD DUP7 SWAP1 MSTORE SWAP3 SWAP2 DUP3 SWAP2 DUP5 SWAP2 PUSH1 0x44 SWAP2 DUP4 SWAP2 DUP11 SWAP2 AND GAS CALL SWAP2 DUP3 ISZERO PUSH2 0xCD8 JUMPI PUSH32 0x7C5E5CB62E5ED3CAF3764E4B0AFEDFEDEF533E27809D43367799787AD2ABCD41 SWAP3 PUSH2 0x15B8 SWAP2 DUP8 SWAP2 PUSH2 0x15C8 JUMPI JUMPDEST POP PUSH2 0x2779 JUMP JUMPDEST PUSH1 0x40 MLOAD SWAP4 DUP5 MSTORE CALLER SWAP4 LOG3 PUSH1 0x1 DUP1 SSTORE DUP1 RETURN JUMPDEST PUSH2 0x15DF SWAP2 POP DUP4 RETURNDATASIZE DUP6 GT PUSH2 0xE31 JUMPI PUSH2 0xE22 DUP2 DUP4 PUSH2 0x273F JUMP JUMPDEST CODESIZE PUSH2 0x15B2 JUMP JUMPDEST PUSH1 0xFF NOT DUP1 SWAP3 AND SWAP1 SSTORE DUP6 DUP9 MSTORE PUSH1 0xA DUP6 MSTORE PUSH1 0x6 PUSH1 0x40 DUP10 KECCAK256 ADD SWAP1 DUP2 SLOAD PUSH1 0xFF DUP2 AND PUSH2 0x160D JUMPI JUMPDEST POP PUSH2 0x1550 JUMP JUMPDEST AND SWAP1 SSTORE CODESIZE DUP1 DUP1 PUSH2 0x1607 JUMP JUMPDEST PUSH1 0x40 MLOAD PUSH3 0x461BCD PUSH1 0xE5 SHL DUP2 MSTORE PUSH1 0x4 DUP2 ADD DUP9 SWAP1 MSTORE PUSH1 0x1F PUSH1 0x24 DUP3 ADD MSTORE PUSH32 0x4F75747374616E64696E672064656274206D7573742062652072657061696400 PUSH1 0x44 DUP3 ADD MSTORE PUSH1 0x64 SWAP1 REVERT JUMPDEST SWAP1 POP DUP8 DUP2 DUP2 RETURNDATASIZE DUP4 GT PUSH2 0x1683 JUMPI JUMPDEST PUSH2 0x1674 DUP2 DUP4 PUSH2 0x273F JUMP JUMPDEST DUP2 ADD SUB SLT PUSH2 0xDBD JUMPI MLOAD CODESIZE PUSH2 0x1532 JUMP JUMPDEST POP RETURNDATASIZE PUSH2 0x166A JUMP JUMPDEST PUSH1 0x40 MLOAD PUSH3 0x461BCD PUSH1 0xE5 SHL DUP2 MSTORE PUSH1 0x4 DUP2 ADD DUP9 SWAP1 MSTORE PUSH1 0x17 PUSH1 0x24 DUP3 ADD MSTORE PUSH32 0x496E73756666696369656E7420636F6C6C61746572616C000000000000000000 PUSH1 0x44 DUP3 ADD MSTORE PUSH1 0x64 SWAP1 REVERT JUMPDEST POP CALLVALUE PUSH2 0x252 JUMPI DUP1 PUSH1 0x3 NOT CALLDATASIZE ADD SLT PUSH2 0x252 JUMPI PUSH1 0x20 PUSH1 0x40 MLOAD PUSH2 0x1B58 DUP2 MSTORE RETURN JUMPDEST POP CALLVALUE PUSH2 0x252 JUMPI DUP1 PUSH1 0x3 NOT CALLDATASIZE ADD SLT PUSH2 0x252 JUMPI PUSH2 0x1705 PUSH2 0x2615 JUMP JUMPDEST PUSH1 0x0 DUP1 SLOAD PUSH1 0x1 PUSH1 0x1 PUSH1 0xA0 SHL SUB NOT DUP2 AND DUP3 SSTORE PUSH1 0x1 PUSH1 0x1 PUSH1 0xA0 SHL SUB AND PUSH32 0x8BE0079C531659141344CD1FD0A4F28419497F9722A3DAAFE3B4186F6B6457E0 DUP3 DUP1 LOG3 DUP1 RETURN JUMPDEST POP CALLVALUE PUSH2 0x252 JUMPI PUSH1 0x20 CALLDATASIZE PUSH1 0x3 NOT ADD SLT PUSH2 0x252 JUMPI PUSH2 0x1760 PUSH2 0x25C6 JUMP JUMPDEST PUSH2 0x1768 PUSH2 0x2615 JUMP JUMPDEST PUSH1 0x1 PUSH1 0x1 PUSH1 0xA0 SHL SUB AND PUSH2 0x177C DUP2 ISZERO ISZERO PUSH2 0x2641 JUMP JUMPDEST PUSH1 0x1 PUSH1 0x1 PUSH1 0x60 SHL SUB PUSH1 0xA0 SHL PUSH1 0x5 SLOAD AND OR PUSH1 0x5 SSTORE DUP1 RETURN JUMPDEST POP CALLVALUE PUSH2 0x252 JUMPI PUSH2 0x17A1 CALLDATASIZE PUSH2 0x25DC JUMP JUMPDEST PUSH2 0x17A9 PUSH2 0x2615 JUMP JUMPDEST PUSH2 0x17B1 PUSH2 0x2821 JUMP JUMPDEST DUP2 DUP4 MSTORE PUSH1 0x6 PUSH1 0x20 MSTORE PUSH1 0x40 DUP4 KECCAK256 SWAP1 PUSH1 0xFF PUSH1 0x8 DUP4 ADD SLOAD PUSH2 0x17D0 DUP3 DUP3 AND PUSH2 0x2844 JUMP JUMPDEST DUP5 DUP7 MSTORE PUSH1 0x8 PUSH1 0x20 MSTORE PUSH2 0x17E7 DUP3 PUSH1 0x40 DUP9 KECCAK256 SLOAD AND PUSH2 0x297A JUMP JUMPDEST PUSH1 0x8 SHR AND PUSH1 0x2 DUP2 LT ISZERO PUSH2 0x145F JUMPI PUSH1 0x1 SUB PUSH2 0x1BE2 JUMPI DUP1 ISZERO PUSH2 0x1B9D JUMPI PUSH1 0x2 SLOAD PUSH1 0x40 MLOAD PUSH4 0x23B872DD PUSH1 0xE0 SHL DUP2 MSTORE CALLER PUSH1 0x4 DUP3 ADD MSTORE ADDRESS PUSH1 0x24 DUP3 ADD MSTORE PUSH1 0x44 DUP2 ADD DUP4 SWAP1 MSTORE SWAP1 PUSH1 0x20 SWAP1 DUP3 SWAP1 PUSH1 0x64 SWAP1 DUP3 SWAP1 DUP10 SWAP1 PUSH1 0x1 PUSH1 0x1 PUSH1 0xA0 SHL SUB AND GAS CALL DUP1 ISZERO PUSH2 0xCD8 JUMPI PUSH2 0x1852 SWAP2 DUP7 SWAP2 PUSH2 0x1B84 JUMPI POP PUSH2 0x28D4 JUMP JUMPDEST PUSH1 0x1 DUP3 ADD SLOAD PUSH1 0x2 DUP4 ADD SLOAD PUSH1 0x40 MLOAD PUSH4 0xA9059CBB PUSH1 0xE0 SHL DUP2 MSTORE CALLER PUSH1 0x4 DUP3 ADD MSTORE PUSH1 0x24 DUP2 ADD SWAP2 SWAP1 SWAP2 MSTORE SWAP1 PUSH1 0x20 SWAP1 DUP3 SWAP1 PUSH1 0x44 SWAP1 DUP3 SWAP1 DUP10 SWAP1 PUSH1 0x1 PUSH1 0x1 PUSH1 0xA0 SHL SUB AND GAS CALL DUP1 ISZERO PUSH2 0xCD8 JUMPI PUSH2 0x18A5 SWAP2 DUP7 SWAP2 PUSH2 0x1B6B JUMPI POP PUSH2 0x2779 JUMP JUMPDEST PUSH1 0x3 SLOAD PUSH1 0x40 MLOAD PUSH4 0xD5595157 PUSH1 0xE0 SHL DUP2 MSTORE PUSH1 0x4 DUP2 ADD DUP6 SWAP1 MSTORE SWAP4 SWAP1 PUSH1 0x1 PUSH1 0x1 PUSH1 0xA0 SHL SUB AND PUSH1 0x20 DUP6 PUSH1 0x24 DUP2 DUP5 GAS STATICCALL SWAP5 DUP6 ISZERO PUSH2 0x1AFF JUMPI DUP7 SWAP6 PUSH2 0x1B37 JUMPI JUMPDEST POP DUP6 SWAP5 DUP1 PUSH2 0x1A37 JUMPI JUMPDEST POP POP DUP4 DUP3 GT ISZERO PUSH2 0x1A27 JUMPI PUSH2 0x18FB DUP5 DUP4 PUSH2 0x292D JUMP JUMPDEST SWAP4 PUSH2 0x3E8 DUP1 DUP7 MUL SWAP1 DUP7 DUP3 DIV EQ DUP7 ISZERO OR ISZERO PUSH2 0x1A13 JUMPI PUSH2 0x2710 PUSH2 0x191E SWAP2 DIV DUP1 SWAP7 PUSH2 0x292D JUMP JUMPDEST SWAP4 DUP5 PUSH2 0x198D JUMPI JUMPDEST SWAP6 DUP1 PUSH1 0x2 PUSH1 0x40 SWAP9 JUMPDEST PUSH1 0xFF NOT PUSH1 0x8 DUP3 ADD SLOAD AND PUSH1 0x8 DUP3 ADD SSTORE ADD SSTORE DUP7 MLOAD SWAP4 DUP5 MSTORE PUSH1 0x20 DUP5 ADD MSTORE DUP6 DUP4 ADD MSTORE DUP4 PUSH1 0x60 DUP4 ADD MSTORE DUP3 PUSH1 0x80 DUP4 ADD MSTORE PUSH32 0xE8809F589FB6A4A715F089D80B78E1C37443064C63CAD260285284847C9FC4A3 PUSH1 0xA0 CALLER SWAP4 LOG3 PUSH1 0x1 DUP1 SSTORE DUP3 MLOAD SWAP2 DUP3 MSTORE PUSH1 0x20 DUP3 ADD MSTORE RETURN JUMPDEST PUSH1 0x2 SLOAD DUP2 SLOAD PUSH1 0x40 MLOAD PUSH4 0xA9059CBB PUSH1 0xE0 SHL DUP2 MSTORE PUSH1 0x1 PUSH1 0x1 PUSH1 0xA0 SHL SUB SWAP2 DUP3 AND PUSH1 0x4 DUP3 ADD MSTORE PUSH1 0x24 DUP2 ADD DUP9 SWAP1 MSTORE SWAP2 PUSH1 0x20 SWAP2 DUP4 SWAP2 PUSH1 0x44 SWAP2 DUP4 SWAP2 DUP14 SWAP2 AND GAS CALL SWAP1 DUP2 ISZERO PUSH2 0x1A08 JUMPI DUP9 SWAP3 PUSH2 0x19E5 DUP5 SWAP4 PUSH1 0x2 SWAP4 PUSH1 0x40 SWAP13 SWAP2 PUSH2 0x19EF JUMPI POP PUSH2 0x29C6 JUMP JUMPDEST SWAP3 POP POP SWAP7 POP PUSH2 0x1925 JUMP JUMPDEST PUSH2 0x1138 SWAP2 POP PUSH1 0x20 RETURNDATASIZE PUSH1 0x20 GT PUSH2 0xE31 JUMPI PUSH2 0xE22 DUP2 DUP4 PUSH2 0x273F JUMP JUMPDEST PUSH1 0x40 MLOAD RETURNDATASIZE DUP11 DUP3 RETURNDATACOPY RETURNDATASIZE SWAP1 REVERT JUMPDEST PUSH4 0x4E487B71 PUSH1 0xE0 SHL DUP8 MSTORE PUSH1 0x11 PUSH1 0x4 MSTORE PUSH1 0x24 DUP8 REVERT JUMPDEST DUP5 SWAP4 PUSH1 0x40 SWAP6 SWAP5 DUP1 PUSH1 0x2 DUP2 SWAP7 PUSH2 0x192D JUMP JUMPDEST SWAP2 SWAP5 POP SWAP1 DUP1 DUP4 GT ISZERO PUSH2 0x1B29 JUMPI PUSH1 0x20 PUSH2 0x1A89 SWAP2 DUP1 SWAP4 JUMPDEST PUSH1 0x2 SLOAD PUSH1 0x40 MLOAD PUSH4 0x95EA7B3 PUSH1 0xE0 SHL DUP2 MSTORE PUSH1 0x1 PUSH1 0x1 PUSH1 0xA0 SHL SUB SWAP3 DUP4 AND PUSH1 0x4 DUP3 ADD MSTORE PUSH1 0x24 DUP2 ADD SWAP4 SWAP1 SWAP4 MSTORE SWAP2 SWAP4 DUP5 SWAP3 SWAP1 SWAP2 AND SWAP1 DUP3 SWAP1 DUP11 SWAP1 DUP3 SWAP1 PUSH1 0x44 DUP3 ADD SWAP1 JUMP JUMPDEST SUB SWAP3 GAS CALL DUP1 ISZERO PUSH2 0x1AFF JUMPI PUSH2 0x1B0A JUMPI JUMPDEST POP PUSH1 0x3 SLOAD PUSH1 0x40 DUP1 MLOAD PUSH4 0xD8AED145 PUSH1 0xE0 SHL DUP2 MSTORE PUSH1 0x4 DUP2 ADD DUP8 SWAP1 MSTORE PUSH1 0x24 DUP2 ADD DUP5 SWAP1 MSTORE SWAP2 DUP3 SWAP1 PUSH1 0x44 SWAP1 DUP3 SWAP1 DUP11 SWAP1 PUSH1 0x1 PUSH1 0x1 PUSH1 0xA0 SHL SUB AND GAS CALL DUP1 ISZERO PUSH2 0x1AFF JUMPI PUSH2 0x1AE1 JUMPI JUMPDEST POP SWAP3 CODESIZE DUP1 PUSH2 0x18E7 JUMP JUMPDEST PUSH2 0x1AF9 SWAP1 PUSH1 0x40 RETURNDATASIZE PUSH1 0x40 GT PUSH2 0xE04 JUMPI PUSH2 0xDF2 DUP2 DUP4 PUSH2 0x273F JUMP JUMPDEST POP PUSH2 0x1AD8 JUMP JUMPDEST PUSH1 0x40 MLOAD RETURNDATASIZE DUP9 DUP3 RETURNDATACOPY RETURNDATASIZE SWAP1 REVERT JUMPDEST PUSH2 0x1B22 SWAP1 PUSH1 0x20 RETURNDATASIZE PUSH1 0x20 GT PUSH2 0xE31 JUMPI PUSH2 0xE22 DUP2 DUP4 PUSH2 0x273F JUMP JUMPDEST POP CODESIZE PUSH2 0x1A98 JUMP JUMPDEST POP PUSH2 0x1A89 PUSH1 0x20 DUP4 DUP1 SWAP4 PUSH2 0x1A4C JUMP JUMPDEST SWAP1 SWAP5 POP PUSH1 0x20 DUP2 RETURNDATASIZE PUSH1 0x20 GT PUSH2 0x1B63 JUMPI JUMPDEST DUP2 PUSH2 0x1B53 PUSH1 0x20 SWAP4 DUP4 PUSH2 0x273F JUMP JUMPDEST DUP2 ADD SUB SLT PUSH2 0xDBD JUMPI MLOAD SWAP4 CODESIZE PUSH2 0x18DE JUMP JUMPDEST RETURNDATASIZE SWAP2 POP PUSH2 0x1B46 JUMP JUMPDEST PUSH2 0x15DF SWAP2 POP PUSH1 0x20 RETURNDATASIZE PUSH1 0x20 GT PUSH2 0xE31 JUMPI PUSH2 0xE22 DUP2 DUP4 PUSH2 0x273F JUMP JUMPDEST PUSH2 0xE5A SWAP2 POP PUSH1 0x20 RETURNDATASIZE PUSH1 0x20 GT PUSH2 0xE31 JUMPI PUSH2 0xE22 DUP2 DUP4 PUSH2 0x273F JUMP JUMPDEST PUSH1 0x40 MLOAD PUSH3 0x461BCD PUSH1 0xE5 SHL DUP2 MSTORE PUSH1 0x20 PUSH1 0x4 DUP3 ADD MSTORE PUSH1 0x1B PUSH1 0x24 DUP3 ADD MSTORE PUSH32 0x507572636861736520616D6F756E74206D757374206265203E20300000000000 PUSH1 0x44 DUP3 ADD MSTORE PUSH1 0x64 SWAP1 REVERT JUMPDEST PUSH1 0x40 MLOAD PUSH3 0x461BCD PUSH1 0xE5 SHL DUP2 MSTORE PUSH1 0x20 PUSH1 0x4 DUP3 ADD MSTORE PUSH1 0x17 PUSH1 0x24 DUP3 ADD MSTORE PUSH32 0x4F6E6C7920666F72205072697661746520417373657473000000000000000000 PUSH1 0x44 DUP3 ADD MSTORE PUSH1 0x64 SWAP1 REVERT JUMPDEST POP CALLVALUE PUSH2 0x252 JUMPI DUP1 PUSH1 0x3 NOT CALLDATASIZE ADD SLT PUSH2 0x252 JUMPI PUSH1 0x20 PUSH1 0x40 MLOAD PUSH2 0x3E8 DUP2 MSTORE RETURN JUMPDEST POP CALLVALUE PUSH2 0x252 JUMPI PUSH1 0x80 CALLDATASIZE PUSH1 0x3 NOT ADD SLT PUSH2 0x252 JUMPI PUSH1 0x4 CALLDATALOAD PUSH1 0x44 PUSH1 0x64 DUP1 CALLDATALOAD SWAP1 DUP3 CALLDATALOAD SWAP1 PUSH1 0x24 DUP1 CALLDATALOAD SWAP1 PUSH2 0x1C70 PUSH2 0x2821 JUMP JUMPDEST DUP7 DUP9 MSTORE PUSH1 0x20 SWAP6 PUSH1 0x6 DUP8 MSTORE PUSH1 0x40 DUP10 KECCAK256 PUSH1 0x8 DUP2 ADD SLOAD SWAP3 PUSH2 0x1C90 PUSH1 0xFF DUP6 AND PUSH2 0x2844 JUMP JUMPDEST DUP2 SLOAD PUSH1 0x1 PUSH1 0x1 PUSH1 0xA0 SHL SUB SWAP5 SWAP1 PUSH2 0x1CA9 SWAP1 DUP7 AND CALLER EQ PUSH2 0x2886 JUMP JUMPDEST PUSH2 0x1CB4 DUP7 ISZERO ISZERO PUSH2 0x267F JUMP JUMPDEST DUP8 ISZERO PUSH2 0x20A5 JUMPI DUP9 ISZERO PUSH2 0x2063 JUMPI DUP9 DUP9 LT PUSH2 0x2021 JUMPI DUP11 DUP13 MSTORE PUSH1 0xA DUP11 MSTORE PUSH1 0x40 DUP13 KECCAK256 PUSH1 0x6 ADD SLOAD PUSH1 0xFF AND PUSH2 0x1FE9 JUMPI PUSH1 0x8 SHR PUSH1 0xFF AND PUSH1 0x2 DUP2 LT ISZERO PUSH2 0x1FD6 JUMPI PUSH2 0x1FC8 JUMPI PUSH2 0x2710 PUSH2 0x1D04 PUSH2 0x1B58 JUMPDEST PUSH1 0x4 DUP6 ADD SLOAD PUSH2 0x27EE JUMP JUMPDEST DIV SWAP6 PUSH1 0x3 DUP4 ADD SWAP7 PUSH2 0x1D16 DUP8 DUP10 SLOAD PUSH2 0x28C7 JUMP JUMPDEST GT PUSH2 0x1F94 JUMPI POP SWAP1 DUP8 SWAP5 SWAP4 SWAP3 SWAP2 PUSH2 0x1DBF DUP9 PUSH1 0x6 DUP14 DUP16 DUP15 SWAP1 PUSH2 0x1D36 DUP13 DUP7 PUSH2 0x2801 JUMP JUMPDEST SWAP12 DUP13 PUSH2 0x1D42 DUP2 TIMESTAMP PUSH2 0x28C7 JUMP JUMPDEST SWAP2 PUSH1 0x40 MLOAD SWAP8 PUSH2 0x1D50 DUP10 PUSH2 0x26F3 JUMP JUMPDEST DUP9 MSTORE DUP5 DUP9 ADD SWAP1 DUP2 MSTORE PUSH1 0x40 DUP9 ADD SWAP2 DUP3 MSTORE PUSH1 0x60 DUP9 ADD SWAP3 DUP4 MSTORE PUSH1 0x40 PUSH1 0x80 DUP10 ADD SWAP5 DUP1 DUP7 MSTORE PUSH1 0xA PUSH1 0xA0 DUP12 ADD SWAP8 DUP3 DUP10 MSTORE PUSH1 0xC0 DUP13 ADD SWAP10 PUSH1 0x1 DUP12 MSTORE DUP4 MSTORE MSTORE KECCAK256 SWAP8 MLOAD DUP9 SSTORE MLOAD PUSH1 0x1 DUP9 ADD SSTORE MLOAD PUSH1 0x2 DUP8 ADD SSTORE MLOAD PUSH1 0x3 DUP7 ADD SSTORE MLOAD PUSH1 0x4 DUP6 ADD SSTORE MLOAD PUSH1 0x5 DUP5 ADD SSTORE MLOAD ISZERO ISZERO SWAP2 ADD SWAP1 PUSH1 0xFF DUP1 NOT DUP4 SLOAD AND SWAP2 ISZERO ISZERO AND OR SWAP1 SSTORE JUMP JUMPDEST DUP12 DUP5 PUSH1 0x3 SLOAD AND DUP1 EXTCODESIZE ISZERO PUSH2 0x74C JUMPI DUP2 SWAP1 DUP6 DUP15 PUSH1 0x40 MLOAD SWAP5 DUP6 SWAP4 DUP5 SWAP3 PUSH4 0xECBCDAB PUSH1 0xE0 SHL DUP5 MSTORE PUSH1 0x4 DUP5 ADD MSTORE DUP12 DUP9 DUP5 ADD MSTORE GAS CALL DUP1 ISZERO PUSH2 0x1F89 JUMPI PUSH2 0x1F6E JUMPI JUMPDEST POP SWAP1 DUP5 SWAP4 SWAP3 SWAP2 PUSH2 0x1E0B DUP14 SWAP7 DUP10 SLOAD PUSH2 0x28C7 JUMP JUMPDEST DUP9 SSTORE DUP4 PUSH1 0x5 SLOAD AND SWAP2 DUP3 ISZERO ISZERO DUP1 PUSH2 0x1F61 JUMPI JUMPDEST PUSH2 0x1F03 JUMPI JUMPDEST POP POP PUSH1 0x2 SLOAD PUSH1 0x40 MLOAD PUSH4 0xA9059CBB PUSH1 0xE0 SHL DUP2 MSTORE CALLER PUSH1 0x4 DUP3 ADD MSTORE PUSH1 0x24 DUP2 ADD DUP7 SWAP1 MSTORE SWAP4 DUP12 SWAP4 POP DUP5 SWAP3 POP PUSH1 0x44 SWAP2 DUP4 SWAP2 DUP9 SWAP2 AND GAS CALL SWAP2 DUP3 ISZERO PUSH2 0xDC9 JUMPI PUSH32 0xDD4271A412A769F5ED0FE9B4B7C386BBA5F674B53B01F0C0DAB8A378C2991BB9 SWAP9 PUSH2 0xBE8 SWAP7 PUSH2 0x1EB3 PUSH32 0x902160BBFEE2201AA09B6B057B6F0B7D0F633B2BDEFC04E987882DF4AEFD29C SWAP6 PUSH1 0x40 SWAP6 DUP15 SWAP9 SWAP2 PUSH2 0x1EEC JUMPI POP PUSH2 0x28D4 JUMP JUMPDEST SLOAD SWAP1 DUP4 MLOAD SWAP3 DUP4 MSTORE DUP3 ADD MSTORE LOG2 PUSH2 0x1EC8 DUP2 TIMESTAMP PUSH2 0x28C7 JUMP JUMPDEST SWAP1 PUSH1 0x40 MLOAD SWAP5 DUP6 SWAP5 DUP6 SWAP1 SWAP5 SWAP4 SWAP3 PUSH1 0x60 SWAP3 PUSH1 0x80 DUP4 ADD SWAP7 DUP4 MSTORE PUSH1 0x20 DUP4 ADD MSTORE PUSH1 0x40 DUP3 ADD MSTORE ADD MSTORE JUMP JUMPDEST PUSH2 0xE5A SWAP2 POP DUP5 RETURNDATASIZE DUP7 GT PUSH2 0xE31 JUMPI PUSH2 0xE22 DUP2 DUP4 PUSH2 0x273F JUMP JUMPDEST PUSH1 0x7 ADD SLOAD SWAP3 DUP3 EXTCODESIZE ISZERO PUSH2 0x1F5D JUMPI DUP6 SWAP4 DUP8 DUP1 SWAP5 PUSH1 0x40 MLOAD SWAP7 DUP8 SWAP6 DUP7 SWAP5 PUSH4 0x65A1782F PUSH1 0xE0 SHL DUP7 MSTORE PUSH1 0x4 DUP7 ADD MSTORE DUP5 ADD MSTORE GAS CALL SWAP1 DUP2 ISZERO PUSH2 0xE38 JUMPI DUP5 SWAP2 PUSH2 0x1F45 JUMPI JUMPDEST DUP1 DUP1 PUSH2 0x1E21 JUMP JUMPDEST PUSH2 0x1F4E SWAP1 PUSH2 0x270F JUMP JUMPDEST PUSH2 0x1F59 JUMPI DUP3 CODESIZE PUSH2 0x1F3E JUMP JUMPDEST DUP3 DUP1 REVERT JUMPDEST DUP7 DUP1 REVERT JUMPDEST POP PUSH1 0x7 DUP2 ADD SLOAD ISZERO ISZERO PUSH2 0x1E1C JUMP JUMPDEST PUSH2 0x1F7E SWAP1 SWAP13 SWAP2 SWAP6 SWAP5 SWAP4 SWAP3 SWAP13 PUSH2 0x270F JUMP JUMPDEST SWAP11 SWAP1 SWAP2 SWAP3 SWAP4 CODESIZE PUSH2 0x1DF9 JUMP JUMPDEST PUSH1 0x40 MLOAD RETURNDATASIZE DUP16 DUP3 RETURNDATACOPY RETURNDATASIZE SWAP1 REVERT JUMPDEST PUSH1 0x40 MLOAD PUSH3 0x461BCD PUSH1 0xE5 SHL DUP2 MSTORE PUSH1 0x4 DUP2 ADD DUP12 SWAP1 MSTORE PUSH1 0x11 DUP2 DUP5 ADD MSTORE PUSH17 0x115E18D959591CC8131515881B1A5B5A5D PUSH1 0x7A SHL DUP2 DUP7 ADD MSTORE REVERT JUMPDEST PUSH2 0x2710 PUSH2 0x1D04 PUSH2 0x1770 PUSH2 0x1CFA JUMP JUMPDEST POP PUSH4 0x4E487B71 PUSH1 0xE0 SHL DUP12 MSTORE PUSH1 0x21 PUSH1 0x4 MSTORE DUP11 REVERT JUMPDEST PUSH1 0x40 MLOAD PUSH3 0x461BCD PUSH1 0xE5 SHL DUP2 MSTORE PUSH1 0x4 DUP2 ADD DUP12 SWAP1 MSTORE PUSH1 0x13 DUP2 DUP5 ADD MSTORE PUSH19 0x506C616E20616C726561647920616374697665 PUSH1 0x68 SHL DUP2 DUP7 ADD MSTORE DUP8 SWAP1 REVERT JUMPDEST PUSH1 0x40 MLOAD PUSH3 0x461BCD PUSH1 0xE5 SHL DUP2 MSTORE PUSH1 0x4 DUP2 ADD DUP12 SWAP1 MSTORE PUSH1 0x1D DUP2 DUP5 ADD MSTORE PUSH32 0x496E76616C6964206475726174696F6E2F696E7374616C6C6D656E7473000000 DUP2 DUP7 ADD MSTORE DUP8 SWAP1 REVERT JUMPDEST PUSH1 0x40 MLOAD PUSH3 0x461BCD PUSH1 0xE5 SHL DUP2 MSTORE PUSH1 0x4 DUP2 ADD DUP12 SWAP1 MSTORE PUSH1 0x18 DUP2 DUP5 ADD MSTORE PUSH32 0x496E7374616C6C6D656E7473206D757374206265203E20300000000000000000 DUP2 DUP7 ADD MSTORE DUP8 SWAP1 REVERT JUMPDEST PUSH1 0x40 MLOAD PUSH3 0x461BCD PUSH1 0xE5 SHL DUP2 MSTORE PUSH1 0x4 DUP2 ADD DUP12 SWAP1 MSTORE PUSH1 0x14 DUP2 DUP5 ADD MSTORE PUSH20 0x4475726174696F6E206D757374206265203E203 PUSH1 0x64 SHL DUP2 DUP7 ADD MSTORE DUP8 SWAP1 REVERT JUMPDEST POP CALLVALUE PUSH2 0x252 JUMPI DUP1 PUSH1 0x3 NOT CALLDATASIZE ADD SLT PUSH2 0x252 JUMPI PUSH1 0x2 SLOAD PUSH1 0x40 MLOAD PUSH1 0x1 PUSH1 0x1 PUSH1 0xA0 SHL SUB SWAP1 SWAP2 AND DUP2 MSTORE PUSH1 0x20 SWAP1 RETURN JUMPDEST POP CALLVALUE PUSH2 0x252 JUMPI DUP1 PUSH1 0x3 NOT CALLDATASIZE ADD SLT PUSH2 0x252 JUMPI PUSH1 0x5 SLOAD PUSH1 0x40 MLOAD PUSH1 0x1 PUSH1 0x1 PUSH1 0xA0 SHL SUB SWAP1 SWAP2 AND DUP2 MSTORE PUSH1 0x20 SWAP1 RETURN JUMPDEST POP CALLVALUE PUSH2 0x252 JUMPI DUP1 PUSH1 0x3 NOT CALLDATASIZE ADD SLT PUSH2 0x252 JUMPI PUSH1 0x4 SLOAD PUSH1 0x40 MLOAD PUSH1 0x1 PUSH1 0x1 PUSH1 0xA0 SHL SUB SWAP1 SWAP2 AND DUP2 MSTORE PUSH1 0x20 SWAP1 RETURN JUMPDEST POP CALLVALUE PUSH2 0x252 JUMPI PUSH1 0x20 CALLDATASIZE PUSH1 0x3 NOT ADD SLT PUSH2 0x252 JUMPI PUSH1 0x20 PUSH2 0x1492 PUSH1 0x4 CALLDATALOAD PUSH2 0x2A0B JUMP JUMPDEST POP CALLVALUE PUSH2 0x252 JUMPI PUSH1 0x20 CALLDATASIZE PUSH1 0x3 NOT ADD SLT PUSH2 0x252 JUMPI PUSH1 0xFF PUSH1 0x40 PUSH1 0x20 SWAP3 PUSH1 0x4 CALLDATALOAD DUP2 MSTORE PUSH1 0x8 DUP5 MSTORE KECCAK256 SLOAD AND PUSH1 0x40 MLOAD SWAP1 ISZERO ISZERO DUP2 MSTORE RETURN JUMPDEST POP CALLVALUE PUSH2 0x252 JUMPI PUSH1 0x20 CALLDATASIZE PUSH1 0x3 NOT ADD SLT PUSH2 0x252 JUMPI PUSH2 0x21C1 PUSH2 0x25C6 JUMP JUMPDEST PUSH2 0x21C9 PUSH2 0x2615 JUMP JUMPDEST PUSH1 0x1 PUSH1 0x1 PUSH1 0xA0 SHL SUB AND PUSH2 0x21DD DUP2 ISZERO ISZERO PUSH2 0x2641 JUMP JUMPDEST PUSH1 0x1 PUSH1 0x1 PUSH1 0x60 SHL SUB PUSH1 0xA0 SHL PUSH1 0x9 SLOAD AND OR PUSH1 0x9 SSTORE DUP1 RETURN JUMPDEST POP CALLVALUE PUSH2 0x252 JUMPI PUSH1 0xA0 CALLDATASIZE PUSH1 0x3 NOT ADD SLT PUSH2 0x252 JUMPI PUSH2 0x220D PUSH2 0x25C6 JUMP JUMPDEST PUSH1 0x2 PUSH1 0x64 CALLDATALOAD LT ISZERO PUSH2 0x74C JUMPI PUSH1 0x84 CALLDATALOAD ISZERO ISZERO PUSH1 0x84 CALLDATALOAD SUB PUSH2 0x74C JUMPI PUSH2 0x222D PUSH2 0x2821 JUMP JUMPDEST PUSH1 0x1 PUSH1 0x1 PUSH1 0xA0 SHL SUB DUP2 AND ISZERO PUSH2 0x2591 JUMPI PUSH2 0x2249 PUSH1 0x24 CALLDATALOAD ISZERO ISZERO PUSH2 0x267F JUMP JUMPDEST PUSH1 0x44 CALLDATALOAD ISZERO PUSH2 0x2554 JUMPI PUSH1 0x40 MLOAD PUSH4 0x23B872DD PUSH1 0xE0 SHL DUP2 MSTORE CALLER PUSH1 0x4 DUP3 ADD MSTORE ADDRESS PUSH1 0x24 DUP1 DUP4 ADD SWAP2 SWAP1 SWAP2 MSTORE CALLDATALOAD PUSH1 0x44 DUP3 ADD MSTORE PUSH1 0x20 DUP2 PUSH1 0x64 DUP2 DUP7 PUSH1 0x1 PUSH1 0x1 PUSH1 0xA0 SHL SUB DUP8 AND GAS CALL DUP1 ISZERO PUSH2 0xDC9 JUMPI PUSH2 0x229D SWAP2 DUP5 SWAP2 PUSH2 0x1B6B JUMPI POP PUSH2 0x2779 JUMP JUMPDEST PUSH1 0x7 SLOAD SWAP1 PUSH2 0x22AA DUP3 PUSH2 0x27BD JUMP JUMPDEST PUSH1 0x7 SSTORE PUSH1 0x40 MLOAD PUSH2 0x22B9 DUP2 PUSH2 0x26C0 JUMP JUMPDEST CALLER DUP2 MSTORE PUSH1 0x1 PUSH1 0x1 PUSH1 0xA0 SHL SUB DUP3 AND PUSH1 0x20 DUP3 ADD MSTORE PUSH1 0x24 CALLDATALOAD PUSH1 0x40 DUP3 ADD MSTORE PUSH1 0x60 DUP2 ADD DUP5 SWAP1 MSTORE PUSH1 0x44 CALLDATALOAD PUSH1 0x80 DUP3 ADD MSTORE TIMESTAMP PUSH1 0xA0 DUP3 ADD MSTORE PUSH1 0xC0 DUP2 ADD DUP5 SWAP1 MSTORE PUSH1 0xE0 DUP2 ADD DUP5 SWAP1 MSTORE PUSH1 0x1 PUSH2 0x100 DUP3 ADD MSTORE PUSH2 0x120 DUP2 ADD PUSH2 0x230F PUSH1 0x64 CALLDATALOAD DUP3 PUSH2 0x27E2 JUMP JUMPDEST DUP4 DUP6 MSTORE PUSH1 0x6 PUSH1 0x20 MSTORE PUSH2 0x23AD PUSH2 0x100 PUSH1 0x8 PUSH1 0x40 DUP9 KECCAK256 PUSH1 0x1 DUP1 PUSH1 0xA0 SHL SUB DUP7 MLOAD AND PUSH1 0x1 PUSH1 0x1 PUSH1 0x60 SHL SUB PUSH1 0xA0 SHL SWAP1 DUP2 DUP4 SLOAD AND OR DUP3 SSTORE PUSH1 0x1 DUP3 ADD SWAP1 PUSH1 0x1 DUP1 PUSH1 0xA0 SHL SUB PUSH1 0x20 DUP10 ADD MLOAD AND SWAP1 DUP3 SLOAD AND OR SWAP1 SSTORE PUSH1 0x40 DUP7 ADD MLOAD PUSH1 0x2 DUP3 ADD SSTORE PUSH1 0x60 DUP7 ADD MLOAD PUSH1 0x3 DUP3 ADD SSTORE PUSH1 0x80 DUP7 ADD MLOAD PUSH1 0x4 DUP3 ADD SSTORE PUSH1 0xA0 DUP7 ADD MLOAD PUSH1 0x5 DUP3 ADD SSTORE PUSH1 0xC0 DUP7 ADD MLOAD PUSH1 0x6 DUP3 ADD SSTORE PUSH1 0xE0 DUP7 ADD MLOAD PUSH1 0x7 DUP3 ADD SSTORE ADD SWAP4 ADD MLOAD ISZERO ISZERO DUP4 SWAP1 PUSH1 0xFF DUP1 NOT DUP4 SLOAD AND SWAP2 ISZERO ISZERO AND OR SWAP1 SSTORE JUMP JUMPDEST MLOAD PUSH1 0x2 DUP2 LT ISZERO PUSH2 0x145F JUMPI PUSH2 0xFF00 DUP3 SLOAD SWAP2 PUSH1 0x8 SHL AND SWAP1 PUSH2 0xFF00 NOT AND OR SWAP1 SSTORE PUSH1 0x40 MLOAD PUSH1 0x1 DUP1 PUSH1 0xA0 SHL SUB DUP3 AND DUP2 MSTORE PUSH1 0x24 CALLDATALOAD PUSH1 0x20 DUP3 ADD MSTORE PUSH1 0x44 CALLDATALOAD PUSH1 0x40 DUP3 ADD MSTORE PUSH2 0x23F7 PUSH1 0x60 DUP3 ADD PUSH1 0x64 CALLDATALOAD PUSH2 0x25F2 JUMP JUMPDEST DUP3 PUSH32 0x93CB2591720FA23E5A51A39BF9D35B6A4E5CB6C11BEAE435C41E4482F3A30D21 PUSH1 0x80 CALLER SWAP4 LOG3 PUSH1 0x84 CALLDATALOAD DUP1 PUSH2 0x2540 JUMPI JUMPDEST PUSH2 0x243B JUMPI JUMPDEST PUSH1 0x20 DUP3 PUSH1 0x1 DUP1 SSTORE PUSH1 0x40 MLOAD SWAP1 DUP2 MSTORE RETURN JUMPDEST PUSH1 0x64 CALLDATALOAD PUSH2 0x252F JUMPI DUP3 PUSH1 0x20 PUSH2 0x2710 PUSH2 0x2457 PUSH2 0x1B58 JUMPDEST PUSH1 0x44 CALLDATALOAD PUSH2 0x27EE JUMP JUMPDEST DIV SWAP3 PUSH1 0xA4 PUSH1 0x1 DUP1 PUSH1 0xA0 SHL SUB PUSH1 0x5 SLOAD AND SWAP2 PUSH1 0x40 MLOAD SWAP8 DUP9 SWAP4 DUP5 SWAP3 PUSH4 0x7190CAEB PUSH1 0xE1 SHL DUP5 MSTORE CALLER PUSH1 0x4 DUP6 ADD MSTORE PUSH1 0x1 DUP1 PUSH1 0xA0 SHL SUB AND PUSH1 0x24 DUP5 ADD MSTORE PUSH1 0x24 CALLDATALOAD PUSH1 0x44 DUP5 ADD MSTORE PUSH1 0x44 CALLDATALOAD PUSH1 0x64 DUP5 ADD MSTORE DUP9 PUSH1 0x84 DUP5 ADD MSTORE GAS CALL SWAP4 DUP5 ISZERO PUSH2 0x73F JUMPI DUP2 SWAP5 PUSH2 0x24FA JUMPI JUMPDEST POP PUSH1 0x40 DUP5 DUP5 SWAP4 PUSH1 0x20 SWAP7 PUSH1 0x7 DUP5 DUP7 DUP9 PUSH32 0xF71BF80FA0A269E5FDBE7113CC01A1ADA492208F97E2857213258755D0CBBB5E SWAP9 MSTORE PUSH1 0x6 DUP12 MSTORE KECCAK256 ADD SSTORE DUP3 MLOAD SWAP2 DUP3 MSTORE DUP7 DUP3 ADD MSTORE LOG2 CODESIZE PUSH2 0x242C JUMP JUMPDEST SWAP1 SWAP4 POP PUSH1 0x20 DUP2 RETURNDATASIZE PUSH1 0x20 GT PUSH2 0x2527 JUMPI JUMPDEST DUP2 PUSH2 0x2516 PUSH1 0x20 SWAP4 DUP4 PUSH2 0x273F JUMP JUMPDEST DUP2 ADD SUB SLT PUSH2 0xCD4 JUMPI MLOAD SWAP3 PUSH1 0x40 PUSH2 0x24B2 JUMP JUMPDEST RETURNDATASIZE SWAP2 POP PUSH2 0x2509 JUMP JUMPDEST DUP3 PUSH1 0x20 PUSH2 0x2710 PUSH2 0x2457 PUSH2 0x1770 PUSH2 0x244F JUMP JUMPDEST POP PUSH1 0x5 SLOAD PUSH1 0x1 PUSH1 0x1 PUSH1 0xA0 SHL SUB AND ISZERO ISZERO PUSH2 0x2427 JUMP JUMPDEST PUSH1 0x40 MLOAD PUSH3 0x461BCD PUSH1 0xE5 SHL DUP2 MSTORE PUSH1 0x20 PUSH1 0x4 DUP3 ADD MSTORE PUSH1 0x15 PUSH1 0x24 DUP3 ADD MSTORE PUSH21 0x56616C756174696F6E206D757374206265203E203 PUSH1 0x5C SHL PUSH1 0x44 DUP3 ADD MSTORE PUSH1 0x64 SWAP1 REVERT JUMPDEST PUSH1 0x40 MLOAD PUSH3 0x461BCD PUSH1 0xE5 SHL DUP2 MSTORE PUSH1 0x20 PUSH1 0x4 DUP3 ADD MSTORE PUSH1 0xD PUSH1 0x24 DUP3 ADD MSTORE PUSH13 0x24B73B30B634B2103A37B5B2B7 PUSH1 0x99 SHL PUSH1 0x44 DUP3 ADD MSTORE PUSH1 0x64 SWAP1 REVERT JUMPDEST PUSH1 0x4 CALLDATALOAD SWAP1 PUSH1 0x1 PUSH1 0x1 PUSH1 0xA0 SHL SUB DUP3 AND DUP3 SUB PUSH2 0xDBD JUMPI JUMP JUMPDEST PUSH1 0x40 SWAP1 PUSH1 0x3 NOT ADD SLT PUSH2 0xDBD JUMPI PUSH1 0x4 CALLDATALOAD SWAP1 PUSH1 0x24 CALLDATALOAD SWAP1 JUMP JUMPDEST SWAP1 PUSH1 0x2 DUP3 LT ISZERO PUSH2 0x25FF JUMPI MSTORE JUMP JUMPDEST PUSH4 0x4E487B71 PUSH1 0xE0 SHL PUSH1 0x0 MSTORE PUSH1 0x21 PUSH1 0x4 MSTORE PUSH1 0x24 PUSH1 0x0 REVERT JUMPDEST PUSH1 0x0 SLOAD PUSH1 0x1 PUSH1 0x1 PUSH1 0xA0 SHL SUB AND CALLER SUB PUSH2 0x2629 JUMPI JUMP JUMPDEST PUSH1 0x40 MLOAD PUSH4 0x118CDAA7 PUSH1 0xE0 SHL DUP2 MSTORE CALLER PUSH1 0x4 DUP3 ADD MSTORE PUSH1 0x24 SWAP1 REVERT JUMPDEST ISZERO PUSH2 0x2648 JUMPI JUMP JUMPDEST PUSH1 0x40 MLOAD PUSH3 0x461BCD PUSH1 0xE5 SHL DUP2 MSTORE PUSH1 0x20 PUSH1 0x4 DUP3 ADD MSTORE PUSH1 0xF PUSH1 0x24 DUP3 ADD MSTORE PUSH15 0x496E76616C69642061646472657373 PUSH1 0x88 SHL PUSH1 0x44 DUP3 ADD MSTORE PUSH1 0x64 SWAP1 REVERT JUMPDEST ISZERO PUSH2 0x2686 JUMPI JUMP JUMPDEST PUSH1 0x40 MLOAD PUSH3 0x461BCD PUSH1 0xE5 SHL DUP2 MSTORE PUSH1 0x20 PUSH1 0x4 DUP3 ADD MSTORE PUSH1 0x12 PUSH1 0x24 DUP3 ADD MSTORE PUSH18 0x416D6F756E74206D757374206265203E203 PUSH1 0x74 SHL PUSH1 0x44 DUP3 ADD MSTORE PUSH1 0x64 SWAP1 REVERT JUMPDEST PUSH2 0x140 DUP2 ADD SWAP1 DUP2 LT PUSH8 0xFFFFFFFFFFFFFFFF DUP3 GT OR PUSH2 0x26DD JUMPI PUSH1 0x40 MSTORE JUMP JUMPDEST PUSH4 0x4E487B71 PUSH1 0xE0 SHL PUSH1 0x0 MSTORE PUSH1 0x41 PUSH1 0x4 MSTORE PUSH1 0x24 PUSH1 0x0 REVERT JUMPDEST PUSH1 0xE0 DUP2 ADD SWAP1 DUP2 LT PUSH8 0xFFFFFFFFFFFFFFFF DUP3 GT OR PUSH2 0x26DD JUMPI PUSH1 0x40 MSTORE JUMP JUMPDEST PUSH8 0xFFFFFFFFFFFFFFFF DUP2 GT PUSH2 0x26DD JUMPI PUSH1 0x40 MSTORE JUMP JUMPDEST PUSH1 0x60 DUP2 ADD SWAP1 DUP2 LT PUSH8 0xFFFFFFFFFFFFFFFF DUP3 GT OR PUSH2 0x26DD JUMPI PUSH1 0x40 MSTORE JUMP JUMPDEST SWAP1 PUSH1 0x1F DUP1 NOT SWAP2 ADD AND DUP2 ADD SWAP1 DUP2 LT PUSH8 0xFFFFFFFFFFFFFFFF DUP3 GT OR PUSH2 0x26DD JUMPI PUSH1 0x40 MSTORE JUMP JUMPDEST SWAP1 DUP2 PUSH1 0x20 SWAP2 SUB SLT PUSH2 0xDBD JUMPI MLOAD DUP1 ISZERO ISZERO DUP2 SUB PUSH2 0xDBD JUMPI SWAP1 JUMP JUMPDEST ISZERO PUSH2 0x2780 JUMPI JUMP JUMPDEST PUSH1 0x40 MLOAD PUSH3 0x461BCD PUSH1 0xE5 SHL DUP2 MSTORE PUSH1 0x20 PUSH1 0x4 DUP3 ADD MSTORE PUSH1 0x15 PUSH1 0x24 DUP3 ADD MSTORE PUSH21 0x151BDAD95B881D1C985B9CD9995C8819985A5B1959 PUSH1 0x5A SHL PUSH1 0x44 DUP3 ADD MSTORE PUSH1 0x64 SWAP1 REVERT JUMPDEST PUSH1 0x0 NOT DUP2 EQ PUSH2 0x27CC JUMPI PUSH1 0x1 ADD SWAP1 JUMP JUMPDEST PUSH4 0x4E487B71 PUSH1 0xE0 SHL PUSH1 0x0 MSTORE PUSH1 0x11 PUSH1 0x4 MSTORE PUSH1 0x24 PUSH1 0x0 REVERT JUMPDEST PUSH1 0x2 DUP3 LT ISZERO PUSH2 0x25FF JUMPI MSTORE JUMP JUMPDEST DUP2 DUP2 MUL SWAP3 SWAP2 DUP2 ISZERO SWAP2 DUP5 DIV EQ OR ISZERO PUSH2 0x27CC JUMPI JUMP JUMPDEST DUP2 ISZERO PUSH2 0x280B JUMPI DIV SWAP1 JUMP JUMPDEST PUSH4 0x4E487B71 PUSH1 0xE0 SHL PUSH1 0x0 MSTORE PUSH1 0x12 PUSH1 0x4 MSTORE PUSH1 0x24 PUSH1 0x0 REVERT JUMPDEST PUSH1 0x2 PUSH1 0x1 SLOAD EQ PUSH2 0x2832 JUMPI PUSH1 0x2 PUSH1 0x1 SSTORE JUMP JUMPDEST PUSH1 0x40 MLOAD PUSH4 0x3EE5AEB5 PUSH1 0xE0 SHL DUP2 MSTORE PUSH1 0x4 SWAP1 REVERT JUMPDEST ISZERO PUSH2 0x284B JUMPI JUMP JUMPDEST PUSH1 0x40 MLOAD PUSH3 0x461BCD PUSH1 0xE5 SHL DUP2 MSTORE PUSH1 0x20 PUSH1 0x4 DUP3 ADD MSTORE PUSH1 0x13 PUSH1 0x24 DUP3 ADD MSTORE PUSH19 0x506F736974696F6E206E6F7420616374697665 PUSH1 0x68 SHL PUSH1 0x44 DUP3 ADD MSTORE PUSH1 0x64 SWAP1 REVERT JUMPDEST ISZERO PUSH2 0x288D JUMPI JUMP JUMPDEST PUSH1 0x40 MLOAD PUSH3 0x461BCD PUSH1 0xE5 SHL DUP2 MSTORE PUSH1 0x20 PUSH1 0x4 DUP3 ADD MSTORE PUSH1 0x12 PUSH1 0x24 DUP3 ADD MSTORE PUSH18 0x2737BA103837B9B4BA34B7B71037BBB732B9 PUSH1 0x71 SHL PUSH1 0x44 DUP3 ADD MSTORE PUSH1 0x64 SWAP1 REVERT JUMPDEST SWAP2 SWAP1 DUP3 ADD DUP1 SWAP3 GT PUSH2 0x27CC JUMPI JUMP JUMPDEST ISZERO PUSH2 0x28DB JUMPI JUMP JUMPDEST PUSH1 0x40 MLOAD PUSH3 0x461BCD PUSH1 0xE5 SHL DUP2 MSTORE PUSH1 0x20 PUSH1 0x4 DUP3 ADD MSTORE PUSH1 0x14 PUSH1 0x24 DUP3 ADD MSTORE PUSH20 0x1554D110C81D1C985B9CD9995C8819985A5B1959 PUSH1 0x62 SHL PUSH1 0x44 DUP3 ADD MSTORE PUSH1 0x64 SWAP1 REVERT JUMPDEST SWAP2 SWAP1 DUP3 PUSH1 0x40 SWAP2 SUB SLT PUSH2 0xDBD JUMPI PUSH1 0x20 DUP3 MLOAD SWAP3 ADD MLOAD SWAP1 JUMP JUMPDEST SWAP2 SWAP1 DUP3 SUB SWAP2 DUP3 GT PUSH2 0x27CC JUMPI JUMP JUMPDEST SWAP2 SWAP1 DUP3 MLOAD SWAP3 DUP4 DUP3 MSTORE PUSH1 0x0 JUMPDEST DUP5 DUP2 LT PUSH2 0x2966 JUMPI POP POP DUP3 PUSH1 0x0 PUSH1 0x20 DUP1 SWAP5 SWAP6 DUP5 ADD ADD MSTORE PUSH1 0x1F DUP1 NOT SWAP2 ADD AND ADD ADD SWAP1 JUMP JUMPDEST PUSH1 0x20 DUP2 DUP4 ADD DUP2 ADD MLOAD DUP5 DUP4 ADD DUP3 ADD MSTORE ADD PUSH2 0x2945 JUMP JUMPDEST ISZERO PUSH2 0x2981 JUMPI JUMP JUMPDEST PUSH1 0x40 MLOAD PUSH3 0x461BCD PUSH1 0xE5 SHL DUP2 MSTORE PUSH1 0x20 PUSH1 0x4 DUP3 ADD MSTORE PUSH1 0x17 PUSH1 0x24 DUP3 ADD MSTORE PUSH32 0x506F736974696F6E206E6F74206C697175696461746564000000000000000000 PUSH1 0x44 DUP3 ADD MSTORE PUSH1 0x64 SWAP1 REVERT JUMPDEST ISZERO PUSH2 0x29CD JUMPI JUMP JUMPDEST PUSH1 0x40 MLOAD PUSH3 0x461BCD PUSH1 0xE5 SHL DUP2 MSTORE PUSH1 0x20 PUSH1 0x4 DUP3 ADD MSTORE PUSH1 0x16 PUSH1 0x24 DUP3 ADD MSTORE PUSH22 0x1499599D5B99081D1C985B9CD9995C8819985A5B1959 PUSH1 0x52 SHL PUSH1 0x44 DUP3 ADD MSTORE PUSH1 0x64 SWAP1 REVERT JUMPDEST SWAP1 PUSH1 0x0 SWAP2 DUP1 DUP4 MSTORE PUSH1 0x20 SWAP1 PUSH1 0x6 DUP3 MSTORE PUSH1 0x40 DUP5 KECCAK256 SWAP1 PUSH1 0x40 MLOAD PUSH2 0x2A2A DUP2 PUSH2 0x26C0 JUMP JUMPDEST PUSH1 0x1 DUP1 PUSH1 0xA0 SHL SUB SWAP1 DUP2 DUP5 SLOAD AND DUP2 MSTORE DUP2 PUSH1 0x1 DUP6 ADD SLOAD AND DUP6 DUP3 ADD MSTORE PUSH1 0x2 DUP5 ADD SLOAD PUSH1 0x40 DUP3 ADD MSTORE PUSH1 0x3 DUP5 ADD SLOAD PUSH1 0x60 DUP3 ADD MSTORE PUSH2 0x2AA7 PUSH1 0x8 PUSH1 0x4 DUP7 ADD SLOAD SWAP6 PUSH1 0x80 DUP5 ADD SWAP7 DUP8 MSTORE PUSH1 0x5 DUP2 ADD SLOAD PUSH1 0xA0 DUP6 ADD MSTORE PUSH1 0x6 DUP2 ADD SLOAD PUSH1 0xC0 DUP6 ADD MSTORE PUSH1 0x7 DUP2 ADD SLOAD PUSH1 0xE0 DUP6 ADD MSTORE ADD SLOAD SWAP2 PUSH2 0x120 PUSH1 0xFF PUSH2 0x100 DUP4 ADD SWAP5 DUP2 DUP2 AND ISZERO ISZERO DUP7 MSTORE PUSH1 0x8 SHR AND SWAP2 ADD PUSH2 0x27E2 JUMP JUMPDEST MLOAD ISZERO PUSH2 0x2B54 JUMPI DUP4 SWAP1 PUSH1 0x3 SLOAD AND SWAP2 PUSH1 0x24 PUSH1 0x40 MLOAD DUP1 SWAP5 DUP2 SWAP4 PUSH4 0xD5595157 PUSH1 0xE0 SHL DUP4 MSTORE PUSH1 0x4 DUP4 ADD MSTORE GAS STATICCALL SWAP3 DUP4 ISZERO PUSH2 0xCD8 JUMPI DUP6 SWAP4 PUSH2 0x2B24 JUMPI JUMPDEST POP POP DUP2 ISZERO PUSH2 0x2B1B JUMPI MLOAD PUSH2 0x2710 SWAP1 DUP2 DUP2 MUL SWAP2 DUP2 DUP4 DIV EQ SWAP1 ISZERO OR ISZERO PUSH2 0x2B07 JUMPI PUSH2 0x2B04 SWAP3 SWAP4 POP PUSH2 0x2801 JUMP JUMPDEST SWAP1 JUMP JUMPDEST PUSH4 0x4E487B71 PUSH1 0xE0 SHL DUP5 MSTORE PUSH1 0x11 PUSH1 0x4 MSTORE PUSH1 0x24 DUP5 REVERT JUMPDEST POP PUSH1 0x0 NOT SWAP3 POP POP JUMP JUMPDEST SWAP1 DUP1 SWAP3 SWAP4 POP DUP2 RETURNDATASIZE DUP4 GT PUSH2 0x2B4D JUMPI JUMPDEST PUSH2 0x2B3C DUP2 DUP4 PUSH2 0x273F JUMP JUMPDEST DUP2 ADD SUB SLT PUSH2 0xCD4 JUMPI MLOAD SWAP1 CODESIZE DUP1 PUSH2 0x2ADC JUMP JUMPDEST POP RETURNDATASIZE PUSH2 0x2B32 JUMP JUMPDEST POP POP POP POP JUMP JUMPDEST PUSH1 0x0 SWAP1 DUP1 DUP3 MSTORE PUSH1 0x20 SWAP1 PUSH1 0x6 DUP3 MSTORE PUSH1 0x40 DUP4 KECCAK256 SWAP1 PUSH1 0x40 MLOAD SWAP2 PUSH2 0x2B79 DUP4 PUSH2 0x26C0 JUMP JUMPDEST PUSH1 0x1 DUP1 PUSH1 0xA0 SHL SUB SWAP3 DUP4 DUP3 SLOAD AND DUP2 MSTORE DUP4 PUSH1 0x1 DUP4 ADD SLOAD AND DUP6 DUP3 ADD MSTORE PUSH1 0x2 DUP3 ADD SLOAD PUSH1 0x40 DUP3 ADD MSTORE PUSH1 0x3 DUP3 ADD SLOAD PUSH1 0x60 DUP3 ADD MSTORE PUSH1 0x8 PUSH1 0x4 DUP4 ADD SLOAD SWAP3 PUSH1 0x80 DUP4 ADD SWAP4 DUP5 MSTORE PUSH1 0x5 DUP2 ADD SLOAD PUSH1 0xA0 DUP5 ADD MSTORE PUSH1 0x6 DUP2 ADD SLOAD PUSH1 0xC0 DUP5 ADD MSTORE PUSH1 0x7 DUP2 ADD SLOAD PUSH1 0xE0 DUP5 ADD MSTORE ADD SLOAD SWAP1 PUSH2 0x2BF7 PUSH1 0xFF PUSH2 0x120 PUSH2 0x100 DUP5 ADD SWAP4 DUP3 DUP7 AND ISZERO ISZERO DUP6 MSTORE ADD SWAP4 PUSH1 0x8 SHR AND DUP4 PUSH2 0x27E2 JUMP JUMPDEST MLOAD ISZERO PUSH2 0x2CB8 JUMPI MLOAD PUSH1 0x2 DUP2 LT ISZERO PUSH2 0x2CA4 JUMPI PUSH2 0x2C23 DUP6 SWAP3 PUSH2 0x2710 SWAP3 ISZERO PUSH1 0x0 EQ PUSH2 0x2C9B JUMPI PUSH2 0x1B58 SWAP1 JUMPDEST MLOAD PUSH2 0x27EE JUMP JUMPDEST DIV SWAP3 PUSH1 0x3 SLOAD AND SWAP2 PUSH1 0x24 PUSH1 0x40 MLOAD DUP1 SWAP5 DUP2 SWAP4 PUSH4 0xD5595157 PUSH1 0xE0 SHL DUP4 MSTORE PUSH1 0x4 DUP4 ADD MSTORE GAS STATICCALL SWAP3 DUP4 ISZERO PUSH2 0xE38 JUMPI DUP5 SWAP4 PUSH2 0x2C6B JUMPI JUMPDEST POP POP DUP2 DUP2 GT ISZERO PUSH2 0x2C66 JUMPI PUSH2 0x2B04 SWAP3 POP PUSH2 0x292D JUMP JUMPDEST POP POP SWAP1 JUMP JUMPDEST SWAP1 DUP1 SWAP3 SWAP4 POP DUP2 RETURNDATASIZE DUP4 GT PUSH2 0x2C94 JUMPI JUMPDEST PUSH2 0x2C83 DUP2 DUP4 PUSH2 0x273F JUMP JUMPDEST DUP2 ADD SUB SLT PUSH2 0x1F59 JUMPI MLOAD SWAP1 CODESIZE DUP1 PUSH2 0x2C52 JUMP JUMPDEST POP RETURNDATASIZE PUSH2 0x2C79 JUMP JUMPDEST PUSH2 0x1770 SWAP1 PUSH2 0x2C1D JUMP JUMPDEST PUSH4 0x4E487B71 PUSH1 0xE0 SHL DUP7 MSTORE PUSH1 0x21 PUSH1 0x4 MSTORE PUSH1 0x24 DUP7 REVERT JUMPDEST POP POP POP POP POP SWAP1 JUMP INVALID LOG2 PUSH5 0x6970667358 0x22 SLT KECCAK256 SWAP8 0x4F 0xEF DUP10 SWAP12 CALLER 0xD4 JUMPDEST 0xEE CHAINID LT 0xB9 0xD5 0xF8 PUSH9 0x1B3A0411DE795C8F8E 0xCF 0xE8 SWAP10 PUSH4 0x361CA561 PUSH5 0x736F6C6343 STOP ADDMOD EQ STOP CALLER "},"methodIdentifiers":{"BASIS_POINTS()":"e1f1c4a7","LIQUIDATION_FEE_BPS()":"518e8dfc","LIQUIDATION_THRESHOLD()":"90a8ae9b","PRIVATE_ASSET_LTV()":"d79873b9","RWA_LTV()":"761c5f0a","borrowUSDC(uint256,uint256,uint256,uint256)":"4d111a05","depositCollateral(address,uint256,uint256,uint8,bool)":"0bae9ef9","getHealthFactor(uint256)":"17845c69","getMaxBorrow(uint256)":"7b5210d8","getPosition(uint256)":"eb02c301","getRepaymentPlan(uint256)":"fea58e83","liquidatePosition(uint256)":"cdddd4e5","nextPositionId()":"899346c7","oaid()":"2be04392","owner()":"8da5cb5b","positions(uint256)":"99fbab88","positionsInLiquidation(uint256)":"16ef1729","primaryMarket()":"1e77ceda","purchaseAndSettleLiquidation(uint256,uint256)":"5403bc4a","renounceOwnership()":"715018a6","repayLoan(uint256,uint256)":"8a700b53","repaymentPlans(uint256)":"a53ae06b","seniorPool()":"f416fc1c","setOAID(address)":"6c320cb0","setPrimaryMarket(address)":"e2dc3666","setYieldVault(address)":"137c3f69","settleLiquidation(uint256)":"837c2a61","transferOwnership(address)":"f2fde38b","usdc()":"3e413bee","withdrawCollateral(uint256,uint256)":"767a7b05","yieldVault()":"a7f8a5e2"}}}}}