{"contracts/integrations/FluxionIntegration.sol":{"FluxionIntegration":{"abi":[{"inputs":[{"internalType":"address","name":"_mETH","type":"address"},{"internalType":"address","name":"_usdc","type":"address"},{"internalType":"address","name":"_dex","type":"address"},{"internalType":"address","name":"_priceOracle","type":"address"}],"stateMutability":"nonpayable","type":"constructor"},{"inputs":[{"internalType":"address","name":"owner","type":"address"}],"name":"OwnableInvalidOwner","type":"error"},{"inputs":[{"internalType":"address","name":"account","type":"address"}],"name":"OwnableUnauthorizedAccount","type":"error"},{"inputs":[],"name":"ReentrancyGuardReentrantCall","type":"error"},{"anonymous":false,"inputs":[{"indexed":true,"internalType":"address","name":"previousOwner","type":"address"},{"indexed":true,"internalType":"address","name":"newOwner","type":"address"}],"name":"OwnershipTransferred","type":"event"},{"anonymous":false,"inputs":[{"indexed":false,"internalType":"bool","name":"paused","type":"bool"}],"name":"PausedUpdated","type":"event"},{"anonymous":false,"inputs":[{"indexed":false,"internalType":"uint256","name":"expected","type":"uint256"},{"indexed":false,"internalType":"uint256","name":"actual","type":"uint256"},{"indexed":false,"internalType":"uint256","name":"slippage","type":"uint256"}],"name":"SlippageExceeded","type":"event"},{"anonymous":false,"inputs":[{"indexed":true,"internalType":"uint256","name":"timestamp","type":"uint256"},{"indexed":false,"internalType":"uint256","name":"mETHAmount","type":"uint256"},{"indexed":false,"internalType":"uint256","name":"usdcReceived","type":"uint256"},{"indexed":false,"internalType":"uint256","name":"effectiveRate","type":"uint256"}],"name":"SwapExecuted","type":"event"},{"inputs":[],"name":"BASIS_POINTS","outputs":[{"internalType":"uint256","name":"","type":"uint256"}],"stateMutability":"view","type":"function"},{"inputs":[],"name":"MAX_SLIPPAGE","outputs":[{"internalType":"uint256","name":"","type":"uint256"}],"stateMutability":"view","type":"function"},{"inputs":[],"name":"dex","outputs":[{"internalType":"contract IFluxionDEX","name":"","type":"address"}],"stateMutability":"view","type":"function"},{"inputs":[{"internalType":"address","name":"token","type":"address"},{"internalType":"uint256","name":"amount","type":"uint256"}],"name":"emergencyWithdraw","outputs":[],"stateMutability":"nonpayable","type":"function"},{"inputs":[],"name":"getMETHPrice","outputs":[{"internalType":"uint256","name":"","type":"uint256"}],"stateMutability":"view","type":"function"},{"inputs":[{"internalType":"uint256","name":"mETHAmount","type":"uint256"}],"name":"getMETHValueUSD","outputs":[{"internalType":"uint256","name":"","type":"uint256"}],"stateMutability":"view","type":"function"},{"inputs":[{"internalType":"uint256","name":"mETHAmount","type":"uint256"}],"name":"getQuote","outputs":[{"internalType":"uint256","name":"","type":"uint256"}],"stateMutability":"view","type":"function"},{"inputs":[],"name":"getSwapStats","outputs":[{"internalType":"uint256","name":"","type":"uint256"},{"internalType":"uint256","name":"","type":"uint256"},{"internalType":"uint256","name":"","type":"uint256"}],"stateMutability":"view","type":"function"},{"inputs":[],"name":"mETH","outputs":[{"internalType":"contract IERC20","name":"","type":"address"}],"stateMutability":"view","type":"function"},{"inputs":[],"name":"owner","outputs":[{"internalType":"address","name":"","type":"address"}],"stateMutability":"view","type":"function"},{"inputs":[],"name":"paused","outputs":[{"internalType":"bool","name":"","type":"bool"}],"stateMutability":"view","type":"function"},{"inputs":[],"name":"priceOracle","outputs":[{"internalType":"contract IMETHPriceOracle","name":"","type":"address"}],"stateMutability":"view","type":"function"},{"inputs":[],"name":"renounceOwnership","outputs":[],"stateMutability":"nonpayable","type":"function"},{"inputs":[{"internalType":"address","name":"_dex","type":"address"}],"name":"setDEX","outputs":[],"stateMutability":"nonpayable","type":"function"},{"inputs":[{"internalType":"bool","name":"_paused","type":"bool"}],"name":"setPaused","outputs":[],"stateMutability":"nonpayable","type":"function"},{"inputs":[{"internalType":"address","name":"_oracle","type":"address"}],"name":"setPriceOracle","outputs":[],"stateMutability":"nonpayable","type":"function"},{"inputs":[{"internalType":"uint256","name":"mETHAmount","type":"uint256"},{"internalType":"uint256","name":"mETHPriceUSD","type":"uint256"}],"name":"swapMETHToUSDC","outputs":[{"internalType":"uint256","name":"usdcReceived","type":"uint256"}],"stateMutability":"nonpayable","type":"function"},{"inputs":[],"name":"totalMETHSwapped","outputs":[{"internalType":"uint256","name":"","type":"uint256"}],"stateMutability":"view","type":"function"},{"inputs":[],"name":"totalSwapsExecuted","outputs":[{"internalType":"uint256","name":"","type":"uint256"}],"stateMutability":"view","type":"function"},{"inputs":[],"name":"totalUSDCReceived","outputs":[{"internalType":"uint256","name":"","type":"uint256"}],"stateMutability":"view","type":"function"},{"inputs":[{"internalType":"address","name":"newOwner","type":"address"}],"name":"transferOwnership","outputs":[],"stateMutability":"nonpayable","type":"function"},{"inputs":[],"name":"usdc","outputs":[{"internalType":"contract IERC20","name":"","type":"address"}],"stateMutability":"view","type":"function"}],"evm":{"bytecode":{"linkReferences":{},"object":"60803461011c57601f61101238819003918201601f19168301916001600160401b038311848410176101215780849260809460405283398101031261011c5761004781610137565b9061005460208201610137565b61006c606061006560408501610137565b9301610137565b3315610103576000549360018060a01b03199333858716176000556040519560018060a01b03948580948193823391167f8be0079c531659141344cd1fd0a4f28419497f9722a3daafe3b4186f6b6457e0600080a3600180551687600254161760025516856003541617600355168360045416176004551690600554161760055560ff1960095416600955610ec6908161014c8239f35b604051631e4fbdf760e01b815260006004820152602490fd5b600080fd5b634e487b7160e01b600052604160045260246000fd5b51906001600160a01b038216820361011c5756fe60806040908082526004918236101561001757600080fd5b600091823560e01c9081630233d0ce14610cb4575080631302c0ef14610c9657806316c38b3c14610c335780632630c12f14610c0b57806329e8486714610be357806339402b2e14610bc55780633e413bee14610b9d578063530e784f14610b4c5780635c975abb14610b29578063692058c214610b01578063715018a614610aa75780637b66a72314610a5e5780638da5cb5b14610a3757806395ccea671461095f578063acc295f1146108d0578063b913257c146108b2578063cf39918e14610820578063e1f1c4a714610804578063f0032670146107ce578063f2fde38b14610743578063f9759518146107275763fd0b0da01461011757600080fd5b34610723578060031936011261072357823560249384359460026001541461071457600260015560ff600954166106dd5782156106a657851561066f578154845163679cc8c760e11b81528084018590526020976001600160a01b0392899083908690829087165afa918215610665578892610632575b508115610600576101ad6c0c9f2c9cd04674edea400000009187610e38565b04808211156105d0576101c08183610e15565b612710908181029181830414901517156105be576105dc916101e191610e4b565b1161057c576125e481026125e3198282040161056a578789846002541660648a51809481936323b872dd60e01b8352338c840152308b8401528c60448401525af190811561050a57899161054d575b5015610514576002548554885163095ea7b360e01b81529085166001600160a01b03168188019081526020810189905290918b91839187169082908d90829060400103925af1801561050a579089949392916104ed575b50898387541660448a51809c8193631bc8222160e01b83528c8c8401526127108097048b8401525af19889156104e35784996104b0575b506102c98983610e15565b81810291818304149015171561049d5761012c916102e691610e4b565b116104675760065460001981146104555760010160065561030985600754610e83565b60075561031887600854610e83565b600855600354865163a9059cbb60e01b815233868201908152602081018a905290928a9284928390036040019183918791165af190811561044b57829161041e575b50156103e557670de0b6b3a7640000928387029387850414871517156103d5575050506103c86103ab837fabed9c2bf91a3043c0b147978b27b3272de63d4ccdcbcb8ba15ff32b078c5be393610e4b565b845193845260208401869052604084015242929081906060820190565b0390a26001805551908152f35b634e487b7160e01b825260119052fd5b845162461bcd60e51b8152808401889052601481840152731554d110c81d1c985b9cd9995c8819985a5b195960621b6044820152606490fd5b61043e9150883d8a11610444575b6104368183610ddd565b810190610e6b565b3861035a565b503d61042c565b86513d84823e3d90fd5b5050634e487b7160e01b815260118352fd5b855162461bcd60e51b81528085018990526011818501527014db1a5c1c1859d948195e18d959591959607a1b6044820152606490fd5b5050634e487b7160e01b82525060118352fd5b9098508981813d83116104dc575b6104c88183610ddd565b810103126104d8575197386102be565b8380fd5b503d6104be565b88513d86823e3d90fd5b610503908b3d8d11610444576104368183610ddd565b5038610287565b88513d8b823e3d90fd5b865162461bcd60e51b81528086018a9052601481860152731b515512081d1c985b9cd9995c8819985a5b195960621b6044820152606490fd5b61056491508a3d8c11610444576104368183610ddd565b38610230565b634e487b7160e01b8852601185528388fd5b855162461bcd60e51b81528085018990526018818501527f507269636520646576696174696f6e20746f6f206869676800000000000000006044820152606490fd5b634e487b7160e01b8952601186528489fd5b6105da8282610e15565b612710908181029181830414901517156105be576105dc916105fb91610e4b565b6101e1565b865162461bcd60e51b81528086018a9052600d818601526c496e76616c69642071756f746560981b6044820152606490fd5b9091508881813d831161065e575b61064a8183610ddd565b8101031261065a5751903861018e565b8780fd5b503d610640565b87513d8a823e3d90fd5b906012606492602086519362461bcd60e51b855284015282015271496e76616c6964206d45544820707269636560701b6044820152fd5b906012606492602086519362461bcd60e51b8552840152820152710416d6f756e74206d757374206265203e20360741b6044820152fd5b906012606492602086519362461bcd60e51b85528401528201527110dbdb9d1c9858dd081a5cc81c185d5cd95960721b6044820152fd5b508251633ee5aeb560e01b8152fd5b5080fd5b50346107235781600319360112610723576020905161012c8152f35b5082346107ca5760203660031901126107ca5761075e610d58565b90610767610d73565b6001600160a01b039182169283156107b457505082546001600160a01b0319811683178455167f8be0079c531659141344cd1fd0a4f28419497f9722a3daafe3b4186f6b6457e08380a380f35b51631e4fbdf760e01b8152908101849052602490fd5b8280fd5b50903461080157806003193601126108015750600654600754600854925191825260208201526040810191909152606090f35b80fd5b5034610723578160031936011261072357602090516127108152f35b503461072357602092836003193601126107ca578054825163679cc8c760e11b81528235928101929092528490829060249082906001600160a01b03165afa9283156108a7578093610875575b505051908152f35b909192508382813d83116108a0575b61088e8183610ddd565b8101031261080157505190388061086d565b503d610884565b8251903d90823e3d90fd5b50346107235781600319360112610723576020906006549051908152f35b508290346107ca57826003193601126107ca576005548151634c6afee560e11b81529260209184919082906001600160a01b03165afa91821561095557839261091e575b6020838351908152f35b9091506020813d821161094d575b8161093960209383610ddd565b810103126107ca5760209250519083610914565b3d915061092c565b81513d85823e3d90fd5b508290346107ca57806003193601126107ca5761097a610d58565b610982610d73565b8354825163a9059cbb60e01b81526001600160a01b03918216858201908152602435602082810191909152919391928492918391899183906040010393165af1908115610a2d578491610a0f575b50156109da578280f35b906020606492519162461bcd60e51b8352820152600f60248201526e151c985b9cd9995c8819985a5b1959608a1b6044820152fd5b610a27915060203d8111610444576104368183610ddd565b846109d0565b82513d86823e3d90fd5b5034610723578160031936011261072357905490516001600160a01b039091168152602090f35b82843461072357602036600319011261072357610a79610d58565b610a81610d73565b6001600160a01b0316610a95811515610d9f565b81546001600160a01b03191617905580f35b8234610801578060031936011261080157610ac0610d73565b80546001600160a01b03198116825581906001600160a01b03167f8be0079c531659141344cd1fd0a4f28419497f9722a3daafe3b4186f6b6457e08280a380f35b5082346107ca57826003193601126107ca575490516001600160a01b03909116815260209150f35b503461072357816003193601126107235760209060ff6009541690519015158152f35b823461080157602036600319011261080157610b66610d58565b610b6e610d73565b6001600160a01b0316610b82811515610d9f565b6bffffffffffffffffffffffff60a01b600554161760055580f35b503461072357816003193601126107235760035490516001600160a01b039091168152602090f35b50346107235781600319360112610723576020906008549051908152f35b503461072357816003193601126107235760025490516001600160a01b039091168152602090f35b503461072357816003193601126107235760055490516001600160a01b039091168152602090f35b5082346107ca5760203660031901126107ca5735908115158092036107ca577f31311016d7204faff81880133e3db244ae8a8b9ce15e83e2432258226d15f94291602091610c7f610d73565b60ff196009541660ff83161760095551908152a180f35b50346107235781600319360112610723576020906007549051908152f35b82858534610801576020938460031936011261072357600554634c6afee560e11b825285908290859082906001600160a01b03165afa918215610d4d578092610d1b575b5050610d13906c0c9f2c9cd04674edea400000009235610e38565b049051908152f35b9091508482813d8311610d46575b610d338183610ddd565b8101031261080157505181610d13610cf8565b503d610d29565b8451903d90823e3d90fd5b600435906001600160a01b0382168203610d6e57565b600080fd5b6000546001600160a01b03163303610d8757565b60405163118cdaa760e01b8152336004820152602490fd5b15610da657565b60405162461bcd60e51b815260206004820152600f60248201526e496e76616c6964206164647265737360881b6044820152606490fd5b90601f8019910116810190811067ffffffffffffffff821117610dff57604052565b634e487b7160e01b600052604160045260246000fd5b91908203918211610e2257565b634e487b7160e01b600052601160045260246000fd5b81810292918115918404141715610e2257565b8115610e55570490565b634e487b7160e01b600052601260045260246000fd5b90816020910312610d6e57518015158103610d6e5790565b91908201809211610e225756fea26469706673582212200e4c9a358d9718bb2cafc5818ffc33a7b1057de661635ee10e884ebeb6a7b9c464736f6c63430008140033","opcodes":"PUSH1 0x80 CALLVALUE PUSH2 0x11C JUMPI PUSH1 0x1F PUSH2 0x1012 CODESIZE DUP2 SWAP1 SUB SWAP2 DUP3 ADD PUSH1 0x1F NOT AND DUP4 ADD SWAP2 PUSH1 0x1 PUSH1 0x1 PUSH1 0x40 SHL SUB DUP4 GT DUP5 DUP5 LT OR PUSH2 0x121 JUMPI DUP1 DUP5 SWAP3 PUSH1 0x80 SWAP5 PUSH1 0x40 MSTORE DUP4 CODECOPY DUP2 ADD SUB SLT PUSH2 0x11C JUMPI PUSH2 0x47 DUP2 PUSH2 0x137 JUMP JUMPDEST SWAP1 PUSH2 0x54 PUSH1 0x20 DUP3 ADD PUSH2 0x137 JUMP JUMPDEST PUSH2 0x6C PUSH1 0x60 PUSH2 0x65 PUSH1 0x40 DUP6 ADD PUSH2 0x137 JUMP JUMPDEST SWAP4 ADD PUSH2 0x137 JUMP JUMPDEST CALLER ISZERO PUSH2 0x103 JUMPI PUSH1 0x0 SLOAD SWAP4 PUSH1 0x1 DUP1 PUSH1 0xA0 SHL SUB NOT SWAP4 CALLER DUP6 DUP8 AND OR PUSH1 0x0 SSTORE PUSH1 0x40 MLOAD SWAP6 PUSH1 0x1 DUP1 PUSH1 0xA0 SHL SUB SWAP5 DUP6 DUP1 SWAP5 DUP2 SWAP4 DUP3 CALLER SWAP2 AND PUSH32 0x8BE0079C531659141344CD1FD0A4F28419497F9722A3DAAFE3B4186F6B6457E0 PUSH1 0x0 DUP1 LOG3 PUSH1 0x1 DUP1 SSTORE AND DUP8 PUSH1 0x2 SLOAD AND OR PUSH1 0x2 SSTORE AND DUP6 PUSH1 0x3 SLOAD AND OR PUSH1 0x3 SSTORE AND DUP4 PUSH1 0x4 SLOAD AND OR PUSH1 0x4 SSTORE AND SWAP1 PUSH1 0x5 SLOAD AND OR PUSH1 0x5 SSTORE PUSH1 0xFF NOT PUSH1 0x9 SLOAD AND PUSH1 0x9 SSTORE PUSH2 0xEC6 SWAP1 DUP2 PUSH2 0x14C DUP3 CODECOPY RETURN JUMPDEST PUSH1 0x40 MLOAD PUSH4 0x1E4FBDF7 PUSH1 0xE0 SHL DUP2 MSTORE PUSH1 0x0 PUSH1 0x4 DUP3 ADD MSTORE PUSH1 0x24 SWAP1 REVERT JUMPDEST PUSH1 0x0 DUP1 REVERT JUMPDEST PUSH4 0x4E487B71 PUSH1 0xE0 SHL PUSH1 0x0 MSTORE PUSH1 0x41 PUSH1 0x4 MSTORE PUSH1 0x24 PUSH1 0x0 REVERT JUMPDEST MLOAD SWAP1 PUSH1 0x1 PUSH1 0x1 PUSH1 0xA0 SHL SUB DUP3 AND DUP3 SUB PUSH2 0x11C JUMPI JUMP INVALID PUSH1 0x80 PUSH1 0x40 SWAP1 DUP1 DUP3 MSTORE PUSH1 0x4 SWAP2 DUP3 CALLDATASIZE LT ISZERO PUSH2 0x17 JUMPI PUSH1 0x0 DUP1 REVERT JUMPDEST PUSH1 0x0 SWAP2 DUP3 CALLDATALOAD PUSH1 0xE0 SHR SWAP1 DUP2 PUSH4 0x233D0CE EQ PUSH2 0xCB4 JUMPI POP DUP1 PUSH4 0x1302C0EF EQ PUSH2 0xC96 JUMPI DUP1 PUSH4 0x16C38B3C EQ PUSH2 0xC33 JUMPI DUP1 PUSH4 0x2630C12F EQ PUSH2 0xC0B JUMPI DUP1 PUSH4 0x29E84867 EQ PUSH2 0xBE3 JUMPI DUP1 PUSH4 0x39402B2E EQ PUSH2 0xBC5 JUMPI DUP1 PUSH4 0x3E413BEE EQ PUSH2 0xB9D JUMPI DUP1 PUSH4 0x530E784F EQ PUSH2 0xB4C JUMPI DUP1 PUSH4 0x5C975ABB EQ PUSH2 0xB29 JUMPI DUP1 PUSH4 0x692058C2 EQ PUSH2 0xB01 JUMPI DUP1 PUSH4 0x715018A6 EQ PUSH2 0xAA7 JUMPI DUP1 PUSH4 0x7B66A723 EQ PUSH2 0xA5E JUMPI DUP1 PUSH4 0x8DA5CB5B EQ PUSH2 0xA37 JUMPI DUP1 PUSH4 0x95CCEA67 EQ PUSH2 0x95F JUMPI DUP1 PUSH4 0xACC295F1 EQ PUSH2 0x8D0 JUMPI DUP1 PUSH4 0xB913257C EQ PUSH2 0x8B2 JUMPI DUP1 PUSH4 0xCF39918E EQ PUSH2 0x820 JUMPI DUP1 PUSH4 0xE1F1C4A7 EQ PUSH2 0x804 JUMPI DUP1 PUSH4 0xF0032670 EQ PUSH2 0x7CE JUMPI DUP1 PUSH4 0xF2FDE38B EQ PUSH2 0x743 JUMPI DUP1 PUSH4 0xF9759518 EQ PUSH2 0x727 JUMPI PUSH4 0xFD0B0DA0 EQ PUSH2 0x117 JUMPI PUSH1 0x0 DUP1 REVERT JUMPDEST CALLVALUE PUSH2 0x723 JUMPI DUP1 PUSH1 0x3 NOT CALLDATASIZE ADD SLT PUSH2 0x723 JUMPI DUP3 CALLDATALOAD PUSH1 0x24 SWAP4 DUP5 CALLDATALOAD SWAP5 PUSH1 0x2 PUSH1 0x1 SLOAD EQ PUSH2 0x714 JUMPI PUSH1 0x2 PUSH1 0x1 SSTORE PUSH1 0xFF PUSH1 0x9 SLOAD AND PUSH2 0x6DD JUMPI DUP3 ISZERO PUSH2 0x6A6 JUMPI DUP6 ISZERO PUSH2 0x66F JUMPI DUP2 SLOAD DUP5 MLOAD PUSH4 0x679CC8C7 PUSH1 0xE1 SHL DUP2 MSTORE DUP1 DUP5 ADD DUP6 SWAP1 MSTORE PUSH1 0x20 SWAP8 PUSH1 0x1 PUSH1 0x1 PUSH1 0xA0 SHL SUB SWAP3 DUP10 SWAP1 DUP4 SWAP1 DUP7 SWAP1 DUP3 SWAP1 DUP8 AND GAS STATICCALL SWAP2 DUP3 ISZERO PUSH2 0x665 JUMPI DUP9 SWAP3 PUSH2 0x632 JUMPI JUMPDEST POP DUP2 ISZERO PUSH2 0x600 JUMPI PUSH2 0x1AD PUSH13 0xC9F2C9CD04674EDEA40000000 SWAP2 DUP8 PUSH2 0xE38 JUMP JUMPDEST DIV DUP1 DUP3 GT ISZERO PUSH2 0x5D0 JUMPI PUSH2 0x1C0 DUP2 DUP4 PUSH2 0xE15 JUMP JUMPDEST PUSH2 0x2710 SWAP1 DUP2 DUP2 MUL SWAP2 DUP2 DUP4 DIV EQ SWAP1 ISZERO OR ISZERO PUSH2 0x5BE JUMPI PUSH2 0x5DC SWAP2 PUSH2 0x1E1 SWAP2 PUSH2 0xE4B JUMP JUMPDEST GT PUSH2 0x57C JUMPI PUSH2 0x25E4 DUP2 MUL PUSH2 0x25E3 NOT DUP3 DUP3 DIV ADD PUSH2 0x56A JUMPI DUP8 DUP10 DUP5 PUSH1 0x2 SLOAD AND PUSH1 0x64 DUP11 MLOAD DUP1 SWAP5 DUP2 SWAP4 PUSH4 0x23B872DD PUSH1 0xE0 SHL DUP4 MSTORE CALLER DUP13 DUP5 ADD MSTORE ADDRESS DUP12 DUP5 ADD MSTORE DUP13 PUSH1 0x44 DUP5 ADD MSTORE GAS CALL SWAP1 DUP2 ISZERO PUSH2 0x50A JUMPI DUP10 SWAP2 PUSH2 0x54D JUMPI JUMPDEST POP ISZERO PUSH2 0x514 JUMPI PUSH1 0x2 SLOAD DUP6 SLOAD DUP9 MLOAD PUSH4 0x95EA7B3 PUSH1 0xE0 SHL DUP2 MSTORE SWAP1 DUP6 AND PUSH1 0x1 PUSH1 0x1 PUSH1 0xA0 SHL SUB AND DUP2 DUP9 ADD SWAP1 DUP2 MSTORE PUSH1 0x20 DUP2 ADD DUP10 SWAP1 MSTORE SWAP1 SWAP2 DUP12 SWAP2 DUP4 SWAP2 DUP8 AND SWAP1 DUP3 SWAP1 DUP14 SWAP1 DUP3 SWAP1 PUSH1 0x40 ADD SUB SWAP3 GAS CALL DUP1 ISZERO PUSH2 0x50A JUMPI SWAP1 DUP10 SWAP5 SWAP4 SWAP3 SWAP2 PUSH2 0x4ED JUMPI JUMPDEST POP DUP10 DUP4 DUP8 SLOAD AND PUSH1 0x44 DUP11 MLOAD DUP1 SWAP13 DUP2 SWAP4 PUSH4 0x1BC82221 PUSH1 0xE0 SHL DUP4 MSTORE DUP13 DUP13 DUP5 ADD MSTORE PUSH2 0x2710 DUP1 SWAP8 DIV DUP12 DUP5 ADD MSTORE GAS CALL SWAP9 DUP10 ISZERO PUSH2 0x4E3 JUMPI DUP5 SWAP10 PUSH2 0x4B0 JUMPI JUMPDEST POP PUSH2 0x2C9 DUP10 DUP4 PUSH2 0xE15 JUMP JUMPDEST DUP2 DUP2 MUL SWAP2 DUP2 DUP4 DIV EQ SWAP1 ISZERO OR ISZERO PUSH2 0x49D JUMPI PUSH2 0x12C SWAP2 PUSH2 0x2E6 SWAP2 PUSH2 0xE4B JUMP JUMPDEST GT PUSH2 0x467 JUMPI PUSH1 0x6 SLOAD PUSH1 0x0 NOT DUP2 EQ PUSH2 0x455 JUMPI PUSH1 0x1 ADD PUSH1 0x6 SSTORE PUSH2 0x309 DUP6 PUSH1 0x7 SLOAD PUSH2 0xE83 JUMP JUMPDEST PUSH1 0x7 SSTORE PUSH2 0x318 DUP8 PUSH1 0x8 SLOAD PUSH2 0xE83 JUMP JUMPDEST PUSH1 0x8 SSTORE PUSH1 0x3 SLOAD DUP7 MLOAD PUSH4 0xA9059CBB PUSH1 0xE0 SHL DUP2 MSTORE CALLER DUP7 DUP3 ADD SWAP1 DUP2 MSTORE PUSH1 0x20 DUP2 ADD DUP11 SWAP1 MSTORE SWAP1 SWAP3 DUP11 SWAP3 DUP5 SWAP3 DUP4 SWAP1 SUB PUSH1 0x40 ADD SWAP2 DUP4 SWAP2 DUP8 SWAP2 AND GAS CALL SWAP1 DUP2 ISZERO PUSH2 0x44B JUMPI DUP3 SWAP2 PUSH2 0x41E JUMPI JUMPDEST POP ISZERO PUSH2 0x3E5 JUMPI PUSH8 0xDE0B6B3A7640000 SWAP3 DUP4 DUP8 MUL SWAP4 DUP8 DUP6 DIV EQ DUP8 ISZERO OR ISZERO PUSH2 0x3D5 JUMPI POP POP POP PUSH2 0x3C8 PUSH2 0x3AB DUP4 PUSH32 0xABED9C2BF91A3043C0B147978B27B3272DE63D4CCDCBCB8BA15FF32B078C5BE3 SWAP4 PUSH2 0xE4B JUMP JUMPDEST DUP5 MLOAD SWAP4 DUP5 MSTORE PUSH1 0x20 DUP5 ADD DUP7 SWAP1 MSTORE PUSH1 0x40 DUP5 ADD MSTORE TIMESTAMP SWAP3 SWAP1 DUP2 SWAP1 PUSH1 0x60 DUP3 ADD SWAP1 JUMP JUMPDEST SUB SWAP1 LOG2 PUSH1 0x1 DUP1 SSTORE MLOAD SWAP1 DUP2 MSTORE RETURN JUMPDEST PUSH4 0x4E487B71 PUSH1 0xE0 SHL DUP3 MSTORE PUSH1 0x11 SWAP1 MSTORE REVERT JUMPDEST DUP5 MLOAD PUSH3 0x461BCD PUSH1 0xE5 SHL DUP2 MSTORE DUP1 DUP5 ADD DUP9 SWAP1 MSTORE PUSH1 0x14 DUP2 DUP5 ADD MSTORE PUSH20 0x1554D110C81D1C985B9CD9995C8819985A5B1959 PUSH1 0x62 SHL PUSH1 0x44 DUP3 ADD MSTORE PUSH1 0x64 SWAP1 REVERT JUMPDEST PUSH2 0x43E SWAP2 POP DUP9 RETURNDATASIZE DUP11 GT PUSH2 0x444 JUMPI JUMPDEST PUSH2 0x436 DUP2 DUP4 PUSH2 0xDDD JUMP JUMPDEST DUP2 ADD SWAP1 PUSH2 0xE6B JUMP JUMPDEST CODESIZE PUSH2 0x35A JUMP JUMPDEST POP RETURNDATASIZE PUSH2 0x42C JUMP JUMPDEST DUP7 MLOAD RETURNDATASIZE DUP5 DUP3 RETURNDATACOPY RETURNDATASIZE SWAP1 REVERT JUMPDEST POP POP PUSH4 0x4E487B71 PUSH1 0xE0 SHL DUP2 MSTORE PUSH1 0x11 DUP4 MSTORE REVERT JUMPDEST DUP6 MLOAD PUSH3 0x461BCD PUSH1 0xE5 SHL DUP2 MSTORE DUP1 DUP6 ADD DUP10 SWAP1 MSTORE PUSH1 0x11 DUP2 DUP6 ADD MSTORE PUSH17 0x14DB1A5C1C1859D948195E18D959591959 PUSH1 0x7A SHL PUSH1 0x44 DUP3 ADD MSTORE PUSH1 0x64 SWAP1 REVERT JUMPDEST POP POP PUSH4 0x4E487B71 PUSH1 0xE0 SHL DUP3 MSTORE POP PUSH1 0x11 DUP4 MSTORE REVERT JUMPDEST SWAP1 SWAP9 POP DUP10 DUP2 DUP2 RETURNDATASIZE DUP4 GT PUSH2 0x4DC JUMPI JUMPDEST PUSH2 0x4C8 DUP2 DUP4 PUSH2 0xDDD JUMP JUMPDEST DUP2 ADD SUB SLT PUSH2 0x4D8 JUMPI MLOAD SWAP8 CODESIZE PUSH2 0x2BE JUMP JUMPDEST DUP4 DUP1 REVERT JUMPDEST POP RETURNDATASIZE PUSH2 0x4BE JUMP JUMPDEST DUP9 MLOAD RETURNDATASIZE DUP7 DUP3 RETURNDATACOPY RETURNDATASIZE SWAP1 REVERT JUMPDEST PUSH2 0x503 SWAP1 DUP12 RETURNDATASIZE DUP14 GT PUSH2 0x444 JUMPI PUSH2 0x436 DUP2 DUP4 PUSH2 0xDDD JUMP JUMPDEST POP CODESIZE PUSH2 0x287 JUMP JUMPDEST DUP9 MLOAD RETURNDATASIZE DUP12 DUP3 RETURNDATACOPY RETURNDATASIZE SWAP1 REVERT JUMPDEST DUP7 MLOAD PUSH3 0x461BCD PUSH1 0xE5 SHL DUP2 MSTORE DUP1 DUP7 ADD DUP11 SWAP1 MSTORE PUSH1 0x14 DUP2 DUP7 ADD MSTORE PUSH20 0x1B515512081D1C985B9CD9995C8819985A5B1959 PUSH1 0x62 SHL PUSH1 0x44 DUP3 ADD MSTORE PUSH1 0x64 SWAP1 REVERT JUMPDEST PUSH2 0x564 SWAP2 POP DUP11 RETURNDATASIZE DUP13 GT PUSH2 0x444 JUMPI PUSH2 0x436 DUP2 DUP4 PUSH2 0xDDD JUMP JUMPDEST CODESIZE PUSH2 0x230 JUMP JUMPDEST PUSH4 0x4E487B71 PUSH1 0xE0 SHL DUP9 MSTORE PUSH1 0x11 DUP6 MSTORE DUP4 DUP9 REVERT JUMPDEST DUP6 MLOAD PUSH3 0x461BCD PUSH1 0xE5 SHL DUP2 MSTORE DUP1 DUP6 ADD DUP10 SWAP1 MSTORE PUSH1 0x18 DUP2 DUP6 ADD MSTORE PUSH32 0x507269636520646576696174696F6E20746F6F20686967680000000000000000 PUSH1 0x44 DUP3 ADD MSTORE PUSH1 0x64 SWAP1 REVERT JUMPDEST PUSH4 0x4E487B71 PUSH1 0xE0 SHL DUP10 MSTORE PUSH1 0x11 DUP7 MSTORE DUP5 DUP10 REVERT JUMPDEST PUSH2 0x5DA DUP3 DUP3 PUSH2 0xE15 JUMP JUMPDEST PUSH2 0x2710 SWAP1 DUP2 DUP2 MUL SWAP2 DUP2 DUP4 DIV EQ SWAP1 ISZERO OR ISZERO PUSH2 0x5BE JUMPI PUSH2 0x5DC SWAP2 PUSH2 0x5FB SWAP2 PUSH2 0xE4B JUMP JUMPDEST PUSH2 0x1E1 JUMP JUMPDEST DUP7 MLOAD PUSH3 0x461BCD PUSH1 0xE5 SHL DUP2 MSTORE DUP1 DUP7 ADD DUP11 SWAP1 MSTORE PUSH1 0xD DUP2 DUP7 ADD MSTORE PUSH13 0x496E76616C69642071756F7465 PUSH1 0x98 SHL PUSH1 0x44 DUP3 ADD MSTORE PUSH1 0x64 SWAP1 REVERT JUMPDEST SWAP1 SWAP2 POP DUP9 DUP2 DUP2 RETURNDATASIZE DUP4 GT PUSH2 0x65E JUMPI JUMPDEST PUSH2 0x64A DUP2 DUP4 PUSH2 0xDDD JUMP JUMPDEST DUP2 ADD SUB SLT PUSH2 0x65A JUMPI MLOAD SWAP1 CODESIZE PUSH2 0x18E JUMP JUMPDEST DUP8 DUP1 REVERT JUMPDEST POP RETURNDATASIZE PUSH2 0x640 JUMP JUMPDEST DUP8 MLOAD RETURNDATASIZE DUP11 DUP3 RETURNDATACOPY RETURNDATASIZE SWAP1 REVERT JUMPDEST SWAP1 PUSH1 0x12 PUSH1 0x64 SWAP3 PUSH1 0x20 DUP7 MLOAD SWAP4 PUSH3 0x461BCD PUSH1 0xE5 SHL DUP6 MSTORE DUP5 ADD MSTORE DUP3 ADD MSTORE PUSH18 0x496E76616C6964206D455448207072696365 PUSH1 0x70 SHL PUSH1 0x44 DUP3 ADD MSTORE REVERT JUMPDEST SWAP1 PUSH1 0x12 PUSH1 0x64 SWAP3 PUSH1 0x20 DUP7 MLOAD SWAP4 PUSH3 0x461BCD PUSH1 0xE5 SHL DUP6 MSTORE DUP5 ADD MSTORE DUP3 ADD MSTORE PUSH18 0x416D6F756E74206D757374206265203E203 PUSH1 0x74 SHL PUSH1 0x44 DUP3 ADD MSTORE REVERT JUMPDEST SWAP1 PUSH1 0x12 PUSH1 0x64 SWAP3 PUSH1 0x20 DUP7 MLOAD SWAP4 PUSH3 0x461BCD PUSH1 0xE5 SHL DUP6 MSTORE DUP5 ADD MSTORE DUP3 ADD MSTORE PUSH18 0x10DBDB9D1C9858DD081A5CC81C185D5CD959 PUSH1 0x72 SHL PUSH1 0x44 DUP3 ADD MSTORE REVERT JUMPDEST POP DUP3 MLOAD PUSH4 0x3EE5AEB5 PUSH1 0xE0 SHL DUP2 MSTORE REVERT JUMPDEST POP DUP1 REVERT JUMPDEST POP CALLVALUE PUSH2 0x723 JUMPI DUP2 PUSH1 0x3 NOT CALLDATASIZE ADD SLT PUSH2 0x723 JUMPI PUSH1 0x20 SWAP1 MLOAD PUSH2 0x12C DUP2 MSTORE RETURN JUMPDEST POP DUP3 CALLVALUE PUSH2 0x7CA JUMPI PUSH1 0x20 CALLDATASIZE PUSH1 0x3 NOT ADD SLT PUSH2 0x7CA JUMPI PUSH2 0x75E PUSH2 0xD58 JUMP JUMPDEST SWAP1 PUSH2 0x767 PUSH2 0xD73 JUMP JUMPDEST PUSH1 0x1 PUSH1 0x1 PUSH1 0xA0 SHL SUB SWAP2 DUP3 AND SWAP3 DUP4 ISZERO PUSH2 0x7B4 JUMPI POP POP DUP3 SLOAD PUSH1 0x1 PUSH1 0x1 PUSH1 0xA0 SHL SUB NOT DUP2 AND DUP4 OR DUP5 SSTORE AND PUSH32 0x8BE0079C531659141344CD1FD0A4F28419497F9722A3DAAFE3B4186F6B6457E0 DUP4 DUP1 LOG3 DUP1 RETURN JUMPDEST MLOAD PUSH4 0x1E4FBDF7 PUSH1 0xE0 SHL DUP2 MSTORE SWAP1 DUP2 ADD DUP5 SWAP1 MSTORE PUSH1 0x24 SWAP1 REVERT JUMPDEST DUP3 DUP1 REVERT JUMPDEST POP SWAP1 CALLVALUE PUSH2 0x801 JUMPI DUP1 PUSH1 0x3 NOT CALLDATASIZE ADD SLT PUSH2 0x801 JUMPI POP PUSH1 0x6 SLOAD PUSH1 0x7 SLOAD PUSH1 0x8 SLOAD SWAP3 MLOAD SWAP2 DUP3 MSTORE PUSH1 0x20 DUP3 ADD MSTORE PUSH1 0x40 DUP2 ADD SWAP2 SWAP1 SWAP2 MSTORE PUSH1 0x60 SWAP1 RETURN JUMPDEST DUP1 REVERT JUMPDEST POP CALLVALUE PUSH2 0x723 JUMPI DUP2 PUSH1 0x3 NOT CALLDATASIZE ADD SLT PUSH2 0x723 JUMPI PUSH1 0x20 SWAP1 MLOAD PUSH2 0x2710 DUP2 MSTORE RETURN JUMPDEST POP CALLVALUE PUSH2 0x723 JUMPI PUSH1 0x20 SWAP3 DUP4 PUSH1 0x3 NOT CALLDATASIZE ADD SLT PUSH2 0x7CA JUMPI DUP1 SLOAD DUP3 MLOAD PUSH4 0x679CC8C7 PUSH1 0xE1 SHL DUP2 MSTORE DUP3 CALLDATALOAD SWAP3 DUP2 ADD SWAP3 SWAP1 SWAP3 MSTORE DUP5 SWAP1 DUP3 SWAP1 PUSH1 0x24 SWAP1 DUP3 SWAP1 PUSH1 0x1 PUSH1 0x1 PUSH1 0xA0 SHL SUB AND GAS STATICCALL SWAP3 DUP4 ISZERO PUSH2 0x8A7 JUMPI DUP1 SWAP4 PUSH2 0x875 JUMPI JUMPDEST POP POP MLOAD SWAP1 DUP2 MSTORE RETURN JUMPDEST SWAP1 SWAP2 SWAP3 POP DUP4 DUP3 DUP2 RETURNDATASIZE DUP4 GT PUSH2 0x8A0 JUMPI JUMPDEST PUSH2 0x88E DUP2 DUP4 PUSH2 0xDDD JUMP JUMPDEST DUP2 ADD SUB SLT PUSH2 0x801 JUMPI POP MLOAD SWAP1 CODESIZE DUP1 PUSH2 0x86D JUMP JUMPDEST POP RETURNDATASIZE PUSH2 0x884 JUMP JUMPDEST DUP3 MLOAD SWAP1 RETURNDATASIZE SWAP1 DUP3 RETURNDATACOPY RETURNDATASIZE SWAP1 REVERT JUMPDEST POP CALLVALUE PUSH2 0x723 JUMPI DUP2 PUSH1 0x3 NOT CALLDATASIZE ADD SLT PUSH2 0x723 JUMPI PUSH1 0x20 SWAP1 PUSH1 0x6 SLOAD SWAP1 MLOAD SWAP1 DUP2 MSTORE RETURN JUMPDEST POP DUP3 SWAP1 CALLVALUE PUSH2 0x7CA JUMPI DUP3 PUSH1 0x3 NOT CALLDATASIZE ADD SLT PUSH2 0x7CA JUMPI PUSH1 0x5 SLOAD DUP2 MLOAD PUSH4 0x4C6AFEE5 PUSH1 0xE1 SHL DUP2 MSTORE SWAP3 PUSH1 0x20 SWAP2 DUP5 SWAP2 SWAP1 DUP3 SWAP1 PUSH1 0x1 PUSH1 0x1 PUSH1 0xA0 SHL SUB AND GAS STATICCALL SWAP2 DUP3 ISZERO PUSH2 0x955 JUMPI DUP4 SWAP3 PUSH2 0x91E JUMPI JUMPDEST PUSH1 0x20 DUP4 DUP4 MLOAD SWAP1 DUP2 MSTORE RETURN JUMPDEST SWAP1 SWAP2 POP PUSH1 0x20 DUP2 RETURNDATASIZE DUP3 GT PUSH2 0x94D JUMPI JUMPDEST DUP2 PUSH2 0x939 PUSH1 0x20 SWAP4 DUP4 PUSH2 0xDDD JUMP JUMPDEST DUP2 ADD SUB SLT PUSH2 0x7CA JUMPI PUSH1 0x20 SWAP3 POP MLOAD SWAP1 DUP4 PUSH2 0x914 JUMP JUMPDEST RETURNDATASIZE SWAP2 POP PUSH2 0x92C JUMP JUMPDEST DUP2 MLOAD RETURNDATASIZE DUP6 DUP3 RETURNDATACOPY RETURNDATASIZE SWAP1 REVERT JUMPDEST POP DUP3 SWAP1 CALLVALUE PUSH2 0x7CA JUMPI DUP1 PUSH1 0x3 NOT CALLDATASIZE ADD SLT PUSH2 0x7CA JUMPI PUSH2 0x97A PUSH2 0xD58 JUMP JUMPDEST PUSH2 0x982 PUSH2 0xD73 JUMP JUMPDEST DUP4 SLOAD DUP3 MLOAD PUSH4 0xA9059CBB PUSH1 0xE0 SHL DUP2 MSTORE PUSH1 0x1 PUSH1 0x1 PUSH1 0xA0 SHL SUB SWAP2 DUP3 AND DUP6 DUP3 ADD SWAP1 DUP2 MSTORE PUSH1 0x24 CALLDATALOAD PUSH1 0x20 DUP3 DUP2 ADD SWAP2 SWAP1 SWAP2 MSTORE SWAP2 SWAP4 SWAP2 SWAP3 DUP5 SWAP3 SWAP2 DUP4 SWAP2 DUP10 SWAP2 DUP4 SWAP1 PUSH1 0x40 ADD SUB SWAP4 AND GAS CALL SWAP1 DUP2 ISZERO PUSH2 0xA2D JUMPI DUP5 SWAP2 PUSH2 0xA0F JUMPI JUMPDEST POP ISZERO PUSH2 0x9DA JUMPI DUP3 DUP1 RETURN JUMPDEST SWAP1 PUSH1 0x20 PUSH1 0x64 SWAP3 MLOAD SWAP2 PUSH3 0x461BCD PUSH1 0xE5 SHL DUP4 MSTORE DUP3 ADD MSTORE PUSH1 0xF PUSH1 0x24 DUP3 ADD MSTORE PUSH15 0x151C985B9CD9995C8819985A5B1959 PUSH1 0x8A SHL PUSH1 0x44 DUP3 ADD MSTORE REVERT JUMPDEST PUSH2 0xA27 SWAP2 POP PUSH1 0x20 RETURNDATASIZE DUP2 GT PUSH2 0x444 JUMPI PUSH2 0x436 DUP2 DUP4 PUSH2 0xDDD JUMP JUMPDEST DUP5 PUSH2 0x9D0 JUMP JUMPDEST DUP3 MLOAD RETURNDATASIZE DUP7 DUP3 RETURNDATACOPY RETURNDATASIZE SWAP1 REVERT JUMPDEST POP CALLVALUE PUSH2 0x723 JUMPI DUP2 PUSH1 0x3 NOT CALLDATASIZE ADD SLT PUSH2 0x723 JUMPI SWAP1 SLOAD SWAP1 MLOAD PUSH1 0x1 PUSH1 0x1 PUSH1 0xA0 SHL SUB SWAP1 SWAP2 AND DUP2 MSTORE PUSH1 0x20 SWAP1 RETURN JUMPDEST DUP3 DUP5 CALLVALUE PUSH2 0x723 JUMPI PUSH1 0x20 CALLDATASIZE PUSH1 0x3 NOT ADD SLT PUSH2 0x723 JUMPI PUSH2 0xA79 PUSH2 0xD58 JUMP JUMPDEST PUSH2 0xA81 PUSH2 0xD73 JUMP JUMPDEST PUSH1 0x1 PUSH1 0x1 PUSH1 0xA0 SHL SUB AND PUSH2 0xA95 DUP2 ISZERO ISZERO PUSH2 0xD9F JUMP JUMPDEST DUP2 SLOAD PUSH1 0x1 PUSH1 0x1 PUSH1 0xA0 SHL SUB NOT AND OR SWAP1 SSTORE DUP1 RETURN JUMPDEST DUP3 CALLVALUE PUSH2 0x801 JUMPI DUP1 PUSH1 0x3 NOT CALLDATASIZE ADD SLT PUSH2 0x801 JUMPI PUSH2 0xAC0 PUSH2 0xD73 JUMP JUMPDEST DUP1 SLOAD PUSH1 0x1 PUSH1 0x1 PUSH1 0xA0 SHL SUB NOT DUP2 AND DUP3 SSTORE DUP2 SWAP1 PUSH1 0x1 PUSH1 0x1 PUSH1 0xA0 SHL SUB AND PUSH32 0x8BE0079C531659141344CD1FD0A4F28419497F9722A3DAAFE3B4186F6B6457E0 DUP3 DUP1 LOG3 DUP1 RETURN JUMPDEST POP DUP3 CALLVALUE PUSH2 0x7CA JUMPI DUP3 PUSH1 0x3 NOT CALLDATASIZE ADD SLT PUSH2 0x7CA JUMPI SLOAD SWAP1 MLOAD PUSH1 0x1 PUSH1 0x1 PUSH1 0xA0 SHL SUB SWAP1 SWAP2 AND DUP2 MSTORE PUSH1 0x20 SWAP2 POP RETURN JUMPDEST POP CALLVALUE PUSH2 0x723 JUMPI DUP2 PUSH1 0x3 NOT CALLDATASIZE ADD SLT PUSH2 0x723 JUMPI PUSH1 0x20 SWAP1 PUSH1 0xFF PUSH1 0x9 SLOAD AND SWAP1 MLOAD SWAP1 ISZERO ISZERO DUP2 MSTORE RETURN JUMPDEST DUP3 CALLVALUE PUSH2 0x801 JUMPI PUSH1 0x20 CALLDATASIZE PUSH1 0x3 NOT ADD SLT PUSH2 0x801 JUMPI PUSH2 0xB66 PUSH2 0xD58 JUMP JUMPDEST PUSH2 0xB6E PUSH2 0xD73 JUMP JUMPDEST PUSH1 0x1 PUSH1 0x1 PUSH1 0xA0 SHL SUB AND PUSH2 0xB82 DUP2 ISZERO ISZERO PUSH2 0xD9F JUMP JUMPDEST PUSH12 0xFFFFFFFFFFFFFFFFFFFFFFFF PUSH1 0xA0 SHL PUSH1 0x5 SLOAD AND OR PUSH1 0x5 SSTORE DUP1 RETURN JUMPDEST POP CALLVALUE PUSH2 0x723 JUMPI DUP2 PUSH1 0x3 NOT CALLDATASIZE ADD SLT PUSH2 0x723 JUMPI PUSH1 0x3 SLOAD SWAP1 MLOAD PUSH1 0x1 PUSH1 0x1 PUSH1 0xA0 SHL SUB SWAP1 SWAP2 AND DUP2 MSTORE PUSH1 0x20 SWAP1 RETURN JUMPDEST POP CALLVALUE PUSH2 0x723 JUMPI DUP2 PUSH1 0x3 NOT CALLDATASIZE ADD SLT PUSH2 0x723 JUMPI PUSH1 0x20 SWAP1 PUSH1 0x8 SLOAD SWAP1 MLOAD SWAP1 DUP2 MSTORE RETURN JUMPDEST POP CALLVALUE PUSH2 0x723 JUMPI DUP2 PUSH1 0x3 NOT CALLDATASIZE ADD SLT PUSH2 0x723 JUMPI PUSH1 0x2 SLOAD SWAP1 MLOAD PUSH1 0x1 PUSH1 0x1 PUSH1 0xA0 SHL SUB SWAP1 SWAP2 AND DUP2 MSTORE PUSH1 0x20 SWAP1 RETURN JUMPDEST POP CALLVALUE PUSH2 0x723 JUMPI DUP2 PUSH1 0x3 NOT CALLDATASIZE ADD SLT PUSH2 0x723 JUMPI PUSH1 0x5 SLOAD SWAP1 MLOAD PUSH1 0x1 PUSH1 0x1 PUSH1 0xA0 SHL SUB SWAP1 SWAP2 AND DUP2 MSTORE PUSH1 0x20 SWAP1 RETURN JUMPDEST POP DUP3 CALLVALUE PUSH2 0x7CA JUMPI PUSH1 0x20 CALLDATASIZE PUSH1 0x3 NOT ADD SLT PUSH2 0x7CA JUMPI CALLDATALOAD SWAP1 DUP2 ISZERO ISZERO DUP1 SWAP3 SUB PUSH2 0x7CA JUMPI PUSH32 0x31311016D7204FAFF81880133E3DB244AE8A8B9CE15E83E2432258226D15F942 SWAP2 PUSH1 0x20 SWAP2 PUSH2 0xC7F PUSH2 0xD73 JUMP JUMPDEST PUSH1 0xFF NOT PUSH1 0x9 SLOAD AND PUSH1 0xFF DUP4 AND OR PUSH1 0x9 SSTORE MLOAD SWAP1 DUP2 MSTORE LOG1 DUP1 RETURN JUMPDEST POP CALLVALUE PUSH2 0x723 JUMPI DUP2 PUSH1 0x3 NOT CALLDATASIZE ADD SLT PUSH2 0x723 JUMPI PUSH1 0x20 SWAP1 PUSH1 0x7 SLOAD SWAP1 MLOAD SWAP1 DUP2 MSTORE RETURN JUMPDEST DUP3 DUP6 DUP6 CALLVALUE PUSH2 0x801 JUMPI PUSH1 0x20 SWAP4 DUP5 PUSH1 0x3 NOT CALLDATASIZE ADD SLT PUSH2 0x723 JUMPI PUSH1 0x5 SLOAD PUSH4 0x4C6AFEE5 PUSH1 0xE1 SHL DUP3 MSTORE DUP6 SWAP1 DUP3 SWAP1 DUP6 SWAP1 DUP3 SWAP1 PUSH1 0x1 PUSH1 0x1 PUSH1 0xA0 SHL SUB AND GAS STATICCALL SWAP2 DUP3 ISZERO PUSH2 0xD4D JUMPI DUP1 SWAP3 PUSH2 0xD1B JUMPI JUMPDEST POP POP PUSH2 0xD13 SWAP1 PUSH13 0xC9F2C9CD04674EDEA40000000 SWAP3 CALLDATALOAD PUSH2 0xE38 JUMP JUMPDEST DIV SWAP1 MLOAD SWAP1 DUP2 MSTORE RETURN JUMPDEST SWAP1 SWAP2 POP DUP5 DUP3 DUP2 RETURNDATASIZE DUP4 GT PUSH2 0xD46 JUMPI JUMPDEST PUSH2 0xD33 DUP2 DUP4 PUSH2 0xDDD JUMP JUMPDEST DUP2 ADD SUB SLT PUSH2 0x801 JUMPI POP MLOAD DUP2 PUSH2 0xD13 PUSH2 0xCF8 JUMP JUMPDEST POP RETURNDATASIZE PUSH2 0xD29 JUMP JUMPDEST DUP5 MLOAD SWAP1 RETURNDATASIZE SWAP1 DUP3 RETURNDATACOPY RETURNDATASIZE SWAP1 REVERT JUMPDEST PUSH1 0x4 CALLDATALOAD SWAP1 PUSH1 0x1 PUSH1 0x1 PUSH1 0xA0 SHL SUB DUP3 AND DUP3 SUB PUSH2 0xD6E JUMPI JUMP JUMPDEST PUSH1 0x0 DUP1 REVERT JUMPDEST PUSH1 0x0 SLOAD PUSH1 0x1 PUSH1 0x1 PUSH1 0xA0 SHL SUB AND CALLER SUB PUSH2 0xD87 JUMPI JUMP JUMPDEST PUSH1 0x40 MLOAD PUSH4 0x118CDAA7 PUSH1 0xE0 SHL DUP2 MSTORE CALLER PUSH1 0x4 DUP3 ADD MSTORE PUSH1 0x24 SWAP1 REVERT JUMPDEST ISZERO PUSH2 0xDA6 JUMPI JUMP JUMPDEST PUSH1 0x40 MLOAD PUSH3 0x461BCD PUSH1 0xE5 SHL DUP2 MSTORE PUSH1 0x20 PUSH1 0x4 DUP3 ADD MSTORE PUSH1 0xF PUSH1 0x24 DUP3 ADD MSTORE PUSH15 0x496E76616C69642061646472657373 PUSH1 0x88 SHL PUSH1 0x44 DUP3 ADD MSTORE PUSH1 0x64 SWAP1 REVERT JUMPDEST SWAP1 PUSH1 0x1F DUP1 NOT SWAP2 ADD AND DUP2 ADD SWAP1 DUP2 LT PUSH8 0xFFFFFFFFFFFFFFFF DUP3 GT OR PUSH2 0xDFF JUMPI PUSH1 0x40 MSTORE JUMP JUMPDEST PUSH4 0x4E487B71 PUSH1 0xE0 SHL PUSH1 0x0 MSTORE PUSH1 0x41 PUSH1 0x4 MSTORE PUSH1 0x24 PUSH1 0x0 REVERT JUMPDEST SWAP2 SWAP1 DUP3 SUB SWAP2 DUP3 GT PUSH2 0xE22 JUMPI JUMP JUMPDEST PUSH4 0x4E487B71 PUSH1 0xE0 SHL PUSH1 0x0 MSTORE PUSH1 0x11 PUSH1 0x4 MSTORE PUSH1 0x24 PUSH1 0x0 REVERT JUMPDEST DUP2 DUP2 MUL SWAP3 SWAP2 DUP2 ISZERO SWAP2 DUP5 DIV EQ OR ISZERO PUSH2 0xE22 JUMPI JUMP JUMPDEST DUP2 ISZERO PUSH2 0xE55 JUMPI DIV SWAP1 JUMP JUMPDEST PUSH4 0x4E487B71 PUSH1 0xE0 SHL PUSH1 0x0 MSTORE PUSH1 0x12 PUSH1 0x4 MSTORE PUSH1 0x24 PUSH1 0x0 REVERT JUMPDEST SWAP1 DUP2 PUSH1 0x20 SWAP2 SUB SLT PUSH2 0xD6E JUMPI MLOAD DUP1 ISZERO ISZERO DUP2 SUB PUSH2 0xD6E JUMPI SWAP1 JUMP JUMPDEST SWAP2 SWAP1 DUP3 ADD DUP1 SWAP3 GT PUSH2 0xE22 JUMPI JUMP INVALID LOG2 PUSH5 0x6970667358 0x22 SLT KECCAK256 0xE 0x4C SWAP11 CALLDATALOAD DUP14 SWAP8 XOR 0xBB 0x2C 0xAF 0xC5 DUP2 DUP16 0xFC CALLER 0xA7 0xB1 SDIV PUSH30 0xE661635EE10E884EBEB6A7B9C464736F6C63430008140033000000000000 "},"methodIdentifiers":{"BASIS_POINTS()":"e1f1c4a7","MAX_SLIPPAGE()":"f9759518","dex()":"692058c2","emergencyWithdraw(address,uint256)":"95ccea67","getMETHPrice()":"acc295f1","getMETHValueUSD(uint256)":"0233d0ce","getQuote(uint256)":"cf39918e","getSwapStats()":"f0032670","mETH()":"29e84867","owner()":"8da5cb5b","paused()":"5c975abb","priceOracle()":"2630c12f","renounceOwnership()":"715018a6","setDEX(address)":"7b66a723","setPaused(bool)":"16c38b3c","setPriceOracle(address)":"530e784f","swapMETHToUSDC(uint256,uint256)":"fd0b0da0","totalMETHSwapped()":"1302c0ef","totalSwapsExecuted()":"b913257c","totalUSDCReceived()":"39402b2e","transferOwnership(address)":"f2fde38b","usdc()":"3e413bee"}}}}}