{"contracts/core/LeverageVault.sol":{"LeverageVault":{"abi":[{"inputs":[{"internalType":"address","name":"_mETH","type":"address"},{"internalType":"address","name":"_usdc","type":"address"},{"internalType":"address","name":"_seniorPool","type":"address"},{"internalType":"address","name":"_fluxionIntegration","type":"address"}],"stateMutability":"nonpayable","type":"constructor"},{"inputs":[{"internalType":"address","name":"owner","type":"address"}],"name":"OwnableInvalidOwner","type":"error"},{"inputs":[{"internalType":"address","name":"account","type":"address"}],"name":"OwnableUnauthorizedAccount","type":"error"},{"inputs":[],"name":"ReentrancyGuardReentrantCall","type":"error"},{"anonymous":false,"inputs":[{"indexed":true,"internalType":"uint256","name":"positionId","type":"uint256"},{"indexed":false,"internalType":"uint256","name":"amount","type":"uint256"}],"name":"CollateralAdded","type":"event"},{"anonymous":false,"inputs":[{"indexed":true,"internalType":"address","name":"previousOwner","type":"address"},{"indexed":true,"internalType":"address","name":"newOwner","type":"address"}],"name":"OwnershipTransferred","type":"event"},{"anonymous":false,"inputs":[{"indexed":true,"internalType":"uint256","name":"positionId","type":"uint256"},{"indexed":true,"internalType":"address","name":"user","type":"address"},{"indexed":false,"internalType":"uint256","name":"mETHCollateral","type":"uint256"},{"indexed":false,"internalType":"uint256","name":"usdcBorrowed","type":"uint256"},{"indexed":false,"internalType":"address","name":"rwaToken","type":"address"},{"indexed":false,"internalType":"uint256","name":"rwaTokenAmount","type":"uint256"}],"name":"PositionCreated","type":"event"},{"anonymous":false,"inputs":[{"indexed":true,"internalType":"uint256","name":"positionId","type":"uint256"},{"indexed":false,"internalType":"uint256","name":"mETHSold","type":"uint256"},{"indexed":false,"internalType":"uint256","name":"usdcRecovered","type":"uint256"},{"indexed":false,"internalType":"uint256","name":"shortfall","type":"uint256"},{"indexed":false,"internalType":"uint256","name":"liquidationFee","type":"uint256"},{"indexed":false,"internalType":"uint256","name":"excessReturned","type":"uint256"}],"name":"PositionLiquidated","type":"event"},{"anonymous":false,"inputs":[{"indexed":true,"internalType":"uint256","name":"positionId","type":"uint256"},{"indexed":false,"internalType":"uint256","name":"seniorRepayment","type":"uint256"},{"indexed":false,"internalType":"uint256","name":"interestRepayment","type":"uint256"},{"indexed":false,"internalType":"uint256","name":"userYield","type":"uint256"}],"name":"SettlementProcessed","type":"event"},{"anonymous":false,"inputs":[{"indexed":true,"internalType":"uint256","name":"positionId","type":"uint256"},{"indexed":false,"internalType":"uint256","name":"mETHSwapped","type":"uint256"},{"indexed":false,"internalType":"uint256","name":"usdcReceived","type":"uint256"},{"indexed":false,"internalType":"uint256","name":"interestPaid","type":"uint256"}],"name":"YieldHarvested","type":"event"},{"inputs":[],"name":"BASIS_POINTS","outputs":[{"internalType":"uint256","name":"","type":"uint256"}],"stateMutability":"view","type":"function"},{"inputs":[],"name":"INITIAL_LTV","outputs":[{"internalType":"uint256","name":"","type":"uint256"}],"stateMutability":"view","type":"function"},{"inputs":[],"name":"LIQUIDATION_FEE_BPS","outputs":[{"internalType":"uint256","name":"","type":"uint256"}],"stateMutability":"view","type":"function"},{"inputs":[],"name":"LIQUIDATION_THRESHOLD","outputs":[{"internalType":"uint256","name":"","type":"uint256"}],"stateMutability":"view","type":"function"},{"inputs":[{"internalType":"uint256","name":"positionId","type":"uint256"},{"internalType":"uint256","name":"mETHAmount","type":"uint256"}],"name":"addCollateral","outputs":[],"stateMutability":"nonpayable","type":"function"},{"inputs":[{"internalType":"uint256","name":"positionId","type":"uint256"},{"internalType":"address","name":"_yieldVault","type":"address"},{"internalType":"address","name":"rwaToken","type":"address"},{"internalType":"uint256","name":"tokenAmount","type":"uint256"}],"name":"claimYieldFromBurn","outputs":[{"internalType":"uint256","name":"usdcReceived","type":"uint256"}],"stateMutability":"nonpayable","type":"function"},{"inputs":[{"internalType":"address","name":"user","type":"address"},{"internalType":"uint256","name":"mETHAmount","type":"uint256"},{"internalType":"uint256","name":"usdcToBorrow","type":"uint256"},{"internalType":"address","name":"rwaToken","type":"address"},{"internalType":"uint256","name":"rwaTokenAmount","type":"uint256"},{"internalType":"string","name":"assetId","type":"string"},{"internalType":"bytes32","name":"assetIdBytes","type":"bytes32"},{"internalType":"uint256","name":"mETHPriceUSD","type":"uint256"}],"name":"createPosition","outputs":[{"internalType":"uint256","name":"positionId","type":"uint256"}],"stateMutability":"nonpayable","type":"function"},{"inputs":[],"name":"fluxionIntegration","outputs":[{"internalType":"address","name":"","type":"address"}],"stateMutability":"view","type":"function"},{"inputs":[{"internalType":"uint256","name":"positionId","type":"uint256"},{"internalType":"uint256","name":"mETHPriceUSD","type":"uint256"}],"name":"getHealthFactor","outputs":[{"internalType":"uint256","name":"","type":"uint256"}],"stateMutability":"view","type":"function"},{"inputs":[{"internalType":"uint256","name":"positionId","type":"uint256"}],"name":"getPosition","outputs":[{"components":[{"internalType":"address","name":"user","type":"address"},{"internalType":"uint256","name":"mETHCollateral","type":"uint256"},{"internalType":"uint256","name":"usdcBorrowed","type":"uint256"},{"internalType":"address","name":"rwaToken","type":"address"},{"internalType":"uint256","name":"rwaTokenAmount","type":"uint256"},{"internalType":"string","name":"assetId","type":"string"},{"internalType":"uint256","name":"createdAt","type":"uint256"},{"internalType":"uint256","name":"lastHarvestTime","type":"uint256"},{"internalType":"uint256","name":"totalInterestPaid","type":"uint256"},{"internalType":"bool","name":"active","type":"bool"}],"internalType":"struct LeverageVault.Position","name":"","type":"tuple"}],"stateMutability":"view","type":"function"},{"inputs":[{"internalType":"uint256","name":"positionId","type":"uint256"},{"internalType":"uint256","name":"mETHPriceUSD","type":"uint256"}],"name":"harvestYield","outputs":[{"internalType":"uint256","name":"mETHSwapped","type":"uint256"},{"internalType":"uint256","name":"usdcReceived","type":"uint256"},{"internalType":"uint256","name":"interestPaid","type":"uint256"}],"stateMutability":"nonpayable","type":"function"},{"inputs":[{"internalType":"uint256","name":"positionId","type":"uint256"},{"internalType":"uint256","name":"mETHPriceUSD","type":"uint256"}],"name":"liquidatePosition","outputs":[{"internalType":"uint256","name":"usdcRecovered","type":"uint256"},{"internalType":"uint256","name":"shortfall","type":"uint256"},{"internalType":"uint256","name":"liquidationFee","type":"uint256"},{"internalType":"uint256","name":"excessReturned","type":"uint256"}],"stateMutability":"nonpayable","type":"function"},{"inputs":[],"name":"mETH","outputs":[{"internalType":"contract IERC20","name":"","type":"address"}],"stateMutability":"view","type":"function"},{"inputs":[],"name":"nextPositionId","outputs":[{"internalType":"uint256","name":"","type":"uint256"}],"stateMutability":"view","type":"function"},{"inputs":[],"name":"owner","outputs":[{"internalType":"address","name":"","type":"address"}],"stateMutability":"view","type":"function"},{"inputs":[{"internalType":"uint256","name":"","type":"uint256"}],"name":"positions","outputs":[{"internalType":"address","name":"user","type":"address"},{"internalType":"uint256","name":"mETHCollateral","type":"uint256"},{"internalType":"uint256","name":"usdcBorrowed","type":"uint256"},{"internalType":"address","name":"rwaToken","type":"address"},{"internalType":"uint256","name":"rwaTokenAmount","type":"uint256"},{"internalType":"string","name":"assetId","type":"string"},{"internalType":"uint256","name":"createdAt","type":"uint256"},{"internalType":"uint256","name":"lastHarvestTime","type":"uint256"},{"internalType":"uint256","name":"totalInterestPaid","type":"uint256"},{"internalType":"bool","name":"active","type":"bool"}],"stateMutability":"view","type":"function"},{"inputs":[],"name":"primaryMarket","outputs":[{"internalType":"address","name":"","type":"address"}],"stateMutability":"view","type":"function"},{"inputs":[{"internalType":"uint256","name":"positionId","type":"uint256"},{"internalType":"uint256","name":"settlementUSDC","type":"uint256"}],"name":"processSettlement","outputs":[{"internalType":"uint256","name":"seniorRepayment","type":"uint256"},{"internalType":"uint256","name":"interestRepayment","type":"uint256"},{"internalType":"uint256","name":"userYield","type":"uint256"}],"stateMutability":"nonpayable","type":"function"},{"inputs":[],"name":"renounceOwnership","outputs":[],"stateMutability":"nonpayable","type":"function"},{"inputs":[],"name":"seniorPool","outputs":[{"internalType":"address","name":"","type":"address"}],"stateMutability":"view","type":"function"},{"inputs":[{"internalType":"address","name":"_primaryMarket","type":"address"}],"name":"setPrimaryMarket","outputs":[],"stateMutability":"nonpayable","type":"function"},{"inputs":[{"internalType":"address","name":"_yieldVault","type":"address"}],"name":"setYieldVault","outputs":[],"stateMutability":"nonpayable","type":"function"},{"inputs":[{"internalType":"address","name":"newOwner","type":"address"}],"name":"transferOwnership","outputs":[],"stateMutability":"nonpayable","type":"function"},{"inputs":[],"name":"usdc","outputs":[{"internalType":"contract IERC20","name":"","type":"address"}],"stateMutability":"view","type":"function"},{"inputs":[],"name":"yieldVault","outputs":[{"internalType":"address","name":"","type":"address"}],"stateMutability":"view","type":"function"}],"evm":{"bytecode":{"linkReferences":{},"object":"6080346200012557601f620027a938819003918201601f19168301916001600160401b038311848410176200012a5780849260809460405283398101031262000125576200004d8162000140565b906200005c6020820162000140565b620000786060620000706040850162000140565b930162000140565b33156200010c576000549360018060a01b03199333858716176000556040519560018060a01b03948580948193823391167f8be0079c531659141344cd1fd0a4f28419497f9722a3daafe3b4186f6b6457e0600080a3600180551687600254161760025516856003541617600355168360045416176004551690600554161760055560016009556126539081620001568239f35b604051631e4fbdf760e01b815260006004820152602490fd5b600080fd5b634e487b7160e01b600052604160045260246000fd5b51906001600160a01b0382168203620001255756fe60e0604052600436101561001257600080fd5b6000803560e01c80630381b4dd14611cce578063137c3f6914611c3c5780631e77ceda14611c1357806329e8486714611bea5780633e413bee14611bc15780634d2c872a14611b9f578063505aa21214611b76578063518e8dfc14611b595780635cacf42214611b3c578063715018a614611ae25780638482c795146112eb578063899346c7146112cd5780638da5cb5b146112a657806390a8ae9b14611289578063975d6dfb14610f8357806399fbab8814610eca578063a7f8a5e214610ea1578063a8f35adf14610d37578063d3c4e4a6146107ee578063e1f1c4a7146107d1578063e2dc366614610785578063eb02c30114610608578063f2fde38b1461057d578063f416fc1c146105545763ffc0d2331461013057600080fd5b346105515760246101403661210b565b919061014a6122dc565b610152612415565b8084526008602052604084209061016f60ff600984015416612438565b61017a841515612346565b602060018060a01b036004541660405194858092639339ea6960e01b82528560048301525afa928315610546578593610512575b5082156104d8576c0c9f2c9cd04674edea4000000083026c0c9f2c9cd04674edea3fffffff19848204016104c257846101e69161239a565b926001830154841161047d5760025460055460405163095ea7b360e01b81526001600160a01b03918216600482015260248101879052889790929091602091849160449183918c91165af19182156103da57602092610460575b506005546040516307e8586d60e51b81526004810188905260248101929092529096879160449183916001600160a01b03165af194851561045557869561041c575b508085111561041457915b6003546004805460405163095ea7b360e01b81526001600160a01b0391821692810192909252602482018690529091602091839160449183918c91165af180156103da576103e5575b5085604060018060a01b0360045416604482518094819363d8aed14560e01b83528860048401528960248401525af180156103da576103a8959697506103ac575b50610326856001830154612490565b60018201556008810161033a84825461249d565b90556007429101557f64cc470d924ef687ff28d709b7ef348c355fbe6f2b2e4157a21353815d9c477460405180610384858989846040919493926060820195825260208201520152565b0390a260018055604051938493846040919493926060820195825260208201520152565b0390f35b6103cd9060403d6040116103d3575b6103c5818361217e565b81019061247a565b50610317565b503d6103bb565b6040513d89823e3d90fd5b6104069060203d60201161040d575b6103fe818361217e565b8101906123ba565b50386102d6565b503d6103f4565b50839161028d565b9094506020813d60201161044d575b816104386020938361217e565b8101031261044857519338610282565b600080fd5b3d915061042b565b6040513d88823e3d90fd5b61047690833d851161040d576103fe818361217e565b5038610240565b60405162461bcd60e51b815260206004820152601760248201527f496e73756666696369656e7420636f6c6c61746572616c0000000000000000006044820152606490fd5b634e487b7160e01b600052601160045260246000fd5b60405162461bcd60e51b81526020600482015260126024820152714e6f20696e74657265737420746f2070617960701b6044820152606490fd5b9092506020813d60201161053e575b8161052e6020938361217e565b81010312610448575191386101ae565b3d9150610521565b6040513d87823e3d90fd5b80fd5b50346105515780600319360112610551576004546040516001600160a01b039091168152602090f35b503461055157602036600319011261055157610597612121565b61059f6122dc565b6001600160a01b039081169081156105ef57600054826001600160601b0360a01b821617600055167f8be0079c531659141344cd1fd0a4f28419497f9722a3daafe3b4186f6b6457e0600080a380f35b604051631e4fbdf760e01b815260048101849052602490fd5b50346105515760203660031901126105515780604091610120835161062c81612161565b8281528260208201528285820152826060820152826080820152606060a08201528260c08201528260e0820152826101008201520152600435815260086020522060ff60096040519261067e84612161565b80546001600160a01b03908116855260018201546020860152600282015460408601526003820154166060850152600481015460808501526106c2600582016121f6565b60a0850152600681015460c0850152600781015460e08501526008810154610100850152015416151561012082015260405180916020825260018060a01b038151166020830152602081015160408301526040810151606083015260018060a01b036060820151166080830152608081015160a083015260a0810151610120610759610140928360c087015261016086019061229c565b9260c081015160e086015260e08101516101008601526101008101518286015201511515908301520390f35b50346105515760203660031901126105515761079f612121565b6107a76122dc565b6001600160a01b03166107bb811515612308565b6001600160601b0360a01b600754161760075580f35b503461055157806003193601126105515760206040516127108152f35b5034610551576107fd3661210b565b90916108076122dc565b61080f612415565b82815260209260088452604082209261083260ff600986018060a0525416612438565b61083d811515612346565b612cec61084a82846124aa565b1015610cfc578354600190940180546002546005546001600160a01b0390811660c090815260405163095ea7b360e01b60808190528152905182166004820152602481018490529897811697939592949184908a9060449082908b9086165af19889156103da57879899979697610cdf575b508381600554166044604051809b81936307e8586d60e51b83528a6004840152602497888401525af1978815610455578698610cb0575b508060045416986040519963d559515760e01b8b528460048c0152858b8581845afa9a8b15610c4257889b610c81575b508a8a1115610c755761096a868c80935b60035460405160805181526001600160a01b039092166004830152602482019290925292839187169082908d9082906044820190565b03925af18015610c6a57916040918a93610c4d575b5060448560045416918351948593849263d8aed14560e01b84528b60048501528a8401525af18015610c4257610c24575b50888a1115610a31575050507f4ba60ddcd85fcd2f0c78a5aa6c5b134affd0c4f0d827eb4c6034f5388a8ab01f60a06109eb8860809a612490565b948680985b835160ff198154169055556040519081528885820152856040820152866060820152878a820152a26001805560405194855284015260408301526060820152f35b959096610a43829a96939a968a612490565b966101f4808902908982041489151715610c1157612710610a6691048099612490565b9888610b61575b89610aa4575b5050608099509160a0917f4ba60ddcd85fcd2f0c78a5aa6c5b134affd0c4f0d827eb4c6034f5388a8ab01f936109f0565b60035460405163a9059cbb60e01b81526001600160a01b03939093166004840152602483018b90528791839160449183918891165af1908115610b56578391610b39575b5015610af5578980610a73565b60405162461bcd60e51b815260048101869052601b818c01527f4578636573732055534443207472616e73666572206661696c656400000000006044820152606490fd5b610b509150863d881161040d576103fe818361217e565b38610ae8565b6040513d85823e3d90fd5b600354845460405163a9059cbb60e01b81529083166001600160a01b03166004820152602481018b9052908890829084168188816044810103925af1908115610546578591610bf4575b50610a6d5760405162461bcd60e51b815260048101889052601f818e01527f4c69717569646174696f6e20666565207472616e73666572206661696c6564006044820152606490fd5b610c0b9150883d8a1161040d576103fe818361217e565b38610bab565b634e487b7160e01b845260116004528b84fd5b610c3c9060403d6040116103d3576103c5818361217e565b506109b0565b6040513d8a823e3d90fd5b610c6390893d8b1161040d576103fe818361217e565b503861097f565b6040513d8b823e3d90fd5b61096a868b8093610934565b909a508581813d8311610ca9575b610c99818361217e565b8101031261044857519938610923565b503d610c8f565b9097508381813d8311610cd8575b610cc8818361217e565b81010312610448575196386108f3565b503d610cbe565b610cf590853d871161040d576103fe818361217e565b50386108bc565b60405162461bcd60e51b8152600481018690526013602482015272506f736974696f6e206973206865616c74687960681b6044820152606490fd5b503461055157610d463661210b565b610d4e612415565b8183526020600881526040842091610d6c60ff600985015416612438565b82546001600160a01b039081163303610e67578115610e2d576002546040516323b872dd60e01b81523360048201523060248201526044810184905294918491869160649183918b91165af190811561045557610df46001927f244160b15e69cc411f041d94ae7fab6f6bba85dade8403216c05ff4b920d5449968991610e10575b506123d2565b01610e0082825461249d565b9055604051908152a26001805580f35b610e279150863d881161040d576103fe818361217e565b38610dee565b60405162461bcd60e51b81526004810184905260126024820152710416d6f756e74206d757374206265203e20360741b6044820152606490fd5b60405162461bcd60e51b81526004810184905260126024820152712737ba103837b9b4ba34b7b71037bbb732b960711b6044820152606490fd5b50346105515780600319360112610551576006546040516001600160a01b039091168152602090f35b503461055157602036600319011261055157604090600435815260086020522060018060a01b0390818154169060018101549260028201549060038301541691600481015492610f66610f1f600584016121f6565b60068401549560078501549360ff6009600888015497015416966040519a8b9a8b5260208b015260408a0152606089015260808801526101408060a089015287019061229c565b9360c086015260e085015261010084015215156101208301520390f35b5034610551576080366003190112610551576001600160a01b0390602480359183831683036104485760443590848216928383036104485760643594610fc76122dc565b610fcf612415565b60043583526020966008885260408420610fef60ff600983015416612438565b8682600383015416036112545760040195865488116112105760405163095ea7b360e01b81526001600160a01b0384166004820152602481018990529089908290604490829089905af18015610546576111f3575b5080600354169160405195898786816370a0823160e01b978882523060048301525afa968715610455578a8a9188996111bf575b5060408051630c34f5ed60e11b9281019283526001600160a01b03909416888501908152602081019390935288948594909385926110c19183910103601f19810183528261217e565b51925af13d156111ba573d6110d5816121a0565b906110e3604051928361217e565b8152858a3d92013e5b156111765790879160035416926040518094819382523060048301525afa91821561116a579161113b575b5061112d9161112591612490565b928254612490565b905560018055604051908152f35b90508481813d8311611163575b611152818361217e565b81010312610448575161112d611117565b503d611148565b604051903d90823e3d90fd5b60405162461bcd60e51b8152600481018990526017818501527f5969656c645661756c7420636c61696d206661696c65640000000000000000006044820152606490fd5b6110ec565b92939850905081813d83116111ec575b6111d9818361217e565b8101031261044857519590888a87611078565b503d6111cf565b61120990893d8b1161040d576103fe818361217e565b5038611044565b60405162461bcd60e51b8152600481018a90526017818601527f496e73756666696369656e742052574120746f6b656e730000000000000000006044820152606490fd5b60405162461bcd60e51b8152600481018a9052600e818601526d0a8ded6cadc40dad2e6dac2e8c6d60931b6044820152606490fd5b50346105515780600319360112610551576020604051612cec8152f35b5034610551578060031936011261055157546040516001600160a01b039091168152602090f35b50346105515780600319360112610551576020600954604051908152f35b50346105515761010036600319011261055157611306612121565b6064356001600160a01b03811681036119245760a4359167ffffffffffffffff83116118df57366023840112156118df5783836004013593611347856121a0565b94611355604051968761217e565b80865236602482840101116119245780602460209301838801378501015260e43561137e6122dc565b611386612415565b6001600160a01b03821615611aae5760243515611a695760443515611a24576001600160a01b038316156119eb576113bf811515612346565b6007546001600160a01b0316156119ae576113ea6c0c9f2c9cd04674edea4000000091602435612387565b04613a9880604435029060443582040361199a57612710900411611941576002546040516323b872dd60e01b81526001600160a01b038381166004830152306024808401919091523560448301529091602091839160649183918a91165af180156105465761145f91869161192857506123d2565b60045460095485916001600160a01b0316803b1561192457604483926040519485938492630ecbcdab60e01b84526004840152833560248401525af1801561054657611911575b5060035460075460405163095ea7b360e01b81526001600160a01b039182166004820152604480356024830152909260209284929183918a91165af18015610546576118f2575b5060075484906001600160a01b0316803b156118ee578180916044604051809481936307f5d63360e01b835260c435600484015260843560248401525af180156118e3576118cb575b50506040516370a0823160e01b81523060048201526020816024816001600160a01b0387165afa908115610546578591611899575b50608435116118545760095492600019841461184057600184016009556040519061159582612161565b60018060a01b03831682526024356020830152604435604083015260018060a01b0384166060830152608435608083015260a08201524260c08201524260e082015284610100820152600161012082015283855260086020526040852060018060a01b038251166001600160601b0360a01b90818354161782556020830151600183015560408301516002830155600382019060018060a01b03606085015116908254161790556080820151600482015560a082015180519067ffffffffffffffff821161182c5761166a60058401546121bc565b601f81116117e8575b5060209787959493929189916001601f85111461174f57938360809694610120946009947f9b1464e9a9771c899bb0aa078d0a5338d3604792fa428d4d24d35e950e7a2ed69a9892611744575b50508160011b916000199060031b1c19161760058201555b60c0840151600682015560e08401516007820155610100840151600882015501910151151560ff801983541691161790556040519460243586526044358887015260018060a01b03166040860152608435606086015260018060a01b031693a360018055604051908152f35b0151905038806116c0565b91906005850183528a8320925b601f19851681106117ce575093600184610120946009947f9b1464e9a9771c899bb0aa078d0a5338d3604792fa428d4d24d35e950e7a2ed69a9860809a98601f198116106117b5575b505050811b0160058201556116d8565b015160001960f88460031b161c191690553880806117a5565b8183015184558a9850600190930192918b01918b0161175c565b60058401895260208920601f840160051c810160208510611825575b601f830160051c8201811061181a575050611673565b8a8155600101611804565b5080611804565b634e487b7160e01b88526041600452602488fd5b634e487b7160e01b85526011600452602485fd5b60405162461bcd60e51b815260206004820152601960248201527f52574120746f6b656e207075726368617365206661696c6564000000000000006044820152606490fd5b90506020813d6020116118c3575b816118b46020938361217e565b8101031261044857513861156b565b3d91506118a7565b6118d490612137565b6118df578338611536565b8380fd5b6040513d84823e3d90fd5b5080fd5b61190a9060203d60201161040d576103fe818361217e565b50386114ed565b61191d90949194612137565b92386114a6565b8280fd5b610e27915060203d60201161040d576103fe818361217e565b60405162461bcd60e51b815260206004820152602b60248201527f496e73756666696369656e7420636f6c6c61746572616c202831353025204c5460448201526a562072657175697265642960a81b6064820152608490fd5b634e487b7160e01b86526011600452602486fd5b60405162461bcd60e51b8152602060048201526015602482015274141c9a5b585c9e53585c9ad95d081b9bdd081cd95d605a1b6044820152606490fd5b60405162461bcd60e51b815260206004820152601160248201527024b73b30b634b210292ba0903a37b5b2b760791b6044820152606490fd5b60405162461bcd60e51b815260206004820152601760248201527f5553444320616d6f756e74206d757374206265203e20300000000000000000006044820152606490fd5b60405162461bcd60e51b815260206004820152601760248201527f6d45544820616d6f756e74206d757374206265203e20300000000000000000006044820152606490fd5b60405162461bcd60e51b815260206004820152600c60248201526b24b73b30b634b2103ab9b2b960a11b6044820152606490fd5b5034610551578060031936011261055157611afb6122dc565b80546001600160a01b03198116825581906001600160a01b03167f8be0079c531659141344cd1fd0a4f28419497f9722a3daafe3b4186f6b6457e08280a380f35b50346105515780600319360112610551576020604051613a988152f35b503461055157806003193601126105515760206040516101f48152f35b50346105515780600319360112610551576005546040516001600160a01b039091168152602090f35b5034610551576020611bb9611bb33661210b565b906124aa565b604051908152f35b50346105515780600319360112610551576003546040516001600160a01b039091168152602090f35b50346105515780600319360112610551576002546040516001600160a01b039091168152602090f35b50346105515780600319360112610551576007546040516001600160a01b039091168152602090f35b503461055157602036600319011261055157611c56612121565b611c5e6122dc565b600654906001600160a01b0390818316611c90571690611c7f821515612308565b6001600160a01b0319161760065580f35b60405162461bcd60e51b8152602060048201526016602482015275165a595b1915985d5b1d08185b1c9958591e481cd95d60521b6044820152606490fd5b503461055157611cdd3661210b565b611ce89291926122dc565b611cf0612415565b82825260209260088452604083209060098201611d1060ff825416612438565b6004805460405163d559515760e01b81529182018490526001600160a01b03919082168882602481845afa918215610c425790899189936120d6575b50828810611ffb57506003546004805460405163095ea7b360e01b81529086166001600160a01b03169181019190915260248101849052919082908516818b816044810103925af18015610c42579088939291611fde575b506040826004541660448251809b819363d8aed14560e01b83528a60048401528660248401525af18015610b565783988491611fb7575b5090611de8919897612490565b9485611efb575b60018101549182611e4d575b88886103a889898960ff1981541690557f2ad2842250c60e12f989a7e1ed97d0095f991ba01aea08bdac2f87c62782095b60405180610384858989846040919493926060820195825260208201520152565b600254915460405163a9059cbb60e01b81529082166001600160a01b03166004820152602481019390935289918391168185816044810103925af191821561116a5791611ede575b5015611ea45785808080611dfb565b60405162461bcd60e51b81526004810187905260126024820152711b515512081c995d1d5c9b8819985a5b195960721b6044820152606490fd5b611ef59150873d891161040d576103fe818361217e565b38611e95565b600354815460405163a9059cbb60e01b81529084166001600160a01b0316600482015260248101889052908a90829085168187816044810103925af1908115611fac578491611f8f575b50611def5760405162461bcd60e51b8152600481018a9052601a60248201527f55736572207969656c64207472616e73666572206661696c65640000000000006044820152606490fd5b611fa691508a3d8c1161040d576103fe818361217e565b38611f45565b6040513d86823e3d90fd5b611de8929950611fd6915060403d6040116103d3576103c5818361217e565b909891611ddb565b611ff4908a3d8c1161040d576103fe818361217e565b5038611da4565b60035460405163095ea7b360e01b81526001600160a01b0392909216600483015260248201899052939793909250829060449082908b908b165af180156103da579160409188936120b9575b5060448760045416918351998a93849263d8aed14560e01b845289600485015260248401525af180156120ac5781968291612087575b5095948194611def565b90506120a391965060403d6040116103d3576103c5818361217e565b9590953861207d565b50604051903d90823e3d90fd5b6120cf908a3d8c1161040d576103fe818361217e565b5038612047565b8281939294503d8311612104575b6120ee818361217e565b81010312612100578890519138611d4c565b8780fd5b503d6120e4565b6040906003190112610448576004359060243590565b600435906001600160a01b038216820361044857565b67ffffffffffffffff811161214b57604052565b634e487b7160e01b600052604160045260246000fd5b610140810190811067ffffffffffffffff82111761214b57604052565b90601f8019910116810190811067ffffffffffffffff82111761214b57604052565b67ffffffffffffffff811161214b57601f01601f191660200190565b90600182811c921680156121ec575b60208310146121d657565b634e487b7160e01b600052602260045260246000fd5b91607f16916121cb565b906040519182600082549261220a846121bc565b9081845260019485811690816000146122795750600114612236575b50506122349250038361217e565b565b9093915060005260209081600020936000915b81831061226157505061223493508201013880612226565b85548884018501529485019487945091830191612249565b91505061223494506020925060ff191682840152151560051b8201013880612226565b919082519283825260005b8481106122c8575050826000602080949584010152601f8019910116010190565b6020818301810151848301820152016122a7565b6000546001600160a01b031633036122f057565b60405163118cdaa760e01b8152336004820152602490fd5b1561230f57565b60405162461bcd60e51b815260206004820152600f60248201526e496e76616c6964206164647265737360881b6044820152606490fd5b1561234d57565b60405162461bcd60e51b8152602060048201526012602482015271496e76616c6964206d45544820707269636560701b6044820152606490fd5b818102929181159184041417156104c257565b81156123a4570490565b634e487b7160e01b600052601260045260246000fd5b90816020910312610448575180151581036104485790565b156123d957565b60405162461bcd60e51b81526020600482015260146024820152731b515512081d1c985b9cd9995c8819985a5b195960621b6044820152606490fd5b600260015414612426576002600155565b604051633ee5aeb560e01b8152600490fd5b1561243f57565b60405162461bcd60e51b8152602060048201526013602482015272506f736974696f6e206e6f742061637469766560681b6044820152606490fd5b9190826040910312610448576020825192015190565b919082039182116104c257565b919082018092116104c257565b919091600092818452602091600883526040852091604051926124cc84612161565b60018060a01b039384825416815260ff60096001840154938884019485526002810154604085015287600382015416606085015260048101546080850152612516600582016121f6565b60a0850152600681015460c0850152600781015460e085015260088101546101008501520154161590610120821591015261261657612570826c0c9f2c9cd04674edea400000009261256a88951515612346565b51612387565b0492600454169160246040518094819363d559515760e01b835260048301525afa9283156105465785936125e6575b505081156125dd57612710908181029181830414901517156125c9576125c692935061239a565b90565b634e487b7160e01b84526011600452602484fd5b50600019925050565b9080929350813d831161260f575b6125fe818361217e565b810103126118df575190388061259f565b503d6125f4565b505050505056fea2646970667358221220dd1aa582b60e971d8d9d6097d0cfdd25079e330fdd105793dbd58a464945547264736f6c63430008140033","opcodes":"PUSH1 0x80 CALLVALUE PUSH3 0x125 JUMPI PUSH1 0x1F PUSH3 0x27A9 CODESIZE DUP2 SWAP1 SUB SWAP2 DUP3 ADD PUSH1 0x1F NOT AND DUP4 ADD SWAP2 PUSH1 0x1 PUSH1 0x1 PUSH1 0x40 SHL SUB DUP4 GT DUP5 DUP5 LT OR PUSH3 0x12A JUMPI DUP1 DUP5 SWAP3 PUSH1 0x80 SWAP5 PUSH1 0x40 MSTORE DUP4 CODECOPY DUP2 ADD SUB SLT PUSH3 0x125 JUMPI PUSH3 0x4D DUP2 PUSH3 0x140 JUMP JUMPDEST SWAP1 PUSH3 0x5C PUSH1 0x20 DUP3 ADD PUSH3 0x140 JUMP JUMPDEST PUSH3 0x78 PUSH1 0x60 PUSH3 0x70 PUSH1 0x40 DUP6 ADD PUSH3 0x140 JUMP JUMPDEST SWAP4 ADD PUSH3 0x140 JUMP JUMPDEST CALLER ISZERO PUSH3 0x10C JUMPI PUSH1 0x0 SLOAD SWAP4 PUSH1 0x1 DUP1 PUSH1 0xA0 SHL SUB NOT SWAP4 CALLER DUP6 DUP8 AND OR PUSH1 0x0 SSTORE PUSH1 0x40 MLOAD SWAP6 PUSH1 0x1 DUP1 PUSH1 0xA0 SHL SUB SWAP5 DUP6 DUP1 SWAP5 DUP2 SWAP4 DUP3 CALLER SWAP2 AND PUSH32 0x8BE0079C531659141344CD1FD0A4F28419497F9722A3DAAFE3B4186F6B6457E0 PUSH1 0x0 DUP1 LOG3 PUSH1 0x1 DUP1 SSTORE AND DUP8 PUSH1 0x2 SLOAD AND OR PUSH1 0x2 SSTORE AND DUP6 PUSH1 0x3 SLOAD AND OR PUSH1 0x3 SSTORE AND DUP4 PUSH1 0x4 SLOAD AND OR PUSH1 0x4 SSTORE AND SWAP1 PUSH1 0x5 SLOAD AND OR PUSH1 0x5 SSTORE PUSH1 0x1 PUSH1 0x9 SSTORE PUSH2 0x2653 SWAP1 DUP2 PUSH3 0x156 DUP3 CODECOPY RETURN JUMPDEST PUSH1 0x40 MLOAD PUSH4 0x1E4FBDF7 PUSH1 0xE0 SHL DUP2 MSTORE PUSH1 0x0 PUSH1 0x4 DUP3 ADD MSTORE PUSH1 0x24 SWAP1 REVERT JUMPDEST PUSH1 0x0 DUP1 REVERT JUMPDEST PUSH4 0x4E487B71 PUSH1 0xE0 SHL PUSH1 0x0 MSTORE PUSH1 0x41 PUSH1 0x4 MSTORE PUSH1 0x24 PUSH1 0x0 REVERT JUMPDEST MLOAD SWAP1 PUSH1 0x1 PUSH1 0x1 PUSH1 0xA0 SHL SUB DUP3 AND DUP3 SUB PUSH3 0x125 JUMPI JUMP INVALID PUSH1 0xE0 PUSH1 0x40 MSTORE PUSH1 0x4 CALLDATASIZE LT ISZERO PUSH2 0x12 JUMPI PUSH1 0x0 DUP1 REVERT JUMPDEST PUSH1 0x0 DUP1 CALLDATALOAD PUSH1 0xE0 SHR DUP1 PUSH4 0x381B4DD EQ PUSH2 0x1CCE JUMPI DUP1 PUSH4 0x137C3F69 EQ PUSH2 0x1C3C JUMPI DUP1 PUSH4 0x1E77CEDA EQ PUSH2 0x1C13 JUMPI DUP1 PUSH4 0x29E84867 EQ PUSH2 0x1BEA JUMPI DUP1 PUSH4 0x3E413BEE EQ PUSH2 0x1BC1 JUMPI DUP1 PUSH4 0x4D2C872A EQ PUSH2 0x1B9F JUMPI DUP1 PUSH4 0x505AA212 EQ PUSH2 0x1B76 JUMPI DUP1 PUSH4 0x518E8DFC EQ PUSH2 0x1B59 JUMPI DUP1 PUSH4 0x5CACF422 EQ PUSH2 0x1B3C JUMPI DUP1 PUSH4 0x715018A6 EQ PUSH2 0x1AE2 JUMPI DUP1 PUSH4 0x8482C795 EQ PUSH2 0x12EB JUMPI DUP1 PUSH4 0x899346C7 EQ PUSH2 0x12CD JUMPI DUP1 PUSH4 0x8DA5CB5B EQ PUSH2 0x12A6 JUMPI DUP1 PUSH4 0x90A8AE9B EQ PUSH2 0x1289 JUMPI DUP1 PUSH4 0x975D6DFB EQ PUSH2 0xF83 JUMPI DUP1 PUSH4 0x99FBAB88 EQ PUSH2 0xECA JUMPI DUP1 PUSH4 0xA7F8A5E2 EQ PUSH2 0xEA1 JUMPI DUP1 PUSH4 0xA8F35ADF EQ PUSH2 0xD37 JUMPI DUP1 PUSH4 0xD3C4E4A6 EQ PUSH2 0x7EE JUMPI DUP1 PUSH4 0xE1F1C4A7 EQ PUSH2 0x7D1 JUMPI DUP1 PUSH4 0xE2DC3666 EQ PUSH2 0x785 JUMPI DUP1 PUSH4 0xEB02C301 EQ PUSH2 0x608 JUMPI DUP1 PUSH4 0xF2FDE38B EQ PUSH2 0x57D JUMPI DUP1 PUSH4 0xF416FC1C EQ PUSH2 0x554 JUMPI PUSH4 0xFFC0D233 EQ PUSH2 0x130 JUMPI PUSH1 0x0 DUP1 REVERT JUMPDEST CALLVALUE PUSH2 0x551 JUMPI PUSH1 0x24 PUSH2 0x140 CALLDATASIZE PUSH2 0x210B JUMP JUMPDEST SWAP2 SWAP1 PUSH2 0x14A PUSH2 0x22DC JUMP JUMPDEST PUSH2 0x152 PUSH2 0x2415 JUMP JUMPDEST DUP1 DUP5 MSTORE PUSH1 0x8 PUSH1 0x20 MSTORE PUSH1 0x40 DUP5 KECCAK256 SWAP1 PUSH2 0x16F PUSH1 0xFF PUSH1 0x9 DUP5 ADD SLOAD AND PUSH2 0x2438 JUMP JUMPDEST PUSH2 0x17A DUP5 ISZERO ISZERO PUSH2 0x2346 JUMP JUMPDEST PUSH1 0x20 PUSH1 0x1 DUP1 PUSH1 0xA0 SHL SUB PUSH1 0x4 SLOAD AND PUSH1 0x40 MLOAD SWAP5 DUP6 DUP1 SWAP3 PUSH4 0x9339EA69 PUSH1 0xE0 SHL DUP3 MSTORE DUP6 PUSH1 0x4 DUP4 ADD MSTORE GAS STATICCALL SWAP3 DUP4 ISZERO PUSH2 0x546 JUMPI DUP6 SWAP4 PUSH2 0x512 JUMPI JUMPDEST POP DUP3 ISZERO PUSH2 0x4D8 JUMPI PUSH13 0xC9F2C9CD04674EDEA40000000 DUP4 MUL PUSH13 0xC9F2C9CD04674EDEA3FFFFFFF NOT DUP5 DUP3 DIV ADD PUSH2 0x4C2 JUMPI DUP5 PUSH2 0x1E6 SWAP2 PUSH2 0x239A JUMP JUMPDEST SWAP3 PUSH1 0x1 DUP4 ADD SLOAD DUP5 GT PUSH2 0x47D JUMPI PUSH1 0x2 SLOAD PUSH1 0x5 SLOAD PUSH1 0x40 MLOAD PUSH4 0x95EA7B3 PUSH1 0xE0 SHL DUP2 MSTORE PUSH1 0x1 PUSH1 0x1 PUSH1 0xA0 SHL SUB SWAP2 DUP3 AND PUSH1 0x4 DUP3 ADD MSTORE PUSH1 0x24 DUP2 ADD DUP8 SWAP1 MSTORE DUP9 SWAP8 SWAP1 SWAP3 SWAP1 SWAP2 PUSH1 0x20 SWAP2 DUP5 SWAP2 PUSH1 0x44 SWAP2 DUP4 SWAP2 DUP13 SWAP2 AND GAS CALL SWAP2 DUP3 ISZERO PUSH2 0x3DA JUMPI PUSH1 0x20 SWAP3 PUSH2 0x460 JUMPI JUMPDEST POP PUSH1 0x5 SLOAD PUSH1 0x40 MLOAD PUSH4 0x7E8586D PUSH1 0xE5 SHL DUP2 MSTORE PUSH1 0x4 DUP2 ADD DUP9 SWAP1 MSTORE PUSH1 0x24 DUP2 ADD SWAP3 SWAP1 SWAP3 MSTORE SWAP1 SWAP7 DUP8 SWAP2 PUSH1 0x44 SWAP2 DUP4 SWAP2 PUSH1 0x1 PUSH1 0x1 PUSH1 0xA0 SHL SUB AND GAS CALL SWAP5 DUP6 ISZERO PUSH2 0x455 JUMPI DUP7 SWAP6 PUSH2 0x41C JUMPI JUMPDEST POP DUP1 DUP6 GT ISZERO PUSH2 0x414 JUMPI SWAP2 JUMPDEST PUSH1 0x3 SLOAD PUSH1 0x4 DUP1 SLOAD PUSH1 0x40 MLOAD PUSH4 0x95EA7B3 PUSH1 0xE0 SHL DUP2 MSTORE PUSH1 0x1 PUSH1 0x1 PUSH1 0xA0 SHL SUB SWAP2 DUP3 AND SWAP3 DUP2 ADD SWAP3 SWAP1 SWAP3 MSTORE PUSH1 0x24 DUP3 ADD DUP7 SWAP1 MSTORE SWAP1 SWAP2 PUSH1 0x20 SWAP2 DUP4 SWAP2 PUSH1 0x44 SWAP2 DUP4 SWAP2 DUP13 SWAP2 AND GAS CALL DUP1 ISZERO PUSH2 0x3DA JUMPI PUSH2 0x3E5 JUMPI JUMPDEST POP DUP6 PUSH1 0x40 PUSH1 0x1 DUP1 PUSH1 0xA0 SHL SUB PUSH1 0x4 SLOAD AND PUSH1 0x44 DUP3 MLOAD DUP1 SWAP5 DUP2 SWAP4 PUSH4 0xD8AED145 PUSH1 0xE0 SHL DUP4 MSTORE DUP9 PUSH1 0x4 DUP5 ADD MSTORE DUP10 PUSH1 0x24 DUP5 ADD MSTORE GAS CALL DUP1 ISZERO PUSH2 0x3DA JUMPI PUSH2 0x3A8 SWAP6 SWAP7 SWAP8 POP PUSH2 0x3AC JUMPI JUMPDEST POP PUSH2 0x326 DUP6 PUSH1 0x1 DUP4 ADD SLOAD PUSH2 0x2490 JUMP JUMPDEST PUSH1 0x1 DUP3 ADD SSTORE PUSH1 0x8 DUP2 ADD PUSH2 0x33A DUP5 DUP3 SLOAD PUSH2 0x249D JUMP JUMPDEST SWAP1 SSTORE PUSH1 0x7 TIMESTAMP SWAP2 ADD SSTORE PUSH32 0x64CC470D924EF687FF28D709B7EF348C355FBE6F2B2E4157A21353815D9C4774 PUSH1 0x40 MLOAD DUP1 PUSH2 0x384 DUP6 DUP10 DUP10 DUP5 PUSH1 0x40 SWAP2 SWAP5 SWAP4 SWAP3 PUSH1 0x60 DUP3 ADD SWAP6 DUP3 MSTORE PUSH1 0x20 DUP3 ADD MSTORE ADD MSTORE JUMP JUMPDEST SUB SWAP1 LOG2 PUSH1 0x1 DUP1 SSTORE PUSH1 0x40 MLOAD SWAP4 DUP5 SWAP4 DUP5 PUSH1 0x40 SWAP2 SWAP5 SWAP4 SWAP3 PUSH1 0x60 DUP3 ADD SWAP6 DUP3 MSTORE PUSH1 0x20 DUP3 ADD MSTORE ADD MSTORE JUMP JUMPDEST SUB SWAP1 RETURN JUMPDEST PUSH2 0x3CD SWAP1 PUSH1 0x40 RETURNDATASIZE PUSH1 0x40 GT PUSH2 0x3D3 JUMPI JUMPDEST PUSH2 0x3C5 DUP2 DUP4 PUSH2 0x217E JUMP JUMPDEST DUP2 ADD SWAP1 PUSH2 0x247A JUMP JUMPDEST POP PUSH2 0x317 JUMP JUMPDEST POP RETURNDATASIZE PUSH2 0x3BB JUMP JUMPDEST PUSH1 0x40 MLOAD RETURNDATASIZE DUP10 DUP3 RETURNDATACOPY RETURNDATASIZE SWAP1 REVERT JUMPDEST PUSH2 0x406 SWAP1 PUSH1 0x20 RETURNDATASIZE PUSH1 0x20 GT PUSH2 0x40D JUMPI JUMPDEST PUSH2 0x3FE DUP2 DUP4 PUSH2 0x217E JUMP JUMPDEST DUP2 ADD SWAP1 PUSH2 0x23BA JUMP JUMPDEST POP CODESIZE PUSH2 0x2D6 JUMP JUMPDEST POP RETURNDATASIZE PUSH2 0x3F4 JUMP JUMPDEST POP DUP4 SWAP2 PUSH2 0x28D JUMP JUMPDEST SWAP1 SWAP5 POP PUSH1 0x20 DUP2 RETURNDATASIZE PUSH1 0x20 GT PUSH2 0x44D JUMPI JUMPDEST DUP2 PUSH2 0x438 PUSH1 0x20 SWAP4 DUP4 PUSH2 0x217E JUMP JUMPDEST DUP2 ADD SUB SLT PUSH2 0x448 JUMPI MLOAD SWAP4 CODESIZE PUSH2 0x282 JUMP JUMPDEST PUSH1 0x0 DUP1 REVERT JUMPDEST RETURNDATASIZE SWAP2 POP PUSH2 0x42B JUMP JUMPDEST PUSH1 0x40 MLOAD RETURNDATASIZE DUP9 DUP3 RETURNDATACOPY RETURNDATASIZE SWAP1 REVERT JUMPDEST PUSH2 0x476 SWAP1 DUP4 RETURNDATASIZE DUP6 GT PUSH2 0x40D JUMPI PUSH2 0x3FE DUP2 DUP4 PUSH2 0x217E JUMP JUMPDEST POP CODESIZE PUSH2 0x240 JUMP JUMPDEST PUSH1 0x40 MLOAD PUSH3 0x461BCD PUSH1 0xE5 SHL DUP2 MSTORE PUSH1 0x20 PUSH1 0x4 DUP3 ADD MSTORE PUSH1 0x17 PUSH1 0x24 DUP3 ADD MSTORE PUSH32 0x496E73756666696369656E7420636F6C6C61746572616C000000000000000000 PUSH1 0x44 DUP3 ADD MSTORE PUSH1 0x64 SWAP1 REVERT JUMPDEST PUSH4 0x4E487B71 PUSH1 0xE0 SHL PUSH1 0x0 MSTORE PUSH1 0x11 PUSH1 0x4 MSTORE PUSH1 0x24 PUSH1 0x0 REVERT JUMPDEST PUSH1 0x40 MLOAD PUSH3 0x461BCD PUSH1 0xE5 SHL DUP2 MSTORE PUSH1 0x20 PUSH1 0x4 DUP3 ADD MSTORE PUSH1 0x12 PUSH1 0x24 DUP3 ADD MSTORE PUSH18 0x4E6F20696E74657265737420746F20706179 PUSH1 0x70 SHL PUSH1 0x44 DUP3 ADD MSTORE PUSH1 0x64 SWAP1 REVERT JUMPDEST SWAP1 SWAP3 POP PUSH1 0x20 DUP2 RETURNDATASIZE PUSH1 0x20 GT PUSH2 0x53E JUMPI JUMPDEST DUP2 PUSH2 0x52E PUSH1 0x20 SWAP4 DUP4 PUSH2 0x217E JUMP JUMPDEST DUP2 ADD SUB SLT PUSH2 0x448 JUMPI MLOAD SWAP2 CODESIZE PUSH2 0x1AE JUMP JUMPDEST RETURNDATASIZE SWAP2 POP PUSH2 0x521 JUMP JUMPDEST PUSH1 0x40 MLOAD RETURNDATASIZE DUP8 DUP3 RETURNDATACOPY RETURNDATASIZE SWAP1 REVERT JUMPDEST DUP1 REVERT JUMPDEST POP CALLVALUE PUSH2 0x551 JUMPI DUP1 PUSH1 0x3 NOT CALLDATASIZE ADD SLT PUSH2 0x551 JUMPI PUSH1 0x4 SLOAD PUSH1 0x40 MLOAD PUSH1 0x1 PUSH1 0x1 PUSH1 0xA0 SHL SUB SWAP1 SWAP2 AND DUP2 MSTORE PUSH1 0x20 SWAP1 RETURN JUMPDEST POP CALLVALUE PUSH2 0x551 JUMPI PUSH1 0x20 CALLDATASIZE PUSH1 0x3 NOT ADD SLT PUSH2 0x551 JUMPI PUSH2 0x597 PUSH2 0x2121 JUMP JUMPDEST PUSH2 0x59F PUSH2 0x22DC JUMP JUMPDEST PUSH1 0x1 PUSH1 0x1 PUSH1 0xA0 SHL SUB SWAP1 DUP2 AND SWAP1 DUP2 ISZERO PUSH2 0x5EF JUMPI PUSH1 0x0 SLOAD DUP3 PUSH1 0x1 PUSH1 0x1 PUSH1 0x60 SHL SUB PUSH1 0xA0 SHL DUP3 AND OR PUSH1 0x0 SSTORE AND PUSH32 0x8BE0079C531659141344CD1FD0A4F28419497F9722A3DAAFE3B4186F6B6457E0 PUSH1 0x0 DUP1 LOG3 DUP1 RETURN JUMPDEST PUSH1 0x40 MLOAD PUSH4 0x1E4FBDF7 PUSH1 0xE0 SHL DUP2 MSTORE PUSH1 0x4 DUP2 ADD DUP5 SWAP1 MSTORE PUSH1 0x24 SWAP1 REVERT JUMPDEST POP CALLVALUE PUSH2 0x551 JUMPI PUSH1 0x20 CALLDATASIZE PUSH1 0x3 NOT ADD SLT PUSH2 0x551 JUMPI DUP1 PUSH1 0x40 SWAP2 PUSH2 0x120 DUP4 MLOAD PUSH2 0x62C DUP2 PUSH2 0x2161 JUMP JUMPDEST DUP3 DUP2 MSTORE DUP3 PUSH1 0x20 DUP3 ADD MSTORE DUP3 DUP6 DUP3 ADD MSTORE DUP3 PUSH1 0x60 DUP3 ADD MSTORE DUP3 PUSH1 0x80 DUP3 ADD MSTORE PUSH1 0x60 PUSH1 0xA0 DUP3 ADD MSTORE DUP3 PUSH1 0xC0 DUP3 ADD MSTORE DUP3 PUSH1 0xE0 DUP3 ADD MSTORE DUP3 PUSH2 0x100 DUP3 ADD MSTORE ADD MSTORE PUSH1 0x4 CALLDATALOAD DUP2 MSTORE PUSH1 0x8 PUSH1 0x20 MSTORE KECCAK256 PUSH1 0xFF PUSH1 0x9 PUSH1 0x40 MLOAD SWAP3 PUSH2 0x67E DUP5 PUSH2 0x2161 JUMP JUMPDEST DUP1 SLOAD PUSH1 0x1 PUSH1 0x1 PUSH1 0xA0 SHL SUB SWAP1 DUP2 AND DUP6 MSTORE PUSH1 0x1 DUP3 ADD SLOAD PUSH1 0x20 DUP7 ADD MSTORE PUSH1 0x2 DUP3 ADD SLOAD PUSH1 0x40 DUP7 ADD MSTORE PUSH1 0x3 DUP3 ADD SLOAD AND PUSH1 0x60 DUP6 ADD MSTORE PUSH1 0x4 DUP2 ADD SLOAD PUSH1 0x80 DUP6 ADD MSTORE PUSH2 0x6C2 PUSH1 0x5 DUP3 ADD PUSH2 0x21F6 JUMP JUMPDEST PUSH1 0xA0 DUP6 ADD MSTORE PUSH1 0x6 DUP2 ADD SLOAD PUSH1 0xC0 DUP6 ADD MSTORE PUSH1 0x7 DUP2 ADD SLOAD PUSH1 0xE0 DUP6 ADD MSTORE PUSH1 0x8 DUP2 ADD SLOAD PUSH2 0x100 DUP6 ADD MSTORE ADD SLOAD AND ISZERO ISZERO PUSH2 0x120 DUP3 ADD MSTORE PUSH1 0x40 MLOAD DUP1 SWAP2 PUSH1 0x20 DUP3 MSTORE PUSH1 0x1 DUP1 PUSH1 0xA0 SHL SUB DUP2 MLOAD AND PUSH1 0x20 DUP4 ADD MSTORE PUSH1 0x20 DUP2 ADD MLOAD PUSH1 0x40 DUP4 ADD MSTORE PUSH1 0x40 DUP2 ADD MLOAD PUSH1 0x60 DUP4 ADD MSTORE PUSH1 0x1 DUP1 PUSH1 0xA0 SHL SUB PUSH1 0x60 DUP3 ADD MLOAD AND PUSH1 0x80 DUP4 ADD MSTORE PUSH1 0x80 DUP2 ADD MLOAD PUSH1 0xA0 DUP4 ADD MSTORE PUSH1 0xA0 DUP2 ADD MLOAD PUSH2 0x120 PUSH2 0x759 PUSH2 0x140 SWAP3 DUP4 PUSH1 0xC0 DUP8 ADD MSTORE PUSH2 0x160 DUP7 ADD SWAP1 PUSH2 0x229C JUMP JUMPDEST SWAP3 PUSH1 0xC0 DUP2 ADD MLOAD PUSH1 0xE0 DUP7 ADD MSTORE PUSH1 0xE0 DUP2 ADD MLOAD PUSH2 0x100 DUP7 ADD MSTORE PUSH2 0x100 DUP2 ADD MLOAD DUP3 DUP7 ADD MSTORE ADD MLOAD ISZERO ISZERO SWAP1 DUP4 ADD MSTORE SUB SWAP1 RETURN JUMPDEST POP CALLVALUE PUSH2 0x551 JUMPI PUSH1 0x20 CALLDATASIZE PUSH1 0x3 NOT ADD SLT PUSH2 0x551 JUMPI PUSH2 0x79F PUSH2 0x2121 JUMP JUMPDEST PUSH2 0x7A7 PUSH2 0x22DC JUMP JUMPDEST PUSH1 0x1 PUSH1 0x1 PUSH1 0xA0 SHL SUB AND PUSH2 0x7BB DUP2 ISZERO ISZERO PUSH2 0x2308 JUMP JUMPDEST PUSH1 0x1 PUSH1 0x1 PUSH1 0x60 SHL SUB PUSH1 0xA0 SHL PUSH1 0x7 SLOAD AND OR PUSH1 0x7 SSTORE DUP1 RETURN JUMPDEST POP CALLVALUE PUSH2 0x551 JUMPI DUP1 PUSH1 0x3 NOT CALLDATASIZE ADD SLT PUSH2 0x551 JUMPI PUSH1 0x20 PUSH1 0x40 MLOAD PUSH2 0x2710 DUP2 MSTORE RETURN JUMPDEST POP CALLVALUE PUSH2 0x551 JUMPI PUSH2 0x7FD CALLDATASIZE PUSH2 0x210B JUMP JUMPDEST SWAP1 SWAP2 PUSH2 0x807 PUSH2 0x22DC JUMP JUMPDEST PUSH2 0x80F PUSH2 0x2415 JUMP JUMPDEST DUP3 DUP2 MSTORE PUSH1 0x20 SWAP3 PUSH1 0x8 DUP5 MSTORE PUSH1 0x40 DUP3 KECCAK256 SWAP3 PUSH2 0x832 PUSH1 0xFF PUSH1 0x9 DUP7 ADD DUP1 PUSH1 0xA0 MSTORE SLOAD AND PUSH2 0x2438 JUMP JUMPDEST PUSH2 0x83D DUP2 ISZERO ISZERO PUSH2 0x2346 JUMP JUMPDEST PUSH2 0x2CEC PUSH2 0x84A DUP3 DUP5 PUSH2 0x24AA JUMP JUMPDEST LT ISZERO PUSH2 0xCFC JUMPI DUP4 SLOAD PUSH1 0x1 SWAP1 SWAP5 ADD DUP1 SLOAD PUSH1 0x2 SLOAD PUSH1 0x5 SLOAD PUSH1 0x1 PUSH1 0x1 PUSH1 0xA0 SHL SUB SWAP1 DUP2 AND PUSH1 0xC0 SWAP1 DUP2 MSTORE PUSH1 0x40 MLOAD PUSH4 0x95EA7B3 PUSH1 0xE0 SHL PUSH1 0x80 DUP2 SWAP1 MSTORE DUP2 MSTORE SWAP1 MLOAD DUP3 AND PUSH1 0x4 DUP3 ADD MSTORE PUSH1 0x24 DUP2 ADD DUP5 SWAP1 MSTORE SWAP9 SWAP8 DUP2 AND SWAP8 SWAP4 SWAP6 SWAP3 SWAP5 SWAP2 DUP5 SWAP1 DUP11 SWAP1 PUSH1 0x44 SWAP1 DUP3 SWAP1 DUP12 SWAP1 DUP7 AND GAS CALL SWAP9 DUP10 ISZERO PUSH2 0x3DA JUMPI DUP8 SWAP9 SWAP10 SWAP8 SWAP7 SWAP8 PUSH2 0xCDF JUMPI JUMPDEST POP DUP4 DUP2 PUSH1 0x5 SLOAD AND PUSH1 0x44 PUSH1 0x40 MLOAD DUP1 SWAP12 DUP2 SWAP4 PUSH4 0x7E8586D PUSH1 0xE5 SHL DUP4 MSTORE DUP11 PUSH1 0x4 DUP5 ADD MSTORE PUSH1 0x24 SWAP8 DUP9 DUP5 ADD MSTORE GAS CALL SWAP8 DUP9 ISZERO PUSH2 0x455 JUMPI DUP7 SWAP9 PUSH2 0xCB0 JUMPI JUMPDEST POP DUP1 PUSH1 0x4 SLOAD AND SWAP9 PUSH1 0x40 MLOAD SWAP10 PUSH4 0xD5595157 PUSH1 0xE0 SHL DUP12 MSTORE DUP5 PUSH1 0x4 DUP13 ADD MSTORE DUP6 DUP12 DUP6 DUP2 DUP5 GAS STATICCALL SWAP11 DUP12 ISZERO PUSH2 0xC42 JUMPI DUP9 SWAP12 PUSH2 0xC81 JUMPI JUMPDEST POP DUP11 DUP11 GT ISZERO PUSH2 0xC75 JUMPI PUSH2 0x96A DUP7 DUP13 DUP1 SWAP4 JUMPDEST PUSH1 0x3 SLOAD PUSH1 0x40 MLOAD PUSH1 0x80 MLOAD DUP2 MSTORE PUSH1 0x1 PUSH1 0x1 PUSH1 0xA0 SHL SUB SWAP1 SWAP3 AND PUSH1 0x4 DUP4 ADD MSTORE PUSH1 0x24 DUP3 ADD SWAP3 SWAP1 SWAP3 MSTORE SWAP3 DUP4 SWAP2 DUP8 AND SWAP1 DUP3 SWAP1 DUP14 SWAP1 DUP3 SWAP1 PUSH1 0x44 DUP3 ADD SWAP1 JUMP JUMPDEST SUB SWAP3 GAS CALL DUP1 ISZERO PUSH2 0xC6A JUMPI SWAP2 PUSH1 0x40 SWAP2 DUP11 SWAP4 PUSH2 0xC4D JUMPI JUMPDEST POP PUSH1 0x44 DUP6 PUSH1 0x4 SLOAD AND SWAP2 DUP4 MLOAD SWAP5 DUP6 SWAP4 DUP5 SWAP3 PUSH4 0xD8AED145 PUSH1 0xE0 SHL DUP5 MSTORE DUP12 PUSH1 0x4 DUP6 ADD MSTORE DUP11 DUP5 ADD MSTORE GAS CALL DUP1 ISZERO PUSH2 0xC42 JUMPI PUSH2 0xC24 JUMPI JUMPDEST POP DUP9 DUP11 GT ISZERO PUSH2 0xA31 JUMPI POP POP POP PUSH32 0x4BA60DDCD85FCD2F0C78A5AA6C5B134AFFD0C4F0D827EB4C6034F5388A8AB01F PUSH1 0xA0 PUSH2 0x9EB DUP9 PUSH1 0x80 SWAP11 PUSH2 0x2490 JUMP JUMPDEST SWAP5 DUP7 DUP1 SWAP9 JUMPDEST DUP4 MLOAD PUSH1 0xFF NOT DUP2 SLOAD AND SWAP1 SSTORE SSTORE PUSH1 0x40 MLOAD SWAP1 DUP2 MSTORE DUP9 DUP6 DUP3 ADD MSTORE DUP6 PUSH1 0x40 DUP3 ADD MSTORE DUP7 PUSH1 0x60 DUP3 ADD MSTORE DUP8 DUP11 DUP3 ADD MSTORE LOG2 PUSH1 0x1 DUP1 SSTORE PUSH1 0x40 MLOAD SWAP5 DUP6 MSTORE DUP5 ADD MSTORE PUSH1 0x40 DUP4 ADD MSTORE PUSH1 0x60 DUP3 ADD MSTORE RETURN JUMPDEST SWAP6 SWAP1 SWAP7 PUSH2 0xA43 DUP3 SWAP11 SWAP7 SWAP4 SWAP11 SWAP7 DUP11 PUSH2 0x2490 JUMP JUMPDEST SWAP7 PUSH2 0x1F4 DUP1 DUP10 MUL SWAP1 DUP10 DUP3 DIV EQ DUP10 ISZERO OR ISZERO PUSH2 0xC11 JUMPI PUSH2 0x2710 PUSH2 0xA66 SWAP2 DIV DUP1 SWAP10 PUSH2 0x2490 JUMP JUMPDEST SWAP9 DUP9 PUSH2 0xB61 JUMPI JUMPDEST DUP10 PUSH2 0xAA4 JUMPI JUMPDEST POP POP PUSH1 0x80 SWAP10 POP SWAP2 PUSH1 0xA0 SWAP2 PUSH32 0x4BA60DDCD85FCD2F0C78A5AA6C5B134AFFD0C4F0D827EB4C6034F5388A8AB01F SWAP4 PUSH2 0x9F0 JUMP JUMPDEST PUSH1 0x3 SLOAD PUSH1 0x40 MLOAD PUSH4 0xA9059CBB PUSH1 0xE0 SHL DUP2 MSTORE PUSH1 0x1 PUSH1 0x1 PUSH1 0xA0 SHL SUB SWAP4 SWAP1 SWAP4 AND PUSH1 0x4 DUP5 ADD MSTORE PUSH1 0x24 DUP4 ADD DUP12 SWAP1 MSTORE DUP8 SWAP2 DUP4 SWAP2 PUSH1 0x44 SWAP2 DUP4 SWAP2 DUP9 SWAP2 AND GAS CALL SWAP1 DUP2 ISZERO PUSH2 0xB56 JUMPI DUP4 SWAP2 PUSH2 0xB39 JUMPI JUMPDEST POP ISZERO PUSH2 0xAF5 JUMPI DUP10 DUP1 PUSH2 0xA73 JUMP JUMPDEST PUSH1 0x40 MLOAD PUSH3 0x461BCD PUSH1 0xE5 SHL DUP2 MSTORE PUSH1 0x4 DUP2 ADD DUP7 SWAP1 MSTORE PUSH1 0x1B DUP2 DUP13 ADD MSTORE PUSH32 0x4578636573732055534443207472616E73666572206661696C65640000000000 PUSH1 0x44 DUP3 ADD MSTORE PUSH1 0x64 SWAP1 REVERT JUMPDEST PUSH2 0xB50 SWAP2 POP DUP7 RETURNDATASIZE DUP9 GT PUSH2 0x40D JUMPI PUSH2 0x3FE DUP2 DUP4 PUSH2 0x217E JUMP JUMPDEST CODESIZE PUSH2 0xAE8 JUMP JUMPDEST PUSH1 0x40 MLOAD RETURNDATASIZE DUP6 DUP3 RETURNDATACOPY RETURNDATASIZE SWAP1 REVERT JUMPDEST PUSH1 0x3 SLOAD DUP5 SLOAD PUSH1 0x40 MLOAD PUSH4 0xA9059CBB PUSH1 0xE0 SHL DUP2 MSTORE SWAP1 DUP4 AND PUSH1 0x1 PUSH1 0x1 PUSH1 0xA0 SHL SUB AND PUSH1 0x4 DUP3 ADD MSTORE PUSH1 0x24 DUP2 ADD DUP12 SWAP1 MSTORE SWAP1 DUP9 SWAP1 DUP3 SWAP1 DUP5 AND DUP2 DUP9 DUP2 PUSH1 0x44 DUP2 ADD SUB SWAP3 GAS CALL SWAP1 DUP2 ISZERO PUSH2 0x546 JUMPI DUP6 SWAP2 PUSH2 0xBF4 JUMPI JUMPDEST POP PUSH2 0xA6D JUMPI PUSH1 0x40 MLOAD PUSH3 0x461BCD PUSH1 0xE5 SHL DUP2 MSTORE PUSH1 0x4 DUP2 ADD DUP9 SWAP1 MSTORE PUSH1 0x1F DUP2 DUP15 ADD MSTORE PUSH32 0x4C69717569646174696F6E20666565207472616E73666572206661696C656400 PUSH1 0x44 DUP3 ADD MSTORE PUSH1 0x64 SWAP1 REVERT JUMPDEST PUSH2 0xC0B SWAP2 POP DUP9 RETURNDATASIZE DUP11 GT PUSH2 0x40D JUMPI PUSH2 0x3FE DUP2 DUP4 PUSH2 0x217E JUMP JUMPDEST CODESIZE PUSH2 0xBAB JUMP JUMPDEST PUSH4 0x4E487B71 PUSH1 0xE0 SHL DUP5 MSTORE PUSH1 0x11 PUSH1 0x4 MSTORE DUP12 DUP5 REVERT JUMPDEST PUSH2 0xC3C SWAP1 PUSH1 0x40 RETURNDATASIZE PUSH1 0x40 GT PUSH2 0x3D3 JUMPI PUSH2 0x3C5 DUP2 DUP4 PUSH2 0x217E JUMP JUMPDEST POP PUSH2 0x9B0 JUMP JUMPDEST PUSH1 0x40 MLOAD RETURNDATASIZE DUP11 DUP3 RETURNDATACOPY RETURNDATASIZE SWAP1 REVERT JUMPDEST PUSH2 0xC63 SWAP1 DUP10 RETURNDATASIZE DUP12 GT PUSH2 0x40D JUMPI PUSH2 0x3FE DUP2 DUP4 PUSH2 0x217E JUMP JUMPDEST POP CODESIZE PUSH2 0x97F JUMP JUMPDEST PUSH1 0x40 MLOAD RETURNDATASIZE DUP12 DUP3 RETURNDATACOPY RETURNDATASIZE SWAP1 REVERT JUMPDEST PUSH2 0x96A DUP7 DUP12 DUP1 SWAP4 PUSH2 0x934 JUMP JUMPDEST SWAP1 SWAP11 POP DUP6 DUP2 DUP2 RETURNDATASIZE DUP4 GT PUSH2 0xCA9 JUMPI JUMPDEST PUSH2 0xC99 DUP2 DUP4 PUSH2 0x217E JUMP JUMPDEST DUP2 ADD SUB SLT PUSH2 0x448 JUMPI MLOAD SWAP10 CODESIZE PUSH2 0x923 JUMP JUMPDEST POP RETURNDATASIZE PUSH2 0xC8F JUMP JUMPDEST SWAP1 SWAP8 POP DUP4 DUP2 DUP2 RETURNDATASIZE DUP4 GT PUSH2 0xCD8 JUMPI JUMPDEST PUSH2 0xCC8 DUP2 DUP4 PUSH2 0x217E JUMP JUMPDEST DUP2 ADD SUB SLT PUSH2 0x448 JUMPI MLOAD SWAP7 CODESIZE PUSH2 0x8F3 JUMP JUMPDEST POP RETURNDATASIZE PUSH2 0xCBE JUMP JUMPDEST PUSH2 0xCF5 SWAP1 DUP6 RETURNDATASIZE DUP8 GT PUSH2 0x40D JUMPI PUSH2 0x3FE DUP2 DUP4 PUSH2 0x217E JUMP JUMPDEST POP CODESIZE PUSH2 0x8BC JUMP JUMPDEST PUSH1 0x40 MLOAD PUSH3 0x461BCD PUSH1 0xE5 SHL DUP2 MSTORE PUSH1 0x4 DUP2 ADD DUP7 SWAP1 MSTORE PUSH1 0x13 PUSH1 0x24 DUP3 ADD MSTORE PUSH19 0x506F736974696F6E206973206865616C746879 PUSH1 0x68 SHL PUSH1 0x44 DUP3 ADD MSTORE PUSH1 0x64 SWAP1 REVERT JUMPDEST POP CALLVALUE PUSH2 0x551 JUMPI PUSH2 0xD46 CALLDATASIZE PUSH2 0x210B JUMP JUMPDEST PUSH2 0xD4E PUSH2 0x2415 JUMP JUMPDEST DUP2 DUP4 MSTORE PUSH1 0x20 PUSH1 0x8 DUP2 MSTORE PUSH1 0x40 DUP5 KECCAK256 SWAP2 PUSH2 0xD6C PUSH1 0xFF PUSH1 0x9 DUP6 ADD SLOAD AND PUSH2 0x2438 JUMP JUMPDEST DUP3 SLOAD PUSH1 0x1 PUSH1 0x1 PUSH1 0xA0 SHL SUB SWAP1 DUP2 AND CALLER SUB PUSH2 0xE67 JUMPI DUP2 ISZERO PUSH2 0xE2D JUMPI PUSH1 0x2 SLOAD PUSH1 0x40 MLOAD PUSH4 0x23B872DD PUSH1 0xE0 SHL DUP2 MSTORE CALLER PUSH1 0x4 DUP3 ADD MSTORE ADDRESS PUSH1 0x24 DUP3 ADD MSTORE PUSH1 0x44 DUP2 ADD DUP5 SWAP1 MSTORE SWAP5 SWAP2 DUP5 SWAP2 DUP7 SWAP2 PUSH1 0x64 SWAP2 DUP4 SWAP2 DUP12 SWAP2 AND GAS CALL SWAP1 DUP2 ISZERO PUSH2 0x455 JUMPI PUSH2 0xDF4 PUSH1 0x1 SWAP3 PUSH32 0x244160B15E69CC411F041D94AE7FAB6F6BBA85DADE8403216C05FF4B920D5449 SWAP7 DUP10 SWAP2 PUSH2 0xE10 JUMPI JUMPDEST POP PUSH2 0x23D2 JUMP JUMPDEST ADD PUSH2 0xE00 DUP3 DUP3 SLOAD PUSH2 0x249D JUMP JUMPDEST SWAP1 SSTORE PUSH1 0x40 MLOAD SWAP1 DUP2 MSTORE LOG2 PUSH1 0x1 DUP1 SSTORE DUP1 RETURN JUMPDEST PUSH2 0xE27 SWAP2 POP DUP7 RETURNDATASIZE DUP9 GT PUSH2 0x40D JUMPI PUSH2 0x3FE DUP2 DUP4 PUSH2 0x217E JUMP JUMPDEST CODESIZE PUSH2 0xDEE JUMP JUMPDEST PUSH1 0x40 MLOAD PUSH3 0x461BCD PUSH1 0xE5 SHL DUP2 MSTORE PUSH1 0x4 DUP2 ADD DUP5 SWAP1 MSTORE PUSH1 0x12 PUSH1 0x24 DUP3 ADD MSTORE PUSH18 0x416D6F756E74206D757374206265203E203 PUSH1 0x74 SHL PUSH1 0x44 DUP3 ADD MSTORE PUSH1 0x64 SWAP1 REVERT JUMPDEST PUSH1 0x40 MLOAD PUSH3 0x461BCD PUSH1 0xE5 SHL DUP2 MSTORE PUSH1 0x4 DUP2 ADD DUP5 SWAP1 MSTORE PUSH1 0x12 PUSH1 0x24 DUP3 ADD MSTORE PUSH18 0x2737BA103837B9B4BA34B7B71037BBB732B9 PUSH1 0x71 SHL PUSH1 0x44 DUP3 ADD MSTORE PUSH1 0x64 SWAP1 REVERT JUMPDEST POP CALLVALUE PUSH2 0x551 JUMPI DUP1 PUSH1 0x3 NOT CALLDATASIZE ADD SLT PUSH2 0x551 JUMPI PUSH1 0x6 SLOAD PUSH1 0x40 MLOAD PUSH1 0x1 PUSH1 0x1 PUSH1 0xA0 SHL SUB SWAP1 SWAP2 AND DUP2 MSTORE PUSH1 0x20 SWAP1 RETURN JUMPDEST POP CALLVALUE PUSH2 0x551 JUMPI PUSH1 0x20 CALLDATASIZE PUSH1 0x3 NOT ADD SLT PUSH2 0x551 JUMPI PUSH1 0x40 SWAP1 PUSH1 0x4 CALLDATALOAD DUP2 MSTORE PUSH1 0x8 PUSH1 0x20 MSTORE KECCAK256 PUSH1 0x1 DUP1 PUSH1 0xA0 SHL SUB SWAP1 DUP2 DUP2 SLOAD AND SWAP1 PUSH1 0x1 DUP2 ADD SLOAD SWAP3 PUSH1 0x2 DUP3 ADD SLOAD SWAP1 PUSH1 0x3 DUP4 ADD SLOAD AND SWAP2 PUSH1 0x4 DUP2 ADD SLOAD SWAP3 PUSH2 0xF66 PUSH2 0xF1F PUSH1 0x5 DUP5 ADD PUSH2 0x21F6 JUMP JUMPDEST PUSH1 0x6 DUP5 ADD SLOAD SWAP6 PUSH1 0x7 DUP6 ADD SLOAD SWAP4 PUSH1 0xFF PUSH1 0x9 PUSH1 0x8 DUP9 ADD SLOAD SWAP8 ADD SLOAD AND SWAP7 PUSH1 0x40 MLOAD SWAP11 DUP12 SWAP11 DUP12 MSTORE PUSH1 0x20 DUP12 ADD MSTORE PUSH1 0x40 DUP11 ADD MSTORE PUSH1 0x60 DUP10 ADD MSTORE PUSH1 0x80 DUP9 ADD MSTORE PUSH2 0x140 DUP1 PUSH1 0xA0 DUP10 ADD MSTORE DUP8 ADD SWAP1 PUSH2 0x229C JUMP JUMPDEST SWAP4 PUSH1 0xC0 DUP7 ADD MSTORE PUSH1 0xE0 DUP6 ADD MSTORE PUSH2 0x100 DUP5 ADD MSTORE ISZERO ISZERO PUSH2 0x120 DUP4 ADD MSTORE SUB SWAP1 RETURN JUMPDEST POP CALLVALUE PUSH2 0x551 JUMPI PUSH1 0x80 CALLDATASIZE PUSH1 0x3 NOT ADD SLT PUSH2 0x551 JUMPI PUSH1 0x1 PUSH1 0x1 PUSH1 0xA0 SHL SUB SWAP1 PUSH1 0x24 DUP1 CALLDATALOAD SWAP2 DUP4 DUP4 AND DUP4 SUB PUSH2 0x448 JUMPI PUSH1 0x44 CALLDATALOAD SWAP1 DUP5 DUP3 AND SWAP3 DUP4 DUP4 SUB PUSH2 0x448 JUMPI PUSH1 0x64 CALLDATALOAD SWAP5 PUSH2 0xFC7 PUSH2 0x22DC JUMP JUMPDEST PUSH2 0xFCF PUSH2 0x2415 JUMP JUMPDEST PUSH1 0x4 CALLDATALOAD DUP4 MSTORE PUSH1 0x20 SWAP7 PUSH1 0x8 DUP9 MSTORE PUSH1 0x40 DUP5 KECCAK256 PUSH2 0xFEF PUSH1 0xFF PUSH1 0x9 DUP4 ADD SLOAD AND PUSH2 0x2438 JUMP JUMPDEST DUP7 DUP3 PUSH1 0x3 DUP4 ADD SLOAD AND SUB PUSH2 0x1254 JUMPI PUSH1 0x4 ADD SWAP6 DUP7 SLOAD DUP9 GT PUSH2 0x1210 JUMPI PUSH1 0x40 MLOAD PUSH4 0x95EA7B3 PUSH1 0xE0 SHL DUP2 MSTORE PUSH1 0x1 PUSH1 0x1 PUSH1 0xA0 SHL SUB DUP5 AND PUSH1 0x4 DUP3 ADD MSTORE PUSH1 0x24 DUP2 ADD DUP10 SWAP1 MSTORE SWAP1 DUP10 SWAP1 DUP3 SWAP1 PUSH1 0x44 SWAP1 DUP3 SWAP1 DUP10 SWAP1 GAS CALL DUP1 ISZERO PUSH2 0x546 JUMPI PUSH2 0x11F3 JUMPI JUMPDEST POP DUP1 PUSH1 0x3 SLOAD AND SWAP2 PUSH1 0x40 MLOAD SWAP6 DUP10 DUP8 DUP7 DUP2 PUSH4 0x70A08231 PUSH1 0xE0 SHL SWAP8 DUP9 DUP3 MSTORE ADDRESS PUSH1 0x4 DUP4 ADD MSTORE GAS STATICCALL SWAP7 DUP8 ISZERO PUSH2 0x455 JUMPI DUP11 DUP11 SWAP2 DUP9 SWAP10 PUSH2 0x11BF JUMPI JUMPDEST POP PUSH1 0x40 DUP1 MLOAD PUSH4 0xC34F5ED PUSH1 0xE1 SHL SWAP3 DUP2 ADD SWAP3 DUP4 MSTORE PUSH1 0x1 PUSH1 0x1 PUSH1 0xA0 SHL SUB SWAP1 SWAP5 AND DUP9 DUP6 ADD SWAP1 DUP2 MSTORE PUSH1 0x20 DUP2 ADD SWAP4 SWAP1 SWAP4 MSTORE DUP9 SWAP5 DUP6 SWAP5 SWAP1 SWAP4 DUP6 SWAP3 PUSH2 0x10C1 SWAP2 DUP4 SWAP2 ADD SUB PUSH1 0x1F NOT DUP2 ADD DUP4 MSTORE DUP3 PUSH2 0x217E JUMP JUMPDEST MLOAD SWAP3 GAS CALL RETURNDATASIZE ISZERO PUSH2 0x11BA JUMPI RETURNDATASIZE PUSH2 0x10D5 DUP2 PUSH2 0x21A0 JUMP JUMPDEST SWAP1 PUSH2 0x10E3 PUSH1 0x40 MLOAD SWAP3 DUP4 PUSH2 0x217E JUMP JUMPDEST DUP2 MSTORE DUP6 DUP11 RETURNDATASIZE SWAP3 ADD RETURNDATACOPY JUMPDEST ISZERO PUSH2 0x1176 JUMPI SWAP1 DUP8 SWAP2 PUSH1 0x3 SLOAD AND SWAP3 PUSH1 0x40 MLOAD DUP1 SWAP5 DUP2 SWAP4 DUP3 MSTORE ADDRESS PUSH1 0x4 DUP4 ADD MSTORE GAS STATICCALL SWAP2 DUP3 ISZERO PUSH2 0x116A JUMPI SWAP2 PUSH2 0x113B JUMPI JUMPDEST POP PUSH2 0x112D SWAP2 PUSH2 0x1125 SWAP2 PUSH2 0x2490 JUMP JUMPDEST SWAP3 DUP3 SLOAD PUSH2 0x2490 JUMP JUMPDEST SWAP1 SSTORE PUSH1 0x1 DUP1 SSTORE PUSH1 0x40 MLOAD SWAP1 DUP2 MSTORE RETURN JUMPDEST SWAP1 POP DUP5 DUP2 DUP2 RETURNDATASIZE DUP4 GT PUSH2 0x1163 JUMPI JUMPDEST PUSH2 0x1152 DUP2 DUP4 PUSH2 0x217E JUMP JUMPDEST DUP2 ADD SUB SLT PUSH2 0x448 JUMPI MLOAD PUSH2 0x112D PUSH2 0x1117 JUMP JUMPDEST POP RETURNDATASIZE PUSH2 0x1148 JUMP JUMPDEST PUSH1 0x40 MLOAD SWAP1 RETURNDATASIZE SWAP1 DUP3 RETURNDATACOPY RETURNDATASIZE SWAP1 REVERT JUMPDEST PUSH1 0x40 MLOAD PUSH3 0x461BCD PUSH1 0xE5 SHL DUP2 MSTORE PUSH1 0x4 DUP2 ADD DUP10 SWAP1 MSTORE PUSH1 0x17 DUP2 DUP6 ADD MSTORE PUSH32 0x5969656C645661756C7420636C61696D206661696C6564000000000000000000 PUSH1 0x44 DUP3 ADD MSTORE PUSH1 0x64 SWAP1 REVERT JUMPDEST PUSH2 0x10EC JUMP JUMPDEST SWAP3 SWAP4 SWAP9 POP SWAP1 POP DUP2 DUP2 RETURNDATASIZE DUP4 GT PUSH2 0x11EC JUMPI JUMPDEST PUSH2 0x11D9 DUP2 DUP4 PUSH2 0x217E JUMP JUMPDEST DUP2 ADD SUB SLT PUSH2 0x448 JUMPI MLOAD SWAP6 SWAP1 DUP9 DUP11 DUP8 PUSH2 0x1078 JUMP JUMPDEST POP RETURNDATASIZE PUSH2 0x11CF JUMP JUMPDEST PUSH2 0x1209 SWAP1 DUP10 RETURNDATASIZE DUP12 GT PUSH2 0x40D JUMPI PUSH2 0x3FE DUP2 DUP4 PUSH2 0x217E JUMP JUMPDEST POP CODESIZE PUSH2 0x1044 JUMP JUMPDEST PUSH1 0x40 MLOAD PUSH3 0x461BCD PUSH1 0xE5 SHL DUP2 MSTORE PUSH1 0x4 DUP2 ADD DUP11 SWAP1 MSTORE PUSH1 0x17 DUP2 DUP7 ADD MSTORE PUSH32 0x496E73756666696369656E742052574120746F6B656E73000000000000000000 PUSH1 0x44 DUP3 ADD MSTORE PUSH1 0x64 SWAP1 REVERT JUMPDEST PUSH1 0x40 MLOAD PUSH3 0x461BCD PUSH1 0xE5 SHL DUP2 MSTORE PUSH1 0x4 DUP2 ADD DUP11 SWAP1 MSTORE PUSH1 0xE DUP2 DUP7 ADD MSTORE PUSH14 0xA8DED6CADC40DAD2E6DAC2E8C6D PUSH1 0x93 SHL PUSH1 0x44 DUP3 ADD MSTORE PUSH1 0x64 SWAP1 REVERT JUMPDEST POP CALLVALUE PUSH2 0x551 JUMPI DUP1 PUSH1 0x3 NOT CALLDATASIZE ADD SLT PUSH2 0x551 JUMPI PUSH1 0x20 PUSH1 0x40 MLOAD PUSH2 0x2CEC DUP2 MSTORE RETURN JUMPDEST POP CALLVALUE PUSH2 0x551 JUMPI DUP1 PUSH1 0x3 NOT CALLDATASIZE ADD SLT PUSH2 0x551 JUMPI SLOAD PUSH1 0x40 MLOAD PUSH1 0x1 PUSH1 0x1 PUSH1 0xA0 SHL SUB SWAP1 SWAP2 AND DUP2 MSTORE PUSH1 0x20 SWAP1 RETURN JUMPDEST POP CALLVALUE PUSH2 0x551 JUMPI DUP1 PUSH1 0x3 NOT CALLDATASIZE ADD SLT PUSH2 0x551 JUMPI PUSH1 0x20 PUSH1 0x9 SLOAD PUSH1 0x40 MLOAD SWAP1 DUP2 MSTORE RETURN JUMPDEST POP CALLVALUE PUSH2 0x551 JUMPI PUSH2 0x100 CALLDATASIZE PUSH1 0x3 NOT ADD SLT PUSH2 0x551 JUMPI PUSH2 0x1306 PUSH2 0x2121 JUMP JUMPDEST PUSH1 0x64 CALLDATALOAD PUSH1 0x1 PUSH1 0x1 PUSH1 0xA0 SHL SUB DUP2 AND DUP2 SUB PUSH2 0x1924 JUMPI PUSH1 0xA4 CALLDATALOAD SWAP2 PUSH8 0xFFFFFFFFFFFFFFFF DUP4 GT PUSH2 0x18DF JUMPI CALLDATASIZE PUSH1 0x23 DUP5 ADD SLT ISZERO PUSH2 0x18DF JUMPI DUP4 DUP4 PUSH1 0x4 ADD CALLDATALOAD SWAP4 PUSH2 0x1347 DUP6 PUSH2 0x21A0 JUMP JUMPDEST SWAP5 PUSH2 0x1355 PUSH1 0x40 MLOAD SWAP7 DUP8 PUSH2 0x217E JUMP JUMPDEST DUP1 DUP7 MSTORE CALLDATASIZE PUSH1 0x24 DUP3 DUP5 ADD ADD GT PUSH2 0x1924 JUMPI DUP1 PUSH1 0x24 PUSH1 0x20 SWAP4 ADD DUP4 DUP9 ADD CALLDATACOPY DUP6 ADD ADD MSTORE PUSH1 0xE4 CALLDATALOAD PUSH2 0x137E PUSH2 0x22DC JUMP JUMPDEST PUSH2 0x1386 PUSH2 0x2415 JUMP JUMPDEST PUSH1 0x1 PUSH1 0x1 PUSH1 0xA0 SHL SUB DUP3 AND ISZERO PUSH2 0x1AAE JUMPI PUSH1 0x24 CALLDATALOAD ISZERO PUSH2 0x1A69 JUMPI PUSH1 0x44 CALLDATALOAD ISZERO PUSH2 0x1A24 JUMPI PUSH1 0x1 PUSH1 0x1 PUSH1 0xA0 SHL SUB DUP4 AND ISZERO PUSH2 0x19EB JUMPI PUSH2 0x13BF DUP2 ISZERO ISZERO PUSH2 0x2346 JUMP JUMPDEST PUSH1 0x7 SLOAD PUSH1 0x1 PUSH1 0x1 PUSH1 0xA0 SHL SUB AND ISZERO PUSH2 0x19AE JUMPI PUSH2 0x13EA PUSH13 0xC9F2C9CD04674EDEA40000000 SWAP2 PUSH1 0x24 CALLDATALOAD PUSH2 0x2387 JUMP JUMPDEST DIV PUSH2 0x3A98 DUP1 PUSH1 0x44 CALLDATALOAD MUL SWAP1 PUSH1 0x44 CALLDATALOAD DUP3 DIV SUB PUSH2 0x199A JUMPI PUSH2 0x2710 SWAP1 DIV GT PUSH2 0x1941 JUMPI PUSH1 0x2 SLOAD PUSH1 0x40 MLOAD PUSH4 0x23B872DD PUSH1 0xE0 SHL DUP2 MSTORE PUSH1 0x1 PUSH1 0x1 PUSH1 0xA0 SHL SUB DUP4 DUP2 AND PUSH1 0x4 DUP4 ADD MSTORE ADDRESS PUSH1 0x24 DUP1 DUP5 ADD SWAP2 SWAP1 SWAP2 MSTORE CALLDATALOAD PUSH1 0x44 DUP4 ADD MSTORE SWAP1 SWAP2 PUSH1 0x20 SWAP2 DUP4 SWAP2 PUSH1 0x64 SWAP2 DUP4 SWAP2 DUP11 SWAP2 AND GAS CALL DUP1 ISZERO PUSH2 0x546 JUMPI PUSH2 0x145F SWAP2 DUP7 SWAP2 PUSH2 0x1928 JUMPI POP PUSH2 0x23D2 JUMP JUMPDEST PUSH1 0x4 SLOAD PUSH1 0x9 SLOAD DUP6 SWAP2 PUSH1 0x1 PUSH1 0x1 PUSH1 0xA0 SHL SUB AND DUP1 EXTCODESIZE ISZERO PUSH2 0x1924 JUMPI PUSH1 0x44 DUP4 SWAP3 PUSH1 0x40 MLOAD SWAP5 DUP6 SWAP4 DUP5 SWAP3 PUSH4 0xECBCDAB PUSH1 0xE0 SHL DUP5 MSTORE PUSH1 0x4 DUP5 ADD MSTORE DUP4 CALLDATALOAD PUSH1 0x24 DUP5 ADD MSTORE GAS CALL DUP1 ISZERO PUSH2 0x546 JUMPI PUSH2 0x1911 JUMPI JUMPDEST POP PUSH1 0x3 SLOAD PUSH1 0x7 SLOAD PUSH1 0x40 MLOAD PUSH4 0x95EA7B3 PUSH1 0xE0 SHL DUP2 MSTORE PUSH1 0x1 PUSH1 0x1 PUSH1 0xA0 SHL SUB SWAP2 DUP3 AND PUSH1 0x4 DUP3 ADD MSTORE PUSH1 0x44 DUP1 CALLDATALOAD PUSH1 0x24 DUP4 ADD MSTORE SWAP1 SWAP3 PUSH1 0x20 SWAP3 DUP5 SWAP3 SWAP2 DUP4 SWAP2 DUP11 SWAP2 AND GAS CALL DUP1 ISZERO PUSH2 0x546 JUMPI PUSH2 0x18F2 JUMPI JUMPDEST POP PUSH1 0x7 SLOAD DUP5 SWAP1 PUSH1 0x1 PUSH1 0x1 PUSH1 0xA0 SHL SUB AND DUP1 EXTCODESIZE ISZERO PUSH2 0x18EE JUMPI DUP2 DUP1 SWAP2 PUSH1 0x44 PUSH1 0x40 MLOAD DUP1 SWAP5 DUP2 SWAP4 PUSH4 0x7F5D633 PUSH1 0xE0 SHL DUP4 MSTORE PUSH1 0xC4 CALLDATALOAD PUSH1 0x4 DUP5 ADD MSTORE PUSH1 0x84 CALLDATALOAD PUSH1 0x24 DUP5 ADD MSTORE GAS CALL DUP1 ISZERO PUSH2 0x18E3 JUMPI PUSH2 0x18CB JUMPI JUMPDEST POP POP PUSH1 0x40 MLOAD PUSH4 0x70A08231 PUSH1 0xE0 SHL DUP2 MSTORE ADDRESS PUSH1 0x4 DUP3 ADD MSTORE PUSH1 0x20 DUP2 PUSH1 0x24 DUP2 PUSH1 0x1 PUSH1 0x1 PUSH1 0xA0 SHL SUB DUP8 AND GAS STATICCALL SWAP1 DUP2 ISZERO PUSH2 0x546 JUMPI DUP6 SWAP2 PUSH2 0x1899 JUMPI JUMPDEST POP PUSH1 0x84 CALLDATALOAD GT PUSH2 0x1854 JUMPI PUSH1 0x9 SLOAD SWAP3 PUSH1 0x0 NOT DUP5 EQ PUSH2 0x1840 JUMPI PUSH1 0x1 DUP5 ADD PUSH1 0x9 SSTORE PUSH1 0x40 MLOAD SWAP1 PUSH2 0x1595 DUP3 PUSH2 0x2161 JUMP JUMPDEST PUSH1 0x1 DUP1 PUSH1 0xA0 SHL SUB DUP4 AND DUP3 MSTORE PUSH1 0x24 CALLDATALOAD PUSH1 0x20 DUP4 ADD MSTORE PUSH1 0x44 CALLDATALOAD PUSH1 0x40 DUP4 ADD MSTORE PUSH1 0x1 DUP1 PUSH1 0xA0 SHL SUB DUP5 AND PUSH1 0x60 DUP4 ADD MSTORE PUSH1 0x84 CALLDATALOAD PUSH1 0x80 DUP4 ADD MSTORE PUSH1 0xA0 DUP3 ADD MSTORE TIMESTAMP PUSH1 0xC0 DUP3 ADD MSTORE TIMESTAMP PUSH1 0xE0 DUP3 ADD MSTORE DUP5 PUSH2 0x100 DUP3 ADD MSTORE PUSH1 0x1 PUSH2 0x120 DUP3 ADD MSTORE DUP4 DUP6 MSTORE PUSH1 0x8 PUSH1 0x20 MSTORE PUSH1 0x40 DUP6 KECCAK256 PUSH1 0x1 DUP1 PUSH1 0xA0 SHL SUB DUP3 MLOAD AND PUSH1 0x1 PUSH1 0x1 PUSH1 0x60 SHL SUB PUSH1 0xA0 SHL SWAP1 DUP2 DUP4 SLOAD AND OR DUP3 SSTORE PUSH1 0x20 DUP4 ADD MLOAD PUSH1 0x1 DUP4 ADD SSTORE PUSH1 0x40 DUP4 ADD MLOAD PUSH1 0x2 DUP4 ADD SSTORE PUSH1 0x3 DUP3 ADD SWAP1 PUSH1 0x1 DUP1 PUSH1 0xA0 SHL SUB PUSH1 0x60 DUP6 ADD MLOAD AND SWAP1 DUP3 SLOAD AND OR SWAP1 SSTORE PUSH1 0x80 DUP3 ADD MLOAD PUSH1 0x4 DUP3 ADD SSTORE PUSH1 0xA0 DUP3 ADD MLOAD DUP1 MLOAD SWAP1 PUSH8 0xFFFFFFFFFFFFFFFF DUP3 GT PUSH2 0x182C JUMPI PUSH2 0x166A PUSH1 0x5 DUP5 ADD SLOAD PUSH2 0x21BC JUMP JUMPDEST PUSH1 0x1F DUP2 GT PUSH2 0x17E8 JUMPI JUMPDEST POP PUSH1 0x20 SWAP8 DUP8 SWAP6 SWAP5 SWAP4 SWAP3 SWAP2 DUP10 SWAP2 PUSH1 0x1 PUSH1 0x1F DUP6 GT EQ PUSH2 0x174F JUMPI SWAP4 DUP4 PUSH1 0x80 SWAP7 SWAP5 PUSH2 0x120 SWAP5 PUSH1 0x9 SWAP5 PUSH32 0x9B1464E9A9771C899BB0AA078D0A5338D3604792FA428D4D24D35E950E7A2ED6 SWAP11 SWAP9 SWAP3 PUSH2 0x1744 JUMPI JUMPDEST POP POP DUP2 PUSH1 0x1 SHL SWAP2 PUSH1 0x0 NOT SWAP1 PUSH1 0x3 SHL SHR NOT AND OR PUSH1 0x5 DUP3 ADD SSTORE JUMPDEST PUSH1 0xC0 DUP5 ADD MLOAD PUSH1 0x6 DUP3 ADD SSTORE PUSH1 0xE0 DUP5 ADD MLOAD PUSH1 0x7 DUP3 ADD SSTORE PUSH2 0x100 DUP5 ADD MLOAD PUSH1 0x8 DUP3 ADD SSTORE ADD SWAP2 ADD MLOAD ISZERO ISZERO PUSH1 0xFF DUP1 NOT DUP4 SLOAD AND SWAP2 AND OR SWAP1 SSTORE PUSH1 0x40 MLOAD SWAP5 PUSH1 0x24 CALLDATALOAD DUP7 MSTORE PUSH1 0x44 CALLDATALOAD DUP9 DUP8 ADD MSTORE PUSH1 0x1 DUP1 PUSH1 0xA0 SHL SUB AND PUSH1 0x40 DUP7 ADD MSTORE PUSH1 0x84 CALLDATALOAD PUSH1 0x60 DUP7 ADD MSTORE PUSH1 0x1 DUP1 PUSH1 0xA0 SHL SUB AND SWAP4 LOG3 PUSH1 0x1 DUP1 SSTORE PUSH1 0x40 MLOAD SWAP1 DUP2 MSTORE RETURN JUMPDEST ADD MLOAD SWAP1 POP CODESIZE DUP1 PUSH2 0x16C0 JUMP JUMPDEST SWAP2 SWAP1 PUSH1 0x5 DUP6 ADD DUP4 MSTORE DUP11 DUP4 KECCAK256 SWAP3 JUMPDEST PUSH1 0x1F NOT DUP6 AND DUP2 LT PUSH2 0x17CE JUMPI POP SWAP4 PUSH1 0x1 DUP5 PUSH2 0x120 SWAP5 PUSH1 0x9 SWAP5 PUSH32 0x9B1464E9A9771C899BB0AA078D0A5338D3604792FA428D4D24D35E950E7A2ED6 SWAP11 SWAP9 PUSH1 0x80 SWAP11 SWAP9 PUSH1 0x1F NOT DUP2 AND LT PUSH2 0x17B5 JUMPI JUMPDEST POP POP POP DUP2 SHL ADD PUSH1 0x5 DUP3 ADD SSTORE PUSH2 0x16D8 JUMP JUMPDEST ADD MLOAD PUSH1 0x0 NOT PUSH1 0xF8 DUP5 PUSH1 0x3 SHL AND SHR NOT AND SWAP1 SSTORE CODESIZE DUP1 DUP1 PUSH2 0x17A5 JUMP JUMPDEST DUP2 DUP4 ADD MLOAD DUP5 SSTORE DUP11 SWAP9 POP PUSH1 0x1 SWAP1 SWAP4 ADD SWAP3 SWAP2 DUP12 ADD SWAP2 DUP12 ADD PUSH2 0x175C JUMP JUMPDEST PUSH1 0x5 DUP5 ADD DUP10 MSTORE PUSH1 0x20 DUP10 KECCAK256 PUSH1 0x1F DUP5 ADD PUSH1 0x5 SHR DUP2 ADD PUSH1 0x20 DUP6 LT PUSH2 0x1825 JUMPI JUMPDEST PUSH1 0x1F DUP4 ADD PUSH1 0x5 SHR DUP3 ADD DUP2 LT PUSH2 0x181A JUMPI POP POP PUSH2 0x1673 JUMP JUMPDEST DUP11 DUP2 SSTORE PUSH1 0x1 ADD PUSH2 0x1804 JUMP JUMPDEST POP DUP1 PUSH2 0x1804 JUMP JUMPDEST PUSH4 0x4E487B71 PUSH1 0xE0 SHL DUP9 MSTORE PUSH1 0x41 PUSH1 0x4 MSTORE PUSH1 0x24 DUP9 REVERT JUMPDEST PUSH4 0x4E487B71 PUSH1 0xE0 SHL DUP6 MSTORE PUSH1 0x11 PUSH1 0x4 MSTORE PUSH1 0x24 DUP6 REVERT JUMPDEST PUSH1 0x40 MLOAD PUSH3 0x461BCD PUSH1 0xE5 SHL DUP2 MSTORE PUSH1 0x20 PUSH1 0x4 DUP3 ADD MSTORE PUSH1 0x19 PUSH1 0x24 DUP3 ADD MSTORE PUSH32 0x52574120746F6B656E207075726368617365206661696C656400000000000000 PUSH1 0x44 DUP3 ADD MSTORE PUSH1 0x64 SWAP1 REVERT JUMPDEST SWAP1 POP PUSH1 0x20 DUP2 RETURNDATASIZE PUSH1 0x20 GT PUSH2 0x18C3 JUMPI JUMPDEST DUP2 PUSH2 0x18B4 PUSH1 0x20 SWAP4 DUP4 PUSH2 0x217E JUMP JUMPDEST DUP2 ADD SUB SLT PUSH2 0x448 JUMPI MLOAD CODESIZE PUSH2 0x156B JUMP JUMPDEST RETURNDATASIZE SWAP2 POP PUSH2 0x18A7 JUMP JUMPDEST PUSH2 0x18D4 SWAP1 PUSH2 0x2137 JUMP JUMPDEST PUSH2 0x18DF JUMPI DUP4 CODESIZE PUSH2 0x1536 JUMP JUMPDEST DUP4 DUP1 REVERT JUMPDEST PUSH1 0x40 MLOAD RETURNDATASIZE DUP5 DUP3 RETURNDATACOPY RETURNDATASIZE SWAP1 REVERT JUMPDEST POP DUP1 REVERT JUMPDEST PUSH2 0x190A SWAP1 PUSH1 0x20 RETURNDATASIZE PUSH1 0x20 GT PUSH2 0x40D JUMPI PUSH2 0x3FE DUP2 DUP4 PUSH2 0x217E JUMP JUMPDEST POP CODESIZE PUSH2 0x14ED JUMP JUMPDEST PUSH2 0x191D SWAP1 SWAP5 SWAP2 SWAP5 PUSH2 0x2137 JUMP JUMPDEST SWAP3 CODESIZE PUSH2 0x14A6 JUMP JUMPDEST DUP3 DUP1 REVERT JUMPDEST PUSH2 0xE27 SWAP2 POP PUSH1 0x20 RETURNDATASIZE PUSH1 0x20 GT PUSH2 0x40D JUMPI PUSH2 0x3FE DUP2 DUP4 PUSH2 0x217E JUMP JUMPDEST PUSH1 0x40 MLOAD PUSH3 0x461BCD PUSH1 0xE5 SHL DUP2 MSTORE PUSH1 0x20 PUSH1 0x4 DUP3 ADD MSTORE PUSH1 0x2B PUSH1 0x24 DUP3 ADD MSTORE PUSH32 0x496E73756666696369656E7420636F6C6C61746572616C202831353025204C54 PUSH1 0x44 DUP3 ADD MSTORE PUSH11 0x5620726571756972656429 PUSH1 0xA8 SHL PUSH1 0x64 DUP3 ADD MSTORE PUSH1 0x84 SWAP1 REVERT JUMPDEST PUSH4 0x4E487B71 PUSH1 0xE0 SHL DUP7 MSTORE PUSH1 0x11 PUSH1 0x4 MSTORE PUSH1 0x24 DUP7 REVERT JUMPDEST PUSH1 0x40 MLOAD PUSH3 0x461BCD PUSH1 0xE5 SHL DUP2 MSTORE PUSH1 0x20 PUSH1 0x4 DUP3 ADD MSTORE PUSH1 0x15 PUSH1 0x24 DUP3 ADD MSTORE PUSH21 0x141C9A5B585C9E53585C9AD95D081B9BDD081CD95D PUSH1 0x5A SHL PUSH1 0x44 DUP3 ADD MSTORE PUSH1 0x64 SWAP1 REVERT JUMPDEST PUSH1 0x40 MLOAD PUSH3 0x461BCD PUSH1 0xE5 SHL DUP2 MSTORE PUSH1 0x20 PUSH1 0x4 DUP3 ADD MSTORE PUSH1 0x11 PUSH1 0x24 DUP3 ADD MSTORE PUSH17 0x24B73B30B634B210292BA0903A37B5B2B7 PUSH1 0x79 SHL PUSH1 0x44 DUP3 ADD MSTORE PUSH1 0x64 SWAP1 REVERT JUMPDEST PUSH1 0x40 MLOAD PUSH3 0x461BCD PUSH1 0xE5 SHL DUP2 MSTORE PUSH1 0x20 PUSH1 0x4 DUP3 ADD MSTORE PUSH1 0x17 PUSH1 0x24 DUP3 ADD MSTORE PUSH32 0x5553444320616D6F756E74206D757374206265203E2030000000000000000000 PUSH1 0x44 DUP3 ADD MSTORE PUSH1 0x64 SWAP1 REVERT JUMPDEST PUSH1 0x40 MLOAD PUSH3 0x461BCD PUSH1 0xE5 SHL DUP2 MSTORE PUSH1 0x20 PUSH1 0x4 DUP3 ADD MSTORE PUSH1 0x17 PUSH1 0x24 DUP3 ADD MSTORE PUSH32 0x6D45544820616D6F756E74206D757374206265203E2030000000000000000000 PUSH1 0x44 DUP3 ADD MSTORE PUSH1 0x64 SWAP1 REVERT JUMPDEST PUSH1 0x40 MLOAD PUSH3 0x461BCD PUSH1 0xE5 SHL DUP2 MSTORE PUSH1 0x20 PUSH1 0x4 DUP3 ADD MSTORE PUSH1 0xC PUSH1 0x24 DUP3 ADD MSTORE PUSH12 0x24B73B30B634B2103AB9B2B9 PUSH1 0xA1 SHL PUSH1 0x44 DUP3 ADD MSTORE PUSH1 0x64 SWAP1 REVERT JUMPDEST POP CALLVALUE PUSH2 0x551 JUMPI DUP1 PUSH1 0x3 NOT CALLDATASIZE ADD SLT PUSH2 0x551 JUMPI PUSH2 0x1AFB PUSH2 0x22DC JUMP JUMPDEST DUP1 SLOAD PUSH1 0x1 PUSH1 0x1 PUSH1 0xA0 SHL SUB NOT DUP2 AND DUP3 SSTORE DUP2 SWAP1 PUSH1 0x1 PUSH1 0x1 PUSH1 0xA0 SHL SUB AND PUSH32 0x8BE0079C531659141344CD1FD0A4F28419497F9722A3DAAFE3B4186F6B6457E0 DUP3 DUP1 LOG3 DUP1 RETURN JUMPDEST POP CALLVALUE PUSH2 0x551 JUMPI DUP1 PUSH1 0x3 NOT CALLDATASIZE ADD SLT PUSH2 0x551 JUMPI PUSH1 0x20 PUSH1 0x40 MLOAD PUSH2 0x3A98 DUP2 MSTORE RETURN JUMPDEST POP CALLVALUE PUSH2 0x551 JUMPI DUP1 PUSH1 0x3 NOT CALLDATASIZE ADD SLT PUSH2 0x551 JUMPI PUSH1 0x20 PUSH1 0x40 MLOAD PUSH2 0x1F4 DUP2 MSTORE RETURN JUMPDEST POP CALLVALUE PUSH2 0x551 JUMPI DUP1 PUSH1 0x3 NOT CALLDATASIZE ADD SLT PUSH2 0x551 JUMPI PUSH1 0x5 SLOAD PUSH1 0x40 MLOAD PUSH1 0x1 PUSH1 0x1 PUSH1 0xA0 SHL SUB SWAP1 SWAP2 AND DUP2 MSTORE PUSH1 0x20 SWAP1 RETURN JUMPDEST POP CALLVALUE PUSH2 0x551 JUMPI PUSH1 0x20 PUSH2 0x1BB9 PUSH2 0x1BB3 CALLDATASIZE PUSH2 0x210B JUMP JUMPDEST SWAP1 PUSH2 0x24AA JUMP JUMPDEST PUSH1 0x40 MLOAD SWAP1 DUP2 MSTORE RETURN JUMPDEST POP CALLVALUE PUSH2 0x551 JUMPI DUP1 PUSH1 0x3 NOT CALLDATASIZE ADD SLT PUSH2 0x551 JUMPI PUSH1 0x3 SLOAD PUSH1 0x40 MLOAD PUSH1 0x1 PUSH1 0x1 PUSH1 0xA0 SHL SUB SWAP1 SWAP2 AND DUP2 MSTORE PUSH1 0x20 SWAP1 RETURN JUMPDEST POP CALLVALUE PUSH2 0x551 JUMPI DUP1 PUSH1 0x3 NOT CALLDATASIZE ADD SLT PUSH2 0x551 JUMPI PUSH1 0x2 SLOAD PUSH1 0x40 MLOAD PUSH1 0x1 PUSH1 0x1 PUSH1 0xA0 SHL SUB SWAP1 SWAP2 AND DUP2 MSTORE PUSH1 0x20 SWAP1 RETURN JUMPDEST POP CALLVALUE PUSH2 0x551 JUMPI DUP1 PUSH1 0x3 NOT CALLDATASIZE ADD SLT PUSH2 0x551 JUMPI PUSH1 0x7 SLOAD PUSH1 0x40 MLOAD PUSH1 0x1 PUSH1 0x1 PUSH1 0xA0 SHL SUB SWAP1 SWAP2 AND DUP2 MSTORE PUSH1 0x20 SWAP1 RETURN JUMPDEST POP CALLVALUE PUSH2 0x551 JUMPI PUSH1 0x20 CALLDATASIZE PUSH1 0x3 NOT ADD SLT PUSH2 0x551 JUMPI PUSH2 0x1C56 PUSH2 0x2121 JUMP JUMPDEST PUSH2 0x1C5E PUSH2 0x22DC JUMP JUMPDEST PUSH1 0x6 SLOAD SWAP1 PUSH1 0x1 PUSH1 0x1 PUSH1 0xA0 SHL SUB SWAP1 DUP2 DUP4 AND PUSH2 0x1C90 JUMPI AND SWAP1 PUSH2 0x1C7F DUP3 ISZERO ISZERO PUSH2 0x2308 JUMP JUMPDEST PUSH1 0x1 PUSH1 0x1 PUSH1 0xA0 SHL SUB NOT AND OR PUSH1 0x6 SSTORE DUP1 RETURN JUMPDEST PUSH1 0x40 MLOAD PUSH3 0x461BCD PUSH1 0xE5 SHL DUP2 MSTORE PUSH1 0x20 PUSH1 0x4 DUP3 ADD MSTORE PUSH1 0x16 PUSH1 0x24 DUP3 ADD MSTORE PUSH22 0x165A595B1915985D5B1D08185B1C9958591E481CD95D PUSH1 0x52 SHL PUSH1 0x44 DUP3 ADD MSTORE PUSH1 0x64 SWAP1 REVERT JUMPDEST POP CALLVALUE PUSH2 0x551 JUMPI PUSH2 0x1CDD CALLDATASIZE PUSH2 0x210B JUMP JUMPDEST PUSH2 0x1CE8 SWAP3 SWAP2 SWAP3 PUSH2 0x22DC JUMP JUMPDEST PUSH2 0x1CF0 PUSH2 0x2415 JUMP JUMPDEST DUP3 DUP3 MSTORE PUSH1 0x20 SWAP3 PUSH1 0x8 DUP5 MSTORE PUSH1 0x40 DUP4 KECCAK256 SWAP1 PUSH1 0x9 DUP3 ADD PUSH2 0x1D10 PUSH1 0xFF DUP3 SLOAD AND PUSH2 0x2438 JUMP JUMPDEST PUSH1 0x4 DUP1 SLOAD PUSH1 0x40 MLOAD PUSH4 0xD5595157 PUSH1 0xE0 SHL DUP2 MSTORE SWAP2 DUP3 ADD DUP5 SWAP1 MSTORE PUSH1 0x1 PUSH1 0x1 PUSH1 0xA0 SHL SUB SWAP2 SWAP1 DUP3 AND DUP9 DUP3 PUSH1 0x24 DUP2 DUP5 GAS STATICCALL SWAP2 DUP3 ISZERO PUSH2 0xC42 JUMPI SWAP1 DUP10 SWAP2 DUP10 SWAP4 PUSH2 0x20D6 JUMPI JUMPDEST POP DUP3 DUP9 LT PUSH2 0x1FFB JUMPI POP PUSH1 0x3 SLOAD PUSH1 0x4 DUP1 SLOAD PUSH1 0x40 MLOAD PUSH4 0x95EA7B3 PUSH1 0xE0 SHL DUP2 MSTORE SWAP1 DUP7 AND PUSH1 0x1 PUSH1 0x1 PUSH1 0xA0 SHL SUB AND SWAP2 DUP2 ADD SWAP2 SWAP1 SWAP2 MSTORE PUSH1 0x24 DUP2 ADD DUP5 SWAP1 MSTORE SWAP2 SWAP1 DUP3 SWAP1 DUP6 AND DUP2 DUP12 DUP2 PUSH1 0x44 DUP2 ADD SUB SWAP3 GAS CALL DUP1 ISZERO PUSH2 0xC42 JUMPI SWAP1 DUP9 SWAP4 SWAP3 SWAP2 PUSH2 0x1FDE JUMPI JUMPDEST POP PUSH1 0x40 DUP3 PUSH1 0x4 SLOAD AND PUSH1 0x44 DUP3 MLOAD DUP1 SWAP12 DUP2 SWAP4 PUSH4 0xD8AED145 PUSH1 0xE0 SHL DUP4 MSTORE DUP11 PUSH1 0x4 DUP5 ADD MSTORE DUP7 PUSH1 0x24 DUP5 ADD MSTORE GAS CALL DUP1 ISZERO PUSH2 0xB56 JUMPI DUP4 SWAP9 DUP5 SWAP2 PUSH2 0x1FB7 JUMPI JUMPDEST POP SWAP1 PUSH2 0x1DE8 SWAP2 SWAP9 SWAP8 PUSH2 0x2490 JUMP JUMPDEST SWAP5 DUP6 PUSH2 0x1EFB JUMPI JUMPDEST PUSH1 0x1 DUP2 ADD SLOAD SWAP2 DUP3 PUSH2 0x1E4D JUMPI JUMPDEST DUP9 DUP9 PUSH2 0x3A8 DUP10 DUP10 DUP10 PUSH1 0xFF NOT DUP2 SLOAD AND SWAP1 SSTORE PUSH32 0x2AD2842250C60E12F989A7E1ED97D0095F991BA01AEA08BDAC2F87C62782095B PUSH1 0x40 MLOAD DUP1 PUSH2 0x384 DUP6 DUP10 DUP10 DUP5 PUSH1 0x40 SWAP2 SWAP5 SWAP4 SWAP3 PUSH1 0x60 DUP3 ADD SWAP6 DUP3 MSTORE PUSH1 0x20 DUP3 ADD MSTORE ADD MSTORE JUMP JUMPDEST PUSH1 0x2 SLOAD SWAP2 SLOAD PUSH1 0x40 MLOAD PUSH4 0xA9059CBB PUSH1 0xE0 SHL DUP2 MSTORE SWAP1 DUP3 AND PUSH1 0x1 PUSH1 0x1 PUSH1 0xA0 SHL SUB AND PUSH1 0x4 DUP3 ADD MSTORE PUSH1 0x24 DUP2 ADD SWAP4 SWAP1 SWAP4 MSTORE DUP10 SWAP2 DUP4 SWAP2 AND DUP2 DUP6 DUP2 PUSH1 0x44 DUP2 ADD SUB SWAP3 GAS CALL SWAP2 DUP3 ISZERO PUSH2 0x116A JUMPI SWAP2 PUSH2 0x1EDE JUMPI JUMPDEST POP ISZERO PUSH2 0x1EA4 JUMPI DUP6 DUP1 DUP1 DUP1 PUSH2 0x1DFB JUMP JUMPDEST PUSH1 0x40 MLOAD PUSH3 0x461BCD PUSH1 0xE5 SHL DUP2 MSTORE PUSH1 0x4 DUP2 ADD DUP8 SWAP1 MSTORE PUSH1 0x12 PUSH1 0x24 DUP3 ADD MSTORE PUSH18 0x1B515512081C995D1D5C9B8819985A5B1959 PUSH1 0x72 SHL PUSH1 0x44 DUP3 ADD MSTORE PUSH1 0x64 SWAP1 REVERT JUMPDEST PUSH2 0x1EF5 SWAP2 POP DUP8 RETURNDATASIZE DUP10 GT PUSH2 0x40D JUMPI PUSH2 0x3FE DUP2 DUP4 PUSH2 0x217E JUMP JUMPDEST CODESIZE PUSH2 0x1E95 JUMP JUMPDEST PUSH1 0x3 SLOAD DUP2 SLOAD PUSH1 0x40 MLOAD PUSH4 0xA9059CBB PUSH1 0xE0 SHL DUP2 MSTORE SWAP1 DUP5 AND PUSH1 0x1 PUSH1 0x1 PUSH1 0xA0 SHL SUB AND PUSH1 0x4 DUP3 ADD MSTORE PUSH1 0x24 DUP2 ADD DUP9 SWAP1 MSTORE SWAP1 DUP11 SWAP1 DUP3 SWAP1 DUP6 AND DUP2 DUP8 DUP2 PUSH1 0x44 DUP2 ADD SUB SWAP3 GAS CALL SWAP1 DUP2 ISZERO PUSH2 0x1FAC JUMPI DUP5 SWAP2 PUSH2 0x1F8F JUMPI JUMPDEST POP PUSH2 0x1DEF JUMPI PUSH1 0x40 MLOAD PUSH3 0x461BCD PUSH1 0xE5 SHL DUP2 MSTORE PUSH1 0x4 DUP2 ADD DUP11 SWAP1 MSTORE PUSH1 0x1A PUSH1 0x24 DUP3 ADD MSTORE PUSH32 0x55736572207969656C64207472616E73666572206661696C6564000000000000 PUSH1 0x44 DUP3 ADD MSTORE PUSH1 0x64 SWAP1 REVERT JUMPDEST PUSH2 0x1FA6 SWAP2 POP DUP11 RETURNDATASIZE DUP13 GT PUSH2 0x40D JUMPI PUSH2 0x3FE DUP2 DUP4 PUSH2 0x217E JUMP JUMPDEST CODESIZE PUSH2 0x1F45 JUMP JUMPDEST PUSH1 0x40 MLOAD RETURNDATASIZE DUP7 DUP3 RETURNDATACOPY RETURNDATASIZE SWAP1 REVERT JUMPDEST PUSH2 0x1DE8 SWAP3 SWAP10 POP PUSH2 0x1FD6 SWAP2 POP PUSH1 0x40 RETURNDATASIZE PUSH1 0x40 GT PUSH2 0x3D3 JUMPI PUSH2 0x3C5 DUP2 DUP4 PUSH2 0x217E JUMP JUMPDEST SWAP1 SWAP9 SWAP2 PUSH2 0x1DDB JUMP JUMPDEST PUSH2 0x1FF4 SWAP1 DUP11 RETURNDATASIZE DUP13 GT PUSH2 0x40D JUMPI PUSH2 0x3FE DUP2 DUP4 PUSH2 0x217E JUMP JUMPDEST POP CODESIZE PUSH2 0x1DA4 JUMP JUMPDEST PUSH1 0x3 SLOAD PUSH1 0x40 MLOAD PUSH4 0x95EA7B3 PUSH1 0xE0 SHL DUP2 MSTORE PUSH1 0x1 PUSH1 0x1 PUSH1 0xA0 SHL SUB SWAP3 SWAP1 SWAP3 AND PUSH1 0x4 DUP4 ADD MSTORE PUSH1 0x24 DUP3 ADD DUP10 SWAP1 MSTORE SWAP4 SWAP8 SWAP4 SWAP1 SWAP3 POP DUP3 SWAP1 PUSH1 0x44 SWAP1 DUP3 SWAP1 DUP12 SWAP1 DUP12 AND GAS CALL DUP1 ISZERO PUSH2 0x3DA JUMPI SWAP2 PUSH1 0x40 SWAP2 DUP9 SWAP4 PUSH2 0x20B9 JUMPI JUMPDEST POP PUSH1 0x44 DUP8 PUSH1 0x4 SLOAD AND SWAP2 DUP4 MLOAD SWAP10 DUP11 SWAP4 DUP5 SWAP3 PUSH4 0xD8AED145 PUSH1 0xE0 SHL DUP5 MSTORE DUP10 PUSH1 0x4 DUP6 ADD MSTORE PUSH1 0x24 DUP5 ADD MSTORE GAS CALL DUP1 ISZERO PUSH2 0x20AC JUMPI DUP2 SWAP7 DUP3 SWAP2 PUSH2 0x2087 JUMPI JUMPDEST POP SWAP6 SWAP5 DUP2 SWAP5 PUSH2 0x1DEF JUMP JUMPDEST SWAP1 POP PUSH2 0x20A3 SWAP2 SWAP7 POP PUSH1 0x40 RETURNDATASIZE PUSH1 0x40 GT PUSH2 0x3D3 JUMPI PUSH2 0x3C5 DUP2 DUP4 PUSH2 0x217E JUMP JUMPDEST SWAP6 SWAP1 SWAP6 CODESIZE PUSH2 0x207D JUMP JUMPDEST POP PUSH1 0x40 MLOAD SWAP1 RETURNDATASIZE SWAP1 DUP3 RETURNDATACOPY RETURNDATASIZE SWAP1 REVERT JUMPDEST PUSH2 0x20CF SWAP1 DUP11 RETURNDATASIZE DUP13 GT PUSH2 0x40D JUMPI PUSH2 0x3FE DUP2 DUP4 PUSH2 0x217E JUMP JUMPDEST POP CODESIZE PUSH2 0x2047 JUMP JUMPDEST DUP3 DUP2 SWAP4 SWAP3 SWAP5 POP RETURNDATASIZE DUP4 GT PUSH2 0x2104 JUMPI JUMPDEST PUSH2 0x20EE DUP2 DUP4 PUSH2 0x217E JUMP JUMPDEST DUP2 ADD SUB SLT PUSH2 0x2100 JUMPI DUP9 SWAP1 MLOAD SWAP2 CODESIZE PUSH2 0x1D4C JUMP JUMPDEST DUP8 DUP1 REVERT JUMPDEST POP RETURNDATASIZE PUSH2 0x20E4 JUMP JUMPDEST PUSH1 0x40 SWAP1 PUSH1 0x3 NOT ADD SLT PUSH2 0x448 JUMPI PUSH1 0x4 CALLDATALOAD SWAP1 PUSH1 0x24 CALLDATALOAD SWAP1 JUMP JUMPDEST PUSH1 0x4 CALLDATALOAD SWAP1 PUSH1 0x1 PUSH1 0x1 PUSH1 0xA0 SHL SUB DUP3 AND DUP3 SUB PUSH2 0x448 JUMPI JUMP JUMPDEST PUSH8 0xFFFFFFFFFFFFFFFF DUP2 GT PUSH2 0x214B JUMPI PUSH1 0x40 MSTORE JUMP JUMPDEST PUSH4 0x4E487B71 PUSH1 0xE0 SHL PUSH1 0x0 MSTORE PUSH1 0x41 PUSH1 0x4 MSTORE PUSH1 0x24 PUSH1 0x0 REVERT JUMPDEST PUSH2 0x140 DUP2 ADD SWAP1 DUP2 LT PUSH8 0xFFFFFFFFFFFFFFFF DUP3 GT OR PUSH2 0x214B JUMPI PUSH1 0x40 MSTORE JUMP JUMPDEST SWAP1 PUSH1 0x1F DUP1 NOT SWAP2 ADD AND DUP2 ADD SWAP1 DUP2 LT PUSH8 0xFFFFFFFFFFFFFFFF DUP3 GT OR PUSH2 0x214B JUMPI PUSH1 0x40 MSTORE JUMP JUMPDEST PUSH8 0xFFFFFFFFFFFFFFFF DUP2 GT PUSH2 0x214B JUMPI PUSH1 0x1F ADD PUSH1 0x1F NOT AND PUSH1 0x20 ADD SWAP1 JUMP JUMPDEST SWAP1 PUSH1 0x1 DUP3 DUP2 SHR SWAP3 AND DUP1 ISZERO PUSH2 0x21EC JUMPI JUMPDEST PUSH1 0x20 DUP4 LT EQ PUSH2 0x21D6 JUMPI JUMP JUMPDEST PUSH4 0x4E487B71 PUSH1 0xE0 SHL PUSH1 0x0 MSTORE PUSH1 0x22 PUSH1 0x4 MSTORE PUSH1 0x24 PUSH1 0x0 REVERT JUMPDEST SWAP2 PUSH1 0x7F AND SWAP2 PUSH2 0x21CB JUMP JUMPDEST SWAP1 PUSH1 0x40 MLOAD SWAP2 DUP3 PUSH1 0x0 DUP3 SLOAD SWAP3 PUSH2 0x220A DUP5 PUSH2 0x21BC JUMP JUMPDEST SWAP1 DUP2 DUP5 MSTORE PUSH1 0x1 SWAP5 DUP6 DUP2 AND SWAP1 DUP2 PUSH1 0x0 EQ PUSH2 0x2279 JUMPI POP PUSH1 0x1 EQ PUSH2 0x2236 JUMPI JUMPDEST POP POP PUSH2 0x2234 SWAP3 POP SUB DUP4 PUSH2 0x217E JUMP JUMPDEST JUMP JUMPDEST SWAP1 SWAP4 SWAP2 POP PUSH1 0x0 MSTORE PUSH1 0x20 SWAP1 DUP2 PUSH1 0x0 KECCAK256 SWAP4 PUSH1 0x0 SWAP2 JUMPDEST DUP2 DUP4 LT PUSH2 0x2261 JUMPI POP POP PUSH2 0x2234 SWAP4 POP DUP3 ADD ADD CODESIZE DUP1 PUSH2 0x2226 JUMP JUMPDEST DUP6 SLOAD DUP9 DUP5 ADD DUP6 ADD MSTORE SWAP5 DUP6 ADD SWAP5 DUP8 SWAP5 POP SWAP2 DUP4 ADD SWAP2 PUSH2 0x2249 JUMP JUMPDEST SWAP2 POP POP PUSH2 0x2234 SWAP5 POP PUSH1 0x20 SWAP3 POP PUSH1 0xFF NOT AND DUP3 DUP5 ADD MSTORE ISZERO ISZERO PUSH1 0x5 SHL DUP3 ADD ADD CODESIZE DUP1 PUSH2 0x2226 JUMP JUMPDEST SWAP2 SWAP1 DUP3 MLOAD SWAP3 DUP4 DUP3 MSTORE PUSH1 0x0 JUMPDEST DUP5 DUP2 LT PUSH2 0x22C8 JUMPI POP POP DUP3 PUSH1 0x0 PUSH1 0x20 DUP1 SWAP5 SWAP6 DUP5 ADD ADD MSTORE PUSH1 0x1F DUP1 NOT SWAP2 ADD AND ADD ADD SWAP1 JUMP JUMPDEST PUSH1 0x20 DUP2 DUP4 ADD DUP2 ADD MLOAD DUP5 DUP4 ADD DUP3 ADD MSTORE ADD PUSH2 0x22A7 JUMP JUMPDEST PUSH1 0x0 SLOAD PUSH1 0x1 PUSH1 0x1 PUSH1 0xA0 SHL SUB AND CALLER SUB PUSH2 0x22F0 JUMPI JUMP JUMPDEST PUSH1 0x40 MLOAD PUSH4 0x118CDAA7 PUSH1 0xE0 SHL DUP2 MSTORE CALLER PUSH1 0x4 DUP3 ADD MSTORE PUSH1 0x24 SWAP1 REVERT JUMPDEST ISZERO PUSH2 0x230F JUMPI JUMP JUMPDEST PUSH1 0x40 MLOAD PUSH3 0x461BCD PUSH1 0xE5 SHL DUP2 MSTORE PUSH1 0x20 PUSH1 0x4 DUP3 ADD MSTORE PUSH1 0xF PUSH1 0x24 DUP3 ADD MSTORE PUSH15 0x496E76616C69642061646472657373 PUSH1 0x88 SHL PUSH1 0x44 DUP3 ADD MSTORE PUSH1 0x64 SWAP1 REVERT JUMPDEST ISZERO PUSH2 0x234D JUMPI JUMP JUMPDEST PUSH1 0x40 MLOAD PUSH3 0x461BCD PUSH1 0xE5 SHL DUP2 MSTORE PUSH1 0x20 PUSH1 0x4 DUP3 ADD MSTORE PUSH1 0x12 PUSH1 0x24 DUP3 ADD MSTORE PUSH18 0x496E76616C6964206D455448207072696365 PUSH1 0x70 SHL PUSH1 0x44 DUP3 ADD MSTORE PUSH1 0x64 SWAP1 REVERT JUMPDEST DUP2 DUP2 MUL SWAP3 SWAP2 DUP2 ISZERO SWAP2 DUP5 DIV EQ OR ISZERO PUSH2 0x4C2 JUMPI JUMP JUMPDEST DUP2 ISZERO PUSH2 0x23A4 JUMPI DIV SWAP1 JUMP JUMPDEST PUSH4 0x4E487B71 PUSH1 0xE0 SHL PUSH1 0x0 MSTORE PUSH1 0x12 PUSH1 0x4 MSTORE PUSH1 0x24 PUSH1 0x0 REVERT JUMPDEST SWAP1 DUP2 PUSH1 0x20 SWAP2 SUB SLT PUSH2 0x448 JUMPI MLOAD DUP1 ISZERO ISZERO DUP2 SUB PUSH2 0x448 JUMPI SWAP1 JUMP JUMPDEST ISZERO PUSH2 0x23D9 JUMPI JUMP JUMPDEST PUSH1 0x40 MLOAD PUSH3 0x461BCD PUSH1 0xE5 SHL DUP2 MSTORE PUSH1 0x20 PUSH1 0x4 DUP3 ADD MSTORE PUSH1 0x14 PUSH1 0x24 DUP3 ADD MSTORE PUSH20 0x1B515512081D1C985B9CD9995C8819985A5B1959 PUSH1 0x62 SHL PUSH1 0x44 DUP3 ADD MSTORE PUSH1 0x64 SWAP1 REVERT JUMPDEST PUSH1 0x2 PUSH1 0x1 SLOAD EQ PUSH2 0x2426 JUMPI PUSH1 0x2 PUSH1 0x1 SSTORE JUMP JUMPDEST PUSH1 0x40 MLOAD PUSH4 0x3EE5AEB5 PUSH1 0xE0 SHL DUP2 MSTORE PUSH1 0x4 SWAP1 REVERT JUMPDEST ISZERO PUSH2 0x243F JUMPI JUMP JUMPDEST PUSH1 0x40 MLOAD PUSH3 0x461BCD PUSH1 0xE5 SHL DUP2 MSTORE PUSH1 0x20 PUSH1 0x4 DUP3 ADD MSTORE PUSH1 0x13 PUSH1 0x24 DUP3 ADD MSTORE PUSH19 0x506F736974696F6E206E6F7420616374697665 PUSH1 0x68 SHL PUSH1 0x44 DUP3 ADD MSTORE PUSH1 0x64 SWAP1 REVERT JUMPDEST SWAP2 SWAP1 DUP3 PUSH1 0x40 SWAP2 SUB SLT PUSH2 0x448 JUMPI PUSH1 0x20 DUP3 MLOAD SWAP3 ADD MLOAD SWAP1 JUMP JUMPDEST SWAP2 SWAP1 DUP3 SUB SWAP2 DUP3 GT PUSH2 0x4C2 JUMPI JUMP JUMPDEST SWAP2 SWAP1 DUP3 ADD DUP1 SWAP3 GT PUSH2 0x4C2 JUMPI JUMP JUMPDEST SWAP2 SWAP1 SWAP2 PUSH1 0x0 SWAP3 DUP2 DUP5 MSTORE PUSH1 0x20 SWAP2 PUSH1 0x8 DUP4 MSTORE PUSH1 0x40 DUP6 KECCAK256 SWAP2 PUSH1 0x40 MLOAD SWAP3 PUSH2 0x24CC DUP5 PUSH2 0x2161 JUMP JUMPDEST PUSH1 0x1 DUP1 PUSH1 0xA0 SHL SUB SWAP4 DUP5 DUP3 SLOAD AND DUP2 MSTORE PUSH1 0xFF PUSH1 0x9 PUSH1 0x1 DUP5 ADD SLOAD SWAP4 DUP9 DUP5 ADD SWAP5 DUP6 MSTORE PUSH1 0x2 DUP2 ADD SLOAD PUSH1 0x40 DUP6 ADD MSTORE DUP8 PUSH1 0x3 DUP3 ADD SLOAD AND PUSH1 0x60 DUP6 ADD MSTORE PUSH1 0x4 DUP2 ADD SLOAD PUSH1 0x80 DUP6 ADD MSTORE PUSH2 0x2516 PUSH1 0x5 DUP3 ADD PUSH2 0x21F6 JUMP JUMPDEST PUSH1 0xA0 DUP6 ADD MSTORE PUSH1 0x6 DUP2 ADD SLOAD PUSH1 0xC0 DUP6 ADD MSTORE PUSH1 0x7 DUP2 ADD SLOAD PUSH1 0xE0 DUP6 ADD MSTORE PUSH1 0x8 DUP2 ADD SLOAD PUSH2 0x100 DUP6 ADD MSTORE ADD SLOAD AND ISZERO SWAP1 PUSH2 0x120 DUP3 ISZERO SWAP2 ADD MSTORE PUSH2 0x2616 JUMPI PUSH2 0x2570 DUP3 PUSH13 0xC9F2C9CD04674EDEA40000000 SWAP3 PUSH2 0x256A DUP9 SWAP6 ISZERO ISZERO PUSH2 0x2346 JUMP JUMPDEST MLOAD PUSH2 0x2387 JUMP JUMPDEST DIV SWAP3 PUSH1 0x4 SLOAD AND SWAP2 PUSH1 0x24 PUSH1 0x40 MLOAD DUP1 SWAP5 DUP2 SWAP4 PUSH4 0xD5595157 PUSH1 0xE0 SHL DUP4 MSTORE PUSH1 0x4 DUP4 ADD MSTORE GAS STATICCALL SWAP3 DUP4 ISZERO PUSH2 0x546 JUMPI DUP6 SWAP4 PUSH2 0x25E6 JUMPI JUMPDEST POP POP DUP2 ISZERO PUSH2 0x25DD JUMPI PUSH2 0x2710 SWAP1 DUP2 DUP2 MUL SWAP2 DUP2 DUP4 DIV EQ SWAP1 ISZERO OR ISZERO PUSH2 0x25C9 JUMPI PUSH2 0x25C6 SWAP3 SWAP4 POP PUSH2 0x239A JUMP JUMPDEST SWAP1 JUMP JUMPDEST PUSH4 0x4E487B71 PUSH1 0xE0 SHL DUP5 MSTORE PUSH1 0x11 PUSH1 0x4 MSTORE PUSH1 0x24 DUP5 REVERT JUMPDEST POP PUSH1 0x0 NOT SWAP3 POP POP JUMP JUMPDEST SWAP1 DUP1 SWAP3 SWAP4 POP DUP2 RETURNDATASIZE DUP4 GT PUSH2 0x260F JUMPI JUMPDEST PUSH2 0x25FE DUP2 DUP4 PUSH2 0x217E JUMP JUMPDEST DUP2 ADD SUB SLT PUSH2 0x18DF JUMPI MLOAD SWAP1 CODESIZE DUP1 PUSH2 0x259F JUMP JUMPDEST POP RETURNDATASIZE PUSH2 0x25F4 JUMP JUMPDEST POP POP POP POP POP JUMP INVALID LOG2 PUSH5 0x6970667358 0x22 SLT KECCAK256 0xDD BYTE 0xA5 DUP3 0xB6 0xE SWAP8 SAR DUP14 SWAP14 PUSH1 0x97 0xD0 0xCF 0xDD 0x25 SMOD SWAP15 CALLER 0xF 0xDD LT JUMPI SWAP4 0xDB 0xD5 DUP11 CHAINID 0x49 GASLIMIT SLOAD PUSH19 0x64736F6C634300081400330000000000000000 "},"methodIdentifiers":{"BASIS_POINTS()":"e1f1c4a7","INITIAL_LTV()":"5cacf422","LIQUIDATION_FEE_BPS()":"518e8dfc","LIQUIDATION_THRESHOLD()":"90a8ae9b","addCollateral(uint256,uint256)":"a8f35adf","claimYieldFromBurn(uint256,address,address,uint256)":"975d6dfb","createPosition(address,uint256,uint256,address,uint256,string,bytes32,uint256)":"8482c795","fluxionIntegration()":"505aa212","getHealthFactor(uint256,uint256)":"4d2c872a","getPosition(uint256)":"eb02c301","harvestYield(uint256,uint256)":"ffc0d233","liquidatePosition(uint256,uint256)":"d3c4e4a6","mETH()":"29e84867","nextPositionId()":"899346c7","owner()":"8da5cb5b","positions(uint256)":"99fbab88","primaryMarket()":"1e77ceda","processSettlement(uint256,uint256)":"0381b4dd","renounceOwnership()":"715018a6","seniorPool()":"f416fc1c","setPrimaryMarket(address)":"e2dc3666","setYieldVault(address)":"137c3f69","transferOwnership(address)":"f2fde38b","usdc()":"3e413bee","yieldVault()":"a7f8a5e2"}}}}}