{"contracts/core/SolvencyVault.sol":{"SolvencyVault":{"abi":[{"inputs":[{"internalType":"address","name":"_usdc","type":"address"},{"internalType":"address","name":"_seniorPool","type":"address"}],"stateMutability":"nonpayable","type":"constructor"},{"inputs":[{"internalType":"address","name":"owner","type":"address"}],"name":"OwnableInvalidOwner","type":"error"},{"inputs":[{"internalType":"address","name":"account","type":"address"}],"name":"OwnableUnauthorizedAccount","type":"error"},{"inputs":[],"name":"ReentrancyGuardReentrantCall","type":"error"},{"anonymous":false,"inputs":[{"indexed":true,"internalType":"uint256","name":"positionId","type":"uint256"},{"indexed":true,"internalType":"address","name":"user","type":"address"},{"indexed":false,"internalType":"uint256","name":"amount","type":"uint256"}],"name":"CollateralWithdrawn","type":"event"},{"anonymous":false,"inputs":[{"indexed":true,"internalType":"uint256","name":"positionId","type":"uint256"},{"indexed":false,"internalType":"uint256","name":"yieldReceived","type":"uint256"},{"indexed":false,"internalType":"uint256","name":"debtRepaid","type":"uint256"},{"indexed":false,"internalType":"uint256","name":"liquidationFee","type":"uint256"},{"indexed":false,"internalType":"uint256","name":"userRefund","type":"uint256"}],"name":"LiquidationSettled","type":"event"},{"anonymous":false,"inputs":[{"indexed":true,"internalType":"uint256","name":"positionId","type":"uint256"},{"indexed":false,"internalType":"uint256","name":"amount","type":"uint256"},{"indexed":false,"internalType":"uint256","name":"principal","type":"uint256"},{"indexed":false,"internalType":"uint256","name":"interest","type":"uint256"},{"indexed":false,"internalType":"uint256","name":"remainingDebt","type":"uint256"}],"name":"LoanRepaid","type":"event"},{"anonymous":false,"inputs":[{"indexed":true,"internalType":"uint256","name":"positionId","type":"uint256"},{"indexed":false,"internalType":"uint256","name":"creditLineId","type":"uint256"},{"indexed":false,"internalType":"uint256","name":"creditLimit","type":"uint256"}],"name":"OAIDCreditIssued","type":"event"},{"anonymous":false,"inputs":[{"indexed":true,"internalType":"address","name":"previousOwner","type":"address"},{"indexed":true,"internalType":"address","name":"newOwner","type":"address"}],"name":"OwnershipTransferred","type":"event"},{"anonymous":false,"inputs":[{"indexed":true,"internalType":"uint256","name":"positionId","type":"uint256"},{"indexed":true,"internalType":"address","name":"user","type":"address"},{"indexed":false,"internalType":"address","name":"collateralToken","type":"address"},{"indexed":false,"internalType":"uint256","name":"collateralAmount","type":"uint256"},{"indexed":false,"internalType":"uint256","name":"tokenValueUSD","type":"uint256"},{"indexed":false,"internalType":"enum SolvencyVault.TokenType","name":"tokenType","type":"uint8"}],"name":"PositionCreated","type":"event"},{"anonymous":false,"inputs":[{"indexed":true,"internalType":"uint256","name":"positionId","type":"uint256"},{"indexed":false,"internalType":"uint256","name":"liquidationTime","type":"uint256"}],"name":"PositionLiquidated","type":"event"},{"anonymous":false,"inputs":[{"indexed":true,"internalType":"uint256","name":"positionId","type":"uint256"},{"indexed":false,"internalType":"uint256","name":"amount","type":"uint256"},{"indexed":false,"internalType":"uint256","name":"totalDebt","type":"uint256"}],"name":"USDCBorrowed","type":"event"},{"inputs":[],"name":"BASIS_POINTS","outputs":[{"internalType":"uint256","name":"","type":"uint256"}],"stateMutability":"view","type":"function"},{"inputs":[],"name":"LIQUIDATION_FEE_BPS","outputs":[{"internalType":"uint256","name":"","type":"uint256"}],"stateMutability":"view","type":"function"},{"inputs":[],"name":"LIQUIDATION_THRESHOLD","outputs":[{"internalType":"uint256","name":"","type":"uint256"}],"stateMutability":"view","type":"function"},{"inputs":[],"name":"PRIVATE_ASSET_LTV","outputs":[{"internalType":"uint256","name":"","type":"uint256"}],"stateMutability":"view","type":"function"},{"inputs":[],"name":"RWA_LTV","outputs":[{"internalType":"uint256","name":"","type":"uint256"}],"stateMutability":"view","type":"function"},{"inputs":[{"internalType":"uint256","name":"positionId","type":"uint256"},{"internalType":"uint256","name":"amount","type":"uint256"}],"name":"borrowUSDC","outputs":[],"stateMutability":"nonpayable","type":"function"},{"inputs":[{"internalType":"address","name":"collateralToken","type":"address"},{"internalType":"uint256","name":"collateralAmount","type":"uint256"},{"internalType":"uint256","name":"tokenValueUSD","type":"uint256"},{"internalType":"enum SolvencyVault.TokenType","name":"tokenType","type":"uint8"},{"internalType":"bool","name":"issueOAID","type":"bool"}],"name":"depositCollateral","outputs":[{"internalType":"uint256","name":"positionId","type":"uint256"}],"stateMutability":"nonpayable","type":"function"},{"inputs":[{"internalType":"uint256","name":"positionId","type":"uint256"}],"name":"getHealthFactor","outputs":[{"internalType":"uint256","name":"","type":"uint256"}],"stateMutability":"view","type":"function"},{"inputs":[{"internalType":"uint256","name":"positionId","type":"uint256"}],"name":"getMaxBorrow","outputs":[{"internalType":"uint256","name":"","type":"uint256"}],"stateMutability":"view","type":"function"},{"inputs":[{"internalType":"uint256","name":"positionId","type":"uint256"}],"name":"getPosition","outputs":[{"components":[{"internalType":"address","name":"user","type":"address"},{"internalType":"address","name":"collateralToken","type":"address"},{"internalType":"uint256","name":"collateralAmount","type":"uint256"},{"internalType":"uint256","name":"usdcBorrowed","type":"uint256"},{"internalType":"uint256","name":"tokenValueUSD","type":"uint256"},{"internalType":"uint256","name":"createdAt","type":"uint256"},{"internalType":"uint256","name":"liquidatedAt","type":"uint256"},{"internalType":"bool","name":"active","type":"bool"},{"internalType":"enum SolvencyVault.TokenType","name":"tokenType","type":"uint8"}],"internalType":"struct SolvencyVault.Position","name":"","type":"tuple"}],"stateMutability":"view","type":"function"},{"inputs":[{"internalType":"uint256","name":"positionId","type":"uint256"}],"name":"liquidatePosition","outputs":[],"stateMutability":"nonpayable","type":"function"},{"inputs":[],"name":"nextPositionId","outputs":[{"internalType":"uint256","name":"","type":"uint256"}],"stateMutability":"view","type":"function"},{"inputs":[],"name":"oaid","outputs":[{"internalType":"address","name":"","type":"address"}],"stateMutability":"view","type":"function"},{"inputs":[],"name":"owner","outputs":[{"internalType":"address","name":"","type":"address"}],"stateMutability":"view","type":"function"},{"inputs":[{"internalType":"uint256","name":"","type":"uint256"}],"name":"positions","outputs":[{"internalType":"address","name":"user","type":"address"},{"internalType":"address","name":"collateralToken","type":"address"},{"internalType":"uint256","name":"collateralAmount","type":"uint256"},{"internalType":"uint256","name":"usdcBorrowed","type":"uint256"},{"internalType":"uint256","name":"tokenValueUSD","type":"uint256"},{"internalType":"uint256","name":"createdAt","type":"uint256"},{"internalType":"uint256","name":"liquidatedAt","type":"uint256"},{"internalType":"bool","name":"active","type":"bool"},{"internalType":"enum SolvencyVault.TokenType","name":"tokenType","type":"uint8"}],"stateMutability":"view","type":"function"},{"inputs":[{"internalType":"uint256","name":"","type":"uint256"}],"name":"positionsInLiquidation","outputs":[{"internalType":"bool","name":"","type":"bool"}],"stateMutability":"view","type":"function"},{"inputs":[],"name":"primaryMarket","outputs":[{"internalType":"address","name":"","type":"address"}],"stateMutability":"view","type":"function"},{"inputs":[],"name":"renounceOwnership","outputs":[],"stateMutability":"nonpayable","type":"function"},{"inputs":[{"internalType":"uint256","name":"positionId","type":"uint256"},{"internalType":"uint256","name":"amount","type":"uint256"}],"name":"repayLoan","outputs":[],"stateMutability":"nonpayable","type":"function"},{"inputs":[],"name":"seniorPool","outputs":[{"internalType":"address","name":"","type":"address"}],"stateMutability":"view","type":"function"},{"inputs":[{"internalType":"address","name":"_oaid","type":"address"}],"name":"setOAID","outputs":[],"stateMutability":"nonpayable","type":"function"},{"inputs":[{"internalType":"address","name":"_primaryMarket","type":"address"}],"name":"setPrimaryMarket","outputs":[],"stateMutability":"nonpayable","type":"function"},{"inputs":[{"internalType":"address","name":"_yieldVault","type":"address"}],"name":"setYieldVault","outputs":[],"stateMutability":"nonpayable","type":"function"},{"inputs":[{"internalType":"uint256","name":"positionId","type":"uint256"}],"name":"settleLiquidation","outputs":[{"internalType":"uint256","name":"yieldReceived","type":"uint256"},{"internalType":"uint256","name":"liquidationFee","type":"uint256"},{"internalType":"uint256","name":"userRefund","type":"uint256"}],"stateMutability":"nonpayable","type":"function"},{"inputs":[{"internalType":"address","name":"newOwner","type":"address"}],"name":"transferOwnership","outputs":[],"stateMutability":"nonpayable","type":"function"},{"inputs":[],"name":"usdc","outputs":[{"internalType":"contract IERC20","name":"","type":"address"}],"stateMutability":"view","type":"function"},{"inputs":[{"internalType":"uint256","name":"positionId","type":"uint256"},{"internalType":"uint256","name":"amount","type":"uint256"}],"name":"withdrawCollateral","outputs":[],"stateMutability":"nonpayable","type":"function"},{"inputs":[],"name":"yieldVault","outputs":[{"internalType":"address","name":"","type":"address"}],"stateMutability":"view","type":"function"}],"evm":{"bytecode":{"linkReferences":{},"object":"608034620000f557601f62001fbb38819003918201601f19168301916001600160401b03831184841017620000fa578084926040948552833981010312620000f5576200005a6020620000528362000110565b920162000110565b3315620000dc5760008054336001600160a01b0319808316821784556040519590946001600160a01b03949093859391908416907f8be0079c531659141344cd1fd0a4f28419497f9722a3daafe3b4186f6b6457e09080a36001805516836002541617600255169060035416176003556001600755611e959081620001268239f35b604051631e4fbdf760e01b815260006004820152602490fd5b600080fd5b634e487b7160e01b600052604160045260246000fd5b51906001600160a01b0382168203620000f55756fe60a0604052600436101561001257600080fd5b600060e08135811c9081630bae9ef9146114a7578163137c3f691461145b57816316ef17291461142c57816317845c691461140d5781631e77ceda146113e45781632be04392146113bb5781633e413bee1461139257816347f6c760146111aa578163518e8dfc1461118d5781636c320cb014611141578163715018a6146110e7578163761c5f0a146110ca578163767a7b0514610eaf5781637b5210d814610e88578163837c2a61146108a7578163899346c7146108895781638a700b53146106005781638da5cb5b146105d957816390a8ae9b146105bc57816399fbab8814610521578163a7f8a5e2146104f8578163cdddd4e5146103cb578163d79873b9146103ae578163e1f1c4a714610391578163e2dc366614610345578163eb02c3011461020a57508063f2fde38b1461017f5763f416fc1c1461015457600080fd5b3461017c578060031936011261017c576003546040516001600160a01b039091168152602090f35b80fd5b503461017c57602036600319011261017c576101996118c8565b6101a1611917565b6001600160a01b039081169081156101f157600054826001600160601b0360a01b821617600055167f8be0079c531659141344cd1fd0a4f28419497f9722a3daafe3b4186f6b6457e0600080a380f35b604051631e4fbdf760e01b815260048101849052602490fd5b9050346103415760203660031901126103415761033f61012092604051610230816119c2565b8181528160208201528160408201528160608201528160808201528160a08201528160c082015281848201526040826101009384809401526004358152600660205220936040518095610282826119c2565b60018060a01b03808254168352806001830154169060208401918252600283015460408501908152600384015490606086019182526004850154926080870193845260058601549460a0880195865261030060ff600760068a01549960c08c019a8b5201549b8a828d8f9d019c1615158c52019b60081c168b611a73565b816040519d51168d52511660208c01525160408b01525160608a01525160808901525160a08801525160c08701525115159085015251908301906118f4565bf35b5080fd5b823461017c57602036600319011261017c5761035f6118c8565b610367611917565b6001600160a01b031661037b811515611943565b6001600160601b0360a01b600454161760045580f35b823461017c578060031936011261017c5760206040516127108152f35b823461017c578060031936011261017c5760206040516117708152f35b823461017c5760208060031936011261034157600435906103ea611917565b6103f2611aa8565b818352600681526040832061040d60ff600783015416611acb565b8284526008825260ff6040852054166104ba57612cec61042c84611bc1565b101561047f57907f77493833e3b7f392bd715ffdc3abd21434418e6889264880074c970e1b5e61c8918385526008825260408520600160ff19825416179055600642910155604051428152a26001805580f35b60405162461bcd60e51b8152600481018390526013602482015272506f736974696f6e206973206865616c74687960681b6044820152606490fd5b60405162461bcd60e51b815260048101839052601660248201527520b63932b0b23c9034b7103634b8bab4b230ba34b7b760511b6044820152606490fd5b823461017c578060031936011261017c576009546040516001600160a01b039091168152602090f35b9050346103415760203660031901126103415761033f604061012093600435815260066020522060018060a01b0392838254169360018301541691600281015460038201546004830154906005840154926007600686015495015496604051998a5260208a015260408901526060880152608087015260a086015260c085015260ff821615159084015260ff61010084019160081c166118f4565b823461017c578060031936011261017c576020604051612cec8152f35b823461017c578060031936011261017c57546040516001600160a01b039091168152602090f35b823461017c5761060f366118de565b610617611aa8565b8183528260209160068352604082209261063760ff600786015416611acb565b83546001600160a01b039061064f9082163314611b0d565b61065a831515611981565b6002546040516323b872dd60e01b81523360048201523060248201526044810185905290839082906064908290899087165af18015610861576106a491869161086c575b50611b5b565b60025460035460405163095ea7b360e01b81529083166001600160a01b0316600482015260248101859052908390829084168188816044810103925af1801561086157610834575b5060408160035416604482518097819363d8aed14560e01b83528b60048401528860248401525af19485156107e957879488966107f4575b506024916003849201610738878254611bb4565b9055600354166040519283809263d559515760e01b82528a60048301525afa9182156107e95787926107b4575b50506040805192835260208301939093529181019290925260608201527f91f28e20f26321cf8a71cadbefe77cfe670ee70b71a621e3ce3fb1b57e19dfaa9080608081015b0390a26001805580f35b90809250813d83116107e2575b6107cb81836119f5565b810103126107dd5751836107aa610765565b600080fd5b503d6107c1565b6040513d89823e3d90fd5b83919650600395509161082060249360403d60401161082d575b61081881836119f5565b810190611b9e565b9690969792505091610724565b503d61080e565b61085390833d851161085a575b61084b81836119f5565b810190611a17565b50876106ec565b503d610841565b6040513d87823e3d90fd5b6108839150843d861161085a5761084b81836119f5565b8961069e565b823461017c578060031936011261017c576020600754604051908152f35b823461017c57602080600319360112610341576004356108c5611917565b6108cd611aa8565b808352600682526040832060078101926108ea60ff855416611acb565b8285526008815260ff60408620541615610e44576009546001600160a01b03908116959093908615610e0a5760018401805460028601805460405163095ea7b360e01b608081905281526001600160a01b039b909b1660048c015260248b015291989085908290604490829087908c165af18015610dff579885916109ad999a610de2575b5060095490548354604051630c34f5ed60e11b8152918a166001600160a01b0316600483015260248201529889918916908290869082906044820190565b03925af1968715610dd7578297610da8575b508615610d6f5760035460405163d559515760e01b81526004810185905298908716858a602481845afa998a15610b5d57849a610d40575b50839980610c62575b505088881115610c2e57610a148989611bb4565b956103e8808802908882041488151715610c1a57612710610a3791048098611bb4565b9787610b68575b88610aac575b5050977f1b5cd914bf77ee50de90263f47d89967bbce85a4eb078d958bfee08dc0d0cde792869260609a5b805460ff191690555560408051898152602081019290925281019190915260608101869052608090a2600180556040519384528301526040820152f35b600254915460405163a9059cbb60e01b81529082166001600160a01b03166004820152602481018a90529187918391168187816044810103925af1908115610b5d578491610b40575b5015610b02578980610a44565b60405162461bcd60e51b81526004810186905260166024820152751499599d5b99081d1c985b9cd9995c8819985a5b195960521b6044820152606490fd5b610b579150863d881161085a5761084b81836119f5565b8a610af5565b6040513d86823e3d90fd5b600254855460405163a9059cbb60e01b81529083166001600160a01b03166004820152602481018a9052908890829084168189816044810103925af1908115610c0f578691610bf2575b50610a3e5760405162461bcd60e51b8152600481018890526013602482015272119959481d1c985b9cd9995c8819985a5b1959606a1b6044820152606490fd5b610c099150883d8a1161085a5761084b81836119f5565b8c610bb2565b6040513d88823e3d90fd5b634e487b7160e01b85526011600452602485fd5b95508194506060977f1b5cd914bf77ee50de90263f47d89967bbce85a4eb078d958bfee08dc0d0cde7929586928198610a6f565b9199509085818a1115610d3357610cac9180935b60025460405160805181526001600160a01b03909216600483015260248201929092529283918b16908290889082906044820190565b03925af18015610b5d57610d16575b508260408860035416604482518094819363d8aed14560e01b83528a60048401528760248401525af18015610b5d57610cf8575b50978980610a00565b610d109060403d60401161082d5761081881836119f5565b50610cef565b610d2c90863d881161085a5761084b81836119f5565b5089610cbb565b610cac9150898093610c76565b9099508581813d8311610d68575b610d5881836119f5565b810103126107dd5751988a6109f7565b503d610d4e565b60405162461bcd60e51b8152600481018590526011602482015270139bc81e5a595b19081c9958d95a5d9959607a1b6044820152606490fd5b9096508381813d8311610dd0575b610dc081836119f5565b810103126107dd575195886109bf565b503d610db6565b6040513d84823e3d90fd5b610df890833d851161085a5761084b81836119f5565b508a61096f565b6040513d85823e3d90fd5b60405162461bcd60e51b8152600481018490526012602482015271165a595b1915985d5b1d081b9bdd081cd95d60721b6044820152606490fd5b6064906040519062461bcd60e51b82526004820152601760248201527f506f736974696f6e206e6f74206c6971756964617465640000000000000000006044820152fd5b823461017c57602036600319011261017c576020610ea7600435611cfd565b604051908152f35b823461017c57610ebe366118de565b90610ec7611aa8565b808352602060068152604084206007810190815491610ee860ff8416611acb565b81546001600160a01b039390610f019085163314611b0d565b610f0c871515611981565b6002830180548089116110855760248787600354166040519283809263d559515760e01b82528d60048301525afa90811561107a578b9161104d575b506110085790610f5d89600196959493611bb4565b80915515610ffb575b5050015460405163a9059cbb60e01b81523360048201526024810186905292918291849160449183918a91165af1918215610861577f7c5e5cb62e5ed3caf3764e4b0afedfedef533e27809d43367799787ad2abcd4192610fce918791610fde575b50611a2f565b6040519384523393a36001805580f35b610ff59150833d851161085a5761084b81836119f5565b87610fc8565b60ff191690558780610f66565b60405162461bcd60e51b815260048101889052601f60248201527f4f75747374616e64696e672064656274206d75737420626520726570616964006044820152606490fd5b90508781813d8311611073575b61106481836119f5565b810103126107dd57518b610f48565b503d61105a565b6040513d8d823e3d90fd5b60405162461bcd60e51b815260048101889052601760248201527f496e73756666696369656e7420636f6c6c61746572616c0000000000000000006044820152606490fd5b823461017c578060031936011261017c576020604051611b588152f35b823461017c578060031936011261017c57611100611917565b600080546001600160a01b0319811682556001600160a01b03167f8be0079c531659141344cd1fd0a4f28419497f9722a3daafe3b4186f6b6457e08280a380f35b823461017c57602036600319011261017c5761115b6118c8565b611163611917565b6001600160a01b0316611177811515611943565b6001600160601b0360a01b600554161760055580f35b823461017c578060031936011261017c5760206040516103e88152f35b823461017c576111b9366118de565b6111c1611aa8565b81835260209060068252604084209060078201546111e160ff8216611acb565b82546001600160a01b039160ff916111fc9084163314611b0d565b611207841515611981565b60081c16600281101561137e5761136e57600361271061122e611b585b6004870154611a7f565b0493019261123d838554611b4e565b1161133557858160035416803b15610341578190604460405180948193630ecbcdab60e01b83528b60048401528860248401525af180156107e957611305575b50611289828454611b4e565b835560025460405163a9059cbb60e01b81523360048201526024810184905294918291869160449183918b91165af1928315610c0f576112f36040947f0902160bbfee2201aa09b6b057b6f0b7d0f633b2bdefc04e987882df4aefd29c96899161086c5750611b5b565b54908351928352820152a26001805580f35b67ffffffffffffffff819792971161132157604052948661127d565b634e487b7160e01b82526041600452602482fd5b60405162461bcd60e51b8152600481018590526011602482015270115e18d959591cc8131515881b1a5b5a5d607a1b6044820152606490fd5b600361271061122e611770611224565b634e487b7160e01b87526021600452602487fd5b823461017c578060031936011261017c576002546040516001600160a01b039091168152602090f35b823461017c578060031936011261017c576005546040516001600160a01b039091168152602090f35b823461017c578060031936011261017c576004546040516001600160a01b039091168152602090f35b823461017c57602036600319011261017c576020610ea7600435611bc1565b823461017c57602036600319011261017c5760ff60406020926004358152600884522054166040519015158152f35b823461017c57602036600319011261017c576114756118c8565b61147d611917565b6001600160a01b0316611491811515611943565b6001600160601b0360a01b600954161760095580f35b9050346103415760a0366003190112610341576114c26118c8565b916002606435101561017c5760843515156084350361017c576114e3611aa8565b6001600160a01b03831615611893576114ff6024351515611981565b60443515611856576040516323b872dd60e01b815233600482015230602480830191909152356044820152602081606481856001600160a01b0389165af1908115610dd757906115559183916118375750611a2f565b6007549160001983146118235760018301600755604051611575816119c2565b3381526001600160a01b038516602082015260243560408201526060810183905260443560808201524260a082015260c081018390526001828201526115c16064356101008301611a73565b838352600660205260076040842060018060a01b038351166001600160601b0360a01b9081835416178255600182019060018060a01b036020860151169082541617905560408301516002820155606083015160038201556080830151600482015560a0830151600582015560c0830151600682015501918101511515906101008354910151600281101561180f5761ff0060ff9160081b1692169061ffff19161717905560405160018060a01b038416815260243560208201526044356040820152611693606082016064356118f4565b827f93cb2591720fa23e5a51a39bf9d35b6a4e5cb6c11beae435c41e4482f3a30d2160803393a3608435806117fb575b6116d7575b60208260018055604051908152f35b6064356117ea578060206127106116f3611b585b604435611a7f565b049460a460018060a01b0360055416916040519485938492637190caeb60e11b845233600485015260018060a01b03166024840152602435604484015260443560648401528860848401525af19182156117de578092611788575b50507ff71bf80fa0a269e5fdbe7113cc01a1ada492208f97e2857213258755d0cbbb5e60408392602095825191825286820152a2386116c8565b9091506020823d6020116117d6575b816117a4602093836119f5565b8101031261017c5750517ff71bf80fa0a269e5fdbe7113cc01a1ada492208f97e2857213258755d0cbbb5e604061174e565b3d9150611797565b604051903d90823e3d90fd5b8060206127106116f36117706116eb565b506005546001600160a01b031615156116c3565b634e487b7160e01b85526021600452602485fd5b634e487b7160e01b82526011600452602482fd5b611850915060203d60201161085a5761084b81836119f5565b38610fc8565b60405162461bcd60e51b8152602060048201526015602482015274056616c756174696f6e206d757374206265203e203605c1b6044820152606490fd5b60405162461bcd60e51b815260206004820152600d60248201526c24b73b30b634b2103a37b5b2b760991b6044820152606490fd5b600435906001600160a01b03821682036107dd57565b60409060031901126107dd576004359060243590565b9060028210156119015752565b634e487b7160e01b600052602160045260246000fd5b6000546001600160a01b0316330361192b57565b60405163118cdaa760e01b8152336004820152602490fd5b1561194a57565b60405162461bcd60e51b815260206004820152600f60248201526e496e76616c6964206164647265737360881b6044820152606490fd5b1561198857565b60405162461bcd60e51b81526020600482015260126024820152710416d6f756e74206d757374206265203e20360741b6044820152606490fd5b610120810190811067ffffffffffffffff8211176119df57604052565b634e487b7160e01b600052604160045260246000fd5b90601f8019910116810190811067ffffffffffffffff8211176119df57604052565b908160209103126107dd575180151581036107dd5790565b15611a3657565b60405162461bcd60e51b8152602060048201526015602482015274151bdad95b881d1c985b9cd9995c8819985a5b1959605a1b6044820152606490fd5b60028210156119015752565b81810292918115918404141715611a9257565b634e487b7160e01b600052601160045260246000fd5b600260015414611ab9576002600155565b604051633ee5aeb560e01b8152600490fd5b15611ad257565b60405162461bcd60e51b8152602060048201526013602482015272506f736974696f6e206e6f742061637469766560681b6044820152606490fd5b15611b1457565b60405162461bcd60e51b81526020600482015260126024820152712737ba103837b9b4ba34b7b71037bbb732b960711b6044820152606490fd5b91908201809211611a9257565b15611b6257565b60405162461bcd60e51b81526020600482015260146024820152731554d110c81d1c985b9cd9995c8819985a5b195960621b6044820152606490fd5b91908260409103126107dd576020825192015190565b91908203918211611a9257565b6000818152602091600683526040822090604051611bde816119c2565b60018060a01b039081845416815281600185015416868201526002840154604082015260038401546060820152611c50600760048601549560808401968752600581015460a0850152600681015460c085015201549161010060ff60e08301948181161515865260081c169101611a73565b5115611cf5578490600354169160246040518094819363d559515760e01b835260048301525afa938415610dff578394611cc5575b50508215611cbc57519061271091828102928184041490151715611ca857500490565b634e487b7160e01b81526011600452602490fd5b50505060001990565b9080929450813d8311611cee575b611cdd81836119f5565b810103126103415751913880611c85565b503d611cd3565b505050905090565b60009080825260209060068252604083209060405191611d1c836119c2565b60018060a01b039283825416815283600183015416858201526002820154604082015260038201546060820152600760048301549260808301938452600581015460a0840152600681015460c0840152015490611d8f60ff61010060e084019382861615158552019360081c1683611a73565b5115611e5757516002811015611e4357611dbb85926127109215600014611e3a57611b58905b51611a7f565b0492600354169160246040518094819363d559515760e01b835260048301525afa928315610b5d578493611e06575b505081811115611e0157611dfe9250611bb4565b90565b505090565b9080929350813d8311611e33575b611e1e81836119f5565b81010312611e2f5751903880611dea565b8280fd5b503d611e14565b61177090611db5565b634e487b7160e01b86526021600452602486fd5b50505050509056fea26469706673582212201ba58e4e5f0b352401c4080320e2d0148cc4b2f68c3104ccce508dad9b94961164736f6c63430008140033","opcodes":"PUSH1 0x80 CALLVALUE PUSH3 0xF5 JUMPI PUSH1 0x1F PUSH3 0x1FBB CODESIZE DUP2 SWAP1 SUB SWAP2 DUP3 ADD PUSH1 0x1F NOT AND DUP4 ADD SWAP2 PUSH1 0x1 PUSH1 0x1 PUSH1 0x40 SHL SUB DUP4 GT DUP5 DUP5 LT OR PUSH3 0xFA JUMPI DUP1 DUP5 SWAP3 PUSH1 0x40 SWAP5 DUP6 MSTORE DUP4 CODECOPY DUP2 ADD SUB SLT PUSH3 0xF5 JUMPI PUSH3 0x5A PUSH1 0x20 PUSH3 0x52 DUP4 PUSH3 0x110 JUMP JUMPDEST SWAP3 ADD PUSH3 0x110 JUMP JUMPDEST CALLER ISZERO PUSH3 0xDC JUMPI PUSH1 0x0 DUP1 SLOAD CALLER PUSH1 0x1 PUSH1 0x1 PUSH1 0xA0 SHL SUB NOT DUP1 DUP4 AND DUP3 OR DUP5 SSTORE PUSH1 0x40 MLOAD SWAP6 SWAP1 SWAP5 PUSH1 0x1 PUSH1 0x1 PUSH1 0xA0 SHL SUB SWAP5 SWAP1 SWAP4 DUP6 SWAP4 SWAP2 SWAP1 DUP5 AND SWAP1 PUSH32 0x8BE0079C531659141344CD1FD0A4F28419497F9722A3DAAFE3B4186F6B6457E0 SWAP1 DUP1 LOG3 PUSH1 0x1 DUP1 SSTORE AND DUP4 PUSH1 0x2 SLOAD AND OR PUSH1 0x2 SSTORE AND SWAP1 PUSH1 0x3 SLOAD AND OR PUSH1 0x3 SSTORE PUSH1 0x1 PUSH1 0x7 SSTORE PUSH2 0x1E95 SWAP1 DUP2 PUSH3 0x126 DUP3 CODECOPY RETURN JUMPDEST PUSH1 0x40 MLOAD PUSH4 0x1E4FBDF7 PUSH1 0xE0 SHL DUP2 MSTORE PUSH1 0x0 PUSH1 0x4 DUP3 ADD MSTORE PUSH1 0x24 SWAP1 REVERT JUMPDEST PUSH1 0x0 DUP1 REVERT JUMPDEST PUSH4 0x4E487B71 PUSH1 0xE0 SHL PUSH1 0x0 MSTORE PUSH1 0x41 PUSH1 0x4 MSTORE PUSH1 0x24 PUSH1 0x0 REVERT JUMPDEST MLOAD SWAP1 PUSH1 0x1 PUSH1 0x1 PUSH1 0xA0 SHL SUB DUP3 AND DUP3 SUB PUSH3 0xF5 JUMPI JUMP INVALID PUSH1 0xA0 PUSH1 0x40 MSTORE PUSH1 0x4 CALLDATASIZE LT ISZERO PUSH2 0x12 JUMPI PUSH1 0x0 DUP1 REVERT JUMPDEST PUSH1 0x0 PUSH1 0xE0 DUP2 CALLDATALOAD DUP2 SHR SWAP1 DUP2 PUSH4 0xBAE9EF9 EQ PUSH2 0x14A7 JUMPI DUP2 PUSH4 0x137C3F69 EQ PUSH2 0x145B JUMPI DUP2 PUSH4 0x16EF1729 EQ PUSH2 0x142C JUMPI DUP2 PUSH4 0x17845C69 EQ PUSH2 0x140D JUMPI DUP2 PUSH4 0x1E77CEDA EQ PUSH2 0x13E4 JUMPI DUP2 PUSH4 0x2BE04392 EQ PUSH2 0x13BB JUMPI DUP2 PUSH4 0x3E413BEE EQ PUSH2 0x1392 JUMPI DUP2 PUSH4 0x47F6C760 EQ PUSH2 0x11AA JUMPI DUP2 PUSH4 0x518E8DFC EQ PUSH2 0x118D JUMPI DUP2 PUSH4 0x6C320CB0 EQ PUSH2 0x1141 JUMPI DUP2 PUSH4 0x715018A6 EQ PUSH2 0x10E7 JUMPI DUP2 PUSH4 0x761C5F0A EQ PUSH2 0x10CA JUMPI DUP2 PUSH4 0x767A7B05 EQ PUSH2 0xEAF JUMPI DUP2 PUSH4 0x7B5210D8 EQ PUSH2 0xE88 JUMPI DUP2 PUSH4 0x837C2A61 EQ PUSH2 0x8A7 JUMPI DUP2 PUSH4 0x899346C7 EQ PUSH2 0x889 JUMPI DUP2 PUSH4 0x8A700B53 EQ PUSH2 0x600 JUMPI DUP2 PUSH4 0x8DA5CB5B EQ PUSH2 0x5D9 JUMPI DUP2 PUSH4 0x90A8AE9B EQ PUSH2 0x5BC JUMPI DUP2 PUSH4 0x99FBAB88 EQ PUSH2 0x521 JUMPI DUP2 PUSH4 0xA7F8A5E2 EQ PUSH2 0x4F8 JUMPI DUP2 PUSH4 0xCDDDD4E5 EQ PUSH2 0x3CB JUMPI DUP2 PUSH4 0xD79873B9 EQ PUSH2 0x3AE JUMPI DUP2 PUSH4 0xE1F1C4A7 EQ PUSH2 0x391 JUMPI DUP2 PUSH4 0xE2DC3666 EQ PUSH2 0x345 JUMPI DUP2 PUSH4 0xEB02C301 EQ PUSH2 0x20A JUMPI POP DUP1 PUSH4 0xF2FDE38B EQ PUSH2 0x17F JUMPI PUSH4 0xF416FC1C EQ PUSH2 0x154 JUMPI PUSH1 0x0 DUP1 REVERT JUMPDEST CALLVALUE PUSH2 0x17C JUMPI DUP1 PUSH1 0x3 NOT CALLDATASIZE ADD SLT PUSH2 0x17C JUMPI PUSH1 0x3 SLOAD PUSH1 0x40 MLOAD PUSH1 0x1 PUSH1 0x1 PUSH1 0xA0 SHL SUB SWAP1 SWAP2 AND DUP2 MSTORE PUSH1 0x20 SWAP1 RETURN JUMPDEST DUP1 REVERT JUMPDEST POP CALLVALUE PUSH2 0x17C JUMPI PUSH1 0x20 CALLDATASIZE PUSH1 0x3 NOT ADD SLT PUSH2 0x17C JUMPI PUSH2 0x199 PUSH2 0x18C8 JUMP JUMPDEST PUSH2 0x1A1 PUSH2 0x1917 JUMP JUMPDEST PUSH1 0x1 PUSH1 0x1 PUSH1 0xA0 SHL SUB SWAP1 DUP2 AND SWAP1 DUP2 ISZERO PUSH2 0x1F1 JUMPI PUSH1 0x0 SLOAD DUP3 PUSH1 0x1 PUSH1 0x1 PUSH1 0x60 SHL SUB PUSH1 0xA0 SHL DUP3 AND OR PUSH1 0x0 SSTORE AND PUSH32 0x8BE0079C531659141344CD1FD0A4F28419497F9722A3DAAFE3B4186F6B6457E0 PUSH1 0x0 DUP1 LOG3 DUP1 RETURN JUMPDEST PUSH1 0x40 MLOAD PUSH4 0x1E4FBDF7 PUSH1 0xE0 SHL DUP2 MSTORE PUSH1 0x4 DUP2 ADD DUP5 SWAP1 MSTORE PUSH1 0x24 SWAP1 REVERT JUMPDEST SWAP1 POP CALLVALUE PUSH2 0x341 JUMPI PUSH1 0x20 CALLDATASIZE PUSH1 0x3 NOT ADD SLT PUSH2 0x341 JUMPI PUSH2 0x33F PUSH2 0x120 SWAP3 PUSH1 0x40 MLOAD PUSH2 0x230 DUP2 PUSH2 0x19C2 JUMP JUMPDEST DUP2 DUP2 MSTORE DUP2 PUSH1 0x20 DUP3 ADD MSTORE DUP2 PUSH1 0x40 DUP3 ADD MSTORE DUP2 PUSH1 0x60 DUP3 ADD MSTORE DUP2 PUSH1 0x80 DUP3 ADD MSTORE DUP2 PUSH1 0xA0 DUP3 ADD MSTORE DUP2 PUSH1 0xC0 DUP3 ADD MSTORE DUP2 DUP5 DUP3 ADD MSTORE PUSH1 0x40 DUP3 PUSH2 0x100 SWAP4 DUP5 DUP1 SWAP5 ADD MSTORE PUSH1 0x4 CALLDATALOAD DUP2 MSTORE PUSH1 0x6 PUSH1 0x20 MSTORE KECCAK256 SWAP4 PUSH1 0x40 MLOAD DUP1 SWAP6 PUSH2 0x282 DUP3 PUSH2 0x19C2 JUMP JUMPDEST PUSH1 0x1 DUP1 PUSH1 0xA0 SHL SUB DUP1 DUP3 SLOAD AND DUP4 MSTORE DUP1 PUSH1 0x1 DUP4 ADD SLOAD AND SWAP1 PUSH1 0x20 DUP5 ADD SWAP2 DUP3 MSTORE PUSH1 0x2 DUP4 ADD SLOAD PUSH1 0x40 DUP6 ADD SWAP1 DUP2 MSTORE PUSH1 0x3 DUP5 ADD SLOAD SWAP1 PUSH1 0x60 DUP7 ADD SWAP2 DUP3 MSTORE PUSH1 0x4 DUP6 ADD SLOAD SWAP3 PUSH1 0x80 DUP8 ADD SWAP4 DUP5 MSTORE PUSH1 0x5 DUP7 ADD SLOAD SWAP5 PUSH1 0xA0 DUP9 ADD SWAP6 DUP7 MSTORE PUSH2 0x300 PUSH1 0xFF PUSH1 0x7 PUSH1 0x6 DUP11 ADD SLOAD SWAP10 PUSH1 0xC0 DUP13 ADD SWAP11 DUP12 MSTORE ADD SLOAD SWAP12 DUP11 DUP3 DUP14 DUP16 SWAP14 ADD SWAP13 AND ISZERO ISZERO DUP13 MSTORE ADD SWAP12 PUSH1 0x8 SHR AND DUP12 PUSH2 0x1A73 JUMP JUMPDEST DUP2 PUSH1 0x40 MLOAD SWAP14 MLOAD AND DUP14 MSTORE MLOAD AND PUSH1 0x20 DUP13 ADD MSTORE MLOAD PUSH1 0x40 DUP12 ADD MSTORE MLOAD PUSH1 0x60 DUP11 ADD MSTORE MLOAD PUSH1 0x80 DUP10 ADD MSTORE MLOAD PUSH1 0xA0 DUP9 ADD MSTORE MLOAD PUSH1 0xC0 DUP8 ADD MSTORE MLOAD ISZERO ISZERO SWAP1 DUP6 ADD MSTORE MLOAD SWAP1 DUP4 ADD SWAP1 PUSH2 0x18F4 JUMP JUMPDEST RETURN JUMPDEST POP DUP1 REVERT JUMPDEST DUP3 CALLVALUE PUSH2 0x17C JUMPI PUSH1 0x20 CALLDATASIZE PUSH1 0x3 NOT ADD SLT PUSH2 0x17C JUMPI PUSH2 0x35F PUSH2 0x18C8 JUMP JUMPDEST PUSH2 0x367 PUSH2 0x1917 JUMP JUMPDEST PUSH1 0x1 PUSH1 0x1 PUSH1 0xA0 SHL SUB AND PUSH2 0x37B DUP2 ISZERO ISZERO PUSH2 0x1943 JUMP JUMPDEST PUSH1 0x1 PUSH1 0x1 PUSH1 0x60 SHL SUB PUSH1 0xA0 SHL PUSH1 0x4 SLOAD AND OR PUSH1 0x4 SSTORE DUP1 RETURN JUMPDEST DUP3 CALLVALUE PUSH2 0x17C JUMPI DUP1 PUSH1 0x3 NOT CALLDATASIZE ADD SLT PUSH2 0x17C JUMPI PUSH1 0x20 PUSH1 0x40 MLOAD PUSH2 0x2710 DUP2 MSTORE RETURN JUMPDEST DUP3 CALLVALUE PUSH2 0x17C JUMPI DUP1 PUSH1 0x3 NOT CALLDATASIZE ADD SLT PUSH2 0x17C JUMPI PUSH1 0x20 PUSH1 0x40 MLOAD PUSH2 0x1770 DUP2 MSTORE RETURN JUMPDEST DUP3 CALLVALUE PUSH2 0x17C JUMPI PUSH1 0x20 DUP1 PUSH1 0x3 NOT CALLDATASIZE ADD SLT PUSH2 0x341 JUMPI PUSH1 0x4 CALLDATALOAD SWAP1 PUSH2 0x3EA PUSH2 0x1917 JUMP JUMPDEST PUSH2 0x3F2 PUSH2 0x1AA8 JUMP JUMPDEST DUP2 DUP4 MSTORE PUSH1 0x6 DUP2 MSTORE PUSH1 0x40 DUP4 KECCAK256 PUSH2 0x40D PUSH1 0xFF PUSH1 0x7 DUP4 ADD SLOAD AND PUSH2 0x1ACB JUMP JUMPDEST DUP3 DUP5 MSTORE PUSH1 0x8 DUP3 MSTORE PUSH1 0xFF PUSH1 0x40 DUP6 KECCAK256 SLOAD AND PUSH2 0x4BA JUMPI PUSH2 0x2CEC PUSH2 0x42C DUP5 PUSH2 0x1BC1 JUMP JUMPDEST LT ISZERO PUSH2 0x47F JUMPI SWAP1 PUSH32 0x77493833E3B7F392BD715FFDC3ABD21434418E6889264880074C970E1B5E61C8 SWAP2 DUP4 DUP6 MSTORE PUSH1 0x8 DUP3 MSTORE PUSH1 0x40 DUP6 KECCAK256 PUSH1 0x1 PUSH1 0xFF NOT DUP3 SLOAD AND OR SWAP1 SSTORE PUSH1 0x6 TIMESTAMP SWAP2 ADD SSTORE PUSH1 0x40 MLOAD TIMESTAMP DUP2 MSTORE LOG2 PUSH1 0x1 DUP1 SSTORE DUP1 RETURN JUMPDEST PUSH1 0x40 MLOAD PUSH3 0x461BCD PUSH1 0xE5 SHL DUP2 MSTORE PUSH1 0x4 DUP2 ADD DUP4 SWAP1 MSTORE PUSH1 0x13 PUSH1 0x24 DUP3 ADD MSTORE PUSH19 0x506F736974696F6E206973206865616C746879 PUSH1 0x68 SHL PUSH1 0x44 DUP3 ADD MSTORE PUSH1 0x64 SWAP1 REVERT JUMPDEST PUSH1 0x40 MLOAD PUSH3 0x461BCD PUSH1 0xE5 SHL DUP2 MSTORE PUSH1 0x4 DUP2 ADD DUP4 SWAP1 MSTORE PUSH1 0x16 PUSH1 0x24 DUP3 ADD MSTORE PUSH22 0x20B63932B0B23C9034B7103634B8BAB4B230BA34B7B7 PUSH1 0x51 SHL PUSH1 0x44 DUP3 ADD MSTORE PUSH1 0x64 SWAP1 REVERT JUMPDEST DUP3 CALLVALUE PUSH2 0x17C JUMPI DUP1 PUSH1 0x3 NOT CALLDATASIZE ADD SLT PUSH2 0x17C JUMPI PUSH1 0x9 SLOAD PUSH1 0x40 MLOAD PUSH1 0x1 PUSH1 0x1 PUSH1 0xA0 SHL SUB SWAP1 SWAP2 AND DUP2 MSTORE PUSH1 0x20 SWAP1 RETURN JUMPDEST SWAP1 POP CALLVALUE PUSH2 0x341 JUMPI PUSH1 0x20 CALLDATASIZE PUSH1 0x3 NOT ADD SLT PUSH2 0x341 JUMPI PUSH2 0x33F PUSH1 0x40 PUSH2 0x120 SWAP4 PUSH1 0x4 CALLDATALOAD DUP2 MSTORE PUSH1 0x6 PUSH1 0x20 MSTORE KECCAK256 PUSH1 0x1 DUP1 PUSH1 0xA0 SHL SUB SWAP3 DUP4 DUP3 SLOAD AND SWAP4 PUSH1 0x1 DUP4 ADD SLOAD AND SWAP2 PUSH1 0x2 DUP2 ADD SLOAD PUSH1 0x3 DUP3 ADD SLOAD PUSH1 0x4 DUP4 ADD SLOAD SWAP1 PUSH1 0x5 DUP5 ADD SLOAD SWAP3 PUSH1 0x7 PUSH1 0x6 DUP7 ADD SLOAD SWAP6 ADD SLOAD SWAP7 PUSH1 0x40 MLOAD SWAP10 DUP11 MSTORE PUSH1 0x20 DUP11 ADD MSTORE PUSH1 0x40 DUP10 ADD MSTORE PUSH1 0x60 DUP9 ADD MSTORE PUSH1 0x80 DUP8 ADD MSTORE PUSH1 0xA0 DUP7 ADD MSTORE PUSH1 0xC0 DUP6 ADD MSTORE PUSH1 0xFF DUP3 AND ISZERO ISZERO SWAP1 DUP5 ADD MSTORE PUSH1 0xFF PUSH2 0x100 DUP5 ADD SWAP2 PUSH1 0x8 SHR AND PUSH2 0x18F4 JUMP JUMPDEST DUP3 CALLVALUE PUSH2 0x17C JUMPI DUP1 PUSH1 0x3 NOT CALLDATASIZE ADD SLT PUSH2 0x17C JUMPI PUSH1 0x20 PUSH1 0x40 MLOAD PUSH2 0x2CEC DUP2 MSTORE RETURN JUMPDEST DUP3 CALLVALUE PUSH2 0x17C JUMPI DUP1 PUSH1 0x3 NOT CALLDATASIZE ADD SLT PUSH2 0x17C JUMPI SLOAD PUSH1 0x40 MLOAD PUSH1 0x1 PUSH1 0x1 PUSH1 0xA0 SHL SUB SWAP1 SWAP2 AND DUP2 MSTORE PUSH1 0x20 SWAP1 RETURN JUMPDEST DUP3 CALLVALUE PUSH2 0x17C JUMPI PUSH2 0x60F CALLDATASIZE PUSH2 0x18DE JUMP JUMPDEST PUSH2 0x617 PUSH2 0x1AA8 JUMP JUMPDEST DUP2 DUP4 MSTORE DUP3 PUSH1 0x20 SWAP2 PUSH1 0x6 DUP4 MSTORE PUSH1 0x40 DUP3 KECCAK256 SWAP3 PUSH2 0x637 PUSH1 0xFF PUSH1 0x7 DUP7 ADD SLOAD AND PUSH2 0x1ACB JUMP JUMPDEST DUP4 SLOAD PUSH1 0x1 PUSH1 0x1 PUSH1 0xA0 SHL SUB SWAP1 PUSH2 0x64F SWAP1 DUP3 AND CALLER EQ PUSH2 0x1B0D JUMP JUMPDEST PUSH2 0x65A DUP4 ISZERO ISZERO PUSH2 0x1981 JUMP JUMPDEST PUSH1 0x2 SLOAD PUSH1 0x40 MLOAD PUSH4 0x23B872DD PUSH1 0xE0 SHL DUP2 MSTORE CALLER PUSH1 0x4 DUP3 ADD MSTORE ADDRESS PUSH1 0x24 DUP3 ADD MSTORE PUSH1 0x44 DUP2 ADD DUP6 SWAP1 MSTORE SWAP1 DUP4 SWAP1 DUP3 SWAP1 PUSH1 0x64 SWAP1 DUP3 SWAP1 DUP10 SWAP1 DUP8 AND GAS CALL DUP1 ISZERO PUSH2 0x861 JUMPI PUSH2 0x6A4 SWAP2 DUP7 SWAP2 PUSH2 0x86C JUMPI JUMPDEST POP PUSH2 0x1B5B JUMP JUMPDEST PUSH1 0x2 SLOAD PUSH1 0x3 SLOAD PUSH1 0x40 MLOAD PUSH4 0x95EA7B3 PUSH1 0xE0 SHL DUP2 MSTORE SWAP1 DUP4 AND PUSH1 0x1 PUSH1 0x1 PUSH1 0xA0 SHL SUB AND PUSH1 0x4 DUP3 ADD MSTORE PUSH1 0x24 DUP2 ADD DUP6 SWAP1 MSTORE SWAP1 DUP4 SWAP1 DUP3 SWAP1 DUP5 AND DUP2 DUP9 DUP2 PUSH1 0x44 DUP2 ADD SUB SWAP3 GAS CALL DUP1 ISZERO PUSH2 0x861 JUMPI PUSH2 0x834 JUMPI JUMPDEST POP PUSH1 0x40 DUP2 PUSH1 0x3 SLOAD AND PUSH1 0x44 DUP3 MLOAD DUP1 SWAP8 DUP2 SWAP4 PUSH4 0xD8AED145 PUSH1 0xE0 SHL DUP4 MSTORE DUP12 PUSH1 0x4 DUP5 ADD MSTORE DUP9 PUSH1 0x24 DUP5 ADD MSTORE GAS CALL SWAP5 DUP6 ISZERO PUSH2 0x7E9 JUMPI DUP8 SWAP5 DUP9 SWAP7 PUSH2 0x7F4 JUMPI JUMPDEST POP PUSH1 0x24 SWAP2 PUSH1 0x3 DUP5 SWAP3 ADD PUSH2 0x738 DUP8 DUP3 SLOAD PUSH2 0x1BB4 JUMP JUMPDEST SWAP1 SSTORE PUSH1 0x3 SLOAD AND PUSH1 0x40 MLOAD SWAP3 DUP4 DUP1 SWAP3 PUSH4 0xD5595157 PUSH1 0xE0 SHL DUP3 MSTORE DUP11 PUSH1 0x4 DUP4 ADD MSTORE GAS STATICCALL SWAP2 DUP3 ISZERO PUSH2 0x7E9 JUMPI DUP8 SWAP3 PUSH2 0x7B4 JUMPI JUMPDEST POP POP PUSH1 0x40 DUP1 MLOAD SWAP3 DUP4 MSTORE PUSH1 0x20 DUP4 ADD SWAP4 SWAP1 SWAP4 MSTORE SWAP2 DUP2 ADD SWAP3 SWAP1 SWAP3 MSTORE PUSH1 0x60 DUP3 ADD MSTORE PUSH32 0x91F28E20F26321CF8A71CADBEFE77CFE670EE70B71A621E3CE3FB1B57E19DFAA SWAP1 DUP1 PUSH1 0x80 DUP2 ADD JUMPDEST SUB SWAP1 LOG2 PUSH1 0x1 DUP1 SSTORE DUP1 RETURN JUMPDEST SWAP1 DUP1 SWAP3 POP DUP2 RETURNDATASIZE DUP4 GT PUSH2 0x7E2 JUMPI JUMPDEST PUSH2 0x7CB DUP2 DUP4 PUSH2 0x19F5 JUMP JUMPDEST DUP2 ADD SUB SLT PUSH2 0x7DD JUMPI MLOAD DUP4 PUSH2 0x7AA PUSH2 0x765 JUMP JUMPDEST PUSH1 0x0 DUP1 REVERT JUMPDEST POP RETURNDATASIZE PUSH2 0x7C1 JUMP JUMPDEST PUSH1 0x40 MLOAD RETURNDATASIZE DUP10 DUP3 RETURNDATACOPY RETURNDATASIZE SWAP1 REVERT JUMPDEST DUP4 SWAP2 SWAP7 POP PUSH1 0x3 SWAP6 POP SWAP2 PUSH2 0x820 PUSH1 0x24 SWAP4 PUSH1 0x40 RETURNDATASIZE PUSH1 0x40 GT PUSH2 0x82D JUMPI JUMPDEST PUSH2 0x818 DUP2 DUP4 PUSH2 0x19F5 JUMP JUMPDEST DUP2 ADD SWAP1 PUSH2 0x1B9E JUMP JUMPDEST SWAP7 SWAP1 SWAP7 SWAP8 SWAP3 POP POP SWAP2 PUSH2 0x724 JUMP JUMPDEST POP RETURNDATASIZE PUSH2 0x80E JUMP JUMPDEST PUSH2 0x853 SWAP1 DUP4 RETURNDATASIZE DUP6 GT PUSH2 0x85A JUMPI JUMPDEST PUSH2 0x84B DUP2 DUP4 PUSH2 0x19F5 JUMP JUMPDEST DUP2 ADD SWAP1 PUSH2 0x1A17 JUMP JUMPDEST POP DUP8 PUSH2 0x6EC JUMP JUMPDEST POP RETURNDATASIZE PUSH2 0x841 JUMP JUMPDEST PUSH1 0x40 MLOAD RETURNDATASIZE DUP8 DUP3 RETURNDATACOPY RETURNDATASIZE SWAP1 REVERT JUMPDEST PUSH2 0x883 SWAP2 POP DUP5 RETURNDATASIZE DUP7 GT PUSH2 0x85A JUMPI PUSH2 0x84B DUP2 DUP4 PUSH2 0x19F5 JUMP JUMPDEST DUP10 PUSH2 0x69E JUMP JUMPDEST DUP3 CALLVALUE PUSH2 0x17C JUMPI DUP1 PUSH1 0x3 NOT CALLDATASIZE ADD SLT PUSH2 0x17C JUMPI PUSH1 0x20 PUSH1 0x7 SLOAD PUSH1 0x40 MLOAD SWAP1 DUP2 MSTORE RETURN JUMPDEST DUP3 CALLVALUE PUSH2 0x17C JUMPI PUSH1 0x20 DUP1 PUSH1 0x3 NOT CALLDATASIZE ADD SLT PUSH2 0x341 JUMPI PUSH1 0x4 CALLDATALOAD PUSH2 0x8C5 PUSH2 0x1917 JUMP JUMPDEST PUSH2 0x8CD PUSH2 0x1AA8 JUMP JUMPDEST DUP1 DUP4 MSTORE PUSH1 0x6 DUP3 MSTORE PUSH1 0x40 DUP4 KECCAK256 PUSH1 0x7 DUP2 ADD SWAP3 PUSH2 0x8EA PUSH1 0xFF DUP6 SLOAD AND PUSH2 0x1ACB JUMP JUMPDEST DUP3 DUP6 MSTORE PUSH1 0x8 DUP2 MSTORE PUSH1 0xFF PUSH1 0x40 DUP7 KECCAK256 SLOAD AND ISZERO PUSH2 0xE44 JUMPI PUSH1 0x9 SLOAD PUSH1 0x1 PUSH1 0x1 PUSH1 0xA0 SHL SUB SWAP1 DUP2 AND SWAP6 SWAP1 SWAP4 SWAP1 DUP7 ISZERO PUSH2 0xE0A JUMPI PUSH1 0x1 DUP5 ADD DUP1 SLOAD PUSH1 0x2 DUP7 ADD DUP1 SLOAD PUSH1 0x40 MLOAD PUSH4 0x95EA7B3 PUSH1 0xE0 SHL PUSH1 0x80 DUP2 SWAP1 MSTORE DUP2 MSTORE PUSH1 0x1 PUSH1 0x1 PUSH1 0xA0 SHL SUB SWAP12 SWAP1 SWAP12 AND PUSH1 0x4 DUP13 ADD MSTORE PUSH1 0x24 DUP12 ADD MSTORE SWAP2 SWAP9 SWAP1 DUP6 SWAP1 DUP3 SWAP1 PUSH1 0x44 SWAP1 DUP3 SWAP1 DUP8 SWAP1 DUP13 AND GAS CALL DUP1 ISZERO PUSH2 0xDFF JUMPI SWAP9 DUP6 SWAP2 PUSH2 0x9AD SWAP10 SWAP11 PUSH2 0xDE2 JUMPI JUMPDEST POP PUSH1 0x9 SLOAD SWAP1 SLOAD DUP4 SLOAD PUSH1 0x40 MLOAD PUSH4 0xC34F5ED PUSH1 0xE1 SHL DUP2 MSTORE SWAP2 DUP11 AND PUSH1 0x1 PUSH1 0x1 PUSH1 0xA0 SHL SUB AND PUSH1 0x4 DUP4 ADD MSTORE PUSH1 0x24 DUP3 ADD MSTORE SWAP9 DUP10 SWAP2 DUP10 AND SWAP1 DUP3 SWAP1 DUP7 SWAP1 DUP3 SWAP1 PUSH1 0x44 DUP3 ADD SWAP1 JUMP JUMPDEST SUB SWAP3 GAS CALL SWAP7 DUP8 ISZERO PUSH2 0xDD7 JUMPI DUP3 SWAP8 PUSH2 0xDA8 JUMPI JUMPDEST POP DUP7 ISZERO PUSH2 0xD6F JUMPI PUSH1 0x3 SLOAD PUSH1 0x40 MLOAD PUSH4 0xD5595157 PUSH1 0xE0 SHL DUP2 MSTORE PUSH1 0x4 DUP2 ADD DUP6 SWAP1 MSTORE SWAP9 SWAP1 DUP8 AND DUP6 DUP11 PUSH1 0x24 DUP2 DUP5 GAS STATICCALL SWAP10 DUP11 ISZERO PUSH2 0xB5D JUMPI DUP5 SWAP11 PUSH2 0xD40 JUMPI JUMPDEST POP DUP4 SWAP10 DUP1 PUSH2 0xC62 JUMPI JUMPDEST POP POP DUP9 DUP9 GT ISZERO PUSH2 0xC2E JUMPI PUSH2 0xA14 DUP10 DUP10 PUSH2 0x1BB4 JUMP JUMPDEST SWAP6 PUSH2 0x3E8 DUP1 DUP9 MUL SWAP1 DUP9 DUP3 DIV EQ DUP9 ISZERO OR ISZERO PUSH2 0xC1A JUMPI PUSH2 0x2710 PUSH2 0xA37 SWAP2 DIV DUP1 SWAP9 PUSH2 0x1BB4 JUMP JUMPDEST SWAP8 DUP8 PUSH2 0xB68 JUMPI JUMPDEST DUP9 PUSH2 0xAAC JUMPI JUMPDEST POP POP SWAP8 PUSH32 0x1B5CD914BF77EE50DE90263F47D89967BBCE85A4EB078D958BFEE08DC0D0CDE7 SWAP3 DUP7 SWAP3 PUSH1 0x60 SWAP11 JUMPDEST DUP1 SLOAD PUSH1 0xFF NOT AND SWAP1 SSTORE SSTORE PUSH1 0x40 DUP1 MLOAD DUP10 DUP2 MSTORE PUSH1 0x20 DUP2 ADD SWAP3 SWAP1 SWAP3 MSTORE DUP2 ADD SWAP2 SWAP1 SWAP2 MSTORE PUSH1 0x60 DUP2 ADD DUP7 SWAP1 MSTORE PUSH1 0x80 SWAP1 LOG2 PUSH1 0x1 DUP1 SSTORE PUSH1 0x40 MLOAD SWAP4 DUP5 MSTORE DUP4 ADD MSTORE PUSH1 0x40 DUP3 ADD MSTORE RETURN JUMPDEST PUSH1 0x2 SLOAD SWAP2 SLOAD PUSH1 0x40 MLOAD PUSH4 0xA9059CBB PUSH1 0xE0 SHL DUP2 MSTORE SWAP1 DUP3 AND PUSH1 0x1 PUSH1 0x1 PUSH1 0xA0 SHL SUB AND PUSH1 0x4 DUP3 ADD MSTORE PUSH1 0x24 DUP2 ADD DUP11 SWAP1 MSTORE SWAP2 DUP8 SWAP2 DUP4 SWAP2 AND DUP2 DUP8 DUP2 PUSH1 0x44 DUP2 ADD SUB SWAP3 GAS CALL SWAP1 DUP2 ISZERO PUSH2 0xB5D JUMPI DUP5 SWAP2 PUSH2 0xB40 JUMPI JUMPDEST POP ISZERO PUSH2 0xB02 JUMPI DUP10 DUP1 PUSH2 0xA44 JUMP JUMPDEST PUSH1 0x40 MLOAD PUSH3 0x461BCD PUSH1 0xE5 SHL DUP2 MSTORE PUSH1 0x4 DUP2 ADD DUP7 SWAP1 MSTORE PUSH1 0x16 PUSH1 0x24 DUP3 ADD MSTORE PUSH22 0x1499599D5B99081D1C985B9CD9995C8819985A5B1959 PUSH1 0x52 SHL PUSH1 0x44 DUP3 ADD MSTORE PUSH1 0x64 SWAP1 REVERT JUMPDEST PUSH2 0xB57 SWAP2 POP DUP7 RETURNDATASIZE DUP9 GT PUSH2 0x85A JUMPI PUSH2 0x84B DUP2 DUP4 PUSH2 0x19F5 JUMP JUMPDEST DUP11 PUSH2 0xAF5 JUMP JUMPDEST PUSH1 0x40 MLOAD RETURNDATASIZE DUP7 DUP3 RETURNDATACOPY RETURNDATASIZE SWAP1 REVERT JUMPDEST PUSH1 0x2 SLOAD DUP6 SLOAD PUSH1 0x40 MLOAD PUSH4 0xA9059CBB PUSH1 0xE0 SHL DUP2 MSTORE SWAP1 DUP4 AND PUSH1 0x1 PUSH1 0x1 PUSH1 0xA0 SHL SUB AND PUSH1 0x4 DUP3 ADD MSTORE PUSH1 0x24 DUP2 ADD DUP11 SWAP1 MSTORE SWAP1 DUP9 SWAP1 DUP3 SWAP1 DUP5 AND DUP2 DUP10 DUP2 PUSH1 0x44 DUP2 ADD SUB SWAP3 GAS CALL SWAP1 DUP2 ISZERO PUSH2 0xC0F JUMPI DUP7 SWAP2 PUSH2 0xBF2 JUMPI JUMPDEST POP PUSH2 0xA3E JUMPI PUSH1 0x40 MLOAD PUSH3 0x461BCD PUSH1 0xE5 SHL DUP2 MSTORE PUSH1 0x4 DUP2 ADD DUP9 SWAP1 MSTORE PUSH1 0x13 PUSH1 0x24 DUP3 ADD MSTORE PUSH19 0x119959481D1C985B9CD9995C8819985A5B1959 PUSH1 0x6A SHL PUSH1 0x44 DUP3 ADD MSTORE PUSH1 0x64 SWAP1 REVERT JUMPDEST PUSH2 0xC09 SWAP2 POP DUP9 RETURNDATASIZE DUP11 GT PUSH2 0x85A JUMPI PUSH2 0x84B DUP2 DUP4 PUSH2 0x19F5 JUMP JUMPDEST DUP13 PUSH2 0xBB2 JUMP JUMPDEST PUSH1 0x40 MLOAD RETURNDATASIZE DUP9 DUP3 RETURNDATACOPY RETURNDATASIZE SWAP1 REVERT JUMPDEST PUSH4 0x4E487B71 PUSH1 0xE0 SHL DUP6 MSTORE PUSH1 0x11 PUSH1 0x4 MSTORE PUSH1 0x24 DUP6 REVERT JUMPDEST SWAP6 POP DUP2 SWAP5 POP PUSH1 0x60 SWAP8 PUSH32 0x1B5CD914BF77EE50DE90263F47D89967BBCE85A4EB078D958BFEE08DC0D0CDE7 SWAP3 SWAP6 DUP7 SWAP3 DUP2 SWAP9 PUSH2 0xA6F JUMP JUMPDEST SWAP2 SWAP10 POP SWAP1 DUP6 DUP2 DUP11 GT ISZERO PUSH2 0xD33 JUMPI PUSH2 0xCAC SWAP2 DUP1 SWAP4 JUMPDEST PUSH1 0x2 SLOAD PUSH1 0x40 MLOAD PUSH1 0x80 MLOAD DUP2 MSTORE PUSH1 0x1 PUSH1 0x1 PUSH1 0xA0 SHL SUB SWAP1 SWAP3 AND PUSH1 0x4 DUP4 ADD MSTORE PUSH1 0x24 DUP3 ADD SWAP3 SWAP1 SWAP3 MSTORE SWAP3 DUP4 SWAP2 DUP12 AND SWAP1 DUP3 SWAP1 DUP9 SWAP1 DUP3 SWAP1 PUSH1 0x44 DUP3 ADD SWAP1 JUMP JUMPDEST SUB SWAP3 GAS CALL DUP1 ISZERO PUSH2 0xB5D JUMPI PUSH2 0xD16 JUMPI JUMPDEST POP DUP3 PUSH1 0x40 DUP9 PUSH1 0x3 SLOAD AND PUSH1 0x44 DUP3 MLOAD DUP1 SWAP5 DUP2 SWAP4 PUSH4 0xD8AED145 PUSH1 0xE0 SHL DUP4 MSTORE DUP11 PUSH1 0x4 DUP5 ADD MSTORE DUP8 PUSH1 0x24 DUP5 ADD MSTORE GAS CALL DUP1 ISZERO PUSH2 0xB5D JUMPI PUSH2 0xCF8 JUMPI JUMPDEST POP SWAP8 DUP10 DUP1 PUSH2 0xA00 JUMP JUMPDEST PUSH2 0xD10 SWAP1 PUSH1 0x40 RETURNDATASIZE PUSH1 0x40 GT PUSH2 0x82D JUMPI PUSH2 0x818 DUP2 DUP4 PUSH2 0x19F5 JUMP JUMPDEST POP PUSH2 0xCEF JUMP JUMPDEST PUSH2 0xD2C SWAP1 DUP7 RETURNDATASIZE DUP9 GT PUSH2 0x85A JUMPI PUSH2 0x84B DUP2 DUP4 PUSH2 0x19F5 JUMP JUMPDEST POP DUP10 PUSH2 0xCBB JUMP JUMPDEST PUSH2 0xCAC SWAP2 POP DUP10 DUP1 SWAP4 PUSH2 0xC76 JUMP JUMPDEST SWAP1 SWAP10 POP DUP6 DUP2 DUP2 RETURNDATASIZE DUP4 GT PUSH2 0xD68 JUMPI JUMPDEST PUSH2 0xD58 DUP2 DUP4 PUSH2 0x19F5 JUMP JUMPDEST DUP2 ADD SUB SLT PUSH2 0x7DD JUMPI MLOAD SWAP9 DUP11 PUSH2 0x9F7 JUMP JUMPDEST POP RETURNDATASIZE PUSH2 0xD4E JUMP JUMPDEST PUSH1 0x40 MLOAD PUSH3 0x461BCD PUSH1 0xE5 SHL DUP2 MSTORE PUSH1 0x4 DUP2 ADD DUP6 SWAP1 MSTORE PUSH1 0x11 PUSH1 0x24 DUP3 ADD MSTORE PUSH17 0x139BC81E5A595B19081C9958D95A5D9959 PUSH1 0x7A SHL PUSH1 0x44 DUP3 ADD MSTORE PUSH1 0x64 SWAP1 REVERT JUMPDEST SWAP1 SWAP7 POP DUP4 DUP2 DUP2 RETURNDATASIZE DUP4 GT PUSH2 0xDD0 JUMPI JUMPDEST PUSH2 0xDC0 DUP2 DUP4 PUSH2 0x19F5 JUMP JUMPDEST DUP2 ADD SUB SLT PUSH2 0x7DD JUMPI MLOAD SWAP6 DUP9 PUSH2 0x9BF JUMP JUMPDEST POP RETURNDATASIZE PUSH2 0xDB6 JUMP JUMPDEST PUSH1 0x40 MLOAD RETURNDATASIZE DUP5 DUP3 RETURNDATACOPY RETURNDATASIZE SWAP1 REVERT JUMPDEST PUSH2 0xDF8 SWAP1 DUP4 RETURNDATASIZE DUP6 GT PUSH2 0x85A JUMPI PUSH2 0x84B DUP2 DUP4 PUSH2 0x19F5 JUMP JUMPDEST POP DUP11 PUSH2 0x96F JUMP JUMPDEST PUSH1 0x40 MLOAD RETURNDATASIZE DUP6 DUP3 RETURNDATACOPY RETURNDATASIZE SWAP1 REVERT JUMPDEST PUSH1 0x40 MLOAD PUSH3 0x461BCD PUSH1 0xE5 SHL DUP2 MSTORE PUSH1 0x4 DUP2 ADD DUP5 SWAP1 MSTORE PUSH1 0x12 PUSH1 0x24 DUP3 ADD MSTORE PUSH18 0x165A595B1915985D5B1D081B9BDD081CD95D PUSH1 0x72 SHL PUSH1 0x44 DUP3 ADD MSTORE PUSH1 0x64 SWAP1 REVERT JUMPDEST PUSH1 0x64 SWAP1 PUSH1 0x40 MLOAD SWAP1 PUSH3 0x461BCD PUSH1 0xE5 SHL DUP3 MSTORE PUSH1 0x4 DUP3 ADD MSTORE PUSH1 0x17 PUSH1 0x24 DUP3 ADD MSTORE PUSH32 0x506F736974696F6E206E6F74206C697175696461746564000000000000000000 PUSH1 0x44 DUP3 ADD MSTORE REVERT JUMPDEST DUP3 CALLVALUE PUSH2 0x17C JUMPI PUSH1 0x20 CALLDATASIZE PUSH1 0x3 NOT ADD SLT PUSH2 0x17C JUMPI PUSH1 0x20 PUSH2 0xEA7 PUSH1 0x4 CALLDATALOAD PUSH2 0x1CFD JUMP JUMPDEST PUSH1 0x40 MLOAD SWAP1 DUP2 MSTORE RETURN JUMPDEST DUP3 CALLVALUE PUSH2 0x17C JUMPI PUSH2 0xEBE CALLDATASIZE PUSH2 0x18DE JUMP JUMPDEST SWAP1 PUSH2 0xEC7 PUSH2 0x1AA8 JUMP JUMPDEST DUP1 DUP4 MSTORE PUSH1 0x20 PUSH1 0x6 DUP2 MSTORE PUSH1 0x40 DUP5 KECCAK256 PUSH1 0x7 DUP2 ADD SWAP1 DUP2 SLOAD SWAP2 PUSH2 0xEE8 PUSH1 0xFF DUP5 AND PUSH2 0x1ACB JUMP JUMPDEST DUP2 SLOAD PUSH1 0x1 PUSH1 0x1 PUSH1 0xA0 SHL SUB SWAP4 SWAP1 PUSH2 0xF01 SWAP1 DUP6 AND CALLER EQ PUSH2 0x1B0D JUMP JUMPDEST PUSH2 0xF0C DUP8 ISZERO ISZERO PUSH2 0x1981 JUMP JUMPDEST PUSH1 0x2 DUP4 ADD DUP1 SLOAD DUP1 DUP10 GT PUSH2 0x1085 JUMPI PUSH1 0x24 DUP8 DUP8 PUSH1 0x3 SLOAD AND PUSH1 0x40 MLOAD SWAP3 DUP4 DUP1 SWAP3 PUSH4 0xD5595157 PUSH1 0xE0 SHL DUP3 MSTORE DUP14 PUSH1 0x4 DUP4 ADD MSTORE GAS STATICCALL SWAP1 DUP2 ISZERO PUSH2 0x107A JUMPI DUP12 SWAP2 PUSH2 0x104D JUMPI JUMPDEST POP PUSH2 0x1008 JUMPI SWAP1 PUSH2 0xF5D DUP10 PUSH1 0x1 SWAP7 SWAP6 SWAP5 SWAP4 PUSH2 0x1BB4 JUMP JUMPDEST DUP1 SWAP2 SSTORE ISZERO PUSH2 0xFFB JUMPI JUMPDEST POP POP ADD SLOAD PUSH1 0x40 MLOAD PUSH4 0xA9059CBB PUSH1 0xE0 SHL DUP2 MSTORE CALLER PUSH1 0x4 DUP3 ADD MSTORE PUSH1 0x24 DUP2 ADD DUP7 SWAP1 MSTORE SWAP3 SWAP2 DUP3 SWAP2 DUP5 SWAP2 PUSH1 0x44 SWAP2 DUP4 SWAP2 DUP11 SWAP2 AND GAS CALL SWAP2 DUP3 ISZERO PUSH2 0x861 JUMPI PUSH32 0x7C5E5CB62E5ED3CAF3764E4B0AFEDFEDEF533E27809D43367799787AD2ABCD41 SWAP3 PUSH2 0xFCE SWAP2 DUP8 SWAP2 PUSH2 0xFDE JUMPI JUMPDEST POP PUSH2 0x1A2F JUMP JUMPDEST PUSH1 0x40 MLOAD SWAP4 DUP5 MSTORE CALLER SWAP4 LOG3 PUSH1 0x1 DUP1 SSTORE DUP1 RETURN JUMPDEST PUSH2 0xFF5 SWAP2 POP DUP4 RETURNDATASIZE DUP6 GT PUSH2 0x85A JUMPI PUSH2 0x84B DUP2 DUP4 PUSH2 0x19F5 JUMP JUMPDEST DUP8 PUSH2 0xFC8 JUMP JUMPDEST PUSH1 0xFF NOT AND SWAP1 SSTORE DUP8 DUP1 PUSH2 0xF66 JUMP JUMPDEST PUSH1 0x40 MLOAD PUSH3 0x461BCD PUSH1 0xE5 SHL DUP2 MSTORE PUSH1 0x4 DUP2 ADD DUP9 SWAP1 MSTORE PUSH1 0x1F PUSH1 0x24 DUP3 ADD MSTORE PUSH32 0x4F75747374616E64696E672064656274206D7573742062652072657061696400 PUSH1 0x44 DUP3 ADD MSTORE PUSH1 0x64 SWAP1 REVERT JUMPDEST SWAP1 POP DUP8 DUP2 DUP2 RETURNDATASIZE DUP4 GT PUSH2 0x1073 JUMPI JUMPDEST PUSH2 0x1064 DUP2 DUP4 PUSH2 0x19F5 JUMP JUMPDEST DUP2 ADD SUB SLT PUSH2 0x7DD JUMPI MLOAD DUP12 PUSH2 0xF48 JUMP JUMPDEST POP RETURNDATASIZE PUSH2 0x105A JUMP JUMPDEST PUSH1 0x40 MLOAD RETURNDATASIZE DUP14 DUP3 RETURNDATACOPY RETURNDATASIZE SWAP1 REVERT JUMPDEST PUSH1 0x40 MLOAD PUSH3 0x461BCD PUSH1 0xE5 SHL DUP2 MSTORE PUSH1 0x4 DUP2 ADD DUP9 SWAP1 MSTORE PUSH1 0x17 PUSH1 0x24 DUP3 ADD MSTORE PUSH32 0x496E73756666696369656E7420636F6C6C61746572616C000000000000000000 PUSH1 0x44 DUP3 ADD MSTORE PUSH1 0x64 SWAP1 REVERT JUMPDEST DUP3 CALLVALUE PUSH2 0x17C JUMPI DUP1 PUSH1 0x3 NOT CALLDATASIZE ADD SLT PUSH2 0x17C JUMPI PUSH1 0x20 PUSH1 0x40 MLOAD PUSH2 0x1B58 DUP2 MSTORE RETURN JUMPDEST DUP3 CALLVALUE PUSH2 0x17C JUMPI DUP1 PUSH1 0x3 NOT CALLDATASIZE ADD SLT PUSH2 0x17C JUMPI PUSH2 0x1100 PUSH2 0x1917 JUMP JUMPDEST PUSH1 0x0 DUP1 SLOAD PUSH1 0x1 PUSH1 0x1 PUSH1 0xA0 SHL SUB NOT DUP2 AND DUP3 SSTORE PUSH1 0x1 PUSH1 0x1 PUSH1 0xA0 SHL SUB AND PUSH32 0x8BE0079C531659141344CD1FD0A4F28419497F9722A3DAAFE3B4186F6B6457E0 DUP3 DUP1 LOG3 DUP1 RETURN JUMPDEST DUP3 CALLVALUE PUSH2 0x17C JUMPI PUSH1 0x20 CALLDATASIZE PUSH1 0x3 NOT ADD SLT PUSH2 0x17C JUMPI PUSH2 0x115B PUSH2 0x18C8 JUMP JUMPDEST PUSH2 0x1163 PUSH2 0x1917 JUMP JUMPDEST PUSH1 0x1 PUSH1 0x1 PUSH1 0xA0 SHL SUB AND PUSH2 0x1177 DUP2 ISZERO ISZERO PUSH2 0x1943 JUMP JUMPDEST PUSH1 0x1 PUSH1 0x1 PUSH1 0x60 SHL SUB PUSH1 0xA0 SHL PUSH1 0x5 SLOAD AND OR PUSH1 0x5 SSTORE DUP1 RETURN JUMPDEST DUP3 CALLVALUE PUSH2 0x17C JUMPI DUP1 PUSH1 0x3 NOT CALLDATASIZE ADD SLT PUSH2 0x17C JUMPI PUSH1 0x20 PUSH1 0x40 MLOAD PUSH2 0x3E8 DUP2 MSTORE RETURN JUMPDEST DUP3 CALLVALUE PUSH2 0x17C JUMPI PUSH2 0x11B9 CALLDATASIZE PUSH2 0x18DE JUMP JUMPDEST PUSH2 0x11C1 PUSH2 0x1AA8 JUMP JUMPDEST DUP2 DUP4 MSTORE PUSH1 0x20 SWAP1 PUSH1 0x6 DUP3 MSTORE PUSH1 0x40 DUP5 KECCAK256 SWAP1 PUSH1 0x7 DUP3 ADD SLOAD PUSH2 0x11E1 PUSH1 0xFF DUP3 AND PUSH2 0x1ACB JUMP JUMPDEST DUP3 SLOAD PUSH1 0x1 PUSH1 0x1 PUSH1 0xA0 SHL SUB SWAP2 PUSH1 0xFF SWAP2 PUSH2 0x11FC SWAP1 DUP5 AND CALLER EQ PUSH2 0x1B0D JUMP JUMPDEST PUSH2 0x1207 DUP5 ISZERO ISZERO PUSH2 0x1981 JUMP JUMPDEST PUSH1 0x8 SHR AND PUSH1 0x2 DUP2 LT ISZERO PUSH2 0x137E JUMPI PUSH2 0x136E JUMPI PUSH1 0x3 PUSH2 0x2710 PUSH2 0x122E PUSH2 0x1B58 JUMPDEST PUSH1 0x4 DUP8 ADD SLOAD PUSH2 0x1A7F JUMP JUMPDEST DIV SWAP4 ADD SWAP3 PUSH2 0x123D DUP4 DUP6 SLOAD PUSH2 0x1B4E JUMP JUMPDEST GT PUSH2 0x1335 JUMPI DUP6 DUP2 PUSH1 0x3 SLOAD AND DUP1 EXTCODESIZE ISZERO PUSH2 0x341 JUMPI DUP2 SWAP1 PUSH1 0x44 PUSH1 0x40 MLOAD DUP1 SWAP5 DUP2 SWAP4 PUSH4 0xECBCDAB PUSH1 0xE0 SHL DUP4 MSTORE DUP12 PUSH1 0x4 DUP5 ADD MSTORE DUP9 PUSH1 0x24 DUP5 ADD MSTORE GAS CALL DUP1 ISZERO PUSH2 0x7E9 JUMPI PUSH2 0x1305 JUMPI JUMPDEST POP PUSH2 0x1289 DUP3 DUP5 SLOAD PUSH2 0x1B4E JUMP JUMPDEST DUP4 SSTORE PUSH1 0x2 SLOAD PUSH1 0x40 MLOAD PUSH4 0xA9059CBB PUSH1 0xE0 SHL DUP2 MSTORE CALLER PUSH1 0x4 DUP3 ADD MSTORE PUSH1 0x24 DUP2 ADD DUP5 SWAP1 MSTORE SWAP5 SWAP2 DUP3 SWAP2 DUP7 SWAP2 PUSH1 0x44 SWAP2 DUP4 SWAP2 DUP12 SWAP2 AND GAS CALL SWAP3 DUP4 ISZERO PUSH2 0xC0F JUMPI PUSH2 0x12F3 PUSH1 0x40 SWAP5 PUSH32 0x902160BBFEE2201AA09B6B057B6F0B7D0F633B2BDEFC04E987882DF4AEFD29C SWAP7 DUP10 SWAP2 PUSH2 0x86C JUMPI POP PUSH2 0x1B5B JUMP JUMPDEST SLOAD SWAP1 DUP4 MLOAD SWAP3 DUP4 MSTORE DUP3 ADD MSTORE LOG2 PUSH1 0x1 DUP1 SSTORE DUP1 RETURN JUMPDEST PUSH8 0xFFFFFFFFFFFFFFFF DUP2 SWAP8 SWAP3 SWAP8 GT PUSH2 0x1321 JUMPI PUSH1 0x40 MSTORE SWAP5 DUP7 PUSH2 0x127D JUMP JUMPDEST PUSH4 0x4E487B71 PUSH1 0xE0 SHL DUP3 MSTORE PUSH1 0x41 PUSH1 0x4 MSTORE PUSH1 0x24 DUP3 REVERT JUMPDEST PUSH1 0x40 MLOAD PUSH3 0x461BCD PUSH1 0xE5 SHL DUP2 MSTORE PUSH1 0x4 DUP2 ADD DUP6 SWAP1 MSTORE PUSH1 0x11 PUSH1 0x24 DUP3 ADD MSTORE PUSH17 0x115E18D959591CC8131515881B1A5B5A5D PUSH1 0x7A SHL PUSH1 0x44 DUP3 ADD MSTORE PUSH1 0x64 SWAP1 REVERT JUMPDEST PUSH1 0x3 PUSH2 0x2710 PUSH2 0x122E PUSH2 0x1770 PUSH2 0x1224 JUMP JUMPDEST PUSH4 0x4E487B71 PUSH1 0xE0 SHL DUP8 MSTORE PUSH1 0x21 PUSH1 0x4 MSTORE PUSH1 0x24 DUP8 REVERT JUMPDEST DUP3 CALLVALUE PUSH2 0x17C JUMPI DUP1 PUSH1 0x3 NOT CALLDATASIZE ADD SLT PUSH2 0x17C JUMPI PUSH1 0x2 SLOAD PUSH1 0x40 MLOAD PUSH1 0x1 PUSH1 0x1 PUSH1 0xA0 SHL SUB SWAP1 SWAP2 AND DUP2 MSTORE PUSH1 0x20 SWAP1 RETURN JUMPDEST DUP3 CALLVALUE PUSH2 0x17C JUMPI DUP1 PUSH1 0x3 NOT CALLDATASIZE ADD SLT PUSH2 0x17C JUMPI PUSH1 0x5 SLOAD PUSH1 0x40 MLOAD PUSH1 0x1 PUSH1 0x1 PUSH1 0xA0 SHL SUB SWAP1 SWAP2 AND DUP2 MSTORE PUSH1 0x20 SWAP1 RETURN JUMPDEST DUP3 CALLVALUE PUSH2 0x17C JUMPI DUP1 PUSH1 0x3 NOT CALLDATASIZE ADD SLT PUSH2 0x17C JUMPI PUSH1 0x4 SLOAD PUSH1 0x40 MLOAD PUSH1 0x1 PUSH1 0x1 PUSH1 0xA0 SHL SUB SWAP1 SWAP2 AND DUP2 MSTORE PUSH1 0x20 SWAP1 RETURN JUMPDEST DUP3 CALLVALUE PUSH2 0x17C JUMPI PUSH1 0x20 CALLDATASIZE PUSH1 0x3 NOT ADD SLT PUSH2 0x17C JUMPI PUSH1 0x20 PUSH2 0xEA7 PUSH1 0x4 CALLDATALOAD PUSH2 0x1BC1 JUMP JUMPDEST DUP3 CALLVALUE PUSH2 0x17C JUMPI PUSH1 0x20 CALLDATASIZE PUSH1 0x3 NOT ADD SLT PUSH2 0x17C JUMPI PUSH1 0xFF PUSH1 0x40 PUSH1 0x20 SWAP3 PUSH1 0x4 CALLDATALOAD DUP2 MSTORE PUSH1 0x8 DUP5 MSTORE KECCAK256 SLOAD AND PUSH1 0x40 MLOAD SWAP1 ISZERO ISZERO DUP2 MSTORE RETURN JUMPDEST DUP3 CALLVALUE PUSH2 0x17C JUMPI PUSH1 0x20 CALLDATASIZE PUSH1 0x3 NOT ADD SLT PUSH2 0x17C JUMPI PUSH2 0x1475 PUSH2 0x18C8 JUMP JUMPDEST PUSH2 0x147D PUSH2 0x1917 JUMP JUMPDEST PUSH1 0x1 PUSH1 0x1 PUSH1 0xA0 SHL SUB AND PUSH2 0x1491 DUP2 ISZERO ISZERO PUSH2 0x1943 JUMP JUMPDEST PUSH1 0x1 PUSH1 0x1 PUSH1 0x60 SHL SUB PUSH1 0xA0 SHL PUSH1 0x9 SLOAD AND OR PUSH1 0x9 SSTORE DUP1 RETURN JUMPDEST SWAP1 POP CALLVALUE PUSH2 0x341 JUMPI PUSH1 0xA0 CALLDATASIZE PUSH1 0x3 NOT ADD SLT PUSH2 0x341 JUMPI PUSH2 0x14C2 PUSH2 0x18C8 JUMP JUMPDEST SWAP2 PUSH1 0x2 PUSH1 0x64 CALLDATALOAD LT ISZERO PUSH2 0x17C JUMPI PUSH1 0x84 CALLDATALOAD ISZERO ISZERO PUSH1 0x84 CALLDATALOAD SUB PUSH2 0x17C JUMPI PUSH2 0x14E3 PUSH2 0x1AA8 JUMP JUMPDEST PUSH1 0x1 PUSH1 0x1 PUSH1 0xA0 SHL SUB DUP4 AND ISZERO PUSH2 0x1893 JUMPI PUSH2 0x14FF PUSH1 0x24 CALLDATALOAD ISZERO ISZERO PUSH2 0x1981 JUMP JUMPDEST PUSH1 0x44 CALLDATALOAD ISZERO PUSH2 0x1856 JUMPI PUSH1 0x40 MLOAD PUSH4 0x23B872DD PUSH1 0xE0 SHL DUP2 MSTORE CALLER PUSH1 0x4 DUP3 ADD MSTORE ADDRESS PUSH1 0x24 DUP1 DUP4 ADD SWAP2 SWAP1 SWAP2 MSTORE CALLDATALOAD PUSH1 0x44 DUP3 ADD MSTORE PUSH1 0x20 DUP2 PUSH1 0x64 DUP2 DUP6 PUSH1 0x1 PUSH1 0x1 PUSH1 0xA0 SHL SUB DUP10 AND GAS CALL SWAP1 DUP2 ISZERO PUSH2 0xDD7 JUMPI SWAP1 PUSH2 0x1555 SWAP2 DUP4 SWAP2 PUSH2 0x1837 JUMPI POP PUSH2 0x1A2F JUMP JUMPDEST PUSH1 0x7 SLOAD SWAP2 PUSH1 0x0 NOT DUP4 EQ PUSH2 0x1823 JUMPI PUSH1 0x1 DUP4 ADD PUSH1 0x7 SSTORE PUSH1 0x40 MLOAD PUSH2 0x1575 DUP2 PUSH2 0x19C2 JUMP JUMPDEST CALLER DUP2 MSTORE PUSH1 0x1 PUSH1 0x1 PUSH1 0xA0 SHL SUB DUP6 AND PUSH1 0x20 DUP3 ADD MSTORE PUSH1 0x24 CALLDATALOAD PUSH1 0x40 DUP3 ADD MSTORE PUSH1 0x60 DUP2 ADD DUP4 SWAP1 MSTORE PUSH1 0x44 CALLDATALOAD PUSH1 0x80 DUP3 ADD MSTORE TIMESTAMP PUSH1 0xA0 DUP3 ADD MSTORE PUSH1 0xC0 DUP2 ADD DUP4 SWAP1 MSTORE PUSH1 0x1 DUP3 DUP3 ADD MSTORE PUSH2 0x15C1 PUSH1 0x64 CALLDATALOAD PUSH2 0x100 DUP4 ADD PUSH2 0x1A73 JUMP JUMPDEST DUP4 DUP4 MSTORE PUSH1 0x6 PUSH1 0x20 MSTORE PUSH1 0x7 PUSH1 0x40 DUP5 KECCAK256 PUSH1 0x1 DUP1 PUSH1 0xA0 SHL SUB DUP4 MLOAD AND PUSH1 0x1 PUSH1 0x1 PUSH1 0x60 SHL SUB PUSH1 0xA0 SHL SWAP1 DUP2 DUP4 SLOAD AND OR DUP3 SSTORE PUSH1 0x1 DUP3 ADD SWAP1 PUSH1 0x1 DUP1 PUSH1 0xA0 SHL SUB PUSH1 0x20 DUP7 ADD MLOAD AND SWAP1 DUP3 SLOAD AND OR SWAP1 SSTORE PUSH1 0x40 DUP4 ADD MLOAD PUSH1 0x2 DUP3 ADD SSTORE PUSH1 0x60 DUP4 ADD MLOAD PUSH1 0x3 DUP3 ADD SSTORE PUSH1 0x80 DUP4 ADD MLOAD PUSH1 0x4 DUP3 ADD SSTORE PUSH1 0xA0 DUP4 ADD MLOAD PUSH1 0x5 DUP3 ADD SSTORE PUSH1 0xC0 DUP4 ADD MLOAD PUSH1 0x6 DUP3 ADD SSTORE ADD SWAP2 DUP2 ADD MLOAD ISZERO ISZERO SWAP1 PUSH2 0x100 DUP4 SLOAD SWAP2 ADD MLOAD PUSH1 0x2 DUP2 LT ISZERO PUSH2 0x180F JUMPI PUSH2 0xFF00 PUSH1 0xFF SWAP2 PUSH1 0x8 SHL AND SWAP3 AND SWAP1 PUSH2 0xFFFF NOT AND OR OR SWAP1 SSTORE PUSH1 0x40 MLOAD PUSH1 0x1 DUP1 PUSH1 0xA0 SHL SUB DUP5 AND DUP2 MSTORE PUSH1 0x24 CALLDATALOAD PUSH1 0x20 DUP3 ADD MSTORE PUSH1 0x44 CALLDATALOAD PUSH1 0x40 DUP3 ADD MSTORE PUSH2 0x1693 PUSH1 0x60 DUP3 ADD PUSH1 0x64 CALLDATALOAD PUSH2 0x18F4 JUMP JUMPDEST DUP3 PUSH32 0x93CB2591720FA23E5A51A39BF9D35B6A4E5CB6C11BEAE435C41E4482F3A30D21 PUSH1 0x80 CALLER SWAP4 LOG3 PUSH1 0x84 CALLDATALOAD DUP1 PUSH2 0x17FB JUMPI JUMPDEST PUSH2 0x16D7 JUMPI JUMPDEST PUSH1 0x20 DUP3 PUSH1 0x1 DUP1 SSTORE PUSH1 0x40 MLOAD SWAP1 DUP2 MSTORE RETURN JUMPDEST PUSH1 0x64 CALLDATALOAD PUSH2 0x17EA JUMPI DUP1 PUSH1 0x20 PUSH2 0x2710 PUSH2 0x16F3 PUSH2 0x1B58 JUMPDEST PUSH1 0x44 CALLDATALOAD PUSH2 0x1A7F JUMP JUMPDEST DIV SWAP5 PUSH1 0xA4 PUSH1 0x1 DUP1 PUSH1 0xA0 SHL SUB PUSH1 0x5 SLOAD AND SWAP2 PUSH1 0x40 MLOAD SWAP5 DUP6 SWAP4 DUP5 SWAP3 PUSH4 0x7190CAEB PUSH1 0xE1 SHL DUP5 MSTORE CALLER PUSH1 0x4 DUP6 ADD MSTORE PUSH1 0x1 DUP1 PUSH1 0xA0 SHL SUB AND PUSH1 0x24 DUP5 ADD MSTORE PUSH1 0x24 CALLDATALOAD PUSH1 0x44 DUP5 ADD MSTORE PUSH1 0x44 CALLDATALOAD PUSH1 0x64 DUP5 ADD MSTORE DUP9 PUSH1 0x84 DUP5 ADD MSTORE GAS CALL SWAP2 DUP3 ISZERO PUSH2 0x17DE JUMPI DUP1 SWAP3 PUSH2 0x1788 JUMPI JUMPDEST POP POP PUSH32 0xF71BF80FA0A269E5FDBE7113CC01A1ADA492208F97E2857213258755D0CBBB5E PUSH1 0x40 DUP4 SWAP3 PUSH1 0x20 SWAP6 DUP3 MLOAD SWAP2 DUP3 MSTORE DUP7 DUP3 ADD MSTORE LOG2 CODESIZE PUSH2 0x16C8 JUMP JUMPDEST SWAP1 SWAP2 POP PUSH1 0x20 DUP3 RETURNDATASIZE PUSH1 0x20 GT PUSH2 0x17D6 JUMPI JUMPDEST DUP2 PUSH2 0x17A4 PUSH1 0x20 SWAP4 DUP4 PUSH2 0x19F5 JUMP JUMPDEST DUP2 ADD SUB SLT PUSH2 0x17C JUMPI POP MLOAD PUSH32 0xF71BF80FA0A269E5FDBE7113CC01A1ADA492208F97E2857213258755D0CBBB5E PUSH1 0x40 PUSH2 0x174E JUMP JUMPDEST RETURNDATASIZE SWAP2 POP PUSH2 0x1797 JUMP JUMPDEST PUSH1 0x40 MLOAD SWAP1 RETURNDATASIZE SWAP1 DUP3 RETURNDATACOPY RETURNDATASIZE SWAP1 REVERT JUMPDEST DUP1 PUSH1 0x20 PUSH2 0x2710 PUSH2 0x16F3 PUSH2 0x1770 PUSH2 0x16EB JUMP JUMPDEST POP PUSH1 0x5 SLOAD PUSH1 0x1 PUSH1 0x1 PUSH1 0xA0 SHL SUB AND ISZERO ISZERO PUSH2 0x16C3 JUMP JUMPDEST PUSH4 0x4E487B71 PUSH1 0xE0 SHL DUP6 MSTORE PUSH1 0x21 PUSH1 0x4 MSTORE PUSH1 0x24 DUP6 REVERT JUMPDEST PUSH4 0x4E487B71 PUSH1 0xE0 SHL DUP3 MSTORE PUSH1 0x11 PUSH1 0x4 MSTORE PUSH1 0x24 DUP3 REVERT JUMPDEST PUSH2 0x1850 SWAP2 POP PUSH1 0x20 RETURNDATASIZE PUSH1 0x20 GT PUSH2 0x85A JUMPI PUSH2 0x84B DUP2 DUP4 PUSH2 0x19F5 JUMP JUMPDEST CODESIZE PUSH2 0xFC8 JUMP JUMPDEST PUSH1 0x40 MLOAD PUSH3 0x461BCD PUSH1 0xE5 SHL DUP2 MSTORE PUSH1 0x20 PUSH1 0x4 DUP3 ADD MSTORE PUSH1 0x15 PUSH1 0x24 DUP3 ADD MSTORE PUSH21 0x56616C756174696F6E206D757374206265203E203 PUSH1 0x5C SHL PUSH1 0x44 DUP3 ADD MSTORE PUSH1 0x64 SWAP1 REVERT JUMPDEST PUSH1 0x40 MLOAD PUSH3 0x461BCD PUSH1 0xE5 SHL DUP2 MSTORE PUSH1 0x20 PUSH1 0x4 DUP3 ADD MSTORE PUSH1 0xD PUSH1 0x24 DUP3 ADD MSTORE PUSH13 0x24B73B30B634B2103A37B5B2B7 PUSH1 0x99 SHL PUSH1 0x44 DUP3 ADD MSTORE PUSH1 0x64 SWAP1 REVERT JUMPDEST PUSH1 0x4 CALLDATALOAD SWAP1 PUSH1 0x1 PUSH1 0x1 PUSH1 0xA0 SHL SUB DUP3 AND DUP3 SUB PUSH2 0x7DD JUMPI JUMP JUMPDEST PUSH1 0x40 SWAP1 PUSH1 0x3 NOT ADD SLT PUSH2 0x7DD JUMPI PUSH1 0x4 CALLDATALOAD SWAP1 PUSH1 0x24 CALLDATALOAD SWAP1 JUMP JUMPDEST SWAP1 PUSH1 0x2 DUP3 LT ISZERO PUSH2 0x1901 JUMPI MSTORE JUMP JUMPDEST PUSH4 0x4E487B71 PUSH1 0xE0 SHL PUSH1 0x0 MSTORE PUSH1 0x21 PUSH1 0x4 MSTORE PUSH1 0x24 PUSH1 0x0 REVERT JUMPDEST PUSH1 0x0 SLOAD PUSH1 0x1 PUSH1 0x1 PUSH1 0xA0 SHL SUB AND CALLER SUB PUSH2 0x192B JUMPI JUMP JUMPDEST PUSH1 0x40 MLOAD PUSH4 0x118CDAA7 PUSH1 0xE0 SHL DUP2 MSTORE CALLER PUSH1 0x4 DUP3 ADD MSTORE PUSH1 0x24 SWAP1 REVERT JUMPDEST ISZERO PUSH2 0x194A JUMPI JUMP JUMPDEST PUSH1 0x40 MLOAD PUSH3 0x461BCD PUSH1 0xE5 SHL DUP2 MSTORE PUSH1 0x20 PUSH1 0x4 DUP3 ADD MSTORE PUSH1 0xF PUSH1 0x24 DUP3 ADD MSTORE PUSH15 0x496E76616C69642061646472657373 PUSH1 0x88 SHL PUSH1 0x44 DUP3 ADD MSTORE PUSH1 0x64 SWAP1 REVERT JUMPDEST ISZERO PUSH2 0x1988 JUMPI JUMP JUMPDEST PUSH1 0x40 MLOAD PUSH3 0x461BCD PUSH1 0xE5 SHL DUP2 MSTORE PUSH1 0x20 PUSH1 0x4 DUP3 ADD MSTORE PUSH1 0x12 PUSH1 0x24 DUP3 ADD MSTORE PUSH18 0x416D6F756E74206D757374206265203E203 PUSH1 0x74 SHL PUSH1 0x44 DUP3 ADD MSTORE PUSH1 0x64 SWAP1 REVERT JUMPDEST PUSH2 0x120 DUP2 ADD SWAP1 DUP2 LT PUSH8 0xFFFFFFFFFFFFFFFF DUP3 GT OR PUSH2 0x19DF JUMPI PUSH1 0x40 MSTORE JUMP JUMPDEST PUSH4 0x4E487B71 PUSH1 0xE0 SHL PUSH1 0x0 MSTORE PUSH1 0x41 PUSH1 0x4 MSTORE PUSH1 0x24 PUSH1 0x0 REVERT JUMPDEST SWAP1 PUSH1 0x1F DUP1 NOT SWAP2 ADD AND DUP2 ADD SWAP1 DUP2 LT PUSH8 0xFFFFFFFFFFFFFFFF DUP3 GT OR PUSH2 0x19DF JUMPI PUSH1 0x40 MSTORE JUMP JUMPDEST SWAP1 DUP2 PUSH1 0x20 SWAP2 SUB SLT PUSH2 0x7DD JUMPI MLOAD DUP1 ISZERO ISZERO DUP2 SUB PUSH2 0x7DD JUMPI SWAP1 JUMP JUMPDEST ISZERO PUSH2 0x1A36 JUMPI JUMP JUMPDEST PUSH1 0x40 MLOAD PUSH3 0x461BCD PUSH1 0xE5 SHL DUP2 MSTORE PUSH1 0x20 PUSH1 0x4 DUP3 ADD MSTORE PUSH1 0x15 PUSH1 0x24 DUP3 ADD MSTORE PUSH21 0x151BDAD95B881D1C985B9CD9995C8819985A5B1959 PUSH1 0x5A SHL PUSH1 0x44 DUP3 ADD MSTORE PUSH1 0x64 SWAP1 REVERT JUMPDEST PUSH1 0x2 DUP3 LT ISZERO PUSH2 0x1901 JUMPI MSTORE JUMP JUMPDEST DUP2 DUP2 MUL SWAP3 SWAP2 DUP2 ISZERO SWAP2 DUP5 DIV EQ OR ISZERO PUSH2 0x1A92 JUMPI JUMP JUMPDEST PUSH4 0x4E487B71 PUSH1 0xE0 SHL PUSH1 0x0 MSTORE PUSH1 0x11 PUSH1 0x4 MSTORE PUSH1 0x24 PUSH1 0x0 REVERT JUMPDEST PUSH1 0x2 PUSH1 0x1 SLOAD EQ PUSH2 0x1AB9 JUMPI PUSH1 0x2 PUSH1 0x1 SSTORE JUMP JUMPDEST PUSH1 0x40 MLOAD PUSH4 0x3EE5AEB5 PUSH1 0xE0 SHL DUP2 MSTORE PUSH1 0x4 SWAP1 REVERT JUMPDEST ISZERO PUSH2 0x1AD2 JUMPI JUMP JUMPDEST PUSH1 0x40 MLOAD PUSH3 0x461BCD PUSH1 0xE5 SHL DUP2 MSTORE PUSH1 0x20 PUSH1 0x4 DUP3 ADD MSTORE PUSH1 0x13 PUSH1 0x24 DUP3 ADD MSTORE PUSH19 0x506F736974696F6E206E6F7420616374697665 PUSH1 0x68 SHL PUSH1 0x44 DUP3 ADD MSTORE PUSH1 0x64 SWAP1 REVERT JUMPDEST ISZERO PUSH2 0x1B14 JUMPI JUMP JUMPDEST PUSH1 0x40 MLOAD PUSH3 0x461BCD PUSH1 0xE5 SHL DUP2 MSTORE PUSH1 0x20 PUSH1 0x4 DUP3 ADD MSTORE PUSH1 0x12 PUSH1 0x24 DUP3 ADD MSTORE PUSH18 0x2737BA103837B9B4BA34B7B71037BBB732B9 PUSH1 0x71 SHL PUSH1 0x44 DUP3 ADD MSTORE PUSH1 0x64 SWAP1 REVERT JUMPDEST SWAP2 SWAP1 DUP3 ADD DUP1 SWAP3 GT PUSH2 0x1A92 JUMPI JUMP JUMPDEST ISZERO PUSH2 0x1B62 JUMPI JUMP JUMPDEST PUSH1 0x40 MLOAD PUSH3 0x461BCD PUSH1 0xE5 SHL DUP2 MSTORE PUSH1 0x20 PUSH1 0x4 DUP3 ADD MSTORE PUSH1 0x14 PUSH1 0x24 DUP3 ADD MSTORE PUSH20 0x1554D110C81D1C985B9CD9995C8819985A5B1959 PUSH1 0x62 SHL PUSH1 0x44 DUP3 ADD MSTORE PUSH1 0x64 SWAP1 REVERT JUMPDEST SWAP2 SWAP1 DUP3 PUSH1 0x40 SWAP2 SUB SLT PUSH2 0x7DD JUMPI PUSH1 0x20 DUP3 MLOAD SWAP3 ADD MLOAD SWAP1 JUMP JUMPDEST SWAP2 SWAP1 DUP3 SUB SWAP2 DUP3 GT PUSH2 0x1A92 JUMPI JUMP JUMPDEST PUSH1 0x0 DUP2 DUP2 MSTORE PUSH1 0x20 SWAP2 PUSH1 0x6 DUP4 MSTORE PUSH1 0x40 DUP3 KECCAK256 SWAP1 PUSH1 0x40 MLOAD PUSH2 0x1BDE DUP2 PUSH2 0x19C2 JUMP JUMPDEST PUSH1 0x1 DUP1 PUSH1 0xA0 SHL SUB SWAP1 DUP2 DUP5 SLOAD AND DUP2 MSTORE DUP2 PUSH1 0x1 DUP6 ADD SLOAD AND DUP7 DUP3 ADD MSTORE PUSH1 0x2 DUP5 ADD SLOAD PUSH1 0x40 DUP3 ADD MSTORE PUSH1 0x3 DUP5 ADD SLOAD PUSH1 0x60 DUP3 ADD MSTORE PUSH2 0x1C50 PUSH1 0x7 PUSH1 0x4 DUP7 ADD SLOAD SWAP6 PUSH1 0x80 DUP5 ADD SWAP7 DUP8 MSTORE PUSH1 0x5 DUP2 ADD SLOAD PUSH1 0xA0 DUP6 ADD MSTORE PUSH1 0x6 DUP2 ADD SLOAD PUSH1 0xC0 DUP6 ADD MSTORE ADD SLOAD SWAP2 PUSH2 0x100 PUSH1 0xFF PUSH1 0xE0 DUP4 ADD SWAP5 DUP2 DUP2 AND ISZERO ISZERO DUP7 MSTORE PUSH1 0x8 SHR AND SWAP2 ADD PUSH2 0x1A73 JUMP JUMPDEST MLOAD ISZERO PUSH2 0x1CF5 JUMPI DUP5 SWAP1 PUSH1 0x3 SLOAD AND SWAP2 PUSH1 0x24 PUSH1 0x40 MLOAD DUP1 SWAP5 DUP2 SWAP4 PUSH4 0xD5595157 PUSH1 0xE0 SHL DUP4 MSTORE PUSH1 0x4 DUP4 ADD MSTORE GAS STATICCALL SWAP4 DUP5 ISZERO PUSH2 0xDFF JUMPI DUP4 SWAP5 PUSH2 0x1CC5 JUMPI JUMPDEST POP POP DUP3 ISZERO PUSH2 0x1CBC JUMPI MLOAD SWAP1 PUSH2 0x2710 SWAP2 DUP3 DUP2 MUL SWAP3 DUP2 DUP5 DIV EQ SWAP1 ISZERO OR ISZERO PUSH2 0x1CA8 JUMPI POP DIV SWAP1 JUMP JUMPDEST PUSH4 0x4E487B71 PUSH1 0xE0 SHL DUP2 MSTORE PUSH1 0x11 PUSH1 0x4 MSTORE PUSH1 0x24 SWAP1 REVERT JUMPDEST POP POP POP PUSH1 0x0 NOT SWAP1 JUMP JUMPDEST SWAP1 DUP1 SWAP3 SWAP5 POP DUP2 RETURNDATASIZE DUP4 GT PUSH2 0x1CEE JUMPI JUMPDEST PUSH2 0x1CDD DUP2 DUP4 PUSH2 0x19F5 JUMP JUMPDEST DUP2 ADD SUB SLT PUSH2 0x341 JUMPI MLOAD SWAP2 CODESIZE DUP1 PUSH2 0x1C85 JUMP JUMPDEST POP RETURNDATASIZE PUSH2 0x1CD3 JUMP JUMPDEST POP POP POP SWAP1 POP SWAP1 JUMP JUMPDEST PUSH1 0x0 SWAP1 DUP1 DUP3 MSTORE PUSH1 0x20 SWAP1 PUSH1 0x6 DUP3 MSTORE PUSH1 0x40 DUP4 KECCAK256 SWAP1 PUSH1 0x40 MLOAD SWAP2 PUSH2 0x1D1C DUP4 PUSH2 0x19C2 JUMP JUMPDEST PUSH1 0x1 DUP1 PUSH1 0xA0 SHL SUB SWAP3 DUP4 DUP3 SLOAD AND DUP2 MSTORE DUP4 PUSH1 0x1 DUP4 ADD SLOAD AND DUP6 DUP3 ADD MSTORE PUSH1 0x2 DUP3 ADD SLOAD PUSH1 0x40 DUP3 ADD MSTORE PUSH1 0x3 DUP3 ADD SLOAD PUSH1 0x60 DUP3 ADD MSTORE PUSH1 0x7 PUSH1 0x4 DUP4 ADD SLOAD SWAP3 PUSH1 0x80 DUP4 ADD SWAP4 DUP5 MSTORE PUSH1 0x5 DUP2 ADD SLOAD PUSH1 0xA0 DUP5 ADD MSTORE PUSH1 0x6 DUP2 ADD SLOAD PUSH1 0xC0 DUP5 ADD MSTORE ADD SLOAD SWAP1 PUSH2 0x1D8F PUSH1 0xFF PUSH2 0x100 PUSH1 0xE0 DUP5 ADD SWAP4 DUP3 DUP7 AND ISZERO ISZERO DUP6 MSTORE ADD SWAP4 PUSH1 0x8 SHR AND DUP4 PUSH2 0x1A73 JUMP JUMPDEST MLOAD ISZERO PUSH2 0x1E57 JUMPI MLOAD PUSH1 0x2 DUP2 LT ISZERO PUSH2 0x1E43 JUMPI PUSH2 0x1DBB DUP6 SWAP3 PUSH2 0x2710 SWAP3 ISZERO PUSH1 0x0 EQ PUSH2 0x1E3A JUMPI PUSH2 0x1B58 SWAP1 JUMPDEST MLOAD PUSH2 0x1A7F JUMP JUMPDEST DIV SWAP3 PUSH1 0x3 SLOAD AND SWAP2 PUSH1 0x24 PUSH1 0x40 MLOAD DUP1 SWAP5 DUP2 SWAP4 PUSH4 0xD5595157 PUSH1 0xE0 SHL DUP4 MSTORE PUSH1 0x4 DUP4 ADD MSTORE GAS STATICCALL SWAP3 DUP4 ISZERO PUSH2 0xB5D JUMPI DUP5 SWAP4 PUSH2 0x1E06 JUMPI JUMPDEST POP POP DUP2 DUP2 GT ISZERO PUSH2 0x1E01 JUMPI PUSH2 0x1DFE SWAP3 POP PUSH2 0x1BB4 JUMP JUMPDEST SWAP1 JUMP JUMPDEST POP POP SWAP1 JUMP JUMPDEST SWAP1 DUP1 SWAP3 SWAP4 POP DUP2 RETURNDATASIZE DUP4 GT PUSH2 0x1E33 JUMPI JUMPDEST PUSH2 0x1E1E DUP2 DUP4 PUSH2 0x19F5 JUMP JUMPDEST DUP2 ADD SUB SLT PUSH2 0x1E2F JUMPI MLOAD SWAP1 CODESIZE DUP1 PUSH2 0x1DEA JUMP JUMPDEST DUP3 DUP1 REVERT JUMPDEST POP RETURNDATASIZE PUSH2 0x1E14 JUMP JUMPDEST PUSH2 0x1770 SWAP1 PUSH2 0x1DB5 JUMP JUMPDEST PUSH4 0x4E487B71 PUSH1 0xE0 SHL DUP7 MSTORE PUSH1 0x21 PUSH1 0x4 MSTORE PUSH1 0x24 DUP7 REVERT JUMPDEST POP POP POP POP POP SWAP1 JUMP INVALID LOG2 PUSH5 0x6970667358 0x22 SLT KECCAK256 SHL 0xA5 DUP15 0x4E PUSH0 SIGNEXTEND CALLDATALOAD 0x24 ADD 0xC4 ADDMOD SUB KECCAK256 0xE2 0xD0 EQ DUP13 0xC4 0xB2 0xF6 DUP13 BALANCE DIV 0xCC 0xCE POP DUP14 0xAD SWAP12 SWAP5 SWAP7 GT PUSH5 0x736F6C6343 STOP ADDMOD EQ STOP CALLER "},"methodIdentifiers":{"BASIS_POINTS()":"e1f1c4a7","LIQUIDATION_FEE_BPS()":"518e8dfc","LIQUIDATION_THRESHOLD()":"90a8ae9b","PRIVATE_ASSET_LTV()":"d79873b9","RWA_LTV()":"761c5f0a","borrowUSDC(uint256,uint256)":"47f6c760","depositCollateral(address,uint256,uint256,uint8,bool)":"0bae9ef9","getHealthFactor(uint256)":"17845c69","getMaxBorrow(uint256)":"7b5210d8","getPosition(uint256)":"eb02c301","liquidatePosition(uint256)":"cdddd4e5","nextPositionId()":"899346c7","oaid()":"2be04392","owner()":"8da5cb5b","positions(uint256)":"99fbab88","positionsInLiquidation(uint256)":"16ef1729","primaryMarket()":"1e77ceda","renounceOwnership()":"715018a6","repayLoan(uint256,uint256)":"8a700b53","seniorPool()":"f416fc1c","setOAID(address)":"6c320cb0","setPrimaryMarket(address)":"e2dc3666","setYieldVault(address)":"137c3f69","settleLiquidation(uint256)":"837c2a61","transferOwnership(address)":"f2fde38b","usdc()":"3e413bee","withdrawCollateral(uint256,uint256)":"767a7b05","yieldVault()":"a7f8a5e2"}}}}}