{"contracts/core/SolvencyVault.sol":{"SolvencyVault":{"abi":[{"inputs":[{"internalType":"address","name":"_usdc","type":"address"},{"internalType":"address","name":"_seniorPool","type":"address"}],"stateMutability":"nonpayable","type":"constructor"},{"inputs":[{"internalType":"address","name":"owner","type":"address"}],"name":"OwnableInvalidOwner","type":"error"},{"inputs":[{"internalType":"address","name":"account","type":"address"}],"name":"OwnableUnauthorizedAccount","type":"error"},{"inputs":[],"name":"ReentrancyGuardReentrantCall","type":"error"},{"anonymous":false,"inputs":[{"indexed":true,"internalType":"uint256","name":"positionId","type":"uint256"},{"indexed":true,"internalType":"address","name":"user","type":"address"},{"indexed":false,"internalType":"uint256","name":"amount","type":"uint256"}],"name":"CollateralWithdrawn","type":"event"},{"anonymous":false,"inputs":[{"indexed":true,"internalType":"uint256","name":"positionId","type":"uint256"},{"indexed":true,"internalType":"uint256","name":"creditLineId","type":"uint256"},{"indexed":false,"internalType":"string","name":"reason","type":"string"}],"name":"CreditLineRevoked","type":"event"},{"anonymous":false,"inputs":[{"indexed":true,"internalType":"uint256","name":"positionId","type":"uint256"},{"indexed":false,"internalType":"uint256","name":"yieldReceived","type":"uint256"},{"indexed":false,"internalType":"uint256","name":"debtRepaid","type":"uint256"},{"indexed":false,"internalType":"uint256","name":"liquidationFee","type":"uint256"},{"indexed":false,"internalType":"uint256","name":"userRefund","type":"uint256"}],"name":"LiquidationSettled","type":"event"},{"anonymous":false,"inputs":[{"indexed":true,"internalType":"uint256","name":"positionId","type":"uint256"},{"indexed":false,"internalType":"uint256","name":"amount","type":"uint256"},{"indexed":false,"internalType":"uint256","name":"principal","type":"uint256"},{"indexed":false,"internalType":"uint256","name":"interest","type":"uint256"},{"indexed":false,"internalType":"uint256","name":"remainingDebt","type":"uint256"}],"name":"LoanRepaid","type":"event"},{"anonymous":false,"inputs":[{"indexed":true,"internalType":"uint256","name":"positionId","type":"uint256"},{"indexed":false,"internalType":"uint256","name":"missedPayments","type":"uint256"}],"name":"MissedPaymentMarked","type":"event"},{"anonymous":false,"inputs":[{"indexed":true,"internalType":"uint256","name":"positionId","type":"uint256"},{"indexed":false,"internalType":"uint256","name":"creditLineId","type":"uint256"},{"indexed":false,"internalType":"uint256","name":"creditLimit","type":"uint256"}],"name":"OAIDCreditIssued","type":"event"},{"anonymous":false,"inputs":[{"indexed":true,"internalType":"address","name":"previousOwner","type":"address"},{"indexed":true,"internalType":"address","name":"newOwner","type":"address"}],"name":"OwnershipTransferred","type":"event"},{"anonymous":false,"inputs":[{"indexed":true,"internalType":"uint256","name":"positionId","type":"uint256"},{"indexed":true,"internalType":"address","name":"user","type":"address"},{"indexed":false,"internalType":"address","name":"collateralToken","type":"address"},{"indexed":false,"internalType":"uint256","name":"collateralAmount","type":"uint256"},{"indexed":false,"internalType":"uint256","name":"tokenValueUSD","type":"uint256"},{"indexed":false,"internalType":"enum SolvencyVault.TokenType","name":"tokenType","type":"uint8"}],"name":"PositionCreated","type":"event"},{"anonymous":false,"inputs":[{"indexed":true,"internalType":"uint256","name":"positionId","type":"uint256"}],"name":"PositionDefaulted","type":"event"},{"anonymous":false,"inputs":[{"indexed":true,"internalType":"uint256","name":"positionId","type":"uint256"},{"indexed":false,"internalType":"uint256","name":"liquidationTime","type":"uint256"}],"name":"PositionLiquidated","type":"event"},{"anonymous":false,"inputs":[{"indexed":true,"internalType":"uint256","name":"positionId","type":"uint256"},{"indexed":true,"internalType":"address","name":"purchaser","type":"address"},{"indexed":false,"internalType":"uint256","name":"purchaseAmount","type":"uint256"},{"indexed":false,"internalType":"uint256","name":"tokensTransferred","type":"uint256"},{"indexed":false,"internalType":"uint256","name":"debtRepaid","type":"uint256"},{"indexed":false,"internalType":"uint256","name":"liquidationFee","type":"uint256"},{"indexed":false,"internalType":"uint256","name":"userRefund","type":"uint256"}],"name":"PrivateAssetLiquidationSettled","type":"event"},{"anonymous":false,"inputs":[{"indexed":true,"internalType":"uint256","name":"positionId","type":"uint256"},{"indexed":false,"internalType":"uint256","name":"loanDuration","type":"uint256"},{"indexed":false,"internalType":"uint256","name":"numberOfInstallments","type":"uint256"},{"indexed":false,"internalType":"uint256","name":"installmentInterval","type":"uint256"},{"indexed":false,"internalType":"uint256","name":"nextPaymentDue","type":"uint256"}],"name":"RepaymentPlanCreated","type":"event"},{"anonymous":false,"inputs":[{"indexed":true,"internalType":"uint256","name":"positionId","type":"uint256"},{"indexed":false,"internalType":"uint256","name":"amount","type":"uint256"},{"indexed":false,"internalType":"uint256","name":"totalDebt","type":"uint256"}],"name":"USDCBorrowed","type":"event"},{"inputs":[],"name":"BASIS_POINTS","outputs":[{"internalType":"uint256","name":"","type":"uint256"}],"stateMutability":"view","type":"function"},{"inputs":[],"name":"LIQUIDATION_FEE_BPS","outputs":[{"internalType":"uint256","name":"","type":"uint256"}],"stateMutability":"view","type":"function"},{"inputs":[],"name":"LIQUIDATION_THRESHOLD","outputs":[{"internalType":"uint256","name":"","type":"uint256"}],"stateMutability":"view","type":"function"},{"inputs":[],"name":"PRIVATE_ASSET_LTV","outputs":[{"internalType":"uint256","name":"","type":"uint256"}],"stateMutability":"view","type":"function"},{"inputs":[],"name":"RWA_LTV","outputs":[{"internalType":"uint256","name":"","type":"uint256"}],"stateMutability":"view","type":"function"},{"inputs":[{"internalType":"uint256","name":"positionId","type":"uint256"},{"internalType":"uint256","name":"amount","type":"uint256"},{"internalType":"uint256","name":"loanDuration","type":"uint256"},{"internalType":"uint256","name":"numberOfInstallments","type":"uint256"}],"name":"borrowUSDC","outputs":[],"stateMutability":"nonpayable","type":"function"},{"inputs":[{"internalType":"address","name":"collateralToken","type":"address"},{"internalType":"uint256","name":"collateralAmount","type":"uint256"},{"internalType":"uint256","name":"tokenValueUSD","type":"uint256"},{"internalType":"enum SolvencyVault.TokenType","name":"tokenType","type":"uint8"},{"internalType":"bool","name":"issueOAID","type":"bool"}],"name":"depositCollateral","outputs":[{"internalType":"uint256","name":"positionId","type":"uint256"}],"stateMutability":"nonpayable","type":"function"},{"inputs":[{"internalType":"uint256","name":"positionId","type":"uint256"}],"name":"getHealthFactor","outputs":[{"internalType":"uint256","name":"","type":"uint256"}],"stateMutability":"view","type":"function"},{"inputs":[{"internalType":"uint256","name":"positionId","type":"uint256"}],"name":"getMaxBorrow","outputs":[{"internalType":"uint256","name":"","type":"uint256"}],"stateMutability":"view","type":"function"},{"inputs":[{"internalType":"uint256","name":"positionId","type":"uint256"}],"name":"getPosition","outputs":[{"components":[{"internalType":"address","name":"user","type":"address"},{"internalType":"address","name":"collateralToken","type":"address"},{"internalType":"uint256","name":"collateralAmount","type":"uint256"},{"internalType":"uint256","name":"usdcBorrowed","type":"uint256"},{"internalType":"uint256","name":"tokenValueUSD","type":"uint256"},{"internalType":"uint256","name":"createdAt","type":"uint256"},{"internalType":"uint256","name":"liquidatedAt","type":"uint256"},{"internalType":"uint256","name":"creditLineId","type":"uint256"},{"internalType":"bool","name":"active","type":"bool"},{"internalType":"enum SolvencyVault.TokenType","name":"tokenType","type":"uint8"}],"internalType":"struct SolvencyVault.Position","name":"","type":"tuple"}],"stateMutability":"view","type":"function"},{"inputs":[{"internalType":"uint256","name":"positionId","type":"uint256"}],"name":"getRepaymentPlan","outputs":[{"components":[{"internalType":"uint256","name":"loanDuration","type":"uint256"},{"internalType":"uint256","name":"numberOfInstallments","type":"uint256"},{"internalType":"uint256","name":"installmentInterval","type":"uint256"},{"internalType":"uint256","name":"nextPaymentDue","type":"uint256"},{"internalType":"uint256","name":"installmentsPaid","type":"uint256"},{"internalType":"uint256","name":"missedPayments","type":"uint256"},{"internalType":"bool","name":"isActive","type":"bool"},{"internalType":"bool","name":"defaulted","type":"bool"}],"internalType":"struct SolvencyVault.RepaymentPlan","name":"","type":"tuple"}],"stateMutability":"view","type":"function"},{"inputs":[{"internalType":"uint256","name":"positionId","type":"uint256"}],"name":"liquidatePosition","outputs":[],"stateMutability":"nonpayable","type":"function"},{"inputs":[{"internalType":"uint256","name":"positionId","type":"uint256"}],"name":"markDefaulted","outputs":[],"stateMutability":"nonpayable","type":"function"},{"inputs":[{"internalType":"uint256","name":"positionId","type":"uint256"}],"name":"markMissedPayment","outputs":[],"stateMutability":"nonpayable","type":"function"},{"inputs":[],"name":"nextPositionId","outputs":[{"internalType":"uint256","name":"","type":"uint256"}],"stateMutability":"view","type":"function"},{"inputs":[],"name":"oaid","outputs":[{"internalType":"address","name":"","type":"address"}],"stateMutability":"view","type":"function"},{"inputs":[],"name":"owner","outputs":[{"internalType":"address","name":"","type":"address"}],"stateMutability":"view","type":"function"},{"inputs":[{"internalType":"uint256","name":"","type":"uint256"}],"name":"positions","outputs":[{"internalType":"address","name":"user","type":"address"},{"internalType":"address","name":"collateralToken","type":"address"},{"internalType":"uint256","name":"collateralAmount","type":"uint256"},{"internalType":"uint256","name":"usdcBorrowed","type":"uint256"},{"internalType":"uint256","name":"tokenValueUSD","type":"uint256"},{"internalType":"uint256","name":"createdAt","type":"uint256"},{"internalType":"uint256","name":"liquidatedAt","type":"uint256"},{"internalType":"uint256","name":"creditLineId","type":"uint256"},{"internalType":"bool","name":"active","type":"bool"},{"internalType":"enum SolvencyVault.TokenType","name":"tokenType","type":"uint8"}],"stateMutability":"view","type":"function"},{"inputs":[{"internalType":"uint256","name":"","type":"uint256"}],"name":"positionsInLiquidation","outputs":[{"internalType":"bool","name":"","type":"bool"}],"stateMutability":"view","type":"function"},{"inputs":[],"name":"primaryMarket","outputs":[{"internalType":"address","name":"","type":"address"}],"stateMutability":"view","type":"function"},{"inputs":[{"internalType":"uint256","name":"positionId","type":"uint256"},{"internalType":"uint256","name":"purchaseAmount","type":"uint256"}],"name":"purchaseAndSettleLiquidation","outputs":[{"internalType":"uint256","name":"liquidationFee","type":"uint256"},{"internalType":"uint256","name":"userRefund","type":"uint256"}],"stateMutability":"nonpayable","type":"function"},{"inputs":[],"name":"renounceOwnership","outputs":[],"stateMutability":"nonpayable","type":"function"},{"inputs":[{"internalType":"uint256","name":"positionId","type":"uint256"},{"internalType":"uint256","name":"amount","type":"uint256"}],"name":"repayLoan","outputs":[],"stateMutability":"nonpayable","type":"function"},{"inputs":[{"internalType":"uint256","name":"","type":"uint256"}],"name":"repaymentPlans","outputs":[{"internalType":"uint256","name":"loanDuration","type":"uint256"},{"internalType":"uint256","name":"numberOfInstallments","type":"uint256"},{"internalType":"uint256","name":"installmentInterval","type":"uint256"},{"internalType":"uint256","name":"nextPaymentDue","type":"uint256"},{"internalType":"uint256","name":"installmentsPaid","type":"uint256"},{"internalType":"uint256","name":"missedPayments","type":"uint256"},{"internalType":"bool","name":"isActive","type":"bool"},{"internalType":"bool","name":"defaulted","type":"bool"}],"stateMutability":"view","type":"function"},{"inputs":[],"name":"seniorPool","outputs":[{"internalType":"address","name":"","type":"address"}],"stateMutability":"view","type":"function"},{"inputs":[{"internalType":"address","name":"_oaid","type":"address"}],"name":"setOAID","outputs":[],"stateMutability":"nonpayable","type":"function"},{"inputs":[{"internalType":"address","name":"_primaryMarket","type":"address"}],"name":"setPrimaryMarket","outputs":[],"stateMutability":"nonpayable","type":"function"},{"inputs":[{"internalType":"address","name":"_yieldVault","type":"address"}],"name":"setYieldVault","outputs":[],"stateMutability":"nonpayable","type":"function"},{"inputs":[{"internalType":"uint256","name":"positionId","type":"uint256"}],"name":"settleLiquidation","outputs":[{"internalType":"uint256","name":"yieldReceived","type":"uint256"},{"internalType":"uint256","name":"liquidationFee","type":"uint256"},{"internalType":"uint256","name":"userRefund","type":"uint256"}],"stateMutability":"nonpayable","type":"function"},{"inputs":[{"internalType":"address","name":"newOwner","type":"address"}],"name":"transferOwnership","outputs":[],"stateMutability":"nonpayable","type":"function"},{"inputs":[],"name":"usdc","outputs":[{"internalType":"contract IERC20","name":"","type":"address"}],"stateMutability":"view","type":"function"},{"inputs":[{"internalType":"uint256","name":"positionId","type":"uint256"},{"internalType":"uint256","name":"amount","type":"uint256"}],"name":"withdrawCollateral","outputs":[],"stateMutability":"nonpayable","type":"function"},{"inputs":[],"name":"yieldVault","outputs":[{"internalType":"address","name":"","type":"address"}],"stateMutability":"view","type":"function"}],"evm":{"bytecode":{"linkReferences":{},"object":"608034620000f557601f620030bf38819003918201601f19168301916001600160401b03831184841017620000fa578084926040948552833981010312620000f5576200005a6020620000528362000110565b920162000110565b3315620000dc5760008054336001600160a01b0319808316821784556040519590946001600160a01b03949093859391908416907f8be0079c531659141344cd1fd0a4f28419497f9722a3daafe3b4186f6b6457e09080a36001805516836002541617600255169060035416176003556001600755612f999081620001268239f35b604051631e4fbdf760e01b815260006004820152602490fd5b600080fd5b634e487b7160e01b600052604160045260246000fd5b51906001600160a01b0382168203620000f55756fe6080604052600436101561001257600080fd5b6000803560e01c80630bae9ef914612469578063137c3f691461241d57806316ef1729146123ee57806317845c69146123cf5780631e77ceda146123a65780632be043921461237d5780633e413bee146123545780634d111a0514611ea0578063518e8dfc14611e8357806352964de514611d615780635403bc4a146118dc5780636c320cb014611890578063715018a61461183657806373216450146117af578063761c5f0a14611792578063767a7b05146115525780637b5210d81461152b578063837c2a6114610e1b578063899346c714610dfd5780638a700b5314610a1a5780638da5cb5b146109f357806390a8ae9b146109d657806399fbab8814610930578063a53ae06b146108b1578063a7f8a5e214610888578063cdddd4e514610531578063d79873b914610514578063e1f1c4a7146104f7578063e2dc3666146104ab578063eb02c3011461033e578063f2fde38b146102b3578063f416fc1c1461028a5763fea58e831461018857600080fd5b34610287576020366003190112610287576040816101009260e083516101ad81612957565b82815282602082015282858201528260608201528260808201528260a08201528260c082015201526004358152600a60205220604051906101ed82612957565b8054918281526001820154916020820192835260028101546040830190815260038201546060840190815260048301549160808501928352600660058501549460a0870195865201549560ff60e060c0880197828a1615158952019760081c16151587526040519788525160208801525160408701525160608601525160808501525160a084015251151560c083015251151560e0820152f35b80fd5b50346102875780600319360112610287576003546040516001600160a01b039091168152602090f35b5034610287576020366003190112610287576102cd612840565b6102d561288f565b6001600160a01b0390811690811561032557600054826001600160601b0360a01b821617600055167f8be0079c531659141344cd1fd0a4f28419497f9722a3daafe3b4186f6b6457e0600080a380f35b604051631e4fbdf760e01b815260048101849052602490fd5b5034610287576020366003190112610287576040816101409261012083516103658161293a565b82815282602082015282858201528260608201528260808201528260a08201528260c08201528260e0820152826101008201520152600435815260066020522061042a60ff6008604051936103b98561293a565b80546001600160a01b0390811686526001820154166020860152600281015460408601526003810154606086015260048101546080860152600581015460a0860152600681015460c0860152600781015460e08601520154818116151561010085015260081c166101208301612a47565b6104a96101206040519260018060a01b03815116845260018060a01b03602082015116602085015260408101516040850152606081015160608501526080810151608085015260a081015160a085015260c081015160c085015260e081015160e08501526101008101511515610100850152015161012083019061286c565bf35b5034610287576020366003190112610287576104c5612840565b6104cd61288f565b6001600160a01b03166104e18115156128bb565b6001600160601b0360a01b600454161760045580f35b503461028757806003193601126102875760206040516127108152f35b503461028757806003193601126102875760206040516117708152f35b503461028757602080600319360112610779576004359061055061288f565b610558612a86565b81835260068152604083209061057460ff600884015416612aa9565b8284526008815260ff60408520541661084b57612cec61059384612cae565b1091838552600a825260066040862001805460ff8116908161083d575b5084908515610835575b50156107e257848652600883526040862060ff1990600182825416179055426006840155815460ff81166107d7575b50506005546001600160a01b0316939050831515806107ca575b61063b575b50507f77493833e3b7f392bd715ffdc3abd21434418e6889264880074c970e1b5e61c89150604051428152a26001805580f35b1561077d57600760405161064e81612988565b603781527f506f736974696f6e206c697175696461746564202d20636f6c6c61746572616c848201527f206865616c74682062656c6f77207468726573686f6c640000000000000000006040820152915b0192858454823b156107795781906040519384916367cc7cff60e01b83526004830152604060248301528183816106d9604482018a612bdd565b03925af191821561076c578692610751575b50507fd89109f5414f7b5415e9a3e20b055f6a8cc38b81f34d24eb5ae3512086356a8a6107477f77493833e3b7f392bd715ffdc3abd21434418e6889264880074c970e1b5e61c895549360405191829187835287830190612bdd565b0390a33880610608565b61075c919250612974565b610768578385386106eb565b8480fd5b50604051903d90823e3d90fd5b5080fd5b600760405161078b81612988565b602781527f506f736974696f6e206c697175696461746564202d2072657061796d656e74208482015266191959985d5b1d60ca1b60408201529161069f565b5060078201541515610603565b1690553880806105e9565b60405162461bcd60e51b815260048101849052602560248201527f506f736974696f6e206973206865616c74687920616e64206e6f7420646566616044820152641d5b1d195960da1b6064820152608490fd5b9050386105ba565b60ff915060081c16386105b0565b6064906040519062461bcd60e51b82526004820152601660248201527520b63932b0b23c9034b7103634b8bab4b230ba34b7b760511b6044820152fd5b50346102875780600319360112610287576009546040516001600160a01b039091168152602090f35b5034610287576020366003190112610287576040610100916004358152600a6020522060ff815491600181015490600281015460038201546004830154916006600585015494015494604051978852602088015260408701526060860152608085015260a0840152818116151560c084015260081c16151560e0820152f35b50346102875760203660031901126102875760406101409160043581526006602052206104a960018060a01b03918281541692600182015416906002810154600382015460048301546005840154916006850154936008600787015496015496604051998a5260208a015260408901526060880152608087015260a086015260c085015260e084015260ff8116151561010084015260ff61012084019160081c1661286c565b50346102875780600319360112610287576020604051612cec8152f35b5034610287578060031936011261028757546040516001600160a01b039091168152602090f35b503461028757610a2936612856565b610a31612a86565b818352826020916006835260408220610a5060ff600883015416612aa9565b80546001600160a01b039190610a699083163314612aeb565b610a748315156128f9565b6002546040516323b872dd60e01b8152336004820152306024820152604481018590529190869083906064908290899088165af1918215610dd557610b0592610ac4918791610de0575b50612b39565b60025460035460405163095ea7b360e01b81529085166001600160a01b03166004820152602481018690529287918491908616908290899082906044820190565b03925af1918215610dd5578592610da8575b5060408360035416604482518098819363d8aed14560e01b83528c60048401528960248401525af1928315610c8f5760249683968495610d71575b5060038301610b62888254612b92565b9055808260035416604051998a809263d559515760e01b82528d60048301525afa978815610cf7578498610d38575b50600a908985525260408320600681019081549060ff8216610d0f575b505050806005541680151580610d02575b610c1b575b505050507f91f28e20f26321cf8a71cadbefe77cfe670ee70b71a621e3ce3fb1b57e19dfaa93610c1191604051948594859094939260609260808301968352602083015260408201520152565b0390a26001805580f35b86610c9e575b5060079060055416910154813b15610c9a57829160848392604051948593849263f2f6818f60e01b84526004840152896024840152600160448401528160648401525af18015610c8f57610c77575b8080610bc4565b610c8090612974565b610c8b578538610c70565b8580fd5b6040513d84823e3d90fd5b8280fd5b6007830154813b15610768578491604483926040519485938492636ad75e1f60e01b845260048401528c60248401525af1908115610cf7578491610ce3575b50610c21565b610cec90612974565b610c9a578238610cdd565b6040513d86823e3d90fd5b5060078301541515610bbf565b600401610d1c8154612a22565b90558815610d2b575b80610bae565b60ff191690553880610d25565b818099508195503d8311610d6a575b610d5181836129a4565b81010312610d6557600a8993519790610b91565b600080fd5b503d610d47565b909450610d9791965060403d604011610da1575b610d8f81836129a4565b810190612b7c565b9590959338610b52565b503d610d85565b610dc790873d8911610dce575b610dbf81836129a4565b8101906129c6565b5038610b17565b503d610db5565b6040513d87823e3d90fd5b610df79150883d8a11610dce57610dbf81836129a4565b38610abe565b50346102875780600319360112610287576020600754604051908152f35b503461028757602036600319011261028757610e3561288f565b610e3d612a86565b600435815260066020526040812060ff6008820154610e5d828216612aa9565b60043584526008602052610e7682604086205416612c1d565b60081c166002811015611517576114dc576009546001600160a01b03169081156114a2576001810154600282015460405163095ea7b360e01b81526001600160a01b039485166004820152602481019190915292602091849160449183918891165af191821561147857602492611483575b506002546040516370a0823160e01b81523060048201529260209184919082906001600160a01b03165afa918215611478578392611444575b5060095460018201546002830154604051630c34f5ed60e11b602082019081526001600160a01b039384166024830152604480830193909352918152601f1993879384939116918390610f756064826129a4565b51925af1903d1561143e573d67ffffffffffffffff811161142857610fa5602060405193601f84011601836129a4565b81528460203d92013e5b156113e3576002546040516370a0823160e01b81523060048201526001600160a01b0390911692602082602481875afa8015610dd55785906113af575b610ff69250612b92565b9182156113765760035460405163d559515760e01b8152600480359082015291906001600160a01b0316602083602481845afa92831561136b578693611337575b50859280611248575b5050508083111561123a576110558184612b92565b906103e88083029083820414831517156112265761271061107891048093612b92565b9282611180575b836110f5575b9460026060965b60088101805460ff191690550155604080518581526020810192909252810182905260608101839052600435907f1b5cd914bf77ee50de90263f47d89967bbce85a4eb078d958bfee08dc0d0cde790608090a26001805560405192835260208301526040820152f35b600254815460405163a9059cbb60e01b81526001600160a01b0391821660048201526024810187905291602091839160449183918c91165af1908115611175579161114d600292899460609a91611156575b50612c69565b91965050611085565b61116f915060203d602011610dce57610dbf81836129a4565b38611147565b6040513d89823e3d90fd5b600254865460405163a9059cbb60e01b81526001600160a01b0391821660048201526024810186905291602091839160449183918c91165af1908115611175578791611207575b5061107f5760405162461bcd60e51b8152602060048201526013602482015272119959481d1c985b9cd9995c8819985a5b1959606a1b6044820152606490fd5b611220915060203d602011610dce57610dbf81836129a4565b386111c7565b634e487b7160e01b86526011600452602486fd5b92606093816002819461108c565b6112979293509060209180871160001461132d579384915b60405163095ea7b360e01b81526001600160a01b039091166004820152602481019290925290928391908290899082906044820190565b03925af18015610dd55761130e575b506003546040805163d8aed14560e01b8152600480359082015260248101849052918290604490829089906001600160a01b03165af18015610dd5576112f0575b50388080611040565b6113089060403d604011610da157610d8f81836129a4565b506112e7565b6113269060203d602011610dce57610dbf81836129a4565b50386112a6565b5085938491611260565b9092506020813d602011611363575b81611353602093836129a4565b81010312610d6557519138611037565b3d9150611346565b6040513d88823e3d90fd5b60405162461bcd60e51b8152602060048201526011602482015270139bc81e5a595b19081c9958d95a5d9959607a1b6044820152606490fd5b506020823d6020116113db575b816113c9602093836129a4565b81010312610d6557610ff69151610fec565b3d91506113bc565b60405162461bcd60e51b815260206004820152601760248201527f5969656c645661756c7420636c61696d206661696c65640000000000000000006044820152606490fd5b634e487b7160e01b600052604160045260246000fd5b50610faf565b9091506020813d602011611470575b81611460602093836129a4565b81010312610d6557519038610f21565b3d9150611453565b6040513d85823e3d90fd5b61149b9060203d602011610dce57610dbf81836129a4565b5038610ee8565b60405162461bcd60e51b8152602060048201526012602482015271165a595b1915985d5b1d081b9bdd081cd95d60721b6044820152606490fd5b60405162461bcd60e51b81526020600482015260136024820152724f6e6c7920666f722052574120746f6b656e7360681b6044820152606490fd5b634e487b7160e01b83526021600452602483fd5b503461028757602036600319011261028757602061154a600435612dfd565b604051908152f35b50346102875761156136612856565b9061156a612a86565b808352602060068152604084206008810190815461158a60ff8216612aa9565b81546001600160a01b0393906115a39085163314612aeb565b6115ae8715156128f9565b60028301805480891161174d5760248787600354166040519283809263d559515760e01b82528d60048301525afa908115611742578b91611715575b506116d057906115ff89600196959493612b92565b8091551561169d575b5050015460405163a9059cbb60e01b81523360048201526024810186905292918291849160449183918a91165af1918215610dd5577f7c5e5cb62e5ed3caf3764e4b0afedfedef533e27809d43367799787ad2abcd4192611670918791611680575b506129de565b6040519384523393a36001805580f35b6116979150833d8511610dce57610dbf81836129a4565b3861166a565b60ff198092169055858852600a85526006604089200190815460ff81166116c5575b50611608565b1690553880806116bf565b60405162461bcd60e51b815260048101889052601f60248201527f4f75747374616e64696e672064656274206d75737420626520726570616964006044820152606490fd5b90508781813d831161173b575b61172c81836129a4565b81010312610d655751386115ea565b503d611722565b6040513d8d823e3d90fd5b60405162461bcd60e51b815260048101889052601760248201527f496e73756666696369656e7420636f6c6c61746572616c0000000000000000006044820152606490fd5b50346102875780600319360112610287576020604051611b588152f35b5034610287576020366003190112610287576004356117cc61288f565b80825260066020526117e760ff600860408520015416612aa9565b808252600a60205260066040832001610100815461180760ff8216612b9f565b61ff0019161790557f5493e4917872c4150c892f2053db5bf546da11d77af31efaad0d13d956f563368280a280f35b503461028757806003193601126102875761184f61288f565b600080546001600160a01b0319811682556001600160a01b03167f8be0079c531659141344cd1fd0a4f28419497f9722a3daafe3b4186f6b6457e08280a380f35b5034610287576020366003190112610287576118aa612840565b6118b261288f565b6001600160a01b03166118c68115156128bb565b6001600160601b0360a01b600554161760055580f35b5034610287576118eb36612856565b6118f361288f565b6118fb612a86565b8183526006602052604083209060ff600883015461191a828216612aa9565b848652600860205261193182604088205416612c1d565b60081c166002811015611d4d57600103611d08578015611cc3576002546040516323b872dd60e01b815233600482015230602482015260448101839052906020908290606490829089906001600160a01b03165af18015610dd55761199c918691611caa5750612b39565b6001820154600283015460405163a9059cbb60e01b81523360048201526024810191909152906020908290604490829089906001600160a01b03165af18015610dd5576119ef918691611c9157506129de565b60035460405163d559515760e01b81526004810185905293906001600160a01b0316602085602481845afa94851561136b578695611c5d575b50859480611b68575b505083821115611b5857611a458483612b92565b936103e8808602908682041486151715611b4457612710611a6891048096612b92565b9384611ad7575b958060026040985b60ff196008820154166008820155015586519384526020840152858301528360608301528260808301527fe8809f589fb6a4a715f089d80b78e1c37443064c63cad260285284847c9fc4a360a03393a36001805582519182526020820152f35b600254815460405163a9059cbb60e01b81526001600160a01b0391821660048201526024810188905291602091839160449183918d91165af1908115611b39578892611b2f849360029360409c916111565750612c69565b9250509650611a6f565b6040513d8a823e3d90fd5b634e487b7160e01b87526011600452602487fd5b8493604095948060028196611a77565b9194509080831115611c4f576020611bba9180935b60025460405163095ea7b360e01b81526001600160a01b0392831660048201526024810193909352919384929091169082908a9082906044820190565b03925af1801561136b57611c30575b506003546040805163d8aed14560e01b8152600481018790526024810184905291829060449082908a906001600160a01b03165af1801561136b57611c12575b50923880611a31565b611c2a9060403d604011610da157610d8f81836129a4565b50611c09565b611c489060203d602011610dce57610dbf81836129a4565b5038611bc9565b50611bba6020838093611b7d565b9094506020813d602011611c89575b81611c79602093836129a4565b81010312610d6557519338611a28565b3d9150611c6c565b611697915060203d602011610dce57610dbf81836129a4565b610df7915060203d602011610dce57610dbf81836129a4565b60405162461bcd60e51b815260206004820152601b60248201527f507572636861736520616d6f756e74206d757374206265203e203000000000006044820152606490fd5b60405162461bcd60e51b815260206004820152601760248201527f4f6e6c7920666f722050726976617465204173736574730000000000000000006044820152606490fd5b634e487b7160e01b85526021600452602485fd5b503461028757602036600319011261028757600435611d7e61288f565b808252600660205260408220611d9a60ff600883015416612aa9565b818352600a60205282600560408220611db960ff600683015416612b9f565b0191611dc58354612a22565b83556005546001600160a01b03169081151580611e76575b611e14575b50505060207fa4e6bdb946caa62acb20ceaaa9f9978dfbf773a0d764e6232b858bdb0920bfca9154604051908152a280f35b60070154813b15610c9a57829160848392604051948593849263f2f6818f60e01b84526004840152816024840152816044840152600160648401525af18015610c8f57611e62575b80611de2565b611e6b90612974565b610c9a578238611e5c565b5060078101541515611ddd565b503461028757806003193601126102875760206040516103e88152f35b503461028757608036600319011261028757600435604460648035908235906024803590611ecc612a86565b8688526020956006875260408920600881015492611eec60ff8516612aa9565b81546001600160a01b039490611f059086163314612aeb565b611f108615156128f9565b871561231b5788156122d957888810612297578a8c52600a8a5260408c206006015460ff1661225f5760081c60ff16600281101561224c5761223e57612710611f60611b585b6004850154612a53565b04956003830196611f72878954612b2c565b1161220a575090879493929160018c61202360068b8f8f611f938d84612a66565b9c8d611f9f8142612b2c565b9160405195611fad87612957565b86528386019081526040860191825260608601928352604089600a608089019682885260a08a0198838a5260c08b019e8f5260e08b019d8e5283525220955186555160018601555160028501555160038401555160048301555160058201550192511515839060ff801983541691151516179055565b51815461ff00191690151560081b61ff00161790556003548c908516803b15610779578190858e6040519485938492630ecbcdab60e01b845260048401528b888401525af180156121ff576121e4575b5090849392916120858d968954612b2c565b8855836005541691821515806121d7575b61217d575b505060025460405163a9059cbb60e01b815233600482015260248101869052938b935084925060449183918891165af1918215611478577fdd4271a412a769f5ed0fe9b4b7c386bba5f674b53b01f0c0dab8a378c2991bb998610c119661212d7f0902160bbfee2201aa09b6b057b6f0b7d0f633b2bdefc04e987882df4aefd29c956040958e98916121665750612b39565b54908351928352820152a26121428142612b2c565b90604051948594859094939260609260808301968352602083015260408201520152565b610df79150843d8611610dce57610dbf81836129a4565b6007015492823b156121d357859387809460405196879586946365a1782f60e01b865260048601528401525af1908115610cf75784916121bf575b808061209b565b6121c890612974565b610c9a5782386121b8565b8680fd5b5060078101541515612096565b6121f4909c91959493929c612974565b9a9091929338612073565b6040513d8f823e3d90fd5b60405162461bcd60e51b8152600481018b905260118184015270115e18d959591cc8131515881b1a5b5a5d607a1b81860152fd5b612710611f60611770611f56565b50634e487b7160e01b8b5260216004528afd5b60405162461bcd60e51b8152600481018b905260138184015272506c616e20616c72656164792061637469766560681b818601528790fd5b60405162461bcd60e51b8152600481018b9052601d818401527f496e76616c6964206475726174696f6e2f696e7374616c6c6d656e7473000000818601528790fd5b60405162461bcd60e51b8152600481018b90526018818401527f496e7374616c6c6d656e7473206d757374206265203e20300000000000000000818601528790fd5b60405162461bcd60e51b8152600481018b90526014818401527304475726174696f6e206d757374206265203e20360641b818601528790fd5b50346102875780600319360112610287576002546040516001600160a01b039091168152602090f35b50346102875780600319360112610287576005546040516001600160a01b039091168152602090f35b50346102875780600319360112610287576004546040516001600160a01b039091168152602090f35b503461028757602036600319011261028757602061154a600435612cae565b50346102875760203660031901126102875760ff60406020926004358152600884522054166040519015158152f35b503461028757602036600319011261028757612437612840565b61243f61288f565b6001600160a01b03166124538115156128bb565b6001600160601b0360a01b600954161760095580f35b50346102875760a036600319011261028757612483612840565b6002606435101561077957608435151560843503610779576124a3612a86565b6001600160a01b0381161561280b576124bf60243515156128f9565b604435156127ce576040516323b872dd60e01b815233600482015230602480830191909152356044820152602081606481866001600160a01b0387165af1801561147857612513918491611c9157506129de565b6007549061252082612a22565b60075560405161252f8161293a565b3381526001600160a01b038216602082015260243560408201526060810184905260443560808201524260a082015260c0810184905260e081018490526001610100820152610120810161258560643582612a47565b838552600660205261262361010060086040882060018060a01b038651166001600160601b0360a01b9081835416178255600182019060018060a01b036020890151169082541617905560408601516002820155606086015160038201556080860151600482015560a0860151600582015560c0860151600682015560e08601516007820155019301511515839060ff801983541691151516179055565b516002811015611d4d5761ff0082549160081b169061ff00191617905560405160018060a01b03821681526024356020820152604435604082015261266d6060820160643561286c565b827f93cb2591720fa23e5a51a39bf9d35b6a4e5cb6c11beae435c41e4482f3a30d2160803393a3608435806127ba575b6126b1575b60208260018055604051908152f35b6064356127a9578260206127106126cd611b585b604435612a53565b049260a460018060a01b0360055416916040519788938492637190caeb60e11b845233600485015260018060a01b03166024840152602435604484015260443560648401528860848401525af193841561076c578194612770575b50604084849360209660078486887ff71bf80fa0a269e5fdbe7113cc01a1ada492208f97e2857213258755d0cbbb5e985260068b52200155825191825286820152a2386126a2565b9093506020813d6020116127a1575b8161278c602093836129a4565b8101031261279d5751926040612728565b8380fd5b3d915061277f565b8260206127106126cd6117706126c5565b506005546001600160a01b0316151561269d565b60405162461bcd60e51b8152602060048201526015602482015274056616c756174696f6e206d757374206265203e203605c1b6044820152606490fd5b60405162461bcd60e51b815260206004820152600d60248201526c24b73b30b634b2103a37b5b2b760991b6044820152606490fd5b600435906001600160a01b0382168203610d6557565b6040906003190112610d65576004359060243590565b9060028210156128795752565b634e487b7160e01b600052602160045260246000fd5b6000546001600160a01b031633036128a357565b60405163118cdaa760e01b8152336004820152602490fd5b156128c257565b60405162461bcd60e51b815260206004820152600f60248201526e496e76616c6964206164647265737360881b6044820152606490fd5b1561290057565b60405162461bcd60e51b81526020600482015260126024820152710416d6f756e74206d757374206265203e20360741b6044820152606490fd5b610140810190811067ffffffffffffffff82111761142857604052565b610100810190811067ffffffffffffffff82111761142857604052565b67ffffffffffffffff811161142857604052565b6060810190811067ffffffffffffffff82111761142857604052565b90601f8019910116810190811067ffffffffffffffff82111761142857604052565b90816020910312610d6557518015158103610d655790565b156129e557565b60405162461bcd60e51b8152602060048201526015602482015274151bdad95b881d1c985b9cd9995c8819985a5b1959605a1b6044820152606490fd5b6000198114612a315760010190565b634e487b7160e01b600052601160045260246000fd5b60028210156128795752565b81810292918115918404141715612a3157565b8115612a70570490565b634e487b7160e01b600052601260045260246000fd5b600260015414612a97576002600155565b604051633ee5aeb560e01b8152600490fd5b15612ab057565b60405162461bcd60e51b8152602060048201526013602482015272506f736974696f6e206e6f742061637469766560681b6044820152606490fd5b15612af257565b60405162461bcd60e51b81526020600482015260126024820152712737ba103837b9b4ba34b7b71037bbb732b960711b6044820152606490fd5b91908201809211612a3157565b15612b4057565b60405162461bcd60e51b81526020600482015260146024820152731554d110c81d1c985b9cd9995c8819985a5b195960621b6044820152606490fd5b9190826040910312610d65576020825192015190565b91908203918211612a3157565b15612ba657565b60405162461bcd60e51b815260206004820152600f60248201526e506c616e206e6f742061637469766560881b6044820152606490fd5b919082519283825260005b848110612c09575050826000602080949584010152601f8019910116010190565b602081830181015184830182015201612be8565b15612c2457565b60405162461bcd60e51b815260206004820152601760248201527f506f736974696f6e206e6f74206c6971756964617465640000000000000000006044820152606490fd5b15612c7057565b60405162461bcd60e51b81526020600482015260166024820152751499599d5b99081d1c985b9cd9995c8819985a5b195960521b6044820152606490fd5b90600091808352602090600682526040842090604051612ccd8161293a565b60018060a01b039081845416815281600185015416858201526002840154604082015260038401546060820152612d4a600860048601549560808401968752600581015460a0850152600681015460c0850152600781015460e085015201549161012060ff6101008301948181161515865260081c169101612a47565b5115612df7578390600354169160246040518094819363d559515760e01b835260048301525afa928315610dd5578593612dc7575b50508115612dbe575161271090818102918183041490151715612daa57612da7929350612a66565b90565b634e487b7160e01b84526011600452602484fd5b50600019925050565b9080929350813d8311612df0575b612ddf81836129a4565b8101031261279d5751903880612d7f565b503d612dd5565b50505050565b60009080825260209060068252604083209060405191612e1c8361293a565b60018060a01b039283825416815283600183015416858201526002820154604082015260038201546060820152600860048301549260808301938452600581015460a0840152600681015460c0840152600781015460e0840152015490612e9a60ff61012061010084019382861615158552019360081c1683612a47565b5115612f5b57516002811015612f4757612ec685926127109215600014612f3e57611b58905b51612a53565b0492600354169160246040518094819363d559515760e01b835260048301525afa928315610cf7578493612f0e575b505081811115612f0957612da79250612b92565b505090565b9080929350813d8311612f37575b612f2681836129a4565b81010312610c9a5751903880612ef5565b503d612f1c565b61177090612ec0565b634e487b7160e01b86526021600452602486fd5b50505050509056fea2646970667358221220633914c90a774a181bf807d49d0410fe241df13e9d2a79ce28313f016bffce1564736f6c63430008140033","opcodes":"PUSH1 0x80 CALLVALUE PUSH3 0xF5 JUMPI PUSH1 0x1F PUSH3 0x30BF CODESIZE DUP2 SWAP1 SUB SWAP2 DUP3 ADD PUSH1 0x1F NOT AND DUP4 ADD SWAP2 PUSH1 0x1 PUSH1 0x1 PUSH1 0x40 SHL SUB DUP4 GT DUP5 DUP5 LT OR PUSH3 0xFA JUMPI DUP1 DUP5 SWAP3 PUSH1 0x40 SWAP5 DUP6 MSTORE DUP4 CODECOPY DUP2 ADD SUB SLT PUSH3 0xF5 JUMPI PUSH3 0x5A PUSH1 0x20 PUSH3 0x52 DUP4 PUSH3 0x110 JUMP JUMPDEST SWAP3 ADD PUSH3 0x110 JUMP JUMPDEST CALLER ISZERO PUSH3 0xDC JUMPI PUSH1 0x0 DUP1 SLOAD CALLER PUSH1 0x1 PUSH1 0x1 PUSH1 0xA0 SHL SUB NOT DUP1 DUP4 AND DUP3 OR DUP5 SSTORE PUSH1 0x40 MLOAD SWAP6 SWAP1 SWAP5 PUSH1 0x1 PUSH1 0x1 PUSH1 0xA0 SHL SUB SWAP5 SWAP1 SWAP4 DUP6 SWAP4 SWAP2 SWAP1 DUP5 AND SWAP1 PUSH32 0x8BE0079C531659141344CD1FD0A4F28419497F9722A3DAAFE3B4186F6B6457E0 SWAP1 DUP1 LOG3 PUSH1 0x1 DUP1 SSTORE AND DUP4 PUSH1 0x2 SLOAD AND OR PUSH1 0x2 SSTORE AND SWAP1 PUSH1 0x3 SLOAD AND OR PUSH1 0x3 SSTORE PUSH1 0x1 PUSH1 0x7 SSTORE PUSH2 0x2F99 SWAP1 DUP2 PUSH3 0x126 DUP3 CODECOPY RETURN JUMPDEST PUSH1 0x40 MLOAD PUSH4 0x1E4FBDF7 PUSH1 0xE0 SHL DUP2 MSTORE PUSH1 0x0 PUSH1 0x4 DUP3 ADD MSTORE PUSH1 0x24 SWAP1 REVERT JUMPDEST PUSH1 0x0 DUP1 REVERT JUMPDEST PUSH4 0x4E487B71 PUSH1 0xE0 SHL PUSH1 0x0 MSTORE PUSH1 0x41 PUSH1 0x4 MSTORE PUSH1 0x24 PUSH1 0x0 REVERT JUMPDEST MLOAD SWAP1 PUSH1 0x1 PUSH1 0x1 PUSH1 0xA0 SHL SUB DUP3 AND DUP3 SUB PUSH3 0xF5 JUMPI JUMP INVALID PUSH1 0x80 PUSH1 0x40 MSTORE PUSH1 0x4 CALLDATASIZE LT ISZERO PUSH2 0x12 JUMPI PUSH1 0x0 DUP1 REVERT JUMPDEST PUSH1 0x0 DUP1 CALLDATALOAD PUSH1 0xE0 SHR DUP1 PUSH4 0xBAE9EF9 EQ PUSH2 0x2469 JUMPI DUP1 PUSH4 0x137C3F69 EQ PUSH2 0x241D JUMPI DUP1 PUSH4 0x16EF1729 EQ PUSH2 0x23EE JUMPI DUP1 PUSH4 0x17845C69 EQ PUSH2 0x23CF JUMPI DUP1 PUSH4 0x1E77CEDA EQ PUSH2 0x23A6 JUMPI DUP1 PUSH4 0x2BE04392 EQ PUSH2 0x237D JUMPI DUP1 PUSH4 0x3E413BEE EQ PUSH2 0x2354 JUMPI DUP1 PUSH4 0x4D111A05 EQ PUSH2 0x1EA0 JUMPI DUP1 PUSH4 0x518E8DFC EQ PUSH2 0x1E83 JUMPI DUP1 PUSH4 0x52964DE5 EQ PUSH2 0x1D61 JUMPI DUP1 PUSH4 0x5403BC4A EQ PUSH2 0x18DC JUMPI DUP1 PUSH4 0x6C320CB0 EQ PUSH2 0x1890 JUMPI DUP1 PUSH4 0x715018A6 EQ PUSH2 0x1836 JUMPI DUP1 PUSH4 0x73216450 EQ PUSH2 0x17AF JUMPI DUP1 PUSH4 0x761C5F0A EQ PUSH2 0x1792 JUMPI DUP1 PUSH4 0x767A7B05 EQ PUSH2 0x1552 JUMPI DUP1 PUSH4 0x7B5210D8 EQ PUSH2 0x152B JUMPI DUP1 PUSH4 0x837C2A61 EQ PUSH2 0xE1B JUMPI DUP1 PUSH4 0x899346C7 EQ PUSH2 0xDFD JUMPI DUP1 PUSH4 0x8A700B53 EQ PUSH2 0xA1A JUMPI DUP1 PUSH4 0x8DA5CB5B EQ PUSH2 0x9F3 JUMPI DUP1 PUSH4 0x90A8AE9B EQ PUSH2 0x9D6 JUMPI DUP1 PUSH4 0x99FBAB88 EQ PUSH2 0x930 JUMPI DUP1 PUSH4 0xA53AE06B EQ PUSH2 0x8B1 JUMPI DUP1 PUSH4 0xA7F8A5E2 EQ PUSH2 0x888 JUMPI DUP1 PUSH4 0xCDDDD4E5 EQ PUSH2 0x531 JUMPI DUP1 PUSH4 0xD79873B9 EQ PUSH2 0x514 JUMPI DUP1 PUSH4 0xE1F1C4A7 EQ PUSH2 0x4F7 JUMPI DUP1 PUSH4 0xE2DC3666 EQ PUSH2 0x4AB JUMPI DUP1 PUSH4 0xEB02C301 EQ PUSH2 0x33E JUMPI DUP1 PUSH4 0xF2FDE38B EQ PUSH2 0x2B3 JUMPI DUP1 PUSH4 0xF416FC1C EQ PUSH2 0x28A JUMPI PUSH4 0xFEA58E83 EQ PUSH2 0x188 JUMPI PUSH1 0x0 DUP1 REVERT JUMPDEST CALLVALUE PUSH2 0x287 JUMPI PUSH1 0x20 CALLDATASIZE PUSH1 0x3 NOT ADD SLT PUSH2 0x287 JUMPI PUSH1 0x40 DUP2 PUSH2 0x100 SWAP3 PUSH1 0xE0 DUP4 MLOAD PUSH2 0x1AD DUP2 PUSH2 0x2957 JUMP JUMPDEST DUP3 DUP2 MSTORE DUP3 PUSH1 0x20 DUP3 ADD MSTORE DUP3 DUP6 DUP3 ADD MSTORE DUP3 PUSH1 0x60 DUP3 ADD MSTORE DUP3 PUSH1 0x80 DUP3 ADD MSTORE DUP3 PUSH1 0xA0 DUP3 ADD MSTORE DUP3 PUSH1 0xC0 DUP3 ADD MSTORE ADD MSTORE PUSH1 0x4 CALLDATALOAD DUP2 MSTORE PUSH1 0xA PUSH1 0x20 MSTORE KECCAK256 PUSH1 0x40 MLOAD SWAP1 PUSH2 0x1ED DUP3 PUSH2 0x2957 JUMP JUMPDEST DUP1 SLOAD SWAP2 DUP3 DUP2 MSTORE PUSH1 0x1 DUP3 ADD SLOAD SWAP2 PUSH1 0x20 DUP3 ADD SWAP3 DUP4 MSTORE PUSH1 0x2 DUP2 ADD SLOAD PUSH1 0x40 DUP4 ADD SWAP1 DUP2 MSTORE PUSH1 0x3 DUP3 ADD SLOAD PUSH1 0x60 DUP5 ADD SWAP1 DUP2 MSTORE PUSH1 0x4 DUP4 ADD SLOAD SWAP2 PUSH1 0x80 DUP6 ADD SWAP3 DUP4 MSTORE PUSH1 0x6 PUSH1 0x5 DUP6 ADD SLOAD SWAP5 PUSH1 0xA0 DUP8 ADD SWAP6 DUP7 MSTORE ADD SLOAD SWAP6 PUSH1 0xFF PUSH1 0xE0 PUSH1 0xC0 DUP9 ADD SWAP8 DUP3 DUP11 AND ISZERO ISZERO DUP10 MSTORE ADD SWAP8 PUSH1 0x8 SHR AND ISZERO ISZERO DUP8 MSTORE PUSH1 0x40 MLOAD SWAP8 DUP9 MSTORE MLOAD PUSH1 0x20 DUP9 ADD MSTORE MLOAD PUSH1 0x40 DUP8 ADD MSTORE MLOAD PUSH1 0x60 DUP7 ADD MSTORE MLOAD PUSH1 0x80 DUP6 ADD MSTORE MLOAD PUSH1 0xA0 DUP5 ADD MSTORE MLOAD ISZERO ISZERO PUSH1 0xC0 DUP4 ADD MSTORE MLOAD ISZERO ISZERO PUSH1 0xE0 DUP3 ADD MSTORE RETURN JUMPDEST DUP1 REVERT JUMPDEST POP CALLVALUE PUSH2 0x287 JUMPI DUP1 PUSH1 0x3 NOT CALLDATASIZE ADD SLT PUSH2 0x287 JUMPI PUSH1 0x3 SLOAD PUSH1 0x40 MLOAD PUSH1 0x1 PUSH1 0x1 PUSH1 0xA0 SHL SUB SWAP1 SWAP2 AND DUP2 MSTORE PUSH1 0x20 SWAP1 RETURN JUMPDEST POP CALLVALUE PUSH2 0x287 JUMPI PUSH1 0x20 CALLDATASIZE PUSH1 0x3 NOT ADD SLT PUSH2 0x287 JUMPI PUSH2 0x2CD PUSH2 0x2840 JUMP JUMPDEST PUSH2 0x2D5 PUSH2 0x288F JUMP JUMPDEST PUSH1 0x1 PUSH1 0x1 PUSH1 0xA0 SHL SUB SWAP1 DUP2 AND SWAP1 DUP2 ISZERO PUSH2 0x325 JUMPI PUSH1 0x0 SLOAD DUP3 PUSH1 0x1 PUSH1 0x1 PUSH1 0x60 SHL SUB PUSH1 0xA0 SHL DUP3 AND OR PUSH1 0x0 SSTORE AND PUSH32 0x8BE0079C531659141344CD1FD0A4F28419497F9722A3DAAFE3B4186F6B6457E0 PUSH1 0x0 DUP1 LOG3 DUP1 RETURN JUMPDEST PUSH1 0x40 MLOAD PUSH4 0x1E4FBDF7 PUSH1 0xE0 SHL DUP2 MSTORE PUSH1 0x4 DUP2 ADD DUP5 SWAP1 MSTORE PUSH1 0x24 SWAP1 REVERT JUMPDEST POP CALLVALUE PUSH2 0x287 JUMPI PUSH1 0x20 CALLDATASIZE PUSH1 0x3 NOT ADD SLT PUSH2 0x287 JUMPI PUSH1 0x40 DUP2 PUSH2 0x140 SWAP3 PUSH2 0x120 DUP4 MLOAD PUSH2 0x365 DUP2 PUSH2 0x293A JUMP JUMPDEST DUP3 DUP2 MSTORE DUP3 PUSH1 0x20 DUP3 ADD MSTORE DUP3 DUP6 DUP3 ADD MSTORE DUP3 PUSH1 0x60 DUP3 ADD MSTORE DUP3 PUSH1 0x80 DUP3 ADD MSTORE DUP3 PUSH1 0xA0 DUP3 ADD MSTORE DUP3 PUSH1 0xC0 DUP3 ADD MSTORE DUP3 PUSH1 0xE0 DUP3 ADD MSTORE DUP3 PUSH2 0x100 DUP3 ADD MSTORE ADD MSTORE PUSH1 0x4 CALLDATALOAD DUP2 MSTORE PUSH1 0x6 PUSH1 0x20 MSTORE KECCAK256 PUSH2 0x42A PUSH1 0xFF PUSH1 0x8 PUSH1 0x40 MLOAD SWAP4 PUSH2 0x3B9 DUP6 PUSH2 0x293A JUMP JUMPDEST DUP1 SLOAD PUSH1 0x1 PUSH1 0x1 PUSH1 0xA0 SHL SUB SWAP1 DUP2 AND DUP7 MSTORE PUSH1 0x1 DUP3 ADD SLOAD AND PUSH1 0x20 DUP7 ADD MSTORE PUSH1 0x2 DUP2 ADD SLOAD PUSH1 0x40 DUP7 ADD MSTORE PUSH1 0x3 DUP2 ADD SLOAD PUSH1 0x60 DUP7 ADD MSTORE PUSH1 0x4 DUP2 ADD SLOAD PUSH1 0x80 DUP7 ADD MSTORE PUSH1 0x5 DUP2 ADD SLOAD PUSH1 0xA0 DUP7 ADD MSTORE PUSH1 0x6 DUP2 ADD SLOAD PUSH1 0xC0 DUP7 ADD MSTORE PUSH1 0x7 DUP2 ADD SLOAD PUSH1 0xE0 DUP7 ADD MSTORE ADD SLOAD DUP2 DUP2 AND ISZERO ISZERO PUSH2 0x100 DUP6 ADD MSTORE PUSH1 0x8 SHR AND PUSH2 0x120 DUP4 ADD PUSH2 0x2A47 JUMP JUMPDEST PUSH2 0x4A9 PUSH2 0x120 PUSH1 0x40 MLOAD SWAP3 PUSH1 0x1 DUP1 PUSH1 0xA0 SHL SUB DUP2 MLOAD AND DUP5 MSTORE PUSH1 0x1 DUP1 PUSH1 0xA0 SHL SUB PUSH1 0x20 DUP3 ADD MLOAD AND PUSH1 0x20 DUP6 ADD MSTORE PUSH1 0x40 DUP2 ADD MLOAD PUSH1 0x40 DUP6 ADD MSTORE PUSH1 0x60 DUP2 ADD MLOAD PUSH1 0x60 DUP6 ADD MSTORE PUSH1 0x80 DUP2 ADD MLOAD PUSH1 0x80 DUP6 ADD MSTORE PUSH1 0xA0 DUP2 ADD MLOAD PUSH1 0xA0 DUP6 ADD MSTORE PUSH1 0xC0 DUP2 ADD MLOAD PUSH1 0xC0 DUP6 ADD MSTORE PUSH1 0xE0 DUP2 ADD MLOAD PUSH1 0xE0 DUP6 ADD MSTORE PUSH2 0x100 DUP2 ADD MLOAD ISZERO ISZERO PUSH2 0x100 DUP6 ADD MSTORE ADD MLOAD PUSH2 0x120 DUP4 ADD SWAP1 PUSH2 0x286C JUMP JUMPDEST RETURN JUMPDEST POP CALLVALUE PUSH2 0x287 JUMPI PUSH1 0x20 CALLDATASIZE PUSH1 0x3 NOT ADD SLT PUSH2 0x287 JUMPI PUSH2 0x4C5 PUSH2 0x2840 JUMP JUMPDEST PUSH2 0x4CD PUSH2 0x288F JUMP JUMPDEST PUSH1 0x1 PUSH1 0x1 PUSH1 0xA0 SHL SUB AND PUSH2 0x4E1 DUP2 ISZERO ISZERO PUSH2 0x28BB JUMP JUMPDEST PUSH1 0x1 PUSH1 0x1 PUSH1 0x60 SHL SUB PUSH1 0xA0 SHL PUSH1 0x4 SLOAD AND OR PUSH1 0x4 SSTORE DUP1 RETURN JUMPDEST POP CALLVALUE PUSH2 0x287 JUMPI DUP1 PUSH1 0x3 NOT CALLDATASIZE ADD SLT PUSH2 0x287 JUMPI PUSH1 0x20 PUSH1 0x40 MLOAD PUSH2 0x2710 DUP2 MSTORE RETURN JUMPDEST POP CALLVALUE PUSH2 0x287 JUMPI DUP1 PUSH1 0x3 NOT CALLDATASIZE ADD SLT PUSH2 0x287 JUMPI PUSH1 0x20 PUSH1 0x40 MLOAD PUSH2 0x1770 DUP2 MSTORE RETURN JUMPDEST POP CALLVALUE PUSH2 0x287 JUMPI PUSH1 0x20 DUP1 PUSH1 0x3 NOT CALLDATASIZE ADD SLT PUSH2 0x779 JUMPI PUSH1 0x4 CALLDATALOAD SWAP1 PUSH2 0x550 PUSH2 0x288F JUMP JUMPDEST PUSH2 0x558 PUSH2 0x2A86 JUMP JUMPDEST DUP2 DUP4 MSTORE PUSH1 0x6 DUP2 MSTORE PUSH1 0x40 DUP4 KECCAK256 SWAP1 PUSH2 0x574 PUSH1 0xFF PUSH1 0x8 DUP5 ADD SLOAD AND PUSH2 0x2AA9 JUMP JUMPDEST DUP3 DUP5 MSTORE PUSH1 0x8 DUP2 MSTORE PUSH1 0xFF PUSH1 0x40 DUP6 KECCAK256 SLOAD AND PUSH2 0x84B JUMPI PUSH2 0x2CEC PUSH2 0x593 DUP5 PUSH2 0x2CAE JUMP JUMPDEST LT SWAP2 DUP4 DUP6 MSTORE PUSH1 0xA DUP3 MSTORE PUSH1 0x6 PUSH1 0x40 DUP7 KECCAK256 ADD DUP1 SLOAD PUSH1 0xFF DUP2 AND SWAP1 DUP2 PUSH2 0x83D JUMPI JUMPDEST POP DUP5 SWAP1 DUP6 ISZERO PUSH2 0x835 JUMPI JUMPDEST POP ISZERO PUSH2 0x7E2 JUMPI DUP5 DUP7 MSTORE PUSH1 0x8 DUP4 MSTORE PUSH1 0x40 DUP7 KECCAK256 PUSH1 0xFF NOT SWAP1 PUSH1 0x1 DUP3 DUP3 SLOAD AND OR SWAP1 SSTORE TIMESTAMP PUSH1 0x6 DUP5 ADD SSTORE DUP2 SLOAD PUSH1 0xFF DUP2 AND PUSH2 0x7D7 JUMPI JUMPDEST POP POP PUSH1 0x5 SLOAD PUSH1 0x1 PUSH1 0x1 PUSH1 0xA0 SHL SUB AND SWAP4 SWAP1 POP DUP4 ISZERO ISZERO DUP1 PUSH2 0x7CA JUMPI JUMPDEST PUSH2 0x63B JUMPI JUMPDEST POP POP PUSH32 0x77493833E3B7F392BD715FFDC3ABD21434418E6889264880074C970E1B5E61C8 SWAP2 POP PUSH1 0x40 MLOAD TIMESTAMP DUP2 MSTORE LOG2 PUSH1 0x1 DUP1 SSTORE DUP1 RETURN JUMPDEST ISZERO PUSH2 0x77D JUMPI PUSH1 0x7 PUSH1 0x40 MLOAD PUSH2 0x64E DUP2 PUSH2 0x2988 JUMP JUMPDEST PUSH1 0x37 DUP2 MSTORE PUSH32 0x506F736974696F6E206C697175696461746564202D20636F6C6C61746572616C DUP5 DUP3 ADD MSTORE PUSH32 0x206865616C74682062656C6F77207468726573686F6C64000000000000000000 PUSH1 0x40 DUP3 ADD MSTORE SWAP2 JUMPDEST ADD SWAP3 DUP6 DUP5 SLOAD DUP3 EXTCODESIZE ISZERO PUSH2 0x779 JUMPI DUP2 SWAP1 PUSH1 0x40 MLOAD SWAP4 DUP5 SWAP2 PUSH4 0x67CC7CFF PUSH1 0xE0 SHL DUP4 MSTORE PUSH1 0x4 DUP4 ADD MSTORE PUSH1 0x40 PUSH1 0x24 DUP4 ADD MSTORE DUP2 DUP4 DUP2 PUSH2 0x6D9 PUSH1 0x44 DUP3 ADD DUP11 PUSH2 0x2BDD JUMP JUMPDEST SUB SWAP3 GAS CALL SWAP2 DUP3 ISZERO PUSH2 0x76C JUMPI DUP7 SWAP3 PUSH2 0x751 JUMPI JUMPDEST POP POP PUSH32 0xD89109F5414F7B5415E9A3E20B055F6A8CC38B81F34D24EB5AE3512086356A8A PUSH2 0x747 PUSH32 0x77493833E3B7F392BD715FFDC3ABD21434418E6889264880074C970E1B5E61C8 SWAP6 SLOAD SWAP4 PUSH1 0x40 MLOAD SWAP2 DUP3 SWAP2 DUP8 DUP4 MSTORE DUP8 DUP4 ADD SWAP1 PUSH2 0x2BDD JUMP JUMPDEST SUB SWAP1 LOG3 CODESIZE DUP1 PUSH2 0x608 JUMP JUMPDEST PUSH2 0x75C SWAP2 SWAP3 POP PUSH2 0x2974 JUMP JUMPDEST PUSH2 0x768 JUMPI DUP4 DUP6 CODESIZE PUSH2 0x6EB JUMP JUMPDEST DUP5 DUP1 REVERT JUMPDEST POP PUSH1 0x40 MLOAD SWAP1 RETURNDATASIZE SWAP1 DUP3 RETURNDATACOPY RETURNDATASIZE SWAP1 REVERT JUMPDEST POP DUP1 REVERT JUMPDEST PUSH1 0x7 PUSH1 0x40 MLOAD PUSH2 0x78B DUP2 PUSH2 0x2988 JUMP JUMPDEST PUSH1 0x27 DUP2 MSTORE PUSH32 0x506F736974696F6E206C697175696461746564202D2072657061796D656E7420 DUP5 DUP3 ADD MSTORE PUSH7 0x191959985D5B1D PUSH1 0xCA SHL PUSH1 0x40 DUP3 ADD MSTORE SWAP2 PUSH2 0x69F JUMP JUMPDEST POP PUSH1 0x7 DUP3 ADD SLOAD ISZERO ISZERO PUSH2 0x603 JUMP JUMPDEST AND SWAP1 SSTORE CODESIZE DUP1 DUP1 PUSH2 0x5E9 JUMP JUMPDEST PUSH1 0x40 MLOAD PUSH3 0x461BCD PUSH1 0xE5 SHL DUP2 MSTORE PUSH1 0x4 DUP2 ADD DUP5 SWAP1 MSTORE PUSH1 0x25 PUSH1 0x24 DUP3 ADD MSTORE PUSH32 0x506F736974696F6E206973206865616C74687920616E64206E6F742064656661 PUSH1 0x44 DUP3 ADD MSTORE PUSH5 0x1D5B1D1959 PUSH1 0xDA SHL PUSH1 0x64 DUP3 ADD MSTORE PUSH1 0x84 SWAP1 REVERT JUMPDEST SWAP1 POP CODESIZE PUSH2 0x5BA JUMP JUMPDEST PUSH1 0xFF SWAP2 POP PUSH1 0x8 SHR AND CODESIZE PUSH2 0x5B0 JUMP JUMPDEST PUSH1 0x64 SWAP1 PUSH1 0x40 MLOAD SWAP1 PUSH3 0x461BCD PUSH1 0xE5 SHL DUP3 MSTORE PUSH1 0x4 DUP3 ADD MSTORE PUSH1 0x16 PUSH1 0x24 DUP3 ADD MSTORE PUSH22 0x20B63932B0B23C9034B7103634B8BAB4B230BA34B7B7 PUSH1 0x51 SHL PUSH1 0x44 DUP3 ADD MSTORE REVERT JUMPDEST POP CALLVALUE PUSH2 0x287 JUMPI DUP1 PUSH1 0x3 NOT CALLDATASIZE ADD SLT PUSH2 0x287 JUMPI PUSH1 0x9 SLOAD PUSH1 0x40 MLOAD PUSH1 0x1 PUSH1 0x1 PUSH1 0xA0 SHL SUB SWAP1 SWAP2 AND DUP2 MSTORE PUSH1 0x20 SWAP1 RETURN JUMPDEST POP CALLVALUE PUSH2 0x287 JUMPI PUSH1 0x20 CALLDATASIZE PUSH1 0x3 NOT ADD SLT PUSH2 0x287 JUMPI PUSH1 0x40 PUSH2 0x100 SWAP2 PUSH1 0x4 CALLDATALOAD DUP2 MSTORE PUSH1 0xA PUSH1 0x20 MSTORE KECCAK256 PUSH1 0xFF DUP2 SLOAD SWAP2 PUSH1 0x1 DUP2 ADD SLOAD SWAP1 PUSH1 0x2 DUP2 ADD SLOAD PUSH1 0x3 DUP3 ADD SLOAD PUSH1 0x4 DUP4 ADD SLOAD SWAP2 PUSH1 0x6 PUSH1 0x5 DUP6 ADD SLOAD SWAP5 ADD SLOAD SWAP5 PUSH1 0x40 MLOAD SWAP8 DUP9 MSTORE PUSH1 0x20 DUP9 ADD MSTORE PUSH1 0x40 DUP8 ADD MSTORE PUSH1 0x60 DUP7 ADD MSTORE PUSH1 0x80 DUP6 ADD MSTORE PUSH1 0xA0 DUP5 ADD MSTORE DUP2 DUP2 AND ISZERO ISZERO PUSH1 0xC0 DUP5 ADD MSTORE PUSH1 0x8 SHR AND ISZERO ISZERO PUSH1 0xE0 DUP3 ADD MSTORE RETURN JUMPDEST POP CALLVALUE PUSH2 0x287 JUMPI PUSH1 0x20 CALLDATASIZE PUSH1 0x3 NOT ADD SLT PUSH2 0x287 JUMPI PUSH1 0x40 PUSH2 0x140 SWAP2 PUSH1 0x4 CALLDATALOAD DUP2 MSTORE PUSH1 0x6 PUSH1 0x20 MSTORE KECCAK256 PUSH2 0x4A9 PUSH1 0x1 DUP1 PUSH1 0xA0 SHL SUB SWAP2 DUP3 DUP2 SLOAD AND SWAP3 PUSH1 0x1 DUP3 ADD SLOAD AND SWAP1 PUSH1 0x2 DUP2 ADD SLOAD PUSH1 0x3 DUP3 ADD SLOAD PUSH1 0x4 DUP4 ADD SLOAD PUSH1 0x5 DUP5 ADD SLOAD SWAP2 PUSH1 0x6 DUP6 ADD SLOAD SWAP4 PUSH1 0x8 PUSH1 0x7 DUP8 ADD SLOAD SWAP7 ADD SLOAD SWAP7 PUSH1 0x40 MLOAD SWAP10 DUP11 MSTORE PUSH1 0x20 DUP11 ADD MSTORE PUSH1 0x40 DUP10 ADD MSTORE PUSH1 0x60 DUP9 ADD MSTORE PUSH1 0x80 DUP8 ADD MSTORE PUSH1 0xA0 DUP7 ADD MSTORE PUSH1 0xC0 DUP6 ADD MSTORE PUSH1 0xE0 DUP5 ADD MSTORE PUSH1 0xFF DUP2 AND ISZERO ISZERO PUSH2 0x100 DUP5 ADD MSTORE PUSH1 0xFF PUSH2 0x120 DUP5 ADD SWAP2 PUSH1 0x8 SHR AND PUSH2 0x286C JUMP JUMPDEST POP CALLVALUE PUSH2 0x287 JUMPI DUP1 PUSH1 0x3 NOT CALLDATASIZE ADD SLT PUSH2 0x287 JUMPI PUSH1 0x20 PUSH1 0x40 MLOAD PUSH2 0x2CEC DUP2 MSTORE RETURN JUMPDEST POP CALLVALUE PUSH2 0x287 JUMPI DUP1 PUSH1 0x3 NOT CALLDATASIZE ADD SLT PUSH2 0x287 JUMPI SLOAD PUSH1 0x40 MLOAD PUSH1 0x1 PUSH1 0x1 PUSH1 0xA0 SHL SUB SWAP1 SWAP2 AND DUP2 MSTORE PUSH1 0x20 SWAP1 RETURN JUMPDEST POP CALLVALUE PUSH2 0x287 JUMPI PUSH2 0xA29 CALLDATASIZE PUSH2 0x2856 JUMP JUMPDEST PUSH2 0xA31 PUSH2 0x2A86 JUMP JUMPDEST DUP2 DUP4 MSTORE DUP3 PUSH1 0x20 SWAP2 PUSH1 0x6 DUP4 MSTORE PUSH1 0x40 DUP3 KECCAK256 PUSH2 0xA50 PUSH1 0xFF PUSH1 0x8 DUP4 ADD SLOAD AND PUSH2 0x2AA9 JUMP JUMPDEST DUP1 SLOAD PUSH1 0x1 PUSH1 0x1 PUSH1 0xA0 SHL SUB SWAP2 SWAP1 PUSH2 0xA69 SWAP1 DUP4 AND CALLER EQ PUSH2 0x2AEB JUMP JUMPDEST PUSH2 0xA74 DUP4 ISZERO ISZERO PUSH2 0x28F9 JUMP JUMPDEST PUSH1 0x2 SLOAD PUSH1 0x40 MLOAD PUSH4 0x23B872DD PUSH1 0xE0 SHL DUP2 MSTORE CALLER PUSH1 0x4 DUP3 ADD MSTORE ADDRESS PUSH1 0x24 DUP3 ADD MSTORE PUSH1 0x44 DUP2 ADD DUP6 SWAP1 MSTORE SWAP2 SWAP1 DUP7 SWAP1 DUP4 SWAP1 PUSH1 0x64 SWAP1 DUP3 SWAP1 DUP10 SWAP1 DUP9 AND GAS CALL SWAP2 DUP3 ISZERO PUSH2 0xDD5 JUMPI PUSH2 0xB05 SWAP3 PUSH2 0xAC4 SWAP2 DUP8 SWAP2 PUSH2 0xDE0 JUMPI JUMPDEST POP PUSH2 0x2B39 JUMP JUMPDEST PUSH1 0x2 SLOAD PUSH1 0x3 SLOAD PUSH1 0x40 MLOAD PUSH4 0x95EA7B3 PUSH1 0xE0 SHL DUP2 MSTORE SWAP1 DUP6 AND PUSH1 0x1 PUSH1 0x1 PUSH1 0xA0 SHL SUB AND PUSH1 0x4 DUP3 ADD MSTORE PUSH1 0x24 DUP2 ADD DUP7 SWAP1 MSTORE SWAP3 DUP8 SWAP2 DUP5 SWAP2 SWAP1 DUP7 AND SWAP1 DUP3 SWAP1 DUP10 SWAP1 DUP3 SWAP1 PUSH1 0x44 DUP3 ADD SWAP1 JUMP JUMPDEST SUB SWAP3 GAS CALL SWAP2 DUP3 ISZERO PUSH2 0xDD5 JUMPI DUP6 SWAP3 PUSH2 0xDA8 JUMPI JUMPDEST POP PUSH1 0x40 DUP4 PUSH1 0x3 SLOAD AND PUSH1 0x44 DUP3 MLOAD DUP1 SWAP9 DUP2 SWAP4 PUSH4 0xD8AED145 PUSH1 0xE0 SHL DUP4 MSTORE DUP13 PUSH1 0x4 DUP5 ADD MSTORE DUP10 PUSH1 0x24 DUP5 ADD MSTORE GAS CALL SWAP3 DUP4 ISZERO PUSH2 0xC8F JUMPI PUSH1 0x24 SWAP7 DUP4 SWAP7 DUP5 SWAP6 PUSH2 0xD71 JUMPI JUMPDEST POP PUSH1 0x3 DUP4 ADD PUSH2 0xB62 DUP9 DUP3 SLOAD PUSH2 0x2B92 JUMP JUMPDEST SWAP1 SSTORE DUP1 DUP3 PUSH1 0x3 SLOAD AND PUSH1 0x40 MLOAD SWAP10 DUP11 DUP1 SWAP3 PUSH4 0xD5595157 PUSH1 0xE0 SHL DUP3 MSTORE DUP14 PUSH1 0x4 DUP4 ADD MSTORE GAS STATICCALL SWAP8 DUP9 ISZERO PUSH2 0xCF7 JUMPI DUP5 SWAP9 PUSH2 0xD38 JUMPI JUMPDEST POP PUSH1 0xA SWAP1 DUP10 DUP6 MSTORE MSTORE PUSH1 0x40 DUP4 KECCAK256 PUSH1 0x6 DUP2 ADD SWAP1 DUP2 SLOAD SWAP1 PUSH1 0xFF DUP3 AND PUSH2 0xD0F JUMPI JUMPDEST POP POP POP DUP1 PUSH1 0x5 SLOAD AND DUP1 ISZERO ISZERO DUP1 PUSH2 0xD02 JUMPI JUMPDEST PUSH2 0xC1B JUMPI JUMPDEST POP POP POP POP PUSH32 0x91F28E20F26321CF8A71CADBEFE77CFE670EE70B71A621E3CE3FB1B57E19DFAA SWAP4 PUSH2 0xC11 SWAP2 PUSH1 0x40 MLOAD SWAP5 DUP6 SWAP5 DUP6 SWAP1 SWAP5 SWAP4 SWAP3 PUSH1 0x60 SWAP3 PUSH1 0x80 DUP4 ADD SWAP7 DUP4 MSTORE PUSH1 0x20 DUP4 ADD MSTORE PUSH1 0x40 DUP3 ADD MSTORE ADD MSTORE JUMP JUMPDEST SUB SWAP1 LOG2 PUSH1 0x1 DUP1 SSTORE DUP1 RETURN JUMPDEST DUP7 PUSH2 0xC9E JUMPI JUMPDEST POP PUSH1 0x7 SWAP1 PUSH1 0x5 SLOAD AND SWAP2 ADD SLOAD DUP2 EXTCODESIZE ISZERO PUSH2 0xC9A JUMPI DUP3 SWAP2 PUSH1 0x84 DUP4 SWAP3 PUSH1 0x40 MLOAD SWAP5 DUP6 SWAP4 DUP5 SWAP3 PUSH4 0xF2F6818F PUSH1 0xE0 SHL DUP5 MSTORE PUSH1 0x4 DUP5 ADD MSTORE DUP10 PUSH1 0x24 DUP5 ADD MSTORE PUSH1 0x1 PUSH1 0x44 DUP5 ADD MSTORE DUP2 PUSH1 0x64 DUP5 ADD MSTORE GAS CALL DUP1 ISZERO PUSH2 0xC8F JUMPI PUSH2 0xC77 JUMPI JUMPDEST DUP1 DUP1 PUSH2 0xBC4 JUMP JUMPDEST PUSH2 0xC80 SWAP1 PUSH2 0x2974 JUMP JUMPDEST PUSH2 0xC8B JUMPI DUP6 CODESIZE PUSH2 0xC70 JUMP JUMPDEST DUP6 DUP1 REVERT JUMPDEST PUSH1 0x40 MLOAD RETURNDATASIZE DUP5 DUP3 RETURNDATACOPY RETURNDATASIZE SWAP1 REVERT JUMPDEST DUP3 DUP1 REVERT JUMPDEST PUSH1 0x7 DUP4 ADD SLOAD DUP2 EXTCODESIZE ISZERO PUSH2 0x768 JUMPI DUP5 SWAP2 PUSH1 0x44 DUP4 SWAP3 PUSH1 0x40 MLOAD SWAP5 DUP6 SWAP4 DUP5 SWAP3 PUSH4 0x6AD75E1F PUSH1 0xE0 SHL DUP5 MSTORE PUSH1 0x4 DUP5 ADD MSTORE DUP13 PUSH1 0x24 DUP5 ADD MSTORE GAS CALL SWAP1 DUP2 ISZERO PUSH2 0xCF7 JUMPI DUP5 SWAP2 PUSH2 0xCE3 JUMPI JUMPDEST POP PUSH2 0xC21 JUMP JUMPDEST PUSH2 0xCEC SWAP1 PUSH2 0x2974 JUMP JUMPDEST PUSH2 0xC9A JUMPI DUP3 CODESIZE PUSH2 0xCDD JUMP JUMPDEST PUSH1 0x40 MLOAD RETURNDATASIZE DUP7 DUP3 RETURNDATACOPY RETURNDATASIZE SWAP1 REVERT JUMPDEST POP PUSH1 0x7 DUP4 ADD SLOAD ISZERO ISZERO PUSH2 0xBBF JUMP JUMPDEST PUSH1 0x4 ADD PUSH2 0xD1C DUP2 SLOAD PUSH2 0x2A22 JUMP JUMPDEST SWAP1 SSTORE DUP9 ISZERO PUSH2 0xD2B JUMPI JUMPDEST DUP1 PUSH2 0xBAE JUMP JUMPDEST PUSH1 0xFF NOT AND SWAP1 SSTORE CODESIZE DUP1 PUSH2 0xD25 JUMP JUMPDEST DUP2 DUP1 SWAP10 POP DUP2 SWAP6 POP RETURNDATASIZE DUP4 GT PUSH2 0xD6A JUMPI JUMPDEST PUSH2 0xD51 DUP2 DUP4 PUSH2 0x29A4 JUMP JUMPDEST DUP2 ADD SUB SLT PUSH2 0xD65 JUMPI PUSH1 0xA DUP10 SWAP4 MLOAD SWAP8 SWAP1 PUSH2 0xB91 JUMP JUMPDEST PUSH1 0x0 DUP1 REVERT JUMPDEST POP RETURNDATASIZE PUSH2 0xD47 JUMP JUMPDEST SWAP1 SWAP5 POP PUSH2 0xD97 SWAP2 SWAP7 POP PUSH1 0x40 RETURNDATASIZE PUSH1 0x40 GT PUSH2 0xDA1 JUMPI JUMPDEST PUSH2 0xD8F DUP2 DUP4 PUSH2 0x29A4 JUMP JUMPDEST DUP2 ADD SWAP1 PUSH2 0x2B7C JUMP JUMPDEST SWAP6 SWAP1 SWAP6 SWAP4 CODESIZE PUSH2 0xB52 JUMP JUMPDEST POP RETURNDATASIZE PUSH2 0xD85 JUMP JUMPDEST PUSH2 0xDC7 SWAP1 DUP8 RETURNDATASIZE DUP10 GT PUSH2 0xDCE JUMPI JUMPDEST PUSH2 0xDBF DUP2 DUP4 PUSH2 0x29A4 JUMP JUMPDEST DUP2 ADD SWAP1 PUSH2 0x29C6 JUMP JUMPDEST POP CODESIZE PUSH2 0xB17 JUMP JUMPDEST POP RETURNDATASIZE PUSH2 0xDB5 JUMP JUMPDEST PUSH1 0x40 MLOAD RETURNDATASIZE DUP8 DUP3 RETURNDATACOPY RETURNDATASIZE SWAP1 REVERT JUMPDEST PUSH2 0xDF7 SWAP2 POP DUP9 RETURNDATASIZE DUP11 GT PUSH2 0xDCE JUMPI PUSH2 0xDBF DUP2 DUP4 PUSH2 0x29A4 JUMP JUMPDEST CODESIZE PUSH2 0xABE JUMP JUMPDEST POP CALLVALUE PUSH2 0x287 JUMPI DUP1 PUSH1 0x3 NOT CALLDATASIZE ADD SLT PUSH2 0x287 JUMPI PUSH1 0x20 PUSH1 0x7 SLOAD PUSH1 0x40 MLOAD SWAP1 DUP2 MSTORE RETURN JUMPDEST POP CALLVALUE PUSH2 0x287 JUMPI PUSH1 0x20 CALLDATASIZE PUSH1 0x3 NOT ADD SLT PUSH2 0x287 JUMPI PUSH2 0xE35 PUSH2 0x288F JUMP JUMPDEST PUSH2 0xE3D PUSH2 0x2A86 JUMP JUMPDEST PUSH1 0x4 CALLDATALOAD DUP2 MSTORE PUSH1 0x6 PUSH1 0x20 MSTORE PUSH1 0x40 DUP2 KECCAK256 PUSH1 0xFF PUSH1 0x8 DUP3 ADD SLOAD PUSH2 0xE5D DUP3 DUP3 AND PUSH2 0x2AA9 JUMP JUMPDEST PUSH1 0x4 CALLDATALOAD DUP5 MSTORE PUSH1 0x8 PUSH1 0x20 MSTORE PUSH2 0xE76 DUP3 PUSH1 0x40 DUP7 KECCAK256 SLOAD AND PUSH2 0x2C1D JUMP JUMPDEST PUSH1 0x8 SHR AND PUSH1 0x2 DUP2 LT ISZERO PUSH2 0x1517 JUMPI PUSH2 0x14DC JUMPI PUSH1 0x9 SLOAD PUSH1 0x1 PUSH1 0x1 PUSH1 0xA0 SHL SUB AND SWAP1 DUP2 ISZERO PUSH2 0x14A2 JUMPI PUSH1 0x1 DUP2 ADD SLOAD PUSH1 0x2 DUP3 ADD SLOAD PUSH1 0x40 MLOAD PUSH4 0x95EA7B3 PUSH1 0xE0 SHL DUP2 MSTORE PUSH1 0x1 PUSH1 0x1 PUSH1 0xA0 SHL SUB SWAP5 DUP6 AND PUSH1 0x4 DUP3 ADD MSTORE PUSH1 0x24 DUP2 ADD SWAP2 SWAP1 SWAP2 MSTORE SWAP3 PUSH1 0x20 SWAP2 DUP5 SWAP2 PUSH1 0x44 SWAP2 DUP4 SWAP2 DUP9 SWAP2 AND GAS CALL SWAP2 DUP3 ISZERO PUSH2 0x1478 JUMPI PUSH1 0x24 SWAP3 PUSH2 0x1483 JUMPI JUMPDEST POP PUSH1 0x2 SLOAD PUSH1 0x40 MLOAD PUSH4 0x70A08231 PUSH1 0xE0 SHL DUP2 MSTORE ADDRESS PUSH1 0x4 DUP3 ADD MSTORE SWAP3 PUSH1 0x20 SWAP2 DUP5 SWAP2 SWAP1 DUP3 SWAP1 PUSH1 0x1 PUSH1 0x1 PUSH1 0xA0 SHL SUB AND GAS STATICCALL SWAP2 DUP3 ISZERO PUSH2 0x1478 JUMPI DUP4 SWAP3 PUSH2 0x1444 JUMPI JUMPDEST POP PUSH1 0x9 SLOAD PUSH1 0x1 DUP3 ADD SLOAD PUSH1 0x2 DUP4 ADD SLOAD PUSH1 0x40 MLOAD PUSH4 0xC34F5ED PUSH1 0xE1 SHL PUSH1 0x20 DUP3 ADD SWAP1 DUP2 MSTORE PUSH1 0x1 PUSH1 0x1 PUSH1 0xA0 SHL SUB SWAP4 DUP5 AND PUSH1 0x24 DUP4 ADD MSTORE PUSH1 0x44 DUP1 DUP4 ADD SWAP4 SWAP1 SWAP4 MSTORE SWAP2 DUP2 MSTORE PUSH1 0x1F NOT SWAP4 DUP8 SWAP4 DUP5 SWAP4 SWAP2 AND SWAP2 DUP4 SWAP1 PUSH2 0xF75 PUSH1 0x64 DUP3 PUSH2 0x29A4 JUMP JUMPDEST MLOAD SWAP3 GAS CALL SWAP1 RETURNDATASIZE ISZERO PUSH2 0x143E JUMPI RETURNDATASIZE PUSH8 0xFFFFFFFFFFFFFFFF DUP2 GT PUSH2 0x1428 JUMPI PUSH2 0xFA5 PUSH1 0x20 PUSH1 0x40 MLOAD SWAP4 PUSH1 0x1F DUP5 ADD AND ADD DUP4 PUSH2 0x29A4 JUMP JUMPDEST DUP2 MSTORE DUP5 PUSH1 0x20 RETURNDATASIZE SWAP3 ADD RETURNDATACOPY JUMPDEST ISZERO PUSH2 0x13E3 JUMPI PUSH1 0x2 SLOAD PUSH1 0x40 MLOAD PUSH4 0x70A08231 PUSH1 0xE0 SHL DUP2 MSTORE ADDRESS PUSH1 0x4 DUP3 ADD MSTORE PUSH1 0x1 PUSH1 0x1 PUSH1 0xA0 SHL SUB SWAP1 SWAP2 AND SWAP3 PUSH1 0x20 DUP3 PUSH1 0x24 DUP2 DUP8 GAS STATICCALL DUP1 ISZERO PUSH2 0xDD5 JUMPI DUP6 SWAP1 PUSH2 0x13AF JUMPI JUMPDEST PUSH2 0xFF6 SWAP3 POP PUSH2 0x2B92 JUMP JUMPDEST SWAP2 DUP3 ISZERO PUSH2 0x1376 JUMPI PUSH1 0x3 SLOAD PUSH1 0x40 MLOAD PUSH4 0xD5595157 PUSH1 0xE0 SHL DUP2 MSTORE PUSH1 0x4 DUP1 CALLDATALOAD SWAP1 DUP3 ADD MSTORE SWAP2 SWAP1 PUSH1 0x1 PUSH1 0x1 PUSH1 0xA0 SHL SUB AND PUSH1 0x20 DUP4 PUSH1 0x24 DUP2 DUP5 GAS STATICCALL SWAP3 DUP4 ISZERO PUSH2 0x136B JUMPI DUP7 SWAP4 PUSH2 0x1337 JUMPI JUMPDEST POP DUP6 SWAP3 DUP1 PUSH2 0x1248 JUMPI JUMPDEST POP POP POP DUP1 DUP4 GT ISZERO PUSH2 0x123A JUMPI PUSH2 0x1055 DUP2 DUP5 PUSH2 0x2B92 JUMP JUMPDEST SWAP1 PUSH2 0x3E8 DUP1 DUP4 MUL SWAP1 DUP4 DUP3 DIV EQ DUP4 ISZERO OR ISZERO PUSH2 0x1226 JUMPI PUSH2 0x2710 PUSH2 0x1078 SWAP2 DIV DUP1 SWAP4 PUSH2 0x2B92 JUMP JUMPDEST SWAP3 DUP3 PUSH2 0x1180 JUMPI JUMPDEST DUP4 PUSH2 0x10F5 JUMPI JUMPDEST SWAP5 PUSH1 0x2 PUSH1 0x60 SWAP7 JUMPDEST PUSH1 0x8 DUP2 ADD DUP1 SLOAD PUSH1 0xFF NOT AND SWAP1 SSTORE ADD SSTORE PUSH1 0x40 DUP1 MLOAD DUP6 DUP2 MSTORE PUSH1 0x20 DUP2 ADD SWAP3 SWAP1 SWAP3 MSTORE DUP2 ADD DUP3 SWAP1 MSTORE PUSH1 0x60 DUP2 ADD DUP4 SWAP1 MSTORE PUSH1 0x4 CALLDATALOAD SWAP1 PUSH32 0x1B5CD914BF77EE50DE90263F47D89967BBCE85A4EB078D958BFEE08DC0D0CDE7 SWAP1 PUSH1 0x80 SWAP1 LOG2 PUSH1 0x1 DUP1 SSTORE PUSH1 0x40 MLOAD SWAP3 DUP4 MSTORE PUSH1 0x20 DUP4 ADD MSTORE PUSH1 0x40 DUP3 ADD MSTORE RETURN JUMPDEST PUSH1 0x2 SLOAD DUP2 SLOAD PUSH1 0x40 MLOAD PUSH4 0xA9059CBB PUSH1 0xE0 SHL DUP2 MSTORE PUSH1 0x1 PUSH1 0x1 PUSH1 0xA0 SHL SUB SWAP2 DUP3 AND PUSH1 0x4 DUP3 ADD MSTORE PUSH1 0x24 DUP2 ADD DUP8 SWAP1 MSTORE SWAP2 PUSH1 0x20 SWAP2 DUP4 SWAP2 PUSH1 0x44 SWAP2 DUP4 SWAP2 DUP13 SWAP2 AND GAS CALL SWAP1 DUP2 ISZERO PUSH2 0x1175 JUMPI SWAP2 PUSH2 0x114D PUSH1 0x2 SWAP3 DUP10 SWAP5 PUSH1 0x60 SWAP11 SWAP2 PUSH2 0x1156 JUMPI JUMPDEST POP PUSH2 0x2C69 JUMP JUMPDEST SWAP2 SWAP7 POP POP PUSH2 0x1085 JUMP JUMPDEST PUSH2 0x116F SWAP2 POP PUSH1 0x20 RETURNDATASIZE PUSH1 0x20 GT PUSH2 0xDCE JUMPI PUSH2 0xDBF DUP2 DUP4 PUSH2 0x29A4 JUMP JUMPDEST CODESIZE PUSH2 0x1147 JUMP JUMPDEST PUSH1 0x40 MLOAD RETURNDATASIZE DUP10 DUP3 RETURNDATACOPY RETURNDATASIZE SWAP1 REVERT JUMPDEST PUSH1 0x2 SLOAD DUP7 SLOAD PUSH1 0x40 MLOAD PUSH4 0xA9059CBB PUSH1 0xE0 SHL DUP2 MSTORE PUSH1 0x1 PUSH1 0x1 PUSH1 0xA0 SHL SUB SWAP2 DUP3 AND PUSH1 0x4 DUP3 ADD MSTORE PUSH1 0x24 DUP2 ADD DUP7 SWAP1 MSTORE SWAP2 PUSH1 0x20 SWAP2 DUP4 SWAP2 PUSH1 0x44 SWAP2 DUP4 SWAP2 DUP13 SWAP2 AND GAS CALL SWAP1 DUP2 ISZERO PUSH2 0x1175 JUMPI DUP8 SWAP2 PUSH2 0x1207 JUMPI JUMPDEST POP PUSH2 0x107F JUMPI PUSH1 0x40 MLOAD PUSH3 0x461BCD PUSH1 0xE5 SHL DUP2 MSTORE PUSH1 0x20 PUSH1 0x4 DUP3 ADD MSTORE PUSH1 0x13 PUSH1 0x24 DUP3 ADD MSTORE PUSH19 0x119959481D1C985B9CD9995C8819985A5B1959 PUSH1 0x6A SHL PUSH1 0x44 DUP3 ADD MSTORE PUSH1 0x64 SWAP1 REVERT JUMPDEST PUSH2 0x1220 SWAP2 POP PUSH1 0x20 RETURNDATASIZE PUSH1 0x20 GT PUSH2 0xDCE JUMPI PUSH2 0xDBF DUP2 DUP4 PUSH2 0x29A4 JUMP JUMPDEST CODESIZE PUSH2 0x11C7 JUMP JUMPDEST PUSH4 0x4E487B71 PUSH1 0xE0 SHL DUP7 MSTORE PUSH1 0x11 PUSH1 0x4 MSTORE PUSH1 0x24 DUP7 REVERT JUMPDEST SWAP3 PUSH1 0x60 SWAP4 DUP2 PUSH1 0x2 DUP2 SWAP5 PUSH2 0x108C JUMP JUMPDEST PUSH2 0x1297 SWAP3 SWAP4 POP SWAP1 PUSH1 0x20 SWAP2 DUP1 DUP8 GT PUSH1 0x0 EQ PUSH2 0x132D JUMPI SWAP4 DUP5 SWAP2 JUMPDEST PUSH1 0x40 MLOAD PUSH4 0x95EA7B3 PUSH1 0xE0 SHL DUP2 MSTORE PUSH1 0x1 PUSH1 0x1 PUSH1 0xA0 SHL SUB SWAP1 SWAP2 AND PUSH1 0x4 DUP3 ADD MSTORE PUSH1 0x24 DUP2 ADD SWAP3 SWAP1 SWAP3 MSTORE SWAP1 SWAP3 DUP4 SWAP2 SWAP1 DUP3 SWAP1 DUP10 SWAP1 DUP3 SWAP1 PUSH1 0x44 DUP3 ADD SWAP1 JUMP JUMPDEST SUB SWAP3 GAS CALL DUP1 ISZERO PUSH2 0xDD5 JUMPI PUSH2 0x130E JUMPI JUMPDEST POP PUSH1 0x3 SLOAD PUSH1 0x40 DUP1 MLOAD PUSH4 0xD8AED145 PUSH1 0xE0 SHL DUP2 MSTORE PUSH1 0x4 DUP1 CALLDATALOAD SWAP1 DUP3 ADD MSTORE PUSH1 0x24 DUP2 ADD DUP5 SWAP1 MSTORE SWAP2 DUP3 SWAP1 PUSH1 0x44 SWAP1 DUP3 SWAP1 DUP10 SWAP1 PUSH1 0x1 PUSH1 0x1 PUSH1 0xA0 SHL SUB AND GAS CALL DUP1 ISZERO PUSH2 0xDD5 JUMPI PUSH2 0x12F0 JUMPI JUMPDEST POP CODESIZE DUP1 DUP1 PUSH2 0x1040 JUMP JUMPDEST PUSH2 0x1308 SWAP1 PUSH1 0x40 RETURNDATASIZE PUSH1 0x40 GT PUSH2 0xDA1 JUMPI PUSH2 0xD8F DUP2 DUP4 PUSH2 0x29A4 JUMP JUMPDEST POP PUSH2 0x12E7 JUMP JUMPDEST PUSH2 0x1326 SWAP1 PUSH1 0x20 RETURNDATASIZE PUSH1 0x20 GT PUSH2 0xDCE JUMPI PUSH2 0xDBF DUP2 DUP4 PUSH2 0x29A4 JUMP JUMPDEST POP CODESIZE PUSH2 0x12A6 JUMP JUMPDEST POP DUP6 SWAP4 DUP5 SWAP2 PUSH2 0x1260 JUMP JUMPDEST SWAP1 SWAP3 POP PUSH1 0x20 DUP2 RETURNDATASIZE PUSH1 0x20 GT PUSH2 0x1363 JUMPI JUMPDEST DUP2 PUSH2 0x1353 PUSH1 0x20 SWAP4 DUP4 PUSH2 0x29A4 JUMP JUMPDEST DUP2 ADD SUB SLT PUSH2 0xD65 JUMPI MLOAD SWAP2 CODESIZE PUSH2 0x1037 JUMP JUMPDEST RETURNDATASIZE SWAP2 POP PUSH2 0x1346 JUMP JUMPDEST PUSH1 0x40 MLOAD RETURNDATASIZE DUP9 DUP3 RETURNDATACOPY RETURNDATASIZE SWAP1 REVERT JUMPDEST PUSH1 0x40 MLOAD PUSH3 0x461BCD PUSH1 0xE5 SHL DUP2 MSTORE PUSH1 0x20 PUSH1 0x4 DUP3 ADD MSTORE PUSH1 0x11 PUSH1 0x24 DUP3 ADD MSTORE PUSH17 0x139BC81E5A595B19081C9958D95A5D9959 PUSH1 0x7A SHL PUSH1 0x44 DUP3 ADD MSTORE PUSH1 0x64 SWAP1 REVERT JUMPDEST POP PUSH1 0x20 DUP3 RETURNDATASIZE PUSH1 0x20 GT PUSH2 0x13DB JUMPI JUMPDEST DUP2 PUSH2 0x13C9 PUSH1 0x20 SWAP4 DUP4 PUSH2 0x29A4 JUMP JUMPDEST DUP2 ADD SUB SLT PUSH2 0xD65 JUMPI PUSH2 0xFF6 SWAP2 MLOAD PUSH2 0xFEC JUMP JUMPDEST RETURNDATASIZE SWAP2 POP PUSH2 0x13BC JUMP JUMPDEST PUSH1 0x40 MLOAD PUSH3 0x461BCD PUSH1 0xE5 SHL DUP2 MSTORE PUSH1 0x20 PUSH1 0x4 DUP3 ADD MSTORE PUSH1 0x17 PUSH1 0x24 DUP3 ADD MSTORE PUSH32 0x5969656C645661756C7420636C61696D206661696C6564000000000000000000 PUSH1 0x44 DUP3 ADD MSTORE PUSH1 0x64 SWAP1 REVERT JUMPDEST PUSH4 0x4E487B71 PUSH1 0xE0 SHL PUSH1 0x0 MSTORE PUSH1 0x41 PUSH1 0x4 MSTORE PUSH1 0x24 PUSH1 0x0 REVERT JUMPDEST POP PUSH2 0xFAF JUMP JUMPDEST SWAP1 SWAP2 POP PUSH1 0x20 DUP2 RETURNDATASIZE PUSH1 0x20 GT PUSH2 0x1470 JUMPI JUMPDEST DUP2 PUSH2 0x1460 PUSH1 0x20 SWAP4 DUP4 PUSH2 0x29A4 JUMP JUMPDEST DUP2 ADD SUB SLT PUSH2 0xD65 JUMPI MLOAD SWAP1 CODESIZE PUSH2 0xF21 JUMP JUMPDEST RETURNDATASIZE SWAP2 POP PUSH2 0x1453 JUMP JUMPDEST PUSH1 0x40 MLOAD RETURNDATASIZE DUP6 DUP3 RETURNDATACOPY RETURNDATASIZE SWAP1 REVERT JUMPDEST PUSH2 0x149B SWAP1 PUSH1 0x20 RETURNDATASIZE PUSH1 0x20 GT PUSH2 0xDCE JUMPI PUSH2 0xDBF DUP2 DUP4 PUSH2 0x29A4 JUMP JUMPDEST POP CODESIZE PUSH2 0xEE8 JUMP JUMPDEST PUSH1 0x40 MLOAD PUSH3 0x461BCD PUSH1 0xE5 SHL DUP2 MSTORE PUSH1 0x20 PUSH1 0x4 DUP3 ADD MSTORE PUSH1 0x12 PUSH1 0x24 DUP3 ADD MSTORE PUSH18 0x165A595B1915985D5B1D081B9BDD081CD95D PUSH1 0x72 SHL PUSH1 0x44 DUP3 ADD MSTORE PUSH1 0x64 SWAP1 REVERT JUMPDEST PUSH1 0x40 MLOAD PUSH3 0x461BCD PUSH1 0xE5 SHL DUP2 MSTORE PUSH1 0x20 PUSH1 0x4 DUP3 ADD MSTORE PUSH1 0x13 PUSH1 0x24 DUP3 ADD MSTORE PUSH19 0x4F6E6C7920666F722052574120746F6B656E73 PUSH1 0x68 SHL PUSH1 0x44 DUP3 ADD MSTORE PUSH1 0x64 SWAP1 REVERT JUMPDEST PUSH4 0x4E487B71 PUSH1 0xE0 SHL DUP4 MSTORE PUSH1 0x21 PUSH1 0x4 MSTORE PUSH1 0x24 DUP4 REVERT JUMPDEST POP CALLVALUE PUSH2 0x287 JUMPI PUSH1 0x20 CALLDATASIZE PUSH1 0x3 NOT ADD SLT PUSH2 0x287 JUMPI PUSH1 0x20 PUSH2 0x154A PUSH1 0x4 CALLDATALOAD PUSH2 0x2DFD JUMP JUMPDEST PUSH1 0x40 MLOAD SWAP1 DUP2 MSTORE RETURN JUMPDEST POP CALLVALUE PUSH2 0x287 JUMPI PUSH2 0x1561 CALLDATASIZE PUSH2 0x2856 JUMP JUMPDEST SWAP1 PUSH2 0x156A PUSH2 0x2A86 JUMP JUMPDEST DUP1 DUP4 MSTORE PUSH1 0x20 PUSH1 0x6 DUP2 MSTORE PUSH1 0x40 DUP5 KECCAK256 PUSH1 0x8 DUP2 ADD SWAP1 DUP2 SLOAD PUSH2 0x158A PUSH1 0xFF DUP3 AND PUSH2 0x2AA9 JUMP JUMPDEST DUP2 SLOAD PUSH1 0x1 PUSH1 0x1 PUSH1 0xA0 SHL SUB SWAP4 SWAP1 PUSH2 0x15A3 SWAP1 DUP6 AND CALLER EQ PUSH2 0x2AEB JUMP JUMPDEST PUSH2 0x15AE DUP8 ISZERO ISZERO PUSH2 0x28F9 JUMP JUMPDEST PUSH1 0x2 DUP4 ADD DUP1 SLOAD DUP1 DUP10 GT PUSH2 0x174D JUMPI PUSH1 0x24 DUP8 DUP8 PUSH1 0x3 SLOAD AND PUSH1 0x40 MLOAD SWAP3 DUP4 DUP1 SWAP3 PUSH4 0xD5595157 PUSH1 0xE0 SHL DUP3 MSTORE DUP14 PUSH1 0x4 DUP4 ADD MSTORE GAS STATICCALL SWAP1 DUP2 ISZERO PUSH2 0x1742 JUMPI DUP12 SWAP2 PUSH2 0x1715 JUMPI JUMPDEST POP PUSH2 0x16D0 JUMPI SWAP1 PUSH2 0x15FF DUP10 PUSH1 0x1 SWAP7 SWAP6 SWAP5 SWAP4 PUSH2 0x2B92 JUMP JUMPDEST DUP1 SWAP2 SSTORE ISZERO PUSH2 0x169D JUMPI JUMPDEST POP POP ADD SLOAD PUSH1 0x40 MLOAD PUSH4 0xA9059CBB PUSH1 0xE0 SHL DUP2 MSTORE CALLER PUSH1 0x4 DUP3 ADD MSTORE PUSH1 0x24 DUP2 ADD DUP7 SWAP1 MSTORE SWAP3 SWAP2 DUP3 SWAP2 DUP5 SWAP2 PUSH1 0x44 SWAP2 DUP4 SWAP2 DUP11 SWAP2 AND GAS CALL SWAP2 DUP3 ISZERO PUSH2 0xDD5 JUMPI PUSH32 0x7C5E5CB62E5ED3CAF3764E4B0AFEDFEDEF533E27809D43367799787AD2ABCD41 SWAP3 PUSH2 0x1670 SWAP2 DUP8 SWAP2 PUSH2 0x1680 JUMPI JUMPDEST POP PUSH2 0x29DE JUMP JUMPDEST PUSH1 0x40 MLOAD SWAP4 DUP5 MSTORE CALLER SWAP4 LOG3 PUSH1 0x1 DUP1 SSTORE DUP1 RETURN JUMPDEST PUSH2 0x1697 SWAP2 POP DUP4 RETURNDATASIZE DUP6 GT PUSH2 0xDCE JUMPI PUSH2 0xDBF DUP2 DUP4 PUSH2 0x29A4 JUMP JUMPDEST CODESIZE PUSH2 0x166A JUMP JUMPDEST PUSH1 0xFF NOT DUP1 SWAP3 AND SWAP1 SSTORE DUP6 DUP9 MSTORE PUSH1 0xA DUP6 MSTORE PUSH1 0x6 PUSH1 0x40 DUP10 KECCAK256 ADD SWAP1 DUP2 SLOAD PUSH1 0xFF DUP2 AND PUSH2 0x16C5 JUMPI JUMPDEST POP PUSH2 0x1608 JUMP JUMPDEST AND SWAP1 SSTORE CODESIZE DUP1 DUP1 PUSH2 0x16BF JUMP JUMPDEST PUSH1 0x40 MLOAD PUSH3 0x461BCD PUSH1 0xE5 SHL DUP2 MSTORE PUSH1 0x4 DUP2 ADD DUP9 SWAP1 MSTORE PUSH1 0x1F PUSH1 0x24 DUP3 ADD MSTORE PUSH32 0x4F75747374616E64696E672064656274206D7573742062652072657061696400 PUSH1 0x44 DUP3 ADD MSTORE PUSH1 0x64 SWAP1 REVERT JUMPDEST SWAP1 POP DUP8 DUP2 DUP2 RETURNDATASIZE DUP4 GT PUSH2 0x173B JUMPI JUMPDEST PUSH2 0x172C DUP2 DUP4 PUSH2 0x29A4 JUMP JUMPDEST DUP2 ADD SUB SLT PUSH2 0xD65 JUMPI MLOAD CODESIZE PUSH2 0x15EA JUMP JUMPDEST POP RETURNDATASIZE PUSH2 0x1722 JUMP JUMPDEST PUSH1 0x40 MLOAD RETURNDATASIZE DUP14 DUP3 RETURNDATACOPY RETURNDATASIZE SWAP1 REVERT JUMPDEST PUSH1 0x40 MLOAD PUSH3 0x461BCD PUSH1 0xE5 SHL DUP2 MSTORE PUSH1 0x4 DUP2 ADD DUP9 SWAP1 MSTORE PUSH1 0x17 PUSH1 0x24 DUP3 ADD MSTORE PUSH32 0x496E73756666696369656E7420636F6C6C61746572616C000000000000000000 PUSH1 0x44 DUP3 ADD MSTORE PUSH1 0x64 SWAP1 REVERT JUMPDEST POP CALLVALUE PUSH2 0x287 JUMPI DUP1 PUSH1 0x3 NOT CALLDATASIZE ADD SLT PUSH2 0x287 JUMPI PUSH1 0x20 PUSH1 0x40 MLOAD PUSH2 0x1B58 DUP2 MSTORE RETURN JUMPDEST POP CALLVALUE PUSH2 0x287 JUMPI PUSH1 0x20 CALLDATASIZE PUSH1 0x3 NOT ADD SLT PUSH2 0x287 JUMPI PUSH1 0x4 CALLDATALOAD PUSH2 0x17CC PUSH2 0x288F JUMP JUMPDEST DUP1 DUP3 MSTORE PUSH1 0x6 PUSH1 0x20 MSTORE PUSH2 0x17E7 PUSH1 0xFF PUSH1 0x8 PUSH1 0x40 DUP6 KECCAK256 ADD SLOAD AND PUSH2 0x2AA9 JUMP JUMPDEST DUP1 DUP3 MSTORE PUSH1 0xA PUSH1 0x20 MSTORE PUSH1 0x6 PUSH1 0x40 DUP4 KECCAK256 ADD PUSH2 0x100 DUP2 SLOAD PUSH2 0x1807 PUSH1 0xFF DUP3 AND PUSH2 0x2B9F JUMP JUMPDEST PUSH2 0xFF00 NOT AND OR SWAP1 SSTORE PUSH32 0x5493E4917872C4150C892F2053DB5BF546DA11D77AF31EFAAD0D13D956F56336 DUP3 DUP1 LOG2 DUP1 RETURN JUMPDEST POP CALLVALUE PUSH2 0x287 JUMPI DUP1 PUSH1 0x3 NOT CALLDATASIZE ADD SLT PUSH2 0x287 JUMPI PUSH2 0x184F PUSH2 0x288F JUMP JUMPDEST PUSH1 0x0 DUP1 SLOAD PUSH1 0x1 PUSH1 0x1 PUSH1 0xA0 SHL SUB NOT DUP2 AND DUP3 SSTORE PUSH1 0x1 PUSH1 0x1 PUSH1 0xA0 SHL SUB AND PUSH32 0x8BE0079C531659141344CD1FD0A4F28419497F9722A3DAAFE3B4186F6B6457E0 DUP3 DUP1 LOG3 DUP1 RETURN JUMPDEST POP CALLVALUE PUSH2 0x287 JUMPI PUSH1 0x20 CALLDATASIZE PUSH1 0x3 NOT ADD SLT PUSH2 0x287 JUMPI PUSH2 0x18AA PUSH2 0x2840 JUMP JUMPDEST PUSH2 0x18B2 PUSH2 0x288F JUMP JUMPDEST PUSH1 0x1 PUSH1 0x1 PUSH1 0xA0 SHL SUB AND PUSH2 0x18C6 DUP2 ISZERO ISZERO PUSH2 0x28BB JUMP JUMPDEST PUSH1 0x1 PUSH1 0x1 PUSH1 0x60 SHL SUB PUSH1 0xA0 SHL PUSH1 0x5 SLOAD AND OR PUSH1 0x5 SSTORE DUP1 RETURN JUMPDEST POP CALLVALUE PUSH2 0x287 JUMPI PUSH2 0x18EB CALLDATASIZE PUSH2 0x2856 JUMP JUMPDEST PUSH2 0x18F3 PUSH2 0x288F JUMP JUMPDEST PUSH2 0x18FB PUSH2 0x2A86 JUMP JUMPDEST DUP2 DUP4 MSTORE PUSH1 0x6 PUSH1 0x20 MSTORE PUSH1 0x40 DUP4 KECCAK256 SWAP1 PUSH1 0xFF PUSH1 0x8 DUP4 ADD SLOAD PUSH2 0x191A DUP3 DUP3 AND PUSH2 0x2AA9 JUMP JUMPDEST DUP5 DUP7 MSTORE PUSH1 0x8 PUSH1 0x20 MSTORE PUSH2 0x1931 DUP3 PUSH1 0x40 DUP9 KECCAK256 SLOAD AND PUSH2 0x2C1D JUMP JUMPDEST PUSH1 0x8 SHR AND PUSH1 0x2 DUP2 LT ISZERO PUSH2 0x1D4D JUMPI PUSH1 0x1 SUB PUSH2 0x1D08 JUMPI DUP1 ISZERO PUSH2 0x1CC3 JUMPI PUSH1 0x2 SLOAD PUSH1 0x40 MLOAD PUSH4 0x23B872DD PUSH1 0xE0 SHL DUP2 MSTORE CALLER PUSH1 0x4 DUP3 ADD MSTORE ADDRESS PUSH1 0x24 DUP3 ADD MSTORE PUSH1 0x44 DUP2 ADD DUP4 SWAP1 MSTORE SWAP1 PUSH1 0x20 SWAP1 DUP3 SWAP1 PUSH1 0x64 SWAP1 DUP3 SWAP1 DUP10 SWAP1 PUSH1 0x1 PUSH1 0x1 PUSH1 0xA0 SHL SUB AND GAS CALL DUP1 ISZERO PUSH2 0xDD5 JUMPI PUSH2 0x199C SWAP2 DUP7 SWAP2 PUSH2 0x1CAA JUMPI POP PUSH2 0x2B39 JUMP JUMPDEST PUSH1 0x1 DUP3 ADD SLOAD PUSH1 0x2 DUP4 ADD SLOAD PUSH1 0x40 MLOAD PUSH4 0xA9059CBB PUSH1 0xE0 SHL DUP2 MSTORE CALLER PUSH1 0x4 DUP3 ADD MSTORE PUSH1 0x24 DUP2 ADD SWAP2 SWAP1 SWAP2 MSTORE SWAP1 PUSH1 0x20 SWAP1 DUP3 SWAP1 PUSH1 0x44 SWAP1 DUP3 SWAP1 DUP10 SWAP1 PUSH1 0x1 PUSH1 0x1 PUSH1 0xA0 SHL SUB AND GAS CALL DUP1 ISZERO PUSH2 0xDD5 JUMPI PUSH2 0x19EF SWAP2 DUP7 SWAP2 PUSH2 0x1C91 JUMPI POP PUSH2 0x29DE JUMP JUMPDEST PUSH1 0x3 SLOAD PUSH1 0x40 MLOAD PUSH4 0xD5595157 PUSH1 0xE0 SHL DUP2 MSTORE PUSH1 0x4 DUP2 ADD DUP6 SWAP1 MSTORE SWAP4 SWAP1 PUSH1 0x1 PUSH1 0x1 PUSH1 0xA0 SHL SUB AND PUSH1 0x20 DUP6 PUSH1 0x24 DUP2 DUP5 GAS STATICCALL SWAP5 DUP6 ISZERO PUSH2 0x136B JUMPI DUP7 SWAP6 PUSH2 0x1C5D JUMPI JUMPDEST POP DUP6 SWAP5 DUP1 PUSH2 0x1B68 JUMPI JUMPDEST POP POP DUP4 DUP3 GT ISZERO PUSH2 0x1B58 JUMPI PUSH2 0x1A45 DUP5 DUP4 PUSH2 0x2B92 JUMP JUMPDEST SWAP4 PUSH2 0x3E8 DUP1 DUP7 MUL SWAP1 DUP7 DUP3 DIV EQ DUP7 ISZERO OR ISZERO PUSH2 0x1B44 JUMPI PUSH2 0x2710 PUSH2 0x1A68 SWAP2 DIV DUP1 SWAP7 PUSH2 0x2B92 JUMP JUMPDEST SWAP4 DUP5 PUSH2 0x1AD7 JUMPI JUMPDEST SWAP6 DUP1 PUSH1 0x2 PUSH1 0x40 SWAP9 JUMPDEST PUSH1 0xFF NOT PUSH1 0x8 DUP3 ADD SLOAD AND PUSH1 0x8 DUP3 ADD SSTORE ADD SSTORE DUP7 MLOAD SWAP4 DUP5 MSTORE PUSH1 0x20 DUP5 ADD MSTORE DUP6 DUP4 ADD MSTORE DUP4 PUSH1 0x60 DUP4 ADD MSTORE DUP3 PUSH1 0x80 DUP4 ADD MSTORE PUSH32 0xE8809F589FB6A4A715F089D80B78E1C37443064C63CAD260285284847C9FC4A3 PUSH1 0xA0 CALLER SWAP4 LOG3 PUSH1 0x1 DUP1 SSTORE DUP3 MLOAD SWAP2 DUP3 MSTORE PUSH1 0x20 DUP3 ADD MSTORE RETURN JUMPDEST PUSH1 0x2 SLOAD DUP2 SLOAD PUSH1 0x40 MLOAD PUSH4 0xA9059CBB PUSH1 0xE0 SHL DUP2 MSTORE PUSH1 0x1 PUSH1 0x1 PUSH1 0xA0 SHL SUB SWAP2 DUP3 AND PUSH1 0x4 DUP3 ADD MSTORE PUSH1 0x24 DUP2 ADD DUP9 SWAP1 MSTORE SWAP2 PUSH1 0x20 SWAP2 DUP4 SWAP2 PUSH1 0x44 SWAP2 DUP4 SWAP2 DUP14 SWAP2 AND GAS CALL SWAP1 DUP2 ISZERO PUSH2 0x1B39 JUMPI DUP9 SWAP3 PUSH2 0x1B2F DUP5 SWAP4 PUSH1 0x2 SWAP4 PUSH1 0x40 SWAP13 SWAP2 PUSH2 0x1156 JUMPI POP PUSH2 0x2C69 JUMP JUMPDEST SWAP3 POP POP SWAP7 POP PUSH2 0x1A6F JUMP JUMPDEST PUSH1 0x40 MLOAD RETURNDATASIZE DUP11 DUP3 RETURNDATACOPY RETURNDATASIZE SWAP1 REVERT JUMPDEST PUSH4 0x4E487B71 PUSH1 0xE0 SHL DUP8 MSTORE PUSH1 0x11 PUSH1 0x4 MSTORE PUSH1 0x24 DUP8 REVERT JUMPDEST DUP5 SWAP4 PUSH1 0x40 SWAP6 SWAP5 DUP1 PUSH1 0x2 DUP2 SWAP7 PUSH2 0x1A77 JUMP JUMPDEST SWAP2 SWAP5 POP SWAP1 DUP1 DUP4 GT ISZERO PUSH2 0x1C4F JUMPI PUSH1 0x20 PUSH2 0x1BBA SWAP2 DUP1 SWAP4 JUMPDEST PUSH1 0x2 SLOAD PUSH1 0x40 MLOAD PUSH4 0x95EA7B3 PUSH1 0xE0 SHL DUP2 MSTORE PUSH1 0x1 PUSH1 0x1 PUSH1 0xA0 SHL SUB SWAP3 DUP4 AND PUSH1 0x4 DUP3 ADD MSTORE PUSH1 0x24 DUP2 ADD SWAP4 SWAP1 SWAP4 MSTORE SWAP2 SWAP4 DUP5 SWAP3 SWAP1 SWAP2 AND SWAP1 DUP3 SWAP1 DUP11 SWAP1 DUP3 SWAP1 PUSH1 0x44 DUP3 ADD SWAP1 JUMP JUMPDEST SUB SWAP3 GAS CALL DUP1 ISZERO PUSH2 0x136B JUMPI PUSH2 0x1C30 JUMPI JUMPDEST POP PUSH1 0x3 SLOAD PUSH1 0x40 DUP1 MLOAD PUSH4 0xD8AED145 PUSH1 0xE0 SHL DUP2 MSTORE PUSH1 0x4 DUP2 ADD DUP8 SWAP1 MSTORE PUSH1 0x24 DUP2 ADD DUP5 SWAP1 MSTORE SWAP2 DUP3 SWAP1 PUSH1 0x44 SWAP1 DUP3 SWAP1 DUP11 SWAP1 PUSH1 0x1 PUSH1 0x1 PUSH1 0xA0 SHL SUB AND GAS CALL DUP1 ISZERO PUSH2 0x136B JUMPI PUSH2 0x1C12 JUMPI JUMPDEST POP SWAP3 CODESIZE DUP1 PUSH2 0x1A31 JUMP JUMPDEST PUSH2 0x1C2A SWAP1 PUSH1 0x40 RETURNDATASIZE PUSH1 0x40 GT PUSH2 0xDA1 JUMPI PUSH2 0xD8F DUP2 DUP4 PUSH2 0x29A4 JUMP JUMPDEST POP PUSH2 0x1C09 JUMP JUMPDEST PUSH2 0x1C48 SWAP1 PUSH1 0x20 RETURNDATASIZE PUSH1 0x20 GT PUSH2 0xDCE JUMPI PUSH2 0xDBF DUP2 DUP4 PUSH2 0x29A4 JUMP JUMPDEST POP CODESIZE PUSH2 0x1BC9 JUMP JUMPDEST POP PUSH2 0x1BBA PUSH1 0x20 DUP4 DUP1 SWAP4 PUSH2 0x1B7D JUMP JUMPDEST SWAP1 SWAP5 POP PUSH1 0x20 DUP2 RETURNDATASIZE PUSH1 0x20 GT PUSH2 0x1C89 JUMPI JUMPDEST DUP2 PUSH2 0x1C79 PUSH1 0x20 SWAP4 DUP4 PUSH2 0x29A4 JUMP JUMPDEST DUP2 ADD SUB SLT PUSH2 0xD65 JUMPI MLOAD SWAP4 CODESIZE PUSH2 0x1A28 JUMP JUMPDEST RETURNDATASIZE SWAP2 POP PUSH2 0x1C6C JUMP JUMPDEST PUSH2 0x1697 SWAP2 POP PUSH1 0x20 RETURNDATASIZE PUSH1 0x20 GT PUSH2 0xDCE JUMPI PUSH2 0xDBF DUP2 DUP4 PUSH2 0x29A4 JUMP JUMPDEST PUSH2 0xDF7 SWAP2 POP PUSH1 0x20 RETURNDATASIZE PUSH1 0x20 GT PUSH2 0xDCE JUMPI PUSH2 0xDBF DUP2 DUP4 PUSH2 0x29A4 JUMP JUMPDEST PUSH1 0x40 MLOAD PUSH3 0x461BCD PUSH1 0xE5 SHL DUP2 MSTORE PUSH1 0x20 PUSH1 0x4 DUP3 ADD MSTORE PUSH1 0x1B PUSH1 0x24 DUP3 ADD MSTORE PUSH32 0x507572636861736520616D6F756E74206D757374206265203E20300000000000 PUSH1 0x44 DUP3 ADD MSTORE PUSH1 0x64 SWAP1 REVERT JUMPDEST PUSH1 0x40 MLOAD PUSH3 0x461BCD PUSH1 0xE5 SHL DUP2 MSTORE PUSH1 0x20 PUSH1 0x4 DUP3 ADD MSTORE PUSH1 0x17 PUSH1 0x24 DUP3 ADD MSTORE PUSH32 0x4F6E6C7920666F72205072697661746520417373657473000000000000000000 PUSH1 0x44 DUP3 ADD MSTORE PUSH1 0x64 SWAP1 REVERT JUMPDEST PUSH4 0x4E487B71 PUSH1 0xE0 SHL DUP6 MSTORE PUSH1 0x21 PUSH1 0x4 MSTORE PUSH1 0x24 DUP6 REVERT JUMPDEST POP CALLVALUE PUSH2 0x287 JUMPI PUSH1 0x20 CALLDATASIZE PUSH1 0x3 NOT ADD SLT PUSH2 0x287 JUMPI PUSH1 0x4 CALLDATALOAD PUSH2 0x1D7E PUSH2 0x288F JUMP JUMPDEST DUP1 DUP3 MSTORE PUSH1 0x6 PUSH1 0x20 MSTORE PUSH1 0x40 DUP3 KECCAK256 PUSH2 0x1D9A PUSH1 0xFF PUSH1 0x8 DUP4 ADD SLOAD AND PUSH2 0x2AA9 JUMP JUMPDEST DUP2 DUP4 MSTORE PUSH1 0xA PUSH1 0x20 MSTORE DUP3 PUSH1 0x5 PUSH1 0x40 DUP3 KECCAK256 PUSH2 0x1DB9 PUSH1 0xFF PUSH1 0x6 DUP4 ADD SLOAD AND PUSH2 0x2B9F JUMP JUMPDEST ADD SWAP2 PUSH2 0x1DC5 DUP4 SLOAD PUSH2 0x2A22 JUMP JUMPDEST DUP4 SSTORE PUSH1 0x5 SLOAD PUSH1 0x1 PUSH1 0x1 PUSH1 0xA0 SHL SUB AND SWAP1 DUP2 ISZERO ISZERO DUP1 PUSH2 0x1E76 JUMPI JUMPDEST PUSH2 0x1E14 JUMPI JUMPDEST POP POP POP PUSH1 0x20 PUSH32 0xA4E6BDB946CAA62ACB20CEAAA9F9978DFBF773A0D764E6232B858BDB0920BFCA SWAP2 SLOAD PUSH1 0x40 MLOAD SWAP1 DUP2 MSTORE LOG2 DUP1 RETURN JUMPDEST PUSH1 0x7 ADD SLOAD DUP2 EXTCODESIZE ISZERO PUSH2 0xC9A JUMPI DUP3 SWAP2 PUSH1 0x84 DUP4 SWAP3 PUSH1 0x40 MLOAD SWAP5 DUP6 SWAP4 DUP5 SWAP3 PUSH4 0xF2F6818F PUSH1 0xE0 SHL DUP5 MSTORE PUSH1 0x4 DUP5 ADD MSTORE DUP2 PUSH1 0x24 DUP5 ADD MSTORE DUP2 PUSH1 0x44 DUP5 ADD MSTORE PUSH1 0x1 PUSH1 0x64 DUP5 ADD MSTORE GAS CALL DUP1 ISZERO PUSH2 0xC8F JUMPI PUSH2 0x1E62 JUMPI JUMPDEST DUP1 PUSH2 0x1DE2 JUMP JUMPDEST PUSH2 0x1E6B SWAP1 PUSH2 0x2974 JUMP JUMPDEST PUSH2 0xC9A JUMPI DUP3 CODESIZE PUSH2 0x1E5C JUMP JUMPDEST POP PUSH1 0x7 DUP2 ADD SLOAD ISZERO ISZERO PUSH2 0x1DDD JUMP JUMPDEST POP CALLVALUE PUSH2 0x287 JUMPI DUP1 PUSH1 0x3 NOT CALLDATASIZE ADD SLT PUSH2 0x287 JUMPI PUSH1 0x20 PUSH1 0x40 MLOAD PUSH2 0x3E8 DUP2 MSTORE RETURN JUMPDEST POP CALLVALUE PUSH2 0x287 JUMPI PUSH1 0x80 CALLDATASIZE PUSH1 0x3 NOT ADD SLT PUSH2 0x287 JUMPI PUSH1 0x4 CALLDATALOAD PUSH1 0x44 PUSH1 0x64 DUP1 CALLDATALOAD SWAP1 DUP3 CALLDATALOAD SWAP1 PUSH1 0x24 DUP1 CALLDATALOAD SWAP1 PUSH2 0x1ECC PUSH2 0x2A86 JUMP JUMPDEST DUP7 DUP9 MSTORE PUSH1 0x20 SWAP6 PUSH1 0x6 DUP8 MSTORE PUSH1 0x40 DUP10 KECCAK256 PUSH1 0x8 DUP2 ADD SLOAD SWAP3 PUSH2 0x1EEC PUSH1 0xFF DUP6 AND PUSH2 0x2AA9 JUMP JUMPDEST DUP2 SLOAD PUSH1 0x1 PUSH1 0x1 PUSH1 0xA0 SHL SUB SWAP5 SWAP1 PUSH2 0x1F05 SWAP1 DUP7 AND CALLER EQ PUSH2 0x2AEB JUMP JUMPDEST PUSH2 0x1F10 DUP7 ISZERO ISZERO PUSH2 0x28F9 JUMP JUMPDEST DUP8 ISZERO PUSH2 0x231B JUMPI DUP9 ISZERO PUSH2 0x22D9 JUMPI DUP9 DUP9 LT PUSH2 0x2297 JUMPI DUP11 DUP13 MSTORE PUSH1 0xA DUP11 MSTORE PUSH1 0x40 DUP13 KECCAK256 PUSH1 0x6 ADD SLOAD PUSH1 0xFF AND PUSH2 0x225F JUMPI PUSH1 0x8 SHR PUSH1 0xFF AND PUSH1 0x2 DUP2 LT ISZERO PUSH2 0x224C JUMPI PUSH2 0x223E JUMPI PUSH2 0x2710 PUSH2 0x1F60 PUSH2 0x1B58 JUMPDEST PUSH1 0x4 DUP6 ADD SLOAD PUSH2 0x2A53 JUMP JUMPDEST DIV SWAP6 PUSH1 0x3 DUP4 ADD SWAP7 PUSH2 0x1F72 DUP8 DUP10 SLOAD PUSH2 0x2B2C JUMP JUMPDEST GT PUSH2 0x220A JUMPI POP SWAP1 DUP8 SWAP5 SWAP4 SWAP3 SWAP2 PUSH1 0x1 DUP13 PUSH2 0x2023 PUSH1 0x6 DUP12 DUP16 DUP16 PUSH2 0x1F93 DUP14 DUP5 PUSH2 0x2A66 JUMP JUMPDEST SWAP13 DUP14 PUSH2 0x1F9F DUP2 TIMESTAMP PUSH2 0x2B2C JUMP JUMPDEST SWAP2 PUSH1 0x40 MLOAD SWAP6 PUSH2 0x1FAD DUP8 PUSH2 0x2957 JUMP JUMPDEST DUP7 MSTORE DUP4 DUP7 ADD SWAP1 DUP2 MSTORE PUSH1 0x40 DUP7 ADD SWAP2 DUP3 MSTORE PUSH1 0x60 DUP7 ADD SWAP3 DUP4 MSTORE PUSH1 0x40 DUP10 PUSH1 0xA PUSH1 0x80 DUP10 ADD SWAP7 DUP3 DUP9 MSTORE PUSH1 0xA0 DUP11 ADD SWAP9 DUP4 DUP11 MSTORE PUSH1 0xC0 DUP12 ADD SWAP15 DUP16 MSTORE PUSH1 0xE0 DUP12 ADD SWAP14 DUP15 MSTORE DUP4 MSTORE MSTORE KECCAK256 SWAP6 MLOAD DUP7 SSTORE MLOAD PUSH1 0x1 DUP7 ADD SSTORE MLOAD PUSH1 0x2 DUP6 ADD SSTORE MLOAD PUSH1 0x3 DUP5 ADD SSTORE MLOAD PUSH1 0x4 DUP4 ADD SSTORE MLOAD PUSH1 0x5 DUP3 ADD SSTORE ADD SWAP3 MLOAD ISZERO ISZERO DUP4 SWAP1 PUSH1 0xFF DUP1 NOT DUP4 SLOAD AND SWAP2 ISZERO ISZERO AND OR SWAP1 SSTORE JUMP JUMPDEST MLOAD DUP2 SLOAD PUSH2 0xFF00 NOT AND SWAP1 ISZERO ISZERO PUSH1 0x8 SHL PUSH2 0xFF00 AND OR SWAP1 SSTORE PUSH1 0x3 SLOAD DUP13 SWAP1 DUP6 AND DUP1 EXTCODESIZE ISZERO PUSH2 0x779 JUMPI DUP2 SWAP1 DUP6 DUP15 PUSH1 0x40 MLOAD SWAP5 DUP6 SWAP4 DUP5 SWAP3 PUSH4 0xECBCDAB PUSH1 0xE0 SHL DUP5 MSTORE PUSH1 0x4 DUP5 ADD MSTORE DUP12 DUP9 DUP5 ADD MSTORE GAS CALL DUP1 ISZERO PUSH2 0x21FF JUMPI PUSH2 0x21E4 JUMPI JUMPDEST POP SWAP1 DUP5 SWAP4 SWAP3 SWAP2 PUSH2 0x2085 DUP14 SWAP7 DUP10 SLOAD PUSH2 0x2B2C JUMP JUMPDEST DUP9 SSTORE DUP4 PUSH1 0x5 SLOAD AND SWAP2 DUP3 ISZERO ISZERO DUP1 PUSH2 0x21D7 JUMPI JUMPDEST PUSH2 0x217D JUMPI JUMPDEST POP POP PUSH1 0x2 SLOAD PUSH1 0x40 MLOAD PUSH4 0xA9059CBB PUSH1 0xE0 SHL DUP2 MSTORE CALLER PUSH1 0x4 DUP3 ADD MSTORE PUSH1 0x24 DUP2 ADD DUP7 SWAP1 MSTORE SWAP4 DUP12 SWAP4 POP DUP5 SWAP3 POP PUSH1 0x44 SWAP2 DUP4 SWAP2 DUP9 SWAP2 AND GAS CALL SWAP2 DUP3 ISZERO PUSH2 0x1478 JUMPI PUSH32 0xDD4271A412A769F5ED0FE9B4B7C386BBA5F674B53B01F0C0DAB8A378C2991BB9 SWAP9 PUSH2 0xC11 SWAP7 PUSH2 0x212D PUSH32 0x902160BBFEE2201AA09B6B057B6F0B7D0F633B2BDEFC04E987882DF4AEFD29C SWAP6 PUSH1 0x40 SWAP6 DUP15 SWAP9 SWAP2 PUSH2 0x2166 JUMPI POP PUSH2 0x2B39 JUMP JUMPDEST SLOAD SWAP1 DUP4 MLOAD SWAP3 DUP4 MSTORE DUP3 ADD MSTORE LOG2 PUSH2 0x2142 DUP2 TIMESTAMP PUSH2 0x2B2C JUMP JUMPDEST SWAP1 PUSH1 0x40 MLOAD SWAP5 DUP6 SWAP5 DUP6 SWAP1 SWAP5 SWAP4 SWAP3 PUSH1 0x60 SWAP3 PUSH1 0x80 DUP4 ADD SWAP7 DUP4 MSTORE PUSH1 0x20 DUP4 ADD MSTORE PUSH1 0x40 DUP3 ADD MSTORE ADD MSTORE JUMP JUMPDEST PUSH2 0xDF7 SWAP2 POP DUP5 RETURNDATASIZE DUP7 GT PUSH2 0xDCE JUMPI PUSH2 0xDBF DUP2 DUP4 PUSH2 0x29A4 JUMP JUMPDEST PUSH1 0x7 ADD SLOAD SWAP3 DUP3 EXTCODESIZE ISZERO PUSH2 0x21D3 JUMPI DUP6 SWAP4 DUP8 DUP1 SWAP5 PUSH1 0x40 MLOAD SWAP7 DUP8 SWAP6 DUP7 SWAP5 PUSH4 0x65A1782F PUSH1 0xE0 SHL DUP7 MSTORE PUSH1 0x4 DUP7 ADD MSTORE DUP5 ADD MSTORE GAS CALL SWAP1 DUP2 ISZERO PUSH2 0xCF7 JUMPI DUP5 SWAP2 PUSH2 0x21BF JUMPI JUMPDEST DUP1 DUP1 PUSH2 0x209B JUMP JUMPDEST PUSH2 0x21C8 SWAP1 PUSH2 0x2974 JUMP JUMPDEST PUSH2 0xC9A JUMPI DUP3 CODESIZE PUSH2 0x21B8 JUMP JUMPDEST DUP7 DUP1 REVERT JUMPDEST POP PUSH1 0x7 DUP2 ADD SLOAD ISZERO ISZERO PUSH2 0x2096 JUMP JUMPDEST PUSH2 0x21F4 SWAP1 SWAP13 SWAP2 SWAP6 SWAP5 SWAP4 SWAP3 SWAP13 PUSH2 0x2974 JUMP JUMPDEST SWAP11 SWAP1 SWAP2 SWAP3 SWAP4 CODESIZE PUSH2 0x2073 JUMP JUMPDEST PUSH1 0x40 MLOAD RETURNDATASIZE DUP16 DUP3 RETURNDATACOPY RETURNDATASIZE SWAP1 REVERT JUMPDEST PUSH1 0x40 MLOAD PUSH3 0x461BCD PUSH1 0xE5 SHL DUP2 MSTORE PUSH1 0x4 DUP2 ADD DUP12 SWAP1 MSTORE PUSH1 0x11 DUP2 DUP5 ADD MSTORE PUSH17 0x115E18D959591CC8131515881B1A5B5A5D PUSH1 0x7A SHL DUP2 DUP7 ADD MSTORE REVERT JUMPDEST PUSH2 0x2710 PUSH2 0x1F60 PUSH2 0x1770 PUSH2 0x1F56 JUMP JUMPDEST POP PUSH4 0x4E487B71 PUSH1 0xE0 SHL DUP12 MSTORE PUSH1 0x21 PUSH1 0x4 MSTORE DUP11 REVERT JUMPDEST PUSH1 0x40 MLOAD PUSH3 0x461BCD PUSH1 0xE5 SHL DUP2 MSTORE PUSH1 0x4 DUP2 ADD DUP12 SWAP1 MSTORE PUSH1 0x13 DUP2 DUP5 ADD MSTORE PUSH19 0x506C616E20616C726561647920616374697665 PUSH1 0x68 SHL DUP2 DUP7 ADD MSTORE DUP8 SWAP1 REVERT JUMPDEST PUSH1 0x40 MLOAD PUSH3 0x461BCD PUSH1 0xE5 SHL DUP2 MSTORE PUSH1 0x4 DUP2 ADD DUP12 SWAP1 MSTORE PUSH1 0x1D DUP2 DUP5 ADD MSTORE PUSH32 0x496E76616C6964206475726174696F6E2F696E7374616C6C6D656E7473000000 DUP2 DUP7 ADD MSTORE DUP8 SWAP1 REVERT JUMPDEST PUSH1 0x40 MLOAD PUSH3 0x461BCD PUSH1 0xE5 SHL DUP2 MSTORE PUSH1 0x4 DUP2 ADD DUP12 SWAP1 MSTORE PUSH1 0x18 DUP2 DUP5 ADD MSTORE PUSH32 0x496E7374616C6C6D656E7473206D757374206265203E20300000000000000000 DUP2 DUP7 ADD MSTORE DUP8 SWAP1 REVERT JUMPDEST PUSH1 0x40 MLOAD PUSH3 0x461BCD PUSH1 0xE5 SHL DUP2 MSTORE PUSH1 0x4 DUP2 ADD DUP12 SWAP1 MSTORE PUSH1 0x14 DUP2 DUP5 ADD MSTORE PUSH20 0x4475726174696F6E206D757374206265203E203 PUSH1 0x64 SHL DUP2 DUP7 ADD MSTORE DUP8 SWAP1 REVERT JUMPDEST POP CALLVALUE PUSH2 0x287 JUMPI DUP1 PUSH1 0x3 NOT CALLDATASIZE ADD SLT PUSH2 0x287 JUMPI PUSH1 0x2 SLOAD PUSH1 0x40 MLOAD PUSH1 0x1 PUSH1 0x1 PUSH1 0xA0 SHL SUB SWAP1 SWAP2 AND DUP2 MSTORE PUSH1 0x20 SWAP1 RETURN JUMPDEST POP CALLVALUE PUSH2 0x287 JUMPI DUP1 PUSH1 0x3 NOT CALLDATASIZE ADD SLT PUSH2 0x287 JUMPI PUSH1 0x5 SLOAD PUSH1 0x40 MLOAD PUSH1 0x1 PUSH1 0x1 PUSH1 0xA0 SHL SUB SWAP1 SWAP2 AND DUP2 MSTORE PUSH1 0x20 SWAP1 RETURN JUMPDEST POP CALLVALUE PUSH2 0x287 JUMPI DUP1 PUSH1 0x3 NOT CALLDATASIZE ADD SLT PUSH2 0x287 JUMPI PUSH1 0x4 SLOAD PUSH1 0x40 MLOAD PUSH1 0x1 PUSH1 0x1 PUSH1 0xA0 SHL SUB SWAP1 SWAP2 AND DUP2 MSTORE PUSH1 0x20 SWAP1 RETURN JUMPDEST POP CALLVALUE PUSH2 0x287 JUMPI PUSH1 0x20 CALLDATASIZE PUSH1 0x3 NOT ADD SLT PUSH2 0x287 JUMPI PUSH1 0x20 PUSH2 0x154A PUSH1 0x4 CALLDATALOAD PUSH2 0x2CAE JUMP JUMPDEST POP CALLVALUE PUSH2 0x287 JUMPI PUSH1 0x20 CALLDATASIZE PUSH1 0x3 NOT ADD SLT PUSH2 0x287 JUMPI PUSH1 0xFF PUSH1 0x40 PUSH1 0x20 SWAP3 PUSH1 0x4 CALLDATALOAD DUP2 MSTORE PUSH1 0x8 DUP5 MSTORE KECCAK256 SLOAD AND PUSH1 0x40 MLOAD SWAP1 ISZERO ISZERO DUP2 MSTORE RETURN JUMPDEST POP CALLVALUE PUSH2 0x287 JUMPI PUSH1 0x20 CALLDATASIZE PUSH1 0x3 NOT ADD SLT PUSH2 0x287 JUMPI PUSH2 0x2437 PUSH2 0x2840 JUMP JUMPDEST PUSH2 0x243F PUSH2 0x288F JUMP JUMPDEST PUSH1 0x1 PUSH1 0x1 PUSH1 0xA0 SHL SUB AND PUSH2 0x2453 DUP2 ISZERO ISZERO PUSH2 0x28BB JUMP JUMPDEST PUSH1 0x1 PUSH1 0x1 PUSH1 0x60 SHL SUB PUSH1 0xA0 SHL PUSH1 0x9 SLOAD AND OR PUSH1 0x9 SSTORE DUP1 RETURN JUMPDEST POP CALLVALUE PUSH2 0x287 JUMPI PUSH1 0xA0 CALLDATASIZE PUSH1 0x3 NOT ADD SLT PUSH2 0x287 JUMPI PUSH2 0x2483 PUSH2 0x2840 JUMP JUMPDEST PUSH1 0x2 PUSH1 0x64 CALLDATALOAD LT ISZERO PUSH2 0x779 JUMPI PUSH1 0x84 CALLDATALOAD ISZERO ISZERO PUSH1 0x84 CALLDATALOAD SUB PUSH2 0x779 JUMPI PUSH2 0x24A3 PUSH2 0x2A86 JUMP JUMPDEST PUSH1 0x1 PUSH1 0x1 PUSH1 0xA0 SHL SUB DUP2 AND ISZERO PUSH2 0x280B JUMPI PUSH2 0x24BF PUSH1 0x24 CALLDATALOAD ISZERO ISZERO PUSH2 0x28F9 JUMP JUMPDEST PUSH1 0x44 CALLDATALOAD ISZERO PUSH2 0x27CE JUMPI PUSH1 0x40 MLOAD PUSH4 0x23B872DD PUSH1 0xE0 SHL DUP2 MSTORE CALLER PUSH1 0x4 DUP3 ADD MSTORE ADDRESS PUSH1 0x24 DUP1 DUP4 ADD SWAP2 SWAP1 SWAP2 MSTORE CALLDATALOAD PUSH1 0x44 DUP3 ADD MSTORE PUSH1 0x20 DUP2 PUSH1 0x64 DUP2 DUP7 PUSH1 0x1 PUSH1 0x1 PUSH1 0xA0 SHL SUB DUP8 AND GAS CALL DUP1 ISZERO PUSH2 0x1478 JUMPI PUSH2 0x2513 SWAP2 DUP5 SWAP2 PUSH2 0x1C91 JUMPI POP PUSH2 0x29DE JUMP JUMPDEST PUSH1 0x7 SLOAD SWAP1 PUSH2 0x2520 DUP3 PUSH2 0x2A22 JUMP JUMPDEST PUSH1 0x7 SSTORE PUSH1 0x40 MLOAD PUSH2 0x252F DUP2 PUSH2 0x293A JUMP JUMPDEST CALLER DUP2 MSTORE PUSH1 0x1 PUSH1 0x1 PUSH1 0xA0 SHL SUB DUP3 AND PUSH1 0x20 DUP3 ADD MSTORE PUSH1 0x24 CALLDATALOAD PUSH1 0x40 DUP3 ADD MSTORE PUSH1 0x60 DUP2 ADD DUP5 SWAP1 MSTORE PUSH1 0x44 CALLDATALOAD PUSH1 0x80 DUP3 ADD MSTORE TIMESTAMP PUSH1 0xA0 DUP3 ADD MSTORE PUSH1 0xC0 DUP2 ADD DUP5 SWAP1 MSTORE PUSH1 0xE0 DUP2 ADD DUP5 SWAP1 MSTORE PUSH1 0x1 PUSH2 0x100 DUP3 ADD MSTORE PUSH2 0x120 DUP2 ADD PUSH2 0x2585 PUSH1 0x64 CALLDATALOAD DUP3 PUSH2 0x2A47 JUMP JUMPDEST DUP4 DUP6 MSTORE PUSH1 0x6 PUSH1 0x20 MSTORE PUSH2 0x2623 PUSH2 0x100 PUSH1 0x8 PUSH1 0x40 DUP9 KECCAK256 PUSH1 0x1 DUP1 PUSH1 0xA0 SHL SUB DUP7 MLOAD AND PUSH1 0x1 PUSH1 0x1 PUSH1 0x60 SHL SUB PUSH1 0xA0 SHL SWAP1 DUP2 DUP4 SLOAD AND OR DUP3 SSTORE PUSH1 0x1 DUP3 ADD SWAP1 PUSH1 0x1 DUP1 PUSH1 0xA0 SHL SUB PUSH1 0x20 DUP10 ADD MLOAD AND SWAP1 DUP3 SLOAD AND OR SWAP1 SSTORE PUSH1 0x40 DUP7 ADD MLOAD PUSH1 0x2 DUP3 ADD SSTORE PUSH1 0x60 DUP7 ADD MLOAD PUSH1 0x3 DUP3 ADD SSTORE PUSH1 0x80 DUP7 ADD MLOAD PUSH1 0x4 DUP3 ADD SSTORE PUSH1 0xA0 DUP7 ADD MLOAD PUSH1 0x5 DUP3 ADD SSTORE PUSH1 0xC0 DUP7 ADD MLOAD PUSH1 0x6 DUP3 ADD SSTORE PUSH1 0xE0 DUP7 ADD MLOAD PUSH1 0x7 DUP3 ADD SSTORE ADD SWAP4 ADD MLOAD ISZERO ISZERO DUP4 SWAP1 PUSH1 0xFF DUP1 NOT DUP4 SLOAD AND SWAP2 ISZERO ISZERO AND OR SWAP1 SSTORE JUMP JUMPDEST MLOAD PUSH1 0x2 DUP2 LT ISZERO PUSH2 0x1D4D JUMPI PUSH2 0xFF00 DUP3 SLOAD SWAP2 PUSH1 0x8 SHL AND SWAP1 PUSH2 0xFF00 NOT AND OR SWAP1 SSTORE PUSH1 0x40 MLOAD PUSH1 0x1 DUP1 PUSH1 0xA0 SHL SUB DUP3 AND DUP2 MSTORE PUSH1 0x24 CALLDATALOAD PUSH1 0x20 DUP3 ADD MSTORE PUSH1 0x44 CALLDATALOAD PUSH1 0x40 DUP3 ADD MSTORE PUSH2 0x266D PUSH1 0x60 DUP3 ADD PUSH1 0x64 CALLDATALOAD PUSH2 0x286C JUMP JUMPDEST DUP3 PUSH32 0x93CB2591720FA23E5A51A39BF9D35B6A4E5CB6C11BEAE435C41E4482F3A30D21 PUSH1 0x80 CALLER SWAP4 LOG3 PUSH1 0x84 CALLDATALOAD DUP1 PUSH2 0x27BA JUMPI JUMPDEST PUSH2 0x26B1 JUMPI JUMPDEST PUSH1 0x20 DUP3 PUSH1 0x1 DUP1 SSTORE PUSH1 0x40 MLOAD SWAP1 DUP2 MSTORE RETURN JUMPDEST PUSH1 0x64 CALLDATALOAD PUSH2 0x27A9 JUMPI DUP3 PUSH1 0x20 PUSH2 0x2710 PUSH2 0x26CD PUSH2 0x1B58 JUMPDEST PUSH1 0x44 CALLDATALOAD PUSH2 0x2A53 JUMP JUMPDEST DIV SWAP3 PUSH1 0xA4 PUSH1 0x1 DUP1 PUSH1 0xA0 SHL SUB PUSH1 0x5 SLOAD AND SWAP2 PUSH1 0x40 MLOAD SWAP8 DUP9 SWAP4 DUP5 SWAP3 PUSH4 0x7190CAEB PUSH1 0xE1 SHL DUP5 MSTORE CALLER PUSH1 0x4 DUP6 ADD MSTORE PUSH1 0x1 DUP1 PUSH1 0xA0 SHL SUB AND PUSH1 0x24 DUP5 ADD MSTORE PUSH1 0x24 CALLDATALOAD PUSH1 0x44 DUP5 ADD MSTORE PUSH1 0x44 CALLDATALOAD PUSH1 0x64 DUP5 ADD MSTORE DUP9 PUSH1 0x84 DUP5 ADD MSTORE GAS CALL SWAP4 DUP5 ISZERO PUSH2 0x76C JUMPI DUP2 SWAP5 PUSH2 0x2770 JUMPI JUMPDEST POP PUSH1 0x40 DUP5 DUP5 SWAP4 PUSH1 0x20 SWAP7 PUSH1 0x7 DUP5 DUP7 DUP9 PUSH32 0xF71BF80FA0A269E5FDBE7113CC01A1ADA492208F97E2857213258755D0CBBB5E SWAP9 MSTORE PUSH1 0x6 DUP12 MSTORE KECCAK256 ADD SSTORE DUP3 MLOAD SWAP2 DUP3 MSTORE DUP7 DUP3 ADD MSTORE LOG2 CODESIZE PUSH2 0x26A2 JUMP JUMPDEST SWAP1 SWAP4 POP PUSH1 0x20 DUP2 RETURNDATASIZE PUSH1 0x20 GT PUSH2 0x27A1 JUMPI JUMPDEST DUP2 PUSH2 0x278C PUSH1 0x20 SWAP4 DUP4 PUSH2 0x29A4 JUMP JUMPDEST DUP2 ADD SUB SLT PUSH2 0x279D JUMPI MLOAD SWAP3 PUSH1 0x40 PUSH2 0x2728 JUMP JUMPDEST DUP4 DUP1 REVERT JUMPDEST RETURNDATASIZE SWAP2 POP PUSH2 0x277F JUMP JUMPDEST DUP3 PUSH1 0x20 PUSH2 0x2710 PUSH2 0x26CD PUSH2 0x1770 PUSH2 0x26C5 JUMP JUMPDEST POP PUSH1 0x5 SLOAD PUSH1 0x1 PUSH1 0x1 PUSH1 0xA0 SHL SUB AND ISZERO ISZERO PUSH2 0x269D JUMP JUMPDEST PUSH1 0x40 MLOAD PUSH3 0x461BCD PUSH1 0xE5 SHL DUP2 MSTORE PUSH1 0x20 PUSH1 0x4 DUP3 ADD MSTORE PUSH1 0x15 PUSH1 0x24 DUP3 ADD MSTORE PUSH21 0x56616C756174696F6E206D757374206265203E203 PUSH1 0x5C SHL PUSH1 0x44 DUP3 ADD MSTORE PUSH1 0x64 SWAP1 REVERT JUMPDEST PUSH1 0x40 MLOAD PUSH3 0x461BCD PUSH1 0xE5 SHL DUP2 MSTORE PUSH1 0x20 PUSH1 0x4 DUP3 ADD MSTORE PUSH1 0xD PUSH1 0x24 DUP3 ADD MSTORE PUSH13 0x24B73B30B634B2103A37B5B2B7 PUSH1 0x99 SHL PUSH1 0x44 DUP3 ADD MSTORE PUSH1 0x64 SWAP1 REVERT JUMPDEST PUSH1 0x4 CALLDATALOAD SWAP1 PUSH1 0x1 PUSH1 0x1 PUSH1 0xA0 SHL SUB DUP3 AND DUP3 SUB PUSH2 0xD65 JUMPI JUMP JUMPDEST PUSH1 0x40 SWAP1 PUSH1 0x3 NOT ADD SLT PUSH2 0xD65 JUMPI PUSH1 0x4 CALLDATALOAD SWAP1 PUSH1 0x24 CALLDATALOAD SWAP1 JUMP JUMPDEST SWAP1 PUSH1 0x2 DUP3 LT ISZERO PUSH2 0x2879 JUMPI MSTORE JUMP JUMPDEST PUSH4 0x4E487B71 PUSH1 0xE0 SHL PUSH1 0x0 MSTORE PUSH1 0x21 PUSH1 0x4 MSTORE PUSH1 0x24 PUSH1 0x0 REVERT JUMPDEST PUSH1 0x0 SLOAD PUSH1 0x1 PUSH1 0x1 PUSH1 0xA0 SHL SUB AND CALLER SUB PUSH2 0x28A3 JUMPI JUMP JUMPDEST PUSH1 0x40 MLOAD PUSH4 0x118CDAA7 PUSH1 0xE0 SHL DUP2 MSTORE CALLER PUSH1 0x4 DUP3 ADD MSTORE PUSH1 0x24 SWAP1 REVERT JUMPDEST ISZERO PUSH2 0x28C2 JUMPI JUMP JUMPDEST PUSH1 0x40 MLOAD PUSH3 0x461BCD PUSH1 0xE5 SHL DUP2 MSTORE PUSH1 0x20 PUSH1 0x4 DUP3 ADD MSTORE PUSH1 0xF PUSH1 0x24 DUP3 ADD MSTORE PUSH15 0x496E76616C69642061646472657373 PUSH1 0x88 SHL PUSH1 0x44 DUP3 ADD MSTORE PUSH1 0x64 SWAP1 REVERT JUMPDEST ISZERO PUSH2 0x2900 JUMPI JUMP JUMPDEST PUSH1 0x40 MLOAD PUSH3 0x461BCD PUSH1 0xE5 SHL DUP2 MSTORE PUSH1 0x20 PUSH1 0x4 DUP3 ADD MSTORE PUSH1 0x12 PUSH1 0x24 DUP3 ADD MSTORE PUSH18 0x416D6F756E74206D757374206265203E203 PUSH1 0x74 SHL PUSH1 0x44 DUP3 ADD MSTORE PUSH1 0x64 SWAP1 REVERT JUMPDEST PUSH2 0x140 DUP2 ADD SWAP1 DUP2 LT PUSH8 0xFFFFFFFFFFFFFFFF DUP3 GT OR PUSH2 0x1428 JUMPI PUSH1 0x40 MSTORE JUMP JUMPDEST PUSH2 0x100 DUP2 ADD SWAP1 DUP2 LT PUSH8 0xFFFFFFFFFFFFFFFF DUP3 GT OR PUSH2 0x1428 JUMPI PUSH1 0x40 MSTORE JUMP JUMPDEST PUSH8 0xFFFFFFFFFFFFFFFF DUP2 GT PUSH2 0x1428 JUMPI PUSH1 0x40 MSTORE JUMP JUMPDEST PUSH1 0x60 DUP2 ADD SWAP1 DUP2 LT PUSH8 0xFFFFFFFFFFFFFFFF DUP3 GT OR PUSH2 0x1428 JUMPI PUSH1 0x40 MSTORE JUMP JUMPDEST SWAP1 PUSH1 0x1F DUP1 NOT SWAP2 ADD AND DUP2 ADD SWAP1 DUP2 LT PUSH8 0xFFFFFFFFFFFFFFFF DUP3 GT OR PUSH2 0x1428 JUMPI PUSH1 0x40 MSTORE JUMP JUMPDEST SWAP1 DUP2 PUSH1 0x20 SWAP2 SUB SLT PUSH2 0xD65 JUMPI MLOAD DUP1 ISZERO ISZERO DUP2 SUB PUSH2 0xD65 JUMPI SWAP1 JUMP JUMPDEST ISZERO PUSH2 0x29E5 JUMPI JUMP JUMPDEST PUSH1 0x40 MLOAD PUSH3 0x461BCD PUSH1 0xE5 SHL DUP2 MSTORE PUSH1 0x20 PUSH1 0x4 DUP3 ADD MSTORE PUSH1 0x15 PUSH1 0x24 DUP3 ADD MSTORE PUSH21 0x151BDAD95B881D1C985B9CD9995C8819985A5B1959 PUSH1 0x5A SHL PUSH1 0x44 DUP3 ADD MSTORE PUSH1 0x64 SWAP1 REVERT JUMPDEST PUSH1 0x0 NOT DUP2 EQ PUSH2 0x2A31 JUMPI PUSH1 0x1 ADD SWAP1 JUMP JUMPDEST PUSH4 0x4E487B71 PUSH1 0xE0 SHL PUSH1 0x0 MSTORE PUSH1 0x11 PUSH1 0x4 MSTORE PUSH1 0x24 PUSH1 0x0 REVERT JUMPDEST PUSH1 0x2 DUP3 LT ISZERO PUSH2 0x2879 JUMPI MSTORE JUMP JUMPDEST DUP2 DUP2 MUL SWAP3 SWAP2 DUP2 ISZERO SWAP2 DUP5 DIV EQ OR ISZERO PUSH2 0x2A31 JUMPI JUMP JUMPDEST DUP2 ISZERO PUSH2 0x2A70 JUMPI DIV SWAP1 JUMP JUMPDEST PUSH4 0x4E487B71 PUSH1 0xE0 SHL PUSH1 0x0 MSTORE PUSH1 0x12 PUSH1 0x4 MSTORE PUSH1 0x24 PUSH1 0x0 REVERT JUMPDEST PUSH1 0x2 PUSH1 0x1 SLOAD EQ PUSH2 0x2A97 JUMPI PUSH1 0x2 PUSH1 0x1 SSTORE JUMP JUMPDEST PUSH1 0x40 MLOAD PUSH4 0x3EE5AEB5 PUSH1 0xE0 SHL DUP2 MSTORE PUSH1 0x4 SWAP1 REVERT JUMPDEST ISZERO PUSH2 0x2AB0 JUMPI JUMP JUMPDEST PUSH1 0x40 MLOAD PUSH3 0x461BCD PUSH1 0xE5 SHL DUP2 MSTORE PUSH1 0x20 PUSH1 0x4 DUP3 ADD MSTORE PUSH1 0x13 PUSH1 0x24 DUP3 ADD MSTORE PUSH19 0x506F736974696F6E206E6F7420616374697665 PUSH1 0x68 SHL PUSH1 0x44 DUP3 ADD MSTORE PUSH1 0x64 SWAP1 REVERT JUMPDEST ISZERO PUSH2 0x2AF2 JUMPI JUMP JUMPDEST PUSH1 0x40 MLOAD PUSH3 0x461BCD PUSH1 0xE5 SHL DUP2 MSTORE PUSH1 0x20 PUSH1 0x4 DUP3 ADD MSTORE PUSH1 0x12 PUSH1 0x24 DUP3 ADD MSTORE PUSH18 0x2737BA103837B9B4BA34B7B71037BBB732B9 PUSH1 0x71 SHL PUSH1 0x44 DUP3 ADD MSTORE PUSH1 0x64 SWAP1 REVERT JUMPDEST SWAP2 SWAP1 DUP3 ADD DUP1 SWAP3 GT PUSH2 0x2A31 JUMPI JUMP JUMPDEST ISZERO PUSH2 0x2B40 JUMPI JUMP JUMPDEST PUSH1 0x40 MLOAD PUSH3 0x461BCD PUSH1 0xE5 SHL DUP2 MSTORE PUSH1 0x20 PUSH1 0x4 DUP3 ADD MSTORE PUSH1 0x14 PUSH1 0x24 DUP3 ADD MSTORE PUSH20 0x1554D110C81D1C985B9CD9995C8819985A5B1959 PUSH1 0x62 SHL PUSH1 0x44 DUP3 ADD MSTORE PUSH1 0x64 SWAP1 REVERT JUMPDEST SWAP2 SWAP1 DUP3 PUSH1 0x40 SWAP2 SUB SLT PUSH2 0xD65 JUMPI PUSH1 0x20 DUP3 MLOAD SWAP3 ADD MLOAD SWAP1 JUMP JUMPDEST SWAP2 SWAP1 DUP3 SUB SWAP2 DUP3 GT PUSH2 0x2A31 JUMPI JUMP JUMPDEST ISZERO PUSH2 0x2BA6 JUMPI JUMP JUMPDEST PUSH1 0x40 MLOAD PUSH3 0x461BCD PUSH1 0xE5 SHL DUP2 MSTORE PUSH1 0x20 PUSH1 0x4 DUP3 ADD MSTORE PUSH1 0xF PUSH1 0x24 DUP3 ADD MSTORE PUSH15 0x506C616E206E6F7420616374697665 PUSH1 0x88 SHL PUSH1 0x44 DUP3 ADD MSTORE PUSH1 0x64 SWAP1 REVERT JUMPDEST SWAP2 SWAP1 DUP3 MLOAD SWAP3 DUP4 DUP3 MSTORE PUSH1 0x0 JUMPDEST DUP5 DUP2 LT PUSH2 0x2C09 JUMPI POP POP DUP3 PUSH1 0x0 PUSH1 0x20 DUP1 SWAP5 SWAP6 DUP5 ADD ADD MSTORE PUSH1 0x1F DUP1 NOT SWAP2 ADD AND ADD ADD SWAP1 JUMP JUMPDEST PUSH1 0x20 DUP2 DUP4 ADD DUP2 ADD MLOAD DUP5 DUP4 ADD DUP3 ADD MSTORE ADD PUSH2 0x2BE8 JUMP JUMPDEST ISZERO PUSH2 0x2C24 JUMPI JUMP JUMPDEST PUSH1 0x40 MLOAD PUSH3 0x461BCD PUSH1 0xE5 SHL DUP2 MSTORE PUSH1 0x20 PUSH1 0x4 DUP3 ADD MSTORE PUSH1 0x17 PUSH1 0x24 DUP3 ADD MSTORE PUSH32 0x506F736974696F6E206E6F74206C697175696461746564000000000000000000 PUSH1 0x44 DUP3 ADD MSTORE PUSH1 0x64 SWAP1 REVERT JUMPDEST ISZERO PUSH2 0x2C70 JUMPI JUMP JUMPDEST PUSH1 0x40 MLOAD PUSH3 0x461BCD PUSH1 0xE5 SHL DUP2 MSTORE PUSH1 0x20 PUSH1 0x4 DUP3 ADD MSTORE PUSH1 0x16 PUSH1 0x24 DUP3 ADD MSTORE PUSH22 0x1499599D5B99081D1C985B9CD9995C8819985A5B1959 PUSH1 0x52 SHL PUSH1 0x44 DUP3 ADD MSTORE PUSH1 0x64 SWAP1 REVERT JUMPDEST SWAP1 PUSH1 0x0 SWAP2 DUP1 DUP4 MSTORE PUSH1 0x20 SWAP1 PUSH1 0x6 DUP3 MSTORE PUSH1 0x40 DUP5 KECCAK256 SWAP1 PUSH1 0x40 MLOAD PUSH2 0x2CCD DUP2 PUSH2 0x293A JUMP JUMPDEST PUSH1 0x1 DUP1 PUSH1 0xA0 SHL SUB SWAP1 DUP2 DUP5 SLOAD AND DUP2 MSTORE DUP2 PUSH1 0x1 DUP6 ADD SLOAD AND DUP6 DUP3 ADD MSTORE PUSH1 0x2 DUP5 ADD SLOAD PUSH1 0x40 DUP3 ADD MSTORE PUSH1 0x3 DUP5 ADD SLOAD PUSH1 0x60 DUP3 ADD MSTORE PUSH2 0x2D4A PUSH1 0x8 PUSH1 0x4 DUP7 ADD SLOAD SWAP6 PUSH1 0x80 DUP5 ADD SWAP7 DUP8 MSTORE PUSH1 0x5 DUP2 ADD SLOAD PUSH1 0xA0 DUP6 ADD MSTORE PUSH1 0x6 DUP2 ADD SLOAD PUSH1 0xC0 DUP6 ADD MSTORE PUSH1 0x7 DUP2 ADD SLOAD PUSH1 0xE0 DUP6 ADD MSTORE ADD SLOAD SWAP2 PUSH2 0x120 PUSH1 0xFF PUSH2 0x100 DUP4 ADD SWAP5 DUP2 DUP2 AND ISZERO ISZERO DUP7 MSTORE PUSH1 0x8 SHR AND SWAP2 ADD PUSH2 0x2A47 JUMP JUMPDEST MLOAD ISZERO PUSH2 0x2DF7 JUMPI DUP4 SWAP1 PUSH1 0x3 SLOAD AND SWAP2 PUSH1 0x24 PUSH1 0x40 MLOAD DUP1 SWAP5 DUP2 SWAP4 PUSH4 0xD5595157 PUSH1 0xE0 SHL DUP4 MSTORE PUSH1 0x4 DUP4 ADD MSTORE GAS STATICCALL SWAP3 DUP4 ISZERO PUSH2 0xDD5 JUMPI DUP6 SWAP4 PUSH2 0x2DC7 JUMPI JUMPDEST POP POP DUP2 ISZERO PUSH2 0x2DBE JUMPI MLOAD PUSH2 0x2710 SWAP1 DUP2 DUP2 MUL SWAP2 DUP2 DUP4 DIV EQ SWAP1 ISZERO OR ISZERO PUSH2 0x2DAA JUMPI PUSH2 0x2DA7 SWAP3 SWAP4 POP PUSH2 0x2A66 JUMP JUMPDEST SWAP1 JUMP JUMPDEST PUSH4 0x4E487B71 PUSH1 0xE0 SHL DUP5 MSTORE PUSH1 0x11 PUSH1 0x4 MSTORE PUSH1 0x24 DUP5 REVERT JUMPDEST POP PUSH1 0x0 NOT SWAP3 POP POP JUMP JUMPDEST SWAP1 DUP1 SWAP3 SWAP4 POP DUP2 RETURNDATASIZE DUP4 GT PUSH2 0x2DF0 JUMPI JUMPDEST PUSH2 0x2DDF DUP2 DUP4 PUSH2 0x29A4 JUMP JUMPDEST DUP2 ADD SUB SLT PUSH2 0x279D JUMPI MLOAD SWAP1 CODESIZE DUP1 PUSH2 0x2D7F JUMP JUMPDEST POP RETURNDATASIZE PUSH2 0x2DD5 JUMP JUMPDEST POP POP POP POP JUMP JUMPDEST PUSH1 0x0 SWAP1 DUP1 DUP3 MSTORE PUSH1 0x20 SWAP1 PUSH1 0x6 DUP3 MSTORE PUSH1 0x40 DUP4 KECCAK256 SWAP1 PUSH1 0x40 MLOAD SWAP2 PUSH2 0x2E1C DUP4 PUSH2 0x293A JUMP JUMPDEST PUSH1 0x1 DUP1 PUSH1 0xA0 SHL SUB SWAP3 DUP4 DUP3 SLOAD AND DUP2 MSTORE DUP4 PUSH1 0x1 DUP4 ADD SLOAD AND DUP6 DUP3 ADD MSTORE PUSH1 0x2 DUP3 ADD SLOAD PUSH1 0x40 DUP3 ADD MSTORE PUSH1 0x3 DUP3 ADD SLOAD PUSH1 0x60 DUP3 ADD MSTORE PUSH1 0x8 PUSH1 0x4 DUP4 ADD SLOAD SWAP3 PUSH1 0x80 DUP4 ADD SWAP4 DUP5 MSTORE PUSH1 0x5 DUP2 ADD SLOAD PUSH1 0xA0 DUP5 ADD MSTORE PUSH1 0x6 DUP2 ADD SLOAD PUSH1 0xC0 DUP5 ADD MSTORE PUSH1 0x7 DUP2 ADD SLOAD PUSH1 0xE0 DUP5 ADD MSTORE ADD SLOAD SWAP1 PUSH2 0x2E9A PUSH1 0xFF PUSH2 0x120 PUSH2 0x100 DUP5 ADD SWAP4 DUP3 DUP7 AND ISZERO ISZERO DUP6 MSTORE ADD SWAP4 PUSH1 0x8 SHR AND DUP4 PUSH2 0x2A47 JUMP JUMPDEST MLOAD ISZERO PUSH2 0x2F5B JUMPI MLOAD PUSH1 0x2 DUP2 LT ISZERO PUSH2 0x2F47 JUMPI PUSH2 0x2EC6 DUP6 SWAP3 PUSH2 0x2710 SWAP3 ISZERO PUSH1 0x0 EQ PUSH2 0x2F3E JUMPI PUSH2 0x1B58 SWAP1 JUMPDEST MLOAD PUSH2 0x2A53 JUMP JUMPDEST DIV SWAP3 PUSH1 0x3 SLOAD AND SWAP2 PUSH1 0x24 PUSH1 0x40 MLOAD DUP1 SWAP5 DUP2 SWAP4 PUSH4 0xD5595157 PUSH1 0xE0 SHL DUP4 MSTORE PUSH1 0x4 DUP4 ADD MSTORE GAS STATICCALL SWAP3 DUP4 ISZERO PUSH2 0xCF7 JUMPI DUP5 SWAP4 PUSH2 0x2F0E JUMPI JUMPDEST POP POP DUP2 DUP2 GT ISZERO PUSH2 0x2F09 JUMPI PUSH2 0x2DA7 SWAP3 POP PUSH2 0x2B92 JUMP JUMPDEST POP POP SWAP1 JUMP JUMPDEST SWAP1 DUP1 SWAP3 SWAP4 POP DUP2 RETURNDATASIZE DUP4 GT PUSH2 0x2F37 JUMPI JUMPDEST PUSH2 0x2F26 DUP2 DUP4 PUSH2 0x29A4 JUMP JUMPDEST DUP2 ADD SUB SLT PUSH2 0xC9A JUMPI MLOAD SWAP1 CODESIZE DUP1 PUSH2 0x2EF5 JUMP JUMPDEST POP RETURNDATASIZE PUSH2 0x2F1C JUMP JUMPDEST PUSH2 0x1770 SWAP1 PUSH2 0x2EC0 JUMP JUMPDEST PUSH4 0x4E487B71 PUSH1 0xE0 SHL DUP7 MSTORE PUSH1 0x21 PUSH1 0x4 MSTORE PUSH1 0x24 DUP7 REVERT JUMPDEST POP POP POP POP POP SWAP1 JUMP INVALID LOG2 PUSH5 0x6970667358 0x22 SLT KECCAK256 PUSH4 0x3914C90A PUSH24 0x4A181BF807D49D0410FE241DF13E9D2A79CE28313F016BFF 0xCE ISZERO PUSH5 0x736F6C6343 STOP ADDMOD EQ STOP CALLER "},"methodIdentifiers":{"BASIS_POINTS()":"e1f1c4a7","LIQUIDATION_FEE_BPS()":"518e8dfc","LIQUIDATION_THRESHOLD()":"90a8ae9b","PRIVATE_ASSET_LTV()":"d79873b9","RWA_LTV()":"761c5f0a","borrowUSDC(uint256,uint256,uint256,uint256)":"4d111a05","depositCollateral(address,uint256,uint256,uint8,bool)":"0bae9ef9","getHealthFactor(uint256)":"17845c69","getMaxBorrow(uint256)":"7b5210d8","getPosition(uint256)":"eb02c301","getRepaymentPlan(uint256)":"fea58e83","liquidatePosition(uint256)":"cdddd4e5","markDefaulted(uint256)":"73216450","markMissedPayment(uint256)":"52964de5","nextPositionId()":"899346c7","oaid()":"2be04392","owner()":"8da5cb5b","positions(uint256)":"99fbab88","positionsInLiquidation(uint256)":"16ef1729","primaryMarket()":"1e77ceda","purchaseAndSettleLiquidation(uint256,uint256)":"5403bc4a","renounceOwnership()":"715018a6","repayLoan(uint256,uint256)":"8a700b53","repaymentPlans(uint256)":"a53ae06b","seniorPool()":"f416fc1c","setOAID(address)":"6c320cb0","setPrimaryMarket(address)":"e2dc3666","setYieldVault(address)":"137c3f69","settleLiquidation(uint256)":"837c2a61","transferOwnership(address)":"f2fde38b","usdc()":"3e413bee","withdrawCollateral(uint256,uint256)":"767a7b05","yieldVault()":"a7f8a5e2"}}}}}