{"contracts/core/SolvencyVault.sol":{"SolvencyVault":{"abi":[{"inputs":[{"internalType":"address","name":"_usdc","type":"address"},{"internalType":"address","name":"_seniorPool","type":"address"}],"stateMutability":"nonpayable","type":"constructor"},{"inputs":[{"internalType":"address","name":"owner","type":"address"}],"name":"OwnableInvalidOwner","type":"error"},{"inputs":[{"internalType":"address","name":"account","type":"address"}],"name":"OwnableUnauthorizedAccount","type":"error"},{"inputs":[],"name":"ReentrancyGuardReentrantCall","type":"error"},{"anonymous":false,"inputs":[{"indexed":true,"internalType":"uint256","name":"positionId","type":"uint256"},{"indexed":true,"internalType":"address","name":"user","type":"address"},{"indexed":false,"internalType":"uint256","name":"amount","type":"uint256"}],"name":"CollateralWithdrawn","type":"event"},{"anonymous":false,"inputs":[{"indexed":true,"internalType":"uint256","name":"positionId","type":"uint256"},{"indexed":true,"internalType":"uint256","name":"creditLineId","type":"uint256"},{"indexed":false,"internalType":"string","name":"reason","type":"string"}],"name":"CreditLineRevoked","type":"event"},{"anonymous":false,"inputs":[{"indexed":true,"internalType":"uint256","name":"positionId","type":"uint256"},{"indexed":false,"internalType":"uint256","name":"yieldReceived","type":"uint256"},{"indexed":false,"internalType":"uint256","name":"debtRepaid","type":"uint256"},{"indexed":false,"internalType":"uint256","name":"liquidationFee","type":"uint256"},{"indexed":false,"internalType":"uint256","name":"userRefund","type":"uint256"}],"name":"LiquidationSettled","type":"event"},{"anonymous":false,"inputs":[{"indexed":true,"internalType":"uint256","name":"positionId","type":"uint256"},{"indexed":false,"internalType":"uint256","name":"amount","type":"uint256"},{"indexed":false,"internalType":"uint256","name":"principal","type":"uint256"},{"indexed":false,"internalType":"uint256","name":"interest","type":"uint256"},{"indexed":false,"internalType":"uint256","name":"remainingDebt","type":"uint256"}],"name":"LoanRepaid","type":"event"},{"anonymous":false,"inputs":[{"indexed":true,"internalType":"uint256","name":"positionId","type":"uint256"},{"indexed":false,"internalType":"uint256","name":"missedPayments","type":"uint256"}],"name":"MissedPaymentMarked","type":"event"},{"anonymous":false,"inputs":[{"indexed":true,"internalType":"uint256","name":"positionId","type":"uint256"},{"indexed":false,"internalType":"uint256","name":"creditLineId","type":"uint256"},{"indexed":false,"internalType":"uint256","name":"creditLimit","type":"uint256"}],"name":"OAIDCreditIssued","type":"event"},{"anonymous":false,"inputs":[{"indexed":true,"internalType":"address","name":"previousOwner","type":"address"},{"indexed":true,"internalType":"address","name":"newOwner","type":"address"}],"name":"OwnershipTransferred","type":"event"},{"anonymous":false,"inputs":[{"indexed":true,"internalType":"uint256","name":"positionId","type":"uint256"},{"indexed":true,"internalType":"address","name":"user","type":"address"},{"indexed":false,"internalType":"address","name":"collateralToken","type":"address"},{"indexed":false,"internalType":"uint256","name":"collateralAmount","type":"uint256"},{"indexed":false,"internalType":"uint256","name":"tokenValueUSD","type":"uint256"},{"indexed":false,"internalType":"enum SolvencyVault.TokenType","name":"tokenType","type":"uint8"}],"name":"PositionCreated","type":"event"},{"anonymous":false,"inputs":[{"indexed":true,"internalType":"uint256","name":"positionId","type":"uint256"}],"name":"PositionDefaulted","type":"event"},{"anonymous":false,"inputs":[{"indexed":true,"internalType":"uint256","name":"positionId","type":"uint256"},{"indexed":false,"internalType":"uint256","name":"liquidationTime","type":"uint256"}],"name":"PositionLiquidated","type":"event"},{"anonymous":false,"inputs":[{"indexed":true,"internalType":"uint256","name":"positionId","type":"uint256"},{"indexed":true,"internalType":"address","name":"purchaser","type":"address"},{"indexed":false,"internalType":"uint256","name":"purchaseAmount","type":"uint256"},{"indexed":false,"internalType":"uint256","name":"tokensTransferred","type":"uint256"},{"indexed":false,"internalType":"uint256","name":"debtRepaid","type":"uint256"},{"indexed":false,"internalType":"uint256","name":"liquidationFee","type":"uint256"},{"indexed":false,"internalType":"uint256","name":"userRefund","type":"uint256"}],"name":"PrivateAssetLiquidationSettled","type":"event"},{"anonymous":false,"inputs":[{"indexed":true,"internalType":"uint256","name":"positionId","type":"uint256"},{"indexed":false,"internalType":"uint256","name":"loanDuration","type":"uint256"},{"indexed":false,"internalType":"uint256","name":"numberOfInstallments","type":"uint256"},{"indexed":false,"internalType":"uint256","name":"installmentInterval","type":"uint256"},{"indexed":false,"internalType":"uint256","name":"nextPaymentDue","type":"uint256"}],"name":"RepaymentPlanCreated","type":"event"},{"anonymous":false,"inputs":[{"indexed":true,"internalType":"uint256","name":"positionId","type":"uint256"},{"indexed":false,"internalType":"uint256","name":"amount","type":"uint256"},{"indexed":false,"internalType":"uint256","name":"totalDebt","type":"uint256"}],"name":"USDCBorrowed","type":"event"},{"inputs":[],"name":"BASIS_POINTS","outputs":[{"internalType":"uint256","name":"","type":"uint256"}],"stateMutability":"view","type":"function"},{"inputs":[],"name":"LIQUIDATION_FEE_BPS","outputs":[{"internalType":"uint256","name":"","type":"uint256"}],"stateMutability":"view","type":"function"},{"inputs":[],"name":"LIQUIDATION_THRESHOLD","outputs":[{"internalType":"uint256","name":"","type":"uint256"}],"stateMutability":"view","type":"function"},{"inputs":[],"name":"PRIVATE_ASSET_LTV","outputs":[{"internalType":"uint256","name":"","type":"uint256"}],"stateMutability":"view","type":"function"},{"inputs":[],"name":"RWA_LTV","outputs":[{"internalType":"uint256","name":"","type":"uint256"}],"stateMutability":"view","type":"function"},{"inputs":[{"internalType":"uint256","name":"positionId","type":"uint256"},{"internalType":"uint256","name":"amount","type":"uint256"},{"internalType":"uint256","name":"loanDuration","type":"uint256"},{"internalType":"uint256","name":"numberOfInstallments","type":"uint256"}],"name":"borrowUSDC","outputs":[],"stateMutability":"nonpayable","type":"function"},{"inputs":[{"internalType":"address","name":"collateralToken","type":"address"},{"internalType":"uint256","name":"collateralAmount","type":"uint256"},{"internalType":"uint256","name":"tokenValueUSD","type":"uint256"},{"internalType":"enum SolvencyVault.TokenType","name":"tokenType","type":"uint8"},{"internalType":"bool","name":"issueOAID","type":"bool"}],"name":"depositCollateral","outputs":[{"internalType":"uint256","name":"positionId","type":"uint256"}],"stateMutability":"nonpayable","type":"function"},{"inputs":[{"internalType":"uint256","name":"positionId","type":"uint256"}],"name":"getHealthFactor","outputs":[{"internalType":"uint256","name":"","type":"uint256"}],"stateMutability":"view","type":"function"},{"inputs":[{"internalType":"uint256","name":"positionId","type":"uint256"}],"name":"getMaxBorrow","outputs":[{"internalType":"uint256","name":"","type":"uint256"}],"stateMutability":"view","type":"function"},{"inputs":[{"internalType":"uint256","name":"positionId","type":"uint256"}],"name":"getPosition","outputs":[{"components":[{"internalType":"address","name":"user","type":"address"},{"internalType":"address","name":"collateralToken","type":"address"},{"internalType":"uint256","name":"collateralAmount","type":"uint256"},{"internalType":"uint256","name":"usdcBorrowed","type":"uint256"},{"internalType":"uint256","name":"tokenValueUSD","type":"uint256"},{"internalType":"uint256","name":"createdAt","type":"uint256"},{"internalType":"uint256","name":"liquidatedAt","type":"uint256"},{"internalType":"uint256","name":"creditLineId","type":"uint256"},{"internalType":"bool","name":"active","type":"bool"},{"internalType":"enum SolvencyVault.TokenType","name":"tokenType","type":"uint8"}],"internalType":"struct SolvencyVault.Position","name":"","type":"tuple"}],"stateMutability":"view","type":"function"},{"inputs":[{"internalType":"uint256","name":"positionId","type":"uint256"}],"name":"getRepaymentPlan","outputs":[{"components":[{"internalType":"uint256","name":"loanDuration","type":"uint256"},{"internalType":"uint256","name":"numberOfInstallments","type":"uint256"},{"internalType":"uint256","name":"installmentInterval","type":"uint256"},{"internalType":"uint256","name":"nextPaymentDue","type":"uint256"},{"internalType":"uint256","name":"installmentsPaid","type":"uint256"},{"internalType":"uint256","name":"missedPayments","type":"uint256"},{"internalType":"bool","name":"isActive","type":"bool"},{"internalType":"bool","name":"defaulted","type":"bool"}],"internalType":"struct SolvencyVault.RepaymentPlan","name":"","type":"tuple"}],"stateMutability":"view","type":"function"},{"inputs":[{"internalType":"uint256","name":"positionId","type":"uint256"}],"name":"liquidatePosition","outputs":[],"stateMutability":"nonpayable","type":"function"},{"inputs":[{"internalType":"uint256","name":"positionId","type":"uint256"}],"name":"markDefaulted","outputs":[],"stateMutability":"nonpayable","type":"function"},{"inputs":[{"internalType":"uint256","name":"positionId","type":"uint256"}],"name":"markMissedPayment","outputs":[],"stateMutability":"nonpayable","type":"function"},{"inputs":[],"name":"nextPositionId","outputs":[{"internalType":"uint256","name":"","type":"uint256"}],"stateMutability":"view","type":"function"},{"inputs":[],"name":"oaid","outputs":[{"internalType":"address","name":"","type":"address"}],"stateMutability":"view","type":"function"},{"inputs":[],"name":"owner","outputs":[{"internalType":"address","name":"","type":"address"}],"stateMutability":"view","type":"function"},{"inputs":[{"internalType":"uint256","name":"","type":"uint256"}],"name":"positions","outputs":[{"internalType":"address","name":"user","type":"address"},{"internalType":"address","name":"collateralToken","type":"address"},{"internalType":"uint256","name":"collateralAmount","type":"uint256"},{"internalType":"uint256","name":"usdcBorrowed","type":"uint256"},{"internalType":"uint256","name":"tokenValueUSD","type":"uint256"},{"internalType":"uint256","name":"createdAt","type":"uint256"},{"internalType":"uint256","name":"liquidatedAt","type":"uint256"},{"internalType":"uint256","name":"creditLineId","type":"uint256"},{"internalType":"bool","name":"active","type":"bool"},{"internalType":"enum SolvencyVault.TokenType","name":"tokenType","type":"uint8"}],"stateMutability":"view","type":"function"},{"inputs":[{"internalType":"uint256","name":"","type":"uint256"}],"name":"positionsInLiquidation","outputs":[{"internalType":"bool","name":"","type":"bool"}],"stateMutability":"view","type":"function"},{"inputs":[],"name":"primaryMarket","outputs":[{"internalType":"address","name":"","type":"address"}],"stateMutability":"view","type":"function"},{"inputs":[{"internalType":"uint256","name":"positionId","type":"uint256"},{"internalType":"uint256","name":"purchaseAmount","type":"uint256"}],"name":"purchaseAndSettleLiquidation","outputs":[{"internalType":"uint256","name":"liquidationFee","type":"uint256"},{"internalType":"uint256","name":"userRefund","type":"uint256"}],"stateMutability":"nonpayable","type":"function"},{"inputs":[],"name":"renounceOwnership","outputs":[],"stateMutability":"nonpayable","type":"function"},{"inputs":[{"internalType":"uint256","name":"positionId","type":"uint256"},{"internalType":"uint256","name":"amount","type":"uint256"}],"name":"repayLoan","outputs":[],"stateMutability":"nonpayable","type":"function"},{"inputs":[{"internalType":"uint256","name":"","type":"uint256"}],"name":"repaymentPlans","outputs":[{"internalType":"uint256","name":"loanDuration","type":"uint256"},{"internalType":"uint256","name":"numberOfInstallments","type":"uint256"},{"internalType":"uint256","name":"installmentInterval","type":"uint256"},{"internalType":"uint256","name":"nextPaymentDue","type":"uint256"},{"internalType":"uint256","name":"installmentsPaid","type":"uint256"},{"internalType":"uint256","name":"missedPayments","type":"uint256"},{"internalType":"bool","name":"isActive","type":"bool"},{"internalType":"bool","name":"defaulted","type":"bool"}],"stateMutability":"view","type":"function"},{"inputs":[],"name":"seniorPool","outputs":[{"internalType":"address","name":"","type":"address"}],"stateMutability":"view","type":"function"},{"inputs":[{"internalType":"address","name":"_oaid","type":"address"}],"name":"setOAID","outputs":[],"stateMutability":"nonpayable","type":"function"},{"inputs":[{"internalType":"address","name":"_primaryMarket","type":"address"}],"name":"setPrimaryMarket","outputs":[],"stateMutability":"nonpayable","type":"function"},{"inputs":[{"internalType":"address","name":"_yieldVault","type":"address"}],"name":"setYieldVault","outputs":[],"stateMutability":"nonpayable","type":"function"},{"inputs":[{"internalType":"uint256","name":"positionId","type":"uint256"}],"name":"settleLiquidation","outputs":[{"internalType":"uint256","name":"yieldReceived","type":"uint256"},{"internalType":"uint256","name":"liquidationFee","type":"uint256"},{"internalType":"uint256","name":"userRefund","type":"uint256"}],"stateMutability":"nonpayable","type":"function"},{"inputs":[{"internalType":"address","name":"newOwner","type":"address"}],"name":"transferOwnership","outputs":[],"stateMutability":"nonpayable","type":"function"},{"inputs":[],"name":"usdc","outputs":[{"internalType":"contract IERC20","name":"","type":"address"}],"stateMutability":"view","type":"function"},{"inputs":[{"internalType":"uint256","name":"positionId","type":"uint256"},{"internalType":"uint256","name":"amount","type":"uint256"}],"name":"withdrawCollateral","outputs":[],"stateMutability":"nonpayable","type":"function"},{"inputs":[],"name":"yieldVault","outputs":[{"internalType":"address","name":"","type":"address"}],"stateMutability":"view","type":"function"}],"evm":{"bytecode":{"linkReferences":{},"object":"608034620000f557601f62002fca38819003918201601f19168301916001600160401b03831184841017620000fa578084926040948552833981010312620000f5576200005a6020620000528362000110565b920162000110565b3315620000dc5760008054336001600160a01b0319808316821784556040519590946001600160a01b03949093859391908416907f8be0079c531659141344cd1fd0a4f28419497f9722a3daafe3b4186f6b6457e09080a36001805516836002541617600255169060035416176003556001600755612ea49081620001268239f35b604051631e4fbdf760e01b815260006004820152602490fd5b600080fd5b634e487b7160e01b600052604160045260246000fd5b51906001600160a01b0382168203620000f55756fe6080604052600436101561001257600080fd5b6000803560e01c80630bae9ef91461235e578063137c3f691461231257806316ef1729146122e357806317845c69146122c45780631e77ceda1461229b5780632be04392146122725780633e413bee146122495780634d111a0514611d8a578063518e8dfc14611d6d57806352964de514611c4b5780635403bc4a146117b65780636c320cb01461176a578063715018a6146117105780637321645014611689578063761c5f0a1461166c578063767a7b05146114375780637b5210d814611410578063837c2a6114610e1b578063899346c714610dfd5780638a700b5314610a1a5780638da5cb5b146109f357806390a8ae9b146109d657806399fbab8814610930578063a53ae06b146108b1578063a7f8a5e214610888578063cdddd4e514610531578063d79873b914610514578063e1f1c4a7146104f7578063e2dc3666146104ab578063eb02c3011461033e578063f2fde38b146102b3578063f416fc1c1461028a5763fea58e831461018857600080fd5b34610287576020366003190112610287576040816101009260e083516101ad81612862565b82815282602082015282858201528260608201528260808201528260a08201528260c082015201526004358152600a60205220604051906101ed82612862565b8054918281526001820154916020820192835260028101546040830190815260038201546060840190815260048301549160808501928352600660058501549460a0870195865201549560ff60e060c0880197828a1615158952019760081c16151587526040519788525160208801525160408701525160608601525160808501525160a084015251151560c083015251151560e0820152f35b80fd5b50346102875780600319360112610287576003546040516001600160a01b039091168152602090f35b5034610287576020366003190112610287576102cd612735565b6102d5612784565b6001600160a01b0390811690811561032557600054826001600160601b0360a01b821617600055167f8be0079c531659141344cd1fd0a4f28419497f9722a3daafe3b4186f6b6457e0600080a380f35b604051631e4fbdf760e01b815260048101849052602490fd5b5034610287576020366003190112610287576040816101409261012083516103658161282f565b82815282602082015282858201528260608201528260808201528260a08201528260c08201528260e0820152826101008201520152600435815260066020522061042a60ff6008604051936103b98561282f565b80546001600160a01b0390811686526001820154166020860152600281015460408601526003810154606086015260048101546080860152600581015460a0860152600681015460c0860152600781015460e08601520154818116151561010085015260081c166101208301612952565b6104a96101206040519260018060a01b03815116845260018060a01b03602082015116602085015260408101516040850152606081015160608501526080810151608085015260a081015160a085015260c081015160c085015260e081015160e085015261010081015115156101008501520151610120830190612761565bf35b5034610287576020366003190112610287576104c5612735565b6104cd612784565b6001600160a01b03166104e18115156127b0565b6001600160601b0360a01b600454161760045580f35b503461028757806003193601126102875760206040516127108152f35b503461028757806003193601126102875760206040516117708152f35b5034610287576020806003193601126107795760043590610550612784565b610558612991565b81835260068152604083209061057460ff6008840154166129b4565b8284526008815260ff60408520541661084b57612cec61059384612bb9565b1091838552600a825260066040862001805460ff8116908161083d575b5084908515610835575b50156107e257848652600883526040862060ff1990600182825416179055426006840155815460ff81166107d7575b50506005546001600160a01b0316939050831515806107ca575b61063b575b50507f77493833e3b7f392bd715ffdc3abd21434418e6889264880074c970e1b5e61c89150604051428152a26001805580f35b1561077d57600760405161064e81612893565b603781527f506f736974696f6e206c697175696461746564202d20636f6c6c61746572616c848201527f206865616c74682062656c6f77207468726573686f6c640000000000000000006040820152915b0192858454823b156107795781906040519384916367cc7cff60e01b83526004830152604060248301528183816106d9604482018a612ae8565b03925af191821561076c578692610751575b50507fd89109f5414f7b5415e9a3e20b055f6a8cc38b81f34d24eb5ae3512086356a8a6107477f77493833e3b7f392bd715ffdc3abd21434418e6889264880074c970e1b5e61c895549360405191829187835287830190612ae8565b0390a33880610608565b61075c91925061287f565b610768578385386106eb565b8480fd5b50604051903d90823e3d90fd5b5080fd5b600760405161078b81612893565b602781527f506f736974696f6e206c697175696461746564202d2072657061796d656e74208482015266191959985d5b1d60ca1b60408201529161069f565b5060078201541515610603565b1690553880806105e9565b60405162461bcd60e51b815260048101849052602560248201527f506f736974696f6e206973206865616c74687920616e64206e6f7420646566616044820152641d5b1d195960da1b6064820152608490fd5b9050386105ba565b60ff915060081c16386105b0565b6064906040519062461bcd60e51b82526004820152601660248201527520b63932b0b23c9034b7103634b8bab4b230ba34b7b760511b6044820152fd5b50346102875780600319360112610287576009546040516001600160a01b039091168152602090f35b5034610287576020366003190112610287576040610100916004358152600a6020522060ff815491600181015490600281015460038201546004830154916006600585015494015494604051978852602088015260408701526060860152608085015260a0840152818116151560c084015260081c16151560e0820152f35b50346102875760203660031901126102875760406101409160043581526006602052206104a960018060a01b03918281541692600182015416906002810154600382015460048301546005840154916006850154936008600787015496015496604051998a5260208a015260408901526060880152608087015260a086015260c085015260e084015260ff8116151561010084015260ff61012084019160081c16612761565b50346102875780600319360112610287576020604051612cec8152f35b5034610287578060031936011261028757546040516001600160a01b039091168152602090f35b503461028757610a293661274b565b610a31612991565b818352826020916006835260408220610a5060ff6008830154166129b4565b80546001600160a01b039190610a6990831633146129f6565b610a748315156127ee565b6002546040516323b872dd60e01b8152336004820152306024820152604481018590529190869083906064908290899088165af1918215610dd557610b0592610ac4918791610de0575b50612a44565b60025460035460405163095ea7b360e01b81529085166001600160a01b03166004820152602481018690529287918491908616908290899082906044820190565b03925af1918215610dd5578592610da8575b5060408360035416604482518098819363d8aed14560e01b83528c60048401528960248401525af1928315610c8f5760249683968495610d71575b5060038301610b62888254612a9d565b9055808260035416604051998a809263d559515760e01b82528d60048301525afa978815610cf7578498610d38575b50600a908985525260408320600681019081549060ff8216610d0f575b505050806005541680151580610d02575b610c1b575b505050507f91f28e20f26321cf8a71cadbefe77cfe670ee70b71a621e3ce3fb1b57e19dfaa93610c1191604051948594859094939260609260808301968352602083015260408201520152565b0390a26001805580f35b86610c9e575b5060079060055416910154813b15610c9a57829160848392604051948593849263f2f6818f60e01b84526004840152896024840152600160448401528160648401525af18015610c8f57610c77575b8080610bc4565b610c809061287f565b610c8b578538610c70565b8580fd5b6040513d84823e3d90fd5b8280fd5b6007830154813b15610768578491604483926040519485938492636ad75e1f60e01b845260048401528c60248401525af1908115610cf7578491610ce3575b50610c21565b610cec9061287f565b610c9a578238610cdd565b6040513d86823e3d90fd5b5060078301541515610bbf565b600401610d1c815461292d565b90558815610d2b575b80610bae565b60ff191690553880610d25565b818099508195503d8311610d6a575b610d5181836128af565b81010312610d6557600a8993519790610b91565b600080fd5b503d610d47565b909450610d9791965060403d604011610da1575b610d8f81836128af565b810190612a87565b9590959338610b52565b503d610d85565b610dc790873d8911610dce575b610dbf81836128af565b8101906128d1565b5038610b17565b503d610db5565b6040513d87823e3d90fd5b610df79150883d8a11610dce57610dbf81836128af565b38610abe565b50346102875780600319360112610287576020600754604051908152f35b5034610287576020908160031936011261028757600435610e3a612784565b610e42612991565b8082526006835260408220600881019360ff8554610e618282166129b4565b84865260088352610e7782604088205416612b28565b60081c1660028110156113fc576113c2576009546001600160a01b039390841680156113885760018401805460028601805460405163095ea7b360e01b8082526001600160a01b03969096166004820152602481019190915298999092909186908a9060449082908e908d165af19081156110db57610f3599879261136b575b5060095490548454604051630c34f5ed60e11b8152918b166001600160a01b031660048301526024820152998a918a169082908d9082906044820190565b03925af1978815611360578998611331575b5087156112f85786600354169260405163d559515760e01b81528560048201528681602481885afa9485156112ed5787918c966112bc575b508b95806111e0575b50505050828811156111ac57610f9e8389612a9d565b956103e880880290888204148815171561119857612710610fc191048098612a9d565b97876110e6575b88611036575b50509160609886927f1b5cd914bf77ee50de90263f47d89967bbce85a4eb078d958bfee08dc0d0cde7945b805460ff191690555560408051898152602081019290925281019190915260608101869052608090a2600180556040519384528301526040820152f35b600254915460405163a9059cbb60e01b81529082166001600160a01b03166004820152602481018a9052918791839116818d816044810103925af19081156110db57927f1b5cd914bf77ee50de90263f47d89967bbce85a4eb078d958bfee08dc0d0cde794926110b28c938a9660609e916110be575b50612b74565b92945092819a50610fce565b6110d591508a3d8c11610dce57610dbf81836128af565b386110ac565b6040513d8c823e3d90fd5b6002548b5460405163a9059cbb60e01b81529083166001600160a01b03166004820152602481018a905290889082908416818f816044810103925af190811561118d578c91611170575b50610fc85760405162461bcd60e51b8152600481018890526013602482015272119959481d1c985b9cd9995c8819985a5b1959606a1b6044820152606490fd5b6111879150883d8a11610dce57610dbf81836128af565b38611130565b6040513d8e823e3d90fd5b634e487b7160e01b8b52601160045260248bfd5b95508794507f1b5cd914bf77ee50de90263f47d89967bbce85a4eb078d958bfee08dc0d0cde7916060989586928198610ff9565b61122993949650808c116000146112b2579384915b6002546040519283526001600160a01b03909116600483015260248201929092529283918b169082908e9082906044820190565b03925af180156110db57611295575b508860408860035416604482518094819363d8aed14560e01b83528a60048401528760248401525af180156110db57611277575b509138858180610f88565b61128f9060403d604011610da157610d8f81836128af565b5061126c565b6112ab90863d8811610dce57610dbf81836128af565b5038611238565b508a9384916111f5565b8281939297503d83116112e6575b6112d481836128af565b81010312610d65578690519438610f7f565b503d6112ca565b6040513d8d823e3d90fd5b60405162461bcd60e51b8152600481018690526011602482015270139bc81e5a595b19081c9958d95a5d9959607a1b6044820152606490fd5b9097508481813d8311611359575b61134981836128af565b81010312610d6557519638610f47565b503d61133f565b6040513d8b823e3d90fd5b61138190833d8511610dce57610dbf81836128af565b5038610ef7565b60405162461bcd60e51b8152600481018490526012602482015271165a595b1915985d5b1d081b9bdd081cd95d60721b6044820152606490fd5b6064906040519062461bcd60e51b8252600482015260136024820152724f6e6c7920666f722052574120746f6b656e7360681b6044820152fd5b634e487b7160e01b85526021600452602485fd5b503461028757602036600319011261028757602061142f600435612d08565b604051908152f35b5034610287576114463661274b565b9061144f612991565b808352602060068152604084206008810190815461146f60ff82166129b4565b81546001600160a01b03939061148890851633146129f6565b6114938715156127ee565b6002830180548089116116275760248787600354166040519283809263d559515760e01b82528d60048301525afa9081156112ed578b916115fa575b506115b557906114e489600196959493612a9d565b80915515611582575b5050015460405163a9059cbb60e01b81523360048201526024810186905292918291849160449183918a91165af1918215610dd5577f7c5e5cb62e5ed3caf3764e4b0afedfedef533e27809d43367799787ad2abcd4192611555918791611565575b506128e9565b6040519384523393a36001805580f35b61157c9150833d8511610dce57610dbf81836128af565b3861154f565b60ff198092169055858852600a85526006604089200190815460ff81166115aa575b506114ed565b1690553880806115a4565b60405162461bcd60e51b815260048101889052601f60248201527f4f75747374616e64696e672064656274206d75737420626520726570616964006044820152606490fd5b90508781813d8311611620575b61161181836128af565b81010312610d655751386114cf565b503d611607565b60405162461bcd60e51b815260048101889052601760248201527f496e73756666696369656e7420636f6c6c61746572616c0000000000000000006044820152606490fd5b50346102875780600319360112610287576020604051611b588152f35b5034610287576020366003190112610287576004356116a6612784565b80825260066020526116c160ff6008604085200154166129b4565b808252600a6020526006604083200161010081546116e160ff8216612aaa565b61ff0019161790557f5493e4917872c4150c892f2053db5bf546da11d77af31efaad0d13d956f563368280a280f35b5034610287578060031936011261028757611729612784565b600080546001600160a01b0319811682556001600160a01b03167f8be0079c531659141344cd1fd0a4f28419497f9722a3daafe3b4186f6b6457e08280a380f35b503461028757602036600319011261028757611784612735565b61178c612784565b6001600160a01b03166117a08115156127b0565b6001600160601b0360a01b600554161760055580f35b5034610287576117c53661274b565b6117cd612784565b6117d5612991565b8183526006602052604083209060ff60088301546117f48282166129b4565b848652600860205261180b82604088205416612b28565b60081c1660028110156113fc57600103611c06578015611bc1576002546040516323b872dd60e01b815233600482015230602482015260448101839052906020908290606490829089906001600160a01b03165af18015610dd557611876918691611ba85750612a44565b6001820154600283015460405163a9059cbb60e01b81523360048201526024810191909152906020908290604490829089906001600160a01b03165af18015610dd5576118c9918691611b8f57506128e9565b60035460405163d559515760e01b81526004810185905293906001600160a01b0316602085602481845afa948515611b23578695611b5b575b50859480611a5b575b505083821115611a4b5761191f8483612a9d565b936103e8808602908682041486151715611a375761271061194291048096612a9d565b93846119b1575b958060026040985b60ff196008820154166008820155015586519384526020840152858301528360608301528260808301527fe8809f589fb6a4a715f089d80b78e1c37443064c63cad260285284847c9fc4a360a03393a36001805582519182526020820152f35b600254815460405163a9059cbb60e01b81526001600160a01b0391821660048201526024810188905291602091839160449183918d91165af1908115611a2c578892611a09849360029360409c91611a135750612b74565b9250509650611949565b6110d5915060203d602011610dce57610dbf81836128af565b6040513d8a823e3d90fd5b634e487b7160e01b87526011600452602487fd5b8493604095948060028196611951565b9194509080831115611b4d576020611aad9180935b60025460405163095ea7b360e01b81526001600160a01b0392831660048201526024810193909352919384929091169082908a9082906044820190565b03925af18015611b2357611b2e575b506003546040805163d8aed14560e01b8152600481018790526024810184905291829060449082908a906001600160a01b03165af18015611b2357611b05575b5092388061190b565b611b1d9060403d604011610da157610d8f81836128af565b50611afc565b6040513d88823e3d90fd5b611b469060203d602011610dce57610dbf81836128af565b5038611abc565b50611aad6020838093611a70565b9094506020813d602011611b87575b81611b77602093836128af565b81010312610d6557519338611902565b3d9150611b6a565b61157c915060203d602011610dce57610dbf81836128af565b610df7915060203d602011610dce57610dbf81836128af565b60405162461bcd60e51b815260206004820152601b60248201527f507572636861736520616d6f756e74206d757374206265203e203000000000006044820152606490fd5b60405162461bcd60e51b815260206004820152601760248201527f4f6e6c7920666f722050726976617465204173736574730000000000000000006044820152606490fd5b503461028757602036600319011261028757600435611c68612784565b808252600660205260408220611c8460ff6008830154166129b4565b818352600a60205282600560408220611ca360ff600683015416612aaa565b0191611caf835461292d565b83556005546001600160a01b03169081151580611d60575b611cfe575b50505060207fa4e6bdb946caa62acb20ceaaa9f9978dfbf773a0d764e6232b858bdb0920bfca9154604051908152a280f35b60070154813b15610c9a57829160848392604051948593849263f2f6818f60e01b84526004840152816024840152816044840152600160648401525af18015610c8f57611d4c575b80611ccc565b611d559061287f565b610c9a578238611d46565b5060078101541515611cc7565b503461028757806003193601126102875760206040516103e88152f35b503461028757608036600319011261028757600435604460648035908235906024803590611db6612991565b8688526020956006875260408920600881015492611dd660ff85166129b4565b81546001600160a01b039490611def90861633146129f6565b611dfa8615156127ee565b87156122105788156121ce5788881061218c578a8c52600a8a5260408c206006015460ff166121545760081c60ff1660028110156121415761213357612710611e4a611b585b600485015461295e565b04956003830196611e5c878954612a37565b116120ff575090879493929160018c611f0d60068b8f8f611e7d8d84612971565b9c8d611e898142612a37565b9160405195611e9787612862565b86528386019081526040860191825260608601928352604089600a608089019682885260a08a0198838a5260c08b019e8f5260e08b019d8e5283525220955186555160018601555160028501555160038401555160048301555160058201550192511515839060ff801983541691151516179055565b51815461ff00191690151560081b61ff00161790556003548c908516803b15610779578190858e6040519485938492630ecbcdab60e01b845260048401528b888401525af180156120f4576120d9575b509084939291611f6f8d968954612a37565b8855836005541691821515806120cc575b612072575b505060025460405163a9059cbb60e01b815233600482015260248101869052938b935084925060449183918891165af1918215612067577fdd4271a412a769f5ed0fe9b4b7c386bba5f674b53b01f0c0dab8a378c2991bb998610c11966120177f0902160bbfee2201aa09b6b057b6f0b7d0f633b2bdefc04e987882df4aefd29c956040958e98916120505750612a44565b54908351928352820152a261202c8142612a37565b90604051948594859094939260609260808301968352602083015260408201520152565b610df79150843d8611610dce57610dbf81836128af565b6040513d85823e3d90fd5b6007015492823b156120c857859387809460405196879586946365a1782f60e01b865260048601528401525af1908115610cf75784916120b4575b8080611f85565b6120bd9061287f565b610c9a5782386120ad565b8680fd5b5060078101541515611f80565b6120e9909c91959493929c61287f565b9a9091929338611f5d565b6040513d8f823e3d90fd5b60405162461bcd60e51b8152600481018b905260118184015270115e18d959591cc8131515881b1a5b5a5d607a1b81860152fd5b612710611e4a611770611e40565b50634e487b7160e01b8b5260216004528afd5b60405162461bcd60e51b8152600481018b905260138184015272506c616e20616c72656164792061637469766560681b818601528790fd5b60405162461bcd60e51b8152600481018b9052601d818401527f496e76616c6964206475726174696f6e2f696e7374616c6c6d656e7473000000818601528790fd5b60405162461bcd60e51b8152600481018b90526018818401527f496e7374616c6c6d656e7473206d757374206265203e20300000000000000000818601528790fd5b60405162461bcd60e51b8152600481018b90526014818401527304475726174696f6e206d757374206265203e20360641b818601528790fd5b50346102875780600319360112610287576002546040516001600160a01b039091168152602090f35b50346102875780600319360112610287576005546040516001600160a01b039091168152602090f35b50346102875780600319360112610287576004546040516001600160a01b039091168152602090f35b503461028757602036600319011261028757602061142f600435612bb9565b50346102875760203660031901126102875760ff60406020926004358152600884522054166040519015158152f35b50346102875760203660031901126102875761232c612735565b612334612784565b6001600160a01b03166123488115156127b0565b6001600160601b0360a01b600954161760095580f35b50346102875760a036600319011261028757612378612735565b600260643510156107795760843515156084350361077957612398612991565b6001600160a01b03811615612700576123b460243515156127ee565b604435156126c3576040516323b872dd60e01b815233600482015230602480830191909152356044820152602081606481866001600160a01b0387165af1801561206757612408918491611b8f57506128e9565b600754906124158261292d565b6007556040516124248161282f565b3381526001600160a01b038216602082015260243560408201526060810184905260443560808201524260a082015260c0810184905260e081018490526001610100820152610120810161247a60643582612952565b838552600660205261251861010060086040882060018060a01b038651166001600160601b0360a01b9081835416178255600182019060018060a01b036020890151169082541617905560408601516002820155606086015160038201556080860151600482015560a0860151600582015560c0860151600682015560e08601516007820155019301511515839060ff801983541691151516179055565b5160028110156113fc5761ff0082549160081b169061ff00191617905560405160018060a01b03821681526024356020820152604435604082015261256260608201606435612761565b827f93cb2591720fa23e5a51a39bf9d35b6a4e5cb6c11beae435c41e4482f3a30d2160803393a3608435806126af575b6125a6575b60208260018055604051908152f35b60643561269e578260206127106125c2611b585b60443561295e565b049260a460018060a01b0360055416916040519788938492637190caeb60e11b845233600485015260018060a01b03166024840152602435604484015260443560648401528860848401525af193841561076c578194612665575b50604084849360209660078486887ff71bf80fa0a269e5fdbe7113cc01a1ada492208f97e2857213258755d0cbbb5e985260068b52200155825191825286820152a238612597565b9093506020813d602011612696575b81612681602093836128af565b81010312612692575192604061261d565b8380fd5b3d9150612674565b8260206127106125c26117706125ba565b506005546001600160a01b03161515612592565b60405162461bcd60e51b8152602060048201526015602482015274056616c756174696f6e206d757374206265203e203605c1b6044820152606490fd5b60405162461bcd60e51b815260206004820152600d60248201526c24b73b30b634b2103a37b5b2b760991b6044820152606490fd5b600435906001600160a01b0382168203610d6557565b6040906003190112610d65576004359060243590565b90600282101561276e5752565b634e487b7160e01b600052602160045260246000fd5b6000546001600160a01b0316330361279857565b60405163118cdaa760e01b8152336004820152602490fd5b156127b757565b60405162461bcd60e51b815260206004820152600f60248201526e496e76616c6964206164647265737360881b6044820152606490fd5b156127f557565b60405162461bcd60e51b81526020600482015260126024820152710416d6f756e74206d757374206265203e20360741b6044820152606490fd5b610140810190811067ffffffffffffffff82111761284c57604052565b634e487b7160e01b600052604160045260246000fd5b610100810190811067ffffffffffffffff82111761284c57604052565b67ffffffffffffffff811161284c57604052565b6060810190811067ffffffffffffffff82111761284c57604052565b90601f8019910116810190811067ffffffffffffffff82111761284c57604052565b90816020910312610d6557518015158103610d655790565b156128f057565b60405162461bcd60e51b8152602060048201526015602482015274151bdad95b881d1c985b9cd9995c8819985a5b1959605a1b6044820152606490fd5b600019811461293c5760010190565b634e487b7160e01b600052601160045260246000fd5b600282101561276e5752565b8181029291811591840414171561293c57565b811561297b570490565b634e487b7160e01b600052601260045260246000fd5b6002600154146129a2576002600155565b604051633ee5aeb560e01b8152600490fd5b156129bb57565b60405162461bcd60e51b8152602060048201526013602482015272506f736974696f6e206e6f742061637469766560681b6044820152606490fd5b156129fd57565b60405162461bcd60e51b81526020600482015260126024820152712737ba103837b9b4ba34b7b71037bbb732b960711b6044820152606490fd5b9190820180921161293c57565b15612a4b57565b60405162461bcd60e51b81526020600482015260146024820152731554d110c81d1c985b9cd9995c8819985a5b195960621b6044820152606490fd5b9190826040910312610d65576020825192015190565b9190820391821161293c57565b15612ab157565b60405162461bcd60e51b815260206004820152600f60248201526e506c616e206e6f742061637469766560881b6044820152606490fd5b919082519283825260005b848110612b14575050826000602080949584010152601f8019910116010190565b602081830181015184830182015201612af3565b15612b2f57565b60405162461bcd60e51b815260206004820152601760248201527f506f736974696f6e206e6f74206c6971756964617465640000000000000000006044820152606490fd5b15612b7b57565b60405162461bcd60e51b81526020600482015260166024820152751499599d5b99081d1c985b9cd9995c8819985a5b195960521b6044820152606490fd5b90600091808352602090600682526040842090604051612bd88161282f565b60018060a01b039081845416815281600185015416858201526002840154604082015260038401546060820152612c55600860048601549560808401968752600581015460a0850152600681015460c0850152600781015460e085015201549161012060ff6101008301948181161515865260081c169101612952565b5115612d02578390600354169160246040518094819363d559515760e01b835260048301525afa928315610dd5578593612cd2575b50508115612cc9575161271090818102918183041490151715612cb557612cb2929350612971565b90565b634e487b7160e01b84526011600452602484fd5b50600019925050565b9080929350813d8311612cfb575b612cea81836128af565b810103126126925751903880612c8a565b503d612ce0565b50505050565b60009080825260209060068252604083209060405191612d278361282f565b60018060a01b039283825416815283600183015416858201526002820154604082015260038201546060820152600860048301549260808301938452600581015460a0840152600681015460c0840152600781015460e0840152015490612da560ff61012061010084019382861615158552019360081c1683612952565b5115612e6657516002811015612e5257612dd185926127109215600014612e4957611b58905b5161295e565b0492600354169160246040518094819363d559515760e01b835260048301525afa928315610cf7578493612e19575b505081811115612e1457612cb29250612a9d565b505090565b9080929350813d8311612e42575b612e3181836128af565b81010312610c9a5751903880612e00565b503d612e27565b61177090612dcb565b634e487b7160e01b86526021600452602486fd5b50505050509056fea26469706673582212201df49d7ce4a1433e20770e3832407db34b07981bbc7439899c46499a6c7a8bb564736f6c63430008140033","opcodes":"PUSH1 0x80 CALLVALUE PUSH3 0xF5 JUMPI PUSH1 0x1F PUSH3 0x2FCA CODESIZE DUP2 SWAP1 SUB SWAP2 DUP3 ADD PUSH1 0x1F NOT AND DUP4 ADD SWAP2 PUSH1 0x1 PUSH1 0x1 PUSH1 0x40 SHL SUB DUP4 GT DUP5 DUP5 LT OR PUSH3 0xFA JUMPI DUP1 DUP5 SWAP3 PUSH1 0x40 SWAP5 DUP6 MSTORE DUP4 CODECOPY DUP2 ADD SUB SLT PUSH3 0xF5 JUMPI PUSH3 0x5A PUSH1 0x20 PUSH3 0x52 DUP4 PUSH3 0x110 JUMP JUMPDEST SWAP3 ADD PUSH3 0x110 JUMP JUMPDEST CALLER ISZERO PUSH3 0xDC JUMPI PUSH1 0x0 DUP1 SLOAD CALLER PUSH1 0x1 PUSH1 0x1 PUSH1 0xA0 SHL SUB NOT DUP1 DUP4 AND DUP3 OR DUP5 SSTORE PUSH1 0x40 MLOAD SWAP6 SWAP1 SWAP5 PUSH1 0x1 PUSH1 0x1 PUSH1 0xA0 SHL SUB SWAP5 SWAP1 SWAP4 DUP6 SWAP4 SWAP2 SWAP1 DUP5 AND SWAP1 PUSH32 0x8BE0079C531659141344CD1FD0A4F28419497F9722A3DAAFE3B4186F6B6457E0 SWAP1 DUP1 LOG3 PUSH1 0x1 DUP1 SSTORE AND DUP4 PUSH1 0x2 SLOAD AND OR PUSH1 0x2 SSTORE AND SWAP1 PUSH1 0x3 SLOAD AND OR PUSH1 0x3 SSTORE PUSH1 0x1 PUSH1 0x7 SSTORE PUSH2 0x2EA4 SWAP1 DUP2 PUSH3 0x126 DUP3 CODECOPY RETURN JUMPDEST PUSH1 0x40 MLOAD PUSH4 0x1E4FBDF7 PUSH1 0xE0 SHL DUP2 MSTORE PUSH1 0x0 PUSH1 0x4 DUP3 ADD MSTORE PUSH1 0x24 SWAP1 REVERT JUMPDEST PUSH1 0x0 DUP1 REVERT JUMPDEST PUSH4 0x4E487B71 PUSH1 0xE0 SHL PUSH1 0x0 MSTORE PUSH1 0x41 PUSH1 0x4 MSTORE PUSH1 0x24 PUSH1 0x0 REVERT JUMPDEST MLOAD SWAP1 PUSH1 0x1 PUSH1 0x1 PUSH1 0xA0 SHL SUB DUP3 AND DUP3 SUB PUSH3 0xF5 JUMPI JUMP INVALID PUSH1 0x80 PUSH1 0x40 MSTORE PUSH1 0x4 CALLDATASIZE LT ISZERO PUSH2 0x12 JUMPI PUSH1 0x0 DUP1 REVERT JUMPDEST PUSH1 0x0 DUP1 CALLDATALOAD PUSH1 0xE0 SHR DUP1 PUSH4 0xBAE9EF9 EQ PUSH2 0x235E JUMPI DUP1 PUSH4 0x137C3F69 EQ PUSH2 0x2312 JUMPI DUP1 PUSH4 0x16EF1729 EQ PUSH2 0x22E3 JUMPI DUP1 PUSH4 0x17845C69 EQ PUSH2 0x22C4 JUMPI DUP1 PUSH4 0x1E77CEDA EQ PUSH2 0x229B JUMPI DUP1 PUSH4 0x2BE04392 EQ PUSH2 0x2272 JUMPI DUP1 PUSH4 0x3E413BEE EQ PUSH2 0x2249 JUMPI DUP1 PUSH4 0x4D111A05 EQ PUSH2 0x1D8A JUMPI DUP1 PUSH4 0x518E8DFC EQ PUSH2 0x1D6D JUMPI DUP1 PUSH4 0x52964DE5 EQ PUSH2 0x1C4B JUMPI DUP1 PUSH4 0x5403BC4A EQ PUSH2 0x17B6 JUMPI DUP1 PUSH4 0x6C320CB0 EQ PUSH2 0x176A JUMPI DUP1 PUSH4 0x715018A6 EQ PUSH2 0x1710 JUMPI DUP1 PUSH4 0x73216450 EQ PUSH2 0x1689 JUMPI DUP1 PUSH4 0x761C5F0A EQ PUSH2 0x166C JUMPI DUP1 PUSH4 0x767A7B05 EQ PUSH2 0x1437 JUMPI DUP1 PUSH4 0x7B5210D8 EQ PUSH2 0x1410 JUMPI DUP1 PUSH4 0x837C2A61 EQ PUSH2 0xE1B JUMPI DUP1 PUSH4 0x899346C7 EQ PUSH2 0xDFD JUMPI DUP1 PUSH4 0x8A700B53 EQ PUSH2 0xA1A JUMPI DUP1 PUSH4 0x8DA5CB5B EQ PUSH2 0x9F3 JUMPI DUP1 PUSH4 0x90A8AE9B EQ PUSH2 0x9D6 JUMPI DUP1 PUSH4 0x99FBAB88 EQ PUSH2 0x930 JUMPI DUP1 PUSH4 0xA53AE06B EQ PUSH2 0x8B1 JUMPI DUP1 PUSH4 0xA7F8A5E2 EQ PUSH2 0x888 JUMPI DUP1 PUSH4 0xCDDDD4E5 EQ PUSH2 0x531 JUMPI DUP1 PUSH4 0xD79873B9 EQ PUSH2 0x514 JUMPI DUP1 PUSH4 0xE1F1C4A7 EQ PUSH2 0x4F7 JUMPI DUP1 PUSH4 0xE2DC3666 EQ PUSH2 0x4AB JUMPI DUP1 PUSH4 0xEB02C301 EQ PUSH2 0x33E JUMPI DUP1 PUSH4 0xF2FDE38B EQ PUSH2 0x2B3 JUMPI DUP1 PUSH4 0xF416FC1C EQ PUSH2 0x28A JUMPI PUSH4 0xFEA58E83 EQ PUSH2 0x188 JUMPI PUSH1 0x0 DUP1 REVERT JUMPDEST CALLVALUE PUSH2 0x287 JUMPI PUSH1 0x20 CALLDATASIZE PUSH1 0x3 NOT ADD SLT PUSH2 0x287 JUMPI PUSH1 0x40 DUP2 PUSH2 0x100 SWAP3 PUSH1 0xE0 DUP4 MLOAD PUSH2 0x1AD DUP2 PUSH2 0x2862 JUMP JUMPDEST DUP3 DUP2 MSTORE DUP3 PUSH1 0x20 DUP3 ADD MSTORE DUP3 DUP6 DUP3 ADD MSTORE DUP3 PUSH1 0x60 DUP3 ADD MSTORE DUP3 PUSH1 0x80 DUP3 ADD MSTORE DUP3 PUSH1 0xA0 DUP3 ADD MSTORE DUP3 PUSH1 0xC0 DUP3 ADD MSTORE ADD MSTORE PUSH1 0x4 CALLDATALOAD DUP2 MSTORE PUSH1 0xA PUSH1 0x20 MSTORE KECCAK256 PUSH1 0x40 MLOAD SWAP1 PUSH2 0x1ED DUP3 PUSH2 0x2862 JUMP JUMPDEST DUP1 SLOAD SWAP2 DUP3 DUP2 MSTORE PUSH1 0x1 DUP3 ADD SLOAD SWAP2 PUSH1 0x20 DUP3 ADD SWAP3 DUP4 MSTORE PUSH1 0x2 DUP2 ADD SLOAD PUSH1 0x40 DUP4 ADD SWAP1 DUP2 MSTORE PUSH1 0x3 DUP3 ADD SLOAD PUSH1 0x60 DUP5 ADD SWAP1 DUP2 MSTORE PUSH1 0x4 DUP4 ADD SLOAD SWAP2 PUSH1 0x80 DUP6 ADD SWAP3 DUP4 MSTORE PUSH1 0x6 PUSH1 0x5 DUP6 ADD SLOAD SWAP5 PUSH1 0xA0 DUP8 ADD SWAP6 DUP7 MSTORE ADD SLOAD SWAP6 PUSH1 0xFF PUSH1 0xE0 PUSH1 0xC0 DUP9 ADD SWAP8 DUP3 DUP11 AND ISZERO ISZERO DUP10 MSTORE ADD SWAP8 PUSH1 0x8 SHR AND ISZERO ISZERO DUP8 MSTORE PUSH1 0x40 MLOAD SWAP8 DUP9 MSTORE MLOAD PUSH1 0x20 DUP9 ADD MSTORE MLOAD PUSH1 0x40 DUP8 ADD MSTORE MLOAD PUSH1 0x60 DUP7 ADD MSTORE MLOAD PUSH1 0x80 DUP6 ADD MSTORE MLOAD PUSH1 0xA0 DUP5 ADD MSTORE MLOAD ISZERO ISZERO PUSH1 0xC0 DUP4 ADD MSTORE MLOAD ISZERO ISZERO PUSH1 0xE0 DUP3 ADD MSTORE RETURN JUMPDEST DUP1 REVERT JUMPDEST POP CALLVALUE PUSH2 0x287 JUMPI DUP1 PUSH1 0x3 NOT CALLDATASIZE ADD SLT PUSH2 0x287 JUMPI PUSH1 0x3 SLOAD PUSH1 0x40 MLOAD PUSH1 0x1 PUSH1 0x1 PUSH1 0xA0 SHL SUB SWAP1 SWAP2 AND DUP2 MSTORE PUSH1 0x20 SWAP1 RETURN JUMPDEST POP CALLVALUE PUSH2 0x287 JUMPI PUSH1 0x20 CALLDATASIZE PUSH1 0x3 NOT ADD SLT PUSH2 0x287 JUMPI PUSH2 0x2CD PUSH2 0x2735 JUMP JUMPDEST PUSH2 0x2D5 PUSH2 0x2784 JUMP JUMPDEST PUSH1 0x1 PUSH1 0x1 PUSH1 0xA0 SHL SUB SWAP1 DUP2 AND SWAP1 DUP2 ISZERO PUSH2 0x325 JUMPI PUSH1 0x0 SLOAD DUP3 PUSH1 0x1 PUSH1 0x1 PUSH1 0x60 SHL SUB PUSH1 0xA0 SHL DUP3 AND OR PUSH1 0x0 SSTORE AND PUSH32 0x8BE0079C531659141344CD1FD0A4F28419497F9722A3DAAFE3B4186F6B6457E0 PUSH1 0x0 DUP1 LOG3 DUP1 RETURN JUMPDEST PUSH1 0x40 MLOAD PUSH4 0x1E4FBDF7 PUSH1 0xE0 SHL DUP2 MSTORE PUSH1 0x4 DUP2 ADD DUP5 SWAP1 MSTORE PUSH1 0x24 SWAP1 REVERT JUMPDEST POP CALLVALUE PUSH2 0x287 JUMPI PUSH1 0x20 CALLDATASIZE PUSH1 0x3 NOT ADD SLT PUSH2 0x287 JUMPI PUSH1 0x40 DUP2 PUSH2 0x140 SWAP3 PUSH2 0x120 DUP4 MLOAD PUSH2 0x365 DUP2 PUSH2 0x282F JUMP JUMPDEST DUP3 DUP2 MSTORE DUP3 PUSH1 0x20 DUP3 ADD MSTORE DUP3 DUP6 DUP3 ADD MSTORE DUP3 PUSH1 0x60 DUP3 ADD MSTORE DUP3 PUSH1 0x80 DUP3 ADD MSTORE DUP3 PUSH1 0xA0 DUP3 ADD MSTORE DUP3 PUSH1 0xC0 DUP3 ADD MSTORE DUP3 PUSH1 0xE0 DUP3 ADD MSTORE DUP3 PUSH2 0x100 DUP3 ADD MSTORE ADD MSTORE PUSH1 0x4 CALLDATALOAD DUP2 MSTORE PUSH1 0x6 PUSH1 0x20 MSTORE KECCAK256 PUSH2 0x42A PUSH1 0xFF PUSH1 0x8 PUSH1 0x40 MLOAD SWAP4 PUSH2 0x3B9 DUP6 PUSH2 0x282F JUMP JUMPDEST DUP1 SLOAD PUSH1 0x1 PUSH1 0x1 PUSH1 0xA0 SHL SUB SWAP1 DUP2 AND DUP7 MSTORE PUSH1 0x1 DUP3 ADD SLOAD AND PUSH1 0x20 DUP7 ADD MSTORE PUSH1 0x2 DUP2 ADD SLOAD PUSH1 0x40 DUP7 ADD MSTORE PUSH1 0x3 DUP2 ADD SLOAD PUSH1 0x60 DUP7 ADD MSTORE PUSH1 0x4 DUP2 ADD SLOAD PUSH1 0x80 DUP7 ADD MSTORE PUSH1 0x5 DUP2 ADD SLOAD PUSH1 0xA0 DUP7 ADD MSTORE PUSH1 0x6 DUP2 ADD SLOAD PUSH1 0xC0 DUP7 ADD MSTORE PUSH1 0x7 DUP2 ADD SLOAD PUSH1 0xE0 DUP7 ADD MSTORE ADD SLOAD DUP2 DUP2 AND ISZERO ISZERO PUSH2 0x100 DUP6 ADD MSTORE PUSH1 0x8 SHR AND PUSH2 0x120 DUP4 ADD PUSH2 0x2952 JUMP JUMPDEST PUSH2 0x4A9 PUSH2 0x120 PUSH1 0x40 MLOAD SWAP3 PUSH1 0x1 DUP1 PUSH1 0xA0 SHL SUB DUP2 MLOAD AND DUP5 MSTORE PUSH1 0x1 DUP1 PUSH1 0xA0 SHL SUB PUSH1 0x20 DUP3 ADD MLOAD AND PUSH1 0x20 DUP6 ADD MSTORE PUSH1 0x40 DUP2 ADD MLOAD PUSH1 0x40 DUP6 ADD MSTORE PUSH1 0x60 DUP2 ADD MLOAD PUSH1 0x60 DUP6 ADD MSTORE PUSH1 0x80 DUP2 ADD MLOAD PUSH1 0x80 DUP6 ADD MSTORE PUSH1 0xA0 DUP2 ADD MLOAD PUSH1 0xA0 DUP6 ADD MSTORE PUSH1 0xC0 DUP2 ADD MLOAD PUSH1 0xC0 DUP6 ADD MSTORE PUSH1 0xE0 DUP2 ADD MLOAD PUSH1 0xE0 DUP6 ADD MSTORE PUSH2 0x100 DUP2 ADD MLOAD ISZERO ISZERO PUSH2 0x100 DUP6 ADD MSTORE ADD MLOAD PUSH2 0x120 DUP4 ADD SWAP1 PUSH2 0x2761 JUMP JUMPDEST RETURN JUMPDEST POP CALLVALUE PUSH2 0x287 JUMPI PUSH1 0x20 CALLDATASIZE PUSH1 0x3 NOT ADD SLT PUSH2 0x287 JUMPI PUSH2 0x4C5 PUSH2 0x2735 JUMP JUMPDEST PUSH2 0x4CD PUSH2 0x2784 JUMP JUMPDEST PUSH1 0x1 PUSH1 0x1 PUSH1 0xA0 SHL SUB AND PUSH2 0x4E1 DUP2 ISZERO ISZERO PUSH2 0x27B0 JUMP JUMPDEST PUSH1 0x1 PUSH1 0x1 PUSH1 0x60 SHL SUB PUSH1 0xA0 SHL PUSH1 0x4 SLOAD AND OR PUSH1 0x4 SSTORE DUP1 RETURN JUMPDEST POP CALLVALUE PUSH2 0x287 JUMPI DUP1 PUSH1 0x3 NOT CALLDATASIZE ADD SLT PUSH2 0x287 JUMPI PUSH1 0x20 PUSH1 0x40 MLOAD PUSH2 0x2710 DUP2 MSTORE RETURN JUMPDEST POP CALLVALUE PUSH2 0x287 JUMPI DUP1 PUSH1 0x3 NOT CALLDATASIZE ADD SLT PUSH2 0x287 JUMPI PUSH1 0x20 PUSH1 0x40 MLOAD PUSH2 0x1770 DUP2 MSTORE RETURN JUMPDEST POP CALLVALUE PUSH2 0x287 JUMPI PUSH1 0x20 DUP1 PUSH1 0x3 NOT CALLDATASIZE ADD SLT PUSH2 0x779 JUMPI PUSH1 0x4 CALLDATALOAD SWAP1 PUSH2 0x550 PUSH2 0x2784 JUMP JUMPDEST PUSH2 0x558 PUSH2 0x2991 JUMP JUMPDEST DUP2 DUP4 MSTORE PUSH1 0x6 DUP2 MSTORE PUSH1 0x40 DUP4 KECCAK256 SWAP1 PUSH2 0x574 PUSH1 0xFF PUSH1 0x8 DUP5 ADD SLOAD AND PUSH2 0x29B4 JUMP JUMPDEST DUP3 DUP5 MSTORE PUSH1 0x8 DUP2 MSTORE PUSH1 0xFF PUSH1 0x40 DUP6 KECCAK256 SLOAD AND PUSH2 0x84B JUMPI PUSH2 0x2CEC PUSH2 0x593 DUP5 PUSH2 0x2BB9 JUMP JUMPDEST LT SWAP2 DUP4 DUP6 MSTORE PUSH1 0xA DUP3 MSTORE PUSH1 0x6 PUSH1 0x40 DUP7 KECCAK256 ADD DUP1 SLOAD PUSH1 0xFF DUP2 AND SWAP1 DUP2 PUSH2 0x83D JUMPI JUMPDEST POP DUP5 SWAP1 DUP6 ISZERO PUSH2 0x835 JUMPI JUMPDEST POP ISZERO PUSH2 0x7E2 JUMPI DUP5 DUP7 MSTORE PUSH1 0x8 DUP4 MSTORE PUSH1 0x40 DUP7 KECCAK256 PUSH1 0xFF NOT SWAP1 PUSH1 0x1 DUP3 DUP3 SLOAD AND OR SWAP1 SSTORE TIMESTAMP PUSH1 0x6 DUP5 ADD SSTORE DUP2 SLOAD PUSH1 0xFF DUP2 AND PUSH2 0x7D7 JUMPI JUMPDEST POP POP PUSH1 0x5 SLOAD PUSH1 0x1 PUSH1 0x1 PUSH1 0xA0 SHL SUB AND SWAP4 SWAP1 POP DUP4 ISZERO ISZERO DUP1 PUSH2 0x7CA JUMPI JUMPDEST PUSH2 0x63B JUMPI JUMPDEST POP POP PUSH32 0x77493833E3B7F392BD715FFDC3ABD21434418E6889264880074C970E1B5E61C8 SWAP2 POP PUSH1 0x40 MLOAD TIMESTAMP DUP2 MSTORE LOG2 PUSH1 0x1 DUP1 SSTORE DUP1 RETURN JUMPDEST ISZERO PUSH2 0x77D JUMPI PUSH1 0x7 PUSH1 0x40 MLOAD PUSH2 0x64E DUP2 PUSH2 0x2893 JUMP JUMPDEST PUSH1 0x37 DUP2 MSTORE PUSH32 0x506F736974696F6E206C697175696461746564202D20636F6C6C61746572616C DUP5 DUP3 ADD MSTORE PUSH32 0x206865616C74682062656C6F77207468726573686F6C64000000000000000000 PUSH1 0x40 DUP3 ADD MSTORE SWAP2 JUMPDEST ADD SWAP3 DUP6 DUP5 SLOAD DUP3 EXTCODESIZE ISZERO PUSH2 0x779 JUMPI DUP2 SWAP1 PUSH1 0x40 MLOAD SWAP4 DUP5 SWAP2 PUSH4 0x67CC7CFF PUSH1 0xE0 SHL DUP4 MSTORE PUSH1 0x4 DUP4 ADD MSTORE PUSH1 0x40 PUSH1 0x24 DUP4 ADD MSTORE DUP2 DUP4 DUP2 PUSH2 0x6D9 PUSH1 0x44 DUP3 ADD DUP11 PUSH2 0x2AE8 JUMP JUMPDEST SUB SWAP3 GAS CALL SWAP2 DUP3 ISZERO PUSH2 0x76C JUMPI DUP7 SWAP3 PUSH2 0x751 JUMPI JUMPDEST POP POP PUSH32 0xD89109F5414F7B5415E9A3E20B055F6A8CC38B81F34D24EB5AE3512086356A8A PUSH2 0x747 PUSH32 0x77493833E3B7F392BD715FFDC3ABD21434418E6889264880074C970E1B5E61C8 SWAP6 SLOAD SWAP4 PUSH1 0x40 MLOAD SWAP2 DUP3 SWAP2 DUP8 DUP4 MSTORE DUP8 DUP4 ADD SWAP1 PUSH2 0x2AE8 JUMP JUMPDEST SUB SWAP1 LOG3 CODESIZE DUP1 PUSH2 0x608 JUMP JUMPDEST PUSH2 0x75C SWAP2 SWAP3 POP PUSH2 0x287F JUMP JUMPDEST PUSH2 0x768 JUMPI DUP4 DUP6 CODESIZE PUSH2 0x6EB JUMP JUMPDEST DUP5 DUP1 REVERT JUMPDEST POP PUSH1 0x40 MLOAD SWAP1 RETURNDATASIZE SWAP1 DUP3 RETURNDATACOPY RETURNDATASIZE SWAP1 REVERT JUMPDEST POP DUP1 REVERT JUMPDEST PUSH1 0x7 PUSH1 0x40 MLOAD PUSH2 0x78B DUP2 PUSH2 0x2893 JUMP JUMPDEST PUSH1 0x27 DUP2 MSTORE PUSH32 0x506F736974696F6E206C697175696461746564202D2072657061796D656E7420 DUP5 DUP3 ADD MSTORE PUSH7 0x191959985D5B1D PUSH1 0xCA SHL PUSH1 0x40 DUP3 ADD MSTORE SWAP2 PUSH2 0x69F JUMP JUMPDEST POP PUSH1 0x7 DUP3 ADD SLOAD ISZERO ISZERO PUSH2 0x603 JUMP JUMPDEST AND SWAP1 SSTORE CODESIZE DUP1 DUP1 PUSH2 0x5E9 JUMP JUMPDEST PUSH1 0x40 MLOAD PUSH3 0x461BCD PUSH1 0xE5 SHL DUP2 MSTORE PUSH1 0x4 DUP2 ADD DUP5 SWAP1 MSTORE PUSH1 0x25 PUSH1 0x24 DUP3 ADD MSTORE PUSH32 0x506F736974696F6E206973206865616C74687920616E64206E6F742064656661 PUSH1 0x44 DUP3 ADD MSTORE PUSH5 0x1D5B1D1959 PUSH1 0xDA SHL PUSH1 0x64 DUP3 ADD MSTORE PUSH1 0x84 SWAP1 REVERT JUMPDEST SWAP1 POP CODESIZE PUSH2 0x5BA JUMP JUMPDEST PUSH1 0xFF SWAP2 POP PUSH1 0x8 SHR AND CODESIZE PUSH2 0x5B0 JUMP JUMPDEST PUSH1 0x64 SWAP1 PUSH1 0x40 MLOAD SWAP1 PUSH3 0x461BCD PUSH1 0xE5 SHL DUP3 MSTORE PUSH1 0x4 DUP3 ADD MSTORE PUSH1 0x16 PUSH1 0x24 DUP3 ADD MSTORE PUSH22 0x20B63932B0B23C9034B7103634B8BAB4B230BA34B7B7 PUSH1 0x51 SHL PUSH1 0x44 DUP3 ADD MSTORE REVERT JUMPDEST POP CALLVALUE PUSH2 0x287 JUMPI DUP1 PUSH1 0x3 NOT CALLDATASIZE ADD SLT PUSH2 0x287 JUMPI PUSH1 0x9 SLOAD PUSH1 0x40 MLOAD PUSH1 0x1 PUSH1 0x1 PUSH1 0xA0 SHL SUB SWAP1 SWAP2 AND DUP2 MSTORE PUSH1 0x20 SWAP1 RETURN JUMPDEST POP CALLVALUE PUSH2 0x287 JUMPI PUSH1 0x20 CALLDATASIZE PUSH1 0x3 NOT ADD SLT PUSH2 0x287 JUMPI PUSH1 0x40 PUSH2 0x100 SWAP2 PUSH1 0x4 CALLDATALOAD DUP2 MSTORE PUSH1 0xA PUSH1 0x20 MSTORE KECCAK256 PUSH1 0xFF DUP2 SLOAD SWAP2 PUSH1 0x1 DUP2 ADD SLOAD SWAP1 PUSH1 0x2 DUP2 ADD SLOAD PUSH1 0x3 DUP3 ADD SLOAD PUSH1 0x4 DUP4 ADD SLOAD SWAP2 PUSH1 0x6 PUSH1 0x5 DUP6 ADD SLOAD SWAP5 ADD SLOAD SWAP5 PUSH1 0x40 MLOAD SWAP8 DUP9 MSTORE PUSH1 0x20 DUP9 ADD MSTORE PUSH1 0x40 DUP8 ADD MSTORE PUSH1 0x60 DUP7 ADD MSTORE PUSH1 0x80 DUP6 ADD MSTORE PUSH1 0xA0 DUP5 ADD MSTORE DUP2 DUP2 AND ISZERO ISZERO PUSH1 0xC0 DUP5 ADD MSTORE PUSH1 0x8 SHR AND ISZERO ISZERO PUSH1 0xE0 DUP3 ADD MSTORE RETURN JUMPDEST POP CALLVALUE PUSH2 0x287 JUMPI PUSH1 0x20 CALLDATASIZE PUSH1 0x3 NOT ADD SLT PUSH2 0x287 JUMPI PUSH1 0x40 PUSH2 0x140 SWAP2 PUSH1 0x4 CALLDATALOAD DUP2 MSTORE PUSH1 0x6 PUSH1 0x20 MSTORE KECCAK256 PUSH2 0x4A9 PUSH1 0x1 DUP1 PUSH1 0xA0 SHL SUB SWAP2 DUP3 DUP2 SLOAD AND SWAP3 PUSH1 0x1 DUP3 ADD SLOAD AND SWAP1 PUSH1 0x2 DUP2 ADD SLOAD PUSH1 0x3 DUP3 ADD SLOAD PUSH1 0x4 DUP4 ADD SLOAD PUSH1 0x5 DUP5 ADD SLOAD SWAP2 PUSH1 0x6 DUP6 ADD SLOAD SWAP4 PUSH1 0x8 PUSH1 0x7 DUP8 ADD SLOAD SWAP7 ADD SLOAD SWAP7 PUSH1 0x40 MLOAD SWAP10 DUP11 MSTORE PUSH1 0x20 DUP11 ADD MSTORE PUSH1 0x40 DUP10 ADD MSTORE PUSH1 0x60 DUP9 ADD MSTORE PUSH1 0x80 DUP8 ADD MSTORE PUSH1 0xA0 DUP7 ADD MSTORE PUSH1 0xC0 DUP6 ADD MSTORE PUSH1 0xE0 DUP5 ADD MSTORE PUSH1 0xFF DUP2 AND ISZERO ISZERO PUSH2 0x100 DUP5 ADD MSTORE PUSH1 0xFF PUSH2 0x120 DUP5 ADD SWAP2 PUSH1 0x8 SHR AND PUSH2 0x2761 JUMP JUMPDEST POP CALLVALUE PUSH2 0x287 JUMPI DUP1 PUSH1 0x3 NOT CALLDATASIZE ADD SLT PUSH2 0x287 JUMPI PUSH1 0x20 PUSH1 0x40 MLOAD PUSH2 0x2CEC DUP2 MSTORE RETURN JUMPDEST POP CALLVALUE PUSH2 0x287 JUMPI DUP1 PUSH1 0x3 NOT CALLDATASIZE ADD SLT PUSH2 0x287 JUMPI SLOAD PUSH1 0x40 MLOAD PUSH1 0x1 PUSH1 0x1 PUSH1 0xA0 SHL SUB SWAP1 SWAP2 AND DUP2 MSTORE PUSH1 0x20 SWAP1 RETURN JUMPDEST POP CALLVALUE PUSH2 0x287 JUMPI PUSH2 0xA29 CALLDATASIZE PUSH2 0x274B JUMP JUMPDEST PUSH2 0xA31 PUSH2 0x2991 JUMP JUMPDEST DUP2 DUP4 MSTORE DUP3 PUSH1 0x20 SWAP2 PUSH1 0x6 DUP4 MSTORE PUSH1 0x40 DUP3 KECCAK256 PUSH2 0xA50 PUSH1 0xFF PUSH1 0x8 DUP4 ADD SLOAD AND PUSH2 0x29B4 JUMP JUMPDEST DUP1 SLOAD PUSH1 0x1 PUSH1 0x1 PUSH1 0xA0 SHL SUB SWAP2 SWAP1 PUSH2 0xA69 SWAP1 DUP4 AND CALLER EQ PUSH2 0x29F6 JUMP JUMPDEST PUSH2 0xA74 DUP4 ISZERO ISZERO PUSH2 0x27EE JUMP JUMPDEST PUSH1 0x2 SLOAD PUSH1 0x40 MLOAD PUSH4 0x23B872DD PUSH1 0xE0 SHL DUP2 MSTORE CALLER PUSH1 0x4 DUP3 ADD MSTORE ADDRESS PUSH1 0x24 DUP3 ADD MSTORE PUSH1 0x44 DUP2 ADD DUP6 SWAP1 MSTORE SWAP2 SWAP1 DUP7 SWAP1 DUP4 SWAP1 PUSH1 0x64 SWAP1 DUP3 SWAP1 DUP10 SWAP1 DUP9 AND GAS CALL SWAP2 DUP3 ISZERO PUSH2 0xDD5 JUMPI PUSH2 0xB05 SWAP3 PUSH2 0xAC4 SWAP2 DUP8 SWAP2 PUSH2 0xDE0 JUMPI JUMPDEST POP PUSH2 0x2A44 JUMP JUMPDEST PUSH1 0x2 SLOAD PUSH1 0x3 SLOAD PUSH1 0x40 MLOAD PUSH4 0x95EA7B3 PUSH1 0xE0 SHL DUP2 MSTORE SWAP1 DUP6 AND PUSH1 0x1 PUSH1 0x1 PUSH1 0xA0 SHL SUB AND PUSH1 0x4 DUP3 ADD MSTORE PUSH1 0x24 DUP2 ADD DUP7 SWAP1 MSTORE SWAP3 DUP8 SWAP2 DUP5 SWAP2 SWAP1 DUP7 AND SWAP1 DUP3 SWAP1 DUP10 SWAP1 DUP3 SWAP1 PUSH1 0x44 DUP3 ADD SWAP1 JUMP JUMPDEST SUB SWAP3 GAS CALL SWAP2 DUP3 ISZERO PUSH2 0xDD5 JUMPI DUP6 SWAP3 PUSH2 0xDA8 JUMPI JUMPDEST POP PUSH1 0x40 DUP4 PUSH1 0x3 SLOAD AND PUSH1 0x44 DUP3 MLOAD DUP1 SWAP9 DUP2 SWAP4 PUSH4 0xD8AED145 PUSH1 0xE0 SHL DUP4 MSTORE DUP13 PUSH1 0x4 DUP5 ADD MSTORE DUP10 PUSH1 0x24 DUP5 ADD MSTORE GAS CALL SWAP3 DUP4 ISZERO PUSH2 0xC8F JUMPI PUSH1 0x24 SWAP7 DUP4 SWAP7 DUP5 SWAP6 PUSH2 0xD71 JUMPI JUMPDEST POP PUSH1 0x3 DUP4 ADD PUSH2 0xB62 DUP9 DUP3 SLOAD PUSH2 0x2A9D JUMP JUMPDEST SWAP1 SSTORE DUP1 DUP3 PUSH1 0x3 SLOAD AND PUSH1 0x40 MLOAD SWAP10 DUP11 DUP1 SWAP3 PUSH4 0xD5595157 PUSH1 0xE0 SHL DUP3 MSTORE DUP14 PUSH1 0x4 DUP4 ADD MSTORE GAS STATICCALL SWAP8 DUP9 ISZERO PUSH2 0xCF7 JUMPI DUP5 SWAP9 PUSH2 0xD38 JUMPI JUMPDEST POP PUSH1 0xA SWAP1 DUP10 DUP6 MSTORE MSTORE PUSH1 0x40 DUP4 KECCAK256 PUSH1 0x6 DUP2 ADD SWAP1 DUP2 SLOAD SWAP1 PUSH1 0xFF DUP3 AND PUSH2 0xD0F JUMPI JUMPDEST POP POP POP DUP1 PUSH1 0x5 SLOAD AND DUP1 ISZERO ISZERO DUP1 PUSH2 0xD02 JUMPI JUMPDEST PUSH2 0xC1B JUMPI JUMPDEST POP POP POP POP PUSH32 0x91F28E20F26321CF8A71CADBEFE77CFE670EE70B71A621E3CE3FB1B57E19DFAA SWAP4 PUSH2 0xC11 SWAP2 PUSH1 0x40 MLOAD SWAP5 DUP6 SWAP5 DUP6 SWAP1 SWAP5 SWAP4 SWAP3 PUSH1 0x60 SWAP3 PUSH1 0x80 DUP4 ADD SWAP7 DUP4 MSTORE PUSH1 0x20 DUP4 ADD MSTORE PUSH1 0x40 DUP3 ADD MSTORE ADD MSTORE JUMP JUMPDEST SUB SWAP1 LOG2 PUSH1 0x1 DUP1 SSTORE DUP1 RETURN JUMPDEST DUP7 PUSH2 0xC9E JUMPI JUMPDEST POP PUSH1 0x7 SWAP1 PUSH1 0x5 SLOAD AND SWAP2 ADD SLOAD DUP2 EXTCODESIZE ISZERO PUSH2 0xC9A JUMPI DUP3 SWAP2 PUSH1 0x84 DUP4 SWAP3 PUSH1 0x40 MLOAD SWAP5 DUP6 SWAP4 DUP5 SWAP3 PUSH4 0xF2F6818F PUSH1 0xE0 SHL DUP5 MSTORE PUSH1 0x4 DUP5 ADD MSTORE DUP10 PUSH1 0x24 DUP5 ADD MSTORE PUSH1 0x1 PUSH1 0x44 DUP5 ADD MSTORE DUP2 PUSH1 0x64 DUP5 ADD MSTORE GAS CALL DUP1 ISZERO PUSH2 0xC8F JUMPI PUSH2 0xC77 JUMPI JUMPDEST DUP1 DUP1 PUSH2 0xBC4 JUMP JUMPDEST PUSH2 0xC80 SWAP1 PUSH2 0x287F JUMP JUMPDEST PUSH2 0xC8B JUMPI DUP6 CODESIZE PUSH2 0xC70 JUMP JUMPDEST DUP6 DUP1 REVERT JUMPDEST PUSH1 0x40 MLOAD RETURNDATASIZE DUP5 DUP3 RETURNDATACOPY RETURNDATASIZE SWAP1 REVERT JUMPDEST DUP3 DUP1 REVERT JUMPDEST PUSH1 0x7 DUP4 ADD SLOAD DUP2 EXTCODESIZE ISZERO PUSH2 0x768 JUMPI DUP5 SWAP2 PUSH1 0x44 DUP4 SWAP3 PUSH1 0x40 MLOAD SWAP5 DUP6 SWAP4 DUP5 SWAP3 PUSH4 0x6AD75E1F PUSH1 0xE0 SHL DUP5 MSTORE PUSH1 0x4 DUP5 ADD MSTORE DUP13 PUSH1 0x24 DUP5 ADD MSTORE GAS CALL SWAP1 DUP2 ISZERO PUSH2 0xCF7 JUMPI DUP5 SWAP2 PUSH2 0xCE3 JUMPI JUMPDEST POP PUSH2 0xC21 JUMP JUMPDEST PUSH2 0xCEC SWAP1 PUSH2 0x287F JUMP JUMPDEST PUSH2 0xC9A JUMPI DUP3 CODESIZE PUSH2 0xCDD JUMP JUMPDEST PUSH1 0x40 MLOAD RETURNDATASIZE DUP7 DUP3 RETURNDATACOPY RETURNDATASIZE SWAP1 REVERT JUMPDEST POP PUSH1 0x7 DUP4 ADD SLOAD ISZERO ISZERO PUSH2 0xBBF JUMP JUMPDEST PUSH1 0x4 ADD PUSH2 0xD1C DUP2 SLOAD PUSH2 0x292D JUMP JUMPDEST SWAP1 SSTORE DUP9 ISZERO PUSH2 0xD2B JUMPI JUMPDEST DUP1 PUSH2 0xBAE JUMP JUMPDEST PUSH1 0xFF NOT AND SWAP1 SSTORE CODESIZE DUP1 PUSH2 0xD25 JUMP JUMPDEST DUP2 DUP1 SWAP10 POP DUP2 SWAP6 POP RETURNDATASIZE DUP4 GT PUSH2 0xD6A JUMPI JUMPDEST PUSH2 0xD51 DUP2 DUP4 PUSH2 0x28AF JUMP JUMPDEST DUP2 ADD SUB SLT PUSH2 0xD65 JUMPI PUSH1 0xA DUP10 SWAP4 MLOAD SWAP8 SWAP1 PUSH2 0xB91 JUMP JUMPDEST PUSH1 0x0 DUP1 REVERT JUMPDEST POP RETURNDATASIZE PUSH2 0xD47 JUMP JUMPDEST SWAP1 SWAP5 POP PUSH2 0xD97 SWAP2 SWAP7 POP PUSH1 0x40 RETURNDATASIZE PUSH1 0x40 GT PUSH2 0xDA1 JUMPI JUMPDEST PUSH2 0xD8F DUP2 DUP4 PUSH2 0x28AF JUMP JUMPDEST DUP2 ADD SWAP1 PUSH2 0x2A87 JUMP JUMPDEST SWAP6 SWAP1 SWAP6 SWAP4 CODESIZE PUSH2 0xB52 JUMP JUMPDEST POP RETURNDATASIZE PUSH2 0xD85 JUMP JUMPDEST PUSH2 0xDC7 SWAP1 DUP8 RETURNDATASIZE DUP10 GT PUSH2 0xDCE JUMPI JUMPDEST PUSH2 0xDBF DUP2 DUP4 PUSH2 0x28AF JUMP JUMPDEST DUP2 ADD SWAP1 PUSH2 0x28D1 JUMP JUMPDEST POP CODESIZE PUSH2 0xB17 JUMP JUMPDEST POP RETURNDATASIZE PUSH2 0xDB5 JUMP JUMPDEST PUSH1 0x40 MLOAD RETURNDATASIZE DUP8 DUP3 RETURNDATACOPY RETURNDATASIZE SWAP1 REVERT JUMPDEST PUSH2 0xDF7 SWAP2 POP DUP9 RETURNDATASIZE DUP11 GT PUSH2 0xDCE JUMPI PUSH2 0xDBF DUP2 DUP4 PUSH2 0x28AF JUMP JUMPDEST CODESIZE PUSH2 0xABE JUMP JUMPDEST POP CALLVALUE PUSH2 0x287 JUMPI DUP1 PUSH1 0x3 NOT CALLDATASIZE ADD SLT PUSH2 0x287 JUMPI PUSH1 0x20 PUSH1 0x7 SLOAD PUSH1 0x40 MLOAD SWAP1 DUP2 MSTORE RETURN JUMPDEST POP CALLVALUE PUSH2 0x287 JUMPI PUSH1 0x20 SWAP1 DUP2 PUSH1 0x3 NOT CALLDATASIZE ADD SLT PUSH2 0x287 JUMPI PUSH1 0x4 CALLDATALOAD PUSH2 0xE3A PUSH2 0x2784 JUMP JUMPDEST PUSH2 0xE42 PUSH2 0x2991 JUMP JUMPDEST DUP1 DUP3 MSTORE PUSH1 0x6 DUP4 MSTORE PUSH1 0x40 DUP3 KECCAK256 PUSH1 0x8 DUP2 ADD SWAP4 PUSH1 0xFF DUP6 SLOAD PUSH2 0xE61 DUP3 DUP3 AND PUSH2 0x29B4 JUMP JUMPDEST DUP5 DUP7 MSTORE PUSH1 0x8 DUP4 MSTORE PUSH2 0xE77 DUP3 PUSH1 0x40 DUP9 KECCAK256 SLOAD AND PUSH2 0x2B28 JUMP JUMPDEST PUSH1 0x8 SHR AND PUSH1 0x2 DUP2 LT ISZERO PUSH2 0x13FC JUMPI PUSH2 0x13C2 JUMPI PUSH1 0x9 SLOAD PUSH1 0x1 PUSH1 0x1 PUSH1 0xA0 SHL SUB SWAP4 SWAP1 DUP5 AND DUP1 ISZERO PUSH2 0x1388 JUMPI PUSH1 0x1 DUP5 ADD DUP1 SLOAD PUSH1 0x2 DUP7 ADD DUP1 SLOAD PUSH1 0x40 MLOAD PUSH4 0x95EA7B3 PUSH1 0xE0 SHL DUP1 DUP3 MSTORE PUSH1 0x1 PUSH1 0x1 PUSH1 0xA0 SHL SUB SWAP7 SWAP1 SWAP7 AND PUSH1 0x4 DUP3 ADD MSTORE PUSH1 0x24 DUP2 ADD SWAP2 SWAP1 SWAP2 MSTORE SWAP9 SWAP10 SWAP1 SWAP3 SWAP1 SWAP2 DUP7 SWAP1 DUP11 SWAP1 PUSH1 0x44 SWAP1 DUP3 SWAP1 DUP15 SWAP1 DUP14 AND GAS CALL SWAP1 DUP2 ISZERO PUSH2 0x10DB JUMPI PUSH2 0xF35 SWAP10 DUP8 SWAP3 PUSH2 0x136B JUMPI JUMPDEST POP PUSH1 0x9 SLOAD SWAP1 SLOAD DUP5 SLOAD PUSH1 0x40 MLOAD PUSH4 0xC34F5ED PUSH1 0xE1 SHL DUP2 MSTORE SWAP2 DUP12 AND PUSH1 0x1 PUSH1 0x1 PUSH1 0xA0 SHL SUB AND PUSH1 0x4 DUP4 ADD MSTORE PUSH1 0x24 DUP3 ADD MSTORE SWAP10 DUP11 SWAP2 DUP11 AND SWAP1 DUP3 SWAP1 DUP14 SWAP1 DUP3 SWAP1 PUSH1 0x44 DUP3 ADD SWAP1 JUMP JUMPDEST SUB SWAP3 GAS CALL SWAP8 DUP9 ISZERO PUSH2 0x1360 JUMPI DUP10 SWAP9 PUSH2 0x1331 JUMPI JUMPDEST POP DUP8 ISZERO PUSH2 0x12F8 JUMPI DUP7 PUSH1 0x3 SLOAD AND SWAP3 PUSH1 0x40 MLOAD PUSH4 0xD5595157 PUSH1 0xE0 SHL DUP2 MSTORE DUP6 PUSH1 0x4 DUP3 ADD MSTORE DUP7 DUP2 PUSH1 0x24 DUP2 DUP9 GAS STATICCALL SWAP5 DUP6 ISZERO PUSH2 0x12ED JUMPI DUP8 SWAP2 DUP13 SWAP7 PUSH2 0x12BC JUMPI JUMPDEST POP DUP12 SWAP6 DUP1 PUSH2 0x11E0 JUMPI JUMPDEST POP POP POP POP DUP3 DUP9 GT ISZERO PUSH2 0x11AC JUMPI PUSH2 0xF9E DUP4 DUP10 PUSH2 0x2A9D JUMP JUMPDEST SWAP6 PUSH2 0x3E8 DUP1 DUP9 MUL SWAP1 DUP9 DUP3 DIV EQ DUP9 ISZERO OR ISZERO PUSH2 0x1198 JUMPI PUSH2 0x2710 PUSH2 0xFC1 SWAP2 DIV DUP1 SWAP9 PUSH2 0x2A9D JUMP JUMPDEST SWAP8 DUP8 PUSH2 0x10E6 JUMPI JUMPDEST DUP9 PUSH2 0x1036 JUMPI JUMPDEST POP POP SWAP2 PUSH1 0x60 SWAP9 DUP7 SWAP3 PUSH32 0x1B5CD914BF77EE50DE90263F47D89967BBCE85A4EB078D958BFEE08DC0D0CDE7 SWAP5 JUMPDEST DUP1 SLOAD PUSH1 0xFF NOT AND SWAP1 SSTORE SSTORE PUSH1 0x40 DUP1 MLOAD DUP10 DUP2 MSTORE PUSH1 0x20 DUP2 ADD SWAP3 SWAP1 SWAP3 MSTORE DUP2 ADD SWAP2 SWAP1 SWAP2 MSTORE PUSH1 0x60 DUP2 ADD DUP7 SWAP1 MSTORE PUSH1 0x80 SWAP1 LOG2 PUSH1 0x1 DUP1 SSTORE PUSH1 0x40 MLOAD SWAP4 DUP5 MSTORE DUP4 ADD MSTORE PUSH1 0x40 DUP3 ADD MSTORE RETURN JUMPDEST PUSH1 0x2 SLOAD SWAP2 SLOAD PUSH1 0x40 MLOAD PUSH4 0xA9059CBB PUSH1 0xE0 SHL DUP2 MSTORE SWAP1 DUP3 AND PUSH1 0x1 PUSH1 0x1 PUSH1 0xA0 SHL SUB AND PUSH1 0x4 DUP3 ADD MSTORE PUSH1 0x24 DUP2 ADD DUP11 SWAP1 MSTORE SWAP2 DUP8 SWAP2 DUP4 SWAP2 AND DUP2 DUP14 DUP2 PUSH1 0x44 DUP2 ADD SUB SWAP3 GAS CALL SWAP1 DUP2 ISZERO PUSH2 0x10DB JUMPI SWAP3 PUSH32 0x1B5CD914BF77EE50DE90263F47D89967BBCE85A4EB078D958BFEE08DC0D0CDE7 SWAP5 SWAP3 PUSH2 0x10B2 DUP13 SWAP4 DUP11 SWAP7 PUSH1 0x60 SWAP15 SWAP2 PUSH2 0x10BE JUMPI JUMPDEST POP PUSH2 0x2B74 JUMP JUMPDEST SWAP3 SWAP5 POP SWAP3 DUP2 SWAP11 POP PUSH2 0xFCE JUMP JUMPDEST PUSH2 0x10D5 SWAP2 POP DUP11 RETURNDATASIZE DUP13 GT PUSH2 0xDCE JUMPI PUSH2 0xDBF DUP2 DUP4 PUSH2 0x28AF JUMP JUMPDEST CODESIZE PUSH2 0x10AC JUMP JUMPDEST PUSH1 0x40 MLOAD RETURNDATASIZE DUP13 DUP3 RETURNDATACOPY RETURNDATASIZE SWAP1 REVERT JUMPDEST PUSH1 0x2 SLOAD DUP12 SLOAD PUSH1 0x40 MLOAD PUSH4 0xA9059CBB PUSH1 0xE0 SHL DUP2 MSTORE SWAP1 DUP4 AND PUSH1 0x1 PUSH1 0x1 PUSH1 0xA0 SHL SUB AND PUSH1 0x4 DUP3 ADD MSTORE PUSH1 0x24 DUP2 ADD DUP11 SWAP1 MSTORE SWAP1 DUP9 SWAP1 DUP3 SWAP1 DUP5 AND DUP2 DUP16 DUP2 PUSH1 0x44 DUP2 ADD SUB SWAP3 GAS CALL SWAP1 DUP2 ISZERO PUSH2 0x118D JUMPI DUP13 SWAP2 PUSH2 0x1170 JUMPI JUMPDEST POP PUSH2 0xFC8 JUMPI PUSH1 0x40 MLOAD PUSH3 0x461BCD PUSH1 0xE5 SHL DUP2 MSTORE PUSH1 0x4 DUP2 ADD DUP9 SWAP1 MSTORE PUSH1 0x13 PUSH1 0x24 DUP3 ADD MSTORE PUSH19 0x119959481D1C985B9CD9995C8819985A5B1959 PUSH1 0x6A SHL PUSH1 0x44 DUP3 ADD MSTORE PUSH1 0x64 SWAP1 REVERT JUMPDEST PUSH2 0x1187 SWAP2 POP DUP9 RETURNDATASIZE DUP11 GT PUSH2 0xDCE JUMPI PUSH2 0xDBF DUP2 DUP4 PUSH2 0x28AF JUMP JUMPDEST CODESIZE PUSH2 0x1130 JUMP JUMPDEST PUSH1 0x40 MLOAD RETURNDATASIZE DUP15 DUP3 RETURNDATACOPY RETURNDATASIZE SWAP1 REVERT JUMPDEST PUSH4 0x4E487B71 PUSH1 0xE0 SHL DUP12 MSTORE PUSH1 0x11 PUSH1 0x4 MSTORE PUSH1 0x24 DUP12 REVERT JUMPDEST SWAP6 POP DUP8 SWAP5 POP PUSH32 0x1B5CD914BF77EE50DE90263F47D89967BBCE85A4EB078D958BFEE08DC0D0CDE7 SWAP2 PUSH1 0x60 SWAP9 SWAP6 DUP7 SWAP3 DUP2 SWAP9 PUSH2 0xFF9 JUMP JUMPDEST PUSH2 0x1229 SWAP4 SWAP5 SWAP7 POP DUP1 DUP13 GT PUSH1 0x0 EQ PUSH2 0x12B2 JUMPI SWAP4 DUP5 SWAP2 JUMPDEST PUSH1 0x2 SLOAD PUSH1 0x40 MLOAD SWAP3 DUP4 MSTORE PUSH1 0x1 PUSH1 0x1 PUSH1 0xA0 SHL SUB SWAP1 SWAP2 AND PUSH1 0x4 DUP4 ADD MSTORE PUSH1 0x24 DUP3 ADD SWAP3 SWAP1 SWAP3 MSTORE SWAP3 DUP4 SWAP2 DUP12 AND SWAP1 DUP3 SWAP1 DUP15 SWAP1 DUP3 SWAP1 PUSH1 0x44 DUP3 ADD SWAP1 JUMP JUMPDEST SUB SWAP3 GAS CALL DUP1 ISZERO PUSH2 0x10DB JUMPI PUSH2 0x1295 JUMPI JUMPDEST POP DUP9 PUSH1 0x40 DUP9 PUSH1 0x3 SLOAD AND PUSH1 0x44 DUP3 MLOAD DUP1 SWAP5 DUP2 SWAP4 PUSH4 0xD8AED145 PUSH1 0xE0 SHL DUP4 MSTORE DUP11 PUSH1 0x4 DUP5 ADD MSTORE DUP8 PUSH1 0x24 DUP5 ADD MSTORE GAS CALL DUP1 ISZERO PUSH2 0x10DB JUMPI PUSH2 0x1277 JUMPI JUMPDEST POP SWAP2 CODESIZE DUP6 DUP2 DUP1 PUSH2 0xF88 JUMP JUMPDEST PUSH2 0x128F SWAP1 PUSH1 0x40 RETURNDATASIZE PUSH1 0x40 GT PUSH2 0xDA1 JUMPI PUSH2 0xD8F DUP2 DUP4 PUSH2 0x28AF JUMP JUMPDEST POP PUSH2 0x126C JUMP JUMPDEST PUSH2 0x12AB SWAP1 DUP7 RETURNDATASIZE DUP9 GT PUSH2 0xDCE JUMPI PUSH2 0xDBF DUP2 DUP4 PUSH2 0x28AF JUMP JUMPDEST POP CODESIZE PUSH2 0x1238 JUMP JUMPDEST POP DUP11 SWAP4 DUP5 SWAP2 PUSH2 0x11F5 JUMP JUMPDEST DUP3 DUP2 SWAP4 SWAP3 SWAP8 POP RETURNDATASIZE DUP4 GT PUSH2 0x12E6 JUMPI JUMPDEST PUSH2 0x12D4 DUP2 DUP4 PUSH2 0x28AF JUMP JUMPDEST DUP2 ADD SUB SLT PUSH2 0xD65 JUMPI DUP7 SWAP1 MLOAD SWAP5 CODESIZE PUSH2 0xF7F JUMP JUMPDEST POP RETURNDATASIZE PUSH2 0x12CA JUMP JUMPDEST PUSH1 0x40 MLOAD RETURNDATASIZE DUP14 DUP3 RETURNDATACOPY RETURNDATASIZE SWAP1 REVERT JUMPDEST PUSH1 0x40 MLOAD PUSH3 0x461BCD PUSH1 0xE5 SHL DUP2 MSTORE PUSH1 0x4 DUP2 ADD DUP7 SWAP1 MSTORE PUSH1 0x11 PUSH1 0x24 DUP3 ADD MSTORE PUSH17 0x139BC81E5A595B19081C9958D95A5D9959 PUSH1 0x7A SHL PUSH1 0x44 DUP3 ADD MSTORE PUSH1 0x64 SWAP1 REVERT JUMPDEST SWAP1 SWAP8 POP DUP5 DUP2 DUP2 RETURNDATASIZE DUP4 GT PUSH2 0x1359 JUMPI JUMPDEST PUSH2 0x1349 DUP2 DUP4 PUSH2 0x28AF JUMP JUMPDEST DUP2 ADD SUB SLT PUSH2 0xD65 JUMPI MLOAD SWAP7 CODESIZE PUSH2 0xF47 JUMP JUMPDEST POP RETURNDATASIZE PUSH2 0x133F JUMP JUMPDEST PUSH1 0x40 MLOAD RETURNDATASIZE DUP12 DUP3 RETURNDATACOPY RETURNDATASIZE SWAP1 REVERT JUMPDEST PUSH2 0x1381 SWAP1 DUP4 RETURNDATASIZE DUP6 GT PUSH2 0xDCE JUMPI PUSH2 0xDBF DUP2 DUP4 PUSH2 0x28AF JUMP JUMPDEST POP CODESIZE PUSH2 0xEF7 JUMP JUMPDEST PUSH1 0x40 MLOAD PUSH3 0x461BCD PUSH1 0xE5 SHL DUP2 MSTORE PUSH1 0x4 DUP2 ADD DUP5 SWAP1 MSTORE PUSH1 0x12 PUSH1 0x24 DUP3 ADD MSTORE PUSH18 0x165A595B1915985D5B1D081B9BDD081CD95D PUSH1 0x72 SHL PUSH1 0x44 DUP3 ADD MSTORE PUSH1 0x64 SWAP1 REVERT JUMPDEST PUSH1 0x64 SWAP1 PUSH1 0x40 MLOAD SWAP1 PUSH3 0x461BCD PUSH1 0xE5 SHL DUP3 MSTORE PUSH1 0x4 DUP3 ADD MSTORE PUSH1 0x13 PUSH1 0x24 DUP3 ADD MSTORE PUSH19 0x4F6E6C7920666F722052574120746F6B656E73 PUSH1 0x68 SHL PUSH1 0x44 DUP3 ADD MSTORE REVERT JUMPDEST PUSH4 0x4E487B71 PUSH1 0xE0 SHL DUP6 MSTORE PUSH1 0x21 PUSH1 0x4 MSTORE PUSH1 0x24 DUP6 REVERT JUMPDEST POP CALLVALUE PUSH2 0x287 JUMPI PUSH1 0x20 CALLDATASIZE PUSH1 0x3 NOT ADD SLT PUSH2 0x287 JUMPI PUSH1 0x20 PUSH2 0x142F PUSH1 0x4 CALLDATALOAD PUSH2 0x2D08 JUMP JUMPDEST PUSH1 0x40 MLOAD SWAP1 DUP2 MSTORE RETURN JUMPDEST POP CALLVALUE PUSH2 0x287 JUMPI PUSH2 0x1446 CALLDATASIZE PUSH2 0x274B JUMP JUMPDEST SWAP1 PUSH2 0x144F PUSH2 0x2991 JUMP JUMPDEST DUP1 DUP4 MSTORE PUSH1 0x20 PUSH1 0x6 DUP2 MSTORE PUSH1 0x40 DUP5 KECCAK256 PUSH1 0x8 DUP2 ADD SWAP1 DUP2 SLOAD PUSH2 0x146F PUSH1 0xFF DUP3 AND PUSH2 0x29B4 JUMP JUMPDEST DUP2 SLOAD PUSH1 0x1 PUSH1 0x1 PUSH1 0xA0 SHL SUB SWAP4 SWAP1 PUSH2 0x1488 SWAP1 DUP6 AND CALLER EQ PUSH2 0x29F6 JUMP JUMPDEST PUSH2 0x1493 DUP8 ISZERO ISZERO PUSH2 0x27EE JUMP JUMPDEST PUSH1 0x2 DUP4 ADD DUP1 SLOAD DUP1 DUP10 GT PUSH2 0x1627 JUMPI PUSH1 0x24 DUP8 DUP8 PUSH1 0x3 SLOAD AND PUSH1 0x40 MLOAD SWAP3 DUP4 DUP1 SWAP3 PUSH4 0xD5595157 PUSH1 0xE0 SHL DUP3 MSTORE DUP14 PUSH1 0x4 DUP4 ADD MSTORE GAS STATICCALL SWAP1 DUP2 ISZERO PUSH2 0x12ED JUMPI DUP12 SWAP2 PUSH2 0x15FA JUMPI JUMPDEST POP PUSH2 0x15B5 JUMPI SWAP1 PUSH2 0x14E4 DUP10 PUSH1 0x1 SWAP7 SWAP6 SWAP5 SWAP4 PUSH2 0x2A9D JUMP JUMPDEST DUP1 SWAP2 SSTORE ISZERO PUSH2 0x1582 JUMPI JUMPDEST POP POP ADD SLOAD PUSH1 0x40 MLOAD PUSH4 0xA9059CBB PUSH1 0xE0 SHL DUP2 MSTORE CALLER PUSH1 0x4 DUP3 ADD MSTORE PUSH1 0x24 DUP2 ADD DUP7 SWAP1 MSTORE SWAP3 SWAP2 DUP3 SWAP2 DUP5 SWAP2 PUSH1 0x44 SWAP2 DUP4 SWAP2 DUP11 SWAP2 AND GAS CALL SWAP2 DUP3 ISZERO PUSH2 0xDD5 JUMPI PUSH32 0x7C5E5CB62E5ED3CAF3764E4B0AFEDFEDEF533E27809D43367799787AD2ABCD41 SWAP3 PUSH2 0x1555 SWAP2 DUP8 SWAP2 PUSH2 0x1565 JUMPI JUMPDEST POP PUSH2 0x28E9 JUMP JUMPDEST PUSH1 0x40 MLOAD SWAP4 DUP5 MSTORE CALLER SWAP4 LOG3 PUSH1 0x1 DUP1 SSTORE DUP1 RETURN JUMPDEST PUSH2 0x157C SWAP2 POP DUP4 RETURNDATASIZE DUP6 GT PUSH2 0xDCE JUMPI PUSH2 0xDBF DUP2 DUP4 PUSH2 0x28AF JUMP JUMPDEST CODESIZE PUSH2 0x154F JUMP JUMPDEST PUSH1 0xFF NOT DUP1 SWAP3 AND SWAP1 SSTORE DUP6 DUP9 MSTORE PUSH1 0xA DUP6 MSTORE PUSH1 0x6 PUSH1 0x40 DUP10 KECCAK256 ADD SWAP1 DUP2 SLOAD PUSH1 0xFF DUP2 AND PUSH2 0x15AA JUMPI JUMPDEST POP PUSH2 0x14ED JUMP JUMPDEST AND SWAP1 SSTORE CODESIZE DUP1 DUP1 PUSH2 0x15A4 JUMP JUMPDEST PUSH1 0x40 MLOAD PUSH3 0x461BCD PUSH1 0xE5 SHL DUP2 MSTORE PUSH1 0x4 DUP2 ADD DUP9 SWAP1 MSTORE PUSH1 0x1F PUSH1 0x24 DUP3 ADD MSTORE PUSH32 0x4F75747374616E64696E672064656274206D7573742062652072657061696400 PUSH1 0x44 DUP3 ADD MSTORE PUSH1 0x64 SWAP1 REVERT JUMPDEST SWAP1 POP DUP8 DUP2 DUP2 RETURNDATASIZE DUP4 GT PUSH2 0x1620 JUMPI JUMPDEST PUSH2 0x1611 DUP2 DUP4 PUSH2 0x28AF JUMP JUMPDEST DUP2 ADD SUB SLT PUSH2 0xD65 JUMPI MLOAD CODESIZE PUSH2 0x14CF JUMP JUMPDEST POP RETURNDATASIZE PUSH2 0x1607 JUMP JUMPDEST PUSH1 0x40 MLOAD PUSH3 0x461BCD PUSH1 0xE5 SHL DUP2 MSTORE PUSH1 0x4 DUP2 ADD DUP9 SWAP1 MSTORE PUSH1 0x17 PUSH1 0x24 DUP3 ADD MSTORE PUSH32 0x496E73756666696369656E7420636F6C6C61746572616C000000000000000000 PUSH1 0x44 DUP3 ADD MSTORE PUSH1 0x64 SWAP1 REVERT JUMPDEST POP CALLVALUE PUSH2 0x287 JUMPI DUP1 PUSH1 0x3 NOT CALLDATASIZE ADD SLT PUSH2 0x287 JUMPI PUSH1 0x20 PUSH1 0x40 MLOAD PUSH2 0x1B58 DUP2 MSTORE RETURN JUMPDEST POP CALLVALUE PUSH2 0x287 JUMPI PUSH1 0x20 CALLDATASIZE PUSH1 0x3 NOT ADD SLT PUSH2 0x287 JUMPI PUSH1 0x4 CALLDATALOAD PUSH2 0x16A6 PUSH2 0x2784 JUMP JUMPDEST DUP1 DUP3 MSTORE PUSH1 0x6 PUSH1 0x20 MSTORE PUSH2 0x16C1 PUSH1 0xFF PUSH1 0x8 PUSH1 0x40 DUP6 KECCAK256 ADD SLOAD AND PUSH2 0x29B4 JUMP JUMPDEST DUP1 DUP3 MSTORE PUSH1 0xA PUSH1 0x20 MSTORE PUSH1 0x6 PUSH1 0x40 DUP4 KECCAK256 ADD PUSH2 0x100 DUP2 SLOAD PUSH2 0x16E1 PUSH1 0xFF DUP3 AND PUSH2 0x2AAA JUMP JUMPDEST PUSH2 0xFF00 NOT AND OR SWAP1 SSTORE PUSH32 0x5493E4917872C4150C892F2053DB5BF546DA11D77AF31EFAAD0D13D956F56336 DUP3 DUP1 LOG2 DUP1 RETURN JUMPDEST POP CALLVALUE PUSH2 0x287 JUMPI DUP1 PUSH1 0x3 NOT CALLDATASIZE ADD SLT PUSH2 0x287 JUMPI PUSH2 0x1729 PUSH2 0x2784 JUMP JUMPDEST PUSH1 0x0 DUP1 SLOAD PUSH1 0x1 PUSH1 0x1 PUSH1 0xA0 SHL SUB NOT DUP2 AND DUP3 SSTORE PUSH1 0x1 PUSH1 0x1 PUSH1 0xA0 SHL SUB AND PUSH32 0x8BE0079C531659141344CD1FD0A4F28419497F9722A3DAAFE3B4186F6B6457E0 DUP3 DUP1 LOG3 DUP1 RETURN JUMPDEST POP CALLVALUE PUSH2 0x287 JUMPI PUSH1 0x20 CALLDATASIZE PUSH1 0x3 NOT ADD SLT PUSH2 0x287 JUMPI PUSH2 0x1784 PUSH2 0x2735 JUMP JUMPDEST PUSH2 0x178C PUSH2 0x2784 JUMP JUMPDEST PUSH1 0x1 PUSH1 0x1 PUSH1 0xA0 SHL SUB AND PUSH2 0x17A0 DUP2 ISZERO ISZERO PUSH2 0x27B0 JUMP JUMPDEST PUSH1 0x1 PUSH1 0x1 PUSH1 0x60 SHL SUB PUSH1 0xA0 SHL PUSH1 0x5 SLOAD AND OR PUSH1 0x5 SSTORE DUP1 RETURN JUMPDEST POP CALLVALUE PUSH2 0x287 JUMPI PUSH2 0x17C5 CALLDATASIZE PUSH2 0x274B JUMP JUMPDEST PUSH2 0x17CD PUSH2 0x2784 JUMP JUMPDEST PUSH2 0x17D5 PUSH2 0x2991 JUMP JUMPDEST DUP2 DUP4 MSTORE PUSH1 0x6 PUSH1 0x20 MSTORE PUSH1 0x40 DUP4 KECCAK256 SWAP1 PUSH1 0xFF PUSH1 0x8 DUP4 ADD SLOAD PUSH2 0x17F4 DUP3 DUP3 AND PUSH2 0x29B4 JUMP JUMPDEST DUP5 DUP7 MSTORE PUSH1 0x8 PUSH1 0x20 MSTORE PUSH2 0x180B DUP3 PUSH1 0x40 DUP9 KECCAK256 SLOAD AND PUSH2 0x2B28 JUMP JUMPDEST PUSH1 0x8 SHR AND PUSH1 0x2 DUP2 LT ISZERO PUSH2 0x13FC JUMPI PUSH1 0x1 SUB PUSH2 0x1C06 JUMPI DUP1 ISZERO PUSH2 0x1BC1 JUMPI PUSH1 0x2 SLOAD PUSH1 0x40 MLOAD PUSH4 0x23B872DD PUSH1 0xE0 SHL DUP2 MSTORE CALLER PUSH1 0x4 DUP3 ADD MSTORE ADDRESS PUSH1 0x24 DUP3 ADD MSTORE PUSH1 0x44 DUP2 ADD DUP4 SWAP1 MSTORE SWAP1 PUSH1 0x20 SWAP1 DUP3 SWAP1 PUSH1 0x64 SWAP1 DUP3 SWAP1 DUP10 SWAP1 PUSH1 0x1 PUSH1 0x1 PUSH1 0xA0 SHL SUB AND GAS CALL DUP1 ISZERO PUSH2 0xDD5 JUMPI PUSH2 0x1876 SWAP2 DUP7 SWAP2 PUSH2 0x1BA8 JUMPI POP PUSH2 0x2A44 JUMP JUMPDEST PUSH1 0x1 DUP3 ADD SLOAD PUSH1 0x2 DUP4 ADD SLOAD PUSH1 0x40 MLOAD PUSH4 0xA9059CBB PUSH1 0xE0 SHL DUP2 MSTORE CALLER PUSH1 0x4 DUP3 ADD MSTORE PUSH1 0x24 DUP2 ADD SWAP2 SWAP1 SWAP2 MSTORE SWAP1 PUSH1 0x20 SWAP1 DUP3 SWAP1 PUSH1 0x44 SWAP1 DUP3 SWAP1 DUP10 SWAP1 PUSH1 0x1 PUSH1 0x1 PUSH1 0xA0 SHL SUB AND GAS CALL DUP1 ISZERO PUSH2 0xDD5 JUMPI PUSH2 0x18C9 SWAP2 DUP7 SWAP2 PUSH2 0x1B8F JUMPI POP PUSH2 0x28E9 JUMP JUMPDEST PUSH1 0x3 SLOAD PUSH1 0x40 MLOAD PUSH4 0xD5595157 PUSH1 0xE0 SHL DUP2 MSTORE PUSH1 0x4 DUP2 ADD DUP6 SWAP1 MSTORE SWAP4 SWAP1 PUSH1 0x1 PUSH1 0x1 PUSH1 0xA0 SHL SUB AND PUSH1 0x20 DUP6 PUSH1 0x24 DUP2 DUP5 GAS STATICCALL SWAP5 DUP6 ISZERO PUSH2 0x1B23 JUMPI DUP7 SWAP6 PUSH2 0x1B5B JUMPI JUMPDEST POP DUP6 SWAP5 DUP1 PUSH2 0x1A5B JUMPI JUMPDEST POP POP DUP4 DUP3 GT ISZERO PUSH2 0x1A4B JUMPI PUSH2 0x191F DUP5 DUP4 PUSH2 0x2A9D JUMP JUMPDEST SWAP4 PUSH2 0x3E8 DUP1 DUP7 MUL SWAP1 DUP7 DUP3 DIV EQ DUP7 ISZERO OR ISZERO PUSH2 0x1A37 JUMPI PUSH2 0x2710 PUSH2 0x1942 SWAP2 DIV DUP1 SWAP7 PUSH2 0x2A9D JUMP JUMPDEST SWAP4 DUP5 PUSH2 0x19B1 JUMPI JUMPDEST SWAP6 DUP1 PUSH1 0x2 PUSH1 0x40 SWAP9 JUMPDEST PUSH1 0xFF NOT PUSH1 0x8 DUP3 ADD SLOAD AND PUSH1 0x8 DUP3 ADD SSTORE ADD SSTORE DUP7 MLOAD SWAP4 DUP5 MSTORE PUSH1 0x20 DUP5 ADD MSTORE DUP6 DUP4 ADD MSTORE DUP4 PUSH1 0x60 DUP4 ADD MSTORE DUP3 PUSH1 0x80 DUP4 ADD MSTORE PUSH32 0xE8809F589FB6A4A715F089D80B78E1C37443064C63CAD260285284847C9FC4A3 PUSH1 0xA0 CALLER SWAP4 LOG3 PUSH1 0x1 DUP1 SSTORE DUP3 MLOAD SWAP2 DUP3 MSTORE PUSH1 0x20 DUP3 ADD MSTORE RETURN JUMPDEST PUSH1 0x2 SLOAD DUP2 SLOAD PUSH1 0x40 MLOAD PUSH4 0xA9059CBB PUSH1 0xE0 SHL DUP2 MSTORE PUSH1 0x1 PUSH1 0x1 PUSH1 0xA0 SHL SUB SWAP2 DUP3 AND PUSH1 0x4 DUP3 ADD MSTORE PUSH1 0x24 DUP2 ADD DUP9 SWAP1 MSTORE SWAP2 PUSH1 0x20 SWAP2 DUP4 SWAP2 PUSH1 0x44 SWAP2 DUP4 SWAP2 DUP14 SWAP2 AND GAS CALL SWAP1 DUP2 ISZERO PUSH2 0x1A2C JUMPI DUP9 SWAP3 PUSH2 0x1A09 DUP5 SWAP4 PUSH1 0x2 SWAP4 PUSH1 0x40 SWAP13 SWAP2 PUSH2 0x1A13 JUMPI POP PUSH2 0x2B74 JUMP JUMPDEST SWAP3 POP POP SWAP7 POP PUSH2 0x1949 JUMP JUMPDEST PUSH2 0x10D5 SWAP2 POP PUSH1 0x20 RETURNDATASIZE PUSH1 0x20 GT PUSH2 0xDCE JUMPI PUSH2 0xDBF DUP2 DUP4 PUSH2 0x28AF JUMP JUMPDEST PUSH1 0x40 MLOAD RETURNDATASIZE DUP11 DUP3 RETURNDATACOPY RETURNDATASIZE SWAP1 REVERT JUMPDEST PUSH4 0x4E487B71 PUSH1 0xE0 SHL DUP8 MSTORE PUSH1 0x11 PUSH1 0x4 MSTORE PUSH1 0x24 DUP8 REVERT JUMPDEST DUP5 SWAP4 PUSH1 0x40 SWAP6 SWAP5 DUP1 PUSH1 0x2 DUP2 SWAP7 PUSH2 0x1951 JUMP JUMPDEST SWAP2 SWAP5 POP SWAP1 DUP1 DUP4 GT ISZERO PUSH2 0x1B4D JUMPI PUSH1 0x20 PUSH2 0x1AAD SWAP2 DUP1 SWAP4 JUMPDEST PUSH1 0x2 SLOAD PUSH1 0x40 MLOAD PUSH4 0x95EA7B3 PUSH1 0xE0 SHL DUP2 MSTORE PUSH1 0x1 PUSH1 0x1 PUSH1 0xA0 SHL SUB SWAP3 DUP4 AND PUSH1 0x4 DUP3 ADD MSTORE PUSH1 0x24 DUP2 ADD SWAP4 SWAP1 SWAP4 MSTORE SWAP2 SWAP4 DUP5 SWAP3 SWAP1 SWAP2 AND SWAP1 DUP3 SWAP1 DUP11 SWAP1 DUP3 SWAP1 PUSH1 0x44 DUP3 ADD SWAP1 JUMP JUMPDEST SUB SWAP3 GAS CALL DUP1 ISZERO PUSH2 0x1B23 JUMPI PUSH2 0x1B2E JUMPI JUMPDEST POP PUSH1 0x3 SLOAD PUSH1 0x40 DUP1 MLOAD PUSH4 0xD8AED145 PUSH1 0xE0 SHL DUP2 MSTORE PUSH1 0x4 DUP2 ADD DUP8 SWAP1 MSTORE PUSH1 0x24 DUP2 ADD DUP5 SWAP1 MSTORE SWAP2 DUP3 SWAP1 PUSH1 0x44 SWAP1 DUP3 SWAP1 DUP11 SWAP1 PUSH1 0x1 PUSH1 0x1 PUSH1 0xA0 SHL SUB AND GAS CALL DUP1 ISZERO PUSH2 0x1B23 JUMPI PUSH2 0x1B05 JUMPI JUMPDEST POP SWAP3 CODESIZE DUP1 PUSH2 0x190B JUMP JUMPDEST PUSH2 0x1B1D SWAP1 PUSH1 0x40 RETURNDATASIZE PUSH1 0x40 GT PUSH2 0xDA1 JUMPI PUSH2 0xD8F DUP2 DUP4 PUSH2 0x28AF JUMP JUMPDEST POP PUSH2 0x1AFC JUMP JUMPDEST PUSH1 0x40 MLOAD RETURNDATASIZE DUP9 DUP3 RETURNDATACOPY RETURNDATASIZE SWAP1 REVERT JUMPDEST PUSH2 0x1B46 SWAP1 PUSH1 0x20 RETURNDATASIZE PUSH1 0x20 GT PUSH2 0xDCE JUMPI PUSH2 0xDBF DUP2 DUP4 PUSH2 0x28AF JUMP JUMPDEST POP CODESIZE PUSH2 0x1ABC JUMP JUMPDEST POP PUSH2 0x1AAD PUSH1 0x20 DUP4 DUP1 SWAP4 PUSH2 0x1A70 JUMP JUMPDEST SWAP1 SWAP5 POP PUSH1 0x20 DUP2 RETURNDATASIZE PUSH1 0x20 GT PUSH2 0x1B87 JUMPI JUMPDEST DUP2 PUSH2 0x1B77 PUSH1 0x20 SWAP4 DUP4 PUSH2 0x28AF JUMP JUMPDEST DUP2 ADD SUB SLT PUSH2 0xD65 JUMPI MLOAD SWAP4 CODESIZE PUSH2 0x1902 JUMP JUMPDEST RETURNDATASIZE SWAP2 POP PUSH2 0x1B6A JUMP JUMPDEST PUSH2 0x157C SWAP2 POP PUSH1 0x20 RETURNDATASIZE PUSH1 0x20 GT PUSH2 0xDCE JUMPI PUSH2 0xDBF DUP2 DUP4 PUSH2 0x28AF JUMP JUMPDEST PUSH2 0xDF7 SWAP2 POP PUSH1 0x20 RETURNDATASIZE PUSH1 0x20 GT PUSH2 0xDCE JUMPI PUSH2 0xDBF DUP2 DUP4 PUSH2 0x28AF JUMP JUMPDEST PUSH1 0x40 MLOAD PUSH3 0x461BCD PUSH1 0xE5 SHL DUP2 MSTORE PUSH1 0x20 PUSH1 0x4 DUP3 ADD MSTORE PUSH1 0x1B PUSH1 0x24 DUP3 ADD MSTORE PUSH32 0x507572636861736520616D6F756E74206D757374206265203E20300000000000 PUSH1 0x44 DUP3 ADD MSTORE PUSH1 0x64 SWAP1 REVERT JUMPDEST PUSH1 0x40 MLOAD PUSH3 0x461BCD PUSH1 0xE5 SHL DUP2 MSTORE PUSH1 0x20 PUSH1 0x4 DUP3 ADD MSTORE PUSH1 0x17 PUSH1 0x24 DUP3 ADD MSTORE PUSH32 0x4F6E6C7920666F72205072697661746520417373657473000000000000000000 PUSH1 0x44 DUP3 ADD MSTORE PUSH1 0x64 SWAP1 REVERT JUMPDEST POP CALLVALUE PUSH2 0x287 JUMPI PUSH1 0x20 CALLDATASIZE PUSH1 0x3 NOT ADD SLT PUSH2 0x287 JUMPI PUSH1 0x4 CALLDATALOAD PUSH2 0x1C68 PUSH2 0x2784 JUMP JUMPDEST DUP1 DUP3 MSTORE PUSH1 0x6 PUSH1 0x20 MSTORE PUSH1 0x40 DUP3 KECCAK256 PUSH2 0x1C84 PUSH1 0xFF PUSH1 0x8 DUP4 ADD SLOAD AND PUSH2 0x29B4 JUMP JUMPDEST DUP2 DUP4 MSTORE PUSH1 0xA PUSH1 0x20 MSTORE DUP3 PUSH1 0x5 PUSH1 0x40 DUP3 KECCAK256 PUSH2 0x1CA3 PUSH1 0xFF PUSH1 0x6 DUP4 ADD SLOAD AND PUSH2 0x2AAA JUMP JUMPDEST ADD SWAP2 PUSH2 0x1CAF DUP4 SLOAD PUSH2 0x292D JUMP JUMPDEST DUP4 SSTORE PUSH1 0x5 SLOAD PUSH1 0x1 PUSH1 0x1 PUSH1 0xA0 SHL SUB AND SWAP1 DUP2 ISZERO ISZERO DUP1 PUSH2 0x1D60 JUMPI JUMPDEST PUSH2 0x1CFE JUMPI JUMPDEST POP POP POP PUSH1 0x20 PUSH32 0xA4E6BDB946CAA62ACB20CEAAA9F9978DFBF773A0D764E6232B858BDB0920BFCA SWAP2 SLOAD PUSH1 0x40 MLOAD SWAP1 DUP2 MSTORE LOG2 DUP1 RETURN JUMPDEST PUSH1 0x7 ADD SLOAD DUP2 EXTCODESIZE ISZERO PUSH2 0xC9A JUMPI DUP3 SWAP2 PUSH1 0x84 DUP4 SWAP3 PUSH1 0x40 MLOAD SWAP5 DUP6 SWAP4 DUP5 SWAP3 PUSH4 0xF2F6818F PUSH1 0xE0 SHL DUP5 MSTORE PUSH1 0x4 DUP5 ADD MSTORE DUP2 PUSH1 0x24 DUP5 ADD MSTORE DUP2 PUSH1 0x44 DUP5 ADD MSTORE PUSH1 0x1 PUSH1 0x64 DUP5 ADD MSTORE GAS CALL DUP1 ISZERO PUSH2 0xC8F JUMPI PUSH2 0x1D4C JUMPI JUMPDEST DUP1 PUSH2 0x1CCC JUMP JUMPDEST PUSH2 0x1D55 SWAP1 PUSH2 0x287F JUMP JUMPDEST PUSH2 0xC9A JUMPI DUP3 CODESIZE PUSH2 0x1D46 JUMP JUMPDEST POP PUSH1 0x7 DUP2 ADD SLOAD ISZERO ISZERO PUSH2 0x1CC7 JUMP JUMPDEST POP CALLVALUE PUSH2 0x287 JUMPI DUP1 PUSH1 0x3 NOT CALLDATASIZE ADD SLT PUSH2 0x287 JUMPI PUSH1 0x20 PUSH1 0x40 MLOAD PUSH2 0x3E8 DUP2 MSTORE RETURN JUMPDEST POP CALLVALUE PUSH2 0x287 JUMPI PUSH1 0x80 CALLDATASIZE PUSH1 0x3 NOT ADD SLT PUSH2 0x287 JUMPI PUSH1 0x4 CALLDATALOAD PUSH1 0x44 PUSH1 0x64 DUP1 CALLDATALOAD SWAP1 DUP3 CALLDATALOAD SWAP1 PUSH1 0x24 DUP1 CALLDATALOAD SWAP1 PUSH2 0x1DB6 PUSH2 0x2991 JUMP JUMPDEST DUP7 DUP9 MSTORE PUSH1 0x20 SWAP6 PUSH1 0x6 DUP8 MSTORE PUSH1 0x40 DUP10 KECCAK256 PUSH1 0x8 DUP2 ADD SLOAD SWAP3 PUSH2 0x1DD6 PUSH1 0xFF DUP6 AND PUSH2 0x29B4 JUMP JUMPDEST DUP2 SLOAD PUSH1 0x1 PUSH1 0x1 PUSH1 0xA0 SHL SUB SWAP5 SWAP1 PUSH2 0x1DEF SWAP1 DUP7 AND CALLER EQ PUSH2 0x29F6 JUMP JUMPDEST PUSH2 0x1DFA DUP7 ISZERO ISZERO PUSH2 0x27EE JUMP JUMPDEST DUP8 ISZERO PUSH2 0x2210 JUMPI DUP9 ISZERO PUSH2 0x21CE JUMPI DUP9 DUP9 LT PUSH2 0x218C JUMPI DUP11 DUP13 MSTORE PUSH1 0xA DUP11 MSTORE PUSH1 0x40 DUP13 KECCAK256 PUSH1 0x6 ADD SLOAD PUSH1 0xFF AND PUSH2 0x2154 JUMPI PUSH1 0x8 SHR PUSH1 0xFF AND PUSH1 0x2 DUP2 LT ISZERO PUSH2 0x2141 JUMPI PUSH2 0x2133 JUMPI PUSH2 0x2710 PUSH2 0x1E4A PUSH2 0x1B58 JUMPDEST PUSH1 0x4 DUP6 ADD SLOAD PUSH2 0x295E JUMP JUMPDEST DIV SWAP6 PUSH1 0x3 DUP4 ADD SWAP7 PUSH2 0x1E5C DUP8 DUP10 SLOAD PUSH2 0x2A37 JUMP JUMPDEST GT PUSH2 0x20FF JUMPI POP SWAP1 DUP8 SWAP5 SWAP4 SWAP3 SWAP2 PUSH1 0x1 DUP13 PUSH2 0x1F0D PUSH1 0x6 DUP12 DUP16 DUP16 PUSH2 0x1E7D DUP14 DUP5 PUSH2 0x2971 JUMP JUMPDEST SWAP13 DUP14 PUSH2 0x1E89 DUP2 TIMESTAMP PUSH2 0x2A37 JUMP JUMPDEST SWAP2 PUSH1 0x40 MLOAD SWAP6 PUSH2 0x1E97 DUP8 PUSH2 0x2862 JUMP JUMPDEST DUP7 MSTORE DUP4 DUP7 ADD SWAP1 DUP2 MSTORE PUSH1 0x40 DUP7 ADD SWAP2 DUP3 MSTORE PUSH1 0x60 DUP7 ADD SWAP3 DUP4 MSTORE PUSH1 0x40 DUP10 PUSH1 0xA PUSH1 0x80 DUP10 ADD SWAP7 DUP3 DUP9 MSTORE PUSH1 0xA0 DUP11 ADD SWAP9 DUP4 DUP11 MSTORE PUSH1 0xC0 DUP12 ADD SWAP15 DUP16 MSTORE PUSH1 0xE0 DUP12 ADD SWAP14 DUP15 MSTORE DUP4 MSTORE MSTORE KECCAK256 SWAP6 MLOAD DUP7 SSTORE MLOAD PUSH1 0x1 DUP7 ADD SSTORE MLOAD PUSH1 0x2 DUP6 ADD SSTORE MLOAD PUSH1 0x3 DUP5 ADD SSTORE MLOAD PUSH1 0x4 DUP4 ADD SSTORE MLOAD PUSH1 0x5 DUP3 ADD SSTORE ADD SWAP3 MLOAD ISZERO ISZERO DUP4 SWAP1 PUSH1 0xFF DUP1 NOT DUP4 SLOAD AND SWAP2 ISZERO ISZERO AND OR SWAP1 SSTORE JUMP JUMPDEST MLOAD DUP2 SLOAD PUSH2 0xFF00 NOT AND SWAP1 ISZERO ISZERO PUSH1 0x8 SHL PUSH2 0xFF00 AND OR SWAP1 SSTORE PUSH1 0x3 SLOAD DUP13 SWAP1 DUP6 AND DUP1 EXTCODESIZE ISZERO PUSH2 0x779 JUMPI DUP2 SWAP1 DUP6 DUP15 PUSH1 0x40 MLOAD SWAP5 DUP6 SWAP4 DUP5 SWAP3 PUSH4 0xECBCDAB PUSH1 0xE0 SHL DUP5 MSTORE PUSH1 0x4 DUP5 ADD MSTORE DUP12 DUP9 DUP5 ADD MSTORE GAS CALL DUP1 ISZERO PUSH2 0x20F4 JUMPI PUSH2 0x20D9 JUMPI JUMPDEST POP SWAP1 DUP5 SWAP4 SWAP3 SWAP2 PUSH2 0x1F6F DUP14 SWAP7 DUP10 SLOAD PUSH2 0x2A37 JUMP JUMPDEST DUP9 SSTORE DUP4 PUSH1 0x5 SLOAD AND SWAP2 DUP3 ISZERO ISZERO DUP1 PUSH2 0x20CC JUMPI JUMPDEST PUSH2 0x2072 JUMPI JUMPDEST POP POP PUSH1 0x2 SLOAD PUSH1 0x40 MLOAD PUSH4 0xA9059CBB PUSH1 0xE0 SHL DUP2 MSTORE CALLER PUSH1 0x4 DUP3 ADD MSTORE PUSH1 0x24 DUP2 ADD DUP7 SWAP1 MSTORE SWAP4 DUP12 SWAP4 POP DUP5 SWAP3 POP PUSH1 0x44 SWAP2 DUP4 SWAP2 DUP9 SWAP2 AND GAS CALL SWAP2 DUP3 ISZERO PUSH2 0x2067 JUMPI PUSH32 0xDD4271A412A769F5ED0FE9B4B7C386BBA5F674B53B01F0C0DAB8A378C2991BB9 SWAP9 PUSH2 0xC11 SWAP7 PUSH2 0x2017 PUSH32 0x902160BBFEE2201AA09B6B057B6F0B7D0F633B2BDEFC04E987882DF4AEFD29C SWAP6 PUSH1 0x40 SWAP6 DUP15 SWAP9 SWAP2 PUSH2 0x2050 JUMPI POP PUSH2 0x2A44 JUMP JUMPDEST SLOAD SWAP1 DUP4 MLOAD SWAP3 DUP4 MSTORE DUP3 ADD MSTORE LOG2 PUSH2 0x202C DUP2 TIMESTAMP PUSH2 0x2A37 JUMP JUMPDEST SWAP1 PUSH1 0x40 MLOAD SWAP5 DUP6 SWAP5 DUP6 SWAP1 SWAP5 SWAP4 SWAP3 PUSH1 0x60 SWAP3 PUSH1 0x80 DUP4 ADD SWAP7 DUP4 MSTORE PUSH1 0x20 DUP4 ADD MSTORE PUSH1 0x40 DUP3 ADD MSTORE ADD MSTORE JUMP JUMPDEST PUSH2 0xDF7 SWAP2 POP DUP5 RETURNDATASIZE DUP7 GT PUSH2 0xDCE JUMPI PUSH2 0xDBF DUP2 DUP4 PUSH2 0x28AF JUMP JUMPDEST PUSH1 0x40 MLOAD RETURNDATASIZE DUP6 DUP3 RETURNDATACOPY RETURNDATASIZE SWAP1 REVERT JUMPDEST PUSH1 0x7 ADD SLOAD SWAP3 DUP3 EXTCODESIZE ISZERO PUSH2 0x20C8 JUMPI DUP6 SWAP4 DUP8 DUP1 SWAP5 PUSH1 0x40 MLOAD SWAP7 DUP8 SWAP6 DUP7 SWAP5 PUSH4 0x65A1782F PUSH1 0xE0 SHL DUP7 MSTORE PUSH1 0x4 DUP7 ADD MSTORE DUP5 ADD MSTORE GAS CALL SWAP1 DUP2 ISZERO PUSH2 0xCF7 JUMPI DUP5 SWAP2 PUSH2 0x20B4 JUMPI JUMPDEST DUP1 DUP1 PUSH2 0x1F85 JUMP JUMPDEST PUSH2 0x20BD SWAP1 PUSH2 0x287F JUMP JUMPDEST PUSH2 0xC9A JUMPI DUP3 CODESIZE PUSH2 0x20AD JUMP JUMPDEST DUP7 DUP1 REVERT JUMPDEST POP PUSH1 0x7 DUP2 ADD SLOAD ISZERO ISZERO PUSH2 0x1F80 JUMP JUMPDEST PUSH2 0x20E9 SWAP1 SWAP13 SWAP2 SWAP6 SWAP5 SWAP4 SWAP3 SWAP13 PUSH2 0x287F JUMP JUMPDEST SWAP11 SWAP1 SWAP2 SWAP3 SWAP4 CODESIZE PUSH2 0x1F5D JUMP JUMPDEST PUSH1 0x40 MLOAD RETURNDATASIZE DUP16 DUP3 RETURNDATACOPY RETURNDATASIZE SWAP1 REVERT JUMPDEST PUSH1 0x40 MLOAD PUSH3 0x461BCD PUSH1 0xE5 SHL DUP2 MSTORE PUSH1 0x4 DUP2 ADD DUP12 SWAP1 MSTORE PUSH1 0x11 DUP2 DUP5 ADD MSTORE PUSH17 0x115E18D959591CC8131515881B1A5B5A5D PUSH1 0x7A SHL DUP2 DUP7 ADD MSTORE REVERT JUMPDEST PUSH2 0x2710 PUSH2 0x1E4A PUSH2 0x1770 PUSH2 0x1E40 JUMP JUMPDEST POP PUSH4 0x4E487B71 PUSH1 0xE0 SHL DUP12 MSTORE PUSH1 0x21 PUSH1 0x4 MSTORE DUP11 REVERT JUMPDEST PUSH1 0x40 MLOAD PUSH3 0x461BCD PUSH1 0xE5 SHL DUP2 MSTORE PUSH1 0x4 DUP2 ADD DUP12 SWAP1 MSTORE PUSH1 0x13 DUP2 DUP5 ADD MSTORE PUSH19 0x506C616E20616C726561647920616374697665 PUSH1 0x68 SHL DUP2 DUP7 ADD MSTORE DUP8 SWAP1 REVERT JUMPDEST PUSH1 0x40 MLOAD PUSH3 0x461BCD PUSH1 0xE5 SHL DUP2 MSTORE PUSH1 0x4 DUP2 ADD DUP12 SWAP1 MSTORE PUSH1 0x1D DUP2 DUP5 ADD MSTORE PUSH32 0x496E76616C6964206475726174696F6E2F696E7374616C6C6D656E7473000000 DUP2 DUP7 ADD MSTORE DUP8 SWAP1 REVERT JUMPDEST PUSH1 0x40 MLOAD PUSH3 0x461BCD PUSH1 0xE5 SHL DUP2 MSTORE PUSH1 0x4 DUP2 ADD DUP12 SWAP1 MSTORE PUSH1 0x18 DUP2 DUP5 ADD MSTORE PUSH32 0x496E7374616C6C6D656E7473206D757374206265203E20300000000000000000 DUP2 DUP7 ADD MSTORE DUP8 SWAP1 REVERT JUMPDEST PUSH1 0x40 MLOAD PUSH3 0x461BCD PUSH1 0xE5 SHL DUP2 MSTORE PUSH1 0x4 DUP2 ADD DUP12 SWAP1 MSTORE PUSH1 0x14 DUP2 DUP5 ADD MSTORE PUSH20 0x4475726174696F6E206D757374206265203E203 PUSH1 0x64 SHL DUP2 DUP7 ADD MSTORE DUP8 SWAP1 REVERT JUMPDEST POP CALLVALUE PUSH2 0x287 JUMPI DUP1 PUSH1 0x3 NOT CALLDATASIZE ADD SLT PUSH2 0x287 JUMPI PUSH1 0x2 SLOAD PUSH1 0x40 MLOAD PUSH1 0x1 PUSH1 0x1 PUSH1 0xA0 SHL SUB SWAP1 SWAP2 AND DUP2 MSTORE PUSH1 0x20 SWAP1 RETURN JUMPDEST POP CALLVALUE PUSH2 0x287 JUMPI DUP1 PUSH1 0x3 NOT CALLDATASIZE ADD SLT PUSH2 0x287 JUMPI PUSH1 0x5 SLOAD PUSH1 0x40 MLOAD PUSH1 0x1 PUSH1 0x1 PUSH1 0xA0 SHL SUB SWAP1 SWAP2 AND DUP2 MSTORE PUSH1 0x20 SWAP1 RETURN JUMPDEST POP CALLVALUE PUSH2 0x287 JUMPI DUP1 PUSH1 0x3 NOT CALLDATASIZE ADD SLT PUSH2 0x287 JUMPI PUSH1 0x4 SLOAD PUSH1 0x40 MLOAD PUSH1 0x1 PUSH1 0x1 PUSH1 0xA0 SHL SUB SWAP1 SWAP2 AND DUP2 MSTORE PUSH1 0x20 SWAP1 RETURN JUMPDEST POP CALLVALUE PUSH2 0x287 JUMPI PUSH1 0x20 CALLDATASIZE PUSH1 0x3 NOT ADD SLT PUSH2 0x287 JUMPI PUSH1 0x20 PUSH2 0x142F PUSH1 0x4 CALLDATALOAD PUSH2 0x2BB9 JUMP JUMPDEST POP CALLVALUE PUSH2 0x287 JUMPI PUSH1 0x20 CALLDATASIZE PUSH1 0x3 NOT ADD SLT PUSH2 0x287 JUMPI PUSH1 0xFF PUSH1 0x40 PUSH1 0x20 SWAP3 PUSH1 0x4 CALLDATALOAD DUP2 MSTORE PUSH1 0x8 DUP5 MSTORE KECCAK256 SLOAD AND PUSH1 0x40 MLOAD SWAP1 ISZERO ISZERO DUP2 MSTORE RETURN JUMPDEST POP CALLVALUE PUSH2 0x287 JUMPI PUSH1 0x20 CALLDATASIZE PUSH1 0x3 NOT ADD SLT PUSH2 0x287 JUMPI PUSH2 0x232C PUSH2 0x2735 JUMP JUMPDEST PUSH2 0x2334 PUSH2 0x2784 JUMP JUMPDEST PUSH1 0x1 PUSH1 0x1 PUSH1 0xA0 SHL SUB AND PUSH2 0x2348 DUP2 ISZERO ISZERO PUSH2 0x27B0 JUMP JUMPDEST PUSH1 0x1 PUSH1 0x1 PUSH1 0x60 SHL SUB PUSH1 0xA0 SHL PUSH1 0x9 SLOAD AND OR PUSH1 0x9 SSTORE DUP1 RETURN JUMPDEST POP CALLVALUE PUSH2 0x287 JUMPI PUSH1 0xA0 CALLDATASIZE PUSH1 0x3 NOT ADD SLT PUSH2 0x287 JUMPI PUSH2 0x2378 PUSH2 0x2735 JUMP JUMPDEST PUSH1 0x2 PUSH1 0x64 CALLDATALOAD LT ISZERO PUSH2 0x779 JUMPI PUSH1 0x84 CALLDATALOAD ISZERO ISZERO PUSH1 0x84 CALLDATALOAD SUB PUSH2 0x779 JUMPI PUSH2 0x2398 PUSH2 0x2991 JUMP JUMPDEST PUSH1 0x1 PUSH1 0x1 PUSH1 0xA0 SHL SUB DUP2 AND ISZERO PUSH2 0x2700 JUMPI PUSH2 0x23B4 PUSH1 0x24 CALLDATALOAD ISZERO ISZERO PUSH2 0x27EE JUMP JUMPDEST PUSH1 0x44 CALLDATALOAD ISZERO PUSH2 0x26C3 JUMPI PUSH1 0x40 MLOAD PUSH4 0x23B872DD PUSH1 0xE0 SHL DUP2 MSTORE CALLER PUSH1 0x4 DUP3 ADD MSTORE ADDRESS PUSH1 0x24 DUP1 DUP4 ADD SWAP2 SWAP1 SWAP2 MSTORE CALLDATALOAD PUSH1 0x44 DUP3 ADD MSTORE PUSH1 0x20 DUP2 PUSH1 0x64 DUP2 DUP7 PUSH1 0x1 PUSH1 0x1 PUSH1 0xA0 SHL SUB DUP8 AND GAS CALL DUP1 ISZERO PUSH2 0x2067 JUMPI PUSH2 0x2408 SWAP2 DUP5 SWAP2 PUSH2 0x1B8F JUMPI POP PUSH2 0x28E9 JUMP JUMPDEST PUSH1 0x7 SLOAD SWAP1 PUSH2 0x2415 DUP3 PUSH2 0x292D JUMP JUMPDEST PUSH1 0x7 SSTORE PUSH1 0x40 MLOAD PUSH2 0x2424 DUP2 PUSH2 0x282F JUMP JUMPDEST CALLER DUP2 MSTORE PUSH1 0x1 PUSH1 0x1 PUSH1 0xA0 SHL SUB DUP3 AND PUSH1 0x20 DUP3 ADD MSTORE PUSH1 0x24 CALLDATALOAD PUSH1 0x40 DUP3 ADD MSTORE PUSH1 0x60 DUP2 ADD DUP5 SWAP1 MSTORE PUSH1 0x44 CALLDATALOAD PUSH1 0x80 DUP3 ADD MSTORE TIMESTAMP PUSH1 0xA0 DUP3 ADD MSTORE PUSH1 0xC0 DUP2 ADD DUP5 SWAP1 MSTORE PUSH1 0xE0 DUP2 ADD DUP5 SWAP1 MSTORE PUSH1 0x1 PUSH2 0x100 DUP3 ADD MSTORE PUSH2 0x120 DUP2 ADD PUSH2 0x247A PUSH1 0x64 CALLDATALOAD DUP3 PUSH2 0x2952 JUMP JUMPDEST DUP4 DUP6 MSTORE PUSH1 0x6 PUSH1 0x20 MSTORE PUSH2 0x2518 PUSH2 0x100 PUSH1 0x8 PUSH1 0x40 DUP9 KECCAK256 PUSH1 0x1 DUP1 PUSH1 0xA0 SHL SUB DUP7 MLOAD AND PUSH1 0x1 PUSH1 0x1 PUSH1 0x60 SHL SUB PUSH1 0xA0 SHL SWAP1 DUP2 DUP4 SLOAD AND OR DUP3 SSTORE PUSH1 0x1 DUP3 ADD SWAP1 PUSH1 0x1 DUP1 PUSH1 0xA0 SHL SUB PUSH1 0x20 DUP10 ADD MLOAD AND SWAP1 DUP3 SLOAD AND OR SWAP1 SSTORE PUSH1 0x40 DUP7 ADD MLOAD PUSH1 0x2 DUP3 ADD SSTORE PUSH1 0x60 DUP7 ADD MLOAD PUSH1 0x3 DUP3 ADD SSTORE PUSH1 0x80 DUP7 ADD MLOAD PUSH1 0x4 DUP3 ADD SSTORE PUSH1 0xA0 DUP7 ADD MLOAD PUSH1 0x5 DUP3 ADD SSTORE PUSH1 0xC0 DUP7 ADD MLOAD PUSH1 0x6 DUP3 ADD SSTORE PUSH1 0xE0 DUP7 ADD MLOAD PUSH1 0x7 DUP3 ADD SSTORE ADD SWAP4 ADD MLOAD ISZERO ISZERO DUP4 SWAP1 PUSH1 0xFF DUP1 NOT DUP4 SLOAD AND SWAP2 ISZERO ISZERO AND OR SWAP1 SSTORE JUMP JUMPDEST MLOAD PUSH1 0x2 DUP2 LT ISZERO PUSH2 0x13FC JUMPI PUSH2 0xFF00 DUP3 SLOAD SWAP2 PUSH1 0x8 SHL AND SWAP1 PUSH2 0xFF00 NOT AND OR SWAP1 SSTORE PUSH1 0x40 MLOAD PUSH1 0x1 DUP1 PUSH1 0xA0 SHL SUB DUP3 AND DUP2 MSTORE PUSH1 0x24 CALLDATALOAD PUSH1 0x20 DUP3 ADD MSTORE PUSH1 0x44 CALLDATALOAD PUSH1 0x40 DUP3 ADD MSTORE PUSH2 0x2562 PUSH1 0x60 DUP3 ADD PUSH1 0x64 CALLDATALOAD PUSH2 0x2761 JUMP JUMPDEST DUP3 PUSH32 0x93CB2591720FA23E5A51A39BF9D35B6A4E5CB6C11BEAE435C41E4482F3A30D21 PUSH1 0x80 CALLER SWAP4 LOG3 PUSH1 0x84 CALLDATALOAD DUP1 PUSH2 0x26AF JUMPI JUMPDEST PUSH2 0x25A6 JUMPI JUMPDEST PUSH1 0x20 DUP3 PUSH1 0x1 DUP1 SSTORE PUSH1 0x40 MLOAD SWAP1 DUP2 MSTORE RETURN JUMPDEST PUSH1 0x64 CALLDATALOAD PUSH2 0x269E JUMPI DUP3 PUSH1 0x20 PUSH2 0x2710 PUSH2 0x25C2 PUSH2 0x1B58 JUMPDEST PUSH1 0x44 CALLDATALOAD PUSH2 0x295E JUMP JUMPDEST DIV SWAP3 PUSH1 0xA4 PUSH1 0x1 DUP1 PUSH1 0xA0 SHL SUB PUSH1 0x5 SLOAD AND SWAP2 PUSH1 0x40 MLOAD SWAP8 DUP9 SWAP4 DUP5 SWAP3 PUSH4 0x7190CAEB PUSH1 0xE1 SHL DUP5 MSTORE CALLER PUSH1 0x4 DUP6 ADD MSTORE PUSH1 0x1 DUP1 PUSH1 0xA0 SHL SUB AND PUSH1 0x24 DUP5 ADD MSTORE PUSH1 0x24 CALLDATALOAD PUSH1 0x44 DUP5 ADD MSTORE PUSH1 0x44 CALLDATALOAD PUSH1 0x64 DUP5 ADD MSTORE DUP9 PUSH1 0x84 DUP5 ADD MSTORE GAS CALL SWAP4 DUP5 ISZERO PUSH2 0x76C JUMPI DUP2 SWAP5 PUSH2 0x2665 JUMPI JUMPDEST POP PUSH1 0x40 DUP5 DUP5 SWAP4 PUSH1 0x20 SWAP7 PUSH1 0x7 DUP5 DUP7 DUP9 PUSH32 0xF71BF80FA0A269E5FDBE7113CC01A1ADA492208F97E2857213258755D0CBBB5E SWAP9 MSTORE PUSH1 0x6 DUP12 MSTORE KECCAK256 ADD SSTORE DUP3 MLOAD SWAP2 DUP3 MSTORE DUP7 DUP3 ADD MSTORE LOG2 CODESIZE PUSH2 0x2597 JUMP JUMPDEST SWAP1 SWAP4 POP PUSH1 0x20 DUP2 RETURNDATASIZE PUSH1 0x20 GT PUSH2 0x2696 JUMPI JUMPDEST DUP2 PUSH2 0x2681 PUSH1 0x20 SWAP4 DUP4 PUSH2 0x28AF JUMP JUMPDEST DUP2 ADD SUB SLT PUSH2 0x2692 JUMPI MLOAD SWAP3 PUSH1 0x40 PUSH2 0x261D JUMP JUMPDEST DUP4 DUP1 REVERT JUMPDEST RETURNDATASIZE SWAP2 POP PUSH2 0x2674 JUMP JUMPDEST DUP3 PUSH1 0x20 PUSH2 0x2710 PUSH2 0x25C2 PUSH2 0x1770 PUSH2 0x25BA JUMP JUMPDEST POP PUSH1 0x5 SLOAD PUSH1 0x1 PUSH1 0x1 PUSH1 0xA0 SHL SUB AND ISZERO ISZERO PUSH2 0x2592 JUMP JUMPDEST PUSH1 0x40 MLOAD PUSH3 0x461BCD PUSH1 0xE5 SHL DUP2 MSTORE PUSH1 0x20 PUSH1 0x4 DUP3 ADD MSTORE PUSH1 0x15 PUSH1 0x24 DUP3 ADD MSTORE PUSH21 0x56616C756174696F6E206D757374206265203E203 PUSH1 0x5C SHL PUSH1 0x44 DUP3 ADD MSTORE PUSH1 0x64 SWAP1 REVERT JUMPDEST PUSH1 0x40 MLOAD PUSH3 0x461BCD PUSH1 0xE5 SHL DUP2 MSTORE PUSH1 0x20 PUSH1 0x4 DUP3 ADD MSTORE PUSH1 0xD PUSH1 0x24 DUP3 ADD MSTORE PUSH13 0x24B73B30B634B2103A37B5B2B7 PUSH1 0x99 SHL PUSH1 0x44 DUP3 ADD MSTORE PUSH1 0x64 SWAP1 REVERT JUMPDEST PUSH1 0x4 CALLDATALOAD SWAP1 PUSH1 0x1 PUSH1 0x1 PUSH1 0xA0 SHL SUB DUP3 AND DUP3 SUB PUSH2 0xD65 JUMPI JUMP JUMPDEST PUSH1 0x40 SWAP1 PUSH1 0x3 NOT ADD SLT PUSH2 0xD65 JUMPI PUSH1 0x4 CALLDATALOAD SWAP1 PUSH1 0x24 CALLDATALOAD SWAP1 JUMP JUMPDEST SWAP1 PUSH1 0x2 DUP3 LT ISZERO PUSH2 0x276E JUMPI MSTORE JUMP JUMPDEST PUSH4 0x4E487B71 PUSH1 0xE0 SHL PUSH1 0x0 MSTORE PUSH1 0x21 PUSH1 0x4 MSTORE PUSH1 0x24 PUSH1 0x0 REVERT JUMPDEST PUSH1 0x0 SLOAD PUSH1 0x1 PUSH1 0x1 PUSH1 0xA0 SHL SUB AND CALLER SUB PUSH2 0x2798 JUMPI JUMP JUMPDEST PUSH1 0x40 MLOAD PUSH4 0x118CDAA7 PUSH1 0xE0 SHL DUP2 MSTORE CALLER PUSH1 0x4 DUP3 ADD MSTORE PUSH1 0x24 SWAP1 REVERT JUMPDEST ISZERO PUSH2 0x27B7 JUMPI JUMP JUMPDEST PUSH1 0x40 MLOAD PUSH3 0x461BCD PUSH1 0xE5 SHL DUP2 MSTORE PUSH1 0x20 PUSH1 0x4 DUP3 ADD MSTORE PUSH1 0xF PUSH1 0x24 DUP3 ADD MSTORE PUSH15 0x496E76616C69642061646472657373 PUSH1 0x88 SHL PUSH1 0x44 DUP3 ADD MSTORE PUSH1 0x64 SWAP1 REVERT JUMPDEST ISZERO PUSH2 0x27F5 JUMPI JUMP JUMPDEST PUSH1 0x40 MLOAD PUSH3 0x461BCD PUSH1 0xE5 SHL DUP2 MSTORE PUSH1 0x20 PUSH1 0x4 DUP3 ADD MSTORE PUSH1 0x12 PUSH1 0x24 DUP3 ADD MSTORE PUSH18 0x416D6F756E74206D757374206265203E203 PUSH1 0x74 SHL PUSH1 0x44 DUP3 ADD MSTORE PUSH1 0x64 SWAP1 REVERT JUMPDEST PUSH2 0x140 DUP2 ADD SWAP1 DUP2 LT PUSH8 0xFFFFFFFFFFFFFFFF DUP3 GT OR PUSH2 0x284C JUMPI PUSH1 0x40 MSTORE JUMP JUMPDEST PUSH4 0x4E487B71 PUSH1 0xE0 SHL PUSH1 0x0 MSTORE PUSH1 0x41 PUSH1 0x4 MSTORE PUSH1 0x24 PUSH1 0x0 REVERT JUMPDEST PUSH2 0x100 DUP2 ADD SWAP1 DUP2 LT PUSH8 0xFFFFFFFFFFFFFFFF DUP3 GT OR PUSH2 0x284C JUMPI PUSH1 0x40 MSTORE JUMP JUMPDEST PUSH8 0xFFFFFFFFFFFFFFFF DUP2 GT PUSH2 0x284C JUMPI PUSH1 0x40 MSTORE JUMP JUMPDEST PUSH1 0x60 DUP2 ADD SWAP1 DUP2 LT PUSH8 0xFFFFFFFFFFFFFFFF DUP3 GT OR PUSH2 0x284C JUMPI PUSH1 0x40 MSTORE JUMP JUMPDEST SWAP1 PUSH1 0x1F DUP1 NOT SWAP2 ADD AND DUP2 ADD SWAP1 DUP2 LT PUSH8 0xFFFFFFFFFFFFFFFF DUP3 GT OR PUSH2 0x284C JUMPI PUSH1 0x40 MSTORE JUMP JUMPDEST SWAP1 DUP2 PUSH1 0x20 SWAP2 SUB SLT PUSH2 0xD65 JUMPI MLOAD DUP1 ISZERO ISZERO DUP2 SUB PUSH2 0xD65 JUMPI SWAP1 JUMP JUMPDEST ISZERO PUSH2 0x28F0 JUMPI JUMP JUMPDEST PUSH1 0x40 MLOAD PUSH3 0x461BCD PUSH1 0xE5 SHL DUP2 MSTORE PUSH1 0x20 PUSH1 0x4 DUP3 ADD MSTORE PUSH1 0x15 PUSH1 0x24 DUP3 ADD MSTORE PUSH21 0x151BDAD95B881D1C985B9CD9995C8819985A5B1959 PUSH1 0x5A SHL PUSH1 0x44 DUP3 ADD MSTORE PUSH1 0x64 SWAP1 REVERT JUMPDEST PUSH1 0x0 NOT DUP2 EQ PUSH2 0x293C JUMPI PUSH1 0x1 ADD SWAP1 JUMP JUMPDEST PUSH4 0x4E487B71 PUSH1 0xE0 SHL PUSH1 0x0 MSTORE PUSH1 0x11 PUSH1 0x4 MSTORE PUSH1 0x24 PUSH1 0x0 REVERT JUMPDEST PUSH1 0x2 DUP3 LT ISZERO PUSH2 0x276E JUMPI MSTORE JUMP JUMPDEST DUP2 DUP2 MUL SWAP3 SWAP2 DUP2 ISZERO SWAP2 DUP5 DIV EQ OR ISZERO PUSH2 0x293C JUMPI JUMP JUMPDEST DUP2 ISZERO PUSH2 0x297B JUMPI DIV SWAP1 JUMP JUMPDEST PUSH4 0x4E487B71 PUSH1 0xE0 SHL PUSH1 0x0 MSTORE PUSH1 0x12 PUSH1 0x4 MSTORE PUSH1 0x24 PUSH1 0x0 REVERT JUMPDEST PUSH1 0x2 PUSH1 0x1 SLOAD EQ PUSH2 0x29A2 JUMPI PUSH1 0x2 PUSH1 0x1 SSTORE JUMP JUMPDEST PUSH1 0x40 MLOAD PUSH4 0x3EE5AEB5 PUSH1 0xE0 SHL DUP2 MSTORE PUSH1 0x4 SWAP1 REVERT JUMPDEST ISZERO PUSH2 0x29BB JUMPI JUMP JUMPDEST PUSH1 0x40 MLOAD PUSH3 0x461BCD PUSH1 0xE5 SHL DUP2 MSTORE PUSH1 0x20 PUSH1 0x4 DUP3 ADD MSTORE PUSH1 0x13 PUSH1 0x24 DUP3 ADD MSTORE PUSH19 0x506F736974696F6E206E6F7420616374697665 PUSH1 0x68 SHL PUSH1 0x44 DUP3 ADD MSTORE PUSH1 0x64 SWAP1 REVERT JUMPDEST ISZERO PUSH2 0x29FD JUMPI JUMP JUMPDEST PUSH1 0x40 MLOAD PUSH3 0x461BCD PUSH1 0xE5 SHL DUP2 MSTORE PUSH1 0x20 PUSH1 0x4 DUP3 ADD MSTORE PUSH1 0x12 PUSH1 0x24 DUP3 ADD MSTORE PUSH18 0x2737BA103837B9B4BA34B7B71037BBB732B9 PUSH1 0x71 SHL PUSH1 0x44 DUP3 ADD MSTORE PUSH1 0x64 SWAP1 REVERT JUMPDEST SWAP2 SWAP1 DUP3 ADD DUP1 SWAP3 GT PUSH2 0x293C JUMPI JUMP JUMPDEST ISZERO PUSH2 0x2A4B JUMPI JUMP JUMPDEST PUSH1 0x40 MLOAD PUSH3 0x461BCD PUSH1 0xE5 SHL DUP2 MSTORE PUSH1 0x20 PUSH1 0x4 DUP3 ADD MSTORE PUSH1 0x14 PUSH1 0x24 DUP3 ADD MSTORE PUSH20 0x1554D110C81D1C985B9CD9995C8819985A5B1959 PUSH1 0x62 SHL PUSH1 0x44 DUP3 ADD MSTORE PUSH1 0x64 SWAP1 REVERT JUMPDEST SWAP2 SWAP1 DUP3 PUSH1 0x40 SWAP2 SUB SLT PUSH2 0xD65 JUMPI PUSH1 0x20 DUP3 MLOAD SWAP3 ADD MLOAD SWAP1 JUMP JUMPDEST SWAP2 SWAP1 DUP3 SUB SWAP2 DUP3 GT PUSH2 0x293C JUMPI JUMP JUMPDEST ISZERO PUSH2 0x2AB1 JUMPI JUMP JUMPDEST PUSH1 0x40 MLOAD PUSH3 0x461BCD PUSH1 0xE5 SHL DUP2 MSTORE PUSH1 0x20 PUSH1 0x4 DUP3 ADD MSTORE PUSH1 0xF PUSH1 0x24 DUP3 ADD MSTORE PUSH15 0x506C616E206E6F7420616374697665 PUSH1 0x88 SHL PUSH1 0x44 DUP3 ADD MSTORE PUSH1 0x64 SWAP1 REVERT JUMPDEST SWAP2 SWAP1 DUP3 MLOAD SWAP3 DUP4 DUP3 MSTORE PUSH1 0x0 JUMPDEST DUP5 DUP2 LT PUSH2 0x2B14 JUMPI POP POP DUP3 PUSH1 0x0 PUSH1 0x20 DUP1 SWAP5 SWAP6 DUP5 ADD ADD MSTORE PUSH1 0x1F DUP1 NOT SWAP2 ADD AND ADD ADD SWAP1 JUMP JUMPDEST PUSH1 0x20 DUP2 DUP4 ADD DUP2 ADD MLOAD DUP5 DUP4 ADD DUP3 ADD MSTORE ADD PUSH2 0x2AF3 JUMP JUMPDEST ISZERO PUSH2 0x2B2F JUMPI JUMP JUMPDEST PUSH1 0x40 MLOAD PUSH3 0x461BCD PUSH1 0xE5 SHL DUP2 MSTORE PUSH1 0x20 PUSH1 0x4 DUP3 ADD MSTORE PUSH1 0x17 PUSH1 0x24 DUP3 ADD MSTORE PUSH32 0x506F736974696F6E206E6F74206C697175696461746564000000000000000000 PUSH1 0x44 DUP3 ADD MSTORE PUSH1 0x64 SWAP1 REVERT JUMPDEST ISZERO PUSH2 0x2B7B JUMPI JUMP JUMPDEST PUSH1 0x40 MLOAD PUSH3 0x461BCD PUSH1 0xE5 SHL DUP2 MSTORE PUSH1 0x20 PUSH1 0x4 DUP3 ADD MSTORE PUSH1 0x16 PUSH1 0x24 DUP3 ADD MSTORE PUSH22 0x1499599D5B99081D1C985B9CD9995C8819985A5B1959 PUSH1 0x52 SHL PUSH1 0x44 DUP3 ADD MSTORE PUSH1 0x64 SWAP1 REVERT JUMPDEST SWAP1 PUSH1 0x0 SWAP2 DUP1 DUP4 MSTORE PUSH1 0x20 SWAP1 PUSH1 0x6 DUP3 MSTORE PUSH1 0x40 DUP5 KECCAK256 SWAP1 PUSH1 0x40 MLOAD PUSH2 0x2BD8 DUP2 PUSH2 0x282F JUMP JUMPDEST PUSH1 0x1 DUP1 PUSH1 0xA0 SHL SUB SWAP1 DUP2 DUP5 SLOAD AND DUP2 MSTORE DUP2 PUSH1 0x1 DUP6 ADD SLOAD AND DUP6 DUP3 ADD MSTORE PUSH1 0x2 DUP5 ADD SLOAD PUSH1 0x40 DUP3 ADD MSTORE PUSH1 0x3 DUP5 ADD SLOAD PUSH1 0x60 DUP3 ADD MSTORE PUSH2 0x2C55 PUSH1 0x8 PUSH1 0x4 DUP7 ADD SLOAD SWAP6 PUSH1 0x80 DUP5 ADD SWAP7 DUP8 MSTORE PUSH1 0x5 DUP2 ADD SLOAD PUSH1 0xA0 DUP6 ADD MSTORE PUSH1 0x6 DUP2 ADD SLOAD PUSH1 0xC0 DUP6 ADD MSTORE PUSH1 0x7 DUP2 ADD SLOAD PUSH1 0xE0 DUP6 ADD MSTORE ADD SLOAD SWAP2 PUSH2 0x120 PUSH1 0xFF PUSH2 0x100 DUP4 ADD SWAP5 DUP2 DUP2 AND ISZERO ISZERO DUP7 MSTORE PUSH1 0x8 SHR AND SWAP2 ADD PUSH2 0x2952 JUMP JUMPDEST MLOAD ISZERO PUSH2 0x2D02 JUMPI DUP4 SWAP1 PUSH1 0x3 SLOAD AND SWAP2 PUSH1 0x24 PUSH1 0x40 MLOAD DUP1 SWAP5 DUP2 SWAP4 PUSH4 0xD5595157 PUSH1 0xE0 SHL DUP4 MSTORE PUSH1 0x4 DUP4 ADD MSTORE GAS STATICCALL SWAP3 DUP4 ISZERO PUSH2 0xDD5 JUMPI DUP6 SWAP4 PUSH2 0x2CD2 JUMPI JUMPDEST POP POP DUP2 ISZERO PUSH2 0x2CC9 JUMPI MLOAD PUSH2 0x2710 SWAP1 DUP2 DUP2 MUL SWAP2 DUP2 DUP4 DIV EQ SWAP1 ISZERO OR ISZERO PUSH2 0x2CB5 JUMPI PUSH2 0x2CB2 SWAP3 SWAP4 POP PUSH2 0x2971 JUMP JUMPDEST SWAP1 JUMP JUMPDEST PUSH4 0x4E487B71 PUSH1 0xE0 SHL DUP5 MSTORE PUSH1 0x11 PUSH1 0x4 MSTORE PUSH1 0x24 DUP5 REVERT JUMPDEST POP PUSH1 0x0 NOT SWAP3 POP POP JUMP JUMPDEST SWAP1 DUP1 SWAP3 SWAP4 POP DUP2 RETURNDATASIZE DUP4 GT PUSH2 0x2CFB JUMPI JUMPDEST PUSH2 0x2CEA DUP2 DUP4 PUSH2 0x28AF JUMP JUMPDEST DUP2 ADD SUB SLT PUSH2 0x2692 JUMPI MLOAD SWAP1 CODESIZE DUP1 PUSH2 0x2C8A JUMP JUMPDEST POP RETURNDATASIZE PUSH2 0x2CE0 JUMP JUMPDEST POP POP POP POP JUMP JUMPDEST PUSH1 0x0 SWAP1 DUP1 DUP3 MSTORE PUSH1 0x20 SWAP1 PUSH1 0x6 DUP3 MSTORE PUSH1 0x40 DUP4 KECCAK256 SWAP1 PUSH1 0x40 MLOAD SWAP2 PUSH2 0x2D27 DUP4 PUSH2 0x282F JUMP JUMPDEST PUSH1 0x1 DUP1 PUSH1 0xA0 SHL SUB SWAP3 DUP4 DUP3 SLOAD AND DUP2 MSTORE DUP4 PUSH1 0x1 DUP4 ADD SLOAD AND DUP6 DUP3 ADD MSTORE PUSH1 0x2 DUP3 ADD SLOAD PUSH1 0x40 DUP3 ADD MSTORE PUSH1 0x3 DUP3 ADD SLOAD PUSH1 0x60 DUP3 ADD MSTORE PUSH1 0x8 PUSH1 0x4 DUP4 ADD SLOAD SWAP3 PUSH1 0x80 DUP4 ADD SWAP4 DUP5 MSTORE PUSH1 0x5 DUP2 ADD SLOAD PUSH1 0xA0 DUP5 ADD MSTORE PUSH1 0x6 DUP2 ADD SLOAD PUSH1 0xC0 DUP5 ADD MSTORE PUSH1 0x7 DUP2 ADD SLOAD PUSH1 0xE0 DUP5 ADD MSTORE ADD SLOAD SWAP1 PUSH2 0x2DA5 PUSH1 0xFF PUSH2 0x120 PUSH2 0x100 DUP5 ADD SWAP4 DUP3 DUP7 AND ISZERO ISZERO DUP6 MSTORE ADD SWAP4 PUSH1 0x8 SHR AND DUP4 PUSH2 0x2952 JUMP JUMPDEST MLOAD ISZERO PUSH2 0x2E66 JUMPI MLOAD PUSH1 0x2 DUP2 LT ISZERO PUSH2 0x2E52 JUMPI PUSH2 0x2DD1 DUP6 SWAP3 PUSH2 0x2710 SWAP3 ISZERO PUSH1 0x0 EQ PUSH2 0x2E49 JUMPI PUSH2 0x1B58 SWAP1 JUMPDEST MLOAD PUSH2 0x295E JUMP JUMPDEST DIV SWAP3 PUSH1 0x3 SLOAD AND SWAP2 PUSH1 0x24 PUSH1 0x40 MLOAD DUP1 SWAP5 DUP2 SWAP4 PUSH4 0xD5595157 PUSH1 0xE0 SHL DUP4 MSTORE PUSH1 0x4 DUP4 ADD MSTORE GAS STATICCALL SWAP3 DUP4 ISZERO PUSH2 0xCF7 JUMPI DUP5 SWAP4 PUSH2 0x2E19 JUMPI JUMPDEST POP POP DUP2 DUP2 GT ISZERO PUSH2 0x2E14 JUMPI PUSH2 0x2CB2 SWAP3 POP PUSH2 0x2A9D JUMP JUMPDEST POP POP SWAP1 JUMP JUMPDEST SWAP1 DUP1 SWAP3 SWAP4 POP DUP2 RETURNDATASIZE DUP4 GT PUSH2 0x2E42 JUMPI JUMPDEST PUSH2 0x2E31 DUP2 DUP4 PUSH2 0x28AF JUMP JUMPDEST DUP2 ADD SUB SLT PUSH2 0xC9A JUMPI MLOAD SWAP1 CODESIZE DUP1 PUSH2 0x2E00 JUMP JUMPDEST POP RETURNDATASIZE PUSH2 0x2E27 JUMP JUMPDEST PUSH2 0x1770 SWAP1 PUSH2 0x2DCB JUMP JUMPDEST PUSH4 0x4E487B71 PUSH1 0xE0 SHL DUP7 MSTORE PUSH1 0x21 PUSH1 0x4 MSTORE PUSH1 0x24 DUP7 REVERT JUMPDEST POP POP POP POP POP SWAP1 JUMP INVALID LOG2 PUSH5 0x6970667358 0x22 SLT KECCAK256 SAR DELEGATECALL SWAP14 PUSH29 0xE4A1433E20770E3832407DB34B07981BBC7439899C46499A6C7A8BB564 PUSH20 0x6F6C634300081400330000000000000000000000 "},"methodIdentifiers":{"BASIS_POINTS()":"e1f1c4a7","LIQUIDATION_FEE_BPS()":"518e8dfc","LIQUIDATION_THRESHOLD()":"90a8ae9b","PRIVATE_ASSET_LTV()":"d79873b9","RWA_LTV()":"761c5f0a","borrowUSDC(uint256,uint256,uint256,uint256)":"4d111a05","depositCollateral(address,uint256,uint256,uint8,bool)":"0bae9ef9","getHealthFactor(uint256)":"17845c69","getMaxBorrow(uint256)":"7b5210d8","getPosition(uint256)":"eb02c301","getRepaymentPlan(uint256)":"fea58e83","liquidatePosition(uint256)":"cdddd4e5","markDefaulted(uint256)":"73216450","markMissedPayment(uint256)":"52964de5","nextPositionId()":"899346c7","oaid()":"2be04392","owner()":"8da5cb5b","positions(uint256)":"99fbab88","positionsInLiquidation(uint256)":"16ef1729","primaryMarket()":"1e77ceda","purchaseAndSettleLiquidation(uint256,uint256)":"5403bc4a","renounceOwnership()":"715018a6","repayLoan(uint256,uint256)":"8a700b53","repaymentPlans(uint256)":"a53ae06b","seniorPool()":"f416fc1c","setOAID(address)":"6c320cb0","setPrimaryMarket(address)":"e2dc3666","setYieldVault(address)":"137c3f69","settleLiquidation(uint256)":"837c2a61","transferOwnership(address)":"f2fde38b","usdc()":"3e413bee","withdrawCollateral(uint256,uint256)":"767a7b05","yieldVault()":"a7f8a5e2"}}}}}