{"contracts/core/LeverageVault.sol":{"LeverageVault":{"abi":[{"inputs":[{"internalType":"address","name":"_mETH","type":"address"},{"internalType":"address","name":"_usdc","type":"address"},{"internalType":"address","name":"_seniorPool","type":"address"},{"internalType":"address","name":"_fluxionIntegration","type":"address"}],"stateMutability":"nonpayable","type":"constructor"},{"inputs":[{"internalType":"address","name":"owner","type":"address"}],"name":"OwnableInvalidOwner","type":"error"},{"inputs":[{"internalType":"address","name":"account","type":"address"}],"name":"OwnableUnauthorizedAccount","type":"error"},{"inputs":[],"name":"ReentrancyGuardReentrantCall","type":"error"},{"anonymous":false,"inputs":[{"indexed":true,"internalType":"uint256","name":"positionId","type":"uint256"},{"indexed":false,"internalType":"uint256","name":"amount","type":"uint256"}],"name":"CollateralAdded","type":"event"},{"anonymous":false,"inputs":[{"indexed":true,"internalType":"uint256","name":"positionId","type":"uint256"},{"indexed":false,"internalType":"uint256","name":"rwaTokensBurned","type":"uint256"},{"indexed":false,"internalType":"uint256","name":"yieldReceived","type":"uint256"},{"indexed":false,"internalType":"uint256","name":"debtRepaid","type":"uint256"},{"indexed":false,"internalType":"uint256","name":"liquidationFee","type":"uint256"},{"indexed":false,"internalType":"uint256","name":"userRefund","type":"uint256"}],"name":"LiquidationSettled","type":"event"},{"anonymous":false,"inputs":[{"indexed":true,"internalType":"address","name":"previousOwner","type":"address"},{"indexed":true,"internalType":"address","name":"newOwner","type":"address"}],"name":"OwnershipTransferred","type":"event"},{"anonymous":false,"inputs":[{"indexed":true,"internalType":"uint256","name":"positionId","type":"uint256"},{"indexed":true,"internalType":"address","name":"user","type":"address"},{"indexed":false,"internalType":"uint256","name":"mETHCollateral","type":"uint256"},{"indexed":false,"internalType":"uint256","name":"usdcBorrowed","type":"uint256"},{"indexed":false,"internalType":"address","name":"rwaToken","type":"address"},{"indexed":false,"internalType":"uint256","name":"rwaTokenAmount","type":"uint256"}],"name":"PositionCreated","type":"event"},{"anonymous":false,"inputs":[{"indexed":true,"internalType":"uint256","name":"positionId","type":"uint256"},{"indexed":false,"internalType":"uint256","name":"bufferMETHSold","type":"uint256"},{"indexed":false,"internalType":"uint256","name":"usdcRecovered","type":"uint256"},{"indexed":false,"internalType":"uint256","name":"baseMETHReturned","type":"uint256"},{"indexed":false,"internalType":"uint256","name":"debtRepaid","type":"uint256"}],"name":"PositionLiquidated","type":"event"},{"anonymous":false,"inputs":[{"indexed":true,"internalType":"uint256","name":"positionId","type":"uint256"},{"indexed":false,"internalType":"uint256","name":"seniorRepayment","type":"uint256"},{"indexed":false,"internalType":"uint256","name":"interestRepayment","type":"uint256"},{"indexed":false,"internalType":"uint256","name":"userYield","type":"uint256"}],"name":"SettlementProcessed","type":"event"},{"anonymous":false,"inputs":[{"indexed":true,"internalType":"uint256","name":"positionId","type":"uint256"},{"indexed":false,"internalType":"uint256","name":"mETHSwapped","type":"uint256"},{"indexed":false,"internalType":"uint256","name":"usdcReceived","type":"uint256"},{"indexed":false,"internalType":"uint256","name":"interestPaid","type":"uint256"}],"name":"YieldHarvested","type":"event"},{"inputs":[],"name":"BASIS_POINTS","outputs":[{"internalType":"uint256","name":"","type":"uint256"}],"stateMutability":"view","type":"function"},{"inputs":[],"name":"INITIAL_LTV","outputs":[{"internalType":"uint256","name":"","type":"uint256"}],"stateMutability":"view","type":"function"},{"inputs":[],"name":"LIQUIDATION_FEE_BPS","outputs":[{"internalType":"uint256","name":"","type":"uint256"}],"stateMutability":"view","type":"function"},{"inputs":[],"name":"LIQUIDATION_THRESHOLD","outputs":[{"internalType":"uint256","name":"","type":"uint256"}],"stateMutability":"view","type":"function"},{"inputs":[{"internalType":"uint256","name":"positionId","type":"uint256"},{"internalType":"uint256","name":"mETHAmount","type":"uint256"}],"name":"addCollateral","outputs":[],"stateMutability":"nonpayable","type":"function"},{"inputs":[{"internalType":"uint256","name":"positionId","type":"uint256"},{"internalType":"address","name":"_yieldVault","type":"address"},{"internalType":"address","name":"rwaToken","type":"address"},{"internalType":"uint256","name":"tokenAmount","type":"uint256"}],"name":"claimYieldFromBurn","outputs":[{"internalType":"uint256","name":"usdcReceived","type":"uint256"}],"stateMutability":"nonpayable","type":"function"},{"inputs":[{"internalType":"address","name":"user","type":"address"},{"internalType":"uint256","name":"mETHAmount","type":"uint256"},{"internalType":"uint256","name":"usdcToBorrow","type":"uint256"},{"internalType":"address","name":"rwaToken","type":"address"},{"internalType":"uint256","name":"rwaTokenAmount","type":"uint256"},{"internalType":"string","name":"assetId","type":"string"},{"internalType":"bytes32","name":"assetIdBytes","type":"bytes32"},{"internalType":"uint256","name":"mETHPriceUSD","type":"uint256"}],"name":"createPosition","outputs":[{"internalType":"uint256","name":"positionId","type":"uint256"}],"stateMutability":"nonpayable","type":"function"},{"inputs":[],"name":"fluxionIntegration","outputs":[{"internalType":"address","name":"","type":"address"}],"stateMutability":"view","type":"function"},{"inputs":[{"internalType":"uint256","name":"positionId","type":"uint256"},{"internalType":"uint256","name":"mETHPriceUSD","type":"uint256"}],"name":"getHealthFactor","outputs":[{"internalType":"uint256","name":"","type":"uint256"}],"stateMutability":"view","type":"function"},{"inputs":[{"internalType":"uint256","name":"positionId","type":"uint256"}],"name":"getPosition","outputs":[{"components":[{"internalType":"address","name":"user","type":"address"},{"internalType":"uint256","name":"mETHCollateral","type":"uint256"},{"internalType":"uint256","name":"usdcBorrowed","type":"uint256"},{"internalType":"address","name":"rwaToken","type":"address"},{"internalType":"uint256","name":"rwaTokenAmount","type":"uint256"},{"internalType":"string","name":"assetId","type":"string"},{"internalType":"uint256","name":"createdAt","type":"uint256"},{"internalType":"uint256","name":"lastHarvestTime","type":"uint256"},{"internalType":"uint256","name":"totalInterestPaid","type":"uint256"},{"internalType":"uint256","name":"liquidatedAt","type":"uint256"},{"internalType":"bool","name":"active","type":"bool"},{"internalType":"bool","name":"inLiquidation","type":"bool"}],"internalType":"struct LeverageVault.Position","name":"","type":"tuple"}],"stateMutability":"view","type":"function"},{"inputs":[{"internalType":"uint256","name":"positionId","type":"uint256"},{"internalType":"uint256","name":"mETHPriceUSD","type":"uint256"}],"name":"harvestYield","outputs":[{"internalType":"uint256","name":"mETHSwapped","type":"uint256"},{"internalType":"uint256","name":"usdcReceived","type":"uint256"},{"internalType":"uint256","name":"interestPaid","type":"uint256"}],"stateMutability":"nonpayable","type":"function"},{"inputs":[{"internalType":"uint256","name":"positionId","type":"uint256"},{"internalType":"uint256","name":"mETHPriceUSD","type":"uint256"}],"name":"liquidatePosition","outputs":[{"internalType":"uint256","name":"bufferMETHSold","type":"uint256"},{"internalType":"uint256","name":"usdcRecovered","type":"uint256"},{"internalType":"uint256","name":"baseMETHReturned","type":"uint256"},{"internalType":"uint256","name":"debtRepaid","type":"uint256"}],"stateMutability":"nonpayable","type":"function"},{"inputs":[],"name":"mETH","outputs":[{"internalType":"contract IERC20","name":"","type":"address"}],"stateMutability":"view","type":"function"},{"inputs":[],"name":"nextPositionId","outputs":[{"internalType":"uint256","name":"","type":"uint256"}],"stateMutability":"view","type":"function"},{"inputs":[],"name":"owner","outputs":[{"internalType":"address","name":"","type":"address"}],"stateMutability":"view","type":"function"},{"inputs":[{"internalType":"uint256","name":"","type":"uint256"}],"name":"positions","outputs":[{"internalType":"address","name":"user","type":"address"},{"internalType":"uint256","name":"mETHCollateral","type":"uint256"},{"internalType":"uint256","name":"usdcBorrowed","type":"uint256"},{"internalType":"address","name":"rwaToken","type":"address"},{"internalType":"uint256","name":"rwaTokenAmount","type":"uint256"},{"internalType":"string","name":"assetId","type":"string"},{"internalType":"uint256","name":"createdAt","type":"uint256"},{"internalType":"uint256","name":"lastHarvestTime","type":"uint256"},{"internalType":"uint256","name":"totalInterestPaid","type":"uint256"},{"internalType":"uint256","name":"liquidatedAt","type":"uint256"},{"internalType":"bool","name":"active","type":"bool"},{"internalType":"bool","name":"inLiquidation","type":"bool"}],"stateMutability":"view","type":"function"},{"inputs":[],"name":"primaryMarket","outputs":[{"internalType":"address","name":"","type":"address"}],"stateMutability":"view","type":"function"},{"inputs":[{"internalType":"uint256","name":"positionId","type":"uint256"},{"internalType":"uint256","name":"settlementUSDC","type":"uint256"}],"name":"processSettlement","outputs":[{"internalType":"uint256","name":"seniorRepayment","type":"uint256"},{"internalType":"uint256","name":"interestRepayment","type":"uint256"},{"internalType":"uint256","name":"userYield","type":"uint256"}],"stateMutability":"nonpayable","type":"function"},{"inputs":[],"name":"renounceOwnership","outputs":[],"stateMutability":"nonpayable","type":"function"},{"inputs":[],"name":"seniorPool","outputs":[{"internalType":"address","name":"","type":"address"}],"stateMutability":"view","type":"function"},{"inputs":[{"internalType":"address","name":"_primaryMarket","type":"address"}],"name":"setPrimaryMarket","outputs":[],"stateMutability":"nonpayable","type":"function"},{"inputs":[{"internalType":"address","name":"_yieldVault","type":"address"}],"name":"setYieldVault","outputs":[],"stateMutability":"nonpayable","type":"function"},{"inputs":[{"internalType":"uint256","name":"positionId","type":"uint256"}],"name":"settleLiquidation","outputs":[{"internalType":"uint256","name":"yieldReceived","type":"uint256"},{"internalType":"uint256","name":"liquidationFee","type":"uint256"},{"internalType":"uint256","name":"userRefund","type":"uint256"}],"stateMutability":"nonpayable","type":"function"},{"inputs":[{"internalType":"address","name":"newOwner","type":"address"}],"name":"transferOwnership","outputs":[],"stateMutability":"nonpayable","type":"function"},{"inputs":[],"name":"usdc","outputs":[{"internalType":"contract IERC20","name":"","type":"address"}],"stateMutability":"view","type":"function"},{"inputs":[],"name":"yieldVault","outputs":[{"internalType":"address","name":"","type":"address"}],"stateMutability":"view","type":"function"}],"evm":{"bytecode":{"linkReferences":{},"object":"6080346200012557601f62002eb438819003918201601f19168301916001600160401b038311848410176200012a5780849260809460405283398101031262000125576200004d8162000140565b906200005c6020820162000140565b620000786060620000706040850162000140565b930162000140565b33156200010c576000549360018060a01b03199333858716176000556040519560018060a01b03948580948193823391167f8be0079c531659141344cd1fd0a4f28419497f9722a3daafe3b4186f6b6457e0600080a360018055168760025416176002551685600354161760035516836004541617600455169060055416176005556001600955612d5e9081620001568239f35b604051631e4fbdf760e01b815260006004820152602490fd5b600080fd5b634e487b7160e01b600052604160045260246000fd5b51906001600160a01b0382168203620001255756fe6080604052600436101561001257600080fd5b6000803560e01c80630381b4dd14612357578063137c3f69146122c55780631e77ceda1461229c57806329e84867146122735780633e413bee1461224a5780634d2c872a14612228578063505aa212146121ff578063518e8dfc146121e25780635cacf422146121c5578063715018a61461216b578063837c2a6114611ad15780638482c795146112ce578063899346c7146112b05780638da5cb5b1461128957806390a8ae9b1461126c578063975d6dfb14610fc257806399fbab8814610eee578063a7f8a5e214610ec5578063a8f35adf14610d5b578063d3c4e4a61461083a578063e1f1c4a71461081d578063e2dc3666146107d1578063eb02c30114610613578063f2fde38b14610588578063f416fc1c1461055f5763ffc0d2331461013b57600080fd5b3461055c57602461014b36612794565b9190610155612965565b61015d612a9e565b8084526008602052604084209061017a60ff600a84015416612ac1565b6101858415156129cf565b602060018060a01b036004541660405194858092639339ea6960e01b82528560048301525afa92831561055157859361051d575b5082156104e3576c0c9f2c9cd04674edea4000000083026c0c9f2c9cd04674edea3fffffff19848204016104cd57846101f191612a23565b92600183015484116104885760025460055460405163095ea7b360e01b81526001600160a01b03918216600482015260248101879052889790929091602091849160449183918c91165af19182156103e55760209261046b575b506005546040516307e8586d60e51b81526004810188905260248101929092529096879160449183916001600160a01b03165af1948515610460578695610427575b508085111561041f57915b6003546004805460405163095ea7b360e01b81526001600160a01b0391821692810192909252602482018690529091602091839160449183918c91165af180156103e5576103f0575b5085604060018060a01b0360045416604482518094819363d8aed14560e01b83528860048401528960248401525af180156103e5576103b3959697506103b7575b50610331856001830154612b19565b600182015560088101610345848254612b26565b90556007429101557f64cc470d924ef687ff28d709b7ef348c355fbe6f2b2e4157a21353815d9c47746040518061038f858989846040919493926060820195825260208201520152565b0390a260018055604051938493846040919493926060820195825260208201520152565b0390f35b6103d89060403d6040116103de575b6103d08183612807565b810190612b03565b50610322565b503d6103c6565b6040513d89823e3d90fd5b6104119060203d602011610418575b6104098183612807565b810190612a43565b50386102e1565b503d6103ff565b508391610298565b9094506020813d602011610458575b8161044360209383612807565b810103126104535751933861028d565b600080fd5b3d9150610436565b6040513d88823e3d90fd5b61048190833d8511610418576104098183612807565b503861024b565b60405162461bcd60e51b815260206004820152601760248201527f496e73756666696369656e7420636f6c6c61746572616c0000000000000000006044820152606490fd5b634e487b7160e01b600052601160045260246000fd5b60405162461bcd60e51b81526020600482015260126024820152714e6f20696e74657265737420746f2070617960701b6044820152606490fd5b9092506020813d602011610549575b8161053960209383612807565b81010312610453575191386101b9565b3d915061052c565b6040513d87823e3d90fd5b80fd5b503461055c578060031936011261055c576004546040516001600160a01b039091168152602090f35b503461055c57602036600319011261055c576105a26127aa565b6105aa612965565b6001600160a01b039081169081156105fa57600054826001600160601b0360a01b821617600055167f8be0079c531659141344cd1fd0a4f28419497f9722a3daafe3b4186f6b6457e0600080a380f35b604051631e4fbdf760e01b815260048101849052602490fd5b503461055c57602036600319011261055c57806040916101608351610637816127ea565b8281528260208201528285820152826060820152826080820152606060a08201528260c08201528260e08201528261010082015282610120820152826101408201520152600435815260086020522060ff600a60405192610697846127ea565b80546001600160a01b03908116855260018201546020860152600282015460408601526003820154166060850152600481015460808501526106db6005820161287f565b60a0850152600681015460c0850152600781015460e0850152600881015461010085015260098101546101208501520154818116151561014084015260081c16151561016082015260405180916020825260018060a01b038151166020830152602081015160408301526040810151606083015260018060a01b036060820151166080830152608081015160a083015260a081015161016061078b610180928360c08701526101a0860190612925565b9260c081015160e086015260e081015161010086015261010081015161012086015261012081015161014086015261014081015115158286015201511515908301520390f35b503461055c57602036600319011261055c576107eb6127aa565b6107f3612965565b6001600160a01b0316610807811515612991565b6001600160601b0360a01b600754161760075580f35b503461055c578060031936011261055c5760206040516127108152f35b503461055c5761084936612794565b91610852612965565b61085a612a9e565b8181526008602052604081209160ff600a840154610879828216612ac1565b60081c16610d1d5761088c8415156129cf565b612cec6108998583612baf565b1015610ce25760249260018060a01b0381541691602060018060a01b03600454166040519687809263d559515760e01b82528560048301525afa948515610cd7578495610ca3575b506c0c9f2c9cd04674edea40000000808602908682041486151715610c8f578661090a91612a23565b916001810194855484808211600014610c865761092691612b19565b965b8715610c4d5760025460055460405163095ea7b360e01b81526001600160a01b039182166004820152602481018b905291602091839160449183918891165af18015610bc857610c2e575b506005546040516307e8586d60e51b8152600481018a9052602481019a909a526020908a90604490829086906001600160a01b03165af1988915610b16578299610bfa575b5080891115610bf257945b85610b21575b84610a61575b506103b3955561010061ff0019600a8301541617600a8201556009429101557fff12c0216efb56216c8efbaf4798aa7b74300a23706d2a444f5a00a97cd237f560405180610a3786868b8b859094939260609260808301968352602083015260408201520152565b0390a260018055604051948594859094939260609260808301968352602083015260408201520152565b60025460405163a9059cbb60e01b81526001600160a01b0392831660048201526024810187905291602091839160449183918791165af1908115610b16578291610af7575b5015610ab257386109cf565b60405162461bcd60e51b815260206004820152601960248201527f42617365206d455448207472616e73666572206661696c6564000000000000006044820152606490fd5b610b10915060203d602011610418576104098183612807565b38610aa6565b6040513d84823e3d90fd5b6003546004805460405163095ea7b360e01b81526001600160a01b0391821692810192909252602482018990529091602091839160449183918891165af18015610bc857610bd3575b5081604060018060a01b0360045416604482518094819363d8aed14560e01b83528a60048401528c60248401525af18015610bc857610baa575b506109c9565b610bc29060403d6040116103de576103d08183612807565b50610ba4565b6040513d85823e3d90fd5b610beb9060203d602011610418576104098183612807565b5038610b6a565b5087946109c3565b9098506020813d602011610c26575b81610c1660209383612807565b81010312610453575197386109b8565b3d9150610c09565b610c469060203d602011610418576104098183612807565b5038610973565b60405162461bcd60e51b8152602060048201526011602482015270139bc8189d5999995c881d1bc81cd95b1b607a1b6044820152606490fd5b50508096610928565b634e487b7160e01b85526011600452602485fd5b9094506020813d602011610ccf575b81610cbf60209383612807565b81010312610453575193386108e1565b3d9150610cb2565b6040513d86823e3d90fd5b60405162461bcd60e51b8152602060048201526013602482015272506f736974696f6e206973206865616c74687960681b6044820152606490fd5b60405162461bcd60e51b815260206004820152601660248201527520b63932b0b23c9034b7103634b8bab4b230ba34b7b760511b6044820152606490fd5b503461055c57610d6a36612794565b610d72612a9e565b8183526020600881526040842091610d9060ff600a85015416612ac1565b82546001600160a01b039081163303610e8b578115610e51576002546040516323b872dd60e01b81523360048201523060248201526044810184905294918491869160649183918b91165af190811561046057610e186001927f244160b15e69cc411f041d94ae7fab6f6bba85dade8403216c05ff4b920d5449968991610e34575b50612a5b565b01610e24828254612b26565b9055604051908152a26001805580f35b610e4b9150863d8811610418576104098183612807565b38610e12565b60405162461bcd60e51b81526004810184905260126024820152710416d6f756e74206d757374206265203e20360741b6044820152606490fd5b60405162461bcd60e51b81526004810184905260126024820152712737ba103837b9b4ba34b7b71037bbb732b960711b6044820152606490fd5b503461055c578060031936011261055c576006546040516001600160a01b039091168152602090f35b503461055c57602036600319011261055c57604090600435815260086020522060018060a01b0390818154169060ff60018201549360028301549060038401541692600481015493610f426005830161287f565b94610f90600684015496600785015492600886015494600a6009880154970154976040519c8d9c8d5260208d015260408c015260608b015260808a01526101808060a08b0152890190612925565b9560c088015260e0870152610100860152610120850152818116151561014085015260081c1615156101608301520390f35b503461055c57608036600319011261055c576001600160a01b0390602480359183831683036104535760443590848216928383036104535760643594611006612965565b61100e612a9e565b6004358352602096600888526040842061102e60ff600a83015416612ac1565b8682600383015416036112375760040195865488116111f35760405163095ea7b360e01b81526001600160a01b0384166004820152602481018990529089908290604490829089905af18015610551576111d6575b5080600354169160405195898786816370a0823160e01b978882523060048301525afa9687156104605790898b95949392889961119e575b5061111c928789809461110a8a6110fc8497604051948593840197630c34f5ed60e11b8952840160209093929193604081019460018060a01b031681520152565b03601f198101835282612807565b51925af1611116612b33565b50612b63565b60035416926040518094819382523060048301525afa9182156111925791611163575b506111559161114d91612b19565b928254612b19565b905560018055604051908152f35b90508481813d831161118b575b61117a8183612807565b81010312610453575161115561113f565b503d611170565b604051903d90823e3d90fd5b95809299508691503d83116111cf575b6111b88183612807565b81010312610453579251958993908961111c6110bb565b503d6111ae565b6111ec90893d8b11610418576104098183612807565b5038611083565b60405162461bcd60e51b8152600481018a90526017818601527f496e73756666696369656e742052574120746f6b656e730000000000000000006044820152606490fd5b60405162461bcd60e51b8152600481018a9052600e818601526d0a8ded6cadc40dad2e6dac2e8c6d60931b6044820152606490fd5b503461055c578060031936011261055c576020604051612cec8152f35b503461055c578060031936011261055c57546040516001600160a01b039091168152602090f35b503461055c578060031936011261055c576020600954604051908152f35b503461055c5761010036600319011261055c576112e96127aa565b6064356001600160a01b03811681036119135760a4359167ffffffffffffffff83116118d957366023840112156118d9578383600401359361132a85612829565b946113386040519687612807565b80865236602482840101116119135780602460209301838801378501015260e435611361612965565b611369612a9e565b6001600160a01b03821615611a9d5760243515611a585760443515611a13576001600160a01b038316156119da576113a28115156129cf565b6007546001600160a01b03161561199d576113cd6c0c9f2c9cd04674edea4000000091602435612a10565b04613a9880604435029060443582040361198957612710900411611930576002546040516323b872dd60e01b81526001600160a01b038381166004830152306024808401919091523560448301529091602091839160649183918a91165af18015610551576114429186916119175750612a5b565b60045460095485916001600160a01b0316803b1561191357604483926040519485938492630ecbcdab60e01b84526004840152833560248401525af1801561055157611900575b5060035460075460405163095ea7b360e01b81526001600160a01b039182166004820152604480356024830152909260209284929183918a91165af18015610551576118e1575b5060075484906001600160a01b0316803b156118dd578180916044604051809481936307f5d63360e01b835260c435600484015260843560248401525af18015610b16576118c5575b50506040516370a0823160e01b81523060048201526020816024816001600160a01b0387165afa908115610551578591611893575b506084351161184e57600954926000198414610c8f576001840160095560405190611578826127ea565b60018060a01b03831682526024356020830152604435604083015260018060a01b0384166060830152608435608083015260a08201524260c08201524260e0820152846101008201528461012082015260016101408201528461016082015283855260086020526040852060018060a01b038251166001600160601b0360a01b90818354161782556020830151600183015560408301516002830155600382019060018060a01b03606085015116908254161790556080820151600482015560a082015180519067ffffffffffffffff821161183a5761165b6005840154612845565b601f81116117f6575b5060209787959493929189916001601f851114611760579280600a937f9b1464e9a9771c899bb0aa078d0a5338d3604792fa428d4d24d35e950e7a2ed69896936080989692611755575b50508160011b916000199060031b1c19161760058201555b60c0830151600682015560e0830151600782015561010083015160088201556101208301516009820155019061014081015115159060ff61ff006101608554930151151560081b1692169061ffff1916171790556040519460243586526044358887015260018060a01b03166040860152608435606086015260018060a01b031693a360018055604051908152f35b0151905038806116ae565b91906005850183528a8320925b601f19851681106117dc575083600a937f9b1464e9a9771c899bb0aa078d0a5338d3604792fa428d4d24d35e950e7a2ed698969360019360809997601f198116106117c3575b505050811b0160058201556116c6565b015160001960f88460031b161c191690553880806117b3565b8183015184558a9850600190930192918b01918b0161176d565b60058401895260208920601f840160051c810160208510611833575b601f830160051c82018110611828575050611664565b8a8155600101611812565b5080611812565b634e487b7160e01b88526041600452602488fd5b60405162461bcd60e51b815260206004820152601960248201527f52574120746f6b656e207075726368617365206661696c6564000000000000006044820152606490fd5b90506020813d6020116118bd575b816118ae60209383612807565b8101031261045357513861154e565b3d91506118a1565b6118ce906127c0565b6118d9578338611519565b8380fd5b5080fd5b6118f99060203d602011610418576104098183612807565b50386114d0565b61190c909491946127c0565b9238611489565b8280fd5b610e4b915060203d602011610418576104098183612807565b60405162461bcd60e51b815260206004820152602b60248201527f496e73756666696369656e7420636f6c6c61746572616c202831353025204c5460448201526a562072657175697265642960a81b6064820152608490fd5b634e487b7160e01b86526011600452602486fd5b60405162461bcd60e51b8152602060048201526015602482015274141c9a5b585c9e53585c9ad95d081b9bdd081cd95d605a1b6044820152606490fd5b60405162461bcd60e51b815260206004820152601160248201527024b73b30b634b210292ba0903a37b5b2b760791b6044820152606490fd5b60405162461bcd60e51b815260206004820152601760248201527f5553444320616d6f756e74206d757374206265203e20300000000000000000006044820152606490fd5b60405162461bcd60e51b815260206004820152601760248201527f6d45544820616d6f756e74206d757374206265203e20300000000000000000006044820152606490fd5b60405162461bcd60e51b815260206004820152600c60248201526b24b73b30b634b2103ab9b2b960a11b6044820152606490fd5b503461055c57602036600319011261055c57611aeb612965565b611af3612a9e565b60043581526008602052604081209060ff600a830154611b14828216612ac1565b60081c1615612126576006546001600160a01b03169182156120ec57600481019283549081156120af57600383015460405163095ea7b360e01b81526001600160a01b0392831660048201526024810193909352602091839160449183918891165af18015610bc857612090575b506003546040516370a0823160e01b80825230600483015291602090829060249082906001600160a01b03165afa908115610cd757849161205e575b5060065460038401548654604051630c34f5ed60e11b602082019081526001600160a01b0393841660248301526044820192909252611c0d9388938493911691839061110a81606481016110fc565b600354604051928352306004840152602090839060249082906001600160a01b03165afa8015610cd7578490612028575b611c489250612b19565b918215611fef57808454945560018060a01b0360045416936040519463d559515760e01b86526004356004870152602086602481845afa958615610bc8578396611fbb575b50829580611eca575b505084841115611ebc57611caa8585612b19565b946103e8808702908782041487151715611ea857612710611ccd91048097612b19565b9286611e02575b83611d53575b506103b3935b600a60ff19818301541691015560405191825284602083015260408201528460608201528160808201527fc6cd390f41278a5dc86640c2d3a9966214589950193ae25e9d9382791e0a11a660a060043592a260018055604051938493846040919493926060820195825260208201520152565b600354855460405163a9059cbb60e01b81526001600160a01b0391821660048201526024810187905291602091839160449183918791165af19182156111925791611de3575b5015611da55738611cda565b60405162461bcd60e51b81526020600482015260166024820152751499599d5b99081d1c985b9cd9995c8819985a5b195960521b6044820152606490fd5b611dfc915060203d602011610418576104098183612807565b38611d99565b600354815460405163a9059cbb60e01b81526001600160a01b039182166004820152602481018a905291602091839160449183918791165af1908115610b16578291611e89575b50611cd45760405162461bcd60e51b8152602060048201526013602482015272119959481d1c985b9cd9995c8819985a5b1959606a1b6044820152606490fd5b611ea2915060203d602011610418576104098183612807565b38611e49565b634e487b7160e01b84526011600452602484fd5b81946103b393929592611ce0565b9195509080851115611fad576020611f1c9180935b60035460405163095ea7b360e01b81526001600160a01b039283166004820152602481019390935291938492909116908290879082906044820190565b03925af18015610bc857611f8e575b5081604060018060a01b0360045416604482518094819363d8aed14560e01b835260043560048401528760248401525af18015610bc857611f70575b50933880611c96565b611f889060403d6040116103de576103d08183612807565b50611f67565b611fa69060203d602011610418576104098183612807565b5038611f2b565b50611f1c6020858093611edf565b9095506020813d602011611fe7575b81611fd760209383612807565b8101031261191357519438611c8d565b3d9150611fca565b60405162461bcd60e51b8152602060048201526011602482015270139bc81e5a595b19081c9958d95a5d9959607a1b6044820152606490fd5b50906020813d602011612056575b8161204360209383612807565b810103126118d95790611c489151611c3e565b3d9150612036565b90506020813d602011612088575b8161207960209383612807565b810103126118d9575138611bbe565b3d915061206c565b6120a89060203d602011610418576104098183612807565b5038611b82565b60405162461bcd60e51b8152602060048201526015602482015274273790292ba0903a37b5b2b739903a3790313ab93760591b6044820152606490fd5b60405162461bcd60e51b8152602060048201526012602482015271165a595b1915985d5b1d081b9bdd081cd95d60721b6044820152606490fd5b60405162461bcd60e51b815260206004820152601b60248201527f506f736974696f6e206e6f7420696e206c69717569646174696f6e00000000006044820152606490fd5b503461055c578060031936011261055c57612184612965565b80546001600160a01b03198116825581906001600160a01b03167f8be0079c531659141344cd1fd0a4f28419497f9722a3daafe3b4186f6b6457e08280a380f35b503461055c578060031936011261055c576020604051613a988152f35b503461055c578060031936011261055c5760206040516103e88152f35b503461055c578060031936011261055c576005546040516001600160a01b039091168152602090f35b503461055c57602061224261223c36612794565b90612baf565b604051908152f35b503461055c578060031936011261055c576003546040516001600160a01b039091168152602090f35b503461055c578060031936011261055c576002546040516001600160a01b039091168152602090f35b503461055c578060031936011261055c576007546040516001600160a01b039091168152602090f35b503461055c57602036600319011261055c576122df6127aa565b6122e7612965565b600654906001600160a01b0390818316612319571690612308821515612991565b6001600160a01b0319161760065580f35b60405162461bcd60e51b8152602060048201526016602482015275165a595b1915985d5b1d08185b1c9958591e481cd95d60521b6044820152606490fd5b503461055c5761236636612794565b612371929192612965565b612379612a9e565b828252602092600884526040832090600a820161239960ff825416612ac1565b6004805460405163d559515760e01b81529182018490526001600160a01b03919082168882602481845afa91821561267957908991899361275f575b5082881061268457506003546004805460405163095ea7b360e01b81529086166001600160a01b03169181019190915260248101849052919082908516818b816044810103925af1801561267957908893929161265c575b506040826004541660448251809b819363d8aed14560e01b83528a60048401528660248401525af18015610bc85783988491612635575b5090612471919897612b19565b9485612584575b600181015491826124d6575b88886103b389898960ff1981541690557f2ad2842250c60e12f989a7e1ed97d0095f991ba01aea08bdac2f87c62782095b6040518061038f858989846040919493926060820195825260208201520152565b600254915460405163a9059cbb60e01b81529082166001600160a01b03166004820152602481019390935289918391168185816044810103925af19182156111925791612567575b501561252d5785808080612484565b60405162461bcd60e51b81526004810187905260126024820152711b515512081c995d1d5c9b8819985a5b195960721b6044820152606490fd5b61257e9150873d8911610418576104098183612807565b3861251e565b600354815460405163a9059cbb60e01b81529084166001600160a01b0316600482015260248101889052908a90829085168187816044810103925af1908115610cd7578491612618575b506124785760405162461bcd60e51b8152600481018a9052601a60248201527f55736572207969656c64207472616e73666572206661696c65640000000000006044820152606490fd5b61262f91508a3d8c11610418576104098183612807565b386125ce565b612471929950612654915060403d6040116103de576103d08183612807565b909891612464565b612672908a3d8c11610418576104098183612807565b503861242d565b6040513d8a823e3d90fd5b60035460405163095ea7b360e01b81526001600160a01b0392909216600483015260248201899052939793909250829060449082908b908b165af180156103e557916040918893612742575b5060448760045416918351998a93849263d8aed14560e01b845289600485015260248401525af180156127355781968291612710575b5095948194612478565b905061272c91965060403d6040116103de576103d08183612807565b95909538612706565b50604051903d90823e3d90fd5b612758908a3d8c11610418576104098183612807565b50386126d0565b8281939294503d831161278d575b6127778183612807565b810103126127895788905191386123d5565b8780fd5b503d61276d565b6040906003190112610453576004359060243590565b600435906001600160a01b038216820361045357565b67ffffffffffffffff81116127d457604052565b634e487b7160e01b600052604160045260246000fd5b610180810190811067ffffffffffffffff8211176127d457604052565b90601f8019910116810190811067ffffffffffffffff8211176127d457604052565b67ffffffffffffffff81116127d457601f01601f191660200190565b90600182811c92168015612875575b602083101461285f57565b634e487b7160e01b600052602260045260246000fd5b91607f1691612854565b906040519182600082549261289384612845565b90818452600194858116908160001461290257506001146128bf575b50506128bd92500383612807565b565b9093915060005260209081600020936000915b8183106128ea5750506128bd935082010138806128af565b855488840185015294850194879450918301916128d2565b9150506128bd94506020925060ff191682840152151560051b82010138806128af565b919082519283825260005b848110612951575050826000602080949584010152601f8019910116010190565b602081830181015184830182015201612930565b6000546001600160a01b0316330361297957565b60405163118cdaa760e01b8152336004820152602490fd5b1561299857565b60405162461bcd60e51b815260206004820152600f60248201526e496e76616c6964206164647265737360881b6044820152606490fd5b156129d657565b60405162461bcd60e51b8152602060048201526012602482015271496e76616c6964206d45544820707269636560701b6044820152606490fd5b818102929181159184041417156104cd57565b8115612a2d570490565b634e487b7160e01b600052601260045260246000fd5b90816020910312610453575180151581036104535790565b15612a6257565b60405162461bcd60e51b81526020600482015260146024820152731b515512081d1c985b9cd9995c8819985a5b195960621b6044820152606490fd5b600260015414612aaf576002600155565b604051633ee5aeb560e01b8152600490fd5b15612ac857565b60405162461bcd60e51b8152602060048201526013602482015272506f736974696f6e206e6f742061637469766560681b6044820152606490fd5b9190826040910312610453576020825192015190565b919082039182116104cd57565b919082018092116104cd57565b3d15612b5e573d90612b4482612829565b91612b526040519384612807565b82523d6000602084013e565b606090565b15612b6a57565b60405162461bcd60e51b815260206004820152601760248201527f5969656c645661756c7420636c61696d206661696c65640000000000000000006044820152606490fd5b91909160009281845260209160088352604085209160405192612bd1846127ea565b60018060a01b0393848254168152600a6001830154928783019384526002810154604084015286600382015416606084015260048101546080840152612c196005820161287f565b60a0840152600681015460c0840152600781015460e08401526008810154610100840152600981015461012084015201549061016060ff8084161593841561014085015260081c161515910152612d2157612c8f826c0c9f2c9cd04674edea4000000092612c89889515156129cf565b51612a10565b0492600454169160246040518094819363d559515760e01b835260048301525afa928315610551578593612cf1575b50508115612ce85761271090818102918183041490151715611ea857612ce5929350612a23565b90565b50600019925050565b9080929350813d8311612d1a575b612d098183612807565b810103126118d95751903880612cbe565b503d612cff565b505050505056fea2646970667358221220821f15149392938e737703b29705a223b6159eca3403c7caebe986c5f60435ec64736f6c63430008140033","opcodes":"PUSH1 0x80 CALLVALUE PUSH3 0x125 JUMPI PUSH1 0x1F PUSH3 0x2EB4 CODESIZE DUP2 SWAP1 SUB SWAP2 DUP3 ADD PUSH1 0x1F NOT AND DUP4 ADD SWAP2 PUSH1 0x1 PUSH1 0x1 PUSH1 0x40 SHL SUB DUP4 GT DUP5 DUP5 LT OR PUSH3 0x12A JUMPI DUP1 DUP5 SWAP3 PUSH1 0x80 SWAP5 PUSH1 0x40 MSTORE DUP4 CODECOPY DUP2 ADD SUB SLT PUSH3 0x125 JUMPI PUSH3 0x4D DUP2 PUSH3 0x140 JUMP JUMPDEST SWAP1 PUSH3 0x5C PUSH1 0x20 DUP3 ADD PUSH3 0x140 JUMP JUMPDEST PUSH3 0x78 PUSH1 0x60 PUSH3 0x70 PUSH1 0x40 DUP6 ADD PUSH3 0x140 JUMP JUMPDEST SWAP4 ADD PUSH3 0x140 JUMP JUMPDEST CALLER ISZERO PUSH3 0x10C JUMPI PUSH1 0x0 SLOAD SWAP4 PUSH1 0x1 DUP1 PUSH1 0xA0 SHL SUB NOT SWAP4 CALLER DUP6 DUP8 AND OR PUSH1 0x0 SSTORE PUSH1 0x40 MLOAD SWAP6 PUSH1 0x1 DUP1 PUSH1 0xA0 SHL SUB SWAP5 DUP6 DUP1 SWAP5 DUP2 SWAP4 DUP3 CALLER SWAP2 AND PUSH32 0x8BE0079C531659141344CD1FD0A4F28419497F9722A3DAAFE3B4186F6B6457E0 PUSH1 0x0 DUP1 LOG3 PUSH1 0x1 DUP1 SSTORE AND DUP8 PUSH1 0x2 SLOAD AND OR PUSH1 0x2 SSTORE AND DUP6 PUSH1 0x3 SLOAD AND OR PUSH1 0x3 SSTORE AND DUP4 PUSH1 0x4 SLOAD AND OR PUSH1 0x4 SSTORE AND SWAP1 PUSH1 0x5 SLOAD AND OR PUSH1 0x5 SSTORE PUSH1 0x1 PUSH1 0x9 SSTORE PUSH2 0x2D5E SWAP1 DUP2 PUSH3 0x156 DUP3 CODECOPY RETURN JUMPDEST PUSH1 0x40 MLOAD PUSH4 0x1E4FBDF7 PUSH1 0xE0 SHL DUP2 MSTORE PUSH1 0x0 PUSH1 0x4 DUP3 ADD MSTORE PUSH1 0x24 SWAP1 REVERT JUMPDEST PUSH1 0x0 DUP1 REVERT JUMPDEST PUSH4 0x4E487B71 PUSH1 0xE0 SHL PUSH1 0x0 MSTORE PUSH1 0x41 PUSH1 0x4 MSTORE PUSH1 0x24 PUSH1 0x0 REVERT JUMPDEST MLOAD SWAP1 PUSH1 0x1 PUSH1 0x1 PUSH1 0xA0 SHL SUB DUP3 AND DUP3 SUB PUSH3 0x125 JUMPI JUMP INVALID PUSH1 0x80 PUSH1 0x40 MSTORE PUSH1 0x4 CALLDATASIZE LT ISZERO PUSH2 0x12 JUMPI PUSH1 0x0 DUP1 REVERT JUMPDEST PUSH1 0x0 DUP1 CALLDATALOAD PUSH1 0xE0 SHR DUP1 PUSH4 0x381B4DD EQ PUSH2 0x2357 JUMPI DUP1 PUSH4 0x137C3F69 EQ PUSH2 0x22C5 JUMPI DUP1 PUSH4 0x1E77CEDA EQ PUSH2 0x229C JUMPI DUP1 PUSH4 0x29E84867 EQ PUSH2 0x2273 JUMPI DUP1 PUSH4 0x3E413BEE EQ PUSH2 0x224A JUMPI DUP1 PUSH4 0x4D2C872A EQ PUSH2 0x2228 JUMPI DUP1 PUSH4 0x505AA212 EQ PUSH2 0x21FF JUMPI DUP1 PUSH4 0x518E8DFC EQ PUSH2 0x21E2 JUMPI DUP1 PUSH4 0x5CACF422 EQ PUSH2 0x21C5 JUMPI DUP1 PUSH4 0x715018A6 EQ PUSH2 0x216B JUMPI DUP1 PUSH4 0x837C2A61 EQ PUSH2 0x1AD1 JUMPI DUP1 PUSH4 0x8482C795 EQ PUSH2 0x12CE JUMPI DUP1 PUSH4 0x899346C7 EQ PUSH2 0x12B0 JUMPI DUP1 PUSH4 0x8DA5CB5B EQ PUSH2 0x1289 JUMPI DUP1 PUSH4 0x90A8AE9B EQ PUSH2 0x126C JUMPI DUP1 PUSH4 0x975D6DFB EQ PUSH2 0xFC2 JUMPI DUP1 PUSH4 0x99FBAB88 EQ PUSH2 0xEEE JUMPI DUP1 PUSH4 0xA7F8A5E2 EQ PUSH2 0xEC5 JUMPI DUP1 PUSH4 0xA8F35ADF EQ PUSH2 0xD5B JUMPI DUP1 PUSH4 0xD3C4E4A6 EQ PUSH2 0x83A JUMPI DUP1 PUSH4 0xE1F1C4A7 EQ PUSH2 0x81D JUMPI DUP1 PUSH4 0xE2DC3666 EQ PUSH2 0x7D1 JUMPI DUP1 PUSH4 0xEB02C301 EQ PUSH2 0x613 JUMPI DUP1 PUSH4 0xF2FDE38B EQ PUSH2 0x588 JUMPI DUP1 PUSH4 0xF416FC1C EQ PUSH2 0x55F JUMPI PUSH4 0xFFC0D233 EQ PUSH2 0x13B JUMPI PUSH1 0x0 DUP1 REVERT JUMPDEST CALLVALUE PUSH2 0x55C JUMPI PUSH1 0x24 PUSH2 0x14B CALLDATASIZE PUSH2 0x2794 JUMP JUMPDEST SWAP2 SWAP1 PUSH2 0x155 PUSH2 0x2965 JUMP JUMPDEST PUSH2 0x15D PUSH2 0x2A9E JUMP JUMPDEST DUP1 DUP5 MSTORE PUSH1 0x8 PUSH1 0x20 MSTORE PUSH1 0x40 DUP5 KECCAK256 SWAP1 PUSH2 0x17A PUSH1 0xFF PUSH1 0xA DUP5 ADD SLOAD AND PUSH2 0x2AC1 JUMP JUMPDEST PUSH2 0x185 DUP5 ISZERO ISZERO PUSH2 0x29CF JUMP JUMPDEST PUSH1 0x20 PUSH1 0x1 DUP1 PUSH1 0xA0 SHL SUB PUSH1 0x4 SLOAD AND PUSH1 0x40 MLOAD SWAP5 DUP6 DUP1 SWAP3 PUSH4 0x9339EA69 PUSH1 0xE0 SHL DUP3 MSTORE DUP6 PUSH1 0x4 DUP4 ADD MSTORE GAS STATICCALL SWAP3 DUP4 ISZERO PUSH2 0x551 JUMPI DUP6 SWAP4 PUSH2 0x51D JUMPI JUMPDEST POP DUP3 ISZERO PUSH2 0x4E3 JUMPI PUSH13 0xC9F2C9CD04674EDEA40000000 DUP4 MUL PUSH13 0xC9F2C9CD04674EDEA3FFFFFFF NOT DUP5 DUP3 DIV ADD PUSH2 0x4CD JUMPI DUP5 PUSH2 0x1F1 SWAP2 PUSH2 0x2A23 JUMP JUMPDEST SWAP3 PUSH1 0x1 DUP4 ADD SLOAD DUP5 GT PUSH2 0x488 JUMPI PUSH1 0x2 SLOAD PUSH1 0x5 SLOAD PUSH1 0x40 MLOAD PUSH4 0x95EA7B3 PUSH1 0xE0 SHL DUP2 MSTORE PUSH1 0x1 PUSH1 0x1 PUSH1 0xA0 SHL SUB SWAP2 DUP3 AND PUSH1 0x4 DUP3 ADD MSTORE PUSH1 0x24 DUP2 ADD DUP8 SWAP1 MSTORE DUP9 SWAP8 SWAP1 SWAP3 SWAP1 SWAP2 PUSH1 0x20 SWAP2 DUP5 SWAP2 PUSH1 0x44 SWAP2 DUP4 SWAP2 DUP13 SWAP2 AND GAS CALL SWAP2 DUP3 ISZERO PUSH2 0x3E5 JUMPI PUSH1 0x20 SWAP3 PUSH2 0x46B JUMPI JUMPDEST POP PUSH1 0x5 SLOAD PUSH1 0x40 MLOAD PUSH4 0x7E8586D PUSH1 0xE5 SHL DUP2 MSTORE PUSH1 0x4 DUP2 ADD DUP9 SWAP1 MSTORE PUSH1 0x24 DUP2 ADD SWAP3 SWAP1 SWAP3 MSTORE SWAP1 SWAP7 DUP8 SWAP2 PUSH1 0x44 SWAP2 DUP4 SWAP2 PUSH1 0x1 PUSH1 0x1 PUSH1 0xA0 SHL SUB AND GAS CALL SWAP5 DUP6 ISZERO PUSH2 0x460 JUMPI DUP7 SWAP6 PUSH2 0x427 JUMPI JUMPDEST POP DUP1 DUP6 GT ISZERO PUSH2 0x41F JUMPI SWAP2 JUMPDEST PUSH1 0x3 SLOAD PUSH1 0x4 DUP1 SLOAD PUSH1 0x40 MLOAD PUSH4 0x95EA7B3 PUSH1 0xE0 SHL DUP2 MSTORE PUSH1 0x1 PUSH1 0x1 PUSH1 0xA0 SHL SUB SWAP2 DUP3 AND SWAP3 DUP2 ADD SWAP3 SWAP1 SWAP3 MSTORE PUSH1 0x24 DUP3 ADD DUP7 SWAP1 MSTORE SWAP1 SWAP2 PUSH1 0x20 SWAP2 DUP4 SWAP2 PUSH1 0x44 SWAP2 DUP4 SWAP2 DUP13 SWAP2 AND GAS CALL DUP1 ISZERO PUSH2 0x3E5 JUMPI PUSH2 0x3F0 JUMPI JUMPDEST POP DUP6 PUSH1 0x40 PUSH1 0x1 DUP1 PUSH1 0xA0 SHL SUB PUSH1 0x4 SLOAD AND PUSH1 0x44 DUP3 MLOAD DUP1 SWAP5 DUP2 SWAP4 PUSH4 0xD8AED145 PUSH1 0xE0 SHL DUP4 MSTORE DUP9 PUSH1 0x4 DUP5 ADD MSTORE DUP10 PUSH1 0x24 DUP5 ADD MSTORE GAS CALL DUP1 ISZERO PUSH2 0x3E5 JUMPI PUSH2 0x3B3 SWAP6 SWAP7 SWAP8 POP PUSH2 0x3B7 JUMPI JUMPDEST POP PUSH2 0x331 DUP6 PUSH1 0x1 DUP4 ADD SLOAD PUSH2 0x2B19 JUMP JUMPDEST PUSH1 0x1 DUP3 ADD SSTORE PUSH1 0x8 DUP2 ADD PUSH2 0x345 DUP5 DUP3 SLOAD PUSH2 0x2B26 JUMP JUMPDEST SWAP1 SSTORE PUSH1 0x7 TIMESTAMP SWAP2 ADD SSTORE PUSH32 0x64CC470D924EF687FF28D709B7EF348C355FBE6F2B2E4157A21353815D9C4774 PUSH1 0x40 MLOAD DUP1 PUSH2 0x38F DUP6 DUP10 DUP10 DUP5 PUSH1 0x40 SWAP2 SWAP5 SWAP4 SWAP3 PUSH1 0x60 DUP3 ADD SWAP6 DUP3 MSTORE PUSH1 0x20 DUP3 ADD MSTORE ADD MSTORE JUMP JUMPDEST SUB SWAP1 LOG2 PUSH1 0x1 DUP1 SSTORE PUSH1 0x40 MLOAD SWAP4 DUP5 SWAP4 DUP5 PUSH1 0x40 SWAP2 SWAP5 SWAP4 SWAP3 PUSH1 0x60 DUP3 ADD SWAP6 DUP3 MSTORE PUSH1 0x20 DUP3 ADD MSTORE ADD MSTORE JUMP JUMPDEST SUB SWAP1 RETURN JUMPDEST PUSH2 0x3D8 SWAP1 PUSH1 0x40 RETURNDATASIZE PUSH1 0x40 GT PUSH2 0x3DE JUMPI JUMPDEST PUSH2 0x3D0 DUP2 DUP4 PUSH2 0x2807 JUMP JUMPDEST DUP2 ADD SWAP1 PUSH2 0x2B03 JUMP JUMPDEST POP PUSH2 0x322 JUMP JUMPDEST POP RETURNDATASIZE PUSH2 0x3C6 JUMP JUMPDEST PUSH1 0x40 MLOAD RETURNDATASIZE DUP10 DUP3 RETURNDATACOPY RETURNDATASIZE SWAP1 REVERT JUMPDEST PUSH2 0x411 SWAP1 PUSH1 0x20 RETURNDATASIZE PUSH1 0x20 GT PUSH2 0x418 JUMPI JUMPDEST PUSH2 0x409 DUP2 DUP4 PUSH2 0x2807 JUMP JUMPDEST DUP2 ADD SWAP1 PUSH2 0x2A43 JUMP JUMPDEST POP CODESIZE PUSH2 0x2E1 JUMP JUMPDEST POP RETURNDATASIZE PUSH2 0x3FF JUMP JUMPDEST POP DUP4 SWAP2 PUSH2 0x298 JUMP JUMPDEST SWAP1 SWAP5 POP PUSH1 0x20 DUP2 RETURNDATASIZE PUSH1 0x20 GT PUSH2 0x458 JUMPI JUMPDEST DUP2 PUSH2 0x443 PUSH1 0x20 SWAP4 DUP4 PUSH2 0x2807 JUMP JUMPDEST DUP2 ADD SUB SLT PUSH2 0x453 JUMPI MLOAD SWAP4 CODESIZE PUSH2 0x28D JUMP JUMPDEST PUSH1 0x0 DUP1 REVERT JUMPDEST RETURNDATASIZE SWAP2 POP PUSH2 0x436 JUMP JUMPDEST PUSH1 0x40 MLOAD RETURNDATASIZE DUP9 DUP3 RETURNDATACOPY RETURNDATASIZE SWAP1 REVERT JUMPDEST PUSH2 0x481 SWAP1 DUP4 RETURNDATASIZE DUP6 GT PUSH2 0x418 JUMPI PUSH2 0x409 DUP2 DUP4 PUSH2 0x2807 JUMP JUMPDEST POP CODESIZE PUSH2 0x24B JUMP JUMPDEST PUSH1 0x40 MLOAD PUSH3 0x461BCD PUSH1 0xE5 SHL DUP2 MSTORE PUSH1 0x20 PUSH1 0x4 DUP3 ADD MSTORE PUSH1 0x17 PUSH1 0x24 DUP3 ADD MSTORE PUSH32 0x496E73756666696369656E7420636F6C6C61746572616C000000000000000000 PUSH1 0x44 DUP3 ADD MSTORE PUSH1 0x64 SWAP1 REVERT JUMPDEST PUSH4 0x4E487B71 PUSH1 0xE0 SHL PUSH1 0x0 MSTORE PUSH1 0x11 PUSH1 0x4 MSTORE PUSH1 0x24 PUSH1 0x0 REVERT JUMPDEST PUSH1 0x40 MLOAD PUSH3 0x461BCD PUSH1 0xE5 SHL DUP2 MSTORE PUSH1 0x20 PUSH1 0x4 DUP3 ADD MSTORE PUSH1 0x12 PUSH1 0x24 DUP3 ADD MSTORE PUSH18 0x4E6F20696E74657265737420746F20706179 PUSH1 0x70 SHL PUSH1 0x44 DUP3 ADD MSTORE PUSH1 0x64 SWAP1 REVERT JUMPDEST SWAP1 SWAP3 POP PUSH1 0x20 DUP2 RETURNDATASIZE PUSH1 0x20 GT PUSH2 0x549 JUMPI JUMPDEST DUP2 PUSH2 0x539 PUSH1 0x20 SWAP4 DUP4 PUSH2 0x2807 JUMP JUMPDEST DUP2 ADD SUB SLT PUSH2 0x453 JUMPI MLOAD SWAP2 CODESIZE PUSH2 0x1B9 JUMP JUMPDEST RETURNDATASIZE SWAP2 POP PUSH2 0x52C JUMP JUMPDEST PUSH1 0x40 MLOAD RETURNDATASIZE DUP8 DUP3 RETURNDATACOPY RETURNDATASIZE SWAP1 REVERT JUMPDEST DUP1 REVERT JUMPDEST POP CALLVALUE PUSH2 0x55C JUMPI DUP1 PUSH1 0x3 NOT CALLDATASIZE ADD SLT PUSH2 0x55C JUMPI PUSH1 0x4 SLOAD PUSH1 0x40 MLOAD PUSH1 0x1 PUSH1 0x1 PUSH1 0xA0 SHL SUB SWAP1 SWAP2 AND DUP2 MSTORE PUSH1 0x20 SWAP1 RETURN JUMPDEST POP CALLVALUE PUSH2 0x55C JUMPI PUSH1 0x20 CALLDATASIZE PUSH1 0x3 NOT ADD SLT PUSH2 0x55C JUMPI PUSH2 0x5A2 PUSH2 0x27AA JUMP JUMPDEST PUSH2 0x5AA PUSH2 0x2965 JUMP JUMPDEST PUSH1 0x1 PUSH1 0x1 PUSH1 0xA0 SHL SUB SWAP1 DUP2 AND SWAP1 DUP2 ISZERO PUSH2 0x5FA JUMPI PUSH1 0x0 SLOAD DUP3 PUSH1 0x1 PUSH1 0x1 PUSH1 0x60 SHL SUB PUSH1 0xA0 SHL DUP3 AND OR PUSH1 0x0 SSTORE AND PUSH32 0x8BE0079C531659141344CD1FD0A4F28419497F9722A3DAAFE3B4186F6B6457E0 PUSH1 0x0 DUP1 LOG3 DUP1 RETURN JUMPDEST PUSH1 0x40 MLOAD PUSH4 0x1E4FBDF7 PUSH1 0xE0 SHL DUP2 MSTORE PUSH1 0x4 DUP2 ADD DUP5 SWAP1 MSTORE PUSH1 0x24 SWAP1 REVERT JUMPDEST POP CALLVALUE PUSH2 0x55C JUMPI PUSH1 0x20 CALLDATASIZE PUSH1 0x3 NOT ADD SLT PUSH2 0x55C JUMPI DUP1 PUSH1 0x40 SWAP2 PUSH2 0x160 DUP4 MLOAD PUSH2 0x637 DUP2 PUSH2 0x27EA JUMP JUMPDEST DUP3 DUP2 MSTORE DUP3 PUSH1 0x20 DUP3 ADD MSTORE DUP3 DUP6 DUP3 ADD MSTORE DUP3 PUSH1 0x60 DUP3 ADD MSTORE DUP3 PUSH1 0x80 DUP3 ADD MSTORE PUSH1 0x60 PUSH1 0xA0 DUP3 ADD MSTORE DUP3 PUSH1 0xC0 DUP3 ADD MSTORE DUP3 PUSH1 0xE0 DUP3 ADD MSTORE DUP3 PUSH2 0x100 DUP3 ADD MSTORE DUP3 PUSH2 0x120 DUP3 ADD MSTORE DUP3 PUSH2 0x140 DUP3 ADD MSTORE ADD MSTORE PUSH1 0x4 CALLDATALOAD DUP2 MSTORE PUSH1 0x8 PUSH1 0x20 MSTORE KECCAK256 PUSH1 0xFF PUSH1 0xA PUSH1 0x40 MLOAD SWAP3 PUSH2 0x697 DUP5 PUSH2 0x27EA JUMP JUMPDEST DUP1 SLOAD PUSH1 0x1 PUSH1 0x1 PUSH1 0xA0 SHL SUB SWAP1 DUP2 AND DUP6 MSTORE PUSH1 0x1 DUP3 ADD SLOAD PUSH1 0x20 DUP7 ADD MSTORE PUSH1 0x2 DUP3 ADD SLOAD PUSH1 0x40 DUP7 ADD MSTORE PUSH1 0x3 DUP3 ADD SLOAD AND PUSH1 0x60 DUP6 ADD MSTORE PUSH1 0x4 DUP2 ADD SLOAD PUSH1 0x80 DUP6 ADD MSTORE PUSH2 0x6DB PUSH1 0x5 DUP3 ADD PUSH2 0x287F JUMP JUMPDEST PUSH1 0xA0 DUP6 ADD MSTORE PUSH1 0x6 DUP2 ADD SLOAD PUSH1 0xC0 DUP6 ADD MSTORE PUSH1 0x7 DUP2 ADD SLOAD PUSH1 0xE0 DUP6 ADD MSTORE PUSH1 0x8 DUP2 ADD SLOAD PUSH2 0x100 DUP6 ADD MSTORE PUSH1 0x9 DUP2 ADD SLOAD PUSH2 0x120 DUP6 ADD MSTORE ADD SLOAD DUP2 DUP2 AND ISZERO ISZERO PUSH2 0x140 DUP5 ADD MSTORE PUSH1 0x8 SHR AND ISZERO ISZERO PUSH2 0x160 DUP3 ADD MSTORE PUSH1 0x40 MLOAD DUP1 SWAP2 PUSH1 0x20 DUP3 MSTORE PUSH1 0x1 DUP1 PUSH1 0xA0 SHL SUB DUP2 MLOAD AND PUSH1 0x20 DUP4 ADD MSTORE PUSH1 0x20 DUP2 ADD MLOAD PUSH1 0x40 DUP4 ADD MSTORE PUSH1 0x40 DUP2 ADD MLOAD PUSH1 0x60 DUP4 ADD MSTORE PUSH1 0x1 DUP1 PUSH1 0xA0 SHL SUB PUSH1 0x60 DUP3 ADD MLOAD AND PUSH1 0x80 DUP4 ADD MSTORE PUSH1 0x80 DUP2 ADD MLOAD PUSH1 0xA0 DUP4 ADD MSTORE PUSH1 0xA0 DUP2 ADD MLOAD PUSH2 0x160 PUSH2 0x78B PUSH2 0x180 SWAP3 DUP4 PUSH1 0xC0 DUP8 ADD MSTORE PUSH2 0x1A0 DUP7 ADD SWAP1 PUSH2 0x2925 JUMP JUMPDEST SWAP3 PUSH1 0xC0 DUP2 ADD MLOAD PUSH1 0xE0 DUP7 ADD MSTORE PUSH1 0xE0 DUP2 ADD MLOAD PUSH2 0x100 DUP7 ADD MSTORE PUSH2 0x100 DUP2 ADD MLOAD PUSH2 0x120 DUP7 ADD MSTORE PUSH2 0x120 DUP2 ADD MLOAD PUSH2 0x140 DUP7 ADD MSTORE PUSH2 0x140 DUP2 ADD MLOAD ISZERO ISZERO DUP3 DUP7 ADD MSTORE ADD MLOAD ISZERO ISZERO SWAP1 DUP4 ADD MSTORE SUB SWAP1 RETURN JUMPDEST POP CALLVALUE PUSH2 0x55C JUMPI PUSH1 0x20 CALLDATASIZE PUSH1 0x3 NOT ADD SLT PUSH2 0x55C JUMPI PUSH2 0x7EB PUSH2 0x27AA JUMP JUMPDEST PUSH2 0x7F3 PUSH2 0x2965 JUMP JUMPDEST PUSH1 0x1 PUSH1 0x1 PUSH1 0xA0 SHL SUB AND PUSH2 0x807 DUP2 ISZERO ISZERO PUSH2 0x2991 JUMP JUMPDEST PUSH1 0x1 PUSH1 0x1 PUSH1 0x60 SHL SUB PUSH1 0xA0 SHL PUSH1 0x7 SLOAD AND OR PUSH1 0x7 SSTORE DUP1 RETURN JUMPDEST POP CALLVALUE PUSH2 0x55C JUMPI DUP1 PUSH1 0x3 NOT CALLDATASIZE ADD SLT PUSH2 0x55C JUMPI PUSH1 0x20 PUSH1 0x40 MLOAD PUSH2 0x2710 DUP2 MSTORE RETURN JUMPDEST POP CALLVALUE PUSH2 0x55C JUMPI PUSH2 0x849 CALLDATASIZE PUSH2 0x2794 JUMP JUMPDEST SWAP2 PUSH2 0x852 PUSH2 0x2965 JUMP JUMPDEST PUSH2 0x85A PUSH2 0x2A9E JUMP JUMPDEST DUP2 DUP2 MSTORE PUSH1 0x8 PUSH1 0x20 MSTORE PUSH1 0x40 DUP2 KECCAK256 SWAP2 PUSH1 0xFF PUSH1 0xA DUP5 ADD SLOAD PUSH2 0x879 DUP3 DUP3 AND PUSH2 0x2AC1 JUMP JUMPDEST PUSH1 0x8 SHR AND PUSH2 0xD1D JUMPI PUSH2 0x88C DUP5 ISZERO ISZERO PUSH2 0x29CF JUMP JUMPDEST PUSH2 0x2CEC PUSH2 0x899 DUP6 DUP4 PUSH2 0x2BAF JUMP JUMPDEST LT ISZERO PUSH2 0xCE2 JUMPI PUSH1 0x24 SWAP3 PUSH1 0x1 DUP1 PUSH1 0xA0 SHL SUB DUP2 SLOAD AND SWAP2 PUSH1 0x20 PUSH1 0x1 DUP1 PUSH1 0xA0 SHL SUB PUSH1 0x4 SLOAD AND PUSH1 0x40 MLOAD SWAP7 DUP8 DUP1 SWAP3 PUSH4 0xD5595157 PUSH1 0xE0 SHL DUP3 MSTORE DUP6 PUSH1 0x4 DUP4 ADD MSTORE GAS STATICCALL SWAP5 DUP6 ISZERO PUSH2 0xCD7 JUMPI DUP5 SWAP6 PUSH2 0xCA3 JUMPI JUMPDEST POP PUSH13 0xC9F2C9CD04674EDEA40000000 DUP1 DUP7 MUL SWAP1 DUP7 DUP3 DIV EQ DUP7 ISZERO OR ISZERO PUSH2 0xC8F JUMPI DUP7 PUSH2 0x90A SWAP2 PUSH2 0x2A23 JUMP JUMPDEST SWAP2 PUSH1 0x1 DUP2 ADD SWAP5 DUP6 SLOAD DUP5 DUP1 DUP3 GT PUSH1 0x0 EQ PUSH2 0xC86 JUMPI PUSH2 0x926 SWAP2 PUSH2 0x2B19 JUMP JUMPDEST SWAP7 JUMPDEST DUP8 ISZERO PUSH2 0xC4D JUMPI PUSH1 0x2 SLOAD PUSH1 0x5 SLOAD PUSH1 0x40 MLOAD PUSH4 0x95EA7B3 PUSH1 0xE0 SHL DUP2 MSTORE PUSH1 0x1 PUSH1 0x1 PUSH1 0xA0 SHL SUB SWAP2 DUP3 AND PUSH1 0x4 DUP3 ADD MSTORE PUSH1 0x24 DUP2 ADD DUP12 SWAP1 MSTORE SWAP2 PUSH1 0x20 SWAP2 DUP4 SWAP2 PUSH1 0x44 SWAP2 DUP4 SWAP2 DUP9 SWAP2 AND GAS CALL DUP1 ISZERO PUSH2 0xBC8 JUMPI PUSH2 0xC2E JUMPI JUMPDEST POP PUSH1 0x5 SLOAD PUSH1 0x40 MLOAD PUSH4 0x7E8586D PUSH1 0xE5 SHL DUP2 MSTORE PUSH1 0x4 DUP2 ADD DUP11 SWAP1 MSTORE PUSH1 0x24 DUP2 ADD SWAP11 SWAP1 SWAP11 MSTORE PUSH1 0x20 SWAP1 DUP11 SWAP1 PUSH1 0x44 SWAP1 DUP3 SWAP1 DUP7 SWAP1 PUSH1 0x1 PUSH1 0x1 PUSH1 0xA0 SHL SUB AND GAS CALL SWAP9 DUP10 ISZERO PUSH2 0xB16 JUMPI DUP3 SWAP10 PUSH2 0xBFA JUMPI JUMPDEST POP DUP1 DUP10 GT ISZERO PUSH2 0xBF2 JUMPI SWAP5 JUMPDEST DUP6 PUSH2 0xB21 JUMPI JUMPDEST DUP5 PUSH2 0xA61 JUMPI JUMPDEST POP PUSH2 0x3B3 SWAP6 SSTORE PUSH2 0x100 PUSH2 0xFF00 NOT PUSH1 0xA DUP4 ADD SLOAD AND OR PUSH1 0xA DUP3 ADD SSTORE PUSH1 0x9 TIMESTAMP SWAP2 ADD SSTORE PUSH32 0xFF12C0216EFB56216C8EFBAF4798AA7B74300A23706D2A444F5A00A97CD237F5 PUSH1 0x40 MLOAD DUP1 PUSH2 0xA37 DUP7 DUP7 DUP12 DUP12 DUP6 SWAP1 SWAP5 SWAP4 SWAP3 PUSH1 0x60 SWAP3 PUSH1 0x80 DUP4 ADD SWAP7 DUP4 MSTORE PUSH1 0x20 DUP4 ADD MSTORE PUSH1 0x40 DUP3 ADD MSTORE ADD MSTORE JUMP JUMPDEST SUB SWAP1 LOG2 PUSH1 0x1 DUP1 SSTORE PUSH1 0x40 MLOAD SWAP5 DUP6 SWAP5 DUP6 SWAP1 SWAP5 SWAP4 SWAP3 PUSH1 0x60 SWAP3 PUSH1 0x80 DUP4 ADD SWAP7 DUP4 MSTORE PUSH1 0x20 DUP4 ADD MSTORE PUSH1 0x40 DUP3 ADD MSTORE ADD MSTORE JUMP JUMPDEST PUSH1 0x2 SLOAD PUSH1 0x40 MLOAD PUSH4 0xA9059CBB PUSH1 0xE0 SHL DUP2 MSTORE PUSH1 0x1 PUSH1 0x1 PUSH1 0xA0 SHL SUB SWAP3 DUP4 AND PUSH1 0x4 DUP3 ADD MSTORE PUSH1 0x24 DUP2 ADD DUP8 SWAP1 MSTORE SWAP2 PUSH1 0x20 SWAP2 DUP4 SWAP2 PUSH1 0x44 SWAP2 DUP4 SWAP2 DUP8 SWAP2 AND GAS CALL SWAP1 DUP2 ISZERO PUSH2 0xB16 JUMPI DUP3 SWAP2 PUSH2 0xAF7 JUMPI JUMPDEST POP ISZERO PUSH2 0xAB2 JUMPI CODESIZE PUSH2 0x9CF JUMP JUMPDEST PUSH1 0x40 MLOAD PUSH3 0x461BCD PUSH1 0xE5 SHL DUP2 MSTORE PUSH1 0x20 PUSH1 0x4 DUP3 ADD MSTORE PUSH1 0x19 PUSH1 0x24 DUP3 ADD MSTORE PUSH32 0x42617365206D455448207472616E73666572206661696C656400000000000000 PUSH1 0x44 DUP3 ADD MSTORE PUSH1 0x64 SWAP1 REVERT JUMPDEST PUSH2 0xB10 SWAP2 POP PUSH1 0x20 RETURNDATASIZE PUSH1 0x20 GT PUSH2 0x418 JUMPI PUSH2 0x409 DUP2 DUP4 PUSH2 0x2807 JUMP JUMPDEST CODESIZE PUSH2 0xAA6 JUMP JUMPDEST PUSH1 0x40 MLOAD RETURNDATASIZE DUP5 DUP3 RETURNDATACOPY RETURNDATASIZE SWAP1 REVERT JUMPDEST PUSH1 0x3 SLOAD PUSH1 0x4 DUP1 SLOAD PUSH1 0x40 MLOAD PUSH4 0x95EA7B3 PUSH1 0xE0 SHL DUP2 MSTORE PUSH1 0x1 PUSH1 0x1 PUSH1 0xA0 SHL SUB SWAP2 DUP3 AND SWAP3 DUP2 ADD SWAP3 SWAP1 SWAP3 MSTORE PUSH1 0x24 DUP3 ADD DUP10 SWAP1 MSTORE SWAP1 SWAP2 PUSH1 0x20 SWAP2 DUP4 SWAP2 PUSH1 0x44 SWAP2 DUP4 SWAP2 DUP9 SWAP2 AND GAS CALL DUP1 ISZERO PUSH2 0xBC8 JUMPI PUSH2 0xBD3 JUMPI JUMPDEST POP DUP2 PUSH1 0x40 PUSH1 0x1 DUP1 PUSH1 0xA0 SHL SUB PUSH1 0x4 SLOAD AND PUSH1 0x44 DUP3 MLOAD DUP1 SWAP5 DUP2 SWAP4 PUSH4 0xD8AED145 PUSH1 0xE0 SHL DUP4 MSTORE DUP11 PUSH1 0x4 DUP5 ADD MSTORE DUP13 PUSH1 0x24 DUP5 ADD MSTORE GAS CALL DUP1 ISZERO PUSH2 0xBC8 JUMPI PUSH2 0xBAA JUMPI JUMPDEST POP PUSH2 0x9C9 JUMP JUMPDEST PUSH2 0xBC2 SWAP1 PUSH1 0x40 RETURNDATASIZE PUSH1 0x40 GT PUSH2 0x3DE JUMPI PUSH2 0x3D0 DUP2 DUP4 PUSH2 0x2807 JUMP JUMPDEST POP PUSH2 0xBA4 JUMP JUMPDEST PUSH1 0x40 MLOAD RETURNDATASIZE DUP6 DUP3 RETURNDATACOPY RETURNDATASIZE SWAP1 REVERT JUMPDEST PUSH2 0xBEB SWAP1 PUSH1 0x20 RETURNDATASIZE PUSH1 0x20 GT PUSH2 0x418 JUMPI PUSH2 0x409 DUP2 DUP4 PUSH2 0x2807 JUMP JUMPDEST POP CODESIZE PUSH2 0xB6A JUMP JUMPDEST POP DUP8 SWAP5 PUSH2 0x9C3 JUMP JUMPDEST SWAP1 SWAP9 POP PUSH1 0x20 DUP2 RETURNDATASIZE PUSH1 0x20 GT PUSH2 0xC26 JUMPI JUMPDEST DUP2 PUSH2 0xC16 PUSH1 0x20 SWAP4 DUP4 PUSH2 0x2807 JUMP JUMPDEST DUP2 ADD SUB SLT PUSH2 0x453 JUMPI MLOAD SWAP8 CODESIZE PUSH2 0x9B8 JUMP JUMPDEST RETURNDATASIZE SWAP2 POP PUSH2 0xC09 JUMP JUMPDEST PUSH2 0xC46 SWAP1 PUSH1 0x20 RETURNDATASIZE PUSH1 0x20 GT PUSH2 0x418 JUMPI PUSH2 0x409 DUP2 DUP4 PUSH2 0x2807 JUMP JUMPDEST POP CODESIZE PUSH2 0x973 JUMP JUMPDEST PUSH1 0x40 MLOAD PUSH3 0x461BCD PUSH1 0xE5 SHL DUP2 MSTORE PUSH1 0x20 PUSH1 0x4 DUP3 ADD MSTORE PUSH1 0x11 PUSH1 0x24 DUP3 ADD MSTORE PUSH17 0x139BC8189D5999995C881D1BC81CD95B1B PUSH1 0x7A SHL PUSH1 0x44 DUP3 ADD MSTORE PUSH1 0x64 SWAP1 REVERT JUMPDEST POP POP DUP1 SWAP7 PUSH2 0x928 JUMP JUMPDEST PUSH4 0x4E487B71 PUSH1 0xE0 SHL DUP6 MSTORE PUSH1 0x11 PUSH1 0x4 MSTORE PUSH1 0x24 DUP6 REVERT JUMPDEST SWAP1 SWAP5 POP PUSH1 0x20 DUP2 RETURNDATASIZE PUSH1 0x20 GT PUSH2 0xCCF JUMPI JUMPDEST DUP2 PUSH2 0xCBF PUSH1 0x20 SWAP4 DUP4 PUSH2 0x2807 JUMP JUMPDEST DUP2 ADD SUB SLT PUSH2 0x453 JUMPI MLOAD SWAP4 CODESIZE PUSH2 0x8E1 JUMP JUMPDEST RETURNDATASIZE SWAP2 POP PUSH2 0xCB2 JUMP JUMPDEST PUSH1 0x40 MLOAD RETURNDATASIZE DUP7 DUP3 RETURNDATACOPY RETURNDATASIZE SWAP1 REVERT JUMPDEST PUSH1 0x40 MLOAD PUSH3 0x461BCD PUSH1 0xE5 SHL DUP2 MSTORE PUSH1 0x20 PUSH1 0x4 DUP3 ADD MSTORE PUSH1 0x13 PUSH1 0x24 DUP3 ADD MSTORE PUSH19 0x506F736974696F6E206973206865616C746879 PUSH1 0x68 SHL PUSH1 0x44 DUP3 ADD MSTORE PUSH1 0x64 SWAP1 REVERT JUMPDEST PUSH1 0x40 MLOAD PUSH3 0x461BCD PUSH1 0xE5 SHL DUP2 MSTORE PUSH1 0x20 PUSH1 0x4 DUP3 ADD MSTORE PUSH1 0x16 PUSH1 0x24 DUP3 ADD MSTORE PUSH22 0x20B63932B0B23C9034B7103634B8BAB4B230BA34B7B7 PUSH1 0x51 SHL PUSH1 0x44 DUP3 ADD MSTORE PUSH1 0x64 SWAP1 REVERT JUMPDEST POP CALLVALUE PUSH2 0x55C JUMPI PUSH2 0xD6A CALLDATASIZE PUSH2 0x2794 JUMP JUMPDEST PUSH2 0xD72 PUSH2 0x2A9E JUMP JUMPDEST DUP2 DUP4 MSTORE PUSH1 0x20 PUSH1 0x8 DUP2 MSTORE PUSH1 0x40 DUP5 KECCAK256 SWAP2 PUSH2 0xD90 PUSH1 0xFF PUSH1 0xA DUP6 ADD SLOAD AND PUSH2 0x2AC1 JUMP JUMPDEST DUP3 SLOAD PUSH1 0x1 PUSH1 0x1 PUSH1 0xA0 SHL SUB SWAP1 DUP2 AND CALLER SUB PUSH2 0xE8B JUMPI DUP2 ISZERO PUSH2 0xE51 JUMPI PUSH1 0x2 SLOAD PUSH1 0x40 MLOAD PUSH4 0x23B872DD PUSH1 0xE0 SHL DUP2 MSTORE CALLER PUSH1 0x4 DUP3 ADD MSTORE ADDRESS PUSH1 0x24 DUP3 ADD MSTORE PUSH1 0x44 DUP2 ADD DUP5 SWAP1 MSTORE SWAP5 SWAP2 DUP5 SWAP2 DUP7 SWAP2 PUSH1 0x64 SWAP2 DUP4 SWAP2 DUP12 SWAP2 AND GAS CALL SWAP1 DUP2 ISZERO PUSH2 0x460 JUMPI PUSH2 0xE18 PUSH1 0x1 SWAP3 PUSH32 0x244160B15E69CC411F041D94AE7FAB6F6BBA85DADE8403216C05FF4B920D5449 SWAP7 DUP10 SWAP2 PUSH2 0xE34 JUMPI JUMPDEST POP PUSH2 0x2A5B JUMP JUMPDEST ADD PUSH2 0xE24 DUP3 DUP3 SLOAD PUSH2 0x2B26 JUMP JUMPDEST SWAP1 SSTORE PUSH1 0x40 MLOAD SWAP1 DUP2 MSTORE LOG2 PUSH1 0x1 DUP1 SSTORE DUP1 RETURN JUMPDEST PUSH2 0xE4B SWAP2 POP DUP7 RETURNDATASIZE DUP9 GT PUSH2 0x418 JUMPI PUSH2 0x409 DUP2 DUP4 PUSH2 0x2807 JUMP JUMPDEST CODESIZE PUSH2 0xE12 JUMP JUMPDEST PUSH1 0x40 MLOAD PUSH3 0x461BCD PUSH1 0xE5 SHL DUP2 MSTORE PUSH1 0x4 DUP2 ADD DUP5 SWAP1 MSTORE PUSH1 0x12 PUSH1 0x24 DUP3 ADD MSTORE PUSH18 0x416D6F756E74206D757374206265203E203 PUSH1 0x74 SHL PUSH1 0x44 DUP3 ADD MSTORE PUSH1 0x64 SWAP1 REVERT JUMPDEST PUSH1 0x40 MLOAD PUSH3 0x461BCD PUSH1 0xE5 SHL DUP2 MSTORE PUSH1 0x4 DUP2 ADD DUP5 SWAP1 MSTORE PUSH1 0x12 PUSH1 0x24 DUP3 ADD MSTORE PUSH18 0x2737BA103837B9B4BA34B7B71037BBB732B9 PUSH1 0x71 SHL PUSH1 0x44 DUP3 ADD MSTORE PUSH1 0x64 SWAP1 REVERT JUMPDEST POP CALLVALUE PUSH2 0x55C JUMPI DUP1 PUSH1 0x3 NOT CALLDATASIZE ADD SLT PUSH2 0x55C JUMPI PUSH1 0x6 SLOAD PUSH1 0x40 MLOAD PUSH1 0x1 PUSH1 0x1 PUSH1 0xA0 SHL SUB SWAP1 SWAP2 AND DUP2 MSTORE PUSH1 0x20 SWAP1 RETURN JUMPDEST POP CALLVALUE PUSH2 0x55C JUMPI PUSH1 0x20 CALLDATASIZE PUSH1 0x3 NOT ADD SLT PUSH2 0x55C JUMPI PUSH1 0x40 SWAP1 PUSH1 0x4 CALLDATALOAD DUP2 MSTORE PUSH1 0x8 PUSH1 0x20 MSTORE KECCAK256 PUSH1 0x1 DUP1 PUSH1 0xA0 SHL SUB SWAP1 DUP2 DUP2 SLOAD AND SWAP1 PUSH1 0xFF PUSH1 0x1 DUP3 ADD SLOAD SWAP4 PUSH1 0x2 DUP4 ADD SLOAD SWAP1 PUSH1 0x3 DUP5 ADD SLOAD AND SWAP3 PUSH1 0x4 DUP2 ADD SLOAD SWAP4 PUSH2 0xF42 PUSH1 0x5 DUP4 ADD PUSH2 0x287F JUMP JUMPDEST SWAP5 PUSH2 0xF90 PUSH1 0x6 DUP5 ADD SLOAD SWAP7 PUSH1 0x7 DUP6 ADD SLOAD SWAP3 PUSH1 0x8 DUP7 ADD SLOAD SWAP5 PUSH1 0xA PUSH1 0x9 DUP9 ADD SLOAD SWAP8 ADD SLOAD SWAP8 PUSH1 0x40 MLOAD SWAP13 DUP14 SWAP13 DUP14 MSTORE PUSH1 0x20 DUP14 ADD MSTORE PUSH1 0x40 DUP13 ADD MSTORE PUSH1 0x60 DUP12 ADD MSTORE PUSH1 0x80 DUP11 ADD MSTORE PUSH2 0x180 DUP1 PUSH1 0xA0 DUP12 ADD MSTORE DUP10 ADD SWAP1 PUSH2 0x2925 JUMP JUMPDEST SWAP6 PUSH1 0xC0 DUP9 ADD MSTORE PUSH1 0xE0 DUP8 ADD MSTORE PUSH2 0x100 DUP7 ADD MSTORE PUSH2 0x120 DUP6 ADD MSTORE DUP2 DUP2 AND ISZERO ISZERO PUSH2 0x140 DUP6 ADD MSTORE PUSH1 0x8 SHR AND ISZERO ISZERO PUSH2 0x160 DUP4 ADD MSTORE SUB SWAP1 RETURN JUMPDEST POP CALLVALUE PUSH2 0x55C JUMPI PUSH1 0x80 CALLDATASIZE PUSH1 0x3 NOT ADD SLT PUSH2 0x55C JUMPI PUSH1 0x1 PUSH1 0x1 PUSH1 0xA0 SHL SUB SWAP1 PUSH1 0x24 DUP1 CALLDATALOAD SWAP2 DUP4 DUP4 AND DUP4 SUB PUSH2 0x453 JUMPI PUSH1 0x44 CALLDATALOAD SWAP1 DUP5 DUP3 AND SWAP3 DUP4 DUP4 SUB PUSH2 0x453 JUMPI PUSH1 0x64 CALLDATALOAD SWAP5 PUSH2 0x1006 PUSH2 0x2965 JUMP JUMPDEST PUSH2 0x100E PUSH2 0x2A9E JUMP JUMPDEST PUSH1 0x4 CALLDATALOAD DUP4 MSTORE PUSH1 0x20 SWAP7 PUSH1 0x8 DUP9 MSTORE PUSH1 0x40 DUP5 KECCAK256 PUSH2 0x102E PUSH1 0xFF PUSH1 0xA DUP4 ADD SLOAD AND PUSH2 0x2AC1 JUMP JUMPDEST DUP7 DUP3 PUSH1 0x3 DUP4 ADD SLOAD AND SUB PUSH2 0x1237 JUMPI PUSH1 0x4 ADD SWAP6 DUP7 SLOAD DUP9 GT PUSH2 0x11F3 JUMPI PUSH1 0x40 MLOAD PUSH4 0x95EA7B3 PUSH1 0xE0 SHL DUP2 MSTORE PUSH1 0x1 PUSH1 0x1 PUSH1 0xA0 SHL SUB DUP5 AND PUSH1 0x4 DUP3 ADD MSTORE PUSH1 0x24 DUP2 ADD DUP10 SWAP1 MSTORE SWAP1 DUP10 SWAP1 DUP3 SWAP1 PUSH1 0x44 SWAP1 DUP3 SWAP1 DUP10 SWAP1 GAS CALL DUP1 ISZERO PUSH2 0x551 JUMPI PUSH2 0x11D6 JUMPI JUMPDEST POP DUP1 PUSH1 0x3 SLOAD AND SWAP2 PUSH1 0x40 MLOAD SWAP6 DUP10 DUP8 DUP7 DUP2 PUSH4 0x70A08231 PUSH1 0xE0 SHL SWAP8 DUP9 DUP3 MSTORE ADDRESS PUSH1 0x4 DUP4 ADD MSTORE GAS STATICCALL SWAP7 DUP8 ISZERO PUSH2 0x460 JUMPI SWAP1 DUP10 DUP12 SWAP6 SWAP5 SWAP4 SWAP3 DUP9 SWAP10 PUSH2 0x119E JUMPI JUMPDEST POP PUSH2 0x111C SWAP3 DUP8 DUP10 DUP1 SWAP5 PUSH2 0x110A DUP11 PUSH2 0x10FC DUP5 SWAP8 PUSH1 0x40 MLOAD SWAP5 DUP6 SWAP4 DUP5 ADD SWAP8 PUSH4 0xC34F5ED PUSH1 0xE1 SHL DUP10 MSTORE DUP5 ADD PUSH1 0x20 SWAP1 SWAP4 SWAP3 SWAP2 SWAP4 PUSH1 0x40 DUP2 ADD SWAP5 PUSH1 0x1 DUP1 PUSH1 0xA0 SHL SUB AND DUP2 MSTORE ADD MSTORE JUMP JUMPDEST SUB PUSH1 0x1F NOT DUP2 ADD DUP4 MSTORE DUP3 PUSH2 0x2807 JUMP JUMPDEST MLOAD SWAP3 GAS CALL PUSH2 0x1116 PUSH2 0x2B33 JUMP JUMPDEST POP PUSH2 0x2B63 JUMP JUMPDEST PUSH1 0x3 SLOAD AND SWAP3 PUSH1 0x40 MLOAD DUP1 SWAP5 DUP2 SWAP4 DUP3 MSTORE ADDRESS PUSH1 0x4 DUP4 ADD MSTORE GAS STATICCALL SWAP2 DUP3 ISZERO PUSH2 0x1192 JUMPI SWAP2 PUSH2 0x1163 JUMPI JUMPDEST POP PUSH2 0x1155 SWAP2 PUSH2 0x114D SWAP2 PUSH2 0x2B19 JUMP JUMPDEST SWAP3 DUP3 SLOAD PUSH2 0x2B19 JUMP JUMPDEST SWAP1 SSTORE PUSH1 0x1 DUP1 SSTORE PUSH1 0x40 MLOAD SWAP1 DUP2 MSTORE RETURN JUMPDEST SWAP1 POP DUP5 DUP2 DUP2 RETURNDATASIZE DUP4 GT PUSH2 0x118B JUMPI JUMPDEST PUSH2 0x117A DUP2 DUP4 PUSH2 0x2807 JUMP JUMPDEST DUP2 ADD SUB SLT PUSH2 0x453 JUMPI MLOAD PUSH2 0x1155 PUSH2 0x113F JUMP JUMPDEST POP RETURNDATASIZE PUSH2 0x1170 JUMP JUMPDEST PUSH1 0x40 MLOAD SWAP1 RETURNDATASIZE SWAP1 DUP3 RETURNDATACOPY RETURNDATASIZE SWAP1 REVERT JUMPDEST SWAP6 DUP1 SWAP3 SWAP10 POP DUP7 SWAP2 POP RETURNDATASIZE DUP4 GT PUSH2 0x11CF JUMPI JUMPDEST PUSH2 0x11B8 DUP2 DUP4 PUSH2 0x2807 JUMP JUMPDEST DUP2 ADD SUB SLT PUSH2 0x453 JUMPI SWAP3 MLOAD SWAP6 DUP10 SWAP4 SWAP1 DUP10 PUSH2 0x111C PUSH2 0x10BB JUMP JUMPDEST POP RETURNDATASIZE PUSH2 0x11AE JUMP JUMPDEST PUSH2 0x11EC SWAP1 DUP10 RETURNDATASIZE DUP12 GT PUSH2 0x418 JUMPI PUSH2 0x409 DUP2 DUP4 PUSH2 0x2807 JUMP JUMPDEST POP CODESIZE PUSH2 0x1083 JUMP JUMPDEST PUSH1 0x40 MLOAD PUSH3 0x461BCD PUSH1 0xE5 SHL DUP2 MSTORE PUSH1 0x4 DUP2 ADD DUP11 SWAP1 MSTORE PUSH1 0x17 DUP2 DUP7 ADD MSTORE PUSH32 0x496E73756666696369656E742052574120746F6B656E73000000000000000000 PUSH1 0x44 DUP3 ADD MSTORE PUSH1 0x64 SWAP1 REVERT JUMPDEST PUSH1 0x40 MLOAD PUSH3 0x461BCD PUSH1 0xE5 SHL DUP2 MSTORE PUSH1 0x4 DUP2 ADD DUP11 SWAP1 MSTORE PUSH1 0xE DUP2 DUP7 ADD MSTORE PUSH14 0xA8DED6CADC40DAD2E6DAC2E8C6D PUSH1 0x93 SHL PUSH1 0x44 DUP3 ADD MSTORE PUSH1 0x64 SWAP1 REVERT JUMPDEST POP CALLVALUE PUSH2 0x55C JUMPI DUP1 PUSH1 0x3 NOT CALLDATASIZE ADD SLT PUSH2 0x55C JUMPI PUSH1 0x20 PUSH1 0x40 MLOAD PUSH2 0x2CEC DUP2 MSTORE RETURN JUMPDEST POP CALLVALUE PUSH2 0x55C JUMPI DUP1 PUSH1 0x3 NOT CALLDATASIZE ADD SLT PUSH2 0x55C JUMPI SLOAD PUSH1 0x40 MLOAD PUSH1 0x1 PUSH1 0x1 PUSH1 0xA0 SHL SUB SWAP1 SWAP2 AND DUP2 MSTORE PUSH1 0x20 SWAP1 RETURN JUMPDEST POP CALLVALUE PUSH2 0x55C JUMPI DUP1 PUSH1 0x3 NOT CALLDATASIZE ADD SLT PUSH2 0x55C JUMPI PUSH1 0x20 PUSH1 0x9 SLOAD PUSH1 0x40 MLOAD SWAP1 DUP2 MSTORE RETURN JUMPDEST POP CALLVALUE PUSH2 0x55C JUMPI PUSH2 0x100 CALLDATASIZE PUSH1 0x3 NOT ADD SLT PUSH2 0x55C JUMPI PUSH2 0x12E9 PUSH2 0x27AA JUMP JUMPDEST PUSH1 0x64 CALLDATALOAD PUSH1 0x1 PUSH1 0x1 PUSH1 0xA0 SHL SUB DUP2 AND DUP2 SUB PUSH2 0x1913 JUMPI PUSH1 0xA4 CALLDATALOAD SWAP2 PUSH8 0xFFFFFFFFFFFFFFFF DUP4 GT PUSH2 0x18D9 JUMPI CALLDATASIZE PUSH1 0x23 DUP5 ADD SLT ISZERO PUSH2 0x18D9 JUMPI DUP4 DUP4 PUSH1 0x4 ADD CALLDATALOAD SWAP4 PUSH2 0x132A DUP6 PUSH2 0x2829 JUMP JUMPDEST SWAP5 PUSH2 0x1338 PUSH1 0x40 MLOAD SWAP7 DUP8 PUSH2 0x2807 JUMP JUMPDEST DUP1 DUP7 MSTORE CALLDATASIZE PUSH1 0x24 DUP3 DUP5 ADD ADD GT PUSH2 0x1913 JUMPI DUP1 PUSH1 0x24 PUSH1 0x20 SWAP4 ADD DUP4 DUP9 ADD CALLDATACOPY DUP6 ADD ADD MSTORE PUSH1 0xE4 CALLDATALOAD PUSH2 0x1361 PUSH2 0x2965 JUMP JUMPDEST PUSH2 0x1369 PUSH2 0x2A9E JUMP JUMPDEST PUSH1 0x1 PUSH1 0x1 PUSH1 0xA0 SHL SUB DUP3 AND ISZERO PUSH2 0x1A9D JUMPI PUSH1 0x24 CALLDATALOAD ISZERO PUSH2 0x1A58 JUMPI PUSH1 0x44 CALLDATALOAD ISZERO PUSH2 0x1A13 JUMPI PUSH1 0x1 PUSH1 0x1 PUSH1 0xA0 SHL SUB DUP4 AND ISZERO PUSH2 0x19DA JUMPI PUSH2 0x13A2 DUP2 ISZERO ISZERO PUSH2 0x29CF JUMP JUMPDEST PUSH1 0x7 SLOAD PUSH1 0x1 PUSH1 0x1 PUSH1 0xA0 SHL SUB AND ISZERO PUSH2 0x199D JUMPI PUSH2 0x13CD PUSH13 0xC9F2C9CD04674EDEA40000000 SWAP2 PUSH1 0x24 CALLDATALOAD PUSH2 0x2A10 JUMP JUMPDEST DIV PUSH2 0x3A98 DUP1 PUSH1 0x44 CALLDATALOAD MUL SWAP1 PUSH1 0x44 CALLDATALOAD DUP3 DIV SUB PUSH2 0x1989 JUMPI PUSH2 0x2710 SWAP1 DIV GT PUSH2 0x1930 JUMPI PUSH1 0x2 SLOAD PUSH1 0x40 MLOAD PUSH4 0x23B872DD PUSH1 0xE0 SHL DUP2 MSTORE PUSH1 0x1 PUSH1 0x1 PUSH1 0xA0 SHL SUB DUP4 DUP2 AND PUSH1 0x4 DUP4 ADD MSTORE ADDRESS PUSH1 0x24 DUP1 DUP5 ADD SWAP2 SWAP1 SWAP2 MSTORE CALLDATALOAD PUSH1 0x44 DUP4 ADD MSTORE SWAP1 SWAP2 PUSH1 0x20 SWAP2 DUP4 SWAP2 PUSH1 0x64 SWAP2 DUP4 SWAP2 DUP11 SWAP2 AND GAS CALL DUP1 ISZERO PUSH2 0x551 JUMPI PUSH2 0x1442 SWAP2 DUP7 SWAP2 PUSH2 0x1917 JUMPI POP PUSH2 0x2A5B JUMP JUMPDEST PUSH1 0x4 SLOAD PUSH1 0x9 SLOAD DUP6 SWAP2 PUSH1 0x1 PUSH1 0x1 PUSH1 0xA0 SHL SUB AND DUP1 EXTCODESIZE ISZERO PUSH2 0x1913 JUMPI PUSH1 0x44 DUP4 SWAP3 PUSH1 0x40 MLOAD SWAP5 DUP6 SWAP4 DUP5 SWAP3 PUSH4 0xECBCDAB PUSH1 0xE0 SHL DUP5 MSTORE PUSH1 0x4 DUP5 ADD MSTORE DUP4 CALLDATALOAD PUSH1 0x24 DUP5 ADD MSTORE GAS CALL DUP1 ISZERO PUSH2 0x551 JUMPI PUSH2 0x1900 JUMPI JUMPDEST POP PUSH1 0x3 SLOAD PUSH1 0x7 SLOAD PUSH1 0x40 MLOAD PUSH4 0x95EA7B3 PUSH1 0xE0 SHL DUP2 MSTORE PUSH1 0x1 PUSH1 0x1 PUSH1 0xA0 SHL SUB SWAP2 DUP3 AND PUSH1 0x4 DUP3 ADD MSTORE PUSH1 0x44 DUP1 CALLDATALOAD PUSH1 0x24 DUP4 ADD MSTORE SWAP1 SWAP3 PUSH1 0x20 SWAP3 DUP5 SWAP3 SWAP2 DUP4 SWAP2 DUP11 SWAP2 AND GAS CALL DUP1 ISZERO PUSH2 0x551 JUMPI PUSH2 0x18E1 JUMPI JUMPDEST POP PUSH1 0x7 SLOAD DUP5 SWAP1 PUSH1 0x1 PUSH1 0x1 PUSH1 0xA0 SHL SUB AND DUP1 EXTCODESIZE ISZERO PUSH2 0x18DD JUMPI DUP2 DUP1 SWAP2 PUSH1 0x44 PUSH1 0x40 MLOAD DUP1 SWAP5 DUP2 SWAP4 PUSH4 0x7F5D633 PUSH1 0xE0 SHL DUP4 MSTORE PUSH1 0xC4 CALLDATALOAD PUSH1 0x4 DUP5 ADD MSTORE PUSH1 0x84 CALLDATALOAD PUSH1 0x24 DUP5 ADD MSTORE GAS CALL DUP1 ISZERO PUSH2 0xB16 JUMPI PUSH2 0x18C5 JUMPI JUMPDEST POP POP PUSH1 0x40 MLOAD PUSH4 0x70A08231 PUSH1 0xE0 SHL DUP2 MSTORE ADDRESS PUSH1 0x4 DUP3 ADD MSTORE PUSH1 0x20 DUP2 PUSH1 0x24 DUP2 PUSH1 0x1 PUSH1 0x1 PUSH1 0xA0 SHL SUB DUP8 AND GAS STATICCALL SWAP1 DUP2 ISZERO PUSH2 0x551 JUMPI DUP6 SWAP2 PUSH2 0x1893 JUMPI JUMPDEST POP PUSH1 0x84 CALLDATALOAD GT PUSH2 0x184E JUMPI PUSH1 0x9 SLOAD SWAP3 PUSH1 0x0 NOT DUP5 EQ PUSH2 0xC8F JUMPI PUSH1 0x1 DUP5 ADD PUSH1 0x9 SSTORE PUSH1 0x40 MLOAD SWAP1 PUSH2 0x1578 DUP3 PUSH2 0x27EA JUMP JUMPDEST PUSH1 0x1 DUP1 PUSH1 0xA0 SHL SUB DUP4 AND DUP3 MSTORE PUSH1 0x24 CALLDATALOAD PUSH1 0x20 DUP4 ADD MSTORE PUSH1 0x44 CALLDATALOAD PUSH1 0x40 DUP4 ADD MSTORE PUSH1 0x1 DUP1 PUSH1 0xA0 SHL SUB DUP5 AND PUSH1 0x60 DUP4 ADD MSTORE PUSH1 0x84 CALLDATALOAD PUSH1 0x80 DUP4 ADD MSTORE PUSH1 0xA0 DUP3 ADD MSTORE TIMESTAMP PUSH1 0xC0 DUP3 ADD MSTORE TIMESTAMP PUSH1 0xE0 DUP3 ADD MSTORE DUP5 PUSH2 0x100 DUP3 ADD MSTORE DUP5 PUSH2 0x120 DUP3 ADD MSTORE PUSH1 0x1 PUSH2 0x140 DUP3 ADD MSTORE DUP5 PUSH2 0x160 DUP3 ADD MSTORE DUP4 DUP6 MSTORE PUSH1 0x8 PUSH1 0x20 MSTORE PUSH1 0x40 DUP6 KECCAK256 PUSH1 0x1 DUP1 PUSH1 0xA0 SHL SUB DUP3 MLOAD AND PUSH1 0x1 PUSH1 0x1 PUSH1 0x60 SHL SUB PUSH1 0xA0 SHL SWAP1 DUP2 DUP4 SLOAD AND OR DUP3 SSTORE PUSH1 0x20 DUP4 ADD MLOAD PUSH1 0x1 DUP4 ADD SSTORE PUSH1 0x40 DUP4 ADD MLOAD PUSH1 0x2 DUP4 ADD SSTORE PUSH1 0x3 DUP3 ADD SWAP1 PUSH1 0x1 DUP1 PUSH1 0xA0 SHL SUB PUSH1 0x60 DUP6 ADD MLOAD AND SWAP1 DUP3 SLOAD AND OR SWAP1 SSTORE PUSH1 0x80 DUP3 ADD MLOAD PUSH1 0x4 DUP3 ADD SSTORE PUSH1 0xA0 DUP3 ADD MLOAD DUP1 MLOAD SWAP1 PUSH8 0xFFFFFFFFFFFFFFFF DUP3 GT PUSH2 0x183A JUMPI PUSH2 0x165B PUSH1 0x5 DUP5 ADD SLOAD PUSH2 0x2845 JUMP JUMPDEST PUSH1 0x1F DUP2 GT PUSH2 0x17F6 JUMPI JUMPDEST POP PUSH1 0x20 SWAP8 DUP8 SWAP6 SWAP5 SWAP4 SWAP3 SWAP2 DUP10 SWAP2 PUSH1 0x1 PUSH1 0x1F DUP6 GT EQ PUSH2 0x1760 JUMPI SWAP3 DUP1 PUSH1 0xA SWAP4 PUSH32 0x9B1464E9A9771C899BB0AA078D0A5338D3604792FA428D4D24D35E950E7A2ED6 SWAP9 SWAP7 SWAP4 PUSH1 0x80 SWAP9 SWAP7 SWAP3 PUSH2 0x1755 JUMPI JUMPDEST POP POP DUP2 PUSH1 0x1 SHL SWAP2 PUSH1 0x0 NOT SWAP1 PUSH1 0x3 SHL SHR NOT AND OR PUSH1 0x5 DUP3 ADD SSTORE JUMPDEST PUSH1 0xC0 DUP4 ADD MLOAD PUSH1 0x6 DUP3 ADD SSTORE PUSH1 0xE0 DUP4 ADD MLOAD PUSH1 0x7 DUP3 ADD SSTORE PUSH2 0x100 DUP4 ADD MLOAD PUSH1 0x8 DUP3 ADD SSTORE PUSH2 0x120 DUP4 ADD MLOAD PUSH1 0x9 DUP3 ADD SSTORE ADD SWAP1 PUSH2 0x140 DUP2 ADD MLOAD ISZERO ISZERO SWAP1 PUSH1 0xFF PUSH2 0xFF00 PUSH2 0x160 DUP6 SLOAD SWAP4 ADD MLOAD ISZERO ISZERO PUSH1 0x8 SHL AND SWAP3 AND SWAP1 PUSH2 0xFFFF NOT AND OR OR SWAP1 SSTORE PUSH1 0x40 MLOAD SWAP5 PUSH1 0x24 CALLDATALOAD DUP7 MSTORE PUSH1 0x44 CALLDATALOAD DUP9 DUP8 ADD MSTORE PUSH1 0x1 DUP1 PUSH1 0xA0 SHL SUB AND PUSH1 0x40 DUP7 ADD MSTORE PUSH1 0x84 CALLDATALOAD PUSH1 0x60 DUP7 ADD MSTORE PUSH1 0x1 DUP1 PUSH1 0xA0 SHL SUB AND SWAP4 LOG3 PUSH1 0x1 DUP1 SSTORE PUSH1 0x40 MLOAD SWAP1 DUP2 MSTORE RETURN JUMPDEST ADD MLOAD SWAP1 POP CODESIZE DUP1 PUSH2 0x16AE JUMP JUMPDEST SWAP2 SWAP1 PUSH1 0x5 DUP6 ADD DUP4 MSTORE DUP11 DUP4 KECCAK256 SWAP3 JUMPDEST PUSH1 0x1F NOT DUP6 AND DUP2 LT PUSH2 0x17DC JUMPI POP DUP4 PUSH1 0xA SWAP4 PUSH32 0x9B1464E9A9771C899BB0AA078D0A5338D3604792FA428D4D24D35E950E7A2ED6 SWAP9 SWAP7 SWAP4 PUSH1 0x1 SWAP4 PUSH1 0x80 SWAP10 SWAP8 PUSH1 0x1F NOT DUP2 AND LT PUSH2 0x17C3 JUMPI JUMPDEST POP POP POP DUP2 SHL ADD PUSH1 0x5 DUP3 ADD SSTORE PUSH2 0x16C6 JUMP JUMPDEST ADD MLOAD PUSH1 0x0 NOT PUSH1 0xF8 DUP5 PUSH1 0x3 SHL AND SHR NOT AND SWAP1 SSTORE CODESIZE DUP1 DUP1 PUSH2 0x17B3 JUMP JUMPDEST DUP2 DUP4 ADD MLOAD DUP5 SSTORE DUP11 SWAP9 POP PUSH1 0x1 SWAP1 SWAP4 ADD SWAP3 SWAP2 DUP12 ADD SWAP2 DUP12 ADD PUSH2 0x176D JUMP JUMPDEST PUSH1 0x5 DUP5 ADD DUP10 MSTORE PUSH1 0x20 DUP10 KECCAK256 PUSH1 0x1F DUP5 ADD PUSH1 0x5 SHR DUP2 ADD PUSH1 0x20 DUP6 LT PUSH2 0x1833 JUMPI JUMPDEST PUSH1 0x1F DUP4 ADD PUSH1 0x5 SHR DUP3 ADD DUP2 LT PUSH2 0x1828 JUMPI POP POP PUSH2 0x1664 JUMP JUMPDEST DUP11 DUP2 SSTORE PUSH1 0x1 ADD PUSH2 0x1812 JUMP JUMPDEST POP DUP1 PUSH2 0x1812 JUMP JUMPDEST PUSH4 0x4E487B71 PUSH1 0xE0 SHL DUP9 MSTORE PUSH1 0x41 PUSH1 0x4 MSTORE PUSH1 0x24 DUP9 REVERT JUMPDEST PUSH1 0x40 MLOAD PUSH3 0x461BCD PUSH1 0xE5 SHL DUP2 MSTORE PUSH1 0x20 PUSH1 0x4 DUP3 ADD MSTORE PUSH1 0x19 PUSH1 0x24 DUP3 ADD MSTORE PUSH32 0x52574120746F6B656E207075726368617365206661696C656400000000000000 PUSH1 0x44 DUP3 ADD MSTORE PUSH1 0x64 SWAP1 REVERT JUMPDEST SWAP1 POP PUSH1 0x20 DUP2 RETURNDATASIZE PUSH1 0x20 GT PUSH2 0x18BD JUMPI JUMPDEST DUP2 PUSH2 0x18AE PUSH1 0x20 SWAP4 DUP4 PUSH2 0x2807 JUMP JUMPDEST DUP2 ADD SUB SLT PUSH2 0x453 JUMPI MLOAD CODESIZE PUSH2 0x154E JUMP JUMPDEST RETURNDATASIZE SWAP2 POP PUSH2 0x18A1 JUMP JUMPDEST PUSH2 0x18CE SWAP1 PUSH2 0x27C0 JUMP JUMPDEST PUSH2 0x18D9 JUMPI DUP4 CODESIZE PUSH2 0x1519 JUMP JUMPDEST DUP4 DUP1 REVERT JUMPDEST POP DUP1 REVERT JUMPDEST PUSH2 0x18F9 SWAP1 PUSH1 0x20 RETURNDATASIZE PUSH1 0x20 GT PUSH2 0x418 JUMPI PUSH2 0x409 DUP2 DUP4 PUSH2 0x2807 JUMP JUMPDEST POP CODESIZE PUSH2 0x14D0 JUMP JUMPDEST PUSH2 0x190C SWAP1 SWAP5 SWAP2 SWAP5 PUSH2 0x27C0 JUMP JUMPDEST SWAP3 CODESIZE PUSH2 0x1489 JUMP JUMPDEST DUP3 DUP1 REVERT JUMPDEST PUSH2 0xE4B SWAP2 POP PUSH1 0x20 RETURNDATASIZE PUSH1 0x20 GT PUSH2 0x418 JUMPI PUSH2 0x409 DUP2 DUP4 PUSH2 0x2807 JUMP JUMPDEST PUSH1 0x40 MLOAD PUSH3 0x461BCD PUSH1 0xE5 SHL DUP2 MSTORE PUSH1 0x20 PUSH1 0x4 DUP3 ADD MSTORE PUSH1 0x2B PUSH1 0x24 DUP3 ADD MSTORE PUSH32 0x496E73756666696369656E7420636F6C6C61746572616C202831353025204C54 PUSH1 0x44 DUP3 ADD MSTORE PUSH11 0x5620726571756972656429 PUSH1 0xA8 SHL PUSH1 0x64 DUP3 ADD MSTORE PUSH1 0x84 SWAP1 REVERT JUMPDEST PUSH4 0x4E487B71 PUSH1 0xE0 SHL DUP7 MSTORE PUSH1 0x11 PUSH1 0x4 MSTORE PUSH1 0x24 DUP7 REVERT JUMPDEST PUSH1 0x40 MLOAD PUSH3 0x461BCD PUSH1 0xE5 SHL DUP2 MSTORE PUSH1 0x20 PUSH1 0x4 DUP3 ADD MSTORE PUSH1 0x15 PUSH1 0x24 DUP3 ADD MSTORE PUSH21 0x141C9A5B585C9E53585C9AD95D081B9BDD081CD95D PUSH1 0x5A SHL PUSH1 0x44 DUP3 ADD MSTORE PUSH1 0x64 SWAP1 REVERT JUMPDEST PUSH1 0x40 MLOAD PUSH3 0x461BCD PUSH1 0xE5 SHL DUP2 MSTORE PUSH1 0x20 PUSH1 0x4 DUP3 ADD MSTORE PUSH1 0x11 PUSH1 0x24 DUP3 ADD MSTORE PUSH17 0x24B73B30B634B210292BA0903A37B5B2B7 PUSH1 0x79 SHL PUSH1 0x44 DUP3 ADD MSTORE PUSH1 0x64 SWAP1 REVERT JUMPDEST PUSH1 0x40 MLOAD PUSH3 0x461BCD PUSH1 0xE5 SHL DUP2 MSTORE PUSH1 0x20 PUSH1 0x4 DUP3 ADD MSTORE PUSH1 0x17 PUSH1 0x24 DUP3 ADD MSTORE PUSH32 0x5553444320616D6F756E74206D757374206265203E2030000000000000000000 PUSH1 0x44 DUP3 ADD MSTORE PUSH1 0x64 SWAP1 REVERT JUMPDEST PUSH1 0x40 MLOAD PUSH3 0x461BCD PUSH1 0xE5 SHL DUP2 MSTORE PUSH1 0x20 PUSH1 0x4 DUP3 ADD MSTORE PUSH1 0x17 PUSH1 0x24 DUP3 ADD MSTORE PUSH32 0x6D45544820616D6F756E74206D757374206265203E2030000000000000000000 PUSH1 0x44 DUP3 ADD MSTORE PUSH1 0x64 SWAP1 REVERT JUMPDEST PUSH1 0x40 MLOAD PUSH3 0x461BCD PUSH1 0xE5 SHL DUP2 MSTORE PUSH1 0x20 PUSH1 0x4 DUP3 ADD MSTORE PUSH1 0xC PUSH1 0x24 DUP3 ADD MSTORE PUSH12 0x24B73B30B634B2103AB9B2B9 PUSH1 0xA1 SHL PUSH1 0x44 DUP3 ADD MSTORE PUSH1 0x64 SWAP1 REVERT JUMPDEST POP CALLVALUE PUSH2 0x55C JUMPI PUSH1 0x20 CALLDATASIZE PUSH1 0x3 NOT ADD SLT PUSH2 0x55C JUMPI PUSH2 0x1AEB PUSH2 0x2965 JUMP JUMPDEST PUSH2 0x1AF3 PUSH2 0x2A9E JUMP JUMPDEST PUSH1 0x4 CALLDATALOAD DUP2 MSTORE PUSH1 0x8 PUSH1 0x20 MSTORE PUSH1 0x40 DUP2 KECCAK256 SWAP1 PUSH1 0xFF PUSH1 0xA DUP4 ADD SLOAD PUSH2 0x1B14 DUP3 DUP3 AND PUSH2 0x2AC1 JUMP JUMPDEST PUSH1 0x8 SHR AND ISZERO PUSH2 0x2126 JUMPI PUSH1 0x6 SLOAD PUSH1 0x1 PUSH1 0x1 PUSH1 0xA0 SHL SUB AND SWAP2 DUP3 ISZERO PUSH2 0x20EC JUMPI PUSH1 0x4 DUP2 ADD SWAP3 DUP4 SLOAD SWAP1 DUP2 ISZERO PUSH2 0x20AF JUMPI PUSH1 0x3 DUP4 ADD SLOAD PUSH1 0x40 MLOAD PUSH4 0x95EA7B3 PUSH1 0xE0 SHL DUP2 MSTORE PUSH1 0x1 PUSH1 0x1 PUSH1 0xA0 SHL SUB SWAP3 DUP4 AND PUSH1 0x4 DUP3 ADD MSTORE PUSH1 0x24 DUP2 ADD SWAP4 SWAP1 SWAP4 MSTORE PUSH1 0x20 SWAP2 DUP4 SWAP2 PUSH1 0x44 SWAP2 DUP4 SWAP2 DUP9 SWAP2 AND GAS CALL DUP1 ISZERO PUSH2 0xBC8 JUMPI PUSH2 0x2090 JUMPI JUMPDEST POP PUSH1 0x3 SLOAD PUSH1 0x40 MLOAD PUSH4 0x70A08231 PUSH1 0xE0 SHL DUP1 DUP3 MSTORE ADDRESS PUSH1 0x4 DUP4 ADD MSTORE SWAP2 PUSH1 0x20 SWAP1 DUP3 SWAP1 PUSH1 0x24 SWAP1 DUP3 SWAP1 PUSH1 0x1 PUSH1 0x1 PUSH1 0xA0 SHL SUB AND GAS STATICCALL SWAP1 DUP2 ISZERO PUSH2 0xCD7 JUMPI DUP5 SWAP2 PUSH2 0x205E JUMPI JUMPDEST POP PUSH1 0x6 SLOAD PUSH1 0x3 DUP5 ADD SLOAD DUP7 SLOAD PUSH1 0x40 MLOAD PUSH4 0xC34F5ED PUSH1 0xE1 SHL PUSH1 0x20 DUP3 ADD SWAP1 DUP2 MSTORE PUSH1 0x1 PUSH1 0x1 PUSH1 0xA0 SHL SUB SWAP4 DUP5 AND PUSH1 0x24 DUP4 ADD MSTORE PUSH1 0x44 DUP3 ADD SWAP3 SWAP1 SWAP3 MSTORE PUSH2 0x1C0D SWAP4 DUP9 SWAP4 DUP5 SWAP4 SWAP2 AND SWAP2 DUP4 SWAP1 PUSH2 0x110A DUP2 PUSH1 0x64 DUP2 ADD PUSH2 0x10FC JUMP JUMPDEST PUSH1 0x3 SLOAD PUSH1 0x40 MLOAD SWAP3 DUP4 MSTORE ADDRESS PUSH1 0x4 DUP5 ADD MSTORE PUSH1 0x20 SWAP1 DUP4 SWAP1 PUSH1 0x24 SWAP1 DUP3 SWAP1 PUSH1 0x1 PUSH1 0x1 PUSH1 0xA0 SHL SUB AND GAS STATICCALL DUP1 ISZERO PUSH2 0xCD7 JUMPI DUP5 SWAP1 PUSH2 0x2028 JUMPI JUMPDEST PUSH2 0x1C48 SWAP3 POP PUSH2 0x2B19 JUMP JUMPDEST SWAP2 DUP3 ISZERO PUSH2 0x1FEF JUMPI DUP1 DUP5 SLOAD SWAP5 SSTORE PUSH1 0x1 DUP1 PUSH1 0xA0 SHL SUB PUSH1 0x4 SLOAD AND SWAP4 PUSH1 0x40 MLOAD SWAP5 PUSH4 0xD5595157 PUSH1 0xE0 SHL DUP7 MSTORE PUSH1 0x4 CALLDATALOAD PUSH1 0x4 DUP8 ADD MSTORE PUSH1 0x20 DUP7 PUSH1 0x24 DUP2 DUP5 GAS STATICCALL SWAP6 DUP7 ISZERO PUSH2 0xBC8 JUMPI DUP4 SWAP7 PUSH2 0x1FBB JUMPI JUMPDEST POP DUP3 SWAP6 DUP1 PUSH2 0x1ECA JUMPI JUMPDEST POP POP DUP5 DUP5 GT ISZERO PUSH2 0x1EBC JUMPI PUSH2 0x1CAA DUP6 DUP6 PUSH2 0x2B19 JUMP JUMPDEST SWAP5 PUSH2 0x3E8 DUP1 DUP8 MUL SWAP1 DUP8 DUP3 DIV EQ DUP8 ISZERO OR ISZERO PUSH2 0x1EA8 JUMPI PUSH2 0x2710 PUSH2 0x1CCD SWAP2 DIV DUP1 SWAP8 PUSH2 0x2B19 JUMP JUMPDEST SWAP3 DUP7 PUSH2 0x1E02 JUMPI JUMPDEST DUP4 PUSH2 0x1D53 JUMPI JUMPDEST POP PUSH2 0x3B3 SWAP4 JUMPDEST PUSH1 0xA PUSH1 0xFF NOT DUP2 DUP4 ADD SLOAD AND SWAP2 ADD SSTORE PUSH1 0x40 MLOAD SWAP2 DUP3 MSTORE DUP5 PUSH1 0x20 DUP4 ADD MSTORE PUSH1 0x40 DUP3 ADD MSTORE DUP5 PUSH1 0x60 DUP3 ADD MSTORE DUP2 PUSH1 0x80 DUP3 ADD MSTORE PUSH32 0xC6CD390F41278A5DC86640C2D3A9966214589950193AE25E9D9382791E0A11A6 PUSH1 0xA0 PUSH1 0x4 CALLDATALOAD SWAP3 LOG2 PUSH1 0x1 DUP1 SSTORE PUSH1 0x40 MLOAD SWAP4 DUP5 SWAP4 DUP5 PUSH1 0x40 SWAP2 SWAP5 SWAP4 SWAP3 PUSH1 0x60 DUP3 ADD SWAP6 DUP3 MSTORE PUSH1 0x20 DUP3 ADD MSTORE ADD MSTORE JUMP JUMPDEST PUSH1 0x3 SLOAD DUP6 SLOAD PUSH1 0x40 MLOAD PUSH4 0xA9059CBB PUSH1 0xE0 SHL DUP2 MSTORE PUSH1 0x1 PUSH1 0x1 PUSH1 0xA0 SHL SUB SWAP2 DUP3 AND PUSH1 0x4 DUP3 ADD MSTORE PUSH1 0x24 DUP2 ADD DUP8 SWAP1 MSTORE SWAP2 PUSH1 0x20 SWAP2 DUP4 SWAP2 PUSH1 0x44 SWAP2 DUP4 SWAP2 DUP8 SWAP2 AND GAS CALL SWAP2 DUP3 ISZERO PUSH2 0x1192 JUMPI SWAP2 PUSH2 0x1DE3 JUMPI JUMPDEST POP ISZERO PUSH2 0x1DA5 JUMPI CODESIZE PUSH2 0x1CDA JUMP JUMPDEST PUSH1 0x40 MLOAD PUSH3 0x461BCD PUSH1 0xE5 SHL DUP2 MSTORE PUSH1 0x20 PUSH1 0x4 DUP3 ADD MSTORE PUSH1 0x16 PUSH1 0x24 DUP3 ADD MSTORE PUSH22 0x1499599D5B99081D1C985B9CD9995C8819985A5B1959 PUSH1 0x52 SHL PUSH1 0x44 DUP3 ADD MSTORE PUSH1 0x64 SWAP1 REVERT JUMPDEST PUSH2 0x1DFC SWAP2 POP PUSH1 0x20 RETURNDATASIZE PUSH1 0x20 GT PUSH2 0x418 JUMPI PUSH2 0x409 DUP2 DUP4 PUSH2 0x2807 JUMP JUMPDEST CODESIZE PUSH2 0x1D99 JUMP JUMPDEST PUSH1 0x3 SLOAD DUP2 SLOAD PUSH1 0x40 MLOAD PUSH4 0xA9059CBB PUSH1 0xE0 SHL DUP2 MSTORE PUSH1 0x1 PUSH1 0x1 PUSH1 0xA0 SHL SUB SWAP2 DUP3 AND PUSH1 0x4 DUP3 ADD MSTORE PUSH1 0x24 DUP2 ADD DUP11 SWAP1 MSTORE SWAP2 PUSH1 0x20 SWAP2 DUP4 SWAP2 PUSH1 0x44 SWAP2 DUP4 SWAP2 DUP8 SWAP2 AND GAS CALL SWAP1 DUP2 ISZERO PUSH2 0xB16 JUMPI DUP3 SWAP2 PUSH2 0x1E89 JUMPI JUMPDEST POP PUSH2 0x1CD4 JUMPI PUSH1 0x40 MLOAD PUSH3 0x461BCD PUSH1 0xE5 SHL DUP2 MSTORE PUSH1 0x20 PUSH1 0x4 DUP3 ADD MSTORE PUSH1 0x13 PUSH1 0x24 DUP3 ADD MSTORE PUSH19 0x119959481D1C985B9CD9995C8819985A5B1959 PUSH1 0x6A SHL PUSH1 0x44 DUP3 ADD MSTORE PUSH1 0x64 SWAP1 REVERT JUMPDEST PUSH2 0x1EA2 SWAP2 POP PUSH1 0x20 RETURNDATASIZE PUSH1 0x20 GT PUSH2 0x418 JUMPI PUSH2 0x409 DUP2 DUP4 PUSH2 0x2807 JUMP JUMPDEST CODESIZE PUSH2 0x1E49 JUMP JUMPDEST PUSH4 0x4E487B71 PUSH1 0xE0 SHL DUP5 MSTORE PUSH1 0x11 PUSH1 0x4 MSTORE PUSH1 0x24 DUP5 REVERT JUMPDEST DUP2 SWAP5 PUSH2 0x3B3 SWAP4 SWAP3 SWAP6 SWAP3 PUSH2 0x1CE0 JUMP JUMPDEST SWAP2 SWAP6 POP SWAP1 DUP1 DUP6 GT ISZERO PUSH2 0x1FAD JUMPI PUSH1 0x20 PUSH2 0x1F1C SWAP2 DUP1 SWAP4 JUMPDEST PUSH1 0x3 SLOAD PUSH1 0x40 MLOAD PUSH4 0x95EA7B3 PUSH1 0xE0 SHL DUP2 MSTORE PUSH1 0x1 PUSH1 0x1 PUSH1 0xA0 SHL SUB SWAP3 DUP4 AND PUSH1 0x4 DUP3 ADD MSTORE PUSH1 0x24 DUP2 ADD SWAP4 SWAP1 SWAP4 MSTORE SWAP2 SWAP4 DUP5 SWAP3 SWAP1 SWAP2 AND SWAP1 DUP3 SWAP1 DUP8 SWAP1 DUP3 SWAP1 PUSH1 0x44 DUP3 ADD SWAP1 JUMP JUMPDEST SUB SWAP3 GAS CALL DUP1 ISZERO PUSH2 0xBC8 JUMPI PUSH2 0x1F8E JUMPI JUMPDEST POP DUP2 PUSH1 0x40 PUSH1 0x1 DUP1 PUSH1 0xA0 SHL SUB PUSH1 0x4 SLOAD AND PUSH1 0x44 DUP3 MLOAD DUP1 SWAP5 DUP2 SWAP4 PUSH4 0xD8AED145 PUSH1 0xE0 SHL DUP4 MSTORE PUSH1 0x4 CALLDATALOAD PUSH1 0x4 DUP5 ADD MSTORE DUP8 PUSH1 0x24 DUP5 ADD MSTORE GAS CALL DUP1 ISZERO PUSH2 0xBC8 JUMPI PUSH2 0x1F70 JUMPI JUMPDEST POP SWAP4 CODESIZE DUP1 PUSH2 0x1C96 JUMP JUMPDEST PUSH2 0x1F88 SWAP1 PUSH1 0x40 RETURNDATASIZE PUSH1 0x40 GT PUSH2 0x3DE JUMPI PUSH2 0x3D0 DUP2 DUP4 PUSH2 0x2807 JUMP JUMPDEST POP PUSH2 0x1F67 JUMP JUMPDEST PUSH2 0x1FA6 SWAP1 PUSH1 0x20 RETURNDATASIZE PUSH1 0x20 GT PUSH2 0x418 JUMPI PUSH2 0x409 DUP2 DUP4 PUSH2 0x2807 JUMP JUMPDEST POP CODESIZE PUSH2 0x1F2B JUMP JUMPDEST POP PUSH2 0x1F1C PUSH1 0x20 DUP6 DUP1 SWAP4 PUSH2 0x1EDF JUMP JUMPDEST SWAP1 SWAP6 POP PUSH1 0x20 DUP2 RETURNDATASIZE PUSH1 0x20 GT PUSH2 0x1FE7 JUMPI JUMPDEST DUP2 PUSH2 0x1FD7 PUSH1 0x20 SWAP4 DUP4 PUSH2 0x2807 JUMP JUMPDEST DUP2 ADD SUB SLT PUSH2 0x1913 JUMPI MLOAD SWAP5 CODESIZE PUSH2 0x1C8D JUMP JUMPDEST RETURNDATASIZE SWAP2 POP PUSH2 0x1FCA JUMP JUMPDEST PUSH1 0x40 MLOAD PUSH3 0x461BCD PUSH1 0xE5 SHL DUP2 MSTORE PUSH1 0x20 PUSH1 0x4 DUP3 ADD MSTORE PUSH1 0x11 PUSH1 0x24 DUP3 ADD MSTORE PUSH17 0x139BC81E5A595B19081C9958D95A5D9959 PUSH1 0x7A SHL PUSH1 0x44 DUP3 ADD MSTORE PUSH1 0x64 SWAP1 REVERT JUMPDEST POP SWAP1 PUSH1 0x20 DUP2 RETURNDATASIZE PUSH1 0x20 GT PUSH2 0x2056 JUMPI JUMPDEST DUP2 PUSH2 0x2043 PUSH1 0x20 SWAP4 DUP4 PUSH2 0x2807 JUMP JUMPDEST DUP2 ADD SUB SLT PUSH2 0x18D9 JUMPI SWAP1 PUSH2 0x1C48 SWAP2 MLOAD PUSH2 0x1C3E JUMP JUMPDEST RETURNDATASIZE SWAP2 POP PUSH2 0x2036 JUMP JUMPDEST SWAP1 POP PUSH1 0x20 DUP2 RETURNDATASIZE PUSH1 0x20 GT PUSH2 0x2088 JUMPI JUMPDEST DUP2 PUSH2 0x2079 PUSH1 0x20 SWAP4 DUP4 PUSH2 0x2807 JUMP JUMPDEST DUP2 ADD SUB SLT PUSH2 0x18D9 JUMPI MLOAD CODESIZE PUSH2 0x1BBE JUMP JUMPDEST RETURNDATASIZE SWAP2 POP PUSH2 0x206C JUMP JUMPDEST PUSH2 0x20A8 SWAP1 PUSH1 0x20 RETURNDATASIZE PUSH1 0x20 GT PUSH2 0x418 JUMPI PUSH2 0x409 DUP2 DUP4 PUSH2 0x2807 JUMP JUMPDEST POP CODESIZE PUSH2 0x1B82 JUMP JUMPDEST PUSH1 0x40 MLOAD PUSH3 0x461BCD PUSH1 0xE5 SHL DUP2 MSTORE PUSH1 0x20 PUSH1 0x4 DUP3 ADD MSTORE PUSH1 0x15 PUSH1 0x24 DUP3 ADD MSTORE PUSH21 0x273790292BA0903A37B5B2B739903A3790313AB937 PUSH1 0x59 SHL PUSH1 0x44 DUP3 ADD MSTORE PUSH1 0x64 SWAP1 REVERT JUMPDEST PUSH1 0x40 MLOAD PUSH3 0x461BCD PUSH1 0xE5 SHL DUP2 MSTORE PUSH1 0x20 PUSH1 0x4 DUP3 ADD MSTORE PUSH1 0x12 PUSH1 0x24 DUP3 ADD MSTORE PUSH18 0x165A595B1915985D5B1D081B9BDD081CD95D PUSH1 0x72 SHL PUSH1 0x44 DUP3 ADD MSTORE PUSH1 0x64 SWAP1 REVERT JUMPDEST PUSH1 0x40 MLOAD PUSH3 0x461BCD PUSH1 0xE5 SHL DUP2 MSTORE PUSH1 0x20 PUSH1 0x4 DUP3 ADD MSTORE PUSH1 0x1B PUSH1 0x24 DUP3 ADD MSTORE PUSH32 0x506F736974696F6E206E6F7420696E206C69717569646174696F6E0000000000 PUSH1 0x44 DUP3 ADD MSTORE PUSH1 0x64 SWAP1 REVERT JUMPDEST POP CALLVALUE PUSH2 0x55C JUMPI DUP1 PUSH1 0x3 NOT CALLDATASIZE ADD SLT PUSH2 0x55C JUMPI PUSH2 0x2184 PUSH2 0x2965 JUMP JUMPDEST DUP1 SLOAD PUSH1 0x1 PUSH1 0x1 PUSH1 0xA0 SHL SUB NOT DUP2 AND DUP3 SSTORE DUP2 SWAP1 PUSH1 0x1 PUSH1 0x1 PUSH1 0xA0 SHL SUB AND PUSH32 0x8BE0079C531659141344CD1FD0A4F28419497F9722A3DAAFE3B4186F6B6457E0 DUP3 DUP1 LOG3 DUP1 RETURN JUMPDEST POP CALLVALUE PUSH2 0x55C JUMPI DUP1 PUSH1 0x3 NOT CALLDATASIZE ADD SLT PUSH2 0x55C JUMPI PUSH1 0x20 PUSH1 0x40 MLOAD PUSH2 0x3A98 DUP2 MSTORE RETURN JUMPDEST POP CALLVALUE PUSH2 0x55C JUMPI DUP1 PUSH1 0x3 NOT CALLDATASIZE ADD SLT PUSH2 0x55C JUMPI PUSH1 0x20 PUSH1 0x40 MLOAD PUSH2 0x3E8 DUP2 MSTORE RETURN JUMPDEST POP CALLVALUE PUSH2 0x55C JUMPI DUP1 PUSH1 0x3 NOT CALLDATASIZE ADD SLT PUSH2 0x55C JUMPI PUSH1 0x5 SLOAD PUSH1 0x40 MLOAD PUSH1 0x1 PUSH1 0x1 PUSH1 0xA0 SHL SUB SWAP1 SWAP2 AND DUP2 MSTORE PUSH1 0x20 SWAP1 RETURN JUMPDEST POP CALLVALUE PUSH2 0x55C JUMPI PUSH1 0x20 PUSH2 0x2242 PUSH2 0x223C CALLDATASIZE PUSH2 0x2794 JUMP JUMPDEST SWAP1 PUSH2 0x2BAF JUMP JUMPDEST PUSH1 0x40 MLOAD SWAP1 DUP2 MSTORE RETURN JUMPDEST POP CALLVALUE PUSH2 0x55C JUMPI DUP1 PUSH1 0x3 NOT CALLDATASIZE ADD SLT PUSH2 0x55C JUMPI PUSH1 0x3 SLOAD PUSH1 0x40 MLOAD PUSH1 0x1 PUSH1 0x1 PUSH1 0xA0 SHL SUB SWAP1 SWAP2 AND DUP2 MSTORE PUSH1 0x20 SWAP1 RETURN JUMPDEST POP CALLVALUE PUSH2 0x55C JUMPI DUP1 PUSH1 0x3 NOT CALLDATASIZE ADD SLT PUSH2 0x55C JUMPI PUSH1 0x2 SLOAD PUSH1 0x40 MLOAD PUSH1 0x1 PUSH1 0x1 PUSH1 0xA0 SHL SUB SWAP1 SWAP2 AND DUP2 MSTORE PUSH1 0x20 SWAP1 RETURN JUMPDEST POP CALLVALUE PUSH2 0x55C JUMPI DUP1 PUSH1 0x3 NOT CALLDATASIZE ADD SLT PUSH2 0x55C JUMPI PUSH1 0x7 SLOAD PUSH1 0x40 MLOAD PUSH1 0x1 PUSH1 0x1 PUSH1 0xA0 SHL SUB SWAP1 SWAP2 AND DUP2 MSTORE PUSH1 0x20 SWAP1 RETURN JUMPDEST POP CALLVALUE PUSH2 0x55C JUMPI PUSH1 0x20 CALLDATASIZE PUSH1 0x3 NOT ADD SLT PUSH2 0x55C JUMPI PUSH2 0x22DF PUSH2 0x27AA JUMP JUMPDEST PUSH2 0x22E7 PUSH2 0x2965 JUMP JUMPDEST PUSH1 0x6 SLOAD SWAP1 PUSH1 0x1 PUSH1 0x1 PUSH1 0xA0 SHL SUB SWAP1 DUP2 DUP4 AND PUSH2 0x2319 JUMPI AND SWAP1 PUSH2 0x2308 DUP3 ISZERO ISZERO PUSH2 0x2991 JUMP JUMPDEST PUSH1 0x1 PUSH1 0x1 PUSH1 0xA0 SHL SUB NOT AND OR PUSH1 0x6 SSTORE DUP1 RETURN JUMPDEST PUSH1 0x40 MLOAD PUSH3 0x461BCD PUSH1 0xE5 SHL DUP2 MSTORE PUSH1 0x20 PUSH1 0x4 DUP3 ADD MSTORE PUSH1 0x16 PUSH1 0x24 DUP3 ADD MSTORE PUSH22 0x165A595B1915985D5B1D08185B1C9958591E481CD95D PUSH1 0x52 SHL PUSH1 0x44 DUP3 ADD MSTORE PUSH1 0x64 SWAP1 REVERT JUMPDEST POP CALLVALUE PUSH2 0x55C JUMPI PUSH2 0x2366 CALLDATASIZE PUSH2 0x2794 JUMP JUMPDEST PUSH2 0x2371 SWAP3 SWAP2 SWAP3 PUSH2 0x2965 JUMP JUMPDEST PUSH2 0x2379 PUSH2 0x2A9E JUMP JUMPDEST DUP3 DUP3 MSTORE PUSH1 0x20 SWAP3 PUSH1 0x8 DUP5 MSTORE PUSH1 0x40 DUP4 KECCAK256 SWAP1 PUSH1 0xA DUP3 ADD PUSH2 0x2399 PUSH1 0xFF DUP3 SLOAD AND PUSH2 0x2AC1 JUMP JUMPDEST PUSH1 0x4 DUP1 SLOAD PUSH1 0x40 MLOAD PUSH4 0xD5595157 PUSH1 0xE0 SHL DUP2 MSTORE SWAP2 DUP3 ADD DUP5 SWAP1 MSTORE PUSH1 0x1 PUSH1 0x1 PUSH1 0xA0 SHL SUB SWAP2 SWAP1 DUP3 AND DUP9 DUP3 PUSH1 0x24 DUP2 DUP5 GAS STATICCALL SWAP2 DUP3 ISZERO PUSH2 0x2679 JUMPI SWAP1 DUP10 SWAP2 DUP10 SWAP4 PUSH2 0x275F JUMPI JUMPDEST POP DUP3 DUP9 LT PUSH2 0x2684 JUMPI POP PUSH1 0x3 SLOAD PUSH1 0x4 DUP1 SLOAD PUSH1 0x40 MLOAD PUSH4 0x95EA7B3 PUSH1 0xE0 SHL DUP2 MSTORE SWAP1 DUP7 AND PUSH1 0x1 PUSH1 0x1 PUSH1 0xA0 SHL SUB AND SWAP2 DUP2 ADD SWAP2 SWAP1 SWAP2 MSTORE PUSH1 0x24 DUP2 ADD DUP5 SWAP1 MSTORE SWAP2 SWAP1 DUP3 SWAP1 DUP6 AND DUP2 DUP12 DUP2 PUSH1 0x44 DUP2 ADD SUB SWAP3 GAS CALL DUP1 ISZERO PUSH2 0x2679 JUMPI SWAP1 DUP9 SWAP4 SWAP3 SWAP2 PUSH2 0x265C JUMPI JUMPDEST POP PUSH1 0x40 DUP3 PUSH1 0x4 SLOAD AND PUSH1 0x44 DUP3 MLOAD DUP1 SWAP12 DUP2 SWAP4 PUSH4 0xD8AED145 PUSH1 0xE0 SHL DUP4 MSTORE DUP11 PUSH1 0x4 DUP5 ADD MSTORE DUP7 PUSH1 0x24 DUP5 ADD MSTORE GAS CALL DUP1 ISZERO PUSH2 0xBC8 JUMPI DUP4 SWAP9 DUP5 SWAP2 PUSH2 0x2635 JUMPI JUMPDEST POP SWAP1 PUSH2 0x2471 SWAP2 SWAP9 SWAP8 PUSH2 0x2B19 JUMP JUMPDEST SWAP5 DUP6 PUSH2 0x2584 JUMPI JUMPDEST PUSH1 0x1 DUP2 ADD SLOAD SWAP2 DUP3 PUSH2 0x24D6 JUMPI JUMPDEST DUP9 DUP9 PUSH2 0x3B3 DUP10 DUP10 DUP10 PUSH1 0xFF NOT DUP2 SLOAD AND SWAP1 SSTORE PUSH32 0x2AD2842250C60E12F989A7E1ED97D0095F991BA01AEA08BDAC2F87C62782095B PUSH1 0x40 MLOAD DUP1 PUSH2 0x38F DUP6 DUP10 DUP10 DUP5 PUSH1 0x40 SWAP2 SWAP5 SWAP4 SWAP3 PUSH1 0x60 DUP3 ADD SWAP6 DUP3 MSTORE PUSH1 0x20 DUP3 ADD MSTORE ADD MSTORE JUMP JUMPDEST PUSH1 0x2 SLOAD SWAP2 SLOAD PUSH1 0x40 MLOAD PUSH4 0xA9059CBB PUSH1 0xE0 SHL DUP2 MSTORE SWAP1 DUP3 AND PUSH1 0x1 PUSH1 0x1 PUSH1 0xA0 SHL SUB AND PUSH1 0x4 DUP3 ADD MSTORE PUSH1 0x24 DUP2 ADD SWAP4 SWAP1 SWAP4 MSTORE DUP10 SWAP2 DUP4 SWAP2 AND DUP2 DUP6 DUP2 PUSH1 0x44 DUP2 ADD SUB SWAP3 GAS CALL SWAP2 DUP3 ISZERO PUSH2 0x1192 JUMPI SWAP2 PUSH2 0x2567 JUMPI JUMPDEST POP ISZERO PUSH2 0x252D JUMPI DUP6 DUP1 DUP1 DUP1 PUSH2 0x2484 JUMP JUMPDEST PUSH1 0x40 MLOAD PUSH3 0x461BCD PUSH1 0xE5 SHL DUP2 MSTORE PUSH1 0x4 DUP2 ADD DUP8 SWAP1 MSTORE PUSH1 0x12 PUSH1 0x24 DUP3 ADD MSTORE PUSH18 0x1B515512081C995D1D5C9B8819985A5B1959 PUSH1 0x72 SHL PUSH1 0x44 DUP3 ADD MSTORE PUSH1 0x64 SWAP1 REVERT JUMPDEST PUSH2 0x257E SWAP2 POP DUP8 RETURNDATASIZE DUP10 GT PUSH2 0x418 JUMPI PUSH2 0x409 DUP2 DUP4 PUSH2 0x2807 JUMP JUMPDEST CODESIZE PUSH2 0x251E JUMP JUMPDEST PUSH1 0x3 SLOAD DUP2 SLOAD PUSH1 0x40 MLOAD PUSH4 0xA9059CBB PUSH1 0xE0 SHL DUP2 MSTORE SWAP1 DUP5 AND PUSH1 0x1 PUSH1 0x1 PUSH1 0xA0 SHL SUB AND PUSH1 0x4 DUP3 ADD MSTORE PUSH1 0x24 DUP2 ADD DUP9 SWAP1 MSTORE SWAP1 DUP11 SWAP1 DUP3 SWAP1 DUP6 AND DUP2 DUP8 DUP2 PUSH1 0x44 DUP2 ADD SUB SWAP3 GAS CALL SWAP1 DUP2 ISZERO PUSH2 0xCD7 JUMPI DUP5 SWAP2 PUSH2 0x2618 JUMPI JUMPDEST POP PUSH2 0x2478 JUMPI PUSH1 0x40 MLOAD PUSH3 0x461BCD PUSH1 0xE5 SHL DUP2 MSTORE PUSH1 0x4 DUP2 ADD DUP11 SWAP1 MSTORE PUSH1 0x1A PUSH1 0x24 DUP3 ADD MSTORE PUSH32 0x55736572207969656C64207472616E73666572206661696C6564000000000000 PUSH1 0x44 DUP3 ADD MSTORE PUSH1 0x64 SWAP1 REVERT JUMPDEST PUSH2 0x262F SWAP2 POP DUP11 RETURNDATASIZE DUP13 GT PUSH2 0x418 JUMPI PUSH2 0x409 DUP2 DUP4 PUSH2 0x2807 JUMP JUMPDEST CODESIZE PUSH2 0x25CE JUMP JUMPDEST PUSH2 0x2471 SWAP3 SWAP10 POP PUSH2 0x2654 SWAP2 POP PUSH1 0x40 RETURNDATASIZE PUSH1 0x40 GT PUSH2 0x3DE JUMPI PUSH2 0x3D0 DUP2 DUP4 PUSH2 0x2807 JUMP JUMPDEST SWAP1 SWAP9 SWAP2 PUSH2 0x2464 JUMP JUMPDEST PUSH2 0x2672 SWAP1 DUP11 RETURNDATASIZE DUP13 GT PUSH2 0x418 JUMPI PUSH2 0x409 DUP2 DUP4 PUSH2 0x2807 JUMP JUMPDEST POP CODESIZE PUSH2 0x242D JUMP JUMPDEST PUSH1 0x40 MLOAD RETURNDATASIZE DUP11 DUP3 RETURNDATACOPY RETURNDATASIZE SWAP1 REVERT JUMPDEST PUSH1 0x3 SLOAD PUSH1 0x40 MLOAD PUSH4 0x95EA7B3 PUSH1 0xE0 SHL DUP2 MSTORE PUSH1 0x1 PUSH1 0x1 PUSH1 0xA0 SHL SUB SWAP3 SWAP1 SWAP3 AND PUSH1 0x4 DUP4 ADD MSTORE PUSH1 0x24 DUP3 ADD DUP10 SWAP1 MSTORE SWAP4 SWAP8 SWAP4 SWAP1 SWAP3 POP DUP3 SWAP1 PUSH1 0x44 SWAP1 DUP3 SWAP1 DUP12 SWAP1 DUP12 AND GAS CALL DUP1 ISZERO PUSH2 0x3E5 JUMPI SWAP2 PUSH1 0x40 SWAP2 DUP9 SWAP4 PUSH2 0x2742 JUMPI JUMPDEST POP PUSH1 0x44 DUP8 PUSH1 0x4 SLOAD AND SWAP2 DUP4 MLOAD SWAP10 DUP11 SWAP4 DUP5 SWAP3 PUSH4 0xD8AED145 PUSH1 0xE0 SHL DUP5 MSTORE DUP10 PUSH1 0x4 DUP6 ADD MSTORE PUSH1 0x24 DUP5 ADD MSTORE GAS CALL DUP1 ISZERO PUSH2 0x2735 JUMPI DUP2 SWAP7 DUP3 SWAP2 PUSH2 0x2710 JUMPI JUMPDEST POP SWAP6 SWAP5 DUP2 SWAP5 PUSH2 0x2478 JUMP JUMPDEST SWAP1 POP PUSH2 0x272C SWAP2 SWAP7 POP PUSH1 0x40 RETURNDATASIZE PUSH1 0x40 GT PUSH2 0x3DE JUMPI PUSH2 0x3D0 DUP2 DUP4 PUSH2 0x2807 JUMP JUMPDEST SWAP6 SWAP1 SWAP6 CODESIZE PUSH2 0x2706 JUMP JUMPDEST POP PUSH1 0x40 MLOAD SWAP1 RETURNDATASIZE SWAP1 DUP3 RETURNDATACOPY RETURNDATASIZE SWAP1 REVERT JUMPDEST PUSH2 0x2758 SWAP1 DUP11 RETURNDATASIZE DUP13 GT PUSH2 0x418 JUMPI PUSH2 0x409 DUP2 DUP4 PUSH2 0x2807 JUMP JUMPDEST POP CODESIZE PUSH2 0x26D0 JUMP JUMPDEST DUP3 DUP2 SWAP4 SWAP3 SWAP5 POP RETURNDATASIZE DUP4 GT PUSH2 0x278D JUMPI JUMPDEST PUSH2 0x2777 DUP2 DUP4 PUSH2 0x2807 JUMP JUMPDEST DUP2 ADD SUB SLT PUSH2 0x2789 JUMPI DUP9 SWAP1 MLOAD SWAP2 CODESIZE PUSH2 0x23D5 JUMP JUMPDEST DUP8 DUP1 REVERT JUMPDEST POP RETURNDATASIZE PUSH2 0x276D JUMP JUMPDEST PUSH1 0x40 SWAP1 PUSH1 0x3 NOT ADD SLT PUSH2 0x453 JUMPI PUSH1 0x4 CALLDATALOAD SWAP1 PUSH1 0x24 CALLDATALOAD SWAP1 JUMP JUMPDEST PUSH1 0x4 CALLDATALOAD SWAP1 PUSH1 0x1 PUSH1 0x1 PUSH1 0xA0 SHL SUB DUP3 AND DUP3 SUB PUSH2 0x453 JUMPI JUMP JUMPDEST PUSH8 0xFFFFFFFFFFFFFFFF DUP2 GT PUSH2 0x27D4 JUMPI PUSH1 0x40 MSTORE JUMP JUMPDEST PUSH4 0x4E487B71 PUSH1 0xE0 SHL PUSH1 0x0 MSTORE PUSH1 0x41 PUSH1 0x4 MSTORE PUSH1 0x24 PUSH1 0x0 REVERT JUMPDEST PUSH2 0x180 DUP2 ADD SWAP1 DUP2 LT PUSH8 0xFFFFFFFFFFFFFFFF DUP3 GT OR PUSH2 0x27D4 JUMPI PUSH1 0x40 MSTORE JUMP JUMPDEST SWAP1 PUSH1 0x1F DUP1 NOT SWAP2 ADD AND DUP2 ADD SWAP1 DUP2 LT PUSH8 0xFFFFFFFFFFFFFFFF DUP3 GT OR PUSH2 0x27D4 JUMPI PUSH1 0x40 MSTORE JUMP JUMPDEST PUSH8 0xFFFFFFFFFFFFFFFF DUP2 GT PUSH2 0x27D4 JUMPI PUSH1 0x1F ADD PUSH1 0x1F NOT AND PUSH1 0x20 ADD SWAP1 JUMP JUMPDEST SWAP1 PUSH1 0x1 DUP3 DUP2 SHR SWAP3 AND DUP1 ISZERO PUSH2 0x2875 JUMPI JUMPDEST PUSH1 0x20 DUP4 LT EQ PUSH2 0x285F JUMPI JUMP JUMPDEST PUSH4 0x4E487B71 PUSH1 0xE0 SHL PUSH1 0x0 MSTORE PUSH1 0x22 PUSH1 0x4 MSTORE PUSH1 0x24 PUSH1 0x0 REVERT JUMPDEST SWAP2 PUSH1 0x7F AND SWAP2 PUSH2 0x2854 JUMP JUMPDEST SWAP1 PUSH1 0x40 MLOAD SWAP2 DUP3 PUSH1 0x0 DUP3 SLOAD SWAP3 PUSH2 0x2893 DUP5 PUSH2 0x2845 JUMP JUMPDEST SWAP1 DUP2 DUP5 MSTORE PUSH1 0x1 SWAP5 DUP6 DUP2 AND SWAP1 DUP2 PUSH1 0x0 EQ PUSH2 0x2902 JUMPI POP PUSH1 0x1 EQ PUSH2 0x28BF JUMPI JUMPDEST POP POP PUSH2 0x28BD SWAP3 POP SUB DUP4 PUSH2 0x2807 JUMP JUMPDEST JUMP JUMPDEST SWAP1 SWAP4 SWAP2 POP PUSH1 0x0 MSTORE PUSH1 0x20 SWAP1 DUP2 PUSH1 0x0 KECCAK256 SWAP4 PUSH1 0x0 SWAP2 JUMPDEST DUP2 DUP4 LT PUSH2 0x28EA JUMPI POP POP PUSH2 0x28BD SWAP4 POP DUP3 ADD ADD CODESIZE DUP1 PUSH2 0x28AF JUMP JUMPDEST DUP6 SLOAD DUP9 DUP5 ADD DUP6 ADD MSTORE SWAP5 DUP6 ADD SWAP5 DUP8 SWAP5 POP SWAP2 DUP4 ADD SWAP2 PUSH2 0x28D2 JUMP JUMPDEST SWAP2 POP POP PUSH2 0x28BD SWAP5 POP PUSH1 0x20 SWAP3 POP PUSH1 0xFF NOT AND DUP3 DUP5 ADD MSTORE ISZERO ISZERO PUSH1 0x5 SHL DUP3 ADD ADD CODESIZE DUP1 PUSH2 0x28AF JUMP JUMPDEST SWAP2 SWAP1 DUP3 MLOAD SWAP3 DUP4 DUP3 MSTORE PUSH1 0x0 JUMPDEST DUP5 DUP2 LT PUSH2 0x2951 JUMPI POP POP DUP3 PUSH1 0x0 PUSH1 0x20 DUP1 SWAP5 SWAP6 DUP5 ADD ADD MSTORE PUSH1 0x1F DUP1 NOT SWAP2 ADD AND ADD ADD SWAP1 JUMP JUMPDEST PUSH1 0x20 DUP2 DUP4 ADD DUP2 ADD MLOAD DUP5 DUP4 ADD DUP3 ADD MSTORE ADD PUSH2 0x2930 JUMP JUMPDEST PUSH1 0x0 SLOAD PUSH1 0x1 PUSH1 0x1 PUSH1 0xA0 SHL SUB AND CALLER SUB PUSH2 0x2979 JUMPI JUMP JUMPDEST PUSH1 0x40 MLOAD PUSH4 0x118CDAA7 PUSH1 0xE0 SHL DUP2 MSTORE CALLER PUSH1 0x4 DUP3 ADD MSTORE PUSH1 0x24 SWAP1 REVERT JUMPDEST ISZERO PUSH2 0x2998 JUMPI JUMP JUMPDEST PUSH1 0x40 MLOAD PUSH3 0x461BCD PUSH1 0xE5 SHL DUP2 MSTORE PUSH1 0x20 PUSH1 0x4 DUP3 ADD MSTORE PUSH1 0xF PUSH1 0x24 DUP3 ADD MSTORE PUSH15 0x496E76616C69642061646472657373 PUSH1 0x88 SHL PUSH1 0x44 DUP3 ADD MSTORE PUSH1 0x64 SWAP1 REVERT JUMPDEST ISZERO PUSH2 0x29D6 JUMPI JUMP JUMPDEST PUSH1 0x40 MLOAD PUSH3 0x461BCD PUSH1 0xE5 SHL DUP2 MSTORE PUSH1 0x20 PUSH1 0x4 DUP3 ADD MSTORE PUSH1 0x12 PUSH1 0x24 DUP3 ADD MSTORE PUSH18 0x496E76616C6964206D455448207072696365 PUSH1 0x70 SHL PUSH1 0x44 DUP3 ADD MSTORE PUSH1 0x64 SWAP1 REVERT JUMPDEST DUP2 DUP2 MUL SWAP3 SWAP2 DUP2 ISZERO SWAP2 DUP5 DIV EQ OR ISZERO PUSH2 0x4CD JUMPI JUMP JUMPDEST DUP2 ISZERO PUSH2 0x2A2D JUMPI DIV SWAP1 JUMP JUMPDEST PUSH4 0x4E487B71 PUSH1 0xE0 SHL PUSH1 0x0 MSTORE PUSH1 0x12 PUSH1 0x4 MSTORE PUSH1 0x24 PUSH1 0x0 REVERT JUMPDEST SWAP1 DUP2 PUSH1 0x20 SWAP2 SUB SLT PUSH2 0x453 JUMPI MLOAD DUP1 ISZERO ISZERO DUP2 SUB PUSH2 0x453 JUMPI SWAP1 JUMP JUMPDEST ISZERO PUSH2 0x2A62 JUMPI JUMP JUMPDEST PUSH1 0x40 MLOAD PUSH3 0x461BCD PUSH1 0xE5 SHL DUP2 MSTORE PUSH1 0x20 PUSH1 0x4 DUP3 ADD MSTORE PUSH1 0x14 PUSH1 0x24 DUP3 ADD MSTORE PUSH20 0x1B515512081D1C985B9CD9995C8819985A5B1959 PUSH1 0x62 SHL PUSH1 0x44 DUP3 ADD MSTORE PUSH1 0x64 SWAP1 REVERT JUMPDEST PUSH1 0x2 PUSH1 0x1 SLOAD EQ PUSH2 0x2AAF JUMPI PUSH1 0x2 PUSH1 0x1 SSTORE JUMP JUMPDEST PUSH1 0x40 MLOAD PUSH4 0x3EE5AEB5 PUSH1 0xE0 SHL DUP2 MSTORE PUSH1 0x4 SWAP1 REVERT JUMPDEST ISZERO PUSH2 0x2AC8 JUMPI JUMP JUMPDEST PUSH1 0x40 MLOAD PUSH3 0x461BCD PUSH1 0xE5 SHL DUP2 MSTORE PUSH1 0x20 PUSH1 0x4 DUP3 ADD MSTORE PUSH1 0x13 PUSH1 0x24 DUP3 ADD MSTORE PUSH19 0x506F736974696F6E206E6F7420616374697665 PUSH1 0x68 SHL PUSH1 0x44 DUP3 ADD MSTORE PUSH1 0x64 SWAP1 REVERT JUMPDEST SWAP2 SWAP1 DUP3 PUSH1 0x40 SWAP2 SUB SLT PUSH2 0x453 JUMPI PUSH1 0x20 DUP3 MLOAD SWAP3 ADD MLOAD SWAP1 JUMP JUMPDEST SWAP2 SWAP1 DUP3 SUB SWAP2 DUP3 GT PUSH2 0x4CD JUMPI JUMP JUMPDEST SWAP2 SWAP1 DUP3 ADD DUP1 SWAP3 GT PUSH2 0x4CD JUMPI JUMP JUMPDEST RETURNDATASIZE ISZERO PUSH2 0x2B5E JUMPI RETURNDATASIZE SWAP1 PUSH2 0x2B44 DUP3 PUSH2 0x2829 JUMP JUMPDEST SWAP2 PUSH2 0x2B52 PUSH1 0x40 MLOAD SWAP4 DUP5 PUSH2 0x2807 JUMP JUMPDEST DUP3 MSTORE RETURNDATASIZE PUSH1 0x0 PUSH1 0x20 DUP5 ADD RETURNDATACOPY JUMP JUMPDEST PUSH1 0x60 SWAP1 JUMP JUMPDEST ISZERO PUSH2 0x2B6A JUMPI JUMP JUMPDEST PUSH1 0x40 MLOAD PUSH3 0x461BCD PUSH1 0xE5 SHL DUP2 MSTORE PUSH1 0x20 PUSH1 0x4 DUP3 ADD MSTORE PUSH1 0x17 PUSH1 0x24 DUP3 ADD MSTORE PUSH32 0x5969656C645661756C7420636C61696D206661696C6564000000000000000000 PUSH1 0x44 DUP3 ADD MSTORE PUSH1 0x64 SWAP1 REVERT JUMPDEST SWAP2 SWAP1 SWAP2 PUSH1 0x0 SWAP3 DUP2 DUP5 MSTORE PUSH1 0x20 SWAP2 PUSH1 0x8 DUP4 MSTORE PUSH1 0x40 DUP6 KECCAK256 SWAP2 PUSH1 0x40 MLOAD SWAP3 PUSH2 0x2BD1 DUP5 PUSH2 0x27EA JUMP JUMPDEST PUSH1 0x1 DUP1 PUSH1 0xA0 SHL SUB SWAP4 DUP5 DUP3 SLOAD AND DUP2 MSTORE PUSH1 0xA PUSH1 0x1 DUP4 ADD SLOAD SWAP3 DUP8 DUP4 ADD SWAP4 DUP5 MSTORE PUSH1 0x2 DUP2 ADD SLOAD PUSH1 0x40 DUP5 ADD MSTORE DUP7 PUSH1 0x3 DUP3 ADD SLOAD AND PUSH1 0x60 DUP5 ADD MSTORE PUSH1 0x4 DUP2 ADD SLOAD PUSH1 0x80 DUP5 ADD MSTORE PUSH2 0x2C19 PUSH1 0x5 DUP3 ADD PUSH2 0x287F JUMP JUMPDEST PUSH1 0xA0 DUP5 ADD MSTORE PUSH1 0x6 DUP2 ADD SLOAD PUSH1 0xC0 DUP5 ADD MSTORE PUSH1 0x7 DUP2 ADD SLOAD PUSH1 0xE0 DUP5 ADD MSTORE PUSH1 0x8 DUP2 ADD SLOAD PUSH2 0x100 DUP5 ADD MSTORE PUSH1 0x9 DUP2 ADD SLOAD PUSH2 0x120 DUP5 ADD MSTORE ADD SLOAD SWAP1 PUSH2 0x160 PUSH1 0xFF DUP1 DUP5 AND ISZERO SWAP4 DUP5 ISZERO PUSH2 0x140 DUP6 ADD MSTORE PUSH1 0x8 SHR AND ISZERO ISZERO SWAP2 ADD MSTORE PUSH2 0x2D21 JUMPI PUSH2 0x2C8F DUP3 PUSH13 0xC9F2C9CD04674EDEA40000000 SWAP3 PUSH2 0x2C89 DUP9 SWAP6 ISZERO ISZERO PUSH2 0x29CF JUMP JUMPDEST MLOAD PUSH2 0x2A10 JUMP JUMPDEST DIV SWAP3 PUSH1 0x4 SLOAD AND SWAP2 PUSH1 0x24 PUSH1 0x40 MLOAD DUP1 SWAP5 DUP2 SWAP4 PUSH4 0xD5595157 PUSH1 0xE0 SHL DUP4 MSTORE PUSH1 0x4 DUP4 ADD MSTORE GAS STATICCALL SWAP3 DUP4 ISZERO PUSH2 0x551 JUMPI DUP6 SWAP4 PUSH2 0x2CF1 JUMPI JUMPDEST POP POP DUP2 ISZERO PUSH2 0x2CE8 JUMPI PUSH2 0x2710 SWAP1 DUP2 DUP2 MUL SWAP2 DUP2 DUP4 DIV EQ SWAP1 ISZERO OR ISZERO PUSH2 0x1EA8 JUMPI PUSH2 0x2CE5 SWAP3 SWAP4 POP PUSH2 0x2A23 JUMP JUMPDEST SWAP1 JUMP JUMPDEST POP PUSH1 0x0 NOT SWAP3 POP POP JUMP JUMPDEST SWAP1 DUP1 SWAP3 SWAP4 POP DUP2 RETURNDATASIZE DUP4 GT PUSH2 0x2D1A JUMPI JUMPDEST PUSH2 0x2D09 DUP2 DUP4 PUSH2 0x2807 JUMP JUMPDEST DUP2 ADD SUB SLT PUSH2 0x18D9 JUMPI MLOAD SWAP1 CODESIZE DUP1 PUSH2 0x2CBE JUMP JUMPDEST POP RETURNDATASIZE PUSH2 0x2CFF JUMP JUMPDEST POP POP POP POP POP JUMP INVALID LOG2 PUSH5 0x6970667358 0x22 SLT KECCAK256 DUP3 0x1F ISZERO EQ SWAP4 SWAP3 SWAP4 DUP15 PUSH20 0x7703B29705A223B6159ECA3403C7CAEBE986C5F6 DIV CALLDATALOAD 0xEC PUSH5 0x736F6C6343 STOP ADDMOD EQ STOP CALLER "},"methodIdentifiers":{"BASIS_POINTS()":"e1f1c4a7","INITIAL_LTV()":"5cacf422","LIQUIDATION_FEE_BPS()":"518e8dfc","LIQUIDATION_THRESHOLD()":"90a8ae9b","addCollateral(uint256,uint256)":"a8f35adf","claimYieldFromBurn(uint256,address,address,uint256)":"975d6dfb","createPosition(address,uint256,uint256,address,uint256,string,bytes32,uint256)":"8482c795","fluxionIntegration()":"505aa212","getHealthFactor(uint256,uint256)":"4d2c872a","getPosition(uint256)":"eb02c301","harvestYield(uint256,uint256)":"ffc0d233","liquidatePosition(uint256,uint256)":"d3c4e4a6","mETH()":"29e84867","nextPositionId()":"899346c7","owner()":"8da5cb5b","positions(uint256)":"99fbab88","primaryMarket()":"1e77ceda","processSettlement(uint256,uint256)":"0381b4dd","renounceOwnership()":"715018a6","seniorPool()":"f416fc1c","setPrimaryMarket(address)":"e2dc3666","setYieldVault(address)":"137c3f69","settleLiquidation(uint256)":"837c2a61","transferOwnership(address)":"f2fde38b","usdc()":"3e413bee","yieldVault()":"a7f8a5e2"}}}}}