{"contracts/core/RWAToken.sol":{"RWAToken":{"abi":[{"inputs":[{"internalType":"bytes32","name":"_assetId","type":"bytes32"},{"internalType":"address","name":"_compliance","type":"address"},{"internalType":"address","name":"_identityRegistry","type":"address"},{"internalType":"uint256","name":"_totalSupply","type":"uint256"},{"internalType":"address","name":"_platformCustody","type":"address"},{"internalType":"string","name":"_name","type":"string"},{"internalType":"string","name":"_symbol","type":"string"},{"internalType":"address","name":"_issuer","type":"address"}],"stateMutability":"nonpayable","type":"constructor"},{"inputs":[{"internalType":"address","name":"spender","type":"address"},{"internalType":"uint256","name":"allowance","type":"uint256"},{"internalType":"uint256","name":"needed","type":"uint256"}],"name":"ERC20InsufficientAllowance","type":"error"},{"inputs":[{"internalType":"address","name":"sender","type":"address"},{"internalType":"uint256","name":"balance","type":"uint256"},{"internalType":"uint256","name":"needed","type":"uint256"}],"name":"ERC20InsufficientBalance","type":"error"},{"inputs":[{"internalType":"address","name":"approver","type":"address"}],"name":"ERC20InvalidApprover","type":"error"},{"inputs":[{"internalType":"address","name":"receiver","type":"address"}],"name":"ERC20InvalidReceiver","type":"error"},{"inputs":[{"internalType":"address","name":"sender","type":"address"}],"name":"ERC20InvalidSender","type":"error"},{"inputs":[{"internalType":"address","name":"spender","type":"address"}],"name":"ERC20InvalidSpender","type":"error"},{"anonymous":false,"inputs":[{"indexed":true,"internalType":"address","name":"owner","type":"address"},{"indexed":true,"internalType":"address","name":"spender","type":"address"},{"indexed":false,"internalType":"uint256","name":"value","type":"uint256"}],"name":"Approval","type":"event"},{"anonymous":false,"inputs":[{"indexed":true,"internalType":"address","name":"from","type":"address"},{"indexed":true,"internalType":"address","name":"to","type":"address"},{"indexed":false,"internalType":"uint256","name":"value","type":"uint256"}],"name":"Transfer","type":"event"},{"inputs":[{"internalType":"address","name":"owner","type":"address"},{"internalType":"address","name":"spender","type":"address"}],"name":"allowance","outputs":[{"internalType":"uint256","name":"","type":"uint256"}],"stateMutability":"view","type":"function"},{"inputs":[{"internalType":"address","name":"spender","type":"address"},{"internalType":"uint256","name":"value","type":"uint256"}],"name":"approve","outputs":[{"internalType":"bool","name":"","type":"bool"}],"stateMutability":"nonpayable","type":"function"},{"inputs":[],"name":"assetId","outputs":[{"internalType":"bytes32","name":"","type":"bytes32"}],"stateMutability":"view","type":"function"},{"inputs":[{"internalType":"address","name":"account","type":"address"}],"name":"balanceOf","outputs":[{"internalType":"uint256","name":"","type":"uint256"}],"stateMutability":"view","type":"function"},{"inputs":[{"internalType":"uint256","name":"value","type":"uint256"}],"name":"burn","outputs":[],"stateMutability":"nonpayable","type":"function"},{"inputs":[{"internalType":"address","name":"account","type":"address"},{"internalType":"uint256","name":"value","type":"uint256"}],"name":"burnFrom","outputs":[],"stateMutability":"nonpayable","type":"function"},{"inputs":[],"name":"compliance","outputs":[{"internalType":"contract ComplianceModule","name":"","type":"address"}],"stateMutability":"view","type":"function"},{"inputs":[],"name":"decimals","outputs":[{"internalType":"uint8","name":"","type":"uint8"}],"stateMutability":"view","type":"function"},{"inputs":[{"internalType":"address","name":"from","type":"address"},{"internalType":"address","name":"to","type":"address"},{"internalType":"uint256","name":"amount","type":"uint256"}],"name":"forcedTransfer","outputs":[],"stateMutability":"nonpayable","type":"function"},{"inputs":[],"name":"identityRegistry","outputs":[{"internalType":"address","name":"","type":"address"}],"stateMutability":"view","type":"function"},{"inputs":[],"name":"issuer","outputs":[{"internalType":"address","name":"","type":"address"}],"stateMutability":"view","type":"function"},{"inputs":[],"name":"name","outputs":[{"internalType":"string","name":"","type":"string"}],"stateMutability":"view","type":"function"},{"inputs":[],"name":"owner","outputs":[{"internalType":"address","name":"","type":"address"}],"stateMutability":"view","type":"function"},{"inputs":[],"name":"paused","outputs":[{"internalType":"bool","name":"","type":"bool"}],"stateMutability":"view","type":"function"},{"inputs":[{"internalType":"address","name":"_compliance","type":"address"}],"name":"setCompliance","outputs":[],"stateMutability":"nonpayable","type":"function"},{"inputs":[{"internalType":"bool","name":"_paused","type":"bool"}],"name":"setPaused","outputs":[],"stateMutability":"nonpayable","type":"function"},{"inputs":[],"name":"symbol","outputs":[{"internalType":"string","name":"","type":"string"}],"stateMutability":"view","type":"function"},{"inputs":[],"name":"totalSupply","outputs":[{"internalType":"uint256","name":"","type":"uint256"}],"stateMutability":"view","type":"function"},{"inputs":[{"internalType":"address","name":"to","type":"address"},{"internalType":"uint256","name":"value","type":"uint256"}],"name":"transfer","outputs":[{"internalType":"bool","name":"","type":"bool"}],"stateMutability":"nonpayable","type":"function"},{"inputs":[{"internalType":"address","name":"from","type":"address"},{"internalType":"address","name":"to","type":"address"},{"internalType":"uint256","name":"value","type":"uint256"}],"name":"transferFrom","outputs":[{"internalType":"bool","name":"","type":"bool"}],"stateMutability":"nonpayable","type":"function"}],"evm":{"bytecode":{"linkReferences":{},"object":"6080604090808252346200055d576200123c803803809162000022828562000562565b8339810190610100818303126200055d578051916020916200004683820162000586565b916200005486830162000586565b90606083015193620000696080850162000586565b60a08501516001600160401b0392908381116200055d57846200008e9188016200059b565b9360c0870151908482116200055d57620000b160e091620000b9938a016200059b565b970162000586565b9284518181116200044c5760039081546001978882811c9216801562000552575b8d8310146200053c578c82601f859411620004e1575b50508c90601f83116001146200046e5760009262000462575b505060001982841b1c191690871b1781555b87519182116200044c5760049788548781811c9116801562000441575b8c8210146200042c579081601f85949311620003d2575b508b90601f841160011462000367576000936200035b575b505082871b92600019911b1c19161786555b60018060a01b03199033826009541617998a60095560055560018060a01b03938480809316978885600654161760065516836007541617600755169060085416176008551695861562000344579060ff869260a01c161590816200033a575b8162000331575b5062000258575b50506002549082820180921162000243575060025560008381528083528481208054830190558451918252917fddf252ad1be2c89b69c2b068fc378daa952ba7f163c4a11628f55a4df523b3ef91a351610c299081620006138239f35b601190634e487b7160e01b6000525260246000fd5b6064918751928380926372331c7360e11b82526000878301528960248301528760448301525afa9081156200032657600091620002e2575b50156200029f573883620001e6565b845162461bcd60e51b8152908101839052601760248201527f436f6d706c69616e636520636865636b206661696c65640000000000000000006044820152606490fd5b8481813d83116200031e575b620002fa818362000562565b810103126200031a57519081151582036200031757503862000290565b80fd5b5080fd5b503d620002ee565b86513d6000823e3d90fd5b905038620001df565b60009150620001d8565b875163ec442f0560e01b8152600081860152602490fd5b01519150388062000167565b60008b81528d81208a965093929190601f198616908f5b828210620003ba57505085116200039f575b50505050811b01865562000179565b01519060f884600019921b161c191690553880808062000390565b8385015187558c989096019593840193018f6200037e565b90919250896000528b600020601f850160051c8101918d861062000421575b8594939291601f8b920160051c01915b828110620004115750506200014f565b600081558695508a910162000401565b9091508190620003f1565b60228a634e487b7160e01b6000525260246000fd5b90607f169062000138565b634e487b7160e01b600052604160045260246000fd5b01519050388062000109565b899350908d918560005282600020926000601f198616915b828210620004bf5750508411620004a6575b505050811b0181556200011b565b015160001983861b60f8161c1916905538808062000498565b91929395968291958786015181550195019301908f918c969594939262000486565b90919250846000528160002090601f850160051c820192851062000531575b84939291601f8c920160051c01915b8281106200052157508e9150620000f0565b600081558594508b91016200050f565b909150819062000500565b634e487b7160e01b600052602260045260246000fd5b91607f1691620000da565b600080fd5b601f909101601f19168101906001600160401b038211908210176200044c57604052565b51906001600160a01b03821682036200055d57565b919080601f840112156200055d578251906001600160401b0382116200044c5760405191602091620005d7601f8301601f191684018562000562565b8184528282870101116200055d5760005b818110620005fe57508260009394955001015290565b8581018301518482018401528201620005e856fe60806040908082526004918236101561001757600080fd5b600092833560e01c92836306fdde03146105de57508263095ea7b31461052f578263134e18f41461050657826316c38b3c146104b457826318160ddd146104955782631d1438481461046c57826323b872dd1461044a578263313ce5671461042e57826342966c681461041057826344de240a146103f15782635c975abb146103ca5782636290865d146103a157826370a082311461036a57826379cc67901461033a5782638da5cb5b1461031157826395d89b411461020e575081639fc1d0e7146101de578163a9059cbb146101ad578163dd62ed3e14610155575063f89817891461010357600080fd5b346101525760203660031901126101525761011c61071b565b6009546001600160a01b0391906101369083163314610bba565b166bffffffffffffffffffffffff60a01b600654161760065580f35b80fd5b9050346101a957806003193601126101a95761016f61071b565b6001600160a01b0360243581811692908390036101a5579160209491849316825260018552828220908252845220549051908152f35b8480fd5b5080fd5b9050346101a957806003193601126101a9576020906101d76101cd61071b565b60243590336107a3565b5160018152f35b82346101525761020b6101f036610736565b9161020660018060a01b03600954163314610bba565b6107a3565b80f35b8382346101a957816003193601126101a957805191809380549160019083821c92828516948515610307575b60209586861081146102f4578589529081156102d05750600114610278575b610274878761026a828c038361076b565b51918291826106d2565b0390f35b81529295507f8a35acfbc15ff81a39ae7d344fd709f28e8600b4aa8c65c6b64bfe7fe36bd19b5b8284106102bd57505050826102749461026a92820101948680610259565b805486850188015292860192810161029f565b60ff19168887015250505050151560051b830101925061026a826102748680610259565b634e487b7160e01b845260228352602484fd5b93607f169361023a565b8382346101a957816003193601126101a95760095490516001600160a01b039091168152602090f35b8382346101a9573660031901126101525761020b61035661071b565b60243590610365823383610985565b610a58565b8382346101a95760203660031901126101a95760209181906001600160a01b0361039261071b565b16815280845220549051908152f35b8382346101a957816003193601126101a95760065490516001600160a01b039091168152602090f35b8382346101a957816003193601126101a95760209060ff60095460a01c1690519015158152f35b8382346101a957816003193601126101a9576020906005549051908152f35b8390346101a95760203660031901126101a95761020b903533610a58565b8382346101a957816003193601126101a9576020905160128152f35b8382346101a9576020906101d761046036610736565b91610206833383610985565b8382346101a957816003193601126101a95760085490516001600160a01b039091168152602090f35b8382346101a957816003193601126101a9576020906002549051908152f35b8390346101a95760203660031901126101a957358015158091036101a957600954906104ea336001600160a01b03841614610bba565b60ff60a01b1990911660a09190911b60ff60a01b161760095580f35b8382346101a957816003193601126101a95760075490516001600160a01b039091168152602090f35b909150346105da57816003193601126105da5761054a61071b565b6024359033156105c3576001600160a01b03169182156105ac57508083602095338152600187528181208582528752205582519081527f8c5be1e5ebec7d5bd14f71427d1e84f3dd0314c0f7b2291e5b200ac8c7c3b925843392a35160018152f35b8351634a1406b160e11b8152908101859052602490fd5b835163e602df0560e01b8152808401869052602490fd5b8280fd5b9250346106ce57836003193601126106ce57600354600181811c91869082811680156106c4575b60209586861082146106b1575084885290811561068f5750600114610636575b610274868661026a828b038361076b565b929550600383527fc2575a0e9e593c00f959f8c92f12db2869c3395a3b0502d05e2516446f71f85b5b82841061067c57505050826102749461026a928201019438610625565b805486850188015292860192810161065f565b60ff191687860152505050151560051b830101925061026a8261027438610625565b634e487b7160e01b845260229052602483fd5b93607f1693610605565b8380fd5b6020808252825181830181905290939260005b82811061070757505060409293506000838284010152601f8019910116010190565b8181018601518482016040015285016106e5565b600435906001600160a01b038216820361073157565b600080fd5b6060906003190112610731576001600160a01b0390600435828116810361073157916024359081168103610731579060443590565b90601f8019910116810190811067ffffffffffffffff82111761078d57604052565b634e487b7160e01b600052604160045260246000fd5b6001600160a01b039283821692909190831561096c5784169384156109535760ff60095460a01c16158061094b575b80610943575b61086f575b506000908382528160205260408220549083821061083d575091604082827fddf252ad1be2c89b69c2b068fc378daa952ba7f163c4a11628f55a4df523b3ef958760209652828652038282205586815220818154019055604051908152a3565b60405163391434e360e21b81526001600160a01b03919091166004820152602481019190915260448101839052606490fd5b602060649160065416604051928380926372331c7360e11b82528860048301528960248301528760448301525afa908115610937576000916108fd575b50156108b857386107dd565b60405162461bcd60e51b815260206004820152601760248201527f436f6d706c69616e636520636865636b206661696c65640000000000000000006044820152606490fd5b6020813d821161092f575b816109156020938361076b565b810103126101a957519081151582036101525750386108ac565b3d9150610908565b6040513d6000823e3d90fd5b5060016107d8565b5060016107d2565b60405163ec442f0560e01b815260006004820152602490fd5b604051634b637e8f60e11b815260006004820152602490fd5b9160018060a01b0380931691600093838552600160205260409384862091831691828752602052848620549260001984106109c4575b50505050505050565b848410610a2857508015610a105781156109f8578552600160205283852090855260205203912055388080808080806109bb565b8451634a1406b160e11b815260048101879052602490fd5b845163e602df0560e01b815260048101879052602490fd5b8551637dc7a0d960e11b81526001600160a01b039190911660048201526024810184905260448101859052606490fd5b906001600160a01b038083169190821561096c5760ff60095460a01c161580610bb2575b80610baa575b610b15575b5060009282845283602052604084205490828210610ae35750817fddf252ad1be2c89b69c2b068fc378daa952ba7f163c4a11628f55a4df523b3ef926020928587528684520360408620558060025403600255604051908152a3565b60405163391434e360e21b81526001600160a01b03919091166004820152602481019190915260448101829052606490fd5b60065416604051906372331c7360e11b82528360048301526020826064816000948560248301528760448301525afa918215610b9d578192610b5f575b5050156108b85738610a87565b9091506020813d8211610b95575b81610b7a6020938361076b565b810103126101a9575190811515820361015257503880610b52565b3d9150610b6d565b50604051903d90823e3d90fd5b506000610a82565b506001610a7c565b15610bc157565b60405162461bcd60e51b815260206004820152600a60248201526927b7363c9037bbb732b960b11b6044820152606490fdfea2646970667358221220be61a703afae33e659173d2ef496d240f2c51d738b5f2f54ede1098d3e8c1f3d64736f6c63430008140033","opcodes":"PUSH1 0x80 PUSH1 0x40 SWAP1 DUP1 DUP3 MSTORE CALLVALUE PUSH3 0x55D JUMPI PUSH3 0x123C DUP1 CODESIZE SUB DUP1 SWAP2 PUSH3 0x22 DUP3 DUP6 PUSH3 0x562 JUMP JUMPDEST DUP4 CODECOPY DUP2 ADD SWAP1 PUSH2 0x100 DUP2 DUP4 SUB SLT PUSH3 0x55D JUMPI DUP1 MLOAD SWAP2 PUSH1 0x20 SWAP2 PUSH3 0x46 DUP4 DUP3 ADD PUSH3 0x586 JUMP JUMPDEST SWAP2 PUSH3 0x54 DUP7 DUP4 ADD PUSH3 0x586 JUMP JUMPDEST SWAP1 PUSH1 0x60 DUP4 ADD MLOAD SWAP4 PUSH3 0x69 PUSH1 0x80 DUP6 ADD PUSH3 0x586 JUMP JUMPDEST PUSH1 0xA0 DUP6 ADD MLOAD PUSH1 0x1 PUSH1 0x1 PUSH1 0x40 SHL SUB SWAP3 SWAP1 DUP4 DUP2 GT PUSH3 0x55D JUMPI DUP5 PUSH3 0x8E SWAP2 DUP9 ADD PUSH3 0x59B JUMP JUMPDEST SWAP4 PUSH1 0xC0 DUP8 ADD MLOAD SWAP1 DUP5 DUP3 GT PUSH3 0x55D JUMPI PUSH3 0xB1 PUSH1 0xE0 SWAP2 PUSH3 0xB9 SWAP4 DUP11 ADD PUSH3 0x59B JUMP JUMPDEST SWAP8 ADD PUSH3 0x586 JUMP JUMPDEST SWAP3 DUP5 MLOAD DUP2 DUP2 GT PUSH3 0x44C JUMPI PUSH1 0x3 SWAP1 DUP2 SLOAD PUSH1 0x1 SWAP8 DUP9 DUP3 DUP2 SHR SWAP3 AND DUP1 ISZERO PUSH3 0x552 JUMPI JUMPDEST DUP14 DUP4 LT EQ PUSH3 0x53C JUMPI DUP13 DUP3 PUSH1 0x1F DUP6 SWAP5 GT PUSH3 0x4E1 JUMPI JUMPDEST POP POP DUP13 SWAP1 PUSH1 0x1F DUP4 GT PUSH1 0x1 EQ PUSH3 0x46E JUMPI PUSH1 0x0 SWAP3 PUSH3 0x462 JUMPI JUMPDEST POP POP PUSH1 0x0 NOT DUP3 DUP5 SHL SHR NOT AND SWAP1 DUP8 SHL OR DUP2 SSTORE JUMPDEST DUP8 MLOAD SWAP2 DUP3 GT PUSH3 0x44C JUMPI PUSH1 0x4 SWAP8 DUP9 SLOAD DUP8 DUP2 DUP2 SHR SWAP2 AND DUP1 ISZERO PUSH3 0x441 JUMPI JUMPDEST DUP13 DUP3 LT EQ PUSH3 0x42C JUMPI SWAP1 DUP2 PUSH1 0x1F DUP6 SWAP5 SWAP4 GT PUSH3 0x3D2 JUMPI JUMPDEST POP DUP12 SWAP1 PUSH1 0x1F DUP5 GT PUSH1 0x1 EQ PUSH3 0x367 JUMPI PUSH1 0x0 SWAP4 PUSH3 0x35B JUMPI JUMPDEST POP POP DUP3 DUP8 SHL SWAP3 PUSH1 0x0 NOT SWAP2 SHL SHR NOT AND OR DUP7 SSTORE JUMPDEST PUSH1 0x1 DUP1 PUSH1 0xA0 SHL SUB NOT SWAP1 CALLER DUP3 PUSH1 0x9 SLOAD AND OR SWAP10 DUP11 PUSH1 0x9 SSTORE PUSH1 0x5 SSTORE PUSH1 0x1 DUP1 PUSH1 0xA0 SHL SUB SWAP4 DUP5 DUP1 DUP1 SWAP4 AND SWAP8 DUP9 DUP6 PUSH1 0x6 SLOAD AND OR PUSH1 0x6 SSTORE AND DUP4 PUSH1 0x7 SLOAD AND OR PUSH1 0x7 SSTORE AND SWAP1 PUSH1 0x8 SLOAD AND OR PUSH1 0x8 SSTORE AND SWAP6 DUP7 ISZERO PUSH3 0x344 JUMPI SWAP1 PUSH1 0xFF DUP7 SWAP3 PUSH1 0xA0 SHR AND ISZERO SWAP1 DUP2 PUSH3 0x33A JUMPI JUMPDEST DUP2 PUSH3 0x331 JUMPI JUMPDEST POP PUSH3 0x258 JUMPI JUMPDEST POP POP PUSH1 0x2 SLOAD SWAP1 DUP3 DUP3 ADD DUP1 SWAP3 GT PUSH3 0x243 JUMPI POP PUSH1 0x2 SSTORE PUSH1 0x0 DUP4 DUP2 MSTORE DUP1 DUP4 MSTORE DUP5 DUP2 KECCAK256 DUP1 SLOAD DUP4 ADD SWAP1 SSTORE DUP5 MLOAD SWAP2 DUP3 MSTORE SWAP2 PUSH32 0xDDF252AD1BE2C89B69C2B068FC378DAA952BA7F163C4A11628F55A4DF523B3EF SWAP2 LOG3 MLOAD PUSH2 0xC29 SWAP1 DUP2 PUSH3 0x613 DUP3 CODECOPY RETURN JUMPDEST PUSH1 0x11 SWAP1 PUSH4 0x4E487B71 PUSH1 0xE0 SHL PUSH1 0x0 MSTORE MSTORE PUSH1 0x24 PUSH1 0x0 REVERT JUMPDEST PUSH1 0x64 SWAP2 DUP8 MLOAD SWAP3 DUP4 DUP1 SWAP3 PUSH4 0x72331C73 PUSH1 0xE1 SHL DUP3 MSTORE PUSH1 0x0 DUP8 DUP4 ADD MSTORE DUP10 PUSH1 0x24 DUP4 ADD MSTORE DUP8 PUSH1 0x44 DUP4 ADD MSTORE GAS STATICCALL SWAP1 DUP2 ISZERO PUSH3 0x326 JUMPI PUSH1 0x0 SWAP2 PUSH3 0x2E2 JUMPI JUMPDEST POP ISZERO PUSH3 0x29F JUMPI CODESIZE DUP4 PUSH3 0x1E6 JUMP JUMPDEST DUP5 MLOAD PUSH3 0x461BCD PUSH1 0xE5 SHL DUP2 MSTORE SWAP1 DUP2 ADD DUP4 SWAP1 MSTORE PUSH1 0x17 PUSH1 0x24 DUP3 ADD MSTORE PUSH32 0x436F6D706C69616E636520636865636B206661696C6564000000000000000000 PUSH1 0x44 DUP3 ADD MSTORE PUSH1 0x64 SWAP1 REVERT JUMPDEST DUP5 DUP2 DUP2 RETURNDATASIZE DUP4 GT PUSH3 0x31E JUMPI JUMPDEST PUSH3 0x2FA DUP2 DUP4 PUSH3 0x562 JUMP JUMPDEST DUP2 ADD SUB SLT PUSH3 0x31A JUMPI MLOAD SWAP1 DUP2 ISZERO ISZERO DUP3 SUB PUSH3 0x317 JUMPI POP CODESIZE PUSH3 0x290 JUMP JUMPDEST DUP1 REVERT JUMPDEST POP DUP1 REVERT JUMPDEST POP RETURNDATASIZE PUSH3 0x2EE JUMP JUMPDEST DUP7 MLOAD RETURNDATASIZE PUSH1 0x0 DUP3 RETURNDATACOPY RETURNDATASIZE SWAP1 REVERT JUMPDEST SWAP1 POP CODESIZE PUSH3 0x1DF JUMP JUMPDEST PUSH1 0x0 SWAP2 POP PUSH3 0x1D8 JUMP JUMPDEST DUP8 MLOAD PUSH4 0xEC442F05 PUSH1 0xE0 SHL DUP2 MSTORE PUSH1 0x0 DUP2 DUP7 ADD MSTORE PUSH1 0x24 SWAP1 REVERT JUMPDEST ADD MLOAD SWAP2 POP CODESIZE DUP1 PUSH3 0x167 JUMP JUMPDEST PUSH1 0x0 DUP12 DUP2 MSTORE DUP14 DUP2 KECCAK256 DUP11 SWAP7 POP SWAP4 SWAP3 SWAP2 SWAP1 PUSH1 0x1F NOT DUP7 AND SWAP1 DUP16 JUMPDEST DUP3 DUP3 LT PUSH3 0x3BA JUMPI POP POP DUP6 GT PUSH3 0x39F JUMPI JUMPDEST POP POP POP POP DUP2 SHL ADD DUP7 SSTORE PUSH3 0x179 JUMP JUMPDEST ADD MLOAD SWAP1 PUSH1 0xF8 DUP5 PUSH1 0x0 NOT SWAP3 SHL AND SHR NOT AND SWAP1 SSTORE CODESIZE DUP1 DUP1 DUP1 PUSH3 0x390 JUMP JUMPDEST DUP4 DUP6 ADD MLOAD DUP8 SSTORE DUP13 SWAP9 SWAP1 SWAP7 ADD SWAP6 SWAP4 DUP5 ADD SWAP4 ADD DUP16 PUSH3 0x37E JUMP JUMPDEST SWAP1 SWAP2 SWAP3 POP DUP10 PUSH1 0x0 MSTORE DUP12 PUSH1 0x0 KECCAK256 PUSH1 0x1F DUP6 ADD PUSH1 0x5 SHR DUP2 ADD SWAP2 DUP14 DUP7 LT PUSH3 0x421 JUMPI JUMPDEST DUP6 SWAP5 SWAP4 SWAP3 SWAP2 PUSH1 0x1F DUP12 SWAP3 ADD PUSH1 0x5 SHR ADD SWAP2 JUMPDEST DUP3 DUP2 LT PUSH3 0x411 JUMPI POP POP PUSH3 0x14F JUMP JUMPDEST PUSH1 0x0 DUP2 SSTORE DUP7 SWAP6 POP DUP11 SWAP2 ADD PUSH3 0x401 JUMP JUMPDEST SWAP1 SWAP2 POP DUP2 SWAP1 PUSH3 0x3F1 JUMP JUMPDEST PUSH1 0x22 DUP11 PUSH4 0x4E487B71 PUSH1 0xE0 SHL PUSH1 0x0 MSTORE MSTORE PUSH1 0x24 PUSH1 0x0 REVERT JUMPDEST SWAP1 PUSH1 0x7F AND SWAP1 PUSH3 0x138 JUMP JUMPDEST PUSH4 0x4E487B71 PUSH1 0xE0 SHL PUSH1 0x0 MSTORE PUSH1 0x41 PUSH1 0x4 MSTORE PUSH1 0x24 PUSH1 0x0 REVERT JUMPDEST ADD MLOAD SWAP1 POP CODESIZE DUP1 PUSH3 0x109 JUMP JUMPDEST DUP10 SWAP4 POP SWAP1 DUP14 SWAP2 DUP6 PUSH1 0x0 MSTORE DUP3 PUSH1 0x0 KECCAK256 SWAP3 PUSH1 0x0 PUSH1 0x1F NOT DUP7 AND SWAP2 JUMPDEST DUP3 DUP3 LT PUSH3 0x4BF JUMPI POP POP DUP5 GT PUSH3 0x4A6 JUMPI JUMPDEST POP POP POP DUP2 SHL ADD DUP2 SSTORE PUSH3 0x11B JUMP JUMPDEST ADD MLOAD PUSH1 0x0 NOT DUP4 DUP7 SHL PUSH1 0xF8 AND SHR NOT AND SWAP1 SSTORE CODESIZE DUP1 DUP1 PUSH3 0x498 JUMP JUMPDEST SWAP2 SWAP3 SWAP4 SWAP6 SWAP7 DUP3 SWAP2 SWAP6 DUP8 DUP7 ADD MLOAD DUP2 SSTORE ADD SWAP6 ADD SWAP4 ADD SWAP1 DUP16 SWAP2 DUP13 SWAP7 SWAP6 SWAP5 SWAP4 SWAP3 PUSH3 0x486 JUMP JUMPDEST SWAP1 SWAP2 SWAP3 POP DUP5 PUSH1 0x0 MSTORE DUP2 PUSH1 0x0 KECCAK256 SWAP1 PUSH1 0x1F DUP6 ADD PUSH1 0x5 SHR DUP3 ADD SWAP3 DUP6 LT PUSH3 0x531 JUMPI JUMPDEST DUP5 SWAP4 SWAP3 SWAP2 PUSH1 0x1F DUP13 SWAP3 ADD PUSH1 0x5 SHR ADD SWAP2 JUMPDEST DUP3 DUP2 LT PUSH3 0x521 JUMPI POP DUP15 SWAP2 POP PUSH3 0xF0 JUMP JUMPDEST PUSH1 0x0 DUP2 SSTORE DUP6 SWAP5 POP DUP12 SWAP2 ADD PUSH3 0x50F JUMP JUMPDEST SWAP1 SWAP2 POP DUP2 SWAP1 PUSH3 0x500 JUMP JUMPDEST PUSH4 0x4E487B71 PUSH1 0xE0 SHL PUSH1 0x0 MSTORE PUSH1 0x22 PUSH1 0x4 MSTORE PUSH1 0x24 PUSH1 0x0 REVERT JUMPDEST SWAP2 PUSH1 0x7F AND SWAP2 PUSH3 0xDA JUMP JUMPDEST PUSH1 0x0 DUP1 REVERT JUMPDEST PUSH1 0x1F SWAP1 SWAP2 ADD PUSH1 0x1F NOT AND DUP2 ADD SWAP1 PUSH1 0x1 PUSH1 0x1 PUSH1 0x40 SHL SUB DUP3 GT SWAP1 DUP3 LT OR PUSH3 0x44C JUMPI PUSH1 0x40 MSTORE JUMP JUMPDEST MLOAD SWAP1 PUSH1 0x1 PUSH1 0x1 PUSH1 0xA0 SHL SUB DUP3 AND DUP3 SUB PUSH3 0x55D JUMPI JUMP JUMPDEST SWAP2 SWAP1 DUP1 PUSH1 0x1F DUP5 ADD SLT ISZERO PUSH3 0x55D JUMPI DUP3 MLOAD SWAP1 PUSH1 0x1 PUSH1 0x1 PUSH1 0x40 SHL SUB DUP3 GT PUSH3 0x44C JUMPI PUSH1 0x40 MLOAD SWAP2 PUSH1 0x20 SWAP2 PUSH3 0x5D7 PUSH1 0x1F DUP4 ADD PUSH1 0x1F NOT AND DUP5 ADD DUP6 PUSH3 0x562 JUMP JUMPDEST DUP2 DUP5 MSTORE DUP3 DUP3 DUP8 ADD ADD GT PUSH3 0x55D JUMPI PUSH1 0x0 JUMPDEST DUP2 DUP2 LT PUSH3 0x5FE JUMPI POP DUP3 PUSH1 0x0 SWAP4 SWAP5 SWAP6 POP ADD ADD MSTORE SWAP1 JUMP JUMPDEST DUP6 DUP2 ADD DUP4 ADD MLOAD DUP5 DUP3 ADD DUP5 ADD MSTORE DUP3 ADD PUSH3 0x5E8 JUMP INVALID PUSH1 0x80 PUSH1 0x40 SWAP1 DUP1 DUP3 MSTORE PUSH1 0x4 SWAP2 DUP3 CALLDATASIZE LT ISZERO PUSH2 0x17 JUMPI PUSH1 0x0 DUP1 REVERT JUMPDEST PUSH1 0x0 SWAP3 DUP4 CALLDATALOAD PUSH1 0xE0 SHR SWAP3 DUP4 PUSH4 0x6FDDE03 EQ PUSH2 0x5DE JUMPI POP DUP3 PUSH4 0x95EA7B3 EQ PUSH2 0x52F JUMPI DUP3 PUSH4 0x134E18F4 EQ PUSH2 0x506 JUMPI DUP3 PUSH4 0x16C38B3C EQ PUSH2 0x4B4 JUMPI DUP3 PUSH4 0x18160DDD EQ PUSH2 0x495 JUMPI DUP3 PUSH4 0x1D143848 EQ PUSH2 0x46C JUMPI DUP3 PUSH4 0x23B872DD EQ PUSH2 0x44A JUMPI DUP3 PUSH4 0x313CE567 EQ PUSH2 0x42E JUMPI DUP3 PUSH4 0x42966C68 EQ PUSH2 0x410 JUMPI DUP3 PUSH4 0x44DE240A EQ PUSH2 0x3F1 JUMPI DUP3 PUSH4 0x5C975ABB EQ PUSH2 0x3CA JUMPI DUP3 PUSH4 0x6290865D EQ PUSH2 0x3A1 JUMPI DUP3 PUSH4 0x70A08231 EQ PUSH2 0x36A JUMPI DUP3 PUSH4 0x79CC6790 EQ PUSH2 0x33A JUMPI DUP3 PUSH4 0x8DA5CB5B EQ PUSH2 0x311 JUMPI DUP3 PUSH4 0x95D89B41 EQ PUSH2 0x20E JUMPI POP DUP2 PUSH4 0x9FC1D0E7 EQ PUSH2 0x1DE JUMPI DUP2 PUSH4 0xA9059CBB EQ PUSH2 0x1AD JUMPI DUP2 PUSH4 0xDD62ED3E EQ PUSH2 0x155 JUMPI POP PUSH4 0xF8981789 EQ PUSH2 0x103 JUMPI PUSH1 0x0 DUP1 REVERT JUMPDEST CALLVALUE PUSH2 0x152 JUMPI PUSH1 0x20 CALLDATASIZE PUSH1 0x3 NOT ADD SLT PUSH2 0x152 JUMPI PUSH2 0x11C PUSH2 0x71B JUMP JUMPDEST PUSH1 0x9 SLOAD PUSH1 0x1 PUSH1 0x1 PUSH1 0xA0 SHL SUB SWAP2 SWAP1 PUSH2 0x136 SWAP1 DUP4 AND CALLER EQ PUSH2 0xBBA JUMP JUMPDEST AND PUSH12 0xFFFFFFFFFFFFFFFFFFFFFFFF PUSH1 0xA0 SHL PUSH1 0x6 SLOAD AND OR PUSH1 0x6 SSTORE DUP1 RETURN JUMPDEST DUP1 REVERT JUMPDEST SWAP1 POP CALLVALUE PUSH2 0x1A9 JUMPI DUP1 PUSH1 0x3 NOT CALLDATASIZE ADD SLT PUSH2 0x1A9 JUMPI PUSH2 0x16F PUSH2 0x71B JUMP JUMPDEST PUSH1 0x1 PUSH1 0x1 PUSH1 0xA0 SHL SUB PUSH1 0x24 CALLDATALOAD DUP2 DUP2 AND SWAP3 SWAP1 DUP4 SWAP1 SUB PUSH2 0x1A5 JUMPI SWAP2 PUSH1 0x20 SWAP5 SWAP2 DUP5 SWAP4 AND DUP3 MSTORE PUSH1 0x1 DUP6 MSTORE DUP3 DUP3 KECCAK256 SWAP1 DUP3 MSTORE DUP5 MSTORE KECCAK256 SLOAD SWAP1 MLOAD SWAP1 DUP2 MSTORE RETURN JUMPDEST DUP5 DUP1 REVERT JUMPDEST POP DUP1 REVERT JUMPDEST SWAP1 POP CALLVALUE PUSH2 0x1A9 JUMPI DUP1 PUSH1 0x3 NOT CALLDATASIZE ADD SLT PUSH2 0x1A9 JUMPI PUSH1 0x20 SWAP1 PUSH2 0x1D7 PUSH2 0x1CD PUSH2 0x71B JUMP JUMPDEST PUSH1 0x24 CALLDATALOAD SWAP1 CALLER PUSH2 0x7A3 JUMP JUMPDEST MLOAD PUSH1 0x1 DUP2 MSTORE RETURN JUMPDEST DUP3 CALLVALUE PUSH2 0x152 JUMPI PUSH2 0x20B PUSH2 0x1F0 CALLDATASIZE PUSH2 0x736 JUMP JUMPDEST SWAP2 PUSH2 0x206 PUSH1 0x1 DUP1 PUSH1 0xA0 SHL SUB PUSH1 0x9 SLOAD AND CALLER EQ PUSH2 0xBBA JUMP JUMPDEST PUSH2 0x7A3 JUMP JUMPDEST DUP1 RETURN JUMPDEST DUP4 DUP3 CALLVALUE PUSH2 0x1A9 JUMPI DUP2 PUSH1 0x3 NOT CALLDATASIZE ADD SLT PUSH2 0x1A9 JUMPI DUP1 MLOAD SWAP2 DUP1 SWAP4 DUP1 SLOAD SWAP2 PUSH1 0x1 SWAP1 DUP4 DUP3 SHR SWAP3 DUP3 DUP6 AND SWAP5 DUP6 ISZERO PUSH2 0x307 JUMPI JUMPDEST PUSH1 0x20 SWAP6 DUP7 DUP7 LT DUP2 EQ PUSH2 0x2F4 JUMPI DUP6 DUP10 MSTORE SWAP1 DUP2 ISZERO PUSH2 0x2D0 JUMPI POP PUSH1 0x1 EQ PUSH2 0x278 JUMPI JUMPDEST PUSH2 0x274 DUP8 DUP8 PUSH2 0x26A DUP3 DUP13 SUB DUP4 PUSH2 0x76B JUMP JUMPDEST MLOAD SWAP2 DUP3 SWAP2 DUP3 PUSH2 0x6D2 JUMP JUMPDEST SUB SWAP1 RETURN JUMPDEST DUP2 MSTORE SWAP3 SWAP6 POP PUSH32 0x8A35ACFBC15FF81A39AE7D344FD709F28E8600B4AA8C65C6B64BFE7FE36BD19B JUMPDEST DUP3 DUP5 LT PUSH2 0x2BD JUMPI POP POP POP DUP3 PUSH2 0x274 SWAP5 PUSH2 0x26A SWAP3 DUP3 ADD ADD SWAP5 DUP7 DUP1 PUSH2 0x259 JUMP JUMPDEST DUP1 SLOAD DUP7 DUP6 ADD DUP9 ADD MSTORE SWAP3 DUP7 ADD SWAP3 DUP2 ADD PUSH2 0x29F JUMP JUMPDEST PUSH1 0xFF NOT AND DUP9 DUP8 ADD MSTORE POP POP POP POP ISZERO ISZERO PUSH1 0x5 SHL DUP4 ADD ADD SWAP3 POP PUSH2 0x26A DUP3 PUSH2 0x274 DUP7 DUP1 PUSH2 0x259 JUMP JUMPDEST PUSH4 0x4E487B71 PUSH1 0xE0 SHL DUP5 MSTORE PUSH1 0x22 DUP4 MSTORE PUSH1 0x24 DUP5 REVERT JUMPDEST SWAP4 PUSH1 0x7F AND SWAP4 PUSH2 0x23A JUMP JUMPDEST DUP4 DUP3 CALLVALUE PUSH2 0x1A9 JUMPI DUP2 PUSH1 0x3 NOT CALLDATASIZE ADD SLT PUSH2 0x1A9 JUMPI PUSH1 0x9 SLOAD SWAP1 MLOAD PUSH1 0x1 PUSH1 0x1 PUSH1 0xA0 SHL SUB SWAP1 SWAP2 AND DUP2 MSTORE PUSH1 0x20 SWAP1 RETURN JUMPDEST DUP4 DUP3 CALLVALUE PUSH2 0x1A9 JUMPI CALLDATASIZE PUSH1 0x3 NOT ADD SLT PUSH2 0x152 JUMPI PUSH2 0x20B PUSH2 0x356 PUSH2 0x71B JUMP JUMPDEST PUSH1 0x24 CALLDATALOAD SWAP1 PUSH2 0x365 DUP3 CALLER DUP4 PUSH2 0x985 JUMP JUMPDEST PUSH2 0xA58 JUMP JUMPDEST DUP4 DUP3 CALLVALUE PUSH2 0x1A9 JUMPI PUSH1 0x20 CALLDATASIZE PUSH1 0x3 NOT ADD SLT PUSH2 0x1A9 JUMPI PUSH1 0x20 SWAP2 DUP2 SWAP1 PUSH1 0x1 PUSH1 0x1 PUSH1 0xA0 SHL SUB PUSH2 0x392 PUSH2 0x71B JUMP JUMPDEST AND DUP2 MSTORE DUP1 DUP5 MSTORE KECCAK256 SLOAD SWAP1 MLOAD SWAP1 DUP2 MSTORE RETURN JUMPDEST DUP4 DUP3 CALLVALUE PUSH2 0x1A9 JUMPI DUP2 PUSH1 0x3 NOT CALLDATASIZE ADD SLT PUSH2 0x1A9 JUMPI PUSH1 0x6 SLOAD SWAP1 MLOAD PUSH1 0x1 PUSH1 0x1 PUSH1 0xA0 SHL SUB SWAP1 SWAP2 AND DUP2 MSTORE PUSH1 0x20 SWAP1 RETURN JUMPDEST DUP4 DUP3 CALLVALUE PUSH2 0x1A9 JUMPI DUP2 PUSH1 0x3 NOT CALLDATASIZE ADD SLT PUSH2 0x1A9 JUMPI PUSH1 0x20 SWAP1 PUSH1 0xFF PUSH1 0x9 SLOAD PUSH1 0xA0 SHR AND SWAP1 MLOAD SWAP1 ISZERO ISZERO DUP2 MSTORE RETURN JUMPDEST DUP4 DUP3 CALLVALUE PUSH2 0x1A9 JUMPI DUP2 PUSH1 0x3 NOT CALLDATASIZE ADD SLT PUSH2 0x1A9 JUMPI PUSH1 0x20 SWAP1 PUSH1 0x5 SLOAD SWAP1 MLOAD SWAP1 DUP2 MSTORE RETURN JUMPDEST DUP4 SWAP1 CALLVALUE PUSH2 0x1A9 JUMPI PUSH1 0x20 CALLDATASIZE PUSH1 0x3 NOT ADD SLT PUSH2 0x1A9 JUMPI PUSH2 0x20B SWAP1 CALLDATALOAD CALLER PUSH2 0xA58 JUMP JUMPDEST DUP4 DUP3 CALLVALUE PUSH2 0x1A9 JUMPI DUP2 PUSH1 0x3 NOT CALLDATASIZE ADD SLT PUSH2 0x1A9 JUMPI PUSH1 0x20 SWAP1 MLOAD PUSH1 0x12 DUP2 MSTORE RETURN JUMPDEST DUP4 DUP3 CALLVALUE PUSH2 0x1A9 JUMPI PUSH1 0x20 SWAP1 PUSH2 0x1D7 PUSH2 0x460 CALLDATASIZE PUSH2 0x736 JUMP JUMPDEST SWAP2 PUSH2 0x206 DUP4 CALLER DUP4 PUSH2 0x985 JUMP JUMPDEST DUP4 DUP3 CALLVALUE PUSH2 0x1A9 JUMPI DUP2 PUSH1 0x3 NOT CALLDATASIZE ADD SLT PUSH2 0x1A9 JUMPI PUSH1 0x8 SLOAD SWAP1 MLOAD PUSH1 0x1 PUSH1 0x1 PUSH1 0xA0 SHL SUB SWAP1 SWAP2 AND DUP2 MSTORE PUSH1 0x20 SWAP1 RETURN JUMPDEST DUP4 DUP3 CALLVALUE PUSH2 0x1A9 JUMPI DUP2 PUSH1 0x3 NOT CALLDATASIZE ADD SLT PUSH2 0x1A9 JUMPI PUSH1 0x20 SWAP1 PUSH1 0x2 SLOAD SWAP1 MLOAD SWAP1 DUP2 MSTORE RETURN JUMPDEST DUP4 SWAP1 CALLVALUE PUSH2 0x1A9 JUMPI PUSH1 0x20 CALLDATASIZE PUSH1 0x3 NOT ADD SLT PUSH2 0x1A9 JUMPI CALLDATALOAD DUP1 ISZERO ISZERO DUP1 SWAP2 SUB PUSH2 0x1A9 JUMPI PUSH1 0x9 SLOAD SWAP1 PUSH2 0x4EA CALLER PUSH1 0x1 PUSH1 0x1 PUSH1 0xA0 SHL SUB DUP5 AND EQ PUSH2 0xBBA JUMP JUMPDEST PUSH1 0xFF PUSH1 0xA0 SHL NOT SWAP1 SWAP2 AND PUSH1 0xA0 SWAP2 SWAP1 SWAP2 SHL PUSH1 0xFF PUSH1 0xA0 SHL AND OR PUSH1 0x9 SSTORE DUP1 RETURN JUMPDEST DUP4 DUP3 CALLVALUE PUSH2 0x1A9 JUMPI DUP2 PUSH1 0x3 NOT CALLDATASIZE ADD SLT PUSH2 0x1A9 JUMPI PUSH1 0x7 SLOAD SWAP1 MLOAD PUSH1 0x1 PUSH1 0x1 PUSH1 0xA0 SHL SUB SWAP1 SWAP2 AND DUP2 MSTORE PUSH1 0x20 SWAP1 RETURN JUMPDEST SWAP1 SWAP2 POP CALLVALUE PUSH2 0x5DA JUMPI DUP2 PUSH1 0x3 NOT CALLDATASIZE ADD SLT PUSH2 0x5DA JUMPI PUSH2 0x54A PUSH2 0x71B JUMP JUMPDEST PUSH1 0x24 CALLDATALOAD SWAP1 CALLER ISZERO PUSH2 0x5C3 JUMPI PUSH1 0x1 PUSH1 0x1 PUSH1 0xA0 SHL SUB AND SWAP2 DUP3 ISZERO PUSH2 0x5AC JUMPI POP DUP1 DUP4 PUSH1 0x20 SWAP6 CALLER DUP2 MSTORE PUSH1 0x1 DUP8 MSTORE DUP2 DUP2 KECCAK256 DUP6 DUP3 MSTORE DUP8 MSTORE KECCAK256 SSTORE DUP3 MLOAD SWAP1 DUP2 MSTORE PUSH32 0x8C5BE1E5EBEC7D5BD14F71427D1E84F3DD0314C0F7B2291E5B200AC8C7C3B925 DUP5 CALLER SWAP3 LOG3 MLOAD PUSH1 0x1 DUP2 MSTORE RETURN JUMPDEST DUP4 MLOAD PUSH4 0x4A1406B1 PUSH1 0xE1 SHL DUP2 MSTORE SWAP1 DUP2 ADD DUP6 SWAP1 MSTORE PUSH1 0x24 SWAP1 REVERT JUMPDEST DUP4 MLOAD PUSH4 0xE602DF05 PUSH1 0xE0 SHL DUP2 MSTORE DUP1 DUP5 ADD DUP7 SWAP1 MSTORE PUSH1 0x24 SWAP1 REVERT JUMPDEST DUP3 DUP1 REVERT JUMPDEST SWAP3 POP CALLVALUE PUSH2 0x6CE JUMPI DUP4 PUSH1 0x3 NOT CALLDATASIZE ADD SLT PUSH2 0x6CE JUMPI PUSH1 0x3 SLOAD PUSH1 0x1 DUP2 DUP2 SHR SWAP2 DUP7 SWAP1 DUP3 DUP2 AND DUP1 ISZERO PUSH2 0x6C4 JUMPI JUMPDEST PUSH1 0x20 SWAP6 DUP7 DUP7 LT DUP3 EQ PUSH2 0x6B1 JUMPI POP DUP5 DUP9 MSTORE SWAP1 DUP2 ISZERO PUSH2 0x68F JUMPI POP PUSH1 0x1 EQ PUSH2 0x636 JUMPI JUMPDEST PUSH2 0x274 DUP7 DUP7 PUSH2 0x26A DUP3 DUP12 SUB DUP4 PUSH2 0x76B JUMP JUMPDEST SWAP3 SWAP6 POP PUSH1 0x3 DUP4 MSTORE PUSH32 0xC2575A0E9E593C00F959F8C92F12DB2869C3395A3B0502D05E2516446F71F85B JUMPDEST DUP3 DUP5 LT PUSH2 0x67C JUMPI POP POP POP DUP3 PUSH2 0x274 SWAP5 PUSH2 0x26A SWAP3 DUP3 ADD ADD SWAP5 CODESIZE PUSH2 0x625 JUMP JUMPDEST DUP1 SLOAD DUP7 DUP6 ADD DUP9 ADD MSTORE SWAP3 DUP7 ADD SWAP3 DUP2 ADD PUSH2 0x65F JUMP JUMPDEST PUSH1 0xFF NOT AND DUP8 DUP7 ADD MSTORE POP POP POP ISZERO ISZERO PUSH1 0x5 SHL DUP4 ADD ADD SWAP3 POP PUSH2 0x26A DUP3 PUSH2 0x274 CODESIZE PUSH2 0x625 JUMP JUMPDEST PUSH4 0x4E487B71 PUSH1 0xE0 SHL DUP5 MSTORE PUSH1 0x22 SWAP1 MSTORE PUSH1 0x24 DUP4 REVERT JUMPDEST SWAP4 PUSH1 0x7F AND SWAP4 PUSH2 0x605 JUMP JUMPDEST DUP4 DUP1 REVERT JUMPDEST PUSH1 0x20 DUP1 DUP3 MSTORE DUP3 MLOAD DUP2 DUP4 ADD DUP2 SWAP1 MSTORE SWAP1 SWAP4 SWAP3 PUSH1 0x0 JUMPDEST DUP3 DUP2 LT PUSH2 0x707 JUMPI POP POP PUSH1 0x40 SWAP3 SWAP4 POP PUSH1 0x0 DUP4 DUP3 DUP5 ADD ADD MSTORE PUSH1 0x1F DUP1 NOT SWAP2 ADD AND ADD ADD SWAP1 JUMP JUMPDEST DUP2 DUP2 ADD DUP7 ADD MLOAD DUP5 DUP3 ADD PUSH1 0x40 ADD MSTORE DUP6 ADD PUSH2 0x6E5 JUMP JUMPDEST PUSH1 0x4 CALLDATALOAD SWAP1 PUSH1 0x1 PUSH1 0x1 PUSH1 0xA0 SHL SUB DUP3 AND DUP3 SUB PUSH2 0x731 JUMPI JUMP JUMPDEST PUSH1 0x0 DUP1 REVERT JUMPDEST PUSH1 0x60 SWAP1 PUSH1 0x3 NOT ADD SLT PUSH2 0x731 JUMPI PUSH1 0x1 PUSH1 0x1 PUSH1 0xA0 SHL SUB SWAP1 PUSH1 0x4 CALLDATALOAD DUP3 DUP2 AND DUP2 SUB PUSH2 0x731 JUMPI SWAP2 PUSH1 0x24 CALLDATALOAD SWAP1 DUP2 AND DUP2 SUB PUSH2 0x731 JUMPI SWAP1 PUSH1 0x44 CALLDATALOAD SWAP1 JUMP JUMPDEST SWAP1 PUSH1 0x1F DUP1 NOT SWAP2 ADD AND DUP2 ADD SWAP1 DUP2 LT PUSH8 0xFFFFFFFFFFFFFFFF DUP3 GT OR PUSH2 0x78D JUMPI PUSH1 0x40 MSTORE JUMP JUMPDEST PUSH4 0x4E487B71 PUSH1 0xE0 SHL PUSH1 0x0 MSTORE PUSH1 0x41 PUSH1 0x4 MSTORE PUSH1 0x24 PUSH1 0x0 REVERT JUMPDEST PUSH1 0x1 PUSH1 0x1 PUSH1 0xA0 SHL SUB SWAP3 DUP4 DUP3 AND SWAP3 SWAP1 SWAP2 SWAP1 DUP4 ISZERO PUSH2 0x96C JUMPI DUP5 AND SWAP4 DUP5 ISZERO PUSH2 0x953 JUMPI PUSH1 0xFF PUSH1 0x9 SLOAD PUSH1 0xA0 SHR AND ISZERO DUP1 PUSH2 0x94B JUMPI JUMPDEST DUP1 PUSH2 0x943 JUMPI JUMPDEST PUSH2 0x86F JUMPI JUMPDEST POP PUSH1 0x0 SWAP1 DUP4 DUP3 MSTORE DUP2 PUSH1 0x20 MSTORE PUSH1 0x40 DUP3 KECCAK256 SLOAD SWAP1 DUP4 DUP3 LT PUSH2 0x83D JUMPI POP SWAP2 PUSH1 0x40 DUP3 DUP3 PUSH32 0xDDF252AD1BE2C89B69C2B068FC378DAA952BA7F163C4A11628F55A4DF523B3EF SWAP6 DUP8 PUSH1 0x20 SWAP7 MSTORE DUP3 DUP7 MSTORE SUB DUP3 DUP3 KECCAK256 SSTORE DUP7 DUP2 MSTORE KECCAK256 DUP2 DUP2 SLOAD ADD SWAP1 SSTORE PUSH1 0x40 MLOAD SWAP1 DUP2 MSTORE LOG3 JUMP JUMPDEST PUSH1 0x40 MLOAD PUSH4 0x391434E3 PUSH1 0xE2 SHL DUP2 MSTORE PUSH1 0x1 PUSH1 0x1 PUSH1 0xA0 SHL SUB SWAP2 SWAP1 SWAP2 AND PUSH1 0x4 DUP3 ADD MSTORE PUSH1 0x24 DUP2 ADD SWAP2 SWAP1 SWAP2 MSTORE PUSH1 0x44 DUP2 ADD DUP4 SWAP1 MSTORE PUSH1 0x64 SWAP1 REVERT JUMPDEST PUSH1 0x20 PUSH1 0x64 SWAP2 PUSH1 0x6 SLOAD AND PUSH1 0x40 MLOAD SWAP3 DUP4 DUP1 SWAP3 PUSH4 0x72331C73 PUSH1 0xE1 SHL DUP3 MSTORE DUP9 PUSH1 0x4 DUP4 ADD MSTORE DUP10 PUSH1 0x24 DUP4 ADD MSTORE DUP8 PUSH1 0x44 DUP4 ADD MSTORE GAS STATICCALL SWAP1 DUP2 ISZERO PUSH2 0x937 JUMPI PUSH1 0x0 SWAP2 PUSH2 0x8FD JUMPI JUMPDEST POP ISZERO PUSH2 0x8B8 JUMPI CODESIZE PUSH2 0x7DD JUMP JUMPDEST PUSH1 0x40 MLOAD PUSH3 0x461BCD PUSH1 0xE5 SHL DUP2 MSTORE PUSH1 0x20 PUSH1 0x4 DUP3 ADD MSTORE PUSH1 0x17 PUSH1 0x24 DUP3 ADD MSTORE PUSH32 0x436F6D706C69616E636520636865636B206661696C6564000000000000000000 PUSH1 0x44 DUP3 ADD MSTORE PUSH1 0x64 SWAP1 REVERT JUMPDEST PUSH1 0x20 DUP2 RETURNDATASIZE DUP3 GT PUSH2 0x92F JUMPI JUMPDEST DUP2 PUSH2 0x915 PUSH1 0x20 SWAP4 DUP4 PUSH2 0x76B JUMP JUMPDEST DUP2 ADD SUB SLT PUSH2 0x1A9 JUMPI MLOAD SWAP1 DUP2 ISZERO ISZERO DUP3 SUB PUSH2 0x152 JUMPI POP CODESIZE PUSH2 0x8AC JUMP JUMPDEST RETURNDATASIZE SWAP2 POP PUSH2 0x908 JUMP JUMPDEST PUSH1 0x40 MLOAD RETURNDATASIZE PUSH1 0x0 DUP3 RETURNDATACOPY RETURNDATASIZE SWAP1 REVERT JUMPDEST POP PUSH1 0x1 PUSH2 0x7D8 JUMP JUMPDEST POP PUSH1 0x1 PUSH2 0x7D2 JUMP JUMPDEST PUSH1 0x40 MLOAD PUSH4 0xEC442F05 PUSH1 0xE0 SHL DUP2 MSTORE PUSH1 0x0 PUSH1 0x4 DUP3 ADD MSTORE PUSH1 0x24 SWAP1 REVERT JUMPDEST PUSH1 0x40 MLOAD PUSH4 0x4B637E8F PUSH1 0xE1 SHL DUP2 MSTORE PUSH1 0x0 PUSH1 0x4 DUP3 ADD MSTORE PUSH1 0x24 SWAP1 REVERT JUMPDEST SWAP2 PUSH1 0x1 DUP1 PUSH1 0xA0 SHL SUB DUP1 SWAP4 AND SWAP2 PUSH1 0x0 SWAP4 DUP4 DUP6 MSTORE PUSH1 0x1 PUSH1 0x20 MSTORE PUSH1 0x40 SWAP4 DUP5 DUP7 KECCAK256 SWAP2 DUP4 AND SWAP2 DUP3 DUP8 MSTORE PUSH1 0x20 MSTORE DUP5 DUP7 KECCAK256 SLOAD SWAP3 PUSH1 0x0 NOT DUP5 LT PUSH2 0x9C4 JUMPI JUMPDEST POP POP POP POP POP POP POP JUMP JUMPDEST DUP5 DUP5 LT PUSH2 0xA28 JUMPI POP DUP1 ISZERO PUSH2 0xA10 JUMPI DUP2 ISZERO PUSH2 0x9F8 JUMPI DUP6 MSTORE PUSH1 0x1 PUSH1 0x20 MSTORE DUP4 DUP6 KECCAK256 SWAP1 DUP6 MSTORE PUSH1 0x20 MSTORE SUB SWAP2 KECCAK256 SSTORE CODESIZE DUP1 DUP1 DUP1 DUP1 DUP1 DUP1 PUSH2 0x9BB JUMP JUMPDEST DUP5 MLOAD PUSH4 0x4A1406B1 PUSH1 0xE1 SHL DUP2 MSTORE PUSH1 0x4 DUP2 ADD DUP8 SWAP1 MSTORE PUSH1 0x24 SWAP1 REVERT JUMPDEST DUP5 MLOAD PUSH4 0xE602DF05 PUSH1 0xE0 SHL DUP2 MSTORE PUSH1 0x4 DUP2 ADD DUP8 SWAP1 MSTORE PUSH1 0x24 SWAP1 REVERT JUMPDEST DUP6 MLOAD PUSH4 0x7DC7A0D9 PUSH1 0xE1 SHL DUP2 MSTORE PUSH1 0x1 PUSH1 0x1 PUSH1 0xA0 SHL SUB SWAP2 SWAP1 SWAP2 AND PUSH1 0x4 DUP3 ADD MSTORE PUSH1 0x24 DUP2 ADD DUP5 SWAP1 MSTORE PUSH1 0x44 DUP2 ADD DUP6 SWAP1 MSTORE PUSH1 0x64 SWAP1 REVERT JUMPDEST SWAP1 PUSH1 0x1 PUSH1 0x1 PUSH1 0xA0 SHL SUB DUP1 DUP4 AND SWAP2 SWAP1 DUP3 ISZERO PUSH2 0x96C JUMPI PUSH1 0xFF PUSH1 0x9 SLOAD PUSH1 0xA0 SHR AND ISZERO DUP1 PUSH2 0xBB2 JUMPI JUMPDEST DUP1 PUSH2 0xBAA JUMPI JUMPDEST PUSH2 0xB15 JUMPI JUMPDEST POP PUSH1 0x0 SWAP3 DUP3 DUP5 MSTORE DUP4 PUSH1 0x20 MSTORE PUSH1 0x40 DUP5 KECCAK256 SLOAD SWAP1 DUP3 DUP3 LT PUSH2 0xAE3 JUMPI POP DUP2 PUSH32 0xDDF252AD1BE2C89B69C2B068FC378DAA952BA7F163C4A11628F55A4DF523B3EF SWAP3 PUSH1 0x20 SWAP3 DUP6 DUP8 MSTORE DUP7 DUP5 MSTORE SUB PUSH1 0x40 DUP7 KECCAK256 SSTORE DUP1 PUSH1 0x2 SLOAD SUB PUSH1 0x2 SSTORE PUSH1 0x40 MLOAD SWAP1 DUP2 MSTORE LOG3 JUMP JUMPDEST PUSH1 0x40 MLOAD PUSH4 0x391434E3 PUSH1 0xE2 SHL DUP2 MSTORE PUSH1 0x1 PUSH1 0x1 PUSH1 0xA0 SHL SUB SWAP2 SWAP1 SWAP2 AND PUSH1 0x4 DUP3 ADD MSTORE PUSH1 0x24 DUP2 ADD SWAP2 SWAP1 SWAP2 MSTORE PUSH1 0x44 DUP2 ADD DUP3 SWAP1 MSTORE PUSH1 0x64 SWAP1 REVERT JUMPDEST PUSH1 0x6 SLOAD AND PUSH1 0x40 MLOAD SWAP1 PUSH4 0x72331C73 PUSH1 0xE1 SHL DUP3 MSTORE DUP4 PUSH1 0x4 DUP4 ADD MSTORE PUSH1 0x20 DUP3 PUSH1 0x64 DUP2 PUSH1 0x0 SWAP5 DUP6 PUSH1 0x24 DUP4 ADD MSTORE DUP8 PUSH1 0x44 DUP4 ADD MSTORE GAS STATICCALL SWAP2 DUP3 ISZERO PUSH2 0xB9D JUMPI DUP2 SWAP3 PUSH2 0xB5F JUMPI JUMPDEST POP POP ISZERO PUSH2 0x8B8 JUMPI CODESIZE PUSH2 0xA87 JUMP JUMPDEST SWAP1 SWAP2 POP PUSH1 0x20 DUP2 RETURNDATASIZE DUP3 GT PUSH2 0xB95 JUMPI JUMPDEST DUP2 PUSH2 0xB7A PUSH1 0x20 SWAP4 DUP4 PUSH2 0x76B JUMP JUMPDEST DUP2 ADD SUB SLT PUSH2 0x1A9 JUMPI MLOAD SWAP1 DUP2 ISZERO ISZERO DUP3 SUB PUSH2 0x152 JUMPI POP CODESIZE DUP1 PUSH2 0xB52 JUMP JUMPDEST RETURNDATASIZE SWAP2 POP PUSH2 0xB6D JUMP JUMPDEST POP PUSH1 0x40 MLOAD SWAP1 RETURNDATASIZE SWAP1 DUP3 RETURNDATACOPY RETURNDATASIZE SWAP1 REVERT JUMPDEST POP PUSH1 0x0 PUSH2 0xA82 JUMP JUMPDEST POP PUSH1 0x1 PUSH2 0xA7C JUMP JUMPDEST ISZERO PUSH2 0xBC1 JUMPI JUMP JUMPDEST PUSH1 0x40 MLOAD PUSH3 0x461BCD PUSH1 0xE5 SHL DUP2 MSTORE PUSH1 0x20 PUSH1 0x4 DUP3 ADD MSTORE PUSH1 0xA PUSH1 0x24 DUP3 ADD MSTORE PUSH10 0x27B7363C9037BBB732B9 PUSH1 0xB1 SHL PUSH1 0x44 DUP3 ADD MSTORE PUSH1 0x64 SWAP1 REVERT INVALID LOG2 PUSH5 0x6970667358 0x22 SLT KECCAK256 0xBE PUSH2 0xA703 0xAF 0xAE CALLER 0xE6 MSIZE OR RETURNDATASIZE 0x2E DELEGATECALL SWAP7 0xD2 BLOCKHASH CALLCODE 0xC5 SAR PUSH20 0x8B5F2F54EDE1098D3E8C1F3D64736F6C63430008 EQ STOP CALLER "},"methodIdentifiers":{"allowance(address,address)":"dd62ed3e","approve(address,uint256)":"095ea7b3","assetId()":"44de240a","balanceOf(address)":"70a08231","burn(uint256)":"42966c68","burnFrom(address,uint256)":"79cc6790","compliance()":"6290865d","decimals()":"313ce567","forcedTransfer(address,address,uint256)":"9fc1d0e7","identityRegistry()":"134e18f4","issuer()":"1d143848","name()":"06fdde03","owner()":"8da5cb5b","paused()":"5c975abb","setCompliance(address)":"f8981789","setPaused(bool)":"16c38b3c","symbol()":"95d89b41","totalSupply()":"18160ddd","transfer(address,uint256)":"a9059cbb","transferFrom(address,address,uint256)":"23b872dd"}}}}}