{"contracts/core/AttestationRegistry.sol":{"AttestationRegistry":{"abi":[{"inputs":[],"stateMutability":"nonpayable","type":"constructor"},{"inputs":[],"name":"ECDSAInvalidSignature","type":"error"},{"inputs":[{"internalType":"uint256","name":"length","type":"uint256"}],"name":"ECDSAInvalidSignatureLength","type":"error"},{"inputs":[{"internalType":"bytes32","name":"s","type":"bytes32"}],"name":"ECDSAInvalidSignatureS","type":"error"},{"anonymous":false,"inputs":[{"indexed":true,"internalType":"bytes32","name":"assetId","type":"bytes32"},{"indexed":false,"internalType":"bytes32","name":"blobId","type":"bytes32"},{"indexed":false,"internalType":"bytes32","name":"attestationHash","type":"bytes32"},{"indexed":false,"internalType":"address","name":"attestor","type":"address"}],"name":"AssetRegistered","type":"event"},{"anonymous":false,"inputs":[{"indexed":true,"internalType":"bytes32","name":"assetId","type":"bytes32"},{"indexed":false,"internalType":"string","name":"reason","type":"string"},{"indexed":false,"internalType":"uint256","name":"timestamp","type":"uint256"}],"name":"AssetRevoked","type":"event"},{"inputs":[{"internalType":"address","name":"attestor","type":"address"}],"name":"addTrustedAttestor","outputs":[],"stateMutability":"nonpayable","type":"function"},{"inputs":[{"internalType":"bytes32","name":"","type":"bytes32"}],"name":"assets","outputs":[{"internalType":"bytes32","name":"assetId","type":"bytes32"},{"internalType":"bytes32","name":"attestationHash","type":"bytes32"},{"internalType":"bytes32","name":"blobId","type":"bytes32"},{"internalType":"address","name":"attestor","type":"address"},{"internalType":"uint48","name":"timestamp","type":"uint48"},{"internalType":"bool","name":"revoked","type":"bool"}],"stateMutability":"view","type":"function"},{"inputs":[{"internalType":"bytes32","name":"assetId","type":"bytes32"}],"name":"isAssetValid","outputs":[{"internalType":"bool","name":"","type":"bool"}],"stateMutability":"view","type":"function"},{"inputs":[],"name":"owner","outputs":[{"internalType":"address","name":"","type":"address"}],"stateMutability":"view","type":"function"},{"inputs":[{"internalType":"bytes32","name":"assetId","type":"bytes32"},{"internalType":"bytes32","name":"attestationHash","type":"bytes32"},{"internalType":"bytes32","name":"blobId","type":"bytes32"},{"internalType":"bytes","name":"payload","type":"bytes"},{"internalType":"bytes","name":"signature","type":"bytes"}],"name":"registerAsset","outputs":[],"stateMutability":"nonpayable","type":"function"},{"inputs":[{"internalType":"bytes32","name":"assetId","type":"bytes32"},{"internalType":"string","name":"reason","type":"string"}],"name":"revokeAsset","outputs":[],"stateMutability":"nonpayable","type":"function"},{"inputs":[{"internalType":"address","name":"","type":"address"}],"name":"trustedAttestors","outputs":[{"internalType":"bool","name":"","type":"bool"}],"stateMutability":"view","type":"function"}],"evm":{"bytecode":{"linkReferences":{},"object":"60808060405234610040573360018060a01b031960025416176002553360005260016020526040600020600160ff1982541617905561080490816100468239f35b600080fdfe6040608081526004908136101561001557600080fd5b600091823560e01c80630642d8ef14610491578063339f16a91461044157806370b5027c1461019b5780638da5cb5b1461016e5780639fda5b66146100ff578063e430970d146100af5763f97d63411461006e57600080fd5b346100ab5760203660031901126100ab57356001600160a01b038116908190036100ab57818360ff92602095526001855220541690519015158152f35b8280fd5b50346100ab5760203660031901126100ab57356001600160a01b03818116918290036100fb576100e4906002541633146105db565b825260016020528120600160ff1982541617905580f35b8380fd5b50346100ab5760203660031901126100ab578160c09360ff9235815280602052209182549260018101549160036002830154920154928151958652602086015284015260018060a01b038116606084015265ffffffffffff8160a01c16608084015260d01c16151560a0820152f35b50503461019757816003193601126101975760025490516001600160a01b039091168152602090f35b5080fd5b5090346100ab5760a03660031901126100ab578135916044359167ffffffffffffffff916024359060643584811161043d576101da90369083016105a8565b9160843591868311610439576101f48693369084016105a8565b918a8c526020958c87528c600365ffffffffffff97889220015460a01c166103f6578791610223913691610614565b868151910120036103bb5761027c929161026d61027392603c8e7f19457468657265756d205369676e6564204d6573736167653a0a33320000000081528a601c5220923691610614565b9061067d565b90939193610749565b6001600160a01b03918216808b5260018552868b205490979060ff16156103785786519160c08301918211838310176103655750928987959360038d9460609b99977ff78715d23ff41830ba0f7b6ddff9cf99f364dcf79c01595a10aff1816dac64549d9b52838152868101888152898201908c82528a8e8401988d8a5260808501984216895260a08501978189528152808b5220925183555160018301555160028201550193511683549265ffffffffffff60a01b905160a01b169160ff60d01b9051151560d01b169264ffffffffff60d81b1617171790558251948552840152820152a280f35b634e487b7160e01b8c526041905260248bfd5b865162461bcd60e51b8152808301869052601a60248201527f496e76616c6964206174746573746f72207369676e61747572650000000000006044820152606490fd5b865162461bcd60e51b815280840186905260156024820152740a0c2f2d8dec2c840d0c2e6d040dad2e6dac2e8c6d605b1b6044820152606490fd5b885162461bcd60e51b8152808601889052601860248201527f417373657420616c7265616479207265676973746572656400000000000000006044820152606490fd5b8980fd5b8780fd5b50346100ab5760203660031901126100ab57816020936003923581528085522001549065ffffffffffff8260a01c1615159182610482575b50519015158152f35b60d01c60ff1615915038610479565b50346100ab57816003193601126100ab5780359160243567ffffffffffffffff81116105a4576104c490369084016105a8565b926104da60018060a01b036002541633146105db565b8486528560205265ffffffffffff6003848820015460a01c161561056f57508385526020859052818520600301805460ff60d01b1916600160d01b17905581518281529182018390527faf11ffb9ac163de9a3b4c399498aa17972eab8f4575e1929ee9292b0bef9e4fa926060918391908190838501378181018301879052426020830152601f01601f19168101030190a280f35b606490602084519162461bcd60e51b8352820152600f60248201526e105cdcd95d081b9bdd08199bdd5b99608a1b6044820152fd5b8480fd5b9181601f840112156105d65782359167ffffffffffffffff83116105d657602083818601950101116105d657565b600080fd5b156105e257565b60405162461bcd60e51b815260206004820152600a60248201526927b7363c9037bbb732b960b11b6044820152606490fd5b92919267ffffffffffffffff918281116106675760405192601f8201601f19908116603f0116840190811184821017610667576040528294818452818301116105d6578281602093846000960137010152565b634e487b7160e01b600052604160045260246000fd5b81519190604183036106ae576106a792506020820151906060604084015193015160001a906106b9565b9192909190565b505060009160029190565b91907f7fffffffffffffffffffffffffffffff5d576e7357a4501ddfe92f46681b20a0841161073d57926020929160ff608095604051948552168484015260408301526060820152600092839182805260015afa156107315780516001600160a01b0381161561072857918190565b50809160019190565b604051903d90823e3d90fd5b50505060009160039190565b60048110156107b8578061075b575050565b600181036107755760405163f645eedf60e01b8152600490fd5b600281036107965760405163fce698f760e01b815260048101839052602490fd5b6003146107a05750565b602490604051906335e2f38360e21b82526004820152fd5b634e487b7160e01b600052602160045260246000fdfea26469706673582212200fa632769de24e2dd8816977b91b23066eec942d0c027c2543b75af0186874d264736f6c63430008140033","opcodes":"PUSH1 0x80 DUP1 PUSH1 0x40 MSTORE CALLVALUE PUSH2 0x40 JUMPI CALLER PUSH1 0x1 DUP1 PUSH1 0xA0 SHL SUB NOT PUSH1 0x2 SLOAD AND OR PUSH1 0x2 SSTORE CALLER PUSH1 0x0 MSTORE PUSH1 0x1 PUSH1 0x20 MSTORE PUSH1 0x40 PUSH1 0x0 KECCAK256 PUSH1 0x1 PUSH1 0xFF NOT DUP3 SLOAD AND OR SWAP1 SSTORE PUSH2 0x804 SWAP1 DUP2 PUSH2 0x46 DUP3 CODECOPY RETURN JUMPDEST PUSH1 0x0 DUP1 REVERT INVALID PUSH1 0x40 PUSH1 0x80 DUP2 MSTORE PUSH1 0x4 SWAP1 DUP2 CALLDATASIZE LT ISZERO PUSH2 0x15 JUMPI PUSH1 0x0 DUP1 REVERT JUMPDEST PUSH1 0x0 SWAP2 DUP3 CALLDATALOAD PUSH1 0xE0 SHR DUP1 PUSH4 0x642D8EF EQ PUSH2 0x491 JUMPI DUP1 PUSH4 0x339F16A9 EQ PUSH2 0x441 JUMPI DUP1 PUSH4 0x70B5027C EQ PUSH2 0x19B JUMPI DUP1 PUSH4 0x8DA5CB5B EQ PUSH2 0x16E JUMPI DUP1 PUSH4 0x9FDA5B66 EQ PUSH2 0xFF JUMPI DUP1 PUSH4 0xE430970D EQ PUSH2 0xAF JUMPI PUSH4 0xF97D6341 EQ PUSH2 0x6E JUMPI PUSH1 0x0 DUP1 REVERT JUMPDEST CALLVALUE PUSH2 0xAB JUMPI PUSH1 0x20 CALLDATASIZE PUSH1 0x3 NOT ADD SLT PUSH2 0xAB JUMPI CALLDATALOAD PUSH1 0x1 PUSH1 0x1 PUSH1 0xA0 SHL SUB DUP2 AND SWAP1 DUP2 SWAP1 SUB PUSH2 0xAB JUMPI DUP2 DUP4 PUSH1 0xFF SWAP3 PUSH1 0x20 SWAP6 MSTORE PUSH1 0x1 DUP6 MSTORE KECCAK256 SLOAD AND SWAP1 MLOAD SWAP1 ISZERO ISZERO DUP2 MSTORE RETURN JUMPDEST DUP3 DUP1 REVERT JUMPDEST POP CALLVALUE PUSH2 0xAB JUMPI PUSH1 0x20 CALLDATASIZE PUSH1 0x3 NOT ADD SLT PUSH2 0xAB JUMPI CALLDATALOAD PUSH1 0x1 PUSH1 0x1 PUSH1 0xA0 SHL SUB DUP2 DUP2 AND SWAP2 DUP3 SWAP1 SUB PUSH2 0xFB JUMPI PUSH2 0xE4 SWAP1 PUSH1 0x2 SLOAD AND CALLER EQ PUSH2 0x5DB JUMP JUMPDEST DUP3 MSTORE PUSH1 0x1 PUSH1 0x20 MSTORE DUP2 KECCAK256 PUSH1 0x1 PUSH1 0xFF NOT DUP3 SLOAD AND OR SWAP1 SSTORE DUP1 RETURN JUMPDEST DUP4 DUP1 REVERT JUMPDEST POP CALLVALUE PUSH2 0xAB JUMPI PUSH1 0x20 CALLDATASIZE PUSH1 0x3 NOT ADD SLT PUSH2 0xAB JUMPI DUP2 PUSH1 0xC0 SWAP4 PUSH1 0xFF SWAP3 CALLDATALOAD DUP2 MSTORE DUP1 PUSH1 0x20 MSTORE KECCAK256 SWAP2 DUP3 SLOAD SWAP3 PUSH1 0x1 DUP2 ADD SLOAD SWAP2 PUSH1 0x3 PUSH1 0x2 DUP4 ADD SLOAD SWAP3 ADD SLOAD SWAP3 DUP2 MLOAD SWAP6 DUP7 MSTORE PUSH1 0x20 DUP7 ADD MSTORE DUP5 ADD MSTORE PUSH1 0x1 DUP1 PUSH1 0xA0 SHL SUB DUP2 AND PUSH1 0x60 DUP5 ADD MSTORE PUSH6 0xFFFFFFFFFFFF DUP2 PUSH1 0xA0 SHR AND PUSH1 0x80 DUP5 ADD MSTORE PUSH1 0xD0 SHR AND ISZERO ISZERO PUSH1 0xA0 DUP3 ADD MSTORE RETURN JUMPDEST POP POP CALLVALUE PUSH2 0x197 JUMPI DUP2 PUSH1 0x3 NOT CALLDATASIZE ADD SLT PUSH2 0x197 JUMPI PUSH1 0x2 SLOAD SWAP1 MLOAD PUSH1 0x1 PUSH1 0x1 PUSH1 0xA0 SHL SUB SWAP1 SWAP2 AND DUP2 MSTORE PUSH1 0x20 SWAP1 RETURN JUMPDEST POP DUP1 REVERT JUMPDEST POP SWAP1 CALLVALUE PUSH2 0xAB JUMPI PUSH1 0xA0 CALLDATASIZE PUSH1 0x3 NOT ADD SLT PUSH2 0xAB JUMPI DUP2 CALLDATALOAD SWAP2 PUSH1 0x44 CALLDATALOAD SWAP2 PUSH8 0xFFFFFFFFFFFFFFFF SWAP2 PUSH1 0x24 CALLDATALOAD SWAP1 PUSH1 0x64 CALLDATALOAD DUP5 DUP2 GT PUSH2 0x43D JUMPI PUSH2 0x1DA SWAP1 CALLDATASIZE SWAP1 DUP4 ADD PUSH2 0x5A8 JUMP JUMPDEST SWAP2 PUSH1 0x84 CALLDATALOAD SWAP2 DUP7 DUP4 GT PUSH2 0x439 JUMPI PUSH2 0x1F4 DUP7 SWAP4 CALLDATASIZE SWAP1 DUP5 ADD PUSH2 0x5A8 JUMP JUMPDEST SWAP2 DUP11 DUP13 MSTORE PUSH1 0x20 SWAP6 DUP13 DUP8 MSTORE DUP13 PUSH1 0x3 PUSH6 0xFFFFFFFFFFFF SWAP8 DUP9 SWAP3 KECCAK256 ADD SLOAD PUSH1 0xA0 SHR AND PUSH2 0x3F6 JUMPI DUP8 SWAP2 PUSH2 0x223 SWAP2 CALLDATASIZE SWAP2 PUSH2 0x614 JUMP JUMPDEST DUP7 DUP2 MLOAD SWAP2 ADD KECCAK256 SUB PUSH2 0x3BB JUMPI PUSH2 0x27C SWAP3 SWAP2 PUSH2 0x26D PUSH2 0x273 SWAP3 PUSH1 0x3C DUP15 PUSH32 0x19457468657265756D205369676E6564204D6573736167653A0A333200000000 DUP2 MSTORE DUP11 PUSH1 0x1C MSTORE KECCAK256 SWAP3 CALLDATASIZE SWAP2 PUSH2 0x614 JUMP JUMPDEST SWAP1 PUSH2 0x67D JUMP JUMPDEST SWAP1 SWAP4 SWAP2 SWAP4 PUSH2 0x749 JUMP JUMPDEST PUSH1 0x1 PUSH1 0x1 PUSH1 0xA0 SHL SUB SWAP2 DUP3 AND DUP1 DUP12 MSTORE PUSH1 0x1 DUP6 MSTORE DUP7 DUP12 KECCAK256 SLOAD SWAP1 SWAP8 SWAP1 PUSH1 0xFF AND ISZERO PUSH2 0x378 JUMPI DUP7 MLOAD SWAP2 PUSH1 0xC0 DUP4 ADD SWAP2 DUP3 GT DUP4 DUP4 LT OR PUSH2 0x365 JUMPI POP SWAP3 DUP10 DUP8 SWAP6 SWAP4 PUSH1 0x3 DUP14 SWAP5 PUSH1 0x60 SWAP12 SWAP10 SWAP8 PUSH32 0xF78715D23FF41830BA0F7B6DDFF9CF99F364DCF79C01595A10AFF1816DAC6454 SWAP14 SWAP12 MSTORE DUP4 DUP2 MSTORE DUP7 DUP2 ADD DUP9 DUP2 MSTORE DUP10 DUP3 ADD SWAP1 DUP13 DUP3 MSTORE DUP11 DUP15 DUP5 ADD SWAP9 DUP14 DUP11 MSTORE PUSH1 0x80 DUP6 ADD SWAP9 TIMESTAMP AND DUP10 MSTORE PUSH1 0xA0 DUP6 ADD SWAP8 DUP2 DUP10 MSTORE DUP2 MSTORE DUP1 DUP12 MSTORE KECCAK256 SWAP3 MLOAD DUP4 SSTORE MLOAD PUSH1 0x1 DUP4 ADD SSTORE MLOAD PUSH1 0x2 DUP3 ADD SSTORE ADD SWAP4 MLOAD AND DUP4 SLOAD SWAP3 PUSH6 0xFFFFFFFFFFFF PUSH1 0xA0 SHL SWAP1 MLOAD PUSH1 0xA0 SHL AND SWAP2 PUSH1 0xFF PUSH1 0xD0 SHL SWAP1 MLOAD ISZERO ISZERO PUSH1 0xD0 SHL AND SWAP3 PUSH5 0xFFFFFFFFFF PUSH1 0xD8 SHL AND OR OR OR SWAP1 SSTORE DUP3 MLOAD SWAP5 DUP6 MSTORE DUP5 ADD MSTORE DUP3 ADD MSTORE LOG2 DUP1 RETURN JUMPDEST PUSH4 0x4E487B71 PUSH1 0xE0 SHL DUP13 MSTORE PUSH1 0x41 SWAP1 MSTORE PUSH1 0x24 DUP12 REVERT JUMPDEST DUP7 MLOAD PUSH3 0x461BCD PUSH1 0xE5 SHL DUP2 MSTORE DUP1 DUP4 ADD DUP7 SWAP1 MSTORE PUSH1 0x1A PUSH1 0x24 DUP3 ADD MSTORE PUSH32 0x496E76616C6964206174746573746F72207369676E6174757265000000000000 PUSH1 0x44 DUP3 ADD MSTORE PUSH1 0x64 SWAP1 REVERT JUMPDEST DUP7 MLOAD PUSH3 0x461BCD PUSH1 0xE5 SHL DUP2 MSTORE DUP1 DUP5 ADD DUP7 SWAP1 MSTORE PUSH1 0x15 PUSH1 0x24 DUP3 ADD MSTORE PUSH21 0xA0C2F2D8DEC2C840D0C2E6D040DAD2E6DAC2E8C6D PUSH1 0x5B SHL PUSH1 0x44 DUP3 ADD MSTORE PUSH1 0x64 SWAP1 REVERT JUMPDEST DUP9 MLOAD PUSH3 0x461BCD PUSH1 0xE5 SHL DUP2 MSTORE DUP1 DUP7 ADD DUP9 SWAP1 MSTORE PUSH1 0x18 PUSH1 0x24 DUP3 ADD MSTORE PUSH32 0x417373657420616C726561647920726567697374657265640000000000000000 PUSH1 0x44 DUP3 ADD MSTORE PUSH1 0x64 SWAP1 REVERT JUMPDEST DUP10 DUP1 REVERT JUMPDEST DUP8 DUP1 REVERT JUMPDEST POP CALLVALUE PUSH2 0xAB JUMPI PUSH1 0x20 CALLDATASIZE PUSH1 0x3 NOT ADD SLT PUSH2 0xAB JUMPI DUP2 PUSH1 0x20 SWAP4 PUSH1 0x3 SWAP3 CALLDATALOAD DUP2 MSTORE DUP1 DUP6 MSTORE KECCAK256 ADD SLOAD SWAP1 PUSH6 0xFFFFFFFFFFFF DUP3 PUSH1 0xA0 SHR AND ISZERO ISZERO SWAP2 DUP3 PUSH2 0x482 JUMPI JUMPDEST POP MLOAD SWAP1 ISZERO ISZERO DUP2 MSTORE RETURN JUMPDEST PUSH1 0xD0 SHR PUSH1 0xFF AND ISZERO SWAP2 POP CODESIZE PUSH2 0x479 JUMP JUMPDEST POP CALLVALUE PUSH2 0xAB JUMPI DUP2 PUSH1 0x3 NOT CALLDATASIZE ADD SLT PUSH2 0xAB JUMPI DUP1 CALLDATALOAD SWAP2 PUSH1 0x24 CALLDATALOAD PUSH8 0xFFFFFFFFFFFFFFFF DUP2 GT PUSH2 0x5A4 JUMPI PUSH2 0x4C4 SWAP1 CALLDATASIZE SWAP1 DUP5 ADD PUSH2 0x5A8 JUMP JUMPDEST SWAP3 PUSH2 0x4DA PUSH1 0x1 DUP1 PUSH1 0xA0 SHL SUB PUSH1 0x2 SLOAD AND CALLER EQ PUSH2 0x5DB JUMP JUMPDEST DUP5 DUP7 MSTORE DUP6 PUSH1 0x20 MSTORE PUSH6 0xFFFFFFFFFFFF PUSH1 0x3 DUP5 DUP9 KECCAK256 ADD SLOAD PUSH1 0xA0 SHR AND ISZERO PUSH2 0x56F JUMPI POP DUP4 DUP6 MSTORE PUSH1 0x20 DUP6 SWAP1 MSTORE DUP2 DUP6 KECCAK256 PUSH1 0x3 ADD DUP1 SLOAD PUSH1 0xFF PUSH1 0xD0 SHL NOT AND PUSH1 0x1 PUSH1 0xD0 SHL OR SWAP1 SSTORE DUP2 MLOAD DUP3 DUP2 MSTORE SWAP2 DUP3 ADD DUP4 SWAP1 MSTORE PUSH32 0xAF11FFB9AC163DE9A3B4C399498AA17972EAB8F4575E1929EE9292B0BEF9E4FA SWAP3 PUSH1 0x60 SWAP2 DUP4 SWAP2 SWAP1 DUP2 SWAP1 DUP4 DUP6 ADD CALLDATACOPY DUP2 DUP2 ADD DUP4 ADD DUP8 SWAP1 MSTORE TIMESTAMP PUSH1 0x20 DUP4 ADD MSTORE PUSH1 0x1F ADD PUSH1 0x1F NOT AND DUP2 ADD SUB ADD SWAP1 LOG2 DUP1 RETURN JUMPDEST PUSH1 0x64 SWAP1 PUSH1 0x20 DUP5 MLOAD SWAP2 PUSH3 0x461BCD PUSH1 0xE5 SHL DUP4 MSTORE DUP3 ADD MSTORE PUSH1 0xF PUSH1 0x24 DUP3 ADD MSTORE PUSH15 0x105CDCD95D081B9BDD08199BDD5B99 PUSH1 0x8A SHL PUSH1 0x44 DUP3 ADD MSTORE REVERT JUMPDEST DUP5 DUP1 REVERT JUMPDEST SWAP2 DUP2 PUSH1 0x1F DUP5 ADD SLT ISZERO PUSH2 0x5D6 JUMPI DUP3 CALLDATALOAD SWAP2 PUSH8 0xFFFFFFFFFFFFFFFF DUP4 GT PUSH2 0x5D6 JUMPI PUSH1 0x20 DUP4 DUP2 DUP7 ADD SWAP6 ADD ADD GT PUSH2 0x5D6 JUMPI JUMP JUMPDEST PUSH1 0x0 DUP1 REVERT JUMPDEST ISZERO PUSH2 0x5E2 JUMPI JUMP JUMPDEST PUSH1 0x40 MLOAD PUSH3 0x461BCD PUSH1 0xE5 SHL DUP2 MSTORE PUSH1 0x20 PUSH1 0x4 DUP3 ADD MSTORE PUSH1 0xA PUSH1 0x24 DUP3 ADD MSTORE PUSH10 0x27B7363C9037BBB732B9 PUSH1 0xB1 SHL PUSH1 0x44 DUP3 ADD MSTORE PUSH1 0x64 SWAP1 REVERT JUMPDEST SWAP3 SWAP2 SWAP3 PUSH8 0xFFFFFFFFFFFFFFFF SWAP2 DUP3 DUP2 GT PUSH2 0x667 JUMPI PUSH1 0x40 MLOAD SWAP3 PUSH1 0x1F DUP3 ADD PUSH1 0x1F NOT SWAP1 DUP2 AND PUSH1 0x3F ADD AND DUP5 ADD SWAP1 DUP2 GT DUP5 DUP3 LT OR PUSH2 0x667 JUMPI PUSH1 0x40 MSTORE DUP3 SWAP5 DUP2 DUP5 MSTORE DUP2 DUP4 ADD GT PUSH2 0x5D6 JUMPI DUP3 DUP2 PUSH1 0x20 SWAP4 DUP5 PUSH1 0x0 SWAP7 ADD CALLDATACOPY ADD ADD MSTORE JUMP JUMPDEST PUSH4 0x4E487B71 PUSH1 0xE0 SHL PUSH1 0x0 MSTORE PUSH1 0x41 PUSH1 0x4 MSTORE PUSH1 0x24 PUSH1 0x0 REVERT JUMPDEST DUP2 MLOAD SWAP2 SWAP1 PUSH1 0x41 DUP4 SUB PUSH2 0x6AE JUMPI PUSH2 0x6A7 SWAP3 POP PUSH1 0x20 DUP3 ADD MLOAD SWAP1 PUSH1 0x60 PUSH1 0x40 DUP5 ADD MLOAD SWAP4 ADD MLOAD PUSH1 0x0 BYTE SWAP1 PUSH2 0x6B9 JUMP JUMPDEST SWAP2 SWAP3 SWAP1 SWAP2 SWAP1 JUMP JUMPDEST POP POP PUSH1 0x0 SWAP2 PUSH1 0x2 SWAP2 SWAP1 JUMP JUMPDEST SWAP2 SWAP1 PUSH32 0x7FFFFFFFFFFFFFFFFFFFFFFFFFFFFFFF5D576E7357A4501DDFE92F46681B20A0 DUP5 GT PUSH2 0x73D JUMPI SWAP3 PUSH1 0x20 SWAP3 SWAP2 PUSH1 0xFF PUSH1 0x80 SWAP6 PUSH1 0x40 MLOAD SWAP5 DUP6 MSTORE AND DUP5 DUP5 ADD MSTORE PUSH1 0x40 DUP4 ADD MSTORE PUSH1 0x60 DUP3 ADD MSTORE PUSH1 0x0 SWAP3 DUP4 SWAP2 DUP3 DUP1 MSTORE PUSH1 0x1 GAS STATICCALL ISZERO PUSH2 0x731 JUMPI DUP1 MLOAD PUSH1 0x1 PUSH1 0x1 PUSH1 0xA0 SHL SUB DUP2 AND ISZERO PUSH2 0x728 JUMPI SWAP2 DUP2 SWAP1 JUMP JUMPDEST POP DUP1 SWAP2 PUSH1 0x1 SWAP2 SWAP1 JUMP JUMPDEST PUSH1 0x40 MLOAD SWAP1 RETURNDATASIZE SWAP1 DUP3 RETURNDATACOPY RETURNDATASIZE SWAP1 REVERT JUMPDEST POP POP POP PUSH1 0x0 SWAP2 PUSH1 0x3 SWAP2 SWAP1 JUMP JUMPDEST PUSH1 0x4 DUP2 LT ISZERO PUSH2 0x7B8 JUMPI DUP1 PUSH2 0x75B JUMPI POP POP JUMP JUMPDEST PUSH1 0x1 DUP2 SUB PUSH2 0x775 JUMPI PUSH1 0x40 MLOAD PUSH4 0xF645EEDF PUSH1 0xE0 SHL DUP2 MSTORE PUSH1 0x4 SWAP1 REVERT JUMPDEST PUSH1 0x2 DUP2 SUB PUSH2 0x796 JUMPI PUSH1 0x40 MLOAD PUSH4 0xFCE698F7 PUSH1 0xE0 SHL DUP2 MSTORE PUSH1 0x4 DUP2 ADD DUP4 SWAP1 MSTORE PUSH1 0x24 SWAP1 REVERT JUMPDEST PUSH1 0x3 EQ PUSH2 0x7A0 JUMPI POP JUMP JUMPDEST PUSH1 0x24 SWAP1 PUSH1 0x40 MLOAD SWAP1 PUSH4 0x35E2F383 PUSH1 0xE2 SHL DUP3 MSTORE PUSH1 0x4 DUP3 ADD MSTORE REVERT JUMPDEST PUSH4 0x4E487B71 PUSH1 0xE0 SHL PUSH1 0x0 MSTORE PUSH1 0x21 PUSH1 0x4 MSTORE PUSH1 0x24 PUSH1 0x0 REVERT INVALID LOG2 PUSH5 0x6970667358 0x22 SLT KECCAK256 0xF 0xA6 ORIGIN PUSH23 0x9DE24E2DD8816977B91B23066EEC942D0C027C2543B75A CREATE XOR PUSH9 0x74D264736F6C634300 ADDMOD EQ STOP CALLER "},"methodIdentifiers":{"addTrustedAttestor(address)":"e430970d","assets(bytes32)":"9fda5b66","isAssetValid(bytes32)":"339f16a9","owner()":"8da5cb5b","registerAsset(bytes32,bytes32,bytes32,bytes,bytes)":"70b5027c","revokeAsset(bytes32,string)":"0642d8ef","trustedAttestors(address)":"f97d6341"}}}}}