{"contracts/core/IdentityRegistry.sol":{"IdentityRegistry":{"abi":[{"inputs":[{"internalType":"address","name":"_trustedIssuersRegistry","type":"address"}],"stateMutability":"nonpayable","type":"constructor"},{"anonymous":false,"inputs":[{"indexed":true,"internalType":"address","name":"wallet","type":"address"},{"indexed":false,"internalType":"uint256","name":"timestamp","type":"uint256"}],"name":"IdentityRegistered","type":"event"},{"anonymous":false,"inputs":[{"indexed":true,"internalType":"address","name":"wallet","type":"address"},{"indexed":false,"internalType":"uint256","name":"timestamp","type":"uint256"}],"name":"IdentityRemoved","type":"event"},{"inputs":[{"internalType":"address[]","name":"wallets","type":"address[]"}],"name":"batchRegisterIdentity","outputs":[],"stateMutability":"nonpayable","type":"function"},{"inputs":[{"internalType":"address","name":"wallet","type":"address"}],"name":"getIdentity","outputs":[{"components":[{"internalType":"bool","name":"exists","type":"bool"},{"internalType":"bool","name":"isVerified","type":"bool"},{"internalType":"uint256","name":"kycTimestamp","type":"uint256"},{"internalType":"address","name":"wallet","type":"address"}],"internalType":"struct IdentityRegistry.Identity","name":"","type":"tuple"}],"stateMutability":"view","type":"function"},{"inputs":[{"internalType":"address","name":"","type":"address"}],"name":"identities","outputs":[{"internalType":"bool","name":"exists","type":"bool"},{"internalType":"bool","name":"isVerified","type":"bool"},{"internalType":"uint256","name":"kycTimestamp","type":"uint256"},{"internalType":"address","name":"wallet","type":"address"}],"stateMutability":"view","type":"function"},{"inputs":[{"internalType":"address","name":"wallet","type":"address"}],"name":"isVerified","outputs":[{"internalType":"bool","name":"","type":"bool"}],"stateMutability":"view","type":"function"},{"inputs":[],"name":"owner","outputs":[{"internalType":"address","name":"","type":"address"}],"stateMutability":"view","type":"function"},{"inputs":[{"internalType":"address","name":"wallet","type":"address"}],"name":"registerIdentity","outputs":[],"stateMutability":"nonpayable","type":"function"},{"inputs":[{"internalType":"address","name":"wallet","type":"address"}],"name":"removeIdentity","outputs":[],"stateMutability":"nonpayable","type":"function"},{"inputs":[],"name":"trustedIssuersRegistry","outputs":[{"internalType":"contract TrustedIssuersRegistry","name":"","type":"address"}],"stateMutability":"view","type":"function"},{"inputs":[{"internalType":"address","name":"_newRegistry","type":"address"}],"name":"updateTrustedIssuersRegistry","outputs":[],"stateMutability":"nonpayable","type":"function"}],"evm":{"bytecode":{"linkReferences":{},"object":"60803461007a57601f6108d138819003918201601f19168301916001600160401b0383118484101761007f5780849260209460405283398101031261007a57516001600160a01b0381169081900361007a5760018060a01b031933816002541617600255600154161760015560405161083b90816100968239f35b600080fd5b634e487b7160e01b600052604160045260246000fdfe608060408181526004918236101561001657600080fd5b600092833560e01c9182630e944c741461069a575081632fea7b81146105eb57816363b8f8ff146104ae5781638da5cb5b146104855781639638c7c7146102ab578163b9209e331461026a578163c1f2f1aa14610120578163f653b81e146100b3575063fb703a7b1461008857600080fd5b346100af57816003193601126100af5760015490516001600160a01b039091168152602090f35b5080fd5b90503461011c57602036600319011261011c576001600160a01b03919035828116908190036101185783829160809552806020522080549260026001830154920154169160ff8151948181161515865260081c16151560208501528301526060820152f35b8380fd5b8280fd5b9190503461011c57602090816003193601126101185782356001600160a01b03818116949185900361026657808460249260015416855193848092633bcbb46960e21b825233888301525afa91821561025c579061018e9291889261022d575b50811561021f575b50610789565b83855284835260ff8286205416156101de5750828452838252808420805461ff0019169055514281527ff06dfe9062e9317cd357560ea667d65a9b032f1a674c04e99653e894e145c8fa9190a280f35b82606492519162461bcd60e51b8352820152601760248201527f4964656e7469747920646f6573206e6f742065786973740000000000000000006044820152fd5b905060025416331438610188565b61024e919250863d8811610255575b610246818361074a565b81019061076c565b9038610180565b503d61023c565b84513d89823e3d90fd5b8580fd5b90503461011c57602036600319011261011c57356001600160a01b0381169081900361011c57818360ff9260209552808552205460081c1690519015158152f35b9190503461011c576020806003193601126101185782359267ffffffffffffffff928385116102665736602386011215610266578482013593841161026657602492838601958436918760051b0101116104815760018060a01b036001968583838a5416865192838092633bcbb46960e21b8252338b8301525afa908115610477578a9161045a575b50801561044d575b61034590610789565b885b878110610352578980f35b61035d8189846107cb565b610366906107f1565b838b8a8c8980519361037785610718565b8285528a850192835285828601944286528982606089019a168a5261039c918c6107cb565b6103a5906107f1565b168152808b522092518354915161ffff1990921660ff911515919091161790151560081b61ff0016178255518c8201556002019151166001600160601b0360a01b825416179055826103f8828a856107cb565b610401906107f1565b168551854282527f22bfb6218489c201b6ec174e5dd0380b7877b3a2d12eed0542f6b5e8ef712f2891a2600019811461043b578801610347565b634e487b7160e01b8a5260118652868afd5b506002548216331461033c565b6104719150843d861161025557610246818361074a565b38610334565b85513d8c823e3d90fd5b8680fd5b5050346100af57816003193601126100af5760025490516001600160a01b039091168152602090f35b9190503461011c576020806003193601126101185782356001600160a01b03818116939184900361026657828160015416956024845180988193633bcbb46960e21b835233908301525afa80156105e1577f22bfb6218489c201b6ec174e5dd0380b7877b3a2d12eed0542f6b5e8ef712f28949587916105c4575b5080156105b7575b61053a90610789565b81519061054682610718565b60018083528483019081524284840190815260608401888152888a52898752858a2094518554935161ffff1990941660ff911515919091161792151560081b61ff00169290921784559092600291516001820155019151166001600160601b0360a01b82541617905551428152a280f35b5060025481163314610531565b6105db9150843d861161025557610246818361074a565b38610529565b82513d88823e3d90fd5b90503461011c57602036600319011261011c576001600160a01b03903581811690819003610118578383916080956060845161062681610718565b82815282602082015282868201520152815280602052209180519061064a82610718565b83549360ff851615159485845260ff602085019160081c16151581526060856002600185015494868801958652015416940193845282519586525115156020860152519084015251166060820152f35b8492503461011c57602036600319011261011c5781356001600160a01b038181169391849003610714576002541633036106e65750506001600160601b0360a01b600154161760015580f35b62461bcd60e51b8252602090820152600a60248201526927b7363c9037bbb732b960b11b6044820152606490fd5b8480fd5b6080810190811067ffffffffffffffff82111761073457604052565b634e487b7160e01b600052604160045260246000fd5b90601f8019910116810190811067ffffffffffffffff82111761073457604052565b90816020910312610784575180151581036107845790565b600080fd5b1561079057565b60405162461bcd60e51b815260206004820152601360248201527227b7363c903a393ab9ba32b21034b9b9bab2b960691b6044820152606490fd5b91908110156107db5760051b0190565b634e487b7160e01b600052603260045260246000fd5b356001600160a01b0381168103610784579056fea264697066735822122033f1ce46827f65d1e00dd477a3caf1d6c7209a22646f398b0da958636ebb5cc964736f6c63430008140033","opcodes":"PUSH1 0x80 CALLVALUE PUSH2 0x7A JUMPI PUSH1 0x1F PUSH2 0x8D1 CODESIZE DUP2 SWAP1 SUB SWAP2 DUP3 ADD PUSH1 0x1F NOT AND DUP4 ADD SWAP2 PUSH1 0x1 PUSH1 0x1 PUSH1 0x40 SHL SUB DUP4 GT DUP5 DUP5 LT OR PUSH2 0x7F JUMPI DUP1 DUP5 SWAP3 PUSH1 0x20 SWAP5 PUSH1 0x40 MSTORE DUP4 CODECOPY DUP2 ADD SUB SLT PUSH2 0x7A JUMPI MLOAD PUSH1 0x1 PUSH1 0x1 PUSH1 0xA0 SHL SUB DUP2 AND SWAP1 DUP2 SWAP1 SUB PUSH2 0x7A JUMPI PUSH1 0x1 DUP1 PUSH1 0xA0 SHL SUB NOT CALLER DUP2 PUSH1 0x2 SLOAD AND OR PUSH1 0x2 SSTORE PUSH1 0x1 SLOAD AND OR PUSH1 0x1 SSTORE PUSH1 0x40 MLOAD PUSH2 0x83B SWAP1 DUP2 PUSH2 0x96 DUP3 CODECOPY RETURN JUMPDEST PUSH1 0x0 DUP1 REVERT JUMPDEST PUSH4 0x4E487B71 PUSH1 0xE0 SHL PUSH1 0x0 MSTORE PUSH1 0x41 PUSH1 0x4 MSTORE PUSH1 0x24 PUSH1 0x0 REVERT INVALID PUSH1 0x80 PUSH1 0x40 DUP2 DUP2 MSTORE PUSH1 0x4 SWAP2 DUP3 CALLDATASIZE LT ISZERO PUSH2 0x16 JUMPI PUSH1 0x0 DUP1 REVERT JUMPDEST PUSH1 0x0 SWAP3 DUP4 CALLDATALOAD PUSH1 0xE0 SHR SWAP2 DUP3 PUSH4 0xE944C74 EQ PUSH2 0x69A JUMPI POP DUP2 PUSH4 0x2FEA7B81 EQ PUSH2 0x5EB JUMPI DUP2 PUSH4 0x63B8F8FF EQ PUSH2 0x4AE JUMPI DUP2 PUSH4 0x8DA5CB5B EQ PUSH2 0x485 JUMPI DUP2 PUSH4 0x9638C7C7 EQ PUSH2 0x2AB JUMPI DUP2 PUSH4 0xB9209E33 EQ PUSH2 0x26A JUMPI DUP2 PUSH4 0xC1F2F1AA EQ PUSH2 0x120 JUMPI DUP2 PUSH4 0xF653B81E EQ PUSH2 0xB3 JUMPI POP PUSH4 0xFB703A7B EQ PUSH2 0x88 JUMPI PUSH1 0x0 DUP1 REVERT JUMPDEST CALLVALUE PUSH2 0xAF JUMPI DUP2 PUSH1 0x3 NOT CALLDATASIZE ADD SLT PUSH2 0xAF JUMPI PUSH1 0x1 SLOAD SWAP1 MLOAD PUSH1 0x1 PUSH1 0x1 PUSH1 0xA0 SHL SUB SWAP1 SWAP2 AND DUP2 MSTORE PUSH1 0x20 SWAP1 RETURN JUMPDEST POP DUP1 REVERT JUMPDEST SWAP1 POP CALLVALUE PUSH2 0x11C JUMPI PUSH1 0x20 CALLDATASIZE PUSH1 0x3 NOT ADD SLT PUSH2 0x11C JUMPI PUSH1 0x1 PUSH1 0x1 PUSH1 0xA0 SHL SUB SWAP2 SWAP1 CALLDATALOAD DUP3 DUP2 AND SWAP1 DUP2 SWAP1 SUB PUSH2 0x118 JUMPI DUP4 DUP3 SWAP2 PUSH1 0x80 SWAP6 MSTORE DUP1 PUSH1 0x20 MSTORE KECCAK256 DUP1 SLOAD SWAP3 PUSH1 0x2 PUSH1 0x1 DUP4 ADD SLOAD SWAP3 ADD SLOAD AND SWAP2 PUSH1 0xFF DUP2 MLOAD SWAP5 DUP2 DUP2 AND ISZERO ISZERO DUP7 MSTORE PUSH1 0x8 SHR AND ISZERO ISZERO PUSH1 0x20 DUP6 ADD MSTORE DUP4 ADD MSTORE PUSH1 0x60 DUP3 ADD MSTORE RETURN JUMPDEST DUP4 DUP1 REVERT JUMPDEST DUP3 DUP1 REVERT JUMPDEST SWAP2 SWAP1 POP CALLVALUE PUSH2 0x11C JUMPI PUSH1 0x20 SWAP1 DUP2 PUSH1 0x3 NOT CALLDATASIZE ADD SLT PUSH2 0x118 JUMPI DUP3 CALLDATALOAD PUSH1 0x1 PUSH1 0x1 PUSH1 0xA0 SHL SUB DUP2 DUP2 AND SWAP5 SWAP2 DUP6 SWAP1 SUB PUSH2 0x266 JUMPI DUP1 DUP5 PUSH1 0x24 SWAP3 PUSH1 0x1 SLOAD AND DUP6 MLOAD SWAP4 DUP5 DUP1 SWAP3 PUSH4 0x3BCBB469 PUSH1 0xE2 SHL DUP3 MSTORE CALLER DUP9 DUP4 ADD MSTORE GAS STATICCALL SWAP2 DUP3 ISZERO PUSH2 0x25C JUMPI SWAP1 PUSH2 0x18E SWAP3 SWAP2 DUP9 SWAP3 PUSH2 0x22D JUMPI JUMPDEST POP DUP2 ISZERO PUSH2 0x21F JUMPI JUMPDEST POP PUSH2 0x789 JUMP JUMPDEST DUP4 DUP6 MSTORE DUP5 DUP4 MSTORE PUSH1 0xFF DUP3 DUP7 KECCAK256 SLOAD AND ISZERO PUSH2 0x1DE JUMPI POP DUP3 DUP5 MSTORE DUP4 DUP3 MSTORE DUP1 DUP5 KECCAK256 DUP1 SLOAD PUSH2 0xFF00 NOT AND SWAP1 SSTORE MLOAD TIMESTAMP DUP2 MSTORE PUSH32 0xF06DFE9062E9317CD357560EA667D65A9B032F1A674C04E99653E894E145C8FA SWAP2 SWAP1 LOG2 DUP1 RETURN JUMPDEST DUP3 PUSH1 0x64 SWAP3 MLOAD SWAP2 PUSH3 0x461BCD PUSH1 0xE5 SHL DUP4 MSTORE DUP3 ADD MSTORE PUSH1 0x17 PUSH1 0x24 DUP3 ADD MSTORE PUSH32 0x4964656E7469747920646F6573206E6F74206578697374000000000000000000 PUSH1 0x44 DUP3 ADD MSTORE REVERT JUMPDEST SWAP1 POP PUSH1 0x2 SLOAD AND CALLER EQ CODESIZE PUSH2 0x188 JUMP JUMPDEST PUSH2 0x24E SWAP2 SWAP3 POP DUP7 RETURNDATASIZE DUP9 GT PUSH2 0x255 JUMPI JUMPDEST PUSH2 0x246 DUP2 DUP4 PUSH2 0x74A JUMP JUMPDEST DUP2 ADD SWAP1 PUSH2 0x76C JUMP JUMPDEST SWAP1 CODESIZE PUSH2 0x180 JUMP JUMPDEST POP RETURNDATASIZE PUSH2 0x23C JUMP JUMPDEST DUP5 MLOAD RETURNDATASIZE DUP10 DUP3 RETURNDATACOPY RETURNDATASIZE SWAP1 REVERT JUMPDEST DUP6 DUP1 REVERT JUMPDEST SWAP1 POP CALLVALUE PUSH2 0x11C JUMPI PUSH1 0x20 CALLDATASIZE PUSH1 0x3 NOT ADD SLT PUSH2 0x11C JUMPI CALLDATALOAD PUSH1 0x1 PUSH1 0x1 PUSH1 0xA0 SHL SUB DUP2 AND SWAP1 DUP2 SWAP1 SUB PUSH2 0x11C JUMPI DUP2 DUP4 PUSH1 0xFF SWAP3 PUSH1 0x20 SWAP6 MSTORE DUP1 DUP6 MSTORE KECCAK256 SLOAD PUSH1 0x8 SHR AND SWAP1 MLOAD SWAP1 ISZERO ISZERO DUP2 MSTORE RETURN JUMPDEST SWAP2 SWAP1 POP CALLVALUE PUSH2 0x11C JUMPI PUSH1 0x20 DUP1 PUSH1 0x3 NOT CALLDATASIZE ADD SLT PUSH2 0x118 JUMPI DUP3 CALLDATALOAD SWAP3 PUSH8 0xFFFFFFFFFFFFFFFF SWAP3 DUP4 DUP6 GT PUSH2 0x266 JUMPI CALLDATASIZE PUSH1 0x23 DUP7 ADD SLT ISZERO PUSH2 0x266 JUMPI DUP5 DUP3 ADD CALLDATALOAD SWAP4 DUP5 GT PUSH2 0x266 JUMPI PUSH1 0x24 SWAP3 DUP4 DUP7 ADD SWAP6 DUP5 CALLDATASIZE SWAP2 DUP8 PUSH1 0x5 SHL ADD ADD GT PUSH2 0x481 JUMPI PUSH1 0x1 DUP1 PUSH1 0xA0 SHL SUB PUSH1 0x1 SWAP7 DUP6 DUP4 DUP4 DUP11 SLOAD AND DUP7 MLOAD SWAP3 DUP4 DUP1 SWAP3 PUSH4 0x3BCBB469 PUSH1 0xE2 SHL DUP3 MSTORE CALLER DUP12 DUP4 ADD MSTORE GAS STATICCALL SWAP1 DUP2 ISZERO PUSH2 0x477 JUMPI DUP11 SWAP2 PUSH2 0x45A JUMPI JUMPDEST POP DUP1 ISZERO PUSH2 0x44D JUMPI JUMPDEST PUSH2 0x345 SWAP1 PUSH2 0x789 JUMP JUMPDEST DUP9 JUMPDEST DUP8 DUP2 LT PUSH2 0x352 JUMPI DUP10 DUP1 RETURN JUMPDEST PUSH2 0x35D DUP2 DUP10 DUP5 PUSH2 0x7CB JUMP JUMPDEST PUSH2 0x366 SWAP1 PUSH2 0x7F1 JUMP JUMPDEST DUP4 DUP12 DUP11 DUP13 DUP10 DUP1 MLOAD SWAP4 PUSH2 0x377 DUP6 PUSH2 0x718 JUMP JUMPDEST DUP3 DUP6 MSTORE DUP11 DUP6 ADD SWAP3 DUP4 MSTORE DUP6 DUP3 DUP7 ADD SWAP5 TIMESTAMP DUP7 MSTORE DUP10 DUP3 PUSH1 0x60 DUP10 ADD SWAP11 AND DUP11 MSTORE PUSH2 0x39C SWAP2 DUP13 PUSH2 0x7CB JUMP JUMPDEST PUSH2 0x3A5 SWAP1 PUSH2 0x7F1 JUMP JUMPDEST AND DUP2 MSTORE DUP1 DUP12 MSTORE KECCAK256 SWAP3 MLOAD DUP4 SLOAD SWAP2 MLOAD PUSH2 0xFFFF NOT SWAP1 SWAP3 AND PUSH1 0xFF SWAP2 ISZERO ISZERO SWAP2 SWAP1 SWAP2 AND OR SWAP1 ISZERO ISZERO PUSH1 0x8 SHL PUSH2 0xFF00 AND OR DUP3 SSTORE MLOAD DUP13 DUP3 ADD SSTORE PUSH1 0x2 ADD SWAP2 MLOAD AND PUSH1 0x1 PUSH1 0x1 PUSH1 0x60 SHL SUB PUSH1 0xA0 SHL DUP3 SLOAD AND OR SWAP1 SSTORE DUP3 PUSH2 0x3F8 DUP3 DUP11 DUP6 PUSH2 0x7CB JUMP JUMPDEST PUSH2 0x401 SWAP1 PUSH2 0x7F1 JUMP JUMPDEST AND DUP6 MLOAD DUP6 TIMESTAMP DUP3 MSTORE PUSH32 0x22BFB6218489C201B6EC174E5DD0380B7877B3A2D12EED0542F6B5E8EF712F28 SWAP2 LOG2 PUSH1 0x0 NOT DUP2 EQ PUSH2 0x43B JUMPI DUP9 ADD PUSH2 0x347 JUMP JUMPDEST PUSH4 0x4E487B71 PUSH1 0xE0 SHL DUP11 MSTORE PUSH1 0x11 DUP7 MSTORE DUP7 DUP11 REVERT JUMPDEST POP PUSH1 0x2 SLOAD DUP3 AND CALLER EQ PUSH2 0x33C JUMP JUMPDEST PUSH2 0x471 SWAP2 POP DUP5 RETURNDATASIZE DUP7 GT PUSH2 0x255 JUMPI PUSH2 0x246 DUP2 DUP4 PUSH2 0x74A JUMP JUMPDEST CODESIZE PUSH2 0x334 JUMP JUMPDEST DUP6 MLOAD RETURNDATASIZE DUP13 DUP3 RETURNDATACOPY RETURNDATASIZE SWAP1 REVERT JUMPDEST DUP7 DUP1 REVERT JUMPDEST POP POP CALLVALUE PUSH2 0xAF JUMPI DUP2 PUSH1 0x3 NOT CALLDATASIZE ADD SLT PUSH2 0xAF JUMPI PUSH1 0x2 SLOAD SWAP1 MLOAD PUSH1 0x1 PUSH1 0x1 PUSH1 0xA0 SHL SUB SWAP1 SWAP2 AND DUP2 MSTORE PUSH1 0x20 SWAP1 RETURN JUMPDEST SWAP2 SWAP1 POP CALLVALUE PUSH2 0x11C JUMPI PUSH1 0x20 DUP1 PUSH1 0x3 NOT CALLDATASIZE ADD SLT PUSH2 0x118 JUMPI DUP3 CALLDATALOAD PUSH1 0x1 PUSH1 0x1 PUSH1 0xA0 SHL SUB DUP2 DUP2 AND SWAP4 SWAP2 DUP5 SWAP1 SUB PUSH2 0x266 JUMPI DUP3 DUP2 PUSH1 0x1 SLOAD AND SWAP6 PUSH1 0x24 DUP5 MLOAD DUP1 SWAP9 DUP2 SWAP4 PUSH4 0x3BCBB469 PUSH1 0xE2 SHL DUP4 MSTORE CALLER SWAP1 DUP4 ADD MSTORE GAS STATICCALL DUP1 ISZERO PUSH2 0x5E1 JUMPI PUSH32 0x22BFB6218489C201B6EC174E5DD0380B7877B3A2D12EED0542F6B5E8EF712F28 SWAP5 SWAP6 DUP8 SWAP2 PUSH2 0x5C4 JUMPI JUMPDEST POP DUP1 ISZERO PUSH2 0x5B7 JUMPI JUMPDEST PUSH2 0x53A SWAP1 PUSH2 0x789 JUMP JUMPDEST DUP2 MLOAD SWAP1 PUSH2 0x546 DUP3 PUSH2 0x718 JUMP JUMPDEST PUSH1 0x1 DUP1 DUP4 MSTORE DUP5 DUP4 ADD SWAP1 DUP2 MSTORE TIMESTAMP DUP5 DUP5 ADD SWAP1 DUP2 MSTORE PUSH1 0x60 DUP5 ADD DUP9 DUP2 MSTORE DUP9 DUP11 MSTORE DUP10 DUP8 MSTORE DUP6 DUP11 KECCAK256 SWAP5 MLOAD DUP6 SLOAD SWAP4 MLOAD PUSH2 0xFFFF NOT SWAP1 SWAP5 AND PUSH1 0xFF SWAP2 ISZERO ISZERO SWAP2 SWAP1 SWAP2 AND OR SWAP3 ISZERO ISZERO PUSH1 0x8 SHL PUSH2 0xFF00 AND SWAP3 SWAP1 SWAP3 OR DUP5 SSTORE SWAP1 SWAP3 PUSH1 0x2 SWAP2 MLOAD PUSH1 0x1 DUP3 ADD SSTORE ADD SWAP2 MLOAD AND PUSH1 0x1 PUSH1 0x1 PUSH1 0x60 SHL SUB PUSH1 0xA0 SHL DUP3 SLOAD AND OR SWAP1 SSTORE MLOAD TIMESTAMP DUP2 MSTORE LOG2 DUP1 RETURN JUMPDEST POP PUSH1 0x2 SLOAD DUP2 AND CALLER EQ PUSH2 0x531 JUMP JUMPDEST PUSH2 0x5DB SWAP2 POP DUP5 RETURNDATASIZE DUP7 GT PUSH2 0x255 JUMPI PUSH2 0x246 DUP2 DUP4 PUSH2 0x74A JUMP JUMPDEST CODESIZE PUSH2 0x529 JUMP JUMPDEST DUP3 MLOAD RETURNDATASIZE DUP9 DUP3 RETURNDATACOPY RETURNDATASIZE SWAP1 REVERT JUMPDEST SWAP1 POP CALLVALUE PUSH2 0x11C JUMPI PUSH1 0x20 CALLDATASIZE PUSH1 0x3 NOT ADD SLT PUSH2 0x11C JUMPI PUSH1 0x1 PUSH1 0x1 PUSH1 0xA0 SHL SUB SWAP1 CALLDATALOAD DUP2 DUP2 AND SWAP1 DUP2 SWAP1 SUB PUSH2 0x118 JUMPI DUP4 DUP4 SWAP2 PUSH1 0x80 SWAP6 PUSH1 0x60 DUP5 MLOAD PUSH2 0x626 DUP2 PUSH2 0x718 JUMP JUMPDEST DUP3 DUP2 MSTORE DUP3 PUSH1 0x20 DUP3 ADD MSTORE DUP3 DUP7 DUP3 ADD MSTORE ADD MSTORE DUP2 MSTORE DUP1 PUSH1 0x20 MSTORE KECCAK256 SWAP2 DUP1 MLOAD SWAP1 PUSH2 0x64A DUP3 PUSH2 0x718 JUMP JUMPDEST DUP4 SLOAD SWAP4 PUSH1 0xFF DUP6 AND ISZERO ISZERO SWAP5 DUP6 DUP5 MSTORE PUSH1 0xFF PUSH1 0x20 DUP6 ADD SWAP2 PUSH1 0x8 SHR AND ISZERO ISZERO DUP2 MSTORE PUSH1 0x60 DUP6 PUSH1 0x2 PUSH1 0x1 DUP6 ADD SLOAD SWAP5 DUP7 DUP9 ADD SWAP6 DUP7 MSTORE ADD SLOAD AND SWAP5 ADD SWAP4 DUP5 MSTORE DUP3 MLOAD SWAP6 DUP7 MSTORE MLOAD ISZERO ISZERO PUSH1 0x20 DUP7 ADD MSTORE MLOAD SWAP1 DUP5 ADD MSTORE MLOAD AND PUSH1 0x60 DUP3 ADD MSTORE RETURN JUMPDEST DUP5 SWAP3 POP CALLVALUE PUSH2 0x11C JUMPI PUSH1 0x20 CALLDATASIZE PUSH1 0x3 NOT ADD SLT PUSH2 0x11C JUMPI DUP2 CALLDATALOAD PUSH1 0x1 PUSH1 0x1 PUSH1 0xA0 SHL SUB DUP2 DUP2 AND SWAP4 SWAP2 DUP5 SWAP1 SUB PUSH2 0x714 JUMPI PUSH1 0x2 SLOAD AND CALLER SUB PUSH2 0x6E6 JUMPI POP POP PUSH1 0x1 PUSH1 0x1 PUSH1 0x60 SHL SUB PUSH1 0xA0 SHL PUSH1 0x1 SLOAD AND OR PUSH1 0x1 SSTORE DUP1 RETURN JUMPDEST PUSH3 0x461BCD PUSH1 0xE5 SHL DUP3 MSTORE PUSH1 0x20 SWAP1 DUP3 ADD MSTORE PUSH1 0xA PUSH1 0x24 DUP3 ADD MSTORE PUSH10 0x27B7363C9037BBB732B9 PUSH1 0xB1 SHL PUSH1 0x44 DUP3 ADD MSTORE PUSH1 0x64 SWAP1 REVERT JUMPDEST DUP5 DUP1 REVERT JUMPDEST PUSH1 0x80 DUP2 ADD SWAP1 DUP2 LT PUSH8 0xFFFFFFFFFFFFFFFF DUP3 GT OR PUSH2 0x734 JUMPI PUSH1 0x40 MSTORE JUMP JUMPDEST PUSH4 0x4E487B71 PUSH1 0xE0 SHL PUSH1 0x0 MSTORE PUSH1 0x41 PUSH1 0x4 MSTORE PUSH1 0x24 PUSH1 0x0 REVERT JUMPDEST SWAP1 PUSH1 0x1F DUP1 NOT SWAP2 ADD AND DUP2 ADD SWAP1 DUP2 LT PUSH8 0xFFFFFFFFFFFFFFFF DUP3 GT OR PUSH2 0x734 JUMPI PUSH1 0x40 MSTORE JUMP JUMPDEST SWAP1 DUP2 PUSH1 0x20 SWAP2 SUB SLT PUSH2 0x784 JUMPI MLOAD DUP1 ISZERO ISZERO DUP2 SUB PUSH2 0x784 JUMPI SWAP1 JUMP JUMPDEST PUSH1 0x0 DUP1 REVERT JUMPDEST ISZERO PUSH2 0x790 JUMPI JUMP JUMPDEST PUSH1 0x40 MLOAD PUSH3 0x461BCD PUSH1 0xE5 SHL DUP2 MSTORE PUSH1 0x20 PUSH1 0x4 DUP3 ADD MSTORE PUSH1 0x13 PUSH1 0x24 DUP3 ADD MSTORE PUSH19 0x27B7363C903A393AB9BA32B21034B9B9BAB2B9 PUSH1 0x69 SHL PUSH1 0x44 DUP3 ADD MSTORE PUSH1 0x64 SWAP1 REVERT JUMPDEST SWAP2 SWAP1 DUP2 LT ISZERO PUSH2 0x7DB JUMPI PUSH1 0x5 SHL ADD SWAP1 JUMP JUMPDEST PUSH4 0x4E487B71 PUSH1 0xE0 SHL PUSH1 0x0 MSTORE PUSH1 0x32 PUSH1 0x4 MSTORE PUSH1 0x24 PUSH1 0x0 REVERT JUMPDEST CALLDATALOAD PUSH1 0x1 PUSH1 0x1 PUSH1 0xA0 SHL SUB DUP2 AND DUP2 SUB PUSH2 0x784 JUMPI SWAP1 JUMP INVALID LOG2 PUSH5 0x6970667358 0x22 SLT KECCAK256 CALLER CALL 0xCE CHAINID DUP3 PUSH32 0x65D1E00DD477A3CAF1D6C7209A22646F398B0DA958636EBB5CC964736F6C6343 STOP ADDMOD EQ STOP CALLER "},"methodIdentifiers":{"batchRegisterIdentity(address[])":"9638c7c7","getIdentity(address)":"2fea7b81","identities(address)":"f653b81e","isVerified(address)":"b9209e33","owner()":"8da5cb5b","registerIdentity(address)":"63b8f8ff","removeIdentity(address)":"c1f2f1aa","trustedIssuersRegistry()":"fb703a7b","updateTrustedIssuersRegistry(address)":"0e944c74"}}}}}