{"contracts/marketplace/PrimaryMarket.sol":{"PrimaryMarket":{"abi":[{"inputs":[{"internalType":"address","name":"_factory","type":"address"},{"internalType":"address","name":"_platformCustody","type":"address"},{"internalType":"address","name":"_USDC","type":"address"}],"stateMutability":"nonpayable","type":"constructor"},{"anonymous":false,"inputs":[{"indexed":true,"internalType":"bytes32","name":"assetId","type":"bytes32"},{"indexed":false,"internalType":"uint256","name":"clearingPrice","type":"uint256"},{"indexed":false,"internalType":"uint256","name":"totalTokensSold","type":"uint256"}],"name":"AuctionEnded","type":"event"},{"anonymous":false,"inputs":[{"indexed":true,"internalType":"bytes32","name":"assetId","type":"bytes32"},{"indexed":true,"internalType":"address","name":"bidder","type":"address"},{"indexed":false,"internalType":"uint256","name":"tokensReceived","type":"uint256"},{"indexed":false,"internalType":"uint256","name":"cost","type":"uint256"},{"indexed":false,"internalType":"uint256","name":"refund","type":"uint256"}],"name":"BidSettled","type":"event"},{"anonymous":false,"inputs":[{"indexed":true,"internalType":"bytes32","name":"assetId","type":"bytes32"},{"indexed":true,"internalType":"address","name":"bidder","type":"address"},{"indexed":false,"internalType":"uint256","name":"tokenAmount","type":"uint256"},{"indexed":false,"internalType":"uint256","name":"price","type":"uint256"},{"indexed":false,"internalType":"uint256","name":"bidIndex","type":"uint256"}],"name":"BidSubmitted","type":"event"},{"anonymous":false,"inputs":[{"indexed":true,"internalType":"bytes32","name":"assetId","type":"bytes32"},{"indexed":false,"internalType":"address","name":"tokenAddress","type":"address"},{"indexed":false,"internalType":"enum PrimaryMarket.ListingType","name":"listingType","type":"uint8"},{"indexed":false,"internalType":"uint256","name":"priceOrReserve","type":"uint256"}],"name":"ListingCreated","type":"event"},{"anonymous":false,"inputs":[{"indexed":true,"internalType":"bytes32","name":"assetId","type":"bytes32"},{"indexed":true,"internalType":"address","name":"buyer","type":"address"},{"indexed":false,"internalType":"uint256","name":"amount","type":"uint256"},{"indexed":false,"internalType":"uint256","name":"price","type":"uint256"},{"indexed":false,"internalType":"uint256","name":"totalPayment","type":"uint256"}],"name":"TokensPurchased","type":"event"},{"anonymous":false,"inputs":[{"indexed":true,"internalType":"address","name":"vault","type":"address"},{"indexed":false,"internalType":"bool","name":"authorized","type":"bool"}],"name":"VaultAuthorized","type":"event"},{"inputs":[],"name":"USDC","outputs":[{"internalType":"contract IERC20","name":"","type":"address"}],"stateMutability":"view","type":"function"},{"inputs":[{"internalType":"address","name":"vault","type":"address"},{"internalType":"bool","name":"authorized","type":"bool"}],"name":"authorizeVault","outputs":[],"stateMutability":"nonpayable","type":"function"},{"inputs":[{"internalType":"address","name":"","type":"address"}],"name":"authorizedVaults","outputs":[{"internalType":"bool","name":"","type":"bool"}],"stateMutability":"view","type":"function"},{"inputs":[{"internalType":"bytes32","name":"","type":"bytes32"},{"internalType":"uint256","name":"","type":"uint256"}],"name":"bids","outputs":[{"internalType":"address","name":"bidder","type":"address"},{"internalType":"uint256","name":"tokenAmount","type":"uint256"},{"internalType":"uint256","name":"price","type":"uint256"},{"internalType":"uint256","name":"usdcDeposited","type":"uint256"},{"internalType":"bool","name":"settled","type":"bool"}],"stateMutability":"view","type":"function"},{"inputs":[{"internalType":"bytes32","name":"assetId","type":"bytes32"},{"internalType":"uint256","name":"amount","type":"uint256"}],"name":"buyTokens","outputs":[],"stateMutability":"nonpayable","type":"function"},{"inputs":[{"internalType":"bytes32","name":"assetId","type":"bytes32"}],"name":"closeListing","outputs":[],"stateMutability":"nonpayable","type":"function"},{"inputs":[{"internalType":"bytes32","name":"assetId","type":"bytes32"},{"internalType":"address","name":"tokenAddress","type":"address"},{"internalType":"enum PrimaryMarket.ListingType","name":"listingType","type":"uint8"},{"internalType":"uint256","name":"priceOrReserve","type":"uint256"},{"internalType":"uint256","name":"minPrice","type":"uint256"},{"internalType":"uint256","name":"duration","type":"uint256"},{"internalType":"uint256","name":"totalSupply","type":"uint256"},{"internalType":"uint256","name":"minInvestment","type":"uint256"}],"name":"createListing","outputs":[],"stateMutability":"nonpayable","type":"function"},{"inputs":[{"internalType":"bytes32","name":"assetId","type":"bytes32"},{"internalType":"uint256","name":"clearingPrice","type":"uint256"}],"name":"endAuction","outputs":[],"stateMutability":"nonpayable","type":"function"},{"inputs":[],"name":"factory","outputs":[{"internalType":"address","name":"","type":"address"}],"stateMutability":"view","type":"function"},{"inputs":[{"internalType":"bytes32","name":"assetId","type":"bytes32"}],"name":"getBidCount","outputs":[{"internalType":"uint256","name":"","type":"uint256"}],"stateMutability":"view","type":"function"},{"inputs":[{"internalType":"bytes32","name":"","type":"bytes32"}],"name":"listings","outputs":[{"internalType":"address","name":"tokenAddress","type":"address"},{"internalType":"bytes32","name":"assetId","type":"bytes32"},{"internalType":"enum PrimaryMarket.ListingType","name":"listingType","type":"uint8"},{"internalType":"uint256","name":"staticPrice","type":"uint256"},{"internalType":"uint256","name":"minPrice","type":"uint256"},{"internalType":"uint256","name":"reservePrice","type":"uint256"},{"internalType":"uint256","name":"endTime","type":"uint256"},{"internalType":"uint256","name":"clearingPrice","type":"uint256"},{"internalType":"enum PrimaryMarket.AuctionPhase","name":"auctionPhase","type":"uint8"},{"internalType":"uint256","name":"totalSupply","type":"uint256"},{"internalType":"uint256","name":"sold","type":"uint256"},{"internalType":"bool","name":"active","type":"bool"},{"internalType":"uint256","name":"minInvestment","type":"uint256"}],"stateMutability":"view","type":"function"},{"inputs":[],"name":"owner","outputs":[{"internalType":"address","name":"","type":"address"}],"stateMutability":"view","type":"function"},{"inputs":[],"name":"platformCustody","outputs":[{"internalType":"address","name":"","type":"address"}],"stateMutability":"view","type":"function"},{"inputs":[{"internalType":"bytes32","name":"assetId","type":"bytes32"},{"internalType":"uint256","name":"bidIndex","type":"uint256"}],"name":"settleBid","outputs":[],"stateMutability":"nonpayable","type":"function"},{"inputs":[{"internalType":"bytes32","name":"assetId","type":"bytes32"},{"internalType":"uint256","name":"tokenAmount","type":"uint256"},{"internalType":"uint256","name":"price","type":"uint256"}],"name":"submitBid","outputs":[],"stateMutability":"nonpayable","type":"function"}],"evm":{"bytecode":{"linkReferences":{},"object":"6080346100ab57601f6115aa38819003918201601f19168301916001600160401b038311848410176100b0578084926060946040528339810103126100ab57610047816100c6565b906100606040610059602084016100c6565b92016100c6565b60018060a01b0319923384600554161760055560018060a01b03928380921685600454161760045516836002541617600255169060035416176003556040516114cf90816100db8239f35b600080fd5b634e487b7160e01b600052604160045260246000fd5b51906001600160a01b03821682036100ab5756fe60406080815260048036101561001457600080fd5b600091823560e01c806307f5d63314610f8757806315659dde14610f5f578063299aa1d714610f36578063393b851614610ef85780633dddafa714610eb957806369a361cc14610de757806389a3027114610dbe5780638da5cb5b14610d95578063a03f7d1914610cad578063af8e810014610acb578063be0b42311461077f578063c18b8db4146106ac578063c45a015514610684578063f69314be1461013b5763f7e65b1c146100c557600080fd5b34610137576100d33661122d565b939081526001602052818120908154851015610134575060a0936100f69161127e565b50600180851b038154169260018201549260ff6002840154926003850154940154169381519586526020860152840152606083015215156080820152f35b80fd5b8280fd5b5090346101375761014b3661122d565b81859392935260209185835284862091610177600160ff6002860154166101718161125e565b14611400565b600160ff60088501541661018a8161125e565b0361064d576101a2908588526001855286882061127e565b50928184019384549160ff83166106195781546001600160a01b039690871693338514801561060c575b156105c95760ff191660011790556002820154600786018054909491111561055157506001820154938960098701549461020c600a890196875490611390565b808811610549575b50861561048d5783878c94938b670de0b6b3a76400006102388461029c975461139d565b049b6102488d60038c0154611390565b9a6102548582546112e9565b90555416908c60025416908d8a5416918851968795869485936323b872dd60e01b85528b850160409194939294606082019560018060a01b0380921683521660208201520152565b03925af1801561048357610466575b508a836102ed8a600354168a8c60025416965194858094819363a9059cbb60e01b9a8b84528a840160209093929193604081019460018060a01b031681520152565b03925af190811561045c578c9161043f575b50156103fc579089918561034b575b505050509060008051602061147a833981519152946103459254169651938493846040919493926060820195825260208201520152565b0390a380f35b91839893918695938d8660035416926103888888541695519a8b96879586948552840160209093929193604081019460018060a01b031681520152565b03925af19687156103f25760008051602061147a83398151915297610345956103b9928d926103c5575b505061143d565b9192509487388061030e565b6103e49250803d106103eb575b6103dc81836113b0565b8101906113e8565b38806103b2565b503d6103d2565b89513d8c823e3d90fd5b895162461bcd60e51b8152908101839052601860248201527f506c6174666f726d207472616e73666572206661696c656400000000000000006044820152606490fd5b6104569150843d86116103eb576103dc81836113b0565b386102ff565b8b513d8e823e3d90fd5b61047c90843d86116103eb576103dc81836113b0565b50386102ab565b83513d8e823e3d90fd5b505060038054845491850180548c5163a9059cbb60e01b8152938b166001600160a01b031694840194855260208501529a9398939750929550929350869183919086169082908c90829060400103925af190811561053f579161050c60008051602061147a833981519152969492606096948b91610522575b5061143d565b541695549087815193818552840152820152a380f35b6105399150863d88116103eb576103dc81836113b0565b38610506565b84513d8a823e3d90fd5b965038610214565b6003805490840180548b5163a9059cbb60e01b81526001600160a01b03949094169784019788526020880152999297929650919492935091869183918290036040019082908c9088165af190811561053f579161050c60008051602061147a833981519152969492606096948b91610522575061143d565b895162461bcd60e51b8152808701849052601860248201527f4e6f7420617574686f72697a656420746f20736574746c6500000000000000006044820152606490fd5b50876005541633146101cc565b8360649189519162461bcd60e51b8352820152600f60248201526e105b1c9958591e481cd95d1d1b1959608a1b6044820152fd5b855162461bcd60e51b81528083018590526011602482015270105d58dd1a5bdb881b9bdd08195b991959607a1b6044820152606490fd5b5090346101375782600319360112610137575490516001600160a01b03909116815260209150f35b50903461013757602036600319011261013757816101a09382358152806020522060018060a01b038154169260018201549260ff60028401541690600384015490840154600585015460068601549060078701549260ff60088901541694600989015496600a8a015498600c60ff600b8d0154169b01549b602082519e8f90815201526107388261125e565b8c015260608b015260808a015260a089015260c088015260e087015261075d8161125e565b6101008601526101208501526101408401521515610160830152610180820152f35b5090346101375760603660031901126101375780359060248035936044359184875260208781528288206107b960ff600b8301541661130c565b6107cf600160ff6002840154166101718161125e565b60ff6008820154166107e08161125e565b610a98576006810154421015610a6457858101548510610a2c57600c61080a91015488101561134d565b670de0b6b3a764000061081d888661139d565b60035485516323b872dd60e01b815233818a0190815230602082015293909204604084018190526001600160a01b03939092918591839186169082908f90829060600103925af1908115610a22578b91610a05575b50156109d257878a5260018352848a2085519260a0840184811067ffffffffffffffff8211176109c05787523384528484018b815284880189815260608601948552608086018e81528454909594919391680100000000000000008210156109ad57906108e49160018201815561127e565b96909661099c579261093895926001989795928d9551166bffffffffffffffffffffffff60a01b875416178655518886015551600285015551600384015551151591019060ff801983541691151516179055565b868952528187205460001981019490851161098b575050519384526020840152604083015233917f545f734d8159ff541ae77cf938d903585bd0c7a54e682a1e0ef0ea319ac3cc1f908060608101610345565b634e487b7160e01b88526011905286fd5b634e487b7160e01b8f528e8c52888ffd5b50634e487b7160e01b8f5260418c52888ffd5b634e487b7160e01b8d5260418a52868dfd5b845162461bcd60e51b8152808801849052600e818601526d11195c1bdcda5d0819985a5b195960921b6044820152606490fd5b610a1c9150843d86116103eb576103dc81836113b0565b38610872565b86513d8d823e3d90fd5b835162461bcd60e51b81528087018390526013818501527242656c6f77206d696e696d756d20707269636560681b6044820152606490fd5b835162461bcd60e51b8152808701839052600f818501526e105d58dd1a5bdb88195e1c1a5c9959608a1b6044820152606490fd5b835162461bcd60e51b8152808701839052600e818501526d109a59191a5b99c818db1bdcd95960921b6044820152606490fd5b503461013757610100366003190112610137578135916001600160a01b0360243581811693919290849003610ca957604435906002821015610ca557606435936005541633148015610c90575b15610c4d578587528660205260ff600b848920015416610c195791606093917f410dbdb796dd041f38774a0bb2a1dc0d5afdc27b2218476e361475cde07fcda695938789528860205283838a20866bffffffffffffffffffffffff60a01b8254161781558960018201556002810192610b908561125e565b60ff19938481541660ff871617905560c4356009830155600b820160018582541617905560e435600c830155610bc58561125e565b84610beb575060030155505b8151938452610bdf8161125e565b6020840152820152a280f35b6008925060843590820155856005820155610c0860a435426112e9565b600682015501908154169055610bd1565b606490602084519162461bcd60e51b8352820152600e60248201526d105b1c9958591e481b1a5cdd195960921b6044820152fd5b606490602084519162461bcd60e51b8352820152601e60248201527f4f6e6c79206f776e6572206f7220617574686f72697a6564207661756c7400006044820152fd5b50338752600660205260ff8388205416610b18565b8680fd5b8580fd5b50829034610d9157610cbe3661122d565b610cd660018060a09594951b036005541633146112b0565b8284528360205281842094610cf7600160ff6002890154166101718161125e565b6008860180549160ff8316610d0b8161125e565b610d5e57507f8738d776cce75cc3caff5a102e7bb3c9e334cb3de5d75ad07ea33f14877c2537949596600b91600160ff19809516179055836007820155019081541690558151908152846020820152a280f35b606490602086519162461bcd60e51b8352820152600d60248201526c105b1c9958591e48195b991959609a1b6044820152fd5b5080fd5b838234610d915781600319360112610d915760055490516001600160a01b039091168152602090f35b838234610d915781600319360112610d915760035490516001600160a01b039091168152602090f35b5034610137578060031936011261013757610e00611248565b9060243580151592838203610ca9576005546001600160a01b039190610e2990831633146112b0565b16938415610e7e575091602091610e767f18f47f52423fcea7fa18e18e69f46b50562f0a8090b20f6c3ddf12ba6ff84feb94868852600685528288209060ff801983541691151516179055565b51908152a280f35b606490602084519162461bcd60e51b83528201526015602482015274496e76616c6964207661756c74206164647265737360581b6044820152fd5b503461013757602036600319011261013757600b91610ee360018060a01b036005541633146112b0565b3583528260205282200160ff19815416905580f35b838234610d91576020366003190112610d915760209160ff9082906001600160a01b03610f23611248565b1681526006855220541690519015158152f35b838234610d915781600319360112610d915760025490516001600160a01b039091168152602090f35b5090346101375760203660031901126101375760209282913581526001845220549051908152f35b50903461013757610f973661122d565b9181855260209085825284862091600b830190610fb760ff83541661130c565b60ff600285015416610fc88161125e565b6111f457610fdc600c85015487101561134d565b60098401805491610ff3600a870193845490611390565b88116111bc576003860154948981670de0b6b3a76400006110148c8a61139d565b04988d61106a868c60018060a01b039687600354169085896002541691518096819582946323b872dd60e01b9c8d85523390850160409194939294606082019560018060a01b0380921683521660208201520152565b03925af19182156111b15791611194575b501561116057546002548d5192835283166001600160a01b0316938201938452336020850152604084018c9052909284928492169082908f90829060600103925af1801561115657916103459593917f8a610281e414e4c68acb644552801a81e1c3b037d9da999c323ea58e5da1576d999a9b9593611138575b50506111028a83546112e9565b809255541461112a575b50519283923397846040919493926060820195825260208201520152565b805460ff191690553861110c565b8161114e92903d106103eb576103dc81836113b0565b5038806110f5565b8a513d8d823e3d90fd5b8c5162461bcd60e51b8152808501869052600e60248201526d14185e5b595b9d0819985a5b195960921b6044820152606490fd5b6111ab9150863d88116103eb576103dc81836113b0565b3861107b565b8f51903d90823e3d90fd5b846064918a519162461bcd60e51b83528201526013602482015272496e73756666696369656e7420737570706c7960681b6044820152fd5b8260649188519162461bcd60e51b835282015260146024820152734e6f74206120737461746963206c697374696e6760601b6044820152fd5b6040906003190112611243576004359060243590565b600080fd5b600435906001600160a01b038216820361124357565b6002111561126857565b634e487b7160e01b600052602160045260246000fd5b805482101561129a576000526005602060002091020190600090565b634e487b7160e01b600052603260045260246000fd5b156112b757565b60405162461bcd60e51b815260206004820152600a60248201526927b7363c9037bbb732b960b11b6044820152606490fd5b919082018092116112f657565b634e487b7160e01b600052601160045260246000fd5b1561131357565b60405162461bcd60e51b81526020600482015260126024820152714c697374696e67206e6f742061637469766560701b6044820152606490fd5b1561135457565b60405162461bcd60e51b815260206004820152601460248201527310995b1bddc81b5a5b881a5b9d995cdd1b595b9d60621b6044820152606490fd5b919082039182116112f657565b818102929181159184041417156112f657565b90601f8019910116810190811067ffffffffffffffff8211176113d257604052565b634e487b7160e01b600052604160045260246000fd5b90816020910312611243575180151581036112435790565b1561140757565b60405162461bcd60e51b815260206004820152600e60248201526d2737ba1030b71030bab1ba34b7b760911b6044820152606490fd5b1561144457565b60405162461bcd60e51b815260206004820152600d60248201526c1499599d5b990819985a5b1959609a1b6044820152606490fdfe5dbb8446ff791512030d3f7ff8b3f0cc00535adbdfa664c3732452a746a1a614a2646970667358221220425f8d9934e8d951119e0aed803c5e32b9f14390602739777c3b3e0b84879e1664736f6c63430008140033","opcodes":"PUSH1 0x80 CALLVALUE PUSH2 0xAB JUMPI PUSH1 0x1F PUSH2 0x15AA CODESIZE DUP2 SWAP1 SUB SWAP2 DUP3 ADD PUSH1 0x1F NOT AND DUP4 ADD SWAP2 PUSH1 0x1 PUSH1 0x1 PUSH1 0x40 SHL SUB DUP4 GT DUP5 DUP5 LT OR PUSH2 0xB0 JUMPI DUP1 DUP5 SWAP3 PUSH1 0x60 SWAP5 PUSH1 0x40 MSTORE DUP4 CODECOPY DUP2 ADD SUB SLT PUSH2 0xAB JUMPI PUSH2 0x47 DUP2 PUSH2 0xC6 JUMP JUMPDEST SWAP1 PUSH2 0x60 PUSH1 0x40 PUSH2 0x59 PUSH1 0x20 DUP5 ADD PUSH2 0xC6 JUMP JUMPDEST SWAP3 ADD PUSH2 0xC6 JUMP JUMPDEST PUSH1 0x1 DUP1 PUSH1 0xA0 SHL SUB NOT SWAP3 CALLER DUP5 PUSH1 0x5 SLOAD AND OR PUSH1 0x5 SSTORE PUSH1 0x1 DUP1 PUSH1 0xA0 SHL SUB SWAP3 DUP4 DUP1 SWAP3 AND DUP6 PUSH1 0x4 SLOAD AND OR PUSH1 0x4 SSTORE AND DUP4 PUSH1 0x2 SLOAD AND OR PUSH1 0x2 SSTORE AND SWAP1 PUSH1 0x3 SLOAD AND OR PUSH1 0x3 SSTORE PUSH1 0x40 MLOAD PUSH2 0x14CF SWAP1 DUP2 PUSH2 0xDB DUP3 CODECOPY RETURN JUMPDEST PUSH1 0x0 DUP1 REVERT JUMPDEST PUSH4 0x4E487B71 PUSH1 0xE0 SHL PUSH1 0x0 MSTORE PUSH1 0x41 PUSH1 0x4 MSTORE PUSH1 0x24 PUSH1 0x0 REVERT JUMPDEST MLOAD SWAP1 PUSH1 0x1 PUSH1 0x1 PUSH1 0xA0 SHL SUB DUP3 AND DUP3 SUB PUSH2 0xAB JUMPI JUMP INVALID PUSH1 0x40 PUSH1 0x80 DUP2 MSTORE PUSH1 0x4 DUP1 CALLDATASIZE LT ISZERO PUSH2 0x14 JUMPI PUSH1 0x0 DUP1 REVERT JUMPDEST PUSH1 0x0 SWAP2 DUP3 CALLDATALOAD PUSH1 0xE0 SHR DUP1 PUSH4 0x7F5D633 EQ PUSH2 0xF87 JUMPI DUP1 PUSH4 0x15659DDE EQ PUSH2 0xF5F JUMPI DUP1 PUSH4 0x299AA1D7 EQ PUSH2 0xF36 JUMPI DUP1 PUSH4 0x393B8516 EQ PUSH2 0xEF8 JUMPI DUP1 PUSH4 0x3DDDAFA7 EQ PUSH2 0xEB9 JUMPI DUP1 PUSH4 0x69A361CC EQ PUSH2 0xDE7 JUMPI DUP1 PUSH4 0x89A30271 EQ PUSH2 0xDBE JUMPI DUP1 PUSH4 0x8DA5CB5B EQ PUSH2 0xD95 JUMPI DUP1 PUSH4 0xA03F7D19 EQ PUSH2 0xCAD JUMPI DUP1 PUSH4 0xAF8E8100 EQ PUSH2 0xACB JUMPI DUP1 PUSH4 0xBE0B4231 EQ PUSH2 0x77F JUMPI DUP1 PUSH4 0xC18B8DB4 EQ PUSH2 0x6AC JUMPI DUP1 PUSH4 0xC45A0155 EQ PUSH2 0x684 JUMPI DUP1 PUSH4 0xF69314BE EQ PUSH2 0x13B JUMPI PUSH4 0xF7E65B1C EQ PUSH2 0xC5 JUMPI PUSH1 0x0 DUP1 REVERT JUMPDEST CALLVALUE PUSH2 0x137 JUMPI PUSH2 0xD3 CALLDATASIZE PUSH2 0x122D JUMP JUMPDEST SWAP4 SWAP1 DUP2 MSTORE PUSH1 0x1 PUSH1 0x20 MSTORE DUP2 DUP2 KECCAK256 SWAP1 DUP2 SLOAD DUP6 LT ISZERO PUSH2 0x134 JUMPI POP PUSH1 0xA0 SWAP4 PUSH2 0xF6 SWAP2 PUSH2 0x127E JUMP JUMPDEST POP PUSH1 0x1 DUP1 DUP6 SHL SUB DUP2 SLOAD AND SWAP3 PUSH1 0x1 DUP3 ADD SLOAD SWAP3 PUSH1 0xFF PUSH1 0x2 DUP5 ADD SLOAD SWAP3 PUSH1 0x3 DUP6 ADD SLOAD SWAP5 ADD SLOAD AND SWAP4 DUP2 MLOAD SWAP6 DUP7 MSTORE PUSH1 0x20 DUP7 ADD MSTORE DUP5 ADD MSTORE PUSH1 0x60 DUP4 ADD MSTORE ISZERO ISZERO PUSH1 0x80 DUP3 ADD MSTORE RETURN JUMPDEST DUP1 REVERT JUMPDEST DUP3 DUP1 REVERT JUMPDEST POP SWAP1 CALLVALUE PUSH2 0x137 JUMPI PUSH2 0x14B CALLDATASIZE PUSH2 0x122D JUMP JUMPDEST DUP2 DUP6 SWAP4 SWAP3 SWAP4 MSTORE PUSH1 0x20 SWAP2 DUP6 DUP4 MSTORE DUP5 DUP7 KECCAK256 SWAP2 PUSH2 0x177 PUSH1 0x1 PUSH1 0xFF PUSH1 0x2 DUP7 ADD SLOAD AND PUSH2 0x171 DUP2 PUSH2 0x125E JUMP JUMPDEST EQ PUSH2 0x1400 JUMP JUMPDEST PUSH1 0x1 PUSH1 0xFF PUSH1 0x8 DUP6 ADD SLOAD AND PUSH2 0x18A DUP2 PUSH2 0x125E JUMP JUMPDEST SUB PUSH2 0x64D JUMPI PUSH2 0x1A2 SWAP1 DUP6 DUP9 MSTORE PUSH1 0x1 DUP6 MSTORE DUP7 DUP9 KECCAK256 PUSH2 0x127E JUMP JUMPDEST POP SWAP3 DUP2 DUP5 ADD SWAP4 DUP5 SLOAD SWAP2 PUSH1 0xFF DUP4 AND PUSH2 0x619 JUMPI DUP2 SLOAD PUSH1 0x1 PUSH1 0x1 PUSH1 0xA0 SHL SUB SWAP7 SWAP1 DUP8 AND SWAP4 CALLER DUP6 EQ DUP1 ISZERO PUSH2 0x60C JUMPI JUMPDEST ISZERO PUSH2 0x5C9 JUMPI PUSH1 0xFF NOT AND PUSH1 0x1 OR SWAP1 SSTORE PUSH1 0x2 DUP3 ADD SLOAD PUSH1 0x7 DUP7 ADD DUP1 SLOAD SWAP1 SWAP5 SWAP2 GT ISZERO PUSH2 0x551 JUMPI POP PUSH1 0x1 DUP3 ADD SLOAD SWAP4 DUP10 PUSH1 0x9 DUP8 ADD SLOAD SWAP5 PUSH2 0x20C PUSH1 0xA DUP10 ADD SWAP7 DUP8 SLOAD SWAP1 PUSH2 0x1390 JUMP JUMPDEST DUP1 DUP9 GT PUSH2 0x549 JUMPI JUMPDEST POP DUP7 ISZERO PUSH2 0x48D JUMPI DUP4 DUP8 DUP13 SWAP5 SWAP4 DUP12 PUSH8 0xDE0B6B3A7640000 PUSH2 0x238 DUP5 PUSH2 0x29C SWAP8 SLOAD PUSH2 0x139D JUMP JUMPDEST DIV SWAP12 PUSH2 0x248 DUP14 PUSH1 0x3 DUP13 ADD SLOAD PUSH2 0x1390 JUMP JUMPDEST SWAP11 PUSH2 0x254 DUP6 DUP3 SLOAD PUSH2 0x12E9 JUMP JUMPDEST SWAP1 SSTORE SLOAD AND SWAP1 DUP13 PUSH1 0x2 SLOAD AND SWAP1 DUP14 DUP11 SLOAD AND SWAP2 DUP9 MLOAD SWAP7 DUP8 SWAP6 DUP7 SWAP5 DUP6 SWAP4 PUSH4 0x23B872DD PUSH1 0xE0 SHL DUP6 MSTORE DUP12 DUP6 ADD PUSH1 0x40 SWAP2 SWAP5 SWAP4 SWAP3 SWAP5 PUSH1 0x60 DUP3 ADD SWAP6 PUSH1 0x1 DUP1 PUSH1 0xA0 SHL SUB DUP1 SWAP3 AND DUP4 MSTORE AND PUSH1 0x20 DUP3 ADD MSTORE ADD MSTORE JUMP JUMPDEST SUB SWAP3 GAS CALL DUP1 ISZERO PUSH2 0x483 JUMPI PUSH2 0x466 JUMPI JUMPDEST POP DUP11 DUP4 PUSH2 0x2ED DUP11 PUSH1 0x3 SLOAD AND DUP11 DUP13 PUSH1 0x2 SLOAD AND SWAP7 MLOAD SWAP5 DUP6 DUP1 SWAP5 DUP2 SWAP4 PUSH4 0xA9059CBB PUSH1 0xE0 SHL SWAP11 DUP12 DUP5 MSTORE DUP11 DUP5 ADD PUSH1 0x20 SWAP1 SWAP4 SWAP3 SWAP2 SWAP4 PUSH1 0x40 DUP2 ADD SWAP5 PUSH1 0x1 DUP1 PUSH1 0xA0 SHL SUB AND DUP2 MSTORE ADD MSTORE JUMP JUMPDEST SUB SWAP3 GAS CALL SWAP1 DUP2 ISZERO PUSH2 0x45C JUMPI DUP13 SWAP2 PUSH2 0x43F JUMPI JUMPDEST POP ISZERO PUSH2 0x3FC JUMPI SWAP1 DUP10 SWAP2 DUP6 PUSH2 0x34B JUMPI JUMPDEST POP POP POP POP SWAP1 PUSH1 0x0 DUP1 MLOAD PUSH1 0x20 PUSH2 0x147A DUP4 CODECOPY DUP2 MLOAD SWAP2 MSTORE SWAP5 PUSH2 0x345 SWAP3 SLOAD AND SWAP7 MLOAD SWAP4 DUP5 SWAP4 DUP5 PUSH1 0x40 SWAP2 SWAP5 SWAP4 SWAP3 PUSH1 0x60 DUP3 ADD SWAP6 DUP3 MSTORE PUSH1 0x20 DUP3 ADD MSTORE ADD MSTORE JUMP JUMPDEST SUB SWAP1 LOG3 DUP1 RETURN JUMPDEST SWAP2 DUP4 SWAP9 SWAP4 SWAP2 DUP7 SWAP6 SWAP4 DUP14 DUP7 PUSH1 0x3 SLOAD AND SWAP3 PUSH2 0x388 DUP9 DUP9 SLOAD AND SWAP6 MLOAD SWAP11 DUP12 SWAP7 DUP8 SWAP6 DUP7 SWAP5 DUP6 MSTORE DUP5 ADD PUSH1 0x20 SWAP1 SWAP4 SWAP3 SWAP2 SWAP4 PUSH1 0x40 DUP2 ADD SWAP5 PUSH1 0x1 DUP1 PUSH1 0xA0 SHL SUB AND DUP2 MSTORE ADD MSTORE JUMP JUMPDEST SUB SWAP3 GAS CALL SWAP7 DUP8 ISZERO PUSH2 0x3F2 JUMPI PUSH1 0x0 DUP1 MLOAD PUSH1 0x20 PUSH2 0x147A DUP4 CODECOPY DUP2 MLOAD SWAP2 MSTORE SWAP8 PUSH2 0x345 SWAP6 PUSH2 0x3B9 SWAP3 DUP14 SWAP3 PUSH2 0x3C5 JUMPI JUMPDEST POP POP PUSH2 0x143D JUMP JUMPDEST SWAP2 SWAP3 POP SWAP5 DUP8 CODESIZE DUP1 PUSH2 0x30E JUMP JUMPDEST PUSH2 0x3E4 SWAP3 POP DUP1 RETURNDATASIZE LT PUSH2 0x3EB JUMPI JUMPDEST PUSH2 0x3DC DUP2 DUP4 PUSH2 0x13B0 JUMP JUMPDEST DUP2 ADD SWAP1 PUSH2 0x13E8 JUMP JUMPDEST CODESIZE DUP1 PUSH2 0x3B2 JUMP JUMPDEST POP RETURNDATASIZE PUSH2 0x3D2 JUMP JUMPDEST DUP10 MLOAD RETURNDATASIZE DUP13 DUP3 RETURNDATACOPY RETURNDATASIZE SWAP1 REVERT JUMPDEST DUP10 MLOAD PUSH3 0x461BCD PUSH1 0xE5 SHL DUP2 MSTORE SWAP1 DUP2 ADD DUP4 SWAP1 MSTORE PUSH1 0x18 PUSH1 0x24 DUP3 ADD MSTORE PUSH32 0x506C6174666F726D207472616E73666572206661696C65640000000000000000 PUSH1 0x44 DUP3 ADD MSTORE PUSH1 0x64 SWAP1 REVERT JUMPDEST PUSH2 0x456 SWAP2 POP DUP5 RETURNDATASIZE DUP7 GT PUSH2 0x3EB JUMPI PUSH2 0x3DC DUP2 DUP4 PUSH2 0x13B0 JUMP JUMPDEST CODESIZE PUSH2 0x2FF JUMP JUMPDEST DUP12 MLOAD RETURNDATASIZE DUP15 DUP3 RETURNDATACOPY RETURNDATASIZE SWAP1 REVERT JUMPDEST PUSH2 0x47C SWAP1 DUP5 RETURNDATASIZE DUP7 GT PUSH2 0x3EB JUMPI PUSH2 0x3DC DUP2 DUP4 PUSH2 0x13B0 JUMP JUMPDEST POP CODESIZE PUSH2 0x2AB JUMP JUMPDEST DUP4 MLOAD RETURNDATASIZE DUP15 DUP3 RETURNDATACOPY RETURNDATASIZE SWAP1 REVERT JUMPDEST POP POP PUSH1 0x3 DUP1 SLOAD DUP5 SLOAD SWAP2 DUP6 ADD DUP1 SLOAD DUP13 MLOAD PUSH4 0xA9059CBB PUSH1 0xE0 SHL DUP2 MSTORE SWAP4 DUP12 AND PUSH1 0x1 PUSH1 0x1 PUSH1 0xA0 SHL SUB AND SWAP5 DUP5 ADD SWAP5 DUP6 MSTORE PUSH1 0x20 DUP6 ADD MSTORE SWAP11 SWAP4 SWAP9 SWAP4 SWAP8 POP SWAP3 SWAP6 POP SWAP3 SWAP4 POP DUP7 SWAP2 DUP4 SWAP2 SWAP1 DUP7 AND SWAP1 DUP3 SWAP1 DUP13 SWAP1 DUP3 SWAP1 PUSH1 0x40 ADD SUB SWAP3 GAS CALL SWAP1 DUP2 ISZERO PUSH2 0x53F JUMPI SWAP2 PUSH2 0x50C PUSH1 0x0 DUP1 MLOAD PUSH1 0x20 PUSH2 0x147A DUP4 CODECOPY DUP2 MLOAD SWAP2 MSTORE SWAP7 SWAP5 SWAP3 PUSH1 0x60 SWAP7 SWAP5 DUP12 SWAP2 PUSH2 0x522 JUMPI JUMPDEST POP PUSH2 0x143D JUMP JUMPDEST SLOAD AND SWAP6 SLOAD SWAP1 DUP8 DUP2 MLOAD SWAP4 DUP2 DUP6 MSTORE DUP5 ADD MSTORE DUP3 ADD MSTORE LOG3 DUP1 RETURN JUMPDEST PUSH2 0x539 SWAP2 POP DUP7 RETURNDATASIZE DUP9 GT PUSH2 0x3EB JUMPI PUSH2 0x3DC DUP2 DUP4 PUSH2 0x13B0 JUMP JUMPDEST CODESIZE PUSH2 0x506 JUMP JUMPDEST DUP5 MLOAD RETURNDATASIZE DUP11 DUP3 RETURNDATACOPY RETURNDATASIZE SWAP1 REVERT JUMPDEST SWAP7 POP CODESIZE PUSH2 0x214 JUMP JUMPDEST PUSH1 0x3 DUP1 SLOAD SWAP1 DUP5 ADD DUP1 SLOAD DUP12 MLOAD PUSH4 0xA9059CBB PUSH1 0xE0 SHL DUP2 MSTORE PUSH1 0x1 PUSH1 0x1 PUSH1 0xA0 SHL SUB SWAP5 SWAP1 SWAP5 AND SWAP8 DUP5 ADD SWAP8 DUP9 MSTORE PUSH1 0x20 DUP9 ADD MSTORE SWAP10 SWAP3 SWAP8 SWAP3 SWAP7 POP SWAP2 SWAP5 SWAP3 SWAP4 POP SWAP2 DUP7 SWAP2 DUP4 SWAP2 DUP3 SWAP1 SUB PUSH1 0x40 ADD SWAP1 DUP3 SWAP1 DUP13 SWAP1 DUP9 AND GAS CALL SWAP1 DUP2 ISZERO PUSH2 0x53F JUMPI SWAP2 PUSH2 0x50C PUSH1 0x0 DUP1 MLOAD PUSH1 0x20 PUSH2 0x147A DUP4 CODECOPY DUP2 MLOAD SWAP2 MSTORE SWAP7 SWAP5 SWAP3 PUSH1 0x60 SWAP7 SWAP5 DUP12 SWAP2 PUSH2 0x522 JUMPI POP PUSH2 0x143D JUMP JUMPDEST DUP10 MLOAD PUSH3 0x461BCD PUSH1 0xE5 SHL DUP2 MSTORE DUP1 DUP8 ADD DUP5 SWAP1 MSTORE PUSH1 0x18 PUSH1 0x24 DUP3 ADD MSTORE PUSH32 0x4E6F7420617574686F72697A656420746F20736574746C650000000000000000 PUSH1 0x44 DUP3 ADD MSTORE PUSH1 0x64 SWAP1 REVERT JUMPDEST POP DUP8 PUSH1 0x5 SLOAD AND CALLER EQ PUSH2 0x1CC JUMP JUMPDEST DUP4 PUSH1 0x64 SWAP2 DUP10 MLOAD SWAP2 PUSH3 0x461BCD PUSH1 0xE5 SHL DUP4 MSTORE DUP3 ADD MSTORE PUSH1 0xF PUSH1 0x24 DUP3 ADD MSTORE PUSH15 0x105B1C9958591E481CD95D1D1B1959 PUSH1 0x8A SHL PUSH1 0x44 DUP3 ADD MSTORE REVERT JUMPDEST DUP6 MLOAD PUSH3 0x461BCD PUSH1 0xE5 SHL DUP2 MSTORE DUP1 DUP4 ADD DUP6 SWAP1 MSTORE PUSH1 0x11 PUSH1 0x24 DUP3 ADD MSTORE PUSH17 0x105D58DD1A5BDB881B9BDD08195B991959 PUSH1 0x7A SHL PUSH1 0x44 DUP3 ADD MSTORE PUSH1 0x64 SWAP1 REVERT JUMPDEST POP SWAP1 CALLVALUE PUSH2 0x137 JUMPI DUP3 PUSH1 0x3 NOT CALLDATASIZE ADD SLT PUSH2 0x137 JUMPI SLOAD SWAP1 MLOAD PUSH1 0x1 PUSH1 0x1 PUSH1 0xA0 SHL SUB SWAP1 SWAP2 AND DUP2 MSTORE PUSH1 0x20 SWAP2 POP RETURN JUMPDEST POP SWAP1 CALLVALUE PUSH2 0x137 JUMPI PUSH1 0x20 CALLDATASIZE PUSH1 0x3 NOT ADD SLT PUSH2 0x137 JUMPI DUP2 PUSH2 0x1A0 SWAP4 DUP3 CALLDATALOAD DUP2 MSTORE DUP1 PUSH1 0x20 MSTORE KECCAK256 PUSH1 0x1 DUP1 PUSH1 0xA0 SHL SUB DUP2 SLOAD AND SWAP3 PUSH1 0x1 DUP3 ADD SLOAD SWAP3 PUSH1 0xFF PUSH1 0x2 DUP5 ADD SLOAD AND SWAP1 PUSH1 0x3 DUP5 ADD SLOAD SWAP1 DUP5 ADD SLOAD PUSH1 0x5 DUP6 ADD SLOAD PUSH1 0x6 DUP7 ADD SLOAD SWAP1 PUSH1 0x7 DUP8 ADD SLOAD SWAP3 PUSH1 0xFF PUSH1 0x8 DUP10 ADD SLOAD AND SWAP5 PUSH1 0x9 DUP10 ADD SLOAD SWAP7 PUSH1 0xA DUP11 ADD SLOAD SWAP9 PUSH1 0xC PUSH1 0xFF PUSH1 0xB DUP14 ADD SLOAD AND SWAP12 ADD SLOAD SWAP12 PUSH1 0x20 DUP3 MLOAD SWAP15 DUP16 SWAP1 DUP2 MSTORE ADD MSTORE PUSH2 0x738 DUP3 PUSH2 0x125E JUMP JUMPDEST DUP13 ADD MSTORE PUSH1 0x60 DUP12 ADD MSTORE PUSH1 0x80 DUP11 ADD MSTORE PUSH1 0xA0 DUP10 ADD MSTORE PUSH1 0xC0 DUP9 ADD MSTORE PUSH1 0xE0 DUP8 ADD MSTORE PUSH2 0x75D DUP2 PUSH2 0x125E JUMP JUMPDEST PUSH2 0x100 DUP7 ADD MSTORE PUSH2 0x120 DUP6 ADD MSTORE PUSH2 0x140 DUP5 ADD MSTORE ISZERO ISZERO PUSH2 0x160 DUP4 ADD MSTORE PUSH2 0x180 DUP3 ADD MSTORE RETURN JUMPDEST POP SWAP1 CALLVALUE PUSH2 0x137 JUMPI PUSH1 0x60 CALLDATASIZE PUSH1 0x3 NOT ADD SLT PUSH2 0x137 JUMPI DUP1 CALLDATALOAD SWAP1 PUSH1 0x24 DUP1 CALLDATALOAD SWAP4 PUSH1 0x44 CALLDATALOAD SWAP2 DUP5 DUP8 MSTORE PUSH1 0x20 DUP8 DUP2 MSTORE DUP3 DUP9 KECCAK256 PUSH2 0x7B9 PUSH1 0xFF PUSH1 0xB DUP4 ADD SLOAD AND PUSH2 0x130C JUMP JUMPDEST PUSH2 0x7CF PUSH1 0x1 PUSH1 0xFF PUSH1 0x2 DUP5 ADD SLOAD AND PUSH2 0x171 DUP2 PUSH2 0x125E JUMP JUMPDEST PUSH1 0xFF PUSH1 0x8 DUP3 ADD SLOAD AND PUSH2 0x7E0 DUP2 PUSH2 0x125E JUMP JUMPDEST PUSH2 0xA98 JUMPI PUSH1 0x6 DUP2 ADD SLOAD TIMESTAMP LT ISZERO PUSH2 0xA64 JUMPI DUP6 DUP2 ADD SLOAD DUP6 LT PUSH2 0xA2C JUMPI PUSH1 0xC PUSH2 0x80A SWAP2 ADD SLOAD DUP9 LT ISZERO PUSH2 0x134D JUMP JUMPDEST PUSH8 0xDE0B6B3A7640000 PUSH2 0x81D DUP9 DUP7 PUSH2 0x139D JUMP JUMPDEST PUSH1 0x3 SLOAD DUP6 MLOAD PUSH4 0x23B872DD PUSH1 0xE0 SHL DUP2 MSTORE CALLER DUP2 DUP11 ADD SWAP1 DUP2 MSTORE ADDRESS PUSH1 0x20 DUP3 ADD MSTORE SWAP4 SWAP1 SWAP3 DIV PUSH1 0x40 DUP5 ADD DUP2 SWAP1 MSTORE PUSH1 0x1 PUSH1 0x1 PUSH1 0xA0 SHL SUB SWAP4 SWAP1 SWAP3 SWAP2 DUP6 SWAP2 DUP4 SWAP2 DUP7 AND SWAP1 DUP3 SWAP1 DUP16 SWAP1 DUP3 SWAP1 PUSH1 0x60 ADD SUB SWAP3 GAS CALL SWAP1 DUP2 ISZERO PUSH2 0xA22 JUMPI DUP12 SWAP2 PUSH2 0xA05 JUMPI JUMPDEST POP ISZERO PUSH2 0x9D2 JUMPI DUP8 DUP11 MSTORE PUSH1 0x1 DUP4 MSTORE DUP5 DUP11 KECCAK256 DUP6 MLOAD SWAP3 PUSH1 0xA0 DUP5 ADD DUP5 DUP2 LT PUSH8 0xFFFFFFFFFFFFFFFF DUP3 GT OR PUSH2 0x9C0 JUMPI DUP8 MSTORE CALLER DUP5 MSTORE DUP5 DUP5 ADD DUP12 DUP2 MSTORE DUP5 DUP9 ADD DUP10 DUP2 MSTORE PUSH1 0x60 DUP7 ADD SWAP5 DUP6 MSTORE PUSH1 0x80 DUP7 ADD DUP15 DUP2 MSTORE DUP5 SLOAD SWAP1 SWAP6 SWAP5 SWAP2 SWAP4 SWAP2 PUSH9 0x10000000000000000 DUP3 LT ISZERO PUSH2 0x9AD JUMPI SWAP1 PUSH2 0x8E4 SWAP2 PUSH1 0x1 DUP3 ADD DUP2 SSTORE PUSH2 0x127E JUMP JUMPDEST SWAP7 SWAP1 SWAP7 PUSH2 0x99C JUMPI SWAP3 PUSH2 0x938 SWAP6 SWAP3 PUSH1 0x1 SWAP9 SWAP8 SWAP6 SWAP3 DUP14 SWAP6 MLOAD AND PUSH12 0xFFFFFFFFFFFFFFFFFFFFFFFF PUSH1 0xA0 SHL DUP8 SLOAD AND OR DUP7 SSTORE MLOAD DUP9 DUP7 ADD SSTORE MLOAD PUSH1 0x2 DUP6 ADD SSTORE MLOAD PUSH1 0x3 DUP5 ADD SSTORE MLOAD ISZERO ISZERO SWAP2 ADD SWAP1 PUSH1 0xFF DUP1 NOT DUP4 SLOAD AND SWAP2 ISZERO ISZERO AND OR SWAP1 SSTORE JUMP JUMPDEST DUP7 DUP10 MSTORE MSTORE DUP2 DUP8 KECCAK256 SLOAD PUSH1 0x0 NOT DUP2 ADD SWAP5 SWAP1 DUP6 GT PUSH2 0x98B JUMPI POP POP MLOAD SWAP4 DUP5 MSTORE PUSH1 0x20 DUP5 ADD MSTORE PUSH1 0x40 DUP4 ADD MSTORE CALLER SWAP2 PUSH32 0x545F734D8159FF541AE77CF938D903585BD0C7A54E682A1E0EF0EA319AC3CC1F SWAP1 DUP1 PUSH1 0x60 DUP2 ADD PUSH2 0x345 JUMP JUMPDEST PUSH4 0x4E487B71 PUSH1 0xE0 SHL DUP9 MSTORE PUSH1 0x11 SWAP1 MSTORE DUP7 REVERT JUMPDEST PUSH4 0x4E487B71 PUSH1 0xE0 SHL DUP16 MSTORE DUP15 DUP13 MSTORE DUP9 DUP16 REVERT JUMPDEST POP PUSH4 0x4E487B71 PUSH1 0xE0 SHL DUP16 MSTORE PUSH1 0x41 DUP13 MSTORE DUP9 DUP16 REVERT JUMPDEST PUSH4 0x4E487B71 PUSH1 0xE0 SHL DUP14 MSTORE PUSH1 0x41 DUP11 MSTORE DUP7 DUP14 REVERT JUMPDEST DUP5 MLOAD PUSH3 0x461BCD PUSH1 0xE5 SHL DUP2 MSTORE DUP1 DUP9 ADD DUP5 SWAP1 MSTORE PUSH1 0xE DUP2 DUP7 ADD MSTORE PUSH14 0x11195C1BDCDA5D0819985A5B1959 PUSH1 0x92 SHL PUSH1 0x44 DUP3 ADD MSTORE PUSH1 0x64 SWAP1 REVERT JUMPDEST PUSH2 0xA1C SWAP2 POP DUP5 RETURNDATASIZE DUP7 GT PUSH2 0x3EB JUMPI PUSH2 0x3DC DUP2 DUP4 PUSH2 0x13B0 JUMP JUMPDEST CODESIZE PUSH2 0x872 JUMP JUMPDEST DUP7 MLOAD RETURNDATASIZE DUP14 DUP3 RETURNDATACOPY RETURNDATASIZE SWAP1 REVERT JUMPDEST DUP4 MLOAD PUSH3 0x461BCD PUSH1 0xE5 SHL DUP2 MSTORE DUP1 DUP8 ADD DUP4 SWAP1 MSTORE PUSH1 0x13 DUP2 DUP6 ADD MSTORE PUSH19 0x42656C6F77206D696E696D756D207072696365 PUSH1 0x68 SHL PUSH1 0x44 DUP3 ADD MSTORE PUSH1 0x64 SWAP1 REVERT JUMPDEST DUP4 MLOAD PUSH3 0x461BCD PUSH1 0xE5 SHL DUP2 MSTORE DUP1 DUP8 ADD DUP4 SWAP1 MSTORE PUSH1 0xF DUP2 DUP6 ADD MSTORE PUSH15 0x105D58DD1A5BDB88195E1C1A5C9959 PUSH1 0x8A SHL PUSH1 0x44 DUP3 ADD MSTORE PUSH1 0x64 SWAP1 REVERT JUMPDEST DUP4 MLOAD PUSH3 0x461BCD PUSH1 0xE5 SHL DUP2 MSTORE DUP1 DUP8 ADD DUP4 SWAP1 MSTORE PUSH1 0xE DUP2 DUP6 ADD MSTORE PUSH14 0x109A59191A5B99C818DB1BDCD959 PUSH1 0x92 SHL PUSH1 0x44 DUP3 ADD MSTORE PUSH1 0x64 SWAP1 REVERT JUMPDEST POP CALLVALUE PUSH2 0x137 JUMPI PUSH2 0x100 CALLDATASIZE PUSH1 0x3 NOT ADD SLT PUSH2 0x137 JUMPI DUP2 CALLDATALOAD SWAP2 PUSH1 0x1 PUSH1 0x1 PUSH1 0xA0 SHL SUB PUSH1 0x24 CALLDATALOAD DUP2 DUP2 AND SWAP4 SWAP2 SWAP3 SWAP1 DUP5 SWAP1 SUB PUSH2 0xCA9 JUMPI PUSH1 0x44 CALLDATALOAD SWAP1 PUSH1 0x2 DUP3 LT ISZERO PUSH2 0xCA5 JUMPI PUSH1 0x64 CALLDATALOAD SWAP4 PUSH1 0x5 SLOAD AND CALLER EQ DUP1 ISZERO PUSH2 0xC90 JUMPI JUMPDEST ISZERO PUSH2 0xC4D JUMPI DUP6 DUP8 MSTORE DUP7 PUSH1 0x20 MSTORE PUSH1 0xFF PUSH1 0xB DUP5 DUP10 KECCAK256 ADD SLOAD AND PUSH2 0xC19 JUMPI SWAP2 PUSH1 0x60 SWAP4 SWAP2 PUSH32 0x410DBDB796DD041F38774A0BB2A1DC0D5AFDC27B2218476E361475CDE07FCDA6 SWAP6 SWAP4 DUP8 DUP10 MSTORE DUP9 PUSH1 0x20 MSTORE DUP4 DUP4 DUP11 KECCAK256 DUP7 PUSH12 0xFFFFFFFFFFFFFFFFFFFFFFFF PUSH1 0xA0 SHL DUP3 SLOAD AND OR DUP2 SSTORE DUP10 PUSH1 0x1 DUP3 ADD SSTORE PUSH1 0x2 DUP2 ADD SWAP3 PUSH2 0xB90 DUP6 PUSH2 0x125E JUMP JUMPDEST PUSH1 0xFF NOT SWAP4 DUP5 DUP2 SLOAD AND PUSH1 0xFF DUP8 AND OR SWAP1 SSTORE PUSH1 0xC4 CALLDATALOAD PUSH1 0x9 DUP4 ADD SSTORE PUSH1 0xB DUP3 ADD PUSH1 0x1 DUP6 DUP3 SLOAD AND OR SWAP1 SSTORE PUSH1 0xE4 CALLDATALOAD PUSH1 0xC DUP4 ADD SSTORE PUSH2 0xBC5 DUP6 PUSH2 0x125E JUMP JUMPDEST DUP5 PUSH2 0xBEB JUMPI POP PUSH1 0x3 ADD SSTORE POP JUMPDEST DUP2 MLOAD SWAP4 DUP5 MSTORE PUSH2 0xBDF DUP2 PUSH2 0x125E JUMP JUMPDEST PUSH1 0x20 DUP5 ADD MSTORE DUP3 ADD MSTORE LOG2 DUP1 RETURN JUMPDEST PUSH1 0x8 SWAP3 POP PUSH1 0x84 CALLDATALOAD SWAP1 DUP3 ADD SSTORE DUP6 PUSH1 0x5 DUP3 ADD SSTORE PUSH2 0xC08 PUSH1 0xA4 CALLDATALOAD TIMESTAMP PUSH2 0x12E9 JUMP JUMPDEST PUSH1 0x6 DUP3 ADD SSTORE ADD SWAP1 DUP2 SLOAD AND SWAP1 SSTORE PUSH2 0xBD1 JUMP JUMPDEST PUSH1 0x64 SWAP1 PUSH1 0x20 DUP5 MLOAD SWAP2 PUSH3 0x461BCD PUSH1 0xE5 SHL DUP4 MSTORE DUP3 ADD MSTORE PUSH1 0xE PUSH1 0x24 DUP3 ADD MSTORE PUSH14 0x105B1C9958591E481B1A5CDD1959 PUSH1 0x92 SHL PUSH1 0x44 DUP3 ADD MSTORE REVERT JUMPDEST PUSH1 0x64 SWAP1 PUSH1 0x20 DUP5 MLOAD SWAP2 PUSH3 0x461BCD PUSH1 0xE5 SHL DUP4 MSTORE DUP3 ADD MSTORE PUSH1 0x1E PUSH1 0x24 DUP3 ADD MSTORE PUSH32 0x4F6E6C79206F776E6572206F7220617574686F72697A6564207661756C740000 PUSH1 0x44 DUP3 ADD MSTORE REVERT JUMPDEST POP CALLER DUP8 MSTORE PUSH1 0x6 PUSH1 0x20 MSTORE PUSH1 0xFF DUP4 DUP9 KECCAK256 SLOAD AND PUSH2 0xB18 JUMP JUMPDEST DUP7 DUP1 REVERT JUMPDEST DUP6 DUP1 REVERT JUMPDEST POP DUP3 SWAP1 CALLVALUE PUSH2 0xD91 JUMPI PUSH2 0xCBE CALLDATASIZE PUSH2 0x122D JUMP JUMPDEST PUSH2 0xCD6 PUSH1 0x1 DUP1 PUSH1 0xA0 SWAP6 SWAP5 SWAP6 SHL SUB PUSH1 0x5 SLOAD AND CALLER EQ PUSH2 0x12B0 JUMP JUMPDEST DUP3 DUP5 MSTORE DUP4 PUSH1 0x20 MSTORE DUP2 DUP5 KECCAK256 SWAP5 PUSH2 0xCF7 PUSH1 0x1 PUSH1 0xFF PUSH1 0x2 DUP10 ADD SLOAD AND PUSH2 0x171 DUP2 PUSH2 0x125E JUMP JUMPDEST PUSH1 0x8 DUP7 ADD DUP1 SLOAD SWAP2 PUSH1 0xFF DUP4 AND PUSH2 0xD0B DUP2 PUSH2 0x125E JUMP JUMPDEST PUSH2 0xD5E JUMPI POP PUSH32 0x8738D776CCE75CC3CAFF5A102E7BB3C9E334CB3DE5D75AD07EA33F14877C2537 SWAP5 SWAP6 SWAP7 PUSH1 0xB SWAP2 PUSH1 0x1 PUSH1 0xFF NOT DUP1 SWAP6 AND OR SWAP1 SSTORE DUP4 PUSH1 0x7 DUP3 ADD SSTORE ADD SWAP1 DUP2 SLOAD AND SWAP1 SSTORE DUP2 MLOAD SWAP1 DUP2 MSTORE DUP5 PUSH1 0x20 DUP3 ADD MSTORE LOG2 DUP1 RETURN JUMPDEST PUSH1 0x64 SWAP1 PUSH1 0x20 DUP7 MLOAD SWAP2 PUSH3 0x461BCD PUSH1 0xE5 SHL DUP4 MSTORE DUP3 ADD MSTORE PUSH1 0xD PUSH1 0x24 DUP3 ADD MSTORE PUSH13 0x105B1C9958591E48195B991959 PUSH1 0x9A SHL PUSH1 0x44 DUP3 ADD MSTORE REVERT JUMPDEST POP DUP1 REVERT JUMPDEST DUP4 DUP3 CALLVALUE PUSH2 0xD91 JUMPI DUP2 PUSH1 0x3 NOT CALLDATASIZE ADD SLT PUSH2 0xD91 JUMPI PUSH1 0x5 SLOAD SWAP1 MLOAD PUSH1 0x1 PUSH1 0x1 PUSH1 0xA0 SHL SUB SWAP1 SWAP2 AND DUP2 MSTORE PUSH1 0x20 SWAP1 RETURN JUMPDEST DUP4 DUP3 CALLVALUE PUSH2 0xD91 JUMPI DUP2 PUSH1 0x3 NOT CALLDATASIZE ADD SLT PUSH2 0xD91 JUMPI PUSH1 0x3 SLOAD SWAP1 MLOAD PUSH1 0x1 PUSH1 0x1 PUSH1 0xA0 SHL SUB SWAP1 SWAP2 AND DUP2 MSTORE PUSH1 0x20 SWAP1 RETURN JUMPDEST POP CALLVALUE PUSH2 0x137 JUMPI DUP1 PUSH1 0x3 NOT CALLDATASIZE ADD SLT PUSH2 0x137 JUMPI PUSH2 0xE00 PUSH2 0x1248 JUMP JUMPDEST SWAP1 PUSH1 0x24 CALLDATALOAD DUP1 ISZERO ISZERO SWAP3 DUP4 DUP3 SUB PUSH2 0xCA9 JUMPI PUSH1 0x5 SLOAD PUSH1 0x1 PUSH1 0x1 PUSH1 0xA0 SHL SUB SWAP2 SWAP1 PUSH2 0xE29 SWAP1 DUP4 AND CALLER EQ PUSH2 0x12B0 JUMP JUMPDEST AND SWAP4 DUP5 ISZERO PUSH2 0xE7E JUMPI POP SWAP2 PUSH1 0x20 SWAP2 PUSH2 0xE76 PUSH32 0x18F47F52423FCEA7FA18E18E69F46B50562F0A8090B20F6C3DDF12BA6FF84FEB SWAP5 DUP7 DUP9 MSTORE PUSH1 0x6 DUP6 MSTORE DUP3 DUP9 KECCAK256 SWAP1 PUSH1 0xFF DUP1 NOT DUP4 SLOAD AND SWAP2 ISZERO ISZERO AND OR SWAP1 SSTORE JUMP JUMPDEST MLOAD SWAP1 DUP2 MSTORE LOG2 DUP1 RETURN JUMPDEST PUSH1 0x64 SWAP1 PUSH1 0x20 DUP5 MLOAD SWAP2 PUSH3 0x461BCD PUSH1 0xE5 SHL DUP4 MSTORE DUP3 ADD MSTORE PUSH1 0x15 PUSH1 0x24 DUP3 ADD MSTORE PUSH21 0x496E76616C6964207661756C742061646472657373 PUSH1 0x58 SHL PUSH1 0x44 DUP3 ADD MSTORE REVERT JUMPDEST POP CALLVALUE PUSH2 0x137 JUMPI PUSH1 0x20 CALLDATASIZE PUSH1 0x3 NOT ADD SLT PUSH2 0x137 JUMPI PUSH1 0xB SWAP2 PUSH2 0xEE3 PUSH1 0x1 DUP1 PUSH1 0xA0 SHL SUB PUSH1 0x5 SLOAD AND CALLER EQ PUSH2 0x12B0 JUMP JUMPDEST CALLDATALOAD DUP4 MSTORE DUP3 PUSH1 0x20 MSTORE DUP3 KECCAK256 ADD PUSH1 0xFF NOT DUP2 SLOAD AND SWAP1 SSTORE DUP1 RETURN JUMPDEST DUP4 DUP3 CALLVALUE PUSH2 0xD91 JUMPI PUSH1 0x20 CALLDATASIZE PUSH1 0x3 NOT ADD SLT PUSH2 0xD91 JUMPI PUSH1 0x20 SWAP2 PUSH1 0xFF SWAP1 DUP3 SWAP1 PUSH1 0x1 PUSH1 0x1 PUSH1 0xA0 SHL SUB PUSH2 0xF23 PUSH2 0x1248 JUMP JUMPDEST AND DUP2 MSTORE PUSH1 0x6 DUP6 MSTORE KECCAK256 SLOAD AND SWAP1 MLOAD SWAP1 ISZERO ISZERO DUP2 MSTORE RETURN JUMPDEST DUP4 DUP3 CALLVALUE PUSH2 0xD91 JUMPI DUP2 PUSH1 0x3 NOT CALLDATASIZE ADD SLT PUSH2 0xD91 JUMPI PUSH1 0x2 SLOAD SWAP1 MLOAD PUSH1 0x1 PUSH1 0x1 PUSH1 0xA0 SHL SUB SWAP1 SWAP2 AND DUP2 MSTORE PUSH1 0x20 SWAP1 RETURN JUMPDEST POP SWAP1 CALLVALUE PUSH2 0x137 JUMPI PUSH1 0x20 CALLDATASIZE PUSH1 0x3 NOT ADD SLT PUSH2 0x137 JUMPI PUSH1 0x20 SWAP3 DUP3 SWAP2 CALLDATALOAD DUP2 MSTORE PUSH1 0x1 DUP5 MSTORE KECCAK256 SLOAD SWAP1 MLOAD SWAP1 DUP2 MSTORE RETURN JUMPDEST POP SWAP1 CALLVALUE PUSH2 0x137 JUMPI PUSH2 0xF97 CALLDATASIZE PUSH2 0x122D JUMP JUMPDEST SWAP2 DUP2 DUP6 MSTORE PUSH1 0x20 SWAP1 DUP6 DUP3 MSTORE DUP5 DUP7 KECCAK256 SWAP2 PUSH1 0xB DUP4 ADD SWAP1 PUSH2 0xFB7 PUSH1 0xFF DUP4 SLOAD AND PUSH2 0x130C JUMP JUMPDEST PUSH1 0xFF PUSH1 0x2 DUP6 ADD SLOAD AND PUSH2 0xFC8 DUP2 PUSH2 0x125E JUMP JUMPDEST PUSH2 0x11F4 JUMPI PUSH2 0xFDC PUSH1 0xC DUP6 ADD SLOAD DUP8 LT ISZERO PUSH2 0x134D JUMP JUMPDEST PUSH1 0x9 DUP5 ADD DUP1 SLOAD SWAP2 PUSH2 0xFF3 PUSH1 0xA DUP8 ADD SWAP4 DUP5 SLOAD SWAP1 PUSH2 0x1390 JUMP JUMPDEST DUP9 GT PUSH2 0x11BC JUMPI PUSH1 0x3 DUP7 ADD SLOAD SWAP5 DUP10 DUP2 PUSH8 0xDE0B6B3A7640000 PUSH2 0x1014 DUP13 DUP11 PUSH2 0x139D JUMP JUMPDEST DIV SWAP9 DUP14 PUSH2 0x106A DUP7 DUP13 PUSH1 0x1 DUP1 PUSH1 0xA0 SHL SUB SWAP7 DUP8 PUSH1 0x3 SLOAD AND SWAP1 DUP6 DUP10 PUSH1 0x2 SLOAD AND SWAP2 MLOAD DUP1 SWAP7 DUP2 SWAP6 DUP3 SWAP5 PUSH4 0x23B872DD PUSH1 0xE0 SHL SWAP13 DUP14 DUP6 MSTORE CALLER SWAP1 DUP6 ADD PUSH1 0x40 SWAP2 SWAP5 SWAP4 SWAP3 SWAP5 PUSH1 0x60 DUP3 ADD SWAP6 PUSH1 0x1 DUP1 PUSH1 0xA0 SHL SUB DUP1 SWAP3 AND DUP4 MSTORE AND PUSH1 0x20 DUP3 ADD MSTORE ADD MSTORE JUMP JUMPDEST SUB SWAP3 GAS CALL SWAP2 DUP3 ISZERO PUSH2 0x11B1 JUMPI SWAP2 PUSH2 0x1194 JUMPI JUMPDEST POP ISZERO PUSH2 0x1160 JUMPI SLOAD PUSH1 0x2 SLOAD DUP14 MLOAD SWAP3 DUP4 MSTORE DUP4 AND PUSH1 0x1 PUSH1 0x1 PUSH1 0xA0 SHL SUB AND SWAP4 DUP3 ADD SWAP4 DUP5 MSTORE CALLER PUSH1 0x20 DUP6 ADD MSTORE PUSH1 0x40 DUP5 ADD DUP13 SWAP1 MSTORE SWAP1 SWAP3 DUP5 SWAP3 DUP5 SWAP3 AND SWAP1 DUP3 SWAP1 DUP16 SWAP1 DUP3 SWAP1 PUSH1 0x60 ADD SUB SWAP3 GAS CALL DUP1 ISZERO PUSH2 0x1156 JUMPI SWAP2 PUSH2 0x345 SWAP6 SWAP4 SWAP2 PUSH32 0x8A610281E414E4C68ACB644552801A81E1C3B037D9DA999C323EA58E5DA1576D SWAP10 SWAP11 SWAP12 SWAP6 SWAP4 PUSH2 0x1138 JUMPI JUMPDEST POP POP PUSH2 0x1102 DUP11 DUP4 SLOAD PUSH2 0x12E9 JUMP JUMPDEST DUP1 SWAP3 SSTORE SLOAD EQ PUSH2 0x112A JUMPI JUMPDEST POP MLOAD SWAP3 DUP4 SWAP3 CALLER SWAP8 DUP5 PUSH1 0x40 SWAP2 SWAP5 SWAP4 SWAP3 PUSH1 0x60 DUP3 ADD SWAP6 DUP3 MSTORE PUSH1 0x20 DUP3 ADD MSTORE ADD MSTORE JUMP JUMPDEST DUP1 SLOAD PUSH1 0xFF NOT AND SWAP1 SSTORE CODESIZE PUSH2 0x110C JUMP JUMPDEST DUP2 PUSH2 0x114E SWAP3 SWAP1 RETURNDATASIZE LT PUSH2 0x3EB JUMPI PUSH2 0x3DC DUP2 DUP4 PUSH2 0x13B0 JUMP JUMPDEST POP CODESIZE DUP1 PUSH2 0x10F5 JUMP JUMPDEST DUP11 MLOAD RETURNDATASIZE DUP14 DUP3 RETURNDATACOPY RETURNDATASIZE SWAP1 REVERT JUMPDEST DUP13 MLOAD PUSH3 0x461BCD PUSH1 0xE5 SHL DUP2 MSTORE DUP1 DUP6 ADD DUP7 SWAP1 MSTORE PUSH1 0xE PUSH1 0x24 DUP3 ADD MSTORE PUSH14 0x14185E5B595B9D0819985A5B1959 PUSH1 0x92 SHL PUSH1 0x44 DUP3 ADD MSTORE PUSH1 0x64 SWAP1 REVERT JUMPDEST PUSH2 0x11AB SWAP2 POP DUP7 RETURNDATASIZE DUP9 GT PUSH2 0x3EB JUMPI PUSH2 0x3DC DUP2 DUP4 PUSH2 0x13B0 JUMP JUMPDEST CODESIZE PUSH2 0x107B JUMP JUMPDEST DUP16 MLOAD SWAP1 RETURNDATASIZE SWAP1 DUP3 RETURNDATACOPY RETURNDATASIZE SWAP1 REVERT JUMPDEST DUP5 PUSH1 0x64 SWAP2 DUP11 MLOAD SWAP2 PUSH3 0x461BCD PUSH1 0xE5 SHL DUP4 MSTORE DUP3 ADD MSTORE PUSH1 0x13 PUSH1 0x24 DUP3 ADD MSTORE PUSH19 0x496E73756666696369656E7420737570706C79 PUSH1 0x68 SHL PUSH1 0x44 DUP3 ADD MSTORE REVERT JUMPDEST DUP3 PUSH1 0x64 SWAP2 DUP9 MLOAD SWAP2 PUSH3 0x461BCD PUSH1 0xE5 SHL DUP4 MSTORE DUP3 ADD MSTORE PUSH1 0x14 PUSH1 0x24 DUP3 ADD MSTORE PUSH20 0x4E6F74206120737461746963206C697374696E67 PUSH1 0x60 SHL PUSH1 0x44 DUP3 ADD MSTORE REVERT JUMPDEST PUSH1 0x40 SWAP1 PUSH1 0x3 NOT ADD SLT PUSH2 0x1243 JUMPI PUSH1 0x4 CALLDATALOAD SWAP1 PUSH1 0x24 CALLDATALOAD SWAP1 JUMP JUMPDEST PUSH1 0x0 DUP1 REVERT JUMPDEST PUSH1 0x4 CALLDATALOAD SWAP1 PUSH1 0x1 PUSH1 0x1 PUSH1 0xA0 SHL SUB DUP3 AND DUP3 SUB PUSH2 0x1243 JUMPI JUMP JUMPDEST PUSH1 0x2 GT ISZERO PUSH2 0x1268 JUMPI JUMP JUMPDEST PUSH4 0x4E487B71 PUSH1 0xE0 SHL PUSH1 0x0 MSTORE PUSH1 0x21 PUSH1 0x4 MSTORE PUSH1 0x24 PUSH1 0x0 REVERT JUMPDEST DUP1 SLOAD DUP3 LT ISZERO PUSH2 0x129A JUMPI PUSH1 0x0 MSTORE PUSH1 0x5 PUSH1 0x20 PUSH1 0x0 KECCAK256 SWAP2 MUL ADD SWAP1 PUSH1 0x0 SWAP1 JUMP JUMPDEST PUSH4 0x4E487B71 PUSH1 0xE0 SHL PUSH1 0x0 MSTORE PUSH1 0x32 PUSH1 0x4 MSTORE PUSH1 0x24 PUSH1 0x0 REVERT JUMPDEST ISZERO PUSH2 0x12B7 JUMPI JUMP JUMPDEST PUSH1 0x40 MLOAD PUSH3 0x461BCD PUSH1 0xE5 SHL DUP2 MSTORE PUSH1 0x20 PUSH1 0x4 DUP3 ADD MSTORE PUSH1 0xA PUSH1 0x24 DUP3 ADD MSTORE PUSH10 0x27B7363C9037BBB732B9 PUSH1 0xB1 SHL PUSH1 0x44 DUP3 ADD MSTORE PUSH1 0x64 SWAP1 REVERT JUMPDEST SWAP2 SWAP1 DUP3 ADD DUP1 SWAP3 GT PUSH2 0x12F6 JUMPI JUMP JUMPDEST PUSH4 0x4E487B71 PUSH1 0xE0 SHL PUSH1 0x0 MSTORE PUSH1 0x11 PUSH1 0x4 MSTORE PUSH1 0x24 PUSH1 0x0 REVERT JUMPDEST ISZERO PUSH2 0x1313 JUMPI JUMP JUMPDEST PUSH1 0x40 MLOAD PUSH3 0x461BCD PUSH1 0xE5 SHL DUP2 MSTORE PUSH1 0x20 PUSH1 0x4 DUP3 ADD MSTORE PUSH1 0x12 PUSH1 0x24 DUP3 ADD MSTORE PUSH18 0x4C697374696E67206E6F7420616374697665 PUSH1 0x70 SHL PUSH1 0x44 DUP3 ADD MSTORE PUSH1 0x64 SWAP1 REVERT JUMPDEST ISZERO PUSH2 0x1354 JUMPI JUMP JUMPDEST PUSH1 0x40 MLOAD PUSH3 0x461BCD PUSH1 0xE5 SHL DUP2 MSTORE PUSH1 0x20 PUSH1 0x4 DUP3 ADD MSTORE PUSH1 0x14 PUSH1 0x24 DUP3 ADD MSTORE PUSH20 0x10995B1BDDC81B5A5B881A5B9D995CDD1B595B9D PUSH1 0x62 SHL PUSH1 0x44 DUP3 ADD MSTORE PUSH1 0x64 SWAP1 REVERT JUMPDEST SWAP2 SWAP1 DUP3 SUB SWAP2 DUP3 GT PUSH2 0x12F6 JUMPI JUMP JUMPDEST DUP2 DUP2 MUL SWAP3 SWAP2 DUP2 ISZERO SWAP2 DUP5 DIV EQ OR ISZERO PUSH2 0x12F6 JUMPI JUMP JUMPDEST SWAP1 PUSH1 0x1F DUP1 NOT SWAP2 ADD AND DUP2 ADD SWAP1 DUP2 LT PUSH8 0xFFFFFFFFFFFFFFFF DUP3 GT OR PUSH2 0x13D2 JUMPI PUSH1 0x40 MSTORE JUMP JUMPDEST PUSH4 0x4E487B71 PUSH1 0xE0 SHL PUSH1 0x0 MSTORE PUSH1 0x41 PUSH1 0x4 MSTORE PUSH1 0x24 PUSH1 0x0 REVERT JUMPDEST SWAP1 DUP2 PUSH1 0x20 SWAP2 SUB SLT PUSH2 0x1243 JUMPI MLOAD DUP1 ISZERO ISZERO DUP2 SUB PUSH2 0x1243 JUMPI SWAP1 JUMP JUMPDEST ISZERO PUSH2 0x1407 JUMPI JUMP JUMPDEST PUSH1 0x40 MLOAD PUSH3 0x461BCD PUSH1 0xE5 SHL DUP2 MSTORE PUSH1 0x20 PUSH1 0x4 DUP3 ADD MSTORE PUSH1 0xE PUSH1 0x24 DUP3 ADD MSTORE PUSH14 0x2737BA1030B71030BAB1BA34B7B7 PUSH1 0x91 SHL PUSH1 0x44 DUP3 ADD MSTORE PUSH1 0x64 SWAP1 REVERT JUMPDEST ISZERO PUSH2 0x1444 JUMPI JUMP JUMPDEST PUSH1 0x40 MLOAD PUSH3 0x461BCD PUSH1 0xE5 SHL DUP2 MSTORE PUSH1 0x20 PUSH1 0x4 DUP3 ADD MSTORE PUSH1 0xD PUSH1 0x24 DUP3 ADD MSTORE PUSH13 0x1499599D5B990819985A5B1959 PUSH1 0x9A SHL PUSH1 0x44 DUP3 ADD MSTORE PUSH1 0x64 SWAP1 REVERT INVALID 0x5D 0xBB DUP5 CHAINID SELFDESTRUCT PUSH26 0x1512030D3F7FF8B3F0CC00535ADBDFA664C3732452A746A1A614 LOG2 PUSH5 0x6970667358 0x22 SLT KECCAK256 TIMESTAMP PUSH0 DUP14 SWAP10 CALLVALUE 0xE8 0xD9 MLOAD GT SWAP15 EXP 0xED DUP1 EXTCODECOPY 0x5E ORIGIN 0xB9 CALL NUMBER SWAP1 PUSH1 0x27 CODECOPY PUSH24 0x7C3B3E0B84879E1664736F6C634300081400330000000000 "},"methodIdentifiers":{"USDC()":"89a30271","authorizeVault(address,bool)":"69a361cc","authorizedVaults(address)":"393b8516","bids(bytes32,uint256)":"f7e65b1c","buyTokens(bytes32,uint256)":"07f5d633","closeListing(bytes32)":"3dddafa7","createListing(bytes32,address,uint8,uint256,uint256,uint256,uint256,uint256)":"af8e8100","endAuction(bytes32,uint256)":"a03f7d19","factory()":"c45a0155","getBidCount(bytes32)":"15659dde","listings(bytes32)":"c18b8db4","owner()":"8da5cb5b","platformCustody()":"299aa1d7","settleBid(bytes32,uint256)":"f69314be","submitBid(bytes32,uint256,uint256)":"be0b4231"}}}}}