{"contracts/core/ComplianceModule.sol":{"ComplianceModule":{"abi":[{"inputs":[{"internalType":"address","name":"_identityRegistry","type":"address"},{"internalType":"address","name":"_attestationRegistry","type":"address"},{"internalType":"bytes32","name":"_assetId","type":"bytes32"}],"stateMutability":"nonpayable","type":"constructor"},{"inputs":[],"name":"assetId","outputs":[{"internalType":"bytes32","name":"","type":"bytes32"}],"stateMutability":"view","type":"function"},{"inputs":[],"name":"attestationRegistry","outputs":[{"internalType":"contract AttestationRegistry","name":"","type":"address"}],"stateMutability":"view","type":"function"},{"inputs":[{"internalType":"address","name":"from","type":"address"},{"internalType":"address","name":"to","type":"address"},{"internalType":"uint256","name":"","type":"uint256"}],"name":"canTransfer","outputs":[{"internalType":"bool","name":"","type":"bool"}],"stateMutability":"view","type":"function"},{"inputs":[],"name":"identityRegistry","outputs":[{"internalType":"contract IdentityRegistry","name":"","type":"address"}],"stateMutability":"view","type":"function"},{"inputs":[],"name":"owner","outputs":[{"internalType":"address","name":"","type":"address"}],"stateMutability":"view","type":"function"},{"inputs":[{"internalType":"address","name":"_attestationRegistry","type":"address"}],"name":"setAttestationRegistry","outputs":[],"stateMutability":"nonpayable","type":"function"},{"inputs":[{"internalType":"address","name":"_identityRegistry","type":"address"}],"name":"setIdentityRegistry","outputs":[],"stateMutability":"nonpayable","type":"function"}],"evm":{"bytecode":{"linkReferences":{},"object":"60803461009c57601f6104e838819003918201601f19168301916001600160401b038311848410176100a15780849260609460405283398101031261009c57610047816100b7565b906040610056602083016100b7565b9101519160018060a01b0319913383600354161760035560018060a01b038092168360005416176000551690600154161760015560025560405161041c90816100cc8239f35b600080fd5b634e487b7160e01b600052604160045260246000fd5b51906001600160a01b038216820361009c5756fe604060808152600436101561001357600080fd5b600090813560e01c806306d8560014610193578063134e18f41461016c57806344de240a1461014e5780638da5cb5b14610126578063cbf3f861146100de578063e46638e6146100975763ed6d73f91461006c57600080fd5b3461009357816003193601126100935760015490516001600160a01b039091168152602090f35b5080fd5b5034610093576060366003190112610093576100b16101e3565b602435926001600160a01b03841684036100db57506020926100d29161024e565b90519015158152f35b80fd5b82346100db5760203660031901126100db576100f86101e3565b6003546001600160a01b03919061011290831633146103ad565b82546001600160a01b031916911617815580f35b503461009357816003193601126100935760035490516001600160a01b039091168152602090f35b50346100935781600319360112610093576020906002549051908152f35b5034610093578160031936011261009357905490516001600160a01b039091168152602090f35b82346100db5760203660031901126100db576101ad6101e3565b6003546001600160a01b0391906101c790831633146103ad565b166bffffffffffffffffffffffff60a01b600154161760015580f35b600435906001600160a01b03821682036101f957565b600080fd5b90601f8019910116810190811067ffffffffffffffff82111761022057604052565b634e487b7160e01b600052604160045260246000fd5b908160209103126101f9575180151581036101f95790565b6001600160a01b03918291821680610347575b5016806102e6575b5060015416602060025460246040518094819363339f16a960e01b835260048301525afa9081156102da576000916102ac575b50156102a757600190565b600090565b6102cd915060203d81116102d3575b6102c581836101fe565b810190610236565b3861029c565b503d6102bb565b6040513d6000823e3d90fd5b602082600054169160246040518094819363b9209e3360e01b835260048301525afa9081156102da57600091610329575b50156103235738610269565b50600090565b610341915060203d81116102d3576102c581836101fe565b38610317565b9091602090600054169160246040518094819363b9209e3360e01b835260048301525afa9081156102da5760009161038f575b501561038857819038610261565b5050600090565b6103a7915060203d81116102d3576102c581836101fe565b3861037a565b156103b457565b60405162461bcd60e51b815260206004820152600a60248201526927b7363c9037bbb732b960b11b6044820152606490fdfea26469706673582212207761f5fb0bcc473b90d808eb85af9f158dbb4929fb8e84a9f0839def80cc963e64736f6c63430008140033","opcodes":"PUSH1 0x80 CALLVALUE PUSH2 0x9C JUMPI PUSH1 0x1F PUSH2 0x4E8 CODESIZE DUP2 SWAP1 SUB SWAP2 DUP3 ADD PUSH1 0x1F NOT AND DUP4 ADD SWAP2 PUSH1 0x1 PUSH1 0x1 PUSH1 0x40 SHL SUB DUP4 GT DUP5 DUP5 LT OR PUSH2 0xA1 JUMPI DUP1 DUP5 SWAP3 PUSH1 0x60 SWAP5 PUSH1 0x40 MSTORE DUP4 CODECOPY DUP2 ADD SUB SLT PUSH2 0x9C JUMPI PUSH2 0x47 DUP2 PUSH2 0xB7 JUMP JUMPDEST SWAP1 PUSH1 0x40 PUSH2 0x56 PUSH1 0x20 DUP4 ADD PUSH2 0xB7 JUMP JUMPDEST SWAP2 ADD MLOAD SWAP2 PUSH1 0x1 DUP1 PUSH1 0xA0 SHL SUB NOT SWAP2 CALLER DUP4 PUSH1 0x3 SLOAD AND OR PUSH1 0x3 SSTORE PUSH1 0x1 DUP1 PUSH1 0xA0 SHL SUB DUP1 SWAP3 AND DUP4 PUSH1 0x0 SLOAD AND OR PUSH1 0x0 SSTORE AND SWAP1 PUSH1 0x1 SLOAD AND OR PUSH1 0x1 SSTORE PUSH1 0x2 SSTORE PUSH1 0x40 MLOAD PUSH2 0x41C SWAP1 DUP2 PUSH2 0xCC DUP3 CODECOPY RETURN JUMPDEST PUSH1 0x0 DUP1 REVERT JUMPDEST PUSH4 0x4E487B71 PUSH1 0xE0 SHL PUSH1 0x0 MSTORE PUSH1 0x41 PUSH1 0x4 MSTORE PUSH1 0x24 PUSH1 0x0 REVERT JUMPDEST MLOAD SWAP1 PUSH1 0x1 PUSH1 0x1 PUSH1 0xA0 SHL SUB DUP3 AND DUP3 SUB PUSH2 0x9C JUMPI JUMP INVALID PUSH1 0x40 PUSH1 0x80 DUP2 MSTORE PUSH1 0x4 CALLDATASIZE LT ISZERO PUSH2 0x13 JUMPI PUSH1 0x0 DUP1 REVERT JUMPDEST PUSH1 0x0 SWAP1 DUP2 CALLDATALOAD PUSH1 0xE0 SHR DUP1 PUSH4 0x6D85600 EQ PUSH2 0x193 JUMPI DUP1 PUSH4 0x134E18F4 EQ PUSH2 0x16C JUMPI DUP1 PUSH4 0x44DE240A EQ PUSH2 0x14E JUMPI DUP1 PUSH4 0x8DA5CB5B EQ PUSH2 0x126 JUMPI DUP1 PUSH4 0xCBF3F861 EQ PUSH2 0xDE JUMPI DUP1 PUSH4 0xE46638E6 EQ PUSH2 0x97 JUMPI PUSH4 0xED6D73F9 EQ PUSH2 0x6C JUMPI PUSH1 0x0 DUP1 REVERT JUMPDEST CALLVALUE PUSH2 0x93 JUMPI DUP2 PUSH1 0x3 NOT CALLDATASIZE ADD SLT PUSH2 0x93 JUMPI PUSH1 0x1 SLOAD SWAP1 MLOAD PUSH1 0x1 PUSH1 0x1 PUSH1 0xA0 SHL SUB SWAP1 SWAP2 AND DUP2 MSTORE PUSH1 0x20 SWAP1 RETURN JUMPDEST POP DUP1 REVERT JUMPDEST POP CALLVALUE PUSH2 0x93 JUMPI PUSH1 0x60 CALLDATASIZE PUSH1 0x3 NOT ADD SLT PUSH2 0x93 JUMPI PUSH2 0xB1 PUSH2 0x1E3 JUMP JUMPDEST PUSH1 0x24 CALLDATALOAD SWAP3 PUSH1 0x1 PUSH1 0x1 PUSH1 0xA0 SHL SUB DUP5 AND DUP5 SUB PUSH2 0xDB JUMPI POP PUSH1 0x20 SWAP3 PUSH2 0xD2 SWAP2 PUSH2 0x24E JUMP JUMPDEST SWAP1 MLOAD SWAP1 ISZERO ISZERO DUP2 MSTORE RETURN JUMPDEST DUP1 REVERT JUMPDEST DUP3 CALLVALUE PUSH2 0xDB JUMPI PUSH1 0x20 CALLDATASIZE PUSH1 0x3 NOT ADD SLT PUSH2 0xDB JUMPI PUSH2 0xF8 PUSH2 0x1E3 JUMP JUMPDEST PUSH1 0x3 SLOAD PUSH1 0x1 PUSH1 0x1 PUSH1 0xA0 SHL SUB SWAP2 SWAP1 PUSH2 0x112 SWAP1 DUP4 AND CALLER EQ PUSH2 0x3AD JUMP JUMPDEST DUP3 SLOAD PUSH1 0x1 PUSH1 0x1 PUSH1 0xA0 SHL SUB NOT AND SWAP2 AND OR DUP2 SSTORE DUP1 RETURN JUMPDEST POP CALLVALUE PUSH2 0x93 JUMPI DUP2 PUSH1 0x3 NOT CALLDATASIZE ADD SLT PUSH2 0x93 JUMPI PUSH1 0x3 SLOAD SWAP1 MLOAD PUSH1 0x1 PUSH1 0x1 PUSH1 0xA0 SHL SUB SWAP1 SWAP2 AND DUP2 MSTORE PUSH1 0x20 SWAP1 RETURN JUMPDEST POP CALLVALUE PUSH2 0x93 JUMPI DUP2 PUSH1 0x3 NOT CALLDATASIZE ADD SLT PUSH2 0x93 JUMPI PUSH1 0x20 SWAP1 PUSH1 0x2 SLOAD SWAP1 MLOAD SWAP1 DUP2 MSTORE RETURN JUMPDEST POP CALLVALUE PUSH2 0x93 JUMPI DUP2 PUSH1 0x3 NOT CALLDATASIZE ADD SLT PUSH2 0x93 JUMPI SWAP1 SLOAD SWAP1 MLOAD PUSH1 0x1 PUSH1 0x1 PUSH1 0xA0 SHL SUB SWAP1 SWAP2 AND DUP2 MSTORE PUSH1 0x20 SWAP1 RETURN JUMPDEST DUP3 CALLVALUE PUSH2 0xDB JUMPI PUSH1 0x20 CALLDATASIZE PUSH1 0x3 NOT ADD SLT PUSH2 0xDB JUMPI PUSH2 0x1AD PUSH2 0x1E3 JUMP JUMPDEST PUSH1 0x3 SLOAD PUSH1 0x1 PUSH1 0x1 PUSH1 0xA0 SHL SUB SWAP2 SWAP1 PUSH2 0x1C7 SWAP1 DUP4 AND CALLER EQ PUSH2 0x3AD JUMP JUMPDEST AND PUSH12 0xFFFFFFFFFFFFFFFFFFFFFFFF PUSH1 0xA0 SHL PUSH1 0x1 SLOAD AND OR PUSH1 0x1 SSTORE DUP1 RETURN JUMPDEST PUSH1 0x4 CALLDATALOAD SWAP1 PUSH1 0x1 PUSH1 0x1 PUSH1 0xA0 SHL SUB DUP3 AND DUP3 SUB PUSH2 0x1F9 JUMPI JUMP JUMPDEST PUSH1 0x0 DUP1 REVERT JUMPDEST SWAP1 PUSH1 0x1F DUP1 NOT SWAP2 ADD AND DUP2 ADD SWAP1 DUP2 LT PUSH8 0xFFFFFFFFFFFFFFFF DUP3 GT OR PUSH2 0x220 JUMPI PUSH1 0x40 MSTORE JUMP JUMPDEST PUSH4 0x4E487B71 PUSH1 0xE0 SHL PUSH1 0x0 MSTORE PUSH1 0x41 PUSH1 0x4 MSTORE PUSH1 0x24 PUSH1 0x0 REVERT JUMPDEST SWAP1 DUP2 PUSH1 0x20 SWAP2 SUB SLT PUSH2 0x1F9 JUMPI MLOAD DUP1 ISZERO ISZERO DUP2 SUB PUSH2 0x1F9 JUMPI SWAP1 JUMP JUMPDEST PUSH1 0x1 PUSH1 0x1 PUSH1 0xA0 SHL SUB SWAP2 DUP3 SWAP2 DUP3 AND DUP1 PUSH2 0x347 JUMPI JUMPDEST POP AND DUP1 PUSH2 0x2E6 JUMPI JUMPDEST POP PUSH1 0x1 SLOAD AND PUSH1 0x20 PUSH1 0x2 SLOAD PUSH1 0x24 PUSH1 0x40 MLOAD DUP1 SWAP5 DUP2 SWAP4 PUSH4 0x339F16A9 PUSH1 0xE0 SHL DUP4 MSTORE PUSH1 0x4 DUP4 ADD MSTORE GAS STATICCALL SWAP1 DUP2 ISZERO PUSH2 0x2DA JUMPI PUSH1 0x0 SWAP2 PUSH2 0x2AC JUMPI JUMPDEST POP ISZERO PUSH2 0x2A7 JUMPI PUSH1 0x1 SWAP1 JUMP JUMPDEST PUSH1 0x0 SWAP1 JUMP JUMPDEST PUSH2 0x2CD SWAP2 POP PUSH1 0x20 RETURNDATASIZE DUP2 GT PUSH2 0x2D3 JUMPI JUMPDEST PUSH2 0x2C5 DUP2 DUP4 PUSH2 0x1FE JUMP JUMPDEST DUP2 ADD SWAP1 PUSH2 0x236 JUMP JUMPDEST CODESIZE PUSH2 0x29C JUMP JUMPDEST POP RETURNDATASIZE PUSH2 0x2BB JUMP JUMPDEST PUSH1 0x40 MLOAD RETURNDATASIZE PUSH1 0x0 DUP3 RETURNDATACOPY RETURNDATASIZE SWAP1 REVERT JUMPDEST PUSH1 0x20 DUP3 PUSH1 0x0 SLOAD AND SWAP2 PUSH1 0x24 PUSH1 0x40 MLOAD DUP1 SWAP5 DUP2 SWAP4 PUSH4 0xB9209E33 PUSH1 0xE0 SHL DUP4 MSTORE PUSH1 0x4 DUP4 ADD MSTORE GAS STATICCALL SWAP1 DUP2 ISZERO PUSH2 0x2DA JUMPI PUSH1 0x0 SWAP2 PUSH2 0x329 JUMPI JUMPDEST POP ISZERO PUSH2 0x323 JUMPI CODESIZE PUSH2 0x269 JUMP JUMPDEST POP PUSH1 0x0 SWAP1 JUMP JUMPDEST PUSH2 0x341 SWAP2 POP PUSH1 0x20 RETURNDATASIZE DUP2 GT PUSH2 0x2D3 JUMPI PUSH2 0x2C5 DUP2 DUP4 PUSH2 0x1FE JUMP JUMPDEST CODESIZE PUSH2 0x317 JUMP JUMPDEST SWAP1 SWAP2 PUSH1 0x20 SWAP1 PUSH1 0x0 SLOAD AND SWAP2 PUSH1 0x24 PUSH1 0x40 MLOAD DUP1 SWAP5 DUP2 SWAP4 PUSH4 0xB9209E33 PUSH1 0xE0 SHL DUP4 MSTORE PUSH1 0x4 DUP4 ADD MSTORE GAS STATICCALL SWAP1 DUP2 ISZERO PUSH2 0x2DA JUMPI PUSH1 0x0 SWAP2 PUSH2 0x38F JUMPI JUMPDEST POP ISZERO PUSH2 0x388 JUMPI DUP2 SWAP1 CODESIZE PUSH2 0x261 JUMP JUMPDEST POP POP PUSH1 0x0 SWAP1 JUMP JUMPDEST PUSH2 0x3A7 SWAP2 POP PUSH1 0x20 RETURNDATASIZE DUP2 GT PUSH2 0x2D3 JUMPI PUSH2 0x2C5 DUP2 DUP4 PUSH2 0x1FE JUMP JUMPDEST CODESIZE PUSH2 0x37A JUMP JUMPDEST ISZERO PUSH2 0x3B4 JUMPI JUMP JUMPDEST PUSH1 0x40 MLOAD PUSH3 0x461BCD PUSH1 0xE5 SHL DUP2 MSTORE PUSH1 0x20 PUSH1 0x4 DUP3 ADD MSTORE PUSH1 0xA PUSH1 0x24 DUP3 ADD MSTORE PUSH10 0x27B7363C9037BBB732B9 PUSH1 0xB1 SHL PUSH1 0x44 DUP3 ADD MSTORE PUSH1 0x64 SWAP1 REVERT INVALID LOG2 PUSH5 0x6970667358 0x22 SLT KECCAK256 PUSH24 0x61F5FB0BCC473B90D808EB85AF9F158DBB4929FB8E84A9F0 DUP4 SWAP14 0xEF DUP1 0xCC SWAP7 RETURNDATACOPY PUSH5 0x736F6C6343 STOP ADDMOD EQ STOP CALLER "},"methodIdentifiers":{"assetId()":"44de240a","attestationRegistry()":"ed6d73f9","canTransfer(address,address,uint256)":"e46638e6","identityRegistry()":"134e18f4","owner()":"8da5cb5b","setAttestationRegistry(address)":"06d85600","setIdentityRegistry(address)":"cbf3f861"}}}}}