{"contracts/core/TrustedIssuersRegistry.sol":{"TrustedIssuersRegistry":{"abi":[{"inputs":[],"stateMutability":"nonpayable","type":"constructor"},{"anonymous":false,"inputs":[{"indexed":true,"internalType":"address","name":"issuer","type":"address"},{"indexed":false,"internalType":"uint256","name":"timestamp","type":"uint256"}],"name":"TrustedIssuerAdded","type":"event"},{"anonymous":false,"inputs":[{"indexed":true,"internalType":"address","name":"issuer","type":"address"},{"indexed":false,"internalType":"uint256","name":"timestamp","type":"uint256"}],"name":"TrustedIssuerRemoved","type":"event"},{"inputs":[{"internalType":"address","name":"issuer","type":"address"}],"name":"addTrustedIssuer","outputs":[],"stateMutability":"nonpayable","type":"function"},{"inputs":[{"internalType":"address","name":"issuer","type":"address"}],"name":"isTrustedIssuer","outputs":[{"internalType":"bool","name":"","type":"bool"}],"stateMutability":"view","type":"function"},{"inputs":[],"name":"owner","outputs":[{"internalType":"address","name":"","type":"address"}],"stateMutability":"view","type":"function"},{"inputs":[{"internalType":"address","name":"issuer","type":"address"}],"name":"removeTrustedIssuer","outputs":[],"stateMutability":"nonpayable","type":"function"},{"inputs":[{"internalType":"address","name":"","type":"address"}],"name":"trustedIssuers","outputs":[{"internalType":"bool","name":"","type":"bool"}],"stateMutability":"view","type":"function"}],"evm":{"bytecode":{"linkReferences":{},"object":"6080806040523461002857600180546001600160a01b03191633179055610263908161002e8239f35b600080fdfe60806040818152600436101561001457600080fd5b600091823560e01c9081638da5cb5b146101cf5750806392c54daf14610190578063b93d28eb1461011b578063c4566bdd1461009f5763ef2ed1a41461005957600080fd5b3461009b57602036600319011261009b576004356001600160a01b0381169081900361009757818360ff926020955280855220541690519015158152f35b8280fd5b5080fd5b503461009b57602036600319011261009b576004356001600160a01b038181169291839003610117577f919fe28f0bdcdb27d713e21288fe5577f73989f352066965475683883aa78b3f916100fb6020926001541633146101f4565b838552848252808520805460ff1916600117905551428152a280f35b8380fd5b503461009b57602036600319011261009b576004356001600160a01b038181169291839003610117577f85f5a2e8e62d79d3b4686aa77b196e569f8df940416cca3ba3b1e3553b3138ee916101776020926001541633146101f4565b838552848252808520805460ff1916905551428152a280f35b503461009b57602036600319011261009b576004356001600160a01b0381169081900361009757818360ff926020955280855220541690519015158152f35b83903461009b578160031936011261009b576001546001600160a01b03168152602090f35b156101fb57565b60405162461bcd60e51b815260206004820152600a60248201526927b7363c9037bbb732b960b11b6044820152606490fdfea264697066735822122044e27bcacb600fc9707ced13daf3bd36c68fd3e019e719737f66151f45068ee164736f6c63430008140033","opcodes":"PUSH1 0x80 DUP1 PUSH1 0x40 MSTORE CALLVALUE PUSH2 0x28 JUMPI PUSH1 0x1 DUP1 SLOAD PUSH1 0x1 PUSH1 0x1 PUSH1 0xA0 SHL SUB NOT AND CALLER OR SWAP1 SSTORE PUSH2 0x263 SWAP1 DUP2 PUSH2 0x2E DUP3 CODECOPY RETURN JUMPDEST PUSH1 0x0 DUP1 REVERT INVALID PUSH1 0x80 PUSH1 0x40 DUP2 DUP2 MSTORE PUSH1 0x4 CALLDATASIZE LT ISZERO PUSH2 0x14 JUMPI PUSH1 0x0 DUP1 REVERT JUMPDEST PUSH1 0x0 SWAP2 DUP3 CALLDATALOAD PUSH1 0xE0 SHR SWAP1 DUP2 PUSH4 0x8DA5CB5B EQ PUSH2 0x1CF JUMPI POP DUP1 PUSH4 0x92C54DAF EQ PUSH2 0x190 JUMPI DUP1 PUSH4 0xB93D28EB EQ PUSH2 0x11B JUMPI DUP1 PUSH4 0xC4566BDD EQ PUSH2 0x9F JUMPI PUSH4 0xEF2ED1A4 EQ PUSH2 0x59 JUMPI PUSH1 0x0 DUP1 REVERT JUMPDEST CALLVALUE PUSH2 0x9B JUMPI PUSH1 0x20 CALLDATASIZE PUSH1 0x3 NOT ADD SLT PUSH2 0x9B JUMPI PUSH1 0x4 CALLDATALOAD PUSH1 0x1 PUSH1 0x1 PUSH1 0xA0 SHL SUB DUP2 AND SWAP1 DUP2 SWAP1 SUB PUSH2 0x97 JUMPI DUP2 DUP4 PUSH1 0xFF SWAP3 PUSH1 0x20 SWAP6 MSTORE DUP1 DUP6 MSTORE KECCAK256 SLOAD AND SWAP1 MLOAD SWAP1 ISZERO ISZERO DUP2 MSTORE RETURN JUMPDEST DUP3 DUP1 REVERT JUMPDEST POP DUP1 REVERT JUMPDEST POP CALLVALUE PUSH2 0x9B JUMPI PUSH1 0x20 CALLDATASIZE PUSH1 0x3 NOT ADD SLT PUSH2 0x9B JUMPI PUSH1 0x4 CALLDATALOAD PUSH1 0x1 PUSH1 0x1 PUSH1 0xA0 SHL SUB DUP2 DUP2 AND SWAP3 SWAP2 DUP4 SWAP1 SUB PUSH2 0x117 JUMPI PUSH32 0x919FE28F0BDCDB27D713E21288FE5577F73989F352066965475683883AA78B3F SWAP2 PUSH2 0xFB PUSH1 0x20 SWAP3 PUSH1 0x1 SLOAD AND CALLER EQ PUSH2 0x1F4 JUMP JUMPDEST DUP4 DUP6 MSTORE DUP5 DUP3 MSTORE DUP1 DUP6 KECCAK256 DUP1 SLOAD PUSH1 0xFF NOT AND PUSH1 0x1 OR SWAP1 SSTORE MLOAD TIMESTAMP DUP2 MSTORE LOG2 DUP1 RETURN JUMPDEST DUP4 DUP1 REVERT JUMPDEST POP CALLVALUE PUSH2 0x9B JUMPI PUSH1 0x20 CALLDATASIZE PUSH1 0x3 NOT ADD SLT PUSH2 0x9B JUMPI PUSH1 0x4 CALLDATALOAD PUSH1 0x1 PUSH1 0x1 PUSH1 0xA0 SHL SUB DUP2 DUP2 AND SWAP3 SWAP2 DUP4 SWAP1 SUB PUSH2 0x117 JUMPI PUSH32 0x85F5A2E8E62D79D3B4686AA77B196E569F8DF940416CCA3BA3B1E3553B3138EE SWAP2 PUSH2 0x177 PUSH1 0x20 SWAP3 PUSH1 0x1 SLOAD AND CALLER EQ PUSH2 0x1F4 JUMP JUMPDEST DUP4 DUP6 MSTORE DUP5 DUP3 MSTORE DUP1 DUP6 KECCAK256 DUP1 SLOAD PUSH1 0xFF NOT AND SWAP1 SSTORE MLOAD TIMESTAMP DUP2 MSTORE LOG2 DUP1 RETURN JUMPDEST POP CALLVALUE PUSH2 0x9B JUMPI PUSH1 0x20 CALLDATASIZE PUSH1 0x3 NOT ADD SLT PUSH2 0x9B JUMPI PUSH1 0x4 CALLDATALOAD PUSH1 0x1 PUSH1 0x1 PUSH1 0xA0 SHL SUB DUP2 AND SWAP1 DUP2 SWAP1 SUB PUSH2 0x97 JUMPI DUP2 DUP4 PUSH1 0xFF SWAP3 PUSH1 0x20 SWAP6 MSTORE DUP1 DUP6 MSTORE KECCAK256 SLOAD AND SWAP1 MLOAD SWAP1 ISZERO ISZERO DUP2 MSTORE RETURN JUMPDEST DUP4 SWAP1 CALLVALUE PUSH2 0x9B JUMPI DUP2 PUSH1 0x3 NOT CALLDATASIZE ADD SLT PUSH2 0x9B JUMPI PUSH1 0x1 SLOAD PUSH1 0x1 PUSH1 0x1 PUSH1 0xA0 SHL SUB AND DUP2 MSTORE PUSH1 0x20 SWAP1 RETURN JUMPDEST ISZERO PUSH2 0x1FB JUMPI JUMP JUMPDEST PUSH1 0x40 MLOAD PUSH3 0x461BCD PUSH1 0xE5 SHL DUP2 MSTORE PUSH1 0x20 PUSH1 0x4 DUP3 ADD MSTORE PUSH1 0xA PUSH1 0x24 DUP3 ADD MSTORE PUSH10 0x27B7363C9037BBB732B9 PUSH1 0xB1 SHL PUSH1 0x44 DUP3 ADD MSTORE PUSH1 0x64 SWAP1 REVERT INVALID LOG2 PUSH5 0x6970667358 0x22 SLT KECCAK256 PREVRANDAO 0xE2 PUSH28 0xCACB600FC9707CED13DAF3BD36C68FD3E019E719737F66151F45068E 0xE1 PUSH5 0x736F6C6343 STOP ADDMOD EQ STOP CALLER "},"methodIdentifiers":{"addTrustedIssuer(address)":"c4566bdd","isTrustedIssuer(address)":"ef2ed1a4","owner()":"8da5cb5b","removeTrustedIssuer(address)":"b93d28eb","trustedIssuers(address)":"92c54daf"}}}}}