{"contracts/marketplace/SecondaryMarket.sol":{"SecondaryMarket":{"abi":[{"inputs":[{"internalType":"address","name":"_usdc","type":"address"},{"internalType":"address","name":"_identityRegistry","type":"address"}],"stateMutability":"nonpayable","type":"constructor"},{"inputs":[{"internalType":"address","name":"owner","type":"address"}],"name":"OwnableInvalidOwner","type":"error"},{"inputs":[{"internalType":"address","name":"account","type":"address"}],"name":"OwnableUnauthorizedAccount","type":"error"},{"inputs":[],"name":"ReentrancyGuardReentrantCall","type":"error"},{"inputs":[{"internalType":"address","name":"token","type":"address"}],"name":"SafeERC20FailedOperation","type":"error"},{"anonymous":false,"inputs":[{"indexed":true,"internalType":"uint256","name":"orderId","type":"uint256"},{"indexed":true,"internalType":"address","name":"maker","type":"address"},{"indexed":false,"internalType":"uint256","name":"timestamp","type":"uint256"}],"name":"OrderCancelled","type":"event"},{"anonymous":false,"inputs":[{"indexed":true,"internalType":"uint256","name":"orderId","type":"uint256"},{"indexed":true,"internalType":"address","name":"maker","type":"address"},{"indexed":true,"internalType":"address","name":"tokenAddress","type":"address"},{"indexed":false,"internalType":"uint256","name":"amount","type":"uint256"},{"indexed":false,"internalType":"uint256","name":"pricePerToken","type":"uint256"},{"indexed":false,"internalType":"bool","name":"isBuy","type":"bool"},{"indexed":false,"internalType":"uint256","name":"timestamp","type":"uint256"}],"name":"OrderCreated","type":"event"},{"anonymous":false,"inputs":[{"indexed":true,"internalType":"uint256","name":"orderId","type":"uint256"},{"indexed":true,"internalType":"address","name":"taker","type":"address"},{"indexed":true,"internalType":"address","name":"maker","type":"address"},{"indexed":false,"internalType":"address","name":"tokenAddress","type":"address"},{"indexed":false,"internalType":"uint256","name":"amountFilled","type":"uint256"},{"indexed":false,"internalType":"uint256","name":"totalCost","type":"uint256"},{"indexed":false,"internalType":"uint256","name":"remainingAmount","type":"uint256"},{"indexed":false,"internalType":"uint256","name":"timestamp","type":"uint256"}],"name":"OrderFilled","type":"event"},{"anonymous":false,"inputs":[{"indexed":true,"internalType":"uint256","name":"orderId","type":"uint256"},{"indexed":true,"internalType":"address","name":"maker","type":"address"},{"indexed":false,"internalType":"uint256","name":"settledAmount","type":"uint256"},{"indexed":false,"internalType":"bool","name":"isYieldClaim","type":"bool"}],"name":"OrderSettledForYield","type":"event"},{"anonymous":false,"inputs":[{"indexed":true,"internalType":"address","name":"previousOwner","type":"address"},{"indexed":true,"internalType":"address","name":"newOwner","type":"address"}],"name":"OwnershipTransferred","type":"event"},{"inputs":[{"internalType":"uint256","name":"orderId","type":"uint256"}],"name":"cancelOrder","outputs":[],"stateMutability":"nonpayable","type":"function"},{"inputs":[{"internalType":"address","name":"tokenAddress","type":"address"},{"internalType":"uint256","name":"amount","type":"uint256"},{"internalType":"uint256","name":"pricePerToken","type":"uint256"},{"internalType":"bool","name":"isBuy","type":"bool"}],"name":"createOrder","outputs":[],"stateMutability":"nonpayable","type":"function"},{"inputs":[{"internalType":"uint256","name":"orderId","type":"uint256"},{"internalType":"uint256","name":"amountToFill","type":"uint256"}],"name":"fillOrder","outputs":[],"stateMutability":"nonpayable","type":"function"},{"inputs":[],"name":"identityRegistry","outputs":[{"internalType":"contract IdentityRegistry","name":"","type":"address"}],"stateMutability":"view","type":"function"},{"inputs":[],"name":"nextOrderId","outputs":[{"internalType":"uint256","name":"","type":"uint256"}],"stateMutability":"view","type":"function"},{"inputs":[{"internalType":"uint256","name":"","type":"uint256"}],"name":"orders","outputs":[{"internalType":"uint256","name":"id","type":"uint256"},{"internalType":"address","name":"maker","type":"address"},{"internalType":"address","name":"tokenAddress","type":"address"},{"internalType":"uint256","name":"amount","type":"uint256"},{"internalType":"uint256","name":"pricePerToken","type":"uint256"},{"internalType":"bool","name":"isBuy","type":"bool"},{"internalType":"bool","name":"isActive","type":"bool"}],"stateMutability":"view","type":"function"},{"inputs":[],"name":"owner","outputs":[{"internalType":"address","name":"","type":"address"}],"stateMutability":"view","type":"function"},{"inputs":[],"name":"renounceOwnership","outputs":[],"stateMutability":"nonpayable","type":"function"},{"inputs":[{"internalType":"address","name":"yieldVault","type":"address"},{"internalType":"address","name":"tokenAddress","type":"address"},{"internalType":"uint256[]","name":"orderIds","type":"uint256[]"}],"name":"settleYield","outputs":[],"stateMutability":"nonpayable","type":"function"},{"inputs":[{"internalType":"address","name":"newOwner","type":"address"}],"name":"transferOwnership","outputs":[],"stateMutability":"nonpayable","type":"function"},{"inputs":[],"name":"usdc","outputs":[{"internalType":"contract IERC20","name":"","type":"address"}],"stateMutability":"view","type":"function"}],"evm":{"bytecode":{"linkReferences":{},"object":"6080346100e757601f6111d538819003918201601f19168301916001600160401b038311848410176100ec5780849260409485528339810103126100e757610052602061004b83610102565b9201610102565b600160005533156100ce5760018054336001600160a01b031980831682179093556040519492936001600160a01b0393909284929083167f8be0079c531659141344cd1fd0a4f28419497f9722a3daafe3b4186f6b6457e0600080a316836002541617600255169060035416176003556110be90816101178239f35b604051631e4fbdf760e01b815260006004820152602490fd5b600080fd5b634e487b7160e01b600052604160045260246000fd5b51906001600160a01b03821682036100e75756fe608080604052600436101561001357600080fd5b60003560e01c908163134e18f414610e49575080632a58b33014610e2b5780633e413bee14610e02578063514fcac714610cce578063715018a614610c715780638da5cb5b14610c485780639956b43614610956578063a85c38ef146108d6578063c37dfc5b146105e3578063f2fde38b146105555763f8c745f41461009857600080fd5b3461042c57606036600319011261042c576100b1610e6d565b6024356001600160a01b038116900361042c5767ffffffffffffffff6044351161042c5736602360443501121561042c5767ffffffffffffffff604435600401351161042c573660246044356004013560051b60443501011161042c57610116610e83565b61011e610fd8565b6001600160a01b0381161561051b5760005b604435600401358110610144576001600055005b60248160051b60443501013560005260056020526040600020906005820180549060ff8260081c161580156104fe575b61022d5761ff00198216905560ff161561021f5781670de0b6b3a76400006101a860036101f5950154600484015490610ee9565b0490816101fa575b7fbb8a90e3060681b6d1e7f28f788ed9c64efd291d1b5f12c59d4c80269b9bd29d60408254926001808060a01b039101541693815190815260006020820152a3610f12565b610130565b600254600182015461021a9184916001600160a01b039081169116611047565b6101b0565b600382019182549283610239575b50506101f59150610f12565b60405163095ea7b360e01b81526001600160a01b038616600482015260248101949094526020848060448101038160006024356001600160a01b03165af1938415610439576024946104cf575b506002546040516370a0823160e01b81523060048201529460209186919082906001600160a01b03165afa9384156104395760009461049a575b5054604051630c34f5ed60e11b60208201908152602480356001600160a01b0316908301526044808301939093529181526000918291610301606482610eaf565b519082885af13d15610495573d67ffffffffffffffff811161047f5760405190610335601f8201601f191660200183610eaf565b8152600060203d92013e5b15610445576002546040516370a0823160e01b81523060048201526001600160a01b0390911690602081602481855afa90811561043957600091610400575b506101f59461038d9161103a565b9081806103df575b50507fbb8a90e3060681b6d1e7f28f788ed9c64efd291d1b5f12c59d4c80269b9bd29d60408354926001948560018060a01b03910154169482519182526020820152a3388061022d565b60018401546103f9926001600160a01b0390911690611047565b3881610395565b90506020813d602011610431575b8161041b60209383610eaf565b8101031261042c57516101f561037f565b600080fd5b3d915061040e565b6040513d6000823e3d90fd5b60405162461bcd60e51b8152602060048201526012602482015271165a595b190818db185a5b4819985a5b195960721b6044820152606490fd5b634e487b7160e01b600052604160045260246000fd5b610340565b9093506020813d6020116104c7575b816104b660209383610eaf565b8101031261042c57519260006102c0565b3d91506104a9565b6104f09060203d6020116104f7575b6104e88183610eaf565b810190610ed1565b5038610286565b503d6104de565b5060028401546024356001600160a01b0390811691161415610174565b60405162461bcd60e51b8152602060048201526012602482015271125b9d985b1a5908165a595b1915985d5b1d60721b6044820152606490fd5b3461042c57602036600319011261042c5761056e610e6d565b610576610e83565b6001600160a01b039081169081156105ca57600154826bffffffffffffffffffffffff60a01b821617600155167f8be0079c531659141344cd1fd0a4f28419497f9722a3daafe3b4186f6b6457e0600080a3005b604051631e4fbdf760e01b815260006004820152602490fd5b3461042c57604036600319011261042c5760248035600435610603610fd8565b80600052602091600583526040600020936005850191825461062a60ff8260081c16610ffb565b81156108925760038701938454831161084e576001880180546001600160a01b03939192919084169033821461081257868a86600354166040519283809263b9209e3360e01b82523360048301525afa908115610439576000916107f5575b50156107bc57670de0b6b3a76400006106a660048d015488610ee9565b049687156107835750918a8686896002979560ff83981660001461075a575050866106da9301541685855416903390610f21565b6106e8873385875416611047565b6106f386895461103a565b809855871561074b575b5054169701541694604051958652850152604084015260608301524260808301527fba935f178f55b754462982324cc0b612e870dd892eb8a76f5eba6f6cdaa407a860a03393a46001600055005b805461ff00191690558a6106fd565b9150915061076d92503386885416610f21565b61077e868c85873392015416611047565b6106e8565b8a60136064926040519262461bcd60e51b845260048401528201527254726164652076616c756520746f6f206c6f7760681b6044820152fd5b60405162461bcd60e51b8152600481018b90526012818901527115185ad95c881b9bdd081d995c9a599a595960721b6044820152606490fd5b61080c91508b3d8d116104f7576104e88183610eaf565b8c610689565b60405162461bcd60e51b8152600481018b90526015818901527421b0b73737ba103334b6361037bbb71037b93232b960591b6044820152606490fd5b60405162461bcd60e51b815260048101889052601d818601527f46696c6c20616d6f756e74206578636565647320617661696c61626c650000006044820152606490fd5b60405162461bcd60e51b8152600481018790526017818501527f46696c6c20616d6f756e74206d757374206265203e20300000000000000000006044820152606490fd5b3461042c57602036600319011261042c57600435600052600560205260e0604060002060ff81549160018060a01b0390816001820154169160028201541660038201549060056004840154930154936040519687526020870152604086015260608501526080840152818116151560a084015260081c16151560c0820152f35b3461042c57608036600319011261042c5761096f610e6d565b6024803590604435606435908115159182810361042c5761098e610fd8565b8415610c0f578115610bd75760018060a01b0393846003541691604051809363b9209e3360e01b8252336004830152818460209687935afa90811561043957600091610bba575b5015610b815715610b6e57670de0b6b3a76400006109f38488610ee9565b048015610b3457610a0c90866002541630903390610f21565b60045494610a1986610f12565b6004556040519160e083019083821067ffffffffffffffff831117610b20575060405285825260058383019233845282604082019a16998a8152606082018a8152608083019188835260a08401968a885260c0850196600188528c600052868a526040600020955186558060018701925116916bffffffffffffffffffffffff60a01b9283825416179055600286019251169082541617905551600383015551600482015501915115159060ff61ff0084549251151560081b1692169061ffff19161717905560405194855284015260408301524260608301527f17d2c2ff3ef9c3d9751b4b903e7ae3534a74e8419cb85942f0ba8a3dd161062f60803393a46001600055005b634e487b7160e01b60009081526041600452fd5b60405162461bcd60e51b81526004810184905260138184015272546f74616c2076616c756520746f6f206c6f7760681b6044820152606490fd5b610b7c863033888b16610f21565b610a0c565b60405162461bcd60e51b8152600481018490526012818401527113585ad95c881b9bdd081d995c9a599a595960721b6044820152606490fd5b610bd19150843d86116104f7576104e88183610eaf565b896109d5565b60405162461bcd60e51b8152602060048201526011818601527005072696365206d757374206265203e203607c1b6044820152606490fd5b60405162461bcd60e51b815260206004820152601281860152710416d6f756e74206d757374206265203e20360741b6044820152606490fd5b3461042c57600036600319011261042c576001546040516001600160a01b039091168152602090f35b3461042c57600036600319011261042c57610c8a610e83565b600180546001600160a01b031981169091556000906001600160a01b03167f8be0079c531659141344cd1fd0a4f28419497f9722a3daafe3b4186f6b6457e08280a3005b3461042c57602036600319011261042c57600435610cea610fd8565b600081815260056020526040902060018101546001600160a01b03919082163303610dd15760ff60058201805490610d26838360081c16610ffb565b61ff0019821690551615610da557610d518160046003670de0b6b3a764000094015491015490610ee9565b0480610d8f575b50505b604051904282527fc4058ebc534b64ecb27b2d4eaa1904f98997ec18ebe6ada4117593dde89478cc60203393a36001600055005b610d9e91339060025416611047565b8180610d58565b60038101549081610db9575b505050610d5b565b610dc99260023392015416611047565b818080610db1565b60405162461bcd60e51b81526020600482015260096024820152682737ba1036b0b5b2b960b91b6044820152606490fd5b3461042c57600036600319011261042c576002546040516001600160a01b039091168152602090f35b3461042c57600036600319011261042c576020600454604051908152f35b3461042c57600036600319011261042c576003546001600160a01b03168152602090f35b600435906001600160a01b038216820361042c57565b6001546001600160a01b03163303610e9757565b60405163118cdaa760e01b8152336004820152602490fd5b90601f8019910116810190811067ffffffffffffffff82111761047f57604052565b9081602091031261042c5751801515810361042c5790565b81810292918115918404141715610efc57565b634e487b7160e01b600052601160045260246000fd5b6000198114610efc5760010190565b6040516323b872dd60e01b60208201526001600160a01b03928316602482015292909116604483015260648083019390935291815260a081019181831067ffffffffffffffff84111761047f57610f7a92604052610f7c565b565b906000602091828151910182855af115610439576000513d610fcf57506001600160a01b0381163b155b610fad5750565b604051635274afe760e01b81526001600160a01b039091166004820152602490fd5b60011415610fa6565b600260005414610fe9576002600055565b604051633ee5aeb560e01b8152600490fd5b1561100257565b60405162461bcd60e51b815260206004820152601060248201526f4f72646572206e6f742061637469766560801b6044820152606490fd5b91908203918211610efc57565b60405163a9059cbb60e01b60208201526001600160a01b03929092166024830152604480830193909352918152610f7a91611083606483610eaf565b610f7c56fea26469706673582212205e4c897adccc1a5f393d2e72dbbf07ff8ea447e63fb639a0f2d1dd7caad108a964736f6c63430008140033","opcodes":"PUSH1 0x80 CALLVALUE PUSH2 0xE7 JUMPI PUSH1 0x1F PUSH2 0x11D5 CODESIZE DUP2 SWAP1 SUB SWAP2 DUP3 ADD PUSH1 0x1F NOT AND DUP4 ADD SWAP2 PUSH1 0x1 PUSH1 0x1 PUSH1 0x40 SHL SUB DUP4 GT DUP5 DUP5 LT OR PUSH2 0xEC JUMPI DUP1 DUP5 SWAP3 PUSH1 0x40 SWAP5 DUP6 MSTORE DUP4 CODECOPY DUP2 ADD SUB SLT PUSH2 0xE7 JUMPI PUSH2 0x52 PUSH1 0x20 PUSH2 0x4B DUP4 PUSH2 0x102 JUMP JUMPDEST SWAP3 ADD PUSH2 0x102 JUMP JUMPDEST PUSH1 0x1 PUSH1 0x0 SSTORE CALLER ISZERO PUSH2 0xCE JUMPI PUSH1 0x1 DUP1 SLOAD CALLER PUSH1 0x1 PUSH1 0x1 PUSH1 0xA0 SHL SUB NOT DUP1 DUP4 AND DUP3 OR SWAP1 SWAP4 SSTORE PUSH1 0x40 MLOAD SWAP5 SWAP3 SWAP4 PUSH1 0x1 PUSH1 0x1 PUSH1 0xA0 SHL SUB SWAP4 SWAP1 SWAP3 DUP5 SWAP3 SWAP1 DUP4 AND PUSH32 0x8BE0079C531659141344CD1FD0A4F28419497F9722A3DAAFE3B4186F6B6457E0 PUSH1 0x0 DUP1 LOG3 AND DUP4 PUSH1 0x2 SLOAD AND OR PUSH1 0x2 SSTORE AND SWAP1 PUSH1 0x3 SLOAD AND OR PUSH1 0x3 SSTORE PUSH2 0x10BE SWAP1 DUP2 PUSH2 0x117 DUP3 CODECOPY RETURN JUMPDEST PUSH1 0x40 MLOAD PUSH4 0x1E4FBDF7 PUSH1 0xE0 SHL DUP2 MSTORE PUSH1 0x0 PUSH1 0x4 DUP3 ADD MSTORE PUSH1 0x24 SWAP1 REVERT JUMPDEST PUSH1 0x0 DUP1 REVERT JUMPDEST PUSH4 0x4E487B71 PUSH1 0xE0 SHL PUSH1 0x0 MSTORE PUSH1 0x41 PUSH1 0x4 MSTORE PUSH1 0x24 PUSH1 0x0 REVERT JUMPDEST MLOAD SWAP1 PUSH1 0x1 PUSH1 0x1 PUSH1 0xA0 SHL SUB DUP3 AND DUP3 SUB PUSH2 0xE7 JUMPI JUMP INVALID PUSH1 0x80 DUP1 PUSH1 0x40 MSTORE PUSH1 0x4 CALLDATASIZE LT ISZERO PUSH2 0x13 JUMPI PUSH1 0x0 DUP1 REVERT JUMPDEST PUSH1 0x0 CALLDATALOAD PUSH1 0xE0 SHR SWAP1 DUP2 PUSH4 0x134E18F4 EQ PUSH2 0xE49 JUMPI POP DUP1 PUSH4 0x2A58B330 EQ PUSH2 0xE2B JUMPI DUP1 PUSH4 0x3E413BEE EQ PUSH2 0xE02 JUMPI DUP1 PUSH4 0x514FCAC7 EQ PUSH2 0xCCE JUMPI DUP1 PUSH4 0x715018A6 EQ PUSH2 0xC71 JUMPI DUP1 PUSH4 0x8DA5CB5B EQ PUSH2 0xC48 JUMPI DUP1 PUSH4 0x9956B436 EQ PUSH2 0x956 JUMPI DUP1 PUSH4 0xA85C38EF EQ PUSH2 0x8D6 JUMPI DUP1 PUSH4 0xC37DFC5B EQ PUSH2 0x5E3 JUMPI DUP1 PUSH4 0xF2FDE38B EQ PUSH2 0x555 JUMPI PUSH4 0xF8C745F4 EQ PUSH2 0x98 JUMPI PUSH1 0x0 DUP1 REVERT JUMPDEST CALLVALUE PUSH2 0x42C JUMPI PUSH1 0x60 CALLDATASIZE PUSH1 0x3 NOT ADD SLT PUSH2 0x42C JUMPI PUSH2 0xB1 PUSH2 0xE6D JUMP JUMPDEST PUSH1 0x24 CALLDATALOAD PUSH1 0x1 PUSH1 0x1 PUSH1 0xA0 SHL SUB DUP2 AND SWAP1 SUB PUSH2 0x42C JUMPI PUSH8 0xFFFFFFFFFFFFFFFF PUSH1 0x44 CALLDATALOAD GT PUSH2 0x42C JUMPI CALLDATASIZE PUSH1 0x23 PUSH1 0x44 CALLDATALOAD ADD SLT ISZERO PUSH2 0x42C JUMPI PUSH8 0xFFFFFFFFFFFFFFFF PUSH1 0x44 CALLDATALOAD PUSH1 0x4 ADD CALLDATALOAD GT PUSH2 0x42C JUMPI CALLDATASIZE PUSH1 0x24 PUSH1 0x44 CALLDATALOAD PUSH1 0x4 ADD CALLDATALOAD PUSH1 0x5 SHL PUSH1 0x44 CALLDATALOAD ADD ADD GT PUSH2 0x42C JUMPI PUSH2 0x116 PUSH2 0xE83 JUMP JUMPDEST PUSH2 0x11E PUSH2 0xFD8 JUMP JUMPDEST PUSH1 0x1 PUSH1 0x1 PUSH1 0xA0 SHL SUB DUP2 AND ISZERO PUSH2 0x51B JUMPI PUSH1 0x0 JUMPDEST PUSH1 0x44 CALLDATALOAD PUSH1 0x4 ADD CALLDATALOAD DUP2 LT PUSH2 0x144 JUMPI PUSH1 0x1 PUSH1 0x0 SSTORE STOP JUMPDEST PUSH1 0x24 DUP2 PUSH1 0x5 SHL PUSH1 0x44 CALLDATALOAD ADD ADD CALLDATALOAD PUSH1 0x0 MSTORE PUSH1 0x5 PUSH1 0x20 MSTORE PUSH1 0x40 PUSH1 0x0 KECCAK256 SWAP1 PUSH1 0x5 DUP3 ADD DUP1 SLOAD SWAP1 PUSH1 0xFF DUP3 PUSH1 0x8 SHR AND ISZERO DUP1 ISZERO PUSH2 0x4FE JUMPI JUMPDEST PUSH2 0x22D JUMPI PUSH2 0xFF00 NOT DUP3 AND SWAP1 SSTORE PUSH1 0xFF AND ISZERO PUSH2 0x21F JUMPI DUP2 PUSH8 0xDE0B6B3A7640000 PUSH2 0x1A8 PUSH1 0x3 PUSH2 0x1F5 SWAP6 ADD SLOAD PUSH1 0x4 DUP5 ADD SLOAD SWAP1 PUSH2 0xEE9 JUMP JUMPDEST DIV SWAP1 DUP2 PUSH2 0x1FA JUMPI JUMPDEST PUSH32 0xBB8A90E3060681B6D1E7F28F788ED9C64EFD291D1B5F12C59D4C80269B9BD29D PUSH1 0x40 DUP3 SLOAD SWAP3 PUSH1 0x1 DUP1 DUP1 PUSH1 0xA0 SHL SUB SWAP2 ADD SLOAD AND SWAP4 DUP2 MLOAD SWAP1 DUP2 MSTORE PUSH1 0x0 PUSH1 0x20 DUP3 ADD MSTORE LOG3 PUSH2 0xF12 JUMP JUMPDEST PUSH2 0x130 JUMP JUMPDEST PUSH1 0x2 SLOAD PUSH1 0x1 DUP3 ADD SLOAD PUSH2 0x21A SWAP2 DUP5 SWAP2 PUSH1 0x1 PUSH1 0x1 PUSH1 0xA0 SHL SUB SWAP1 DUP2 AND SWAP2 AND PUSH2 0x1047 JUMP JUMPDEST PUSH2 0x1B0 JUMP JUMPDEST PUSH1 0x3 DUP3 ADD SWAP2 DUP3 SLOAD SWAP3 DUP4 PUSH2 0x239 JUMPI JUMPDEST POP POP PUSH2 0x1F5 SWAP2 POP PUSH2 0xF12 JUMP JUMPDEST PUSH1 0x40 MLOAD PUSH4 0x95EA7B3 PUSH1 0xE0 SHL DUP2 MSTORE PUSH1 0x1 PUSH1 0x1 PUSH1 0xA0 SHL SUB DUP7 AND PUSH1 0x4 DUP3 ADD MSTORE PUSH1 0x24 DUP2 ADD SWAP5 SWAP1 SWAP5 MSTORE PUSH1 0x20 DUP5 DUP1 PUSH1 0x44 DUP2 ADD SUB DUP2 PUSH1 0x0 PUSH1 0x24 CALLDATALOAD PUSH1 0x1 PUSH1 0x1 PUSH1 0xA0 SHL SUB AND GAS CALL SWAP4 DUP5 ISZERO PUSH2 0x439 JUMPI PUSH1 0x24 SWAP5 PUSH2 0x4CF JUMPI JUMPDEST POP PUSH1 0x2 SLOAD PUSH1 0x40 MLOAD PUSH4 0x70A08231 PUSH1 0xE0 SHL DUP2 MSTORE ADDRESS PUSH1 0x4 DUP3 ADD MSTORE SWAP5 PUSH1 0x20 SWAP2 DUP7 SWAP2 SWAP1 DUP3 SWAP1 PUSH1 0x1 PUSH1 0x1 PUSH1 0xA0 SHL SUB AND GAS STATICCALL SWAP4 DUP5 ISZERO PUSH2 0x439 JUMPI PUSH1 0x0 SWAP5 PUSH2 0x49A JUMPI JUMPDEST POP SLOAD PUSH1 0x40 MLOAD PUSH4 0xC34F5ED PUSH1 0xE1 SHL PUSH1 0x20 DUP3 ADD SWAP1 DUP2 MSTORE PUSH1 0x24 DUP1 CALLDATALOAD PUSH1 0x1 PUSH1 0x1 PUSH1 0xA0 SHL SUB AND SWAP1 DUP4 ADD MSTORE PUSH1 0x44 DUP1 DUP4 ADD SWAP4 SWAP1 SWAP4 MSTORE SWAP2 DUP2 MSTORE PUSH1 0x0 SWAP2 DUP3 SWAP2 PUSH2 0x301 PUSH1 0x64 DUP3 PUSH2 0xEAF JUMP JUMPDEST MLOAD SWAP1 DUP3 DUP9 GAS CALL RETURNDATASIZE ISZERO PUSH2 0x495 JUMPI RETURNDATASIZE PUSH8 0xFFFFFFFFFFFFFFFF DUP2 GT PUSH2 0x47F JUMPI PUSH1 0x40 MLOAD SWAP1 PUSH2 0x335 PUSH1 0x1F DUP3 ADD PUSH1 0x1F NOT AND PUSH1 0x20 ADD DUP4 PUSH2 0xEAF JUMP JUMPDEST DUP2 MSTORE PUSH1 0x0 PUSH1 0x20 RETURNDATASIZE SWAP3 ADD RETURNDATACOPY JUMPDEST ISZERO PUSH2 0x445 JUMPI PUSH1 0x2 SLOAD PUSH1 0x40 MLOAD PUSH4 0x70A08231 PUSH1 0xE0 SHL DUP2 MSTORE ADDRESS PUSH1 0x4 DUP3 ADD MSTORE PUSH1 0x1 PUSH1 0x1 PUSH1 0xA0 SHL SUB SWAP1 SWAP2 AND SWAP1 PUSH1 0x20 DUP2 PUSH1 0x24 DUP2 DUP6 GAS STATICCALL SWAP1 DUP2 ISZERO PUSH2 0x439 JUMPI PUSH1 0x0 SWAP2 PUSH2 0x400 JUMPI JUMPDEST POP PUSH2 0x1F5 SWAP5 PUSH2 0x38D SWAP2 PUSH2 0x103A JUMP JUMPDEST SWAP1 DUP2 DUP1 PUSH2 0x3DF JUMPI JUMPDEST POP POP PUSH32 0xBB8A90E3060681B6D1E7F28F788ED9C64EFD291D1B5F12C59D4C80269B9BD29D PUSH1 0x40 DUP4 SLOAD SWAP3 PUSH1 0x1 SWAP5 DUP6 PUSH1 0x1 DUP1 PUSH1 0xA0 SHL SUB SWAP2 ADD SLOAD AND SWAP5 DUP3 MLOAD SWAP2 DUP3 MSTORE PUSH1 0x20 DUP3 ADD MSTORE LOG3 CODESIZE DUP1 PUSH2 0x22D JUMP JUMPDEST PUSH1 0x1 DUP5 ADD SLOAD PUSH2 0x3F9 SWAP3 PUSH1 0x1 PUSH1 0x1 PUSH1 0xA0 SHL SUB SWAP1 SWAP2 AND SWAP1 PUSH2 0x1047 JUMP JUMPDEST CODESIZE DUP2 PUSH2 0x395 JUMP JUMPDEST SWAP1 POP PUSH1 0x20 DUP2 RETURNDATASIZE PUSH1 0x20 GT PUSH2 0x431 JUMPI JUMPDEST DUP2 PUSH2 0x41B PUSH1 0x20 SWAP4 DUP4 PUSH2 0xEAF JUMP JUMPDEST DUP2 ADD SUB SLT PUSH2 0x42C JUMPI MLOAD PUSH2 0x1F5 PUSH2 0x37F JUMP JUMPDEST PUSH1 0x0 DUP1 REVERT JUMPDEST RETURNDATASIZE SWAP2 POP PUSH2 0x40E JUMP JUMPDEST PUSH1 0x40 MLOAD RETURNDATASIZE PUSH1 0x0 DUP3 RETURNDATACOPY RETURNDATASIZE SWAP1 REVERT JUMPDEST PUSH1 0x40 MLOAD PUSH3 0x461BCD PUSH1 0xE5 SHL DUP2 MSTORE PUSH1 0x20 PUSH1 0x4 DUP3 ADD MSTORE PUSH1 0x12 PUSH1 0x24 DUP3 ADD MSTORE PUSH18 0x165A595B190818DB185A5B4819985A5B1959 PUSH1 0x72 SHL PUSH1 0x44 DUP3 ADD MSTORE PUSH1 0x64 SWAP1 REVERT JUMPDEST PUSH4 0x4E487B71 PUSH1 0xE0 SHL PUSH1 0x0 MSTORE PUSH1 0x41 PUSH1 0x4 MSTORE PUSH1 0x24 PUSH1 0x0 REVERT JUMPDEST PUSH2 0x340 JUMP JUMPDEST SWAP1 SWAP4 POP PUSH1 0x20 DUP2 RETURNDATASIZE PUSH1 0x20 GT PUSH2 0x4C7 JUMPI JUMPDEST DUP2 PUSH2 0x4B6 PUSH1 0x20 SWAP4 DUP4 PUSH2 0xEAF JUMP JUMPDEST DUP2 ADD SUB SLT PUSH2 0x42C JUMPI MLOAD SWAP3 PUSH1 0x0 PUSH2 0x2C0 JUMP JUMPDEST RETURNDATASIZE SWAP2 POP PUSH2 0x4A9 JUMP JUMPDEST PUSH2 0x4F0 SWAP1 PUSH1 0x20 RETURNDATASIZE PUSH1 0x20 GT PUSH2 0x4F7 JUMPI JUMPDEST PUSH2 0x4E8 DUP2 DUP4 PUSH2 0xEAF JUMP JUMPDEST DUP2 ADD SWAP1 PUSH2 0xED1 JUMP JUMPDEST POP CODESIZE PUSH2 0x286 JUMP JUMPDEST POP RETURNDATASIZE PUSH2 0x4DE JUMP JUMPDEST POP PUSH1 0x2 DUP5 ADD SLOAD PUSH1 0x24 CALLDATALOAD PUSH1 0x1 PUSH1 0x1 PUSH1 0xA0 SHL SUB SWAP1 DUP2 AND SWAP2 AND EQ ISZERO PUSH2 0x174 JUMP JUMPDEST PUSH1 0x40 MLOAD PUSH3 0x461BCD PUSH1 0xE5 SHL DUP2 MSTORE PUSH1 0x20 PUSH1 0x4 DUP3 ADD MSTORE PUSH1 0x12 PUSH1 0x24 DUP3 ADD MSTORE PUSH18 0x125B9D985B1A5908165A595B1915985D5B1D PUSH1 0x72 SHL PUSH1 0x44 DUP3 ADD MSTORE PUSH1 0x64 SWAP1 REVERT JUMPDEST CALLVALUE PUSH2 0x42C JUMPI PUSH1 0x20 CALLDATASIZE PUSH1 0x3 NOT ADD SLT PUSH2 0x42C JUMPI PUSH2 0x56E PUSH2 0xE6D JUMP JUMPDEST PUSH2 0x576 PUSH2 0xE83 JUMP JUMPDEST PUSH1 0x1 PUSH1 0x1 PUSH1 0xA0 SHL SUB SWAP1 DUP2 AND SWAP1 DUP2 ISZERO PUSH2 0x5CA JUMPI PUSH1 0x1 SLOAD DUP3 PUSH12 0xFFFFFFFFFFFFFFFFFFFFFFFF PUSH1 0xA0 SHL DUP3 AND OR PUSH1 0x1 SSTORE AND PUSH32 0x8BE0079C531659141344CD1FD0A4F28419497F9722A3DAAFE3B4186F6B6457E0 PUSH1 0x0 DUP1 LOG3 STOP JUMPDEST PUSH1 0x40 MLOAD PUSH4 0x1E4FBDF7 PUSH1 0xE0 SHL DUP2 MSTORE PUSH1 0x0 PUSH1 0x4 DUP3 ADD MSTORE PUSH1 0x24 SWAP1 REVERT JUMPDEST CALLVALUE PUSH2 0x42C JUMPI PUSH1 0x40 CALLDATASIZE PUSH1 0x3 NOT ADD SLT PUSH2 0x42C JUMPI PUSH1 0x24 DUP1 CALLDATALOAD PUSH1 0x4 CALLDATALOAD PUSH2 0x603 PUSH2 0xFD8 JUMP JUMPDEST DUP1 PUSH1 0x0 MSTORE PUSH1 0x20 SWAP2 PUSH1 0x5 DUP4 MSTORE PUSH1 0x40 PUSH1 0x0 KECCAK256 SWAP4 PUSH1 0x5 DUP6 ADD SWAP2 DUP3 SLOAD PUSH2 0x62A PUSH1 0xFF DUP3 PUSH1 0x8 SHR AND PUSH2 0xFFB JUMP JUMPDEST DUP2 ISZERO PUSH2 0x892 JUMPI PUSH1 0x3 DUP8 ADD SWAP4 DUP5 SLOAD DUP4 GT PUSH2 0x84E JUMPI PUSH1 0x1 DUP9 ADD DUP1 SLOAD PUSH1 0x1 PUSH1 0x1 PUSH1 0xA0 SHL SUB SWAP4 SWAP2 SWAP3 SWAP2 SWAP1 DUP5 AND SWAP1 CALLER DUP3 EQ PUSH2 0x812 JUMPI DUP7 DUP11 DUP7 PUSH1 0x3 SLOAD AND PUSH1 0x40 MLOAD SWAP3 DUP4 DUP1 SWAP3 PUSH4 0xB9209E33 PUSH1 0xE0 SHL DUP3 MSTORE CALLER PUSH1 0x4 DUP4 ADD MSTORE GAS STATICCALL SWAP1 DUP2 ISZERO PUSH2 0x439 JUMPI PUSH1 0x0 SWAP2 PUSH2 0x7F5 JUMPI JUMPDEST POP ISZERO PUSH2 0x7BC JUMPI PUSH8 0xDE0B6B3A7640000 PUSH2 0x6A6 PUSH1 0x4 DUP14 ADD SLOAD DUP9 PUSH2 0xEE9 JUMP JUMPDEST DIV SWAP7 DUP8 ISZERO PUSH2 0x783 JUMPI POP SWAP2 DUP11 DUP7 DUP7 DUP10 PUSH1 0x2 SWAP8 SWAP6 PUSH1 0xFF DUP4 SWAP9 AND PUSH1 0x0 EQ PUSH2 0x75A JUMPI POP POP DUP7 PUSH2 0x6DA SWAP4 ADD SLOAD AND DUP6 DUP6 SLOAD AND SWAP1 CALLER SWAP1 PUSH2 0xF21 JUMP JUMPDEST PUSH2 0x6E8 DUP8 CALLER DUP6 DUP8 SLOAD AND PUSH2 0x1047 JUMP JUMPDEST PUSH2 0x6F3 DUP7 DUP10 SLOAD PUSH2 0x103A JUMP JUMPDEST DUP1 SWAP9 SSTORE DUP8 ISZERO PUSH2 0x74B JUMPI JUMPDEST POP SLOAD AND SWAP8 ADD SLOAD AND SWAP5 PUSH1 0x40 MLOAD SWAP6 DUP7 MSTORE DUP6 ADD MSTORE PUSH1 0x40 DUP5 ADD MSTORE PUSH1 0x60 DUP4 ADD MSTORE TIMESTAMP PUSH1 0x80 DUP4 ADD MSTORE PUSH32 0xBA935F178F55B754462982324CC0B612E870DD892EB8A76F5EBA6F6CDAA407A8 PUSH1 0xA0 CALLER SWAP4 LOG4 PUSH1 0x1 PUSH1 0x0 SSTORE STOP JUMPDEST DUP1 SLOAD PUSH2 0xFF00 NOT AND SWAP1 SSTORE DUP11 PUSH2 0x6FD JUMP JUMPDEST SWAP2 POP SWAP2 POP PUSH2 0x76D SWAP3 POP CALLER DUP7 DUP9 SLOAD AND PUSH2 0xF21 JUMP JUMPDEST PUSH2 0x77E DUP7 DUP13 DUP6 DUP8 CALLER SWAP3 ADD SLOAD AND PUSH2 0x1047 JUMP JUMPDEST PUSH2 0x6E8 JUMP JUMPDEST DUP11 PUSH1 0x13 PUSH1 0x64 SWAP3 PUSH1 0x40 MLOAD SWAP3 PUSH3 0x461BCD PUSH1 0xE5 SHL DUP5 MSTORE PUSH1 0x4 DUP5 ADD MSTORE DUP3 ADD MSTORE PUSH19 0x54726164652076616C756520746F6F206C6F77 PUSH1 0x68 SHL PUSH1 0x44 DUP3 ADD MSTORE REVERT JUMPDEST PUSH1 0x40 MLOAD PUSH3 0x461BCD PUSH1 0xE5 SHL DUP2 MSTORE PUSH1 0x4 DUP2 ADD DUP12 SWAP1 MSTORE PUSH1 0x12 DUP2 DUP10 ADD MSTORE PUSH18 0x15185AD95C881B9BDD081D995C9A599A5959 PUSH1 0x72 SHL PUSH1 0x44 DUP3 ADD MSTORE PUSH1 0x64 SWAP1 REVERT JUMPDEST PUSH2 0x80C SWAP2 POP DUP12 RETURNDATASIZE DUP14 GT PUSH2 0x4F7 JUMPI PUSH2 0x4E8 DUP2 DUP4 PUSH2 0xEAF JUMP JUMPDEST DUP13 PUSH2 0x689 JUMP JUMPDEST PUSH1 0x40 MLOAD PUSH3 0x461BCD PUSH1 0xE5 SHL DUP2 MSTORE PUSH1 0x4 DUP2 ADD DUP12 SWAP1 MSTORE PUSH1 0x15 DUP2 DUP10 ADD MSTORE PUSH21 0x21B0B73737BA103334B6361037BBB71037B93232B9 PUSH1 0x59 SHL PUSH1 0x44 DUP3 ADD MSTORE PUSH1 0x64 SWAP1 REVERT JUMPDEST PUSH1 0x40 MLOAD PUSH3 0x461BCD PUSH1 0xE5 SHL DUP2 MSTORE PUSH1 0x4 DUP2 ADD DUP9 SWAP1 MSTORE PUSH1 0x1D DUP2 DUP7 ADD MSTORE PUSH32 0x46696C6C20616D6F756E74206578636565647320617661696C61626C65000000 PUSH1 0x44 DUP3 ADD MSTORE PUSH1 0x64 SWAP1 REVERT JUMPDEST PUSH1 0x40 MLOAD PUSH3 0x461BCD PUSH1 0xE5 SHL DUP2 MSTORE PUSH1 0x4 DUP2 ADD DUP8 SWAP1 MSTORE PUSH1 0x17 DUP2 DUP6 ADD MSTORE PUSH32 0x46696C6C20616D6F756E74206D757374206265203E2030000000000000000000 PUSH1 0x44 DUP3 ADD MSTORE PUSH1 0x64 SWAP1 REVERT JUMPDEST CALLVALUE PUSH2 0x42C JUMPI PUSH1 0x20 CALLDATASIZE PUSH1 0x3 NOT ADD SLT PUSH2 0x42C JUMPI PUSH1 0x4 CALLDATALOAD PUSH1 0x0 MSTORE PUSH1 0x5 PUSH1 0x20 MSTORE PUSH1 0xE0 PUSH1 0x40 PUSH1 0x0 KECCAK256 PUSH1 0xFF DUP2 SLOAD SWAP2 PUSH1 0x1 DUP1 PUSH1 0xA0 SHL SUB SWAP1 DUP2 PUSH1 0x1 DUP3 ADD SLOAD AND SWAP2 PUSH1 0x2 DUP3 ADD SLOAD AND PUSH1 0x3 DUP3 ADD SLOAD SWAP1 PUSH1 0x5 PUSH1 0x4 DUP5 ADD SLOAD SWAP4 ADD SLOAD SWAP4 PUSH1 0x40 MLOAD SWAP7 DUP8 MSTORE PUSH1 0x20 DUP8 ADD MSTORE PUSH1 0x40 DUP7 ADD MSTORE PUSH1 0x60 DUP6 ADD MSTORE PUSH1 0x80 DUP5 ADD MSTORE DUP2 DUP2 AND ISZERO ISZERO PUSH1 0xA0 DUP5 ADD MSTORE PUSH1 0x8 SHR AND ISZERO ISZERO PUSH1 0xC0 DUP3 ADD MSTORE RETURN JUMPDEST CALLVALUE PUSH2 0x42C JUMPI PUSH1 0x80 CALLDATASIZE PUSH1 0x3 NOT ADD SLT PUSH2 0x42C JUMPI PUSH2 0x96F PUSH2 0xE6D JUMP JUMPDEST PUSH1 0x24 DUP1 CALLDATALOAD SWAP1 PUSH1 0x44 CALLDATALOAD PUSH1 0x64 CALLDATALOAD SWAP1 DUP2 ISZERO ISZERO SWAP2 DUP3 DUP2 SUB PUSH2 0x42C JUMPI PUSH2 0x98E PUSH2 0xFD8 JUMP JUMPDEST DUP5 ISZERO PUSH2 0xC0F JUMPI DUP2 ISZERO PUSH2 0xBD7 JUMPI PUSH1 0x1 DUP1 PUSH1 0xA0 SHL SUB SWAP4 DUP5 PUSH1 0x3 SLOAD AND SWAP2 PUSH1 0x40 MLOAD DUP1 SWAP4 PUSH4 0xB9209E33 PUSH1 0xE0 SHL DUP3 MSTORE CALLER PUSH1 0x4 DUP4 ADD MSTORE DUP2 DUP5 PUSH1 0x20 SWAP7 DUP8 SWAP4 GAS STATICCALL SWAP1 DUP2 ISZERO PUSH2 0x439 JUMPI PUSH1 0x0 SWAP2 PUSH2 0xBBA JUMPI JUMPDEST POP ISZERO PUSH2 0xB81 JUMPI ISZERO PUSH2 0xB6E JUMPI PUSH8 0xDE0B6B3A7640000 PUSH2 0x9F3 DUP5 DUP9 PUSH2 0xEE9 JUMP JUMPDEST DIV DUP1 ISZERO PUSH2 0xB34 JUMPI PUSH2 0xA0C SWAP1 DUP7 PUSH1 0x2 SLOAD AND ADDRESS SWAP1 CALLER SWAP1 PUSH2 0xF21 JUMP JUMPDEST PUSH1 0x4 SLOAD SWAP5 PUSH2 0xA19 DUP7 PUSH2 0xF12 JUMP JUMPDEST PUSH1 0x4 SSTORE PUSH1 0x40 MLOAD SWAP2 PUSH1 0xE0 DUP4 ADD SWAP1 DUP4 DUP3 LT PUSH8 0xFFFFFFFFFFFFFFFF DUP4 GT OR PUSH2 0xB20 JUMPI POP PUSH1 0x40 MSTORE DUP6 DUP3 MSTORE PUSH1 0x5 DUP4 DUP4 ADD SWAP3 CALLER DUP5 MSTORE DUP3 PUSH1 0x40 DUP3 ADD SWAP11 AND SWAP10 DUP11 DUP2 MSTORE PUSH1 0x60 DUP3 ADD DUP11 DUP2 MSTORE PUSH1 0x80 DUP4 ADD SWAP2 DUP9 DUP4 MSTORE PUSH1 0xA0 DUP5 ADD SWAP7 DUP11 DUP9 MSTORE PUSH1 0xC0 DUP6 ADD SWAP7 PUSH1 0x1 DUP9 MSTORE DUP13 PUSH1 0x0 MSTORE DUP7 DUP11 MSTORE PUSH1 0x40 PUSH1 0x0 KECCAK256 SWAP6 MLOAD DUP7 SSTORE DUP1 PUSH1 0x1 DUP8 ADD SWAP3 MLOAD AND SWAP2 PUSH12 0xFFFFFFFFFFFFFFFFFFFFFFFF PUSH1 0xA0 SHL SWAP3 DUP4 DUP3 SLOAD AND OR SWAP1 SSTORE PUSH1 0x2 DUP7 ADD SWAP3 MLOAD AND SWAP1 DUP3 SLOAD AND OR SWAP1 SSTORE MLOAD PUSH1 0x3 DUP4 ADD SSTORE MLOAD PUSH1 0x4 DUP3 ADD SSTORE ADD SWAP2 MLOAD ISZERO ISZERO SWAP1 PUSH1 0xFF PUSH2 0xFF00 DUP5 SLOAD SWAP3 MLOAD ISZERO ISZERO PUSH1 0x8 SHL AND SWAP3 AND SWAP1 PUSH2 0xFFFF NOT AND OR OR SWAP1 SSTORE PUSH1 0x40 MLOAD SWAP5 DUP6 MSTORE DUP5 ADD MSTORE PUSH1 0x40 DUP4 ADD MSTORE TIMESTAMP PUSH1 0x60 DUP4 ADD MSTORE PUSH32 0x17D2C2FF3EF9C3D9751B4B903E7AE3534A74E8419CB85942F0BA8A3DD161062F PUSH1 0x80 CALLER SWAP4 LOG4 PUSH1 0x1 PUSH1 0x0 SSTORE STOP JUMPDEST PUSH4 0x4E487B71 PUSH1 0xE0 SHL PUSH1 0x0 SWAP1 DUP2 MSTORE PUSH1 0x41 PUSH1 0x4 MSTORE REVERT JUMPDEST PUSH1 0x40 MLOAD PUSH3 0x461BCD PUSH1 0xE5 SHL DUP2 MSTORE PUSH1 0x4 DUP2 ADD DUP5 SWAP1 MSTORE PUSH1 0x13 DUP2 DUP5 ADD MSTORE PUSH19 0x546F74616C2076616C756520746F6F206C6F77 PUSH1 0x68 SHL PUSH1 0x44 DUP3 ADD MSTORE PUSH1 0x64 SWAP1 REVERT JUMPDEST PUSH2 0xB7C DUP7 ADDRESS CALLER DUP9 DUP12 AND PUSH2 0xF21 JUMP JUMPDEST PUSH2 0xA0C JUMP JUMPDEST PUSH1 0x40 MLOAD PUSH3 0x461BCD PUSH1 0xE5 SHL DUP2 MSTORE PUSH1 0x4 DUP2 ADD DUP5 SWAP1 MSTORE PUSH1 0x12 DUP2 DUP5 ADD MSTORE PUSH18 0x13585AD95C881B9BDD081D995C9A599A5959 PUSH1 0x72 SHL PUSH1 0x44 DUP3 ADD MSTORE PUSH1 0x64 SWAP1 REVERT JUMPDEST PUSH2 0xBD1 SWAP2 POP DUP5 RETURNDATASIZE DUP7 GT PUSH2 0x4F7 JUMPI PUSH2 0x4E8 DUP2 DUP4 PUSH2 0xEAF JUMP JUMPDEST DUP10 PUSH2 0x9D5 JUMP JUMPDEST PUSH1 0x40 MLOAD PUSH3 0x461BCD PUSH1 0xE5 SHL DUP2 MSTORE PUSH1 0x20 PUSH1 0x4 DUP3 ADD MSTORE PUSH1 0x11 DUP2 DUP7 ADD MSTORE PUSH17 0x5072696365206D757374206265203E203 PUSH1 0x7C SHL PUSH1 0x44 DUP3 ADD MSTORE PUSH1 0x64 SWAP1 REVERT JUMPDEST PUSH1 0x40 MLOAD PUSH3 0x461BCD PUSH1 0xE5 SHL DUP2 MSTORE PUSH1 0x20 PUSH1 0x4 DUP3 ADD MSTORE PUSH1 0x12 DUP2 DUP7 ADD MSTORE PUSH18 0x416D6F756E74206D757374206265203E203 PUSH1 0x74 SHL PUSH1 0x44 DUP3 ADD MSTORE PUSH1 0x64 SWAP1 REVERT JUMPDEST CALLVALUE PUSH2 0x42C JUMPI PUSH1 0x0 CALLDATASIZE PUSH1 0x3 NOT ADD SLT PUSH2 0x42C JUMPI PUSH1 0x1 SLOAD PUSH1 0x40 MLOAD PUSH1 0x1 PUSH1 0x1 PUSH1 0xA0 SHL SUB SWAP1 SWAP2 AND DUP2 MSTORE PUSH1 0x20 SWAP1 RETURN JUMPDEST CALLVALUE PUSH2 0x42C JUMPI PUSH1 0x0 CALLDATASIZE PUSH1 0x3 NOT ADD SLT PUSH2 0x42C JUMPI PUSH2 0xC8A PUSH2 0xE83 JUMP JUMPDEST PUSH1 0x1 DUP1 SLOAD PUSH1 0x1 PUSH1 0x1 PUSH1 0xA0 SHL SUB NOT DUP2 AND SWAP1 SWAP2 SSTORE PUSH1 0x0 SWAP1 PUSH1 0x1 PUSH1 0x1 PUSH1 0xA0 SHL SUB AND PUSH32 0x8BE0079C531659141344CD1FD0A4F28419497F9722A3DAAFE3B4186F6B6457E0 DUP3 DUP1 LOG3 STOP JUMPDEST CALLVALUE PUSH2 0x42C JUMPI PUSH1 0x20 CALLDATASIZE PUSH1 0x3 NOT ADD SLT PUSH2 0x42C JUMPI PUSH1 0x4 CALLDATALOAD PUSH2 0xCEA PUSH2 0xFD8 JUMP JUMPDEST PUSH1 0x0 DUP2 DUP2 MSTORE PUSH1 0x5 PUSH1 0x20 MSTORE PUSH1 0x40 SWAP1 KECCAK256 PUSH1 0x1 DUP2 ADD SLOAD PUSH1 0x1 PUSH1 0x1 PUSH1 0xA0 SHL SUB SWAP2 SWAP1 DUP3 AND CALLER SUB PUSH2 0xDD1 JUMPI PUSH1 0xFF PUSH1 0x5 DUP3 ADD DUP1 SLOAD SWAP1 PUSH2 0xD26 DUP4 DUP4 PUSH1 0x8 SHR AND PUSH2 0xFFB JUMP JUMPDEST PUSH2 0xFF00 NOT DUP3 AND SWAP1 SSTORE AND ISZERO PUSH2 0xDA5 JUMPI PUSH2 0xD51 DUP2 PUSH1 0x4 PUSH1 0x3 PUSH8 0xDE0B6B3A7640000 SWAP5 ADD SLOAD SWAP2 ADD SLOAD SWAP1 PUSH2 0xEE9 JUMP JUMPDEST DIV DUP1 PUSH2 0xD8F JUMPI JUMPDEST POP POP JUMPDEST PUSH1 0x40 MLOAD SWAP1 TIMESTAMP DUP3 MSTORE PUSH32 0xC4058EBC534B64ECB27B2D4EAA1904F98997EC18EBE6ADA4117593DDE89478CC PUSH1 0x20 CALLER SWAP4 LOG3 PUSH1 0x1 PUSH1 0x0 SSTORE STOP JUMPDEST PUSH2 0xD9E SWAP2 CALLER SWAP1 PUSH1 0x2 SLOAD AND PUSH2 0x1047 JUMP JUMPDEST DUP2 DUP1 PUSH2 0xD58 JUMP JUMPDEST PUSH1 0x3 DUP2 ADD SLOAD SWAP1 DUP2 PUSH2 0xDB9 JUMPI JUMPDEST POP POP POP PUSH2 0xD5B JUMP JUMPDEST PUSH2 0xDC9 SWAP3 PUSH1 0x2 CALLER SWAP3 ADD SLOAD AND PUSH2 0x1047 JUMP JUMPDEST DUP2 DUP1 DUP1 PUSH2 0xDB1 JUMP JUMPDEST PUSH1 0x40 MLOAD PUSH3 0x461BCD PUSH1 0xE5 SHL DUP2 MSTORE PUSH1 0x20 PUSH1 0x4 DUP3 ADD MSTORE PUSH1 0x9 PUSH1 0x24 DUP3 ADD MSTORE PUSH9 0x2737BA1036B0B5B2B9 PUSH1 0xB9 SHL PUSH1 0x44 DUP3 ADD MSTORE PUSH1 0x64 SWAP1 REVERT JUMPDEST CALLVALUE PUSH2 0x42C JUMPI PUSH1 0x0 CALLDATASIZE PUSH1 0x3 NOT ADD SLT PUSH2 0x42C JUMPI PUSH1 0x2 SLOAD PUSH1 0x40 MLOAD PUSH1 0x1 PUSH1 0x1 PUSH1 0xA0 SHL SUB SWAP1 SWAP2 AND DUP2 MSTORE PUSH1 0x20 SWAP1 RETURN JUMPDEST CALLVALUE PUSH2 0x42C JUMPI PUSH1 0x0 CALLDATASIZE PUSH1 0x3 NOT ADD SLT PUSH2 0x42C JUMPI PUSH1 0x20 PUSH1 0x4 SLOAD PUSH1 0x40 MLOAD SWAP1 DUP2 MSTORE RETURN JUMPDEST CALLVALUE PUSH2 0x42C JUMPI PUSH1 0x0 CALLDATASIZE PUSH1 0x3 NOT ADD SLT PUSH2 0x42C JUMPI PUSH1 0x3 SLOAD PUSH1 0x1 PUSH1 0x1 PUSH1 0xA0 SHL SUB AND DUP2 MSTORE PUSH1 0x20 SWAP1 RETURN JUMPDEST PUSH1 0x4 CALLDATALOAD SWAP1 PUSH1 0x1 PUSH1 0x1 PUSH1 0xA0 SHL SUB DUP3 AND DUP3 SUB PUSH2 0x42C JUMPI JUMP JUMPDEST PUSH1 0x1 SLOAD PUSH1 0x1 PUSH1 0x1 PUSH1 0xA0 SHL SUB AND CALLER SUB PUSH2 0xE97 JUMPI JUMP JUMPDEST PUSH1 0x40 MLOAD PUSH4 0x118CDAA7 PUSH1 0xE0 SHL DUP2 MSTORE CALLER PUSH1 0x4 DUP3 ADD MSTORE PUSH1 0x24 SWAP1 REVERT JUMPDEST SWAP1 PUSH1 0x1F DUP1 NOT SWAP2 ADD AND DUP2 ADD SWAP1 DUP2 LT PUSH8 0xFFFFFFFFFFFFFFFF DUP3 GT OR PUSH2 0x47F JUMPI PUSH1 0x40 MSTORE JUMP JUMPDEST SWAP1 DUP2 PUSH1 0x20 SWAP2 SUB SLT PUSH2 0x42C JUMPI MLOAD DUP1 ISZERO ISZERO DUP2 SUB PUSH2 0x42C JUMPI SWAP1 JUMP JUMPDEST DUP2 DUP2 MUL SWAP3 SWAP2 DUP2 ISZERO SWAP2 DUP5 DIV EQ OR ISZERO PUSH2 0xEFC JUMPI JUMP JUMPDEST PUSH4 0x4E487B71 PUSH1 0xE0 SHL PUSH1 0x0 MSTORE PUSH1 0x11 PUSH1 0x4 MSTORE PUSH1 0x24 PUSH1 0x0 REVERT JUMPDEST PUSH1 0x0 NOT DUP2 EQ PUSH2 0xEFC JUMPI PUSH1 0x1 ADD SWAP1 JUMP JUMPDEST PUSH1 0x40 MLOAD PUSH4 0x23B872DD PUSH1 0xE0 SHL PUSH1 0x20 DUP3 ADD MSTORE PUSH1 0x1 PUSH1 0x1 PUSH1 0xA0 SHL SUB SWAP3 DUP4 AND PUSH1 0x24 DUP3 ADD MSTORE SWAP3 SWAP1 SWAP2 AND PUSH1 0x44 DUP4 ADD MSTORE PUSH1 0x64 DUP1 DUP4 ADD SWAP4 SWAP1 SWAP4 MSTORE SWAP2 DUP2 MSTORE PUSH1 0xA0 DUP2 ADD SWAP2 DUP2 DUP4 LT PUSH8 0xFFFFFFFFFFFFFFFF DUP5 GT OR PUSH2 0x47F JUMPI PUSH2 0xF7A SWAP3 PUSH1 0x40 MSTORE PUSH2 0xF7C JUMP JUMPDEST JUMP JUMPDEST SWAP1 PUSH1 0x0 PUSH1 0x20 SWAP2 DUP3 DUP2 MLOAD SWAP2 ADD DUP3 DUP6 GAS CALL ISZERO PUSH2 0x439 JUMPI PUSH1 0x0 MLOAD RETURNDATASIZE PUSH2 0xFCF JUMPI POP PUSH1 0x1 PUSH1 0x1 PUSH1 0xA0 SHL SUB DUP2 AND EXTCODESIZE ISZERO JUMPDEST PUSH2 0xFAD JUMPI POP JUMP JUMPDEST PUSH1 0x40 MLOAD PUSH4 0x5274AFE7 PUSH1 0xE0 SHL DUP2 MSTORE PUSH1 0x1 PUSH1 0x1 PUSH1 0xA0 SHL SUB SWAP1 SWAP2 AND PUSH1 0x4 DUP3 ADD MSTORE PUSH1 0x24 SWAP1 REVERT JUMPDEST PUSH1 0x1 EQ ISZERO PUSH2 0xFA6 JUMP JUMPDEST PUSH1 0x2 PUSH1 0x0 SLOAD EQ PUSH2 0xFE9 JUMPI PUSH1 0x2 PUSH1 0x0 SSTORE JUMP JUMPDEST PUSH1 0x40 MLOAD PUSH4 0x3EE5AEB5 PUSH1 0xE0 SHL DUP2 MSTORE PUSH1 0x4 SWAP1 REVERT JUMPDEST ISZERO PUSH2 0x1002 JUMPI JUMP JUMPDEST PUSH1 0x40 MLOAD PUSH3 0x461BCD PUSH1 0xE5 SHL DUP2 MSTORE PUSH1 0x20 PUSH1 0x4 DUP3 ADD MSTORE PUSH1 0x10 PUSH1 0x24 DUP3 ADD MSTORE PUSH16 0x4F72646572206E6F7420616374697665 PUSH1 0x80 SHL PUSH1 0x44 DUP3 ADD MSTORE PUSH1 0x64 SWAP1 REVERT JUMPDEST SWAP2 SWAP1 DUP3 SUB SWAP2 DUP3 GT PUSH2 0xEFC JUMPI JUMP JUMPDEST PUSH1 0x40 MLOAD PUSH4 0xA9059CBB PUSH1 0xE0 SHL PUSH1 0x20 DUP3 ADD MSTORE PUSH1 0x1 PUSH1 0x1 PUSH1 0xA0 SHL SUB SWAP3 SWAP1 SWAP3 AND PUSH1 0x24 DUP4 ADD MSTORE PUSH1 0x44 DUP1 DUP4 ADD SWAP4 SWAP1 SWAP4 MSTORE SWAP2 DUP2 MSTORE PUSH2 0xF7A SWAP2 PUSH2 0x1083 PUSH1 0x64 DUP4 PUSH2 0xEAF JUMP JUMPDEST PUSH2 0xF7C JUMP INVALID LOG2 PUSH5 0x6970667358 0x22 SLT KECCAK256 0x5E 0x4C DUP10 PUSH27 0xDCCC1A5F393D2E72DBBF07FF8EA447E63FB639A0F2D1DD7CAAD108 0xA9 PUSH5 0x736F6C6343 STOP ADDMOD EQ STOP CALLER "},"methodIdentifiers":{"cancelOrder(uint256)":"514fcac7","createOrder(address,uint256,uint256,bool)":"9956b436","fillOrder(uint256,uint256)":"c37dfc5b","identityRegistry()":"134e18f4","nextOrderId()":"2a58b330","orders(uint256)":"a85c38ef","owner()":"8da5cb5b","renounceOwnership()":"715018a6","settleYield(address,address,uint256[])":"f8c745f4","transferOwnership(address)":"f2fde38b","usdc()":"3e413bee"}}}}}