{"contracts/integrations/OAID.sol":{"OAID":{"abi":[{"inputs":[],"stateMutability":"nonpayable","type":"constructor"},{"inputs":[{"internalType":"address","name":"owner","type":"address"}],"name":"OwnableInvalidOwner","type":"error"},{"inputs":[{"internalType":"address","name":"account","type":"address"}],"name":"OwnableUnauthorizedAccount","type":"error"},{"inputs":[],"name":"ReentrancyGuardReentrantCall","type":"error"},{"anonymous":false,"inputs":[{"indexed":true,"internalType":"uint256","name":"creditLineId","type":"uint256"},{"indexed":true,"internalType":"address","name":"user","type":"address"},{"indexed":false,"internalType":"address","name":"collateralToken","type":"address"},{"indexed":false,"internalType":"uint256","name":"collateralAmount","type":"uint256"},{"indexed":false,"internalType":"uint256","name":"creditLimit","type":"uint256"},{"indexed":false,"internalType":"uint256","name":"solvencyPositionId","type":"uint256"}],"name":"CreditLineIssued","type":"event"},{"anonymous":false,"inputs":[{"indexed":true,"internalType":"uint256","name":"creditLineId","type":"uint256"},{"indexed":false,"internalType":"string","name":"reason","type":"string"}],"name":"CreditLineRevoked","type":"event"},{"anonymous":false,"inputs":[{"indexed":true,"internalType":"uint256","name":"creditLineId","type":"uint256"},{"indexed":false,"internalType":"uint256","name":"oldCreditLimit","type":"uint256"},{"indexed":false,"internalType":"uint256","name":"newCreditLimit","type":"uint256"}],"name":"CreditLineUpdated","type":"event"},{"anonymous":false,"inputs":[{"indexed":true,"internalType":"uint256","name":"creditLineId","type":"uint256"},{"indexed":false,"internalType":"uint256","name":"amount","type":"uint256"},{"indexed":false,"internalType":"uint256","name":"remainingUsed","type":"uint256"}],"name":"CreditRepaid","type":"event"},{"anonymous":false,"inputs":[{"indexed":true,"internalType":"uint256","name":"creditLineId","type":"uint256"},{"indexed":false,"internalType":"uint256","name":"amount","type":"uint256"},{"indexed":false,"internalType":"uint256","name":"totalUsed","type":"uint256"}],"name":"CreditUsed","type":"event"},{"anonymous":false,"inputs":[{"indexed":true,"internalType":"address","name":"previousOwner","type":"address"},{"indexed":true,"internalType":"address","name":"newOwner","type":"address"}],"name":"OwnershipTransferred","type":"event"},{"anonymous":false,"inputs":[{"indexed":true,"internalType":"address","name":"user","type":"address"},{"indexed":false,"internalType":"uint256","name":"timestamp","type":"uint256"}],"name":"UserRegistered","type":"event"},{"inputs":[{"internalType":"uint256","name":"","type":"uint256"}],"name":"creditLines","outputs":[{"internalType":"address","name":"user","type":"address"},{"internalType":"address","name":"collateralToken","type":"address"},{"internalType":"uint256","name":"collateralAmount","type":"uint256"},{"internalType":"uint256","name":"creditLimit","type":"uint256"},{"internalType":"uint256","name":"creditUsed","type":"uint256"},{"internalType":"uint256","name":"solvencyPositionId","type":"uint256"},{"internalType":"uint256","name":"issuedAt","type":"uint256"},{"internalType":"bool","name":"active","type":"bool"}],"stateMutability":"view","type":"function"},{"inputs":[{"internalType":"uint256","name":"creditLineId","type":"uint256"}],"name":"getAvailableCredit","outputs":[{"internalType":"uint256","name":"","type":"uint256"}],"stateMutability":"view","type":"function"},{"inputs":[{"internalType":"uint256","name":"creditLineId","type":"uint256"}],"name":"getCreditLine","outputs":[{"components":[{"internalType":"address","name":"user","type":"address"},{"internalType":"address","name":"collateralToken","type":"address"},{"internalType":"uint256","name":"collateralAmount","type":"uint256"},{"internalType":"uint256","name":"creditLimit","type":"uint256"},{"internalType":"uint256","name":"creditUsed","type":"uint256"},{"internalType":"uint256","name":"solvencyPositionId","type":"uint256"},{"internalType":"uint256","name":"issuedAt","type":"uint256"},{"internalType":"bool","name":"active","type":"bool"}],"internalType":"struct OAID.CreditLine","name":"","type":"tuple"}],"stateMutability":"view","type":"function"},{"inputs":[{"internalType":"address","name":"user","type":"address"}],"name":"getTotalAvailableCredit","outputs":[{"internalType":"uint256","name":"","type":"uint256"}],"stateMutability":"view","type":"function"},{"inputs":[{"internalType":"address","name":"user","type":"address"}],"name":"getTotalCreditLimit","outputs":[{"internalType":"uint256","name":"","type":"uint256"}],"stateMutability":"view","type":"function"},{"inputs":[{"internalType":"address","name":"user","type":"address"}],"name":"getUserCreditLines","outputs":[{"internalType":"uint256[]","name":"","type":"uint256[]"}],"stateMutability":"view","type":"function"},{"inputs":[{"internalType":"address","name":"user","type":"address"}],"name":"isUserRegistered","outputs":[{"internalType":"bool","name":"","type":"bool"}],"stateMutability":"view","type":"function"},{"inputs":[{"internalType":"address","name":"user","type":"address"},{"internalType":"address","name":"collateralToken","type":"address"},{"internalType":"uint256","name":"collateralAmount","type":"uint256"},{"internalType":"uint256","name":"valueUSD","type":"uint256"},{"internalType":"uint256","name":"solvencyPositionId","type":"uint256"}],"name":"issueCreditLine","outputs":[{"internalType":"uint256","name":"creditLineId","type":"uint256"}],"stateMutability":"nonpayable","type":"function"},{"inputs":[],"name":"nextCreditLineId","outputs":[{"internalType":"uint256","name":"","type":"uint256"}],"stateMutability":"view","type":"function"},{"inputs":[],"name":"owner","outputs":[{"internalType":"address","name":"","type":"address"}],"stateMutability":"view","type":"function"},{"inputs":[{"internalType":"uint256","name":"creditLineId","type":"uint256"},{"internalType":"uint256","name":"amount","type":"uint256"}],"name":"recordCreditRepayment","outputs":[],"stateMutability":"nonpayable","type":"function"},{"inputs":[{"internalType":"uint256","name":"creditLineId","type":"uint256"},{"internalType":"uint256","name":"amount","type":"uint256"}],"name":"recordCreditUsage","outputs":[],"stateMutability":"nonpayable","type":"function"},{"inputs":[{"internalType":"address","name":"user","type":"address"}],"name":"registerUser","outputs":[],"stateMutability":"nonpayable","type":"function"},{"inputs":[{"internalType":"address","name":"","type":"address"}],"name":"registeredUsers","outputs":[{"internalType":"bool","name":"","type":"bool"}],"stateMutability":"view","type":"function"},{"inputs":[],"name":"renounceOwnership","outputs":[],"stateMutability":"nonpayable","type":"function"},{"inputs":[{"internalType":"uint256","name":"creditLineId","type":"uint256"},{"internalType":"string","name":"reason","type":"string"}],"name":"revokeCreditLine","outputs":[],"stateMutability":"nonpayable","type":"function"},{"inputs":[{"internalType":"address","name":"_solvencyVault","type":"address"}],"name":"setSolvencyVault","outputs":[],"stateMutability":"nonpayable","type":"function"},{"inputs":[],"name":"solvencyVault","outputs":[{"internalType":"address","name":"","type":"address"}],"stateMutability":"view","type":"function"},{"inputs":[{"internalType":"address","name":"newOwner","type":"address"}],"name":"transferOwnership","outputs":[],"stateMutability":"nonpayable","type":"function"},{"inputs":[{"internalType":"uint256","name":"creditLineId","type":"uint256"},{"internalType":"uint256","name":"newValueUSD","type":"uint256"}],"name":"updateCreditLine","outputs":[],"stateMutability":"nonpayable","type":"function"},{"inputs":[{"internalType":"address","name":"","type":"address"},{"internalType":"uint256","name":"","type":"uint256"}],"name":"userCreditLines","outputs":[{"internalType":"uint256","name":"","type":"uint256"}],"stateMutability":"view","type":"function"},{"inputs":[{"internalType":"address","name":"","type":"address"}],"name":"userRegistrationTime","outputs":[{"internalType":"uint256","name":"","type":"uint256"}],"stateMutability":"view","type":"function"}],"evm":{"bytecode":{"linkReferences":{},"object":"6080806040523461008357331561006d5760008054336001600160a01b03198216811783556040519290916001600160a01b0316907f8be0079c531659141344cd1fd0a4f28419497f9722a3daafe3b4186f6b6457e09080a360018055600160065561138390816100898239f35b631e4fbdf760e01b815260006004820152602490fd5b600080fdfe6080604081815260048036101561001557600080fd5b60009260e08435811c9182630e50cee51461102657508163163f752214610fe75781632077997b14610f1c57816320bb463e14610df25781632199d5cd14610ce957816336e433ba14610c6557816344452ba114610c3b57816365a1782f14610b6457816367cc7cff146109f65781636ad75e1f14610924578163715018a6146108ca5781637bca9fcc146108735781638da5cb5b1461084a5781638f19cfa91461082a578163ad6e4f3a1461077d578163cbcddf1314610755578163d5cdd4c614610620578163e32195d6146103a0578163ea3854d8146102da578163edad8550146101d557508063f030af22146101a05763f2fde38b1461011757600080fd5b3461019c57602036600319011261019c57610130611061565b90610139611115565b6001600160a01b0391821692831561018657505082546001600160a01b0319811683178455167f8be0079c531659141344cd1fd0a4f28419497f9722a3daafe3b4186f6b6457e08380a380f35b51631e4fbdf760e01b8152908101849052602490fd5b8280fd5b503461019c57602036600319011261019c5760209282916001600160a01b036101c7611061565b168252845220549051908152f35b91929050346102d65760203660031901126102d6578084610100958483516101fc81611092565b82815282602082015282858201528260608201528260808201528260a08201528260c082015201528435815260056020522081519161023a83611092565b60018060a01b038083541695868552816001850154169260208601938452600285015481870190815260038601549260608801938452860154936080880194855260058701549560a089019687528960ff600760068b01549a60c08d019b8c520154169901981515895283519a8b52511660208a015251908801525160608701525160808601525160a08501525160c084015251151590820152f35b8380fd5b8285853461039c576102eb3661107c565b61030360018060a09594951b03600254163314611141565b61030b611203565b82845260056020528184209061032760ff600784015416611226565b600381159261033684156111c3565b0190815492611b5880830292830414171561038957906127107f720881e7a116a115d83475e857dd1e6d1129a6aff9007477505eb63f301bde6f9493920480915582519182526020820152a26001805580f35b634e487b7160e01b865260118752602486fd5b5080fd5b8284863461061d5760a036600319011261061d576103bc611061565b936001600160a01b03936024358581169291908390036102d6576044359086606435986103ee82600254163314611141565b6103f6611203565b169485815260209860038a5260ff8883205416156105e45785156105b15761041f841515611182565b801561042b81156111c3565b611b5880830292830414171561059e576127109004936006549889916104508361126b565b6006558b8a80519361046185611092565b8b85528285018b8152828601908a825260608701928c84528060808901958b875260a08a0197608435895260c08b0199428b528b019b60018d528d52600590528b20985116906bffffffffffffffffffffffff60a01b91828a5416178955600189019251169082541617905551600286015551600385015551868401555160058301555160068201556007019051151560ff198254169060ff1617905585815260078952868120908154926801000000000000000084101561058b57505092608092610556837fd0b5542c8f25b14fdbbe9bbbc395dd5fd5c2ff36f08e69f6e6d80ffb93462feb9660018c99960181556110e7565b81549060031b9088821b91600019901b1916179055875192835289830152868201526084356060820152a36001805551908152f35b634e487b7160e01b825260419052602490fd5b506011602492634e487b7160e01b835252fd5b875162461bcd60e51b81528084018b9052600d60248201526c24b73b30b634b2103a37b5b2b760991b6044820152606490fd5b875162461bcd60e51b81528084018b90526013602482015272155cd95c881b9bdd081c9959da5cdd195c9959606a1b6044820152606490fd5b80fd5b838584923461039c576020938460031936011261019c5761063f611061565b91839260018060a01b038091168552600780885286862096805180898b829b549384815201908a528b8a20928a5b8d82821061073f57505050610684925003896110c5565b865b885181101561073657610699818a611339565b5188526005808b528289208684516106b081611092565b8783541681528d886001850154169082015260028301548682015260ff876003850154948560608501528c8101549687608086015281015460a0850152600681015460c085015201541615159182910152610716575b50506107119061126b565b610686565b9761072861072e92610711949a611290565b9061129d565b96908b610706565b89878351908152f35b855484526001958601958e95509301920161066d565b5050913461061d57602036600319011261061d5750610776602092356112aa565b9051908152f35b83853461061d576020908160031936011261061d5782906001600160a01b036107a4611061565b16815260078352818120908251808584549182815201908194845286842090845b81811061081657505050816107db9103826110c5565b83519485948186019282875251809352850193925b8281106107ff57505050500390f35b8351855286955093810193928101926001016107f0565b8254845292880192600192830192016107c5565b5050503461039c578160031936011261039c576020906006549051908152f35b5050503461039c578160031936011261039c57905490516001600160a01b039091168152602090f35b5050503461039c578060031936011261039c5761088e611061565b6001600160a01b0316825260076020528082208054602435939084101561061d57506020926108bc916110e7565b91905490519160031b1c8152f35b843461061d578060031936011261061d576108e3611115565b80546001600160a01b03198116825581906001600160a01b03167f8be0079c531659141344cd1fd0a4f28419497f9722a3daafe3b4186f6b6457e08280a380f35b8285853461039c576109353661107c565b610940929192611115565b610948611203565b82845260056020528482852061096460ff600783015416611226565b61096f831515611182565b018054958683116109bd57506109a8827f1af839ce655eb23ec05b8977b91598e475661a48d34a7f4b4c499ddcaeac551c959697611290565b80915582519182526020820152a26001805580f35b606490602085519162461bcd60e51b83528201526013602482015272105b5bdd5b9d08195e18d959591cc81919589d606a1b6044820152fd5b50503461019c578160031936011261019c578035916024359167ffffffffffffffff90818411610b605736602385011215610b605783810135918211610b4d5782519086602095601f1994610a528887601f84011601866110c5565b808552366024828401011161019c578060248993018387013784010152610a8460018060a01b03600254163314611141565b610a8c611203565b858752600585526007848820019081549060ff821615610b18575060ff191690558251938085528151918282870152875b838110610b0557505050928291601f858884967f1c15f1e13a77fb81a0da9e59f48e2101623c7c71d6a01ab217f2a45acd5de810988601015201168101030190a26001805580f35b8181018301518782018701528201610abd565b855162461bcd60e51b8152908101879052600f60248201526e105b1c9958591e481c995d9bdad959608a1b6044820152606490fd5b634e487b7160e01b865260419052602485fd5b8580fd5b8285853461039c57610b753661107c565b610b80929192611115565b610b88611203565b828452600560205281842094610ba460ff600788015416611226565b610baf821515611182565b806003870154960190610bc482548098611290565b8311610bf857506109a8827f5496d924a06323b0525576522992e3fc0c11a350cd485f9053de0e7ba84aee3595969761129d565b606490602085519162461bcd60e51b8352820152601860248201527f4578636565647320617661696c61626c652063726564697400000000000000006044820152fd5b5050503461039c578160031936011261039c5760025490516001600160a01b039091168152602090f35b919050346102d65760203660031901126102d65782610100948235815260056020522060018060a01b03938482541694600183015416926002830154906003840154908401549160058501549360ff6007600688015497015416968151998a5260208a01528801526060870152608086015260a085015260c0840152151590820152f35b5050903461019c57602090816003193601126102d657610d07611061565b610d0f611115565b6001600160a01b0316928315610dba578385526003835260ff8286205416610d7957907fe29d35093005f4d575e1003753426b57a7f64378ba73332eef9c6ccc2b8decd6929184865260038352818620600160ff198254161790558252428186205551428152a280f35b82606492519162461bcd60e51b8352820152601760248201527f5573657220616c726561647920726567697374657265640000000000000000006044820152fd5b82606492519162461bcd60e51b83528201526014602482015273496e76616c69642075736572206164647265737360601b6044820152fd5b8385843461039c576020938460031936011261019c57610e10611061565b6001600160a01b039081168452600780875285852086518154808252918752888720909787929091908990818c0190855b8d828210610f0657505050610e58925003896110c5565b815b8851811015610efd57610e6d818a611339565b5183526005808b52868b60ff87868820875193610e8985611092565b8b82541685528b600183015416908501526002810154888501526003810154958660608601528d820154608086015281015460a0850152600681015460c085015201541615159182910152610ee8575b50610ee39061126b565b610e5a565b610ef690610ee3929961129d565b9790610ed9565b89888351908152f35b855484526001958601958e955093019201610e41565b50503461019c57602036600319011261019c57610f37611061565b90610f40611115565b600254916001600160a01b0390818416610fa45716928315610f6f5750506001600160a01b0319161760025580f35b906020606492519162461bcd60e51b8352820152600f60248201526e496e76616c6964206164647265737360881b6044820152fd5b845162461bcd60e51b8152602081850152601960248201527f536f6c76656e63795661756c7420616c726561647920736574000000000000006044820152606490fd5b5050503461039c57602036600319011261039c5760209160ff9082906001600160a01b03611013611061565b1681526003855220541690519015158152f35b8590853461019c57602036600319011261019c5760209260ff91906001600160a01b03611051611061565b1681526003855220541615158152f35b600435906001600160a01b038216820361107757565b600080fd5b6040906003190112611077576004359060243590565b610100810190811067ffffffffffffffff8211176110af57604052565b634e487b7160e01b600052604160045260246000fd5b90601f8019910116810190811067ffffffffffffffff8211176110af57604052565b80548210156110ff5760005260206000200190600090565b634e487b7160e01b600052603260045260246000fd5b6000546001600160a01b0316330361112957565b60405163118cdaa760e01b8152336004820152602490fd5b1561114857565b60405162461bcd60e51b815260206004820152601260248201527113db9b1e4814dbdb1d995b98de55985d5b1d60721b6044820152606490fd5b1561118957565b60405162461bcd60e51b81526020600482015260126024820152710416d6f756e74206d757374206265203e20360741b6044820152606490fd5b156111ca57565b60405162461bcd60e51b8152602060048201526011602482015270056616c7565206d757374206265203e203607c1b6044820152606490fd5b600260015414611214576002600155565b604051633ee5aeb560e01b8152600490fd5b1561122d57565b60405162461bcd60e51b8152602060048201526016602482015275437265646974206c696e65206e6f742061637469766560501b6044820152606490fd5b600019811461127a5760010190565b634e487b7160e01b600052601160045260246000fd5b9190820391821161127a57565b9190820180921161127a57565b60005260056020526040600020604051906112c482611092565b60018060a01b0380825416835260018201541660208301526002810154604083015260038101549182606082015260ff6007600484015493846080850152600581015460a0850152600681015460c0850152015416159060e082159101526113325761132f91611290565b90565b5050600090565b80518210156110ff5760209160051b01019056fea2646970667358221220bc2a545b41a70d98c1487b681b88823eb8760523817ff6ef775ce88bbb54330364736f6c63430008140033","opcodes":"PUSH1 0x80 DUP1 PUSH1 0x40 MSTORE CALLVALUE PUSH2 0x83 JUMPI CALLER ISZERO PUSH2 0x6D JUMPI PUSH1 0x0 DUP1 SLOAD CALLER PUSH1 0x1 PUSH1 0x1 PUSH1 0xA0 SHL SUB NOT DUP3 AND DUP2 OR DUP4 SSTORE PUSH1 0x40 MLOAD SWAP3 SWAP1 SWAP2 PUSH1 0x1 PUSH1 0x1 PUSH1 0xA0 SHL SUB AND SWAP1 PUSH32 0x8BE0079C531659141344CD1FD0A4F28419497F9722A3DAAFE3B4186F6B6457E0 SWAP1 DUP1 LOG3 PUSH1 0x1 DUP1 SSTORE PUSH1 0x1 PUSH1 0x6 SSTORE PUSH2 0x1383 SWAP1 DUP2 PUSH2 0x89 DUP3 CODECOPY RETURN JUMPDEST PUSH4 0x1E4FBDF7 PUSH1 0xE0 SHL DUP2 MSTORE PUSH1 0x0 PUSH1 0x4 DUP3 ADD MSTORE PUSH1 0x24 SWAP1 REVERT JUMPDEST PUSH1 0x0 DUP1 REVERT INVALID PUSH1 0x80 PUSH1 0x40 DUP2 DUP2 MSTORE PUSH1 0x4 DUP1 CALLDATASIZE LT ISZERO PUSH2 0x15 JUMPI PUSH1 0x0 DUP1 REVERT JUMPDEST PUSH1 0x0 SWAP3 PUSH1 0xE0 DUP5 CALLDATALOAD DUP2 SHR SWAP2 DUP3 PUSH4 0xE50CEE5 EQ PUSH2 0x1026 JUMPI POP DUP2 PUSH4 0x163F7522 EQ PUSH2 0xFE7 JUMPI DUP2 PUSH4 0x2077997B EQ PUSH2 0xF1C JUMPI DUP2 PUSH4 0x20BB463E EQ PUSH2 0xDF2 JUMPI DUP2 PUSH4 0x2199D5CD EQ PUSH2 0xCE9 JUMPI DUP2 PUSH4 0x36E433BA EQ PUSH2 0xC65 JUMPI DUP2 PUSH4 0x44452BA1 EQ PUSH2 0xC3B JUMPI DUP2 PUSH4 0x65A1782F EQ PUSH2 0xB64 JUMPI DUP2 PUSH4 0x67CC7CFF EQ PUSH2 0x9F6 JUMPI DUP2 PUSH4 0x6AD75E1F EQ PUSH2 0x924 JUMPI DUP2 PUSH4 0x715018A6 EQ PUSH2 0x8CA JUMPI DUP2 PUSH4 0x7BCA9FCC EQ PUSH2 0x873 JUMPI DUP2 PUSH4 0x8DA5CB5B EQ PUSH2 0x84A JUMPI DUP2 PUSH4 0x8F19CFA9 EQ PUSH2 0x82A JUMPI DUP2 PUSH4 0xAD6E4F3A EQ PUSH2 0x77D JUMPI DUP2 PUSH4 0xCBCDDF13 EQ PUSH2 0x755 JUMPI DUP2 PUSH4 0xD5CDD4C6 EQ PUSH2 0x620 JUMPI DUP2 PUSH4 0xE32195D6 EQ PUSH2 0x3A0 JUMPI DUP2 PUSH4 0xEA3854D8 EQ PUSH2 0x2DA JUMPI DUP2 PUSH4 0xEDAD8550 EQ PUSH2 0x1D5 JUMPI POP DUP1 PUSH4 0xF030AF22 EQ PUSH2 0x1A0 JUMPI PUSH4 0xF2FDE38B EQ PUSH2 0x117 JUMPI PUSH1 0x0 DUP1 REVERT JUMPDEST CALLVALUE PUSH2 0x19C JUMPI PUSH1 0x20 CALLDATASIZE PUSH1 0x3 NOT ADD SLT PUSH2 0x19C JUMPI PUSH2 0x130 PUSH2 0x1061 JUMP JUMPDEST SWAP1 PUSH2 0x139 PUSH2 0x1115 JUMP JUMPDEST PUSH1 0x1 PUSH1 0x1 PUSH1 0xA0 SHL SUB SWAP2 DUP3 AND SWAP3 DUP4 ISZERO PUSH2 0x186 JUMPI POP POP DUP3 SLOAD PUSH1 0x1 PUSH1 0x1 PUSH1 0xA0 SHL SUB NOT DUP2 AND DUP4 OR DUP5 SSTORE AND PUSH32 0x8BE0079C531659141344CD1FD0A4F28419497F9722A3DAAFE3B4186F6B6457E0 DUP4 DUP1 LOG3 DUP1 RETURN JUMPDEST MLOAD PUSH4 0x1E4FBDF7 PUSH1 0xE0 SHL DUP2 MSTORE SWAP1 DUP2 ADD DUP5 SWAP1 MSTORE PUSH1 0x24 SWAP1 REVERT JUMPDEST DUP3 DUP1 REVERT JUMPDEST POP CALLVALUE PUSH2 0x19C JUMPI PUSH1 0x20 CALLDATASIZE PUSH1 0x3 NOT ADD SLT PUSH2 0x19C JUMPI PUSH1 0x20 SWAP3 DUP3 SWAP2 PUSH1 0x1 PUSH1 0x1 PUSH1 0xA0 SHL SUB PUSH2 0x1C7 PUSH2 0x1061 JUMP JUMPDEST AND DUP3 MSTORE DUP5 MSTORE KECCAK256 SLOAD SWAP1 MLOAD SWAP1 DUP2 MSTORE RETURN JUMPDEST SWAP2 SWAP3 SWAP1 POP CALLVALUE PUSH2 0x2D6 JUMPI PUSH1 0x20 CALLDATASIZE PUSH1 0x3 NOT ADD SLT PUSH2 0x2D6 JUMPI DUP1 DUP5 PUSH2 0x100 SWAP6 DUP5 DUP4 MLOAD PUSH2 0x1FC DUP2 PUSH2 0x1092 JUMP JUMPDEST DUP3 DUP2 MSTORE DUP3 PUSH1 0x20 DUP3 ADD MSTORE DUP3 DUP6 DUP3 ADD MSTORE DUP3 PUSH1 0x60 DUP3 ADD MSTORE DUP3 PUSH1 0x80 DUP3 ADD MSTORE DUP3 PUSH1 0xA0 DUP3 ADD MSTORE DUP3 PUSH1 0xC0 DUP3 ADD MSTORE ADD MSTORE DUP5 CALLDATALOAD DUP2 MSTORE PUSH1 0x5 PUSH1 0x20 MSTORE KECCAK256 DUP2 MLOAD SWAP2 PUSH2 0x23A DUP4 PUSH2 0x1092 JUMP JUMPDEST PUSH1 0x1 DUP1 PUSH1 0xA0 SHL SUB DUP1 DUP4 SLOAD AND SWAP6 DUP7 DUP6 MSTORE DUP2 PUSH1 0x1 DUP6 ADD SLOAD AND SWAP3 PUSH1 0x20 DUP7 ADD SWAP4 DUP5 MSTORE PUSH1 0x2 DUP6 ADD SLOAD DUP2 DUP8 ADD SWAP1 DUP2 MSTORE PUSH1 0x3 DUP7 ADD SLOAD SWAP3 PUSH1 0x60 DUP9 ADD SWAP4 DUP5 MSTORE DUP7 ADD SLOAD SWAP4 PUSH1 0x80 DUP9 ADD SWAP5 DUP6 MSTORE PUSH1 0x5 DUP8 ADD SLOAD SWAP6 PUSH1 0xA0 DUP10 ADD SWAP7 DUP8 MSTORE DUP10 PUSH1 0xFF PUSH1 0x7 PUSH1 0x6 DUP12 ADD SLOAD SWAP11 PUSH1 0xC0 DUP14 ADD SWAP12 DUP13 MSTORE ADD SLOAD AND SWAP10 ADD SWAP9 ISZERO ISZERO DUP10 MSTORE DUP4 MLOAD SWAP11 DUP12 MSTORE MLOAD AND PUSH1 0x20 DUP11 ADD MSTORE MLOAD SWAP1 DUP9 ADD MSTORE MLOAD PUSH1 0x60 DUP8 ADD MSTORE MLOAD PUSH1 0x80 DUP7 ADD MSTORE MLOAD PUSH1 0xA0 DUP6 ADD MSTORE MLOAD PUSH1 0xC0 DUP5 ADD MSTORE MLOAD ISZERO ISZERO SWAP1 DUP3 ADD MSTORE RETURN JUMPDEST DUP4 DUP1 REVERT JUMPDEST DUP3 DUP6 DUP6 CALLVALUE PUSH2 0x39C JUMPI PUSH2 0x2EB CALLDATASIZE PUSH2 0x107C JUMP JUMPDEST PUSH2 0x303 PUSH1 0x1 DUP1 PUSH1 0xA0 SWAP6 SWAP5 SWAP6 SHL SUB PUSH1 0x2 SLOAD AND CALLER EQ PUSH2 0x1141 JUMP JUMPDEST PUSH2 0x30B PUSH2 0x1203 JUMP JUMPDEST DUP3 DUP5 MSTORE PUSH1 0x5 PUSH1 0x20 MSTORE DUP2 DUP5 KECCAK256 SWAP1 PUSH2 0x327 PUSH1 0xFF PUSH1 0x7 DUP5 ADD SLOAD AND PUSH2 0x1226 JUMP JUMPDEST PUSH1 0x3 DUP2 ISZERO SWAP3 PUSH2 0x336 DUP5 ISZERO PUSH2 0x11C3 JUMP JUMPDEST ADD SWAP1 DUP2 SLOAD SWAP3 PUSH2 0x1B58 DUP1 DUP4 MUL SWAP3 DUP4 DIV EQ OR ISZERO PUSH2 0x389 JUMPI SWAP1 PUSH2 0x2710 PUSH32 0x720881E7A116A115D83475E857DD1E6D1129A6AFF9007477505EB63F301BDE6F SWAP5 SWAP4 SWAP3 DIV DUP1 SWAP2 SSTORE DUP3 MLOAD SWAP2 DUP3 MSTORE PUSH1 0x20 DUP3 ADD MSTORE LOG2 PUSH1 0x1 DUP1 SSTORE DUP1 RETURN JUMPDEST PUSH4 0x4E487B71 PUSH1 0xE0 SHL DUP7 MSTORE PUSH1 0x11 DUP8 MSTORE PUSH1 0x24 DUP7 REVERT JUMPDEST POP DUP1 REVERT JUMPDEST DUP3 DUP5 DUP7 CALLVALUE PUSH2 0x61D JUMPI PUSH1 0xA0 CALLDATASIZE PUSH1 0x3 NOT ADD SLT PUSH2 0x61D JUMPI PUSH2 0x3BC PUSH2 0x1061 JUMP JUMPDEST SWAP4 PUSH1 0x1 PUSH1 0x1 PUSH1 0xA0 SHL SUB SWAP4 PUSH1 0x24 CALLDATALOAD DUP6 DUP2 AND SWAP3 SWAP2 SWAP1 DUP4 SWAP1 SUB PUSH2 0x2D6 JUMPI PUSH1 0x44 CALLDATALOAD SWAP1 DUP7 PUSH1 0x64 CALLDATALOAD SWAP9 PUSH2 0x3EE DUP3 PUSH1 0x2 SLOAD AND CALLER EQ PUSH2 0x1141 JUMP JUMPDEST PUSH2 0x3F6 PUSH2 0x1203 JUMP JUMPDEST AND SWAP5 DUP6 DUP2 MSTORE PUSH1 0x20 SWAP9 PUSH1 0x3 DUP11 MSTORE PUSH1 0xFF DUP9 DUP4 KECCAK256 SLOAD AND ISZERO PUSH2 0x5E4 JUMPI DUP6 ISZERO PUSH2 0x5B1 JUMPI PUSH2 0x41F DUP5 ISZERO ISZERO PUSH2 0x1182 JUMP JUMPDEST DUP1 ISZERO PUSH2 0x42B DUP2 ISZERO PUSH2 0x11C3 JUMP JUMPDEST PUSH2 0x1B58 DUP1 DUP4 MUL SWAP3 DUP4 DIV EQ OR ISZERO PUSH2 0x59E JUMPI PUSH2 0x2710 SWAP1 DIV SWAP4 PUSH1 0x6 SLOAD SWAP9 DUP10 SWAP2 PUSH2 0x450 DUP4 PUSH2 0x126B JUMP JUMPDEST PUSH1 0x6 SSTORE DUP12 DUP11 DUP1 MLOAD SWAP4 PUSH2 0x461 DUP6 PUSH2 0x1092 JUMP JUMPDEST DUP12 DUP6 MSTORE DUP3 DUP6 ADD DUP12 DUP2 MSTORE DUP3 DUP7 ADD SWAP1 DUP11 DUP3 MSTORE PUSH1 0x60 DUP8 ADD SWAP3 DUP13 DUP5 MSTORE DUP1 PUSH1 0x80 DUP10 ADD SWAP6 DUP12 DUP8 MSTORE PUSH1 0xA0 DUP11 ADD SWAP8 PUSH1 0x84 CALLDATALOAD DUP10 MSTORE PUSH1 0xC0 DUP12 ADD SWAP10 TIMESTAMP DUP12 MSTORE DUP12 ADD SWAP12 PUSH1 0x1 DUP14 MSTORE DUP14 MSTORE PUSH1 0x5 SWAP1 MSTORE DUP12 KECCAK256 SWAP9 MLOAD AND SWAP1 PUSH12 0xFFFFFFFFFFFFFFFFFFFFFFFF PUSH1 0xA0 SHL SWAP2 DUP3 DUP11 SLOAD AND OR DUP10 SSTORE PUSH1 0x1 DUP10 ADD SWAP3 MLOAD AND SWAP1 DUP3 SLOAD AND OR SWAP1 SSTORE MLOAD PUSH1 0x2 DUP7 ADD SSTORE MLOAD PUSH1 0x3 DUP6 ADD SSTORE MLOAD DUP7 DUP5 ADD SSTORE MLOAD PUSH1 0x5 DUP4 ADD SSTORE MLOAD PUSH1 0x6 DUP3 ADD SSTORE PUSH1 0x7 ADD SWAP1 MLOAD ISZERO ISZERO PUSH1 0xFF NOT DUP3 SLOAD AND SWAP1 PUSH1 0xFF AND OR SWAP1 SSTORE DUP6 DUP2 MSTORE PUSH1 0x7 DUP10 MSTORE DUP7 DUP2 KECCAK256 SWAP1 DUP2 SLOAD SWAP3 PUSH9 0x10000000000000000 DUP5 LT ISZERO PUSH2 0x58B JUMPI POP POP SWAP3 PUSH1 0x80 SWAP3 PUSH2 0x556 DUP4 PUSH32 0xD0B5542C8F25B14FDBBE9BBBC395DD5FD5C2FF36F08E69F6E6D80FFB93462FEB SWAP7 PUSH1 0x1 DUP13 SWAP10 SWAP7 ADD DUP2 SSTORE PUSH2 0x10E7 JUMP JUMPDEST DUP2 SLOAD SWAP1 PUSH1 0x3 SHL SWAP1 DUP9 DUP3 SHL SWAP2 PUSH1 0x0 NOT SWAP1 SHL NOT AND OR SWAP1 SSTORE DUP8 MLOAD SWAP3 DUP4 MSTORE DUP10 DUP4 ADD MSTORE DUP7 DUP3 ADD MSTORE PUSH1 0x84 CALLDATALOAD PUSH1 0x60 DUP3 ADD MSTORE LOG3 PUSH1 0x1 DUP1 SSTORE MLOAD SWAP1 DUP2 MSTORE RETURN JUMPDEST PUSH4 0x4E487B71 PUSH1 0xE0 SHL DUP3 MSTORE PUSH1 0x41 SWAP1 MSTORE PUSH1 0x24 SWAP1 REVERT JUMPDEST POP PUSH1 0x11 PUSH1 0x24 SWAP3 PUSH4 0x4E487B71 PUSH1 0xE0 SHL DUP4 MSTORE MSTORE REVERT JUMPDEST DUP8 MLOAD PUSH3 0x461BCD PUSH1 0xE5 SHL DUP2 MSTORE DUP1 DUP5 ADD DUP12 SWAP1 MSTORE PUSH1 0xD PUSH1 0x24 DUP3 ADD MSTORE PUSH13 0x24B73B30B634B2103A37B5B2B7 PUSH1 0x99 SHL PUSH1 0x44 DUP3 ADD MSTORE PUSH1 0x64 SWAP1 REVERT JUMPDEST DUP8 MLOAD PUSH3 0x461BCD PUSH1 0xE5 SHL DUP2 MSTORE DUP1 DUP5 ADD DUP12 SWAP1 MSTORE PUSH1 0x13 PUSH1 0x24 DUP3 ADD MSTORE PUSH19 0x155CD95C881B9BDD081C9959DA5CDD195C9959 PUSH1 0x6A SHL PUSH1 0x44 DUP3 ADD MSTORE PUSH1 0x64 SWAP1 REVERT JUMPDEST DUP1 REVERT JUMPDEST DUP4 DUP6 DUP5 SWAP3 CALLVALUE PUSH2 0x39C JUMPI PUSH1 0x20 SWAP4 DUP5 PUSH1 0x3 NOT CALLDATASIZE ADD SLT PUSH2 0x19C JUMPI PUSH2 0x63F PUSH2 0x1061 JUMP JUMPDEST SWAP2 DUP4 SWAP3 PUSH1 0x1 DUP1 PUSH1 0xA0 SHL SUB DUP1 SWAP2 AND DUP6 MSTORE PUSH1 0x7 DUP1 DUP9 MSTORE DUP7 DUP7 KECCAK256 SWAP7 DUP1 MLOAD DUP1 DUP10 DUP12 DUP3 SWAP12 SLOAD SWAP4 DUP5 DUP2 MSTORE ADD SWAP1 DUP11 MSTORE DUP12 DUP11 KECCAK256 SWAP3 DUP11 JUMPDEST DUP14 DUP3 DUP3 LT PUSH2 0x73F JUMPI POP POP POP PUSH2 0x684 SWAP3 POP SUB DUP10 PUSH2 0x10C5 JUMP JUMPDEST DUP7 JUMPDEST DUP9 MLOAD DUP2 LT ISZERO PUSH2 0x736 JUMPI PUSH2 0x699 DUP2 DUP11 PUSH2 0x1339 JUMP JUMPDEST MLOAD DUP9 MSTORE PUSH1 0x5 DUP1 DUP12 MSTORE DUP3 DUP10 KECCAK256 DUP7 DUP5 MLOAD PUSH2 0x6B0 DUP2 PUSH2 0x1092 JUMP JUMPDEST DUP8 DUP4 SLOAD AND DUP2 MSTORE DUP14 DUP9 PUSH1 0x1 DUP6 ADD SLOAD AND SWAP1 DUP3 ADD MSTORE PUSH1 0x2 DUP4 ADD SLOAD DUP7 DUP3 ADD MSTORE PUSH1 0xFF DUP8 PUSH1 0x3 DUP6 ADD SLOAD SWAP5 DUP6 PUSH1 0x60 DUP6 ADD MSTORE DUP13 DUP2 ADD SLOAD SWAP7 DUP8 PUSH1 0x80 DUP7 ADD MSTORE DUP2 ADD SLOAD PUSH1 0xA0 DUP6 ADD MSTORE PUSH1 0x6 DUP2 ADD SLOAD PUSH1 0xC0 DUP6 ADD MSTORE ADD SLOAD AND ISZERO ISZERO SWAP2 DUP3 SWAP2 ADD MSTORE PUSH2 0x716 JUMPI JUMPDEST POP POP PUSH2 0x711 SWAP1 PUSH2 0x126B JUMP JUMPDEST PUSH2 0x686 JUMP JUMPDEST SWAP8 PUSH2 0x728 PUSH2 0x72E SWAP3 PUSH2 0x711 SWAP5 SWAP11 PUSH2 0x1290 JUMP JUMPDEST SWAP1 PUSH2 0x129D JUMP JUMPDEST SWAP7 SWAP1 DUP12 PUSH2 0x706 JUMP JUMPDEST DUP10 DUP8 DUP4 MLOAD SWAP1 DUP2 MSTORE RETURN JUMPDEST DUP6 SLOAD DUP5 MSTORE PUSH1 0x1 SWAP6 DUP7 ADD SWAP6 DUP15 SWAP6 POP SWAP4 ADD SWAP3 ADD PUSH2 0x66D JUMP JUMPDEST POP POP SWAP2 CALLVALUE PUSH2 0x61D JUMPI PUSH1 0x20 CALLDATASIZE PUSH1 0x3 NOT ADD SLT PUSH2 0x61D JUMPI POP PUSH2 0x776 PUSH1 0x20 SWAP3 CALLDATALOAD PUSH2 0x12AA JUMP JUMPDEST SWAP1 MLOAD SWAP1 DUP2 MSTORE RETURN JUMPDEST DUP4 DUP6 CALLVALUE PUSH2 0x61D JUMPI PUSH1 0x20 SWAP1 DUP2 PUSH1 0x3 NOT CALLDATASIZE ADD SLT PUSH2 0x61D JUMPI DUP3 SWAP1 PUSH1 0x1 PUSH1 0x1 PUSH1 0xA0 SHL SUB PUSH2 0x7A4 PUSH2 0x1061 JUMP JUMPDEST AND DUP2 MSTORE PUSH1 0x7 DUP4 MSTORE DUP2 DUP2 KECCAK256 SWAP1 DUP3 MLOAD DUP1 DUP6 DUP5 SLOAD SWAP2 DUP3 DUP2 MSTORE ADD SWAP1 DUP2 SWAP5 DUP5 MSTORE DUP7 DUP5 KECCAK256 SWAP1 DUP5 JUMPDEST DUP2 DUP2 LT PUSH2 0x816 JUMPI POP POP POP DUP2 PUSH2 0x7DB SWAP2 SUB DUP3 PUSH2 0x10C5 JUMP JUMPDEST DUP4 MLOAD SWAP5 DUP6 SWAP5 DUP2 DUP7 ADD SWAP3 DUP3 DUP8 MSTORE MLOAD DUP1 SWAP4 MSTORE DUP6 ADD SWAP4 SWAP3 JUMPDEST DUP3 DUP2 LT PUSH2 0x7FF JUMPI POP POP POP POP SUB SWAP1 RETURN JUMPDEST DUP4 MLOAD DUP6 MSTORE DUP7 SWAP6 POP SWAP4 DUP2 ADD SWAP4 SWAP3 DUP2 ADD SWAP3 PUSH1 0x1 ADD PUSH2 0x7F0 JUMP JUMPDEST DUP3 SLOAD DUP5 MSTORE SWAP3 DUP9 ADD SWAP3 PUSH1 0x1 SWAP3 DUP4 ADD SWAP3 ADD PUSH2 0x7C5 JUMP JUMPDEST POP POP POP CALLVALUE PUSH2 0x39C JUMPI DUP2 PUSH1 0x3 NOT CALLDATASIZE ADD SLT PUSH2 0x39C JUMPI PUSH1 0x20 SWAP1 PUSH1 0x6 SLOAD SWAP1 MLOAD SWAP1 DUP2 MSTORE RETURN JUMPDEST POP POP POP CALLVALUE PUSH2 0x39C JUMPI DUP2 PUSH1 0x3 NOT CALLDATASIZE ADD SLT PUSH2 0x39C JUMPI SWAP1 SLOAD SWAP1 MLOAD PUSH1 0x1 PUSH1 0x1 PUSH1 0xA0 SHL SUB SWAP1 SWAP2 AND DUP2 MSTORE PUSH1 0x20 SWAP1 RETURN JUMPDEST POP POP POP CALLVALUE PUSH2 0x39C JUMPI DUP1 PUSH1 0x3 NOT CALLDATASIZE ADD SLT PUSH2 0x39C JUMPI PUSH2 0x88E PUSH2 0x1061 JUMP JUMPDEST PUSH1 0x1 PUSH1 0x1 PUSH1 0xA0 SHL SUB AND DUP3 MSTORE PUSH1 0x7 PUSH1 0x20 MSTORE DUP1 DUP3 KECCAK256 DUP1 SLOAD PUSH1 0x24 CALLDATALOAD SWAP4 SWAP1 DUP5 LT ISZERO PUSH2 0x61D JUMPI POP PUSH1 0x20 SWAP3 PUSH2 0x8BC SWAP2 PUSH2 0x10E7 JUMP JUMPDEST SWAP2 SWAP1 SLOAD SWAP1 MLOAD SWAP2 PUSH1 0x3 SHL SHR DUP2 MSTORE RETURN JUMPDEST DUP5 CALLVALUE PUSH2 0x61D JUMPI DUP1 PUSH1 0x3 NOT CALLDATASIZE ADD SLT PUSH2 0x61D JUMPI PUSH2 0x8E3 PUSH2 0x1115 JUMP JUMPDEST DUP1 SLOAD PUSH1 0x1 PUSH1 0x1 PUSH1 0xA0 SHL SUB NOT DUP2 AND DUP3 SSTORE DUP2 SWAP1 PUSH1 0x1 PUSH1 0x1 PUSH1 0xA0 SHL SUB AND PUSH32 0x8BE0079C531659141344CD1FD0A4F28419497F9722A3DAAFE3B4186F6B6457E0 DUP3 DUP1 LOG3 DUP1 RETURN JUMPDEST DUP3 DUP6 DUP6 CALLVALUE PUSH2 0x39C JUMPI PUSH2 0x935 CALLDATASIZE PUSH2 0x107C JUMP JUMPDEST PUSH2 0x940 SWAP3 SWAP2 SWAP3 PUSH2 0x1115 JUMP JUMPDEST PUSH2 0x948 PUSH2 0x1203 JUMP JUMPDEST DUP3 DUP5 MSTORE PUSH1 0x5 PUSH1 0x20 MSTORE DUP5 DUP3 DUP6 KECCAK256 PUSH2 0x964 PUSH1 0xFF PUSH1 0x7 DUP4 ADD SLOAD AND PUSH2 0x1226 JUMP JUMPDEST PUSH2 0x96F DUP4 ISZERO ISZERO PUSH2 0x1182 JUMP JUMPDEST ADD DUP1 SLOAD SWAP6 DUP7 DUP4 GT PUSH2 0x9BD JUMPI POP PUSH2 0x9A8 DUP3 PUSH32 0x1AF839CE655EB23EC05B8977B91598E475661A48D34A7F4B4C499DDCAEAC551C SWAP6 SWAP7 SWAP8 PUSH2 0x1290 JUMP JUMPDEST DUP1 SWAP2 SSTORE DUP3 MLOAD SWAP2 DUP3 MSTORE PUSH1 0x20 DUP3 ADD MSTORE LOG2 PUSH1 0x1 DUP1 SSTORE DUP1 RETURN JUMPDEST PUSH1 0x64 SWAP1 PUSH1 0x20 DUP6 MLOAD SWAP2 PUSH3 0x461BCD PUSH1 0xE5 SHL DUP4 MSTORE DUP3 ADD MSTORE PUSH1 0x13 PUSH1 0x24 DUP3 ADD MSTORE PUSH19 0x105B5BDD5B9D08195E18D959591CC81919589D PUSH1 0x6A SHL PUSH1 0x44 DUP3 ADD MSTORE REVERT JUMPDEST POP POP CALLVALUE PUSH2 0x19C JUMPI DUP2 PUSH1 0x3 NOT CALLDATASIZE ADD SLT PUSH2 0x19C JUMPI DUP1 CALLDATALOAD SWAP2 PUSH1 0x24 CALLDATALOAD SWAP2 PUSH8 0xFFFFFFFFFFFFFFFF SWAP1 DUP2 DUP5 GT PUSH2 0xB60 JUMPI CALLDATASIZE PUSH1 0x23 DUP6 ADD SLT ISZERO PUSH2 0xB60 JUMPI DUP4 DUP2 ADD CALLDATALOAD SWAP2 DUP3 GT PUSH2 0xB4D JUMPI DUP3 MLOAD SWAP1 DUP7 PUSH1 0x20 SWAP6 PUSH1 0x1F NOT SWAP5 PUSH2 0xA52 DUP9 DUP8 PUSH1 0x1F DUP5 ADD AND ADD DUP7 PUSH2 0x10C5 JUMP JUMPDEST DUP1 DUP6 MSTORE CALLDATASIZE PUSH1 0x24 DUP3 DUP5 ADD ADD GT PUSH2 0x19C JUMPI DUP1 PUSH1 0x24 DUP10 SWAP4 ADD DUP4 DUP8 ADD CALLDATACOPY DUP5 ADD ADD MSTORE PUSH2 0xA84 PUSH1 0x1 DUP1 PUSH1 0xA0 SHL SUB PUSH1 0x2 SLOAD AND CALLER EQ PUSH2 0x1141 JUMP JUMPDEST PUSH2 0xA8C PUSH2 0x1203 JUMP JUMPDEST DUP6 DUP8 MSTORE PUSH1 0x5 DUP6 MSTORE PUSH1 0x7 DUP5 DUP9 KECCAK256 ADD SWAP1 DUP2 SLOAD SWAP1 PUSH1 0xFF DUP3 AND ISZERO PUSH2 0xB18 JUMPI POP PUSH1 0xFF NOT AND SWAP1 SSTORE DUP3 MLOAD SWAP4 DUP1 DUP6 MSTORE DUP2 MLOAD SWAP2 DUP3 DUP3 DUP8 ADD MSTORE DUP8 JUMPDEST DUP4 DUP2 LT PUSH2 0xB05 JUMPI POP POP POP SWAP3 DUP3 SWAP2 PUSH1 0x1F DUP6 DUP9 DUP5 SWAP7 PUSH32 0x1C15F1E13A77FB81A0DA9E59F48E2101623C7C71D6A01AB217F2A45ACD5DE810 SWAP9 DUP7 ADD ADD MSTORE ADD AND DUP2 ADD SUB ADD SWAP1 LOG2 PUSH1 0x1 DUP1 SSTORE DUP1 RETURN JUMPDEST DUP2 DUP2 ADD DUP4 ADD MLOAD DUP8 DUP3 ADD DUP8 ADD MSTORE DUP3 ADD PUSH2 0xABD JUMP JUMPDEST DUP6 MLOAD PUSH3 0x461BCD PUSH1 0xE5 SHL DUP2 MSTORE SWAP1 DUP2 ADD DUP8 SWAP1 MSTORE PUSH1 0xF PUSH1 0x24 DUP3 ADD MSTORE PUSH15 0x105B1C9958591E481C995D9BDAD959 PUSH1 0x8A SHL PUSH1 0x44 DUP3 ADD MSTORE PUSH1 0x64 SWAP1 REVERT JUMPDEST PUSH4 0x4E487B71 PUSH1 0xE0 SHL DUP7 MSTORE PUSH1 0x41 SWAP1 MSTORE PUSH1 0x24 DUP6 REVERT JUMPDEST DUP6 DUP1 REVERT JUMPDEST DUP3 DUP6 DUP6 CALLVALUE PUSH2 0x39C JUMPI PUSH2 0xB75 CALLDATASIZE PUSH2 0x107C JUMP JUMPDEST PUSH2 0xB80 SWAP3 SWAP2 SWAP3 PUSH2 0x1115 JUMP JUMPDEST PUSH2 0xB88 PUSH2 0x1203 JUMP JUMPDEST DUP3 DUP5 MSTORE PUSH1 0x5 PUSH1 0x20 MSTORE DUP2 DUP5 KECCAK256 SWAP5 PUSH2 0xBA4 PUSH1 0xFF PUSH1 0x7 DUP9 ADD SLOAD AND PUSH2 0x1226 JUMP JUMPDEST PUSH2 0xBAF DUP3 ISZERO ISZERO PUSH2 0x1182 JUMP JUMPDEST DUP1 PUSH1 0x3 DUP8 ADD SLOAD SWAP7 ADD SWAP1 PUSH2 0xBC4 DUP3 SLOAD DUP1 SWAP9 PUSH2 0x1290 JUMP JUMPDEST DUP4 GT PUSH2 0xBF8 JUMPI POP PUSH2 0x9A8 DUP3 PUSH32 0x5496D924A06323B0525576522992E3FC0C11A350CD485F9053DE0E7BA84AEE35 SWAP6 SWAP7 SWAP8 PUSH2 0x129D JUMP JUMPDEST PUSH1 0x64 SWAP1 PUSH1 0x20 DUP6 MLOAD SWAP2 PUSH3 0x461BCD PUSH1 0xE5 SHL DUP4 MSTORE DUP3 ADD MSTORE PUSH1 0x18 PUSH1 0x24 DUP3 ADD MSTORE PUSH32 0x4578636565647320617661696C61626C65206372656469740000000000000000 PUSH1 0x44 DUP3 ADD MSTORE REVERT JUMPDEST POP POP POP CALLVALUE PUSH2 0x39C JUMPI DUP2 PUSH1 0x3 NOT CALLDATASIZE ADD SLT PUSH2 0x39C JUMPI PUSH1 0x2 SLOAD SWAP1 MLOAD PUSH1 0x1 PUSH1 0x1 PUSH1 0xA0 SHL SUB SWAP1 SWAP2 AND DUP2 MSTORE PUSH1 0x20 SWAP1 RETURN JUMPDEST SWAP2 SWAP1 POP CALLVALUE PUSH2 0x2D6 JUMPI PUSH1 0x20 CALLDATASIZE PUSH1 0x3 NOT ADD SLT PUSH2 0x2D6 JUMPI DUP3 PUSH2 0x100 SWAP5 DUP3 CALLDATALOAD DUP2 MSTORE PUSH1 0x5 PUSH1 0x20 MSTORE KECCAK256 PUSH1 0x1 DUP1 PUSH1 0xA0 SHL SUB SWAP4 DUP5 DUP3 SLOAD AND SWAP5 PUSH1 0x1 DUP4 ADD SLOAD AND SWAP3 PUSH1 0x2 DUP4 ADD SLOAD SWAP1 PUSH1 0x3 DUP5 ADD SLOAD SWAP1 DUP5 ADD SLOAD SWAP2 PUSH1 0x5 DUP6 ADD SLOAD SWAP4 PUSH1 0xFF PUSH1 0x7 PUSH1 0x6 DUP9 ADD SLOAD SWAP8 ADD SLOAD AND SWAP7 DUP2 MLOAD SWAP10 DUP11 MSTORE PUSH1 0x20 DUP11 ADD MSTORE DUP9 ADD MSTORE PUSH1 0x60 DUP8 ADD MSTORE PUSH1 0x80 DUP7 ADD MSTORE PUSH1 0xA0 DUP6 ADD MSTORE PUSH1 0xC0 DUP5 ADD MSTORE ISZERO ISZERO SWAP1 DUP3 ADD MSTORE RETURN JUMPDEST POP POP SWAP1 CALLVALUE PUSH2 0x19C JUMPI PUSH1 0x20 SWAP1 DUP2 PUSH1 0x3 NOT CALLDATASIZE ADD SLT PUSH2 0x2D6 JUMPI PUSH2 0xD07 PUSH2 0x1061 JUMP JUMPDEST PUSH2 0xD0F PUSH2 0x1115 JUMP JUMPDEST PUSH1 0x1 PUSH1 0x1 PUSH1 0xA0 SHL SUB AND SWAP3 DUP4 ISZERO PUSH2 0xDBA JUMPI DUP4 DUP6 MSTORE PUSH1 0x3 DUP4 MSTORE PUSH1 0xFF DUP3 DUP7 KECCAK256 SLOAD AND PUSH2 0xD79 JUMPI SWAP1 PUSH32 0xE29D35093005F4D575E1003753426B57A7F64378BA73332EEF9C6CCC2B8DECD6 SWAP3 SWAP2 DUP5 DUP7 MSTORE PUSH1 0x3 DUP4 MSTORE DUP2 DUP7 KECCAK256 PUSH1 0x1 PUSH1 0xFF NOT DUP3 SLOAD AND OR SWAP1 SSTORE DUP3 MSTORE TIMESTAMP DUP2 DUP7 KECCAK256 SSTORE MLOAD TIMESTAMP DUP2 MSTORE LOG2 DUP1 RETURN JUMPDEST DUP3 PUSH1 0x64 SWAP3 MLOAD SWAP2 PUSH3 0x461BCD PUSH1 0xE5 SHL DUP4 MSTORE DUP3 ADD MSTORE PUSH1 0x17 PUSH1 0x24 DUP3 ADD MSTORE PUSH32 0x5573657220616C72656164792072656769737465726564000000000000000000 PUSH1 0x44 DUP3 ADD MSTORE REVERT JUMPDEST DUP3 PUSH1 0x64 SWAP3 MLOAD SWAP2 PUSH3 0x461BCD PUSH1 0xE5 SHL DUP4 MSTORE DUP3 ADD MSTORE PUSH1 0x14 PUSH1 0x24 DUP3 ADD MSTORE PUSH20 0x496E76616C696420757365722061646472657373 PUSH1 0x60 SHL PUSH1 0x44 DUP3 ADD MSTORE REVERT JUMPDEST DUP4 DUP6 DUP5 CALLVALUE PUSH2 0x39C JUMPI PUSH1 0x20 SWAP4 DUP5 PUSH1 0x3 NOT CALLDATASIZE ADD SLT PUSH2 0x19C JUMPI PUSH2 0xE10 PUSH2 0x1061 JUMP JUMPDEST PUSH1 0x1 PUSH1 0x1 PUSH1 0xA0 SHL SUB SWAP1 DUP2 AND DUP5 MSTORE PUSH1 0x7 DUP1 DUP8 MSTORE DUP6 DUP6 KECCAK256 DUP7 MLOAD DUP2 SLOAD DUP1 DUP3 MSTORE SWAP2 DUP8 MSTORE DUP9 DUP8 KECCAK256 SWAP1 SWAP8 DUP8 SWAP3 SWAP1 SWAP2 SWAP1 DUP10 SWAP1 DUP2 DUP13 ADD SWAP1 DUP6 JUMPDEST DUP14 DUP3 DUP3 LT PUSH2 0xF06 JUMPI POP POP POP PUSH2 0xE58 SWAP3 POP SUB DUP10 PUSH2 0x10C5 JUMP JUMPDEST DUP2 JUMPDEST DUP9 MLOAD DUP2 LT ISZERO PUSH2 0xEFD JUMPI PUSH2 0xE6D DUP2 DUP11 PUSH2 0x1339 JUMP JUMPDEST MLOAD DUP4 MSTORE PUSH1 0x5 DUP1 DUP12 MSTORE DUP7 DUP12 PUSH1 0xFF DUP8 DUP7 DUP9 KECCAK256 DUP8 MLOAD SWAP4 PUSH2 0xE89 DUP6 PUSH2 0x1092 JUMP JUMPDEST DUP12 DUP3 SLOAD AND DUP6 MSTORE DUP12 PUSH1 0x1 DUP4 ADD SLOAD AND SWAP1 DUP6 ADD MSTORE PUSH1 0x2 DUP2 ADD SLOAD DUP9 DUP6 ADD MSTORE PUSH1 0x3 DUP2 ADD SLOAD SWAP6 DUP7 PUSH1 0x60 DUP7 ADD MSTORE DUP14 DUP3 ADD SLOAD PUSH1 0x80 DUP7 ADD MSTORE DUP2 ADD SLOAD PUSH1 0xA0 DUP6 ADD MSTORE PUSH1 0x6 DUP2 ADD SLOAD PUSH1 0xC0 DUP6 ADD MSTORE ADD SLOAD AND ISZERO ISZERO SWAP2 DUP3 SWAP2 ADD MSTORE PUSH2 0xEE8 JUMPI JUMPDEST POP PUSH2 0xEE3 SWAP1 PUSH2 0x126B JUMP JUMPDEST PUSH2 0xE5A JUMP JUMPDEST PUSH2 0xEF6 SWAP1 PUSH2 0xEE3 SWAP3 SWAP10 PUSH2 0x129D JUMP JUMPDEST SWAP8 SWAP1 PUSH2 0xED9 JUMP JUMPDEST DUP10 DUP9 DUP4 MLOAD SWAP1 DUP2 MSTORE RETURN JUMPDEST DUP6 SLOAD DUP5 MSTORE PUSH1 0x1 SWAP6 DUP7 ADD SWAP6 DUP15 SWAP6 POP SWAP4 ADD SWAP3 ADD PUSH2 0xE41 JUMP JUMPDEST POP POP CALLVALUE PUSH2 0x19C JUMPI PUSH1 0x20 CALLDATASIZE PUSH1 0x3 NOT ADD SLT PUSH2 0x19C JUMPI PUSH2 0xF37 PUSH2 0x1061 JUMP JUMPDEST SWAP1 PUSH2 0xF40 PUSH2 0x1115 JUMP JUMPDEST PUSH1 0x2 SLOAD SWAP2 PUSH1 0x1 PUSH1 0x1 PUSH1 0xA0 SHL SUB SWAP1 DUP2 DUP5 AND PUSH2 0xFA4 JUMPI AND SWAP3 DUP4 ISZERO PUSH2 0xF6F JUMPI POP POP PUSH1 0x1 PUSH1 0x1 PUSH1 0xA0 SHL SUB NOT AND OR PUSH1 0x2 SSTORE DUP1 RETURN JUMPDEST SWAP1 PUSH1 0x20 PUSH1 0x64 SWAP3 MLOAD SWAP2 PUSH3 0x461BCD PUSH1 0xE5 SHL DUP4 MSTORE DUP3 ADD MSTORE PUSH1 0xF PUSH1 0x24 DUP3 ADD MSTORE PUSH15 0x496E76616C69642061646472657373 PUSH1 0x88 SHL PUSH1 0x44 DUP3 ADD MSTORE REVERT JUMPDEST DUP5 MLOAD PUSH3 0x461BCD PUSH1 0xE5 SHL DUP2 MSTORE PUSH1 0x20 DUP2 DUP6 ADD MSTORE PUSH1 0x19 PUSH1 0x24 DUP3 ADD MSTORE PUSH32 0x536F6C76656E63795661756C7420616C72656164792073657400000000000000 PUSH1 0x44 DUP3 ADD MSTORE PUSH1 0x64 SWAP1 REVERT JUMPDEST POP POP POP CALLVALUE PUSH2 0x39C JUMPI PUSH1 0x20 CALLDATASIZE PUSH1 0x3 NOT ADD SLT PUSH2 0x39C JUMPI PUSH1 0x20 SWAP2 PUSH1 0xFF SWAP1 DUP3 SWAP1 PUSH1 0x1 PUSH1 0x1 PUSH1 0xA0 SHL SUB PUSH2 0x1013 PUSH2 0x1061 JUMP JUMPDEST AND DUP2 MSTORE PUSH1 0x3 DUP6 MSTORE KECCAK256 SLOAD AND SWAP1 MLOAD SWAP1 ISZERO ISZERO DUP2 MSTORE RETURN JUMPDEST DUP6 SWAP1 DUP6 CALLVALUE PUSH2 0x19C JUMPI PUSH1 0x20 CALLDATASIZE PUSH1 0x3 NOT ADD SLT PUSH2 0x19C JUMPI PUSH1 0x20 SWAP3 PUSH1 0xFF SWAP2 SWAP1 PUSH1 0x1 PUSH1 0x1 PUSH1 0xA0 SHL SUB PUSH2 0x1051 PUSH2 0x1061 JUMP JUMPDEST AND DUP2 MSTORE PUSH1 0x3 DUP6 MSTORE KECCAK256 SLOAD AND ISZERO ISZERO DUP2 MSTORE RETURN JUMPDEST PUSH1 0x4 CALLDATALOAD SWAP1 PUSH1 0x1 PUSH1 0x1 PUSH1 0xA0 SHL SUB DUP3 AND DUP3 SUB PUSH2 0x1077 JUMPI JUMP JUMPDEST PUSH1 0x0 DUP1 REVERT JUMPDEST PUSH1 0x40 SWAP1 PUSH1 0x3 NOT ADD SLT PUSH2 0x1077 JUMPI PUSH1 0x4 CALLDATALOAD SWAP1 PUSH1 0x24 CALLDATALOAD SWAP1 JUMP JUMPDEST PUSH2 0x100 DUP2 ADD SWAP1 DUP2 LT PUSH8 0xFFFFFFFFFFFFFFFF DUP3 GT OR PUSH2 0x10AF JUMPI PUSH1 0x40 MSTORE JUMP JUMPDEST PUSH4 0x4E487B71 PUSH1 0xE0 SHL PUSH1 0x0 MSTORE PUSH1 0x41 PUSH1 0x4 MSTORE PUSH1 0x24 PUSH1 0x0 REVERT JUMPDEST SWAP1 PUSH1 0x1F DUP1 NOT SWAP2 ADD AND DUP2 ADD SWAP1 DUP2 LT PUSH8 0xFFFFFFFFFFFFFFFF DUP3 GT OR PUSH2 0x10AF JUMPI PUSH1 0x40 MSTORE JUMP JUMPDEST DUP1 SLOAD DUP3 LT ISZERO PUSH2 0x10FF JUMPI PUSH1 0x0 MSTORE PUSH1 0x20 PUSH1 0x0 KECCAK256 ADD SWAP1 PUSH1 0x0 SWAP1 JUMP JUMPDEST PUSH4 0x4E487B71 PUSH1 0xE0 SHL PUSH1 0x0 MSTORE PUSH1 0x32 PUSH1 0x4 MSTORE PUSH1 0x24 PUSH1 0x0 REVERT JUMPDEST PUSH1 0x0 SLOAD PUSH1 0x1 PUSH1 0x1 PUSH1 0xA0 SHL SUB AND CALLER SUB PUSH2 0x1129 JUMPI JUMP JUMPDEST PUSH1 0x40 MLOAD PUSH4 0x118CDAA7 PUSH1 0xE0 SHL DUP2 MSTORE CALLER PUSH1 0x4 DUP3 ADD MSTORE PUSH1 0x24 SWAP1 REVERT JUMPDEST ISZERO PUSH2 0x1148 JUMPI JUMP JUMPDEST PUSH1 0x40 MLOAD PUSH3 0x461BCD PUSH1 0xE5 SHL DUP2 MSTORE PUSH1 0x20 PUSH1 0x4 DUP3 ADD MSTORE PUSH1 0x12 PUSH1 0x24 DUP3 ADD MSTORE PUSH18 0x13DB9B1E4814DBDB1D995B98DE55985D5B1D PUSH1 0x72 SHL PUSH1 0x44 DUP3 ADD MSTORE PUSH1 0x64 SWAP1 REVERT JUMPDEST ISZERO PUSH2 0x1189 JUMPI JUMP JUMPDEST PUSH1 0x40 MLOAD PUSH3 0x461BCD PUSH1 0xE5 SHL DUP2 MSTORE PUSH1 0x20 PUSH1 0x4 DUP3 ADD MSTORE PUSH1 0x12 PUSH1 0x24 DUP3 ADD MSTORE PUSH18 0x416D6F756E74206D757374206265203E203 PUSH1 0x74 SHL PUSH1 0x44 DUP3 ADD MSTORE PUSH1 0x64 SWAP1 REVERT JUMPDEST ISZERO PUSH2 0x11CA JUMPI JUMP JUMPDEST PUSH1 0x40 MLOAD PUSH3 0x461BCD PUSH1 0xE5 SHL DUP2 MSTORE PUSH1 0x20 PUSH1 0x4 DUP3 ADD MSTORE PUSH1 0x11 PUSH1 0x24 DUP3 ADD MSTORE PUSH17 0x56616C7565206D757374206265203E203 PUSH1 0x7C SHL PUSH1 0x44 DUP3 ADD MSTORE PUSH1 0x64 SWAP1 REVERT JUMPDEST PUSH1 0x2 PUSH1 0x1 SLOAD EQ PUSH2 0x1214 JUMPI PUSH1 0x2 PUSH1 0x1 SSTORE JUMP JUMPDEST PUSH1 0x40 MLOAD PUSH4 0x3EE5AEB5 PUSH1 0xE0 SHL DUP2 MSTORE PUSH1 0x4 SWAP1 REVERT JUMPDEST ISZERO PUSH2 0x122D JUMPI JUMP JUMPDEST PUSH1 0x40 MLOAD PUSH3 0x461BCD PUSH1 0xE5 SHL DUP2 MSTORE PUSH1 0x20 PUSH1 0x4 DUP3 ADD MSTORE PUSH1 0x16 PUSH1 0x24 DUP3 ADD MSTORE PUSH22 0x437265646974206C696E65206E6F7420616374697665 PUSH1 0x50 SHL PUSH1 0x44 DUP3 ADD MSTORE PUSH1 0x64 SWAP1 REVERT JUMPDEST PUSH1 0x0 NOT DUP2 EQ PUSH2 0x127A JUMPI PUSH1 0x1 ADD SWAP1 JUMP JUMPDEST PUSH4 0x4E487B71 PUSH1 0xE0 SHL PUSH1 0x0 MSTORE PUSH1 0x11 PUSH1 0x4 MSTORE PUSH1 0x24 PUSH1 0x0 REVERT JUMPDEST SWAP2 SWAP1 DUP3 SUB SWAP2 DUP3 GT PUSH2 0x127A JUMPI JUMP JUMPDEST SWAP2 SWAP1 DUP3 ADD DUP1 SWAP3 GT PUSH2 0x127A JUMPI JUMP JUMPDEST PUSH1 0x0 MSTORE PUSH1 0x5 PUSH1 0x20 MSTORE PUSH1 0x40 PUSH1 0x0 KECCAK256 PUSH1 0x40 MLOAD SWAP1 PUSH2 0x12C4 DUP3 PUSH2 0x1092 JUMP JUMPDEST PUSH1 0x1 DUP1 PUSH1 0xA0 SHL SUB DUP1 DUP3 SLOAD AND DUP4 MSTORE PUSH1 0x1 DUP3 ADD SLOAD AND PUSH1 0x20 DUP4 ADD MSTORE PUSH1 0x2 DUP2 ADD SLOAD PUSH1 0x40 DUP4 ADD MSTORE PUSH1 0x3 DUP2 ADD SLOAD SWAP2 DUP3 PUSH1 0x60 DUP3 ADD MSTORE PUSH1 0xFF PUSH1 0x7 PUSH1 0x4 DUP5 ADD SLOAD SWAP4 DUP5 PUSH1 0x80 DUP6 ADD MSTORE PUSH1 0x5 DUP2 ADD SLOAD PUSH1 0xA0 DUP6 ADD MSTORE PUSH1 0x6 DUP2 ADD SLOAD PUSH1 0xC0 DUP6 ADD MSTORE ADD SLOAD AND ISZERO SWAP1 PUSH1 0xE0 DUP3 ISZERO SWAP2 ADD MSTORE PUSH2 0x1332 JUMPI PUSH2 0x132F SWAP2 PUSH2 0x1290 JUMP JUMPDEST SWAP1 JUMP JUMPDEST POP POP PUSH1 0x0 SWAP1 JUMP JUMPDEST DUP1 MLOAD DUP3 LT ISZERO PUSH2 0x10FF JUMPI PUSH1 0x20 SWAP2 PUSH1 0x5 SHL ADD ADD SWAP1 JUMP INVALID LOG2 PUSH5 0x6970667358 0x22 SLT KECCAK256 0xBC 0x2A SLOAD JUMPDEST COINBASE 0xA7 0xD SWAP9 0xC1 BASEFEE PUSH28 0x681B88823EB8760523817FF6EF775CE88BBB54330364736F6C634300 ADDMOD EQ STOP CALLER "},"methodIdentifiers":{"creditLines(uint256)":"36e433ba","getAvailableCredit(uint256)":"cbcddf13","getCreditLine(uint256)":"edad8550","getTotalAvailableCredit(address)":"d5cdd4c6","getTotalCreditLimit(address)":"20bb463e","getUserCreditLines(address)":"ad6e4f3a","isUserRegistered(address)":"163f7522","issueCreditLine(address,address,uint256,uint256,uint256)":"e32195d6","nextCreditLineId()":"8f19cfa9","owner()":"8da5cb5b","recordCreditRepayment(uint256,uint256)":"6ad75e1f","recordCreditUsage(uint256,uint256)":"65a1782f","registerUser(address)":"2199d5cd","registeredUsers(address)":"0e50cee5","renounceOwnership()":"715018a6","revokeCreditLine(uint256,string)":"67cc7cff","setSolvencyVault(address)":"2077997b","solvencyVault()":"44452ba1","transferOwnership(address)":"f2fde38b","updateCreditLine(uint256,uint256)":"ea3854d8","userCreditLines(address,uint256)":"7bca9fcc","userRegistrationTime(address)":"f030af22"}}}}}