{"contracts/core/SeniorPool.sol":{"SeniorPool":{"abi":[{"inputs":[{"internalType":"address","name":"_usdc","type":"address"}],"stateMutability":"nonpayable","type":"constructor"},{"inputs":[{"internalType":"address","name":"owner","type":"address"}],"name":"OwnableInvalidOwner","type":"error"},{"inputs":[{"internalType":"address","name":"account","type":"address"}],"name":"OwnableUnauthorizedAccount","type":"error"},{"inputs":[],"name":"ReentrancyGuardReentrantCall","type":"error"},{"anonymous":false,"inputs":[{"indexed":false,"internalType":"bool","name":"enabled","type":"bool"},{"indexed":false,"internalType":"uint256","name":"multiplier","type":"uint256"}],"name":"DemoModeUpdated","type":"event"},{"anonymous":false,"inputs":[{"indexed":true,"internalType":"uint256","name":"positionId","type":"uint256"},{"indexed":false,"internalType":"uint256","name":"interest","type":"uint256"}],"name":"InterestAccrued","type":"event"},{"anonymous":false,"inputs":[{"indexed":true,"internalType":"address","name":"depositor","type":"address"},{"indexed":false,"internalType":"uint256","name":"amount","type":"uint256"}],"name":"LiquidityDeposited","type":"event"},{"anonymous":false,"inputs":[{"indexed":true,"internalType":"address","name":"withdrawer","type":"address"},{"indexed":false,"internalType":"uint256","name":"amount","type":"uint256"}],"name":"LiquidityWithdrawn","type":"event"},{"anonymous":false,"inputs":[{"indexed":true,"internalType":"uint256","name":"positionId","type":"uint256"},{"indexed":false,"internalType":"uint256","name":"amount","type":"uint256"}],"name":"LoanIssued","type":"event"},{"anonymous":false,"inputs":[{"indexed":true,"internalType":"uint256","name":"positionId","type":"uint256"},{"indexed":false,"internalType":"uint256","name":"principal","type":"uint256"},{"indexed":false,"internalType":"uint256","name":"interest","type":"uint256"}],"name":"LoanRepaid","type":"event"},{"anonymous":false,"inputs":[{"indexed":true,"internalType":"address","name":"previousOwner","type":"address"},{"indexed":true,"internalType":"address","name":"newOwner","type":"address"}],"name":"OwnershipTransferred","type":"event"},{"inputs":[],"name":"APR","outputs":[{"internalType":"uint256","name":"","type":"uint256"}],"stateMutability":"view","type":"function"},{"inputs":[],"name":"BASIS_POINTS","outputs":[{"internalType":"uint256","name":"","type":"uint256"}],"stateMutability":"view","type":"function"},{"inputs":[],"name":"DEBT_CEILING","outputs":[{"internalType":"uint256","name":"","type":"uint256"}],"stateMutability":"view","type":"function"},{"inputs":[],"name":"RESERVE_RATIO","outputs":[{"internalType":"uint256","name":"","type":"uint256"}],"stateMutability":"view","type":"function"},{"inputs":[{"internalType":"uint256","name":"positionId","type":"uint256"}],"name":"accrueInterest","outputs":[],"stateMutability":"nonpayable","type":"function"},{"inputs":[{"internalType":"uint256","name":"positionId","type":"uint256"},{"internalType":"uint256","name":"amount","type":"uint256"}],"name":"borrow","outputs":[],"stateMutability":"nonpayable","type":"function"},{"inputs":[],"name":"demoMode","outputs":[{"internalType":"bool","name":"","type":"bool"}],"stateMutability":"view","type":"function"},{"inputs":[{"internalType":"uint256","name":"amount","type":"uint256"}],"name":"depositLiquidity","outputs":[],"stateMutability":"nonpayable","type":"function"},{"inputs":[{"internalType":"uint256","name":"positionId","type":"uint256"}],"name":"getAccruedInterest","outputs":[{"internalType":"uint256","name":"","type":"uint256"}],"stateMutability":"view","type":"function"},{"inputs":[],"name":"getAvailableLiquidity","outputs":[{"internalType":"uint256","name":"","type":"uint256"}],"stateMutability":"view","type":"function"},{"inputs":[{"internalType":"uint256","name":"positionId","type":"uint256"}],"name":"getOutstandingDebt","outputs":[{"internalType":"uint256","name":"","type":"uint256"}],"stateMutability":"view","type":"function"},{"inputs":[],"name":"getPoolStats","outputs":[{"internalType":"uint256","name":"","type":"uint256"},{"internalType":"uint256","name":"","type":"uint256"},{"internalType":"uint256","name":"","type":"uint256"},{"internalType":"uint256","name":"","type":"uint256"}],"stateMutability":"view","type":"function"},{"inputs":[],"name":"leverageVault","outputs":[{"internalType":"address","name":"","type":"address"}],"stateMutability":"view","type":"function"},{"inputs":[{"internalType":"uint256","name":"","type":"uint256"}],"name":"loans","outputs":[{"internalType":"uint256","name":"principal","type":"uint256"},{"internalType":"uint256","name":"interestAccrued","type":"uint256"},{"internalType":"uint256","name":"lastUpdateTime","type":"uint256"},{"internalType":"bool","name":"active","type":"bool"}],"stateMutability":"view","type":"function"},{"inputs":[],"name":"owner","outputs":[{"internalType":"address","name":"","type":"address"}],"stateMutability":"view","type":"function"},{"inputs":[],"name":"renounceOwnership","outputs":[],"stateMutability":"nonpayable","type":"function"},{"inputs":[{"internalType":"uint256","name":"positionId","type":"uint256"},{"internalType":"uint256","name":"amount","type":"uint256"}],"name":"repay","outputs":[{"internalType":"uint256","name":"principal","type":"uint256"},{"internalType":"uint256","name":"interest","type":"uint256"}],"stateMutability":"nonpayable","type":"function"},{"inputs":[{"internalType":"bool","name":"_enabled","type":"bool"},{"internalType":"uint256","name":"_multiplier","type":"uint256"}],"name":"setDemoMode","outputs":[],"stateMutability":"nonpayable","type":"function"},{"inputs":[{"internalType":"address","name":"_leverageVault","type":"address"}],"name":"setLeverageVault","outputs":[],"stateMutability":"nonpayable","type":"function"},{"inputs":[{"internalType":"address","name":"_solvencyVault","type":"address"}],"name":"setSolvencyVault","outputs":[],"stateMutability":"nonpayable","type":"function"},{"inputs":[],"name":"solvencyVault","outputs":[{"internalType":"address","name":"","type":"address"}],"stateMutability":"view","type":"function"},{"inputs":[],"name":"timeMultiplier","outputs":[{"internalType":"uint256","name":"","type":"uint256"}],"stateMutability":"view","type":"function"},{"inputs":[],"name":"totalBorrowed","outputs":[{"internalType":"uint256","name":"","type":"uint256"}],"stateMutability":"view","type":"function"},{"inputs":[],"name":"totalInterestEarned","outputs":[{"internalType":"uint256","name":"","type":"uint256"}],"stateMutability":"view","type":"function"},{"inputs":[],"name":"totalLiquidity","outputs":[{"internalType":"uint256","name":"","type":"uint256"}],"stateMutability":"view","type":"function"},{"inputs":[{"internalType":"address","name":"newOwner","type":"address"}],"name":"transferOwnership","outputs":[],"stateMutability":"nonpayable","type":"function"},{"inputs":[],"name":"usdc","outputs":[{"internalType":"contract IERC20","name":"","type":"address"}],"stateMutability":"view","type":"function"},{"inputs":[{"internalType":"uint256","name":"amount","type":"uint256"}],"name":"withdrawLiquidity","outputs":[],"stateMutability":"nonpayable","type":"function"}],"evm":{"bytecode":{"linkReferences":{},"object":"6080346100d957601f61131f38819003918201601f19168301916001600160401b038311848410176100de578084926020946040528339810103126100d957516001600160a01b0390818116908190036100d95733156100c05760005460018060a01b0319903382821617600055604051933391167f8be0079c531659141344cd1fd0a4f28419497f9722a3daafe3b4186f6b6457e0600080a360018055600254161760025560ff19600954166009556001600a5561122a90816100f58239f35b604051631e4fbdf760e01b815260006004820152602490fd5b600080fd5b634e487b7160e01b600052604160045260246000fdfe6040608081526004908136101561001557600080fd5b600091823560e01c9081630a861f2a14610c1d5781630ecbcdab14610a2f57816315770f9214610a10578163178cf18b146109715781632077997b146108d85781633e413bee146108af578163424f04741461088f57816344452ba11461086757816344ba06d5146108435781634c19386c14610824578163715018a6146107ca57816376d58e1a146106d65781638da5cb5b146106ae5781639339ea691461068e5781639b745aec14610671578163b7d93f3414610652578163bbb8518814610616578163bd30558e146105f9578163d5595157146105d2578163d8aed145146103a9578163e0dc17501461036e578163e1ec3c681461031f578163e1f1c4a714610302578163e37dbfd9146102e5578163ec18c987146102c6578163f01ad8a314610215578163f2fde38b14610182575063ff1b0d3c1461015757600080fd5b3461017e578160031936011261017e5760035490516001600160a01b039091168152602090f35b5080fd5b91905034610211576020366003190112610211576001600160a01b0382358181169391929084900361020d576101b6610d79565b83156101f757505082546001600160a01b0319811683178455167f8be0079c531659141344cd1fd0a4f28419497f9722a3daafe3b4186f6b6457e08380a380f35b51631e4fbdf760e01b8152908101849052602490fd5b8480fd5b8280fd5b83833461017e578060031936011261017e578235801515809103610211576024359361023f610d79565b841561028a57507f2c714700740a6038882896a4df5e73c46d1fbb5a3472fc0c487bb6cb0f4fa8fb929360ff196009541660ff83161760095580600a5582519182526020820152a180f35b606490602084519162461bcd60e51b8352820152601660248201527504d756c7469706c696572206d757374206265203e20360541b6044820152fd5b50503461017e578160031936011261017e57602090600a549051908152f35b50503461017e578160031936011261017e57602090516107d08152f35b50503461017e578160031936011261017e57602090516127108152f35b9050346102115760203660031901126102115760809282913581526008602052209081549160018101549160ff6003600284015493015416928151948552602085015283015215156060820152f35b91905034610211576020366003190112610211576103a160ff60036103a694359384875260086020528620015416610f6a565b6110df565b80f35b905082346105cf576103ba36610d5e565b6003546001600160a01b03939291908416331480156105c3575b6103dd90610f26565b6103e5610ef6565b8183526020926008845261040160ff6003898420015416610f6a565b61040a836110df565b8281526008845286812091825496600184019788549061042a8282610ed3565b841161058a578184116105615750508186916104b99398859a61044e848254610f19565b90555b61045d8b600654610f19565b60065561046c8a600754610ed3565b60075561047b8a600554610ed3565b6005556002548c516323b872dd60e01b8152339381019384523060208501526040840194909452929485939190911691839187918391606090910190565b03925af191821561055657906104d492610529575b50610e90565b805415610518575b507fd9cfbcfb9ae5d65b8d34072de4575f602ee25cf3715bc05c291701fe9e258f9a8580518681528585820152a2600180558351928352820152f35b600301805460ff19169055856104dc565b6105499150853d871161054f575b6105418183610e56565b810190610e78565b886104ce565b503d610537565b8851903d90823e3d90fd5b918198610583869b8a9561057a6104b998969d87610f19565b9d8e9255610f19565b8755610451565b8a5162461bcd60e51b81528084018990526013602482015272105b5bdd5b9d08195e18d959591cc81919589d606a1b6044820152606490fd5b508454841633146103d4565b80fd5b8284346105cf5760203660031901126105cf57506105f260209235610fa8565b9051908152f35b50503461017e578160031936011261017e57602090516101f48152f35b50503461017e578160031936011261017e57600554600654608092610639611086565b9060075492815194855260208501528301526060820152f35b50503461017e578160031936011261017e576020906007549051908152f35b50503461017e578160031936011261017e576020906105f2611086565b8284346105cf5760203660031901126105cf57506105f26020923561101a565b50503461017e578160031936011261017e57905490516001600160a01b039091168152602090f35b91905034610211576020366003190112610211576107466020833580946106fb610ef6565b610706821515610de3565b60025485516323b872dd60e01b8152339281019283523060208401526040830193909352919384926001600160a01b031691839189918391606090910190565b03925af19081156107c057906107629185916107a25750610e90565b61076e82600554610ed3565b600555519081527f7ff07ce9a287649537e4b012e45cf012d90228b12e2b56bb03515a6b5436fcdf60203392a26001805580f35b6107ba915060203d811161054f576105418183610e56565b386104ce565b82513d86823e3d90fd5b83346105cf57806003193601126105cf576107e3610d79565b80546001600160a01b03198116825581906001600160a01b03167f8be0079c531659141344cd1fd0a4f28419497f9722a3daafe3b4186f6b6457e08280a380f35b50503461017e578160031936011261017e576020906006549051908152f35b50503461017e578160031936011261017e5760209060ff6009541690519015158152f35b9050346102115782600319360112610211575490516001600160a01b03909116815260209150f35b50503461017e578160031936011261017e576020905164174876e8008152f35b50503461017e578160031936011261017e5760025490516001600160a01b039091168152602090f35b91905034610211576020366003190112610211576001600160a01b038235818116929083900361020d5761090a610d79565b835491821661092f575061091f821515610da5565b6001600160a01b03191617905580f35b5162461bcd60e51b8152602081850152601960248201527f536f6c76656e63795661756c7420616c726561647920736574000000000000006044820152606490fd5b91905034610211576020366003190112610211576001600160a01b0382358181169391929084900361020d576109a5610d79565b6003549283166109cd5750506109bc821515610da5565b6001600160a01b0319161760035580f35b906020606492519162461bcd60e51b8352820152601960248201527f4c657665726167655661756c7420616c726561647920736574000000000000006044820152fd5b50503461017e578160031936011261017e576020906005549051908152f35b90503461021157610a3f36610d5e565b909160018060a01b0390816003541633148015610c11575b610a6090610f26565b610a68610ef6565b610a73831515610de3565b64174876e8008311610bd757610a87611086565b8311610b9b578291600393610b2f92875192610aa284610e24565b82845287602097858c8a8098018181528d80840192428452606085019660018852815260088b522092518355516001830155516002820155019051151560ff80198354169116179055610af783600654610ed3565b600655600254895163a9059cbb60e01b815233938101938452602084019490945292948593919091169183918b918391604090910190565b03925af1908115610b91577f3193f054f7906bf87160b9766571c0ff71a02c7c4f1bc65876a94521691b603c949591610b6e918891610b7a5750610e90565b51908152a26001805580f35b6107ba9150853d871161054f576105418183610e56565b85513d88823e3d90fd5b606490602086519162461bcd60e51b83528201526016602482015275496e73756666696369656e74206c697175696469747960501b6044820152fd5b606490602086519162461bcd60e51b83528201526014602482015273457863656564732064656274206365696c696e6760601b6044820152fd5b50805482163314610a57565b90503461021157602080600319360112610d5a57813591610c3c610d79565b610c44610ef6565b610c4f831515610de3565b610c57611086565b8311610d1a578183610cac92610c6f82600554610f19565b600555600254875163a9059cbb60e01b8152339281019283526020830193909352919384926001600160a01b03169183918a918391604090910190565b03925af1908115610d10577fb1cce8684b4ffa8667b4577654e61ee3480d661ee9c27522ac80e211f6bd4d25939491610ceb918791610cf95750610e90565b519283523392a26001805580f35b6107ba9150843d861161054f576105418183610e56565b84513d87823e3d90fd5b8160649285519262461bcd60e51b845283015260248201527f496e73756666696369656e7420617661696c61626c65206c69717569646974796044820152fd5b8380fd5b6040906003190112610d74576004359060243590565b600080fd5b6000546001600160a01b03163303610d8d57565b60405163118cdaa760e01b8152336004820152602490fd5b15610dac57565b60405162461bcd60e51b815260206004820152600f60248201526e496e76616c6964206164647265737360881b6044820152606490fd5b15610dea57565b60405162461bcd60e51b81526020600482015260126024820152710416d6f756e74206d757374206265203e20360741b6044820152606490fd5b6080810190811067ffffffffffffffff821117610e4057604052565b634e487b7160e01b600052604160045260246000fd5b90601f8019910116810190811067ffffffffffffffff821117610e4057604052565b90816020910312610d7457518015158103610d745790565b15610e9757565b60405162461bcd60e51b81526020600482015260146024820152731554d110c81d1c985b9cd9995c8819985a5b195960621b6044820152606490fd5b91908201809211610ee057565b634e487b7160e01b600052601160045260246000fd5b600260015414610f07576002600155565b604051633ee5aeb560e01b8152600490fd5b91908203918211610ee057565b15610f2d57565b60405162461bcd60e51b815260206004820152601560248201527413db9b1e48185d5d1a1bdc9a5e9959081d985d5b1d605a1b6044820152606490fd5b15610f7157565b60405162461bcd60e51b815260206004820152600f60248201526e4c6f616e206e6f742061637469766560881b6044820152606490fd5b80600052600860205260406000209060ff600383015416156110135761100b6110109261100160405193610fdb85610e24565b825485526002600184015493602087019485520154604086015260016060860152611146565b9251905190610ed3565b610ed3565b90565b5050600090565b806000526008602052604060002060ff600382015416156110135761106c611010926001606060405161104c81610e24565b855481526002838701549660208301978852015460408201520152611146565b9051610ed3565b81810292918115918404141715610ee057565b6006546107d0808202908282041482151715610ee05760055461271090910491600091818111156110d7576110bb9250610f19565b905b600091818111156110d2576110109250610f19565b505090565b5050906110bd565b80600052600860205260406000206110f682611146565b908161110157505050565b7f3d8708181c6452c5711a2b4c6ed3f12149f6ea35f78549aba00a89d041e766ca9181600160209301611135838254610ed3565b9055600242910155604051908152a2565b600052600860205260406000206040519061116082610e24565b80548083526001820154602084015260ff60036002840154938460408701520154161590811591826060860152916111eb575b50611013576111a29042610f19565b9060ff600954166111d7575b516101f490818102918183041490151715610ee05764496cebb800916111d391611073565b0490565b906111e590600a5490611073565b906111ae565b9050153861119356fea2646970667358221220a9827413f4bfe0e6384072680c89d8bae89e23bc5d75c0095894d0758ac9a75d64736f6c63430008140033","opcodes":"PUSH1 0x80 CALLVALUE PUSH2 0xD9 JUMPI PUSH1 0x1F PUSH2 0x131F CODESIZE DUP2 SWAP1 SUB SWAP2 DUP3 ADD PUSH1 0x1F NOT AND DUP4 ADD SWAP2 PUSH1 0x1 PUSH1 0x1 PUSH1 0x40 SHL SUB DUP4 GT DUP5 DUP5 LT OR PUSH2 0xDE JUMPI DUP1 DUP5 SWAP3 PUSH1 0x20 SWAP5 PUSH1 0x40 MSTORE DUP4 CODECOPY DUP2 ADD SUB SLT PUSH2 0xD9 JUMPI MLOAD PUSH1 0x1 PUSH1 0x1 PUSH1 0xA0 SHL SUB SWAP1 DUP2 DUP2 AND SWAP1 DUP2 SWAP1 SUB PUSH2 0xD9 JUMPI CALLER ISZERO PUSH2 0xC0 JUMPI PUSH1 0x0 SLOAD PUSH1 0x1 DUP1 PUSH1 0xA0 SHL SUB NOT SWAP1 CALLER DUP3 DUP3 AND OR PUSH1 0x0 SSTORE PUSH1 0x40 MLOAD SWAP4 CALLER SWAP2 AND PUSH32 0x8BE0079C531659141344CD1FD0A4F28419497F9722A3DAAFE3B4186F6B6457E0 PUSH1 0x0 DUP1 LOG3 PUSH1 0x1 DUP1 SSTORE PUSH1 0x2 SLOAD AND OR PUSH1 0x2 SSTORE PUSH1 0xFF NOT PUSH1 0x9 SLOAD AND PUSH1 0x9 SSTORE PUSH1 0x1 PUSH1 0xA SSTORE PUSH2 0x122A SWAP1 DUP2 PUSH2 0xF5 DUP3 CODECOPY RETURN JUMPDEST PUSH1 0x40 MLOAD PUSH4 0x1E4FBDF7 PUSH1 0xE0 SHL DUP2 MSTORE PUSH1 0x0 PUSH1 0x4 DUP3 ADD MSTORE PUSH1 0x24 SWAP1 REVERT JUMPDEST PUSH1 0x0 DUP1 REVERT JUMPDEST PUSH4 0x4E487B71 PUSH1 0xE0 SHL PUSH1 0x0 MSTORE PUSH1 0x41 PUSH1 0x4 MSTORE PUSH1 0x24 PUSH1 0x0 REVERT INVALID PUSH1 0x40 PUSH1 0x80 DUP2 MSTORE PUSH1 0x4 SWAP1 DUP2 CALLDATASIZE LT ISZERO PUSH2 0x15 JUMPI PUSH1 0x0 DUP1 REVERT JUMPDEST PUSH1 0x0 SWAP2 DUP3 CALLDATALOAD PUSH1 0xE0 SHR SWAP1 DUP2 PUSH4 0xA861F2A EQ PUSH2 0xC1D JUMPI DUP2 PUSH4 0xECBCDAB EQ PUSH2 0xA2F JUMPI DUP2 PUSH4 0x15770F92 EQ PUSH2 0xA10 JUMPI DUP2 PUSH4 0x178CF18B EQ PUSH2 0x971 JUMPI DUP2 PUSH4 0x2077997B EQ PUSH2 0x8D8 JUMPI DUP2 PUSH4 0x3E413BEE EQ PUSH2 0x8AF JUMPI DUP2 PUSH4 0x424F0474 EQ PUSH2 0x88F JUMPI DUP2 PUSH4 0x44452BA1 EQ PUSH2 0x867 JUMPI DUP2 PUSH4 0x44BA06D5 EQ PUSH2 0x843 JUMPI DUP2 PUSH4 0x4C19386C EQ PUSH2 0x824 JUMPI DUP2 PUSH4 0x715018A6 EQ PUSH2 0x7CA JUMPI DUP2 PUSH4 0x76D58E1A EQ PUSH2 0x6D6 JUMPI DUP2 PUSH4 0x8DA5CB5B EQ PUSH2 0x6AE JUMPI DUP2 PUSH4 0x9339EA69 EQ PUSH2 0x68E JUMPI DUP2 PUSH4 0x9B745AEC EQ PUSH2 0x671 JUMPI DUP2 PUSH4 0xB7D93F34 EQ PUSH2 0x652 JUMPI DUP2 PUSH4 0xBBB85188 EQ PUSH2 0x616 JUMPI DUP2 PUSH4 0xBD30558E EQ PUSH2 0x5F9 JUMPI DUP2 PUSH4 0xD5595157 EQ PUSH2 0x5D2 JUMPI DUP2 PUSH4 0xD8AED145 EQ PUSH2 0x3A9 JUMPI DUP2 PUSH4 0xE0DC1750 EQ PUSH2 0x36E JUMPI DUP2 PUSH4 0xE1EC3C68 EQ PUSH2 0x31F JUMPI DUP2 PUSH4 0xE1F1C4A7 EQ PUSH2 0x302 JUMPI DUP2 PUSH4 0xE37DBFD9 EQ PUSH2 0x2E5 JUMPI DUP2 PUSH4 0xEC18C987 EQ PUSH2 0x2C6 JUMPI DUP2 PUSH4 0xF01AD8A3 EQ PUSH2 0x215 JUMPI DUP2 PUSH4 0xF2FDE38B EQ PUSH2 0x182 JUMPI POP PUSH4 0xFF1B0D3C EQ PUSH2 0x157 JUMPI PUSH1 0x0 DUP1 REVERT JUMPDEST CALLVALUE PUSH2 0x17E JUMPI DUP2 PUSH1 0x3 NOT CALLDATASIZE ADD SLT PUSH2 0x17E JUMPI PUSH1 0x3 SLOAD SWAP1 MLOAD PUSH1 0x1 PUSH1 0x1 PUSH1 0xA0 SHL SUB SWAP1 SWAP2 AND DUP2 MSTORE PUSH1 0x20 SWAP1 RETURN JUMPDEST POP DUP1 REVERT JUMPDEST SWAP2 SWAP1 POP CALLVALUE PUSH2 0x211 JUMPI PUSH1 0x20 CALLDATASIZE PUSH1 0x3 NOT ADD SLT PUSH2 0x211 JUMPI PUSH1 0x1 PUSH1 0x1 PUSH1 0xA0 SHL SUB DUP3 CALLDATALOAD DUP2 DUP2 AND SWAP4 SWAP2 SWAP3 SWAP1 DUP5 SWAP1 SUB PUSH2 0x20D JUMPI PUSH2 0x1B6 PUSH2 0xD79 JUMP JUMPDEST DUP4 ISZERO PUSH2 0x1F7 JUMPI POP POP DUP3 SLOAD PUSH1 0x1 PUSH1 0x1 PUSH1 0xA0 SHL SUB NOT DUP2 AND DUP4 OR DUP5 SSTORE AND PUSH32 0x8BE0079C531659141344CD1FD0A4F28419497F9722A3DAAFE3B4186F6B6457E0 DUP4 DUP1 LOG3 DUP1 RETURN JUMPDEST MLOAD PUSH4 0x1E4FBDF7 PUSH1 0xE0 SHL DUP2 MSTORE SWAP1 DUP2 ADD DUP5 SWAP1 MSTORE PUSH1 0x24 SWAP1 REVERT JUMPDEST DUP5 DUP1 REVERT JUMPDEST DUP3 DUP1 REVERT JUMPDEST DUP4 DUP4 CALLVALUE PUSH2 0x17E JUMPI DUP1 PUSH1 0x3 NOT CALLDATASIZE ADD SLT PUSH2 0x17E JUMPI DUP3 CALLDATALOAD DUP1 ISZERO ISZERO DUP1 SWAP2 SUB PUSH2 0x211 JUMPI PUSH1 0x24 CALLDATALOAD SWAP4 PUSH2 0x23F PUSH2 0xD79 JUMP JUMPDEST DUP5 ISZERO PUSH2 0x28A JUMPI POP PUSH32 0x2C714700740A6038882896A4DF5E73C46D1FBB5A3472FC0C487BB6CB0F4FA8FB SWAP3 SWAP4 PUSH1 0xFF NOT PUSH1 0x9 SLOAD AND PUSH1 0xFF DUP4 AND OR PUSH1 0x9 SSTORE DUP1 PUSH1 0xA SSTORE DUP3 MLOAD SWAP2 DUP3 MSTORE PUSH1 0x20 DUP3 ADD MSTORE LOG1 DUP1 RETURN JUMPDEST PUSH1 0x64 SWAP1 PUSH1 0x20 DUP5 MLOAD SWAP2 PUSH3 0x461BCD PUSH1 0xE5 SHL DUP4 MSTORE DUP3 ADD MSTORE PUSH1 0x16 PUSH1 0x24 DUP3 ADD MSTORE PUSH22 0x4D756C7469706C696572206D757374206265203E203 PUSH1 0x54 SHL PUSH1 0x44 DUP3 ADD MSTORE REVERT JUMPDEST POP POP CALLVALUE PUSH2 0x17E JUMPI DUP2 PUSH1 0x3 NOT CALLDATASIZE ADD SLT PUSH2 0x17E JUMPI PUSH1 0x20 SWAP1 PUSH1 0xA SLOAD SWAP1 MLOAD SWAP1 DUP2 MSTORE RETURN JUMPDEST POP POP CALLVALUE PUSH2 0x17E JUMPI DUP2 PUSH1 0x3 NOT CALLDATASIZE ADD SLT PUSH2 0x17E JUMPI PUSH1 0x20 SWAP1 MLOAD PUSH2 0x7D0 DUP2 MSTORE RETURN JUMPDEST POP POP CALLVALUE PUSH2 0x17E JUMPI DUP2 PUSH1 0x3 NOT CALLDATASIZE ADD SLT PUSH2 0x17E JUMPI PUSH1 0x20 SWAP1 MLOAD PUSH2 0x2710 DUP2 MSTORE RETURN JUMPDEST SWAP1 POP CALLVALUE PUSH2 0x211 JUMPI PUSH1 0x20 CALLDATASIZE PUSH1 0x3 NOT ADD SLT PUSH2 0x211 JUMPI PUSH1 0x80 SWAP3 DUP3 SWAP2 CALLDATALOAD DUP2 MSTORE PUSH1 0x8 PUSH1 0x20 MSTORE KECCAK256 SWAP1 DUP2 SLOAD SWAP2 PUSH1 0x1 DUP2 ADD SLOAD SWAP2 PUSH1 0xFF PUSH1 0x3 PUSH1 0x2 DUP5 ADD SLOAD SWAP4 ADD SLOAD AND SWAP3 DUP2 MLOAD SWAP5 DUP6 MSTORE PUSH1 0x20 DUP6 ADD MSTORE DUP4 ADD MSTORE ISZERO ISZERO PUSH1 0x60 DUP3 ADD MSTORE RETURN JUMPDEST SWAP2 SWAP1 POP CALLVALUE PUSH2 0x211 JUMPI PUSH1 0x20 CALLDATASIZE PUSH1 0x3 NOT ADD SLT PUSH2 0x211 JUMPI PUSH2 0x3A1 PUSH1 0xFF PUSH1 0x3 PUSH2 0x3A6 SWAP5 CALLDATALOAD SWAP4 DUP5 DUP8 MSTORE PUSH1 0x8 PUSH1 0x20 MSTORE DUP7 KECCAK256 ADD SLOAD AND PUSH2 0xF6A JUMP JUMPDEST PUSH2 0x10DF JUMP JUMPDEST DUP1 RETURN JUMPDEST SWAP1 POP DUP3 CALLVALUE PUSH2 0x5CF JUMPI PUSH2 0x3BA CALLDATASIZE PUSH2 0xD5E JUMP JUMPDEST PUSH1 0x3 SLOAD PUSH1 0x1 PUSH1 0x1 PUSH1 0xA0 SHL SUB SWAP4 SWAP3 SWAP2 SWAP1 DUP5 AND CALLER EQ DUP1 ISZERO PUSH2 0x5C3 JUMPI JUMPDEST PUSH2 0x3DD SWAP1 PUSH2 0xF26 JUMP JUMPDEST PUSH2 0x3E5 PUSH2 0xEF6 JUMP JUMPDEST DUP2 DUP4 MSTORE PUSH1 0x20 SWAP3 PUSH1 0x8 DUP5 MSTORE PUSH2 0x401 PUSH1 0xFF PUSH1 0x3 DUP10 DUP5 KECCAK256 ADD SLOAD AND PUSH2 0xF6A JUMP JUMPDEST PUSH2 0x40A DUP4 PUSH2 0x10DF JUMP JUMPDEST DUP3 DUP2 MSTORE PUSH1 0x8 DUP5 MSTORE DUP7 DUP2 KECCAK256 SWAP2 DUP3 SLOAD SWAP7 PUSH1 0x1 DUP5 ADD SWAP8 DUP9 SLOAD SWAP1 PUSH2 0x42A DUP3 DUP3 PUSH2 0xED3 JUMP JUMPDEST DUP5 GT PUSH2 0x58A JUMPI DUP2 DUP5 GT PUSH2 0x561 JUMPI POP POP DUP2 DUP7 SWAP2 PUSH2 0x4B9 SWAP4 SWAP9 DUP6 SWAP11 PUSH2 0x44E DUP5 DUP3 SLOAD PUSH2 0xF19 JUMP JUMPDEST SWAP1 SSTORE JUMPDEST PUSH2 0x45D DUP12 PUSH1 0x6 SLOAD PUSH2 0xF19 JUMP JUMPDEST PUSH1 0x6 SSTORE PUSH2 0x46C DUP11 PUSH1 0x7 SLOAD PUSH2 0xED3 JUMP JUMPDEST PUSH1 0x7 SSTORE PUSH2 0x47B DUP11 PUSH1 0x5 SLOAD PUSH2 0xED3 JUMP JUMPDEST PUSH1 0x5 SSTORE PUSH1 0x2 SLOAD DUP13 MLOAD PUSH4 0x23B872DD PUSH1 0xE0 SHL DUP2 MSTORE CALLER SWAP4 DUP2 ADD SWAP4 DUP5 MSTORE ADDRESS PUSH1 0x20 DUP6 ADD MSTORE PUSH1 0x40 DUP5 ADD SWAP5 SWAP1 SWAP5 MSTORE SWAP3 SWAP5 DUP6 SWAP4 SWAP2 SWAP1 SWAP2 AND SWAP2 DUP4 SWAP2 DUP8 SWAP2 DUP4 SWAP2 PUSH1 0x60 SWAP1 SWAP2 ADD SWAP1 JUMP JUMPDEST SUB SWAP3 GAS CALL SWAP2 DUP3 ISZERO PUSH2 0x556 JUMPI SWAP1 PUSH2 0x4D4 SWAP3 PUSH2 0x529 JUMPI JUMPDEST POP PUSH2 0xE90 JUMP JUMPDEST DUP1 SLOAD ISZERO PUSH2 0x518 JUMPI JUMPDEST POP PUSH32 0xD9CFBCFB9AE5D65B8D34072DE4575F602EE25CF3715BC05C291701FE9E258F9A DUP6 DUP1 MLOAD DUP7 DUP2 MSTORE DUP6 DUP6 DUP3 ADD MSTORE LOG2 PUSH1 0x1 DUP1 SSTORE DUP4 MLOAD SWAP3 DUP4 MSTORE DUP3 ADD MSTORE RETURN JUMPDEST PUSH1 0x3 ADD DUP1 SLOAD PUSH1 0xFF NOT AND SWAP1 SSTORE DUP6 PUSH2 0x4DC JUMP JUMPDEST PUSH2 0x549 SWAP2 POP DUP6 RETURNDATASIZE DUP8 GT PUSH2 0x54F JUMPI JUMPDEST PUSH2 0x541 DUP2 DUP4 PUSH2 0xE56 JUMP JUMPDEST DUP2 ADD SWAP1 PUSH2 0xE78 JUMP JUMPDEST DUP9 PUSH2 0x4CE JUMP JUMPDEST POP RETURNDATASIZE PUSH2 0x537 JUMP JUMPDEST DUP9 MLOAD SWAP1 RETURNDATASIZE SWAP1 DUP3 RETURNDATACOPY RETURNDATASIZE SWAP1 REVERT JUMPDEST SWAP2 DUP2 SWAP9 PUSH2 0x583 DUP7 SWAP12 DUP11 SWAP6 PUSH2 0x57A PUSH2 0x4B9 SWAP9 SWAP7 SWAP14 DUP8 PUSH2 0xF19 JUMP JUMPDEST SWAP14 DUP15 SWAP3 SSTORE PUSH2 0xF19 JUMP JUMPDEST DUP8 SSTORE PUSH2 0x451 JUMP JUMPDEST DUP11 MLOAD PUSH3 0x461BCD PUSH1 0xE5 SHL DUP2 MSTORE DUP1 DUP5 ADD DUP10 SWAP1 MSTORE PUSH1 0x13 PUSH1 0x24 DUP3 ADD MSTORE PUSH19 0x105B5BDD5B9D08195E18D959591CC81919589D PUSH1 0x6A SHL PUSH1 0x44 DUP3 ADD MSTORE PUSH1 0x64 SWAP1 REVERT JUMPDEST POP DUP5 SLOAD DUP5 AND CALLER EQ PUSH2 0x3D4 JUMP JUMPDEST DUP1 REVERT JUMPDEST DUP3 DUP5 CALLVALUE PUSH2 0x5CF JUMPI PUSH1 0x20 CALLDATASIZE PUSH1 0x3 NOT ADD SLT PUSH2 0x5CF JUMPI POP PUSH2 0x5F2 PUSH1 0x20 SWAP3 CALLDATALOAD PUSH2 0xFA8 JUMP JUMPDEST SWAP1 MLOAD SWAP1 DUP2 MSTORE RETURN JUMPDEST POP POP CALLVALUE PUSH2 0x17E JUMPI DUP2 PUSH1 0x3 NOT CALLDATASIZE ADD SLT PUSH2 0x17E JUMPI PUSH1 0x20 SWAP1 MLOAD PUSH2 0x1F4 DUP2 MSTORE RETURN JUMPDEST POP POP CALLVALUE PUSH2 0x17E JUMPI DUP2 PUSH1 0x3 NOT CALLDATASIZE ADD SLT PUSH2 0x17E JUMPI PUSH1 0x5 SLOAD PUSH1 0x6 SLOAD PUSH1 0x80 SWAP3 PUSH2 0x639 PUSH2 0x1086 JUMP JUMPDEST SWAP1 PUSH1 0x7 SLOAD SWAP3 DUP2 MLOAD SWAP5 DUP6 MSTORE PUSH1 0x20 DUP6 ADD MSTORE DUP4 ADD MSTORE PUSH1 0x60 DUP3 ADD MSTORE RETURN JUMPDEST POP POP CALLVALUE PUSH2 0x17E JUMPI DUP2 PUSH1 0x3 NOT CALLDATASIZE ADD SLT PUSH2 0x17E JUMPI PUSH1 0x20 SWAP1 PUSH1 0x7 SLOAD SWAP1 MLOAD SWAP1 DUP2 MSTORE RETURN JUMPDEST POP POP CALLVALUE PUSH2 0x17E JUMPI DUP2 PUSH1 0x3 NOT CALLDATASIZE ADD SLT PUSH2 0x17E JUMPI PUSH1 0x20 SWAP1 PUSH2 0x5F2 PUSH2 0x1086 JUMP JUMPDEST DUP3 DUP5 CALLVALUE PUSH2 0x5CF JUMPI PUSH1 0x20 CALLDATASIZE PUSH1 0x3 NOT ADD SLT PUSH2 0x5CF JUMPI POP PUSH2 0x5F2 PUSH1 0x20 SWAP3 CALLDATALOAD PUSH2 0x101A JUMP JUMPDEST POP POP CALLVALUE PUSH2 0x17E JUMPI DUP2 PUSH1 0x3 NOT CALLDATASIZE ADD SLT PUSH2 0x17E JUMPI SWAP1 SLOAD SWAP1 MLOAD PUSH1 0x1 PUSH1 0x1 PUSH1 0xA0 SHL SUB SWAP1 SWAP2 AND DUP2 MSTORE PUSH1 0x20 SWAP1 RETURN JUMPDEST SWAP2 SWAP1 POP CALLVALUE PUSH2 0x211 JUMPI PUSH1 0x20 CALLDATASIZE PUSH1 0x3 NOT ADD SLT PUSH2 0x211 JUMPI PUSH2 0x746 PUSH1 0x20 DUP4 CALLDATALOAD DUP1 SWAP5 PUSH2 0x6FB PUSH2 0xEF6 JUMP JUMPDEST PUSH2 0x706 DUP3 ISZERO ISZERO PUSH2 0xDE3 JUMP JUMPDEST PUSH1 0x2 SLOAD DUP6 MLOAD PUSH4 0x23B872DD PUSH1 0xE0 SHL DUP2 MSTORE CALLER SWAP3 DUP2 ADD SWAP3 DUP4 MSTORE ADDRESS PUSH1 0x20 DUP5 ADD MSTORE PUSH1 0x40 DUP4 ADD SWAP4 SWAP1 SWAP4 MSTORE SWAP2 SWAP4 DUP5 SWAP3 PUSH1 0x1 PUSH1 0x1 PUSH1 0xA0 SHL SUB AND SWAP2 DUP4 SWAP2 DUP10 SWAP2 DUP4 SWAP2 PUSH1 0x60 SWAP1 SWAP2 ADD SWAP1 JUMP JUMPDEST SUB SWAP3 GAS CALL SWAP1 DUP2 ISZERO PUSH2 0x7C0 JUMPI SWAP1 PUSH2 0x762 SWAP2 DUP6 SWAP2 PUSH2 0x7A2 JUMPI POP PUSH2 0xE90 JUMP JUMPDEST PUSH2 0x76E DUP3 PUSH1 0x5 SLOAD PUSH2 0xED3 JUMP JUMPDEST PUSH1 0x5 SSTORE MLOAD SWAP1 DUP2 MSTORE PUSH32 0x7FF07CE9A287649537E4B012E45CF012D90228B12E2B56BB03515A6B5436FCDF PUSH1 0x20 CALLER SWAP3 LOG2 PUSH1 0x1 DUP1 SSTORE DUP1 RETURN JUMPDEST PUSH2 0x7BA SWAP2 POP PUSH1 0x20 RETURNDATASIZE DUP2 GT PUSH2 0x54F JUMPI PUSH2 0x541 DUP2 DUP4 PUSH2 0xE56 JUMP JUMPDEST CODESIZE PUSH2 0x4CE JUMP JUMPDEST DUP3 MLOAD RETURNDATASIZE DUP7 DUP3 RETURNDATACOPY RETURNDATASIZE SWAP1 REVERT JUMPDEST DUP4 CALLVALUE PUSH2 0x5CF JUMPI DUP1 PUSH1 0x3 NOT CALLDATASIZE ADD SLT PUSH2 0x5CF JUMPI PUSH2 0x7E3 PUSH2 0xD79 JUMP JUMPDEST DUP1 SLOAD PUSH1 0x1 PUSH1 0x1 PUSH1 0xA0 SHL SUB NOT DUP2 AND DUP3 SSTORE DUP2 SWAP1 PUSH1 0x1 PUSH1 0x1 PUSH1 0xA0 SHL SUB AND PUSH32 0x8BE0079C531659141344CD1FD0A4F28419497F9722A3DAAFE3B4186F6B6457E0 DUP3 DUP1 LOG3 DUP1 RETURN JUMPDEST POP POP CALLVALUE PUSH2 0x17E JUMPI DUP2 PUSH1 0x3 NOT CALLDATASIZE ADD SLT PUSH2 0x17E JUMPI PUSH1 0x20 SWAP1 PUSH1 0x6 SLOAD SWAP1 MLOAD SWAP1 DUP2 MSTORE RETURN JUMPDEST POP POP CALLVALUE PUSH2 0x17E JUMPI DUP2 PUSH1 0x3 NOT CALLDATASIZE ADD SLT PUSH2 0x17E JUMPI PUSH1 0x20 SWAP1 PUSH1 0xFF PUSH1 0x9 SLOAD AND SWAP1 MLOAD SWAP1 ISZERO ISZERO DUP2 MSTORE RETURN JUMPDEST SWAP1 POP CALLVALUE PUSH2 0x211 JUMPI DUP3 PUSH1 0x3 NOT CALLDATASIZE ADD SLT PUSH2 0x211 JUMPI SLOAD SWAP1 MLOAD PUSH1 0x1 PUSH1 0x1 PUSH1 0xA0 SHL SUB SWAP1 SWAP2 AND DUP2 MSTORE PUSH1 0x20 SWAP2 POP RETURN JUMPDEST POP POP CALLVALUE PUSH2 0x17E JUMPI DUP2 PUSH1 0x3 NOT CALLDATASIZE ADD SLT PUSH2 0x17E JUMPI PUSH1 0x20 SWAP1 MLOAD PUSH5 0x174876E800 DUP2 MSTORE RETURN JUMPDEST POP POP CALLVALUE PUSH2 0x17E JUMPI DUP2 PUSH1 0x3 NOT CALLDATASIZE ADD SLT PUSH2 0x17E JUMPI PUSH1 0x2 SLOAD SWAP1 MLOAD PUSH1 0x1 PUSH1 0x1 PUSH1 0xA0 SHL SUB SWAP1 SWAP2 AND DUP2 MSTORE PUSH1 0x20 SWAP1 RETURN JUMPDEST SWAP2 SWAP1 POP CALLVALUE PUSH2 0x211 JUMPI PUSH1 0x20 CALLDATASIZE PUSH1 0x3 NOT ADD SLT PUSH2 0x211 JUMPI PUSH1 0x1 PUSH1 0x1 PUSH1 0xA0 SHL SUB DUP3 CALLDATALOAD DUP2 DUP2 AND SWAP3 SWAP1 DUP4 SWAP1 SUB PUSH2 0x20D JUMPI PUSH2 0x90A PUSH2 0xD79 JUMP JUMPDEST DUP4 SLOAD SWAP2 DUP3 AND PUSH2 0x92F JUMPI POP PUSH2 0x91F DUP3 ISZERO ISZERO PUSH2 0xDA5 JUMP JUMPDEST PUSH1 0x1 PUSH1 0x1 PUSH1 0xA0 SHL SUB NOT AND OR SWAP1 SSTORE DUP1 RETURN JUMPDEST MLOAD PUSH3 0x461BCD PUSH1 0xE5 SHL DUP2 MSTORE PUSH1 0x20 DUP2 DUP6 ADD MSTORE PUSH1 0x19 PUSH1 0x24 DUP3 ADD MSTORE PUSH32 0x536F6C76656E63795661756C7420616C72656164792073657400000000000000 PUSH1 0x44 DUP3 ADD MSTORE PUSH1 0x64 SWAP1 REVERT JUMPDEST SWAP2 SWAP1 POP CALLVALUE PUSH2 0x211 JUMPI PUSH1 0x20 CALLDATASIZE PUSH1 0x3 NOT ADD SLT PUSH2 0x211 JUMPI PUSH1 0x1 PUSH1 0x1 PUSH1 0xA0 SHL SUB DUP3 CALLDATALOAD DUP2 DUP2 AND SWAP4 SWAP2 SWAP3 SWAP1 DUP5 SWAP1 SUB PUSH2 0x20D JUMPI PUSH2 0x9A5 PUSH2 0xD79 JUMP JUMPDEST PUSH1 0x3 SLOAD SWAP3 DUP4 AND PUSH2 0x9CD JUMPI POP POP PUSH2 0x9BC DUP3 ISZERO ISZERO PUSH2 0xDA5 JUMP JUMPDEST PUSH1 0x1 PUSH1 0x1 PUSH1 0xA0 SHL SUB NOT AND OR PUSH1 0x3 SSTORE DUP1 RETURN JUMPDEST SWAP1 PUSH1 0x20 PUSH1 0x64 SWAP3 MLOAD SWAP2 PUSH3 0x461BCD PUSH1 0xE5 SHL DUP4 MSTORE DUP3 ADD MSTORE PUSH1 0x19 PUSH1 0x24 DUP3 ADD MSTORE PUSH32 0x4C657665726167655661756C7420616C72656164792073657400000000000000 PUSH1 0x44 DUP3 ADD MSTORE REVERT JUMPDEST POP POP CALLVALUE PUSH2 0x17E JUMPI DUP2 PUSH1 0x3 NOT CALLDATASIZE ADD SLT PUSH2 0x17E JUMPI PUSH1 0x20 SWAP1 PUSH1 0x5 SLOAD SWAP1 MLOAD SWAP1 DUP2 MSTORE RETURN JUMPDEST SWAP1 POP CALLVALUE PUSH2 0x211 JUMPI PUSH2 0xA3F CALLDATASIZE PUSH2 0xD5E JUMP JUMPDEST SWAP1 SWAP2 PUSH1 0x1 DUP1 PUSH1 0xA0 SHL SUB SWAP1 DUP2 PUSH1 0x3 SLOAD AND CALLER EQ DUP1 ISZERO PUSH2 0xC11 JUMPI JUMPDEST PUSH2 0xA60 SWAP1 PUSH2 0xF26 JUMP JUMPDEST PUSH2 0xA68 PUSH2 0xEF6 JUMP JUMPDEST PUSH2 0xA73 DUP4 ISZERO ISZERO PUSH2 0xDE3 JUMP JUMPDEST PUSH5 0x174876E800 DUP4 GT PUSH2 0xBD7 JUMPI PUSH2 0xA87 PUSH2 0x1086 JUMP JUMPDEST DUP4 GT PUSH2 0xB9B JUMPI DUP3 SWAP2 PUSH1 0x3 SWAP4 PUSH2 0xB2F SWAP3 DUP8 MLOAD SWAP3 PUSH2 0xAA2 DUP5 PUSH2 0xE24 JUMP JUMPDEST DUP3 DUP5 MSTORE DUP8 PUSH1 0x20 SWAP8 DUP6 DUP13 DUP11 DUP1 SWAP9 ADD DUP2 DUP2 MSTORE DUP14 DUP1 DUP5 ADD SWAP3 TIMESTAMP DUP5 MSTORE PUSH1 0x60 DUP6 ADD SWAP7 PUSH1 0x1 DUP9 MSTORE DUP2 MSTORE PUSH1 0x8 DUP12 MSTORE KECCAK256 SWAP3 MLOAD DUP4 SSTORE MLOAD PUSH1 0x1 DUP4 ADD SSTORE MLOAD PUSH1 0x2 DUP3 ADD SSTORE ADD SWAP1 MLOAD ISZERO ISZERO PUSH1 0xFF DUP1 NOT DUP4 SLOAD AND SWAP2 AND OR SWAP1 SSTORE PUSH2 0xAF7 DUP4 PUSH1 0x6 SLOAD PUSH2 0xED3 JUMP JUMPDEST PUSH1 0x6 SSTORE PUSH1 0x2 SLOAD DUP10 MLOAD PUSH4 0xA9059CBB PUSH1 0xE0 SHL DUP2 MSTORE CALLER SWAP4 DUP2 ADD SWAP4 DUP5 MSTORE PUSH1 0x20 DUP5 ADD SWAP5 SWAP1 SWAP5 MSTORE SWAP3 SWAP5 DUP6 SWAP4 SWAP2 SWAP1 SWAP2 AND SWAP2 DUP4 SWAP2 DUP12 SWAP2 DUP4 SWAP2 PUSH1 0x40 SWAP1 SWAP2 ADD SWAP1 JUMP JUMPDEST SUB SWAP3 GAS CALL SWAP1 DUP2 ISZERO PUSH2 0xB91 JUMPI PUSH32 0x3193F054F7906BF87160B9766571C0FF71A02C7C4F1BC65876A94521691B603C SWAP5 SWAP6 SWAP2 PUSH2 0xB6E SWAP2 DUP9 SWAP2 PUSH2 0xB7A JUMPI POP PUSH2 0xE90 JUMP JUMPDEST MLOAD SWAP1 DUP2 MSTORE LOG2 PUSH1 0x1 DUP1 SSTORE DUP1 RETURN JUMPDEST PUSH2 0x7BA SWAP2 POP DUP6 RETURNDATASIZE DUP8 GT PUSH2 0x54F JUMPI PUSH2 0x541 DUP2 DUP4 PUSH2 0xE56 JUMP JUMPDEST DUP6 MLOAD RETURNDATASIZE DUP9 DUP3 RETURNDATACOPY RETURNDATASIZE SWAP1 REVERT JUMPDEST PUSH1 0x64 SWAP1 PUSH1 0x20 DUP7 MLOAD SWAP2 PUSH3 0x461BCD PUSH1 0xE5 SHL DUP4 MSTORE DUP3 ADD MSTORE PUSH1 0x16 PUSH1 0x24 DUP3 ADD MSTORE PUSH22 0x496E73756666696369656E74206C6971756964697479 PUSH1 0x50 SHL PUSH1 0x44 DUP3 ADD MSTORE REVERT JUMPDEST PUSH1 0x64 SWAP1 PUSH1 0x20 DUP7 MLOAD SWAP2 PUSH3 0x461BCD PUSH1 0xE5 SHL DUP4 MSTORE DUP3 ADD MSTORE PUSH1 0x14 PUSH1 0x24 DUP3 ADD MSTORE PUSH20 0x457863656564732064656274206365696C696E67 PUSH1 0x60 SHL PUSH1 0x44 DUP3 ADD MSTORE REVERT JUMPDEST POP DUP1 SLOAD DUP3 AND CALLER EQ PUSH2 0xA57 JUMP JUMPDEST SWAP1 POP CALLVALUE PUSH2 0x211 JUMPI PUSH1 0x20 DUP1 PUSH1 0x3 NOT CALLDATASIZE ADD SLT PUSH2 0xD5A JUMPI DUP2 CALLDATALOAD SWAP2 PUSH2 0xC3C PUSH2 0xD79 JUMP JUMPDEST PUSH2 0xC44 PUSH2 0xEF6 JUMP JUMPDEST PUSH2 0xC4F DUP4 ISZERO ISZERO PUSH2 0xDE3 JUMP JUMPDEST PUSH2 0xC57 PUSH2 0x1086 JUMP JUMPDEST DUP4 GT PUSH2 0xD1A JUMPI DUP2 DUP4 PUSH2 0xCAC SWAP3 PUSH2 0xC6F DUP3 PUSH1 0x5 SLOAD PUSH2 0xF19 JUMP JUMPDEST PUSH1 0x5 SSTORE PUSH1 0x2 SLOAD DUP8 MLOAD PUSH4 0xA9059CBB PUSH1 0xE0 SHL DUP2 MSTORE CALLER SWAP3 DUP2 ADD SWAP3 DUP4 MSTORE PUSH1 0x20 DUP4 ADD SWAP4 SWAP1 SWAP4 MSTORE SWAP2 SWAP4 DUP5 SWAP3 PUSH1 0x1 PUSH1 0x1 PUSH1 0xA0 SHL SUB AND SWAP2 DUP4 SWAP2 DUP11 SWAP2 DUP4 SWAP2 PUSH1 0x40 SWAP1 SWAP2 ADD SWAP1 JUMP JUMPDEST SUB SWAP3 GAS CALL SWAP1 DUP2 ISZERO PUSH2 0xD10 JUMPI PUSH32 0xB1CCE8684B4FFA8667B4577654E61EE3480D661EE9C27522AC80E211F6BD4D25 SWAP4 SWAP5 SWAP2 PUSH2 0xCEB SWAP2 DUP8 SWAP2 PUSH2 0xCF9 JUMPI POP PUSH2 0xE90 JUMP JUMPDEST MLOAD SWAP3 DUP4 MSTORE CALLER SWAP3 LOG2 PUSH1 0x1 DUP1 SSTORE DUP1 RETURN JUMPDEST PUSH2 0x7BA SWAP2 POP DUP5 RETURNDATASIZE DUP7 GT PUSH2 0x54F JUMPI PUSH2 0x541 DUP2 DUP4 PUSH2 0xE56 JUMP JUMPDEST DUP5 MLOAD RETURNDATASIZE DUP8 DUP3 RETURNDATACOPY RETURNDATASIZE SWAP1 REVERT JUMPDEST DUP2 PUSH1 0x64 SWAP3 DUP6 MLOAD SWAP3 PUSH3 0x461BCD PUSH1 0xE5 SHL DUP5 MSTORE DUP4 ADD MSTORE PUSH1 0x24 DUP3 ADD MSTORE PUSH32 0x496E73756666696369656E7420617661696C61626C65206C6971756964697479 PUSH1 0x44 DUP3 ADD MSTORE REVERT JUMPDEST DUP4 DUP1 REVERT JUMPDEST PUSH1 0x40 SWAP1 PUSH1 0x3 NOT ADD SLT PUSH2 0xD74 JUMPI PUSH1 0x4 CALLDATALOAD SWAP1 PUSH1 0x24 CALLDATALOAD SWAP1 JUMP JUMPDEST PUSH1 0x0 DUP1 REVERT JUMPDEST PUSH1 0x0 SLOAD PUSH1 0x1 PUSH1 0x1 PUSH1 0xA0 SHL SUB AND CALLER SUB PUSH2 0xD8D JUMPI JUMP JUMPDEST PUSH1 0x40 MLOAD PUSH4 0x118CDAA7 PUSH1 0xE0 SHL DUP2 MSTORE CALLER PUSH1 0x4 DUP3 ADD MSTORE PUSH1 0x24 SWAP1 REVERT JUMPDEST ISZERO PUSH2 0xDAC JUMPI JUMP JUMPDEST PUSH1 0x40 MLOAD PUSH3 0x461BCD PUSH1 0xE5 SHL DUP2 MSTORE PUSH1 0x20 PUSH1 0x4 DUP3 ADD MSTORE PUSH1 0xF PUSH1 0x24 DUP3 ADD MSTORE PUSH15 0x496E76616C69642061646472657373 PUSH1 0x88 SHL PUSH1 0x44 DUP3 ADD MSTORE PUSH1 0x64 SWAP1 REVERT JUMPDEST ISZERO PUSH2 0xDEA JUMPI JUMP JUMPDEST PUSH1 0x40 MLOAD PUSH3 0x461BCD PUSH1 0xE5 SHL DUP2 MSTORE PUSH1 0x20 PUSH1 0x4 DUP3 ADD MSTORE PUSH1 0x12 PUSH1 0x24 DUP3 ADD MSTORE PUSH18 0x416D6F756E74206D757374206265203E203 PUSH1 0x74 SHL PUSH1 0x44 DUP3 ADD MSTORE PUSH1 0x64 SWAP1 REVERT JUMPDEST PUSH1 0x80 DUP2 ADD SWAP1 DUP2 LT PUSH8 0xFFFFFFFFFFFFFFFF DUP3 GT OR PUSH2 0xE40 JUMPI PUSH1 0x40 MSTORE JUMP JUMPDEST PUSH4 0x4E487B71 PUSH1 0xE0 SHL PUSH1 0x0 MSTORE PUSH1 0x41 PUSH1 0x4 MSTORE PUSH1 0x24 PUSH1 0x0 REVERT JUMPDEST SWAP1 PUSH1 0x1F DUP1 NOT SWAP2 ADD AND DUP2 ADD SWAP1 DUP2 LT PUSH8 0xFFFFFFFFFFFFFFFF DUP3 GT OR PUSH2 0xE40 JUMPI PUSH1 0x40 MSTORE JUMP JUMPDEST SWAP1 DUP2 PUSH1 0x20 SWAP2 SUB SLT PUSH2 0xD74 JUMPI MLOAD DUP1 ISZERO ISZERO DUP2 SUB PUSH2 0xD74 JUMPI SWAP1 JUMP JUMPDEST ISZERO PUSH2 0xE97 JUMPI JUMP JUMPDEST PUSH1 0x40 MLOAD PUSH3 0x461BCD PUSH1 0xE5 SHL DUP2 MSTORE PUSH1 0x20 PUSH1 0x4 DUP3 ADD MSTORE PUSH1 0x14 PUSH1 0x24 DUP3 ADD MSTORE PUSH20 0x1554D110C81D1C985B9CD9995C8819985A5B1959 PUSH1 0x62 SHL PUSH1 0x44 DUP3 ADD MSTORE PUSH1 0x64 SWAP1 REVERT JUMPDEST SWAP2 SWAP1 DUP3 ADD DUP1 SWAP3 GT PUSH2 0xEE0 JUMPI JUMP JUMPDEST PUSH4 0x4E487B71 PUSH1 0xE0 SHL PUSH1 0x0 MSTORE PUSH1 0x11 PUSH1 0x4 MSTORE PUSH1 0x24 PUSH1 0x0 REVERT JUMPDEST PUSH1 0x2 PUSH1 0x1 SLOAD EQ PUSH2 0xF07 JUMPI PUSH1 0x2 PUSH1 0x1 SSTORE JUMP JUMPDEST PUSH1 0x40 MLOAD PUSH4 0x3EE5AEB5 PUSH1 0xE0 SHL DUP2 MSTORE PUSH1 0x4 SWAP1 REVERT JUMPDEST SWAP2 SWAP1 DUP3 SUB SWAP2 DUP3 GT PUSH2 0xEE0 JUMPI JUMP JUMPDEST ISZERO PUSH2 0xF2D JUMPI JUMP JUMPDEST PUSH1 0x40 MLOAD PUSH3 0x461BCD PUSH1 0xE5 SHL DUP2 MSTORE PUSH1 0x20 PUSH1 0x4 DUP3 ADD MSTORE PUSH1 0x15 PUSH1 0x24 DUP3 ADD MSTORE PUSH21 0x13DB9B1E48185D5D1A1BDC9A5E9959081D985D5B1D PUSH1 0x5A SHL PUSH1 0x44 DUP3 ADD MSTORE PUSH1 0x64 SWAP1 REVERT JUMPDEST ISZERO PUSH2 0xF71 JUMPI JUMP JUMPDEST PUSH1 0x40 MLOAD PUSH3 0x461BCD PUSH1 0xE5 SHL DUP2 MSTORE PUSH1 0x20 PUSH1 0x4 DUP3 ADD MSTORE PUSH1 0xF PUSH1 0x24 DUP3 ADD MSTORE PUSH15 0x4C6F616E206E6F7420616374697665 PUSH1 0x88 SHL PUSH1 0x44 DUP3 ADD MSTORE PUSH1 0x64 SWAP1 REVERT JUMPDEST DUP1 PUSH1 0x0 MSTORE PUSH1 0x8 PUSH1 0x20 MSTORE PUSH1 0x40 PUSH1 0x0 KECCAK256 SWAP1 PUSH1 0xFF PUSH1 0x3 DUP4 ADD SLOAD AND ISZERO PUSH2 0x1013 JUMPI PUSH2 0x100B PUSH2 0x1010 SWAP3 PUSH2 0x1001 PUSH1 0x40 MLOAD SWAP4 PUSH2 0xFDB DUP6 PUSH2 0xE24 JUMP JUMPDEST DUP3 SLOAD DUP6 MSTORE PUSH1 0x2 PUSH1 0x1 DUP5 ADD SLOAD SWAP4 PUSH1 0x20 DUP8 ADD SWAP5 DUP6 MSTORE ADD SLOAD PUSH1 0x40 DUP7 ADD MSTORE PUSH1 0x1 PUSH1 0x60 DUP7 ADD MSTORE PUSH2 0x1146 JUMP JUMPDEST SWAP3 MLOAD SWAP1 MLOAD SWAP1 PUSH2 0xED3 JUMP JUMPDEST PUSH2 0xED3 JUMP JUMPDEST SWAP1 JUMP JUMPDEST POP POP PUSH1 0x0 SWAP1 JUMP JUMPDEST DUP1 PUSH1 0x0 MSTORE PUSH1 0x8 PUSH1 0x20 MSTORE PUSH1 0x40 PUSH1 0x0 KECCAK256 PUSH1 0xFF PUSH1 0x3 DUP3 ADD SLOAD AND ISZERO PUSH2 0x1013 JUMPI PUSH2 0x106C PUSH2 0x1010 SWAP3 PUSH1 0x1 PUSH1 0x60 PUSH1 0x40 MLOAD PUSH2 0x104C DUP2 PUSH2 0xE24 JUMP JUMPDEST DUP6 SLOAD DUP2 MSTORE PUSH1 0x2 DUP4 DUP8 ADD SLOAD SWAP7 PUSH1 0x20 DUP4 ADD SWAP8 DUP9 MSTORE ADD SLOAD PUSH1 0x40 DUP3 ADD MSTORE ADD MSTORE PUSH2 0x1146 JUMP JUMPDEST SWAP1 MLOAD PUSH2 0xED3 JUMP JUMPDEST DUP2 DUP2 MUL SWAP3 SWAP2 DUP2 ISZERO SWAP2 DUP5 DIV EQ OR ISZERO PUSH2 0xEE0 JUMPI JUMP JUMPDEST PUSH1 0x6 SLOAD PUSH2 0x7D0 DUP1 DUP3 MUL SWAP1 DUP3 DUP3 DIV EQ DUP3 ISZERO OR ISZERO PUSH2 0xEE0 JUMPI PUSH1 0x5 SLOAD PUSH2 0x2710 SWAP1 SWAP2 DIV SWAP2 PUSH1 0x0 SWAP2 DUP2 DUP2 GT ISZERO PUSH2 0x10D7 JUMPI PUSH2 0x10BB SWAP3 POP PUSH2 0xF19 JUMP JUMPDEST SWAP1 JUMPDEST PUSH1 0x0 SWAP2 DUP2 DUP2 GT ISZERO PUSH2 0x10D2 JUMPI PUSH2 0x1010 SWAP3 POP PUSH2 0xF19 JUMP JUMPDEST POP POP SWAP1 JUMP JUMPDEST POP POP SWAP1 PUSH2 0x10BD JUMP JUMPDEST DUP1 PUSH1 0x0 MSTORE PUSH1 0x8 PUSH1 0x20 MSTORE PUSH1 0x40 PUSH1 0x0 KECCAK256 PUSH2 0x10F6 DUP3 PUSH2 0x1146 JUMP JUMPDEST SWAP1 DUP2 PUSH2 0x1101 JUMPI POP POP POP JUMP JUMPDEST PUSH32 0x3D8708181C6452C5711A2B4C6ED3F12149F6EA35F78549ABA00A89D041E766CA SWAP2 DUP2 PUSH1 0x1 PUSH1 0x20 SWAP4 ADD PUSH2 0x1135 DUP4 DUP3 SLOAD PUSH2 0xED3 JUMP JUMPDEST SWAP1 SSTORE PUSH1 0x2 TIMESTAMP SWAP2 ADD SSTORE PUSH1 0x40 MLOAD SWAP1 DUP2 MSTORE LOG2 JUMP JUMPDEST PUSH1 0x0 MSTORE PUSH1 0x8 PUSH1 0x20 MSTORE PUSH1 0x40 PUSH1 0x0 KECCAK256 PUSH1 0x40 MLOAD SWAP1 PUSH2 0x1160 DUP3 PUSH2 0xE24 JUMP JUMPDEST DUP1 SLOAD DUP1 DUP4 MSTORE PUSH1 0x1 DUP3 ADD SLOAD PUSH1 0x20 DUP5 ADD MSTORE PUSH1 0xFF PUSH1 0x3 PUSH1 0x2 DUP5 ADD SLOAD SWAP4 DUP5 PUSH1 0x40 DUP8 ADD MSTORE ADD SLOAD AND ISZERO SWAP1 DUP2 ISZERO SWAP2 DUP3 PUSH1 0x60 DUP7 ADD MSTORE SWAP2 PUSH2 0x11EB JUMPI JUMPDEST POP PUSH2 0x1013 JUMPI PUSH2 0x11A2 SWAP1 TIMESTAMP PUSH2 0xF19 JUMP JUMPDEST SWAP1 PUSH1 0xFF PUSH1 0x9 SLOAD AND PUSH2 0x11D7 JUMPI JUMPDEST MLOAD PUSH2 0x1F4 SWAP1 DUP2 DUP2 MUL SWAP2 DUP2 DUP4 DIV EQ SWAP1 ISZERO OR ISZERO PUSH2 0xEE0 JUMPI PUSH5 0x496CEBB800 SWAP2 PUSH2 0x11D3 SWAP2 PUSH2 0x1073 JUMP JUMPDEST DIV SWAP1 JUMP JUMPDEST SWAP1 PUSH2 0x11E5 SWAP1 PUSH1 0xA SLOAD SWAP1 PUSH2 0x1073 JUMP JUMPDEST SWAP1 PUSH2 0x11AE JUMP JUMPDEST SWAP1 POP ISZERO CODESIZE PUSH2 0x1193 JUMP INVALID LOG2 PUSH5 0x6970667358 0x22 SLT KECCAK256 0xA9 DUP3 PUSH21 0x13F4BFE0E6384072680C89D8BAE89E23BC5D75C009 PC SWAP5 0xD0 PUSH22 0x8AC9A75D64736F6C6343000814003300000000000000 "},"methodIdentifiers":{"APR()":"bd30558e","BASIS_POINTS()":"e1f1c4a7","DEBT_CEILING()":"424f0474","RESERVE_RATIO()":"e37dbfd9","accrueInterest(uint256)":"e0dc1750","borrow(uint256,uint256)":"0ecbcdab","demoMode()":"44ba06d5","depositLiquidity(uint256)":"76d58e1a","getAccruedInterest(uint256)":"9339ea69","getAvailableLiquidity()":"9b745aec","getOutstandingDebt(uint256)":"d5595157","getPoolStats()":"bbb85188","leverageVault()":"ff1b0d3c","loans(uint256)":"e1ec3c68","owner()":"8da5cb5b","renounceOwnership()":"715018a6","repay(uint256,uint256)":"d8aed145","setDemoMode(bool,uint256)":"f01ad8a3","setLeverageVault(address)":"178cf18b","setSolvencyVault(address)":"2077997b","solvencyVault()":"44452ba1","timeMultiplier()":"ec18c987","totalBorrowed()":"4c19386c","totalInterestEarned()":"b7d93f34","totalLiquidity()":"15770f92","transferOwnership(address)":"f2fde38b","usdc()":"3e413bee","withdrawLiquidity(uint256)":"0a861f2a"}}}}}