{"contracts/core/SolvencyVault.sol":{"SolvencyVault":{"abi":[{"inputs":[{"internalType":"address","name":"_usdc","type":"address"},{"internalType":"address","name":"_seniorPool","type":"address"}],"stateMutability":"nonpayable","type":"constructor"},{"inputs":[{"internalType":"address","name":"owner","type":"address"}],"name":"OwnableInvalidOwner","type":"error"},{"inputs":[{"internalType":"address","name":"account","type":"address"}],"name":"OwnableUnauthorizedAccount","type":"error"},{"inputs":[],"name":"ReentrancyGuardReentrantCall","type":"error"},{"anonymous":false,"inputs":[{"indexed":true,"internalType":"uint256","name":"positionId","type":"uint256"},{"indexed":true,"internalType":"address","name":"user","type":"address"},{"indexed":false,"internalType":"uint256","name":"amount","type":"uint256"}],"name":"CollateralWithdrawn","type":"event"},{"anonymous":false,"inputs":[{"indexed":true,"internalType":"uint256","name":"positionId","type":"uint256"},{"indexed":true,"internalType":"uint256","name":"creditLineId","type":"uint256"},{"indexed":false,"internalType":"string","name":"reason","type":"string"}],"name":"CreditLineRevoked","type":"event"},{"anonymous":false,"inputs":[{"indexed":true,"internalType":"uint256","name":"positionId","type":"uint256"},{"indexed":false,"internalType":"uint256","name":"yieldReceived","type":"uint256"},{"indexed":false,"internalType":"uint256","name":"debtRepaid","type":"uint256"},{"indexed":false,"internalType":"uint256","name":"liquidationFee","type":"uint256"},{"indexed":false,"internalType":"uint256","name":"userRefund","type":"uint256"}],"name":"LiquidationSettled","type":"event"},{"anonymous":false,"inputs":[{"indexed":true,"internalType":"uint256","name":"positionId","type":"uint256"},{"indexed":false,"internalType":"uint256","name":"amount","type":"uint256"},{"indexed":false,"internalType":"uint256","name":"principal","type":"uint256"},{"indexed":false,"internalType":"uint256","name":"interest","type":"uint256"},{"indexed":false,"internalType":"uint256","name":"remainingDebt","type":"uint256"}],"name":"LoanRepaid","type":"event"},{"anonymous":false,"inputs":[{"indexed":true,"internalType":"uint256","name":"positionId","type":"uint256"},{"indexed":false,"internalType":"uint256","name":"creditLineId","type":"uint256"},{"indexed":false,"internalType":"uint256","name":"creditLimit","type":"uint256"}],"name":"OAIDCreditIssued","type":"event"},{"anonymous":false,"inputs":[{"indexed":true,"internalType":"address","name":"previousOwner","type":"address"},{"indexed":true,"internalType":"address","name":"newOwner","type":"address"}],"name":"OwnershipTransferred","type":"event"},{"anonymous":false,"inputs":[{"indexed":true,"internalType":"uint256","name":"positionId","type":"uint256"},{"indexed":true,"internalType":"address","name":"user","type":"address"},{"indexed":false,"internalType":"address","name":"collateralToken","type":"address"},{"indexed":false,"internalType":"uint256","name":"collateralAmount","type":"uint256"},{"indexed":false,"internalType":"uint256","name":"tokenValueUSD","type":"uint256"},{"indexed":false,"internalType":"enum SolvencyVault.TokenType","name":"tokenType","type":"uint8"}],"name":"PositionCreated","type":"event"},{"anonymous":false,"inputs":[{"indexed":true,"internalType":"uint256","name":"positionId","type":"uint256"},{"indexed":false,"internalType":"uint256","name":"liquidationTime","type":"uint256"}],"name":"PositionLiquidated","type":"event"},{"anonymous":false,"inputs":[{"indexed":true,"internalType":"uint256","name":"positionId","type":"uint256"},{"indexed":true,"internalType":"address","name":"purchaser","type":"address"},{"indexed":false,"internalType":"uint256","name":"purchaseAmount","type":"uint256"},{"indexed":false,"internalType":"uint256","name":"tokensTransferred","type":"uint256"},{"indexed":false,"internalType":"uint256","name":"debtRepaid","type":"uint256"},{"indexed":false,"internalType":"uint256","name":"liquidationFee","type":"uint256"},{"indexed":false,"internalType":"uint256","name":"userRefund","type":"uint256"}],"name":"PrivateAssetLiquidationSettled","type":"event"},{"anonymous":false,"inputs":[{"indexed":true,"internalType":"uint256","name":"positionId","type":"uint256"},{"indexed":false,"internalType":"uint256","name":"amount","type":"uint256"},{"indexed":false,"internalType":"uint256","name":"totalDebt","type":"uint256"}],"name":"USDCBorrowed","type":"event"},{"inputs":[],"name":"BASIS_POINTS","outputs":[{"internalType":"uint256","name":"","type":"uint256"}],"stateMutability":"view","type":"function"},{"inputs":[],"name":"LIQUIDATION_FEE_BPS","outputs":[{"internalType":"uint256","name":"","type":"uint256"}],"stateMutability":"view","type":"function"},{"inputs":[],"name":"LIQUIDATION_THRESHOLD","outputs":[{"internalType":"uint256","name":"","type":"uint256"}],"stateMutability":"view","type":"function"},{"inputs":[],"name":"PRIVATE_ASSET_LTV","outputs":[{"internalType":"uint256","name":"","type":"uint256"}],"stateMutability":"view","type":"function"},{"inputs":[],"name":"RWA_LTV","outputs":[{"internalType":"uint256","name":"","type":"uint256"}],"stateMutability":"view","type":"function"},{"inputs":[{"internalType":"uint256","name":"positionId","type":"uint256"},{"internalType":"uint256","name":"amount","type":"uint256"}],"name":"borrowUSDC","outputs":[],"stateMutability":"nonpayable","type":"function"},{"inputs":[{"internalType":"address","name":"collateralToken","type":"address"},{"internalType":"uint256","name":"collateralAmount","type":"uint256"},{"internalType":"uint256","name":"tokenValueUSD","type":"uint256"},{"internalType":"enum SolvencyVault.TokenType","name":"tokenType","type":"uint8"},{"internalType":"bool","name":"issueOAID","type":"bool"}],"name":"depositCollateral","outputs":[{"internalType":"uint256","name":"positionId","type":"uint256"}],"stateMutability":"nonpayable","type":"function"},{"inputs":[{"internalType":"uint256","name":"positionId","type":"uint256"}],"name":"getHealthFactor","outputs":[{"internalType":"uint256","name":"","type":"uint256"}],"stateMutability":"view","type":"function"},{"inputs":[{"internalType":"uint256","name":"positionId","type":"uint256"}],"name":"getMaxBorrow","outputs":[{"internalType":"uint256","name":"","type":"uint256"}],"stateMutability":"view","type":"function"},{"inputs":[{"internalType":"uint256","name":"positionId","type":"uint256"}],"name":"getPosition","outputs":[{"components":[{"internalType":"address","name":"user","type":"address"},{"internalType":"address","name":"collateralToken","type":"address"},{"internalType":"uint256","name":"collateralAmount","type":"uint256"},{"internalType":"uint256","name":"usdcBorrowed","type":"uint256"},{"internalType":"uint256","name":"tokenValueUSD","type":"uint256"},{"internalType":"uint256","name":"createdAt","type":"uint256"},{"internalType":"uint256","name":"liquidatedAt","type":"uint256"},{"internalType":"uint256","name":"creditLineId","type":"uint256"},{"internalType":"bool","name":"active","type":"bool"},{"internalType":"enum SolvencyVault.TokenType","name":"tokenType","type":"uint8"}],"internalType":"struct SolvencyVault.Position","name":"","type":"tuple"}],"stateMutability":"view","type":"function"},{"inputs":[{"internalType":"uint256","name":"positionId","type":"uint256"}],"name":"liquidatePosition","outputs":[],"stateMutability":"nonpayable","type":"function"},{"inputs":[],"name":"nextPositionId","outputs":[{"internalType":"uint256","name":"","type":"uint256"}],"stateMutability":"view","type":"function"},{"inputs":[],"name":"oaid","outputs":[{"internalType":"address","name":"","type":"address"}],"stateMutability":"view","type":"function"},{"inputs":[],"name":"owner","outputs":[{"internalType":"address","name":"","type":"address"}],"stateMutability":"view","type":"function"},{"inputs":[{"internalType":"uint256","name":"","type":"uint256"}],"name":"positions","outputs":[{"internalType":"address","name":"user","type":"address"},{"internalType":"address","name":"collateralToken","type":"address"},{"internalType":"uint256","name":"collateralAmount","type":"uint256"},{"internalType":"uint256","name":"usdcBorrowed","type":"uint256"},{"internalType":"uint256","name":"tokenValueUSD","type":"uint256"},{"internalType":"uint256","name":"createdAt","type":"uint256"},{"internalType":"uint256","name":"liquidatedAt","type":"uint256"},{"internalType":"uint256","name":"creditLineId","type":"uint256"},{"internalType":"bool","name":"active","type":"bool"},{"internalType":"enum SolvencyVault.TokenType","name":"tokenType","type":"uint8"}],"stateMutability":"view","type":"function"},{"inputs":[{"internalType":"uint256","name":"","type":"uint256"}],"name":"positionsInLiquidation","outputs":[{"internalType":"bool","name":"","type":"bool"}],"stateMutability":"view","type":"function"},{"inputs":[],"name":"primaryMarket","outputs":[{"internalType":"address","name":"","type":"address"}],"stateMutability":"view","type":"function"},{"inputs":[{"internalType":"uint256","name":"positionId","type":"uint256"},{"internalType":"uint256","name":"purchaseAmount","type":"uint256"}],"name":"purchaseAndSettleLiquidation","outputs":[{"internalType":"uint256","name":"liquidationFee","type":"uint256"},{"internalType":"uint256","name":"userRefund","type":"uint256"}],"stateMutability":"nonpayable","type":"function"},{"inputs":[],"name":"renounceOwnership","outputs":[],"stateMutability":"nonpayable","type":"function"},{"inputs":[{"internalType":"uint256","name":"positionId","type":"uint256"},{"internalType":"uint256","name":"amount","type":"uint256"}],"name":"repayLoan","outputs":[],"stateMutability":"nonpayable","type":"function"},{"inputs":[],"name":"seniorPool","outputs":[{"internalType":"address","name":"","type":"address"}],"stateMutability":"view","type":"function"},{"inputs":[{"internalType":"address","name":"_oaid","type":"address"}],"name":"setOAID","outputs":[],"stateMutability":"nonpayable","type":"function"},{"inputs":[{"internalType":"address","name":"_primaryMarket","type":"address"}],"name":"setPrimaryMarket","outputs":[],"stateMutability":"nonpayable","type":"function"},{"inputs":[{"internalType":"address","name":"_yieldVault","type":"address"}],"name":"setYieldVault","outputs":[],"stateMutability":"nonpayable","type":"function"},{"inputs":[{"internalType":"uint256","name":"positionId","type":"uint256"}],"name":"settleLiquidation","outputs":[{"internalType":"uint256","name":"yieldReceived","type":"uint256"},{"internalType":"uint256","name":"liquidationFee","type":"uint256"},{"internalType":"uint256","name":"userRefund","type":"uint256"}],"stateMutability":"nonpayable","type":"function"},{"inputs":[{"internalType":"address","name":"newOwner","type":"address"}],"name":"transferOwnership","outputs":[],"stateMutability":"nonpayable","type":"function"},{"inputs":[],"name":"usdc","outputs":[{"internalType":"contract IERC20","name":"","type":"address"}],"stateMutability":"view","type":"function"},{"inputs":[{"internalType":"uint256","name":"positionId","type":"uint256"},{"internalType":"uint256","name":"amount","type":"uint256"}],"name":"withdrawCollateral","outputs":[],"stateMutability":"nonpayable","type":"function"},{"inputs":[],"name":"yieldVault","outputs":[{"internalType":"address","name":"","type":"address"}],"stateMutability":"view","type":"function"}],"evm":{"bytecode":{"linkReferences":{},"object":"608034620000f557601f6200279738819003918201601f19168301916001600160401b03831184841017620000fa578084926040948552833981010312620000f5576200005a6020620000528362000110565b920162000110565b3315620000dc5760008054336001600160a01b0319808316821784556040519590946001600160a01b03949093859391908416907f8be0079c531659141344cd1fd0a4f28419497f9722a3daafe3b4186f6b6457e09080a360018055168360025416176002551690600354161760035560016007556126719081620001268239f35b604051631e4fbdf760e01b815260006004820152602490fd5b600080fd5b634e487b7160e01b600052604160045260246000fd5b51906001600160a01b0382168203620000f55756fe608060405260048036101561001357600080fd5b60009060e0908235821c9182630bae9ef914611ba7578263137c3f6914611b5b57826316ef172914611b2c57826317845c6914611b0d5782631e77ceda14611ae55782632be0439214611abc5782633e413bee14611a9357826347f6c76014611883578263518e8dfc146118665782635403bc4a146113c75782636c320cb01461137b578263715018a614611321578263761c5f0a14611304578263767a7b05146110d65782637b5210d8146110af578263837c2a6114610a90578263899346c714610a72578383638a700b531461073e575082638da5cb5b1461071757826390a8ae9b146106fa57826399fbab8814610655578263a7f8a5e21461062c578263cdddd4e514610408578263d79873b9146103eb578263e1f1c4a7146103ce578263e2dc366614610385578263eb02c3011461022057508163f2fde38b14610190575063f416fc1c1461016557600080fd5b3461018d578060031936011261018d576003546040516001600160a01b039091168152602090f35b80fd5b90503461021c57602036600319011261021c576101ab611f8c565b6101b3611fdb565b6001600160a01b039081169182156102045750600054826001600160601b0360a01b821617600055167f8be0079c531659141344cd1fd0a4f28419497f9722a3daafe3b4186f6b6457e0600080a380f35b604051631e4fbdf760e01b8152908101849052602490fd5b5080fd5b9150346103815760203660031901126103815761012061037f916101409461030c60ff6008604080519461025386612086565b80865280602087015280828701528060608701528060808701528060a08701528060c0870152808a8701528088610100978289820152015286358152600660205220604051956102a287612086565b81546001600160a01b039081168852600183015416602088015260028201546040880152600382015460608801528101546080870152600581015460a0870152600681015460c0870152600781015489870152015481811615158486015260081c1684840161214b565b6040519460018060a01b03835116865260018060a01b03602084015116602087015260408301516040870152606083015160608701526080830151608087015260a083015160a087015260c083015160c08701528083015190860152808201511515908501520151610120830190611fb8565bf35b8280fd5b83823461021c57602036600319011261021c576103a0611f8c565b6103a8611fdb565b6001600160a01b03166103bc811515612007565b81546001600160a01b03191617905580f35b833461018d578060031936011261018d5760206040516127108152f35b833461018d578060031936011261018d5760206040516117708152f35b83823461021c576020908160031936011261038157803591610428611fdb565b610430612180565b82845260068152604084209161044c60ff6008850154166121a3565b8385526008825260ff6040862054166105f157612cec61046b85612380565b10156105b9578385526008825260408520805460ff191660011790554260068401556005546001600160a01b031692859190841515806105ac575b6104dd575b82867f77493833e3b7f392bd715ffdc3abd21434418e6889264880074c970e1b5e61c886604051428152a26001805580f35b60070193845491813b1561059d5783916040519384926367cc7cff60e01b84528301526040602483015281838161051660448201612299565b03925af180156105a157610589575b50507f77493833e3b7f392bd715ffdc3abd21434418e6889264880074c970e1b5e61c89154837fd89109f5414f7b5415e9a3e20b055f6a8cc38b81f34d24eb5ae3512086356a8a6040518481528061057e868201612299565b0390a38385806104ab565b610592906120b9565b61059d578385610525565b8380fd5b6040513d84823e3d90fd5b50600781015415156104a6565b6064916040519162461bcd60e51b83528201526013602482015272506f736974696f6e206973206865616c74687960681b6044820152fd5b6064916040519162461bcd60e51b8352820152601660248201527520b63932b0b23c9034b7103634b8bab4b230ba34b7b760511b6044820152fd5b833461018d578060031936011261018d576009546040516001600160a01b039091168152602090f35b915034610381576020366003190112610381578060406101409461037f9335815260066020522060018060a01b039384825416946001830154169260028301549060038401549084015460058501549160068601549360086007880154970154976040519a8b5260208b015260408a01526060890152608088015260a087015260c086015284015260ff8116151561010084015260ff61012084019160081c16611fb8565b833461018d578060031936011261018d576020604051612cec8152f35b833461018d578060031936011261018d57546040516001600160a01b039091168152602090f35b808334610a6f5761074e36611fa2565b610759939193612180565b83825260209260068452604083209061077860ff6008840154166121a3565b81546001600160a01b03929061079190841633146121e5565b61079c841515612045565b600254604080516323b872dd60e01b81523381860190815230602082015291820187905293918891859187169082908a90829060600103925af1928315610a475761082f936107f2918891610a52575b50612233565b8685856002541686600354168960405180988195829463095ea7b360e01b845289840160209093929193604081019460018060a01b031681520152565b03925af1928315610a47578693610a1a575b5060408460035416604482518099819363d8aed14560e01b83528d878401528a60248401525af1938415610a0f57839684956109d8575b506003830161088888825461228c565b90558060035416888a60246040518094819363d559515760e01b8352888301525afa9889156109cd578599610995575b5050600554169182151580610988575b610924575b505050507f91f28e20f26321cf8a71cadbefe77cfe670ee70b71a621e3ce3fb1b57e19dfaa9361091a91604051948594859094939260609260808301968352602083015260408201520152565b0390a26001805580f35b60070154823b1561059d576084849283604051958694859363f2f6818f60e01b8552840152896024840152600160448401528160648401525af180156105a157610970575b80806108cd565b610979906120b9565b610984578587610969565b8580fd5b50600781015415156108c8565b809299508195503d83116109c6575b6109ae81836120cd565b810103126109c157889251968a806108b8565b600080fd5b503d6109a4565b6040513d87823e3d90fd5b9094506109fe91965060403d604011610a08575b6109f681836120cd565b810190612276565b959095938a610878565b503d6109ec565b6040513d85823e3d90fd5b610a3990883d8a11610a40575b610a3181836120cd565b8101906120ef565b5089610841565b503d610a27565b6040513d88823e3d90fd5b610a699150893d8b11610a4057610a3181836120cd565b8b6107ec565b50fd5b833461018d578060031936011261018d576020600754604051908152f35b83823461021c5760208060031936011261038157813591610aaf611fdb565b610ab7612180565b828452600682526040842091600883019360ff8554610ad78282166121a3565b82885260088452610aed8260408a2054166122ef565b60081c16600281101561109c57611062576009546001600160a01b03908116959094908615611029579084916001820191878354169286610b6260028401958d8754906040519e8f948593849263095ea7b360e01b9d8e8552840160209093929193604081019460018060a01b031681520152565b03925af1908115610f3b57610bb89a889261100c575b50898060095416915416908554918d8b6040519e8f9586948593630c34f5ed60e11b8552840160209093929193604081019460018060a01b031681520152565b03925af1988915610d74578a99610fdd575b508815610fa55787600354168a60405163d559515760e01b8152878a8201528881602481865afa9283156105a1578c978b948b938591610f6d575b50849981610e83575b94505050505085915011600014610e4e57610c29848a61228c565b966103e8808902908982041489151715610e3b57612710610c4c9104809961228c565b988b888a80610d7f575b50505089610cc8575b5050509160609886927f1b5cd914bf77ee50de90263f47d89967bbce85a4eb078d958bfee08dc0d0cde7945b805460ff191690555560408051898152602081019290925281019190915260608101869052608090a2600180556040519384528301526040820152f35b60025492546040805163a9059cbb60e01b81529183166001600160a01b0316938201938452602084018c90529093899385939091169183918f9183910103925af1908115610d7457927f1b5cd914bf77ee50de90263f47d89967bbce85a4eb078d958bfee08dc0d0cde79492610d4a8c938a9660609e91610d57575b5061233b565b9294829b50819450610c5f565b610d6e91508a3d8c11610a4057610a3181836120cd565b8e610d44565b6040513d8c823e3d90fd5b60025483546040805163a9059cbb60e01b81529187166001600160a01b031688830190815260208101949094529094859392871692849283910103925af1908115610e30578d91610e13575b5015610dd9578b888a610c56565b60405162461bcd60e51b81528083018990526013602482015272119959481d1c985b9cd9995c8819985a5b1959606a1b6044820152606490fd5b610e2a9150893d8b11610a4057610a3181836120cd565b8d610dcb565b6040513d8f823e3d90fd5b634e487b7160e01b8c526011825260248cfd5b5095508794507f1b5cd914bf77ee50de90263f47d89967bbce85a4eb078d958bfee08dc0d0cde7916060989586928198610c8b565b85829394959697989b505011600014610f63579485945b8d6002541692610ecb604051978896879586948552840160209093929193604081019460018060a01b031681520152565b03925af18015610f3b57610f46575b508960408660448a8c60035416948451958694859363d8aed14560e01b85528401528760248401525af18015610f3b57610f1d575b5092868a878d80808e610c0e565b610f359060403d604011610a08576109f681836120cd565b50610f0f565b6040513d8d823e3d90fd5b610f5c90873d8911610a4057610a3181836120cd565b508a610eda565b508c948594610e9a565b9950509250925086813d8311610f9e575b610f8881836120cd565b810103126109c1578789928d928d985138610c05565b503d610f7e565b60405162461bcd60e51b81528088018790526011602482015270139bc81e5a595b19081c9958d95a5d9959607a1b6044820152606490fd5b9098508581813d8311611005575b610ff581836120cd565b810103126109c15751978a610bca565b503d610feb565b61102290833d8511610a4057610a3181836120cd565b508c610b78565b60405162461bcd60e51b81528086018590526012602482015271165a595b1915985d5b1d081b9bdd081cd95d60721b6044820152606490fd5b60405162461bcd60e51b815280840183905260136024820152724f6e6c7920666f722052574120746f6b656e7360681b6044820152606490fd5b634e487b7160e01b875260218452602487fd5b50823461018d57602036600319011261018d5760206110ce83356124c7565b604051908152f35b83823461021c576110e636611fa2565b916110ef612180565b8184526020906006825260408520600881019081549161111160ff84166121a3565b81546001600160a01b03939061112a90851633146121e5565b611135881515612045565b600283018054808a116112c0578560035416888a60246040518094819363d559515760e01b83528d8301525afa9081156112b5578c91611288575b5061124457938796936111cc98969360019361118d8d809961228c565b80915515611237575b505001546040805163a9059cbb60e01b815233948101948552602085019590955293968794929091169284928b92849290910190565b03925af19182156109cd577f7c5e5cb62e5ed3caf3764e4b0afedfedef533e27809d43367799787ad2abcd419261120a91879161121a575b50612107565b6040519384523393a36001805580f35b6112319150833d8511610a4057610a3181836120cd565b87611204565b60ff191690558b80611196565b60405162461bcd60e51b8152808801899052601f60248201527f4f75747374616e64696e672064656274206d75737420626520726570616964006044820152606490fd5b90508881813d83116112ae575b61129f81836120cd565b810103126109c157518c611170565b503d611295565b6040513d8e823e3d90fd5b60405162461bcd60e51b8152808801899052601760248201527f496e73756666696369656e7420636f6c6c61746572616c0000000000000000006044820152606490fd5b833461018d578060031936011261018d576020604051611b588152f35b833461018d578060031936011261018d5761133a611fdb565b600080546001600160a01b0319811682556001600160a01b03167f8be0079c531659141344cd1fd0a4f28419497f9722a3daafe3b4186f6b6457e08280a380f35b833461018d57602036600319011261018d57611395611f8c565b61139d611fdb565b6001600160a01b03166113b1811515612007565b6001600160601b0360a01b600554161760055580f35b83823461021c576113d736611fa2565b6113e2929192611fdb565b6113ea612180565b82845260209060068252604085209360ff600886015461140b8282166121a3565b828852600885526114218260408a2054166122ef565b60081c1660028110156118535760010361180f5781156117cb57600254604080516323b872dd60e01b8152338782019081523060208201529182018590526001600160a01b039790929091869184918290036060019082908c908c165af19182156117c0578692611498918a916117a35750612233565b600181015460028201546040805163a9059cbb60e01b808252339682019687526020870193909352919491928892849290839003019082908d908d165af18015611645576114ec918a916117865750612107565b60035460405163d559515760e01b8152878101859052929088168684602481845afa938415610d74578a94611757575b50899380611677575b50508285111561166357611539838661228c565b976103e8808a02908a8204148a1517156116505761271061155c9104809a61228c565b97886115cb575b505050968060026040995b60ff1960088201541660088201550155875193845284840152868301528460608301528360808301527fe8809f589fb6a4a715f089d80b78e1c37443064c63cad260285284847c9fc4a360a03393a3600180558351928352820152f35b6002548454604080519586529084166001600160a01b0316928501928352602083018b90528993859392169183918e9183910103925af1908115611645578992611621849360029360409d91611628575061233b565b9299611563565b61163f91508a3d8c11610a4057610a3181836120cd565b8d610d44565b6040513d8b823e3d90fd5b634e487b7160e01b8b526011895260248bfd5b50945086604097965095806002819761156e565b91935090868187111561174a576116c39180935b8b60025416908d8c6040519687958694859363095ea7b360e01b8552840160209093929193604081019460018060a01b031681520152565b03925af18015610d745761172d575b50876003541660408560448a8d8451958694859363d8aed14560e01b85528401528760248401525af18015610d745761170f575b50918980611525565b6117279060403d604011610a08576109f681836120cd565b50611706565b61174390873d8911610a4057610a3181836120cd565b50896116d2565b6116c3915086809361168b565b9093508681813d831161177f575b61176f81836120cd565b810103126109c15751928a61151c565b503d611765565b61179d9150873d8911610a4057610a3181836120cd565b8a611204565b6117ba9150873d8911610a4057610a3181836120cd565b8a6107ec565b6040513d8a823e3d90fd5b60405162461bcd60e51b8152808501849052601b60248201527f507572636861736520616d6f756e74206d757374206265203e203000000000006044820152606490fd5b60405162461bcd60e51b8152808501849052601760248201527f4f6e6c7920666f722050726976617465204173736574730000000000000000006044820152606490fd5b634e487b7160e01b875260218552602487fd5b833461018d578060031936011261018d5760206040516103e88152f35b50823461018d5761189336611fa2565b61189b612180565b8183526020906006825260408420916008830154956118bc60ff88166121a3565b83546001600160a01b039760ff916118d7908a1633146121e5565b6118e2851515612045565b60081c166002811015611a8057611a70576003612710611908611b585b84880154612157565b04940193611917848654612226565b11611a3a578660035416803b15611a3657868091604460405180948193630ecbcdab60e01b83528b888401528960248401525af18015611a2b57611a10575b508282916119a296979861196b838854612226565b87556002546040805163a9059cbb60e01b815233948101948552602085019590955293988994929091169284928c92849290910190565b03925af1928315610a47576119e16040947f0902160bbfee2201aa09b6b057b6f0b7d0f633b2bdefc04e987882df4aefd29c9689916119f35750612233565b54908351928352820152a26001805580f35b611a0a9150843d8611610a4057610a3181836120cd565b896107ec565b82916119a29697611a2186936120b9565b9796509150611956565b6040513d89823e3d90fd5b8680fd5b6064916040519162461bcd60e51b83528201526011602482015270115e18d959591cc8131515881b1a5b5a5d607a1b6044820152fd5b60036127106119086117706118ff565b634e487b7160e01b875260218252602487fd5b833461018d578060031936011261018d576002546040516001600160a01b039091168152602090f35b833461018d578060031936011261018d576005546040516001600160a01b039091168152602090f35b83823461021c578160031936011261021c57546040516001600160a01b039091168152602090f35b50823461018d57602036600319011261018d5760206110ce8335612380565b83823461021c57602036600319011261021c57604060209260ff92358152600884522054166040519015158152f35b833461018d57602036600319011261018d57611b75611f8c565b611b7d611fdb565b6001600160a01b0316611b91811515612007565b6001600160601b0360a01b600954161760095580f35b833461018d5760a036600319011261018d57611bc1611f8c565b906024359360443590600260643510156103815760843515156084350361038157611bea612180565b6001600160a01b03938416918215611f5857611c07871515612045565b8015611f1c57604080516323b872dd60e01b815233848201908152306020828101919091529281018a905290919082908190606001038188885af19081156109cd5790611c5a918691611efd5750612107565b600754956000198714611eea5760018701600755600860405191611c7d83612086565b3383528560208401528960408401528660608401528360808401524260a08401528660c084015286818401526001610100840152611cc1606435610120850161214b565b88875260066020526040872090888451166001600160601b0360a01b908184541617835560018301908a60208701511690825416179055604084015160028301556060840151600383015560808401518683015560a0840151600583015560c084015160068301558301516007820155019061010081015115159061012083549101516002811015611ed75761ff0060ff9160081b1692169061ffff191617179055604051838152876020820152816040820152611d8460608201606435611fb8565b867f93cb2591720fa23e5a51a39bf9d35b6a4e5cb6c11beae435c41e4482f3a30d2160803393a360843580611eca575b611dc8575b60208660018055604051908152f35b602092918460a49260643515600014611ebc57612710611deb611b585b83612157565b049760055416906040519a8b968795637190caeb60e11b875233908701526024860152604485015260648401528860848401525af1938415611eaf578194611e7a575b50604084849360209660078486887ff71bf80fa0a269e5fdbe7113cc01a1ada492208f97e2857213258755d0cbbb5e985260068b52200155825191825286820152a28280808080611db9565b9093506020813d602011611ea7575b81611e96602093836120cd565b8101031261059d5751926040611e2e565b3d9150611e89565b50604051903d90823e3d90fd5b612710611deb611770611de5565b5084600554161515611db4565b634e487b7160e01b885260218652602488fd5b634e487b7160e01b855260118352602485fd5b611f16915060203d602011610a4057610a3181836120cd565b89611204565b60405162461bcd60e51b81526020818401526015602482015274056616c756174696f6e206d757374206265203e203605c1b6044820152606490fd5b60405162461bcd60e51b8152602081840152600d60248201526c24b73b30b634b2103a37b5b2b760991b6044820152606490fd5b600435906001600160a01b03821682036109c157565b60409060031901126109c1576004359060243590565b906002821015611fc55752565b634e487b7160e01b600052602160045260246000fd5b6000546001600160a01b03163303611fef57565b60405163118cdaa760e01b8152336004820152602490fd5b1561200e57565b60405162461bcd60e51b815260206004820152600f60248201526e496e76616c6964206164647265737360881b6044820152606490fd5b1561204c57565b60405162461bcd60e51b81526020600482015260126024820152710416d6f756e74206d757374206265203e20360741b6044820152606490fd5b610140810190811067ffffffffffffffff8211176120a357604052565b634e487b7160e01b600052604160045260246000fd5b67ffffffffffffffff81116120a357604052565b90601f8019910116810190811067ffffffffffffffff8211176120a357604052565b908160209103126109c1575180151581036109c15790565b1561210e57565b60405162461bcd60e51b8152602060048201526015602482015274151bdad95b881d1c985b9cd9995c8819985a5b1959605a1b6044820152606490fd5b6002821015611fc55752565b8181029291811591840414171561216a57565b634e487b7160e01b600052601160045260246000fd5b600260015414612191576002600155565b604051633ee5aeb560e01b8152600490fd5b156121aa57565b60405162461bcd60e51b8152602060048201526013602482015272506f736974696f6e206e6f742061637469766560681b6044820152606490fd5b156121ec57565b60405162461bcd60e51b81526020600482015260126024820152712737ba103837b9b4ba34b7b71037bbb732b960711b6044820152606490fd5b9190820180921161216a57565b1561223a57565b60405162461bcd60e51b81526020600482015260146024820152731554d110c81d1c985b9cd9995c8819985a5b195960621b6044820152606490fd5b91908260409103126109c1576020825192015190565b9190820391821161216a57565b603781527f506f736974696f6e206c697175696461746564202d20636f6c6c61746572616c60208201527f206865616c74682062656c6f77207468726573686f6c64000000000000000000604082015260600190565b156122f657565b60405162461bcd60e51b815260206004820152601760248201527f506f736974696f6e206e6f74206c6971756964617465640000000000000000006044820152606490fd5b1561234257565b60405162461bcd60e51b81526020600482015260166024820152751499599d5b99081d1c985b9cd9995c8819985a5b195960521b6044820152606490fd5b600081815260209160068352604082209060405161239d81612086565b60018060a01b03908184541681528160018501541686820152600284015460408201526003840154606082015261241a600860048601549560808401968752600581015460a0850152600681015460c0850152600781015460e085015201549161012060ff6101008301948181161515865260081c16910161214b565b51156124bf578490600354169160246040518094819363d559515760e01b835260048301525afa938415610a0f57839461248f575b505082156124865751906127109182810292818404149015171561247257500490565b634e487b7160e01b81526011600452602490fd5b50505060001990565b9080929450813d83116124b8575b6124a781836120cd565b8101031261021c575191388061244f565b503d61249d565b505050905090565b600090808252602090600682526040832090604051916124e683612086565b60018060a01b039283825416815283600183015416858201526002820154604082015260038201546060820152600860048301549260808301938452600581015460a0840152600681015460c0840152600781015460e084015201549061256460ff61012061010084019382861615158552019360081c168361214b565b51156126335751600281101561261f576125908592612710921560001461261657611b58905b51612157565b0492600354169160246040518094819363d559515760e01b835260048301525afa92831561260b5784936125db575b5050818111156125d6576125d3925061228c565b90565b505090565b9080929350813d8311612604575b6125f381836120cd565b8101031261038157519038806125bf565b503d6125e9565b6040513d86823e3d90fd5b6117709061258a565b634e487b7160e01b86526021600452602486fd5b50505050509056fea264697066735822122010a6ad922e841594d7f0912b74b4e28f76b176be9897548939d3dbe24a8b1ff864736f6c63430008140033","opcodes":"PUSH1 0x80 CALLVALUE PUSH3 0xF5 JUMPI PUSH1 0x1F PUSH3 0x2797 CODESIZE DUP2 SWAP1 SUB SWAP2 DUP3 ADD PUSH1 0x1F NOT AND DUP4 ADD SWAP2 PUSH1 0x1 PUSH1 0x1 PUSH1 0x40 SHL SUB DUP4 GT DUP5 DUP5 LT OR PUSH3 0xFA JUMPI DUP1 DUP5 SWAP3 PUSH1 0x40 SWAP5 DUP6 MSTORE DUP4 CODECOPY DUP2 ADD SUB SLT PUSH3 0xF5 JUMPI PUSH3 0x5A PUSH1 0x20 PUSH3 0x52 DUP4 PUSH3 0x110 JUMP JUMPDEST SWAP3 ADD PUSH3 0x110 JUMP JUMPDEST CALLER ISZERO PUSH3 0xDC JUMPI PUSH1 0x0 DUP1 SLOAD CALLER PUSH1 0x1 PUSH1 0x1 PUSH1 0xA0 SHL SUB NOT DUP1 DUP4 AND DUP3 OR DUP5 SSTORE PUSH1 0x40 MLOAD SWAP6 SWAP1 SWAP5 PUSH1 0x1 PUSH1 0x1 PUSH1 0xA0 SHL SUB SWAP5 SWAP1 SWAP4 DUP6 SWAP4 SWAP2 SWAP1 DUP5 AND SWAP1 PUSH32 0x8BE0079C531659141344CD1FD0A4F28419497F9722A3DAAFE3B4186F6B6457E0 SWAP1 DUP1 LOG3 PUSH1 0x1 DUP1 SSTORE AND DUP4 PUSH1 0x2 SLOAD AND OR PUSH1 0x2 SSTORE AND SWAP1 PUSH1 0x3 SLOAD AND OR PUSH1 0x3 SSTORE PUSH1 0x1 PUSH1 0x7 SSTORE PUSH2 0x2671 SWAP1 DUP2 PUSH3 0x126 DUP3 CODECOPY RETURN JUMPDEST PUSH1 0x40 MLOAD PUSH4 0x1E4FBDF7 PUSH1 0xE0 SHL DUP2 MSTORE PUSH1 0x0 PUSH1 0x4 DUP3 ADD MSTORE PUSH1 0x24 SWAP1 REVERT JUMPDEST PUSH1 0x0 DUP1 REVERT JUMPDEST PUSH4 0x4E487B71 PUSH1 0xE0 SHL PUSH1 0x0 MSTORE PUSH1 0x41 PUSH1 0x4 MSTORE PUSH1 0x24 PUSH1 0x0 REVERT JUMPDEST MLOAD SWAP1 PUSH1 0x1 PUSH1 0x1 PUSH1 0xA0 SHL SUB DUP3 AND DUP3 SUB PUSH3 0xF5 JUMPI JUMP INVALID PUSH1 0x80 PUSH1 0x40 MSTORE PUSH1 0x4 DUP1 CALLDATASIZE LT ISZERO PUSH2 0x13 JUMPI PUSH1 0x0 DUP1 REVERT JUMPDEST PUSH1 0x0 SWAP1 PUSH1 0xE0 SWAP1 DUP3 CALLDATALOAD DUP3 SHR SWAP2 DUP3 PUSH4 0xBAE9EF9 EQ PUSH2 0x1BA7 JUMPI DUP3 PUSH4 0x137C3F69 EQ PUSH2 0x1B5B JUMPI DUP3 PUSH4 0x16EF1729 EQ PUSH2 0x1B2C JUMPI DUP3 PUSH4 0x17845C69 EQ PUSH2 0x1B0D JUMPI DUP3 PUSH4 0x1E77CEDA EQ PUSH2 0x1AE5 JUMPI DUP3 PUSH4 0x2BE04392 EQ PUSH2 0x1ABC JUMPI DUP3 PUSH4 0x3E413BEE EQ PUSH2 0x1A93 JUMPI DUP3 PUSH4 0x47F6C760 EQ PUSH2 0x1883 JUMPI DUP3 PUSH4 0x518E8DFC EQ PUSH2 0x1866 JUMPI DUP3 PUSH4 0x5403BC4A EQ PUSH2 0x13C7 JUMPI DUP3 PUSH4 0x6C320CB0 EQ PUSH2 0x137B JUMPI DUP3 PUSH4 0x715018A6 EQ PUSH2 0x1321 JUMPI DUP3 PUSH4 0x761C5F0A EQ PUSH2 0x1304 JUMPI DUP3 PUSH4 0x767A7B05 EQ PUSH2 0x10D6 JUMPI DUP3 PUSH4 0x7B5210D8 EQ PUSH2 0x10AF JUMPI DUP3 PUSH4 0x837C2A61 EQ PUSH2 0xA90 JUMPI DUP3 PUSH4 0x899346C7 EQ PUSH2 0xA72 JUMPI DUP4 DUP4 PUSH4 0x8A700B53 EQ PUSH2 0x73E JUMPI POP DUP3 PUSH4 0x8DA5CB5B EQ PUSH2 0x717 JUMPI DUP3 PUSH4 0x90A8AE9B EQ PUSH2 0x6FA JUMPI DUP3 PUSH4 0x99FBAB88 EQ PUSH2 0x655 JUMPI DUP3 PUSH4 0xA7F8A5E2 EQ PUSH2 0x62C JUMPI DUP3 PUSH4 0xCDDDD4E5 EQ PUSH2 0x408 JUMPI DUP3 PUSH4 0xD79873B9 EQ PUSH2 0x3EB JUMPI DUP3 PUSH4 0xE1F1C4A7 EQ PUSH2 0x3CE JUMPI DUP3 PUSH4 0xE2DC3666 EQ PUSH2 0x385 JUMPI DUP3 PUSH4 0xEB02C301 EQ PUSH2 0x220 JUMPI POP DUP2 PUSH4 0xF2FDE38B EQ PUSH2 0x190 JUMPI POP PUSH4 0xF416FC1C EQ PUSH2 0x165 JUMPI PUSH1 0x0 DUP1 REVERT JUMPDEST CALLVALUE PUSH2 0x18D JUMPI DUP1 PUSH1 0x3 NOT CALLDATASIZE ADD SLT PUSH2 0x18D JUMPI PUSH1 0x3 SLOAD PUSH1 0x40 MLOAD PUSH1 0x1 PUSH1 0x1 PUSH1 0xA0 SHL SUB SWAP1 SWAP2 AND DUP2 MSTORE PUSH1 0x20 SWAP1 RETURN JUMPDEST DUP1 REVERT JUMPDEST SWAP1 POP CALLVALUE PUSH2 0x21C JUMPI PUSH1 0x20 CALLDATASIZE PUSH1 0x3 NOT ADD SLT PUSH2 0x21C JUMPI PUSH2 0x1AB PUSH2 0x1F8C JUMP JUMPDEST PUSH2 0x1B3 PUSH2 0x1FDB JUMP JUMPDEST PUSH1 0x1 PUSH1 0x1 PUSH1 0xA0 SHL SUB SWAP1 DUP2 AND SWAP2 DUP3 ISZERO PUSH2 0x204 JUMPI POP PUSH1 0x0 SLOAD DUP3 PUSH1 0x1 PUSH1 0x1 PUSH1 0x60 SHL SUB PUSH1 0xA0 SHL DUP3 AND OR PUSH1 0x0 SSTORE AND PUSH32 0x8BE0079C531659141344CD1FD0A4F28419497F9722A3DAAFE3B4186F6B6457E0 PUSH1 0x0 DUP1 LOG3 DUP1 RETURN JUMPDEST PUSH1 0x40 MLOAD PUSH4 0x1E4FBDF7 PUSH1 0xE0 SHL DUP2 MSTORE SWAP1 DUP2 ADD DUP5 SWAP1 MSTORE PUSH1 0x24 SWAP1 REVERT JUMPDEST POP DUP1 REVERT JUMPDEST SWAP2 POP CALLVALUE PUSH2 0x381 JUMPI PUSH1 0x20 CALLDATASIZE PUSH1 0x3 NOT ADD SLT PUSH2 0x381 JUMPI PUSH2 0x120 PUSH2 0x37F SWAP2 PUSH2 0x140 SWAP5 PUSH2 0x30C PUSH1 0xFF PUSH1 0x8 PUSH1 0x40 DUP1 MLOAD SWAP5 PUSH2 0x253 DUP7 PUSH2 0x2086 JUMP JUMPDEST DUP1 DUP7 MSTORE DUP1 PUSH1 0x20 DUP8 ADD MSTORE DUP1 DUP3 DUP8 ADD MSTORE DUP1 PUSH1 0x60 DUP8 ADD MSTORE DUP1 PUSH1 0x80 DUP8 ADD MSTORE DUP1 PUSH1 0xA0 DUP8 ADD MSTORE DUP1 PUSH1 0xC0 DUP8 ADD MSTORE DUP1 DUP11 DUP8 ADD MSTORE DUP1 DUP9 PUSH2 0x100 SWAP8 DUP3 DUP10 DUP3 ADD MSTORE ADD MSTORE DUP7 CALLDATALOAD DUP2 MSTORE PUSH1 0x6 PUSH1 0x20 MSTORE KECCAK256 PUSH1 0x40 MLOAD SWAP6 PUSH2 0x2A2 DUP8 PUSH2 0x2086 JUMP JUMPDEST DUP2 SLOAD PUSH1 0x1 PUSH1 0x1 PUSH1 0xA0 SHL SUB SWAP1 DUP2 AND DUP9 MSTORE PUSH1 0x1 DUP4 ADD SLOAD AND PUSH1 0x20 DUP9 ADD MSTORE PUSH1 0x2 DUP3 ADD SLOAD PUSH1 0x40 DUP9 ADD MSTORE PUSH1 0x3 DUP3 ADD SLOAD PUSH1 0x60 DUP9 ADD MSTORE DUP2 ADD SLOAD PUSH1 0x80 DUP8 ADD MSTORE PUSH1 0x5 DUP2 ADD SLOAD PUSH1 0xA0 DUP8 ADD MSTORE PUSH1 0x6 DUP2 ADD SLOAD PUSH1 0xC0 DUP8 ADD MSTORE PUSH1 0x7 DUP2 ADD SLOAD DUP10 DUP8 ADD MSTORE ADD SLOAD DUP2 DUP2 AND ISZERO ISZERO DUP5 DUP7 ADD MSTORE PUSH1 0x8 SHR AND DUP5 DUP5 ADD PUSH2 0x214B JUMP JUMPDEST PUSH1 0x40 MLOAD SWAP5 PUSH1 0x1 DUP1 PUSH1 0xA0 SHL SUB DUP4 MLOAD AND DUP7 MSTORE PUSH1 0x1 DUP1 PUSH1 0xA0 SHL SUB PUSH1 0x20 DUP5 ADD MLOAD AND PUSH1 0x20 DUP8 ADD MSTORE PUSH1 0x40 DUP4 ADD MLOAD PUSH1 0x40 DUP8 ADD MSTORE PUSH1 0x60 DUP4 ADD MLOAD PUSH1 0x60 DUP8 ADD MSTORE PUSH1 0x80 DUP4 ADD MLOAD PUSH1 0x80 DUP8 ADD MSTORE PUSH1 0xA0 DUP4 ADD MLOAD PUSH1 0xA0 DUP8 ADD MSTORE PUSH1 0xC0 DUP4 ADD MLOAD PUSH1 0xC0 DUP8 ADD MSTORE DUP1 DUP4 ADD MLOAD SWAP1 DUP7 ADD MSTORE DUP1 DUP3 ADD MLOAD ISZERO ISZERO SWAP1 DUP6 ADD MSTORE ADD MLOAD PUSH2 0x120 DUP4 ADD SWAP1 PUSH2 0x1FB8 JUMP JUMPDEST RETURN JUMPDEST DUP3 DUP1 REVERT JUMPDEST DUP4 DUP3 CALLVALUE PUSH2 0x21C JUMPI PUSH1 0x20 CALLDATASIZE PUSH1 0x3 NOT ADD SLT PUSH2 0x21C JUMPI PUSH2 0x3A0 PUSH2 0x1F8C JUMP JUMPDEST PUSH2 0x3A8 PUSH2 0x1FDB JUMP JUMPDEST PUSH1 0x1 PUSH1 0x1 PUSH1 0xA0 SHL SUB AND PUSH2 0x3BC DUP2 ISZERO ISZERO PUSH2 0x2007 JUMP JUMPDEST DUP2 SLOAD PUSH1 0x1 PUSH1 0x1 PUSH1 0xA0 SHL SUB NOT AND OR SWAP1 SSTORE DUP1 RETURN JUMPDEST DUP4 CALLVALUE PUSH2 0x18D JUMPI DUP1 PUSH1 0x3 NOT CALLDATASIZE ADD SLT PUSH2 0x18D JUMPI PUSH1 0x20 PUSH1 0x40 MLOAD PUSH2 0x2710 DUP2 MSTORE RETURN JUMPDEST DUP4 CALLVALUE PUSH2 0x18D JUMPI DUP1 PUSH1 0x3 NOT CALLDATASIZE ADD SLT PUSH2 0x18D JUMPI PUSH1 0x20 PUSH1 0x40 MLOAD PUSH2 0x1770 DUP2 MSTORE RETURN JUMPDEST DUP4 DUP3 CALLVALUE PUSH2 0x21C JUMPI PUSH1 0x20 SWAP1 DUP2 PUSH1 0x3 NOT CALLDATASIZE ADD SLT PUSH2 0x381 JUMPI DUP1 CALLDATALOAD SWAP2 PUSH2 0x428 PUSH2 0x1FDB JUMP JUMPDEST PUSH2 0x430 PUSH2 0x2180 JUMP JUMPDEST DUP3 DUP5 MSTORE PUSH1 0x6 DUP2 MSTORE PUSH1 0x40 DUP5 KECCAK256 SWAP2 PUSH2 0x44C PUSH1 0xFF PUSH1 0x8 DUP6 ADD SLOAD AND PUSH2 0x21A3 JUMP JUMPDEST DUP4 DUP6 MSTORE PUSH1 0x8 DUP3 MSTORE PUSH1 0xFF PUSH1 0x40 DUP7 KECCAK256 SLOAD AND PUSH2 0x5F1 JUMPI PUSH2 0x2CEC PUSH2 0x46B DUP6 PUSH2 0x2380 JUMP JUMPDEST LT ISZERO PUSH2 0x5B9 JUMPI DUP4 DUP6 MSTORE PUSH1 0x8 DUP3 MSTORE PUSH1 0x40 DUP6 KECCAK256 DUP1 SLOAD PUSH1 0xFF NOT AND PUSH1 0x1 OR SWAP1 SSTORE TIMESTAMP PUSH1 0x6 DUP5 ADD SSTORE PUSH1 0x5 SLOAD PUSH1 0x1 PUSH1 0x1 PUSH1 0xA0 SHL SUB AND SWAP3 DUP6 SWAP2 SWAP1 DUP5 ISZERO ISZERO DUP1 PUSH2 0x5AC JUMPI JUMPDEST PUSH2 0x4DD JUMPI JUMPDEST DUP3 DUP7 PUSH32 0x77493833E3B7F392BD715FFDC3ABD21434418E6889264880074C970E1B5E61C8 DUP7 PUSH1 0x40 MLOAD TIMESTAMP DUP2 MSTORE LOG2 PUSH1 0x1 DUP1 SSTORE DUP1 RETURN JUMPDEST PUSH1 0x7 ADD SWAP4 DUP5 SLOAD SWAP2 DUP2 EXTCODESIZE ISZERO PUSH2 0x59D JUMPI DUP4 SWAP2 PUSH1 0x40 MLOAD SWAP4 DUP5 SWAP3 PUSH4 0x67CC7CFF PUSH1 0xE0 SHL DUP5 MSTORE DUP4 ADD MSTORE PUSH1 0x40 PUSH1 0x24 DUP4 ADD MSTORE DUP2 DUP4 DUP2 PUSH2 0x516 PUSH1 0x44 DUP3 ADD PUSH2 0x2299 JUMP JUMPDEST SUB SWAP3 GAS CALL DUP1 ISZERO PUSH2 0x5A1 JUMPI PUSH2 0x589 JUMPI JUMPDEST POP POP PUSH32 0x77493833E3B7F392BD715FFDC3ABD21434418E6889264880074C970E1B5E61C8 SWAP2 SLOAD DUP4 PUSH32 0xD89109F5414F7B5415E9A3E20B055F6A8CC38B81F34D24EB5AE3512086356A8A PUSH1 0x40 MLOAD DUP5 DUP2 MSTORE DUP1 PUSH2 0x57E DUP7 DUP3 ADD PUSH2 0x2299 JUMP JUMPDEST SUB SWAP1 LOG3 DUP4 DUP6 DUP1 PUSH2 0x4AB JUMP JUMPDEST PUSH2 0x592 SWAP1 PUSH2 0x20B9 JUMP JUMPDEST PUSH2 0x59D JUMPI DUP4 DUP6 PUSH2 0x525 JUMP JUMPDEST DUP4 DUP1 REVERT JUMPDEST PUSH1 0x40 MLOAD RETURNDATASIZE DUP5 DUP3 RETURNDATACOPY RETURNDATASIZE SWAP1 REVERT JUMPDEST POP PUSH1 0x7 DUP2 ADD SLOAD ISZERO ISZERO PUSH2 0x4A6 JUMP JUMPDEST PUSH1 0x64 SWAP2 PUSH1 0x40 MLOAD SWAP2 PUSH3 0x461BCD PUSH1 0xE5 SHL DUP4 MSTORE DUP3 ADD MSTORE PUSH1 0x13 PUSH1 0x24 DUP3 ADD MSTORE PUSH19 0x506F736974696F6E206973206865616C746879 PUSH1 0x68 SHL PUSH1 0x44 DUP3 ADD MSTORE REVERT JUMPDEST PUSH1 0x64 SWAP2 PUSH1 0x40 MLOAD SWAP2 PUSH3 0x461BCD PUSH1 0xE5 SHL DUP4 MSTORE DUP3 ADD MSTORE PUSH1 0x16 PUSH1 0x24 DUP3 ADD MSTORE PUSH22 0x20B63932B0B23C9034B7103634B8BAB4B230BA34B7B7 PUSH1 0x51 SHL PUSH1 0x44 DUP3 ADD MSTORE REVERT JUMPDEST DUP4 CALLVALUE PUSH2 0x18D JUMPI DUP1 PUSH1 0x3 NOT CALLDATASIZE ADD SLT PUSH2 0x18D JUMPI PUSH1 0x9 SLOAD PUSH1 0x40 MLOAD PUSH1 0x1 PUSH1 0x1 PUSH1 0xA0 SHL SUB SWAP1 SWAP2 AND DUP2 MSTORE PUSH1 0x20 SWAP1 RETURN JUMPDEST SWAP2 POP CALLVALUE PUSH2 0x381 JUMPI PUSH1 0x20 CALLDATASIZE PUSH1 0x3 NOT ADD SLT PUSH2 0x381 JUMPI DUP1 PUSH1 0x40 PUSH2 0x140 SWAP5 PUSH2 0x37F SWAP4 CALLDATALOAD DUP2 MSTORE PUSH1 0x6 PUSH1 0x20 MSTORE KECCAK256 PUSH1 0x1 DUP1 PUSH1 0xA0 SHL SUB SWAP4 DUP5 DUP3 SLOAD AND SWAP5 PUSH1 0x1 DUP4 ADD SLOAD AND SWAP3 PUSH1 0x2 DUP4 ADD SLOAD SWAP1 PUSH1 0x3 DUP5 ADD SLOAD SWAP1 DUP5 ADD SLOAD PUSH1 0x5 DUP6 ADD SLOAD SWAP2 PUSH1 0x6 DUP7 ADD SLOAD SWAP4 PUSH1 0x8 PUSH1 0x7 DUP9 ADD SLOAD SWAP8 ADD SLOAD SWAP8 PUSH1 0x40 MLOAD SWAP11 DUP12 MSTORE PUSH1 0x20 DUP12 ADD MSTORE PUSH1 0x40 DUP11 ADD MSTORE PUSH1 0x60 DUP10 ADD MSTORE PUSH1 0x80 DUP9 ADD MSTORE PUSH1 0xA0 DUP8 ADD MSTORE PUSH1 0xC0 DUP7 ADD MSTORE DUP5 ADD MSTORE PUSH1 0xFF DUP2 AND ISZERO ISZERO PUSH2 0x100 DUP5 ADD MSTORE PUSH1 0xFF PUSH2 0x120 DUP5 ADD SWAP2 PUSH1 0x8 SHR AND PUSH2 0x1FB8 JUMP JUMPDEST DUP4 CALLVALUE PUSH2 0x18D JUMPI DUP1 PUSH1 0x3 NOT CALLDATASIZE ADD SLT PUSH2 0x18D JUMPI PUSH1 0x20 PUSH1 0x40 MLOAD PUSH2 0x2CEC DUP2 MSTORE RETURN JUMPDEST DUP4 CALLVALUE PUSH2 0x18D JUMPI DUP1 PUSH1 0x3 NOT CALLDATASIZE ADD SLT PUSH2 0x18D JUMPI SLOAD PUSH1 0x40 MLOAD PUSH1 0x1 PUSH1 0x1 PUSH1 0xA0 SHL SUB SWAP1 SWAP2 AND DUP2 MSTORE PUSH1 0x20 SWAP1 RETURN JUMPDEST DUP1 DUP4 CALLVALUE PUSH2 0xA6F JUMPI PUSH2 0x74E CALLDATASIZE PUSH2 0x1FA2 JUMP JUMPDEST PUSH2 0x759 SWAP4 SWAP2 SWAP4 PUSH2 0x2180 JUMP JUMPDEST DUP4 DUP3 MSTORE PUSH1 0x20 SWAP3 PUSH1 0x6 DUP5 MSTORE PUSH1 0x40 DUP4 KECCAK256 SWAP1 PUSH2 0x778 PUSH1 0xFF PUSH1 0x8 DUP5 ADD SLOAD AND PUSH2 0x21A3 JUMP JUMPDEST DUP2 SLOAD PUSH1 0x1 PUSH1 0x1 PUSH1 0xA0 SHL SUB SWAP3 SWAP1 PUSH2 0x791 SWAP1 DUP5 AND CALLER EQ PUSH2 0x21E5 JUMP JUMPDEST PUSH2 0x79C DUP5 ISZERO ISZERO PUSH2 0x2045 JUMP JUMPDEST PUSH1 0x2 SLOAD PUSH1 0x40 DUP1 MLOAD PUSH4 0x23B872DD PUSH1 0xE0 SHL DUP2 MSTORE CALLER DUP2 DUP7 ADD SWAP1 DUP2 MSTORE ADDRESS PUSH1 0x20 DUP3 ADD MSTORE SWAP2 DUP3 ADD DUP8 SWAP1 MSTORE SWAP4 SWAP2 DUP9 SWAP2 DUP6 SWAP2 DUP8 AND SWAP1 DUP3 SWAP1 DUP11 SWAP1 DUP3 SWAP1 PUSH1 0x60 ADD SUB SWAP3 GAS CALL SWAP3 DUP4 ISZERO PUSH2 0xA47 JUMPI PUSH2 0x82F SWAP4 PUSH2 0x7F2 SWAP2 DUP9 SWAP2 PUSH2 0xA52 JUMPI JUMPDEST POP PUSH2 0x2233 JUMP JUMPDEST DUP7 DUP6 DUP6 PUSH1 0x2 SLOAD AND DUP7 PUSH1 0x3 SLOAD AND DUP10 PUSH1 0x40 MLOAD DUP1 SWAP9 DUP2 SWAP6 DUP3 SWAP5 PUSH4 0x95EA7B3 PUSH1 0xE0 SHL DUP5 MSTORE DUP10 DUP5 ADD PUSH1 0x20 SWAP1 SWAP4 SWAP3 SWAP2 SWAP4 PUSH1 0x40 DUP2 ADD SWAP5 PUSH1 0x1 DUP1 PUSH1 0xA0 SHL SUB AND DUP2 MSTORE ADD MSTORE JUMP JUMPDEST SUB SWAP3 GAS CALL SWAP3 DUP4 ISZERO PUSH2 0xA47 JUMPI DUP7 SWAP4 PUSH2 0xA1A JUMPI JUMPDEST POP PUSH1 0x40 DUP5 PUSH1 0x3 SLOAD AND PUSH1 0x44 DUP3 MLOAD DUP1 SWAP10 DUP2 SWAP4 PUSH4 0xD8AED145 PUSH1 0xE0 SHL DUP4 MSTORE DUP14 DUP8 DUP5 ADD MSTORE DUP11 PUSH1 0x24 DUP5 ADD MSTORE GAS CALL SWAP4 DUP5 ISZERO PUSH2 0xA0F JUMPI DUP4 SWAP7 DUP5 SWAP6 PUSH2 0x9D8 JUMPI JUMPDEST POP PUSH1 0x3 DUP4 ADD PUSH2 0x888 DUP9 DUP3 SLOAD PUSH2 0x228C JUMP JUMPDEST SWAP1 SSTORE DUP1 PUSH1 0x3 SLOAD AND DUP9 DUP11 PUSH1 0x24 PUSH1 0x40 MLOAD DUP1 SWAP5 DUP2 SWAP4 PUSH4 0xD5595157 PUSH1 0xE0 SHL DUP4 MSTORE DUP9 DUP4 ADD MSTORE GAS STATICCALL SWAP9 DUP10 ISZERO PUSH2 0x9CD JUMPI DUP6 SWAP10 PUSH2 0x995 JUMPI JUMPDEST POP POP PUSH1 0x5 SLOAD AND SWAP2 DUP3 ISZERO ISZERO DUP1 PUSH2 0x988 JUMPI JUMPDEST PUSH2 0x924 JUMPI JUMPDEST POP POP POP POP PUSH32 0x91F28E20F26321CF8A71CADBEFE77CFE670EE70B71A621E3CE3FB1B57E19DFAA SWAP4 PUSH2 0x91A SWAP2 PUSH1 0x40 MLOAD SWAP5 DUP6 SWAP5 DUP6 SWAP1 SWAP5 SWAP4 SWAP3 PUSH1 0x60 SWAP3 PUSH1 0x80 DUP4 ADD SWAP7 DUP4 MSTORE PUSH1 0x20 DUP4 ADD MSTORE PUSH1 0x40 DUP3 ADD MSTORE ADD MSTORE JUMP JUMPDEST SUB SWAP1 LOG2 PUSH1 0x1 DUP1 SSTORE DUP1 RETURN JUMPDEST PUSH1 0x7 ADD SLOAD DUP3 EXTCODESIZE ISZERO PUSH2 0x59D JUMPI PUSH1 0x84 DUP5 SWAP3 DUP4 PUSH1 0x40 MLOAD SWAP6 DUP7 SWAP5 DUP6 SWAP4 PUSH4 0xF2F6818F PUSH1 0xE0 SHL DUP6 MSTORE DUP5 ADD MSTORE DUP10 PUSH1 0x24 DUP5 ADD MSTORE PUSH1 0x1 PUSH1 0x44 DUP5 ADD MSTORE DUP2 PUSH1 0x64 DUP5 ADD MSTORE GAS CALL DUP1 ISZERO PUSH2 0x5A1 JUMPI PUSH2 0x970 JUMPI JUMPDEST DUP1 DUP1 PUSH2 0x8CD JUMP JUMPDEST PUSH2 0x979 SWAP1 PUSH2 0x20B9 JUMP JUMPDEST PUSH2 0x984 JUMPI DUP6 DUP8 PUSH2 0x969 JUMP JUMPDEST DUP6 DUP1 REVERT JUMPDEST POP PUSH1 0x7 DUP2 ADD SLOAD ISZERO ISZERO PUSH2 0x8C8 JUMP JUMPDEST DUP1 SWAP3 SWAP10 POP DUP2 SWAP6 POP RETURNDATASIZE DUP4 GT PUSH2 0x9C6 JUMPI JUMPDEST PUSH2 0x9AE DUP2 DUP4 PUSH2 0x20CD JUMP JUMPDEST DUP2 ADD SUB SLT PUSH2 0x9C1 JUMPI DUP9 SWAP3 MLOAD SWAP7 DUP11 DUP1 PUSH2 0x8B8 JUMP JUMPDEST PUSH1 0x0 DUP1 REVERT JUMPDEST POP RETURNDATASIZE PUSH2 0x9A4 JUMP JUMPDEST PUSH1 0x40 MLOAD RETURNDATASIZE DUP8 DUP3 RETURNDATACOPY RETURNDATASIZE SWAP1 REVERT JUMPDEST SWAP1 SWAP5 POP PUSH2 0x9FE SWAP2 SWAP7 POP PUSH1 0x40 RETURNDATASIZE PUSH1 0x40 GT PUSH2 0xA08 JUMPI JUMPDEST PUSH2 0x9F6 DUP2 DUP4 PUSH2 0x20CD JUMP JUMPDEST DUP2 ADD SWAP1 PUSH2 0x2276 JUMP JUMPDEST SWAP6 SWAP1 SWAP6 SWAP4 DUP11 PUSH2 0x878 JUMP JUMPDEST POP RETURNDATASIZE PUSH2 0x9EC JUMP JUMPDEST PUSH1 0x40 MLOAD RETURNDATASIZE DUP6 DUP3 RETURNDATACOPY RETURNDATASIZE SWAP1 REVERT JUMPDEST PUSH2 0xA39 SWAP1 DUP9 RETURNDATASIZE DUP11 GT PUSH2 0xA40 JUMPI JUMPDEST PUSH2 0xA31 DUP2 DUP4 PUSH2 0x20CD JUMP JUMPDEST DUP2 ADD SWAP1 PUSH2 0x20EF JUMP JUMPDEST POP DUP10 PUSH2 0x841 JUMP JUMPDEST POP RETURNDATASIZE PUSH2 0xA27 JUMP JUMPDEST PUSH1 0x40 MLOAD RETURNDATASIZE DUP9 DUP3 RETURNDATACOPY RETURNDATASIZE SWAP1 REVERT JUMPDEST PUSH2 0xA69 SWAP2 POP DUP10 RETURNDATASIZE DUP12 GT PUSH2 0xA40 JUMPI PUSH2 0xA31 DUP2 DUP4 PUSH2 0x20CD JUMP JUMPDEST DUP12 PUSH2 0x7EC JUMP JUMPDEST POP REVERT JUMPDEST DUP4 CALLVALUE PUSH2 0x18D JUMPI DUP1 PUSH1 0x3 NOT CALLDATASIZE ADD SLT PUSH2 0x18D JUMPI PUSH1 0x20 PUSH1 0x7 SLOAD PUSH1 0x40 MLOAD SWAP1 DUP2 MSTORE RETURN JUMPDEST DUP4 DUP3 CALLVALUE PUSH2 0x21C JUMPI PUSH1 0x20 DUP1 PUSH1 0x3 NOT CALLDATASIZE ADD SLT PUSH2 0x381 JUMPI DUP2 CALLDATALOAD SWAP2 PUSH2 0xAAF PUSH2 0x1FDB JUMP JUMPDEST PUSH2 0xAB7 PUSH2 0x2180 JUMP JUMPDEST DUP3 DUP5 MSTORE PUSH1 0x6 DUP3 MSTORE PUSH1 0x40 DUP5 KECCAK256 SWAP2 PUSH1 0x8 DUP4 ADD SWAP4 PUSH1 0xFF DUP6 SLOAD PUSH2 0xAD7 DUP3 DUP3 AND PUSH2 0x21A3 JUMP JUMPDEST DUP3 DUP9 MSTORE PUSH1 0x8 DUP5 MSTORE PUSH2 0xAED DUP3 PUSH1 0x40 DUP11 KECCAK256 SLOAD AND PUSH2 0x22EF JUMP JUMPDEST PUSH1 0x8 SHR AND PUSH1 0x2 DUP2 LT ISZERO PUSH2 0x109C JUMPI PUSH2 0x1062 JUMPI PUSH1 0x9 SLOAD PUSH1 0x1 PUSH1 0x1 PUSH1 0xA0 SHL SUB SWAP1 DUP2 AND SWAP6 SWAP1 SWAP5 SWAP1 DUP7 ISZERO PUSH2 0x1029 JUMPI SWAP1 DUP5 SWAP2 PUSH1 0x1 DUP3 ADD SWAP2 DUP8 DUP4 SLOAD AND SWAP3 DUP7 PUSH2 0xB62 PUSH1 0x2 DUP5 ADD SWAP6 DUP14 DUP8 SLOAD SWAP1 PUSH1 0x40 MLOAD SWAP15 DUP16 SWAP5 DUP6 SWAP4 DUP5 SWAP3 PUSH4 0x95EA7B3 PUSH1 0xE0 SHL SWAP14 DUP15 DUP6 MSTORE DUP5 ADD PUSH1 0x20 SWAP1 SWAP4 SWAP3 SWAP2 SWAP4 PUSH1 0x40 DUP2 ADD SWAP5 PUSH1 0x1 DUP1 PUSH1 0xA0 SHL SUB AND DUP2 MSTORE ADD MSTORE JUMP JUMPDEST SUB SWAP3 GAS CALL SWAP1 DUP2 ISZERO PUSH2 0xF3B JUMPI PUSH2 0xBB8 SWAP11 DUP9 SWAP3 PUSH2 0x100C JUMPI JUMPDEST POP DUP10 DUP1 PUSH1 0x9 SLOAD AND SWAP2 SLOAD AND SWAP1 DUP6 SLOAD SWAP2 DUP14 DUP12 PUSH1 0x40 MLOAD SWAP15 DUP16 SWAP6 DUP7 SWAP5 DUP6 SWAP4 PUSH4 0xC34F5ED PUSH1 0xE1 SHL DUP6 MSTORE DUP5 ADD PUSH1 0x20 SWAP1 SWAP4 SWAP3 SWAP2 SWAP4 PUSH1 0x40 DUP2 ADD SWAP5 PUSH1 0x1 DUP1 PUSH1 0xA0 SHL SUB AND DUP2 MSTORE ADD MSTORE JUMP JUMPDEST SUB SWAP3 GAS CALL SWAP9 DUP10 ISZERO PUSH2 0xD74 JUMPI DUP11 SWAP10 PUSH2 0xFDD JUMPI JUMPDEST POP DUP9 ISZERO PUSH2 0xFA5 JUMPI DUP8 PUSH1 0x3 SLOAD AND DUP11 PUSH1 0x40 MLOAD PUSH4 0xD5595157 PUSH1 0xE0 SHL DUP2 MSTORE DUP8 DUP11 DUP3 ADD MSTORE DUP9 DUP2 PUSH1 0x24 DUP2 DUP7 GAS STATICCALL SWAP3 DUP4 ISZERO PUSH2 0x5A1 JUMPI DUP13 SWAP8 DUP12 SWAP5 DUP12 SWAP4 DUP6 SWAP2 PUSH2 0xF6D JUMPI JUMPDEST POP DUP5 SWAP10 DUP2 PUSH2 0xE83 JUMPI JUMPDEST SWAP5 POP POP POP POP POP DUP6 SWAP2 POP GT PUSH1 0x0 EQ PUSH2 0xE4E JUMPI PUSH2 0xC29 DUP5 DUP11 PUSH2 0x228C JUMP JUMPDEST SWAP7 PUSH2 0x3E8 DUP1 DUP10 MUL SWAP1 DUP10 DUP3 DIV EQ DUP10 ISZERO OR ISZERO PUSH2 0xE3B JUMPI PUSH2 0x2710 PUSH2 0xC4C SWAP2 DIV DUP1 SWAP10 PUSH2 0x228C JUMP JUMPDEST SWAP9 DUP12 DUP9 DUP11 DUP1 PUSH2 0xD7F JUMPI JUMPDEST POP POP POP DUP10 PUSH2 0xCC8 JUMPI JUMPDEST POP POP POP SWAP2 PUSH1 0x60 SWAP9 DUP7 SWAP3 PUSH32 0x1B5CD914BF77EE50DE90263F47D89967BBCE85A4EB078D958BFEE08DC0D0CDE7 SWAP5 JUMPDEST DUP1 SLOAD PUSH1 0xFF NOT AND SWAP1 SSTORE SSTORE PUSH1 0x40 DUP1 MLOAD DUP10 DUP2 MSTORE PUSH1 0x20 DUP2 ADD SWAP3 SWAP1 SWAP3 MSTORE DUP2 ADD SWAP2 SWAP1 SWAP2 MSTORE PUSH1 0x60 DUP2 ADD DUP7 SWAP1 MSTORE PUSH1 0x80 SWAP1 LOG2 PUSH1 0x1 DUP1 SSTORE PUSH1 0x40 MLOAD SWAP4 DUP5 MSTORE DUP4 ADD MSTORE PUSH1 0x40 DUP3 ADD MSTORE RETURN JUMPDEST PUSH1 0x2 SLOAD SWAP3 SLOAD PUSH1 0x40 DUP1 MLOAD PUSH4 0xA9059CBB PUSH1 0xE0 SHL DUP2 MSTORE SWAP2 DUP4 AND PUSH1 0x1 PUSH1 0x1 PUSH1 0xA0 SHL SUB AND SWAP4 DUP3 ADD SWAP4 DUP5 MSTORE PUSH1 0x20 DUP5 ADD DUP13 SWAP1 MSTORE SWAP1 SWAP4 DUP10 SWAP4 DUP6 SWAP4 SWAP1 SWAP2 AND SWAP2 DUP4 SWAP2 DUP16 SWAP2 DUP4 SWAP2 ADD SUB SWAP3 GAS CALL SWAP1 DUP2 ISZERO PUSH2 0xD74 JUMPI SWAP3 PUSH32 0x1B5CD914BF77EE50DE90263F47D89967BBCE85A4EB078D958BFEE08DC0D0CDE7 SWAP5 SWAP3 PUSH2 0xD4A DUP13 SWAP4 DUP11 SWAP7 PUSH1 0x60 SWAP15 SWAP2 PUSH2 0xD57 JUMPI JUMPDEST POP PUSH2 0x233B JUMP JUMPDEST SWAP3 SWAP5 DUP3 SWAP12 POP DUP2 SWAP5 POP PUSH2 0xC5F JUMP JUMPDEST PUSH2 0xD6E SWAP2 POP DUP11 RETURNDATASIZE DUP13 GT PUSH2 0xA40 JUMPI PUSH2 0xA31 DUP2 DUP4 PUSH2 0x20CD JUMP JUMPDEST DUP15 PUSH2 0xD44 JUMP JUMPDEST PUSH1 0x40 MLOAD RETURNDATASIZE DUP13 DUP3 RETURNDATACOPY RETURNDATASIZE SWAP1 REVERT JUMPDEST PUSH1 0x2 SLOAD DUP4 SLOAD PUSH1 0x40 DUP1 MLOAD PUSH4 0xA9059CBB PUSH1 0xE0 SHL DUP2 MSTORE SWAP2 DUP8 AND PUSH1 0x1 PUSH1 0x1 PUSH1 0xA0 SHL SUB AND DUP9 DUP4 ADD SWAP1 DUP2 MSTORE PUSH1 0x20 DUP2 ADD SWAP5 SWAP1 SWAP5 MSTORE SWAP1 SWAP5 DUP6 SWAP4 SWAP3 DUP8 AND SWAP3 DUP5 SWAP3 DUP4 SWAP2 ADD SUB SWAP3 GAS CALL SWAP1 DUP2 ISZERO PUSH2 0xE30 JUMPI DUP14 SWAP2 PUSH2 0xE13 JUMPI JUMPDEST POP ISZERO PUSH2 0xDD9 JUMPI DUP12 DUP9 DUP11 PUSH2 0xC56 JUMP JUMPDEST PUSH1 0x40 MLOAD PUSH3 0x461BCD PUSH1 0xE5 SHL DUP2 MSTORE DUP1 DUP4 ADD DUP10 SWAP1 MSTORE PUSH1 0x13 PUSH1 0x24 DUP3 ADD MSTORE PUSH19 0x119959481D1C985B9CD9995C8819985A5B1959 PUSH1 0x6A SHL PUSH1 0x44 DUP3 ADD MSTORE PUSH1 0x64 SWAP1 REVERT JUMPDEST PUSH2 0xE2A SWAP2 POP DUP10 RETURNDATASIZE DUP12 GT PUSH2 0xA40 JUMPI PUSH2 0xA31 DUP2 DUP4 PUSH2 0x20CD JUMP JUMPDEST DUP14 PUSH2 0xDCB JUMP JUMPDEST PUSH1 0x40 MLOAD RETURNDATASIZE DUP16 DUP3 RETURNDATACOPY RETURNDATASIZE SWAP1 REVERT JUMPDEST PUSH4 0x4E487B71 PUSH1 0xE0 SHL DUP13 MSTORE PUSH1 0x11 DUP3 MSTORE PUSH1 0x24 DUP13 REVERT JUMPDEST POP SWAP6 POP DUP8 SWAP5 POP PUSH32 0x1B5CD914BF77EE50DE90263F47D89967BBCE85A4EB078D958BFEE08DC0D0CDE7 SWAP2 PUSH1 0x60 SWAP9 SWAP6 DUP7 SWAP3 DUP2 SWAP9 PUSH2 0xC8B JUMP JUMPDEST DUP6 DUP3 SWAP4 SWAP5 SWAP6 SWAP7 SWAP8 SWAP9 SWAP12 POP POP GT PUSH1 0x0 EQ PUSH2 0xF63 JUMPI SWAP5 DUP6 SWAP5 JUMPDEST DUP14 PUSH1 0x2 SLOAD AND SWAP3 PUSH2 0xECB PUSH1 0x40 MLOAD SWAP8 DUP9 SWAP7 DUP8 SWAP6 DUP7 SWAP5 DUP6 MSTORE DUP5 ADD PUSH1 0x20 SWAP1 SWAP4 SWAP3 SWAP2 SWAP4 PUSH1 0x40 DUP2 ADD SWAP5 PUSH1 0x1 DUP1 PUSH1 0xA0 SHL SUB AND DUP2 MSTORE ADD MSTORE JUMP JUMPDEST SUB SWAP3 GAS CALL DUP1 ISZERO PUSH2 0xF3B JUMPI PUSH2 0xF46 JUMPI JUMPDEST POP DUP10 PUSH1 0x40 DUP7 PUSH1 0x44 DUP11 DUP13 PUSH1 0x3 SLOAD AND SWAP5 DUP5 MLOAD SWAP6 DUP7 SWAP5 DUP6 SWAP4 PUSH4 0xD8AED145 PUSH1 0xE0 SHL DUP6 MSTORE DUP5 ADD MSTORE DUP8 PUSH1 0x24 DUP5 ADD MSTORE GAS CALL DUP1 ISZERO PUSH2 0xF3B JUMPI PUSH2 0xF1D JUMPI JUMPDEST POP SWAP3 DUP7 DUP11 DUP8 DUP14 DUP1 DUP1 DUP15 PUSH2 0xC0E JUMP JUMPDEST PUSH2 0xF35 SWAP1 PUSH1 0x40 RETURNDATASIZE PUSH1 0x40 GT PUSH2 0xA08 JUMPI PUSH2 0x9F6 DUP2 DUP4 PUSH2 0x20CD JUMP JUMPDEST POP PUSH2 0xF0F JUMP JUMPDEST PUSH1 0x40 MLOAD RETURNDATASIZE DUP14 DUP3 RETURNDATACOPY RETURNDATASIZE SWAP1 REVERT JUMPDEST PUSH2 0xF5C SWAP1 DUP8 RETURNDATASIZE DUP10 GT PUSH2 0xA40 JUMPI PUSH2 0xA31 DUP2 DUP4 PUSH2 0x20CD JUMP JUMPDEST POP DUP11 PUSH2 0xEDA JUMP JUMPDEST POP DUP13 SWAP5 DUP6 SWAP5 PUSH2 0xE9A JUMP JUMPDEST SWAP10 POP POP SWAP3 POP SWAP3 POP DUP7 DUP2 RETURNDATASIZE DUP4 GT PUSH2 0xF9E JUMPI JUMPDEST PUSH2 0xF88 DUP2 DUP4 PUSH2 0x20CD JUMP JUMPDEST DUP2 ADD SUB SLT PUSH2 0x9C1 JUMPI DUP8 DUP10 SWAP3 DUP14 SWAP3 DUP14 SWAP9 MLOAD CODESIZE PUSH2 0xC05 JUMP JUMPDEST POP RETURNDATASIZE PUSH2 0xF7E JUMP JUMPDEST PUSH1 0x40 MLOAD PUSH3 0x461BCD PUSH1 0xE5 SHL DUP2 MSTORE DUP1 DUP9 ADD DUP8 SWAP1 MSTORE PUSH1 0x11 PUSH1 0x24 DUP3 ADD MSTORE PUSH17 0x139BC81E5A595B19081C9958D95A5D9959 PUSH1 0x7A SHL PUSH1 0x44 DUP3 ADD MSTORE PUSH1 0x64 SWAP1 REVERT JUMPDEST SWAP1 SWAP9 POP DUP6 DUP2 DUP2 RETURNDATASIZE DUP4 GT PUSH2 0x1005 JUMPI JUMPDEST PUSH2 0xFF5 DUP2 DUP4 PUSH2 0x20CD JUMP JUMPDEST DUP2 ADD SUB SLT PUSH2 0x9C1 JUMPI MLOAD SWAP8 DUP11 PUSH2 0xBCA JUMP JUMPDEST POP RETURNDATASIZE PUSH2 0xFEB JUMP JUMPDEST PUSH2 0x1022 SWAP1 DUP4 RETURNDATASIZE DUP6 GT PUSH2 0xA40 JUMPI PUSH2 0xA31 DUP2 DUP4 PUSH2 0x20CD JUMP JUMPDEST POP DUP13 PUSH2 0xB78 JUMP JUMPDEST PUSH1 0x40 MLOAD PUSH3 0x461BCD PUSH1 0xE5 SHL DUP2 MSTORE DUP1 DUP7 ADD DUP6 SWAP1 MSTORE PUSH1 0x12 PUSH1 0x24 DUP3 ADD MSTORE PUSH18 0x165A595B1915985D5B1D081B9BDD081CD95D PUSH1 0x72 SHL PUSH1 0x44 DUP3 ADD MSTORE PUSH1 0x64 SWAP1 REVERT JUMPDEST PUSH1 0x40 MLOAD PUSH3 0x461BCD PUSH1 0xE5 SHL DUP2 MSTORE DUP1 DUP5 ADD DUP4 SWAP1 MSTORE PUSH1 0x13 PUSH1 0x24 DUP3 ADD MSTORE PUSH19 0x4F6E6C7920666F722052574120746F6B656E73 PUSH1 0x68 SHL PUSH1 0x44 DUP3 ADD MSTORE PUSH1 0x64 SWAP1 REVERT JUMPDEST PUSH4 0x4E487B71 PUSH1 0xE0 SHL DUP8 MSTORE PUSH1 0x21 DUP5 MSTORE PUSH1 0x24 DUP8 REVERT JUMPDEST POP DUP3 CALLVALUE PUSH2 0x18D JUMPI PUSH1 0x20 CALLDATASIZE PUSH1 0x3 NOT ADD SLT PUSH2 0x18D JUMPI PUSH1 0x20 PUSH2 0x10CE DUP4 CALLDATALOAD PUSH2 0x24C7 JUMP JUMPDEST PUSH1 0x40 MLOAD SWAP1 DUP2 MSTORE RETURN JUMPDEST DUP4 DUP3 CALLVALUE PUSH2 0x21C JUMPI PUSH2 0x10E6 CALLDATASIZE PUSH2 0x1FA2 JUMP JUMPDEST SWAP2 PUSH2 0x10EF PUSH2 0x2180 JUMP JUMPDEST DUP2 DUP5 MSTORE PUSH1 0x20 SWAP1 PUSH1 0x6 DUP3 MSTORE PUSH1 0x40 DUP6 KECCAK256 PUSH1 0x8 DUP2 ADD SWAP1 DUP2 SLOAD SWAP2 PUSH2 0x1111 PUSH1 0xFF DUP5 AND PUSH2 0x21A3 JUMP JUMPDEST DUP2 SLOAD PUSH1 0x1 PUSH1 0x1 PUSH1 0xA0 SHL SUB SWAP4 SWAP1 PUSH2 0x112A SWAP1 DUP6 AND CALLER EQ PUSH2 0x21E5 JUMP JUMPDEST PUSH2 0x1135 DUP9 ISZERO ISZERO PUSH2 0x2045 JUMP JUMPDEST PUSH1 0x2 DUP4 ADD DUP1 SLOAD DUP1 DUP11 GT PUSH2 0x12C0 JUMPI DUP6 PUSH1 0x3 SLOAD AND DUP9 DUP11 PUSH1 0x24 PUSH1 0x40 MLOAD DUP1 SWAP5 DUP2 SWAP4 PUSH4 0xD5595157 PUSH1 0xE0 SHL DUP4 MSTORE DUP14 DUP4 ADD MSTORE GAS STATICCALL SWAP1 DUP2 ISZERO PUSH2 0x12B5 JUMPI DUP13 SWAP2 PUSH2 0x1288 JUMPI JUMPDEST POP PUSH2 0x1244 JUMPI SWAP4 DUP8 SWAP7 SWAP4 PUSH2 0x11CC SWAP9 SWAP7 SWAP4 PUSH1 0x1 SWAP4 PUSH2 0x118D DUP14 DUP1 SWAP10 PUSH2 0x228C JUMP JUMPDEST DUP1 SWAP2 SSTORE ISZERO PUSH2 0x1237 JUMPI JUMPDEST POP POP ADD SLOAD PUSH1 0x40 DUP1 MLOAD PUSH4 0xA9059CBB PUSH1 0xE0 SHL DUP2 MSTORE CALLER SWAP5 DUP2 ADD SWAP5 DUP6 MSTORE PUSH1 0x20 DUP6 ADD SWAP6 SWAP1 SWAP6 MSTORE SWAP4 SWAP7 DUP8 SWAP5 SWAP3 SWAP1 SWAP2 AND SWAP3 DUP5 SWAP3 DUP12 SWAP3 DUP5 SWAP3 SWAP1 SWAP2 ADD SWAP1 JUMP JUMPDEST SUB SWAP3 GAS CALL SWAP2 DUP3 ISZERO PUSH2 0x9CD JUMPI PUSH32 0x7C5E5CB62E5ED3CAF3764E4B0AFEDFEDEF533E27809D43367799787AD2ABCD41 SWAP3 PUSH2 0x120A SWAP2 DUP8 SWAP2 PUSH2 0x121A JUMPI JUMPDEST POP PUSH2 0x2107 JUMP JUMPDEST PUSH1 0x40 MLOAD SWAP4 DUP5 MSTORE CALLER SWAP4 LOG3 PUSH1 0x1 DUP1 SSTORE DUP1 RETURN JUMPDEST PUSH2 0x1231 SWAP2 POP DUP4 RETURNDATASIZE DUP6 GT PUSH2 0xA40 JUMPI PUSH2 0xA31 DUP2 DUP4 PUSH2 0x20CD JUMP JUMPDEST DUP8 PUSH2 0x1204 JUMP JUMPDEST PUSH1 0xFF NOT AND SWAP1 SSTORE DUP12 DUP1 PUSH2 0x1196 JUMP JUMPDEST PUSH1 0x40 MLOAD PUSH3 0x461BCD PUSH1 0xE5 SHL DUP2 MSTORE DUP1 DUP9 ADD DUP10 SWAP1 MSTORE PUSH1 0x1F PUSH1 0x24 DUP3 ADD MSTORE PUSH32 0x4F75747374616E64696E672064656274206D7573742062652072657061696400 PUSH1 0x44 DUP3 ADD MSTORE PUSH1 0x64 SWAP1 REVERT JUMPDEST SWAP1 POP DUP9 DUP2 DUP2 RETURNDATASIZE DUP4 GT PUSH2 0x12AE JUMPI JUMPDEST PUSH2 0x129F DUP2 DUP4 PUSH2 0x20CD JUMP JUMPDEST DUP2 ADD SUB SLT PUSH2 0x9C1 JUMPI MLOAD DUP13 PUSH2 0x1170 JUMP JUMPDEST POP RETURNDATASIZE PUSH2 0x1295 JUMP JUMPDEST PUSH1 0x40 MLOAD RETURNDATASIZE DUP15 DUP3 RETURNDATACOPY RETURNDATASIZE SWAP1 REVERT JUMPDEST PUSH1 0x40 MLOAD PUSH3 0x461BCD PUSH1 0xE5 SHL DUP2 MSTORE DUP1 DUP9 ADD DUP10 SWAP1 MSTORE PUSH1 0x17 PUSH1 0x24 DUP3 ADD MSTORE PUSH32 0x496E73756666696369656E7420636F6C6C61746572616C000000000000000000 PUSH1 0x44 DUP3 ADD MSTORE PUSH1 0x64 SWAP1 REVERT JUMPDEST DUP4 CALLVALUE PUSH2 0x18D JUMPI DUP1 PUSH1 0x3 NOT CALLDATASIZE ADD SLT PUSH2 0x18D JUMPI PUSH1 0x20 PUSH1 0x40 MLOAD PUSH2 0x1B58 DUP2 MSTORE RETURN JUMPDEST DUP4 CALLVALUE PUSH2 0x18D JUMPI DUP1 PUSH1 0x3 NOT CALLDATASIZE ADD SLT PUSH2 0x18D JUMPI PUSH2 0x133A PUSH2 0x1FDB JUMP JUMPDEST PUSH1 0x0 DUP1 SLOAD PUSH1 0x1 PUSH1 0x1 PUSH1 0xA0 SHL SUB NOT DUP2 AND DUP3 SSTORE PUSH1 0x1 PUSH1 0x1 PUSH1 0xA0 SHL SUB AND PUSH32 0x8BE0079C531659141344CD1FD0A4F28419497F9722A3DAAFE3B4186F6B6457E0 DUP3 DUP1 LOG3 DUP1 RETURN JUMPDEST DUP4 CALLVALUE PUSH2 0x18D JUMPI PUSH1 0x20 CALLDATASIZE PUSH1 0x3 NOT ADD SLT PUSH2 0x18D JUMPI PUSH2 0x1395 PUSH2 0x1F8C JUMP JUMPDEST PUSH2 0x139D PUSH2 0x1FDB JUMP JUMPDEST PUSH1 0x1 PUSH1 0x1 PUSH1 0xA0 SHL SUB AND PUSH2 0x13B1 DUP2 ISZERO ISZERO PUSH2 0x2007 JUMP JUMPDEST PUSH1 0x1 PUSH1 0x1 PUSH1 0x60 SHL SUB PUSH1 0xA0 SHL PUSH1 0x5 SLOAD AND OR PUSH1 0x5 SSTORE DUP1 RETURN JUMPDEST DUP4 DUP3 CALLVALUE PUSH2 0x21C JUMPI PUSH2 0x13D7 CALLDATASIZE PUSH2 0x1FA2 JUMP JUMPDEST PUSH2 0x13E2 SWAP3 SWAP2 SWAP3 PUSH2 0x1FDB JUMP JUMPDEST PUSH2 0x13EA PUSH2 0x2180 JUMP JUMPDEST DUP3 DUP5 MSTORE PUSH1 0x20 SWAP1 PUSH1 0x6 DUP3 MSTORE PUSH1 0x40 DUP6 KECCAK256 SWAP4 PUSH1 0xFF PUSH1 0x8 DUP7 ADD SLOAD PUSH2 0x140B DUP3 DUP3 AND PUSH2 0x21A3 JUMP JUMPDEST DUP3 DUP9 MSTORE PUSH1 0x8 DUP6 MSTORE PUSH2 0x1421 DUP3 PUSH1 0x40 DUP11 KECCAK256 SLOAD AND PUSH2 0x22EF JUMP JUMPDEST PUSH1 0x8 SHR AND PUSH1 0x2 DUP2 LT ISZERO PUSH2 0x1853 JUMPI PUSH1 0x1 SUB PUSH2 0x180F JUMPI DUP2 ISZERO PUSH2 0x17CB JUMPI PUSH1 0x2 SLOAD PUSH1 0x40 DUP1 MLOAD PUSH4 0x23B872DD PUSH1 0xE0 SHL DUP2 MSTORE CALLER DUP8 DUP3 ADD SWAP1 DUP2 MSTORE ADDRESS PUSH1 0x20 DUP3 ADD MSTORE SWAP2 DUP3 ADD DUP6 SWAP1 MSTORE PUSH1 0x1 PUSH1 0x1 PUSH1 0xA0 SHL SUB SWAP8 SWAP1 SWAP3 SWAP1 SWAP2 DUP7 SWAP2 DUP5 SWAP2 DUP3 SWAP1 SUB PUSH1 0x60 ADD SWAP1 DUP3 SWAP1 DUP13 SWAP1 DUP13 AND GAS CALL SWAP2 DUP3 ISZERO PUSH2 0x17C0 JUMPI DUP7 SWAP3 PUSH2 0x1498 SWAP2 DUP11 SWAP2 PUSH2 0x17A3 JUMPI POP PUSH2 0x2233 JUMP JUMPDEST PUSH1 0x1 DUP2 ADD SLOAD PUSH1 0x2 DUP3 ADD SLOAD PUSH1 0x40 DUP1 MLOAD PUSH4 0xA9059CBB PUSH1 0xE0 SHL DUP1 DUP3 MSTORE CALLER SWAP7 DUP3 ADD SWAP7 DUP8 MSTORE PUSH1 0x20 DUP8 ADD SWAP4 SWAP1 SWAP4 MSTORE SWAP2 SWAP5 SWAP2 SWAP3 DUP9 SWAP3 DUP5 SWAP3 SWAP1 DUP4 SWAP1 SUB ADD SWAP1 DUP3 SWAP1 DUP14 SWAP1 DUP14 AND GAS CALL DUP1 ISZERO PUSH2 0x1645 JUMPI PUSH2 0x14EC SWAP2 DUP11 SWAP2 PUSH2 0x1786 JUMPI POP PUSH2 0x2107 JUMP JUMPDEST PUSH1 0x3 SLOAD PUSH1 0x40 MLOAD PUSH4 0xD5595157 PUSH1 0xE0 SHL DUP2 MSTORE DUP8 DUP2 ADD DUP6 SWAP1 MSTORE SWAP3 SWAP1 DUP9 AND DUP7 DUP5 PUSH1 0x24 DUP2 DUP5 GAS STATICCALL SWAP4 DUP5 ISZERO PUSH2 0xD74 JUMPI DUP11 SWAP5 PUSH2 0x1757 JUMPI JUMPDEST POP DUP10 SWAP4 DUP1 PUSH2 0x1677 JUMPI JUMPDEST POP POP DUP3 DUP6 GT ISZERO PUSH2 0x1663 JUMPI PUSH2 0x1539 DUP4 DUP7 PUSH2 0x228C JUMP JUMPDEST SWAP8 PUSH2 0x3E8 DUP1 DUP11 MUL SWAP1 DUP11 DUP3 DIV EQ DUP11 ISZERO OR ISZERO PUSH2 0x1650 JUMPI PUSH2 0x2710 PUSH2 0x155C SWAP2 DIV DUP1 SWAP11 PUSH2 0x228C JUMP JUMPDEST SWAP8 DUP9 PUSH2 0x15CB JUMPI JUMPDEST POP POP POP SWAP7 DUP1 PUSH1 0x2 PUSH1 0x40 SWAP10 JUMPDEST PUSH1 0xFF NOT PUSH1 0x8 DUP3 ADD SLOAD AND PUSH1 0x8 DUP3 ADD SSTORE ADD SSTORE DUP8 MLOAD SWAP4 DUP5 MSTORE DUP5 DUP5 ADD MSTORE DUP7 DUP4 ADD MSTORE DUP5 PUSH1 0x60 DUP4 ADD MSTORE DUP4 PUSH1 0x80 DUP4 ADD MSTORE PUSH32 0xE8809F589FB6A4A715F089D80B78E1C37443064C63CAD260285284847C9FC4A3 PUSH1 0xA0 CALLER SWAP4 LOG3 PUSH1 0x1 DUP1 SSTORE DUP4 MLOAD SWAP3 DUP4 MSTORE DUP3 ADD MSTORE RETURN JUMPDEST PUSH1 0x2 SLOAD DUP5 SLOAD PUSH1 0x40 DUP1 MLOAD SWAP6 DUP7 MSTORE SWAP1 DUP5 AND PUSH1 0x1 PUSH1 0x1 PUSH1 0xA0 SHL SUB AND SWAP3 DUP6 ADD SWAP3 DUP4 MSTORE PUSH1 0x20 DUP4 ADD DUP12 SWAP1 MSTORE DUP10 SWAP4 DUP6 SWAP4 SWAP3 AND SWAP2 DUP4 SWAP2 DUP15 SWAP2 DUP4 SWAP2 ADD SUB SWAP3 GAS CALL SWAP1 DUP2 ISZERO PUSH2 0x1645 JUMPI DUP10 SWAP3 PUSH2 0x1621 DUP5 SWAP4 PUSH1 0x2 SWAP4 PUSH1 0x40 SWAP14 SWAP2 PUSH2 0x1628 JUMPI POP PUSH2 0x233B JUMP JUMPDEST SWAP3 SWAP10 PUSH2 0x1563 JUMP JUMPDEST PUSH2 0x163F SWAP2 POP DUP11 RETURNDATASIZE DUP13 GT PUSH2 0xA40 JUMPI PUSH2 0xA31 DUP2 DUP4 PUSH2 0x20CD JUMP JUMPDEST DUP14 PUSH2 0xD44 JUMP JUMPDEST PUSH1 0x40 MLOAD RETURNDATASIZE DUP12 DUP3 RETURNDATACOPY RETURNDATASIZE SWAP1 REVERT JUMPDEST PUSH4 0x4E487B71 PUSH1 0xE0 SHL DUP12 MSTORE PUSH1 0x11 DUP10 MSTORE PUSH1 0x24 DUP12 REVERT JUMPDEST POP SWAP5 POP DUP7 PUSH1 0x40 SWAP8 SWAP7 POP SWAP6 DUP1 PUSH1 0x2 DUP2 SWAP8 PUSH2 0x156E JUMP JUMPDEST SWAP2 SWAP4 POP SWAP1 DUP7 DUP2 DUP8 GT ISZERO PUSH2 0x174A JUMPI PUSH2 0x16C3 SWAP2 DUP1 SWAP4 JUMPDEST DUP12 PUSH1 0x2 SLOAD AND SWAP1 DUP14 DUP13 PUSH1 0x40 MLOAD SWAP7 DUP8 SWAP6 DUP7 SWAP5 DUP6 SWAP4 PUSH4 0x95EA7B3 PUSH1 0xE0 SHL DUP6 MSTORE DUP5 ADD PUSH1 0x20 SWAP1 SWAP4 SWAP3 SWAP2 SWAP4 PUSH1 0x40 DUP2 ADD SWAP5 PUSH1 0x1 DUP1 PUSH1 0xA0 SHL SUB AND DUP2 MSTORE ADD MSTORE JUMP JUMPDEST SUB SWAP3 GAS CALL DUP1 ISZERO PUSH2 0xD74 JUMPI PUSH2 0x172D JUMPI JUMPDEST POP DUP8 PUSH1 0x3 SLOAD AND PUSH1 0x40 DUP6 PUSH1 0x44 DUP11 DUP14 DUP5 MLOAD SWAP6 DUP7 SWAP5 DUP6 SWAP4 PUSH4 0xD8AED145 PUSH1 0xE0 SHL DUP6 MSTORE DUP5 ADD MSTORE DUP8 PUSH1 0x24 DUP5 ADD MSTORE GAS CALL DUP1 ISZERO PUSH2 0xD74 JUMPI PUSH2 0x170F JUMPI JUMPDEST POP SWAP2 DUP10 DUP1 PUSH2 0x1525 JUMP JUMPDEST PUSH2 0x1727 SWAP1 PUSH1 0x40 RETURNDATASIZE PUSH1 0x40 GT PUSH2 0xA08 JUMPI PUSH2 0x9F6 DUP2 DUP4 PUSH2 0x20CD JUMP JUMPDEST POP PUSH2 0x1706 JUMP JUMPDEST PUSH2 0x1743 SWAP1 DUP8 RETURNDATASIZE DUP10 GT PUSH2 0xA40 JUMPI PUSH2 0xA31 DUP2 DUP4 PUSH2 0x20CD JUMP JUMPDEST POP DUP10 PUSH2 0x16D2 JUMP JUMPDEST PUSH2 0x16C3 SWAP2 POP DUP7 DUP1 SWAP4 PUSH2 0x168B JUMP JUMPDEST SWAP1 SWAP4 POP DUP7 DUP2 DUP2 RETURNDATASIZE DUP4 GT PUSH2 0x177F JUMPI JUMPDEST PUSH2 0x176F DUP2 DUP4 PUSH2 0x20CD JUMP JUMPDEST DUP2 ADD SUB SLT PUSH2 0x9C1 JUMPI MLOAD SWAP3 DUP11 PUSH2 0x151C JUMP JUMPDEST POP RETURNDATASIZE PUSH2 0x1765 JUMP JUMPDEST PUSH2 0x179D SWAP2 POP DUP8 RETURNDATASIZE DUP10 GT PUSH2 0xA40 JUMPI PUSH2 0xA31 DUP2 DUP4 PUSH2 0x20CD JUMP JUMPDEST DUP11 PUSH2 0x1204 JUMP JUMPDEST PUSH2 0x17BA SWAP2 POP DUP8 RETURNDATASIZE DUP10 GT PUSH2 0xA40 JUMPI PUSH2 0xA31 DUP2 DUP4 PUSH2 0x20CD JUMP JUMPDEST DUP11 PUSH2 0x7EC JUMP JUMPDEST PUSH1 0x40 MLOAD RETURNDATASIZE DUP11 DUP3 RETURNDATACOPY RETURNDATASIZE SWAP1 REVERT JUMPDEST PUSH1 0x40 MLOAD PUSH3 0x461BCD PUSH1 0xE5 SHL DUP2 MSTORE DUP1 DUP6 ADD DUP5 SWAP1 MSTORE PUSH1 0x1B PUSH1 0x24 DUP3 ADD MSTORE PUSH32 0x507572636861736520616D6F756E74206D757374206265203E20300000000000 PUSH1 0x44 DUP3 ADD MSTORE PUSH1 0x64 SWAP1 REVERT JUMPDEST PUSH1 0x40 MLOAD PUSH3 0x461BCD PUSH1 0xE5 SHL DUP2 MSTORE DUP1 DUP6 ADD DUP5 SWAP1 MSTORE PUSH1 0x17 PUSH1 0x24 DUP3 ADD MSTORE PUSH32 0x4F6E6C7920666F72205072697661746520417373657473000000000000000000 PUSH1 0x44 DUP3 ADD MSTORE PUSH1 0x64 SWAP1 REVERT JUMPDEST PUSH4 0x4E487B71 PUSH1 0xE0 SHL DUP8 MSTORE PUSH1 0x21 DUP6 MSTORE PUSH1 0x24 DUP8 REVERT JUMPDEST DUP4 CALLVALUE PUSH2 0x18D JUMPI DUP1 PUSH1 0x3 NOT CALLDATASIZE ADD SLT PUSH2 0x18D JUMPI PUSH1 0x20 PUSH1 0x40 MLOAD PUSH2 0x3E8 DUP2 MSTORE RETURN JUMPDEST POP DUP3 CALLVALUE PUSH2 0x18D JUMPI PUSH2 0x1893 CALLDATASIZE PUSH2 0x1FA2 JUMP JUMPDEST PUSH2 0x189B PUSH2 0x2180 JUMP JUMPDEST DUP2 DUP4 MSTORE PUSH1 0x20 SWAP1 PUSH1 0x6 DUP3 MSTORE PUSH1 0x40 DUP5 KECCAK256 SWAP2 PUSH1 0x8 DUP4 ADD SLOAD SWAP6 PUSH2 0x18BC PUSH1 0xFF DUP9 AND PUSH2 0x21A3 JUMP JUMPDEST DUP4 SLOAD PUSH1 0x1 PUSH1 0x1 PUSH1 0xA0 SHL SUB SWAP8 PUSH1 0xFF SWAP2 PUSH2 0x18D7 SWAP1 DUP11 AND CALLER EQ PUSH2 0x21E5 JUMP JUMPDEST PUSH2 0x18E2 DUP6 ISZERO ISZERO PUSH2 0x2045 JUMP JUMPDEST PUSH1 0x8 SHR AND PUSH1 0x2 DUP2 LT ISZERO PUSH2 0x1A80 JUMPI PUSH2 0x1A70 JUMPI PUSH1 0x3 PUSH2 0x2710 PUSH2 0x1908 PUSH2 0x1B58 JUMPDEST DUP5 DUP9 ADD SLOAD PUSH2 0x2157 JUMP JUMPDEST DIV SWAP5 ADD SWAP4 PUSH2 0x1917 DUP5 DUP7 SLOAD PUSH2 0x2226 JUMP JUMPDEST GT PUSH2 0x1A3A JUMPI DUP7 PUSH1 0x3 SLOAD AND DUP1 EXTCODESIZE ISZERO PUSH2 0x1A36 JUMPI DUP7 DUP1 SWAP2 PUSH1 0x44 PUSH1 0x40 MLOAD DUP1 SWAP5 DUP2 SWAP4 PUSH4 0xECBCDAB PUSH1 0xE0 SHL DUP4 MSTORE DUP12 DUP9 DUP5 ADD MSTORE DUP10 PUSH1 0x24 DUP5 ADD MSTORE GAS CALL DUP1 ISZERO PUSH2 0x1A2B JUMPI PUSH2 0x1A10 JUMPI JUMPDEST POP DUP3 DUP3 SWAP2 PUSH2 0x19A2 SWAP7 SWAP8 SWAP9 PUSH2 0x196B DUP4 DUP9 SLOAD PUSH2 0x2226 JUMP JUMPDEST DUP8 SSTORE PUSH1 0x2 SLOAD PUSH1 0x40 DUP1 MLOAD PUSH4 0xA9059CBB PUSH1 0xE0 SHL DUP2 MSTORE CALLER SWAP5 DUP2 ADD SWAP5 DUP6 MSTORE PUSH1 0x20 DUP6 ADD SWAP6 SWAP1 SWAP6 MSTORE SWAP4 SWAP9 DUP10 SWAP5 SWAP3 SWAP1 SWAP2 AND SWAP3 DUP5 SWAP3 DUP13 SWAP3 DUP5 SWAP3 SWAP1 SWAP2 ADD SWAP1 JUMP JUMPDEST SUB SWAP3 GAS CALL SWAP3 DUP4 ISZERO PUSH2 0xA47 JUMPI PUSH2 0x19E1 PUSH1 0x40 SWAP5 PUSH32 0x902160BBFEE2201AA09B6B057B6F0B7D0F633B2BDEFC04E987882DF4AEFD29C SWAP7 DUP10 SWAP2 PUSH2 0x19F3 JUMPI POP PUSH2 0x2233 JUMP JUMPDEST SLOAD SWAP1 DUP4 MLOAD SWAP3 DUP4 MSTORE DUP3 ADD MSTORE LOG2 PUSH1 0x1 DUP1 SSTORE DUP1 RETURN JUMPDEST PUSH2 0x1A0A SWAP2 POP DUP5 RETURNDATASIZE DUP7 GT PUSH2 0xA40 JUMPI PUSH2 0xA31 DUP2 DUP4 PUSH2 0x20CD JUMP JUMPDEST DUP10 PUSH2 0x7EC JUMP JUMPDEST DUP3 SWAP2 PUSH2 0x19A2 SWAP7 SWAP8 PUSH2 0x1A21 DUP7 SWAP4 PUSH2 0x20B9 JUMP JUMPDEST SWAP8 SWAP7 POP SWAP2 POP PUSH2 0x1956 JUMP JUMPDEST PUSH1 0x40 MLOAD RETURNDATASIZE DUP10 DUP3 RETURNDATACOPY RETURNDATASIZE SWAP1 REVERT JUMPDEST DUP7 DUP1 REVERT JUMPDEST PUSH1 0x64 SWAP2 PUSH1 0x40 MLOAD SWAP2 PUSH3 0x461BCD PUSH1 0xE5 SHL DUP4 MSTORE DUP3 ADD MSTORE PUSH1 0x11 PUSH1 0x24 DUP3 ADD MSTORE PUSH17 0x115E18D959591CC8131515881B1A5B5A5D PUSH1 0x7A SHL PUSH1 0x44 DUP3 ADD MSTORE REVERT JUMPDEST PUSH1 0x3 PUSH2 0x2710 PUSH2 0x1908 PUSH2 0x1770 PUSH2 0x18FF JUMP JUMPDEST PUSH4 0x4E487B71 PUSH1 0xE0 SHL DUP8 MSTORE PUSH1 0x21 DUP3 MSTORE PUSH1 0x24 DUP8 REVERT JUMPDEST DUP4 CALLVALUE PUSH2 0x18D JUMPI DUP1 PUSH1 0x3 NOT CALLDATASIZE ADD SLT PUSH2 0x18D JUMPI PUSH1 0x2 SLOAD PUSH1 0x40 MLOAD PUSH1 0x1 PUSH1 0x1 PUSH1 0xA0 SHL SUB SWAP1 SWAP2 AND DUP2 MSTORE PUSH1 0x20 SWAP1 RETURN JUMPDEST DUP4 CALLVALUE PUSH2 0x18D JUMPI DUP1 PUSH1 0x3 NOT CALLDATASIZE ADD SLT PUSH2 0x18D JUMPI PUSH1 0x5 SLOAD PUSH1 0x40 MLOAD PUSH1 0x1 PUSH1 0x1 PUSH1 0xA0 SHL SUB SWAP1 SWAP2 AND DUP2 MSTORE PUSH1 0x20 SWAP1 RETURN JUMPDEST DUP4 DUP3 CALLVALUE PUSH2 0x21C JUMPI DUP2 PUSH1 0x3 NOT CALLDATASIZE ADD SLT PUSH2 0x21C JUMPI SLOAD PUSH1 0x40 MLOAD PUSH1 0x1 PUSH1 0x1 PUSH1 0xA0 SHL SUB SWAP1 SWAP2 AND DUP2 MSTORE PUSH1 0x20 SWAP1 RETURN JUMPDEST POP DUP3 CALLVALUE PUSH2 0x18D JUMPI PUSH1 0x20 CALLDATASIZE PUSH1 0x3 NOT ADD SLT PUSH2 0x18D JUMPI PUSH1 0x20 PUSH2 0x10CE DUP4 CALLDATALOAD PUSH2 0x2380 JUMP JUMPDEST DUP4 DUP3 CALLVALUE PUSH2 0x21C JUMPI PUSH1 0x20 CALLDATASIZE PUSH1 0x3 NOT ADD SLT PUSH2 0x21C JUMPI PUSH1 0x40 PUSH1 0x20 SWAP3 PUSH1 0xFF SWAP3 CALLDATALOAD DUP2 MSTORE PUSH1 0x8 DUP5 MSTORE KECCAK256 SLOAD AND PUSH1 0x40 MLOAD SWAP1 ISZERO ISZERO DUP2 MSTORE RETURN JUMPDEST DUP4 CALLVALUE PUSH2 0x18D JUMPI PUSH1 0x20 CALLDATASIZE PUSH1 0x3 NOT ADD SLT PUSH2 0x18D JUMPI PUSH2 0x1B75 PUSH2 0x1F8C JUMP JUMPDEST PUSH2 0x1B7D PUSH2 0x1FDB JUMP JUMPDEST PUSH1 0x1 PUSH1 0x1 PUSH1 0xA0 SHL SUB AND PUSH2 0x1B91 DUP2 ISZERO ISZERO PUSH2 0x2007 JUMP JUMPDEST PUSH1 0x1 PUSH1 0x1 PUSH1 0x60 SHL SUB PUSH1 0xA0 SHL PUSH1 0x9 SLOAD AND OR PUSH1 0x9 SSTORE DUP1 RETURN JUMPDEST DUP4 CALLVALUE PUSH2 0x18D JUMPI PUSH1 0xA0 CALLDATASIZE PUSH1 0x3 NOT ADD SLT PUSH2 0x18D JUMPI PUSH2 0x1BC1 PUSH2 0x1F8C JUMP JUMPDEST SWAP1 PUSH1 0x24 CALLDATALOAD SWAP4 PUSH1 0x44 CALLDATALOAD SWAP1 PUSH1 0x2 PUSH1 0x64 CALLDATALOAD LT ISZERO PUSH2 0x381 JUMPI PUSH1 0x84 CALLDATALOAD ISZERO ISZERO PUSH1 0x84 CALLDATALOAD SUB PUSH2 0x381 JUMPI PUSH2 0x1BEA PUSH2 0x2180 JUMP JUMPDEST PUSH1 0x1 PUSH1 0x1 PUSH1 0xA0 SHL SUB SWAP4 DUP5 AND SWAP2 DUP3 ISZERO PUSH2 0x1F58 JUMPI PUSH2 0x1C07 DUP8 ISZERO ISZERO PUSH2 0x2045 JUMP JUMPDEST DUP1 ISZERO PUSH2 0x1F1C JUMPI PUSH1 0x40 DUP1 MLOAD PUSH4 0x23B872DD PUSH1 0xE0 SHL DUP2 MSTORE CALLER DUP5 DUP3 ADD SWAP1 DUP2 MSTORE ADDRESS PUSH1 0x20 DUP3 DUP2 ADD SWAP2 SWAP1 SWAP2 MSTORE SWAP3 DUP2 ADD DUP11 SWAP1 MSTORE SWAP1 SWAP2 SWAP1 DUP3 SWAP1 DUP2 SWAP1 PUSH1 0x60 ADD SUB DUP2 DUP9 DUP9 GAS CALL SWAP1 DUP2 ISZERO PUSH2 0x9CD JUMPI SWAP1 PUSH2 0x1C5A SWAP2 DUP7 SWAP2 PUSH2 0x1EFD JUMPI POP PUSH2 0x2107 JUMP JUMPDEST PUSH1 0x7 SLOAD SWAP6 PUSH1 0x0 NOT DUP8 EQ PUSH2 0x1EEA JUMPI PUSH1 0x1 DUP8 ADD PUSH1 0x7 SSTORE PUSH1 0x8 PUSH1 0x40 MLOAD SWAP2 PUSH2 0x1C7D DUP4 PUSH2 0x2086 JUMP JUMPDEST CALLER DUP4 MSTORE DUP6 PUSH1 0x20 DUP5 ADD MSTORE DUP10 PUSH1 0x40 DUP5 ADD MSTORE DUP7 PUSH1 0x60 DUP5 ADD MSTORE DUP4 PUSH1 0x80 DUP5 ADD MSTORE TIMESTAMP PUSH1 0xA0 DUP5 ADD MSTORE DUP7 PUSH1 0xC0 DUP5 ADD MSTORE DUP7 DUP2 DUP5 ADD MSTORE PUSH1 0x1 PUSH2 0x100 DUP5 ADD MSTORE PUSH2 0x1CC1 PUSH1 0x64 CALLDATALOAD PUSH2 0x120 DUP6 ADD PUSH2 0x214B JUMP JUMPDEST DUP9 DUP8 MSTORE PUSH1 0x6 PUSH1 0x20 MSTORE PUSH1 0x40 DUP8 KECCAK256 SWAP1 DUP9 DUP5 MLOAD AND PUSH1 0x1 PUSH1 0x1 PUSH1 0x60 SHL SUB PUSH1 0xA0 SHL SWAP1 DUP2 DUP5 SLOAD AND OR DUP4 SSTORE PUSH1 0x1 DUP4 ADD SWAP1 DUP11 PUSH1 0x20 DUP8 ADD MLOAD AND SWAP1 DUP3 SLOAD AND OR SWAP1 SSTORE PUSH1 0x40 DUP5 ADD MLOAD PUSH1 0x2 DUP4 ADD SSTORE PUSH1 0x60 DUP5 ADD MLOAD PUSH1 0x3 DUP4 ADD SSTORE PUSH1 0x80 DUP5 ADD MLOAD DUP7 DUP4 ADD SSTORE PUSH1 0xA0 DUP5 ADD MLOAD PUSH1 0x5 DUP4 ADD SSTORE PUSH1 0xC0 DUP5 ADD MLOAD PUSH1 0x6 DUP4 ADD SSTORE DUP4 ADD MLOAD PUSH1 0x7 DUP3 ADD SSTORE ADD SWAP1 PUSH2 0x100 DUP2 ADD MLOAD ISZERO ISZERO SWAP1 PUSH2 0x120 DUP4 SLOAD SWAP2 ADD MLOAD PUSH1 0x2 DUP2 LT ISZERO PUSH2 0x1ED7 JUMPI PUSH2 0xFF00 PUSH1 0xFF SWAP2 PUSH1 0x8 SHL AND SWAP3 AND SWAP1 PUSH2 0xFFFF NOT AND OR OR SWAP1 SSTORE PUSH1 0x40 MLOAD DUP4 DUP2 MSTORE DUP8 PUSH1 0x20 DUP3 ADD MSTORE DUP2 PUSH1 0x40 DUP3 ADD MSTORE PUSH2 0x1D84 PUSH1 0x60 DUP3 ADD PUSH1 0x64 CALLDATALOAD PUSH2 0x1FB8 JUMP JUMPDEST DUP7 PUSH32 0x93CB2591720FA23E5A51A39BF9D35B6A4E5CB6C11BEAE435C41E4482F3A30D21 PUSH1 0x80 CALLER SWAP4 LOG3 PUSH1 0x84 CALLDATALOAD DUP1 PUSH2 0x1ECA JUMPI JUMPDEST PUSH2 0x1DC8 JUMPI JUMPDEST PUSH1 0x20 DUP7 PUSH1 0x1 DUP1 SSTORE PUSH1 0x40 MLOAD SWAP1 DUP2 MSTORE RETURN JUMPDEST PUSH1 0x20 SWAP3 SWAP2 DUP5 PUSH1 0xA4 SWAP3 PUSH1 0x64 CALLDATALOAD ISZERO PUSH1 0x0 EQ PUSH2 0x1EBC JUMPI PUSH2 0x2710 PUSH2 0x1DEB PUSH2 0x1B58 JUMPDEST DUP4 PUSH2 0x2157 JUMP JUMPDEST DIV SWAP8 PUSH1 0x5 SLOAD AND SWAP1 PUSH1 0x40 MLOAD SWAP11 DUP12 SWAP7 DUP8 SWAP6 PUSH4 0x7190CAEB PUSH1 0xE1 SHL DUP8 MSTORE CALLER SWAP1 DUP8 ADD MSTORE PUSH1 0x24 DUP7 ADD MSTORE PUSH1 0x44 DUP6 ADD MSTORE PUSH1 0x64 DUP5 ADD MSTORE DUP9 PUSH1 0x84 DUP5 ADD MSTORE GAS CALL SWAP4 DUP5 ISZERO PUSH2 0x1EAF JUMPI DUP2 SWAP5 PUSH2 0x1E7A JUMPI JUMPDEST POP PUSH1 0x40 DUP5 DUP5 SWAP4 PUSH1 0x20 SWAP7 PUSH1 0x7 DUP5 DUP7 DUP9 PUSH32 0xF71BF80FA0A269E5FDBE7113CC01A1ADA492208F97E2857213258755D0CBBB5E SWAP9 MSTORE PUSH1 0x6 DUP12 MSTORE KECCAK256 ADD SSTORE DUP3 MLOAD SWAP2 DUP3 MSTORE DUP7 DUP3 ADD MSTORE LOG2 DUP3 DUP1 DUP1 DUP1 DUP1 PUSH2 0x1DB9 JUMP JUMPDEST SWAP1 SWAP4 POP PUSH1 0x20 DUP2 RETURNDATASIZE PUSH1 0x20 GT PUSH2 0x1EA7 JUMPI JUMPDEST DUP2 PUSH2 0x1E96 PUSH1 0x20 SWAP4 DUP4 PUSH2 0x20CD JUMP JUMPDEST DUP2 ADD SUB SLT PUSH2 0x59D JUMPI MLOAD SWAP3 PUSH1 0x40 PUSH2 0x1E2E JUMP JUMPDEST RETURNDATASIZE SWAP2 POP PUSH2 0x1E89 JUMP JUMPDEST POP PUSH1 0x40 MLOAD SWAP1 RETURNDATASIZE SWAP1 DUP3 RETURNDATACOPY RETURNDATASIZE SWAP1 REVERT JUMPDEST PUSH2 0x2710 PUSH2 0x1DEB PUSH2 0x1770 PUSH2 0x1DE5 JUMP JUMPDEST POP DUP5 PUSH1 0x5 SLOAD AND ISZERO ISZERO PUSH2 0x1DB4 JUMP JUMPDEST PUSH4 0x4E487B71 PUSH1 0xE0 SHL DUP9 MSTORE PUSH1 0x21 DUP7 MSTORE PUSH1 0x24 DUP9 REVERT JUMPDEST PUSH4 0x4E487B71 PUSH1 0xE0 SHL DUP6 MSTORE PUSH1 0x11 DUP4 MSTORE PUSH1 0x24 DUP6 REVERT JUMPDEST PUSH2 0x1F16 SWAP2 POP PUSH1 0x20 RETURNDATASIZE PUSH1 0x20 GT PUSH2 0xA40 JUMPI PUSH2 0xA31 DUP2 DUP4 PUSH2 0x20CD JUMP JUMPDEST DUP10 PUSH2 0x1204 JUMP JUMPDEST PUSH1 0x40 MLOAD PUSH3 0x461BCD PUSH1 0xE5 SHL DUP2 MSTORE PUSH1 0x20 DUP2 DUP5 ADD MSTORE PUSH1 0x15 PUSH1 0x24 DUP3 ADD MSTORE PUSH21 0x56616C756174696F6E206D757374206265203E203 PUSH1 0x5C SHL PUSH1 0x44 DUP3 ADD MSTORE PUSH1 0x64 SWAP1 REVERT JUMPDEST PUSH1 0x40 MLOAD PUSH3 0x461BCD PUSH1 0xE5 SHL DUP2 MSTORE PUSH1 0x20 DUP2 DUP5 ADD MSTORE PUSH1 0xD PUSH1 0x24 DUP3 ADD MSTORE PUSH13 0x24B73B30B634B2103A37B5B2B7 PUSH1 0x99 SHL PUSH1 0x44 DUP3 ADD MSTORE PUSH1 0x64 SWAP1 REVERT JUMPDEST PUSH1 0x4 CALLDATALOAD SWAP1 PUSH1 0x1 PUSH1 0x1 PUSH1 0xA0 SHL SUB DUP3 AND DUP3 SUB PUSH2 0x9C1 JUMPI JUMP JUMPDEST PUSH1 0x40 SWAP1 PUSH1 0x3 NOT ADD SLT PUSH2 0x9C1 JUMPI PUSH1 0x4 CALLDATALOAD SWAP1 PUSH1 0x24 CALLDATALOAD SWAP1 JUMP JUMPDEST SWAP1 PUSH1 0x2 DUP3 LT ISZERO PUSH2 0x1FC5 JUMPI MSTORE JUMP JUMPDEST PUSH4 0x4E487B71 PUSH1 0xE0 SHL PUSH1 0x0 MSTORE PUSH1 0x21 PUSH1 0x4 MSTORE PUSH1 0x24 PUSH1 0x0 REVERT JUMPDEST PUSH1 0x0 SLOAD PUSH1 0x1 PUSH1 0x1 PUSH1 0xA0 SHL SUB AND CALLER SUB PUSH2 0x1FEF JUMPI JUMP JUMPDEST PUSH1 0x40 MLOAD PUSH4 0x118CDAA7 PUSH1 0xE0 SHL DUP2 MSTORE CALLER PUSH1 0x4 DUP3 ADD MSTORE PUSH1 0x24 SWAP1 REVERT JUMPDEST ISZERO PUSH2 0x200E JUMPI JUMP JUMPDEST PUSH1 0x40 MLOAD PUSH3 0x461BCD PUSH1 0xE5 SHL DUP2 MSTORE PUSH1 0x20 PUSH1 0x4 DUP3 ADD MSTORE PUSH1 0xF PUSH1 0x24 DUP3 ADD MSTORE PUSH15 0x496E76616C69642061646472657373 PUSH1 0x88 SHL PUSH1 0x44 DUP3 ADD MSTORE PUSH1 0x64 SWAP1 REVERT JUMPDEST ISZERO PUSH2 0x204C JUMPI JUMP JUMPDEST PUSH1 0x40 MLOAD PUSH3 0x461BCD PUSH1 0xE5 SHL DUP2 MSTORE PUSH1 0x20 PUSH1 0x4 DUP3 ADD MSTORE PUSH1 0x12 PUSH1 0x24 DUP3 ADD MSTORE PUSH18 0x416D6F756E74206D757374206265203E203 PUSH1 0x74 SHL PUSH1 0x44 DUP3 ADD MSTORE PUSH1 0x64 SWAP1 REVERT JUMPDEST PUSH2 0x140 DUP2 ADD SWAP1 DUP2 LT PUSH8 0xFFFFFFFFFFFFFFFF DUP3 GT OR PUSH2 0x20A3 JUMPI PUSH1 0x40 MSTORE JUMP JUMPDEST PUSH4 0x4E487B71 PUSH1 0xE0 SHL PUSH1 0x0 MSTORE PUSH1 0x41 PUSH1 0x4 MSTORE PUSH1 0x24 PUSH1 0x0 REVERT JUMPDEST PUSH8 0xFFFFFFFFFFFFFFFF DUP2 GT PUSH2 0x20A3 JUMPI PUSH1 0x40 MSTORE JUMP JUMPDEST SWAP1 PUSH1 0x1F DUP1 NOT SWAP2 ADD AND DUP2 ADD SWAP1 DUP2 LT PUSH8 0xFFFFFFFFFFFFFFFF DUP3 GT OR PUSH2 0x20A3 JUMPI PUSH1 0x40 MSTORE JUMP JUMPDEST SWAP1 DUP2 PUSH1 0x20 SWAP2 SUB SLT PUSH2 0x9C1 JUMPI MLOAD DUP1 ISZERO ISZERO DUP2 SUB PUSH2 0x9C1 JUMPI SWAP1 JUMP JUMPDEST ISZERO PUSH2 0x210E JUMPI JUMP JUMPDEST PUSH1 0x40 MLOAD PUSH3 0x461BCD PUSH1 0xE5 SHL DUP2 MSTORE PUSH1 0x20 PUSH1 0x4 DUP3 ADD MSTORE PUSH1 0x15 PUSH1 0x24 DUP3 ADD MSTORE PUSH21 0x151BDAD95B881D1C985B9CD9995C8819985A5B1959 PUSH1 0x5A SHL PUSH1 0x44 DUP3 ADD MSTORE PUSH1 0x64 SWAP1 REVERT JUMPDEST PUSH1 0x2 DUP3 LT ISZERO PUSH2 0x1FC5 JUMPI MSTORE JUMP JUMPDEST DUP2 DUP2 MUL SWAP3 SWAP2 DUP2 ISZERO SWAP2 DUP5 DIV EQ OR ISZERO PUSH2 0x216A JUMPI JUMP JUMPDEST PUSH4 0x4E487B71 PUSH1 0xE0 SHL PUSH1 0x0 MSTORE PUSH1 0x11 PUSH1 0x4 MSTORE PUSH1 0x24 PUSH1 0x0 REVERT JUMPDEST PUSH1 0x2 PUSH1 0x1 SLOAD EQ PUSH2 0x2191 JUMPI PUSH1 0x2 PUSH1 0x1 SSTORE JUMP JUMPDEST PUSH1 0x40 MLOAD PUSH4 0x3EE5AEB5 PUSH1 0xE0 SHL DUP2 MSTORE PUSH1 0x4 SWAP1 REVERT JUMPDEST ISZERO PUSH2 0x21AA JUMPI JUMP JUMPDEST PUSH1 0x40 MLOAD PUSH3 0x461BCD PUSH1 0xE5 SHL DUP2 MSTORE PUSH1 0x20 PUSH1 0x4 DUP3 ADD MSTORE PUSH1 0x13 PUSH1 0x24 DUP3 ADD MSTORE PUSH19 0x506F736974696F6E206E6F7420616374697665 PUSH1 0x68 SHL PUSH1 0x44 DUP3 ADD MSTORE PUSH1 0x64 SWAP1 REVERT JUMPDEST ISZERO PUSH2 0x21EC JUMPI JUMP JUMPDEST PUSH1 0x40 MLOAD PUSH3 0x461BCD PUSH1 0xE5 SHL DUP2 MSTORE PUSH1 0x20 PUSH1 0x4 DUP3 ADD MSTORE PUSH1 0x12 PUSH1 0x24 DUP3 ADD MSTORE PUSH18 0x2737BA103837B9B4BA34B7B71037BBB732B9 PUSH1 0x71 SHL PUSH1 0x44 DUP3 ADD MSTORE PUSH1 0x64 SWAP1 REVERT JUMPDEST SWAP2 SWAP1 DUP3 ADD DUP1 SWAP3 GT PUSH2 0x216A JUMPI JUMP JUMPDEST ISZERO PUSH2 0x223A JUMPI JUMP JUMPDEST PUSH1 0x40 MLOAD PUSH3 0x461BCD PUSH1 0xE5 SHL DUP2 MSTORE PUSH1 0x20 PUSH1 0x4 DUP3 ADD MSTORE PUSH1 0x14 PUSH1 0x24 DUP3 ADD MSTORE PUSH20 0x1554D110C81D1C985B9CD9995C8819985A5B1959 PUSH1 0x62 SHL PUSH1 0x44 DUP3 ADD MSTORE PUSH1 0x64 SWAP1 REVERT JUMPDEST SWAP2 SWAP1 DUP3 PUSH1 0x40 SWAP2 SUB SLT PUSH2 0x9C1 JUMPI PUSH1 0x20 DUP3 MLOAD SWAP3 ADD MLOAD SWAP1 JUMP JUMPDEST SWAP2 SWAP1 DUP3 SUB SWAP2 DUP3 GT PUSH2 0x216A JUMPI JUMP JUMPDEST PUSH1 0x37 DUP2 MSTORE PUSH32 0x506F736974696F6E206C697175696461746564202D20636F6C6C61746572616C PUSH1 0x20 DUP3 ADD MSTORE PUSH32 0x206865616C74682062656C6F77207468726573686F6C64000000000000000000 PUSH1 0x40 DUP3 ADD MSTORE PUSH1 0x60 ADD SWAP1 JUMP JUMPDEST ISZERO PUSH2 0x22F6 JUMPI JUMP JUMPDEST PUSH1 0x40 MLOAD PUSH3 0x461BCD PUSH1 0xE5 SHL DUP2 MSTORE PUSH1 0x20 PUSH1 0x4 DUP3 ADD MSTORE PUSH1 0x17 PUSH1 0x24 DUP3 ADD MSTORE PUSH32 0x506F736974696F6E206E6F74206C697175696461746564000000000000000000 PUSH1 0x44 DUP3 ADD MSTORE PUSH1 0x64 SWAP1 REVERT JUMPDEST ISZERO PUSH2 0x2342 JUMPI JUMP JUMPDEST PUSH1 0x40 MLOAD PUSH3 0x461BCD PUSH1 0xE5 SHL DUP2 MSTORE PUSH1 0x20 PUSH1 0x4 DUP3 ADD MSTORE PUSH1 0x16 PUSH1 0x24 DUP3 ADD MSTORE PUSH22 0x1499599D5B99081D1C985B9CD9995C8819985A5B1959 PUSH1 0x52 SHL PUSH1 0x44 DUP3 ADD MSTORE PUSH1 0x64 SWAP1 REVERT JUMPDEST PUSH1 0x0 DUP2 DUP2 MSTORE PUSH1 0x20 SWAP2 PUSH1 0x6 DUP4 MSTORE PUSH1 0x40 DUP3 KECCAK256 SWAP1 PUSH1 0x40 MLOAD PUSH2 0x239D DUP2 PUSH2 0x2086 JUMP JUMPDEST PUSH1 0x1 DUP1 PUSH1 0xA0 SHL SUB SWAP1 DUP2 DUP5 SLOAD AND DUP2 MSTORE DUP2 PUSH1 0x1 DUP6 ADD SLOAD AND DUP7 DUP3 ADD MSTORE PUSH1 0x2 DUP5 ADD SLOAD PUSH1 0x40 DUP3 ADD MSTORE PUSH1 0x3 DUP5 ADD SLOAD PUSH1 0x60 DUP3 ADD MSTORE PUSH2 0x241A PUSH1 0x8 PUSH1 0x4 DUP7 ADD SLOAD SWAP6 PUSH1 0x80 DUP5 ADD SWAP7 DUP8 MSTORE PUSH1 0x5 DUP2 ADD SLOAD PUSH1 0xA0 DUP6 ADD MSTORE PUSH1 0x6 DUP2 ADD SLOAD PUSH1 0xC0 DUP6 ADD MSTORE PUSH1 0x7 DUP2 ADD SLOAD PUSH1 0xE0 DUP6 ADD MSTORE ADD SLOAD SWAP2 PUSH2 0x120 PUSH1 0xFF PUSH2 0x100 DUP4 ADD SWAP5 DUP2 DUP2 AND ISZERO ISZERO DUP7 MSTORE PUSH1 0x8 SHR AND SWAP2 ADD PUSH2 0x214B JUMP JUMPDEST MLOAD ISZERO PUSH2 0x24BF JUMPI DUP5 SWAP1 PUSH1 0x3 SLOAD AND SWAP2 PUSH1 0x24 PUSH1 0x40 MLOAD DUP1 SWAP5 DUP2 SWAP4 PUSH4 0xD5595157 PUSH1 0xE0 SHL DUP4 MSTORE PUSH1 0x4 DUP4 ADD MSTORE GAS STATICCALL SWAP4 DUP5 ISZERO PUSH2 0xA0F JUMPI DUP4 SWAP5 PUSH2 0x248F JUMPI JUMPDEST POP POP DUP3 ISZERO PUSH2 0x2486 JUMPI MLOAD SWAP1 PUSH2 0x2710 SWAP2 DUP3 DUP2 MUL SWAP3 DUP2 DUP5 DIV EQ SWAP1 ISZERO OR ISZERO PUSH2 0x2472 JUMPI POP DIV SWAP1 JUMP JUMPDEST PUSH4 0x4E487B71 PUSH1 0xE0 SHL DUP2 MSTORE PUSH1 0x11 PUSH1 0x4 MSTORE PUSH1 0x24 SWAP1 REVERT JUMPDEST POP POP POP PUSH1 0x0 NOT SWAP1 JUMP JUMPDEST SWAP1 DUP1 SWAP3 SWAP5 POP DUP2 RETURNDATASIZE DUP4 GT PUSH2 0x24B8 JUMPI JUMPDEST PUSH2 0x24A7 DUP2 DUP4 PUSH2 0x20CD JUMP JUMPDEST DUP2 ADD SUB SLT PUSH2 0x21C JUMPI MLOAD SWAP2 CODESIZE DUP1 PUSH2 0x244F JUMP JUMPDEST POP RETURNDATASIZE PUSH2 0x249D JUMP JUMPDEST POP POP POP SWAP1 POP SWAP1 JUMP JUMPDEST PUSH1 0x0 SWAP1 DUP1 DUP3 MSTORE PUSH1 0x20 SWAP1 PUSH1 0x6 DUP3 MSTORE PUSH1 0x40 DUP4 KECCAK256 SWAP1 PUSH1 0x40 MLOAD SWAP2 PUSH2 0x24E6 DUP4 PUSH2 0x2086 JUMP JUMPDEST PUSH1 0x1 DUP1 PUSH1 0xA0 SHL SUB SWAP3 DUP4 DUP3 SLOAD AND DUP2 MSTORE DUP4 PUSH1 0x1 DUP4 ADD SLOAD AND DUP6 DUP3 ADD MSTORE PUSH1 0x2 DUP3 ADD SLOAD PUSH1 0x40 DUP3 ADD MSTORE PUSH1 0x3 DUP3 ADD SLOAD PUSH1 0x60 DUP3 ADD MSTORE PUSH1 0x8 PUSH1 0x4 DUP4 ADD SLOAD SWAP3 PUSH1 0x80 DUP4 ADD SWAP4 DUP5 MSTORE PUSH1 0x5 DUP2 ADD SLOAD PUSH1 0xA0 DUP5 ADD MSTORE PUSH1 0x6 DUP2 ADD SLOAD PUSH1 0xC0 DUP5 ADD MSTORE PUSH1 0x7 DUP2 ADD SLOAD PUSH1 0xE0 DUP5 ADD MSTORE ADD SLOAD SWAP1 PUSH2 0x2564 PUSH1 0xFF PUSH2 0x120 PUSH2 0x100 DUP5 ADD SWAP4 DUP3 DUP7 AND ISZERO ISZERO DUP6 MSTORE ADD SWAP4 PUSH1 0x8 SHR AND DUP4 PUSH2 0x214B JUMP JUMPDEST MLOAD ISZERO PUSH2 0x2633 JUMPI MLOAD PUSH1 0x2 DUP2 LT ISZERO PUSH2 0x261F JUMPI PUSH2 0x2590 DUP6 SWAP3 PUSH2 0x2710 SWAP3 ISZERO PUSH1 0x0 EQ PUSH2 0x2616 JUMPI PUSH2 0x1B58 SWAP1 JUMPDEST MLOAD PUSH2 0x2157 JUMP JUMPDEST DIV SWAP3 PUSH1 0x3 SLOAD AND SWAP2 PUSH1 0x24 PUSH1 0x40 MLOAD DUP1 SWAP5 DUP2 SWAP4 PUSH4 0xD5595157 PUSH1 0xE0 SHL DUP4 MSTORE PUSH1 0x4 DUP4 ADD MSTORE GAS STATICCALL SWAP3 DUP4 ISZERO PUSH2 0x260B JUMPI DUP5 SWAP4 PUSH2 0x25DB JUMPI JUMPDEST POP POP DUP2 DUP2 GT ISZERO PUSH2 0x25D6 JUMPI PUSH2 0x25D3 SWAP3 POP PUSH2 0x228C JUMP JUMPDEST SWAP1 JUMP JUMPDEST POP POP SWAP1 JUMP JUMPDEST SWAP1 DUP1 SWAP3 SWAP4 POP DUP2 RETURNDATASIZE DUP4 GT PUSH2 0x2604 JUMPI JUMPDEST PUSH2 0x25F3 DUP2 DUP4 PUSH2 0x20CD JUMP JUMPDEST DUP2 ADD SUB SLT PUSH2 0x381 JUMPI MLOAD SWAP1 CODESIZE DUP1 PUSH2 0x25BF JUMP JUMPDEST POP RETURNDATASIZE PUSH2 0x25E9 JUMP JUMPDEST PUSH1 0x40 MLOAD RETURNDATASIZE DUP7 DUP3 RETURNDATACOPY RETURNDATASIZE SWAP1 REVERT JUMPDEST PUSH2 0x1770 SWAP1 PUSH2 0x258A JUMP JUMPDEST PUSH4 0x4E487B71 PUSH1 0xE0 SHL DUP7 MSTORE PUSH1 0x21 PUSH1 0x4 MSTORE PUSH1 0x24 DUP7 REVERT JUMPDEST POP POP POP POP POP SWAP1 JUMP INVALID LOG2 PUSH5 0x6970667358 0x22 SLT KECCAK256 LT 0xA6 0xAD SWAP3 0x2E DUP5 ISZERO SWAP5 0xD7 CREATE SWAP2 0x2B PUSH21 0xB4E28F76B176BE9897548939D3DBE24A8B1FF86473 PUSH16 0x6C634300081400330000000000000000 "},"methodIdentifiers":{"BASIS_POINTS()":"e1f1c4a7","LIQUIDATION_FEE_BPS()":"518e8dfc","LIQUIDATION_THRESHOLD()":"90a8ae9b","PRIVATE_ASSET_LTV()":"d79873b9","RWA_LTV()":"761c5f0a","borrowUSDC(uint256,uint256)":"47f6c760","depositCollateral(address,uint256,uint256,uint8,bool)":"0bae9ef9","getHealthFactor(uint256)":"17845c69","getMaxBorrow(uint256)":"7b5210d8","getPosition(uint256)":"eb02c301","liquidatePosition(uint256)":"cdddd4e5","nextPositionId()":"899346c7","oaid()":"2be04392","owner()":"8da5cb5b","positions(uint256)":"99fbab88","positionsInLiquidation(uint256)":"16ef1729","primaryMarket()":"1e77ceda","purchaseAndSettleLiquidation(uint256,uint256)":"5403bc4a","renounceOwnership()":"715018a6","repayLoan(uint256,uint256)":"8a700b53","seniorPool()":"f416fc1c","setOAID(address)":"6c320cb0","setPrimaryMarket(address)":"e2dc3666","setYieldVault(address)":"137c3f69","settleLiquidation(uint256)":"837c2a61","transferOwnership(address)":"f2fde38b","usdc()":"3e413bee","withdrawCollateral(uint256,uint256)":"767a7b05","yieldVault()":"a7f8a5e2"}}}}}