{"contracts/integrations/OAID.sol":{"OAID":{"abi":[{"inputs":[],"stateMutability":"nonpayable","type":"constructor"},{"inputs":[{"internalType":"address","name":"owner","type":"address"}],"name":"OwnableInvalidOwner","type":"error"},{"inputs":[{"internalType":"address","name":"account","type":"address"}],"name":"OwnableUnauthorizedAccount","type":"error"},{"inputs":[],"name":"ReentrancyGuardReentrantCall","type":"error"},{"anonymous":false,"inputs":[{"indexed":true,"internalType":"uint256","name":"creditLineId","type":"uint256"},{"indexed":true,"internalType":"address","name":"user","type":"address"},{"indexed":false,"internalType":"address","name":"collateralToken","type":"address"},{"indexed":false,"internalType":"uint256","name":"collateralAmount","type":"uint256"},{"indexed":false,"internalType":"uint256","name":"creditLimit","type":"uint256"},{"indexed":false,"internalType":"uint256","name":"solvencyPositionId","type":"uint256"}],"name":"CreditLineIssued","type":"event"},{"anonymous":false,"inputs":[{"indexed":true,"internalType":"uint256","name":"creditLineId","type":"uint256"},{"indexed":false,"internalType":"string","name":"reason","type":"string"}],"name":"CreditLineRevoked","type":"event"},{"anonymous":false,"inputs":[{"indexed":true,"internalType":"uint256","name":"creditLineId","type":"uint256"},{"indexed":false,"internalType":"uint256","name":"oldCreditLimit","type":"uint256"},{"indexed":false,"internalType":"uint256","name":"newCreditLimit","type":"uint256"}],"name":"CreditLineUpdated","type":"event"},{"anonymous":false,"inputs":[{"indexed":true,"internalType":"uint256","name":"creditLineId","type":"uint256"},{"indexed":false,"internalType":"uint256","name":"amount","type":"uint256"},{"indexed":false,"internalType":"uint256","name":"remainingUsed","type":"uint256"}],"name":"CreditRepaid","type":"event"},{"anonymous":false,"inputs":[{"indexed":true,"internalType":"uint256","name":"creditLineId","type":"uint256"},{"indexed":false,"internalType":"uint256","name":"amount","type":"uint256"},{"indexed":false,"internalType":"uint256","name":"totalUsed","type":"uint256"}],"name":"CreditUsed","type":"event"},{"anonymous":false,"inputs":[{"indexed":true,"internalType":"address","name":"previousOwner","type":"address"},{"indexed":true,"internalType":"address","name":"newOwner","type":"address"}],"name":"OwnershipTransferred","type":"event"},{"anonymous":false,"inputs":[{"indexed":true,"internalType":"uint256","name":"creditLineId","type":"uint256"},{"indexed":true,"internalType":"address","name":"user","type":"address"},{"indexed":false,"internalType":"uint256","name":"amount","type":"uint256"},{"indexed":false,"internalType":"bool","name":"onTime","type":"bool"},{"indexed":false,"internalType":"uint256","name":"daysLate","type":"uint256"}],"name":"PaymentRecorded","type":"event"},{"anonymous":false,"inputs":[{"indexed":true,"internalType":"uint256","name":"creditLineId","type":"uint256"},{"indexed":true,"internalType":"address","name":"user","type":"address"},{"indexed":false,"internalType":"uint256","name":"timestamp","type":"uint256"}],"name":"PositionLiquidated","type":"event"},{"anonymous":false,"inputs":[{"indexed":true,"internalType":"address","name":"user","type":"address"},{"indexed":false,"internalType":"uint256","name":"timestamp","type":"uint256"}],"name":"UserRegistered","type":"event"},{"inputs":[{"internalType":"uint256","name":"","type":"uint256"}],"name":"creditLines","outputs":[{"internalType":"address","name":"user","type":"address"},{"internalType":"address","name":"collateralToken","type":"address"},{"internalType":"uint256","name":"collateralAmount","type":"uint256"},{"internalType":"uint256","name":"creditLimit","type":"uint256"},{"internalType":"uint256","name":"creditUsed","type":"uint256"},{"internalType":"uint256","name":"solvencyPositionId","type":"uint256"},{"internalType":"uint256","name":"issuedAt","type":"uint256"},{"internalType":"uint256","name":"totalPayments","type":"uint256"},{"internalType":"uint256","name":"onTimePayments","type":"uint256"},{"internalType":"uint256","name":"latePayments","type":"uint256"},{"internalType":"uint256","name":"totalAmountRepaid","type":"uint256"},{"internalType":"bool","name":"liquidated","type":"bool"},{"internalType":"uint256","name":"liquidatedAt","type":"uint256"},{"internalType":"bool","name":"active","type":"bool"}],"stateMutability":"view","type":"function"},{"inputs":[{"internalType":"uint256","name":"creditLineId","type":"uint256"}],"name":"getAvailableCredit","outputs":[{"internalType":"uint256","name":"","type":"uint256"}],"stateMutability":"view","type":"function"},{"inputs":[{"internalType":"uint256","name":"creditLineId","type":"uint256"}],"name":"getCreditLine","outputs":[{"components":[{"internalType":"address","name":"user","type":"address"},{"internalType":"address","name":"collateralToken","type":"address"},{"internalType":"uint256","name":"collateralAmount","type":"uint256"},{"internalType":"uint256","name":"creditLimit","type":"uint256"},{"internalType":"uint256","name":"creditUsed","type":"uint256"},{"internalType":"uint256","name":"solvencyPositionId","type":"uint256"},{"internalType":"uint256","name":"issuedAt","type":"uint256"},{"internalType":"uint256","name":"totalPayments","type":"uint256"},{"internalType":"uint256","name":"onTimePayments","type":"uint256"},{"internalType":"uint256","name":"latePayments","type":"uint256"},{"internalType":"uint256","name":"totalAmountRepaid","type":"uint256"},{"internalType":"bool","name":"liquidated","type":"bool"},{"internalType":"uint256","name":"liquidatedAt","type":"uint256"},{"internalType":"bool","name":"active","type":"bool"}],"internalType":"struct OAID.CreditLine","name":"","type":"tuple"}],"stateMutability":"view","type":"function"},{"inputs":[{"internalType":"address","name":"user","type":"address"}],"name":"getCreditProfile","outputs":[{"internalType":"uint256","name":"activeCreditLines","type":"uint256"},{"internalType":"uint256","name":"totalCreditLimit","type":"uint256"},{"internalType":"uint256","name":"totalPayments","type":"uint256"},{"internalType":"uint256","name":"onTimePayments","type":"uint256"},{"internalType":"uint256","name":"latePayments","type":"uint256"},{"internalType":"uint256","name":"liquidations","type":"uint256"},{"internalType":"uint256","name":"creditScore","type":"uint256"}],"stateMutability":"view","type":"function"},{"inputs":[{"internalType":"address","name":"user","type":"address"}],"name":"getCreditScore","outputs":[{"internalType":"uint256","name":"","type":"uint256"}],"stateMutability":"view","type":"function"},{"inputs":[{"internalType":"uint256","name":"creditLineId","type":"uint256"}],"name":"getPaymentHistory","outputs":[{"components":[{"internalType":"uint256","name":"timestamp","type":"uint256"},{"internalType":"uint256","name":"amount","type":"uint256"},{"internalType":"bool","name":"onTime","type":"bool"},{"internalType":"uint256","name":"daysLate","type":"uint256"}],"internalType":"struct OAID.PaymentRecord[]","name":"","type":"tuple[]"}],"stateMutability":"view","type":"function"},{"inputs":[{"internalType":"address","name":"user","type":"address"}],"name":"getTotalAvailableCredit","outputs":[{"internalType":"uint256","name":"","type":"uint256"}],"stateMutability":"view","type":"function"},{"inputs":[{"internalType":"address","name":"user","type":"address"}],"name":"getTotalCreditLimit","outputs":[{"internalType":"uint256","name":"","type":"uint256"}],"stateMutability":"view","type":"function"},{"inputs":[{"internalType":"address","name":"user","type":"address"}],"name":"getUserCreditLines","outputs":[{"internalType":"uint256[]","name":"","type":"uint256[]"}],"stateMutability":"view","type":"function"},{"inputs":[{"internalType":"address","name":"user","type":"address"}],"name":"isUserRegistered","outputs":[{"internalType":"bool","name":"","type":"bool"}],"stateMutability":"view","type":"function"},{"inputs":[{"internalType":"address","name":"user","type":"address"},{"internalType":"address","name":"collateralToken","type":"address"},{"internalType":"uint256","name":"collateralAmount","type":"uint256"},{"internalType":"uint256","name":"valueUSD","type":"uint256"},{"internalType":"uint256","name":"solvencyPositionId","type":"uint256"}],"name":"issueCreditLine","outputs":[{"internalType":"uint256","name":"creditLineId","type":"uint256"}],"stateMutability":"nonpayable","type":"function"},{"inputs":[],"name":"nextCreditLineId","outputs":[{"internalType":"uint256","name":"","type":"uint256"}],"stateMutability":"view","type":"function"},{"inputs":[],"name":"owner","outputs":[{"internalType":"address","name":"","type":"address"}],"stateMutability":"view","type":"function"},{"inputs":[{"internalType":"uint256","name":"","type":"uint256"},{"internalType":"uint256","name":"","type":"uint256"}],"name":"paymentHistory","outputs":[{"internalType":"uint256","name":"timestamp","type":"uint256"},{"internalType":"uint256","name":"amount","type":"uint256"},{"internalType":"bool","name":"onTime","type":"bool"},{"internalType":"uint256","name":"daysLate","type":"uint256"}],"stateMutability":"view","type":"function"},{"inputs":[{"internalType":"uint256","name":"creditLineId","type":"uint256"},{"internalType":"uint256","name":"amount","type":"uint256"}],"name":"recordCreditRepayment","outputs":[],"stateMutability":"nonpayable","type":"function"},{"inputs":[{"internalType":"uint256","name":"creditLineId","type":"uint256"},{"internalType":"uint256","name":"amount","type":"uint256"}],"name":"recordCreditUsage","outputs":[],"stateMutability":"nonpayable","type":"function"},{"inputs":[{"internalType":"uint256","name":"creditLineId","type":"uint256"},{"internalType":"uint256","name":"amount","type":"uint256"},{"internalType":"bool","name":"onTime","type":"bool"},{"internalType":"uint256","name":"daysLate","type":"uint256"}],"name":"recordPayment","outputs":[],"stateMutability":"nonpayable","type":"function"},{"inputs":[{"internalType":"address","name":"user","type":"address"}],"name":"registerUser","outputs":[],"stateMutability":"nonpayable","type":"function"},{"inputs":[{"internalType":"address","name":"","type":"address"}],"name":"registeredUsers","outputs":[{"internalType":"bool","name":"","type":"bool"}],"stateMutability":"view","type":"function"},{"inputs":[],"name":"renounceOwnership","outputs":[],"stateMutability":"nonpayable","type":"function"},{"inputs":[{"internalType":"uint256","name":"creditLineId","type":"uint256"},{"internalType":"string","name":"reason","type":"string"}],"name":"revokeCreditLine","outputs":[],"stateMutability":"nonpayable","type":"function"},{"inputs":[{"internalType":"address","name":"_solvencyVault","type":"address"}],"name":"setSolvencyVault","outputs":[],"stateMutability":"nonpayable","type":"function"},{"inputs":[],"name":"solvencyVault","outputs":[{"internalType":"address","name":"","type":"address"}],"stateMutability":"view","type":"function"},{"inputs":[{"internalType":"address","name":"newOwner","type":"address"}],"name":"transferOwnership","outputs":[],"stateMutability":"nonpayable","type":"function"},{"inputs":[{"internalType":"uint256","name":"creditLineId","type":"uint256"},{"internalType":"uint256","name":"newValueUSD","type":"uint256"}],"name":"updateCreditLine","outputs":[],"stateMutability":"nonpayable","type":"function"},{"inputs":[{"internalType":"address","name":"","type":"address"},{"internalType":"uint256","name":"","type":"uint256"}],"name":"userCreditLines","outputs":[{"internalType":"uint256","name":"","type":"uint256"}],"stateMutability":"view","type":"function"},{"inputs":[{"internalType":"address","name":"","type":"address"}],"name":"userRegistrationTime","outputs":[{"internalType":"uint256","name":"","type":"uint256"}],"stateMutability":"view","type":"function"}],"evm":{"bytecode":{"linkReferences":{},"object":"6080806040523461008357331561006d5760008054336001600160a01b03198216811783556040519290916001600160a01b0316907f8be0079c531659141344cd1fd0a4f28419497f9722a3daafe3b4186f6b6457e09080a3600180556001600655611ff190816100898239f35b631e4fbdf760e01b815260006004820152602490fd5b600080fdfe6080604052600436101561001257600080fd5b60003560e01c8063079bafe3146116d35780630e50cee514611694578063163f7522146116945780632077997b146115cb57806320bb463e146114555780632199d5cd1461134157806336e433ba1461126d57806344452ba1146112445780634e02503a1461114457806365a1782f1461106e57806367cc7cff14610e5b5780636ad75e1f14610d89578063715018a614610d305780637bca9fcc14610cd85780638da5cb5b14610caf5780638f19cfa914610c91578063ad6e4f3a14610bdd578063b27062db14610b7b578063cbcddf1314610b5d578063d3dd2bdf14610b32578063d5cdd4c6146109aa578063e32195d61461065e578063ea3854d81461059d578063edad8550146103c5578063f030af221461038b578063f2f6818f146101d85763f2fde38b1461014557600080fd5b346101d35760203660031901126101d35761015e611966565b610166611a37565b6001600160a01b039081169081156101ba57600054826bffffffffffffffffffffffff60a01b821617600055167f8be0079c531659141344cd1fd0a4f28419497f9722a3daafe3b4186f6b6457e0600080a3005b604051631e4fbdf760e01b815260006004820152602490fd5b600080fd5b346101d35760803660031901126101d35760043560243590604435801515928382036101d3576002546001600160a01b0391906064359061021c9084163314611a63565b610224611b25565b84600052600560205260406000209361024360ff600d87015416611b48565b61024e831515611aa4565b6007850161025c8154611b8d565b9055600a850161026d848254611ba9565b90551561037657600884016102828154611b8d565b90555b846000526007602052604060002092604051946102a1866119af565b4286526020860194848652604087019589875260608801918583528054600160401b811015610360576102d991600182018155611a1b565b92909261034a5761032c6060986003937fe6ede282c3816020c6237ddeb8149ba1abbd6d10ebfd300af07f526a09b55b859b518655516001860155511515600285019060ff801983541691151516179055565b5191015554169560405192835260208301526040820152a360018055005b634e487b7160e01b600052600060045260246000fd5b634e487b7160e01b600052604160045260246000fd5b600984016103848154611b8d565b9055610285565b346101d35760203660031901126101d3576001600160a01b036103ac611966565b1660005260046020526020604060002054604051908152f35b346101d35760203660031901126101d35760006101a06040516103e781611992565b8281528260208201528260408201528260608201528260808201528260a08201528260c08201528260e08201528261010082015282610120820152826101408201528261016082015282610180820152015260043560005260056020526101c060406000206101a060405161045b81611992565b60ff600d60018060a01b038554169485845260018060a01b036001820154166020850152600281015460408501526003810154606085015260048101546080850152600581015460a0850152600681015460c0850152600781015460e085015260088101546101008501526009810154610120850152600a81015461014085015282600b820154161515610160850152600c81015461018085015201541615158282015260405192835260018060a01b03602082015116602084015260408101516040840152606081015160608401526080810151608084015260a081015160a084015260c081015160c084015260e081015160e08401526101008101516101008401526101208101516101208401526101408101516101408401526101608101511515610160840152610180810151610180840152015115156101a0820152f35b346101d3576105ab3661197c565b6105c060018060a01b03600254163314611a63565b6105c8611b25565b8160005260056020526040600020906105e760ff600d84015416611b48565b60038115926105f68415611ae5565b0191825490611b58808402938404141715610648577f720881e7a116a115d83475e857dd1e6d1129a6aff9007477505eb63f301bde6f926127106040930480915582519182526020820152a260018055005b634e487b7160e01b600052601160045260246000fd5b346101d35760a03660031901126101d357610677611966565b6024356001600160a01b03811681036101d357606435906106a360018060a01b03600254163314611a63565b6106ab611b25565b6001600160a01b03831660009081526003602052604090205460ff161561096f576001600160a01b0381161561093a576106e86044351515611aa4565b81156106f48115611ae5565b611b58808402938404141715610648576006549161071183611b8d565b60065561088860405161072381611992565b60018060a01b038616815260018060a01b03841660208201526044356040820152612710830460608201526000608082015260843560a08201524260c0820152600060e08201526000610100820152600061012082015260006101408201526000610160820152600061018082015260016101a0820152846000526005602052600d6101a060406000209260018060a01b038151166bffffffffffffffffffffffff60a01b9081865416178555600185019060018060a01b036020840151169082541617905560408101516002850155606081015160038501556080810151600485015560a0810151600585015560c0810151600685015560e0810151600785015561010081015160088501556101208101516009850155610140810151600a8501556108666101608201511515600b86019060ff801983541691151516179055565b610180810151600c8501550151151591019060ff801983541691151516179055565b6001600160a01b038416600090815260086020526040902080549190600160401b831015610360576020956127107fd0b5542c8f25b14fdbbe9bbbc395dd5fd5c2ff36f08e69f6e6d80ffb93462feb936108eb8660809560018b990181556119ed565b815460001960039290921b91821b19169088901b179055604080516001600160a01b0398891681526044358b82015292909104908201526084356060820152941693a360018055604051908152f35b60405162461bcd60e51b815260206004820152600d60248201526c24b73b30b634b2103a37b5b2b760991b6044820152606490fd5b60405162461bcd60e51b8152602060048201526013602482015272155cd95c881b9bdd081c9959da5cdd195c9959606a1b6044820152606490fd5b346101d3576020806003193601126101d3576109c4611966565b9060009060018060a01b03809316600052600891828252604060002092604051808585829754938481520190600052856000209260005b87828210610b1c57505050610a12925003856119cb565b60005b8451811015610b1257610a288186611c8b565b51600052600580855260406000206101a0604051610a4581611992565b89835416815289600184015416888201526002830154604082015260038301549283606083015260048101549485608084015281015460a0830152600681015460c0830152600781015460e0830152868101546101008301526009810154610120830152600a810154610140830152600d60ff9182600b820154161515610160850152600c81015461018085015201541615159182910152610af2575b5050610aed90611b8d565b610a15565b93610b04610b0a92610aed9496611b9c565b90611ba9565b929087610ae2565b5050604051908152f35b855484526001958601958a9550930192016109fb565b346101d35760203660031901126101d3576020610b55610b50611966565b611c9f565b604051908152f35b346101d35760203660031901126101d3576020610b55600435611bb6565b346101d357610b893661197c565b906000526007602052604060002080548210156101d357608091610bac91611a1b565b50805490600181015490600360ff600283015416910154916040519384526020840152151560408301526060820152f35b346101d3576020806003193601126101d3576001600160a01b03610bff611966565b1660005260088152604060002060405190818382549182815201908192600052846000209060005b86828210610c7d578686610c3d828803836119cb565b604051928392818401908285525180915260408401929160005b828110610c6657505050500390f35b835185528695509381019392810192600101610c57565b835485529093019260019283019201610c27565b346101d35760003660031901126101d3576020600654604051908152f35b346101d35760003660031901126101d3576000546040516001600160a01b039091168152602090f35b346101d35760403660031901126101d357610cf1611966565b6001600160a01b03166000908152600860205260409020805460243591908210156101d357602091610d22916119ed565b90546040519160031b1c8152f35b346101d35760003660031901126101d357610d49611a37565b600080546001600160a01b0319811682556001600160a01b03167f8be0079c531659141344cd1fd0a4f28419497f9722a3daafe3b4186f6b6457e08280a3005b346101d357610d973661197c565b610d9f611a37565b610da7611b25565b81600052600560205260046040600020610dc760ff600d83015416611b48565b610dd2831515611aa4565b0190815490818111610e20577f1af839ce655eb23ec05b8977b91598e475661a48d34a7f4b4c499ddcaeac551c92610e0c82604094611b9c565b80915582519182526020820152a260018055005b60405162461bcd60e51b8152602060048201526013602482015272105b5bdd5b9d08195e18d959591cc81919589d606a1b6044820152606490fd5b346101d35760403660031901126101d35767ffffffffffffffff600435602480358381116101d357366023820112156101d3578060040135918483116110245760405194602093601f1993610eb7601f830186168701896119cb565b818852368483830101116101d3578160009285889301838b0137880101526002546001600160a01b039290610eef9084163314611a63565b610ef7611b25565b8560005260058552604060002091600d83019182549260ff8416156110385760ff199384169055885115159182610fe7575b5050610fa0575b50505060405191808352845190818185015260005b828110610f8c57857f1c15f1e13a77fb81a0da9e59f48e2101623c7c71d6a01ab217f2a45acd5de8108660408188601f89600085828601015201168101030190a260018055005b868101820151858201604001528101610f45565b6001600b83019182541617905542600c8201555416837f26dc706c10b1f8a4bf68a2f50b9a025921938e72ee2ab65f50815438fba4a88d84604051428152a3848080610f30565b60408051935083019190821183831017611024575060405260088152671b1a5c5d5a59185d60c21b8682015261101d9088611f12565b8880610f29565b634e487b7160e01b60009081526041600452fd5b60405162461bcd60e51b815260048101899052600f818401526e105b1c9958591e481c995d9bdad959608a1b6044820152606490fd5b346101d35761107c3661197c565b611084611a37565b61108c611b25565b81600052600560205260406000206110aa60ff600d83015416611b48565b6110b5821515611aa4565b600460038201549101916110cb83548093611b9c565b81116110ff577f5496d924a06323b0525576522992e3fc0c11a350cd485f9053de0e7ba84aee3592610e0c82604094611ba9565b60405162461bcd60e51b815260206004820152601860248201527f4578636565647320617661696c61626c652063726564697400000000000000006044820152606490fd5b346101d3576020806003193601126101d35760043560005260078152604060002090815467ffffffffffffffff8111610360576040519061118a838260051b01836119cb565b8082528282018094600052836000206000915b8383106111ff5760408051878152865181890181905289928201908960005b8281106111c95784840385f35b855180518552808301518584015260408082015115159086015260609081015190850152948101946080909301926001016111bc565b600486600192604051611211816119af565b85548152848601548382015260ff600287015416151560408201526003860154606082015281520192019201919061119d565b346101d35760003660031901126101d3576002546040516001600160a01b039091168152602090f35b346101d35760203660031901126101d35760043560005260056020526101c0604060002060018060a01b039081815416916001820154169060028101546003820154600483015460058401546006850154600786015490600887015492600988015494600a8901549660ff600b8b0154169860ff600d600c8d01549c0154169b60206040519e8f908152015260408d015260608c015260808b015260a08a015260c089015260e0880152610100870152610120860152610140850152151561016084015261018083015215156101a0820152f35b346101d3576020806003193601126101d35761135b611966565b611363611a37565b6001600160a01b031690811561141a57816000526003815260ff604060002054166113d6577fe29d35093005f4d575e1003753426b57a7f64378ba73332eef9c6ccc2b8decd69082600052600381526040600020600160ff198254161790556004815242604060002055604051428152a2005b6064906040519062461bcd60e51b82526004820152601760248201527f5573657220616c726561647920726567697374657265640000000000000000006044820152fd5b6064906040519062461bcd60e51b825260048201526014602482015273496e76616c69642075736572206164647265737360601b6044820152fd5b346101d3576020806003193601126101d35761146f611966565b6001600160a01b0390811660009081526008808452604080832090518154808252918452858420909491859081880190865b898282106115b5575050506114b8925003856119cb565b60005b84518110156115ab576114ce8186611c8b565b5160005260058087526101a06040600020604051906114ec82611992565b858154168252856001820154168a830152600281015460408301526003810154938460608401526004820154608084015281015460a0830152600681015460c0830152600781015460e0830152868101546101008301526009810154610120830152600a810154610140830152600d60ff9182600b820154161515610160850152600c81015461018085015201541615159182910152611596575b5061159190611b8d565b6114bb565b6115a4906115919295611ba9565b9390611587565b8584604051908152f35b855484526001958601958a9550930192016114a1565b346101d35760203660031901126101d3576115e4611966565b6115ec611a37565b600254906001600160a01b039081831661164f5716908115611618576001600160a01b03191617600255005b60405162461bcd60e51b815260206004820152600f60248201526e496e76616c6964206164647265737360881b6044820152606490fd5b60405162461bcd60e51b815260206004820152601960248201527f536f6c76656e63795661756c7420616c726561647920736574000000000000006044820152606490fd5b346101d35760203660031901126101d3576001600160a01b036116b5611966565b166000526003602052602060ff604060002054166040519015158152f35b346101d35760203660031901126101d3576116ec611966565b6000906000806000916000809360018060a01b0386166000526008602052604060002080548060805260206080019160005260206000209060005b81811061195057505050611740906080900360806119cb565b60005b6080518110156118ac57611758816080611c8b565b516000526005938460205260ff600d60406000206040519761177989611992565b81546001600160a01b039081168a5260018301541660208a0152600282015460408a0152600382015460608a0152600482015460808a015281015460a0890152600681015460c0890152600781015460e089015260088101546101008901526009810154610120890152600a810154610140890152600b81015483161515610160890152600c81015461018089015201541615156101a0860181905261187b575b61184c61183f6118326101609360e089015190611ba9565b9461010088015190611ba9565b9461012087015190611ba9565b940151611866575b61185d90611b8d565b92919092611743565b9461187361185d91611b8d565b959050611854565b949761184c61183f6118326118a161189561016095611b8d565b9c60608a015190611ba9565b98935050505061181a565b5060405163d3dd2bdf60e01b81526001600160a01b039096166004870152869492602087602481305afa9485156119445760009561190f575b60e09750604051968752602087015260408601526060850152608084015260a083015260c0820152f35b94506020873d60201161193c575b8161192a602093836119cb565b810103126101d35760e09651946118e5565b3d915061191d565b6040513d6000823e3d90fd5b8254845260209093019260019283019201611727565b600435906001600160a01b03821682036101d357565b60409060031901126101d3576004359060243590565b6101c0810190811067ffffffffffffffff82111761036057604052565b6080810190811067ffffffffffffffff82111761036057604052565b90601f8019910116810190811067ffffffffffffffff82111761036057604052565b8054821015611a055760005260206000200190600090565b634e487b7160e01b600052603260045260246000fd5b8054821015611a055760005260206000209060021b0190600090565b6000546001600160a01b03163303611a4b57565b60405163118cdaa760e01b8152336004820152602490fd5b15611a6a57565b60405162461bcd60e51b815260206004820152601260248201527113db9b1e4814dbdb1d995b98de55985d5b1d60721b6044820152606490fd5b15611aab57565b60405162461bcd60e51b81526020600482015260126024820152710416d6f756e74206d757374206265203e20360741b6044820152606490fd5b15611aec57565b60405162461bcd60e51b8152602060048201526011602482015270056616c7565206d757374206265203e203607c1b6044820152606490fd5b600260015414611b36576002600155565b604051633ee5aeb560e01b8152600490fd5b15611b4f57565b60405162461bcd60e51b8152602060048201526016602482015275437265646974206c696e65206e6f742061637469766560501b6044820152606490fd5b60001981146106485760010190565b9190820391821161064857565b9190820180921161064857565b6000526005602052604060002060405190611bd082611992565b60018060a01b0380825416835260018201541660208301526002810154604083015260038101549182606082015260ff600d600484015493846080850152600581015460a0850152600681015460c0850152600781015460e085015260088101546101008501526009810154610120850152600a81015461014085015282600b820154161515610160850152600c81015461018085015201541615906101a08215910152611c8457611c8191611b9c565b90565b5050600090565b8051821015611a055760209160051b010190565b9060018060a01b0391826000911681526008602093818552604091828420938351808689829854938481520190845289842092845b8b828210611eeb57505050611ceb925003866119cb565b845115611ee357928380918196825b8151811015611e0457611d0d8183611c8b565b518452600594858c5283852098845196611d2688611992565b898b541688528d8a60018d0154169089015260028b01548689015260038b0154606089015260048b015460808901528a015460a088015260068a015460c088015260078a01548060e0890152888b015497610100810198895260098c0154610120820152600a8c01546101408201528b60ff600b81920154169c6101608301809e15159052600c810154610180840152600d0154161515906101a00152611dcc91611ba9565b9551611dd791611ba9565b9751611def575b611de790611b8d565b969396611cfa565b97611dfc611de791611b8d565b989050611dde565b505050959650929150508015611ed957610320918281029281159082850414811715611ec55760c885029480860460c81490151715611ec557610190808611611ebd575b50600a821115611e8f57505090611e639160c8915b04611ba9565b81811115611e8857611e759250611b9c565b6103e8808211611e83575090565b905090565b5050611e75565b601482029182046014141715611ea95790611e6392611e5d565b634e487b7160e01b85526011600452602485fd5b945038611e48565b634e487b7160e01b86526011600452602486fd5b505050506101f490565b955050505050565b855484526001958601958b955093019201611cd4565b908151811015611a05570160200190565b90805182518111611fb35715611c84576000905b611f338351825190611b9c565b8211611fb35760019260005b8251811015611fa9576001600160f81b031980611f65611f5f8488611ba9565b85611f01565b511690611f728386611f01565b511603611f8757611f8290611b8d565b611f3f565b5092509060005b611fa157611f9b90611b8d565b90611f26565b505050600190565b5092919091611f8e565b50505060009056fea2646970667358221220a57110aab5d6a8cb2438a94a7ac9c5fad60e74f4e747b4770173d38818be1f8164736f6c63430008140033","opcodes":"PUSH1 0x80 DUP1 PUSH1 0x40 MSTORE CALLVALUE PUSH2 0x83 JUMPI CALLER ISZERO PUSH2 0x6D JUMPI PUSH1 0x0 DUP1 SLOAD CALLER PUSH1 0x1 PUSH1 0x1 PUSH1 0xA0 SHL SUB NOT DUP3 AND DUP2 OR DUP4 SSTORE PUSH1 0x40 MLOAD SWAP3 SWAP1 SWAP2 PUSH1 0x1 PUSH1 0x1 PUSH1 0xA0 SHL SUB AND SWAP1 PUSH32 0x8BE0079C531659141344CD1FD0A4F28419497F9722A3DAAFE3B4186F6B6457E0 SWAP1 DUP1 LOG3 PUSH1 0x1 DUP1 SSTORE PUSH1 0x1 PUSH1 0x6 SSTORE PUSH2 0x1FF1 SWAP1 DUP2 PUSH2 0x89 DUP3 CODECOPY RETURN JUMPDEST PUSH4 0x1E4FBDF7 PUSH1 0xE0 SHL DUP2 MSTORE PUSH1 0x0 PUSH1 0x4 DUP3 ADD MSTORE PUSH1 0x24 SWAP1 REVERT JUMPDEST PUSH1 0x0 DUP1 REVERT INVALID PUSH1 0x80 PUSH1 0x40 MSTORE PUSH1 0x4 CALLDATASIZE LT ISZERO PUSH2 0x12 JUMPI PUSH1 0x0 DUP1 REVERT JUMPDEST PUSH1 0x0 CALLDATALOAD PUSH1 0xE0 SHR DUP1 PUSH4 0x79BAFE3 EQ PUSH2 0x16D3 JUMPI DUP1 PUSH4 0xE50CEE5 EQ PUSH2 0x1694 JUMPI DUP1 PUSH4 0x163F7522 EQ PUSH2 0x1694 JUMPI DUP1 PUSH4 0x2077997B EQ PUSH2 0x15CB JUMPI DUP1 PUSH4 0x20BB463E EQ PUSH2 0x1455 JUMPI DUP1 PUSH4 0x2199D5CD EQ PUSH2 0x1341 JUMPI DUP1 PUSH4 0x36E433BA EQ PUSH2 0x126D JUMPI DUP1 PUSH4 0x44452BA1 EQ PUSH2 0x1244 JUMPI DUP1 PUSH4 0x4E02503A EQ PUSH2 0x1144 JUMPI DUP1 PUSH4 0x65A1782F EQ PUSH2 0x106E JUMPI DUP1 PUSH4 0x67CC7CFF EQ PUSH2 0xE5B JUMPI DUP1 PUSH4 0x6AD75E1F EQ PUSH2 0xD89 JUMPI DUP1 PUSH4 0x715018A6 EQ PUSH2 0xD30 JUMPI DUP1 PUSH4 0x7BCA9FCC EQ PUSH2 0xCD8 JUMPI DUP1 PUSH4 0x8DA5CB5B EQ PUSH2 0xCAF JUMPI DUP1 PUSH4 0x8F19CFA9 EQ PUSH2 0xC91 JUMPI DUP1 PUSH4 0xAD6E4F3A EQ PUSH2 0xBDD JUMPI DUP1 PUSH4 0xB27062DB EQ PUSH2 0xB7B JUMPI DUP1 PUSH4 0xCBCDDF13 EQ PUSH2 0xB5D JUMPI DUP1 PUSH4 0xD3DD2BDF EQ PUSH2 0xB32 JUMPI DUP1 PUSH4 0xD5CDD4C6 EQ PUSH2 0x9AA JUMPI DUP1 PUSH4 0xE32195D6 EQ PUSH2 0x65E JUMPI DUP1 PUSH4 0xEA3854D8 EQ PUSH2 0x59D JUMPI DUP1 PUSH4 0xEDAD8550 EQ PUSH2 0x3C5 JUMPI DUP1 PUSH4 0xF030AF22 EQ PUSH2 0x38B JUMPI DUP1 PUSH4 0xF2F6818F EQ PUSH2 0x1D8 JUMPI PUSH4 0xF2FDE38B EQ PUSH2 0x145 JUMPI PUSH1 0x0 DUP1 REVERT JUMPDEST CALLVALUE PUSH2 0x1D3 JUMPI PUSH1 0x20 CALLDATASIZE PUSH1 0x3 NOT ADD SLT PUSH2 0x1D3 JUMPI PUSH2 0x15E PUSH2 0x1966 JUMP JUMPDEST PUSH2 0x166 PUSH2 0x1A37 JUMP JUMPDEST PUSH1 0x1 PUSH1 0x1 PUSH1 0xA0 SHL SUB SWAP1 DUP2 AND SWAP1 DUP2 ISZERO PUSH2 0x1BA JUMPI PUSH1 0x0 SLOAD DUP3 PUSH12 0xFFFFFFFFFFFFFFFFFFFFFFFF PUSH1 0xA0 SHL DUP3 AND OR PUSH1 0x0 SSTORE AND PUSH32 0x8BE0079C531659141344CD1FD0A4F28419497F9722A3DAAFE3B4186F6B6457E0 PUSH1 0x0 DUP1 LOG3 STOP JUMPDEST PUSH1 0x40 MLOAD PUSH4 0x1E4FBDF7 PUSH1 0xE0 SHL DUP2 MSTORE PUSH1 0x0 PUSH1 0x4 DUP3 ADD MSTORE PUSH1 0x24 SWAP1 REVERT JUMPDEST PUSH1 0x0 DUP1 REVERT JUMPDEST CALLVALUE PUSH2 0x1D3 JUMPI PUSH1 0x80 CALLDATASIZE PUSH1 0x3 NOT ADD SLT PUSH2 0x1D3 JUMPI PUSH1 0x4 CALLDATALOAD PUSH1 0x24 CALLDATALOAD SWAP1 PUSH1 0x44 CALLDATALOAD DUP1 ISZERO ISZERO SWAP3 DUP4 DUP3 SUB PUSH2 0x1D3 JUMPI PUSH1 0x2 SLOAD PUSH1 0x1 PUSH1 0x1 PUSH1 0xA0 SHL SUB SWAP2 SWAP1 PUSH1 0x64 CALLDATALOAD SWAP1 PUSH2 0x21C SWAP1 DUP5 AND CALLER EQ PUSH2 0x1A63 JUMP JUMPDEST PUSH2 0x224 PUSH2 0x1B25 JUMP JUMPDEST DUP5 PUSH1 0x0 MSTORE PUSH1 0x5 PUSH1 0x20 MSTORE PUSH1 0x40 PUSH1 0x0 KECCAK256 SWAP4 PUSH2 0x243 PUSH1 0xFF PUSH1 0xD DUP8 ADD SLOAD AND PUSH2 0x1B48 JUMP JUMPDEST PUSH2 0x24E DUP4 ISZERO ISZERO PUSH2 0x1AA4 JUMP JUMPDEST PUSH1 0x7 DUP6 ADD PUSH2 0x25C DUP2 SLOAD PUSH2 0x1B8D JUMP JUMPDEST SWAP1 SSTORE PUSH1 0xA DUP6 ADD PUSH2 0x26D DUP5 DUP3 SLOAD PUSH2 0x1BA9 JUMP JUMPDEST SWAP1 SSTORE ISZERO PUSH2 0x376 JUMPI PUSH1 0x8 DUP5 ADD PUSH2 0x282 DUP2 SLOAD PUSH2 0x1B8D JUMP JUMPDEST SWAP1 SSTORE JUMPDEST DUP5 PUSH1 0x0 MSTORE PUSH1 0x7 PUSH1 0x20 MSTORE PUSH1 0x40 PUSH1 0x0 KECCAK256 SWAP3 PUSH1 0x40 MLOAD SWAP5 PUSH2 0x2A1 DUP7 PUSH2 0x19AF JUMP JUMPDEST TIMESTAMP DUP7 MSTORE PUSH1 0x20 DUP7 ADD SWAP5 DUP5 DUP7 MSTORE PUSH1 0x40 DUP8 ADD SWAP6 DUP10 DUP8 MSTORE PUSH1 0x60 DUP9 ADD SWAP2 DUP6 DUP4 MSTORE DUP1 SLOAD PUSH1 0x1 PUSH1 0x40 SHL DUP2 LT ISZERO PUSH2 0x360 JUMPI PUSH2 0x2D9 SWAP2 PUSH1 0x1 DUP3 ADD DUP2 SSTORE PUSH2 0x1A1B JUMP JUMPDEST SWAP3 SWAP1 SWAP3 PUSH2 0x34A JUMPI PUSH2 0x32C PUSH1 0x60 SWAP9 PUSH1 0x3 SWAP4 PUSH32 0xE6EDE282C3816020C6237DDEB8149BA1ABBD6D10EBFD300AF07F526A09B55B85 SWAP12 MLOAD DUP7 SSTORE MLOAD PUSH1 0x1 DUP7 ADD SSTORE MLOAD ISZERO ISZERO PUSH1 0x2 DUP6 ADD SWAP1 PUSH1 0xFF DUP1 NOT DUP4 SLOAD AND SWAP2 ISZERO ISZERO AND OR SWAP1 SSTORE JUMP JUMPDEST MLOAD SWAP2 ADD SSTORE SLOAD AND SWAP6 PUSH1 0x40 MLOAD SWAP3 DUP4 MSTORE PUSH1 0x20 DUP4 ADD MSTORE PUSH1 0x40 DUP3 ADD MSTORE LOG3 PUSH1 0x1 DUP1 SSTORE STOP JUMPDEST PUSH4 0x4E487B71 PUSH1 0xE0 SHL PUSH1 0x0 MSTORE PUSH1 0x0 PUSH1 0x4 MSTORE PUSH1 0x24 PUSH1 0x0 REVERT JUMPDEST PUSH4 0x4E487B71 PUSH1 0xE0 SHL PUSH1 0x0 MSTORE PUSH1 0x41 PUSH1 0x4 MSTORE PUSH1 0x24 PUSH1 0x0 REVERT JUMPDEST PUSH1 0x9 DUP5 ADD PUSH2 0x384 DUP2 SLOAD PUSH2 0x1B8D JUMP JUMPDEST SWAP1 SSTORE PUSH2 0x285 JUMP JUMPDEST CALLVALUE PUSH2 0x1D3 JUMPI PUSH1 0x20 CALLDATASIZE PUSH1 0x3 NOT ADD SLT PUSH2 0x1D3 JUMPI PUSH1 0x1 PUSH1 0x1 PUSH1 0xA0 SHL SUB PUSH2 0x3AC PUSH2 0x1966 JUMP JUMPDEST AND PUSH1 0x0 MSTORE PUSH1 0x4 PUSH1 0x20 MSTORE PUSH1 0x20 PUSH1 0x40 PUSH1 0x0 KECCAK256 SLOAD PUSH1 0x40 MLOAD SWAP1 DUP2 MSTORE RETURN JUMPDEST CALLVALUE PUSH2 0x1D3 JUMPI PUSH1 0x20 CALLDATASIZE PUSH1 0x3 NOT ADD SLT PUSH2 0x1D3 JUMPI PUSH1 0x0 PUSH2 0x1A0 PUSH1 0x40 MLOAD PUSH2 0x3E7 DUP2 PUSH2 0x1992 JUMP JUMPDEST DUP3 DUP2 MSTORE DUP3 PUSH1 0x20 DUP3 ADD MSTORE DUP3 PUSH1 0x40 DUP3 ADD MSTORE DUP3 PUSH1 0x60 DUP3 ADD MSTORE DUP3 PUSH1 0x80 DUP3 ADD MSTORE DUP3 PUSH1 0xA0 DUP3 ADD MSTORE DUP3 PUSH1 0xC0 DUP3 ADD MSTORE DUP3 PUSH1 0xE0 DUP3 ADD MSTORE DUP3 PUSH2 0x100 DUP3 ADD MSTORE DUP3 PUSH2 0x120 DUP3 ADD MSTORE DUP3 PUSH2 0x140 DUP3 ADD MSTORE DUP3 PUSH2 0x160 DUP3 ADD MSTORE DUP3 PUSH2 0x180 DUP3 ADD MSTORE ADD MSTORE PUSH1 0x4 CALLDATALOAD PUSH1 0x0 MSTORE PUSH1 0x5 PUSH1 0x20 MSTORE PUSH2 0x1C0 PUSH1 0x40 PUSH1 0x0 KECCAK256 PUSH2 0x1A0 PUSH1 0x40 MLOAD PUSH2 0x45B DUP2 PUSH2 0x1992 JUMP JUMPDEST PUSH1 0xFF PUSH1 0xD PUSH1 0x1 DUP1 PUSH1 0xA0 SHL SUB DUP6 SLOAD AND SWAP5 DUP6 DUP5 MSTORE PUSH1 0x1 DUP1 PUSH1 0xA0 SHL SUB PUSH1 0x1 DUP3 ADD SLOAD AND PUSH1 0x20 DUP6 ADD MSTORE PUSH1 0x2 DUP2 ADD SLOAD PUSH1 0x40 DUP6 ADD MSTORE PUSH1 0x3 DUP2 ADD SLOAD PUSH1 0x60 DUP6 ADD MSTORE PUSH1 0x4 DUP2 ADD SLOAD PUSH1 0x80 DUP6 ADD MSTORE PUSH1 0x5 DUP2 ADD SLOAD PUSH1 0xA0 DUP6 ADD MSTORE PUSH1 0x6 DUP2 ADD SLOAD PUSH1 0xC0 DUP6 ADD MSTORE PUSH1 0x7 DUP2 ADD SLOAD PUSH1 0xE0 DUP6 ADD MSTORE PUSH1 0x8 DUP2 ADD SLOAD PUSH2 0x100 DUP6 ADD MSTORE PUSH1 0x9 DUP2 ADD SLOAD PUSH2 0x120 DUP6 ADD MSTORE PUSH1 0xA DUP2 ADD SLOAD PUSH2 0x140 DUP6 ADD MSTORE DUP3 PUSH1 0xB DUP3 ADD SLOAD AND ISZERO ISZERO PUSH2 0x160 DUP6 ADD MSTORE PUSH1 0xC DUP2 ADD SLOAD PUSH2 0x180 DUP6 ADD MSTORE ADD SLOAD AND ISZERO ISZERO DUP3 DUP3 ADD MSTORE PUSH1 0x40 MLOAD SWAP3 DUP4 MSTORE PUSH1 0x1 DUP1 PUSH1 0xA0 SHL SUB PUSH1 0x20 DUP3 ADD MLOAD AND PUSH1 0x20 DUP5 ADD MSTORE PUSH1 0x40 DUP2 ADD MLOAD PUSH1 0x40 DUP5 ADD MSTORE PUSH1 0x60 DUP2 ADD MLOAD PUSH1 0x60 DUP5 ADD MSTORE PUSH1 0x80 DUP2 ADD MLOAD PUSH1 0x80 DUP5 ADD MSTORE PUSH1 0xA0 DUP2 ADD MLOAD PUSH1 0xA0 DUP5 ADD MSTORE PUSH1 0xC0 DUP2 ADD MLOAD PUSH1 0xC0 DUP5 ADD MSTORE PUSH1 0xE0 DUP2 ADD MLOAD PUSH1 0xE0 DUP5 ADD MSTORE PUSH2 0x100 DUP2 ADD MLOAD PUSH2 0x100 DUP5 ADD MSTORE PUSH2 0x120 DUP2 ADD MLOAD PUSH2 0x120 DUP5 ADD MSTORE PUSH2 0x140 DUP2 ADD MLOAD PUSH2 0x140 DUP5 ADD MSTORE PUSH2 0x160 DUP2 ADD MLOAD ISZERO ISZERO PUSH2 0x160 DUP5 ADD MSTORE PUSH2 0x180 DUP2 ADD MLOAD PUSH2 0x180 DUP5 ADD MSTORE ADD MLOAD ISZERO ISZERO PUSH2 0x1A0 DUP3 ADD MSTORE RETURN JUMPDEST CALLVALUE PUSH2 0x1D3 JUMPI PUSH2 0x5AB CALLDATASIZE PUSH2 0x197C JUMP JUMPDEST PUSH2 0x5C0 PUSH1 0x1 DUP1 PUSH1 0xA0 SHL SUB PUSH1 0x2 SLOAD AND CALLER EQ PUSH2 0x1A63 JUMP JUMPDEST PUSH2 0x5C8 PUSH2 0x1B25 JUMP JUMPDEST DUP2 PUSH1 0x0 MSTORE PUSH1 0x5 PUSH1 0x20 MSTORE PUSH1 0x40 PUSH1 0x0 KECCAK256 SWAP1 PUSH2 0x5E7 PUSH1 0xFF PUSH1 0xD DUP5 ADD SLOAD AND PUSH2 0x1B48 JUMP JUMPDEST PUSH1 0x3 DUP2 ISZERO SWAP3 PUSH2 0x5F6 DUP5 ISZERO PUSH2 0x1AE5 JUMP JUMPDEST ADD SWAP2 DUP3 SLOAD SWAP1 PUSH2 0x1B58 DUP1 DUP5 MUL SWAP4 DUP5 DIV EQ OR ISZERO PUSH2 0x648 JUMPI PUSH32 0x720881E7A116A115D83475E857DD1E6D1129A6AFF9007477505EB63F301BDE6F SWAP3 PUSH2 0x2710 PUSH1 0x40 SWAP4 DIV DUP1 SWAP2 SSTORE DUP3 MLOAD SWAP2 DUP3 MSTORE PUSH1 0x20 DUP3 ADD MSTORE LOG2 PUSH1 0x1 DUP1 SSTORE STOP JUMPDEST PUSH4 0x4E487B71 PUSH1 0xE0 SHL PUSH1 0x0 MSTORE PUSH1 0x11 PUSH1 0x4 MSTORE PUSH1 0x24 PUSH1 0x0 REVERT JUMPDEST CALLVALUE PUSH2 0x1D3 JUMPI PUSH1 0xA0 CALLDATASIZE PUSH1 0x3 NOT ADD SLT PUSH2 0x1D3 JUMPI PUSH2 0x677 PUSH2 0x1966 JUMP JUMPDEST PUSH1 0x24 CALLDATALOAD PUSH1 0x1 PUSH1 0x1 PUSH1 0xA0 SHL SUB DUP2 AND DUP2 SUB PUSH2 0x1D3 JUMPI PUSH1 0x64 CALLDATALOAD SWAP1 PUSH2 0x6A3 PUSH1 0x1 DUP1 PUSH1 0xA0 SHL SUB PUSH1 0x2 SLOAD AND CALLER EQ PUSH2 0x1A63 JUMP JUMPDEST PUSH2 0x6AB PUSH2 0x1B25 JUMP JUMPDEST PUSH1 0x1 PUSH1 0x1 PUSH1 0xA0 SHL SUB DUP4 AND PUSH1 0x0 SWAP1 DUP2 MSTORE PUSH1 0x3 PUSH1 0x20 MSTORE PUSH1 0x40 SWAP1 KECCAK256 SLOAD PUSH1 0xFF AND ISZERO PUSH2 0x96F JUMPI PUSH1 0x1 PUSH1 0x1 PUSH1 0xA0 SHL SUB DUP2 AND ISZERO PUSH2 0x93A JUMPI PUSH2 0x6E8 PUSH1 0x44 CALLDATALOAD ISZERO ISZERO PUSH2 0x1AA4 JUMP JUMPDEST DUP2 ISZERO PUSH2 0x6F4 DUP2 ISZERO PUSH2 0x1AE5 JUMP JUMPDEST PUSH2 0x1B58 DUP1 DUP5 MUL SWAP4 DUP5 DIV EQ OR ISZERO PUSH2 0x648 JUMPI PUSH1 0x6 SLOAD SWAP2 PUSH2 0x711 DUP4 PUSH2 0x1B8D JUMP JUMPDEST PUSH1 0x6 SSTORE PUSH2 0x888 PUSH1 0x40 MLOAD PUSH2 0x723 DUP2 PUSH2 0x1992 JUMP JUMPDEST PUSH1 0x1 DUP1 PUSH1 0xA0 SHL SUB DUP7 AND DUP2 MSTORE PUSH1 0x1 DUP1 PUSH1 0xA0 SHL SUB DUP5 AND PUSH1 0x20 DUP3 ADD MSTORE PUSH1 0x44 CALLDATALOAD PUSH1 0x40 DUP3 ADD MSTORE PUSH2 0x2710 DUP4 DIV PUSH1 0x60 DUP3 ADD MSTORE PUSH1 0x0 PUSH1 0x80 DUP3 ADD MSTORE PUSH1 0x84 CALLDATALOAD PUSH1 0xA0 DUP3 ADD MSTORE TIMESTAMP PUSH1 0xC0 DUP3 ADD MSTORE PUSH1 0x0 PUSH1 0xE0 DUP3 ADD MSTORE PUSH1 0x0 PUSH2 0x100 DUP3 ADD MSTORE PUSH1 0x0 PUSH2 0x120 DUP3 ADD MSTORE PUSH1 0x0 PUSH2 0x140 DUP3 ADD MSTORE PUSH1 0x0 PUSH2 0x160 DUP3 ADD MSTORE PUSH1 0x0 PUSH2 0x180 DUP3 ADD MSTORE PUSH1 0x1 PUSH2 0x1A0 DUP3 ADD MSTORE DUP5 PUSH1 0x0 MSTORE PUSH1 0x5 PUSH1 0x20 MSTORE PUSH1 0xD PUSH2 0x1A0 PUSH1 0x40 PUSH1 0x0 KECCAK256 SWAP3 PUSH1 0x1 DUP1 PUSH1 0xA0 SHL SUB DUP2 MLOAD AND PUSH12 0xFFFFFFFFFFFFFFFFFFFFFFFF PUSH1 0xA0 SHL SWAP1 DUP2 DUP7 SLOAD AND OR DUP6 SSTORE PUSH1 0x1 DUP6 ADD SWAP1 PUSH1 0x1 DUP1 PUSH1 0xA0 SHL SUB PUSH1 0x20 DUP5 ADD MLOAD AND SWAP1 DUP3 SLOAD AND OR SWAP1 SSTORE PUSH1 0x40 DUP2 ADD MLOAD PUSH1 0x2 DUP6 ADD SSTORE PUSH1 0x60 DUP2 ADD MLOAD PUSH1 0x3 DUP6 ADD SSTORE PUSH1 0x80 DUP2 ADD MLOAD PUSH1 0x4 DUP6 ADD SSTORE PUSH1 0xA0 DUP2 ADD MLOAD PUSH1 0x5 DUP6 ADD SSTORE PUSH1 0xC0 DUP2 ADD MLOAD PUSH1 0x6 DUP6 ADD SSTORE PUSH1 0xE0 DUP2 ADD MLOAD PUSH1 0x7 DUP6 ADD SSTORE PUSH2 0x100 DUP2 ADD MLOAD PUSH1 0x8 DUP6 ADD SSTORE PUSH2 0x120 DUP2 ADD MLOAD PUSH1 0x9 DUP6 ADD SSTORE PUSH2 0x140 DUP2 ADD MLOAD PUSH1 0xA DUP6 ADD SSTORE PUSH2 0x866 PUSH2 0x160 DUP3 ADD MLOAD ISZERO ISZERO PUSH1 0xB DUP7 ADD SWAP1 PUSH1 0xFF DUP1 NOT DUP4 SLOAD AND SWAP2 ISZERO ISZERO AND OR SWAP1 SSTORE JUMP JUMPDEST PUSH2 0x180 DUP2 ADD MLOAD PUSH1 0xC DUP6 ADD SSTORE ADD MLOAD ISZERO ISZERO SWAP2 ADD SWAP1 PUSH1 0xFF DUP1 NOT DUP4 SLOAD AND SWAP2 ISZERO ISZERO AND OR SWAP1 SSTORE JUMP JUMPDEST PUSH1 0x1 PUSH1 0x1 PUSH1 0xA0 SHL SUB DUP5 AND PUSH1 0x0 SWAP1 DUP2 MSTORE PUSH1 0x8 PUSH1 0x20 MSTORE PUSH1 0x40 SWAP1 KECCAK256 DUP1 SLOAD SWAP2 SWAP1 PUSH1 0x1 PUSH1 0x40 SHL DUP4 LT ISZERO PUSH2 0x360 JUMPI PUSH1 0x20 SWAP6 PUSH2 0x2710 PUSH32 0xD0B5542C8F25B14FDBBE9BBBC395DD5FD5C2FF36F08E69F6E6D80FFB93462FEB SWAP4 PUSH2 0x8EB DUP7 PUSH1 0x80 SWAP6 PUSH1 0x1 DUP12 SWAP10 ADD DUP2 SSTORE PUSH2 0x19ED JUMP JUMPDEST DUP2 SLOAD PUSH1 0x0 NOT PUSH1 0x3 SWAP3 SWAP1 SWAP3 SHL SWAP2 DUP3 SHL NOT AND SWAP1 DUP9 SWAP1 SHL OR SWAP1 SSTORE PUSH1 0x40 DUP1 MLOAD PUSH1 0x1 PUSH1 0x1 PUSH1 0xA0 SHL SUB SWAP9 DUP10 AND DUP2 MSTORE PUSH1 0x44 CALLDATALOAD DUP12 DUP3 ADD MSTORE SWAP3 SWAP1 SWAP2 DIV SWAP1 DUP3 ADD MSTORE PUSH1 0x84 CALLDATALOAD PUSH1 0x60 DUP3 ADD MSTORE SWAP5 AND SWAP4 LOG3 PUSH1 0x1 DUP1 SSTORE PUSH1 0x40 MLOAD SWAP1 DUP2 MSTORE RETURN JUMPDEST PUSH1 0x40 MLOAD PUSH3 0x461BCD PUSH1 0xE5 SHL DUP2 MSTORE PUSH1 0x20 PUSH1 0x4 DUP3 ADD MSTORE PUSH1 0xD PUSH1 0x24 DUP3 ADD MSTORE PUSH13 0x24B73B30B634B2103A37B5B2B7 PUSH1 0x99 SHL PUSH1 0x44 DUP3 ADD MSTORE PUSH1 0x64 SWAP1 REVERT JUMPDEST PUSH1 0x40 MLOAD PUSH3 0x461BCD PUSH1 0xE5 SHL DUP2 MSTORE PUSH1 0x20 PUSH1 0x4 DUP3 ADD MSTORE PUSH1 0x13 PUSH1 0x24 DUP3 ADD MSTORE PUSH19 0x155CD95C881B9BDD081C9959DA5CDD195C9959 PUSH1 0x6A SHL PUSH1 0x44 DUP3 ADD MSTORE PUSH1 0x64 SWAP1 REVERT JUMPDEST CALLVALUE PUSH2 0x1D3 JUMPI PUSH1 0x20 DUP1 PUSH1 0x3 NOT CALLDATASIZE ADD SLT PUSH2 0x1D3 JUMPI PUSH2 0x9C4 PUSH2 0x1966 JUMP JUMPDEST SWAP1 PUSH1 0x0 SWAP1 PUSH1 0x1 DUP1 PUSH1 0xA0 SHL SUB DUP1 SWAP4 AND PUSH1 0x0 MSTORE PUSH1 0x8 SWAP2 DUP3 DUP3 MSTORE PUSH1 0x40 PUSH1 0x0 KECCAK256 SWAP3 PUSH1 0x40 MLOAD DUP1 DUP6 DUP6 DUP3 SWAP8 SLOAD SWAP4 DUP5 DUP2 MSTORE ADD SWAP1 PUSH1 0x0 MSTORE DUP6 PUSH1 0x0 KECCAK256 SWAP3 PUSH1 0x0 JUMPDEST DUP8 DUP3 DUP3 LT PUSH2 0xB1C JUMPI POP POP POP PUSH2 0xA12 SWAP3 POP SUB DUP6 PUSH2 0x19CB JUMP JUMPDEST PUSH1 0x0 JUMPDEST DUP5 MLOAD DUP2 LT ISZERO PUSH2 0xB12 JUMPI PUSH2 0xA28 DUP2 DUP7 PUSH2 0x1C8B JUMP JUMPDEST MLOAD PUSH1 0x0 MSTORE PUSH1 0x5 DUP1 DUP6 MSTORE PUSH1 0x40 PUSH1 0x0 KECCAK256 PUSH2 0x1A0 PUSH1 0x40 MLOAD PUSH2 0xA45 DUP2 PUSH2 0x1992 JUMP JUMPDEST DUP10 DUP4 SLOAD AND DUP2 MSTORE DUP10 PUSH1 0x1 DUP5 ADD SLOAD AND DUP9 DUP3 ADD MSTORE PUSH1 0x2 DUP4 ADD SLOAD PUSH1 0x40 DUP3 ADD MSTORE PUSH1 0x3 DUP4 ADD SLOAD SWAP3 DUP4 PUSH1 0x60 DUP4 ADD MSTORE PUSH1 0x4 DUP2 ADD SLOAD SWAP5 DUP6 PUSH1 0x80 DUP5 ADD MSTORE DUP2 ADD SLOAD PUSH1 0xA0 DUP4 ADD MSTORE PUSH1 0x6 DUP2 ADD SLOAD PUSH1 0xC0 DUP4 ADD MSTORE PUSH1 0x7 DUP2 ADD SLOAD PUSH1 0xE0 DUP4 ADD MSTORE DUP7 DUP2 ADD SLOAD PUSH2 0x100 DUP4 ADD MSTORE PUSH1 0x9 DUP2 ADD SLOAD PUSH2 0x120 DUP4 ADD MSTORE PUSH1 0xA DUP2 ADD SLOAD PUSH2 0x140 DUP4 ADD MSTORE PUSH1 0xD PUSH1 0xFF SWAP2 DUP3 PUSH1 0xB DUP3 ADD SLOAD AND ISZERO ISZERO PUSH2 0x160 DUP6 ADD MSTORE PUSH1 0xC DUP2 ADD SLOAD PUSH2 0x180 DUP6 ADD MSTORE ADD SLOAD AND ISZERO ISZERO SWAP2 DUP3 SWAP2 ADD MSTORE PUSH2 0xAF2 JUMPI JUMPDEST POP POP PUSH2 0xAED SWAP1 PUSH2 0x1B8D JUMP JUMPDEST PUSH2 0xA15 JUMP JUMPDEST SWAP4 PUSH2 0xB04 PUSH2 0xB0A SWAP3 PUSH2 0xAED SWAP5 SWAP7 PUSH2 0x1B9C JUMP JUMPDEST SWAP1 PUSH2 0x1BA9 JUMP JUMPDEST SWAP3 SWAP1 DUP8 PUSH2 0xAE2 JUMP JUMPDEST POP POP PUSH1 0x40 MLOAD SWAP1 DUP2 MSTORE RETURN JUMPDEST DUP6 SLOAD DUP5 MSTORE PUSH1 0x1 SWAP6 DUP7 ADD SWAP6 DUP11 SWAP6 POP SWAP4 ADD SWAP3 ADD PUSH2 0x9FB JUMP JUMPDEST CALLVALUE PUSH2 0x1D3 JUMPI PUSH1 0x20 CALLDATASIZE PUSH1 0x3 NOT ADD SLT PUSH2 0x1D3 JUMPI PUSH1 0x20 PUSH2 0xB55 PUSH2 0xB50 PUSH2 0x1966 JUMP JUMPDEST PUSH2 0x1C9F JUMP JUMPDEST PUSH1 0x40 MLOAD SWAP1 DUP2 MSTORE RETURN JUMPDEST CALLVALUE PUSH2 0x1D3 JUMPI PUSH1 0x20 CALLDATASIZE PUSH1 0x3 NOT ADD SLT PUSH2 0x1D3 JUMPI PUSH1 0x20 PUSH2 0xB55 PUSH1 0x4 CALLDATALOAD PUSH2 0x1BB6 JUMP JUMPDEST CALLVALUE PUSH2 0x1D3 JUMPI PUSH2 0xB89 CALLDATASIZE PUSH2 0x197C JUMP JUMPDEST SWAP1 PUSH1 0x0 MSTORE PUSH1 0x7 PUSH1 0x20 MSTORE PUSH1 0x40 PUSH1 0x0 KECCAK256 DUP1 SLOAD DUP3 LT ISZERO PUSH2 0x1D3 JUMPI PUSH1 0x80 SWAP2 PUSH2 0xBAC SWAP2 PUSH2 0x1A1B JUMP JUMPDEST POP DUP1 SLOAD SWAP1 PUSH1 0x1 DUP2 ADD SLOAD SWAP1 PUSH1 0x3 PUSH1 0xFF PUSH1 0x2 DUP4 ADD SLOAD AND SWAP2 ADD SLOAD SWAP2 PUSH1 0x40 MLOAD SWAP4 DUP5 MSTORE PUSH1 0x20 DUP5 ADD MSTORE ISZERO ISZERO PUSH1 0x40 DUP4 ADD MSTORE PUSH1 0x60 DUP3 ADD MSTORE RETURN JUMPDEST CALLVALUE PUSH2 0x1D3 JUMPI PUSH1 0x20 DUP1 PUSH1 0x3 NOT CALLDATASIZE ADD SLT PUSH2 0x1D3 JUMPI PUSH1 0x1 PUSH1 0x1 PUSH1 0xA0 SHL SUB PUSH2 0xBFF PUSH2 0x1966 JUMP JUMPDEST AND PUSH1 0x0 MSTORE PUSH1 0x8 DUP2 MSTORE PUSH1 0x40 PUSH1 0x0 KECCAK256 PUSH1 0x40 MLOAD SWAP1 DUP2 DUP4 DUP3 SLOAD SWAP2 DUP3 DUP2 MSTORE ADD SWAP1 DUP2 SWAP3 PUSH1 0x0 MSTORE DUP5 PUSH1 0x0 KECCAK256 SWAP1 PUSH1 0x0 JUMPDEST DUP7 DUP3 DUP3 LT PUSH2 0xC7D JUMPI DUP7 DUP7 PUSH2 0xC3D DUP3 DUP9 SUB DUP4 PUSH2 0x19CB JUMP JUMPDEST PUSH1 0x40 MLOAD SWAP3 DUP4 SWAP3 DUP2 DUP5 ADD SWAP1 DUP3 DUP6 MSTORE MLOAD DUP1 SWAP2 MSTORE PUSH1 0x40 DUP5 ADD SWAP3 SWAP2 PUSH1 0x0 JUMPDEST DUP3 DUP2 LT PUSH2 0xC66 JUMPI POP POP POP POP SUB SWAP1 RETURN JUMPDEST DUP4 MLOAD DUP6 MSTORE DUP7 SWAP6 POP SWAP4 DUP2 ADD SWAP4 SWAP3 DUP2 ADD SWAP3 PUSH1 0x1 ADD PUSH2 0xC57 JUMP JUMPDEST DUP4 SLOAD DUP6 MSTORE SWAP1 SWAP4 ADD SWAP3 PUSH1 0x1 SWAP3 DUP4 ADD SWAP3 ADD PUSH2 0xC27 JUMP JUMPDEST CALLVALUE PUSH2 0x1D3 JUMPI PUSH1 0x0 CALLDATASIZE PUSH1 0x3 NOT ADD SLT PUSH2 0x1D3 JUMPI PUSH1 0x20 PUSH1 0x6 SLOAD PUSH1 0x40 MLOAD SWAP1 DUP2 MSTORE RETURN JUMPDEST CALLVALUE PUSH2 0x1D3 JUMPI PUSH1 0x0 CALLDATASIZE PUSH1 0x3 NOT ADD SLT PUSH2 0x1D3 JUMPI PUSH1 0x0 SLOAD PUSH1 0x40 MLOAD PUSH1 0x1 PUSH1 0x1 PUSH1 0xA0 SHL SUB SWAP1 SWAP2 AND DUP2 MSTORE PUSH1 0x20 SWAP1 RETURN JUMPDEST CALLVALUE PUSH2 0x1D3 JUMPI PUSH1 0x40 CALLDATASIZE PUSH1 0x3 NOT ADD SLT PUSH2 0x1D3 JUMPI PUSH2 0xCF1 PUSH2 0x1966 JUMP JUMPDEST PUSH1 0x1 PUSH1 0x1 PUSH1 0xA0 SHL SUB AND PUSH1 0x0 SWAP1 DUP2 MSTORE PUSH1 0x8 PUSH1 0x20 MSTORE PUSH1 0x40 SWAP1 KECCAK256 DUP1 SLOAD PUSH1 0x24 CALLDATALOAD SWAP2 SWAP1 DUP3 LT ISZERO PUSH2 0x1D3 JUMPI PUSH1 0x20 SWAP2 PUSH2 0xD22 SWAP2 PUSH2 0x19ED JUMP JUMPDEST SWAP1 SLOAD PUSH1 0x40 MLOAD SWAP2 PUSH1 0x3 SHL SHR DUP2 MSTORE RETURN JUMPDEST CALLVALUE PUSH2 0x1D3 JUMPI PUSH1 0x0 CALLDATASIZE PUSH1 0x3 NOT ADD SLT PUSH2 0x1D3 JUMPI PUSH2 0xD49 PUSH2 0x1A37 JUMP JUMPDEST PUSH1 0x0 DUP1 SLOAD PUSH1 0x1 PUSH1 0x1 PUSH1 0xA0 SHL SUB NOT DUP2 AND DUP3 SSTORE PUSH1 0x1 PUSH1 0x1 PUSH1 0xA0 SHL SUB AND PUSH32 0x8BE0079C531659141344CD1FD0A4F28419497F9722A3DAAFE3B4186F6B6457E0 DUP3 DUP1 LOG3 STOP JUMPDEST CALLVALUE PUSH2 0x1D3 JUMPI PUSH2 0xD97 CALLDATASIZE PUSH2 0x197C JUMP JUMPDEST PUSH2 0xD9F PUSH2 0x1A37 JUMP JUMPDEST PUSH2 0xDA7 PUSH2 0x1B25 JUMP JUMPDEST DUP2 PUSH1 0x0 MSTORE PUSH1 0x5 PUSH1 0x20 MSTORE PUSH1 0x4 PUSH1 0x40 PUSH1 0x0 KECCAK256 PUSH2 0xDC7 PUSH1 0xFF PUSH1 0xD DUP4 ADD SLOAD AND PUSH2 0x1B48 JUMP JUMPDEST PUSH2 0xDD2 DUP4 ISZERO ISZERO PUSH2 0x1AA4 JUMP JUMPDEST ADD SWAP1 DUP2 SLOAD SWAP1 DUP2 DUP2 GT PUSH2 0xE20 JUMPI PUSH32 0x1AF839CE655EB23EC05B8977B91598E475661A48D34A7F4B4C499DDCAEAC551C SWAP3 PUSH2 0xE0C DUP3 PUSH1 0x40 SWAP5 PUSH2 0x1B9C JUMP JUMPDEST DUP1 SWAP2 SSTORE DUP3 MLOAD SWAP2 DUP3 MSTORE PUSH1 0x20 DUP3 ADD MSTORE LOG2 PUSH1 0x1 DUP1 SSTORE STOP JUMPDEST PUSH1 0x40 MLOAD PUSH3 0x461BCD PUSH1 0xE5 SHL DUP2 MSTORE PUSH1 0x20 PUSH1 0x4 DUP3 ADD MSTORE PUSH1 0x13 PUSH1 0x24 DUP3 ADD MSTORE PUSH19 0x105B5BDD5B9D08195E18D959591CC81919589D PUSH1 0x6A SHL PUSH1 0x44 DUP3 ADD MSTORE PUSH1 0x64 SWAP1 REVERT JUMPDEST CALLVALUE PUSH2 0x1D3 JUMPI PUSH1 0x40 CALLDATASIZE PUSH1 0x3 NOT ADD SLT PUSH2 0x1D3 JUMPI PUSH8 0xFFFFFFFFFFFFFFFF PUSH1 0x4 CALLDATALOAD PUSH1 0x24 DUP1 CALLDATALOAD DUP4 DUP2 GT PUSH2 0x1D3 JUMPI CALLDATASIZE PUSH1 0x23 DUP3 ADD SLT ISZERO PUSH2 0x1D3 JUMPI DUP1 PUSH1 0x4 ADD CALLDATALOAD SWAP2 DUP5 DUP4 GT PUSH2 0x1024 JUMPI PUSH1 0x40 MLOAD SWAP5 PUSH1 0x20 SWAP4 PUSH1 0x1F NOT SWAP4 PUSH2 0xEB7 PUSH1 0x1F DUP4 ADD DUP7 AND DUP8 ADD DUP10 PUSH2 0x19CB JUMP JUMPDEST DUP2 DUP9 MSTORE CALLDATASIZE DUP5 DUP4 DUP4 ADD ADD GT PUSH2 0x1D3 JUMPI DUP2 PUSH1 0x0 SWAP3 DUP6 DUP9 SWAP4 ADD DUP4 DUP12 ADD CALLDATACOPY DUP9 ADD ADD MSTORE PUSH1 0x2 SLOAD PUSH1 0x1 PUSH1 0x1 PUSH1 0xA0 SHL SUB SWAP3 SWAP1 PUSH2 0xEEF SWAP1 DUP5 AND CALLER EQ PUSH2 0x1A63 JUMP JUMPDEST PUSH2 0xEF7 PUSH2 0x1B25 JUMP JUMPDEST DUP6 PUSH1 0x0 MSTORE PUSH1 0x5 DUP6 MSTORE PUSH1 0x40 PUSH1 0x0 KECCAK256 SWAP2 PUSH1 0xD DUP4 ADD SWAP2 DUP3 SLOAD SWAP3 PUSH1 0xFF DUP5 AND ISZERO PUSH2 0x1038 JUMPI PUSH1 0xFF NOT SWAP4 DUP5 AND SWAP1 SSTORE DUP9 MLOAD ISZERO ISZERO SWAP2 DUP3 PUSH2 0xFE7 JUMPI JUMPDEST POP POP PUSH2 0xFA0 JUMPI JUMPDEST POP POP POP PUSH1 0x40 MLOAD SWAP2 DUP1 DUP4 MSTORE DUP5 MLOAD SWAP1 DUP2 DUP2 DUP6 ADD MSTORE PUSH1 0x0 JUMPDEST DUP3 DUP2 LT PUSH2 0xF8C JUMPI DUP6 PUSH32 0x1C15F1E13A77FB81A0DA9E59F48E2101623C7C71D6A01AB217F2A45ACD5DE810 DUP7 PUSH1 0x40 DUP2 DUP9 PUSH1 0x1F DUP10 PUSH1 0x0 DUP6 DUP3 DUP7 ADD ADD MSTORE ADD AND DUP2 ADD SUB ADD SWAP1 LOG2 PUSH1 0x1 DUP1 SSTORE STOP JUMPDEST DUP7 DUP2 ADD DUP3 ADD MLOAD DUP6 DUP3 ADD PUSH1 0x40 ADD MSTORE DUP2 ADD PUSH2 0xF45 JUMP JUMPDEST PUSH1 0x1 PUSH1 0xB DUP4 ADD SWAP2 DUP3 SLOAD AND OR SWAP1 SSTORE TIMESTAMP PUSH1 0xC DUP3 ADD SSTORE SLOAD AND DUP4 PUSH32 0x26DC706C10B1F8A4BF68A2F50B9A025921938E72EE2AB65F50815438FBA4A88D DUP5 PUSH1 0x40 MLOAD TIMESTAMP DUP2 MSTORE LOG3 DUP5 DUP1 DUP1 PUSH2 0xF30 JUMP JUMPDEST PUSH1 0x40 DUP1 MLOAD SWAP4 POP DUP4 ADD SWAP2 SWAP1 DUP3 GT DUP4 DUP4 LT OR PUSH2 0x1024 JUMPI POP PUSH1 0x40 MSTORE PUSH1 0x8 DUP2 MSTORE PUSH8 0x1B1A5C5D5A59185D PUSH1 0xC2 SHL DUP7 DUP3 ADD MSTORE PUSH2 0x101D SWAP1 DUP9 PUSH2 0x1F12 JUMP JUMPDEST DUP9 DUP1 PUSH2 0xF29 JUMP JUMPDEST PUSH4 0x4E487B71 PUSH1 0xE0 SHL PUSH1 0x0 SWAP1 DUP2 MSTORE PUSH1 0x41 PUSH1 0x4 MSTORE REVERT JUMPDEST PUSH1 0x40 MLOAD PUSH3 0x461BCD PUSH1 0xE5 SHL DUP2 MSTORE PUSH1 0x4 DUP2 ADD DUP10 SWAP1 MSTORE PUSH1 0xF DUP2 DUP5 ADD MSTORE PUSH15 0x105B1C9958591E481C995D9BDAD959 PUSH1 0x8A SHL PUSH1 0x44 DUP3 ADD MSTORE PUSH1 0x64 SWAP1 REVERT JUMPDEST CALLVALUE PUSH2 0x1D3 JUMPI PUSH2 0x107C CALLDATASIZE PUSH2 0x197C JUMP JUMPDEST PUSH2 0x1084 PUSH2 0x1A37 JUMP JUMPDEST PUSH2 0x108C PUSH2 0x1B25 JUMP JUMPDEST DUP2 PUSH1 0x0 MSTORE PUSH1 0x5 PUSH1 0x20 MSTORE PUSH1 0x40 PUSH1 0x0 KECCAK256 PUSH2 0x10AA PUSH1 0xFF PUSH1 0xD DUP4 ADD SLOAD AND PUSH2 0x1B48 JUMP JUMPDEST PUSH2 0x10B5 DUP3 ISZERO ISZERO PUSH2 0x1AA4 JUMP JUMPDEST PUSH1 0x4 PUSH1 0x3 DUP3 ADD SLOAD SWAP2 ADD SWAP2 PUSH2 0x10CB DUP4 SLOAD DUP1 SWAP4 PUSH2 0x1B9C JUMP JUMPDEST DUP2 GT PUSH2 0x10FF JUMPI PUSH32 0x5496D924A06323B0525576522992E3FC0C11A350CD485F9053DE0E7BA84AEE35 SWAP3 PUSH2 0xE0C DUP3 PUSH1 0x40 SWAP5 PUSH2 0x1BA9 JUMP JUMPDEST PUSH1 0x40 MLOAD PUSH3 0x461BCD PUSH1 0xE5 SHL DUP2 MSTORE PUSH1 0x20 PUSH1 0x4 DUP3 ADD MSTORE PUSH1 0x18 PUSH1 0x24 DUP3 ADD MSTORE PUSH32 0x4578636565647320617661696C61626C65206372656469740000000000000000 PUSH1 0x44 DUP3 ADD MSTORE PUSH1 0x64 SWAP1 REVERT JUMPDEST CALLVALUE PUSH2 0x1D3 JUMPI PUSH1 0x20 DUP1 PUSH1 0x3 NOT CALLDATASIZE ADD SLT PUSH2 0x1D3 JUMPI PUSH1 0x4 CALLDATALOAD PUSH1 0x0 MSTORE PUSH1 0x7 DUP2 MSTORE PUSH1 0x40 PUSH1 0x0 KECCAK256 SWAP1 DUP2 SLOAD PUSH8 0xFFFFFFFFFFFFFFFF DUP2 GT PUSH2 0x360 JUMPI PUSH1 0x40 MLOAD SWAP1 PUSH2 0x118A DUP4 DUP3 PUSH1 0x5 SHL ADD DUP4 PUSH2 0x19CB JUMP JUMPDEST DUP1 DUP3 MSTORE DUP3 DUP3 ADD DUP1 SWAP5 PUSH1 0x0 MSTORE DUP4 PUSH1 0x0 KECCAK256 PUSH1 0x0 SWAP2 JUMPDEST DUP4 DUP4 LT PUSH2 0x11FF JUMPI PUSH1 0x40 DUP1 MLOAD DUP8 DUP2 MSTORE DUP7 MLOAD DUP2 DUP10 ADD DUP2 SWAP1 MSTORE DUP10 SWAP3 DUP3 ADD SWAP1 DUP10 PUSH1 0x0 JUMPDEST DUP3 DUP2 LT PUSH2 0x11C9 JUMPI DUP5 DUP5 SUB DUP6 RETURN JUMPDEST DUP6 MLOAD DUP1 MLOAD DUP6 MSTORE DUP1 DUP4 ADD MLOAD DUP6 DUP5 ADD MSTORE PUSH1 0x40 DUP1 DUP3 ADD MLOAD ISZERO ISZERO SWAP1 DUP7 ADD MSTORE PUSH1 0x60 SWAP1 DUP2 ADD MLOAD SWAP1 DUP6 ADD MSTORE SWAP5 DUP2 ADD SWAP5 PUSH1 0x80 SWAP1 SWAP4 ADD SWAP3 PUSH1 0x1 ADD PUSH2 0x11BC JUMP JUMPDEST PUSH1 0x4 DUP7 PUSH1 0x1 SWAP3 PUSH1 0x40 MLOAD PUSH2 0x1211 DUP2 PUSH2 0x19AF JUMP JUMPDEST DUP6 SLOAD DUP2 MSTORE DUP5 DUP7 ADD SLOAD DUP4 DUP3 ADD MSTORE PUSH1 0xFF PUSH1 0x2 DUP8 ADD SLOAD AND ISZERO ISZERO PUSH1 0x40 DUP3 ADD MSTORE PUSH1 0x3 DUP7 ADD SLOAD PUSH1 0x60 DUP3 ADD MSTORE DUP2 MSTORE ADD SWAP3 ADD SWAP3 ADD SWAP2 SWAP1 PUSH2 0x119D JUMP JUMPDEST CALLVALUE PUSH2 0x1D3 JUMPI PUSH1 0x0 CALLDATASIZE PUSH1 0x3 NOT ADD SLT PUSH2 0x1D3 JUMPI PUSH1 0x2 SLOAD PUSH1 0x40 MLOAD PUSH1 0x1 PUSH1 0x1 PUSH1 0xA0 SHL SUB SWAP1 SWAP2 AND DUP2 MSTORE PUSH1 0x20 SWAP1 RETURN JUMPDEST CALLVALUE PUSH2 0x1D3 JUMPI PUSH1 0x20 CALLDATASIZE PUSH1 0x3 NOT ADD SLT PUSH2 0x1D3 JUMPI PUSH1 0x4 CALLDATALOAD PUSH1 0x0 MSTORE PUSH1 0x5 PUSH1 0x20 MSTORE PUSH2 0x1C0 PUSH1 0x40 PUSH1 0x0 KECCAK256 PUSH1 0x1 DUP1 PUSH1 0xA0 SHL SUB SWAP1 DUP2 DUP2 SLOAD AND SWAP2 PUSH1 0x1 DUP3 ADD SLOAD AND SWAP1 PUSH1 0x2 DUP2 ADD SLOAD PUSH1 0x3 DUP3 ADD SLOAD PUSH1 0x4 DUP4 ADD SLOAD PUSH1 0x5 DUP5 ADD SLOAD PUSH1 0x6 DUP6 ADD SLOAD PUSH1 0x7 DUP7 ADD SLOAD SWAP1 PUSH1 0x8 DUP8 ADD SLOAD SWAP3 PUSH1 0x9 DUP9 ADD SLOAD SWAP5 PUSH1 0xA DUP10 ADD SLOAD SWAP7 PUSH1 0xFF PUSH1 0xB DUP12 ADD SLOAD AND SWAP9 PUSH1 0xFF PUSH1 0xD PUSH1 0xC DUP14 ADD SLOAD SWAP13 ADD SLOAD AND SWAP12 PUSH1 0x20 PUSH1 0x40 MLOAD SWAP15 DUP16 SWAP1 DUP2 MSTORE ADD MSTORE PUSH1 0x40 DUP14 ADD MSTORE PUSH1 0x60 DUP13 ADD MSTORE PUSH1 0x80 DUP12 ADD MSTORE PUSH1 0xA0 DUP11 ADD MSTORE PUSH1 0xC0 DUP10 ADD MSTORE PUSH1 0xE0 DUP9 ADD MSTORE PUSH2 0x100 DUP8 ADD MSTORE PUSH2 0x120 DUP7 ADD MSTORE PUSH2 0x140 DUP6 ADD MSTORE ISZERO ISZERO PUSH2 0x160 DUP5 ADD MSTORE PUSH2 0x180 DUP4 ADD MSTORE ISZERO ISZERO PUSH2 0x1A0 DUP3 ADD MSTORE RETURN JUMPDEST CALLVALUE PUSH2 0x1D3 JUMPI PUSH1 0x20 DUP1 PUSH1 0x3 NOT CALLDATASIZE ADD SLT PUSH2 0x1D3 JUMPI PUSH2 0x135B PUSH2 0x1966 JUMP JUMPDEST PUSH2 0x1363 PUSH2 0x1A37 JUMP JUMPDEST PUSH1 0x1 PUSH1 0x1 PUSH1 0xA0 SHL SUB AND SWAP1 DUP2 ISZERO PUSH2 0x141A JUMPI DUP2 PUSH1 0x0 MSTORE PUSH1 0x3 DUP2 MSTORE PUSH1 0xFF PUSH1 0x40 PUSH1 0x0 KECCAK256 SLOAD AND PUSH2 0x13D6 JUMPI PUSH32 0xE29D35093005F4D575E1003753426B57A7F64378BA73332EEF9C6CCC2B8DECD6 SWAP1 DUP3 PUSH1 0x0 MSTORE PUSH1 0x3 DUP2 MSTORE PUSH1 0x40 PUSH1 0x0 KECCAK256 PUSH1 0x1 PUSH1 0xFF NOT DUP3 SLOAD AND OR SWAP1 SSTORE PUSH1 0x4 DUP2 MSTORE TIMESTAMP PUSH1 0x40 PUSH1 0x0 KECCAK256 SSTORE PUSH1 0x40 MLOAD TIMESTAMP DUP2 MSTORE LOG2 STOP JUMPDEST PUSH1 0x64 SWAP1 PUSH1 0x40 MLOAD SWAP1 PUSH3 0x461BCD PUSH1 0xE5 SHL DUP3 MSTORE PUSH1 0x4 DUP3 ADD MSTORE PUSH1 0x17 PUSH1 0x24 DUP3 ADD MSTORE PUSH32 0x5573657220616C72656164792072656769737465726564000000000000000000 PUSH1 0x44 DUP3 ADD MSTORE REVERT JUMPDEST PUSH1 0x64 SWAP1 PUSH1 0x40 MLOAD SWAP1 PUSH3 0x461BCD PUSH1 0xE5 SHL DUP3 MSTORE PUSH1 0x4 DUP3 ADD MSTORE PUSH1 0x14 PUSH1 0x24 DUP3 ADD MSTORE PUSH20 0x496E76616C696420757365722061646472657373 PUSH1 0x60 SHL PUSH1 0x44 DUP3 ADD MSTORE REVERT JUMPDEST CALLVALUE PUSH2 0x1D3 JUMPI PUSH1 0x20 DUP1 PUSH1 0x3 NOT CALLDATASIZE ADD SLT PUSH2 0x1D3 JUMPI PUSH2 0x146F PUSH2 0x1966 JUMP JUMPDEST PUSH1 0x1 PUSH1 0x1 PUSH1 0xA0 SHL SUB SWAP1 DUP2 AND PUSH1 0x0 SWAP1 DUP2 MSTORE PUSH1 0x8 DUP1 DUP5 MSTORE PUSH1 0x40 DUP1 DUP4 KECCAK256 SWAP1 MLOAD DUP2 SLOAD DUP1 DUP3 MSTORE SWAP2 DUP5 MSTORE DUP6 DUP5 KECCAK256 SWAP1 SWAP5 SWAP2 DUP6 SWAP1 DUP2 DUP9 ADD SWAP1 DUP7 JUMPDEST DUP10 DUP3 DUP3 LT PUSH2 0x15B5 JUMPI POP POP POP PUSH2 0x14B8 SWAP3 POP SUB DUP6 PUSH2 0x19CB JUMP JUMPDEST PUSH1 0x0 JUMPDEST DUP5 MLOAD DUP2 LT ISZERO PUSH2 0x15AB JUMPI PUSH2 0x14CE DUP2 DUP7 PUSH2 0x1C8B JUMP JUMPDEST MLOAD PUSH1 0x0 MSTORE PUSH1 0x5 DUP1 DUP8 MSTORE PUSH2 0x1A0 PUSH1 0x40 PUSH1 0x0 KECCAK256 PUSH1 0x40 MLOAD SWAP1 PUSH2 0x14EC DUP3 PUSH2 0x1992 JUMP JUMPDEST DUP6 DUP2 SLOAD AND DUP3 MSTORE DUP6 PUSH1 0x1 DUP3 ADD SLOAD AND DUP11 DUP4 ADD MSTORE PUSH1 0x2 DUP2 ADD SLOAD PUSH1 0x40 DUP4 ADD MSTORE PUSH1 0x3 DUP2 ADD SLOAD SWAP4 DUP5 PUSH1 0x60 DUP5 ADD MSTORE PUSH1 0x4 DUP3 ADD SLOAD PUSH1 0x80 DUP5 ADD MSTORE DUP2 ADD SLOAD PUSH1 0xA0 DUP4 ADD MSTORE PUSH1 0x6 DUP2 ADD SLOAD PUSH1 0xC0 DUP4 ADD MSTORE PUSH1 0x7 DUP2 ADD SLOAD PUSH1 0xE0 DUP4 ADD MSTORE DUP7 DUP2 ADD SLOAD PUSH2 0x100 DUP4 ADD MSTORE PUSH1 0x9 DUP2 ADD SLOAD PUSH2 0x120 DUP4 ADD MSTORE PUSH1 0xA DUP2 ADD SLOAD PUSH2 0x140 DUP4 ADD MSTORE PUSH1 0xD PUSH1 0xFF SWAP2 DUP3 PUSH1 0xB DUP3 ADD SLOAD AND ISZERO ISZERO PUSH2 0x160 DUP6 ADD MSTORE PUSH1 0xC DUP2 ADD SLOAD PUSH2 0x180 DUP6 ADD MSTORE ADD SLOAD AND ISZERO ISZERO SWAP2 DUP3 SWAP2 ADD MSTORE PUSH2 0x1596 JUMPI JUMPDEST POP PUSH2 0x1591 SWAP1 PUSH2 0x1B8D JUMP JUMPDEST PUSH2 0x14BB JUMP JUMPDEST PUSH2 0x15A4 SWAP1 PUSH2 0x1591 SWAP3 SWAP6 PUSH2 0x1BA9 JUMP JUMPDEST SWAP4 SWAP1 PUSH2 0x1587 JUMP JUMPDEST DUP6 DUP5 PUSH1 0x40 MLOAD SWAP1 DUP2 MSTORE RETURN JUMPDEST DUP6 SLOAD DUP5 MSTORE PUSH1 0x1 SWAP6 DUP7 ADD SWAP6 DUP11 SWAP6 POP SWAP4 ADD SWAP3 ADD PUSH2 0x14A1 JUMP JUMPDEST CALLVALUE PUSH2 0x1D3 JUMPI PUSH1 0x20 CALLDATASIZE PUSH1 0x3 NOT ADD SLT PUSH2 0x1D3 JUMPI PUSH2 0x15E4 PUSH2 0x1966 JUMP JUMPDEST PUSH2 0x15EC PUSH2 0x1A37 JUMP JUMPDEST PUSH1 0x2 SLOAD SWAP1 PUSH1 0x1 PUSH1 0x1 PUSH1 0xA0 SHL SUB SWAP1 DUP2 DUP4 AND PUSH2 0x164F JUMPI AND SWAP1 DUP2 ISZERO PUSH2 0x1618 JUMPI PUSH1 0x1 PUSH1 0x1 PUSH1 0xA0 SHL SUB NOT AND OR PUSH1 0x2 SSTORE STOP JUMPDEST PUSH1 0x40 MLOAD PUSH3 0x461BCD PUSH1 0xE5 SHL DUP2 MSTORE PUSH1 0x20 PUSH1 0x4 DUP3 ADD MSTORE PUSH1 0xF PUSH1 0x24 DUP3 ADD MSTORE PUSH15 0x496E76616C69642061646472657373 PUSH1 0x88 SHL PUSH1 0x44 DUP3 ADD MSTORE PUSH1 0x64 SWAP1 REVERT JUMPDEST PUSH1 0x40 MLOAD PUSH3 0x461BCD PUSH1 0xE5 SHL DUP2 MSTORE PUSH1 0x20 PUSH1 0x4 DUP3 ADD MSTORE PUSH1 0x19 PUSH1 0x24 DUP3 ADD MSTORE PUSH32 0x536F6C76656E63795661756C7420616C72656164792073657400000000000000 PUSH1 0x44 DUP3 ADD MSTORE PUSH1 0x64 SWAP1 REVERT JUMPDEST CALLVALUE PUSH2 0x1D3 JUMPI PUSH1 0x20 CALLDATASIZE PUSH1 0x3 NOT ADD SLT PUSH2 0x1D3 JUMPI PUSH1 0x1 PUSH1 0x1 PUSH1 0xA0 SHL SUB PUSH2 0x16B5 PUSH2 0x1966 JUMP JUMPDEST AND PUSH1 0x0 MSTORE PUSH1 0x3 PUSH1 0x20 MSTORE PUSH1 0x20 PUSH1 0xFF PUSH1 0x40 PUSH1 0x0 KECCAK256 SLOAD AND PUSH1 0x40 MLOAD SWAP1 ISZERO ISZERO DUP2 MSTORE RETURN JUMPDEST CALLVALUE PUSH2 0x1D3 JUMPI PUSH1 0x20 CALLDATASIZE PUSH1 0x3 NOT ADD SLT PUSH2 0x1D3 JUMPI PUSH2 0x16EC PUSH2 0x1966 JUMP JUMPDEST PUSH1 0x0 SWAP1 PUSH1 0x0 DUP1 PUSH1 0x0 SWAP2 PUSH1 0x0 DUP1 SWAP4 PUSH1 0x1 DUP1 PUSH1 0xA0 SHL SUB DUP7 AND PUSH1 0x0 MSTORE PUSH1 0x8 PUSH1 0x20 MSTORE PUSH1 0x40 PUSH1 0x0 KECCAK256 DUP1 SLOAD DUP1 PUSH1 0x80 MSTORE PUSH1 0x20 PUSH1 0x80 ADD SWAP2 PUSH1 0x0 MSTORE PUSH1 0x20 PUSH1 0x0 KECCAK256 SWAP1 PUSH1 0x0 JUMPDEST DUP2 DUP2 LT PUSH2 0x1950 JUMPI POP POP POP PUSH2 0x1740 SWAP1 PUSH1 0x80 SWAP1 SUB PUSH1 0x80 PUSH2 0x19CB JUMP JUMPDEST PUSH1 0x0 JUMPDEST PUSH1 0x80 MLOAD DUP2 LT ISZERO PUSH2 0x18AC JUMPI PUSH2 0x1758 DUP2 PUSH1 0x80 PUSH2 0x1C8B JUMP JUMPDEST MLOAD PUSH1 0x0 MSTORE PUSH1 0x5 SWAP4 DUP5 PUSH1 0x20 MSTORE PUSH1 0xFF PUSH1 0xD PUSH1 0x40 PUSH1 0x0 KECCAK256 PUSH1 0x40 MLOAD SWAP8 PUSH2 0x1779 DUP10 PUSH2 0x1992 JUMP JUMPDEST DUP2 SLOAD PUSH1 0x1 PUSH1 0x1 PUSH1 0xA0 SHL SUB SWAP1 DUP2 AND DUP11 MSTORE PUSH1 0x1 DUP4 ADD SLOAD AND PUSH1 0x20 DUP11 ADD MSTORE PUSH1 0x2 DUP3 ADD SLOAD PUSH1 0x40 DUP11 ADD MSTORE PUSH1 0x3 DUP3 ADD SLOAD PUSH1 0x60 DUP11 ADD MSTORE PUSH1 0x4 DUP3 ADD SLOAD PUSH1 0x80 DUP11 ADD MSTORE DUP2 ADD SLOAD PUSH1 0xA0 DUP10 ADD MSTORE PUSH1 0x6 DUP2 ADD SLOAD PUSH1 0xC0 DUP10 ADD MSTORE PUSH1 0x7 DUP2 ADD SLOAD PUSH1 0xE0 DUP10 ADD MSTORE PUSH1 0x8 DUP2 ADD SLOAD PUSH2 0x100 DUP10 ADD MSTORE PUSH1 0x9 DUP2 ADD SLOAD PUSH2 0x120 DUP10 ADD MSTORE PUSH1 0xA DUP2 ADD SLOAD PUSH2 0x140 DUP10 ADD MSTORE PUSH1 0xB DUP2 ADD SLOAD DUP4 AND ISZERO ISZERO PUSH2 0x160 DUP10 ADD MSTORE PUSH1 0xC DUP2 ADD SLOAD PUSH2 0x180 DUP10 ADD MSTORE ADD SLOAD AND ISZERO ISZERO PUSH2 0x1A0 DUP7 ADD DUP2 SWAP1 MSTORE PUSH2 0x187B JUMPI JUMPDEST PUSH2 0x184C PUSH2 0x183F PUSH2 0x1832 PUSH2 0x160 SWAP4 PUSH1 0xE0 DUP10 ADD MLOAD SWAP1 PUSH2 0x1BA9 JUMP JUMPDEST SWAP5 PUSH2 0x100 DUP9 ADD MLOAD SWAP1 PUSH2 0x1BA9 JUMP JUMPDEST SWAP5 PUSH2 0x120 DUP8 ADD MLOAD SWAP1 PUSH2 0x1BA9 JUMP JUMPDEST SWAP5 ADD MLOAD PUSH2 0x1866 JUMPI JUMPDEST PUSH2 0x185D SWAP1 PUSH2 0x1B8D JUMP JUMPDEST SWAP3 SWAP2 SWAP1 SWAP3 PUSH2 0x1743 JUMP JUMPDEST SWAP5 PUSH2 0x1873 PUSH2 0x185D SWAP2 PUSH2 0x1B8D JUMP JUMPDEST SWAP6 SWAP1 POP PUSH2 0x1854 JUMP JUMPDEST SWAP5 SWAP8 PUSH2 0x184C PUSH2 0x183F PUSH2 0x1832 PUSH2 0x18A1 PUSH2 0x1895 PUSH2 0x160 SWAP6 PUSH2 0x1B8D JUMP JUMPDEST SWAP13 PUSH1 0x60 DUP11 ADD MLOAD SWAP1 PUSH2 0x1BA9 JUMP JUMPDEST SWAP9 SWAP4 POP POP POP POP PUSH2 0x181A JUMP JUMPDEST POP PUSH1 0x40 MLOAD PUSH4 0xD3DD2BDF PUSH1 0xE0 SHL DUP2 MSTORE PUSH1 0x1 PUSH1 0x1 PUSH1 0xA0 SHL SUB SWAP1 SWAP7 AND PUSH1 0x4 DUP8 ADD MSTORE DUP7 SWAP5 SWAP3 PUSH1 0x20 DUP8 PUSH1 0x24 DUP2 ADDRESS GAS STATICCALL SWAP5 DUP6 ISZERO PUSH2 0x1944 JUMPI PUSH1 0x0 SWAP6 PUSH2 0x190F JUMPI JUMPDEST PUSH1 0xE0 SWAP8 POP PUSH1 0x40 MLOAD SWAP7 DUP8 MSTORE PUSH1 0x20 DUP8 ADD MSTORE PUSH1 0x40 DUP7 ADD MSTORE PUSH1 0x60 DUP6 ADD MSTORE PUSH1 0x80 DUP5 ADD MSTORE PUSH1 0xA0 DUP4 ADD MSTORE PUSH1 0xC0 DUP3 ADD MSTORE RETURN JUMPDEST SWAP5 POP PUSH1 0x20 DUP8 RETURNDATASIZE PUSH1 0x20 GT PUSH2 0x193C JUMPI JUMPDEST DUP2 PUSH2 0x192A PUSH1 0x20 SWAP4 DUP4 PUSH2 0x19CB JUMP JUMPDEST DUP2 ADD SUB SLT PUSH2 0x1D3 JUMPI PUSH1 0xE0 SWAP7 MLOAD SWAP5 PUSH2 0x18E5 JUMP JUMPDEST RETURNDATASIZE SWAP2 POP PUSH2 0x191D JUMP JUMPDEST PUSH1 0x40 MLOAD RETURNDATASIZE PUSH1 0x0 DUP3 RETURNDATACOPY RETURNDATASIZE SWAP1 REVERT JUMPDEST DUP3 SLOAD DUP5 MSTORE PUSH1 0x20 SWAP1 SWAP4 ADD SWAP3 PUSH1 0x1 SWAP3 DUP4 ADD SWAP3 ADD PUSH2 0x1727 JUMP JUMPDEST PUSH1 0x4 CALLDATALOAD SWAP1 PUSH1 0x1 PUSH1 0x1 PUSH1 0xA0 SHL SUB DUP3 AND DUP3 SUB PUSH2 0x1D3 JUMPI JUMP JUMPDEST PUSH1 0x40 SWAP1 PUSH1 0x3 NOT ADD SLT PUSH2 0x1D3 JUMPI PUSH1 0x4 CALLDATALOAD SWAP1 PUSH1 0x24 CALLDATALOAD SWAP1 JUMP JUMPDEST PUSH2 0x1C0 DUP2 ADD SWAP1 DUP2 LT PUSH8 0xFFFFFFFFFFFFFFFF DUP3 GT OR PUSH2 0x360 JUMPI PUSH1 0x40 MSTORE JUMP JUMPDEST PUSH1 0x80 DUP2 ADD SWAP1 DUP2 LT PUSH8 0xFFFFFFFFFFFFFFFF DUP3 GT OR PUSH2 0x360 JUMPI PUSH1 0x40 MSTORE JUMP JUMPDEST SWAP1 PUSH1 0x1F DUP1 NOT SWAP2 ADD AND DUP2 ADD SWAP1 DUP2 LT PUSH8 0xFFFFFFFFFFFFFFFF DUP3 GT OR PUSH2 0x360 JUMPI PUSH1 0x40 MSTORE JUMP JUMPDEST DUP1 SLOAD DUP3 LT ISZERO PUSH2 0x1A05 JUMPI PUSH1 0x0 MSTORE PUSH1 0x20 PUSH1 0x0 KECCAK256 ADD SWAP1 PUSH1 0x0 SWAP1 JUMP JUMPDEST PUSH4 0x4E487B71 PUSH1 0xE0 SHL PUSH1 0x0 MSTORE PUSH1 0x32 PUSH1 0x4 MSTORE PUSH1 0x24 PUSH1 0x0 REVERT JUMPDEST DUP1 SLOAD DUP3 LT ISZERO PUSH2 0x1A05 JUMPI PUSH1 0x0 MSTORE PUSH1 0x20 PUSH1 0x0 KECCAK256 SWAP1 PUSH1 0x2 SHL ADD SWAP1 PUSH1 0x0 SWAP1 JUMP JUMPDEST PUSH1 0x0 SLOAD PUSH1 0x1 PUSH1 0x1 PUSH1 0xA0 SHL SUB AND CALLER SUB PUSH2 0x1A4B JUMPI JUMP JUMPDEST PUSH1 0x40 MLOAD PUSH4 0x118CDAA7 PUSH1 0xE0 SHL DUP2 MSTORE CALLER PUSH1 0x4 DUP3 ADD MSTORE PUSH1 0x24 SWAP1 REVERT JUMPDEST ISZERO PUSH2 0x1A6A JUMPI JUMP JUMPDEST PUSH1 0x40 MLOAD PUSH3 0x461BCD PUSH1 0xE5 SHL DUP2 MSTORE PUSH1 0x20 PUSH1 0x4 DUP3 ADD MSTORE PUSH1 0x12 PUSH1 0x24 DUP3 ADD MSTORE PUSH18 0x13DB9B1E4814DBDB1D995B98DE55985D5B1D PUSH1 0x72 SHL PUSH1 0x44 DUP3 ADD MSTORE PUSH1 0x64 SWAP1 REVERT JUMPDEST ISZERO PUSH2 0x1AAB JUMPI JUMP JUMPDEST PUSH1 0x40 MLOAD PUSH3 0x461BCD PUSH1 0xE5 SHL DUP2 MSTORE PUSH1 0x20 PUSH1 0x4 DUP3 ADD MSTORE PUSH1 0x12 PUSH1 0x24 DUP3 ADD MSTORE PUSH18 0x416D6F756E74206D757374206265203E203 PUSH1 0x74 SHL PUSH1 0x44 DUP3 ADD MSTORE PUSH1 0x64 SWAP1 REVERT JUMPDEST ISZERO PUSH2 0x1AEC JUMPI JUMP JUMPDEST PUSH1 0x40 MLOAD PUSH3 0x461BCD PUSH1 0xE5 SHL DUP2 MSTORE PUSH1 0x20 PUSH1 0x4 DUP3 ADD MSTORE PUSH1 0x11 PUSH1 0x24 DUP3 ADD MSTORE PUSH17 0x56616C7565206D757374206265203E203 PUSH1 0x7C SHL PUSH1 0x44 DUP3 ADD MSTORE PUSH1 0x64 SWAP1 REVERT JUMPDEST PUSH1 0x2 PUSH1 0x1 SLOAD EQ PUSH2 0x1B36 JUMPI PUSH1 0x2 PUSH1 0x1 SSTORE JUMP JUMPDEST PUSH1 0x40 MLOAD PUSH4 0x3EE5AEB5 PUSH1 0xE0 SHL DUP2 MSTORE PUSH1 0x4 SWAP1 REVERT JUMPDEST ISZERO PUSH2 0x1B4F JUMPI JUMP JUMPDEST PUSH1 0x40 MLOAD PUSH3 0x461BCD PUSH1 0xE5 SHL DUP2 MSTORE PUSH1 0x20 PUSH1 0x4 DUP3 ADD MSTORE PUSH1 0x16 PUSH1 0x24 DUP3 ADD MSTORE PUSH22 0x437265646974206C696E65206E6F7420616374697665 PUSH1 0x50 SHL PUSH1 0x44 DUP3 ADD MSTORE PUSH1 0x64 SWAP1 REVERT JUMPDEST PUSH1 0x0 NOT DUP2 EQ PUSH2 0x648 JUMPI PUSH1 0x1 ADD SWAP1 JUMP JUMPDEST SWAP2 SWAP1 DUP3 SUB SWAP2 DUP3 GT PUSH2 0x648 JUMPI JUMP JUMPDEST SWAP2 SWAP1 DUP3 ADD DUP1 SWAP3 GT PUSH2 0x648 JUMPI JUMP JUMPDEST PUSH1 0x0 MSTORE PUSH1 0x5 PUSH1 0x20 MSTORE PUSH1 0x40 PUSH1 0x0 KECCAK256 PUSH1 0x40 MLOAD SWAP1 PUSH2 0x1BD0 DUP3 PUSH2 0x1992 JUMP JUMPDEST PUSH1 0x1 DUP1 PUSH1 0xA0 SHL SUB DUP1 DUP3 SLOAD AND DUP4 MSTORE PUSH1 0x1 DUP3 ADD SLOAD AND PUSH1 0x20 DUP4 ADD MSTORE PUSH1 0x2 DUP2 ADD SLOAD PUSH1 0x40 DUP4 ADD MSTORE PUSH1 0x3 DUP2 ADD SLOAD SWAP2 DUP3 PUSH1 0x60 DUP3 ADD MSTORE PUSH1 0xFF PUSH1 0xD PUSH1 0x4 DUP5 ADD SLOAD SWAP4 DUP5 PUSH1 0x80 DUP6 ADD MSTORE PUSH1 0x5 DUP2 ADD SLOAD PUSH1 0xA0 DUP6 ADD MSTORE PUSH1 0x6 DUP2 ADD SLOAD PUSH1 0xC0 DUP6 ADD MSTORE PUSH1 0x7 DUP2 ADD SLOAD PUSH1 0xE0 DUP6 ADD MSTORE PUSH1 0x8 DUP2 ADD SLOAD PUSH2 0x100 DUP6 ADD MSTORE PUSH1 0x9 DUP2 ADD SLOAD PUSH2 0x120 DUP6 ADD MSTORE PUSH1 0xA DUP2 ADD SLOAD PUSH2 0x140 DUP6 ADD MSTORE DUP3 PUSH1 0xB DUP3 ADD SLOAD AND ISZERO ISZERO PUSH2 0x160 DUP6 ADD MSTORE PUSH1 0xC DUP2 ADD SLOAD PUSH2 0x180 DUP6 ADD MSTORE ADD SLOAD AND ISZERO SWAP1 PUSH2 0x1A0 DUP3 ISZERO SWAP2 ADD MSTORE PUSH2 0x1C84 JUMPI PUSH2 0x1C81 SWAP2 PUSH2 0x1B9C JUMP JUMPDEST SWAP1 JUMP JUMPDEST POP POP PUSH1 0x0 SWAP1 JUMP JUMPDEST DUP1 MLOAD DUP3 LT ISZERO PUSH2 0x1A05 JUMPI PUSH1 0x20 SWAP2 PUSH1 0x5 SHL ADD ADD SWAP1 JUMP JUMPDEST SWAP1 PUSH1 0x1 DUP1 PUSH1 0xA0 SHL SUB SWAP2 DUP3 PUSH1 0x0 SWAP2 AND DUP2 MSTORE PUSH1 0x8 PUSH1 0x20 SWAP4 DUP2 DUP6 MSTORE PUSH1 0x40 SWAP2 DUP3 DUP5 KECCAK256 SWAP4 DUP4 MLOAD DUP1 DUP7 DUP10 DUP3 SWAP9 SLOAD SWAP4 DUP5 DUP2 MSTORE ADD SWAP1 DUP5 MSTORE DUP10 DUP5 KECCAK256 SWAP3 DUP5 JUMPDEST DUP12 DUP3 DUP3 LT PUSH2 0x1EEB JUMPI POP POP POP PUSH2 0x1CEB SWAP3 POP SUB DUP7 PUSH2 0x19CB JUMP JUMPDEST DUP5 MLOAD ISZERO PUSH2 0x1EE3 JUMPI SWAP3 DUP4 DUP1 SWAP2 DUP2 SWAP7 DUP3 JUMPDEST DUP2 MLOAD DUP2 LT ISZERO PUSH2 0x1E04 JUMPI PUSH2 0x1D0D DUP2 DUP4 PUSH2 0x1C8B JUMP JUMPDEST MLOAD DUP5 MSTORE PUSH1 0x5 SWAP5 DUP6 DUP13 MSTORE DUP4 DUP6 KECCAK256 SWAP9 DUP5 MLOAD SWAP7 PUSH2 0x1D26 DUP9 PUSH2 0x1992 JUMP JUMPDEST DUP10 DUP12 SLOAD AND DUP9 MSTORE DUP14 DUP11 PUSH1 0x1 DUP14 ADD SLOAD AND SWAP1 DUP10 ADD MSTORE PUSH1 0x2 DUP12 ADD SLOAD DUP7 DUP10 ADD MSTORE PUSH1 0x3 DUP12 ADD SLOAD PUSH1 0x60 DUP10 ADD MSTORE PUSH1 0x4 DUP12 ADD SLOAD PUSH1 0x80 DUP10 ADD MSTORE DUP11 ADD SLOAD PUSH1 0xA0 DUP9 ADD MSTORE PUSH1 0x6 DUP11 ADD SLOAD PUSH1 0xC0 DUP9 ADD MSTORE PUSH1 0x7 DUP11 ADD SLOAD DUP1 PUSH1 0xE0 DUP10 ADD MSTORE DUP9 DUP12 ADD SLOAD SWAP8 PUSH2 0x100 DUP2 ADD SWAP9 DUP10 MSTORE PUSH1 0x9 DUP13 ADD SLOAD PUSH2 0x120 DUP3 ADD MSTORE PUSH1 0xA DUP13 ADD SLOAD PUSH2 0x140 DUP3 ADD MSTORE DUP12 PUSH1 0xFF PUSH1 0xB DUP2 SWAP3 ADD SLOAD AND SWAP13 PUSH2 0x160 DUP4 ADD DUP1 SWAP15 ISZERO ISZERO SWAP1 MSTORE PUSH1 0xC DUP2 ADD SLOAD PUSH2 0x180 DUP5 ADD MSTORE PUSH1 0xD ADD SLOAD AND ISZERO ISZERO SWAP1 PUSH2 0x1A0 ADD MSTORE PUSH2 0x1DCC SWAP2 PUSH2 0x1BA9 JUMP JUMPDEST SWAP6 MLOAD PUSH2 0x1DD7 SWAP2 PUSH2 0x1BA9 JUMP JUMPDEST SWAP8 MLOAD PUSH2 0x1DEF JUMPI JUMPDEST PUSH2 0x1DE7 SWAP1 PUSH2 0x1B8D JUMP JUMPDEST SWAP7 SWAP4 SWAP7 PUSH2 0x1CFA JUMP JUMPDEST SWAP8 PUSH2 0x1DFC PUSH2 0x1DE7 SWAP2 PUSH2 0x1B8D JUMP JUMPDEST SWAP9 SWAP1 POP PUSH2 0x1DDE JUMP JUMPDEST POP POP POP SWAP6 SWAP7 POP SWAP3 SWAP2 POP POP DUP1 ISZERO PUSH2 0x1ED9 JUMPI PUSH2 0x320 SWAP2 DUP3 DUP2 MUL SWAP3 DUP2 ISZERO SWAP1 DUP3 DUP6 DIV EQ DUP2 OR ISZERO PUSH2 0x1EC5 JUMPI PUSH1 0xC8 DUP6 MUL SWAP5 DUP1 DUP7 DIV PUSH1 0xC8 EQ SWAP1 ISZERO OR ISZERO PUSH2 0x1EC5 JUMPI PUSH2 0x190 DUP1 DUP7 GT PUSH2 0x1EBD JUMPI JUMPDEST POP PUSH1 0xA DUP3 GT ISZERO PUSH2 0x1E8F JUMPI POP POP SWAP1 PUSH2 0x1E63 SWAP2 PUSH1 0xC8 SWAP2 JUMPDEST DIV PUSH2 0x1BA9 JUMP JUMPDEST DUP2 DUP2 GT ISZERO PUSH2 0x1E88 JUMPI PUSH2 0x1E75 SWAP3 POP PUSH2 0x1B9C JUMP JUMPDEST PUSH2 0x3E8 DUP1 DUP3 GT PUSH2 0x1E83 JUMPI POP SWAP1 JUMP JUMPDEST SWAP1 POP SWAP1 JUMP JUMPDEST POP POP PUSH2 0x1E75 JUMP JUMPDEST PUSH1 0x14 DUP3 MUL SWAP2 DUP3 DIV PUSH1 0x14 EQ OR ISZERO PUSH2 0x1EA9 JUMPI SWAP1 PUSH2 0x1E63 SWAP3 PUSH2 0x1E5D JUMP JUMPDEST PUSH4 0x4E487B71 PUSH1 0xE0 SHL DUP6 MSTORE PUSH1 0x11 PUSH1 0x4 MSTORE PUSH1 0x24 DUP6 REVERT JUMPDEST SWAP5 POP CODESIZE PUSH2 0x1E48 JUMP JUMPDEST PUSH4 0x4E487B71 PUSH1 0xE0 SHL DUP7 MSTORE PUSH1 0x11 PUSH1 0x4 MSTORE PUSH1 0x24 DUP7 REVERT JUMPDEST POP POP POP POP PUSH2 0x1F4 SWAP1 JUMP JUMPDEST SWAP6 POP POP POP POP POP JUMP JUMPDEST DUP6 SLOAD DUP5 MSTORE PUSH1 0x1 SWAP6 DUP7 ADD SWAP6 DUP12 SWAP6 POP SWAP4 ADD SWAP3 ADD PUSH2 0x1CD4 JUMP JUMPDEST SWAP1 DUP2 MLOAD DUP2 LT ISZERO PUSH2 0x1A05 JUMPI ADD PUSH1 0x20 ADD SWAP1 JUMP JUMPDEST SWAP1 DUP1 MLOAD DUP3 MLOAD DUP2 GT PUSH2 0x1FB3 JUMPI ISZERO PUSH2 0x1C84 JUMPI PUSH1 0x0 SWAP1 JUMPDEST PUSH2 0x1F33 DUP4 MLOAD DUP3 MLOAD SWAP1 PUSH2 0x1B9C JUMP JUMPDEST DUP3 GT PUSH2 0x1FB3 JUMPI PUSH1 0x1 SWAP3 PUSH1 0x0 JUMPDEST DUP3 MLOAD DUP2 LT ISZERO PUSH2 0x1FA9 JUMPI PUSH1 0x1 PUSH1 0x1 PUSH1 0xF8 SHL SUB NOT DUP1 PUSH2 0x1F65 PUSH2 0x1F5F DUP5 DUP9 PUSH2 0x1BA9 JUMP JUMPDEST DUP6 PUSH2 0x1F01 JUMP JUMPDEST MLOAD AND SWAP1 PUSH2 0x1F72 DUP4 DUP7 PUSH2 0x1F01 JUMP JUMPDEST MLOAD AND SUB PUSH2 0x1F87 JUMPI PUSH2 0x1F82 SWAP1 PUSH2 0x1B8D JUMP JUMPDEST PUSH2 0x1F3F JUMP JUMPDEST POP SWAP3 POP SWAP1 PUSH1 0x0 JUMPDEST PUSH2 0x1FA1 JUMPI PUSH2 0x1F9B SWAP1 PUSH2 0x1B8D JUMP JUMPDEST SWAP1 PUSH2 0x1F26 JUMP JUMPDEST POP POP POP PUSH1 0x1 SWAP1 JUMP JUMPDEST POP SWAP3 SWAP2 SWAP1 SWAP2 PUSH2 0x1F8E JUMP JUMPDEST POP POP POP PUSH1 0x0 SWAP1 JUMP INVALID LOG2 PUSH5 0x6970667358 0x22 SLT KECCAK256 0xA5 PUSH18 0x10AAB5D6A8CB2438A94A7AC9C5FAD60E74F4 0xE7 SELFBALANCE 0xB4 PUSH24 0x173D38818BE1F8164736F6C634300081400330000000000 "},"methodIdentifiers":{"creditLines(uint256)":"36e433ba","getAvailableCredit(uint256)":"cbcddf13","getCreditLine(uint256)":"edad8550","getCreditProfile(address)":"079bafe3","getCreditScore(address)":"d3dd2bdf","getPaymentHistory(uint256)":"4e02503a","getTotalAvailableCredit(address)":"d5cdd4c6","getTotalCreditLimit(address)":"20bb463e","getUserCreditLines(address)":"ad6e4f3a","isUserRegistered(address)":"163f7522","issueCreditLine(address,address,uint256,uint256,uint256)":"e32195d6","nextCreditLineId()":"8f19cfa9","owner()":"8da5cb5b","paymentHistory(uint256,uint256)":"b27062db","recordCreditRepayment(uint256,uint256)":"6ad75e1f","recordCreditUsage(uint256,uint256)":"65a1782f","recordPayment(uint256,uint256,bool,uint256)":"f2f6818f","registerUser(address)":"2199d5cd","registeredUsers(address)":"0e50cee5","renounceOwnership()":"715018a6","revokeCreditLine(uint256,string)":"67cc7cff","setSolvencyVault(address)":"2077997b","solvencyVault()":"44452ba1","transferOwnership(address)":"f2fde38b","updateCreditLine(uint256,uint256)":"ea3854d8","userCreditLines(address,uint256)":"7bca9fcc","userRegistrationTime(address)":"f030af22"}}}}}