{"contracts/core/TokenFactory.sol":{"TokenFactory":{"abi":[{"inputs":[{"internalType":"address","name":"_attestationRegistry","type":"address"},{"internalType":"address","name":"_identityRegistry","type":"address"},{"internalType":"address","name":"_trustedIssuersRegistry","type":"address"},{"internalType":"address","name":"_platformCustody","type":"address"},{"internalType":"address","name":"_yieldVault","type":"address"}],"stateMutability":"nonpayable","type":"constructor"},{"anonymous":false,"inputs":[{"indexed":true,"internalType":"bytes32","name":"assetId","type":"bytes32"},{"indexed":false,"internalType":"address","name":"token","type":"address"},{"indexed":false,"internalType":"address","name":"compliance","type":"address"},{"indexed":false,"internalType":"uint256","name":"totalSupply","type":"uint256"}],"name":"TokenSuiteDeployed","type":"event"},{"inputs":[{"internalType":"uint256","name":"","type":"uint256"}],"name":"allTokens","outputs":[{"internalType":"address","name":"","type":"address"}],"stateMutability":"view","type":"function"},{"inputs":[],"name":"attestationRegistry","outputs":[{"internalType":"address","name":"","type":"address"}],"stateMutability":"view","type":"function"},{"inputs":[{"internalType":"bytes32","name":"assetId","type":"bytes32"},{"internalType":"uint256","name":"totalSupply","type":"uint256"},{"internalType":"string","name":"name","type":"string"},{"internalType":"string","name":"symbol","type":"string"},{"internalType":"address","name":"issuer","type":"address"}],"name":"deployTokenSuite","outputs":[],"stateMutability":"nonpayable","type":"function"},{"inputs":[{"internalType":"bytes32","name":"","type":"bytes32"}],"name":"deployedTokens","outputs":[{"internalType":"address","name":"token","type":"address"},{"internalType":"address","name":"compliance","type":"address"},{"internalType":"uint256","name":"deployedAt","type":"uint256"},{"internalType":"uint256","name":"totalSupply","type":"uint256"}],"stateMutability":"view","type":"function"},{"inputs":[],"name":"getAllTokens","outputs":[{"internalType":"address[]","name":"","type":"address[]"}],"stateMutability":"view","type":"function"},{"inputs":[{"internalType":"bytes32","name":"assetId","type":"bytes32"}],"name":"getTokenByAssetId","outputs":[{"components":[{"internalType":"address","name":"token","type":"address"},{"internalType":"address","name":"compliance","type":"address"},{"internalType":"uint256","name":"deployedAt","type":"uint256"},{"internalType":"uint256","name":"totalSupply","type":"uint256"}],"internalType":"struct TokenFactory.TokenSuite","name":"","type":"tuple"}],"stateMutability":"view","type":"function"},{"inputs":[],"name":"identityRegistry","outputs":[{"internalType":"address","name":"","type":"address"}],"stateMutability":"view","type":"function"},{"inputs":[],"name":"owner","outputs":[{"internalType":"address","name":"","type":"address"}],"stateMutability":"view","type":"function"},{"inputs":[],"name":"platformCustody","outputs":[{"internalType":"address","name":"","type":"address"}],"stateMutability":"view","type":"function"},{"inputs":[],"name":"tokenCount","outputs":[{"internalType":"uint256","name":"","type":"uint256"}],"stateMutability":"view","type":"function"},{"inputs":[],"name":"trustedIssuersRegistry","outputs":[{"internalType":"address","name":"","type":"address"}],"stateMutability":"view","type":"function"},{"inputs":[],"name":"yieldVault","outputs":[{"internalType":"address","name":"","type":"address"}],"stateMutability":"view","type":"function"}],"evm":{"bytecode":{"linkReferences":{},"object":"608060405234801561001057600080fd5b5060405161234238038061234283398101604081905261002f916100b7565b60058054336001600160a01b0319918216179091556000805482166001600160a01b03978816179055600180548216958716959095179094556002805485169386169390931790925560038054841691851691909117905560048054909216921691909117905561011c565b80516001600160a01b03811681146100b257600080fd5b919050565b600080600080600060a086880312156100cf57600080fd5b6100d88661009b565b94506100e66020870161009b565b93506100f46040870161009b565b92506101026060870161009b565b91506101106080870161009b565b90509295509295909350565b6122178061012b6000396000f3fe60806040523480156200001157600080fd5b5060043610620000c35760003560e01c80638da5cb5b116200007a5780638da5cb5b14620002705780639f181b5e1462000284578063a5bd068e146200029d578063a7f8a5e214620002b6578063ed6d73f914620002ca578063fb703a7b14620002de57600080fd5b8063134e18f414620000c8578063299aa1d714620000f95780632a5c792a146200010d578063613095961462000126578063634282af14620001975780637425834714620001ae575b600080fd5b600154620000dc906001600160a01b031681565b6040516001600160a01b0390911681526020015b60405180910390f35b600354620000dc906001600160a01b031681565b62000117620002f2565b604051620000f09190620007be565b6200016b620001373660046200080d565b60066020526000908152604090208054600182015460028301546003909301546001600160a01b0392831693919092169184565b604080516001600160a01b039586168152949093166020850152918301526060820152608001620000f0565b620000dc620001a83660046200080d565b62000356565b6200022e620001bf3660046200080d565b6040805160808082018352600080835260208084018290528385018290526060938401829052948152600685528390208351918201845280546001600160a01b039081168352600182015416948201949094526002840154928101929092526003909201549181019190915290565b604051620000f0919081516001600160a01b03908116825260208084015190911690820152604080830151908201526060918201519181019190915260800190565b600554620000dc906001600160a01b031681565b6200028e60085481565b604051908152602001620000f0565b620002b4620002ae366004620008d2565b62000381565b005b600454620000dc906001600160a01b031681565b600054620000dc906001600160a01b031681565b600254620000dc906001600160a01b031681565b606060078054806020026020016040519081016040528092919081815260200182805480156200034c57602002820191906000526020600020905b81546001600160a01b031681526001909101906020018083116200032d575b5050505050905090565b600781815481106200036757600080fd5b6000918252602090912001546001600160a01b0316905081565b6005546001600160a01b03163314620003ce5760405162461bcd60e51b815260206004820152600a60248201526927b7363c9037bbb732b960b11b60448201526064015b60405180910390fd5b6000858152600660205260409020546001600160a01b031615620004355760405162461bcd60e51b815260206004820152601760248201527f417373657420616c726561647920746f6b656e697a65640000000000000000006044820152606401620003c5565b60005460405163339f16a960e01b8152600481018790526001600160a01b039091169063339f16a990602401602060405180830381865afa1580156200047f573d6000803e3d6000fd5b505050506040513d601f19601f82011682018060405250810190620004a5919062000972565b620004e55760405162461bcd60e51b815260206004820152600f60248201526e105cdcd95d081b9bdd081d985b1a59608a1b6044820152606401620003c5565b6001546000805460405191926001600160a01b039081169291169088906200050d90620007a2565b6001600160a01b0393841681529290911660208301526040820152606001604051809103906000f08015801562000548573d6000803e3d6000fd5b50905060008682600160009054906101000a90046001600160a01b031688600360009054906101000a90046001600160a01b03168989896040516200058d90620007b0565b620005a0989796959493929190620009e5565b604051809103906000f080158015620005bd573d6000803e3d6000fd5b5060048054604051630bfae2a760e31b81526001600160a01b0380851693820193909352602481018b905286831660448201529293501690635fd7153890606401600060405180830381600087803b1580156200061957600080fd5b505af11580156200062e573d6000803e3d6000fd5b505050506040518060800160405280826001600160a01b03168152602001836001600160a01b03168152602001428152602001878152506006600089815260200190815260200160002060008201518160000160006101000a8154816001600160a01b0302191690836001600160a01b0316021790555060208201518160010160006101000a8154816001600160a01b0302191690836001600160a01b0316021790555060408201518160020155606082015181600301559050506007819080600181540180825580915050600190039060005260206000200160009091909190916101000a8154816001600160a01b0302191690836001600160a01b0316021790555060086000815480929190620007479062000a59565b9091555050604080516001600160a01b0380841682528416602082015290810187905287907fc18d6775055c0c790e1ab3ef353cbaa7ef775f7fc0bb1a89fcedfb23efe762559060600160405180910390a250505050505050565b6105568062000a8283390190565b61120a8062000fd883390190565b6020808252825182820181905260009190848201906040850190845b81811015620008015783516001600160a01b031683529284019291840191600101620007da565b50909695505050505050565b6000602082840312156200082057600080fd5b5035919050565b634e487b7160e01b600052604160045260246000fd5b600082601f8301126200084f57600080fd5b813567ffffffffffffffff808211156200086d576200086d62000827565b604051601f8301601f19908116603f0116810190828211818310171562000898576200089862000827565b81604052838152866020858801011115620008b257600080fd5b836020870160208301376000602085830101528094505050505092915050565b600080600080600060a08688031215620008eb57600080fd5b8535945060208601359350604086013567ffffffffffffffff808211156200091257600080fd5b6200092089838a016200083d565b945060608801359150808211156200093757600080fd5b5062000946888289016200083d565b92505060808601356001600160a01b03811681146200096457600080fd5b809150509295509295909350565b6000602082840312156200098557600080fd5b815180151581146200099657600080fd5b9392505050565b6000815180845260005b81811015620009c557602081850181015186830182015201620009a7565b506000602082860101526020601f19601f83011685010191505092915050565b8881526001600160a01b038881166020830152878116604083015260608201879052858116608083015261010060a0830181905260009162000a2a848301886200099d565b915083820360c085015262000a4082876200099d565b925080851660e085015250509998505050505050505050565b60006001820162000a7a57634e487b7160e01b600052601160045260246000fd5b506001019056fe608060405234801561001057600080fd5b5060405161055638038061055683398101604081905261002f9161008e565b600380546001600160a01b03199081163317909155600080546001600160a01b0395861690831617905560018054939094169216919091179091556002556100ca565b80516001600160a01b038116811461008957600080fd5b919050565b6000806000606084860312156100a357600080fd5b6100ac84610072565b92506100ba60208501610072565b9150604084015190509250925092565b61047d806100d96000396000f3fe608060405234801561001057600080fd5b506004361061007d5760003560e01c80638da5cb5b1161005b5780638da5cb5b146100de578063cbf3f861146100f1578063e46638e614610104578063ed6d73f91461012757600080fd5b806306d8560014610082578063134e18f41461009757806344de240a146100c7575b600080fd5b6100956100903660046103ce565b61013a565b005b6000546100aa906001600160a01b031681565b6040516001600160a01b0390911681526020015b60405180910390f35b6100d060025481565b6040519081526020016100be565b6003546100aa906001600160a01b031681565b6100956100ff3660046103ce565b6101a8565b6101176101123660046103e9565b610211565b60405190151581526020016100be565b6001546100aa906001600160a01b031681565b6003546001600160a01b031633146101865760405162461bcd60e51b815260206004820152600a60248201526927b7363c9037bbb732b960b11b60448201526064015b60405180910390fd5b600180546001600160a01b0319166001600160a01b0392909216919091179055565b6003546001600160a01b031633146101ef5760405162461bcd60e51b815260206004820152600a60248201526927b7363c9037bbb732b960b11b604482015260640161017d565b600080546001600160a01b0319166001600160a01b0392909216919091179055565b60006001600160a01b0384161561029c5760005460405163b9209e3360e01b81526001600160a01b0386811660048301529091169063b9209e3390602401602060405180830381865afa15801561026c573d6000803e3d6000fd5b505050506040513d601f19601f820116820180604052508101906102909190610425565b61029c575060006103ab565b6001600160a01b038316156103255760005460405163b9209e3360e01b81526001600160a01b0385811660048301529091169063b9209e3390602401602060405180830381865afa1580156102f5573d6000803e3d6000fd5b505050506040513d601f19601f820116820180604052508101906103199190610425565b610325575060006103ab565b60015460025460405163339f16a960e01b81526001600160a01b039092169163339f16a99161035a9160040190815260200190565b602060405180830381865afa158015610377573d6000803e3d6000fd5b505050506040513d601f19601f8201168201806040525081019061039b9190610425565b6103a7575060006103ab565b5060015b9392505050565b80356001600160a01b03811681146103c957600080fd5b919050565b6000602082840312156103e057600080fd5b6103ab826103b2565b6000806000606084860312156103fe57600080fd5b610407846103b2565b9250610415602085016103b2565b9150604084013590509250925092565b60006020828403121561043757600080fd5b815180151581146103ab57600080fdfea26469706673582212200edfee80c4748fcf33804c00c4b24f63cd8f9fba80793b266ff2dd737ed6b14064736f6c6343000814003360806040523480156200001157600080fd5b506040516200120a3803806200120a833981016040819052620000349162000430565b8282600362000044838262000587565b50600462000053828262000587565b505060098054336001600160a01b03199182161790915560058a90556006805482166001600160a01b038b8116919091179091556007805483168a83161790556008805490921690841617905550620000ad8486620000bb565b5050505050505050620006a6565b6001600160a01b038216620000eb5760405163ec442f0560e01b8152600060048201526024015b60405180910390fd5b620000f960008383620000fd565b5050565b600954600160a01b900460ff161580156200012057506001600160a01b03831615155b80156200013557506001600160a01b03821615155b1562000209576006546040516372331c7360e11b81526001600160a01b0385811660048301528481166024830152604482018490529091169063e46638e690606401602060405180830381865afa15801562000195573d6000803e3d6000fd5b505050506040513d601f19601f82011682018060405250810190620001bb919062000653565b620002095760405162461bcd60e51b815260206004820152601760248201527f436f6d706c69616e636520636865636b206661696c65640000000000000000006044820152606401620000e2565b620002168383836200021b565b505050565b6001600160a01b0383166200024a5780600260008282546200023e91906200067e565b90915550620002be9050565b6001600160a01b038316600090815260208190526040902054818110156200029f5760405163391434e360e21b81526001600160a01b03851660048201526024810182905260448101839052606401620000e2565b6001600160a01b03841660009081526020819052604090209082900390555b6001600160a01b038216620002dc57600280548290039055620002fb565b6001600160a01b03821660009081526020819052604090208054820190555b816001600160a01b0316836001600160a01b03167fddf252ad1be2c89b69c2b068fc378daa952ba7f163c4a11628f55a4df523b3ef836040516200034191815260200190565b60405180910390a3505050565b80516001600160a01b03811681146200036657600080fd5b919050565b634e487b7160e01b600052604160045260246000fd5b600082601f8301126200039357600080fd5b81516001600160401b0380821115620003b057620003b06200036b565b604051601f8301601f19908116603f01168101908282118183101715620003db57620003db6200036b565b81604052838152602092508683858801011115620003f857600080fd5b600091505b838210156200041c5785820183015181830184015290820190620003fd565b600093810190920192909252949350505050565b600080600080600080600080610100898b0312156200044e57600080fd5b885197506200046060208a016200034e565b96506200047060408a016200034e565b9550606089015194506200048760808a016200034e565b60a08a01519094506001600160401b0380821115620004a557600080fd5b620004b38c838d0162000381565b945060c08b0151915080821115620004ca57600080fd5b50620004d98b828c0162000381565b925050620004ea60e08a016200034e565b90509295985092959890939650565b600181811c908216806200050e57607f821691505b6020821081036200052f57634e487b7160e01b600052602260045260246000fd5b50919050565b601f8211156200021657600081815260208120601f850160051c810160208610156200055e5750805b601f850160051c820191505b818110156200057f578281556001016200056a565b505050505050565b81516001600160401b03811115620005a357620005a36200036b565b620005bb81620005b48454620004f9565b8462000535565b602080601f831160018114620005f35760008415620005da5750858301515b600019600386901b1c1916600185901b1785556200057f565b600085815260208120601f198616915b82811015620006245788860151825594840194600190910190840162000603565b5085821015620006435787850151600019600388901b60f8161c191681555b5050505050600190811b01905550565b6000602082840312156200066657600080fd5b815180151581146200067757600080fd5b9392505050565b80820180821115620006a057634e487b7160e01b600052601160045260246000fd5b92915050565b610b5480620006b66000396000f3fe608060405234801561001057600080fd5b506004361061012c5760003560e01c80635c975abb116100ad57806395d89b411161007157806395d89b411461028b5780639fc1d0e714610293578063a9059cbb146102a6578063dd62ed3e146102b9578063f8981789146102f257600080fd5b80635c975abb146102155780636290865d1461022957806370a082311461023c57806379cc6790146102655780638da5cb5b1461027857600080fd5b80631d143848116100f45780631d143848146101c457806323b872dd146101d7578063313ce567146101ea57806342966c68146101f957806344de240a1461020c57600080fd5b806306fdde0314610131578063095ea7b31461014f578063134e18f41461017257806316c38b3c1461019d57806318160ddd146101b2575b600080fd5b610139610305565b6040516101469190610919565b60405180910390f35b61016261015d366004610983565b610397565b6040519015158152602001610146565b600754610185906001600160a01b031681565b6040516001600160a01b039091168152602001610146565b6101b06101ab3660046109bb565b6103b1565b005b6002545b604051908152602001610146565b600854610185906001600160a01b031681565b6101626101e53660046109df565b610402565b60405160128152602001610146565b6101b0610207366004610a1b565b610426565b6101b660055481565b60095461016290600160a01b900460ff1681565b600654610185906001600160a01b031681565b6101b661024a366004610a34565b6001600160a01b031660009081526020819052604090205490565b6101b0610273366004610983565b610433565b600954610185906001600160a01b031681565b61013961044c565b6101b06102a13660046109df565b61045b565b6101626102b4366004610983565b610495565b6101b66102c7366004610a4f565b6001600160a01b03918216600090815260016020908152604080832093909416825291909152205490565b6101b0610300366004610a34565b6104a3565b60606003805461031490610a82565b80601f016020809104026020016040519081016040528092919081815260200182805461034090610a82565b801561038d5780601f106103625761010080835404028352916020019161038d565b820191906000526020600020905b81548152906001019060200180831161037057829003601f168201915b5050505050905090565b6000336103a58185856104ef565b60019150505b92915050565b6009546001600160a01b031633146103e45760405162461bcd60e51b81526004016103db90610abc565b60405180910390fd5b60098054911515600160a01b0260ff60a01b19909216919091179055565b6000336104108582856104fc565b61041b85858561057b565b506001949350505050565b61043033826105da565b50565b61043e8233836104fc565b61044882826105da565b5050565b60606004805461031490610a82565b6009546001600160a01b031633146104855760405162461bcd60e51b81526004016103db90610abc565b61049083838361057b565b505050565b6000336103a581858561057b565b6009546001600160a01b031633146104cd5760405162461bcd60e51b81526004016103db90610abc565b600680546001600160a01b0319166001600160a01b0392909216919091179055565b6104908383836001610610565b6001600160a01b03838116600090815260016020908152604080832093861683529290522054600019811015610575578181101561056657604051637dc7a0d960e11b81526001600160a01b038416600482015260248101829052604481018390526064016103db565b61057584848484036000610610565b50505050565b6001600160a01b0383166105a557604051634b637e8f60e11b8152600060048201526024016103db565b6001600160a01b0382166105cf5760405163ec442f0560e01b8152600060048201526024016103db565b6104908383836106e5565b6001600160a01b03821661060457604051634b637e8f60e11b8152600060048201526024016103db565b610448826000836106e5565b6001600160a01b03841661063a5760405163e602df0560e01b8152600060048201526024016103db565b6001600160a01b03831661066457604051634a1406b160e11b8152600060048201526024016103db565b6001600160a01b038085166000908152600160209081526040808320938716835292905220829055801561057557826001600160a01b0316846001600160a01b03167f8c5be1e5ebec7d5bd14f71427d1e84f3dd0314c0f7b2291e5b200ac8c7c3b925846040516106d791815260200190565b60405180910390a350505050565b600954600160a01b900460ff1615801561070757506001600160a01b03831615155b801561071b57506001600160a01b03821615155b156107e9576006546040516372331c7360e11b81526001600160a01b0385811660048301528481166024830152604482018490529091169063e46638e690606401602060405180830381865afa158015610779573d6000803e3d6000fd5b505050506040513d601f19601f8201168201806040525081019061079d9190610ae0565b6107e95760405162461bcd60e51b815260206004820152601760248201527f436f6d706c69616e636520636865636b206661696c656400000000000000000060448201526064016103db565b6104908383836001600160a01b03831661081a57806002600082825461080f9190610afd565b9091555061088c9050565b6001600160a01b0383166000908152602081905260409020548181101561086d5760405163391434e360e21b81526001600160a01b038516600482015260248101829052604481018390526064016103db565b6001600160a01b03841660009081526020819052604090209082900390555b6001600160a01b0382166108a8576002805482900390556108c7565b6001600160a01b03821660009081526020819052604090208054820190555b816001600160a01b0316836001600160a01b03167fddf252ad1be2c89b69c2b068fc378daa952ba7f163c4a11628f55a4df523b3ef8360405161090c91815260200190565b60405180910390a3505050565b600060208083528351808285015260005b818110156109465785810183015185820160400152820161092a565b506000604082860101526040601f19601f8301168501019250505092915050565b80356001600160a01b038116811461097e57600080fd5b919050565b6000806040838503121561099657600080fd5b61099f83610967565b946020939093013593505050565b801515811461043057600080fd5b6000602082840312156109cd57600080fd5b81356109d8816109ad565b9392505050565b6000806000606084860312156109f457600080fd5b6109fd84610967565b9250610a0b60208501610967565b9150604084013590509250925092565b600060208284031215610a2d57600080fd5b5035919050565b600060208284031215610a4657600080fd5b6109d882610967565b60008060408385031215610a6257600080fd5b610a6b83610967565b9150610a7960208401610967565b90509250929050565b600181811c90821680610a9657607f821691505b602082108103610ab657634e487b7160e01b600052602260045260246000fd5b50919050565b6020808252600a908201526927b7363c9037bbb732b960b11b604082015260600190565b600060208284031215610af257600080fd5b81516109d8816109ad565b808201808211156103ab57634e487b7160e01b600052601160045260246000fdfea2646970667358221220029fe88e57a08cb33df23f72de24e317f583f61a12712fac678afb8077c11bf064736f6c63430008140033a26469706673582212205a432999b4fcc2f49e29abb25be83bf43450532646e39930253a0a6662fd1ca864736f6c63430008140033","opcodes":"PUSH1 0x80 PUSH1 0x40 MSTORE CALLVALUE DUP1 ISZERO PUSH2 0x10 JUMPI PUSH1 0x0 DUP1 REVERT JUMPDEST POP PUSH1 0x40 MLOAD PUSH2 0x2342 CODESIZE SUB DUP1 PUSH2 0x2342 DUP4 CODECOPY DUP2 ADD PUSH1 0x40 DUP2 SWAP1 MSTORE PUSH2 0x2F SWAP2 PUSH2 0xB7 JUMP JUMPDEST PUSH1 0x5 DUP1 SLOAD CALLER PUSH1 0x1 PUSH1 0x1 PUSH1 0xA0 SHL SUB NOT SWAP2 DUP3 AND OR SWAP1 SWAP2 SSTORE PUSH1 0x0 DUP1 SLOAD DUP3 AND PUSH1 0x1 PUSH1 0x1 PUSH1 0xA0 SHL SUB SWAP8 DUP9 AND OR SWAP1 SSTORE PUSH1 0x1 DUP1 SLOAD DUP3 AND SWAP6 DUP8 AND SWAP6 SWAP1 SWAP6 OR SWAP1 SWAP5 SSTORE PUSH1 0x2 DUP1 SLOAD DUP6 AND SWAP4 DUP7 AND SWAP4 SWAP1 SWAP4 OR SWAP1 SWAP3 SSTORE PUSH1 0x3 DUP1 SLOAD DUP5 AND SWAP2 DUP6 AND SWAP2 SWAP1 SWAP2 OR SWAP1 SSTORE PUSH1 0x4 DUP1 SLOAD SWAP1 SWAP3 AND SWAP3 AND SWAP2 SWAP1 SWAP2 OR SWAP1 SSTORE PUSH2 0x11C JUMP JUMPDEST DUP1 MLOAD PUSH1 0x1 PUSH1 0x1 PUSH1 0xA0 SHL SUB DUP2 AND DUP2 EQ PUSH2 0xB2 JUMPI PUSH1 0x0 DUP1 REVERT JUMPDEST SWAP2 SWAP1 POP JUMP JUMPDEST PUSH1 0x0 DUP1 PUSH1 0x0 DUP1 PUSH1 0x0 PUSH1 0xA0 DUP7 DUP9 SUB SLT ISZERO PUSH2 0xCF JUMPI PUSH1 0x0 DUP1 REVERT JUMPDEST PUSH2 0xD8 DUP7 PUSH2 0x9B JUMP JUMPDEST SWAP5 POP PUSH2 0xE6 PUSH1 0x20 DUP8 ADD PUSH2 0x9B JUMP JUMPDEST SWAP4 POP PUSH2 0xF4 PUSH1 0x40 DUP8 ADD PUSH2 0x9B JUMP JUMPDEST SWAP3 POP PUSH2 0x102 PUSH1 0x60 DUP8 ADD PUSH2 0x9B JUMP JUMPDEST SWAP2 POP PUSH2 0x110 PUSH1 0x80 DUP8 ADD PUSH2 0x9B JUMP JUMPDEST SWAP1 POP SWAP3 SWAP6 POP SWAP3 SWAP6 SWAP1 SWAP4 POP JUMP JUMPDEST PUSH2 0x2217 DUP1 PUSH2 0x12B PUSH1 0x0 CODECOPY PUSH1 0x0 RETURN INVALID PUSH1 0x80 PUSH1 0x40 MSTORE CALLVALUE DUP1 ISZERO PUSH3 0x11 JUMPI PUSH1 0x0 DUP1 REVERT JUMPDEST POP PUSH1 0x4 CALLDATASIZE LT PUSH3 0xC3 JUMPI PUSH1 0x0 CALLDATALOAD PUSH1 0xE0 SHR DUP1 PUSH4 0x8DA5CB5B GT PUSH3 0x7A JUMPI DUP1 PUSH4 0x8DA5CB5B EQ PUSH3 0x270 JUMPI DUP1 PUSH4 0x9F181B5E EQ PUSH3 0x284 JUMPI DUP1 PUSH4 0xA5BD068E EQ PUSH3 0x29D JUMPI DUP1 PUSH4 0xA7F8A5E2 EQ PUSH3 0x2B6 JUMPI DUP1 PUSH4 0xED6D73F9 EQ PUSH3 0x2CA JUMPI DUP1 PUSH4 0xFB703A7B EQ PUSH3 0x2DE JUMPI PUSH1 0x0 DUP1 REVERT JUMPDEST DUP1 PUSH4 0x134E18F4 EQ PUSH3 0xC8 JUMPI DUP1 PUSH4 0x299AA1D7 EQ PUSH3 0xF9 JUMPI DUP1 PUSH4 0x2A5C792A EQ PUSH3 0x10D JUMPI DUP1 PUSH4 0x61309596 EQ PUSH3 0x126 JUMPI DUP1 PUSH4 0x634282AF EQ PUSH3 0x197 JUMPI DUP1 PUSH4 0x74258347 EQ PUSH3 0x1AE JUMPI JUMPDEST PUSH1 0x0 DUP1 REVERT JUMPDEST PUSH1 0x1 SLOAD PUSH3 0xDC SWAP1 PUSH1 0x1 PUSH1 0x1 PUSH1 0xA0 SHL SUB AND DUP2 JUMP JUMPDEST PUSH1 0x40 MLOAD PUSH1 0x1 PUSH1 0x1 PUSH1 0xA0 SHL SUB SWAP1 SWAP2 AND DUP2 MSTORE PUSH1 0x20 ADD JUMPDEST PUSH1 0x40 MLOAD DUP1 SWAP2 SUB SWAP1 RETURN JUMPDEST PUSH1 0x3 SLOAD PUSH3 0xDC SWAP1 PUSH1 0x1 PUSH1 0x1 PUSH1 0xA0 SHL SUB AND DUP2 JUMP JUMPDEST PUSH3 0x117 PUSH3 0x2F2 JUMP JUMPDEST PUSH1 0x40 MLOAD PUSH3 0xF0 SWAP2 SWAP1 PUSH3 0x7BE JUMP JUMPDEST PUSH3 0x16B PUSH3 0x137 CALLDATASIZE PUSH1 0x4 PUSH3 0x80D JUMP JUMPDEST PUSH1 0x6 PUSH1 0x20 MSTORE PUSH1 0x0 SWAP1 DUP2 MSTORE PUSH1 0x40 SWAP1 KECCAK256 DUP1 SLOAD PUSH1 0x1 DUP3 ADD SLOAD PUSH1 0x2 DUP4 ADD SLOAD PUSH1 0x3 SWAP1 SWAP4 ADD SLOAD PUSH1 0x1 PUSH1 0x1 PUSH1 0xA0 SHL SUB SWAP3 DUP4 AND SWAP4 SWAP2 SWAP1 SWAP3 AND SWAP2 DUP5 JUMP JUMPDEST PUSH1 0x40 DUP1 MLOAD PUSH1 0x1 PUSH1 0x1 PUSH1 0xA0 SHL SUB SWAP6 DUP7 AND DUP2 MSTORE SWAP5 SWAP1 SWAP4 AND PUSH1 0x20 DUP6 ADD MSTORE SWAP2 DUP4 ADD MSTORE PUSH1 0x60 DUP3 ADD MSTORE PUSH1 0x80 ADD PUSH3 0xF0 JUMP JUMPDEST PUSH3 0xDC PUSH3 0x1A8 CALLDATASIZE PUSH1 0x4 PUSH3 0x80D JUMP JUMPDEST PUSH3 0x356 JUMP JUMPDEST PUSH3 0x22E PUSH3 0x1BF CALLDATASIZE PUSH1 0x4 PUSH3 0x80D JUMP JUMPDEST PUSH1 0x40 DUP1 MLOAD PUSH1 0x80 DUP1 DUP3 ADD DUP4 MSTORE PUSH1 0x0 DUP1 DUP4 MSTORE PUSH1 0x20 DUP1 DUP5 ADD DUP3 SWAP1 MSTORE DUP4 DUP6 ADD DUP3 SWAP1 MSTORE PUSH1 0x60 SWAP4 DUP5 ADD DUP3 SWAP1 MSTORE SWAP5 DUP2 MSTORE PUSH1 0x6 DUP6 MSTORE DUP4 SWAP1 KECCAK256 DUP4 MLOAD SWAP2 DUP3 ADD DUP5 MSTORE DUP1 SLOAD PUSH1 0x1 PUSH1 0x1 PUSH1 0xA0 SHL SUB SWAP1 DUP2 AND DUP4 MSTORE PUSH1 0x1 DUP3 ADD SLOAD AND SWAP5 DUP3 ADD SWAP5 SWAP1 SWAP5 MSTORE PUSH1 0x2 DUP5 ADD SLOAD SWAP3 DUP2 ADD SWAP3 SWAP1 SWAP3 MSTORE PUSH1 0x3 SWAP1 SWAP3 ADD SLOAD SWAP2 DUP2 ADD SWAP2 SWAP1 SWAP2 MSTORE SWAP1 JUMP JUMPDEST PUSH1 0x40 MLOAD PUSH3 0xF0 SWAP2 SWAP1 DUP2 MLOAD PUSH1 0x1 PUSH1 0x1 PUSH1 0xA0 SHL SUB SWAP1 DUP2 AND DUP3 MSTORE PUSH1 0x20 DUP1 DUP5 ADD MLOAD SWAP1 SWAP2 AND SWAP1 DUP3 ADD MSTORE PUSH1 0x40 DUP1 DUP4 ADD MLOAD SWAP1 DUP3 ADD MSTORE PUSH1 0x60 SWAP2 DUP3 ADD MLOAD SWAP2 DUP2 ADD SWAP2 SWAP1 SWAP2 MSTORE PUSH1 0x80 ADD SWAP1 JUMP JUMPDEST PUSH1 0x5 SLOAD PUSH3 0xDC SWAP1 PUSH1 0x1 PUSH1 0x1 PUSH1 0xA0 SHL SUB AND DUP2 JUMP JUMPDEST PUSH3 0x28E PUSH1 0x8 SLOAD DUP2 JUMP JUMPDEST PUSH1 0x40 MLOAD SWAP1 DUP2 MSTORE PUSH1 0x20 ADD PUSH3 0xF0 JUMP JUMPDEST PUSH3 0x2B4 PUSH3 0x2AE CALLDATASIZE PUSH1 0x4 PUSH3 0x8D2 JUMP JUMPDEST PUSH3 0x381 JUMP JUMPDEST STOP JUMPDEST PUSH1 0x4 SLOAD PUSH3 0xDC SWAP1 PUSH1 0x1 PUSH1 0x1 PUSH1 0xA0 SHL SUB AND DUP2 JUMP JUMPDEST PUSH1 0x0 SLOAD PUSH3 0xDC SWAP1 PUSH1 0x1 PUSH1 0x1 PUSH1 0xA0 SHL SUB AND DUP2 JUMP JUMPDEST PUSH1 0x2 SLOAD PUSH3 0xDC SWAP1 PUSH1 0x1 PUSH1 0x1 PUSH1 0xA0 SHL SUB AND DUP2 JUMP JUMPDEST PUSH1 0x60 PUSH1 0x7 DUP1 SLOAD DUP1 PUSH1 0x20 MUL PUSH1 0x20 ADD PUSH1 0x40 MLOAD SWAP1 DUP2 ADD PUSH1 0x40 MSTORE DUP1 SWAP3 SWAP2 SWAP1 DUP2 DUP2 MSTORE PUSH1 0x20 ADD DUP3 DUP1 SLOAD DUP1 ISZERO PUSH3 0x34C JUMPI PUSH1 0x20 MUL DUP3 ADD SWAP2 SWAP1 PUSH1 0x0 MSTORE PUSH1 0x20 PUSH1 0x0 KECCAK256 SWAP1 JUMPDEST DUP2 SLOAD PUSH1 0x1 PUSH1 0x1 PUSH1 0xA0 SHL SUB AND DUP2 MSTORE PUSH1 0x1 SWAP1 SWAP2 ADD SWAP1 PUSH1 0x20 ADD DUP1 DUP4 GT PUSH3 0x32D JUMPI JUMPDEST POP POP POP POP POP SWAP1 POP SWAP1 JUMP JUMPDEST PUSH1 0x7 DUP2 DUP2 SLOAD DUP2 LT PUSH3 0x367 JUMPI PUSH1 0x0 DUP1 REVERT JUMPDEST PUSH1 0x0 SWAP2 DUP3 MSTORE PUSH1 0x20 SWAP1 SWAP2 KECCAK256 ADD SLOAD PUSH1 0x1 PUSH1 0x1 PUSH1 0xA0 SHL SUB AND SWAP1 POP DUP2 JUMP JUMPDEST PUSH1 0x5 SLOAD PUSH1 0x1 PUSH1 0x1 PUSH1 0xA0 SHL SUB AND CALLER EQ PUSH3 0x3CE JUMPI PUSH1 0x40 MLOAD PUSH3 0x461BCD PUSH1 0xE5 SHL DUP2 MSTORE PUSH1 0x20 PUSH1 0x4 DUP3 ADD MSTORE PUSH1 0xA PUSH1 0x24 DUP3 ADD MSTORE PUSH10 0x27B7363C9037BBB732B9 PUSH1 0xB1 SHL PUSH1 0x44 DUP3 ADD MSTORE PUSH1 0x64 ADD JUMPDEST PUSH1 0x40 MLOAD DUP1 SWAP2 SUB SWAP1 REVERT JUMPDEST PUSH1 0x0 DUP6 DUP2 MSTORE PUSH1 0x6 PUSH1 0x20 MSTORE PUSH1 0x40 SWAP1 KECCAK256 SLOAD PUSH1 0x1 PUSH1 0x1 PUSH1 0xA0 SHL SUB AND ISZERO PUSH3 0x435 JUMPI PUSH1 0x40 MLOAD PUSH3 0x461BCD PUSH1 0xE5 SHL DUP2 MSTORE PUSH1 0x20 PUSH1 0x4 DUP3 ADD MSTORE PUSH1 0x17 PUSH1 0x24 DUP3 ADD MSTORE PUSH32 0x417373657420616C726561647920746F6B656E697A6564000000000000000000 PUSH1 0x44 DUP3 ADD MSTORE PUSH1 0x64 ADD PUSH3 0x3C5 JUMP JUMPDEST PUSH1 0x0 SLOAD PUSH1 0x40 MLOAD PUSH4 0x339F16A9 PUSH1 0xE0 SHL DUP2 MSTORE PUSH1 0x4 DUP2 ADD DUP8 SWAP1 MSTORE PUSH1 0x1 PUSH1 0x1 PUSH1 0xA0 SHL SUB SWAP1 SWAP2 AND SWAP1 PUSH4 0x339F16A9 SWAP1 PUSH1 0x24 ADD PUSH1 0x20 PUSH1 0x40 MLOAD DUP1 DUP4 SUB DUP2 DUP7 GAS STATICCALL ISZERO DUP1 ISZERO PUSH3 0x47F JUMPI RETURNDATASIZE PUSH1 0x0 DUP1 RETURNDATACOPY RETURNDATASIZE PUSH1 0x0 REVERT JUMPDEST POP POP POP POP PUSH1 0x40 MLOAD RETURNDATASIZE PUSH1 0x1F NOT PUSH1 0x1F DUP3 ADD AND DUP3 ADD DUP1 PUSH1 0x40 MSTORE POP DUP2 ADD SWAP1 PUSH3 0x4A5 SWAP2 SWAP1 PUSH3 0x972 JUMP JUMPDEST PUSH3 0x4E5 JUMPI PUSH1 0x40 MLOAD PUSH3 0x461BCD PUSH1 0xE5 SHL DUP2 MSTORE PUSH1 0x20 PUSH1 0x4 DUP3 ADD MSTORE PUSH1 0xF PUSH1 0x24 DUP3 ADD MSTORE PUSH15 0x105CDCD95D081B9BDD081D985B1A59 PUSH1 0x8A SHL PUSH1 0x44 DUP3 ADD MSTORE PUSH1 0x64 ADD PUSH3 0x3C5 JUMP JUMPDEST PUSH1 0x1 SLOAD PUSH1 0x0 DUP1 SLOAD PUSH1 0x40 MLOAD SWAP2 SWAP3 PUSH1 0x1 PUSH1 0x1 PUSH1 0xA0 SHL SUB SWAP1 DUP2 AND SWAP3 SWAP2 AND SWAP1 DUP9 SWAP1 PUSH3 0x50D SWAP1 PUSH3 0x7A2 JUMP JUMPDEST PUSH1 0x1 PUSH1 0x1 PUSH1 0xA0 SHL SUB SWAP4 DUP5 AND DUP2 MSTORE SWAP3 SWAP1 SWAP2 AND PUSH1 0x20 DUP4 ADD MSTORE PUSH1 0x40 DUP3 ADD MSTORE PUSH1 0x60 ADD PUSH1 0x40 MLOAD DUP1 SWAP2 SUB SWAP1 PUSH1 0x0 CREATE DUP1 ISZERO DUP1 ISZERO PUSH3 0x548 JUMPI RETURNDATASIZE PUSH1 0x0 DUP1 RETURNDATACOPY RETURNDATASIZE PUSH1 0x0 REVERT JUMPDEST POP SWAP1 POP PUSH1 0x0 DUP7 DUP3 PUSH1 0x1 PUSH1 0x0 SWAP1 SLOAD SWAP1 PUSH2 0x100 EXP SWAP1 DIV PUSH1 0x1 PUSH1 0x1 PUSH1 0xA0 SHL SUB AND DUP9 PUSH1 0x3 PUSH1 0x0 SWAP1 SLOAD SWAP1 PUSH2 0x100 EXP SWAP1 DIV PUSH1 0x1 PUSH1 0x1 PUSH1 0xA0 SHL SUB AND DUP10 DUP10 DUP10 PUSH1 0x40 MLOAD PUSH3 0x58D SWAP1 PUSH3 0x7B0 JUMP JUMPDEST PUSH3 0x5A0 SWAP9 SWAP8 SWAP7 SWAP6 SWAP5 SWAP4 SWAP3 SWAP2 SWAP1 PUSH3 0x9E5 JUMP JUMPDEST PUSH1 0x40 MLOAD DUP1 SWAP2 SUB SWAP1 PUSH1 0x0 CREATE DUP1 ISZERO DUP1 ISZERO PUSH3 0x5BD JUMPI RETURNDATASIZE PUSH1 0x0 DUP1 RETURNDATACOPY RETURNDATASIZE PUSH1 0x0 REVERT JUMPDEST POP PUSH1 0x4 DUP1 SLOAD PUSH1 0x40 MLOAD PUSH4 0xBFAE2A7 PUSH1 0xE3 SHL DUP2 MSTORE PUSH1 0x1 PUSH1 0x1 PUSH1 0xA0 SHL SUB DUP1 DUP6 AND SWAP4 DUP3 ADD SWAP4 SWAP1 SWAP4 MSTORE PUSH1 0x24 DUP2 ADD DUP12 SWAP1 MSTORE DUP7 DUP4 AND PUSH1 0x44 DUP3 ADD MSTORE SWAP3 SWAP4 POP AND SWAP1 PUSH4 0x5FD71538 SWAP1 PUSH1 0x64 ADD PUSH1 0x0 PUSH1 0x40 MLOAD DUP1 DUP4 SUB DUP2 PUSH1 0x0 DUP8 DUP1 EXTCODESIZE ISZERO DUP1 ISZERO PUSH3 0x619 JUMPI PUSH1 0x0 DUP1 REVERT JUMPDEST POP GAS CALL ISZERO DUP1 ISZERO PUSH3 0x62E JUMPI RETURNDATASIZE PUSH1 0x0 DUP1 RETURNDATACOPY RETURNDATASIZE PUSH1 0x0 REVERT JUMPDEST POP POP POP POP PUSH1 0x40 MLOAD DUP1 PUSH1 0x80 ADD PUSH1 0x40 MSTORE DUP1 DUP3 PUSH1 0x1 PUSH1 0x1 PUSH1 0xA0 SHL SUB AND DUP2 MSTORE PUSH1 0x20 ADD DUP4 PUSH1 0x1 PUSH1 0x1 PUSH1 0xA0 SHL SUB AND DUP2 MSTORE PUSH1 0x20 ADD TIMESTAMP DUP2 MSTORE PUSH1 0x20 ADD DUP8 DUP2 MSTORE POP PUSH1 0x6 PUSH1 0x0 DUP10 DUP2 MSTORE PUSH1 0x20 ADD SWAP1 DUP2 MSTORE PUSH1 0x20 ADD PUSH1 0x0 KECCAK256 PUSH1 0x0 DUP3 ADD MLOAD DUP2 PUSH1 0x0 ADD PUSH1 0x0 PUSH2 0x100 EXP DUP2 SLOAD DUP2 PUSH1 0x1 PUSH1 0x1 PUSH1 0xA0 SHL SUB MUL NOT AND SWAP1 DUP4 PUSH1 0x1 PUSH1 0x1 PUSH1 0xA0 SHL SUB AND MUL OR SWAP1 SSTORE POP PUSH1 0x20 DUP3 ADD MLOAD DUP2 PUSH1 0x1 ADD PUSH1 0x0 PUSH2 0x100 EXP DUP2 SLOAD DUP2 PUSH1 0x1 PUSH1 0x1 PUSH1 0xA0 SHL SUB MUL NOT AND SWAP1 DUP4 PUSH1 0x1 PUSH1 0x1 PUSH1 0xA0 SHL SUB AND MUL OR SWAP1 SSTORE POP PUSH1 0x40 DUP3 ADD MLOAD DUP2 PUSH1 0x2 ADD SSTORE PUSH1 0x60 DUP3 ADD MLOAD DUP2 PUSH1 0x3 ADD SSTORE SWAP1 POP POP PUSH1 0x7 DUP2 SWAP1 DUP1 PUSH1 0x1 DUP2 SLOAD ADD DUP1 DUP3 SSTORE DUP1 SWAP2 POP POP PUSH1 0x1 SWAP1 SUB SWAP1 PUSH1 0x0 MSTORE PUSH1 0x20 PUSH1 0x0 KECCAK256 ADD PUSH1 0x0 SWAP1 SWAP2 SWAP1 SWAP2 SWAP1 SWAP2 PUSH2 0x100 EXP DUP2 SLOAD DUP2 PUSH1 0x1 PUSH1 0x1 PUSH1 0xA0 SHL SUB MUL NOT AND SWAP1 DUP4 PUSH1 0x1 PUSH1 0x1 PUSH1 0xA0 SHL SUB AND MUL OR SWAP1 SSTORE POP PUSH1 0x8 PUSH1 0x0 DUP2 SLOAD DUP1 SWAP3 SWAP2 SWAP1 PUSH3 0x747 SWAP1 PUSH3 0xA59 JUMP JUMPDEST SWAP1 SWAP2 SSTORE POP POP PUSH1 0x40 DUP1 MLOAD PUSH1 0x1 PUSH1 0x1 PUSH1 0xA0 SHL SUB DUP1 DUP5 AND DUP3 MSTORE DUP5 AND PUSH1 0x20 DUP3 ADD MSTORE SWAP1 DUP2 ADD DUP8 SWAP1 MSTORE DUP8 SWAP1 PUSH32 0xC18D6775055C0C790E1AB3EF353CBAA7EF775F7FC0BB1A89FCEDFB23EFE76255 SWAP1 PUSH1 0x60 ADD PUSH1 0x40 MLOAD DUP1 SWAP2 SUB SWAP1 LOG2 POP POP POP POP POP POP POP JUMP JUMPDEST PUSH2 0x556 DUP1 PUSH3 0xA82 DUP4 CODECOPY ADD SWAP1 JUMP JUMPDEST PUSH2 0x120A DUP1 PUSH3 0xFD8 DUP4 CODECOPY ADD SWAP1 JUMP JUMPDEST PUSH1 0x20 DUP1 DUP3 MSTORE DUP3 MLOAD DUP3 DUP3 ADD DUP2 SWAP1 MSTORE PUSH1 0x0 SWAP2 SWAP1 DUP5 DUP3 ADD SWAP1 PUSH1 0x40 DUP6 ADD SWAP1 DUP5 JUMPDEST DUP2 DUP2 LT ISZERO PUSH3 0x801 JUMPI DUP4 MLOAD PUSH1 0x1 PUSH1 0x1 PUSH1 0xA0 SHL SUB AND DUP4 MSTORE SWAP3 DUP5 ADD SWAP3 SWAP2 DUP5 ADD SWAP2 PUSH1 0x1 ADD PUSH3 0x7DA JUMP JUMPDEST POP SWAP1 SWAP7 SWAP6 POP POP POP POP POP POP JUMP JUMPDEST PUSH1 0x0 PUSH1 0x20 DUP3 DUP5 SUB SLT ISZERO PUSH3 0x820 JUMPI PUSH1 0x0 DUP1 REVERT JUMPDEST POP CALLDATALOAD SWAP2 SWAP1 POP JUMP JUMPDEST PUSH4 0x4E487B71 PUSH1 0xE0 SHL PUSH1 0x0 MSTORE PUSH1 0x41 PUSH1 0x4 MSTORE PUSH1 0x24 PUSH1 0x0 REVERT JUMPDEST PUSH1 0x0 DUP3 PUSH1 0x1F DUP4 ADD SLT PUSH3 0x84F JUMPI PUSH1 0x0 DUP1 REVERT JUMPDEST DUP2 CALLDATALOAD PUSH8 0xFFFFFFFFFFFFFFFF DUP1 DUP3 GT ISZERO PUSH3 0x86D JUMPI PUSH3 0x86D PUSH3 0x827 JUMP JUMPDEST PUSH1 0x40 MLOAD PUSH1 0x1F DUP4 ADD PUSH1 0x1F NOT SWAP1 DUP2 AND PUSH1 0x3F ADD AND DUP2 ADD SWAP1 DUP3 DUP3 GT DUP2 DUP4 LT OR ISZERO PUSH3 0x898 JUMPI PUSH3 0x898 PUSH3 0x827 JUMP JUMPDEST DUP2 PUSH1 0x40 MSTORE DUP4 DUP2 MSTORE DUP7 PUSH1 0x20 DUP6 DUP9 ADD ADD GT ISZERO PUSH3 0x8B2 JUMPI PUSH1 0x0 DUP1 REVERT JUMPDEST DUP4 PUSH1 0x20 DUP8 ADD PUSH1 0x20 DUP4 ADD CALLDATACOPY PUSH1 0x0 PUSH1 0x20 DUP6 DUP4 ADD ADD MSTORE DUP1 SWAP5 POP POP POP POP POP SWAP3 SWAP2 POP POP JUMP JUMPDEST PUSH1 0x0 DUP1 PUSH1 0x0 DUP1 PUSH1 0x0 PUSH1 0xA0 DUP7 DUP9 SUB SLT ISZERO PUSH3 0x8EB JUMPI PUSH1 0x0 DUP1 REVERT JUMPDEST DUP6 CALLDATALOAD SWAP5 POP PUSH1 0x20 DUP7 ADD CALLDATALOAD SWAP4 POP PUSH1 0x40 DUP7 ADD CALLDATALOAD PUSH8 0xFFFFFFFFFFFFFFFF DUP1 DUP3 GT ISZERO PUSH3 0x912 JUMPI PUSH1 0x0 DUP1 REVERT JUMPDEST PUSH3 0x920 DUP10 DUP4 DUP11 ADD PUSH3 0x83D JUMP JUMPDEST SWAP5 POP PUSH1 0x60 DUP9 ADD CALLDATALOAD SWAP2 POP DUP1 DUP3 GT ISZERO PUSH3 0x937 JUMPI PUSH1 0x0 DUP1 REVERT JUMPDEST POP PUSH3 0x946 DUP9 DUP3 DUP10 ADD PUSH3 0x83D JUMP JUMPDEST SWAP3 POP POP PUSH1 0x80 DUP7 ADD CALLDATALOAD PUSH1 0x1 PUSH1 0x1 PUSH1 0xA0 SHL SUB DUP2 AND DUP2 EQ PUSH3 0x964 JUMPI PUSH1 0x0 DUP1 REVERT JUMPDEST DUP1 SWAP2 POP POP SWAP3 SWAP6 POP SWAP3 SWAP6 SWAP1 SWAP4 POP JUMP JUMPDEST PUSH1 0x0 PUSH1 0x20 DUP3 DUP5 SUB SLT ISZERO PUSH3 0x985 JUMPI PUSH1 0x0 DUP1 REVERT JUMPDEST DUP2 MLOAD DUP1 ISZERO ISZERO DUP2 EQ PUSH3 0x996 JUMPI PUSH1 0x0 DUP1 REVERT JUMPDEST SWAP4 SWAP3 POP POP POP JUMP JUMPDEST PUSH1 0x0 DUP2 MLOAD DUP1 DUP5 MSTORE PUSH1 0x0 JUMPDEST DUP2 DUP2 LT ISZERO PUSH3 0x9C5 JUMPI PUSH1 0x20 DUP2 DUP6 ADD DUP2 ADD MLOAD DUP7 DUP4 ADD DUP3 ADD MSTORE ADD PUSH3 0x9A7 JUMP JUMPDEST POP PUSH1 0x0 PUSH1 0x20 DUP3 DUP7 ADD ADD MSTORE PUSH1 0x20 PUSH1 0x1F NOT PUSH1 0x1F DUP4 ADD AND DUP6 ADD ADD SWAP2 POP POP SWAP3 SWAP2 POP POP JUMP JUMPDEST DUP9 DUP2 MSTORE PUSH1 0x1 PUSH1 0x1 PUSH1 0xA0 SHL SUB DUP9 DUP2 AND PUSH1 0x20 DUP4 ADD MSTORE DUP8 DUP2 AND PUSH1 0x40 DUP4 ADD MSTORE PUSH1 0x60 DUP3 ADD DUP8 SWAP1 MSTORE DUP6 DUP2 AND PUSH1 0x80 DUP4 ADD MSTORE PUSH2 0x100 PUSH1 0xA0 DUP4 ADD DUP2 SWAP1 MSTORE PUSH1 0x0 SWAP2 PUSH3 0xA2A DUP5 DUP4 ADD DUP9 PUSH3 0x99D JUMP JUMPDEST SWAP2 POP DUP4 DUP3 SUB PUSH1 0xC0 DUP6 ADD MSTORE PUSH3 0xA40 DUP3 DUP8 PUSH3 0x99D JUMP JUMPDEST SWAP3 POP DUP1 DUP6 AND PUSH1 0xE0 DUP6 ADD MSTORE POP POP SWAP10 SWAP9 POP POP POP POP POP POP POP POP POP JUMP JUMPDEST PUSH1 0x0 PUSH1 0x1 DUP3 ADD PUSH3 0xA7A JUMPI PUSH4 0x4E487B71 PUSH1 0xE0 SHL PUSH1 0x0 MSTORE PUSH1 0x11 PUSH1 0x4 MSTORE PUSH1 0x24 PUSH1 0x0 REVERT JUMPDEST POP PUSH1 0x1 ADD SWAP1 JUMP INVALID PUSH1 0x80 PUSH1 0x40 MSTORE CALLVALUE DUP1 ISZERO PUSH2 0x10 JUMPI PUSH1 0x0 DUP1 REVERT JUMPDEST POP PUSH1 0x40 MLOAD PUSH2 0x556 CODESIZE SUB DUP1 PUSH2 0x556 DUP4 CODECOPY DUP2 ADD PUSH1 0x40 DUP2 SWAP1 MSTORE PUSH2 0x2F SWAP2 PUSH2 0x8E JUMP JUMPDEST PUSH1 0x3 DUP1 SLOAD PUSH1 0x1 PUSH1 0x1 PUSH1 0xA0 SHL SUB NOT SWAP1 DUP2 AND CALLER OR SWAP1 SWAP2 SSTORE PUSH1 0x0 DUP1 SLOAD PUSH1 0x1 PUSH1 0x1 PUSH1 0xA0 SHL SUB SWAP6 DUP7 AND SWAP1 DUP4 AND OR SWAP1 SSTORE PUSH1 0x1 DUP1 SLOAD SWAP4 SWAP1 SWAP5 AND SWAP3 AND SWAP2 SWAP1 SWAP2 OR SWAP1 SWAP2 SSTORE PUSH1 0x2 SSTORE PUSH2 0xCA JUMP JUMPDEST DUP1 MLOAD PUSH1 0x1 PUSH1 0x1 PUSH1 0xA0 SHL SUB DUP2 AND DUP2 EQ PUSH2 0x89 JUMPI PUSH1 0x0 DUP1 REVERT JUMPDEST SWAP2 SWAP1 POP JUMP JUMPDEST PUSH1 0x0 DUP1 PUSH1 0x0 PUSH1 0x60 DUP5 DUP7 SUB SLT ISZERO PUSH2 0xA3 JUMPI PUSH1 0x0 DUP1 REVERT JUMPDEST PUSH2 0xAC DUP5 PUSH2 0x72 JUMP JUMPDEST SWAP3 POP PUSH2 0xBA PUSH1 0x20 DUP6 ADD PUSH2 0x72 JUMP JUMPDEST SWAP2 POP PUSH1 0x40 DUP5 ADD MLOAD SWAP1 POP SWAP3 POP SWAP3 POP SWAP3 JUMP JUMPDEST PUSH2 0x47D DUP1 PUSH2 0xD9 PUSH1 0x0 CODECOPY PUSH1 0x0 RETURN INVALID PUSH1 0x80 PUSH1 0x40 MSTORE CALLVALUE DUP1 ISZERO PUSH2 0x10 JUMPI PUSH1 0x0 DUP1 REVERT JUMPDEST POP PUSH1 0x4 CALLDATASIZE LT PUSH2 0x7D JUMPI PUSH1 0x0 CALLDATALOAD PUSH1 0xE0 SHR DUP1 PUSH4 0x8DA5CB5B GT PUSH2 0x5B JUMPI DUP1 PUSH4 0x8DA5CB5B EQ PUSH2 0xDE JUMPI DUP1 PUSH4 0xCBF3F861 EQ PUSH2 0xF1 JUMPI DUP1 PUSH4 0xE46638E6 EQ PUSH2 0x104 JUMPI DUP1 PUSH4 0xED6D73F9 EQ PUSH2 0x127 JUMPI PUSH1 0x0 DUP1 REVERT JUMPDEST DUP1 PUSH4 0x6D85600 EQ PUSH2 0x82 JUMPI DUP1 PUSH4 0x134E18F4 EQ PUSH2 0x97 JUMPI DUP1 PUSH4 0x44DE240A EQ PUSH2 0xC7 JUMPI JUMPDEST PUSH1 0x0 DUP1 REVERT JUMPDEST PUSH2 0x95 PUSH2 0x90 CALLDATASIZE PUSH1 0x4 PUSH2 0x3CE JUMP JUMPDEST PUSH2 0x13A JUMP JUMPDEST STOP JUMPDEST PUSH1 0x0 SLOAD PUSH2 0xAA SWAP1 PUSH1 0x1 PUSH1 0x1 PUSH1 0xA0 SHL SUB AND DUP2 JUMP JUMPDEST PUSH1 0x40 MLOAD PUSH1 0x1 PUSH1 0x1 PUSH1 0xA0 SHL SUB SWAP1 SWAP2 AND DUP2 MSTORE PUSH1 0x20 ADD JUMPDEST PUSH1 0x40 MLOAD DUP1 SWAP2 SUB SWAP1 RETURN JUMPDEST PUSH2 0xD0 PUSH1 0x2 SLOAD DUP2 JUMP JUMPDEST PUSH1 0x40 MLOAD SWAP1 DUP2 MSTORE PUSH1 0x20 ADD PUSH2 0xBE JUMP JUMPDEST PUSH1 0x3 SLOAD PUSH2 0xAA SWAP1 PUSH1 0x1 PUSH1 0x1 PUSH1 0xA0 SHL SUB AND DUP2 JUMP JUMPDEST PUSH2 0x95 PUSH2 0xFF CALLDATASIZE PUSH1 0x4 PUSH2 0x3CE JUMP JUMPDEST PUSH2 0x1A8 JUMP JUMPDEST PUSH2 0x117 PUSH2 0x112 CALLDATASIZE PUSH1 0x4 PUSH2 0x3E9 JUMP JUMPDEST PUSH2 0x211 JUMP JUMPDEST PUSH1 0x40 MLOAD SWAP1 ISZERO ISZERO DUP2 MSTORE PUSH1 0x20 ADD PUSH2 0xBE JUMP JUMPDEST PUSH1 0x1 SLOAD PUSH2 0xAA SWAP1 PUSH1 0x1 PUSH1 0x1 PUSH1 0xA0 SHL SUB AND DUP2 JUMP JUMPDEST PUSH1 0x3 SLOAD PUSH1 0x1 PUSH1 0x1 PUSH1 0xA0 SHL SUB AND CALLER EQ PUSH2 0x186 JUMPI PUSH1 0x40 MLOAD PUSH3 0x461BCD PUSH1 0xE5 SHL DUP2 MSTORE PUSH1 0x20 PUSH1 0x4 DUP3 ADD MSTORE PUSH1 0xA PUSH1 0x24 DUP3 ADD MSTORE PUSH10 0x27B7363C9037BBB732B9 PUSH1 0xB1 SHL PUSH1 0x44 DUP3 ADD MSTORE PUSH1 0x64 ADD JUMPDEST PUSH1 0x40 MLOAD DUP1 SWAP2 SUB SWAP1 REVERT JUMPDEST PUSH1 0x1 DUP1 SLOAD PUSH1 0x1 PUSH1 0x1 PUSH1 0xA0 SHL SUB NOT AND PUSH1 0x1 PUSH1 0x1 PUSH1 0xA0 SHL SUB SWAP3 SWAP1 SWAP3 AND SWAP2 SWAP1 SWAP2 OR SWAP1 SSTORE JUMP JUMPDEST PUSH1 0x3 SLOAD PUSH1 0x1 PUSH1 0x1 PUSH1 0xA0 SHL SUB AND CALLER EQ PUSH2 0x1EF JUMPI PUSH1 0x40 MLOAD PUSH3 0x461BCD PUSH1 0xE5 SHL DUP2 MSTORE PUSH1 0x20 PUSH1 0x4 DUP3 ADD MSTORE PUSH1 0xA PUSH1 0x24 DUP3 ADD MSTORE PUSH10 0x27B7363C9037BBB732B9 PUSH1 0xB1 SHL PUSH1 0x44 DUP3 ADD MSTORE PUSH1 0x64 ADD PUSH2 0x17D JUMP JUMPDEST PUSH1 0x0 DUP1 SLOAD PUSH1 0x1 PUSH1 0x1 PUSH1 0xA0 SHL SUB NOT AND PUSH1 0x1 PUSH1 0x1 PUSH1 0xA0 SHL SUB SWAP3 SWAP1 SWAP3 AND SWAP2 SWAP1 SWAP2 OR SWAP1 SSTORE JUMP JUMPDEST PUSH1 0x0 PUSH1 0x1 PUSH1 0x1 PUSH1 0xA0 SHL SUB DUP5 AND ISZERO PUSH2 0x29C JUMPI PUSH1 0x0 SLOAD PUSH1 0x40 MLOAD PUSH4 0xB9209E33 PUSH1 0xE0 SHL DUP2 MSTORE PUSH1 0x1 PUSH1 0x1 PUSH1 0xA0 SHL SUB DUP7 DUP2 AND PUSH1 0x4 DUP4 ADD MSTORE SWAP1 SWAP2 AND SWAP1 PUSH4 0xB9209E33 SWAP1 PUSH1 0x24 ADD PUSH1 0x20 PUSH1 0x40 MLOAD DUP1 DUP4 SUB DUP2 DUP7 GAS STATICCALL ISZERO DUP1 ISZERO PUSH2 0x26C JUMPI RETURNDATASIZE PUSH1 0x0 DUP1 RETURNDATACOPY RETURNDATASIZE PUSH1 0x0 REVERT JUMPDEST POP POP POP POP PUSH1 0x40 MLOAD RETURNDATASIZE PUSH1 0x1F NOT PUSH1 0x1F DUP3 ADD AND DUP3 ADD DUP1 PUSH1 0x40 MSTORE POP DUP2 ADD SWAP1 PUSH2 0x290 SWAP2 SWAP1 PUSH2 0x425 JUMP JUMPDEST PUSH2 0x29C JUMPI POP PUSH1 0x0 PUSH2 0x3AB JUMP JUMPDEST PUSH1 0x1 PUSH1 0x1 PUSH1 0xA0 SHL SUB DUP4 AND ISZERO PUSH2 0x325 JUMPI PUSH1 0x0 SLOAD PUSH1 0x40 MLOAD PUSH4 0xB9209E33 PUSH1 0xE0 SHL DUP2 MSTORE PUSH1 0x1 PUSH1 0x1 PUSH1 0xA0 SHL SUB DUP6 DUP2 AND PUSH1 0x4 DUP4 ADD MSTORE SWAP1 SWAP2 AND SWAP1 PUSH4 0xB9209E33 SWAP1 PUSH1 0x24 ADD PUSH1 0x20 PUSH1 0x40 MLOAD DUP1 DUP4 SUB DUP2 DUP7 GAS STATICCALL ISZERO DUP1 ISZERO PUSH2 0x2F5 JUMPI RETURNDATASIZE PUSH1 0x0 DUP1 RETURNDATACOPY RETURNDATASIZE PUSH1 0x0 REVERT JUMPDEST POP POP POP POP PUSH1 0x40 MLOAD RETURNDATASIZE PUSH1 0x1F NOT PUSH1 0x1F DUP3 ADD AND DUP3 ADD DUP1 PUSH1 0x40 MSTORE POP DUP2 ADD SWAP1 PUSH2 0x319 SWAP2 SWAP1 PUSH2 0x425 JUMP JUMPDEST PUSH2 0x325 JUMPI POP PUSH1 0x0 PUSH2 0x3AB JUMP JUMPDEST PUSH1 0x1 SLOAD PUSH1 0x2 SLOAD PUSH1 0x40 MLOAD PUSH4 0x339F16A9 PUSH1 0xE0 SHL DUP2 MSTORE PUSH1 0x1 PUSH1 0x1 PUSH1 0xA0 SHL SUB SWAP1 SWAP3 AND SWAP2 PUSH4 0x339F16A9 SWAP2 PUSH2 0x35A SWAP2 PUSH1 0x4 ADD SWAP1 DUP2 MSTORE PUSH1 0x20 ADD SWAP1 JUMP JUMPDEST PUSH1 0x20 PUSH1 0x40 MLOAD DUP1 DUP4 SUB DUP2 DUP7 GAS STATICCALL ISZERO DUP1 ISZERO PUSH2 0x377 JUMPI RETURNDATASIZE PUSH1 0x0 DUP1 RETURNDATACOPY RETURNDATASIZE PUSH1 0x0 REVERT JUMPDEST POP POP POP POP PUSH1 0x40 MLOAD RETURNDATASIZE PUSH1 0x1F NOT PUSH1 0x1F DUP3 ADD AND DUP3 ADD DUP1 PUSH1 0x40 MSTORE POP DUP2 ADD SWAP1 PUSH2 0x39B SWAP2 SWAP1 PUSH2 0x425 JUMP JUMPDEST PUSH2 0x3A7 JUMPI POP PUSH1 0x0 PUSH2 0x3AB JUMP JUMPDEST POP PUSH1 0x1 JUMPDEST SWAP4 SWAP3 POP POP POP JUMP JUMPDEST DUP1 CALLDATALOAD PUSH1 0x1 PUSH1 0x1 PUSH1 0xA0 SHL SUB DUP2 AND DUP2 EQ PUSH2 0x3C9 JUMPI PUSH1 0x0 DUP1 REVERT JUMPDEST SWAP2 SWAP1 POP JUMP JUMPDEST PUSH1 0x0 PUSH1 0x20 DUP3 DUP5 SUB SLT ISZERO PUSH2 0x3E0 JUMPI PUSH1 0x0 DUP1 REVERT JUMPDEST PUSH2 0x3AB DUP3 PUSH2 0x3B2 JUMP JUMPDEST PUSH1 0x0 DUP1 PUSH1 0x0 PUSH1 0x60 DUP5 DUP7 SUB SLT ISZERO PUSH2 0x3FE JUMPI PUSH1 0x0 DUP1 REVERT JUMPDEST PUSH2 0x407 DUP5 PUSH2 0x3B2 JUMP JUMPDEST SWAP3 POP PUSH2 0x415 PUSH1 0x20 DUP6 ADD PUSH2 0x3B2 JUMP JUMPDEST SWAP2 POP PUSH1 0x40 DUP5 ADD CALLDATALOAD SWAP1 POP SWAP3 POP SWAP3 POP SWAP3 JUMP JUMPDEST PUSH1 0x0 PUSH1 0x20 DUP3 DUP5 SUB SLT ISZERO PUSH2 0x437 JUMPI PUSH1 0x0 DUP1 REVERT JUMPDEST DUP2 MLOAD DUP1 ISZERO ISZERO DUP2 EQ PUSH2 0x3AB JUMPI PUSH1 0x0 DUP1 REVERT INVALID LOG2 PUSH5 0x6970667358 0x22 SLT KECCAK256 0xE 0xDF 0xEE DUP1 0xC4 PUSH21 0x8FCF33804C00C4B24F63CD8F9FBA80793B266FF2DD PUSH20 0x7ED6B14064736F6C634300081400336080604052 CALLVALUE DUP1 ISZERO PUSH3 0x11 JUMPI PUSH1 0x0 DUP1 REVERT JUMPDEST POP PUSH1 0x40 MLOAD PUSH3 0x120A CODESIZE SUB DUP1 PUSH3 0x120A DUP4 CODECOPY DUP2 ADD PUSH1 0x40 DUP2 SWAP1 MSTORE PUSH3 0x34 SWAP2 PUSH3 0x430 JUMP JUMPDEST DUP3 DUP3 PUSH1 0x3 PUSH3 0x44 DUP4 DUP3 PUSH3 0x587 JUMP JUMPDEST POP PUSH1 0x4 PUSH3 0x53 DUP3 DUP3 PUSH3 0x587 JUMP JUMPDEST POP POP PUSH1 0x9 DUP1 SLOAD CALLER PUSH1 0x1 PUSH1 0x1 PUSH1 0xA0 SHL SUB NOT SWAP2 DUP3 AND OR SWAP1 SWAP2 SSTORE PUSH1 0x5 DUP11 SWAP1 SSTORE PUSH1 0x6 DUP1 SLOAD DUP3 AND PUSH1 0x1 PUSH1 0x1 PUSH1 0xA0 SHL SUB DUP12 DUP2 AND SWAP2 SWAP1 SWAP2 OR SWAP1 SWAP2 SSTORE PUSH1 0x7 DUP1 SLOAD DUP4 AND DUP11 DUP4 AND OR SWAP1 SSTORE PUSH1 0x8 DUP1 SLOAD SWAP1 SWAP3 AND SWAP1 DUP5 AND OR SWAP1 SSTORE POP PUSH3 0xAD DUP5 DUP7 PUSH3 0xBB JUMP JUMPDEST POP POP POP POP POP POP POP POP PUSH3 0x6A6 JUMP JUMPDEST PUSH1 0x1 PUSH1 0x1 PUSH1 0xA0 SHL SUB DUP3 AND PUSH3 0xEB JUMPI PUSH1 0x40 MLOAD PUSH4 0xEC442F05 PUSH1 0xE0 SHL DUP2 MSTORE PUSH1 0x0 PUSH1 0x4 DUP3 ADD MSTORE PUSH1 0x24 ADD JUMPDEST PUSH1 0x40 MLOAD DUP1 SWAP2 SUB SWAP1 REVERT JUMPDEST PUSH3 0xF9 PUSH1 0x0 DUP4 DUP4 PUSH3 0xFD JUMP JUMPDEST POP POP JUMP JUMPDEST PUSH1 0x9 SLOAD PUSH1 0x1 PUSH1 0xA0 SHL SWAP1 DIV PUSH1 0xFF AND ISZERO DUP1 ISZERO PUSH3 0x120 JUMPI POP PUSH1 0x1 PUSH1 0x1 PUSH1 0xA0 SHL SUB DUP4 AND ISZERO ISZERO JUMPDEST DUP1 ISZERO PUSH3 0x135 JUMPI POP PUSH1 0x1 PUSH1 0x1 PUSH1 0xA0 SHL SUB DUP3 AND ISZERO ISZERO JUMPDEST ISZERO PUSH3 0x209 JUMPI PUSH1 0x6 SLOAD PUSH1 0x40 MLOAD PUSH4 0x72331C73 PUSH1 0xE1 SHL DUP2 MSTORE PUSH1 0x1 PUSH1 0x1 PUSH1 0xA0 SHL SUB DUP6 DUP2 AND PUSH1 0x4 DUP4 ADD MSTORE DUP5 DUP2 AND PUSH1 0x24 DUP4 ADD MSTORE PUSH1 0x44 DUP3 ADD DUP5 SWAP1 MSTORE SWAP1 SWAP2 AND SWAP1 PUSH4 0xE46638E6 SWAP1 PUSH1 0x64 ADD PUSH1 0x20 PUSH1 0x40 MLOAD DUP1 DUP4 SUB DUP2 DUP7 GAS STATICCALL ISZERO DUP1 ISZERO PUSH3 0x195 JUMPI RETURNDATASIZE PUSH1 0x0 DUP1 RETURNDATACOPY RETURNDATASIZE PUSH1 0x0 REVERT JUMPDEST POP POP POP POP PUSH1 0x40 MLOAD RETURNDATASIZE PUSH1 0x1F NOT PUSH1 0x1F DUP3 ADD AND DUP3 ADD DUP1 PUSH1 0x40 MSTORE POP DUP2 ADD SWAP1 PUSH3 0x1BB SWAP2 SWAP1 PUSH3 0x653 JUMP JUMPDEST PUSH3 0x209 JUMPI PUSH1 0x40 MLOAD PUSH3 0x461BCD PUSH1 0xE5 SHL DUP2 MSTORE PUSH1 0x20 PUSH1 0x4 DUP3 ADD MSTORE PUSH1 0x17 PUSH1 0x24 DUP3 ADD MSTORE PUSH32 0x436F6D706C69616E636520636865636B206661696C6564000000000000000000 PUSH1 0x44 DUP3 ADD MSTORE PUSH1 0x64 ADD PUSH3 0xE2 JUMP JUMPDEST PUSH3 0x216 DUP4 DUP4 DUP4 PUSH3 0x21B JUMP JUMPDEST POP POP POP JUMP JUMPDEST PUSH1 0x1 PUSH1 0x1 PUSH1 0xA0 SHL SUB DUP4 AND PUSH3 0x24A JUMPI DUP1 PUSH1 0x2 PUSH1 0x0 DUP3 DUP3 SLOAD PUSH3 0x23E SWAP2 SWAP1 PUSH3 0x67E JUMP JUMPDEST SWAP1 SWAP2 SSTORE POP PUSH3 0x2BE SWAP1 POP JUMP JUMPDEST PUSH1 0x1 PUSH1 0x1 PUSH1 0xA0 SHL SUB DUP4 AND PUSH1 0x0 SWAP1 DUP2 MSTORE PUSH1 0x20 DUP2 SWAP1 MSTORE PUSH1 0x40 SWAP1 KECCAK256 SLOAD DUP2 DUP2 LT ISZERO PUSH3 0x29F JUMPI PUSH1 0x40 MLOAD PUSH4 0x391434E3 PUSH1 0xE2 SHL DUP2 MSTORE PUSH1 0x1 PUSH1 0x1 PUSH1 0xA0 SHL SUB DUP6 AND PUSH1 0x4 DUP3 ADD MSTORE PUSH1 0x24 DUP2 ADD DUP3 SWAP1 MSTORE PUSH1 0x44 DUP2 ADD DUP4 SWAP1 MSTORE PUSH1 0x64 ADD PUSH3 0xE2 JUMP JUMPDEST PUSH1 0x1 PUSH1 0x1 PUSH1 0xA0 SHL SUB DUP5 AND PUSH1 0x0 SWAP1 DUP2 MSTORE PUSH1 0x20 DUP2 SWAP1 MSTORE PUSH1 0x40 SWAP1 KECCAK256 SWAP1 DUP3 SWAP1 SUB SWAP1 SSTORE JUMPDEST PUSH1 0x1 PUSH1 0x1 PUSH1 0xA0 SHL SUB DUP3 AND PUSH3 0x2DC JUMPI PUSH1 0x2 DUP1 SLOAD DUP3 SWAP1 SUB SWAP1 SSTORE PUSH3 0x2FB JUMP JUMPDEST PUSH1 0x1 PUSH1 0x1 PUSH1 0xA0 SHL SUB DUP3 AND PUSH1 0x0 SWAP1 DUP2 MSTORE PUSH1 0x20 DUP2 SWAP1 MSTORE PUSH1 0x40 SWAP1 KECCAK256 DUP1 SLOAD DUP3 ADD SWAP1 SSTORE JUMPDEST DUP2 PUSH1 0x1 PUSH1 0x1 PUSH1 0xA0 SHL SUB AND DUP4 PUSH1 0x1 PUSH1 0x1 PUSH1 0xA0 SHL SUB AND PUSH32 0xDDF252AD1BE2C89B69C2B068FC378DAA952BA7F163C4A11628F55A4DF523B3EF DUP4 PUSH1 0x40 MLOAD PUSH3 0x341 SWAP2 DUP2 MSTORE PUSH1 0x20 ADD SWAP1 JUMP JUMPDEST PUSH1 0x40 MLOAD DUP1 SWAP2 SUB SWAP1 LOG3 POP POP POP JUMP JUMPDEST DUP1 MLOAD PUSH1 0x1 PUSH1 0x1 PUSH1 0xA0 SHL SUB DUP2 AND DUP2 EQ PUSH3 0x366 JUMPI PUSH1 0x0 DUP1 REVERT JUMPDEST SWAP2 SWAP1 POP JUMP JUMPDEST PUSH4 0x4E487B71 PUSH1 0xE0 SHL PUSH1 0x0 MSTORE PUSH1 0x41 PUSH1 0x4 MSTORE PUSH1 0x24 PUSH1 0x0 REVERT JUMPDEST PUSH1 0x0 DUP3 PUSH1 0x1F DUP4 ADD SLT PUSH3 0x393 JUMPI PUSH1 0x0 DUP1 REVERT JUMPDEST DUP2 MLOAD PUSH1 0x1 PUSH1 0x1 PUSH1 0x40 SHL SUB DUP1 DUP3 GT ISZERO PUSH3 0x3B0 JUMPI PUSH3 0x3B0 PUSH3 0x36B JUMP JUMPDEST PUSH1 0x40 MLOAD PUSH1 0x1F DUP4 ADD PUSH1 0x1F NOT SWAP1 DUP2 AND PUSH1 0x3F ADD AND DUP2 ADD SWAP1 DUP3 DUP3 GT DUP2 DUP4 LT OR ISZERO PUSH3 0x3DB JUMPI PUSH3 0x3DB PUSH3 0x36B JUMP JUMPDEST DUP2 PUSH1 0x40 MSTORE DUP4 DUP2 MSTORE PUSH1 0x20 SWAP3 POP DUP7 DUP4 DUP6 DUP9 ADD ADD GT ISZERO PUSH3 0x3F8 JUMPI PUSH1 0x0 DUP1 REVERT JUMPDEST PUSH1 0x0 SWAP2 POP JUMPDEST DUP4 DUP3 LT ISZERO PUSH3 0x41C JUMPI DUP6 DUP3 ADD DUP4 ADD MLOAD DUP2 DUP4 ADD DUP5 ADD MSTORE SWAP1 DUP3 ADD SWAP1 PUSH3 0x3FD JUMP JUMPDEST PUSH1 0x0 SWAP4 DUP2 ADD SWAP1 SWAP3 ADD SWAP3 SWAP1 SWAP3 MSTORE SWAP5 SWAP4 POP POP POP POP JUMP JUMPDEST PUSH1 0x0 DUP1 PUSH1 0x0 DUP1 PUSH1 0x0 DUP1 PUSH1 0x0 DUP1 PUSH2 0x100 DUP10 DUP12 SUB SLT ISZERO PUSH3 0x44E JUMPI PUSH1 0x0 DUP1 REVERT JUMPDEST DUP9 MLOAD SWAP8 POP PUSH3 0x460 PUSH1 0x20 DUP11 ADD PUSH3 0x34E JUMP JUMPDEST SWAP7 POP PUSH3 0x470 PUSH1 0x40 DUP11 ADD PUSH3 0x34E JUMP JUMPDEST SWAP6 POP PUSH1 0x60 DUP10 ADD MLOAD SWAP5 POP PUSH3 0x487 PUSH1 0x80 DUP11 ADD PUSH3 0x34E JUMP JUMPDEST PUSH1 0xA0 DUP11 ADD MLOAD SWAP1 SWAP5 POP PUSH1 0x1 PUSH1 0x1 PUSH1 0x40 SHL SUB DUP1 DUP3 GT ISZERO PUSH3 0x4A5 JUMPI PUSH1 0x0 DUP1 REVERT JUMPDEST PUSH3 0x4B3 DUP13 DUP4 DUP14 ADD PUSH3 0x381 JUMP JUMPDEST SWAP5 POP PUSH1 0xC0 DUP12 ADD MLOAD SWAP2 POP DUP1 DUP3 GT ISZERO PUSH3 0x4CA JUMPI PUSH1 0x0 DUP1 REVERT JUMPDEST POP PUSH3 0x4D9 DUP12 DUP3 DUP13 ADD PUSH3 0x381 JUMP JUMPDEST SWAP3 POP POP PUSH3 0x4EA PUSH1 0xE0 DUP11 ADD PUSH3 0x34E JUMP JUMPDEST SWAP1 POP SWAP3 SWAP6 SWAP9 POP SWAP3 SWAP6 SWAP9 SWAP1 SWAP4 SWAP7 POP JUMP JUMPDEST PUSH1 0x1 DUP2 DUP2 SHR SWAP1 DUP3 AND DUP1 PUSH3 0x50E JUMPI PUSH1 0x7F DUP3 AND SWAP2 POP JUMPDEST PUSH1 0x20 DUP3 LT DUP2 SUB PUSH3 0x52F JUMPI PUSH4 0x4E487B71 PUSH1 0xE0 SHL PUSH1 0x0 MSTORE PUSH1 0x22 PUSH1 0x4 MSTORE PUSH1 0x24 PUSH1 0x0 REVERT JUMPDEST POP SWAP2 SWAP1 POP JUMP JUMPDEST PUSH1 0x1F DUP3 GT ISZERO PUSH3 0x216 JUMPI PUSH1 0x0 DUP2 DUP2 MSTORE PUSH1 0x20 DUP2 KECCAK256 PUSH1 0x1F DUP6 ADD PUSH1 0x5 SHR DUP2 ADD PUSH1 0x20 DUP7 LT ISZERO PUSH3 0x55E JUMPI POP DUP1 JUMPDEST PUSH1 0x1F DUP6 ADD PUSH1 0x5 SHR DUP3 ADD SWAP2 POP JUMPDEST DUP2 DUP2 LT ISZERO PUSH3 0x57F JUMPI DUP3 DUP2 SSTORE PUSH1 0x1 ADD PUSH3 0x56A JUMP JUMPDEST POP POP POP POP POP POP JUMP JUMPDEST DUP2 MLOAD PUSH1 0x1 PUSH1 0x1 PUSH1 0x40 SHL SUB DUP2 GT ISZERO PUSH3 0x5A3 JUMPI PUSH3 0x5A3 PUSH3 0x36B JUMP JUMPDEST PUSH3 0x5BB DUP2 PUSH3 0x5B4 DUP5 SLOAD PUSH3 0x4F9 JUMP JUMPDEST DUP5 PUSH3 0x535 JUMP JUMPDEST PUSH1 0x20 DUP1 PUSH1 0x1F DUP4 GT PUSH1 0x1 DUP2 EQ PUSH3 0x5F3 JUMPI PUSH1 0x0 DUP5 ISZERO PUSH3 0x5DA JUMPI POP DUP6 DUP4 ADD MLOAD JUMPDEST PUSH1 0x0 NOT PUSH1 0x3 DUP7 SWAP1 SHL SHR NOT AND PUSH1 0x1 DUP6 SWAP1 SHL OR DUP6 SSTORE PUSH3 0x57F JUMP JUMPDEST PUSH1 0x0 DUP6 DUP2 MSTORE PUSH1 0x20 DUP2 KECCAK256 PUSH1 0x1F NOT DUP7 AND SWAP2 JUMPDEST DUP3 DUP2 LT ISZERO PUSH3 0x624 JUMPI DUP9 DUP7 ADD MLOAD DUP3 SSTORE SWAP5 DUP5 ADD SWAP5 PUSH1 0x1 SWAP1 SWAP2 ADD SWAP1 DUP5 ADD PUSH3 0x603 JUMP JUMPDEST POP DUP6 DUP3 LT ISZERO PUSH3 0x643 JUMPI DUP8 DUP6 ADD MLOAD PUSH1 0x0 NOT PUSH1 0x3 DUP9 SWAP1 SHL PUSH1 0xF8 AND SHR NOT AND DUP2 SSTORE JUMPDEST POP POP POP POP POP PUSH1 0x1 SWAP1 DUP2 SHL ADD SWAP1 SSTORE POP JUMP JUMPDEST PUSH1 0x0 PUSH1 0x20 DUP3 DUP5 SUB SLT ISZERO PUSH3 0x666 JUMPI PUSH1 0x0 DUP1 REVERT JUMPDEST DUP2 MLOAD DUP1 ISZERO ISZERO DUP2 EQ PUSH3 0x677 JUMPI PUSH1 0x0 DUP1 REVERT JUMPDEST SWAP4 SWAP3 POP POP POP JUMP JUMPDEST DUP1 DUP3 ADD DUP1 DUP3 GT ISZERO PUSH3 0x6A0 JUMPI PUSH4 0x4E487B71 PUSH1 0xE0 SHL PUSH1 0x0 MSTORE PUSH1 0x11 PUSH1 0x4 MSTORE PUSH1 0x24 PUSH1 0x0 REVERT JUMPDEST SWAP3 SWAP2 POP POP JUMP JUMPDEST PUSH2 0xB54 DUP1 PUSH3 0x6B6 PUSH1 0x0 CODECOPY PUSH1 0x0 RETURN INVALID PUSH1 0x80 PUSH1 0x40 MSTORE CALLVALUE DUP1 ISZERO PUSH2 0x10 JUMPI PUSH1 0x0 DUP1 REVERT JUMPDEST POP PUSH1 0x4 CALLDATASIZE LT PUSH2 0x12C JUMPI PUSH1 0x0 CALLDATALOAD PUSH1 0xE0 SHR DUP1 PUSH4 0x5C975ABB GT PUSH2 0xAD JUMPI DUP1 PUSH4 0x95D89B41 GT PUSH2 0x71 JUMPI DUP1 PUSH4 0x95D89B41 EQ PUSH2 0x28B JUMPI DUP1 PUSH4 0x9FC1D0E7 EQ PUSH2 0x293 JUMPI DUP1 PUSH4 0xA9059CBB EQ PUSH2 0x2A6 JUMPI DUP1 PUSH4 0xDD62ED3E EQ PUSH2 0x2B9 JUMPI DUP1 PUSH4 0xF8981789 EQ PUSH2 0x2F2 JUMPI PUSH1 0x0 DUP1 REVERT JUMPDEST DUP1 PUSH4 0x5C975ABB EQ PUSH2 0x215 JUMPI DUP1 PUSH4 0x6290865D EQ PUSH2 0x229 JUMPI DUP1 PUSH4 0x70A08231 EQ PUSH2 0x23C JUMPI DUP1 PUSH4 0x79CC6790 EQ PUSH2 0x265 JUMPI DUP1 PUSH4 0x8DA5CB5B EQ PUSH2 0x278 JUMPI PUSH1 0x0 DUP1 REVERT JUMPDEST DUP1 PUSH4 0x1D143848 GT PUSH2 0xF4 JUMPI DUP1 PUSH4 0x1D143848 EQ PUSH2 0x1C4 JUMPI DUP1 PUSH4 0x23B872DD EQ PUSH2 0x1D7 JUMPI DUP1 PUSH4 0x313CE567 EQ PUSH2 0x1EA JUMPI DUP1 PUSH4 0x42966C68 EQ PUSH2 0x1F9 JUMPI DUP1 PUSH4 0x44DE240A EQ PUSH2 0x20C JUMPI PUSH1 0x0 DUP1 REVERT JUMPDEST DUP1 PUSH4 0x6FDDE03 EQ PUSH2 0x131 JUMPI DUP1 PUSH4 0x95EA7B3 EQ PUSH2 0x14F JUMPI DUP1 PUSH4 0x134E18F4 EQ PUSH2 0x172 JUMPI DUP1 PUSH4 0x16C38B3C EQ PUSH2 0x19D JUMPI DUP1 PUSH4 0x18160DDD EQ PUSH2 0x1B2 JUMPI JUMPDEST PUSH1 0x0 DUP1 REVERT JUMPDEST PUSH2 0x139 PUSH2 0x305 JUMP JUMPDEST PUSH1 0x40 MLOAD PUSH2 0x146 SWAP2 SWAP1 PUSH2 0x919 JUMP JUMPDEST PUSH1 0x40 MLOAD DUP1 SWAP2 SUB SWAP1 RETURN JUMPDEST PUSH2 0x162 PUSH2 0x15D CALLDATASIZE PUSH1 0x4 PUSH2 0x983 JUMP JUMPDEST PUSH2 0x397 JUMP JUMPDEST PUSH1 0x40 MLOAD SWAP1 ISZERO ISZERO DUP2 MSTORE PUSH1 0x20 ADD PUSH2 0x146 JUMP JUMPDEST PUSH1 0x7 SLOAD PUSH2 0x185 SWAP1 PUSH1 0x1 PUSH1 0x1 PUSH1 0xA0 SHL SUB AND DUP2 JUMP JUMPDEST PUSH1 0x40 MLOAD PUSH1 0x1 PUSH1 0x1 PUSH1 0xA0 SHL SUB SWAP1 SWAP2 AND DUP2 MSTORE PUSH1 0x20 ADD PUSH2 0x146 JUMP JUMPDEST PUSH2 0x1B0 PUSH2 0x1AB CALLDATASIZE PUSH1 0x4 PUSH2 0x9BB JUMP JUMPDEST PUSH2 0x3B1 JUMP JUMPDEST STOP JUMPDEST PUSH1 0x2 SLOAD JUMPDEST PUSH1 0x40 MLOAD SWAP1 DUP2 MSTORE PUSH1 0x20 ADD PUSH2 0x146 JUMP JUMPDEST PUSH1 0x8 SLOAD PUSH2 0x185 SWAP1 PUSH1 0x1 PUSH1 0x1 PUSH1 0xA0 SHL SUB AND DUP2 JUMP JUMPDEST PUSH2 0x162 PUSH2 0x1E5 CALLDATASIZE PUSH1 0x4 PUSH2 0x9DF JUMP JUMPDEST PUSH2 0x402 JUMP JUMPDEST PUSH1 0x40 MLOAD PUSH1 0x12 DUP2 MSTORE PUSH1 0x20 ADD PUSH2 0x146 JUMP JUMPDEST PUSH2 0x1B0 PUSH2 0x207 CALLDATASIZE PUSH1 0x4 PUSH2 0xA1B JUMP JUMPDEST PUSH2 0x426 JUMP JUMPDEST PUSH2 0x1B6 PUSH1 0x5 SLOAD DUP2 JUMP JUMPDEST PUSH1 0x9 SLOAD PUSH2 0x162 SWAP1 PUSH1 0x1 PUSH1 0xA0 SHL SWAP1 DIV PUSH1 0xFF AND DUP2 JUMP JUMPDEST PUSH1 0x6 SLOAD PUSH2 0x185 SWAP1 PUSH1 0x1 PUSH1 0x1 PUSH1 0xA0 SHL SUB AND DUP2 JUMP JUMPDEST PUSH2 0x1B6 PUSH2 0x24A CALLDATASIZE PUSH1 0x4 PUSH2 0xA34 JUMP JUMPDEST PUSH1 0x1 PUSH1 0x1 PUSH1 0xA0 SHL SUB AND PUSH1 0x0 SWAP1 DUP2 MSTORE PUSH1 0x20 DUP2 SWAP1 MSTORE PUSH1 0x40 SWAP1 KECCAK256 SLOAD SWAP1 JUMP JUMPDEST PUSH2 0x1B0 PUSH2 0x273 CALLDATASIZE PUSH1 0x4 PUSH2 0x983 JUMP JUMPDEST PUSH2 0x433 JUMP JUMPDEST PUSH1 0x9 SLOAD PUSH2 0x185 SWAP1 PUSH1 0x1 PUSH1 0x1 PUSH1 0xA0 SHL SUB AND DUP2 JUMP JUMPDEST PUSH2 0x139 PUSH2 0x44C JUMP JUMPDEST PUSH2 0x1B0 PUSH2 0x2A1 CALLDATASIZE PUSH1 0x4 PUSH2 0x9DF JUMP JUMPDEST PUSH2 0x45B JUMP JUMPDEST PUSH2 0x162 PUSH2 0x2B4 CALLDATASIZE PUSH1 0x4 PUSH2 0x983 JUMP JUMPDEST PUSH2 0x495 JUMP JUMPDEST PUSH2 0x1B6 PUSH2 0x2C7 CALLDATASIZE PUSH1 0x4 PUSH2 0xA4F JUMP JUMPDEST PUSH1 0x1 PUSH1 0x1 PUSH1 0xA0 SHL SUB SWAP2 DUP3 AND PUSH1 0x0 SWAP1 DUP2 MSTORE PUSH1 0x1 PUSH1 0x20 SWAP1 DUP2 MSTORE PUSH1 0x40 DUP1 DUP4 KECCAK256 SWAP4 SWAP1 SWAP5 AND DUP3 MSTORE SWAP2 SWAP1 SWAP2 MSTORE KECCAK256 SLOAD SWAP1 JUMP JUMPDEST PUSH2 0x1B0 PUSH2 0x300 CALLDATASIZE PUSH1 0x4 PUSH2 0xA34 JUMP JUMPDEST PUSH2 0x4A3 JUMP JUMPDEST PUSH1 0x60 PUSH1 0x3 DUP1 SLOAD PUSH2 0x314 SWAP1 PUSH2 0xA82 JUMP JUMPDEST DUP1 PUSH1 0x1F ADD PUSH1 0x20 DUP1 SWAP2 DIV MUL PUSH1 0x20 ADD PUSH1 0x40 MLOAD SWAP1 DUP2 ADD PUSH1 0x40 MSTORE DUP1 SWAP3 SWAP2 SWAP1 DUP2 DUP2 MSTORE PUSH1 0x20 ADD DUP3 DUP1 SLOAD PUSH2 0x340 SWAP1 PUSH2 0xA82 JUMP JUMPDEST DUP1 ISZERO PUSH2 0x38D JUMPI DUP1 PUSH1 0x1F LT PUSH2 0x362 JUMPI PUSH2 0x100 DUP1 DUP4 SLOAD DIV MUL DUP4 MSTORE SWAP2 PUSH1 0x20 ADD SWAP2 PUSH2 0x38D JUMP JUMPDEST DUP3 ADD SWAP2 SWAP1 PUSH1 0x0 MSTORE PUSH1 0x20 PUSH1 0x0 KECCAK256 SWAP1 JUMPDEST DUP2 SLOAD DUP2 MSTORE SWAP1 PUSH1 0x1 ADD SWAP1 PUSH1 0x20 ADD DUP1 DUP4 GT PUSH2 0x370 JUMPI DUP3 SWAP1 SUB PUSH1 0x1F AND DUP3 ADD SWAP2 JUMPDEST POP POP POP POP POP SWAP1 POP SWAP1 JUMP JUMPDEST PUSH1 0x0 CALLER PUSH2 0x3A5 DUP2 DUP6 DUP6 PUSH2 0x4EF JUMP JUMPDEST PUSH1 0x1 SWAP2 POP POP JUMPDEST SWAP3 SWAP2 POP POP JUMP JUMPDEST PUSH1 0x9 SLOAD PUSH1 0x1 PUSH1 0x1 PUSH1 0xA0 SHL SUB AND CALLER EQ PUSH2 0x3E4 JUMPI PUSH1 0x40 MLOAD PUSH3 0x461BCD PUSH1 0xE5 SHL DUP2 MSTORE PUSH1 0x4 ADD PUSH2 0x3DB SWAP1 PUSH2 0xABC JUMP JUMPDEST PUSH1 0x40 MLOAD DUP1 SWAP2 SUB SWAP1 REVERT JUMPDEST PUSH1 0x9 DUP1 SLOAD SWAP2 ISZERO ISZERO PUSH1 0x1 PUSH1 0xA0 SHL MUL PUSH1 0xFF PUSH1 0xA0 SHL NOT SWAP1 SWAP3 AND SWAP2 SWAP1 SWAP2 OR SWAP1 SSTORE JUMP JUMPDEST PUSH1 0x0 CALLER PUSH2 0x410 DUP6 DUP3 DUP6 PUSH2 0x4FC JUMP JUMPDEST PUSH2 0x41B DUP6 DUP6 DUP6 PUSH2 0x57B JUMP JUMPDEST POP PUSH1 0x1 SWAP5 SWAP4 POP POP POP POP JUMP JUMPDEST PUSH2 0x430 CALLER DUP3 PUSH2 0x5DA JUMP JUMPDEST POP JUMP JUMPDEST PUSH2 0x43E DUP3 CALLER DUP4 PUSH2 0x4FC JUMP JUMPDEST PUSH2 0x448 DUP3 DUP3 PUSH2 0x5DA JUMP JUMPDEST POP POP JUMP JUMPDEST PUSH1 0x60 PUSH1 0x4 DUP1 SLOAD PUSH2 0x314 SWAP1 PUSH2 0xA82 JUMP JUMPDEST PUSH1 0x9 SLOAD PUSH1 0x1 PUSH1 0x1 PUSH1 0xA0 SHL SUB AND CALLER EQ PUSH2 0x485 JUMPI PUSH1 0x40 MLOAD PUSH3 0x461BCD PUSH1 0xE5 SHL DUP2 MSTORE PUSH1 0x4 ADD PUSH2 0x3DB SWAP1 PUSH2 0xABC JUMP JUMPDEST PUSH2 0x490 DUP4 DUP4 DUP4 PUSH2 0x57B JUMP JUMPDEST POP POP POP JUMP JUMPDEST PUSH1 0x0 CALLER PUSH2 0x3A5 DUP2 DUP6 DUP6 PUSH2 0x57B JUMP JUMPDEST PUSH1 0x9 SLOAD PUSH1 0x1 PUSH1 0x1 PUSH1 0xA0 SHL SUB AND CALLER EQ PUSH2 0x4CD JUMPI PUSH1 0x40 MLOAD PUSH3 0x461BCD PUSH1 0xE5 SHL DUP2 MSTORE PUSH1 0x4 ADD PUSH2 0x3DB SWAP1 PUSH2 0xABC JUMP JUMPDEST PUSH1 0x6 DUP1 SLOAD PUSH1 0x1 PUSH1 0x1 PUSH1 0xA0 SHL SUB NOT AND PUSH1 0x1 PUSH1 0x1 PUSH1 0xA0 SHL SUB SWAP3 SWAP1 SWAP3 AND SWAP2 SWAP1 SWAP2 OR SWAP1 SSTORE JUMP JUMPDEST PUSH2 0x490 DUP4 DUP4 DUP4 PUSH1 0x1 PUSH2 0x610 JUMP JUMPDEST PUSH1 0x1 PUSH1 0x1 PUSH1 0xA0 SHL SUB DUP4 DUP2 AND PUSH1 0x0 SWAP1 DUP2 MSTORE PUSH1 0x1 PUSH1 0x20 SWAP1 DUP2 MSTORE PUSH1 0x40 DUP1 DUP4 KECCAK256 SWAP4 DUP7 AND DUP4 MSTORE SWAP3 SWAP1 MSTORE KECCAK256 SLOAD PUSH1 0x0 NOT DUP2 LT ISZERO PUSH2 0x575 JUMPI DUP2 DUP2 LT ISZERO PUSH2 0x566 JUMPI PUSH1 0x40 MLOAD PUSH4 0x7DC7A0D9 PUSH1 0xE1 SHL DUP2 MSTORE PUSH1 0x1 PUSH1 0x1 PUSH1 0xA0 SHL SUB DUP5 AND PUSH1 0x4 DUP3 ADD MSTORE PUSH1 0x24 DUP2 ADD DUP3 SWAP1 MSTORE PUSH1 0x44 DUP2 ADD DUP4 SWAP1 MSTORE PUSH1 0x64 ADD PUSH2 0x3DB JUMP JUMPDEST PUSH2 0x575 DUP5 DUP5 DUP5 DUP5 SUB PUSH1 0x0 PUSH2 0x610 JUMP JUMPDEST POP POP POP POP JUMP JUMPDEST PUSH1 0x1 PUSH1 0x1 PUSH1 0xA0 SHL SUB DUP4 AND PUSH2 0x5A5 JUMPI PUSH1 0x40 MLOAD PUSH4 0x4B637E8F PUSH1 0xE1 SHL DUP2 MSTORE PUSH1 0x0 PUSH1 0x4 DUP3 ADD MSTORE PUSH1 0x24 ADD PUSH2 0x3DB JUMP JUMPDEST PUSH1 0x1 PUSH1 0x1 PUSH1 0xA0 SHL SUB DUP3 AND PUSH2 0x5CF JUMPI PUSH1 0x40 MLOAD PUSH4 0xEC442F05 PUSH1 0xE0 SHL DUP2 MSTORE PUSH1 0x0 PUSH1 0x4 DUP3 ADD MSTORE PUSH1 0x24 ADD PUSH2 0x3DB JUMP JUMPDEST PUSH2 0x490 DUP4 DUP4 DUP4 PUSH2 0x6E5 JUMP JUMPDEST PUSH1 0x1 PUSH1 0x1 PUSH1 0xA0 SHL SUB DUP3 AND PUSH2 0x604 JUMPI PUSH1 0x40 MLOAD PUSH4 0x4B637E8F PUSH1 0xE1 SHL DUP2 MSTORE PUSH1 0x0 PUSH1 0x4 DUP3 ADD MSTORE PUSH1 0x24 ADD PUSH2 0x3DB JUMP JUMPDEST PUSH2 0x448 DUP3 PUSH1 0x0 DUP4 PUSH2 0x6E5 JUMP JUMPDEST PUSH1 0x1 PUSH1 0x1 PUSH1 0xA0 SHL SUB DUP5 AND PUSH2 0x63A JUMPI PUSH1 0x40 MLOAD PUSH4 0xE602DF05 PUSH1 0xE0 SHL DUP2 MSTORE PUSH1 0x0 PUSH1 0x4 DUP3 ADD MSTORE PUSH1 0x24 ADD PUSH2 0x3DB JUMP JUMPDEST PUSH1 0x1 PUSH1 0x1 PUSH1 0xA0 SHL SUB DUP4 AND PUSH2 0x664 JUMPI PUSH1 0x40 MLOAD PUSH4 0x4A1406B1 PUSH1 0xE1 SHL DUP2 MSTORE PUSH1 0x0 PUSH1 0x4 DUP3 ADD MSTORE PUSH1 0x24 ADD PUSH2 0x3DB JUMP JUMPDEST PUSH1 0x1 PUSH1 0x1 PUSH1 0xA0 SHL SUB DUP1 DUP6 AND PUSH1 0x0 SWAP1 DUP2 MSTORE PUSH1 0x1 PUSH1 0x20 SWAP1 DUP2 MSTORE PUSH1 0x40 DUP1 DUP4 KECCAK256 SWAP4 DUP8 AND DUP4 MSTORE SWAP3 SWAP1 MSTORE KECCAK256 DUP3 SWAP1 SSTORE DUP1 ISZERO PUSH2 0x575 JUMPI DUP3 PUSH1 0x1 PUSH1 0x1 PUSH1 0xA0 SHL SUB AND DUP5 PUSH1 0x1 PUSH1 0x1 PUSH1 0xA0 SHL SUB AND PUSH32 0x8C5BE1E5EBEC7D5BD14F71427D1E84F3DD0314C0F7B2291E5B200AC8C7C3B925 DUP5 PUSH1 0x40 MLOAD PUSH2 0x6D7 SWAP2 DUP2 MSTORE PUSH1 0x20 ADD SWAP1 JUMP JUMPDEST PUSH1 0x40 MLOAD DUP1 SWAP2 SUB SWAP1 LOG3 POP POP POP POP JUMP JUMPDEST PUSH1 0x9 SLOAD PUSH1 0x1 PUSH1 0xA0 SHL SWAP1 DIV PUSH1 0xFF AND ISZERO DUP1 ISZERO PUSH2 0x707 JUMPI POP PUSH1 0x1 PUSH1 0x1 PUSH1 0xA0 SHL SUB DUP4 AND ISZERO ISZERO JUMPDEST DUP1 ISZERO PUSH2 0x71B JUMPI POP PUSH1 0x1 PUSH1 0x1 PUSH1 0xA0 SHL SUB DUP3 AND ISZERO ISZERO JUMPDEST ISZERO PUSH2 0x7E9 JUMPI PUSH1 0x6 SLOAD PUSH1 0x40 MLOAD PUSH4 0x72331C73 PUSH1 0xE1 SHL DUP2 MSTORE PUSH1 0x1 PUSH1 0x1 PUSH1 0xA0 SHL SUB DUP6 DUP2 AND PUSH1 0x4 DUP4 ADD MSTORE DUP5 DUP2 AND PUSH1 0x24 DUP4 ADD MSTORE PUSH1 0x44 DUP3 ADD DUP5 SWAP1 MSTORE SWAP1 SWAP2 AND SWAP1 PUSH4 0xE46638E6 SWAP1 PUSH1 0x64 ADD PUSH1 0x20 PUSH1 0x40 MLOAD DUP1 DUP4 SUB DUP2 DUP7 GAS STATICCALL ISZERO DUP1 ISZERO PUSH2 0x779 JUMPI RETURNDATASIZE PUSH1 0x0 DUP1 RETURNDATACOPY RETURNDATASIZE PUSH1 0x0 REVERT JUMPDEST POP POP POP POP PUSH1 0x40 MLOAD RETURNDATASIZE PUSH1 0x1F NOT PUSH1 0x1F DUP3 ADD AND DUP3 ADD DUP1 PUSH1 0x40 MSTORE POP DUP2 ADD SWAP1 PUSH2 0x79D SWAP2 SWAP1 PUSH2 0xAE0 JUMP JUMPDEST PUSH2 0x7E9 JUMPI PUSH1 0x40 MLOAD PUSH3 0x461BCD PUSH1 0xE5 SHL DUP2 MSTORE PUSH1 0x20 PUSH1 0x4 DUP3 ADD MSTORE PUSH1 0x17 PUSH1 0x24 DUP3 ADD MSTORE PUSH32 0x436F6D706C69616E636520636865636B206661696C6564000000000000000000 PUSH1 0x44 DUP3 ADD MSTORE PUSH1 0x64 ADD PUSH2 0x3DB JUMP JUMPDEST PUSH2 0x490 DUP4 DUP4 DUP4 PUSH1 0x1 PUSH1 0x1 PUSH1 0xA0 SHL SUB DUP4 AND PUSH2 0x81A JUMPI DUP1 PUSH1 0x2 PUSH1 0x0 DUP3 DUP3 SLOAD PUSH2 0x80F SWAP2 SWAP1 PUSH2 0xAFD JUMP JUMPDEST SWAP1 SWAP2 SSTORE POP PUSH2 0x88C SWAP1 POP JUMP JUMPDEST PUSH1 0x1 PUSH1 0x1 PUSH1 0xA0 SHL SUB DUP4 AND PUSH1 0x0 SWAP1 DUP2 MSTORE PUSH1 0x20 DUP2 SWAP1 MSTORE PUSH1 0x40 SWAP1 KECCAK256 SLOAD DUP2 DUP2 LT ISZERO PUSH2 0x86D JUMPI PUSH1 0x40 MLOAD PUSH4 0x391434E3 PUSH1 0xE2 SHL DUP2 MSTORE PUSH1 0x1 PUSH1 0x1 PUSH1 0xA0 SHL SUB DUP6 AND PUSH1 0x4 DUP3 ADD MSTORE PUSH1 0x24 DUP2 ADD DUP3 SWAP1 MSTORE PUSH1 0x44 DUP2 ADD DUP4 SWAP1 MSTORE PUSH1 0x64 ADD PUSH2 0x3DB JUMP JUMPDEST PUSH1 0x1 PUSH1 0x1 PUSH1 0xA0 SHL SUB DUP5 AND PUSH1 0x0 SWAP1 DUP2 MSTORE PUSH1 0x20 DUP2 SWAP1 MSTORE PUSH1 0x40 SWAP1 KECCAK256 SWAP1 DUP3 SWAP1 SUB SWAP1 SSTORE JUMPDEST PUSH1 0x1 PUSH1 0x1 PUSH1 0xA0 SHL SUB DUP3 AND PUSH2 0x8A8 JUMPI PUSH1 0x2 DUP1 SLOAD DUP3 SWAP1 SUB SWAP1 SSTORE PUSH2 0x8C7 JUMP JUMPDEST PUSH1 0x1 PUSH1 0x1 PUSH1 0xA0 SHL SUB DUP3 AND PUSH1 0x0 SWAP1 DUP2 MSTORE PUSH1 0x20 DUP2 SWAP1 MSTORE PUSH1 0x40 SWAP1 KECCAK256 DUP1 SLOAD DUP3 ADD SWAP1 SSTORE JUMPDEST DUP2 PUSH1 0x1 PUSH1 0x1 PUSH1 0xA0 SHL SUB AND DUP4 PUSH1 0x1 PUSH1 0x1 PUSH1 0xA0 SHL SUB AND PUSH32 0xDDF252AD1BE2C89B69C2B068FC378DAA952BA7F163C4A11628F55A4DF523B3EF DUP4 PUSH1 0x40 MLOAD PUSH2 0x90C SWAP2 DUP2 MSTORE PUSH1 0x20 ADD SWAP1 JUMP JUMPDEST PUSH1 0x40 MLOAD DUP1 SWAP2 SUB SWAP1 LOG3 POP POP POP JUMP JUMPDEST PUSH1 0x0 PUSH1 0x20 DUP1 DUP4 MSTORE DUP4 MLOAD DUP1 DUP3 DUP6 ADD MSTORE PUSH1 0x0 JUMPDEST DUP2 DUP2 LT ISZERO PUSH2 0x946 JUMPI DUP6 DUP2 ADD DUP4 ADD MLOAD DUP6 DUP3 ADD PUSH1 0x40 ADD MSTORE DUP3 ADD PUSH2 0x92A JUMP JUMPDEST POP PUSH1 0x0 PUSH1 0x40 DUP3 DUP7 ADD ADD MSTORE PUSH1 0x40 PUSH1 0x1F NOT PUSH1 0x1F DUP4 ADD AND DUP6 ADD ADD SWAP3 POP POP POP SWAP3 SWAP2 POP POP JUMP JUMPDEST DUP1 CALLDATALOAD PUSH1 0x1 PUSH1 0x1 PUSH1 0xA0 SHL SUB DUP2 AND DUP2 EQ PUSH2 0x97E JUMPI PUSH1 0x0 DUP1 REVERT JUMPDEST SWAP2 SWAP1 POP JUMP JUMPDEST PUSH1 0x0 DUP1 PUSH1 0x40 DUP4 DUP6 SUB SLT ISZERO PUSH2 0x996 JUMPI PUSH1 0x0 DUP1 REVERT JUMPDEST PUSH2 0x99F DUP4 PUSH2 0x967 JUMP JUMPDEST SWAP5 PUSH1 0x20 SWAP4 SWAP1 SWAP4 ADD CALLDATALOAD SWAP4 POP POP POP JUMP JUMPDEST DUP1 ISZERO ISZERO DUP2 EQ PUSH2 0x430 JUMPI PUSH1 0x0 DUP1 REVERT JUMPDEST PUSH1 0x0 PUSH1 0x20 DUP3 DUP5 SUB SLT ISZERO PUSH2 0x9CD JUMPI PUSH1 0x0 DUP1 REVERT JUMPDEST DUP2 CALLDATALOAD PUSH2 0x9D8 DUP2 PUSH2 0x9AD JUMP JUMPDEST SWAP4 SWAP3 POP POP POP JUMP JUMPDEST PUSH1 0x0 DUP1 PUSH1 0x0 PUSH1 0x60 DUP5 DUP7 SUB SLT ISZERO PUSH2 0x9F4 JUMPI PUSH1 0x0 DUP1 REVERT JUMPDEST PUSH2 0x9FD DUP5 PUSH2 0x967 JUMP JUMPDEST SWAP3 POP PUSH2 0xA0B PUSH1 0x20 DUP6 ADD PUSH2 0x967 JUMP JUMPDEST SWAP2 POP PUSH1 0x40 DUP5 ADD CALLDATALOAD SWAP1 POP SWAP3 POP SWAP3 POP SWAP3 JUMP JUMPDEST PUSH1 0x0 PUSH1 0x20 DUP3 DUP5 SUB SLT ISZERO PUSH2 0xA2D JUMPI PUSH1 0x0 DUP1 REVERT JUMPDEST POP CALLDATALOAD SWAP2 SWAP1 POP JUMP JUMPDEST PUSH1 0x0 PUSH1 0x20 DUP3 DUP5 SUB SLT ISZERO PUSH2 0xA46 JUMPI PUSH1 0x0 DUP1 REVERT JUMPDEST PUSH2 0x9D8 DUP3 PUSH2 0x967 JUMP JUMPDEST PUSH1 0x0 DUP1 PUSH1 0x40 DUP4 DUP6 SUB SLT ISZERO PUSH2 0xA62 JUMPI PUSH1 0x0 DUP1 REVERT JUMPDEST PUSH2 0xA6B DUP4 PUSH2 0x967 JUMP JUMPDEST SWAP2 POP PUSH2 0xA79 PUSH1 0x20 DUP5 ADD PUSH2 0x967 JUMP JUMPDEST SWAP1 POP SWAP3 POP SWAP3 SWAP1 POP JUMP JUMPDEST PUSH1 0x1 DUP2 DUP2 SHR SWAP1 DUP3 AND DUP1 PUSH2 0xA96 JUMPI PUSH1 0x7F DUP3 AND SWAP2 POP JUMPDEST PUSH1 0x20 DUP3 LT DUP2 SUB PUSH2 0xAB6 JUMPI PUSH4 0x4E487B71 PUSH1 0xE0 SHL PUSH1 0x0 MSTORE PUSH1 0x22 PUSH1 0x4 MSTORE PUSH1 0x24 PUSH1 0x0 REVERT JUMPDEST POP SWAP2 SWAP1 POP JUMP JUMPDEST PUSH1 0x20 DUP1 DUP3 MSTORE PUSH1 0xA SWAP1 DUP3 ADD MSTORE PUSH10 0x27B7363C9037BBB732B9 PUSH1 0xB1 SHL PUSH1 0x40 DUP3 ADD MSTORE PUSH1 0x60 ADD SWAP1 JUMP JUMPDEST PUSH1 0x0 PUSH1 0x20 DUP3 DUP5 SUB SLT ISZERO PUSH2 0xAF2 JUMPI PUSH1 0x0 DUP1 REVERT JUMPDEST DUP2 MLOAD PUSH2 0x9D8 DUP2 PUSH2 0x9AD JUMP JUMPDEST DUP1 DUP3 ADD DUP1 DUP3 GT ISZERO PUSH2 0x3AB JUMPI PUSH4 0x4E487B71 PUSH1 0xE0 SHL PUSH1 0x0 MSTORE PUSH1 0x11 PUSH1 0x4 MSTORE PUSH1 0x24 PUSH1 0x0 REVERT INVALID LOG2 PUSH5 0x6970667358 0x22 SLT KECCAK256 MUL SWAP16 0xE8 DUP15 JUMPI LOG0 DUP13 0xB3 RETURNDATASIZE CALLCODE EXTCODEHASH PUSH19 0xDE24E317F583F61A12712FAC678AFB8077C11B CREATE PUSH5 0x736F6C6343 STOP ADDMOD EQ STOP CALLER LOG2 PUSH5 0x6970667358 0x22 SLT KECCAK256 GAS NUMBER 0x29 SWAP10 0xB4 0xFC 0xC2 DELEGATECALL SWAP15 0x29 0xAB 0xB2 JUMPDEST 0xE8 EXTCODESIZE DELEGATECALL CALLVALUE POP MSTORE8 0x26 CHAINID 0xE3 SWAP10 ADDRESS 0x25 GASPRICE EXP PUSH7 0x62FD1CA864736F PUSH13 0x63430008140033000000000000 "},"methodIdentifiers":{"allTokens(uint256)":"634282af","attestationRegistry()":"ed6d73f9","deployTokenSuite(bytes32,uint256,string,string,address)":"a5bd068e","deployedTokens(bytes32)":"61309596","getAllTokens()":"2a5c792a","getTokenByAssetId(bytes32)":"74258347","identityRegistry()":"134e18f4","owner()":"8da5cb5b","platformCustody()":"299aa1d7","tokenCount()":"9f181b5e","trustedIssuersRegistry()":"fb703a7b","yieldVault()":"a7f8a5e2"}}}}}