{
  "_format": "hh-sol-artifact-1",
  "contractName": "PrimaryMarket",
  "sourceName": "contracts/marketplace/PrimaryMarket.sol",
  "abi": [
    {
      "inputs": [
        {
          "internalType": "address",
          "name": "_factory",
          "type": "address"
        },
        {
          "internalType": "address",
          "name": "_platformCustody",
          "type": "address"
        },
        {
          "internalType": "address",
          "name": "_USDC",
          "type": "address"
        }
      ],
      "stateMutability": "nonpayable",
      "type": "constructor"
    },
    {
      "anonymous": false,
      "inputs": [
        {
          "indexed": true,
          "internalType": "bytes32",
          "name": "assetId",
          "type": "bytes32"
        },
        {
          "indexed": false,
          "internalType": "uint256",
          "name": "clearingPrice",
          "type": "uint256"
        },
        {
          "indexed": false,
          "internalType": "uint256",
          "name": "totalTokensSold",
          "type": "uint256"
        }
      ],
      "name": "AuctionEnded",
      "type": "event"
    },
    {
      "anonymous": false,
      "inputs": [
        {
          "indexed": true,
          "internalType": "bytes32",
          "name": "assetId",
          "type": "bytes32"
        },
        {
          "indexed": true,
          "internalType": "address",
          "name": "bidder",
          "type": "address"
        },
        {
          "indexed": false,
          "internalType": "uint256",
          "name": "tokensReceived",
          "type": "uint256"
        },
        {
          "indexed": false,
          "internalType": "uint256",
          "name": "cost",
          "type": "uint256"
        },
        {
          "indexed": false,
          "internalType": "uint256",
          "name": "refund",
          "type": "uint256"
        }
      ],
      "name": "BidSettled",
      "type": "event"
    },
    {
      "anonymous": false,
      "inputs": [
        {
          "indexed": true,
          "internalType": "bytes32",
          "name": "assetId",
          "type": "bytes32"
        },
        {
          "indexed": true,
          "internalType": "address",
          "name": "bidder",
          "type": "address"
        },
        {
          "indexed": false,
          "internalType": "uint256",
          "name": "tokenAmount",
          "type": "uint256"
        },
        {
          "indexed": false,
          "internalType": "uint256",
          "name": "price",
          "type": "uint256"
        },
        {
          "indexed": false,
          "internalType": "uint256",
          "name": "bidIndex",
          "type": "uint256"
        }
      ],
      "name": "BidSubmitted",
      "type": "event"
    },
    {
      "anonymous": false,
      "inputs": [
        {
          "indexed": true,
          "internalType": "bytes32",
          "name": "assetId",
          "type": "bytes32"
        },
        {
          "indexed": false,
          "internalType": "address",
          "name": "tokenAddress",
          "type": "address"
        },
        {
          "indexed": false,
          "internalType": "enum PrimaryMarket.ListingType",
          "name": "listingType",
          "type": "uint8"
        },
        {
          "indexed": false,
          "internalType": "uint256",
          "name": "priceOrReserve",
          "type": "uint256"
        }
      ],
      "name": "ListingCreated",
      "type": "event"
    },
    {
      "anonymous": false,
      "inputs": [
        {
          "indexed": true,
          "internalType": "bytes32",
          "name": "assetId",
          "type": "bytes32"
        },
        {
          "indexed": true,
          "internalType": "address",
          "name": "buyer",
          "type": "address"
        },
        {
          "indexed": false,
          "internalType": "uint256",
          "name": "amount",
          "type": "uint256"
        },
        {
          "indexed": false,
          "internalType": "uint256",
          "name": "price",
          "type": "uint256"
        },
        {
          "indexed": false,
          "internalType": "uint256",
          "name": "totalPayment",
          "type": "uint256"
        }
      ],
      "name": "TokensPurchased",
      "type": "event"
    },
    {
      "anonymous": false,
      "inputs": [
        {
          "indexed": true,
          "internalType": "address",
          "name": "vault",
          "type": "address"
        },
        {
          "indexed": false,
          "internalType": "bool",
          "name": "authorized",
          "type": "bool"
        }
      ],
      "name": "VaultAuthorized",
      "type": "event"
    },
    {
      "inputs": [],
      "name": "USDC",
      "outputs": [
        {
          "internalType": "contract IERC20",
          "name": "",
          "type": "address"
        }
      ],
      "stateMutability": "view",
      "type": "function"
    },
    {
      "inputs": [
        {
          "internalType": "address",
          "name": "vault",
          "type": "address"
        },
        {
          "internalType": "bool",
          "name": "authorized",
          "type": "bool"
        }
      ],
      "name": "authorizeVault",
      "outputs": [],
      "stateMutability": "nonpayable",
      "type": "function"
    },
    {
      "inputs": [
        {
          "internalType": "address",
          "name": "",
          "type": "address"
        }
      ],
      "name": "authorizedVaults",
      "outputs": [
        {
          "internalType": "bool",
          "name": "",
          "type": "bool"
        }
      ],
      "stateMutability": "view",
      "type": "function"
    },
    {
      "inputs": [
        {
          "internalType": "bytes32",
          "name": "",
          "type": "bytes32"
        },
        {
          "internalType": "uint256",
          "name": "",
          "type": "uint256"
        }
      ],
      "name": "bids",
      "outputs": [
        {
          "internalType": "address",
          "name": "bidder",
          "type": "address"
        },
        {
          "internalType": "uint256",
          "name": "tokenAmount",
          "type": "uint256"
        },
        {
          "internalType": "uint256",
          "name": "price",
          "type": "uint256"
        },
        {
          "internalType": "uint256",
          "name": "usdcDeposited",
          "type": "uint256"
        },
        {
          "internalType": "bool",
          "name": "settled",
          "type": "bool"
        }
      ],
      "stateMutability": "view",
      "type": "function"
    },
    {
      "inputs": [
        {
          "internalType": "bytes32",
          "name": "assetId",
          "type": "bytes32"
        },
        {
          "internalType": "uint256",
          "name": "amount",
          "type": "uint256"
        }
      ],
      "name": "buyTokens",
      "outputs": [],
      "stateMutability": "nonpayable",
      "type": "function"
    },
    {
      "inputs": [
        {
          "internalType": "bytes32",
          "name": "assetId",
          "type": "bytes32"
        }
      ],
      "name": "closeListing",
      "outputs": [],
      "stateMutability": "nonpayable",
      "type": "function"
    },
    {
      "inputs": [
        {
          "internalType": "bytes32",
          "name": "assetId",
          "type": "bytes32"
        },
        {
          "internalType": "address",
          "name": "tokenAddress",
          "type": "address"
        },
        {
          "internalType": "enum PrimaryMarket.ListingType",
          "name": "listingType",
          "type": "uint8"
        },
        {
          "internalType": "uint256",
          "name": "priceOrReserve",
          "type": "uint256"
        },
        {
          "internalType": "uint256",
          "name": "duration",
          "type": "uint256"
        },
        {
          "internalType": "uint256",
          "name": "totalSupply",
          "type": "uint256"
        },
        {
          "internalType": "uint256",
          "name": "minInvestment",
          "type": "uint256"
        }
      ],
      "name": "createListing",
      "outputs": [],
      "stateMutability": "nonpayable",
      "type": "function"
    },
    {
      "inputs": [
        {
          "internalType": "bytes32",
          "name": "assetId",
          "type": "bytes32"
        },
        {
          "internalType": "uint256",
          "name": "clearingPrice",
          "type": "uint256"
        }
      ],
      "name": "endAuction",
      "outputs": [],
      "stateMutability": "nonpayable",
      "type": "function"
    },
    {
      "inputs": [],
      "name": "factory",
      "outputs": [
        {
          "internalType": "address",
          "name": "",
          "type": "address"
        }
      ],
      "stateMutability": "view",
      "type": "function"
    },
    {
      "inputs": [
        {
          "internalType": "bytes32",
          "name": "assetId",
          "type": "bytes32"
        }
      ],
      "name": "getBidCount",
      "outputs": [
        {
          "internalType": "uint256",
          "name": "",
          "type": "uint256"
        }
      ],
      "stateMutability": "view",
      "type": "function"
    },
    {
      "inputs": [
        {
          "internalType": "bytes32",
          "name": "",
          "type": "bytes32"
        }
      ],
      "name": "listings",
      "outputs": [
        {
          "internalType": "address",
          "name": "tokenAddress",
          "type": "address"
        },
        {
          "internalType": "bytes32",
          "name": "assetId",
          "type": "bytes32"
        },
        {
          "internalType": "enum PrimaryMarket.ListingType",
          "name": "listingType",
          "type": "uint8"
        },
        {
          "internalType": "uint256",
          "name": "staticPrice",
          "type": "uint256"
        },
        {
          "internalType": "uint256",
          "name": "reservePrice",
          "type": "uint256"
        },
        {
          "internalType": "uint256",
          "name": "endTime",
          "type": "uint256"
        },
        {
          "internalType": "uint256",
          "name": "clearingPrice",
          "type": "uint256"
        },
        {
          "internalType": "enum PrimaryMarket.AuctionPhase",
          "name": "auctionPhase",
          "type": "uint8"
        },
        {
          "internalType": "uint256",
          "name": "totalSupply",
          "type": "uint256"
        },
        {
          "internalType": "uint256",
          "name": "sold",
          "type": "uint256"
        },
        {
          "internalType": "bool",
          "name": "active",
          "type": "bool"
        },
        {
          "internalType": "uint256",
          "name": "minInvestment",
          "type": "uint256"
        }
      ],
      "stateMutability": "view",
      "type": "function"
    },
    {
      "inputs": [],
      "name": "owner",
      "outputs": [
        {
          "internalType": "address",
          "name": "",
          "type": "address"
        }
      ],
      "stateMutability": "view",
      "type": "function"
    },
    {
      "inputs": [],
      "name": "platformCustody",
      "outputs": [
        {
          "internalType": "address",
          "name": "",
          "type": "address"
        }
      ],
      "stateMutability": "view",
      "type": "function"
    },
    {
      "inputs": [
        {
          "internalType": "bytes32",
          "name": "assetId",
          "type": "bytes32"
        },
        {
          "internalType": "uint256",
          "name": "bidIndex",
          "type": "uint256"
        }
      ],
      "name": "settleBid",
      "outputs": [],
      "stateMutability": "nonpayable",
      "type": "function"
    },
    {
      "inputs": [
        {
          "internalType": "bytes32",
          "name": "assetId",
          "type": "bytes32"
        },
        {
          "internalType": "uint256",
          "name": "tokenAmount",
          "type": "uint256"
        },
        {
          "internalType": "uint256",
          "name": "price",
          "type": "uint256"
        }
      ],
      "name": "submitBid",
      "outputs": [],
      "stateMutability": "nonpayable",
      "type": "function"
    }
  ],
  "bytecode": "0x6080346100ab57601f61159238819003918201601f19168301916001600160401b038311848410176100b0578084926060946040528339810103126100ab57610047816100c6565b906100606040610059602084016100c6565b92016100c6565b60018060a01b0319923384600554161760055560018060a01b03928380921685600454161760045516836002541617600255169060035416176003556040516114b790816100db8239f35b600080fd5b634e487b7160e01b600052604160045260246000fd5b51906001600160a01b03821682036100ab5756fe60406080815260048036101561001457600080fd5b600091823560e01c806307f5d63314610f6f57806315659dde14610f47578063299aa1d714610f1e578063393b851614610ee05780633dddafa714610ea157806369a361cc14610dcf57806389a3027114610da65780638da5cb5b14610d7d5780638ef481b714610ba6578063a03f7d1914610abe578063be0b423114610772578063c18b8db4146106ac578063c45a015514610684578063f69314be1461013b5763f7e65b1c146100c557600080fd5b34610137576100d336611215565b939081526001602052818120908154851015610134575060a0936100f691611266565b50600180851b038154169260018201549260ff6002840154926003850154940154169381519586526020860152840152606083015215156080820152f35b80fd5b8280fd5b5090346101375761014b36611215565b81859392935260209185835284862091610177600160ff60028601541661017181611246565b146113e8565b600160ff60078501541661018a81611246565b0361064d576101a29085885260018552868820611266565b50928184019384549160ff83166106195781546001600160a01b039690871693338514801561060c575b156105c95760ff191660011790556002820154600686018054909491111561055157506001820154938960088701549461020c6009890196875490611378565b808811610549575b50861561048d5783878c94938b670de0b6b3a76400006102388461029c9754611385565b049b6102488d60038c0154611378565b9a6102548582546112d1565b90555416908c60025416908d8a5416918851968795869485936323b872dd60e01b85528b850160409194939294606082019560018060a01b0380921683521660208201520152565b03925af1801561048357610466575b508a836102ed8a600354168a8c60025416965194858094819363a9059cbb60e01b9a8b84528a840160209093929193604081019460018060a01b031681520152565b03925af190811561045c578c9161043f575b50156103fc579089918561034b575b5050505090600080516020611462833981519152946103459254169651938493846040919493926060820195825260208201520152565b0390a380f35b91839893918695938d8660035416926103888888541695519a8b96879586948552840160209093929193604081019460018060a01b031681520152565b03925af19687156103f25760008051602061146283398151915297610345956103b9928d926103c5575b5050611425565b9192509487388061030e565b6103e49250803d106103eb575b6103dc8183611398565b8101906113d0565b38806103b2565b503d6103d2565b89513d8c823e3d90fd5b895162461bcd60e51b8152908101839052601860248201527f506c6174666f726d207472616e73666572206661696c656400000000000000006044820152606490fd5b6104569150843d86116103eb576103dc8183611398565b386102ff565b8b513d8e823e3d90fd5b61047c90843d86116103eb576103dc8183611398565b50386102ab565b83513d8e823e3d90fd5b505060038054845491850180548c5163a9059cbb60e01b8152938b166001600160a01b031694840194855260208501529a9398939750929550929350869183919086169082908c90829060400103925af190811561053f579161050c600080516020611462833981519152969492606096948b91610522575b50611425565b541695549087815193818552840152820152a380f35b6105399150863d88116103eb576103dc8183611398565b38610506565b84513d8a823e3d90fd5b965038610214565b6003805490840180548b5163a9059cbb60e01b81526001600160a01b03949094169784019788526020880152999297929650919492935091869183918290036040019082908c9088165af190811561053f579161050c600080516020611462833981519152969492606096948b916105225750611425565b895162461bcd60e51b8152808701849052601860248201527f4e6f7420617574686f72697a656420746f20736574746c6500000000000000006044820152606490fd5b50876005541633146101cc565b8360649189519162461bcd60e51b8352820152600f60248201526e105b1c9958591e481cd95d1d1b1959608a1b6044820152fd5b855162461bcd60e51b81528083018590526011602482015270105d58dd1a5bdb881b9bdd08195b991959607a1b6044820152606490fd5b5090346101375782600319360112610137575490516001600160a01b03909116815260209150f35b50903461013757602036600319011261013757816101809382358152806020522060018060a01b038154169260018201549260ff60028401541690600384015490840154600585015460068601549160ff60078801541693600888015495600989015497600b60ff600a8c0154169a01549a81519c8d5260208d015261073182611246565b8b015260608a0152608089015260a088015260c087015261075181611246565b60e08601526101008501526101208401521515610140830152610160820152f35b5090346101375760603660031901126101375780359060248035936044359184875260208781528288206107ac60ff600a830154166112f4565b6107c2600160ff60028401541661017181611246565b60ff6007820154166107d381611246565b610a8b576005810154421015610a5757858101548510610a1f57600b6107fd910154881015611335565b670de0b6b3a76400006108108886611385565b60035485516323b872dd60e01b815233818a0190815230602082015293909204604084018190526001600160a01b03939092918591839186169082908f90829060600103925af1908115610a15578b916109f8575b50156109c557878a5260018352848a2085519260a0840184811067ffffffffffffffff8211176109b35787523384528484018b815284880189815260608601948552608086018e81528454909594919391680100000000000000008210156109a057906108d791600182018155611266565b96909661098f579261092b95926001989795928d9551166bffffffffffffffffffffffff60a01b875416178655518886015551600285015551600384015551151591019060ff801983541691151516179055565b868952528187205460001981019490851161097e575050519384526020840152604083015233917f545f734d8159ff541ae77cf938d903585bd0c7a54e682a1e0ef0ea319ac3cc1f908060608101610345565b634e487b7160e01b88526011905286fd5b634e487b7160e01b8f528e8c52888ffd5b50634e487b7160e01b8f5260418c52888ffd5b634e487b7160e01b8d5260418a52868dfd5b845162461bcd60e51b8152808801849052600e818601526d11195c1bdcda5d0819985a5b195960921b6044820152606490fd5b610a0f9150843d86116103eb576103dc8183611398565b38610865565b86513d8d823e3d90fd5b835162461bcd60e51b81528087018390526013818501527242656c6f77207265736572766520707269636560681b6044820152606490fd5b835162461bcd60e51b8152808701839052600f818501526e105d58dd1a5bdb88195e1c1a5c9959608a1b6044820152606490fd5b835162461bcd60e51b8152808701839052600e818501526d109a59191a5b99c818db1bdcd95960921b6044820152606490fd5b50829034610ba257610acf36611215565b610ae760018060a09594951b03600554163314611298565b8284528360205281842094610b08600160ff60028901541661017181611246565b6007860180549160ff8316610b1c81611246565b610b6f57507f8738d776cce75cc3caff5a102e7bb3c9e334cb3de5d75ad07ea33f14877c2537949596600a91600160ff19809516179055836006820155019081541690558151908152846020820152a280f35b606490602086519162461bcd60e51b8352820152600d60248201526c105b1c9958591e48195b991959609a1b6044820152fd5b5080fd5b50346101375760e0366003190112610137578135916001600160a01b0360243581811693919290849003610d7957604435906002821015610d7557606435936005541633148015610d60575b15610d1d578587528660205260ff600a848920015416610ce95791606093917f410dbdb796dd041f38774a0bb2a1dc0d5afdc27b2218476e361475cde07fcda695938789528860205283838a20866bffffffffffffffffffffffff60a01b8254161781558960018201556002810192610c6a85611246565b60ff19938481541660ff871617905560a4356008830155600a820160018582541617905560c435600b830155610c9f85611246565b84610cc5575060030155505b8151938452610cb981611246565b6020840152820152a280f35b91600792820155610cd8608435426112d1565b600582015501908154169055610cab565b606490602084519162461bcd60e51b8352820152600e60248201526d105b1c9958591e481b1a5cdd195960921b6044820152fd5b606490602084519162461bcd60e51b8352820152601e60248201527f4f6e6c79206f776e6572206f7220617574686f72697a6564207661756c7400006044820152fd5b50338752600660205260ff8388205416610bf2565b8680fd5b8580fd5b838234610ba25781600319360112610ba25760055490516001600160a01b039091168152602090f35b838234610ba25781600319360112610ba25760035490516001600160a01b039091168152602090f35b5034610137578060031936011261013757610de8611230565b9060243580151592838203610d79576005546001600160a01b039190610e119083163314611298565b16938415610e66575091602091610e5e7f18f47f52423fcea7fa18e18e69f46b50562f0a8090b20f6c3ddf12ba6ff84feb94868852600685528288209060ff801983541691151516179055565b51908152a280f35b606490602084519162461bcd60e51b83528201526015602482015274496e76616c6964207661756c74206164647265737360581b6044820152fd5b503461013757602036600319011261013757600a91610ecb60018060a01b03600554163314611298565b3583528260205282200160ff19815416905580f35b838234610ba2576020366003190112610ba25760209160ff9082906001600160a01b03610f0b611230565b1681526006855220541690519015158152f35b838234610ba25781600319360112610ba25760025490516001600160a01b039091168152602090f35b5090346101375760203660031901126101375760209282913581526001845220549051908152f35b50903461013757610f7f36611215565b9181855260209085825284862091600a830190610f9f60ff8354166112f4565b60ff600285015416610fb081611246565b6111dc57610fc4600b850154871015611335565b60088401805491610fdb6009870193845490611378565b88116111a4576003860154948981670de0b6b3a7640000610ffc8c8a611385565b04988d611052868c60018060a01b039687600354169085896002541691518096819582946323b872dd60e01b9c8d85523390850160409194939294606082019560018060a01b0380921683521660208201520152565b03925af1918215611199579161117c575b501561114857546002548d5192835283166001600160a01b0316938201938452336020850152604084018c9052909284928492169082908f90829060600103925af1801561113e57916103459593917f8a610281e414e4c68acb644552801a81e1c3b037d9da999c323ea58e5da1576d999a9b9593611120575b50506110ea8a83546112d1565b8092555414611112575b50519283923397846040919493926060820195825260208201520152565b805460ff19169055386110f4565b8161113692903d106103eb576103dc8183611398565b5038806110dd565b8a513d8d823e3d90fd5b8c5162461bcd60e51b8152808501869052600e60248201526d14185e5b595b9d0819985a5b195960921b6044820152606490fd5b6111939150863d88116103eb576103dc8183611398565b38611063565b8f51903d90823e3d90fd5b846064918a519162461bcd60e51b83528201526013602482015272496e73756666696369656e7420737570706c7960681b6044820152fd5b8260649188519162461bcd60e51b835282015260146024820152734e6f74206120737461746963206c697374696e6760601b6044820152fd5b604090600319011261122b576004359060243590565b600080fd5b600435906001600160a01b038216820361122b57565b6002111561125057565b634e487b7160e01b600052602160045260246000fd5b8054821015611282576000526005602060002091020190600090565b634e487b7160e01b600052603260045260246000fd5b1561129f57565b60405162461bcd60e51b815260206004820152600a60248201526927b7363c9037bbb732b960b11b6044820152606490fd5b919082018092116112de57565b634e487b7160e01b600052601160045260246000fd5b156112fb57565b60405162461bcd60e51b81526020600482015260126024820152714c697374696e67206e6f742061637469766560701b6044820152606490fd5b1561133c57565b60405162461bcd60e51b815260206004820152601460248201527310995b1bddc81b5a5b881a5b9d995cdd1b595b9d60621b6044820152606490fd5b919082039182116112de57565b818102929181159184041417156112de57565b90601f8019910116810190811067ffffffffffffffff8211176113ba57604052565b634e487b7160e01b600052604160045260246000fd5b9081602091031261122b5751801515810361122b5790565b156113ef57565b60405162461bcd60e51b815260206004820152600e60248201526d2737ba1030b71030bab1ba34b7b760911b6044820152606490fd5b1561142c57565b60405162461bcd60e51b815260206004820152600d60248201526c1499599d5b990819985a5b1959609a1b6044820152606490fdfe5dbb8446ff791512030d3f7ff8b3f0cc00535adbdfa664c3732452a746a1a614a2646970667358221220128b360d031fa2883ce3fd68f9fefc82c0f07793af6175a39a21056168c262ea64736f6c63430008140033",
  "linkReferences": {},
  "deployedLinkReferences": {}
}