{
  "_format": "hh-sol-artifact-1",
  "contractName": "PrimaryMarket",
  "sourceName": "contracts/marketplace/PrimaryMarket.sol",
  "abi": [
    {
      "inputs": [
        {
          "internalType": "address",
          "name": "_factory",
          "type": "address"
        },
        {
          "internalType": "address",
          "name": "_platformCustody",
          "type": "address"
        },
        {
          "internalType": "address",
          "name": "_USDC",
          "type": "address"
        }
      ],
      "stateMutability": "nonpayable",
      "type": "constructor"
    },
    {
      "anonymous": false,
      "inputs": [
        {
          "indexed": true,
          "internalType": "bytes32",
          "name": "assetId",
          "type": "bytes32"
        },
        {
          "indexed": false,
          "internalType": "uint256",
          "name": "clearingPrice",
          "type": "uint256"
        },
        {
          "indexed": false,
          "internalType": "uint256",
          "name": "totalTokensSold",
          "type": "uint256"
        }
      ],
      "name": "AuctionEnded",
      "type": "event"
    },
    {
      "anonymous": false,
      "inputs": [
        {
          "indexed": true,
          "internalType": "bytes32",
          "name": "assetId",
          "type": "bytes32"
        },
        {
          "indexed": true,
          "internalType": "address",
          "name": "bidder",
          "type": "address"
        },
        {
          "indexed": false,
          "internalType": "uint256",
          "name": "tokensReceived",
          "type": "uint256"
        },
        {
          "indexed": false,
          "internalType": "uint256",
          "name": "cost",
          "type": "uint256"
        },
        {
          "indexed": false,
          "internalType": "uint256",
          "name": "refund",
          "type": "uint256"
        }
      ],
      "name": "BidSettled",
      "type": "event"
    },
    {
      "anonymous": false,
      "inputs": [
        {
          "indexed": true,
          "internalType": "bytes32",
          "name": "assetId",
          "type": "bytes32"
        },
        {
          "indexed": true,
          "internalType": "address",
          "name": "bidder",
          "type": "address"
        },
        {
          "indexed": false,
          "internalType": "uint256",
          "name": "tokenAmount",
          "type": "uint256"
        },
        {
          "indexed": false,
          "internalType": "uint256",
          "name": "price",
          "type": "uint256"
        },
        {
          "indexed": false,
          "internalType": "uint256",
          "name": "bidIndex",
          "type": "uint256"
        }
      ],
      "name": "BidSubmitted",
      "type": "event"
    },
    {
      "anonymous": false,
      "inputs": [
        {
          "indexed": true,
          "internalType": "bytes32",
          "name": "assetId",
          "type": "bytes32"
        },
        {
          "indexed": false,
          "internalType": "address",
          "name": "tokenAddress",
          "type": "address"
        },
        {
          "indexed": false,
          "internalType": "enum PrimaryMarket.ListingType",
          "name": "listingType",
          "type": "uint8"
        },
        {
          "indexed": false,
          "internalType": "uint256",
          "name": "priceOrReserve",
          "type": "uint256"
        }
      ],
      "name": "ListingCreated",
      "type": "event"
    },
    {
      "anonymous": false,
      "inputs": [
        {
          "indexed": true,
          "internalType": "bytes32",
          "name": "assetId",
          "type": "bytes32"
        },
        {
          "indexed": true,
          "internalType": "address",
          "name": "buyer",
          "type": "address"
        },
        {
          "indexed": false,
          "internalType": "uint256",
          "name": "amount",
          "type": "uint256"
        },
        {
          "indexed": false,
          "internalType": "uint256",
          "name": "price",
          "type": "uint256"
        },
        {
          "indexed": false,
          "internalType": "uint256",
          "name": "totalPayment",
          "type": "uint256"
        }
      ],
      "name": "TokensPurchased",
      "type": "event"
    },
    {
      "inputs": [],
      "name": "USDC",
      "outputs": [
        {
          "internalType": "contract IERC20",
          "name": "",
          "type": "address"
        }
      ],
      "stateMutability": "view",
      "type": "function"
    },
    {
      "inputs": [
        {
          "internalType": "bytes32",
          "name": "",
          "type": "bytes32"
        },
        {
          "internalType": "uint256",
          "name": "",
          "type": "uint256"
        }
      ],
      "name": "bids",
      "outputs": [
        {
          "internalType": "address",
          "name": "bidder",
          "type": "address"
        },
        {
          "internalType": "uint256",
          "name": "tokenAmount",
          "type": "uint256"
        },
        {
          "internalType": "uint256",
          "name": "price",
          "type": "uint256"
        },
        {
          "internalType": "uint256",
          "name": "usdcDeposited",
          "type": "uint256"
        },
        {
          "internalType": "bool",
          "name": "settled",
          "type": "bool"
        }
      ],
      "stateMutability": "view",
      "type": "function"
    },
    {
      "inputs": [
        {
          "internalType": "bytes32",
          "name": "assetId",
          "type": "bytes32"
        },
        {
          "internalType": "uint256",
          "name": "amount",
          "type": "uint256"
        }
      ],
      "name": "buyTokens",
      "outputs": [],
      "stateMutability": "nonpayable",
      "type": "function"
    },
    {
      "inputs": [
        {
          "internalType": "bytes32",
          "name": "assetId",
          "type": "bytes32"
        }
      ],
      "name": "closeListing",
      "outputs": [],
      "stateMutability": "nonpayable",
      "type": "function"
    },
    {
      "inputs": [
        {
          "internalType": "bytes32",
          "name": "assetId",
          "type": "bytes32"
        },
        {
          "internalType": "address",
          "name": "tokenAddress",
          "type": "address"
        },
        {
          "internalType": "enum PrimaryMarket.ListingType",
          "name": "listingType",
          "type": "uint8"
        },
        {
          "internalType": "uint256",
          "name": "priceOrReserve",
          "type": "uint256"
        },
        {
          "internalType": "uint256",
          "name": "duration",
          "type": "uint256"
        },
        {
          "internalType": "uint256",
          "name": "totalSupply",
          "type": "uint256"
        },
        {
          "internalType": "uint256",
          "name": "minInvestment",
          "type": "uint256"
        }
      ],
      "name": "createListing",
      "outputs": [],
      "stateMutability": "nonpayable",
      "type": "function"
    },
    {
      "inputs": [
        {
          "internalType": "bytes32",
          "name": "assetId",
          "type": "bytes32"
        },
        {
          "internalType": "uint256",
          "name": "clearingPrice",
          "type": "uint256"
        }
      ],
      "name": "endAuction",
      "outputs": [],
      "stateMutability": "nonpayable",
      "type": "function"
    },
    {
      "inputs": [],
      "name": "factory",
      "outputs": [
        {
          "internalType": "address",
          "name": "",
          "type": "address"
        }
      ],
      "stateMutability": "view",
      "type": "function"
    },
    {
      "inputs": [
        {
          "internalType": "bytes32",
          "name": "assetId",
          "type": "bytes32"
        }
      ],
      "name": "getBidCount",
      "outputs": [
        {
          "internalType": "uint256",
          "name": "",
          "type": "uint256"
        }
      ],
      "stateMutability": "view",
      "type": "function"
    },
    {
      "inputs": [
        {
          "internalType": "bytes32",
          "name": "",
          "type": "bytes32"
        }
      ],
      "name": "listings",
      "outputs": [
        {
          "internalType": "address",
          "name": "tokenAddress",
          "type": "address"
        },
        {
          "internalType": "bytes32",
          "name": "assetId",
          "type": "bytes32"
        },
        {
          "internalType": "enum PrimaryMarket.ListingType",
          "name": "listingType",
          "type": "uint8"
        },
        {
          "internalType": "uint256",
          "name": "staticPrice",
          "type": "uint256"
        },
        {
          "internalType": "uint256",
          "name": "reservePrice",
          "type": "uint256"
        },
        {
          "internalType": "uint256",
          "name": "endTime",
          "type": "uint256"
        },
        {
          "internalType": "uint256",
          "name": "clearingPrice",
          "type": "uint256"
        },
        {
          "internalType": "enum PrimaryMarket.AuctionPhase",
          "name": "auctionPhase",
          "type": "uint8"
        },
        {
          "internalType": "uint256",
          "name": "totalSupply",
          "type": "uint256"
        },
        {
          "internalType": "uint256",
          "name": "sold",
          "type": "uint256"
        },
        {
          "internalType": "bool",
          "name": "active",
          "type": "bool"
        },
        {
          "internalType": "uint256",
          "name": "minInvestment",
          "type": "uint256"
        }
      ],
      "stateMutability": "view",
      "type": "function"
    },
    {
      "inputs": [],
      "name": "owner",
      "outputs": [
        {
          "internalType": "address",
          "name": "",
          "type": "address"
        }
      ],
      "stateMutability": "view",
      "type": "function"
    },
    {
      "inputs": [],
      "name": "platformCustody",
      "outputs": [
        {
          "internalType": "address",
          "name": "",
          "type": "address"
        }
      ],
      "stateMutability": "view",
      "type": "function"
    },
    {
      "inputs": [
        {
          "internalType": "bytes32",
          "name": "assetId",
          "type": "bytes32"
        },
        {
          "internalType": "uint256",
          "name": "bidIndex",
          "type": "uint256"
        }
      ],
      "name": "settleBid",
      "outputs": [],
      "stateMutability": "nonpayable",
      "type": "function"
    },
    {
      "inputs": [
        {
          "internalType": "bytes32",
          "name": "assetId",
          "type": "bytes32"
        },
        {
          "internalType": "uint256",
          "name": "tokenAmount",
          "type": "uint256"
        },
        {
          "internalType": "uint256",
          "name": "price",
          "type": "uint256"
        }
      ],
      "name": "submitBid",
      "outputs": [],
      "stateMutability": "nonpayable",
      "type": "function"
    }
  ],
  "bytecode": "0x60806040523480156200001157600080fd5b506040516200174e3803806200174e83398101604081905262000034916200009f565b600580546001600160a01b03199081163317909155600480546001600160a01b03958616908316179055600280549385169382169390931790925560038054919093169116179055620000e9565b80516001600160a01b03811681146200009a57600080fd5b919050565b600080600060608486031215620000b557600080fd5b620000c08462000082565b9250620000d06020850162000082565b9150620000e06040850162000082565b90509250925092565b61165580620000f96000396000f3fe608060405234801561001057600080fd5b50600436106100cf5760003560e01c80638ef481b71161008c578063c18b8db411610066578063c18b8db4146101b9578063c45a015514610252578063f69314be14610265578063f7e65b1c1461027857600080fd5b80638ef481b714610180578063a03f7d1914610193578063be0b4231146101a657600080fd5b806307f5d633146100d457806315659dde146100e9578063299aa1d71461011c5780633dddafa71461014757806389a302711461015a5780638da5cb5b1461016d575b600080fd5b6100e76100e2366004611315565b6102bf565b005b6101096100f7366004611337565b60009081526001602052604090205490565b6040519081526020015b60405180910390f35b60025461012f906001600160a01b031681565b6040516001600160a01b039091168152602001610113565b6100e7610155366004611337565b6105fa565b60035461012f906001600160a01b031681565b60055461012f906001600160a01b031681565b6100e761018e366004611350565b61063f565b6100e76101a1366004611315565b6107bb565b6100e76101b43660046113c5565b6108e7565b61023a6101c7366004611337565b600060208190529081526040902080546001820154600283015460038401546004850154600586015460068701546007880154600889015460098a0154600a8b0154600b909b01546001600160a01b03909a169a989960ff9889169997989697959694959385169492939192909116908c565b6040516101139c9b9a99989796959493929190611428565b60045461012f906001600160a01b031681565b6100e7610273366004611315565b610c68565b61028b610286366004611315565b6112ba565b604080516001600160a01b03909616865260208601949094529284019190915260608301521515608082015260a001610113565b6000828152602081905260409020600a81015460ff1661031b5760405162461bcd60e51b81526020600482015260126024820152714c697374696e67206e6f742061637469766560701b60448201526064015b60405180910390fd5b6000600282015460ff166001811115610336576103366113f1565b1461037a5760405162461bcd60e51b81526020600482015260146024820152734e6f74206120737461746963206c697374696e6760601b6044820152606401610312565b80600b01548210156103c55760405162461bcd60e51b815260206004820152601460248201527310995b1bddc81b5a5b881a5b9d995cdd1b595b9d60621b6044820152606401610312565b806009015481600801546103d991906114ba565b82111561041e5760405162461bcd60e51b8152602060048201526013602482015272496e73756666696369656e7420737570706c7960681b6044820152606401610312565b60038101546000670de0b6b3a764000061043885846114d3565b61044291906114ea565b6003546002546040516323b872dd60e01b81529293506001600160a01b03918216926323b872dd9261047d923392911690869060040161150c565b6020604051808303816000875af115801561049c573d6000803e3d6000fd5b505050506040513d601f19601f820116820180604052508101906104c09190611530565b6104fd5760405162461bcd60e51b815260206004820152600e60248201526d14185e5b595b9d0819985a5b195960921b6044820152606401610312565b82546002546040516323b872dd60e01b81526001600160a01b03928316926323b872dd92610534929116903390899060040161150c565b6020604051808303816000875af1158015610553573d6000803e3d6000fd5b505050506040513d601f19601f820116820180604052508101906105779190611530565b508383600901600082825461058c9190611559565b909155505060088301546009840154036105ad57600a8301805460ff191690555b6040805185815260208101849052908101829052339086907f8a610281e414e4c68acb644552801a81e1c3b037d9da999c323ea58e5da1576d906060015b60405180910390a35050505050565b6005546001600160a01b031633146106245760405162461bcd60e51b81526004016103129061156c565b6000908152602081905260409020600a01805460ff19169055565b6005546001600160a01b031633146106695760405162461bcd60e51b81526004016103129061156c565b6000878152602081905260409020600a015460ff16156106bc5760405162461bcd60e51b815260206004820152600e60248201526d105b1c9958591e481b1a5cdd195960921b6044820152606401610312565b600087815260208190526040902080546001600160a01b0319166001600160a01b0388161781556001808201899055600282018054889260ff1990911690838181111561070b5761070b6113f1565b021790555060088101839055600a8101805460ff19166001179055600b81018290556000866001811115610741576107416113f1565b036107525760038101859055610775565b600481018590556107638442611559565b600582015560078101805460ff191690555b877f410dbdb796dd041f38774a0bb2a1dc0d5afdc27b2218476e361475cde07fcda68888886040516107a993929190611590565b60405180910390a25050505050505050565b6005546001600160a01b031633146107e55760405162461bcd60e51b81526004016103129061156c565b60008281526020819052604090206001600282015460ff16600181111561080e5761080e6113f1565b1461082b5760405162461bcd60e51b8152600401610312906115ba565b6000600782015460ff166001811115610846576108466113f1565b146108835760405162461bcd60e51b815260206004820152600d60248201526c105b1c9958591e48195b991959609a1b6044820152606401610312565b60078101805460ff1990811660011790915560068201839055600a820180549091169055604080518381526000602082015284917f8738d776cce75cc3caff5a102e7bb3c9e334cb3de5d75ad07ea33f14877c2537910160405180910390a2505050565b6000838152602081905260409020600a81015460ff1661093e5760405162461bcd60e51b81526020600482015260126024820152714c697374696e67206e6f742061637469766560701b6044820152606401610312565b6001600282015460ff166001811115610959576109596113f1565b146109765760405162461bcd60e51b8152600401610312906115ba565b6000600782015460ff166001811115610991576109916113f1565b146109cf5760405162461bcd60e51b815260206004820152600e60248201526d109a59191a5b99c818db1bdcd95960921b6044820152606401610312565b80600501544210610a145760405162461bcd60e51b815260206004820152600f60248201526e105d58dd1a5bdb88195e1c1a5c9959608a1b6044820152606401610312565b8060040154821015610a5e5760405162461bcd60e51b815260206004820152601360248201527242656c6f77207265736572766520707269636560681b6044820152606401610312565b80600b0154831015610aa95760405162461bcd60e51b815260206004820152601460248201527310995b1bddc81b5a5b881a5b9d995cdd1b595b9d60621b6044820152606401610312565b6000670de0b6b3a7640000610abe85856114d3565b610ac891906114ea565b6003546040516323b872dd60e01b81529192506001600160a01b0316906323b872dd90610afd9033903090869060040161150c565b6020604051808303816000875af1158015610b1c573d6000803e3d6000fd5b505050506040513d601f19601f82011682018060405250810190610b409190611530565b610b7d5760405162461bcd60e51b815260206004820152600e60248201526d11195c1bdcda5d0819985a5b195960921b6044820152606401610312565b6000858152600160208181526040808420815160a081018352338082528185018b81529382018a815260608301898152608084018981528554808a018755868b52888b209551600590910290950180546001600160a01b0319166001600160a01b039096169590951785559551848901559051600284015551600383015592516004909101805460ff19169115159190911790559389905290829052915487917f545f734d8159ff541ae77cf938d903585bd0c7a54e682a1e0ef0ea319ac3cc1f9188918891610c4d91906114ba565b604080519384526020840192909252908201526060016105eb565b60008281526020819052604090206001600282015460ff166001811115610c9157610c916113f1565b14610cae5760405162461bcd60e51b8152600401610312906115ba565b6001600782015460ff166001811115610cc957610cc96113f1565b14610d0a5760405162461bcd60e51b8152602060048201526011602482015270105d58dd1a5bdb881b9bdd08195b991959607a1b6044820152606401610312565b6000838152600160205260408120805484908110610d2a57610d2a6115e2565b60009182526020909120600590910201600481015490915060ff1615610d845760405162461bcd60e51b815260206004820152600f60248201526e105b1c9958591e481cd95d1d1b1959608a1b6044820152606401610312565b80546001600160a01b0316331480610da657506005546001600160a01b031633145b610df25760405162461bcd60e51b815260206004820152601860248201527f4e6f7420617574686f72697a656420746f20736574746c6500000000000000006044820152606401610312565b60048101805460ff1916600117905560068201546002820154106111c257600181015460098301546008840154600091610e2b916114ba565b905080821115610e39578091505b81156110c9576000670de0b6b3a7640000838660060154610e5a91906114d3565b610e6491906114ea565b90506000818560030154610e7891906114ba565b905083866009016000828254610e8e9190611559565b9091555050855460025486546040516323b872dd60e01b81526001600160a01b03938416936323b872dd93610ece9390821692911690899060040161150c565b6020604051808303816000875af1158015610eed573d6000803e3d6000fd5b505050506040513d601f19601f82011682018060405250810190610f119190611530565b5060035460025460405163a9059cbb60e01b81526001600160a01b0391821660048201526024810185905291169063a9059cbb906044016020604051808303816000875af1158015610f67573d6000803e3d6000fd5b505050506040513d601f19601f82011682018060405250810190610f8b9190611530565b610fd75760405162461bcd60e51b815260206004820152601860248201527f506c6174666f726d207472616e73666572206661696c656400000000000000006044820152606401610312565b801561107157600354855460405163a9059cbb60e01b81526001600160a01b0391821660048201526024810184905291169063a9059cbb906044016020604051808303816000875af1158015611031573d6000803e3d6000fd5b505050506040513d601f19601f820116820180604052508101906110559190611530565b6110715760405162461bcd60e51b8152600401610312906115f8565b845460408051868152602081018590529081018390526001600160a01b039091169089907f5dbb8446ff791512030d3f7ff8b3f0cc00535adbdfa664c3732452a746a1a6149060600160405180910390a350506111bb565b6003805484549185015460405163a9059cbb60e01b81526001600160a01b039384166004820152602481019190915291169063a9059cbb906044016020604051808303816000875af1158015611123573d6000803e3d6000fd5b505050506040513d601f19601f820116820180604052508101906111479190611530565b6111635760405162461bcd60e51b8152600401610312906115f8565b825460038401546040805160008082526020820152908101919091526001600160a01b039091169087907f5dbb8446ff791512030d3f7ff8b3f0cc00535adbdfa664c3732452a746a1a6149060600160405180910390a35b50506112b4565b6003805482549183015460405163a9059cbb60e01b81526001600160a01b039384166004820152602481019190915291169063a9059cbb906044016020604051808303816000875af115801561121c573d6000803e3d6000fd5b505050506040513d601f19601f820116820180604052508101906112409190611530565b61125c5760405162461bcd60e51b8152600401610312906115f8565b805460038201546040805160008082526020820152908101919091526001600160a01b039091169085907f5dbb8446ff791512030d3f7ff8b3f0cc00535adbdfa664c3732452a746a1a6149060600160405180910390a35b50505050565b600160205281600052604060002081815481106112d657600080fd5b6000918252602090912060059091020180546001820154600283015460038401546004909401546001600160a01b039093169550909350919060ff1685565b6000806040838503121561132857600080fd5b50508035926020909101359150565b60006020828403121561134957600080fd5b5035919050565b600080600080600080600060e0888a03121561136b57600080fd5b8735965060208801356001600160a01b038116811461138957600080fd5b955060408801356002811061139d57600080fd5b969995985095966060810135965060808101359560a0820135955060c0909101359350915050565b6000806000606084860312156113da57600080fd5b505081359360208301359350604090920135919050565b634e487b7160e01b600052602160045260246000fd5b6002811061142557634e487b7160e01b600052602160045260246000fd5b50565b6001600160a01b038d168152602081018c905261018081016114498c611407565b8b60408301528a60608301528960808301528860a08301528760c083015261147087611407565b60e0820196909652610100810194909452610120840192909252151561014083015261016090910152979650505050505050565b634e487b7160e01b600052601160045260246000fd5b818103818111156114cd576114cd6114a4565b92915050565b80820281158282048414176114cd576114cd6114a4565b60008261150757634e487b7160e01b600052601260045260246000fd5b500490565b6001600160a01b039384168152919092166020820152604081019190915260600190565b60006020828403121561154257600080fd5b8151801515811461155257600080fd5b9392505050565b808201808211156114cd576114cd6114a4565b6020808252600a908201526927b7363c9037bbb732b960b11b604082015260600190565b6001600160a01b0384168152606081016115a984611407565b602082019390935260400152919050565b6020808252600e908201526d2737ba1030b71030bab1ba34b7b760911b604082015260600190565b634e487b7160e01b600052603260045260246000fd5b6020808252600d908201526c1499599d5b990819985a5b1959609a1b60408201526060019056fea26469706673582212206f9fe04c979296d9eeab45ecbc072644f2dcc442aae797676cd70bb74ae0337064736f6c63430008140033",
  "linkReferences": {},
  "deployedLinkReferences": {}
}