{
  "_format": "hh-sol-artifact-1",
  "contractName": "SeniorPool",
  "sourceName": "contracts/core/SeniorPool.sol",
  "abi": [
    {
      "inputs": [
        {
          "internalType": "address",
          "name": "_usdc",
          "type": "address"
        }
      ],
      "stateMutability": "nonpayable",
      "type": "constructor"
    },
    {
      "inputs": [
        {
          "internalType": "address",
          "name": "owner",
          "type": "address"
        }
      ],
      "name": "OwnableInvalidOwner",
      "type": "error"
    },
    {
      "inputs": [
        {
          "internalType": "address",
          "name": "account",
          "type": "address"
        }
      ],
      "name": "OwnableUnauthorizedAccount",
      "type": "error"
    },
    {
      "inputs": [],
      "name": "ReentrancyGuardReentrantCall",
      "type": "error"
    },
    {
      "anonymous": false,
      "inputs": [
        {
          "indexed": false,
          "internalType": "bool",
          "name": "enabled",
          "type": "bool"
        },
        {
          "indexed": false,
          "internalType": "uint256",
          "name": "multiplier",
          "type": "uint256"
        }
      ],
      "name": "DemoModeUpdated",
      "type": "event"
    },
    {
      "anonymous": false,
      "inputs": [
        {
          "indexed": true,
          "internalType": "uint256",
          "name": "positionId",
          "type": "uint256"
        },
        {
          "indexed": false,
          "internalType": "uint256",
          "name": "interest",
          "type": "uint256"
        }
      ],
      "name": "InterestAccrued",
      "type": "event"
    },
    {
      "anonymous": false,
      "inputs": [
        {
          "indexed": true,
          "internalType": "address",
          "name": "depositor",
          "type": "address"
        },
        {
          "indexed": false,
          "internalType": "uint256",
          "name": "amount",
          "type": "uint256"
        }
      ],
      "name": "LiquidityDeposited",
      "type": "event"
    },
    {
      "anonymous": false,
      "inputs": [
        {
          "indexed": true,
          "internalType": "address",
          "name": "withdrawer",
          "type": "address"
        },
        {
          "indexed": false,
          "internalType": "uint256",
          "name": "amount",
          "type": "uint256"
        }
      ],
      "name": "LiquidityWithdrawn",
      "type": "event"
    },
    {
      "anonymous": false,
      "inputs": [
        {
          "indexed": true,
          "internalType": "uint256",
          "name": "positionId",
          "type": "uint256"
        },
        {
          "indexed": false,
          "internalType": "uint256",
          "name": "amount",
          "type": "uint256"
        }
      ],
      "name": "LoanIssued",
      "type": "event"
    },
    {
      "anonymous": false,
      "inputs": [
        {
          "indexed": true,
          "internalType": "uint256",
          "name": "positionId",
          "type": "uint256"
        },
        {
          "indexed": false,
          "internalType": "uint256",
          "name": "principal",
          "type": "uint256"
        },
        {
          "indexed": false,
          "internalType": "uint256",
          "name": "interest",
          "type": "uint256"
        }
      ],
      "name": "LoanRepaid",
      "type": "event"
    },
    {
      "anonymous": false,
      "inputs": [
        {
          "indexed": true,
          "internalType": "address",
          "name": "previousOwner",
          "type": "address"
        },
        {
          "indexed": true,
          "internalType": "address",
          "name": "newOwner",
          "type": "address"
        }
      ],
      "name": "OwnershipTransferred",
      "type": "event"
    },
    {
      "inputs": [],
      "name": "APR",
      "outputs": [
        {
          "internalType": "uint256",
          "name": "",
          "type": "uint256"
        }
      ],
      "stateMutability": "view",
      "type": "function"
    },
    {
      "inputs": [],
      "name": "BASIS_POINTS",
      "outputs": [
        {
          "internalType": "uint256",
          "name": "",
          "type": "uint256"
        }
      ],
      "stateMutability": "view",
      "type": "function"
    },
    {
      "inputs": [],
      "name": "DEBT_CEILING",
      "outputs": [
        {
          "internalType": "uint256",
          "name": "",
          "type": "uint256"
        }
      ],
      "stateMutability": "view",
      "type": "function"
    },
    {
      "inputs": [],
      "name": "RESERVE_RATIO",
      "outputs": [
        {
          "internalType": "uint256",
          "name": "",
          "type": "uint256"
        }
      ],
      "stateMutability": "view",
      "type": "function"
    },
    {
      "inputs": [
        {
          "internalType": "uint256",
          "name": "positionId",
          "type": "uint256"
        }
      ],
      "name": "accrueInterest",
      "outputs": [],
      "stateMutability": "nonpayable",
      "type": "function"
    },
    {
      "inputs": [
        {
          "internalType": "uint256",
          "name": "positionId",
          "type": "uint256"
        },
        {
          "internalType": "uint256",
          "name": "amount",
          "type": "uint256"
        }
      ],
      "name": "borrow",
      "outputs": [],
      "stateMutability": "nonpayable",
      "type": "function"
    },
    {
      "inputs": [],
      "name": "demoMode",
      "outputs": [
        {
          "internalType": "bool",
          "name": "",
          "type": "bool"
        }
      ],
      "stateMutability": "view",
      "type": "function"
    },
    {
      "inputs": [
        {
          "internalType": "uint256",
          "name": "amount",
          "type": "uint256"
        }
      ],
      "name": "depositLiquidity",
      "outputs": [],
      "stateMutability": "nonpayable",
      "type": "function"
    },
    {
      "inputs": [
        {
          "internalType": "uint256",
          "name": "positionId",
          "type": "uint256"
        }
      ],
      "name": "getAccruedInterest",
      "outputs": [
        {
          "internalType": "uint256",
          "name": "",
          "type": "uint256"
        }
      ],
      "stateMutability": "view",
      "type": "function"
    },
    {
      "inputs": [],
      "name": "getAvailableLiquidity",
      "outputs": [
        {
          "internalType": "uint256",
          "name": "",
          "type": "uint256"
        }
      ],
      "stateMutability": "view",
      "type": "function"
    },
    {
      "inputs": [
        {
          "internalType": "uint256",
          "name": "positionId",
          "type": "uint256"
        }
      ],
      "name": "getOutstandingDebt",
      "outputs": [
        {
          "internalType": "uint256",
          "name": "",
          "type": "uint256"
        }
      ],
      "stateMutability": "view",
      "type": "function"
    },
    {
      "inputs": [],
      "name": "getPoolStats",
      "outputs": [
        {
          "internalType": "uint256",
          "name": "",
          "type": "uint256"
        },
        {
          "internalType": "uint256",
          "name": "",
          "type": "uint256"
        },
        {
          "internalType": "uint256",
          "name": "",
          "type": "uint256"
        },
        {
          "internalType": "uint256",
          "name": "",
          "type": "uint256"
        }
      ],
      "stateMutability": "view",
      "type": "function"
    },
    {
      "inputs": [],
      "name": "leverageVault",
      "outputs": [
        {
          "internalType": "address",
          "name": "",
          "type": "address"
        }
      ],
      "stateMutability": "view",
      "type": "function"
    },
    {
      "inputs": [
        {
          "internalType": "uint256",
          "name": "",
          "type": "uint256"
        }
      ],
      "name": "loans",
      "outputs": [
        {
          "internalType": "uint256",
          "name": "principal",
          "type": "uint256"
        },
        {
          "internalType": "uint256",
          "name": "interestAccrued",
          "type": "uint256"
        },
        {
          "internalType": "uint256",
          "name": "lastUpdateTime",
          "type": "uint256"
        },
        {
          "internalType": "bool",
          "name": "active",
          "type": "bool"
        }
      ],
      "stateMutability": "view",
      "type": "function"
    },
    {
      "inputs": [],
      "name": "owner",
      "outputs": [
        {
          "internalType": "address",
          "name": "",
          "type": "address"
        }
      ],
      "stateMutability": "view",
      "type": "function"
    },
    {
      "inputs": [],
      "name": "renounceOwnership",
      "outputs": [],
      "stateMutability": "nonpayable",
      "type": "function"
    },
    {
      "inputs": [
        {
          "internalType": "uint256",
          "name": "positionId",
          "type": "uint256"
        },
        {
          "internalType": "uint256",
          "name": "amount",
          "type": "uint256"
        }
      ],
      "name": "repay",
      "outputs": [
        {
          "internalType": "uint256",
          "name": "principal",
          "type": "uint256"
        },
        {
          "internalType": "uint256",
          "name": "interest",
          "type": "uint256"
        }
      ],
      "stateMutability": "nonpayable",
      "type": "function"
    },
    {
      "inputs": [
        {
          "internalType": "bool",
          "name": "_enabled",
          "type": "bool"
        },
        {
          "internalType": "uint256",
          "name": "_multiplier",
          "type": "uint256"
        }
      ],
      "name": "setDemoMode",
      "outputs": [],
      "stateMutability": "nonpayable",
      "type": "function"
    },
    {
      "inputs": [
        {
          "internalType": "address",
          "name": "_leverageVault",
          "type": "address"
        }
      ],
      "name": "setLeverageVault",
      "outputs": [],
      "stateMutability": "nonpayable",
      "type": "function"
    },
    {
      "inputs": [
        {
          "internalType": "address",
          "name": "_solvencyVault",
          "type": "address"
        }
      ],
      "name": "setSolvencyVault",
      "outputs": [],
      "stateMutability": "nonpayable",
      "type": "function"
    },
    {
      "inputs": [],
      "name": "solvencyVault",
      "outputs": [
        {
          "internalType": "address",
          "name": "",
          "type": "address"
        }
      ],
      "stateMutability": "view",
      "type": "function"
    },
    {
      "inputs": [],
      "name": "timeMultiplier",
      "outputs": [
        {
          "internalType": "uint256",
          "name": "",
          "type": "uint256"
        }
      ],
      "stateMutability": "view",
      "type": "function"
    },
    {
      "inputs": [],
      "name": "totalBorrowed",
      "outputs": [
        {
          "internalType": "uint256",
          "name": "",
          "type": "uint256"
        }
      ],
      "stateMutability": "view",
      "type": "function"
    },
    {
      "inputs": [],
      "name": "totalInterestEarned",
      "outputs": [
        {
          "internalType": "uint256",
          "name": "",
          "type": "uint256"
        }
      ],
      "stateMutability": "view",
      "type": "function"
    },
    {
      "inputs": [],
      "name": "totalLiquidity",
      "outputs": [
        {
          "internalType": "uint256",
          "name": "",
          "type": "uint256"
        }
      ],
      "stateMutability": "view",
      "type": "function"
    },
    {
      "inputs": [
        {
          "internalType": "address",
          "name": "newOwner",
          "type": "address"
        }
      ],
      "name": "transferOwnership",
      "outputs": [],
      "stateMutability": "nonpayable",
      "type": "function"
    },
    {
      "inputs": [],
      "name": "usdc",
      "outputs": [
        {
          "internalType": "contract IERC20",
          "name": "",
          "type": "address"
        }
      ],
      "stateMutability": "view",
      "type": "function"
    },
    {
      "inputs": [
        {
          "internalType": "uint256",
          "name": "amount",
          "type": "uint256"
        }
      ],
      "name": "withdrawLiquidity",
      "outputs": [],
      "stateMutability": "nonpayable",
      "type": "function"
    }
  ],
  "bytecode": "0x6080346100d957601f61131f38819003918201601f19168301916001600160401b038311848410176100de578084926020946040528339810103126100d957516001600160a01b0390818116908190036100d95733156100c05760005460018060a01b0319903382821617600055604051933391167f8be0079c531659141344cd1fd0a4f28419497f9722a3daafe3b4186f6b6457e0600080a360018055600254161760025560ff19600954166009556001600a5561122a90816100f58239f35b604051631e4fbdf760e01b815260006004820152602490fd5b600080fd5b634e487b7160e01b600052604160045260246000fdfe6040608081526004908136101561001557600080fd5b600091823560e01c9081630a861f2a14610c1d5781630ecbcdab14610a2f57816315770f9214610a10578163178cf18b146109715781632077997b146108d85781633e413bee146108af578163424f04741461088f57816344452ba11461086757816344ba06d5146108435781634c19386c14610824578163715018a6146107ca57816376d58e1a146106d65781638da5cb5b146106ae5781639339ea691461068e5781639b745aec14610671578163b7d93f3414610652578163bbb8518814610616578163bd30558e146105f9578163d5595157146105d2578163d8aed145146103a9578163e0dc17501461036e578163e1ec3c681461031f578163e1f1c4a714610302578163e37dbfd9146102e5578163ec18c987146102c6578163f01ad8a314610215578163f2fde38b14610182575063ff1b0d3c1461015757600080fd5b3461017e578160031936011261017e5760035490516001600160a01b039091168152602090f35b5080fd5b91905034610211576020366003190112610211576001600160a01b0382358181169391929084900361020d576101b6610d79565b83156101f757505082546001600160a01b0319811683178455167f8be0079c531659141344cd1fd0a4f28419497f9722a3daafe3b4186f6b6457e08380a380f35b51631e4fbdf760e01b8152908101849052602490fd5b8480fd5b8280fd5b83833461017e578060031936011261017e578235801515809103610211576024359361023f610d79565b841561028a57507f2c714700740a6038882896a4df5e73c46d1fbb5a3472fc0c487bb6cb0f4fa8fb929360ff196009541660ff83161760095580600a5582519182526020820152a180f35b606490602084519162461bcd60e51b8352820152601660248201527504d756c7469706c696572206d757374206265203e20360541b6044820152fd5b50503461017e578160031936011261017e57602090600a549051908152f35b50503461017e578160031936011261017e57602090516107d08152f35b50503461017e578160031936011261017e57602090516127108152f35b9050346102115760203660031901126102115760809282913581526008602052209081549160018101549160ff6003600284015493015416928151948552602085015283015215156060820152f35b91905034610211576020366003190112610211576103a160ff60036103a694359384875260086020528620015416610f6a565b6110df565b80f35b905082346105cf576103ba36610d5e565b6003546001600160a01b03939291908416331480156105c3575b6103dd90610f26565b6103e5610ef6565b8183526020926008845261040160ff6003898420015416610f6a565b61040a836110df565b8281526008845286812091825496600184019788549061042a8282610ed3565b841161058a578184116105615750508186916104b99398859a61044e848254610f19565b90555b61045d8b600654610f19565b60065561046c8a600754610ed3565b60075561047b8a600554610ed3565b6005556002548c516323b872dd60e01b8152339381019384523060208501526040840194909452929485939190911691839187918391606090910190565b03925af191821561055657906104d492610529575b50610e90565b805415610518575b507fd9cfbcfb9ae5d65b8d34072de4575f602ee25cf3715bc05c291701fe9e258f9a8580518681528585820152a2600180558351928352820152f35b600301805460ff19169055856104dc565b6105499150853d871161054f575b6105418183610e56565b810190610e78565b886104ce565b503d610537565b8851903d90823e3d90fd5b918198610583869b8a9561057a6104b998969d87610f19565b9d8e9255610f19565b8755610451565b8a5162461bcd60e51b81528084018990526013602482015272105b5bdd5b9d08195e18d959591cc81919589d606a1b6044820152606490fd5b508454841633146103d4565b80fd5b8284346105cf5760203660031901126105cf57506105f260209235610fa8565b9051908152f35b50503461017e578160031936011261017e57602090516101f48152f35b50503461017e578160031936011261017e57600554600654608092610639611086565b9060075492815194855260208501528301526060820152f35b50503461017e578160031936011261017e576020906007549051908152f35b50503461017e578160031936011261017e576020906105f2611086565b8284346105cf5760203660031901126105cf57506105f26020923561101a565b50503461017e578160031936011261017e57905490516001600160a01b039091168152602090f35b91905034610211576020366003190112610211576107466020833580946106fb610ef6565b610706821515610de3565b60025485516323b872dd60e01b8152339281019283523060208401526040830193909352919384926001600160a01b031691839189918391606090910190565b03925af19081156107c057906107629185916107a25750610e90565b61076e82600554610ed3565b600555519081527f7ff07ce9a287649537e4b012e45cf012d90228b12e2b56bb03515a6b5436fcdf60203392a26001805580f35b6107ba915060203d811161054f576105418183610e56565b386104ce565b82513d86823e3d90fd5b83346105cf57806003193601126105cf576107e3610d79565b80546001600160a01b03198116825581906001600160a01b03167f8be0079c531659141344cd1fd0a4f28419497f9722a3daafe3b4186f6b6457e08280a380f35b50503461017e578160031936011261017e576020906006549051908152f35b50503461017e578160031936011261017e5760209060ff6009541690519015158152f35b9050346102115782600319360112610211575490516001600160a01b03909116815260209150f35b50503461017e578160031936011261017e576020905164174876e8008152f35b50503461017e578160031936011261017e5760025490516001600160a01b039091168152602090f35b91905034610211576020366003190112610211576001600160a01b038235818116929083900361020d5761090a610d79565b835491821661092f575061091f821515610da5565b6001600160a01b03191617905580f35b5162461bcd60e51b8152602081850152601960248201527f536f6c76656e63795661756c7420616c726561647920736574000000000000006044820152606490fd5b91905034610211576020366003190112610211576001600160a01b0382358181169391929084900361020d576109a5610d79565b6003549283166109cd5750506109bc821515610da5565b6001600160a01b0319161760035580f35b906020606492519162461bcd60e51b8352820152601960248201527f4c657665726167655661756c7420616c726561647920736574000000000000006044820152fd5b50503461017e578160031936011261017e576020906005549051908152f35b90503461021157610a3f36610d5e565b909160018060a01b0390816003541633148015610c11575b610a6090610f26565b610a68610ef6565b610a73831515610de3565b64174876e8008311610bd757610a87611086565b8311610b9b578291600393610b2f92875192610aa284610e24565b82845287602097858c8a8098018181528d80840192428452606085019660018852815260088b522092518355516001830155516002820155019051151560ff80198354169116179055610af783600654610ed3565b600655600254895163a9059cbb60e01b815233938101938452602084019490945292948593919091169183918b918391604090910190565b03925af1908115610b91577f3193f054f7906bf87160b9766571c0ff71a02c7c4f1bc65876a94521691b603c949591610b6e918891610b7a5750610e90565b51908152a26001805580f35b6107ba9150853d871161054f576105418183610e56565b85513d88823e3d90fd5b606490602086519162461bcd60e51b83528201526016602482015275496e73756666696369656e74206c697175696469747960501b6044820152fd5b606490602086519162461bcd60e51b83528201526014602482015273457863656564732064656274206365696c696e6760601b6044820152fd5b50805482163314610a57565b90503461021157602080600319360112610d5a57813591610c3c610d79565b610c44610ef6565b610c4f831515610de3565b610c57611086565b8311610d1a578183610cac92610c6f82600554610f19565b600555600254875163a9059cbb60e01b8152339281019283526020830193909352919384926001600160a01b03169183918a918391604090910190565b03925af1908115610d10577fb1cce8684b4ffa8667b4577654e61ee3480d661ee9c27522ac80e211f6bd4d25939491610ceb918791610cf95750610e90565b519283523392a26001805580f35b6107ba9150843d861161054f576105418183610e56565b84513d87823e3d90fd5b8160649285519262461bcd60e51b845283015260248201527f496e73756666696369656e7420617661696c61626c65206c69717569646974796044820152fd5b8380fd5b6040906003190112610d74576004359060243590565b600080fd5b6000546001600160a01b03163303610d8d57565b60405163118cdaa760e01b8152336004820152602490fd5b15610dac57565b60405162461bcd60e51b815260206004820152600f60248201526e496e76616c6964206164647265737360881b6044820152606490fd5b15610dea57565b60405162461bcd60e51b81526020600482015260126024820152710416d6f756e74206d757374206265203e20360741b6044820152606490fd5b6080810190811067ffffffffffffffff821117610e4057604052565b634e487b7160e01b600052604160045260246000fd5b90601f8019910116810190811067ffffffffffffffff821117610e4057604052565b90816020910312610d7457518015158103610d745790565b15610e9757565b60405162461bcd60e51b81526020600482015260146024820152731554d110c81d1c985b9cd9995c8819985a5b195960621b6044820152606490fd5b91908201809211610ee057565b634e487b7160e01b600052601160045260246000fd5b600260015414610f07576002600155565b604051633ee5aeb560e01b8152600490fd5b91908203918211610ee057565b15610f2d57565b60405162461bcd60e51b815260206004820152601560248201527413db9b1e48185d5d1a1bdc9a5e9959081d985d5b1d605a1b6044820152606490fd5b15610f7157565b60405162461bcd60e51b815260206004820152600f60248201526e4c6f616e206e6f742061637469766560881b6044820152606490fd5b80600052600860205260406000209060ff600383015416156110135761100b6110109261100160405193610fdb85610e24565b825485526002600184015493602087019485520154604086015260016060860152611146565b9251905190610ed3565b610ed3565b90565b5050600090565b806000526008602052604060002060ff600382015416156110135761106c611010926001606060405161104c81610e24565b855481526002838701549660208301978852015460408201520152611146565b9051610ed3565b81810292918115918404141715610ee057565b6006546107d0808202908282041482151715610ee05760055461271090910491600091818111156110d7576110bb9250610f19565b905b600091818111156110d2576110109250610f19565b505090565b5050906110bd565b80600052600860205260406000206110f682611146565b908161110157505050565b7f3d8708181c6452c5711a2b4c6ed3f12149f6ea35f78549aba00a89d041e766ca9181600160209301611135838254610ed3565b9055600242910155604051908152a2565b600052600860205260406000206040519061116082610e24565b80548083526001820154602084015260ff60036002840154938460408701520154161590811591826060860152916111eb575b50611013576111a29042610f19565b9060ff600954166111d7575b516101f490818102918183041490151715610ee05764496cebb800916111d391611073565b0490565b906111e590600a5490611073565b906111ae565b9050153861119356fea2646970667358221220a9827413f4bfe0e6384072680c89d8bae89e23bc5d75c0095894d0758ac9a75d64736f6c63430008140033",
  "linkReferences": {},
  "deployedLinkReferences": {}
}