{
  "_format": "hh-sol-artifact-1",
  "contractName": "SolvencyVault",
  "sourceName": "contracts/core/SolvencyVault.sol",
  "abi": [
    {
      "inputs": [
        {
          "internalType": "address",
          "name": "_usdc",
          "type": "address"
        },
        {
          "internalType": "address",
          "name": "_seniorPool",
          "type": "address"
        }
      ],
      "stateMutability": "nonpayable",
      "type": "constructor"
    },
    {
      "inputs": [
        {
          "internalType": "address",
          "name": "owner",
          "type": "address"
        }
      ],
      "name": "OwnableInvalidOwner",
      "type": "error"
    },
    {
      "inputs": [
        {
          "internalType": "address",
          "name": "account",
          "type": "address"
        }
      ],
      "name": "OwnableUnauthorizedAccount",
      "type": "error"
    },
    {
      "inputs": [],
      "name": "ReentrancyGuardReentrantCall",
      "type": "error"
    },
    {
      "anonymous": false,
      "inputs": [
        {
          "indexed": true,
          "internalType": "uint256",
          "name": "positionId",
          "type": "uint256"
        },
        {
          "indexed": true,
          "internalType": "address",
          "name": "user",
          "type": "address"
        },
        {
          "indexed": false,
          "internalType": "uint256",
          "name": "amount",
          "type": "uint256"
        }
      ],
      "name": "CollateralWithdrawn",
      "type": "event"
    },
    {
      "anonymous": false,
      "inputs": [
        {
          "indexed": true,
          "internalType": "uint256",
          "name": "positionId",
          "type": "uint256"
        },
        {
          "indexed": false,
          "internalType": "uint256",
          "name": "amount",
          "type": "uint256"
        },
        {
          "indexed": false,
          "internalType": "uint256",
          "name": "principal",
          "type": "uint256"
        },
        {
          "indexed": false,
          "internalType": "uint256",
          "name": "interest",
          "type": "uint256"
        },
        {
          "indexed": false,
          "internalType": "uint256",
          "name": "remainingDebt",
          "type": "uint256"
        }
      ],
      "name": "LoanRepaid",
      "type": "event"
    },
    {
      "anonymous": false,
      "inputs": [
        {
          "indexed": true,
          "internalType": "uint256",
          "name": "positionId",
          "type": "uint256"
        },
        {
          "indexed": false,
          "internalType": "uint256",
          "name": "creditLineId",
          "type": "uint256"
        },
        {
          "indexed": false,
          "internalType": "uint256",
          "name": "creditLimit",
          "type": "uint256"
        }
      ],
      "name": "OAIDCreditIssued",
      "type": "event"
    },
    {
      "anonymous": false,
      "inputs": [
        {
          "indexed": true,
          "internalType": "address",
          "name": "previousOwner",
          "type": "address"
        },
        {
          "indexed": true,
          "internalType": "address",
          "name": "newOwner",
          "type": "address"
        }
      ],
      "name": "OwnershipTransferred",
      "type": "event"
    },
    {
      "anonymous": false,
      "inputs": [
        {
          "indexed": true,
          "internalType": "uint256",
          "name": "positionId",
          "type": "uint256"
        },
        {
          "indexed": true,
          "internalType": "address",
          "name": "user",
          "type": "address"
        },
        {
          "indexed": false,
          "internalType": "address",
          "name": "collateralToken",
          "type": "address"
        },
        {
          "indexed": false,
          "internalType": "uint256",
          "name": "collateralAmount",
          "type": "uint256"
        },
        {
          "indexed": false,
          "internalType": "uint256",
          "name": "tokenValueUSD",
          "type": "uint256"
        },
        {
          "indexed": false,
          "internalType": "enum SolvencyVault.TokenType",
          "name": "tokenType",
          "type": "uint8"
        }
      ],
      "name": "PositionCreated",
      "type": "event"
    },
    {
      "anonymous": false,
      "inputs": [
        {
          "indexed": true,
          "internalType": "uint256",
          "name": "positionId",
          "type": "uint256"
        },
        {
          "indexed": false,
          "internalType": "bytes32",
          "name": "marketplaceAssetId",
          "type": "bytes32"
        },
        {
          "indexed": false,
          "internalType": "uint256",
          "name": "discountedPrice",
          "type": "uint256"
        }
      ],
      "name": "PositionLiquidated",
      "type": "event"
    },
    {
      "anonymous": false,
      "inputs": [
        {
          "indexed": true,
          "internalType": "uint256",
          "name": "positionId",
          "type": "uint256"
        },
        {
          "indexed": false,
          "internalType": "uint256",
          "name": "amount",
          "type": "uint256"
        },
        {
          "indexed": false,
          "internalType": "uint256",
          "name": "totalDebt",
          "type": "uint256"
        }
      ],
      "name": "USDCBorrowed",
      "type": "event"
    },
    {
      "inputs": [],
      "name": "BASIS_POINTS",
      "outputs": [
        {
          "internalType": "uint256",
          "name": "",
          "type": "uint256"
        }
      ],
      "stateMutability": "view",
      "type": "function"
    },
    {
      "inputs": [],
      "name": "LIQUIDATION_THRESHOLD",
      "outputs": [
        {
          "internalType": "uint256",
          "name": "",
          "type": "uint256"
        }
      ],
      "stateMutability": "view",
      "type": "function"
    },
    {
      "inputs": [],
      "name": "PRIVATE_ASSET_LTV",
      "outputs": [
        {
          "internalType": "uint256",
          "name": "",
          "type": "uint256"
        }
      ],
      "stateMutability": "view",
      "type": "function"
    },
    {
      "inputs": [],
      "name": "RWA_LTV",
      "outputs": [
        {
          "internalType": "uint256",
          "name": "",
          "type": "uint256"
        }
      ],
      "stateMutability": "view",
      "type": "function"
    },
    {
      "inputs": [
        {
          "internalType": "uint256",
          "name": "positionId",
          "type": "uint256"
        },
        {
          "internalType": "uint256",
          "name": "amount",
          "type": "uint256"
        }
      ],
      "name": "borrowUSDC",
      "outputs": [],
      "stateMutability": "nonpayable",
      "type": "function"
    },
    {
      "inputs": [
        {
          "internalType": "address",
          "name": "collateralToken",
          "type": "address"
        },
        {
          "internalType": "uint256",
          "name": "collateralAmount",
          "type": "uint256"
        },
        {
          "internalType": "uint256",
          "name": "tokenValueUSD",
          "type": "uint256"
        },
        {
          "internalType": "enum SolvencyVault.TokenType",
          "name": "tokenType",
          "type": "uint8"
        },
        {
          "internalType": "bool",
          "name": "issueOAID",
          "type": "bool"
        }
      ],
      "name": "depositCollateral",
      "outputs": [
        {
          "internalType": "uint256",
          "name": "positionId",
          "type": "uint256"
        }
      ],
      "stateMutability": "nonpayable",
      "type": "function"
    },
    {
      "inputs": [
        {
          "internalType": "uint256",
          "name": "positionId",
          "type": "uint256"
        }
      ],
      "name": "getHealthFactor",
      "outputs": [
        {
          "internalType": "uint256",
          "name": "",
          "type": "uint256"
        }
      ],
      "stateMutability": "view",
      "type": "function"
    },
    {
      "inputs": [
        {
          "internalType": "uint256",
          "name": "positionId",
          "type": "uint256"
        }
      ],
      "name": "getMaxBorrow",
      "outputs": [
        {
          "internalType": "uint256",
          "name": "",
          "type": "uint256"
        }
      ],
      "stateMutability": "view",
      "type": "function"
    },
    {
      "inputs": [
        {
          "internalType": "uint256",
          "name": "positionId",
          "type": "uint256"
        }
      ],
      "name": "getPosition",
      "outputs": [
        {
          "components": [
            {
              "internalType": "address",
              "name": "user",
              "type": "address"
            },
            {
              "internalType": "address",
              "name": "collateralToken",
              "type": "address"
            },
            {
              "internalType": "uint256",
              "name": "collateralAmount",
              "type": "uint256"
            },
            {
              "internalType": "uint256",
              "name": "usdcBorrowed",
              "type": "uint256"
            },
            {
              "internalType": "uint256",
              "name": "tokenValueUSD",
              "type": "uint256"
            },
            {
              "internalType": "uint256",
              "name": "createdAt",
              "type": "uint256"
            },
            {
              "internalType": "bool",
              "name": "active",
              "type": "bool"
            },
            {
              "internalType": "enum SolvencyVault.TokenType",
              "name": "tokenType",
              "type": "uint8"
            }
          ],
          "internalType": "struct SolvencyVault.Position",
          "name": "",
          "type": "tuple"
        }
      ],
      "stateMutability": "view",
      "type": "function"
    },
    {
      "inputs": [
        {
          "internalType": "uint256",
          "name": "positionId",
          "type": "uint256"
        },
        {
          "internalType": "bytes32",
          "name": "marketplaceAssetId",
          "type": "bytes32"
        }
      ],
      "name": "liquidatePosition",
      "outputs": [],
      "stateMutability": "nonpayable",
      "type": "function"
    },
    {
      "inputs": [
        {
          "internalType": "uint256",
          "name": "",
          "type": "uint256"
        }
      ],
      "name": "liquidationListings",
      "outputs": [
        {
          "internalType": "bytes32",
          "name": "",
          "type": "bytes32"
        }
      ],
      "stateMutability": "view",
      "type": "function"
    },
    {
      "inputs": [],
      "name": "nextPositionId",
      "outputs": [
        {
          "internalType": "uint256",
          "name": "",
          "type": "uint256"
        }
      ],
      "stateMutability": "view",
      "type": "function"
    },
    {
      "inputs": [],
      "name": "oaid",
      "outputs": [
        {
          "internalType": "address",
          "name": "",
          "type": "address"
        }
      ],
      "stateMutability": "view",
      "type": "function"
    },
    {
      "inputs": [],
      "name": "owner",
      "outputs": [
        {
          "internalType": "address",
          "name": "",
          "type": "address"
        }
      ],
      "stateMutability": "view",
      "type": "function"
    },
    {
      "inputs": [
        {
          "internalType": "uint256",
          "name": "",
          "type": "uint256"
        }
      ],
      "name": "positions",
      "outputs": [
        {
          "internalType": "address",
          "name": "user",
          "type": "address"
        },
        {
          "internalType": "address",
          "name": "collateralToken",
          "type": "address"
        },
        {
          "internalType": "uint256",
          "name": "collateralAmount",
          "type": "uint256"
        },
        {
          "internalType": "uint256",
          "name": "usdcBorrowed",
          "type": "uint256"
        },
        {
          "internalType": "uint256",
          "name": "tokenValueUSD",
          "type": "uint256"
        },
        {
          "internalType": "uint256",
          "name": "createdAt",
          "type": "uint256"
        },
        {
          "internalType": "bool",
          "name": "active",
          "type": "bool"
        },
        {
          "internalType": "enum SolvencyVault.TokenType",
          "name": "tokenType",
          "type": "uint8"
        }
      ],
      "stateMutability": "view",
      "type": "function"
    },
    {
      "inputs": [],
      "name": "primaryMarket",
      "outputs": [
        {
          "internalType": "address",
          "name": "",
          "type": "address"
        }
      ],
      "stateMutability": "view",
      "type": "function"
    },
    {
      "inputs": [
        {
          "internalType": "uint256",
          "name": "positionId",
          "type": "uint256"
        },
        {
          "internalType": "uint256",
          "name": "saleProceeds",
          "type": "uint256"
        }
      ],
      "name": "processLiquidationSettlement",
      "outputs": [],
      "stateMutability": "nonpayable",
      "type": "function"
    },
    {
      "inputs": [],
      "name": "renounceOwnership",
      "outputs": [],
      "stateMutability": "nonpayable",
      "type": "function"
    },
    {
      "inputs": [
        {
          "internalType": "uint256",
          "name": "positionId",
          "type": "uint256"
        },
        {
          "internalType": "uint256",
          "name": "amount",
          "type": "uint256"
        }
      ],
      "name": "repayLoan",
      "outputs": [],
      "stateMutability": "nonpayable",
      "type": "function"
    },
    {
      "inputs": [],
      "name": "seniorPool",
      "outputs": [
        {
          "internalType": "address",
          "name": "",
          "type": "address"
        }
      ],
      "stateMutability": "view",
      "type": "function"
    },
    {
      "inputs": [
        {
          "internalType": "address",
          "name": "_oaid",
          "type": "address"
        }
      ],
      "name": "setOAID",
      "outputs": [],
      "stateMutability": "nonpayable",
      "type": "function"
    },
    {
      "inputs": [
        {
          "internalType": "address",
          "name": "_primaryMarket",
          "type": "address"
        }
      ],
      "name": "setPrimaryMarket",
      "outputs": [],
      "stateMutability": "nonpayable",
      "type": "function"
    },
    {
      "inputs": [
        {
          "internalType": "address",
          "name": "newOwner",
          "type": "address"
        }
      ],
      "name": "transferOwnership",
      "outputs": [],
      "stateMutability": "nonpayable",
      "type": "function"
    },
    {
      "inputs": [],
      "name": "usdc",
      "outputs": [
        {
          "internalType": "contract IERC20",
          "name": "",
          "type": "address"
        }
      ],
      "stateMutability": "view",
      "type": "function"
    },
    {
      "inputs": [
        {
          "internalType": "uint256",
          "name": "positionId",
          "type": "uint256"
        },
        {
          "internalType": "uint256",
          "name": "amount",
          "type": "uint256"
        }
      ],
      "name": "withdrawCollateral",
      "outputs": [],
      "stateMutability": "nonpayable",
      "type": "function"
    }
  ],
  "bytecode": "0x608034620000f557601f62001d5f38819003918201601f19168301916001600160401b03831184841017620000fa578084926040948552833981010312620000f5576200005a6020620000528362000110565b920162000110565b3315620000dc5760008054336001600160a01b0319808316821784556040519590946001600160a01b03949093859391908416907f8be0079c531659141344cd1fd0a4f28419497f9722a3daafe3b4186f6b6457e09080a36001805516836002541617600255169060035416176003556001600755611c399081620001268239f35b604051631e4fbdf760e01b815260006004820152602490fd5b600080fd5b634e487b7160e01b600052604160045260246000fd5b51906001600160a01b0382168203620000f55756fe6040608081526004908136101561001557600080fd5b60009160e0908335821c9182630bae9ef91461128b57826317845c691461126a5782631e77ceda146112415782632be043921461121757826336b2546914610fb95782633e413bee14610f8f57826347f6c76014610d905782636c320cb014610d44578263715018a614610cea578263761c5f0a14610ccc578263767a7b0514610a975782637b5210d814610a6c578263899346c714610a4c578483638a700b53146107b9575082638da5cb5b1461079057826390a8ae9b1461077257826399fbab88146106e9578263b05ab9b4146106c0578263d79873b9146106a2578263e1f1c4a714610684578263e2dc36661461063b578263e93a848d14610311578263eb02c301146101f657508163f2fde38b14610166575063f416fc1c1461013b57600080fd5b3461016257816003193601126101625760035490516001600160a01b039091168152602090f35b5080fd5b9050346101f25760203660031901126101f257610181611651565b9061018a61169d565b6001600160a01b039182169283156101dc575050600054826001600160601b0360a01b821617600055167f8be0079c531659141344cd1fd0a4f28419497f9722a3daafe3b4186f6b6457e0600080a380f35b51631e4fbdf760e01b8152908101849052602490fd5b8280fd5b91503461030d57602036600319011261030d5782846101009584835161021b81611748565b82815282602082015282858201528260608201528260808201528260a08201528260c08201520152823581526006602052209280519361025a85611748565b60018060a01b0391828254168652826001830154169360208701948552600283015491808801928352600384015491606089019283528401549260808901938452600660058601549560a08b0196875201549560ff60c08b01978181161515895260081c1697898b01986102cd8161167d565b89528184519b51168b52511660208a015251908801525160608701525160808601525160a085015251151560c084015251906103088261167d565b820152f35b8380fd5b848285346101f25761032236611667565b61032d92919261169d565b610335611856565b8285526020926006845282862060ff600682015416610600578187526008855283872054156105cc57600354845163d559515760e01b8152878101849052926001600160a01b03929183169089908886602481865afa9586156105c257829661058a575b50856103a8575b506001805580f35b6103f3898b8a898b119687600014610581578a9687935b8b6002541693519687958694859363095ea7b360e01b8552840160209093929193604081019460018060a01b031681520152565b03925af18015610577579089929161055a575b5060448b8d88600354168551968795869463d8aed14560e01b865285015260248401525af1801561055057610524575b50610444575b8088816103a0565b610452869361048b95611962565b91806002541691541688865180968195829463a9059cbb60e01b84528c840160209093929193604081019460018060a01b031681520152565b03925af190811561051a5785916104ed575b50156104ac578080808061043c565b5162461bcd60e51b815291820152601760248201527f537572706c7573207472616e73666572206661696c6564000000000000000000604482015260649150fd5b61050d9150833d8511610513575b610505818361178f565b8101906117b1565b8561049d565b503d6104fb565b82513d87823e3d90fd5b61054390873d8911610549575b61053b818361178f565b81019061194c565b50610436565b503d610531565b87513d8c823e3d90fd5b610570908b3d8d1161051357610505818361178f565b508c610406565b89513d8e823e3d90fd5b8b9687936103bf565b89809297508193503d83116105bb575b6105a4818361178f565b810103126105b657899051948b610399565b600080fd5b503d61059a565b88513d84823e3d90fd5b835162461bcd60e51b8152808701869052600e60248201526d139bdd081b1a5c5d5a59185d195960921b6044820152606490fd5b835162461bcd60e51b81528087018690526015602482015274506f736974696f6e207374696c6c2061637469766560581b6044820152606490fd5b84823461016257602036600319011261016257610656611651565b61065e61169d565b6001600160a01b03166106728115156116c9565b81546001600160a01b03191617905580f35b50505034610162578160031936011261016257602090516127108152f35b50505034610162578160031936011261016257602090516117708152f35b509050346101f25760203660031901126101f25760209282913581526008845220549051908152f35b9091503461030d57602036600319011261030d5760ff8361010095843581526006602052209360018060a01b0394858154169560018201541694600282015490600383015490830154916006600585015494015494868660081c169881519a8b5260208b01528901526060880152608087015260a086015216151560c08401526103088261167d565b5050503461016257816003193601126101625760209051612af88152f35b50505034610162578160031936011261016257905490516001600160a01b039091168152602090f35b92505034610162576107ca36611667565b9190936107d5611856565b84845260209060068252808520916107f360ff600685015416611879565b82546001600160a01b039061080b90821633146118bb565b610816861515611707565b60025483516323b872dd60e01b8152338782019081523060208201526040810189905290918491839185169082908c90829060600103925af1908115610a255790610868918991610a2f575b50611909565b600254600354845163095ea7b360e01b81529083166001600160a01b03168782019081526020810189905290918491839185169082908c90829060400103925af18015610a2557610a08575b5082816003541660448251809a819363d8aed14560e01b83528d8b8401528b60248401525af19384156109fe579088918a988b966109ce575b508392916003602492016109028b8254611962565b905560035416968551978893849263d559515760e01b84528301525afa9384156109c457889461096f575b50907f91f28e20f26321cf8a71cadbefe77cfe670ee70b71a621e3ce3fb1b57e19dfaa9560809594939282519586528501528301526060820152a26001805580f35b94935091908285813d83116109bd575b610989818361178f565b810103126105b6579351929390917f91f28e20f26321cf8a71cadbefe77cfe670ee70b71a621e3ce3fb1b57e19dfaa61092d565b503d61097f565b82513d8a823e3d90fd5b600399506024919650916109f0859493873d89116105495761053b818361178f565b9a909a9792505091926108ed565b83513d8b823e3d90fd5b610a1e90833d851161051357610505818361178f565b50386108b4565b84513d8a823e3d90fd5b610a469150843d861161051357610505818361178f565b38610862565b505050346101625781600319360112610162576020906007549051908152f35b50828434610a94576020366003190112610a945750610a8d60209235611ab5565b9051908152f35b80fd5b848285346101f257610aa836611667565b929091610ab3611856565b828552602091600683528186206006810190815491610ad460ff8416611879565b81546001600160a01b039390610aed90851633146118bb565b610af8891515611707565b600283018054808b11610c89578560035416898b60248b518094819363d559515760e01b83528d8301525afa908115610c7f578d91610c52575b50610c0f5793610b8d9693899693600193610b4e8e8099611962565b80915515610c02575b50500154865163a9059cbb60e01b815233938101938452602084019490945292948593919091169183918b918391604090910190565b03925af1908115610bf8577f7c5e5cb62e5ed3caf3764e4b0afedfedef533e27809d43367799787ad2abcd41939291610bcd918891610bdb575b506117c9565b519384523393a36001805580f35b610bf29150843d861161051357610505818361178f565b88610bc7565b82513d88823e3d90fd5b60ff191690558c80610b57565b875162461bcd60e51b81528088018a9052601f60248201527f4f75747374616e64696e672064656274206d75737420626520726570616964006044820152606490fd5b90508981813d8311610c78575b610c69818361178f565b810103126105b657518d610b32565b503d610c5f565b89513d8f823e3d90fd5b875162461bcd60e51b81528088018a9052601760248201527f496e73756666696369656e7420636f6c6c61746572616c0000000000000000006044820152606490fd5b5050503461016257816003193601126101625760209051611b588152f35b8434610a945780600319360112610a9457610d0361169d565b600080546001600160a01b0319811682556001600160a01b03167f8be0079c531659141344cd1fd0a4f28419497f9722a3daafe3b4186f6b6457e08280a380f35b8434610a94576020366003190112610a9457610d5e611651565b610d6661169d565b6001600160a01b0316610d7a8115156116c9565b6001600160601b0360a01b600554161760055580f35b848285346101f257610da136611667565b610dac929192611856565b828552602060068152828620600681015495610dca60ff8816611879565b81546001600160a01b039760ff91610de5908a1633146118bb565b610df0861515611707565b60081c16610dfd8161167d565b610f7f576003612710610e16611b585b8486015461180d565b04920191610e258584546118fc565b11610f4857878760035416803b15610162578180916044895180948193630ecbcdab60e01b83528d898401528b60248401525af18015610f3e57610f26575b5050838391610eaf98610e788386546118fc565b8555600254885163a9059cbb60e01b815233938101938452602084019490945292998a93919091169183918c918391604090910190565b03925af1958615610f1c577f0902160bbfee2201aa09b6b057b6f0b7d0f633b2bdefc04e987882df4aefd29c9596610eed918991610eff5750611909565b54908351928352820152a26001805580f35b610f169150843d861161051357610505818361178f565b89610862565b84513d89823e3d90fd5b610f2f9061177b565b610f3a578789610e64565b8780fd5b87513d84823e3d90fd5b845162461bcd60e51b81529081018390526011602482015270115e18d959591cc8131515881b1a5b5a5d607a1b6044820152606490fd5b6003612710610e16611770610e0d565b5050503461016257816003193601126101625760025490516001600160a01b039091168152602090f35b50838334610162578060031936011261016257823590602435610fda61169d565b610fe2611856565b82845260206006815282852090600682019661100160ff895416611879565b612af861100d8761196f565b10156111e05780830154612328908181029181830414901517156111cd57612710900490670de0b6b3a7640000918281029281840414901517156111ba576002840191600161105e84548093611836565b950180548354895163095ea7b360e01b81526001600160a01b03918216818701908152602081019590955292939092918791839185169082908f90829060400103925af180156111b057611193575b50808354169154169254813b1561118f57899283889360e4938b519788968795638ef481b760e01b8752860152602485015282604485015289606485015282608485015260a48401528160c48401525af1801561118557611152575b508596857fd714fe40fd30678cf8f6452cd39e9af484e22fdc29c70356dc729320e5ba5f8496975260088252838589205560ff1981541690558351928352820152a26001805580f35b9561117e7fd714fe40fd30678cf8f6452cd39e9af484e22fdc29c70356dc729320e5ba5f84969761177b565b9594611109565b85513d89823e3d90fd5b8980fd5b6111a990863d881161051357610505818361178f565b508b6110ad565b89513d8d823e3d90fd5b634e487b7160e01b885260119052602487fd5b634e487b7160e01b885260118252602488fd5b60649185519162461bcd60e51b83528201526013602482015272506f736974696f6e206973206865616c74687960681b6044820152fd5b5050503461016257816003193601126101625760055490516001600160a01b039091168152602090f35b509050346101f257826003193601126101f2575490516001600160a01b03909116815260209150f35b50828434610a94576020366003190112610a945750610a8d6020923561196f565b908484346101625760a0366003190112610162576112a7611651565b60243592604435936064359560028710156101f25760843595861515870361030d576112d1611856565b6001600160a01b0394851691821561161e576112ee841515611707565b81156115e35786516323b872dd60e01b81523382820190815230602082810191909152604082018790529a91908b908290819060600103818a895af19081156115d957906113429188916115bc57506117c9565b600754986000198a146115a957908392918c82898d8f99988a8f8f808f92918e92600188016007558051986113768a611748565b338a52868a01948552818a0195865260608a019681885260808b0198895260a08b0199428b5260c08c019d60018f528c019c6113b18161167d565b8d5282526006905220975116906001600160601b0360a01b91828954161788556001880192511690825416179055516002850155516003840155518783015551600582015560060191511515908254905161140b8161167d565b6114148161167d565b60081b61ff00169160ff169061ffff19161717905589518581528787820152848b8201526114418361167d565b8260608201528b339160807f93cb2591720fa23e5a51a39bf9d35b6a4e5cb6c11beae435c41e4482f3a30d2191a38061159c575b611487575b848a8a6001805551908152f35b60a49281611495899361167d565b61158e576127106114a9611b585b8361180d565b049860055416908a519788968795637190caeb60e11b875233908701526024860152604485015260648401528a60848401525af1918215611583579184918387949261152c575b50507ff71bf80fa0a269e5fdbe7113cc01a1ada492208f97e2857213258755d0cbbb5e9293825191825287820152a2838080858180808061147a565b9250809350878092503d831161157c575b611547818361178f565b81010312610a94575051839083907ff71bf80fa0a269e5fdbe7113cc01a1ada492208f97e2857213258755d0cbbb5e886114f0565b503d61153d565b8451903d90823e3d90fd5b6127106114a96117706114a3565b5087600554161515611475565b634e487b7160e01b875260118352602487fd5b6115d391508c8d3d1061051357610505818361178f565b8d610bc7565b89513d89823e3d90fd5b606490602088519162461bcd60e51b83528201526015602482015274056616c756174696f6e206d757374206265203e203605c1b6044820152fd5b606490602088519162461bcd60e51b8352820152600d60248201526c24b73b30b634b2103a37b5b2b760991b6044820152fd5b600435906001600160a01b03821682036105b657565b60409060031901126105b6576004359060243590565b6002111561168757565b634e487b7160e01b600052602160045260246000fd5b6000546001600160a01b031633036116b157565b60405163118cdaa760e01b8152336004820152602490fd5b156116d057565b60405162461bcd60e51b815260206004820152600f60248201526e496e76616c6964206164647265737360881b6044820152606490fd5b1561170e57565b60405162461bcd60e51b81526020600482015260126024820152710416d6f756e74206d757374206265203e20360741b6044820152606490fd5b610100810190811067ffffffffffffffff82111761176557604052565b634e487b7160e01b600052604160045260246000fd5b67ffffffffffffffff811161176557604052565b90601f8019910116810190811067ffffffffffffffff82111761176557604052565b908160209103126105b6575180151581036105b65790565b156117d057565b60405162461bcd60e51b8152602060048201526015602482015274151bdad95b881d1c985b9cd9995c8819985a5b1959605a1b6044820152606490fd5b8181029291811591840414171561182057565b634e487b7160e01b600052601160045260246000fd5b8115611840570490565b634e487b7160e01b600052601260045260246000fd5b600260015414611867576002600155565b604051633ee5aeb560e01b8152600490fd5b1561188057565b60405162461bcd60e51b8152602060048201526013602482015272506f736974696f6e206e6f742061637469766560681b6044820152606490fd5b156118c257565b60405162461bcd60e51b81526020600482015260126024820152712737ba103837b9b4ba34b7b71037bbb732b960711b6044820152606490fd5b9190820180921161182057565b1561191057565b60405162461bcd60e51b81526020600482015260146024820152731554d110c81d1c985b9cd9995c8819985a5b195960621b6044820152606490fd5b91908260409103126105b6576020825192015190565b9190820391821161182057565b9060009180835260209060068252604084209060405161198e81611748565b60018060a01b039081845416815281600185015416858201526002840154604082015260038401546060820152600660048501549460808301958652600581015460a084015201549060e060ff60c08301938181161515855260081c16916119f58361167d565b01525115611aaf578390600354169160246040518094819363d559515760e01b835260048301525afa928315611aa4578593611a74575b50508115611a6b575161271090818102918183041490151715611a5757611a54929350611836565b90565b634e487b7160e01b84526011600452602484fd5b50600019925050565b9080929350813d8311611a9d575b611a8c818361178f565b8101031261030d5751903880611a2c565b503d611a82565b6040513d87823e3d90fd5b50505050565b60009080825260209060068252604083209060e060405192611ad684611748565b60018060a01b039384825416815284600183015416868201526002820154604082015260038201546060820152600660048301549260808301938452600581015460a084015201549060ff60c08201928181161515845260081c16938491611b3d8361167d565b01525115611bfb57611b6f6127109183611b57889561167d565b611b608161167d565b611bf257611b58905b5161180d565b0492600354169160246040518094819363d559515760e01b835260048301525afa928315611be7578493611bb7575b505081811115611bb257611a549250611962565b505090565b9080929350813d8311611be0575b611bcf818361178f565b810103126101f25751903880611b9e565b503d611bc5565b6040513d86823e3d90fd5b61177090611b69565b50505050509056fea2646970667358221220c14488d4b565f5879b16d276d81ff2d1d2d727a8c63adf58a561c90290d5445664736f6c63430008140033",
  "linkReferences": {},
  "deployedLinkReferences": {}
}