{
  "_format": "hh-sol-artifact-1",
  "contractName": "SolvencyVault",
  "sourceName": "contracts/core/SolvencyVault.sol",
  "abi": [
    {
      "inputs": [
        {
          "internalType": "address",
          "name": "_usdc",
          "type": "address"
        },
        {
          "internalType": "address",
          "name": "_seniorPool",
          "type": "address"
        }
      ],
      "stateMutability": "nonpayable",
      "type": "constructor"
    },
    {
      "inputs": [
        {
          "internalType": "address",
          "name": "owner",
          "type": "address"
        }
      ],
      "name": "OwnableInvalidOwner",
      "type": "error"
    },
    {
      "inputs": [
        {
          "internalType": "address",
          "name": "account",
          "type": "address"
        }
      ],
      "name": "OwnableUnauthorizedAccount",
      "type": "error"
    },
    {
      "inputs": [],
      "name": "ReentrancyGuardReentrantCall",
      "type": "error"
    },
    {
      "anonymous": false,
      "inputs": [
        {
          "indexed": true,
          "internalType": "uint256",
          "name": "positionId",
          "type": "uint256"
        },
        {
          "indexed": true,
          "internalType": "address",
          "name": "user",
          "type": "address"
        },
        {
          "indexed": false,
          "internalType": "uint256",
          "name": "amount",
          "type": "uint256"
        }
      ],
      "name": "CollateralWithdrawn",
      "type": "event"
    },
    {
      "anonymous": false,
      "inputs": [
        {
          "indexed": true,
          "internalType": "uint256",
          "name": "positionId",
          "type": "uint256"
        },
        {
          "indexed": true,
          "internalType": "uint256",
          "name": "creditLineId",
          "type": "uint256"
        },
        {
          "indexed": false,
          "internalType": "string",
          "name": "reason",
          "type": "string"
        }
      ],
      "name": "CreditLineRevoked",
      "type": "event"
    },
    {
      "anonymous": false,
      "inputs": [
        {
          "indexed": true,
          "internalType": "uint256",
          "name": "positionId",
          "type": "uint256"
        },
        {
          "indexed": false,
          "internalType": "uint256",
          "name": "yieldReceived",
          "type": "uint256"
        },
        {
          "indexed": false,
          "internalType": "uint256",
          "name": "debtRepaid",
          "type": "uint256"
        },
        {
          "indexed": false,
          "internalType": "uint256",
          "name": "liquidationFee",
          "type": "uint256"
        },
        {
          "indexed": false,
          "internalType": "uint256",
          "name": "userRefund",
          "type": "uint256"
        }
      ],
      "name": "LiquidationSettled",
      "type": "event"
    },
    {
      "anonymous": false,
      "inputs": [
        {
          "indexed": true,
          "internalType": "uint256",
          "name": "positionId",
          "type": "uint256"
        },
        {
          "indexed": false,
          "internalType": "uint256",
          "name": "amount",
          "type": "uint256"
        },
        {
          "indexed": false,
          "internalType": "uint256",
          "name": "principal",
          "type": "uint256"
        },
        {
          "indexed": false,
          "internalType": "uint256",
          "name": "interest",
          "type": "uint256"
        },
        {
          "indexed": false,
          "internalType": "uint256",
          "name": "remainingDebt",
          "type": "uint256"
        }
      ],
      "name": "LoanRepaid",
      "type": "event"
    },
    {
      "anonymous": false,
      "inputs": [
        {
          "indexed": true,
          "internalType": "uint256",
          "name": "positionId",
          "type": "uint256"
        },
        {
          "indexed": false,
          "internalType": "uint256",
          "name": "missedPayments",
          "type": "uint256"
        }
      ],
      "name": "MissedPaymentMarked",
      "type": "event"
    },
    {
      "anonymous": false,
      "inputs": [
        {
          "indexed": true,
          "internalType": "uint256",
          "name": "positionId",
          "type": "uint256"
        },
        {
          "indexed": false,
          "internalType": "uint256",
          "name": "creditLineId",
          "type": "uint256"
        },
        {
          "indexed": false,
          "internalType": "uint256",
          "name": "creditLimit",
          "type": "uint256"
        }
      ],
      "name": "OAIDCreditIssued",
      "type": "event"
    },
    {
      "anonymous": false,
      "inputs": [
        {
          "indexed": true,
          "internalType": "address",
          "name": "previousOwner",
          "type": "address"
        },
        {
          "indexed": true,
          "internalType": "address",
          "name": "newOwner",
          "type": "address"
        }
      ],
      "name": "OwnershipTransferred",
      "type": "event"
    },
    {
      "anonymous": false,
      "inputs": [
        {
          "indexed": true,
          "internalType": "uint256",
          "name": "positionId",
          "type": "uint256"
        },
        {
          "indexed": true,
          "internalType": "address",
          "name": "user",
          "type": "address"
        },
        {
          "indexed": false,
          "internalType": "address",
          "name": "collateralToken",
          "type": "address"
        },
        {
          "indexed": false,
          "internalType": "uint256",
          "name": "collateralAmount",
          "type": "uint256"
        },
        {
          "indexed": false,
          "internalType": "uint256",
          "name": "tokenValueUSD",
          "type": "uint256"
        },
        {
          "indexed": false,
          "internalType": "enum SolvencyVault.TokenType",
          "name": "tokenType",
          "type": "uint8"
        }
      ],
      "name": "PositionCreated",
      "type": "event"
    },
    {
      "anonymous": false,
      "inputs": [
        {
          "indexed": true,
          "internalType": "uint256",
          "name": "positionId",
          "type": "uint256"
        }
      ],
      "name": "PositionDefaulted",
      "type": "event"
    },
    {
      "anonymous": false,
      "inputs": [
        {
          "indexed": true,
          "internalType": "uint256",
          "name": "positionId",
          "type": "uint256"
        },
        {
          "indexed": false,
          "internalType": "uint256",
          "name": "liquidationTime",
          "type": "uint256"
        }
      ],
      "name": "PositionLiquidated",
      "type": "event"
    },
    {
      "anonymous": false,
      "inputs": [
        {
          "indexed": true,
          "internalType": "uint256",
          "name": "positionId",
          "type": "uint256"
        },
        {
          "indexed": true,
          "internalType": "address",
          "name": "purchaser",
          "type": "address"
        },
        {
          "indexed": false,
          "internalType": "uint256",
          "name": "purchaseAmount",
          "type": "uint256"
        },
        {
          "indexed": false,
          "internalType": "uint256",
          "name": "tokensTransferred",
          "type": "uint256"
        },
        {
          "indexed": false,
          "internalType": "uint256",
          "name": "debtRepaid",
          "type": "uint256"
        },
        {
          "indexed": false,
          "internalType": "uint256",
          "name": "liquidationFee",
          "type": "uint256"
        },
        {
          "indexed": false,
          "internalType": "uint256",
          "name": "userRefund",
          "type": "uint256"
        }
      ],
      "name": "PrivateAssetLiquidationSettled",
      "type": "event"
    },
    {
      "anonymous": false,
      "inputs": [
        {
          "indexed": true,
          "internalType": "uint256",
          "name": "positionId",
          "type": "uint256"
        },
        {
          "indexed": false,
          "internalType": "uint256",
          "name": "loanDuration",
          "type": "uint256"
        },
        {
          "indexed": false,
          "internalType": "uint256",
          "name": "numberOfInstallments",
          "type": "uint256"
        },
        {
          "indexed": false,
          "internalType": "uint256",
          "name": "installmentInterval",
          "type": "uint256"
        },
        {
          "indexed": false,
          "internalType": "uint256",
          "name": "nextPaymentDue",
          "type": "uint256"
        }
      ],
      "name": "RepaymentPlanCreated",
      "type": "event"
    },
    {
      "anonymous": false,
      "inputs": [
        {
          "indexed": true,
          "internalType": "uint256",
          "name": "positionId",
          "type": "uint256"
        },
        {
          "indexed": false,
          "internalType": "uint256",
          "name": "amount",
          "type": "uint256"
        },
        {
          "indexed": false,
          "internalType": "uint256",
          "name": "totalDebt",
          "type": "uint256"
        }
      ],
      "name": "USDCBorrowed",
      "type": "event"
    },
    {
      "inputs": [],
      "name": "BASIS_POINTS",
      "outputs": [
        {
          "internalType": "uint256",
          "name": "",
          "type": "uint256"
        }
      ],
      "stateMutability": "view",
      "type": "function"
    },
    {
      "inputs": [],
      "name": "LIQUIDATION_FEE_BPS",
      "outputs": [
        {
          "internalType": "uint256",
          "name": "",
          "type": "uint256"
        }
      ],
      "stateMutability": "view",
      "type": "function"
    },
    {
      "inputs": [],
      "name": "LIQUIDATION_THRESHOLD",
      "outputs": [
        {
          "internalType": "uint256",
          "name": "",
          "type": "uint256"
        }
      ],
      "stateMutability": "view",
      "type": "function"
    },
    {
      "inputs": [],
      "name": "PRIVATE_ASSET_LTV",
      "outputs": [
        {
          "internalType": "uint256",
          "name": "",
          "type": "uint256"
        }
      ],
      "stateMutability": "view",
      "type": "function"
    },
    {
      "inputs": [],
      "name": "RWA_LTV",
      "outputs": [
        {
          "internalType": "uint256",
          "name": "",
          "type": "uint256"
        }
      ],
      "stateMutability": "view",
      "type": "function"
    },
    {
      "inputs": [
        {
          "internalType": "uint256",
          "name": "positionId",
          "type": "uint256"
        },
        {
          "internalType": "uint256",
          "name": "amount",
          "type": "uint256"
        },
        {
          "internalType": "uint256",
          "name": "loanDuration",
          "type": "uint256"
        },
        {
          "internalType": "uint256",
          "name": "numberOfInstallments",
          "type": "uint256"
        }
      ],
      "name": "borrowUSDC",
      "outputs": [],
      "stateMutability": "nonpayable",
      "type": "function"
    },
    {
      "inputs": [
        {
          "internalType": "address",
          "name": "collateralToken",
          "type": "address"
        },
        {
          "internalType": "uint256",
          "name": "collateralAmount",
          "type": "uint256"
        },
        {
          "internalType": "uint256",
          "name": "tokenValueUSD",
          "type": "uint256"
        },
        {
          "internalType": "enum SolvencyVault.TokenType",
          "name": "tokenType",
          "type": "uint8"
        },
        {
          "internalType": "bool",
          "name": "issueOAID",
          "type": "bool"
        }
      ],
      "name": "depositCollateral",
      "outputs": [
        {
          "internalType": "uint256",
          "name": "positionId",
          "type": "uint256"
        }
      ],
      "stateMutability": "nonpayable",
      "type": "function"
    },
    {
      "inputs": [
        {
          "internalType": "uint256",
          "name": "positionId",
          "type": "uint256"
        }
      ],
      "name": "getHealthFactor",
      "outputs": [
        {
          "internalType": "uint256",
          "name": "",
          "type": "uint256"
        }
      ],
      "stateMutability": "view",
      "type": "function"
    },
    {
      "inputs": [
        {
          "internalType": "uint256",
          "name": "positionId",
          "type": "uint256"
        }
      ],
      "name": "getMaxBorrow",
      "outputs": [
        {
          "internalType": "uint256",
          "name": "",
          "type": "uint256"
        }
      ],
      "stateMutability": "view",
      "type": "function"
    },
    {
      "inputs": [
        {
          "internalType": "uint256",
          "name": "positionId",
          "type": "uint256"
        }
      ],
      "name": "getPosition",
      "outputs": [
        {
          "components": [
            {
              "internalType": "address",
              "name": "user",
              "type": "address"
            },
            {
              "internalType": "address",
              "name": "collateralToken",
              "type": "address"
            },
            {
              "internalType": "uint256",
              "name": "collateralAmount",
              "type": "uint256"
            },
            {
              "internalType": "uint256",
              "name": "usdcBorrowed",
              "type": "uint256"
            },
            {
              "internalType": "uint256",
              "name": "tokenValueUSD",
              "type": "uint256"
            },
            {
              "internalType": "uint256",
              "name": "createdAt",
              "type": "uint256"
            },
            {
              "internalType": "uint256",
              "name": "liquidatedAt",
              "type": "uint256"
            },
            {
              "internalType": "uint256",
              "name": "creditLineId",
              "type": "uint256"
            },
            {
              "internalType": "bool",
              "name": "active",
              "type": "bool"
            },
            {
              "internalType": "enum SolvencyVault.TokenType",
              "name": "tokenType",
              "type": "uint8"
            }
          ],
          "internalType": "struct SolvencyVault.Position",
          "name": "",
          "type": "tuple"
        }
      ],
      "stateMutability": "view",
      "type": "function"
    },
    {
      "inputs": [
        {
          "internalType": "uint256",
          "name": "positionId",
          "type": "uint256"
        }
      ],
      "name": "getRepaymentPlan",
      "outputs": [
        {
          "components": [
            {
              "internalType": "uint256",
              "name": "loanDuration",
              "type": "uint256"
            },
            {
              "internalType": "uint256",
              "name": "numberOfInstallments",
              "type": "uint256"
            },
            {
              "internalType": "uint256",
              "name": "installmentInterval",
              "type": "uint256"
            },
            {
              "internalType": "uint256",
              "name": "nextPaymentDue",
              "type": "uint256"
            },
            {
              "internalType": "uint256",
              "name": "installmentsPaid",
              "type": "uint256"
            },
            {
              "internalType": "uint256",
              "name": "missedPayments",
              "type": "uint256"
            },
            {
              "internalType": "bool",
              "name": "isActive",
              "type": "bool"
            },
            {
              "internalType": "bool",
              "name": "defaulted",
              "type": "bool"
            }
          ],
          "internalType": "struct SolvencyVault.RepaymentPlan",
          "name": "",
          "type": "tuple"
        }
      ],
      "stateMutability": "view",
      "type": "function"
    },
    {
      "inputs": [
        {
          "internalType": "uint256",
          "name": "positionId",
          "type": "uint256"
        }
      ],
      "name": "liquidatePosition",
      "outputs": [],
      "stateMutability": "nonpayable",
      "type": "function"
    },
    {
      "inputs": [
        {
          "internalType": "uint256",
          "name": "positionId",
          "type": "uint256"
        }
      ],
      "name": "markDefaulted",
      "outputs": [],
      "stateMutability": "nonpayable",
      "type": "function"
    },
    {
      "inputs": [
        {
          "internalType": "uint256",
          "name": "positionId",
          "type": "uint256"
        }
      ],
      "name": "markMissedPayment",
      "outputs": [],
      "stateMutability": "nonpayable",
      "type": "function"
    },
    {
      "inputs": [],
      "name": "nextPositionId",
      "outputs": [
        {
          "internalType": "uint256",
          "name": "",
          "type": "uint256"
        }
      ],
      "stateMutability": "view",
      "type": "function"
    },
    {
      "inputs": [],
      "name": "oaid",
      "outputs": [
        {
          "internalType": "address",
          "name": "",
          "type": "address"
        }
      ],
      "stateMutability": "view",
      "type": "function"
    },
    {
      "inputs": [],
      "name": "owner",
      "outputs": [
        {
          "internalType": "address",
          "name": "",
          "type": "address"
        }
      ],
      "stateMutability": "view",
      "type": "function"
    },
    {
      "inputs": [
        {
          "internalType": "uint256",
          "name": "",
          "type": "uint256"
        }
      ],
      "name": "positions",
      "outputs": [
        {
          "internalType": "address",
          "name": "user",
          "type": "address"
        },
        {
          "internalType": "address",
          "name": "collateralToken",
          "type": "address"
        },
        {
          "internalType": "uint256",
          "name": "collateralAmount",
          "type": "uint256"
        },
        {
          "internalType": "uint256",
          "name": "usdcBorrowed",
          "type": "uint256"
        },
        {
          "internalType": "uint256",
          "name": "tokenValueUSD",
          "type": "uint256"
        },
        {
          "internalType": "uint256",
          "name": "createdAt",
          "type": "uint256"
        },
        {
          "internalType": "uint256",
          "name": "liquidatedAt",
          "type": "uint256"
        },
        {
          "internalType": "uint256",
          "name": "creditLineId",
          "type": "uint256"
        },
        {
          "internalType": "bool",
          "name": "active",
          "type": "bool"
        },
        {
          "internalType": "enum SolvencyVault.TokenType",
          "name": "tokenType",
          "type": "uint8"
        }
      ],
      "stateMutability": "view",
      "type": "function"
    },
    {
      "inputs": [
        {
          "internalType": "uint256",
          "name": "",
          "type": "uint256"
        }
      ],
      "name": "positionsInLiquidation",
      "outputs": [
        {
          "internalType": "bool",
          "name": "",
          "type": "bool"
        }
      ],
      "stateMutability": "view",
      "type": "function"
    },
    {
      "inputs": [],
      "name": "primaryMarket",
      "outputs": [
        {
          "internalType": "address",
          "name": "",
          "type": "address"
        }
      ],
      "stateMutability": "view",
      "type": "function"
    },
    {
      "inputs": [
        {
          "internalType": "uint256",
          "name": "positionId",
          "type": "uint256"
        },
        {
          "internalType": "uint256",
          "name": "purchaseAmount",
          "type": "uint256"
        }
      ],
      "name": "purchaseAndSettleLiquidation",
      "outputs": [
        {
          "internalType": "uint256",
          "name": "liquidationFee",
          "type": "uint256"
        },
        {
          "internalType": "uint256",
          "name": "userRefund",
          "type": "uint256"
        }
      ],
      "stateMutability": "nonpayable",
      "type": "function"
    },
    {
      "inputs": [],
      "name": "renounceOwnership",
      "outputs": [],
      "stateMutability": "nonpayable",
      "type": "function"
    },
    {
      "inputs": [
        {
          "internalType": "uint256",
          "name": "positionId",
          "type": "uint256"
        },
        {
          "internalType": "uint256",
          "name": "amount",
          "type": "uint256"
        }
      ],
      "name": "repayLoan",
      "outputs": [],
      "stateMutability": "nonpayable",
      "type": "function"
    },
    {
      "inputs": [
        {
          "internalType": "uint256",
          "name": "",
          "type": "uint256"
        }
      ],
      "name": "repaymentPlans",
      "outputs": [
        {
          "internalType": "uint256",
          "name": "loanDuration",
          "type": "uint256"
        },
        {
          "internalType": "uint256",
          "name": "numberOfInstallments",
          "type": "uint256"
        },
        {
          "internalType": "uint256",
          "name": "installmentInterval",
          "type": "uint256"
        },
        {
          "internalType": "uint256",
          "name": "nextPaymentDue",
          "type": "uint256"
        },
        {
          "internalType": "uint256",
          "name": "installmentsPaid",
          "type": "uint256"
        },
        {
          "internalType": "uint256",
          "name": "missedPayments",
          "type": "uint256"
        },
        {
          "internalType": "bool",
          "name": "isActive",
          "type": "bool"
        },
        {
          "internalType": "bool",
          "name": "defaulted",
          "type": "bool"
        }
      ],
      "stateMutability": "view",
      "type": "function"
    },
    {
      "inputs": [],
      "name": "seniorPool",
      "outputs": [
        {
          "internalType": "address",
          "name": "",
          "type": "address"
        }
      ],
      "stateMutability": "view",
      "type": "function"
    },
    {
      "inputs": [
        {
          "internalType": "address",
          "name": "_oaid",
          "type": "address"
        }
      ],
      "name": "setOAID",
      "outputs": [],
      "stateMutability": "nonpayable",
      "type": "function"
    },
    {
      "inputs": [
        {
          "internalType": "address",
          "name": "_primaryMarket",
          "type": "address"
        }
      ],
      "name": "setPrimaryMarket",
      "outputs": [],
      "stateMutability": "nonpayable",
      "type": "function"
    },
    {
      "inputs": [
        {
          "internalType": "address",
          "name": "_yieldVault",
          "type": "address"
        }
      ],
      "name": "setYieldVault",
      "outputs": [],
      "stateMutability": "nonpayable",
      "type": "function"
    },
    {
      "inputs": [
        {
          "internalType": "uint256",
          "name": "positionId",
          "type": "uint256"
        }
      ],
      "name": "settleLiquidation",
      "outputs": [
        {
          "internalType": "uint256",
          "name": "yieldReceived",
          "type": "uint256"
        },
        {
          "internalType": "uint256",
          "name": "liquidationFee",
          "type": "uint256"
        },
        {
          "internalType": "uint256",
          "name": "userRefund",
          "type": "uint256"
        }
      ],
      "stateMutability": "nonpayable",
      "type": "function"
    },
    {
      "inputs": [
        {
          "internalType": "address",
          "name": "newOwner",
          "type": "address"
        }
      ],
      "name": "transferOwnership",
      "outputs": [],
      "stateMutability": "nonpayable",
      "type": "function"
    },
    {
      "inputs": [],
      "name": "usdc",
      "outputs": [
        {
          "internalType": "contract IERC20",
          "name": "",
          "type": "address"
        }
      ],
      "stateMutability": "view",
      "type": "function"
    },
    {
      "inputs": [
        {
          "internalType": "uint256",
          "name": "positionId",
          "type": "uint256"
        },
        {
          "internalType": "uint256",
          "name": "amount",
          "type": "uint256"
        }
      ],
      "name": "withdrawCollateral",
      "outputs": [],
      "stateMutability": "nonpayable",
      "type": "function"
    },
    {
      "inputs": [],
      "name": "yieldVault",
      "outputs": [
        {
          "internalType": "address",
          "name": "",
          "type": "address"
        }
      ],
      "stateMutability": "view",
      "type": "function"
    }
  ],
  "bytecode": "0x608034620000f557601f62002fca38819003918201601f19168301916001600160401b03831184841017620000fa578084926040948552833981010312620000f5576200005a6020620000528362000110565b920162000110565b3315620000dc5760008054336001600160a01b0319808316821784556040519590946001600160a01b03949093859391908416907f8be0079c531659141344cd1fd0a4f28419497f9722a3daafe3b4186f6b6457e09080a36001805516836002541617600255169060035416176003556001600755612ea49081620001268239f35b604051631e4fbdf760e01b815260006004820152602490fd5b600080fd5b634e487b7160e01b600052604160045260246000fd5b51906001600160a01b0382168203620000f55756fe6080604052600436101561001257600080fd5b6000803560e01c80630bae9ef91461235e578063137c3f691461231257806316ef1729146122e357806317845c69146122c45780631e77ceda1461229b5780632be04392146122725780633e413bee146122495780634d111a0514611d8a578063518e8dfc14611d6d57806352964de514611c4b5780635403bc4a146117b65780636c320cb01461176a578063715018a6146117105780637321645014611689578063761c5f0a1461166c578063767a7b05146114375780637b5210d814611410578063837c2a6114610e1b578063899346c714610dfd5780638a700b5314610a1a5780638da5cb5b146109f357806390a8ae9b146109d657806399fbab8814610930578063a53ae06b146108b1578063a7f8a5e214610888578063cdddd4e514610531578063d79873b914610514578063e1f1c4a7146104f7578063e2dc3666146104ab578063eb02c3011461033e578063f2fde38b146102b3578063f416fc1c1461028a5763fea58e831461018857600080fd5b34610287576020366003190112610287576040816101009260e083516101ad81612862565b82815282602082015282858201528260608201528260808201528260a08201528260c082015201526004358152600a60205220604051906101ed82612862565b8054918281526001820154916020820192835260028101546040830190815260038201546060840190815260048301549160808501928352600660058501549460a0870195865201549560ff60e060c0880197828a1615158952019760081c16151587526040519788525160208801525160408701525160608601525160808501525160a084015251151560c083015251151560e0820152f35b80fd5b50346102875780600319360112610287576003546040516001600160a01b039091168152602090f35b5034610287576020366003190112610287576102cd612735565b6102d5612784565b6001600160a01b0390811690811561032557600054826001600160601b0360a01b821617600055167f8be0079c531659141344cd1fd0a4f28419497f9722a3daafe3b4186f6b6457e0600080a380f35b604051631e4fbdf760e01b815260048101849052602490fd5b5034610287576020366003190112610287576040816101409261012083516103658161282f565b82815282602082015282858201528260608201528260808201528260a08201528260c08201528260e0820152826101008201520152600435815260066020522061042a60ff6008604051936103b98561282f565b80546001600160a01b0390811686526001820154166020860152600281015460408601526003810154606086015260048101546080860152600581015460a0860152600681015460c0860152600781015460e08601520154818116151561010085015260081c166101208301612952565b6104a96101206040519260018060a01b03815116845260018060a01b03602082015116602085015260408101516040850152606081015160608501526080810151608085015260a081015160a085015260c081015160c085015260e081015160e085015261010081015115156101008501520151610120830190612761565bf35b5034610287576020366003190112610287576104c5612735565b6104cd612784565b6001600160a01b03166104e18115156127b0565b6001600160601b0360a01b600454161760045580f35b503461028757806003193601126102875760206040516127108152f35b503461028757806003193601126102875760206040516117708152f35b5034610287576020806003193601126107795760043590610550612784565b610558612991565b81835260068152604083209061057460ff6008840154166129b4565b8284526008815260ff60408520541661084b57612cec61059384612bb9565b1091838552600a825260066040862001805460ff8116908161083d575b5084908515610835575b50156107e257848652600883526040862060ff1990600182825416179055426006840155815460ff81166107d7575b50506005546001600160a01b0316939050831515806107ca575b61063b575b50507f77493833e3b7f392bd715ffdc3abd21434418e6889264880074c970e1b5e61c89150604051428152a26001805580f35b1561077d57600760405161064e81612893565b603781527f506f736974696f6e206c697175696461746564202d20636f6c6c61746572616c848201527f206865616c74682062656c6f77207468726573686f6c640000000000000000006040820152915b0192858454823b156107795781906040519384916367cc7cff60e01b83526004830152604060248301528183816106d9604482018a612ae8565b03925af191821561076c578692610751575b50507fd89109f5414f7b5415e9a3e20b055f6a8cc38b81f34d24eb5ae3512086356a8a6107477f77493833e3b7f392bd715ffdc3abd21434418e6889264880074c970e1b5e61c895549360405191829187835287830190612ae8565b0390a33880610608565b61075c91925061287f565b610768578385386106eb565b8480fd5b50604051903d90823e3d90fd5b5080fd5b600760405161078b81612893565b602781527f506f736974696f6e206c697175696461746564202d2072657061796d656e74208482015266191959985d5b1d60ca1b60408201529161069f565b5060078201541515610603565b1690553880806105e9565b60405162461bcd60e51b815260048101849052602560248201527f506f736974696f6e206973206865616c74687920616e64206e6f7420646566616044820152641d5b1d195960da1b6064820152608490fd5b9050386105ba565b60ff915060081c16386105b0565b6064906040519062461bcd60e51b82526004820152601660248201527520b63932b0b23c9034b7103634b8bab4b230ba34b7b760511b6044820152fd5b50346102875780600319360112610287576009546040516001600160a01b039091168152602090f35b5034610287576020366003190112610287576040610100916004358152600a6020522060ff815491600181015490600281015460038201546004830154916006600585015494015494604051978852602088015260408701526060860152608085015260a0840152818116151560c084015260081c16151560e0820152f35b50346102875760203660031901126102875760406101409160043581526006602052206104a960018060a01b03918281541692600182015416906002810154600382015460048301546005840154916006850154936008600787015496015496604051998a5260208a015260408901526060880152608087015260a086015260c085015260e084015260ff8116151561010084015260ff61012084019160081c16612761565b50346102875780600319360112610287576020604051612cec8152f35b5034610287578060031936011261028757546040516001600160a01b039091168152602090f35b503461028757610a293661274b565b610a31612991565b818352826020916006835260408220610a5060ff6008830154166129b4565b80546001600160a01b039190610a6990831633146129f6565b610a748315156127ee565b6002546040516323b872dd60e01b8152336004820152306024820152604481018590529190869083906064908290899088165af1918215610dd557610b0592610ac4918791610de0575b50612a44565b60025460035460405163095ea7b360e01b81529085166001600160a01b03166004820152602481018690529287918491908616908290899082906044820190565b03925af1918215610dd5578592610da8575b5060408360035416604482518098819363d8aed14560e01b83528c60048401528960248401525af1928315610c8f5760249683968495610d71575b5060038301610b62888254612a9d565b9055808260035416604051998a809263d559515760e01b82528d60048301525afa978815610cf7578498610d38575b50600a908985525260408320600681019081549060ff8216610d0f575b505050806005541680151580610d02575b610c1b575b505050507f91f28e20f26321cf8a71cadbefe77cfe670ee70b71a621e3ce3fb1b57e19dfaa93610c1191604051948594859094939260609260808301968352602083015260408201520152565b0390a26001805580f35b86610c9e575b5060079060055416910154813b15610c9a57829160848392604051948593849263f2f6818f60e01b84526004840152896024840152600160448401528160648401525af18015610c8f57610c77575b8080610bc4565b610c809061287f565b610c8b578538610c70565b8580fd5b6040513d84823e3d90fd5b8280fd5b6007830154813b15610768578491604483926040519485938492636ad75e1f60e01b845260048401528c60248401525af1908115610cf7578491610ce3575b50610c21565b610cec9061287f565b610c9a578238610cdd565b6040513d86823e3d90fd5b5060078301541515610bbf565b600401610d1c815461292d565b90558815610d2b575b80610bae565b60ff191690553880610d25565b818099508195503d8311610d6a575b610d5181836128af565b81010312610d6557600a8993519790610b91565b600080fd5b503d610d47565b909450610d9791965060403d604011610da1575b610d8f81836128af565b810190612a87565b9590959338610b52565b503d610d85565b610dc790873d8911610dce575b610dbf81836128af565b8101906128d1565b5038610b17565b503d610db5565b6040513d87823e3d90fd5b610df79150883d8a11610dce57610dbf81836128af565b38610abe565b50346102875780600319360112610287576020600754604051908152f35b5034610287576020908160031936011261028757600435610e3a612784565b610e42612991565b8082526006835260408220600881019360ff8554610e618282166129b4565b84865260088352610e7782604088205416612b28565b60081c1660028110156113fc576113c2576009546001600160a01b039390841680156113885760018401805460028601805460405163095ea7b360e01b8082526001600160a01b03969096166004820152602481019190915298999092909186908a9060449082908e908d165af19081156110db57610f3599879261136b575b5060095490548454604051630c34f5ed60e11b8152918b166001600160a01b031660048301526024820152998a918a169082908d9082906044820190565b03925af1978815611360578998611331575b5087156112f85786600354169260405163d559515760e01b81528560048201528681602481885afa9485156112ed5787918c966112bc575b508b95806111e0575b50505050828811156111ac57610f9e8389612a9d565b956103e880880290888204148815171561119857612710610fc191048098612a9d565b97876110e6575b88611036575b50509160609886927f1b5cd914bf77ee50de90263f47d89967bbce85a4eb078d958bfee08dc0d0cde7945b805460ff191690555560408051898152602081019290925281019190915260608101869052608090a2600180556040519384528301526040820152f35b600254915460405163a9059cbb60e01b81529082166001600160a01b03166004820152602481018a9052918791839116818d816044810103925af19081156110db57927f1b5cd914bf77ee50de90263f47d89967bbce85a4eb078d958bfee08dc0d0cde794926110b28c938a9660609e916110be575b50612b74565b92945092819a50610fce565b6110d591508a3d8c11610dce57610dbf81836128af565b386110ac565b6040513d8c823e3d90fd5b6002548b5460405163a9059cbb60e01b81529083166001600160a01b03166004820152602481018a905290889082908416818f816044810103925af190811561118d578c91611170575b50610fc85760405162461bcd60e51b8152600481018890526013602482015272119959481d1c985b9cd9995c8819985a5b1959606a1b6044820152606490fd5b6111879150883d8a11610dce57610dbf81836128af565b38611130565b6040513d8e823e3d90fd5b634e487b7160e01b8b52601160045260248bfd5b95508794507f1b5cd914bf77ee50de90263f47d89967bbce85a4eb078d958bfee08dc0d0cde7916060989586928198610ff9565b61122993949650808c116000146112b2579384915b6002546040519283526001600160a01b03909116600483015260248201929092529283918b169082908e9082906044820190565b03925af180156110db57611295575b508860408860035416604482518094819363d8aed14560e01b83528a60048401528760248401525af180156110db57611277575b509138858180610f88565b61128f9060403d604011610da157610d8f81836128af565b5061126c565b6112ab90863d8811610dce57610dbf81836128af565b5038611238565b508a9384916111f5565b8281939297503d83116112e6575b6112d481836128af565b81010312610d65578690519438610f7f565b503d6112ca565b6040513d8d823e3d90fd5b60405162461bcd60e51b8152600481018690526011602482015270139bc81e5a595b19081c9958d95a5d9959607a1b6044820152606490fd5b9097508481813d8311611359575b61134981836128af565b81010312610d6557519638610f47565b503d61133f565b6040513d8b823e3d90fd5b61138190833d8511610dce57610dbf81836128af565b5038610ef7565b60405162461bcd60e51b8152600481018490526012602482015271165a595b1915985d5b1d081b9bdd081cd95d60721b6044820152606490fd5b6064906040519062461bcd60e51b8252600482015260136024820152724f6e6c7920666f722052574120746f6b656e7360681b6044820152fd5b634e487b7160e01b85526021600452602485fd5b503461028757602036600319011261028757602061142f600435612d08565b604051908152f35b5034610287576114463661274b565b9061144f612991565b808352602060068152604084206008810190815461146f60ff82166129b4565b81546001600160a01b03939061148890851633146129f6565b6114938715156127ee565b6002830180548089116116275760248787600354166040519283809263d559515760e01b82528d60048301525afa9081156112ed578b916115fa575b506115b557906114e489600196959493612a9d565b80915515611582575b5050015460405163a9059cbb60e01b81523360048201526024810186905292918291849160449183918a91165af1918215610dd5577f7c5e5cb62e5ed3caf3764e4b0afedfedef533e27809d43367799787ad2abcd4192611555918791611565575b506128e9565b6040519384523393a36001805580f35b61157c9150833d8511610dce57610dbf81836128af565b3861154f565b60ff198092169055858852600a85526006604089200190815460ff81166115aa575b506114ed565b1690553880806115a4565b60405162461bcd60e51b815260048101889052601f60248201527f4f75747374616e64696e672064656274206d75737420626520726570616964006044820152606490fd5b90508781813d8311611620575b61161181836128af565b81010312610d655751386114cf565b503d611607565b60405162461bcd60e51b815260048101889052601760248201527f496e73756666696369656e7420636f6c6c61746572616c0000000000000000006044820152606490fd5b50346102875780600319360112610287576020604051611b588152f35b5034610287576020366003190112610287576004356116a6612784565b80825260066020526116c160ff6008604085200154166129b4565b808252600a6020526006604083200161010081546116e160ff8216612aaa565b61ff0019161790557f5493e4917872c4150c892f2053db5bf546da11d77af31efaad0d13d956f563368280a280f35b5034610287578060031936011261028757611729612784565b600080546001600160a01b0319811682556001600160a01b03167f8be0079c531659141344cd1fd0a4f28419497f9722a3daafe3b4186f6b6457e08280a380f35b503461028757602036600319011261028757611784612735565b61178c612784565b6001600160a01b03166117a08115156127b0565b6001600160601b0360a01b600554161760055580f35b5034610287576117c53661274b565b6117cd612784565b6117d5612991565b8183526006602052604083209060ff60088301546117f48282166129b4565b848652600860205261180b82604088205416612b28565b60081c1660028110156113fc57600103611c06578015611bc1576002546040516323b872dd60e01b815233600482015230602482015260448101839052906020908290606490829089906001600160a01b03165af18015610dd557611876918691611ba85750612a44565b6001820154600283015460405163a9059cbb60e01b81523360048201526024810191909152906020908290604490829089906001600160a01b03165af18015610dd5576118c9918691611b8f57506128e9565b60035460405163d559515760e01b81526004810185905293906001600160a01b0316602085602481845afa948515611b23578695611b5b575b50859480611a5b575b505083821115611a4b5761191f8483612a9d565b936103e8808602908682041486151715611a375761271061194291048096612a9d565b93846119b1575b958060026040985b60ff196008820154166008820155015586519384526020840152858301528360608301528260808301527fe8809f589fb6a4a715f089d80b78e1c37443064c63cad260285284847c9fc4a360a03393a36001805582519182526020820152f35b600254815460405163a9059cbb60e01b81526001600160a01b0391821660048201526024810188905291602091839160449183918d91165af1908115611a2c578892611a09849360029360409c91611a135750612b74565b9250509650611949565b6110d5915060203d602011610dce57610dbf81836128af565b6040513d8a823e3d90fd5b634e487b7160e01b87526011600452602487fd5b8493604095948060028196611951565b9194509080831115611b4d576020611aad9180935b60025460405163095ea7b360e01b81526001600160a01b0392831660048201526024810193909352919384929091169082908a9082906044820190565b03925af18015611b2357611b2e575b506003546040805163d8aed14560e01b8152600481018790526024810184905291829060449082908a906001600160a01b03165af18015611b2357611b05575b5092388061190b565b611b1d9060403d604011610da157610d8f81836128af565b50611afc565b6040513d88823e3d90fd5b611b469060203d602011610dce57610dbf81836128af565b5038611abc565b50611aad6020838093611a70565b9094506020813d602011611b87575b81611b77602093836128af565b81010312610d6557519338611902565b3d9150611b6a565b61157c915060203d602011610dce57610dbf81836128af565b610df7915060203d602011610dce57610dbf81836128af565b60405162461bcd60e51b815260206004820152601b60248201527f507572636861736520616d6f756e74206d757374206265203e203000000000006044820152606490fd5b60405162461bcd60e51b815260206004820152601760248201527f4f6e6c7920666f722050726976617465204173736574730000000000000000006044820152606490fd5b503461028757602036600319011261028757600435611c68612784565b808252600660205260408220611c8460ff6008830154166129b4565b818352600a60205282600560408220611ca360ff600683015416612aaa565b0191611caf835461292d565b83556005546001600160a01b03169081151580611d60575b611cfe575b50505060207fa4e6bdb946caa62acb20ceaaa9f9978dfbf773a0d764e6232b858bdb0920bfca9154604051908152a280f35b60070154813b15610c9a57829160848392604051948593849263f2f6818f60e01b84526004840152816024840152816044840152600160648401525af18015610c8f57611d4c575b80611ccc565b611d559061287f565b610c9a578238611d46565b5060078101541515611cc7565b503461028757806003193601126102875760206040516103e88152f35b503461028757608036600319011261028757600435604460648035908235906024803590611db6612991565b8688526020956006875260408920600881015492611dd660ff85166129b4565b81546001600160a01b039490611def90861633146129f6565b611dfa8615156127ee565b87156122105788156121ce5788881061218c578a8c52600a8a5260408c206006015460ff166121545760081c60ff1660028110156121415761213357612710611e4a611b585b600485015461295e565b04956003830196611e5c878954612a37565b116120ff575090879493929160018c611f0d60068b8f8f611e7d8d84612971565b9c8d611e898142612a37565b9160405195611e9787612862565b86528386019081526040860191825260608601928352604089600a608089019682885260a08a0198838a5260c08b019e8f5260e08b019d8e5283525220955186555160018601555160028501555160038401555160048301555160058201550192511515839060ff801983541691151516179055565b51815461ff00191690151560081b61ff00161790556003548c908516803b15610779578190858e6040519485938492630ecbcdab60e01b845260048401528b888401525af180156120f4576120d9575b509084939291611f6f8d968954612a37565b8855836005541691821515806120cc575b612072575b505060025460405163a9059cbb60e01b815233600482015260248101869052938b935084925060449183918891165af1918215612067577fdd4271a412a769f5ed0fe9b4b7c386bba5f674b53b01f0c0dab8a378c2991bb998610c11966120177f0902160bbfee2201aa09b6b057b6f0b7d0f633b2bdefc04e987882df4aefd29c956040958e98916120505750612a44565b54908351928352820152a261202c8142612a37565b90604051948594859094939260609260808301968352602083015260408201520152565b610df79150843d8611610dce57610dbf81836128af565b6040513d85823e3d90fd5b6007015492823b156120c857859387809460405196879586946365a1782f60e01b865260048601528401525af1908115610cf75784916120b4575b8080611f85565b6120bd9061287f565b610c9a5782386120ad565b8680fd5b5060078101541515611f80565b6120e9909c91959493929c61287f565b9a9091929338611f5d565b6040513d8f823e3d90fd5b60405162461bcd60e51b8152600481018b905260118184015270115e18d959591cc8131515881b1a5b5a5d607a1b81860152fd5b612710611e4a611770611e40565b50634e487b7160e01b8b5260216004528afd5b60405162461bcd60e51b8152600481018b905260138184015272506c616e20616c72656164792061637469766560681b818601528790fd5b60405162461bcd60e51b8152600481018b9052601d818401527f496e76616c6964206475726174696f6e2f696e7374616c6c6d656e7473000000818601528790fd5b60405162461bcd60e51b8152600481018b90526018818401527f496e7374616c6c6d656e7473206d757374206265203e20300000000000000000818601528790fd5b60405162461bcd60e51b8152600481018b90526014818401527304475726174696f6e206d757374206265203e20360641b818601528790fd5b50346102875780600319360112610287576002546040516001600160a01b039091168152602090f35b50346102875780600319360112610287576005546040516001600160a01b039091168152602090f35b50346102875780600319360112610287576004546040516001600160a01b039091168152602090f35b503461028757602036600319011261028757602061142f600435612bb9565b50346102875760203660031901126102875760ff60406020926004358152600884522054166040519015158152f35b50346102875760203660031901126102875761232c612735565b612334612784565b6001600160a01b03166123488115156127b0565b6001600160601b0360a01b600954161760095580f35b50346102875760a036600319011261028757612378612735565b600260643510156107795760843515156084350361077957612398612991565b6001600160a01b03811615612700576123b460243515156127ee565b604435156126c3576040516323b872dd60e01b815233600482015230602480830191909152356044820152602081606481866001600160a01b0387165af1801561206757612408918491611b8f57506128e9565b600754906124158261292d565b6007556040516124248161282f565b3381526001600160a01b038216602082015260243560408201526060810184905260443560808201524260a082015260c0810184905260e081018490526001610100820152610120810161247a60643582612952565b838552600660205261251861010060086040882060018060a01b038651166001600160601b0360a01b9081835416178255600182019060018060a01b036020890151169082541617905560408601516002820155606086015160038201556080860151600482015560a0860151600582015560c0860151600682015560e08601516007820155019301511515839060ff801983541691151516179055565b5160028110156113fc5761ff0082549160081b169061ff00191617905560405160018060a01b03821681526024356020820152604435604082015261256260608201606435612761565b827f93cb2591720fa23e5a51a39bf9d35b6a4e5cb6c11beae435c41e4482f3a30d2160803393a3608435806126af575b6125a6575b60208260018055604051908152f35b60643561269e578260206127106125c2611b585b60443561295e565b049260a460018060a01b0360055416916040519788938492637190caeb60e11b845233600485015260018060a01b03166024840152602435604484015260443560648401528860848401525af193841561076c578194612665575b50604084849360209660078486887ff71bf80fa0a269e5fdbe7113cc01a1ada492208f97e2857213258755d0cbbb5e985260068b52200155825191825286820152a238612597565b9093506020813d602011612696575b81612681602093836128af565b81010312612692575192604061261d565b8380fd5b3d9150612674565b8260206127106125c26117706125ba565b506005546001600160a01b03161515612592565b60405162461bcd60e51b8152602060048201526015602482015274056616c756174696f6e206d757374206265203e203605c1b6044820152606490fd5b60405162461bcd60e51b815260206004820152600d60248201526c24b73b30b634b2103a37b5b2b760991b6044820152606490fd5b600435906001600160a01b0382168203610d6557565b6040906003190112610d65576004359060243590565b90600282101561276e5752565b634e487b7160e01b600052602160045260246000fd5b6000546001600160a01b0316330361279857565b60405163118cdaa760e01b8152336004820152602490fd5b156127b757565b60405162461bcd60e51b815260206004820152600f60248201526e496e76616c6964206164647265737360881b6044820152606490fd5b156127f557565b60405162461bcd60e51b81526020600482015260126024820152710416d6f756e74206d757374206265203e20360741b6044820152606490fd5b610140810190811067ffffffffffffffff82111761284c57604052565b634e487b7160e01b600052604160045260246000fd5b610100810190811067ffffffffffffffff82111761284c57604052565b67ffffffffffffffff811161284c57604052565b6060810190811067ffffffffffffffff82111761284c57604052565b90601f8019910116810190811067ffffffffffffffff82111761284c57604052565b90816020910312610d6557518015158103610d655790565b156128f057565b60405162461bcd60e51b8152602060048201526015602482015274151bdad95b881d1c985b9cd9995c8819985a5b1959605a1b6044820152606490fd5b600019811461293c5760010190565b634e487b7160e01b600052601160045260246000fd5b600282101561276e5752565b8181029291811591840414171561293c57565b811561297b570490565b634e487b7160e01b600052601260045260246000fd5b6002600154146129a2576002600155565b604051633ee5aeb560e01b8152600490fd5b156129bb57565b60405162461bcd60e51b8152602060048201526013602482015272506f736974696f6e206e6f742061637469766560681b6044820152606490fd5b156129fd57565b60405162461bcd60e51b81526020600482015260126024820152712737ba103837b9b4ba34b7b71037bbb732b960711b6044820152606490fd5b9190820180921161293c57565b15612a4b57565b60405162461bcd60e51b81526020600482015260146024820152731554d110c81d1c985b9cd9995c8819985a5b195960621b6044820152606490fd5b9190826040910312610d65576020825192015190565b9190820391821161293c57565b15612ab157565b60405162461bcd60e51b815260206004820152600f60248201526e506c616e206e6f742061637469766560881b6044820152606490fd5b919082519283825260005b848110612b14575050826000602080949584010152601f8019910116010190565b602081830181015184830182015201612af3565b15612b2f57565b60405162461bcd60e51b815260206004820152601760248201527f506f736974696f6e206e6f74206c6971756964617465640000000000000000006044820152606490fd5b15612b7b57565b60405162461bcd60e51b81526020600482015260166024820152751499599d5b99081d1c985b9cd9995c8819985a5b195960521b6044820152606490fd5b90600091808352602090600682526040842090604051612bd88161282f565b60018060a01b039081845416815281600185015416858201526002840154604082015260038401546060820152612c55600860048601549560808401968752600581015460a0850152600681015460c0850152600781015460e085015201549161012060ff6101008301948181161515865260081c169101612952565b5115612d02578390600354169160246040518094819363d559515760e01b835260048301525afa928315610dd5578593612cd2575b50508115612cc9575161271090818102918183041490151715612cb557612cb2929350612971565b90565b634e487b7160e01b84526011600452602484fd5b50600019925050565b9080929350813d8311612cfb575b612cea81836128af565b810103126126925751903880612c8a565b503d612ce0565b50505050565b60009080825260209060068252604083209060405191612d278361282f565b60018060a01b039283825416815283600183015416858201526002820154604082015260038201546060820152600860048301549260808301938452600581015460a0840152600681015460c0840152600781015460e0840152015490612da560ff61012061010084019382861615158552019360081c1683612952565b5115612e6657516002811015612e5257612dd185926127109215600014612e4957611b58905b5161295e565b0492600354169160246040518094819363d559515760e01b835260048301525afa928315610cf7578493612e19575b505081811115612e1457612cb29250612a9d565b505090565b9080929350813d8311612e42575b612e3181836128af565b81010312610c9a5751903880612e00565b503d612e27565b61177090612dcb565b634e487b7160e01b86526021600452602486fd5b50505050509056fea26469706673582212201df49d7ce4a1433e20770e3832407db34b07981bbc7439899c46499a6c7a8bb564736f6c63430008140033",
  "linkReferences": {},
  "deployedLinkReferences": {}
}