{
  "_format": "hh-sol-artifact-1",
  "contractName": "SolvencyVault",
  "sourceName": "contracts/core/SolvencyVault.sol",
  "abi": [
    {
      "inputs": [
        {
          "internalType": "address",
          "name": "_usdc",
          "type": "address"
        },
        {
          "internalType": "address",
          "name": "_seniorPool",
          "type": "address"
        }
      ],
      "stateMutability": "nonpayable",
      "type": "constructor"
    },
    {
      "inputs": [
        {
          "internalType": "address",
          "name": "owner",
          "type": "address"
        }
      ],
      "name": "OwnableInvalidOwner",
      "type": "error"
    },
    {
      "inputs": [
        {
          "internalType": "address",
          "name": "account",
          "type": "address"
        }
      ],
      "name": "OwnableUnauthorizedAccount",
      "type": "error"
    },
    {
      "inputs": [],
      "name": "ReentrancyGuardReentrantCall",
      "type": "error"
    },
    {
      "anonymous": false,
      "inputs": [
        {
          "indexed": true,
          "internalType": "uint256",
          "name": "positionId",
          "type": "uint256"
        },
        {
          "indexed": true,
          "internalType": "address",
          "name": "user",
          "type": "address"
        },
        {
          "indexed": false,
          "internalType": "uint256",
          "name": "amount",
          "type": "uint256"
        }
      ],
      "name": "CollateralWithdrawn",
      "type": "event"
    },
    {
      "anonymous": false,
      "inputs": [
        {
          "indexed": true,
          "internalType": "uint256",
          "name": "positionId",
          "type": "uint256"
        },
        {
          "indexed": true,
          "internalType": "uint256",
          "name": "creditLineId",
          "type": "uint256"
        },
        {
          "indexed": false,
          "internalType": "string",
          "name": "reason",
          "type": "string"
        }
      ],
      "name": "CreditLineRevoked",
      "type": "event"
    },
    {
      "anonymous": false,
      "inputs": [
        {
          "indexed": true,
          "internalType": "uint256",
          "name": "positionId",
          "type": "uint256"
        },
        {
          "indexed": false,
          "internalType": "uint256",
          "name": "yieldReceived",
          "type": "uint256"
        },
        {
          "indexed": false,
          "internalType": "uint256",
          "name": "debtRepaid",
          "type": "uint256"
        },
        {
          "indexed": false,
          "internalType": "uint256",
          "name": "liquidationFee",
          "type": "uint256"
        },
        {
          "indexed": false,
          "internalType": "uint256",
          "name": "userRefund",
          "type": "uint256"
        }
      ],
      "name": "LiquidationSettled",
      "type": "event"
    },
    {
      "anonymous": false,
      "inputs": [
        {
          "indexed": true,
          "internalType": "uint256",
          "name": "positionId",
          "type": "uint256"
        },
        {
          "indexed": false,
          "internalType": "uint256",
          "name": "amount",
          "type": "uint256"
        },
        {
          "indexed": false,
          "internalType": "uint256",
          "name": "principal",
          "type": "uint256"
        },
        {
          "indexed": false,
          "internalType": "uint256",
          "name": "interest",
          "type": "uint256"
        },
        {
          "indexed": false,
          "internalType": "uint256",
          "name": "remainingDebt",
          "type": "uint256"
        }
      ],
      "name": "LoanRepaid",
      "type": "event"
    },
    {
      "anonymous": false,
      "inputs": [
        {
          "indexed": true,
          "internalType": "uint256",
          "name": "positionId",
          "type": "uint256"
        },
        {
          "indexed": false,
          "internalType": "uint256",
          "name": "creditLineId",
          "type": "uint256"
        },
        {
          "indexed": false,
          "internalType": "uint256",
          "name": "creditLimit",
          "type": "uint256"
        }
      ],
      "name": "OAIDCreditIssued",
      "type": "event"
    },
    {
      "anonymous": false,
      "inputs": [
        {
          "indexed": true,
          "internalType": "address",
          "name": "previousOwner",
          "type": "address"
        },
        {
          "indexed": true,
          "internalType": "address",
          "name": "newOwner",
          "type": "address"
        }
      ],
      "name": "OwnershipTransferred",
      "type": "event"
    },
    {
      "anonymous": false,
      "inputs": [
        {
          "indexed": true,
          "internalType": "uint256",
          "name": "positionId",
          "type": "uint256"
        },
        {
          "indexed": true,
          "internalType": "address",
          "name": "user",
          "type": "address"
        },
        {
          "indexed": false,
          "internalType": "address",
          "name": "collateralToken",
          "type": "address"
        },
        {
          "indexed": false,
          "internalType": "uint256",
          "name": "collateralAmount",
          "type": "uint256"
        },
        {
          "indexed": false,
          "internalType": "uint256",
          "name": "tokenValueUSD",
          "type": "uint256"
        },
        {
          "indexed": false,
          "internalType": "enum SolvencyVault.TokenType",
          "name": "tokenType",
          "type": "uint8"
        }
      ],
      "name": "PositionCreated",
      "type": "event"
    },
    {
      "anonymous": false,
      "inputs": [
        {
          "indexed": true,
          "internalType": "uint256",
          "name": "positionId",
          "type": "uint256"
        },
        {
          "indexed": false,
          "internalType": "uint256",
          "name": "liquidationTime",
          "type": "uint256"
        }
      ],
      "name": "PositionLiquidated",
      "type": "event"
    },
    {
      "anonymous": false,
      "inputs": [
        {
          "indexed": true,
          "internalType": "uint256",
          "name": "positionId",
          "type": "uint256"
        },
        {
          "indexed": true,
          "internalType": "address",
          "name": "purchaser",
          "type": "address"
        },
        {
          "indexed": false,
          "internalType": "uint256",
          "name": "purchaseAmount",
          "type": "uint256"
        },
        {
          "indexed": false,
          "internalType": "uint256",
          "name": "tokensTransferred",
          "type": "uint256"
        },
        {
          "indexed": false,
          "internalType": "uint256",
          "name": "debtRepaid",
          "type": "uint256"
        },
        {
          "indexed": false,
          "internalType": "uint256",
          "name": "liquidationFee",
          "type": "uint256"
        },
        {
          "indexed": false,
          "internalType": "uint256",
          "name": "userRefund",
          "type": "uint256"
        }
      ],
      "name": "PrivateAssetLiquidationSettled",
      "type": "event"
    },
    {
      "anonymous": false,
      "inputs": [
        {
          "indexed": true,
          "internalType": "uint256",
          "name": "positionId",
          "type": "uint256"
        },
        {
          "indexed": false,
          "internalType": "uint256",
          "name": "amount",
          "type": "uint256"
        },
        {
          "indexed": false,
          "internalType": "uint256",
          "name": "totalDebt",
          "type": "uint256"
        }
      ],
      "name": "USDCBorrowed",
      "type": "event"
    },
    {
      "inputs": [],
      "name": "BASIS_POINTS",
      "outputs": [
        {
          "internalType": "uint256",
          "name": "",
          "type": "uint256"
        }
      ],
      "stateMutability": "view",
      "type": "function"
    },
    {
      "inputs": [],
      "name": "LIQUIDATION_FEE_BPS",
      "outputs": [
        {
          "internalType": "uint256",
          "name": "",
          "type": "uint256"
        }
      ],
      "stateMutability": "view",
      "type": "function"
    },
    {
      "inputs": [],
      "name": "LIQUIDATION_THRESHOLD",
      "outputs": [
        {
          "internalType": "uint256",
          "name": "",
          "type": "uint256"
        }
      ],
      "stateMutability": "view",
      "type": "function"
    },
    {
      "inputs": [],
      "name": "PRIVATE_ASSET_LTV",
      "outputs": [
        {
          "internalType": "uint256",
          "name": "",
          "type": "uint256"
        }
      ],
      "stateMutability": "view",
      "type": "function"
    },
    {
      "inputs": [],
      "name": "RWA_LTV",
      "outputs": [
        {
          "internalType": "uint256",
          "name": "",
          "type": "uint256"
        }
      ],
      "stateMutability": "view",
      "type": "function"
    },
    {
      "inputs": [
        {
          "internalType": "uint256",
          "name": "positionId",
          "type": "uint256"
        },
        {
          "internalType": "uint256",
          "name": "amount",
          "type": "uint256"
        }
      ],
      "name": "borrowUSDC",
      "outputs": [],
      "stateMutability": "nonpayable",
      "type": "function"
    },
    {
      "inputs": [
        {
          "internalType": "address",
          "name": "collateralToken",
          "type": "address"
        },
        {
          "internalType": "uint256",
          "name": "collateralAmount",
          "type": "uint256"
        },
        {
          "internalType": "uint256",
          "name": "tokenValueUSD",
          "type": "uint256"
        },
        {
          "internalType": "enum SolvencyVault.TokenType",
          "name": "tokenType",
          "type": "uint8"
        },
        {
          "internalType": "bool",
          "name": "issueOAID",
          "type": "bool"
        }
      ],
      "name": "depositCollateral",
      "outputs": [
        {
          "internalType": "uint256",
          "name": "positionId",
          "type": "uint256"
        }
      ],
      "stateMutability": "nonpayable",
      "type": "function"
    },
    {
      "inputs": [
        {
          "internalType": "uint256",
          "name": "positionId",
          "type": "uint256"
        }
      ],
      "name": "getHealthFactor",
      "outputs": [
        {
          "internalType": "uint256",
          "name": "",
          "type": "uint256"
        }
      ],
      "stateMutability": "view",
      "type": "function"
    },
    {
      "inputs": [
        {
          "internalType": "uint256",
          "name": "positionId",
          "type": "uint256"
        }
      ],
      "name": "getMaxBorrow",
      "outputs": [
        {
          "internalType": "uint256",
          "name": "",
          "type": "uint256"
        }
      ],
      "stateMutability": "view",
      "type": "function"
    },
    {
      "inputs": [
        {
          "internalType": "uint256",
          "name": "positionId",
          "type": "uint256"
        }
      ],
      "name": "getPosition",
      "outputs": [
        {
          "components": [
            {
              "internalType": "address",
              "name": "user",
              "type": "address"
            },
            {
              "internalType": "address",
              "name": "collateralToken",
              "type": "address"
            },
            {
              "internalType": "uint256",
              "name": "collateralAmount",
              "type": "uint256"
            },
            {
              "internalType": "uint256",
              "name": "usdcBorrowed",
              "type": "uint256"
            },
            {
              "internalType": "uint256",
              "name": "tokenValueUSD",
              "type": "uint256"
            },
            {
              "internalType": "uint256",
              "name": "createdAt",
              "type": "uint256"
            },
            {
              "internalType": "uint256",
              "name": "liquidatedAt",
              "type": "uint256"
            },
            {
              "internalType": "uint256",
              "name": "creditLineId",
              "type": "uint256"
            },
            {
              "internalType": "bool",
              "name": "active",
              "type": "bool"
            },
            {
              "internalType": "enum SolvencyVault.TokenType",
              "name": "tokenType",
              "type": "uint8"
            }
          ],
          "internalType": "struct SolvencyVault.Position",
          "name": "",
          "type": "tuple"
        }
      ],
      "stateMutability": "view",
      "type": "function"
    },
    {
      "inputs": [
        {
          "internalType": "uint256",
          "name": "positionId",
          "type": "uint256"
        }
      ],
      "name": "liquidatePosition",
      "outputs": [],
      "stateMutability": "nonpayable",
      "type": "function"
    },
    {
      "inputs": [],
      "name": "nextPositionId",
      "outputs": [
        {
          "internalType": "uint256",
          "name": "",
          "type": "uint256"
        }
      ],
      "stateMutability": "view",
      "type": "function"
    },
    {
      "inputs": [],
      "name": "oaid",
      "outputs": [
        {
          "internalType": "address",
          "name": "",
          "type": "address"
        }
      ],
      "stateMutability": "view",
      "type": "function"
    },
    {
      "inputs": [],
      "name": "owner",
      "outputs": [
        {
          "internalType": "address",
          "name": "",
          "type": "address"
        }
      ],
      "stateMutability": "view",
      "type": "function"
    },
    {
      "inputs": [
        {
          "internalType": "uint256",
          "name": "",
          "type": "uint256"
        }
      ],
      "name": "positions",
      "outputs": [
        {
          "internalType": "address",
          "name": "user",
          "type": "address"
        },
        {
          "internalType": "address",
          "name": "collateralToken",
          "type": "address"
        },
        {
          "internalType": "uint256",
          "name": "collateralAmount",
          "type": "uint256"
        },
        {
          "internalType": "uint256",
          "name": "usdcBorrowed",
          "type": "uint256"
        },
        {
          "internalType": "uint256",
          "name": "tokenValueUSD",
          "type": "uint256"
        },
        {
          "internalType": "uint256",
          "name": "createdAt",
          "type": "uint256"
        },
        {
          "internalType": "uint256",
          "name": "liquidatedAt",
          "type": "uint256"
        },
        {
          "internalType": "uint256",
          "name": "creditLineId",
          "type": "uint256"
        },
        {
          "internalType": "bool",
          "name": "active",
          "type": "bool"
        },
        {
          "internalType": "enum SolvencyVault.TokenType",
          "name": "tokenType",
          "type": "uint8"
        }
      ],
      "stateMutability": "view",
      "type": "function"
    },
    {
      "inputs": [
        {
          "internalType": "uint256",
          "name": "",
          "type": "uint256"
        }
      ],
      "name": "positionsInLiquidation",
      "outputs": [
        {
          "internalType": "bool",
          "name": "",
          "type": "bool"
        }
      ],
      "stateMutability": "view",
      "type": "function"
    },
    {
      "inputs": [],
      "name": "primaryMarket",
      "outputs": [
        {
          "internalType": "address",
          "name": "",
          "type": "address"
        }
      ],
      "stateMutability": "view",
      "type": "function"
    },
    {
      "inputs": [
        {
          "internalType": "uint256",
          "name": "positionId",
          "type": "uint256"
        },
        {
          "internalType": "uint256",
          "name": "purchaseAmount",
          "type": "uint256"
        }
      ],
      "name": "purchaseAndSettleLiquidation",
      "outputs": [
        {
          "internalType": "uint256",
          "name": "liquidationFee",
          "type": "uint256"
        },
        {
          "internalType": "uint256",
          "name": "userRefund",
          "type": "uint256"
        }
      ],
      "stateMutability": "nonpayable",
      "type": "function"
    },
    {
      "inputs": [],
      "name": "renounceOwnership",
      "outputs": [],
      "stateMutability": "nonpayable",
      "type": "function"
    },
    {
      "inputs": [
        {
          "internalType": "uint256",
          "name": "positionId",
          "type": "uint256"
        },
        {
          "internalType": "uint256",
          "name": "amount",
          "type": "uint256"
        }
      ],
      "name": "repayLoan",
      "outputs": [],
      "stateMutability": "nonpayable",
      "type": "function"
    },
    {
      "inputs": [],
      "name": "seniorPool",
      "outputs": [
        {
          "internalType": "address",
          "name": "",
          "type": "address"
        }
      ],
      "stateMutability": "view",
      "type": "function"
    },
    {
      "inputs": [
        {
          "internalType": "address",
          "name": "_oaid",
          "type": "address"
        }
      ],
      "name": "setOAID",
      "outputs": [],
      "stateMutability": "nonpayable",
      "type": "function"
    },
    {
      "inputs": [
        {
          "internalType": "address",
          "name": "_primaryMarket",
          "type": "address"
        }
      ],
      "name": "setPrimaryMarket",
      "outputs": [],
      "stateMutability": "nonpayable",
      "type": "function"
    },
    {
      "inputs": [
        {
          "internalType": "address",
          "name": "_yieldVault",
          "type": "address"
        }
      ],
      "name": "setYieldVault",
      "outputs": [],
      "stateMutability": "nonpayable",
      "type": "function"
    },
    {
      "inputs": [
        {
          "internalType": "uint256",
          "name": "positionId",
          "type": "uint256"
        }
      ],
      "name": "settleLiquidation",
      "outputs": [
        {
          "internalType": "uint256",
          "name": "yieldReceived",
          "type": "uint256"
        },
        {
          "internalType": "uint256",
          "name": "liquidationFee",
          "type": "uint256"
        },
        {
          "internalType": "uint256",
          "name": "userRefund",
          "type": "uint256"
        }
      ],
      "stateMutability": "nonpayable",
      "type": "function"
    },
    {
      "inputs": [
        {
          "internalType": "address",
          "name": "newOwner",
          "type": "address"
        }
      ],
      "name": "transferOwnership",
      "outputs": [],
      "stateMutability": "nonpayable",
      "type": "function"
    },
    {
      "inputs": [],
      "name": "usdc",
      "outputs": [
        {
          "internalType": "contract IERC20",
          "name": "",
          "type": "address"
        }
      ],
      "stateMutability": "view",
      "type": "function"
    },
    {
      "inputs": [
        {
          "internalType": "uint256",
          "name": "positionId",
          "type": "uint256"
        },
        {
          "internalType": "uint256",
          "name": "amount",
          "type": "uint256"
        }
      ],
      "name": "withdrawCollateral",
      "outputs": [],
      "stateMutability": "nonpayable",
      "type": "function"
    },
    {
      "inputs": [],
      "name": "yieldVault",
      "outputs": [
        {
          "internalType": "address",
          "name": "",
          "type": "address"
        }
      ],
      "stateMutability": "view",
      "type": "function"
    }
  ],
  "bytecode": "0x608034620000f557601f6200279738819003918201601f19168301916001600160401b03831184841017620000fa578084926040948552833981010312620000f5576200005a6020620000528362000110565b920162000110565b3315620000dc5760008054336001600160a01b0319808316821784556040519590946001600160a01b03949093859391908416907f8be0079c531659141344cd1fd0a4f28419497f9722a3daafe3b4186f6b6457e09080a360018055168360025416176002551690600354161760035560016007556126719081620001268239f35b604051631e4fbdf760e01b815260006004820152602490fd5b600080fd5b634e487b7160e01b600052604160045260246000fd5b51906001600160a01b0382168203620000f55756fe608060405260048036101561001357600080fd5b60009060e0908235821c9182630bae9ef914611ba7578263137c3f6914611b5b57826316ef172914611b2c57826317845c6914611b0d5782631e77ceda14611ae55782632be0439214611abc5782633e413bee14611a9357826347f6c76014611883578263518e8dfc146118665782635403bc4a146113c75782636c320cb01461137b578263715018a614611321578263761c5f0a14611304578263767a7b05146110d65782637b5210d8146110af578263837c2a6114610a90578263899346c714610a72578383638a700b531461073e575082638da5cb5b1461071757826390a8ae9b146106fa57826399fbab8814610655578263a7f8a5e21461062c578263cdddd4e514610408578263d79873b9146103eb578263e1f1c4a7146103ce578263e2dc366614610385578263eb02c3011461022057508163f2fde38b14610190575063f416fc1c1461016557600080fd5b3461018d578060031936011261018d576003546040516001600160a01b039091168152602090f35b80fd5b90503461021c57602036600319011261021c576101ab611f8c565b6101b3611fdb565b6001600160a01b039081169182156102045750600054826001600160601b0360a01b821617600055167f8be0079c531659141344cd1fd0a4f28419497f9722a3daafe3b4186f6b6457e0600080a380f35b604051631e4fbdf760e01b8152908101849052602490fd5b5080fd5b9150346103815760203660031901126103815761012061037f916101409461030c60ff6008604080519461025386612086565b80865280602087015280828701528060608701528060808701528060a08701528060c0870152808a8701528088610100978289820152015286358152600660205220604051956102a287612086565b81546001600160a01b039081168852600183015416602088015260028201546040880152600382015460608801528101546080870152600581015460a0870152600681015460c0870152600781015489870152015481811615158486015260081c1684840161214b565b6040519460018060a01b03835116865260018060a01b03602084015116602087015260408301516040870152606083015160608701526080830151608087015260a083015160a087015260c083015160c08701528083015190860152808201511515908501520151610120830190611fb8565bf35b8280fd5b83823461021c57602036600319011261021c576103a0611f8c565b6103a8611fdb565b6001600160a01b03166103bc811515612007565b81546001600160a01b03191617905580f35b833461018d578060031936011261018d5760206040516127108152f35b833461018d578060031936011261018d5760206040516117708152f35b83823461021c576020908160031936011261038157803591610428611fdb565b610430612180565b82845260068152604084209161044c60ff6008850154166121a3565b8385526008825260ff6040862054166105f157612cec61046b85612380565b10156105b9578385526008825260408520805460ff191660011790554260068401556005546001600160a01b031692859190841515806105ac575b6104dd575b82867f77493833e3b7f392bd715ffdc3abd21434418e6889264880074c970e1b5e61c886604051428152a26001805580f35b60070193845491813b1561059d5783916040519384926367cc7cff60e01b84528301526040602483015281838161051660448201612299565b03925af180156105a157610589575b50507f77493833e3b7f392bd715ffdc3abd21434418e6889264880074c970e1b5e61c89154837fd89109f5414f7b5415e9a3e20b055f6a8cc38b81f34d24eb5ae3512086356a8a6040518481528061057e868201612299565b0390a38385806104ab565b610592906120b9565b61059d578385610525565b8380fd5b6040513d84823e3d90fd5b50600781015415156104a6565b6064916040519162461bcd60e51b83528201526013602482015272506f736974696f6e206973206865616c74687960681b6044820152fd5b6064916040519162461bcd60e51b8352820152601660248201527520b63932b0b23c9034b7103634b8bab4b230ba34b7b760511b6044820152fd5b833461018d578060031936011261018d576009546040516001600160a01b039091168152602090f35b915034610381576020366003190112610381578060406101409461037f9335815260066020522060018060a01b039384825416946001830154169260028301549060038401549084015460058501549160068601549360086007880154970154976040519a8b5260208b015260408a01526060890152608088015260a087015260c086015284015260ff8116151561010084015260ff61012084019160081c16611fb8565b833461018d578060031936011261018d576020604051612cec8152f35b833461018d578060031936011261018d57546040516001600160a01b039091168152602090f35b808334610a6f5761074e36611fa2565b610759939193612180565b83825260209260068452604083209061077860ff6008840154166121a3565b81546001600160a01b03929061079190841633146121e5565b61079c841515612045565b600254604080516323b872dd60e01b81523381860190815230602082015291820187905293918891859187169082908a90829060600103925af1928315610a475761082f936107f2918891610a52575b50612233565b8685856002541686600354168960405180988195829463095ea7b360e01b845289840160209093929193604081019460018060a01b031681520152565b03925af1928315610a47578693610a1a575b5060408460035416604482518099819363d8aed14560e01b83528d878401528a60248401525af1938415610a0f57839684956109d8575b506003830161088888825461228c565b90558060035416888a60246040518094819363d559515760e01b8352888301525afa9889156109cd578599610995575b5050600554169182151580610988575b610924575b505050507f91f28e20f26321cf8a71cadbefe77cfe670ee70b71a621e3ce3fb1b57e19dfaa9361091a91604051948594859094939260609260808301968352602083015260408201520152565b0390a26001805580f35b60070154823b1561059d576084849283604051958694859363f2f6818f60e01b8552840152896024840152600160448401528160648401525af180156105a157610970575b80806108cd565b610979906120b9565b610984578587610969565b8580fd5b50600781015415156108c8565b809299508195503d83116109c6575b6109ae81836120cd565b810103126109c157889251968a806108b8565b600080fd5b503d6109a4565b6040513d87823e3d90fd5b9094506109fe91965060403d604011610a08575b6109f681836120cd565b810190612276565b959095938a610878565b503d6109ec565b6040513d85823e3d90fd5b610a3990883d8a11610a40575b610a3181836120cd565b8101906120ef565b5089610841565b503d610a27565b6040513d88823e3d90fd5b610a699150893d8b11610a4057610a3181836120cd565b8b6107ec565b50fd5b833461018d578060031936011261018d576020600754604051908152f35b83823461021c5760208060031936011261038157813591610aaf611fdb565b610ab7612180565b828452600682526040842091600883019360ff8554610ad78282166121a3565b82885260088452610aed8260408a2054166122ef565b60081c16600281101561109c57611062576009546001600160a01b03908116959094908615611029579084916001820191878354169286610b6260028401958d8754906040519e8f948593849263095ea7b360e01b9d8e8552840160209093929193604081019460018060a01b031681520152565b03925af1908115610f3b57610bb89a889261100c575b50898060095416915416908554918d8b6040519e8f9586948593630c34f5ed60e11b8552840160209093929193604081019460018060a01b031681520152565b03925af1988915610d74578a99610fdd575b508815610fa55787600354168a60405163d559515760e01b8152878a8201528881602481865afa9283156105a1578c978b948b938591610f6d575b50849981610e83575b94505050505085915011600014610e4e57610c29848a61228c565b966103e8808902908982041489151715610e3b57612710610c4c9104809961228c565b988b888a80610d7f575b50505089610cc8575b5050509160609886927f1b5cd914bf77ee50de90263f47d89967bbce85a4eb078d958bfee08dc0d0cde7945b805460ff191690555560408051898152602081019290925281019190915260608101869052608090a2600180556040519384528301526040820152f35b60025492546040805163a9059cbb60e01b81529183166001600160a01b0316938201938452602084018c90529093899385939091169183918f9183910103925af1908115610d7457927f1b5cd914bf77ee50de90263f47d89967bbce85a4eb078d958bfee08dc0d0cde79492610d4a8c938a9660609e91610d57575b5061233b565b9294829b50819450610c5f565b610d6e91508a3d8c11610a4057610a3181836120cd565b8e610d44565b6040513d8c823e3d90fd5b60025483546040805163a9059cbb60e01b81529187166001600160a01b031688830190815260208101949094529094859392871692849283910103925af1908115610e30578d91610e13575b5015610dd9578b888a610c56565b60405162461bcd60e51b81528083018990526013602482015272119959481d1c985b9cd9995c8819985a5b1959606a1b6044820152606490fd5b610e2a9150893d8b11610a4057610a3181836120cd565b8d610dcb565b6040513d8f823e3d90fd5b634e487b7160e01b8c526011825260248cfd5b5095508794507f1b5cd914bf77ee50de90263f47d89967bbce85a4eb078d958bfee08dc0d0cde7916060989586928198610c8b565b85829394959697989b505011600014610f63579485945b8d6002541692610ecb604051978896879586948552840160209093929193604081019460018060a01b031681520152565b03925af18015610f3b57610f46575b508960408660448a8c60035416948451958694859363d8aed14560e01b85528401528760248401525af18015610f3b57610f1d575b5092868a878d80808e610c0e565b610f359060403d604011610a08576109f681836120cd565b50610f0f565b6040513d8d823e3d90fd5b610f5c90873d8911610a4057610a3181836120cd565b508a610eda565b508c948594610e9a565b9950509250925086813d8311610f9e575b610f8881836120cd565b810103126109c1578789928d928d985138610c05565b503d610f7e565b60405162461bcd60e51b81528088018790526011602482015270139bc81e5a595b19081c9958d95a5d9959607a1b6044820152606490fd5b9098508581813d8311611005575b610ff581836120cd565b810103126109c15751978a610bca565b503d610feb565b61102290833d8511610a4057610a3181836120cd565b508c610b78565b60405162461bcd60e51b81528086018590526012602482015271165a595b1915985d5b1d081b9bdd081cd95d60721b6044820152606490fd5b60405162461bcd60e51b815280840183905260136024820152724f6e6c7920666f722052574120746f6b656e7360681b6044820152606490fd5b634e487b7160e01b875260218452602487fd5b50823461018d57602036600319011261018d5760206110ce83356124c7565b604051908152f35b83823461021c576110e636611fa2565b916110ef612180565b8184526020906006825260408520600881019081549161111160ff84166121a3565b81546001600160a01b03939061112a90851633146121e5565b611135881515612045565b600283018054808a116112c0578560035416888a60246040518094819363d559515760e01b83528d8301525afa9081156112b5578c91611288575b5061124457938796936111cc98969360019361118d8d809961228c565b80915515611237575b505001546040805163a9059cbb60e01b815233948101948552602085019590955293968794929091169284928b92849290910190565b03925af19182156109cd577f7c5e5cb62e5ed3caf3764e4b0afedfedef533e27809d43367799787ad2abcd419261120a91879161121a575b50612107565b6040519384523393a36001805580f35b6112319150833d8511610a4057610a3181836120cd565b87611204565b60ff191690558b80611196565b60405162461bcd60e51b8152808801899052601f60248201527f4f75747374616e64696e672064656274206d75737420626520726570616964006044820152606490fd5b90508881813d83116112ae575b61129f81836120cd565b810103126109c157518c611170565b503d611295565b6040513d8e823e3d90fd5b60405162461bcd60e51b8152808801899052601760248201527f496e73756666696369656e7420636f6c6c61746572616c0000000000000000006044820152606490fd5b833461018d578060031936011261018d576020604051611b588152f35b833461018d578060031936011261018d5761133a611fdb565b600080546001600160a01b0319811682556001600160a01b03167f8be0079c531659141344cd1fd0a4f28419497f9722a3daafe3b4186f6b6457e08280a380f35b833461018d57602036600319011261018d57611395611f8c565b61139d611fdb565b6001600160a01b03166113b1811515612007565b6001600160601b0360a01b600554161760055580f35b83823461021c576113d736611fa2565b6113e2929192611fdb565b6113ea612180565b82845260209060068252604085209360ff600886015461140b8282166121a3565b828852600885526114218260408a2054166122ef565b60081c1660028110156118535760010361180f5781156117cb57600254604080516323b872dd60e01b8152338782019081523060208201529182018590526001600160a01b039790929091869184918290036060019082908c908c165af19182156117c0578692611498918a916117a35750612233565b600181015460028201546040805163a9059cbb60e01b808252339682019687526020870193909352919491928892849290839003019082908d908d165af18015611645576114ec918a916117865750612107565b60035460405163d559515760e01b8152878101859052929088168684602481845afa938415610d74578a94611757575b50899380611677575b50508285111561166357611539838661228c565b976103e8808a02908a8204148a1517156116505761271061155c9104809a61228c565b97886115cb575b505050968060026040995b60ff1960088201541660088201550155875193845284840152868301528460608301528360808301527fe8809f589fb6a4a715f089d80b78e1c37443064c63cad260285284847c9fc4a360a03393a3600180558351928352820152f35b6002548454604080519586529084166001600160a01b0316928501928352602083018b90528993859392169183918e9183910103925af1908115611645578992611621849360029360409d91611628575061233b565b9299611563565b61163f91508a3d8c11610a4057610a3181836120cd565b8d610d44565b6040513d8b823e3d90fd5b634e487b7160e01b8b526011895260248bfd5b50945086604097965095806002819761156e565b91935090868187111561174a576116c39180935b8b60025416908d8c6040519687958694859363095ea7b360e01b8552840160209093929193604081019460018060a01b031681520152565b03925af18015610d745761172d575b50876003541660408560448a8d8451958694859363d8aed14560e01b85528401528760248401525af18015610d745761170f575b50918980611525565b6117279060403d604011610a08576109f681836120cd565b50611706565b61174390873d8911610a4057610a3181836120cd565b50896116d2565b6116c3915086809361168b565b9093508681813d831161177f575b61176f81836120cd565b810103126109c15751928a61151c565b503d611765565b61179d9150873d8911610a4057610a3181836120cd565b8a611204565b6117ba9150873d8911610a4057610a3181836120cd565b8a6107ec565b6040513d8a823e3d90fd5b60405162461bcd60e51b8152808501849052601b60248201527f507572636861736520616d6f756e74206d757374206265203e203000000000006044820152606490fd5b60405162461bcd60e51b8152808501849052601760248201527f4f6e6c7920666f722050726976617465204173736574730000000000000000006044820152606490fd5b634e487b7160e01b875260218552602487fd5b833461018d578060031936011261018d5760206040516103e88152f35b50823461018d5761189336611fa2565b61189b612180565b8183526020906006825260408420916008830154956118bc60ff88166121a3565b83546001600160a01b039760ff916118d7908a1633146121e5565b6118e2851515612045565b60081c166002811015611a8057611a70576003612710611908611b585b84880154612157565b04940193611917848654612226565b11611a3a578660035416803b15611a3657868091604460405180948193630ecbcdab60e01b83528b888401528960248401525af18015611a2b57611a10575b508282916119a296979861196b838854612226565b87556002546040805163a9059cbb60e01b815233948101948552602085019590955293988994929091169284928c92849290910190565b03925af1928315610a47576119e16040947f0902160bbfee2201aa09b6b057b6f0b7d0f633b2bdefc04e987882df4aefd29c9689916119f35750612233565b54908351928352820152a26001805580f35b611a0a9150843d8611610a4057610a3181836120cd565b896107ec565b82916119a29697611a2186936120b9565b9796509150611956565b6040513d89823e3d90fd5b8680fd5b6064916040519162461bcd60e51b83528201526011602482015270115e18d959591cc8131515881b1a5b5a5d607a1b6044820152fd5b60036127106119086117706118ff565b634e487b7160e01b875260218252602487fd5b833461018d578060031936011261018d576002546040516001600160a01b039091168152602090f35b833461018d578060031936011261018d576005546040516001600160a01b039091168152602090f35b83823461021c578160031936011261021c57546040516001600160a01b039091168152602090f35b50823461018d57602036600319011261018d5760206110ce8335612380565b83823461021c57602036600319011261021c57604060209260ff92358152600884522054166040519015158152f35b833461018d57602036600319011261018d57611b75611f8c565b611b7d611fdb565b6001600160a01b0316611b91811515612007565b6001600160601b0360a01b600954161760095580f35b833461018d5760a036600319011261018d57611bc1611f8c565b906024359360443590600260643510156103815760843515156084350361038157611bea612180565b6001600160a01b03938416918215611f5857611c07871515612045565b8015611f1c57604080516323b872dd60e01b815233848201908152306020828101919091529281018a905290919082908190606001038188885af19081156109cd5790611c5a918691611efd5750612107565b600754956000198714611eea5760018701600755600860405191611c7d83612086565b3383528560208401528960408401528660608401528360808401524260a08401528660c084015286818401526001610100840152611cc1606435610120850161214b565b88875260066020526040872090888451166001600160601b0360a01b908184541617835560018301908a60208701511690825416179055604084015160028301556060840151600383015560808401518683015560a0840151600583015560c084015160068301558301516007820155019061010081015115159061012083549101516002811015611ed75761ff0060ff9160081b1692169061ffff191617179055604051838152876020820152816040820152611d8460608201606435611fb8565b867f93cb2591720fa23e5a51a39bf9d35b6a4e5cb6c11beae435c41e4482f3a30d2160803393a360843580611eca575b611dc8575b60208660018055604051908152f35b602092918460a49260643515600014611ebc57612710611deb611b585b83612157565b049760055416906040519a8b968795637190caeb60e11b875233908701526024860152604485015260648401528860848401525af1938415611eaf578194611e7a575b50604084849360209660078486887ff71bf80fa0a269e5fdbe7113cc01a1ada492208f97e2857213258755d0cbbb5e985260068b52200155825191825286820152a28280808080611db9565b9093506020813d602011611ea7575b81611e96602093836120cd565b8101031261059d5751926040611e2e565b3d9150611e89565b50604051903d90823e3d90fd5b612710611deb611770611de5565b5084600554161515611db4565b634e487b7160e01b885260218652602488fd5b634e487b7160e01b855260118352602485fd5b611f16915060203d602011610a4057610a3181836120cd565b89611204565b60405162461bcd60e51b81526020818401526015602482015274056616c756174696f6e206d757374206265203e203605c1b6044820152606490fd5b60405162461bcd60e51b8152602081840152600d60248201526c24b73b30b634b2103a37b5b2b760991b6044820152606490fd5b600435906001600160a01b03821682036109c157565b60409060031901126109c1576004359060243590565b906002821015611fc55752565b634e487b7160e01b600052602160045260246000fd5b6000546001600160a01b03163303611fef57565b60405163118cdaa760e01b8152336004820152602490fd5b1561200e57565b60405162461bcd60e51b815260206004820152600f60248201526e496e76616c6964206164647265737360881b6044820152606490fd5b1561204c57565b60405162461bcd60e51b81526020600482015260126024820152710416d6f756e74206d757374206265203e20360741b6044820152606490fd5b610140810190811067ffffffffffffffff8211176120a357604052565b634e487b7160e01b600052604160045260246000fd5b67ffffffffffffffff81116120a357604052565b90601f8019910116810190811067ffffffffffffffff8211176120a357604052565b908160209103126109c1575180151581036109c15790565b1561210e57565b60405162461bcd60e51b8152602060048201526015602482015274151bdad95b881d1c985b9cd9995c8819985a5b1959605a1b6044820152606490fd5b6002821015611fc55752565b8181029291811591840414171561216a57565b634e487b7160e01b600052601160045260246000fd5b600260015414612191576002600155565b604051633ee5aeb560e01b8152600490fd5b156121aa57565b60405162461bcd60e51b8152602060048201526013602482015272506f736974696f6e206e6f742061637469766560681b6044820152606490fd5b156121ec57565b60405162461bcd60e51b81526020600482015260126024820152712737ba103837b9b4ba34b7b71037bbb732b960711b6044820152606490fd5b9190820180921161216a57565b1561223a57565b60405162461bcd60e51b81526020600482015260146024820152731554d110c81d1c985b9cd9995c8819985a5b195960621b6044820152606490fd5b91908260409103126109c1576020825192015190565b9190820391821161216a57565b603781527f506f736974696f6e206c697175696461746564202d20636f6c6c61746572616c60208201527f206865616c74682062656c6f77207468726573686f6c64000000000000000000604082015260600190565b156122f657565b60405162461bcd60e51b815260206004820152601760248201527f506f736974696f6e206e6f74206c6971756964617465640000000000000000006044820152606490fd5b1561234257565b60405162461bcd60e51b81526020600482015260166024820152751499599d5b99081d1c985b9cd9995c8819985a5b195960521b6044820152606490fd5b600081815260209160068352604082209060405161239d81612086565b60018060a01b03908184541681528160018501541686820152600284015460408201526003840154606082015261241a600860048601549560808401968752600581015460a0850152600681015460c0850152600781015460e085015201549161012060ff6101008301948181161515865260081c16910161214b565b51156124bf578490600354169160246040518094819363d559515760e01b835260048301525afa938415610a0f57839461248f575b505082156124865751906127109182810292818404149015171561247257500490565b634e487b7160e01b81526011600452602490fd5b50505060001990565b9080929450813d83116124b8575b6124a781836120cd565b8101031261021c575191388061244f565b503d61249d565b505050905090565b600090808252602090600682526040832090604051916124e683612086565b60018060a01b039283825416815283600183015416858201526002820154604082015260038201546060820152600860048301549260808301938452600581015460a0840152600681015460c0840152600781015460e084015201549061256460ff61012061010084019382861615158552019360081c168361214b565b51156126335751600281101561261f576125908592612710921560001461261657611b58905b51612157565b0492600354169160246040518094819363d559515760e01b835260048301525afa92831561260b5784936125db575b5050818111156125d6576125d3925061228c565b90565b505090565b9080929350813d8311612604575b6125f381836120cd565b8101031261038157519038806125bf565b503d6125e9565b6040513d86823e3d90fd5b6117709061258a565b634e487b7160e01b86526021600452602486fd5b50505050509056fea264697066735822122010a6ad922e841594d7f0912b74b4e28f76b176be9897548939d3dbe24a8b1ff864736f6c63430008140033",
  "linkReferences": {},
  "deployedLinkReferences": {}
}