{
  "_format": "hh-sol-artifact-1",
  "contractName": "MockFluxionDEX",
  "sourceName": "contracts/test/MockFluxionDEX.sol",
  "abi": [
    {
      "inputs": [
        {
          "internalType": "address",
          "name": "_mETH",
          "type": "address"
        },
        {
          "internalType": "address",
          "name": "_USDC",
          "type": "address"
        },
        {
          "internalType": "uint256",
          "name": "_initialExchangeRate",
          "type": "uint256"
        }
      ],
      "stateMutability": "nonpayable",
      "type": "constructor"
    },
    {
      "inputs": [
        {
          "internalType": "address",
          "name": "owner",
          "type": "address"
        }
      ],
      "name": "OwnableInvalidOwner",
      "type": "error"
    },
    {
      "inputs": [
        {
          "internalType": "address",
          "name": "account",
          "type": "address"
        }
      ],
      "name": "OwnableUnauthorizedAccount",
      "type": "error"
    },
    {
      "inputs": [],
      "name": "ReentrancyGuardReentrantCall",
      "type": "error"
    },
    {
      "anonymous": false,
      "inputs": [
        {
          "indexed": false,
          "internalType": "uint256",
          "name": "oldRate",
          "type": "uint256"
        },
        {
          "indexed": false,
          "internalType": "uint256",
          "name": "newRate",
          "type": "uint256"
        }
      ],
      "name": "ExchangeRateUpdated",
      "type": "event"
    },
    {
      "anonymous": false,
      "inputs": [
        {
          "indexed": false,
          "internalType": "uint256",
          "name": "mETHAmount",
          "type": "uint256"
        },
        {
          "indexed": false,
          "internalType": "uint256",
          "name": "usdcAmount",
          "type": "uint256"
        }
      ],
      "name": "LiquidityAdded",
      "type": "event"
    },
    {
      "anonymous": false,
      "inputs": [
        {
          "indexed": true,
          "internalType": "address",
          "name": "previousOwner",
          "type": "address"
        },
        {
          "indexed": true,
          "internalType": "address",
          "name": "newOwner",
          "type": "address"
        }
      ],
      "name": "OwnershipTransferred",
      "type": "event"
    },
    {
      "anonymous": false,
      "inputs": [
        {
          "indexed": true,
          "internalType": "address",
          "name": "user",
          "type": "address"
        },
        {
          "indexed": true,
          "internalType": "address",
          "name": "tokenIn",
          "type": "address"
        },
        {
          "indexed": true,
          "internalType": "address",
          "name": "tokenOut",
          "type": "address"
        },
        {
          "indexed": false,
          "internalType": "uint256",
          "name": "amountIn",
          "type": "uint256"
        },
        {
          "indexed": false,
          "internalType": "uint256",
          "name": "amountOut",
          "type": "uint256"
        }
      ],
      "name": "Swapped",
      "type": "event"
    },
    {
      "inputs": [],
      "name": "USDC",
      "outputs": [
        {
          "internalType": "contract IERC20",
          "name": "",
          "type": "address"
        }
      ],
      "stateMutability": "view",
      "type": "function"
    },
    {
      "inputs": [
        {
          "internalType": "uint256",
          "name": "mETHAmount",
          "type": "uint256"
        },
        {
          "internalType": "uint256",
          "name": "usdcAmount",
          "type": "uint256"
        }
      ],
      "name": "addLiquidity",
      "outputs": [],
      "stateMutability": "nonpayable",
      "type": "function"
    },
    {
      "inputs": [],
      "name": "exchangeRate",
      "outputs": [
        {
          "internalType": "uint256",
          "name": "",
          "type": "uint256"
        }
      ],
      "stateMutability": "view",
      "type": "function"
    },
    {
      "inputs": [
        {
          "internalType": "uint256",
          "name": "mETHAmount",
          "type": "uint256"
        }
      ],
      "name": "getQuote",
      "outputs": [
        {
          "internalType": "uint256",
          "name": "",
          "type": "uint256"
        }
      ],
      "stateMutability": "view",
      "type": "function"
    },
    {
      "inputs": [
        {
          "internalType": "uint256",
          "name": "usdcAmount",
          "type": "uint256"
        }
      ],
      "name": "getQuoteReverse",
      "outputs": [
        {
          "internalType": "uint256",
          "name": "",
          "type": "uint256"
        }
      ],
      "stateMutability": "view",
      "type": "function"
    },
    {
      "inputs": [],
      "name": "getReserves",
      "outputs": [
        {
          "internalType": "uint256",
          "name": "",
          "type": "uint256"
        },
        {
          "internalType": "uint256",
          "name": "",
          "type": "uint256"
        }
      ],
      "stateMutability": "view",
      "type": "function"
    },
    {
      "inputs": [],
      "name": "mETH",
      "outputs": [
        {
          "internalType": "contract IERC20",
          "name": "",
          "type": "address"
        }
      ],
      "stateMutability": "view",
      "type": "function"
    },
    {
      "inputs": [],
      "name": "mETHReserve",
      "outputs": [
        {
          "internalType": "uint256",
          "name": "",
          "type": "uint256"
        }
      ],
      "stateMutability": "view",
      "type": "function"
    },
    {
      "inputs": [],
      "name": "owner",
      "outputs": [
        {
          "internalType": "address",
          "name": "",
          "type": "address"
        }
      ],
      "stateMutability": "view",
      "type": "function"
    },
    {
      "inputs": [],
      "name": "renounceOwnership",
      "outputs": [],
      "stateMutability": "nonpayable",
      "type": "function"
    },
    {
      "inputs": [
        {
          "internalType": "uint256",
          "name": "newRate",
          "type": "uint256"
        }
      ],
      "name": "setExchangeRate",
      "outputs": [],
      "stateMutability": "nonpayable",
      "type": "function"
    },
    {
      "inputs": [
        {
          "internalType": "uint256",
          "name": "mETHAmount",
          "type": "uint256"
        },
        {
          "internalType": "uint256",
          "name": "minUSDCOut",
          "type": "uint256"
        }
      ],
      "name": "swapMETHForUSDC",
      "outputs": [
        {
          "internalType": "uint256",
          "name": "usdcOut",
          "type": "uint256"
        }
      ],
      "stateMutability": "nonpayable",
      "type": "function"
    },
    {
      "inputs": [
        {
          "internalType": "uint256",
          "name": "mETHAmount",
          "type": "uint256"
        },
        {
          "internalType": "uint256",
          "name": "exactUSDCOut",
          "type": "uint256"
        }
      ],
      "name": "swapMETHForUSDCExact",
      "outputs": [
        {
          "internalType": "uint256",
          "name": "usdcOut",
          "type": "uint256"
        }
      ],
      "stateMutability": "nonpayable",
      "type": "function"
    },
    {
      "inputs": [
        {
          "internalType": "uint256",
          "name": "usdcAmount",
          "type": "uint256"
        },
        {
          "internalType": "uint256",
          "name": "minMETHOut",
          "type": "uint256"
        }
      ],
      "name": "swapUSDCForMETH",
      "outputs": [
        {
          "internalType": "uint256",
          "name": "mETHOut",
          "type": "uint256"
        }
      ],
      "stateMutability": "nonpayable",
      "type": "function"
    },
    {
      "inputs": [
        {
          "internalType": "uint256",
          "name": "usdcAmount",
          "type": "uint256"
        },
        {
          "internalType": "uint256",
          "name": "exactMETHOut",
          "type": "uint256"
        }
      ],
      "name": "swapUSDCForMETHExact",
      "outputs": [
        {
          "internalType": "uint256",
          "name": "mETHOut",
          "type": "uint256"
        }
      ],
      "stateMutability": "nonpayable",
      "type": "function"
    },
    {
      "inputs": [
        {
          "internalType": "address",
          "name": "newOwner",
          "type": "address"
        }
      ],
      "name": "transferOwnership",
      "outputs": [],
      "stateMutability": "nonpayable",
      "type": "function"
    },
    {
      "inputs": [],
      "name": "usdcReserve",
      "outputs": [
        {
          "internalType": "uint256",
          "name": "",
          "type": "uint256"
        }
      ],
      "stateMutability": "view",
      "type": "function"
    }
  ],
  "bytecode": "0x608060405234801561001057600080fd5b506040516200139a3803806200139a83398101604081905261003191610148565b338061005757604051631e4fbdf760e01b81526000600482015260240160405180910390fd5b610060816100dc565b5060018055600280546001600160a01b038581166001600160a01b031992831617909255600380549285169290911691909117905560048190556040805160008152602081018390527fc8d1043f24843c0a1c9251fdc30017d84e87498fbcf232af9f86816b5e182bde910160405180910390a1505050610184565b600080546001600160a01b038381166001600160a01b0319831681178455604051919092169283917f8be0079c531659141344cd1fd0a4f28419497f9722a3daafe3b4186f6b6457e09190a35050565b80516001600160a01b038116811461014357600080fd5b919050565b60008060006060848603121561015d57600080fd5b6101668461012c565b92506101746020850161012c565b9150604084015190509250925092565b61120680620001946000396000f3fe608060405234801561001057600080fd5b506004361061010b5760003560e01c80638d393348116100a2578063bcc023fe11610071578063bcc023fe14610208578063cf39918e14610211578063db068e0e14610224578063ee098de214610237578063f2fde38b1461024a57600080fd5b80638d393348146101be5780638da5cb5b146101d15780639cd441da146101e2578063b5dc1bdc146101f557600080fd5b80633ba0b9a9116100de5780633ba0b9a91461018f5780636a5809cc14610198578063715018a6146101a157806389a30271146101ab57600080fd5b8063062e6026146101105780630902f1ac146101365780631bc822211461015157806329e8486714610164575b600080fd5b61012361011e366004610faa565b61025d565b6040519081526020015b60405180910390f35b6005546006546040805192835260208301919091520161012d565b61012361015f366004610faa565b610522565b600254610177906001600160a01b031681565b6040516001600160a01b03909116815260200161012d565b61012360045481565b61012360065481565b6101a96107d1565b005b600354610177906001600160a01b031681565b6101236101cc366004610faa565b6107e5565b6000546001600160a01b0316610177565b6101a96101f0366004610faa565b610a20565b610123610203366004610faa565b610bc8565b61012360055481565b61012361021f366004610fcc565b610df4565b6101a9610232366004610fcc565b610e17565b610123610245366004610fcc565b610ead565b6101a9610258366004610fe5565b610ec5565b6000610267610f03565b600083116102bc5760405162461bcd60e51b815260206004820152601d60248201527f416d6f756e74206d7573742062652067726561746572207468616e203000000060448201526064015b60405180910390fd5b6004546102d184670de0b6b3a764000061102b565b6102db9190611042565b90508181101561032d5760405162461bcd60e51b815260206004820152601b60248201527f536c69707061676520746f6c6572616e6365206578636565646564000000000060448201526064016102b3565b80600554101561037f5760405162461bcd60e51b815260206004820152601b60248201527f496e73756666696369656e74206d455448206c6971756964697479000000000060448201526064016102b3565b6003546040516323b872dd60e01b81526001600160a01b03909116906323b872dd906103b390339030908890600401611064565b6020604051808303816000875af11580156103d2573d6000803e3d6000fd5b505050506040513d601f19601f820116820180604052508101906103f69190611088565b6104125760405162461bcd60e51b81526004016102b3906110aa565b826006600082825461042491906110d8565b92505081905550806005600082825461043d91906110eb565b909155505060025460405163a9059cbb60e01b8152336004820152602481018390526001600160a01b039091169063a9059cbb906044016020604051808303816000875af1158015610493573d6000803e3d6000fd5b505050506040513d601f19601f820116820180604052508101906104b79190611088565b6104d35760405162461bcd60e51b81526004016102b3906110fe565b60025460035460408051868152602081018590526001600160a01b03938416939092169133916000805160206111b183398151915291015b60405180910390a461051c60018055565b92915050565b600061052c610f03565b6000831161057c5760405162461bcd60e51b815260206004820152601d60248201527f416d6f756e74206d7573742062652067726561746572207468616e203000000060448201526064016102b3565b670de0b6b3a764000060045484610593919061102b565b61059d9190611042565b9050818110156105ef5760405162461bcd60e51b815260206004820152601b60248201527f536c69707061676520746f6c6572616e6365206578636565646564000000000060448201526064016102b3565b8060065410156106415760405162461bcd60e51b815260206004820152601b60248201527f496e73756666696369656e742055534443206c6971756964697479000000000060448201526064016102b3565b6002546040516323b872dd60e01b81526001600160a01b03909116906323b872dd9061067590339030908890600401611064565b6020604051808303816000875af1158015610694573d6000803e3d6000fd5b505050506040513d601f19601f820116820180604052508101906106b89190611088565b6106d45760405162461bcd60e51b81526004016102b3906110fe565b82600560008282546106e691906110d8565b9250508190555080600660008282546106ff91906110eb565b909155505060035460405163a9059cbb60e01b8152336004820152602481018390526001600160a01b039091169063a9059cbb906044016020604051808303816000875af1158015610755573d6000803e3d6000fd5b505050506040513d601f19601f820116820180604052508101906107799190611088565b6107955760405162461bcd60e51b81526004016102b3906110aa565b60035460025460408051868152602081018590526001600160a01b03938416939092169133916000805160206111b1833981519152910161050b565b6107d9610f2d565b6107e36000610f5a565b565b60006107ef610f03565b6000831161080f5760405162461bcd60e51b81526004016102b39061112c565b6000821161082f5760405162461bcd60e51b81526004016102b39061116e565b8160055410156108815760405162461bcd60e51b815260206004820152601b60248201527f496e73756666696369656e74206d455448206c6971756964697479000000000060448201526064016102b3565b6003546040516323b872dd60e01b81526001600160a01b03909116906323b872dd906108b590339030908890600401611064565b6020604051808303816000875af11580156108d4573d6000803e3d6000fd5b505050506040513d601f19601f820116820180604052508101906108f89190611088565b6109145760405162461bcd60e51b81526004016102b3906110aa565b826006600082825461092691906110d8565b92505081905550816005600082825461093f91906110eb565b909155505060025460405163a9059cbb60e01b8152336004820152602481018490526001600160a01b039091169063a9059cbb906044016020604051808303816000875af1158015610995573d6000803e3d6000fd5b505050506040513d601f19601f820116820180604052508101906109b99190611088565b6109d55760405162461bcd60e51b81526004016102b3906110fe565b60025460035460408051868152602081018690526001600160a01b03938416939092169133916000805160206111b183398151915291015b60405180910390a4508061051c60018055565b610a28610f2d565b8115610ad9576002546040516323b872dd60e01b81526001600160a01b03909116906323b872dd90610a6290339030908790600401611064565b6020604051808303816000875af1158015610a81573d6000803e3d6000fd5b505050506040513d601f19601f82011682018060405250810190610aa59190611088565b610ac15760405162461bcd60e51b81526004016102b3906110fe565b8160056000828254610ad391906110d8565b90915550505b8015610b8a576003546040516323b872dd60e01b81526001600160a01b03909116906323b872dd90610b1390339030908690600401611064565b6020604051808303816000875af1158015610b32573d6000803e3d6000fd5b505050506040513d601f19601f82011682018060405250810190610b569190611088565b610b725760405162461bcd60e51b81526004016102b3906110aa565b8060066000828254610b8491906110d8565b90915550505b60408051838152602081018390527f38f8a0c92f4c5b0b6877f878cb4c0c8d348a47b76d716c8e78f425043df9515b91015b60405180910390a15050565b6000610bd2610f03565b60008311610bf25760405162461bcd60e51b81526004016102b39061116e565b60008211610c125760405162461bcd60e51b81526004016102b39061112c565b816006541015610c645760405162461bcd60e51b815260206004820152601b60248201527f496e73756666696369656e742055534443206c6971756964697479000000000060448201526064016102b3565b6002546040516323b872dd60e01b81526001600160a01b03909116906323b872dd90610c9890339030908890600401611064565b6020604051808303816000875af1158015610cb7573d6000803e3d6000fd5b505050506040513d601f19601f82011682018060405250810190610cdb9190611088565b610cf75760405162461bcd60e51b81526004016102b3906110fe565b8260056000828254610d0991906110d8565b925050819055508160066000828254610d2291906110eb565b909155505060035460405163a9059cbb60e01b8152336004820152602481018490526001600160a01b039091169063a9059cbb906044016020604051808303816000875af1158015610d78573d6000803e3d6000fd5b505050506040513d601f19601f82011682018060405250810190610d9c9190611088565b610db85760405162461bcd60e51b81526004016102b3906110aa565b60035460025460408051868152602081018690526001600160a01b03938416939092169133916000805160206111b18339815191529101610a0d565b6000670de0b6b3a764000060045483610e0d919061102b565b61051c9190611042565b610e1f610f2d565b60008111610e6f5760405162461bcd60e51b815260206004820152601b60248201527f52617465206d7573742062652067726561746572207468616e2030000000000060448201526064016102b3565b600480549082905560408051828152602081018490527fc8d1043f24843c0a1c9251fdc30017d84e87498fbcf232af9f86816b5e182bde9101610bbc565b600454600090610e0d83670de0b6b3a764000061102b565b610ecd610f2d565b6001600160a01b038116610ef757604051631e4fbdf760e01b8152600060048201526024016102b3565b610f0081610f5a565b50565b600260015403610f2657604051633ee5aeb560e01b815260040160405180910390fd5b6002600155565b6000546001600160a01b031633146107e35760405163118cdaa760e01b81523360048201526024016102b3565b600080546001600160a01b038381166001600160a01b0319831681178455604051919092169283917f8be0079c531659141344cd1fd0a4f28419497f9722a3daafe3b4186f6b6457e09190a35050565b60008060408385031215610fbd57600080fd5b50508035926020909101359150565b600060208284031215610fde57600080fd5b5035919050565b600060208284031215610ff757600080fd5b81356001600160a01b038116811461100e57600080fd5b9392505050565b634e487b7160e01b600052601160045260246000fd5b808202811582820484141761051c5761051c611015565b60008261105f57634e487b7160e01b600052601260045260246000fd5b500490565b6001600160a01b039384168152919092166020820152604081019190915260600190565b60006020828403121561109a57600080fd5b8151801515811461100e57600080fd5b6020808252601490820152731554d110c81d1c985b9cd9995c8819985a5b195960621b604082015260600190565b8082018082111561051c5761051c611015565b8181038181111561051c5761051c611015565b6020808252601490820152731b515512081d1c985b9cd9995c8819985a5b195960621b604082015260600190565b60208082526022908201527f5553444320616d6f756e74206d7573742062652067726561746572207468616e604082015261020360f41b606082015260800190565b60208082526022908201527f6d45544820616d6f756e74206d7573742062652067726561746572207468616e604082015261020360f41b60608201526080019056fe6782190c91d4a7e8ad2a867deed6ec0a970cab8ff137ae2bd4abd92b3810f4d3a2646970667358221220e9b3f5aac58daa4ba54ad2855d83f3cc356f2637b8ceedbbcbb523e17390ba9f64736f6c63430008140033",
  "linkReferences": {},
  "deployedLinkReferences": {}
}