{
  "_format": "hh-sol-artifact-1",
  "contractName": "Faucet",
  "sourceName": "contracts/test/Faucet.sol",
  "abi": [
    {
      "inputs": [
        {
          "internalType": "address",
          "name": "_mockUSDC",
          "type": "address"
        }
      ],
      "stateMutability": "nonpayable",
      "type": "constructor"
    },
    {
      "inputs": [],
      "name": "mockUSDC",
      "outputs": [
        {
          "internalType": "contract IERC20",
          "name": "",
          "type": "address"
        }
      ],
      "stateMutability": "view",
      "type": "function"
    },
    {
      "inputs": [
        {
          "internalType": "address",
          "name": "to",
          "type": "address"
        },
        {
          "internalType": "uint256",
          "name": "amount",
          "type": "uint256"
        }
      ],
      "name": "requestTokens",
      "outputs": [],
      "stateMutability": "nonpayable",
      "type": "function"
    },
    {
      "inputs": [
        {
          "internalType": "address",
          "name": "to",
          "type": "address"
        },
        {
          "internalType": "uint256",
          "name": "amountInUSDC",
          "type": "uint256"
        }
      ],
      "name": "requestUSDC",
      "outputs": [],
      "stateMutability": "nonpayable",
      "type": "function"
    }
  ],
  "bytecode": "0x60803461007457601f6102aa38819003918201601f19168301916001600160401b038311848410176100795780849260209460405283398101031261007457516001600160a01b0381169081900361007457600080546001600160a01b03191691909117905560405161021a90816100908239f35b600080fd5b634e487b7160e01b600052604160045260246000fdfe608080604052600436101561001357600080fd5b600090813560e01c908163af4215641461011b57508063ca85b3391461006b5763ee4676781461004257600080fd5b34610068578060031936011261006857546040516001600160a01b039091168152602090f35b80fd5b50346100685761007a3661018f565b620f424092919290818102918183041490151715610107578154919283926001600160a01b031691823b15610102576040516340c10f1960e01b81526001600160a01b0392909216600483015260248201529082908290604490829084905af180156100f7576100e75750f35b6100f0906101ba565b6100685780f35b6040513d84823e3d90fd5b505050fd5b634e487b7160e01b82526011600452602482fd5b90503461018b578161012c3661018f565b82546001600160a01b031690813b15610187576340c10f1960e01b85526001600160a01b0392909216600485015260248401919091528290604490829084905af180156100f75761017b575080f35b610184906101ba565b80f35b8380fd5b5080fd5b60409060031901126101b5576004356001600160a01b03811681036101b5579060243590565b600080fd5b67ffffffffffffffff81116101ce57604052565b634e487b7160e01b600052604160045260246000fdfea2646970667358221220250fb778948ccfa79bbca170389015928a351f8b91dc273ad5c8005b9578230d64736f6c63430008140033",
  "linkReferences": {},
  "deployedLinkReferences": {}
}