{
  "_format": "hh-sol-artifact-1",
  "contractName": "Faucet",
  "sourceName": "contracts/test/Faucet.sol",
  "abi": [
    {
      "inputs": [
        {
          "internalType": "address",
          "name": "_mockUSDC",
          "type": "address"
        }
      ],
      "stateMutability": "nonpayable",
      "type": "constructor"
    },
    {
      "inputs": [],
      "name": "mockUSDC",
      "outputs": [
        {
          "internalType": "contract IERC20",
          "name": "",
          "type": "address"
        }
      ],
      "stateMutability": "view",
      "type": "function"
    },
    {
      "inputs": [
        {
          "internalType": "uint256",
          "name": "amount",
          "type": "uint256"
        }
      ],
      "name": "requestTokens",
      "outputs": [],
      "stateMutability": "nonpayable",
      "type": "function"
    },
    {
      "inputs": [
        {
          "internalType": "uint256",
          "name": "amountInUSDC",
          "type": "uint256"
        }
      ],
      "name": "requestUSDC",
      "outputs": [],
      "stateMutability": "nonpayable",
      "type": "function"
    }
  ],
  "bytecode": "0x608060405234801561001057600080fd5b5060405161028938038061028983398101604081905261002f91610054565b600080546001600160a01b0319166001600160a01b0392909216919091179055610084565b60006020828403121561006657600080fd5b81516001600160a01b038116811461007d57600080fd5b9392505050565b6101f6806100936000396000f3fe608060405234801561001057600080fd5b50600436106100415760003560e01c806333e331b314610046578063ee4676781461005b578063eef9c27c1461008a575b600080fd5b61005961005436600461017c565b61009d565b005b60005461006e906001600160a01b031681565b6040516001600160a01b03909116815260200160405180910390f35b61005961009836600461017c565b610115565b60006100ac82620f4240610195565b6000546040516340c10f1960e01b8152336004820152602481018390529192506001600160a01b0316906340c10f1990604401600060405180830381600087803b1580156100f957600080fd5b505af115801561010d573d6000803e3d6000fd5b505050505050565b6000546040516340c10f1960e01b8152336004820152602481018390526001600160a01b03909116906340c10f1990604401600060405180830381600087803b15801561016157600080fd5b505af1158015610175573d6000803e3d6000fd5b5050505050565b60006020828403121561018e57600080fd5b5035919050565b80820281158282048414176101ba57634e487b7160e01b600052601160045260246000fd5b9291505056fea2646970667358221220f84a2f0a406726412fbf147e5c875965e64321f9cf0ea3400abffb8ec775809f64736f6c63430008140033",
  "linkReferences": {},
  "deployedLinkReferences": {}
}