{
  "_format": "hh-sol-artifact-1",
  "contractName": "FluxionIntegration",
  "sourceName": "contracts/integrations/FluxionIntegration.sol",
  "abi": [
    {
      "inputs": [
        {
          "internalType": "address",
          "name": "_mETH",
          "type": "address"
        },
        {
          "internalType": "address",
          "name": "_usdc",
          "type": "address"
        },
        {
          "internalType": "address",
          "name": "_dex",
          "type": "address"
        },
        {
          "internalType": "address",
          "name": "_priceOracle",
          "type": "address"
        }
      ],
      "stateMutability": "nonpayable",
      "type": "constructor"
    },
    {
      "inputs": [
        {
          "internalType": "address",
          "name": "owner",
          "type": "address"
        }
      ],
      "name": "OwnableInvalidOwner",
      "type": "error"
    },
    {
      "inputs": [
        {
          "internalType": "address",
          "name": "account",
          "type": "address"
        }
      ],
      "name": "OwnableUnauthorizedAccount",
      "type": "error"
    },
    {
      "inputs": [],
      "name": "ReentrancyGuardReentrantCall",
      "type": "error"
    },
    {
      "anonymous": false,
      "inputs": [
        {
          "indexed": true,
          "internalType": "address",
          "name": "previousOwner",
          "type": "address"
        },
        {
          "indexed": true,
          "internalType": "address",
          "name": "newOwner",
          "type": "address"
        }
      ],
      "name": "OwnershipTransferred",
      "type": "event"
    },
    {
      "anonymous": false,
      "inputs": [
        {
          "indexed": false,
          "internalType": "bool",
          "name": "paused",
          "type": "bool"
        }
      ],
      "name": "PausedUpdated",
      "type": "event"
    },
    {
      "anonymous": false,
      "inputs": [
        {
          "indexed": false,
          "internalType": "uint256",
          "name": "expected",
          "type": "uint256"
        },
        {
          "indexed": false,
          "internalType": "uint256",
          "name": "actual",
          "type": "uint256"
        },
        {
          "indexed": false,
          "internalType": "uint256",
          "name": "slippage",
          "type": "uint256"
        }
      ],
      "name": "SlippageExceeded",
      "type": "event"
    },
    {
      "anonymous": false,
      "inputs": [
        {
          "indexed": true,
          "internalType": "uint256",
          "name": "timestamp",
          "type": "uint256"
        },
        {
          "indexed": false,
          "internalType": "uint256",
          "name": "mETHAmount",
          "type": "uint256"
        },
        {
          "indexed": false,
          "internalType": "uint256",
          "name": "usdcReceived",
          "type": "uint256"
        },
        {
          "indexed": false,
          "internalType": "uint256",
          "name": "effectiveRate",
          "type": "uint256"
        }
      ],
      "name": "SwapExecuted",
      "type": "event"
    },
    {
      "inputs": [],
      "name": "BASIS_POINTS",
      "outputs": [
        {
          "internalType": "uint256",
          "name": "",
          "type": "uint256"
        }
      ],
      "stateMutability": "view",
      "type": "function"
    },
    {
      "inputs": [],
      "name": "MAX_SLIPPAGE",
      "outputs": [
        {
          "internalType": "uint256",
          "name": "",
          "type": "uint256"
        }
      ],
      "stateMutability": "view",
      "type": "function"
    },
    {
      "inputs": [],
      "name": "dex",
      "outputs": [
        {
          "internalType": "contract IFluxionDEX",
          "name": "",
          "type": "address"
        }
      ],
      "stateMutability": "view",
      "type": "function"
    },
    {
      "inputs": [
        {
          "internalType": "address",
          "name": "token",
          "type": "address"
        },
        {
          "internalType": "uint256",
          "name": "amount",
          "type": "uint256"
        }
      ],
      "name": "emergencyWithdraw",
      "outputs": [],
      "stateMutability": "nonpayable",
      "type": "function"
    },
    {
      "inputs": [],
      "name": "getMETHPrice",
      "outputs": [
        {
          "internalType": "uint256",
          "name": "",
          "type": "uint256"
        }
      ],
      "stateMutability": "view",
      "type": "function"
    },
    {
      "inputs": [
        {
          "internalType": "uint256",
          "name": "mETHAmount",
          "type": "uint256"
        }
      ],
      "name": "getMETHValueUSD",
      "outputs": [
        {
          "internalType": "uint256",
          "name": "",
          "type": "uint256"
        }
      ],
      "stateMutability": "view",
      "type": "function"
    },
    {
      "inputs": [
        {
          "internalType": "uint256",
          "name": "mETHAmount",
          "type": "uint256"
        }
      ],
      "name": "getQuote",
      "outputs": [
        {
          "internalType": "uint256",
          "name": "",
          "type": "uint256"
        }
      ],
      "stateMutability": "view",
      "type": "function"
    },
    {
      "inputs": [],
      "name": "getSwapStats",
      "outputs": [
        {
          "internalType": "uint256",
          "name": "",
          "type": "uint256"
        },
        {
          "internalType": "uint256",
          "name": "",
          "type": "uint256"
        },
        {
          "internalType": "uint256",
          "name": "",
          "type": "uint256"
        }
      ],
      "stateMutability": "view",
      "type": "function"
    },
    {
      "inputs": [],
      "name": "mETH",
      "outputs": [
        {
          "internalType": "contract IERC20",
          "name": "",
          "type": "address"
        }
      ],
      "stateMutability": "view",
      "type": "function"
    },
    {
      "inputs": [],
      "name": "owner",
      "outputs": [
        {
          "internalType": "address",
          "name": "",
          "type": "address"
        }
      ],
      "stateMutability": "view",
      "type": "function"
    },
    {
      "inputs": [],
      "name": "paused",
      "outputs": [
        {
          "internalType": "bool",
          "name": "",
          "type": "bool"
        }
      ],
      "stateMutability": "view",
      "type": "function"
    },
    {
      "inputs": [],
      "name": "priceOracle",
      "outputs": [
        {
          "internalType": "contract IMETHPriceOracle",
          "name": "",
          "type": "address"
        }
      ],
      "stateMutability": "view",
      "type": "function"
    },
    {
      "inputs": [],
      "name": "renounceOwnership",
      "outputs": [],
      "stateMutability": "nonpayable",
      "type": "function"
    },
    {
      "inputs": [
        {
          "internalType": "address",
          "name": "_dex",
          "type": "address"
        }
      ],
      "name": "setDEX",
      "outputs": [],
      "stateMutability": "nonpayable",
      "type": "function"
    },
    {
      "inputs": [
        {
          "internalType": "bool",
          "name": "_paused",
          "type": "bool"
        }
      ],
      "name": "setPaused",
      "outputs": [],
      "stateMutability": "nonpayable",
      "type": "function"
    },
    {
      "inputs": [
        {
          "internalType": "address",
          "name": "_oracle",
          "type": "address"
        }
      ],
      "name": "setPriceOracle",
      "outputs": [],
      "stateMutability": "nonpayable",
      "type": "function"
    },
    {
      "inputs": [
        {
          "internalType": "uint256",
          "name": "mETHAmount",
          "type": "uint256"
        }
      ],
      "name": "swapMETHToUSDC",
      "outputs": [
        {
          "internalType": "uint256",
          "name": "usdcReceived",
          "type": "uint256"
        }
      ],
      "stateMutability": "nonpayable",
      "type": "function"
    },
    {
      "inputs": [],
      "name": "totalMETHSwapped",
      "outputs": [
        {
          "internalType": "uint256",
          "name": "",
          "type": "uint256"
        }
      ],
      "stateMutability": "view",
      "type": "function"
    },
    {
      "inputs": [],
      "name": "totalSwapsExecuted",
      "outputs": [
        {
          "internalType": "uint256",
          "name": "",
          "type": "uint256"
        }
      ],
      "stateMutability": "view",
      "type": "function"
    },
    {
      "inputs": [],
      "name": "totalUSDCReceived",
      "outputs": [
        {
          "internalType": "uint256",
          "name": "",
          "type": "uint256"
        }
      ],
      "stateMutability": "view",
      "type": "function"
    },
    {
      "inputs": [
        {
          "internalType": "address",
          "name": "newOwner",
          "type": "address"
        }
      ],
      "name": "transferOwnership",
      "outputs": [],
      "stateMutability": "nonpayable",
      "type": "function"
    },
    {
      "inputs": [],
      "name": "usdc",
      "outputs": [
        {
          "internalType": "contract IERC20",
          "name": "",
          "type": "address"
        }
      ],
      "stateMutability": "view",
      "type": "function"
    }
  ],
  "bytecode": "0x60806040523480156200001157600080fd5b506040516200111338038062001113833981016040819052620000349162000136565b33806200005b57604051631e4fbdf760e01b81526000600482015260240160405180910390fd5b6200006681620000c9565b5060018055600280546001600160a01b039586166001600160a01b03199182161790915560038054948616948216949094179093556004805492851692841692909217909155600580549190931691161790556009805460ff1916905562000193565b600080546001600160a01b038381166001600160a01b0319831681178455604051919092169283917f8be0079c531659141344cd1fd0a4f28419497f9722a3daafe3b4186f6b6457e09190a35050565b80516001600160a01b03811681146200013157600080fd5b919050565b600080600080608085870312156200014d57600080fd5b620001588562000119565b9350620001686020860162000119565b9250620001786040860162000119565b9150620001886060860162000119565b905092959194509250565b610f7080620001a36000396000f3fe608060405234801561001057600080fd5b50600436106101425760003560e01c80637b66a723116100b8578063b913257c1161007c578063b913257c14610282578063cf39918e1461028b578063e1f1c4a71461029e578063f0032670146102a7578063f2fde38b146102cb578063f9759518146102de57600080fd5b80637b66a7231461023057806387baa370146102435780638da5cb5b1461025657806395ccea6714610267578063acc295f11461027a57600080fd5b806339402b2e1161010a57806339402b2e146101c95780633e413bee146101d2578063530e784f146101e55780635c975abb146101f8578063692058c214610215578063715018a61461022857600080fd5b80630233d0ce146101475780631302c0ef1461016d57806316c38b3c146101765780632630c12f1461018b57806329e84867146101b6575b600080fd5b61015a610155366004610dd6565b6102e7565b6040519081526020015b60405180910390f35b61015a60075481565b610189610184366004610dfd565b61038c565b005b60055461019e906001600160a01b031681565b6040516001600160a01b039091168152602001610164565b60025461019e906001600160a01b031681565b61015a60085481565b60035461019e906001600160a01b031681565b6101896101f3366004610e31565b6103db565b6009546102059060ff1681565b6040519015158152602001610164565b60045461019e906001600160a01b031681565b610189610452565b61018961023e366004610e31565b610466565b61015a610251366004610dd6565b6104d8565b6000546001600160a01b031661019e565b610189610275366004610e4c565b6109e3565b61015a610abf565b61015a60065481565b61015a610299366004610dd6565b610b32565b61015a61271081565b60065460075460085460408051938452602084019290925290820152606001610164565b6101896102d9366004610e31565b610ba8565b61015a61012c81565b600080600560009054906101000a90046001600160a01b03166001600160a01b03166398d5fdca6040518163ffffffff1660e01b8152600401602060405180830381865afa15801561033d573d6000803e3d6000fd5b505050506040513d601f19601f820116820180604052508101906103619190610e76565b90506c0c9f2c9cd04674edea4000000061037b8285610ea5565b6103859190610ebc565b9392505050565b610394610be6565b6009805460ff19168215159081179091556040519081527f31311016d7204faff81880133e3db244ae8a8b9ce15e83e2432258226d15f9429060200160405180910390a150565b6103e3610be6565b6001600160a01b0381166104305760405162461bcd60e51b815260206004820152600f60248201526e496e76616c6964206164647265737360881b60448201526064015b60405180910390fd5b600580546001600160a01b0319166001600160a01b0392909216919091179055565b61045a610be6565b6104646000610c13565b565b61046e610be6565b6001600160a01b0381166104b65760405162461bcd60e51b815260206004820152600f60248201526e496e76616c6964206164647265737360881b6044820152606401610427565b600480546001600160a01b0319166001600160a01b0392909216919091179055565b60006104e2610c63565b60095460ff161561052a5760405162461bcd60e51b815260206004820152601260248201527110dbdb9d1c9858dd081a5cc81c185d5cd95960721b6044820152606401610427565b6000821161056f5760405162461bcd60e51b81526020600482015260126024820152710416d6f756e74206d757374206265203e20360741b6044820152606401610427565b6004805460405163679cc8c760e11b81529182018490526000916001600160a01b039091169063cf39918e90602401602060405180830381865afa1580156105bb573d6000803e3d6000fd5b505050506040513d601f19601f820116820180604052508101906105df9190610e76565b9050600081116106215760405162461bcd60e51b815260206004820152600d60248201526c496e76616c69642071756f746560981b6044820152606401610427565b61062b8382610c8d565b600061271061063c61012c82610ede565b6106469084610ea5565b6106509190610ebc565b6002546040516323b872dd60e01b8152336004820152306024820152604481018790529192506001600160a01b0316906323b872dd906064016020604051808303816000875af11580156106a8573d6000803e3d6000fd5b505050506040513d601f19601f820116820180604052508101906106cc9190610ef1565b61070f5760405162461bcd60e51b81526020600482015260146024820152731b515512081d1c985b9cd9995c8819985a5b195960621b6044820152606401610427565b6002546004805460405163095ea7b360e01b81526001600160a01b0391821692810192909252602482018790529091169063095ea7b3906044016020604051808303816000875af1158015610768573d6000803e3d6000fd5b505050506040513d601f19601f8201168201806040525081019061078c9190610ef1565b5060048054604051631bc8222160e01b8152918201869052602482018390526001600160a01b031690631bc82221906044016020604051808303816000875af11580156107dd573d6000803e3d6000fd5b505050506040513d601f19601f820116820180604052508101906108019190610e76565b92506000826127106108138683610ede565b61081d9190610ea5565b6108279190610ebc565b905061012c81111561086f5760405162461bcd60e51b815260206004820152601160248201527014db1a5c1c1859d948195e18d959591959607a1b6044820152606401610427565b6006805490600061087f83610f0e565b919050555084600760008282546108969190610f27565b9250508190555083600860008282546108af9190610f27565b909155505060035460405163a9059cbb60e01b8152336004820152602481018690526001600160a01b039091169063a9059cbb906044016020604051808303816000875af1158015610905573d6000803e3d6000fd5b505050506040513d601f19601f820116820180604052508101906109299190610ef1565b61096c5760405162461bcd60e51b81526020600482015260146024820152731554d110c81d1c985b9cd9995c8819985a5b195960621b6044820152606401610427565b60008561098186670de0b6b3a7640000610ea5565b61098b9190610ebc565b604080518881526020810188905290810182905290915042907fabed9c2bf91a3043c0b147978b27b3272de63d4ccdcbcb8ba15ff32b078c5be39060600160405180910390a2505050506109de60018055565b919050565b6109eb610be6565b816001600160a01b031663a9059cbb610a0c6000546001600160a01b031690565b6040516001600160e01b031960e084901b1681526001600160a01b039091166004820152602481018490526044016020604051808303816000875af1158015610a59573d6000803e3d6000fd5b505050506040513d601f19601f82011682018060405250810190610a7d9190610ef1565b610abb5760405162461bcd60e51b815260206004820152600f60248201526e151c985b9cd9995c8819985a5b1959608a1b6044820152606401610427565b5050565b60055460408051634c6afee560e11b815290516000926001600160a01b0316916398d5fdca9160048083019260209291908290030181865afa158015610b09573d6000803e3d6000fd5b505050506040513d601f19601f82011682018060405250810190610b2d9190610e76565b905090565b6004805460405163679cc8c760e11b81529182018390526000916001600160a01b039091169063cf39918e90602401602060405180830381865afa158015610b7e573d6000803e3d6000fd5b505050506040513d601f19601f82011682018060405250810190610ba29190610e76565b92915050565b610bb0610be6565b6001600160a01b038116610bda57604051631e4fbdf760e01b815260006004820152602401610427565b610be381610c13565b50565b6000546001600160a01b031633146104645760405163118cdaa760e01b8152336004820152602401610427565b600080546001600160a01b038381166001600160a01b0319831681178455604051919092169283917f8be0079c531659141344cd1fd0a4f28419497f9722a3daafe3b4186f6b6457e09190a35050565b600260015403610c8657604051633ee5aeb560e01b815260040160405180910390fd5b6002600155565b60055460408051634c6afee560e11b815290516000926001600160a01b0316916398d5fdca9160048083019260209291908290030181865afa158015610cd7573d6000803e3d6000fd5b505050506040513d601f19601f82011682018060405250810190610cfb9190610e76565b905060006c0c9f2c9cd04674edea40000000610d178386610ea5565b610d219190610ebc565b90506101f4600082851115610d595782612710610d3e8288610ede565b610d489190610ea5565b610d529190610ebc565b9050610d7e565b82612710610d678783610ede565b610d719190610ea5565b610d7b9190610ebc565b90505b81811115610dce5760405162461bcd60e51b815260206004820152601860248201527f507269636520646576696174696f6e20746f6f206869676800000000000000006044820152606401610427565b505050505050565b600060208284031215610de857600080fd5b5035919050565b8015158114610be357600080fd5b600060208284031215610e0f57600080fd5b813561038581610def565b80356001600160a01b03811681146109de57600080fd5b600060208284031215610e4357600080fd5b61038582610e1a565b60008060408385031215610e5f57600080fd5b610e6883610e1a565b946020939093013593505050565b600060208284031215610e8857600080fd5b5051919050565b634e487b7160e01b600052601160045260246000fd5b8082028115828204841417610ba257610ba2610e8f565b600082610ed957634e487b7160e01b600052601260045260246000fd5b500490565b81810381811115610ba257610ba2610e8f565b600060208284031215610f0357600080fd5b815161038581610def565b600060018201610f2057610f20610e8f565b5060010190565b80820180821115610ba257610ba2610e8f56fea26469706673582212204c721bbf6167c5e03fd649ee78075ac3959393d993a5363a4278ebcaa89e37b464736f6c63430008140033",
  "linkReferences": {},
  "deployedLinkReferences": {}
}