{
  "_format": "hh-sol-artifact-1",
  "contractName": "FluxionIntegration",
  "sourceName": "contracts/integrations/FluxionIntegration.sol",
  "abi": [
    {
      "inputs": [
        {
          "internalType": "address",
          "name": "_mETH",
          "type": "address"
        },
        {
          "internalType": "address",
          "name": "_usdc",
          "type": "address"
        },
        {
          "internalType": "address",
          "name": "_dex",
          "type": "address"
        },
        {
          "internalType": "address",
          "name": "_priceOracle",
          "type": "address"
        }
      ],
      "stateMutability": "nonpayable",
      "type": "constructor"
    },
    {
      "inputs": [
        {
          "internalType": "address",
          "name": "owner",
          "type": "address"
        }
      ],
      "name": "OwnableInvalidOwner",
      "type": "error"
    },
    {
      "inputs": [
        {
          "internalType": "address",
          "name": "account",
          "type": "address"
        }
      ],
      "name": "OwnableUnauthorizedAccount",
      "type": "error"
    },
    {
      "inputs": [],
      "name": "ReentrancyGuardReentrantCall",
      "type": "error"
    },
    {
      "anonymous": false,
      "inputs": [
        {
          "indexed": true,
          "internalType": "address",
          "name": "previousOwner",
          "type": "address"
        },
        {
          "indexed": true,
          "internalType": "address",
          "name": "newOwner",
          "type": "address"
        }
      ],
      "name": "OwnershipTransferred",
      "type": "event"
    },
    {
      "anonymous": false,
      "inputs": [
        {
          "indexed": false,
          "internalType": "bool",
          "name": "paused",
          "type": "bool"
        }
      ],
      "name": "PausedUpdated",
      "type": "event"
    },
    {
      "anonymous": false,
      "inputs": [
        {
          "indexed": false,
          "internalType": "uint256",
          "name": "expected",
          "type": "uint256"
        },
        {
          "indexed": false,
          "internalType": "uint256",
          "name": "actual",
          "type": "uint256"
        },
        {
          "indexed": false,
          "internalType": "uint256",
          "name": "slippage",
          "type": "uint256"
        }
      ],
      "name": "SlippageExceeded",
      "type": "event"
    },
    {
      "anonymous": false,
      "inputs": [
        {
          "indexed": true,
          "internalType": "uint256",
          "name": "timestamp",
          "type": "uint256"
        },
        {
          "indexed": false,
          "internalType": "uint256",
          "name": "mETHAmount",
          "type": "uint256"
        },
        {
          "indexed": false,
          "internalType": "uint256",
          "name": "usdcReceived",
          "type": "uint256"
        },
        {
          "indexed": false,
          "internalType": "uint256",
          "name": "effectiveRate",
          "type": "uint256"
        }
      ],
      "name": "SwapExecuted",
      "type": "event"
    },
    {
      "inputs": [],
      "name": "BASIS_POINTS",
      "outputs": [
        {
          "internalType": "uint256",
          "name": "",
          "type": "uint256"
        }
      ],
      "stateMutability": "view",
      "type": "function"
    },
    {
      "inputs": [],
      "name": "MAX_SLIPPAGE",
      "outputs": [
        {
          "internalType": "uint256",
          "name": "",
          "type": "uint256"
        }
      ],
      "stateMutability": "view",
      "type": "function"
    },
    {
      "inputs": [],
      "name": "dex",
      "outputs": [
        {
          "internalType": "contract IFluxionDEX",
          "name": "",
          "type": "address"
        }
      ],
      "stateMutability": "view",
      "type": "function"
    },
    {
      "inputs": [
        {
          "internalType": "address",
          "name": "token",
          "type": "address"
        },
        {
          "internalType": "uint256",
          "name": "amount",
          "type": "uint256"
        }
      ],
      "name": "emergencyWithdraw",
      "outputs": [],
      "stateMutability": "nonpayable",
      "type": "function"
    },
    {
      "inputs": [],
      "name": "getMETHPrice",
      "outputs": [
        {
          "internalType": "uint256",
          "name": "",
          "type": "uint256"
        }
      ],
      "stateMutability": "view",
      "type": "function"
    },
    {
      "inputs": [
        {
          "internalType": "uint256",
          "name": "mETHAmount",
          "type": "uint256"
        }
      ],
      "name": "getMETHValueUSD",
      "outputs": [
        {
          "internalType": "uint256",
          "name": "",
          "type": "uint256"
        }
      ],
      "stateMutability": "view",
      "type": "function"
    },
    {
      "inputs": [
        {
          "internalType": "uint256",
          "name": "mETHAmount",
          "type": "uint256"
        }
      ],
      "name": "getQuote",
      "outputs": [
        {
          "internalType": "uint256",
          "name": "",
          "type": "uint256"
        }
      ],
      "stateMutability": "view",
      "type": "function"
    },
    {
      "inputs": [],
      "name": "getSwapStats",
      "outputs": [
        {
          "internalType": "uint256",
          "name": "",
          "type": "uint256"
        },
        {
          "internalType": "uint256",
          "name": "",
          "type": "uint256"
        },
        {
          "internalType": "uint256",
          "name": "",
          "type": "uint256"
        }
      ],
      "stateMutability": "view",
      "type": "function"
    },
    {
      "inputs": [],
      "name": "mETH",
      "outputs": [
        {
          "internalType": "contract IERC20",
          "name": "",
          "type": "address"
        }
      ],
      "stateMutability": "view",
      "type": "function"
    },
    {
      "inputs": [],
      "name": "owner",
      "outputs": [
        {
          "internalType": "address",
          "name": "",
          "type": "address"
        }
      ],
      "stateMutability": "view",
      "type": "function"
    },
    {
      "inputs": [],
      "name": "paused",
      "outputs": [
        {
          "internalType": "bool",
          "name": "",
          "type": "bool"
        }
      ],
      "stateMutability": "view",
      "type": "function"
    },
    {
      "inputs": [],
      "name": "priceOracle",
      "outputs": [
        {
          "internalType": "contract IMETHPriceOracle",
          "name": "",
          "type": "address"
        }
      ],
      "stateMutability": "view",
      "type": "function"
    },
    {
      "inputs": [],
      "name": "renounceOwnership",
      "outputs": [],
      "stateMutability": "nonpayable",
      "type": "function"
    },
    {
      "inputs": [
        {
          "internalType": "address",
          "name": "_dex",
          "type": "address"
        }
      ],
      "name": "setDEX",
      "outputs": [],
      "stateMutability": "nonpayable",
      "type": "function"
    },
    {
      "inputs": [
        {
          "internalType": "bool",
          "name": "_paused",
          "type": "bool"
        }
      ],
      "name": "setPaused",
      "outputs": [],
      "stateMutability": "nonpayable",
      "type": "function"
    },
    {
      "inputs": [
        {
          "internalType": "address",
          "name": "_oracle",
          "type": "address"
        }
      ],
      "name": "setPriceOracle",
      "outputs": [],
      "stateMutability": "nonpayable",
      "type": "function"
    },
    {
      "inputs": [
        {
          "internalType": "uint256",
          "name": "mETHAmount",
          "type": "uint256"
        },
        {
          "internalType": "uint256",
          "name": "mETHPriceUSD",
          "type": "uint256"
        }
      ],
      "name": "swapMETHToUSDC",
      "outputs": [
        {
          "internalType": "uint256",
          "name": "usdcReceived",
          "type": "uint256"
        }
      ],
      "stateMutability": "nonpayable",
      "type": "function"
    },
    {
      "inputs": [],
      "name": "totalMETHSwapped",
      "outputs": [
        {
          "internalType": "uint256",
          "name": "",
          "type": "uint256"
        }
      ],
      "stateMutability": "view",
      "type": "function"
    },
    {
      "inputs": [],
      "name": "totalSwapsExecuted",
      "outputs": [
        {
          "internalType": "uint256",
          "name": "",
          "type": "uint256"
        }
      ],
      "stateMutability": "view",
      "type": "function"
    },
    {
      "inputs": [],
      "name": "totalUSDCReceived",
      "outputs": [
        {
          "internalType": "uint256",
          "name": "",
          "type": "uint256"
        }
      ],
      "stateMutability": "view",
      "type": "function"
    },
    {
      "inputs": [
        {
          "internalType": "address",
          "name": "newOwner",
          "type": "address"
        }
      ],
      "name": "transferOwnership",
      "outputs": [],
      "stateMutability": "nonpayable",
      "type": "function"
    },
    {
      "inputs": [],
      "name": "usdc",
      "outputs": [
        {
          "internalType": "contract IERC20",
          "name": "",
          "type": "address"
        }
      ],
      "stateMutability": "view",
      "type": "function"
    }
  ],
  "bytecode": "0x60803461011c57601f61101238819003918201601f19168301916001600160401b038311848410176101215780849260809460405283398101031261011c5761004781610137565b9061005460208201610137565b61006c606061006560408501610137565b9301610137565b3315610103576000549360018060a01b03199333858716176000556040519560018060a01b03948580948193823391167f8be0079c531659141344cd1fd0a4f28419497f9722a3daafe3b4186f6b6457e0600080a3600180551687600254161760025516856003541617600355168360045416176004551690600554161760055560ff1960095416600955610ec6908161014c8239f35b604051631e4fbdf760e01b815260006004820152602490fd5b600080fd5b634e487b7160e01b600052604160045260246000fd5b51906001600160a01b038216820361011c5756fe60806040908082526004918236101561001757600080fd5b600091823560e01c9081630233d0ce14610cb4575080631302c0ef14610c9657806316c38b3c14610c335780632630c12f14610c0b57806329e8486714610be357806339402b2e14610bc55780633e413bee14610b9d578063530e784f14610b4c5780635c975abb14610b29578063692058c214610b01578063715018a614610aa75780637b66a72314610a5e5780638da5cb5b14610a3757806395ccea671461095f578063acc295f1146108d0578063b913257c146108b2578063cf39918e14610820578063e1f1c4a714610804578063f0032670146107ce578063f2fde38b14610743578063f9759518146107275763fd0b0da01461011757600080fd5b34610723578060031936011261072357823560249384359460026001541461071457600260015560ff600954166106dd5782156106a657851561066f578154845163679cc8c760e11b81528084018590526020976001600160a01b0392899083908690829087165afa918215610665578892610632575b508115610600576101ad6c0c9f2c9cd04674edea400000009187610e38565b04808211156105d0576101c08183610e15565b612710908181029181830414901517156105be576105dc916101e191610e4b565b1161057c576125e481026125e3198282040161056a578789846002541660648a51809481936323b872dd60e01b8352338c840152308b8401528c60448401525af190811561050a57899161054d575b5015610514576002548554885163095ea7b360e01b81529085166001600160a01b03168188019081526020810189905290918b91839187169082908d90829060400103925af1801561050a579089949392916104ed575b50898387541660448a51809c8193631bc8222160e01b83528c8c8401526127108097048b8401525af19889156104e35784996104b0575b506102c98983610e15565b81810291818304149015171561049d5761012c916102e691610e4b565b116104675760065460001981146104555760010160065561030985600754610e83565b60075561031887600854610e83565b600855600354865163a9059cbb60e01b815233868201908152602081018a905290928a9284928390036040019183918791165af190811561044b57829161041e575b50156103e557670de0b6b3a7640000928387029387850414871517156103d5575050506103c86103ab837fabed9c2bf91a3043c0b147978b27b3272de63d4ccdcbcb8ba15ff32b078c5be393610e4b565b845193845260208401869052604084015242929081906060820190565b0390a26001805551908152f35b634e487b7160e01b825260119052fd5b845162461bcd60e51b8152808401889052601481840152731554d110c81d1c985b9cd9995c8819985a5b195960621b6044820152606490fd5b61043e9150883d8a11610444575b6104368183610ddd565b810190610e6b565b3861035a565b503d61042c565b86513d84823e3d90fd5b5050634e487b7160e01b815260118352fd5b855162461bcd60e51b81528085018990526011818501527014db1a5c1c1859d948195e18d959591959607a1b6044820152606490fd5b5050634e487b7160e01b82525060118352fd5b9098508981813d83116104dc575b6104c88183610ddd565b810103126104d8575197386102be565b8380fd5b503d6104be565b88513d86823e3d90fd5b610503908b3d8d11610444576104368183610ddd565b5038610287565b88513d8b823e3d90fd5b865162461bcd60e51b81528086018a9052601481860152731b515512081d1c985b9cd9995c8819985a5b195960621b6044820152606490fd5b61056491508a3d8c11610444576104368183610ddd565b38610230565b634e487b7160e01b8852601185528388fd5b855162461bcd60e51b81528085018990526018818501527f507269636520646576696174696f6e20746f6f206869676800000000000000006044820152606490fd5b634e487b7160e01b8952601186528489fd5b6105da8282610e15565b612710908181029181830414901517156105be576105dc916105fb91610e4b565b6101e1565b865162461bcd60e51b81528086018a9052600d818601526c496e76616c69642071756f746560981b6044820152606490fd5b9091508881813d831161065e575b61064a8183610ddd565b8101031261065a5751903861018e565b8780fd5b503d610640565b87513d8a823e3d90fd5b906012606492602086519362461bcd60e51b855284015282015271496e76616c6964206d45544820707269636560701b6044820152fd5b906012606492602086519362461bcd60e51b8552840152820152710416d6f756e74206d757374206265203e20360741b6044820152fd5b906012606492602086519362461bcd60e51b85528401528201527110dbdb9d1c9858dd081a5cc81c185d5cd95960721b6044820152fd5b508251633ee5aeb560e01b8152fd5b5080fd5b50346107235781600319360112610723576020905161012c8152f35b5082346107ca5760203660031901126107ca5761075e610d58565b90610767610d73565b6001600160a01b039182169283156107b457505082546001600160a01b0319811683178455167f8be0079c531659141344cd1fd0a4f28419497f9722a3daafe3b4186f6b6457e08380a380f35b51631e4fbdf760e01b8152908101849052602490fd5b8280fd5b50903461080157806003193601126108015750600654600754600854925191825260208201526040810191909152606090f35b80fd5b5034610723578160031936011261072357602090516127108152f35b503461072357602092836003193601126107ca578054825163679cc8c760e11b81528235928101929092528490829060249082906001600160a01b03165afa9283156108a7578093610875575b505051908152f35b909192508382813d83116108a0575b61088e8183610ddd565b8101031261080157505190388061086d565b503d610884565b8251903d90823e3d90fd5b50346107235781600319360112610723576020906006549051908152f35b508290346107ca57826003193601126107ca576005548151634c6afee560e11b81529260209184919082906001600160a01b03165afa91821561095557839261091e575b6020838351908152f35b9091506020813d821161094d575b8161093960209383610ddd565b810103126107ca5760209250519083610914565b3d915061092c565b81513d85823e3d90fd5b508290346107ca57806003193601126107ca5761097a610d58565b610982610d73565b8354825163a9059cbb60e01b81526001600160a01b03918216858201908152602435602082810191909152919391928492918391899183906040010393165af1908115610a2d578491610a0f575b50156109da578280f35b906020606492519162461bcd60e51b8352820152600f60248201526e151c985b9cd9995c8819985a5b1959608a1b6044820152fd5b610a27915060203d8111610444576104368183610ddd565b846109d0565b82513d86823e3d90fd5b5034610723578160031936011261072357905490516001600160a01b039091168152602090f35b82843461072357602036600319011261072357610a79610d58565b610a81610d73565b6001600160a01b0316610a95811515610d9f565b81546001600160a01b03191617905580f35b8234610801578060031936011261080157610ac0610d73565b80546001600160a01b03198116825581906001600160a01b03167f8be0079c531659141344cd1fd0a4f28419497f9722a3daafe3b4186f6b6457e08280a380f35b5082346107ca57826003193601126107ca575490516001600160a01b03909116815260209150f35b503461072357816003193601126107235760209060ff6009541690519015158152f35b823461080157602036600319011261080157610b66610d58565b610b6e610d73565b6001600160a01b0316610b82811515610d9f565b6bffffffffffffffffffffffff60a01b600554161760055580f35b503461072357816003193601126107235760035490516001600160a01b039091168152602090f35b50346107235781600319360112610723576020906008549051908152f35b503461072357816003193601126107235760025490516001600160a01b039091168152602090f35b503461072357816003193601126107235760055490516001600160a01b039091168152602090f35b5082346107ca5760203660031901126107ca5735908115158092036107ca577f31311016d7204faff81880133e3db244ae8a8b9ce15e83e2432258226d15f94291602091610c7f610d73565b60ff196009541660ff83161760095551908152a180f35b50346107235781600319360112610723576020906007549051908152f35b82858534610801576020938460031936011261072357600554634c6afee560e11b825285908290859082906001600160a01b03165afa918215610d4d578092610d1b575b5050610d13906c0c9f2c9cd04674edea400000009235610e38565b049051908152f35b9091508482813d8311610d46575b610d338183610ddd565b8101031261080157505181610d13610cf8565b503d610d29565b8451903d90823e3d90fd5b600435906001600160a01b0382168203610d6e57565b600080fd5b6000546001600160a01b03163303610d8757565b60405163118cdaa760e01b8152336004820152602490fd5b15610da657565b60405162461bcd60e51b815260206004820152600f60248201526e496e76616c6964206164647265737360881b6044820152606490fd5b90601f8019910116810190811067ffffffffffffffff821117610dff57604052565b634e487b7160e01b600052604160045260246000fd5b91908203918211610e2257565b634e487b7160e01b600052601160045260246000fd5b81810292918115918404141715610e2257565b8115610e55570490565b634e487b7160e01b600052601260045260246000fd5b90816020910312610d6e57518015158103610d6e5790565b91908201809211610e225756fea26469706673582212200e4c9a358d9718bb2cafc5818ffc33a7b1057de661635ee10e884ebeb6a7b9c464736f6c63430008140033",
  "linkReferences": {},
  "deployedLinkReferences": {}
}