{
  "_format": "hh-sol-artifact-1",
  "contractName": "PrivateAssetToken",
  "sourceName": "contracts/core/PrivateAssetToken.sol",
  "abi": [
    {
      "inputs": [
        {
          "internalType": "bytes32",
          "name": "_assetId",
          "type": "bytes32"
        },
        {
          "internalType": "address",
          "name": "_compliance",
          "type": "address"
        },
        {
          "internalType": "address",
          "name": "_identityRegistry",
          "type": "address"
        },
        {
          "internalType": "uint256",
          "name": "_totalSupply",
          "type": "uint256"
        },
        {
          "internalType": "address",
          "name": "_platformCustody",
          "type": "address"
        },
        {
          "internalType": "string",
          "name": "_name",
          "type": "string"
        },
        {
          "internalType": "string",
          "name": "_symbol",
          "type": "string"
        },
        {
          "internalType": "address",
          "name": "_issuer",
          "type": "address"
        },
        {
          "internalType": "string",
          "name": "_assetType",
          "type": "string"
        },
        {
          "internalType": "string",
          "name": "_location",
          "type": "string"
        },
        {
          "internalType": "uint256",
          "name": "_valuation",
          "type": "uint256"
        },
        {
          "internalType": "string",
          "name": "_documentHash",
          "type": "string"
        }
      ],
      "stateMutability": "nonpayable",
      "type": "constructor"
    },
    {
      "inputs": [
        {
          "internalType": "address",
          "name": "spender",
          "type": "address"
        },
        {
          "internalType": "uint256",
          "name": "allowance",
          "type": "uint256"
        },
        {
          "internalType": "uint256",
          "name": "needed",
          "type": "uint256"
        }
      ],
      "name": "ERC20InsufficientAllowance",
      "type": "error"
    },
    {
      "inputs": [
        {
          "internalType": "address",
          "name": "sender",
          "type": "address"
        },
        {
          "internalType": "uint256",
          "name": "balance",
          "type": "uint256"
        },
        {
          "internalType": "uint256",
          "name": "needed",
          "type": "uint256"
        }
      ],
      "name": "ERC20InsufficientBalance",
      "type": "error"
    },
    {
      "inputs": [
        {
          "internalType": "address",
          "name": "approver",
          "type": "address"
        }
      ],
      "name": "ERC20InvalidApprover",
      "type": "error"
    },
    {
      "inputs": [
        {
          "internalType": "address",
          "name": "receiver",
          "type": "address"
        }
      ],
      "name": "ERC20InvalidReceiver",
      "type": "error"
    },
    {
      "inputs": [
        {
          "internalType": "address",
          "name": "sender",
          "type": "address"
        }
      ],
      "name": "ERC20InvalidSender",
      "type": "error"
    },
    {
      "inputs": [
        {
          "internalType": "address",
          "name": "spender",
          "type": "address"
        }
      ],
      "name": "ERC20InvalidSpender",
      "type": "error"
    },
    {
      "anonymous": false,
      "inputs": [
        {
          "indexed": true,
          "internalType": "address",
          "name": "owner",
          "type": "address"
        },
        {
          "indexed": true,
          "internalType": "address",
          "name": "spender",
          "type": "address"
        },
        {
          "indexed": false,
          "internalType": "uint256",
          "name": "value",
          "type": "uint256"
        }
      ],
      "name": "Approval",
      "type": "event"
    },
    {
      "anonymous": false,
      "inputs": [
        {
          "indexed": false,
          "internalType": "bool",
          "name": "isActive",
          "type": "bool"
        }
      ],
      "name": "AssetStatusChanged",
      "type": "event"
    },
    {
      "anonymous": false,
      "inputs": [
        {
          "indexed": false,
          "internalType": "string",
          "name": "assetType",
          "type": "string"
        },
        {
          "indexed": false,
          "internalType": "string",
          "name": "location",
          "type": "string"
        },
        {
          "indexed": false,
          "internalType": "string",
          "name": "documentHash",
          "type": "string"
        }
      ],
      "name": "MetadataUpdated",
      "type": "event"
    },
    {
      "anonymous": false,
      "inputs": [
        {
          "indexed": true,
          "internalType": "address",
          "name": "from",
          "type": "address"
        },
        {
          "indexed": true,
          "internalType": "address",
          "name": "to",
          "type": "address"
        },
        {
          "indexed": false,
          "internalType": "uint256",
          "name": "value",
          "type": "uint256"
        }
      ],
      "name": "Transfer",
      "type": "event"
    },
    {
      "anonymous": false,
      "inputs": [
        {
          "indexed": false,
          "internalType": "uint256",
          "name": "oldValuation",
          "type": "uint256"
        },
        {
          "indexed": false,
          "internalType": "uint256",
          "name": "newValuation",
          "type": "uint256"
        },
        {
          "indexed": false,
          "internalType": "uint256",
          "name": "timestamp",
          "type": "uint256"
        },
        {
          "indexed": false,
          "internalType": "address",
          "name": "updatedBy",
          "type": "address"
        }
      ],
      "name": "ValuationUpdated",
      "type": "event"
    },
    {
      "inputs": [
        {
          "internalType": "address",
          "name": "owner",
          "type": "address"
        },
        {
          "internalType": "address",
          "name": "spender",
          "type": "address"
        }
      ],
      "name": "allowance",
      "outputs": [
        {
          "internalType": "uint256",
          "name": "",
          "type": "uint256"
        }
      ],
      "stateMutability": "view",
      "type": "function"
    },
    {
      "inputs": [
        {
          "internalType": "address",
          "name": "spender",
          "type": "address"
        },
        {
          "internalType": "uint256",
          "name": "value",
          "type": "uint256"
        }
      ],
      "name": "approve",
      "outputs": [
        {
          "internalType": "bool",
          "name": "",
          "type": "bool"
        }
      ],
      "stateMutability": "nonpayable",
      "type": "function"
    },
    {
      "inputs": [],
      "name": "assetId",
      "outputs": [
        {
          "internalType": "bytes32",
          "name": "",
          "type": "bytes32"
        }
      ],
      "stateMutability": "view",
      "type": "function"
    },
    {
      "inputs": [
        {
          "internalType": "address",
          "name": "account",
          "type": "address"
        }
      ],
      "name": "balanceOf",
      "outputs": [
        {
          "internalType": "uint256",
          "name": "",
          "type": "uint256"
        }
      ],
      "stateMutability": "view",
      "type": "function"
    },
    {
      "inputs": [
        {
          "internalType": "uint256",
          "name": "value",
          "type": "uint256"
        }
      ],
      "name": "burn",
      "outputs": [],
      "stateMutability": "nonpayable",
      "type": "function"
    },
    {
      "inputs": [
        {
          "internalType": "address",
          "name": "account",
          "type": "address"
        },
        {
          "internalType": "uint256",
          "name": "value",
          "type": "uint256"
        }
      ],
      "name": "burnFrom",
      "outputs": [],
      "stateMutability": "nonpayable",
      "type": "function"
    },
    {
      "inputs": [],
      "name": "compliance",
      "outputs": [
        {
          "internalType": "contract ComplianceModule",
          "name": "",
          "type": "address"
        }
      ],
      "stateMutability": "view",
      "type": "function"
    },
    {
      "inputs": [],
      "name": "decimals",
      "outputs": [
        {
          "internalType": "uint8",
          "name": "",
          "type": "uint8"
        }
      ],
      "stateMutability": "view",
      "type": "function"
    },
    {
      "inputs": [
        {
          "internalType": "address",
          "name": "from",
          "type": "address"
        },
        {
          "internalType": "address",
          "name": "to",
          "type": "address"
        },
        {
          "internalType": "uint256",
          "name": "amount",
          "type": "uint256"
        }
      ],
      "name": "forcedTransfer",
      "outputs": [],
      "stateMutability": "nonpayable",
      "type": "function"
    },
    {
      "inputs": [],
      "name": "getMetadata",
      "outputs": [
        {
          "components": [
            {
              "internalType": "string",
              "name": "assetType",
              "type": "string"
            },
            {
              "internalType": "string",
              "name": "location",
              "type": "string"
            },
            {
              "internalType": "uint256",
              "name": "valuation",
              "type": "uint256"
            },
            {
              "internalType": "uint256",
              "name": "valuationDate",
              "type": "uint256"
            },
            {
              "internalType": "string",
              "name": "documentHash",
              "type": "string"
            },
            {
              "internalType": "bool",
              "name": "isActive",
              "type": "bool"
            }
          ],
          "internalType": "struct PrivateAssetToken.AssetMetadata",
          "name": "",
          "type": "tuple"
        }
      ],
      "stateMutability": "view",
      "type": "function"
    },
    {
      "inputs": [],
      "name": "getValuation",
      "outputs": [
        {
          "internalType": "uint256",
          "name": "",
          "type": "uint256"
        }
      ],
      "stateMutability": "view",
      "type": "function"
    },
    {
      "inputs": [],
      "name": "getValuationHistoryCount",
      "outputs": [
        {
          "internalType": "uint256",
          "name": "",
          "type": "uint256"
        }
      ],
      "stateMutability": "view",
      "type": "function"
    },
    {
      "inputs": [
        {
          "internalType": "uint256",
          "name": "index",
          "type": "uint256"
        }
      ],
      "name": "getValuationRecord",
      "outputs": [
        {
          "components": [
            {
              "internalType": "uint256",
              "name": "valuation",
              "type": "uint256"
            },
            {
              "internalType": "uint256",
              "name": "timestamp",
              "type": "uint256"
            },
            {
              "internalType": "address",
              "name": "updatedBy",
              "type": "address"
            }
          ],
          "internalType": "struct PrivateAssetToken.ValuationRecord",
          "name": "",
          "type": "tuple"
        }
      ],
      "stateMutability": "view",
      "type": "function"
    },
    {
      "inputs": [],
      "name": "identityRegistry",
      "outputs": [
        {
          "internalType": "address",
          "name": "",
          "type": "address"
        }
      ],
      "stateMutability": "view",
      "type": "function"
    },
    {
      "inputs": [],
      "name": "issuer",
      "outputs": [
        {
          "internalType": "address",
          "name": "",
          "type": "address"
        }
      ],
      "stateMutability": "view",
      "type": "function"
    },
    {
      "inputs": [],
      "name": "metadata",
      "outputs": [
        {
          "internalType": "string",
          "name": "assetType",
          "type": "string"
        },
        {
          "internalType": "string",
          "name": "location",
          "type": "string"
        },
        {
          "internalType": "uint256",
          "name": "valuation",
          "type": "uint256"
        },
        {
          "internalType": "uint256",
          "name": "valuationDate",
          "type": "uint256"
        },
        {
          "internalType": "string",
          "name": "documentHash",
          "type": "string"
        },
        {
          "internalType": "bool",
          "name": "isActive",
          "type": "bool"
        }
      ],
      "stateMutability": "view",
      "type": "function"
    },
    {
      "inputs": [],
      "name": "name",
      "outputs": [
        {
          "internalType": "string",
          "name": "",
          "type": "string"
        }
      ],
      "stateMutability": "view",
      "type": "function"
    },
    {
      "inputs": [],
      "name": "owner",
      "outputs": [
        {
          "internalType": "address",
          "name": "",
          "type": "address"
        }
      ],
      "stateMutability": "view",
      "type": "function"
    },
    {
      "inputs": [],
      "name": "paused",
      "outputs": [
        {
          "internalType": "bool",
          "name": "",
          "type": "bool"
        }
      ],
      "stateMutability": "view",
      "type": "function"
    },
    {
      "inputs": [
        {
          "internalType": "bool",
          "name": "_isActive",
          "type": "bool"
        }
      ],
      "name": "setActive",
      "outputs": [],
      "stateMutability": "nonpayable",
      "type": "function"
    },
    {
      "inputs": [
        {
          "internalType": "address",
          "name": "_compliance",
          "type": "address"
        }
      ],
      "name": "setCompliance",
      "outputs": [],
      "stateMutability": "nonpayable",
      "type": "function"
    },
    {
      "inputs": [
        {
          "internalType": "bool",
          "name": "_paused",
          "type": "bool"
        }
      ],
      "name": "setPaused",
      "outputs": [],
      "stateMutability": "nonpayable",
      "type": "function"
    },
    {
      "inputs": [],
      "name": "symbol",
      "outputs": [
        {
          "internalType": "string",
          "name": "",
          "type": "string"
        }
      ],
      "stateMutability": "view",
      "type": "function"
    },
    {
      "inputs": [],
      "name": "totalSupply",
      "outputs": [
        {
          "internalType": "uint256",
          "name": "",
          "type": "uint256"
        }
      ],
      "stateMutability": "view",
      "type": "function"
    },
    {
      "inputs": [
        {
          "internalType": "address",
          "name": "to",
          "type": "address"
        },
        {
          "internalType": "uint256",
          "name": "value",
          "type": "uint256"
        }
      ],
      "name": "transfer",
      "outputs": [
        {
          "internalType": "bool",
          "name": "",
          "type": "bool"
        }
      ],
      "stateMutability": "nonpayable",
      "type": "function"
    },
    {
      "inputs": [
        {
          "internalType": "address",
          "name": "from",
          "type": "address"
        },
        {
          "internalType": "address",
          "name": "to",
          "type": "address"
        },
        {
          "internalType": "uint256",
          "name": "value",
          "type": "uint256"
        }
      ],
      "name": "transferFrom",
      "outputs": [
        {
          "internalType": "bool",
          "name": "",
          "type": "bool"
        }
      ],
      "stateMutability": "nonpayable",
      "type": "function"
    },
    {
      "inputs": [
        {
          "internalType": "string",
          "name": "_assetType",
          "type": "string"
        },
        {
          "internalType": "string",
          "name": "_location",
          "type": "string"
        },
        {
          "internalType": "string",
          "name": "_documentHash",
          "type": "string"
        }
      ],
      "name": "updateMetadata",
      "outputs": [],
      "stateMutability": "nonpayable",
      "type": "function"
    },
    {
      "inputs": [
        {
          "internalType": "uint256",
          "name": "_newValuation",
          "type": "uint256"
        }
      ],
      "name": "updateValuation",
      "outputs": [],
      "stateMutability": "nonpayable",
      "type": "function"
    },
    {
      "inputs": [
        {
          "internalType": "uint256",
          "name": "",
          "type": "uint256"
        }
      ],
      "name": "valuationHistory",
      "outputs": [
        {
          "internalType": "uint256",
          "name": "valuation",
          "type": "uint256"
        },
        {
          "internalType": "uint256",
          "name": "timestamp",
          "type": "uint256"
        },
        {
          "internalType": "address",
          "name": "updatedBy",
          "type": "address"
        }
      ],
      "stateMutability": "view",
      "type": "function"
    }
  ],
  "bytecode": "0x6080806040523462000caa576200266f803803809162000020828562000caf565b83398101906101808183031262000caa57805191620000426020830162000cd3565b92620000516040840162000cd3565b93606084015190620000666080860162000cd3565b60a08601519091906001600160401b03811162000caa57856200008b91880162000d0d565b60c08701519094906001600160401b03811162000caa5786620000b091890162000d0d565b97620000bf60e0890162000cd3565b6101008901519091906001600160401b03811162000caa5788620000e5918b0162000d0d565b6101208a0151909a906001600160401b03811162000caa57896200010b918c0162000d0d565b996101408101519961016082015160018060401b03811162000caa5762000133920162000d0d565b885190986001600160401b038211620005e75760035490600182811c9216801562000c9f575b6020831014620006e35781601f84931162000c2d575b50602090601f831160011462000b9e5760009262000b92575b50508160011b916000199060031b1c1916176003555b8051906001600160401b038211620005e75760045490600182811c9216801562000b87575b6020831014620006e35781601f84931162000b15575b50602090601f831160011462000a865760009262000a7a575b50508160011b916000199060031b1c1916176004555b600980546001600160a01b03199081163317918290556005949094556006805485166001600160a01b03878116919091179091556007805486169382169390931790925560088054909416928216929092179092559083161562000a615760a01c60ff16158062000a58575b8062000a4f575b6200095c575b5060025490828201821162000946579082016002556001600160a01b031660008181526020818152604080832080548601905551938452919290917fddf252ad1be2c89b69c2b068fc378daa952ba7f163c4a11628f55a4df523b3ef91a3811562000901576040516001600160401b0360c0820190811190821117620005e75760c08101604052848152836020820152826040820152426060820152816080820152600160a0820152845160018060401b038111620005e757600a54600181811c91168015620008f6575b6020821014620006e357601f8111620008a1575b50806020601f821160011462000828576000916200081c575b508160011b916000199060031b1c191617600a555b60208101518051906001600160401b038211620005e757600b5490600182811c9216801562000811575b6020831014620006e35781601f8493116200079f575b50602090601f8311600114620007105760009262000704575b50508160011b916000199060031b1c191617600b555b6040810151600c556060810151600d5560808101518051906001600160401b038211620005e757600e54600181811c91168015620006f9575b6020821014620006e357601f81116200067d575b50602090601f8311600114620006095760a093929160009183620005fd575b50508160011b916000199060031b1c191617600e555b0151151560ff8019600f5416911617600f55604051906060820182811060018060401b03821117620005e757604052828252602082019442865260408301923384526010549268010000000000000000841015620005e7576001840180601055841015620005d157620005956080977f61b45807b5528344b8b2c26433a3aabead6c9dc6239e146e7ba7c812fded07d0966002620005a4957f6b6d89b5e18056723397c772ee29ba7334247377e36f6c320cd89b25a6a0353d9c620005869960106000526003602060002091020191518255516001820155019060018060a01b0390511660018060a01b031982541617905560405195869560608752606087019062000d68565b90858203602087015262000d68565b90838203604085015262000d68565b0390a160405190600082526020820152426040820152336060820152a16040516118bf908162000d908239f35b634e487b7160e01b600052603260045260246000fd5b634e487b7160e01b600052604160045260246000fd5b01519050388062000469565b90600e60005260206000209160005b601f198516811062000664575091839160019360a09695601f198116106200064a575b505050811b01600e556200047f565b015160001960f88460031b161c191690553880806200063b565b9192602060018192868501518155019401920162000618565b600e6000527fbb7b4a454dc3493923482f07822329ed19e8244eff582cc204f8554c3620c3fd601f840160051c810160208510620006db575b601f830160051c82018110620006ce5750506200044a565b60008155600101620006b6565b5080620006b6565b634e487b7160e01b600052602260045260246000fd5b90607f169062000436565b015190503880620003e7565b600b600090815293507f0175b7a638427703f0dbe7bb9bbf987a2551717b34e79f33b5b1008d1fa01db991905b601f198416851062000783576001945083601f1981161062000769575b505050811b01600b55620003fd565b015160001960f88460031b161c191690553880806200075a565b818101518355602094850194600190930192909101906200073d565b600b6000529091507f0175b7a638427703f0dbe7bb9bbf987a2551717b34e79f33b5b1008d1fa01db9601f840160051c81016020851062000809575b90849392915b601f830160051c82018110620007f9575050620003ce565b60008155859450600101620007e1565b5080620007db565b91607f1691620003b8565b90508601513862000379565b600a600090815292506000805160206200264f833981519152905b601f198316841062000888576001935082601f198116106200086e575b5050811b01600a556200038e565b88015160001960f88460031b161c19169055388062000860565b8881015182556020938401936001909201910162000843565b600a6000526000805160206200264f833981519152601f830160051c810160208410620008ee575b601f830160051c82018110620008e157505062000360565b60008155600101620008c9565b5080620008c9565b90607f16906200034c565b60405162461bcd60e51b815260206004820152601560248201527f56616c756174696f6e206d757374206265203e203000000000000000000000006044820152606490fd5b634e487b7160e01b600052601160045260246000fd5b6040516372331c7360e11b8152600060048201526001600160a01b03838116602483015260448201859052909160209183916064918391165afa90811562000a4357600091620009fa575b5015620009b5573862000281565b60405162461bcd60e51b815260206004820152601760248201527f436f6d706c69616e636520636865636b206661696c65640000000000000000006044820152606490fd5b6020813d60201162000a3a575b8162000a166020938362000caf565b8101031262000a36575190811515820362000a33575038620009a7565b80fd5b5080fd5b3d915062000a07565b6040513d6000823e3d90fd5b5060016200027b565b50600062000274565b60405163ec442f0560e01b815260006004820152602490fd5b015190503880620001f2565b6004600090815293507f8a35acfbc15ff81a39ae7d344fd709f28e8600b4aa8c65c6b64bfe7fe36bd19b91905b601f198416851062000af9576001945083601f1981161062000adf575b505050811b0160045562000208565b015160001960f88460031b161c1916905538808062000ad0565b8181015183556020948501946001909301929091019062000ab3565b60046000529091507f8a35acfbc15ff81a39ae7d344fd709f28e8600b4aa8c65c6b64bfe7fe36bd19b601f840160051c81016020851062000b7f575b90849392915b601f830160051c8201811062000b6f575050620001d9565b6000815585945060010162000b57565b508062000b51565b91607f1691620001c3565b01519050388062000188565b6003600090815293507fc2575a0e9e593c00f959f8c92f12db2869c3395a3b0502d05e2516446f71f85b91905b601f198416851062000c11576001945083601f1981161062000bf7575b505050811b016003556200019e565b015160001960f88460031b161c1916905538808062000be8565b8181015183556020948501946001909301929091019062000bcb565b60036000529091507fc2575a0e9e593c00f959f8c92f12db2869c3395a3b0502d05e2516446f71f85b601f840160051c81016020851062000c97575b90849392915b601f830160051c8201811062000c875750506200016f565b6000815585945060010162000c6f565b508062000c69565b91607f169162000159565b600080fd5b601f909101601f19168101906001600160401b03821190821017620005e757604052565b51906001600160a01b038216820362000caa57565b60005b83811062000cfc5750506000910152565b818101518382015260200162000ceb565b81601f8201121562000caa5780516001600160401b038111620005e7576040519262000d44601f8301601f19166020018562000caf565b8184526020828401011162000caa5762000d65916020808501910162000ce8565b90565b9060209162000d838151809281855285808601910162000ce8565b601f01601f191601019056fe60406080815260048036101561001457600080fd5b600091823560e01c91826243286e14610f1357826306fdde0314610e40578263095ea7b314610d95578263134e18f414610d6c57826316c38b3c14610d1a57826318160ddd14610cfb5782631d14384814610cd257826323b872dd14610cb0578263313ce56714610c94578263392f37e914610c0d57826342966c6814610bef57826344de240a14610bd05782635c975abb14610ba95782635eff6c1714610b565782636290865d14610b2d5782636364c68b14610b0e578263641adee214610a4a57826370a0823114610a1357826379cc6790146109e35782637a5b4f59146108e95782638da5cb5b146108c057826395d89b41146107d65782639fc1d0e7146107a6578263a9059cbb14610775578263acec338a14610700578263db2a45701461022a57508163dd62ed3e146101d6578163efe4227a146101b3575063f89817891461016157600080fd5b346101b05760203660031901126101b05761017a6110a7565b6009546001600160a01b0391906101949083163314611850565b166bffffffffffffffffffffffff60a01b600654161760065580f35b80fd5b9050346101d257816003193601126101d257602090600c549051908152f35b5080fd5b9050346101d257806003193601126101d2576101f06110a7565b6001600160a01b036024358181169290839003610226579160209491849316825260018552828220908252845220549051908152f35b8480fd5b8382346101d25760603660031901126101d25767ffffffffffffffff9083358281116106fc5761025d90369086016113e2565b916024358181116102265761027590369087016113e2565b6044358281116106f85761028c90369088016113e2565b916102a260018060a01b03600954163314611850565b8451968188116104f8576102b7600a546110f7565b97601f98898111610698575b508060208a821160011461061557899161060a575b508160011b916000199060031b1c191617600a555b82518281116105f757610301600b546110f7565b898111610597575b508060208a821160011461051657899161050b575b508160011b916000199060031b1c191617600b555b83519182116104f85750610348600e546110f7565b878111610498575b5060209681116001146103ea57916103cc6103be959492846103d995899a7f61b45807b5528344b8b2c26433a3aabead6c9dc6239e146e7ba7c812fded07d09a916103df575b508160011b916000199060031b1c191617600e555b8351968796606088526060880190611067565b908682036020880152611067565b9184830390850152611067565b0390a180f35b90508401518b610396565b600e86527fbb7b4a454dc3493923482f07822329ed19e8244eff582cc204f8554c3620c3fd601f198216875b8181106104805750926001836103cc937f61b45807b5528344b8b2c26433a3aabead6c9dc6239e146e7ba7c812fded07d09a9b6103d998966103be9b9a9810610467575b5050811b01600e556103ab565b86015160001960f88460031b161c191690558b8061045a565b858a015183556020998a019960019093019201610416565b600e87527fbb7b4a454dc3493923482f07822329ed19e8244eff582cc204f8554c3620c3fd8880840160051c820192602085106104ef575b0160051c01905b8181106104e45750610350565b8781556001016104d7565b925081926104d0565b634e487b7160e01b875260419052602486fd5b90508401518a61031e565b600b8a527f0175b7a638427703f0dbe7bb9bbf987a2551717b34e79f33b5b1008d1fa01db99150601f1983168a5b81811061057f57509083600194939210610566575b5050811b01600b55610333565b86015160001960f88460031b161c191690558a80610559565b9192602060018192868b015181550194019201610544565b600b89527f0175b7a638427703f0dbe7bb9bbf987a2551717b34e79f33b5b1008d1fa01db98a80840160051c820192602085106105ee575b0160051c01905b8181106105e35750610309565b8981556001016105d6565b925081926105cf565b634e487b7160e01b885260418252602488fd5b90508701518a6102d8565b600a8a527fc65a7bb8d6351c1cf70c95a316cc6a92839c986682d98bc35f958f4883f9d2a89150601f1983168a5b8a8282106106805750509083600194939210610667575b5050811b01600a556102ed565b89015160001960f88460031b161c191690558a8061065a565b60018495602093958493015181550194019201610643565b600a89527fc65a7bb8d6351c1cf70c95a316cc6a92839c986682d98bc35f958f4883f9d2a88a80840160051c820192602085106106ef575b0160051c01905b8181106106e457506102c3565b8981556001016106d7565b925081926106d0565b8580fd5b8380fd5b90915034610771576020366003190112610771573590811515809203610771577f439a1291695561df9ec7072ebfc2354c08833ecb5bb9bad6ec43f8919e889d019160209161075a60018060a01b03600954163314611850565b60ff19600f541660ff831617600f5551908152a180f35b8280fd5b8382346101d257806003193601126101d25760209061079f6107956110a7565b6024359033611439565b5160018152f35b83346101b0576107d36107b8366110c2565b916107ce60018060a01b03600954163314611850565b611439565b80f35b915034610771578260031936011261077157805191838154906107f8826110f7565b808652926001928084169081156108955750600114610839575b6108358686610823828b038361117f565b51918291602083526020830190611067565b0390f35b815294507f8a35acfbc15ff81a39ae7d344fd709f28e8600b4aa8c65c6b64bfe7fe36bd19b5b82861061087d57505050610823826020610835958201019438610812565b8054602087870181019190915290950194810161085f565b905061083597508693506020925061082394915060ff191682840152151560051b8201019438610812565b8382346101d257816003193601126101d25760095490516001600160a01b039091168152602090f35b8382346101d257816003193601126101d25790816109a692519161090c83611163565b60a06060938481528460208201528284820152828582015284608082015201526109d681519261093b84611163565b6109436111a1565b845261094d61125f565b9260208501938452600c5491818601928352600d548187019081526109706112f8565b91608088019283526109ba60ff600f54169760a08a01981515895285519a8b9a60208c525160c060208d015260e08c0190611067565b9051601f1996878c840301908c0152611067565b94519088015251608087015251908583030160a0860152611067565b9051151560c08301520390f35b8382346101d2573660031901126101b0576107d36109ff6110a7565b60243590610a0e82338361161b565b6116ee565b8382346101d25760203660031901126101d25760209181906001600160a01b03610a3b6110a7565b16815280845220549051908152f35b8390346101d25760203660031901126101d257803591838051610a6c81611131565b8281528260208201520152601054821015610ad557606083610a8d84611391565b509060028151610a9c81611131565b835493848252836001820154916020840192835260018060a01b0394859101541692019182528351948552516020850152511690820152f35b606490602084519162461bcd60e51b83528201526013602482015272496e646578206f7574206f6620626f756e647360681b6044820152fd5b8382346101d257816003193601126101d2576020906010549051908152f35b8382346101d257816003193601126101d25760065490516001600160a01b039091168152602090f35b909150346107715760203660031901126107715735916010548310156101b05750610b82606092611391565b50805491600182015491600260018060a01b03910154169181519384526020840152820152f35b8382346101d257816003193601126101d25760209060ff60095460a01c1690519015158152f35b8382346101d257816003193601126101d2576020906005549051908152f35b8390346101d25760203660031901126101d2576107d39035336116ee565b8382346101d257816003193601126101d257610c6490610c2b6111a1565b90610c88610c3761125f565b91600c54600d54610c466112f8565b91610c7260ff600f5416968551998a9960c08b5260c08b0190611067565b9089820360208b0152611067565b9387015260608601528482036080860152611067565b90151560a08301520390f35b8382346101d257816003193601126101d2576020905160128152f35b8382346101d25760209061079f610cc6366110c2565b916107ce83338361161b565b8382346101d257816003193601126101d25760085490516001600160a01b039091168152602090f35b8382346101d257816003193601126101d2576020906002549051908152f35b8390346101d25760203660031901126101d257358015158091036101d25760095490610d50336001600160a01b03841614611850565b60ff60a01b1990911660a09190911b60ff60a01b161760095580f35b8382346101d257816003193601126101d25760075490516001600160a01b039091168152602090f35b90915034610771578160031936011261077157610db06110a7565b602435903315610e29576001600160a01b0316918215610e1257508083602095338152600187528181208582528752205582519081527f8c5be1e5ebec7d5bd14f71427d1e84f3dd0314c0f7b2291e5b200ac8c7c3b925843392a35160018152f35b8351634a1406b160e11b8152908101859052602490fd5b835163e602df0560e01b8152808401869052602490fd5b8382346101d257816003193601126101d25780519082600354610e62816110f7565b80855291600191808316908115610eeb5750600114610e8e575b5050506108238261083594038361117f565b9450600385527fc2575a0e9e593c00f959f8c92f12db2869c3395a3b0502d05e2516446f71f85b5b828610610ed3575050506108238260206108359582010194610e7c565b80546020878701810191909152909501948101610eb6565b61083597508693506020925061082394915060ff191682840152151560051b82010194610e7c565b8382346101d25760203660031901126101d2576009546001600160a01b039190843590610f439084163314611850565b801561102c57600c549281600c5542600d55825190610f6182611131565b8282526020820191428352848101923384526010546801000000000000000081101561101957806001610f979201601055611391565b9290926110075760809694927f6b6d89b5e18056723397c772ee29ba7334247377e36f6c320cd89b25a6a0353d98969492600292518255516001820155019151166bffffffffffffffffffffffff60a01b825416179055815192835260208301524290820152336060820152a180f35b634e487b7160e01b8952888a52602489fd5b634e487b7160e01b895260418a52602489fd5b815162461bcd60e51b81526020818701526015602482015274056616c756174696f6e206d757374206265203e203605c1b6044820152606490fd5b919082519283825260005b848110611093575050826000602080949584010152601f8019910116010190565b602081830181015184830182015201611072565b600435906001600160a01b03821682036110bd57565b600080fd5b60609060031901126110bd576001600160a01b039060043582811681036110bd579160243590811681036110bd579060443590565b90600182811c92168015611127575b602083101461111157565b634e487b7160e01b600052602260045260246000fd5b91607f1691611106565b6060810190811067ffffffffffffffff82111761114d57604052565b634e487b7160e01b600052604160045260246000fd5b60c0810190811067ffffffffffffffff82111761114d57604052565b90601f8019910116810190811067ffffffffffffffff82111761114d57604052565b60405190600082600a54916111b5836110f7565b8083529260019081811690811561123d57506001146111de575b506111dc9250038361117f565b565b600a600090815291507fc65a7bb8d6351c1cf70c95a316cc6a92839c986682d98bc35f958f4883f9d2a85b84831061122257506111dc9350508101602001386111cf565b81935090816020925483858a01015201910190918592611209565b9050602092506111dc94915060ff191682840152151560051b820101386111cf565b60405190600082600b5491611273836110f7565b8083529260019081811690811561123d575060011461129957506111dc9250038361117f565b600b600090815291507f0175b7a638427703f0dbe7bb9bbf987a2551717b34e79f33b5b1008d1fa01db95b8483106112dd57506111dc9350508101602001386111cf565b81935090816020925483858a010152019101909185926112c4565b60405190600082600e549161130c836110f7565b8083529260019081811690811561123d575060011461133257506111dc9250038361117f565b600e600090815291507fbb7b4a454dc3493923482f07822329ed19e8244eff582cc204f8554c3620c3fd5b84831061137657506111dc9350508101602001386111cf565b81935090816020925483858a0101520191019091859261135d565b6010548110156113cc576003906010600052027f1b6847dc741a1b0cd08d278845f9d819d87b734759afb55fe2de5cb82a9ae6720190600090565b634e487b7160e01b600052603260045260246000fd5b81601f820112156110bd5780359067ffffffffffffffff821161114d5760405192611417601f8401601f19166020018561117f565b828452602083830101116110bd57816000926020809301838601378301015290565b6001600160a01b03928382169290919083156116025784169384156115e95760ff60095460a01c1615806115e1575b806115d9575b611505575b50600090838252816020526040822054908382106114d3575091604082827fddf252ad1be2c89b69c2b068fc378daa952ba7f163c4a11628f55a4df523b3ef958760209652828652038282205586815220818154019055604051908152a3565b60405163391434e360e21b81526001600160a01b03919091166004820152602481019190915260448101839052606490fd5b602060649160065416604051928380926372331c7360e11b82528860048301528960248301528760448301525afa9081156115cd57600091611593575b501561154e5738611473565b60405162461bcd60e51b815260206004820152601760248201527f436f6d706c69616e636520636865636b206661696c65640000000000000000006044820152606490fd5b6020813d82116115c5575b816115ab6020938361117f565b810103126101d257519081151582036101b0575038611542565b3d915061159e565b6040513d6000823e3d90fd5b50600161146e565b506001611468565b60405163ec442f0560e01b815260006004820152602490fd5b604051634b637e8f60e11b815260006004820152602490fd5b9160018060a01b03809316916000938385526001602052604093848620918316918287526020528486205492600019841061165a575b50505050505050565b8484106116be575080156116a657811561168e57855260016020528385209085526020520391205538808080808080611651565b8451634a1406b160e11b815260048101879052602490fd5b845163e602df0560e01b815260048101879052602490fd5b8551637dc7a0d960e11b81526001600160a01b039190911660048201526024810184905260448101859052606490fd5b906001600160a01b03808316919082156116025760ff60095460a01c161580611848575b80611840575b6117ab575b50600092828452836020526040842054908282106117795750817fddf252ad1be2c89b69c2b068fc378daa952ba7f163c4a11628f55a4df523b3ef926020928587528684520360408620558060025403600255604051908152a3565b60405163391434e360e21b81526001600160a01b03919091166004820152602481019190915260448101829052606490fd5b60065416604051906372331c7360e11b82528360048301526020826064816000948560248301528760448301525afa9182156118335781926117f5575b50501561154e573861171d565b9091506020813d821161182b575b816118106020938361117f565b810103126101d257519081151582036101b0575038806117e8565b3d9150611803565b50604051903d90823e3d90fd5b506000611718565b506001611712565b1561185757565b60405162461bcd60e51b815260206004820152600a60248201526927b7363c9037bbb732b960b11b6044820152606490fdfea264697066735822122009d97a130b6adbf9ce13289a059b7934a132ee3ba6252a38e5057bebf5413b5764736f6c63430008140033c65a7bb8d6351c1cf70c95a316cc6a92839c986682d98bc35f958f4883f9d2a8",
  "linkReferences": {},
  "deployedLinkReferences": {}
}