{
  "_format": "hh-sol-artifact-1",
  "contractName": "RWAToken",
  "sourceName": "contracts/core/RWAToken.sol",
  "abi": [
    {
      "inputs": [
        {
          "internalType": "bytes32",
          "name": "_assetId",
          "type": "bytes32"
        },
        {
          "internalType": "address",
          "name": "_compliance",
          "type": "address"
        },
        {
          "internalType": "address",
          "name": "_identityRegistry",
          "type": "address"
        },
        {
          "internalType": "uint256",
          "name": "_totalSupply",
          "type": "uint256"
        },
        {
          "internalType": "address",
          "name": "_platformCustody",
          "type": "address"
        },
        {
          "internalType": "string",
          "name": "_name",
          "type": "string"
        },
        {
          "internalType": "string",
          "name": "_symbol",
          "type": "string"
        },
        {
          "internalType": "address",
          "name": "_issuer",
          "type": "address"
        }
      ],
      "stateMutability": "nonpayable",
      "type": "constructor"
    },
    {
      "inputs": [
        {
          "internalType": "address",
          "name": "spender",
          "type": "address"
        },
        {
          "internalType": "uint256",
          "name": "allowance",
          "type": "uint256"
        },
        {
          "internalType": "uint256",
          "name": "needed",
          "type": "uint256"
        }
      ],
      "name": "ERC20InsufficientAllowance",
      "type": "error"
    },
    {
      "inputs": [
        {
          "internalType": "address",
          "name": "sender",
          "type": "address"
        },
        {
          "internalType": "uint256",
          "name": "balance",
          "type": "uint256"
        },
        {
          "internalType": "uint256",
          "name": "needed",
          "type": "uint256"
        }
      ],
      "name": "ERC20InsufficientBalance",
      "type": "error"
    },
    {
      "inputs": [
        {
          "internalType": "address",
          "name": "approver",
          "type": "address"
        }
      ],
      "name": "ERC20InvalidApprover",
      "type": "error"
    },
    {
      "inputs": [
        {
          "internalType": "address",
          "name": "receiver",
          "type": "address"
        }
      ],
      "name": "ERC20InvalidReceiver",
      "type": "error"
    },
    {
      "inputs": [
        {
          "internalType": "address",
          "name": "sender",
          "type": "address"
        }
      ],
      "name": "ERC20InvalidSender",
      "type": "error"
    },
    {
      "inputs": [
        {
          "internalType": "address",
          "name": "spender",
          "type": "address"
        }
      ],
      "name": "ERC20InvalidSpender",
      "type": "error"
    },
    {
      "anonymous": false,
      "inputs": [
        {
          "indexed": true,
          "internalType": "address",
          "name": "owner",
          "type": "address"
        },
        {
          "indexed": true,
          "internalType": "address",
          "name": "spender",
          "type": "address"
        },
        {
          "indexed": false,
          "internalType": "uint256",
          "name": "value",
          "type": "uint256"
        }
      ],
      "name": "Approval",
      "type": "event"
    },
    {
      "anonymous": false,
      "inputs": [
        {
          "indexed": true,
          "internalType": "address",
          "name": "from",
          "type": "address"
        },
        {
          "indexed": true,
          "internalType": "address",
          "name": "to",
          "type": "address"
        },
        {
          "indexed": false,
          "internalType": "uint256",
          "name": "value",
          "type": "uint256"
        }
      ],
      "name": "Transfer",
      "type": "event"
    },
    {
      "inputs": [
        {
          "internalType": "address",
          "name": "owner",
          "type": "address"
        },
        {
          "internalType": "address",
          "name": "spender",
          "type": "address"
        }
      ],
      "name": "allowance",
      "outputs": [
        {
          "internalType": "uint256",
          "name": "",
          "type": "uint256"
        }
      ],
      "stateMutability": "view",
      "type": "function"
    },
    {
      "inputs": [
        {
          "internalType": "address",
          "name": "spender",
          "type": "address"
        },
        {
          "internalType": "uint256",
          "name": "value",
          "type": "uint256"
        }
      ],
      "name": "approve",
      "outputs": [
        {
          "internalType": "bool",
          "name": "",
          "type": "bool"
        }
      ],
      "stateMutability": "nonpayable",
      "type": "function"
    },
    {
      "inputs": [],
      "name": "assetId",
      "outputs": [
        {
          "internalType": "bytes32",
          "name": "",
          "type": "bytes32"
        }
      ],
      "stateMutability": "view",
      "type": "function"
    },
    {
      "inputs": [
        {
          "internalType": "address",
          "name": "account",
          "type": "address"
        }
      ],
      "name": "balanceOf",
      "outputs": [
        {
          "internalType": "uint256",
          "name": "",
          "type": "uint256"
        }
      ],
      "stateMutability": "view",
      "type": "function"
    },
    {
      "inputs": [
        {
          "internalType": "uint256",
          "name": "value",
          "type": "uint256"
        }
      ],
      "name": "burn",
      "outputs": [],
      "stateMutability": "nonpayable",
      "type": "function"
    },
    {
      "inputs": [
        {
          "internalType": "address",
          "name": "account",
          "type": "address"
        },
        {
          "internalType": "uint256",
          "name": "value",
          "type": "uint256"
        }
      ],
      "name": "burnFrom",
      "outputs": [],
      "stateMutability": "nonpayable",
      "type": "function"
    },
    {
      "inputs": [],
      "name": "compliance",
      "outputs": [
        {
          "internalType": "contract ComplianceModule",
          "name": "",
          "type": "address"
        }
      ],
      "stateMutability": "view",
      "type": "function"
    },
    {
      "inputs": [],
      "name": "decimals",
      "outputs": [
        {
          "internalType": "uint8",
          "name": "",
          "type": "uint8"
        }
      ],
      "stateMutability": "view",
      "type": "function"
    },
    {
      "inputs": [
        {
          "internalType": "address",
          "name": "from",
          "type": "address"
        },
        {
          "internalType": "address",
          "name": "to",
          "type": "address"
        },
        {
          "internalType": "uint256",
          "name": "amount",
          "type": "uint256"
        }
      ],
      "name": "forcedTransfer",
      "outputs": [],
      "stateMutability": "nonpayable",
      "type": "function"
    },
    {
      "inputs": [],
      "name": "identityRegistry",
      "outputs": [
        {
          "internalType": "address",
          "name": "",
          "type": "address"
        }
      ],
      "stateMutability": "view",
      "type": "function"
    },
    {
      "inputs": [],
      "name": "issuer",
      "outputs": [
        {
          "internalType": "address",
          "name": "",
          "type": "address"
        }
      ],
      "stateMutability": "view",
      "type": "function"
    },
    {
      "inputs": [],
      "name": "name",
      "outputs": [
        {
          "internalType": "string",
          "name": "",
          "type": "string"
        }
      ],
      "stateMutability": "view",
      "type": "function"
    },
    {
      "inputs": [],
      "name": "owner",
      "outputs": [
        {
          "internalType": "address",
          "name": "",
          "type": "address"
        }
      ],
      "stateMutability": "view",
      "type": "function"
    },
    {
      "inputs": [],
      "name": "paused",
      "outputs": [
        {
          "internalType": "bool",
          "name": "",
          "type": "bool"
        }
      ],
      "stateMutability": "view",
      "type": "function"
    },
    {
      "inputs": [
        {
          "internalType": "address",
          "name": "_compliance",
          "type": "address"
        }
      ],
      "name": "setCompliance",
      "outputs": [],
      "stateMutability": "nonpayable",
      "type": "function"
    },
    {
      "inputs": [
        {
          "internalType": "bool",
          "name": "_paused",
          "type": "bool"
        }
      ],
      "name": "setPaused",
      "outputs": [],
      "stateMutability": "nonpayable",
      "type": "function"
    },
    {
      "inputs": [],
      "name": "symbol",
      "outputs": [
        {
          "internalType": "string",
          "name": "",
          "type": "string"
        }
      ],
      "stateMutability": "view",
      "type": "function"
    },
    {
      "inputs": [],
      "name": "totalSupply",
      "outputs": [
        {
          "internalType": "uint256",
          "name": "",
          "type": "uint256"
        }
      ],
      "stateMutability": "view",
      "type": "function"
    },
    {
      "inputs": [
        {
          "internalType": "address",
          "name": "to",
          "type": "address"
        },
        {
          "internalType": "uint256",
          "name": "value",
          "type": "uint256"
        }
      ],
      "name": "transfer",
      "outputs": [
        {
          "internalType": "bool",
          "name": "",
          "type": "bool"
        }
      ],
      "stateMutability": "nonpayable",
      "type": "function"
    },
    {
      "inputs": [
        {
          "internalType": "address",
          "name": "from",
          "type": "address"
        },
        {
          "internalType": "address",
          "name": "to",
          "type": "address"
        },
        {
          "internalType": "uint256",
          "name": "value",
          "type": "uint256"
        }
      ],
      "name": "transferFrom",
      "outputs": [
        {
          "internalType": "bool",
          "name": "",
          "type": "bool"
        }
      ],
      "stateMutability": "nonpayable",
      "type": "function"
    }
  ],
  "bytecode": "0x60806040523480156200001157600080fd5b506040516200120a3803806200120a833981016040819052620000349162000430565b8282600362000044838262000587565b50600462000053828262000587565b505060098054336001600160a01b03199182161790915560058a90556006805482166001600160a01b038b8116919091179091556007805483168a83161790556008805490921690841617905550620000ad8486620000bb565b5050505050505050620006a6565b6001600160a01b038216620000eb5760405163ec442f0560e01b8152600060048201526024015b60405180910390fd5b620000f960008383620000fd565b5050565b600954600160a01b900460ff161580156200012057506001600160a01b03831615155b80156200013557506001600160a01b03821615155b1562000209576006546040516372331c7360e11b81526001600160a01b0385811660048301528481166024830152604482018490529091169063e46638e690606401602060405180830381865afa15801562000195573d6000803e3d6000fd5b505050506040513d601f19601f82011682018060405250810190620001bb919062000653565b620002095760405162461bcd60e51b815260206004820152601760248201527f436f6d706c69616e636520636865636b206661696c65640000000000000000006044820152606401620000e2565b620002168383836200021b565b505050565b6001600160a01b0383166200024a5780600260008282546200023e91906200067e565b90915550620002be9050565b6001600160a01b038316600090815260208190526040902054818110156200029f5760405163391434e360e21b81526001600160a01b03851660048201526024810182905260448101839052606401620000e2565b6001600160a01b03841660009081526020819052604090209082900390555b6001600160a01b038216620002dc57600280548290039055620002fb565b6001600160a01b03821660009081526020819052604090208054820190555b816001600160a01b0316836001600160a01b03167fddf252ad1be2c89b69c2b068fc378daa952ba7f163c4a11628f55a4df523b3ef836040516200034191815260200190565b60405180910390a3505050565b80516001600160a01b03811681146200036657600080fd5b919050565b634e487b7160e01b600052604160045260246000fd5b600082601f8301126200039357600080fd5b81516001600160401b0380821115620003b057620003b06200036b565b604051601f8301601f19908116603f01168101908282118183101715620003db57620003db6200036b565b81604052838152602092508683858801011115620003f857600080fd5b600091505b838210156200041c5785820183015181830184015290820190620003fd565b600093810190920192909252949350505050565b600080600080600080600080610100898b0312156200044e57600080fd5b885197506200046060208a016200034e565b96506200047060408a016200034e565b9550606089015194506200048760808a016200034e565b60a08a01519094506001600160401b0380821115620004a557600080fd5b620004b38c838d0162000381565b945060c08b0151915080821115620004ca57600080fd5b50620004d98b828c0162000381565b925050620004ea60e08a016200034e565b90509295985092959890939650565b600181811c908216806200050e57607f821691505b6020821081036200052f57634e487b7160e01b600052602260045260246000fd5b50919050565b601f8211156200021657600081815260208120601f850160051c810160208610156200055e5750805b601f850160051c820191505b818110156200057f578281556001016200056a565b505050505050565b81516001600160401b03811115620005a357620005a36200036b565b620005bb81620005b48454620004f9565b8462000535565b602080601f831160018114620005f35760008415620005da5750858301515b600019600386901b1c1916600185901b1785556200057f565b600085815260208120601f198616915b82811015620006245788860151825594840194600190910190840162000603565b5085821015620006435787850151600019600388901b60f8161c191681555b5050505050600190811b01905550565b6000602082840312156200066657600080fd5b815180151581146200067757600080fd5b9392505050565b80820180821115620006a057634e487b7160e01b600052601160045260246000fd5b92915050565b610b5480620006b66000396000f3fe608060405234801561001057600080fd5b506004361061012c5760003560e01c80635c975abb116100ad57806395d89b411161007157806395d89b411461028b5780639fc1d0e714610293578063a9059cbb146102a6578063dd62ed3e146102b9578063f8981789146102f257600080fd5b80635c975abb146102155780636290865d1461022957806370a082311461023c57806379cc6790146102655780638da5cb5b1461027857600080fd5b80631d143848116100f45780631d143848146101c457806323b872dd146101d7578063313ce567146101ea57806342966c68146101f957806344de240a1461020c57600080fd5b806306fdde0314610131578063095ea7b31461014f578063134e18f41461017257806316c38b3c1461019d57806318160ddd146101b2575b600080fd5b610139610305565b6040516101469190610919565b60405180910390f35b61016261015d366004610983565b610397565b6040519015158152602001610146565b600754610185906001600160a01b031681565b6040516001600160a01b039091168152602001610146565b6101b06101ab3660046109bb565b6103b1565b005b6002545b604051908152602001610146565b600854610185906001600160a01b031681565b6101626101e53660046109df565b610402565b60405160128152602001610146565b6101b0610207366004610a1b565b610426565b6101b660055481565b60095461016290600160a01b900460ff1681565b600654610185906001600160a01b031681565b6101b661024a366004610a34565b6001600160a01b031660009081526020819052604090205490565b6101b0610273366004610983565b610433565b600954610185906001600160a01b031681565b61013961044c565b6101b06102a13660046109df565b61045b565b6101626102b4366004610983565b610495565b6101b66102c7366004610a4f565b6001600160a01b03918216600090815260016020908152604080832093909416825291909152205490565b6101b0610300366004610a34565b6104a3565b60606003805461031490610a82565b80601f016020809104026020016040519081016040528092919081815260200182805461034090610a82565b801561038d5780601f106103625761010080835404028352916020019161038d565b820191906000526020600020905b81548152906001019060200180831161037057829003601f168201915b5050505050905090565b6000336103a58185856104ef565b60019150505b92915050565b6009546001600160a01b031633146103e45760405162461bcd60e51b81526004016103db90610abc565b60405180910390fd5b60098054911515600160a01b0260ff60a01b19909216919091179055565b6000336104108582856104fc565b61041b85858561057b565b506001949350505050565b61043033826105da565b50565b61043e8233836104fc565b61044882826105da565b5050565b60606004805461031490610a82565b6009546001600160a01b031633146104855760405162461bcd60e51b81526004016103db90610abc565b61049083838361057b565b505050565b6000336103a581858561057b565b6009546001600160a01b031633146104cd5760405162461bcd60e51b81526004016103db90610abc565b600680546001600160a01b0319166001600160a01b0392909216919091179055565b6104908383836001610610565b6001600160a01b03838116600090815260016020908152604080832093861683529290522054600019811015610575578181101561056657604051637dc7a0d960e11b81526001600160a01b038416600482015260248101829052604481018390526064016103db565b61057584848484036000610610565b50505050565b6001600160a01b0383166105a557604051634b637e8f60e11b8152600060048201526024016103db565b6001600160a01b0382166105cf5760405163ec442f0560e01b8152600060048201526024016103db565b6104908383836106e5565b6001600160a01b03821661060457604051634b637e8f60e11b8152600060048201526024016103db565b610448826000836106e5565b6001600160a01b03841661063a5760405163e602df0560e01b8152600060048201526024016103db565b6001600160a01b03831661066457604051634a1406b160e11b8152600060048201526024016103db565b6001600160a01b038085166000908152600160209081526040808320938716835292905220829055801561057557826001600160a01b0316846001600160a01b03167f8c5be1e5ebec7d5bd14f71427d1e84f3dd0314c0f7b2291e5b200ac8c7c3b925846040516106d791815260200190565b60405180910390a350505050565b600954600160a01b900460ff1615801561070757506001600160a01b03831615155b801561071b57506001600160a01b03821615155b156107e9576006546040516372331c7360e11b81526001600160a01b0385811660048301528481166024830152604482018490529091169063e46638e690606401602060405180830381865afa158015610779573d6000803e3d6000fd5b505050506040513d601f19601f8201168201806040525081019061079d9190610ae0565b6107e95760405162461bcd60e51b815260206004820152601760248201527f436f6d706c69616e636520636865636b206661696c656400000000000000000060448201526064016103db565b6104908383836001600160a01b03831661081a57806002600082825461080f9190610afd565b9091555061088c9050565b6001600160a01b0383166000908152602081905260409020548181101561086d5760405163391434e360e21b81526001600160a01b038516600482015260248101829052604481018390526064016103db565b6001600160a01b03841660009081526020819052604090209082900390555b6001600160a01b0382166108a8576002805482900390556108c7565b6001600160a01b03821660009081526020819052604090208054820190555b816001600160a01b0316836001600160a01b03167fddf252ad1be2c89b69c2b068fc378daa952ba7f163c4a11628f55a4df523b3ef8360405161090c91815260200190565b60405180910390a3505050565b600060208083528351808285015260005b818110156109465785810183015185820160400152820161092a565b506000604082860101526040601f19601f8301168501019250505092915050565b80356001600160a01b038116811461097e57600080fd5b919050565b6000806040838503121561099657600080fd5b61099f83610967565b946020939093013593505050565b801515811461043057600080fd5b6000602082840312156109cd57600080fd5b81356109d8816109ad565b9392505050565b6000806000606084860312156109f457600080fd5b6109fd84610967565b9250610a0b60208501610967565b9150604084013590509250925092565b600060208284031215610a2d57600080fd5b5035919050565b600060208284031215610a4657600080fd5b6109d882610967565b60008060408385031215610a6257600080fd5b610a6b83610967565b9150610a7960208401610967565b90509250929050565b600181811c90821680610a9657607f821691505b602082108103610ab657634e487b7160e01b600052602260045260246000fd5b50919050565b6020808252600a908201526927b7363c9037bbb732b960b11b604082015260600190565b600060208284031215610af257600080fd5b81516109d8816109ad565b808201808211156103ab57634e487b7160e01b600052601160045260246000fdfea2646970667358221220029fe88e57a08cb33df23f72de24e317f583f61a12712fac678afb8077c11bf064736f6c63430008140033",
  "linkReferences": {},
  "deployedLinkReferences": {}
}