{
  "_format": "hh-sol-artifact-1",
  "contractName": "IdentityRegistry",
  "sourceName": "contracts/core/IdentityRegistry.sol",
  "abi": [
    {
      "inputs": [
        {
          "internalType": "address",
          "name": "_trustedIssuersRegistry",
          "type": "address"
        }
      ],
      "stateMutability": "nonpayable",
      "type": "constructor"
    },
    {
      "anonymous": false,
      "inputs": [
        {
          "indexed": true,
          "internalType": "address",
          "name": "wallet",
          "type": "address"
        },
        {
          "indexed": false,
          "internalType": "uint256",
          "name": "timestamp",
          "type": "uint256"
        }
      ],
      "name": "IdentityRegistered",
      "type": "event"
    },
    {
      "anonymous": false,
      "inputs": [
        {
          "indexed": true,
          "internalType": "address",
          "name": "wallet",
          "type": "address"
        },
        {
          "indexed": false,
          "internalType": "uint256",
          "name": "timestamp",
          "type": "uint256"
        }
      ],
      "name": "IdentityRemoved",
      "type": "event"
    },
    {
      "inputs": [
        {
          "internalType": "address[]",
          "name": "wallets",
          "type": "address[]"
        }
      ],
      "name": "batchRegisterIdentity",
      "outputs": [],
      "stateMutability": "nonpayable",
      "type": "function"
    },
    {
      "inputs": [
        {
          "internalType": "address",
          "name": "wallet",
          "type": "address"
        }
      ],
      "name": "getIdentity",
      "outputs": [
        {
          "components": [
            {
              "internalType": "bool",
              "name": "exists",
              "type": "bool"
            },
            {
              "internalType": "bool",
              "name": "isVerified",
              "type": "bool"
            },
            {
              "internalType": "uint256",
              "name": "kycTimestamp",
              "type": "uint256"
            },
            {
              "internalType": "address",
              "name": "wallet",
              "type": "address"
            }
          ],
          "internalType": "struct IdentityRegistry.Identity",
          "name": "",
          "type": "tuple"
        }
      ],
      "stateMutability": "view",
      "type": "function"
    },
    {
      "inputs": [
        {
          "internalType": "address",
          "name": "",
          "type": "address"
        }
      ],
      "name": "identities",
      "outputs": [
        {
          "internalType": "bool",
          "name": "exists",
          "type": "bool"
        },
        {
          "internalType": "bool",
          "name": "isVerified",
          "type": "bool"
        },
        {
          "internalType": "uint256",
          "name": "kycTimestamp",
          "type": "uint256"
        },
        {
          "internalType": "address",
          "name": "wallet",
          "type": "address"
        }
      ],
      "stateMutability": "view",
      "type": "function"
    },
    {
      "inputs": [
        {
          "internalType": "address",
          "name": "wallet",
          "type": "address"
        }
      ],
      "name": "isVerified",
      "outputs": [
        {
          "internalType": "bool",
          "name": "",
          "type": "bool"
        }
      ],
      "stateMutability": "view",
      "type": "function"
    },
    {
      "inputs": [],
      "name": "owner",
      "outputs": [
        {
          "internalType": "address",
          "name": "",
          "type": "address"
        }
      ],
      "stateMutability": "view",
      "type": "function"
    },
    {
      "inputs": [
        {
          "internalType": "address",
          "name": "wallet",
          "type": "address"
        }
      ],
      "name": "registerIdentity",
      "outputs": [],
      "stateMutability": "nonpayable",
      "type": "function"
    },
    {
      "inputs": [
        {
          "internalType": "address",
          "name": "wallet",
          "type": "address"
        }
      ],
      "name": "removeIdentity",
      "outputs": [],
      "stateMutability": "nonpayable",
      "type": "function"
    },
    {
      "inputs": [],
      "name": "trustedIssuersRegistry",
      "outputs": [
        {
          "internalType": "contract TrustedIssuersRegistry",
          "name": "",
          "type": "address"
        }
      ],
      "stateMutability": "view",
      "type": "function"
    },
    {
      "inputs": [
        {
          "internalType": "address",
          "name": "_newRegistry",
          "type": "address"
        }
      ],
      "name": "updateTrustedIssuersRegistry",
      "outputs": [],
      "stateMutability": "nonpayable",
      "type": "function"
    }
  ],
  "bytecode": "0x60803461007a57601f6108d138819003918201601f19168301916001600160401b0383118484101761007f5780849260209460405283398101031261007a57516001600160a01b0381169081900361007a5760018060a01b031933816002541617600255600154161760015560405161083b90816100968239f35b600080fd5b634e487b7160e01b600052604160045260246000fdfe608060408181526004918236101561001657600080fd5b600092833560e01c9182630e944c741461069a575081632fea7b81146105eb57816363b8f8ff146104ae5781638da5cb5b146104855781639638c7c7146102ab578163b9209e331461026a578163c1f2f1aa14610120578163f653b81e146100b3575063fb703a7b1461008857600080fd5b346100af57816003193601126100af5760015490516001600160a01b039091168152602090f35b5080fd5b90503461011c57602036600319011261011c576001600160a01b03919035828116908190036101185783829160809552806020522080549260026001830154920154169160ff8151948181161515865260081c16151560208501528301526060820152f35b8380fd5b8280fd5b9190503461011c57602090816003193601126101185782356001600160a01b03818116949185900361026657808460249260015416855193848092633bcbb46960e21b825233888301525afa91821561025c579061018e9291889261022d575b50811561021f575b50610789565b83855284835260ff8286205416156101de5750828452838252808420805461ff0019169055514281527ff06dfe9062e9317cd357560ea667d65a9b032f1a674c04e99653e894e145c8fa9190a280f35b82606492519162461bcd60e51b8352820152601760248201527f4964656e7469747920646f6573206e6f742065786973740000000000000000006044820152fd5b905060025416331438610188565b61024e919250863d8811610255575b610246818361074a565b81019061076c565b9038610180565b503d61023c565b84513d89823e3d90fd5b8580fd5b90503461011c57602036600319011261011c57356001600160a01b0381169081900361011c57818360ff9260209552808552205460081c1690519015158152f35b9190503461011c576020806003193601126101185782359267ffffffffffffffff928385116102665736602386011215610266578482013593841161026657602492838601958436918760051b0101116104815760018060a01b036001968583838a5416865192838092633bcbb46960e21b8252338b8301525afa908115610477578a9161045a575b50801561044d575b61034590610789565b885b878110610352578980f35b61035d8189846107cb565b610366906107f1565b838b8a8c8980519361037785610718565b8285528a850192835285828601944286528982606089019a168a5261039c918c6107cb565b6103a5906107f1565b168152808b522092518354915161ffff1990921660ff911515919091161790151560081b61ff0016178255518c8201556002019151166001600160601b0360a01b825416179055826103f8828a856107cb565b610401906107f1565b168551854282527f22bfb6218489c201b6ec174e5dd0380b7877b3a2d12eed0542f6b5e8ef712f2891a2600019811461043b578801610347565b634e487b7160e01b8a5260118652868afd5b506002548216331461033c565b6104719150843d861161025557610246818361074a565b38610334565b85513d8c823e3d90fd5b8680fd5b5050346100af57816003193601126100af5760025490516001600160a01b039091168152602090f35b9190503461011c576020806003193601126101185782356001600160a01b03818116939184900361026657828160015416956024845180988193633bcbb46960e21b835233908301525afa80156105e1577f22bfb6218489c201b6ec174e5dd0380b7877b3a2d12eed0542f6b5e8ef712f28949587916105c4575b5080156105b7575b61053a90610789565b81519061054682610718565b60018083528483019081524284840190815260608401888152888a52898752858a2094518554935161ffff1990941660ff911515919091161792151560081b61ff00169290921784559092600291516001820155019151166001600160601b0360a01b82541617905551428152a280f35b5060025481163314610531565b6105db9150843d861161025557610246818361074a565b38610529565b82513d88823e3d90fd5b90503461011c57602036600319011261011c576001600160a01b03903581811690819003610118578383916080956060845161062681610718565b82815282602082015282868201520152815280602052209180519061064a82610718565b83549360ff851615159485845260ff602085019160081c16151581526060856002600185015494868801958652015416940193845282519586525115156020860152519084015251166060820152f35b8492503461011c57602036600319011261011c5781356001600160a01b038181169391849003610714576002541633036106e65750506001600160601b0360a01b600154161760015580f35b62461bcd60e51b8252602090820152600a60248201526927b7363c9037bbb732b960b11b6044820152606490fd5b8480fd5b6080810190811067ffffffffffffffff82111761073457604052565b634e487b7160e01b600052604160045260246000fd5b90601f8019910116810190811067ffffffffffffffff82111761073457604052565b90816020910312610784575180151581036107845790565b600080fd5b1561079057565b60405162461bcd60e51b815260206004820152601360248201527227b7363c903a393ab9ba32b21034b9b9bab2b960691b6044820152606490fd5b91908110156107db5760051b0190565b634e487b7160e01b600052603260045260246000fd5b356001600160a01b0381168103610784579056fea264697066735822122033f1ce46827f65d1e00dd477a3caf1d6c7209a22646f398b0da958636ebb5cc964736f6c63430008140033",
  "linkReferences": {},
  "deployedLinkReferences": {}
}