{
  "_format": "hh-sol-artifact-1",
  "contractName": "OAID",
  "sourceName": "contracts/integrations/OAID.sol",
  "abi": [
    {
      "inputs": [],
      "stateMutability": "nonpayable",
      "type": "constructor"
    },
    {
      "inputs": [
        {
          "internalType": "address",
          "name": "owner",
          "type": "address"
        }
      ],
      "name": "OwnableInvalidOwner",
      "type": "error"
    },
    {
      "inputs": [
        {
          "internalType": "address",
          "name": "account",
          "type": "address"
        }
      ],
      "name": "OwnableUnauthorizedAccount",
      "type": "error"
    },
    {
      "inputs": [],
      "name": "ReentrancyGuardReentrantCall",
      "type": "error"
    },
    {
      "anonymous": false,
      "inputs": [
        {
          "indexed": true,
          "internalType": "uint256",
          "name": "creditLineId",
          "type": "uint256"
        },
        {
          "indexed": true,
          "internalType": "address",
          "name": "user",
          "type": "address"
        },
        {
          "indexed": false,
          "internalType": "address",
          "name": "collateralToken",
          "type": "address"
        },
        {
          "indexed": false,
          "internalType": "uint256",
          "name": "collateralAmount",
          "type": "uint256"
        },
        {
          "indexed": false,
          "internalType": "uint256",
          "name": "creditLimit",
          "type": "uint256"
        },
        {
          "indexed": false,
          "internalType": "uint256",
          "name": "solvencyPositionId",
          "type": "uint256"
        }
      ],
      "name": "CreditLineIssued",
      "type": "event"
    },
    {
      "anonymous": false,
      "inputs": [
        {
          "indexed": true,
          "internalType": "uint256",
          "name": "creditLineId",
          "type": "uint256"
        },
        {
          "indexed": false,
          "internalType": "string",
          "name": "reason",
          "type": "string"
        }
      ],
      "name": "CreditLineRevoked",
      "type": "event"
    },
    {
      "anonymous": false,
      "inputs": [
        {
          "indexed": true,
          "internalType": "uint256",
          "name": "creditLineId",
          "type": "uint256"
        },
        {
          "indexed": false,
          "internalType": "uint256",
          "name": "amount",
          "type": "uint256"
        },
        {
          "indexed": false,
          "internalType": "uint256",
          "name": "remainingUsed",
          "type": "uint256"
        }
      ],
      "name": "CreditRepaid",
      "type": "event"
    },
    {
      "anonymous": false,
      "inputs": [
        {
          "indexed": true,
          "internalType": "uint256",
          "name": "creditLineId",
          "type": "uint256"
        },
        {
          "indexed": false,
          "internalType": "uint256",
          "name": "amount",
          "type": "uint256"
        },
        {
          "indexed": false,
          "internalType": "uint256",
          "name": "totalUsed",
          "type": "uint256"
        }
      ],
      "name": "CreditUsed",
      "type": "event"
    },
    {
      "anonymous": false,
      "inputs": [
        {
          "indexed": true,
          "internalType": "address",
          "name": "previousOwner",
          "type": "address"
        },
        {
          "indexed": true,
          "internalType": "address",
          "name": "newOwner",
          "type": "address"
        }
      ],
      "name": "OwnershipTransferred",
      "type": "event"
    },
    {
      "inputs": [
        {
          "internalType": "uint256",
          "name": "",
          "type": "uint256"
        }
      ],
      "name": "creditLines",
      "outputs": [
        {
          "internalType": "address",
          "name": "user",
          "type": "address"
        },
        {
          "internalType": "address",
          "name": "collateralToken",
          "type": "address"
        },
        {
          "internalType": "uint256",
          "name": "collateralAmount",
          "type": "uint256"
        },
        {
          "internalType": "uint256",
          "name": "creditLimit",
          "type": "uint256"
        },
        {
          "internalType": "uint256",
          "name": "creditUsed",
          "type": "uint256"
        },
        {
          "internalType": "uint256",
          "name": "solvencyPositionId",
          "type": "uint256"
        },
        {
          "internalType": "uint256",
          "name": "issuedAt",
          "type": "uint256"
        },
        {
          "internalType": "bool",
          "name": "active",
          "type": "bool"
        }
      ],
      "stateMutability": "view",
      "type": "function"
    },
    {
      "inputs": [
        {
          "internalType": "uint256",
          "name": "creditLineId",
          "type": "uint256"
        }
      ],
      "name": "getAvailableCredit",
      "outputs": [
        {
          "internalType": "uint256",
          "name": "",
          "type": "uint256"
        }
      ],
      "stateMutability": "view",
      "type": "function"
    },
    {
      "inputs": [
        {
          "internalType": "uint256",
          "name": "creditLineId",
          "type": "uint256"
        }
      ],
      "name": "getCreditLine",
      "outputs": [
        {
          "components": [
            {
              "internalType": "address",
              "name": "user",
              "type": "address"
            },
            {
              "internalType": "address",
              "name": "collateralToken",
              "type": "address"
            },
            {
              "internalType": "uint256",
              "name": "collateralAmount",
              "type": "uint256"
            },
            {
              "internalType": "uint256",
              "name": "creditLimit",
              "type": "uint256"
            },
            {
              "internalType": "uint256",
              "name": "creditUsed",
              "type": "uint256"
            },
            {
              "internalType": "uint256",
              "name": "solvencyPositionId",
              "type": "uint256"
            },
            {
              "internalType": "uint256",
              "name": "issuedAt",
              "type": "uint256"
            },
            {
              "internalType": "bool",
              "name": "active",
              "type": "bool"
            }
          ],
          "internalType": "struct OAID.CreditLine",
          "name": "",
          "type": "tuple"
        }
      ],
      "stateMutability": "view",
      "type": "function"
    },
    {
      "inputs": [
        {
          "internalType": "address",
          "name": "user",
          "type": "address"
        }
      ],
      "name": "getTotalAvailableCredit",
      "outputs": [
        {
          "internalType": "uint256",
          "name": "",
          "type": "uint256"
        }
      ],
      "stateMutability": "view",
      "type": "function"
    },
    {
      "inputs": [
        {
          "internalType": "address",
          "name": "user",
          "type": "address"
        }
      ],
      "name": "getTotalCreditLimit",
      "outputs": [
        {
          "internalType": "uint256",
          "name": "",
          "type": "uint256"
        }
      ],
      "stateMutability": "view",
      "type": "function"
    },
    {
      "inputs": [
        {
          "internalType": "address",
          "name": "user",
          "type": "address"
        }
      ],
      "name": "getUserCreditLines",
      "outputs": [
        {
          "internalType": "uint256[]",
          "name": "",
          "type": "uint256[]"
        }
      ],
      "stateMutability": "view",
      "type": "function"
    },
    {
      "inputs": [
        {
          "internalType": "address",
          "name": "user",
          "type": "address"
        },
        {
          "internalType": "address",
          "name": "collateralToken",
          "type": "address"
        },
        {
          "internalType": "uint256",
          "name": "collateralAmount",
          "type": "uint256"
        },
        {
          "internalType": "uint256",
          "name": "valueUSD",
          "type": "uint256"
        },
        {
          "internalType": "uint256",
          "name": "solvencyPositionId",
          "type": "uint256"
        }
      ],
      "name": "issueCreditLine",
      "outputs": [
        {
          "internalType": "uint256",
          "name": "creditLineId",
          "type": "uint256"
        }
      ],
      "stateMutability": "nonpayable",
      "type": "function"
    },
    {
      "inputs": [],
      "name": "nextCreditLineId",
      "outputs": [
        {
          "internalType": "uint256",
          "name": "",
          "type": "uint256"
        }
      ],
      "stateMutability": "view",
      "type": "function"
    },
    {
      "inputs": [],
      "name": "owner",
      "outputs": [
        {
          "internalType": "address",
          "name": "",
          "type": "address"
        }
      ],
      "stateMutability": "view",
      "type": "function"
    },
    {
      "inputs": [
        {
          "internalType": "uint256",
          "name": "creditLineId",
          "type": "uint256"
        },
        {
          "internalType": "uint256",
          "name": "amount",
          "type": "uint256"
        }
      ],
      "name": "recordCreditRepayment",
      "outputs": [],
      "stateMutability": "nonpayable",
      "type": "function"
    },
    {
      "inputs": [
        {
          "internalType": "uint256",
          "name": "creditLineId",
          "type": "uint256"
        },
        {
          "internalType": "uint256",
          "name": "amount",
          "type": "uint256"
        }
      ],
      "name": "recordCreditUsage",
      "outputs": [],
      "stateMutability": "nonpayable",
      "type": "function"
    },
    {
      "inputs": [],
      "name": "renounceOwnership",
      "outputs": [],
      "stateMutability": "nonpayable",
      "type": "function"
    },
    {
      "inputs": [
        {
          "internalType": "uint256",
          "name": "creditLineId",
          "type": "uint256"
        },
        {
          "internalType": "string",
          "name": "reason",
          "type": "string"
        }
      ],
      "name": "revokeCreditLine",
      "outputs": [],
      "stateMutability": "nonpayable",
      "type": "function"
    },
    {
      "inputs": [
        {
          "internalType": "address",
          "name": "_solvencyVault",
          "type": "address"
        }
      ],
      "name": "setSolvencyVault",
      "outputs": [],
      "stateMutability": "nonpayable",
      "type": "function"
    },
    {
      "inputs": [],
      "name": "solvencyVault",
      "outputs": [
        {
          "internalType": "address",
          "name": "",
          "type": "address"
        }
      ],
      "stateMutability": "view",
      "type": "function"
    },
    {
      "inputs": [
        {
          "internalType": "address",
          "name": "newOwner",
          "type": "address"
        }
      ],
      "name": "transferOwnership",
      "outputs": [],
      "stateMutability": "nonpayable",
      "type": "function"
    },
    {
      "inputs": [
        {
          "internalType": "address",
          "name": "",
          "type": "address"
        },
        {
          "internalType": "uint256",
          "name": "",
          "type": "uint256"
        }
      ],
      "name": "userCreditLines",
      "outputs": [
        {
          "internalType": "uint256",
          "name": "",
          "type": "uint256"
        }
      ],
      "stateMutability": "view",
      "type": "function"
    }
  ],
  "bytecode": "0x6080806040523461008357331561006d5760008054336001600160a01b03198216811783556040519290916001600160a01b0316907f8be0079c531659141344cd1fd0a4f28419497f9722a3daafe3b4186f6b6457e09080a36001805560016004556110aa90816100898239f35b631e4fbdf760e01b815260006004820152602490fd5b600080fdfe6040608081526004908136101561001557600080fd5b60009160e08335811c9081632077997b14610cfd57816320bb463e14610bd257816336e433ba14610b4e57816344452ba114610b2457816365a1782f14610a4d57816367cc7cff146108df5781636ad75e1f1461080d578163715018a6146107b35781637bca9fcc1461075c5781638da5cb5b146107335781638f19cfa914610715578163ad6e4f3a14610668578163cbcddf131461063d578163d5cdd4c614610505578163e32195d61461026d578163edad855014610168575063f2fde38b146100df57600080fd5b34610164576020366003190112610164576100f8610dc8565b90610101610e7c565b6001600160a01b0391821692831561014e57505082546001600160a01b0319811683178455167f8be0079c531659141344cd1fd0a4f28419497f9722a3daafe3b4186f6b6457e08380a380f35b51631e4fbdf760e01b8152908101849052602490fd5b8280fd5b91929050346102695760203660031901126102695780846101009584835161018f81610df9565b82815282602082015282858201528260608201528260808201528260a08201528260c08201520152843581526003602052208151916101cd83610df9565b60018060a01b038083541695868552816001850154169260208601938452600285015481870190815260038601549260608801938452860154936080880194855260058701549560a089019687528960ff600760068b01549a60c08d019b8c520154169901981515895283519a8b52511660208a015251908801525160608701525160808601525160a08501525160c084015251151590820152f35b8380fd5b848484346101645760a036600319011261016457610289610dc8565b6024946001600160a01b0386358181169691949087900361050157604435916064359886608435966102c082600254163314610ea8565b6102c8610f4f565b169687156104d057891561049e576102e1851515610ee9565b8a1561046857611b58808c029b8c040361045657896127108a9b9c04968886549c8d9461030d86610f2a565b895581519461031b86610df9565b8d865260208601908152828601908b825260608701928d84528060808901958c875260a08a0197885260c08a0198428a528a019a60018c528d5260036020528c20985116906bffffffffffffffffffffffff60a01b91828a5416178955600189019251169082541617905551600286015551600385015551878401555160058301555160068201556007019051151560ff198254169060ff161790558682526005602052878220918254936801000000000000000085101561044657505050937fd0b5542c8f25b14fdbbe9bbbc395dd5fd5c2ff36f08e69f6e6d80ffb93462feb93608093610414848b98600160209e97018155610e4e565b81549060031b9089821b91600019901b191617905588519384528a840152878301526060820152a36001805551908152f35b634e487b7160e01b825260419052fd5b50634e487b7160e01b82526011909252fd5b885162461bcd60e51b815260208186015260118184015270056616c7565206d757374206265203e203607c1b6044820152606490fd5b885162461bcd60e51b8152602081860152600d818401526c24b73b30b634b2103a37b5b2b760991b6044820152606490fd5b885162461bcd60e51b8152602081860152600c818401526b24b73b30b634b2103ab9b2b960a11b6044820152606490fd5b5080fd5b8385849234610501576020938460031936011261016457610524610dc8565b91839260018060a01b03809116855260059485885286812096805180898b829b5493848152019085528b852092855b8d8282106106275750505061056a92500389610e2c565b815b885181101561061e5761057f818a611060565b518352876003808c52868c60ff60078789209488519361059e85610df9565b8b87541685528b60018801541690850152600286015489850152850154948560608501528c8101549687608086015281015460a0850152600681015460c0850152015416151591829101526105fe575b50506105f990610f2a565b61056c565b97610610610616926105f9949a610fb7565b90610fc4565b96908b6105ee565b89878351908152f35b855484526001958601958e955093019201610553565b50509134610665576020366003190112610665575061065e60209235610fd1565b9051908152f35b80fd5b83853461066557602090816003193601126106655782906001600160a01b0361068f610dc8565b16815260058352818120908251808584549182815201908194845286842090845b81811061070157505050816106c6910382610e2c565b83519485948186019282875251809352850193925b8281106106ea57505050500390f35b8351855286955093810193928101926001016106db565b8254845292880192600192830192016106b0565b50503461016457826003193601126101645760209250549051908152f35b50505034610501578160031936011261050157905490516001600160a01b039091168152602090f35b50505034610501578060031936011261050157610777610dc8565b6001600160a01b0316825260056020528082208054602435939084101561066557506020926107a591610e4e565b91905490519160031b1c8152f35b84346106655780600319360112610665576107cc610e7c565b80546001600160a01b03198116825581906001600160a01b03167f8be0079c531659141344cd1fd0a4f28419497f9722a3daafe3b4186f6b6457e08280a380f35b828585346105015761081e36610de3565b610829929192610e7c565b610831610f4f565b82845260036020528482852061084d60ff600783015416610f72565b610858831515610ee9565b018054958683116108a65750610891827f1af839ce655eb23ec05b8977b91598e475661a48d34a7f4b4c499ddcaeac551c959697610fb7565b80915582519182526020820152a26001805580f35b606490602085519162461bcd60e51b83528201526013602482015272105b5bdd5b9d08195e18d959591cc81919589d606a1b6044820152fd5b5050346101645781600319360112610164578035916024359167ffffffffffffffff90818411610a495736602385011215610a495783810135918211610a365782519086602095601f199461093b8887601f8401160186610e2c565b808552366024828401011161016457806024899301838701378401015261096d60018060a01b03600254163314610ea8565b610975610f4f565b858752600385526007848820019081549060ff821615610a01575060ff191690558251938085528151918282870152875b8381106109ee57505050928291601f858884967f1c15f1e13a77fb81a0da9e59f48e2101623c7c71d6a01ab217f2a45acd5de810988601015201168101030190a26001805580f35b81810183015187820187015282016109a6565b855162461bcd60e51b8152908101879052600f60248201526e105b1c9958591e481c995d9bdad959608a1b6044820152606490fd5b634e487b7160e01b865260419052602485fd5b8580fd5b8285853461050157610a5e36610de3565b610a69929192610e7c565b610a71610f4f565b828452600360205281842094610a8d60ff600788015416610f72565b610a98821515610ee9565b806003870154960190610aad82548098610fb7565b8311610ae15750610891827f5496d924a06323b0525576522992e3fc0c11a350cd485f9053de0e7ba84aee35959697610fc4565b606490602085519162461bcd60e51b8352820152601860248201527f4578636565647320617661696c61626c652063726564697400000000000000006044820152fd5b5050503461050157816003193601126105015760025490516001600160a01b039091168152602090f35b919050346102695760203660031901126102695782610100948235815260036020522060018060a01b03938482541694600183015416926002830154906003840154908401549160058501549360ff6007600688015497015416968151998a5260208a01528801526060870152608086015260a085015260c0840152151590820152f35b83858434610501576020938460031936011261016457610bf0610dc8565b6001600160a01b039081168452600580875285852086518154808252918752888720909787929091908990818c0190855b8d828210610ce757505050610c3892500389610e2c565b815b8851811015610cde57610c4d818a611060565b5183526003808b52868b60ff600786882094875193610c6b85610df9565b8b87541685528b60018801541690850152600286015488850152850154948560608501528c81015460808501528981015460a0850152600681015460c085015201541615159182910152610cc9575b50610cc490610f2a565b610c3a565b610cd790610cc49299610fc4565b9790610cba565b89888351908152f35b855484526001958601958e955093019201610c21565b50503461016457602036600319011261016457610d18610dc8565b90610d21610e7c565b600254916001600160a01b0390818416610d855716928315610d505750506001600160a01b0319161760025580f35b906020606492519162461bcd60e51b8352820152600f60248201526e496e76616c6964206164647265737360881b6044820152fd5b845162461bcd60e51b8152602081850152601960248201527f536f6c76656e63795661756c7420616c726561647920736574000000000000006044820152606490fd5b600435906001600160a01b0382168203610dde57565b600080fd5b6040906003190112610dde576004359060243590565b610100810190811067ffffffffffffffff821117610e1657604052565b634e487b7160e01b600052604160045260246000fd5b90601f8019910116810190811067ffffffffffffffff821117610e1657604052565b8054821015610e665760005260206000200190600090565b634e487b7160e01b600052603260045260246000fd5b6000546001600160a01b03163303610e9057565b60405163118cdaa760e01b8152336004820152602490fd5b15610eaf57565b60405162461bcd60e51b815260206004820152601260248201527113db9b1e4814dbdb1d995b98de55985d5b1d60721b6044820152606490fd5b15610ef057565b60405162461bcd60e51b81526020600482015260126024820152710416d6f756e74206d757374206265203e20360741b6044820152606490fd5b6000198114610f395760010190565b634e487b7160e01b600052601160045260246000fd5b600260015414610f60576002600155565b604051633ee5aeb560e01b8152600490fd5b15610f7957565b60405162461bcd60e51b8152602060048201526016602482015275437265646974206c696e65206e6f742061637469766560501b6044820152606490fd5b91908203918211610f3957565b91908201809211610f3957565b6000526003602052604060002060405190610feb82610df9565b60018060a01b0380825416835260018201541660208301526002810154604083015260038101549182606082015260ff6007600484015493846080850152600581015460a0850152600681015460c0850152015416159060e082159101526110595761105691610fb7565b90565b5050600090565b8051821015610e665760209160051b01019056fea2646970667358221220fd738a5514a080886f70dc16e5c6e659bc151065e8a8e2c196beec6cc877492e64736f6c63430008140033",
  "linkReferences": {},
  "deployedLinkReferences": {}
}