{
  "_format": "hh-sol-artifact-1",
  "contractName": "OAID",
  "sourceName": "contracts/integrations/OAID.sol",
  "abi": [
    {
      "inputs": [],
      "stateMutability": "nonpayable",
      "type": "constructor"
    },
    {
      "inputs": [
        {
          "internalType": "address",
          "name": "owner",
          "type": "address"
        }
      ],
      "name": "OwnableInvalidOwner",
      "type": "error"
    },
    {
      "inputs": [
        {
          "internalType": "address",
          "name": "account",
          "type": "address"
        }
      ],
      "name": "OwnableUnauthorizedAccount",
      "type": "error"
    },
    {
      "inputs": [],
      "name": "ReentrancyGuardReentrantCall",
      "type": "error"
    },
    {
      "anonymous": false,
      "inputs": [
        {
          "indexed": true,
          "internalType": "uint256",
          "name": "creditLineId",
          "type": "uint256"
        },
        {
          "indexed": true,
          "internalType": "address",
          "name": "user",
          "type": "address"
        },
        {
          "indexed": false,
          "internalType": "address",
          "name": "collateralToken",
          "type": "address"
        },
        {
          "indexed": false,
          "internalType": "uint256",
          "name": "collateralAmount",
          "type": "uint256"
        },
        {
          "indexed": false,
          "internalType": "uint256",
          "name": "creditLimit",
          "type": "uint256"
        },
        {
          "indexed": false,
          "internalType": "uint256",
          "name": "solvencyPositionId",
          "type": "uint256"
        }
      ],
      "name": "CreditLineIssued",
      "type": "event"
    },
    {
      "anonymous": false,
      "inputs": [
        {
          "indexed": true,
          "internalType": "uint256",
          "name": "creditLineId",
          "type": "uint256"
        },
        {
          "indexed": false,
          "internalType": "string",
          "name": "reason",
          "type": "string"
        }
      ],
      "name": "CreditLineRevoked",
      "type": "event"
    },
    {
      "anonymous": false,
      "inputs": [
        {
          "indexed": true,
          "internalType": "uint256",
          "name": "creditLineId",
          "type": "uint256"
        },
        {
          "indexed": false,
          "internalType": "uint256",
          "name": "oldCreditLimit",
          "type": "uint256"
        },
        {
          "indexed": false,
          "internalType": "uint256",
          "name": "newCreditLimit",
          "type": "uint256"
        }
      ],
      "name": "CreditLineUpdated",
      "type": "event"
    },
    {
      "anonymous": false,
      "inputs": [
        {
          "indexed": true,
          "internalType": "uint256",
          "name": "creditLineId",
          "type": "uint256"
        },
        {
          "indexed": false,
          "internalType": "uint256",
          "name": "amount",
          "type": "uint256"
        },
        {
          "indexed": false,
          "internalType": "uint256",
          "name": "remainingUsed",
          "type": "uint256"
        }
      ],
      "name": "CreditRepaid",
      "type": "event"
    },
    {
      "anonymous": false,
      "inputs": [
        {
          "indexed": true,
          "internalType": "uint256",
          "name": "creditLineId",
          "type": "uint256"
        },
        {
          "indexed": false,
          "internalType": "uint256",
          "name": "amount",
          "type": "uint256"
        },
        {
          "indexed": false,
          "internalType": "uint256",
          "name": "totalUsed",
          "type": "uint256"
        }
      ],
      "name": "CreditUsed",
      "type": "event"
    },
    {
      "anonymous": false,
      "inputs": [
        {
          "indexed": true,
          "internalType": "address",
          "name": "previousOwner",
          "type": "address"
        },
        {
          "indexed": true,
          "internalType": "address",
          "name": "newOwner",
          "type": "address"
        }
      ],
      "name": "OwnershipTransferred",
      "type": "event"
    },
    {
      "anonymous": false,
      "inputs": [
        {
          "indexed": true,
          "internalType": "uint256",
          "name": "creditLineId",
          "type": "uint256"
        },
        {
          "indexed": true,
          "internalType": "address",
          "name": "user",
          "type": "address"
        },
        {
          "indexed": false,
          "internalType": "uint256",
          "name": "amount",
          "type": "uint256"
        },
        {
          "indexed": false,
          "internalType": "bool",
          "name": "onTime",
          "type": "bool"
        },
        {
          "indexed": false,
          "internalType": "uint256",
          "name": "daysLate",
          "type": "uint256"
        }
      ],
      "name": "PaymentRecorded",
      "type": "event"
    },
    {
      "anonymous": false,
      "inputs": [
        {
          "indexed": true,
          "internalType": "uint256",
          "name": "creditLineId",
          "type": "uint256"
        },
        {
          "indexed": true,
          "internalType": "address",
          "name": "user",
          "type": "address"
        },
        {
          "indexed": false,
          "internalType": "uint256",
          "name": "timestamp",
          "type": "uint256"
        }
      ],
      "name": "PositionLiquidated",
      "type": "event"
    },
    {
      "anonymous": false,
      "inputs": [
        {
          "indexed": true,
          "internalType": "address",
          "name": "user",
          "type": "address"
        },
        {
          "indexed": false,
          "internalType": "uint256",
          "name": "timestamp",
          "type": "uint256"
        }
      ],
      "name": "UserRegistered",
      "type": "event"
    },
    {
      "inputs": [
        {
          "internalType": "uint256",
          "name": "",
          "type": "uint256"
        }
      ],
      "name": "creditLines",
      "outputs": [
        {
          "internalType": "address",
          "name": "user",
          "type": "address"
        },
        {
          "internalType": "address",
          "name": "collateralToken",
          "type": "address"
        },
        {
          "internalType": "uint256",
          "name": "collateralAmount",
          "type": "uint256"
        },
        {
          "internalType": "uint256",
          "name": "creditLimit",
          "type": "uint256"
        },
        {
          "internalType": "uint256",
          "name": "creditUsed",
          "type": "uint256"
        },
        {
          "internalType": "uint256",
          "name": "solvencyPositionId",
          "type": "uint256"
        },
        {
          "internalType": "uint256",
          "name": "issuedAt",
          "type": "uint256"
        },
        {
          "internalType": "uint256",
          "name": "totalPayments",
          "type": "uint256"
        },
        {
          "internalType": "uint256",
          "name": "onTimePayments",
          "type": "uint256"
        },
        {
          "internalType": "uint256",
          "name": "latePayments",
          "type": "uint256"
        },
        {
          "internalType": "uint256",
          "name": "totalAmountRepaid",
          "type": "uint256"
        },
        {
          "internalType": "bool",
          "name": "liquidated",
          "type": "bool"
        },
        {
          "internalType": "uint256",
          "name": "liquidatedAt",
          "type": "uint256"
        },
        {
          "internalType": "bool",
          "name": "active",
          "type": "bool"
        }
      ],
      "stateMutability": "view",
      "type": "function"
    },
    {
      "inputs": [
        {
          "internalType": "uint256",
          "name": "creditLineId",
          "type": "uint256"
        }
      ],
      "name": "getAvailableCredit",
      "outputs": [
        {
          "internalType": "uint256",
          "name": "",
          "type": "uint256"
        }
      ],
      "stateMutability": "view",
      "type": "function"
    },
    {
      "inputs": [
        {
          "internalType": "uint256",
          "name": "creditLineId",
          "type": "uint256"
        }
      ],
      "name": "getCreditLine",
      "outputs": [
        {
          "components": [
            {
              "internalType": "address",
              "name": "user",
              "type": "address"
            },
            {
              "internalType": "address",
              "name": "collateralToken",
              "type": "address"
            },
            {
              "internalType": "uint256",
              "name": "collateralAmount",
              "type": "uint256"
            },
            {
              "internalType": "uint256",
              "name": "creditLimit",
              "type": "uint256"
            },
            {
              "internalType": "uint256",
              "name": "creditUsed",
              "type": "uint256"
            },
            {
              "internalType": "uint256",
              "name": "solvencyPositionId",
              "type": "uint256"
            },
            {
              "internalType": "uint256",
              "name": "issuedAt",
              "type": "uint256"
            },
            {
              "internalType": "uint256",
              "name": "totalPayments",
              "type": "uint256"
            },
            {
              "internalType": "uint256",
              "name": "onTimePayments",
              "type": "uint256"
            },
            {
              "internalType": "uint256",
              "name": "latePayments",
              "type": "uint256"
            },
            {
              "internalType": "uint256",
              "name": "totalAmountRepaid",
              "type": "uint256"
            },
            {
              "internalType": "bool",
              "name": "liquidated",
              "type": "bool"
            },
            {
              "internalType": "uint256",
              "name": "liquidatedAt",
              "type": "uint256"
            },
            {
              "internalType": "bool",
              "name": "active",
              "type": "bool"
            }
          ],
          "internalType": "struct OAID.CreditLine",
          "name": "",
          "type": "tuple"
        }
      ],
      "stateMutability": "view",
      "type": "function"
    },
    {
      "inputs": [
        {
          "internalType": "address",
          "name": "user",
          "type": "address"
        }
      ],
      "name": "getCreditProfile",
      "outputs": [
        {
          "internalType": "uint256",
          "name": "activeCreditLines",
          "type": "uint256"
        },
        {
          "internalType": "uint256",
          "name": "totalCreditLimit",
          "type": "uint256"
        },
        {
          "internalType": "uint256",
          "name": "totalPayments",
          "type": "uint256"
        },
        {
          "internalType": "uint256",
          "name": "onTimePayments",
          "type": "uint256"
        },
        {
          "internalType": "uint256",
          "name": "latePayments",
          "type": "uint256"
        },
        {
          "internalType": "uint256",
          "name": "liquidations",
          "type": "uint256"
        },
        {
          "internalType": "uint256",
          "name": "creditScore",
          "type": "uint256"
        }
      ],
      "stateMutability": "view",
      "type": "function"
    },
    {
      "inputs": [
        {
          "internalType": "address",
          "name": "user",
          "type": "address"
        }
      ],
      "name": "getCreditScore",
      "outputs": [
        {
          "internalType": "uint256",
          "name": "",
          "type": "uint256"
        }
      ],
      "stateMutability": "view",
      "type": "function"
    },
    {
      "inputs": [
        {
          "internalType": "uint256",
          "name": "creditLineId",
          "type": "uint256"
        }
      ],
      "name": "getPaymentHistory",
      "outputs": [
        {
          "components": [
            {
              "internalType": "uint256",
              "name": "timestamp",
              "type": "uint256"
            },
            {
              "internalType": "uint256",
              "name": "amount",
              "type": "uint256"
            },
            {
              "internalType": "bool",
              "name": "onTime",
              "type": "bool"
            },
            {
              "internalType": "uint256",
              "name": "daysLate",
              "type": "uint256"
            }
          ],
          "internalType": "struct OAID.PaymentRecord[]",
          "name": "",
          "type": "tuple[]"
        }
      ],
      "stateMutability": "view",
      "type": "function"
    },
    {
      "inputs": [
        {
          "internalType": "address",
          "name": "user",
          "type": "address"
        }
      ],
      "name": "getTotalAvailableCredit",
      "outputs": [
        {
          "internalType": "uint256",
          "name": "",
          "type": "uint256"
        }
      ],
      "stateMutability": "view",
      "type": "function"
    },
    {
      "inputs": [
        {
          "internalType": "address",
          "name": "user",
          "type": "address"
        }
      ],
      "name": "getTotalCreditLimit",
      "outputs": [
        {
          "internalType": "uint256",
          "name": "",
          "type": "uint256"
        }
      ],
      "stateMutability": "view",
      "type": "function"
    },
    {
      "inputs": [
        {
          "internalType": "address",
          "name": "user",
          "type": "address"
        }
      ],
      "name": "getUserCreditLines",
      "outputs": [
        {
          "internalType": "uint256[]",
          "name": "",
          "type": "uint256[]"
        }
      ],
      "stateMutability": "view",
      "type": "function"
    },
    {
      "inputs": [
        {
          "internalType": "address",
          "name": "user",
          "type": "address"
        }
      ],
      "name": "isUserRegistered",
      "outputs": [
        {
          "internalType": "bool",
          "name": "",
          "type": "bool"
        }
      ],
      "stateMutability": "view",
      "type": "function"
    },
    {
      "inputs": [
        {
          "internalType": "address",
          "name": "user",
          "type": "address"
        },
        {
          "internalType": "address",
          "name": "collateralToken",
          "type": "address"
        },
        {
          "internalType": "uint256",
          "name": "collateralAmount",
          "type": "uint256"
        },
        {
          "internalType": "uint256",
          "name": "valueUSD",
          "type": "uint256"
        },
        {
          "internalType": "uint256",
          "name": "solvencyPositionId",
          "type": "uint256"
        }
      ],
      "name": "issueCreditLine",
      "outputs": [
        {
          "internalType": "uint256",
          "name": "creditLineId",
          "type": "uint256"
        }
      ],
      "stateMutability": "nonpayable",
      "type": "function"
    },
    {
      "inputs": [],
      "name": "nextCreditLineId",
      "outputs": [
        {
          "internalType": "uint256",
          "name": "",
          "type": "uint256"
        }
      ],
      "stateMutability": "view",
      "type": "function"
    },
    {
      "inputs": [],
      "name": "owner",
      "outputs": [
        {
          "internalType": "address",
          "name": "",
          "type": "address"
        }
      ],
      "stateMutability": "view",
      "type": "function"
    },
    {
      "inputs": [
        {
          "internalType": "uint256",
          "name": "",
          "type": "uint256"
        },
        {
          "internalType": "uint256",
          "name": "",
          "type": "uint256"
        }
      ],
      "name": "paymentHistory",
      "outputs": [
        {
          "internalType": "uint256",
          "name": "timestamp",
          "type": "uint256"
        },
        {
          "internalType": "uint256",
          "name": "amount",
          "type": "uint256"
        },
        {
          "internalType": "bool",
          "name": "onTime",
          "type": "bool"
        },
        {
          "internalType": "uint256",
          "name": "daysLate",
          "type": "uint256"
        }
      ],
      "stateMutability": "view",
      "type": "function"
    },
    {
      "inputs": [
        {
          "internalType": "uint256",
          "name": "creditLineId",
          "type": "uint256"
        },
        {
          "internalType": "uint256",
          "name": "amount",
          "type": "uint256"
        }
      ],
      "name": "recordCreditRepayment",
      "outputs": [],
      "stateMutability": "nonpayable",
      "type": "function"
    },
    {
      "inputs": [
        {
          "internalType": "uint256",
          "name": "creditLineId",
          "type": "uint256"
        },
        {
          "internalType": "uint256",
          "name": "amount",
          "type": "uint256"
        }
      ],
      "name": "recordCreditUsage",
      "outputs": [],
      "stateMutability": "nonpayable",
      "type": "function"
    },
    {
      "inputs": [
        {
          "internalType": "uint256",
          "name": "creditLineId",
          "type": "uint256"
        },
        {
          "internalType": "uint256",
          "name": "amount",
          "type": "uint256"
        },
        {
          "internalType": "bool",
          "name": "onTime",
          "type": "bool"
        },
        {
          "internalType": "uint256",
          "name": "daysLate",
          "type": "uint256"
        }
      ],
      "name": "recordPayment",
      "outputs": [],
      "stateMutability": "nonpayable",
      "type": "function"
    },
    {
      "inputs": [
        {
          "internalType": "address",
          "name": "user",
          "type": "address"
        }
      ],
      "name": "registerUser",
      "outputs": [],
      "stateMutability": "nonpayable",
      "type": "function"
    },
    {
      "inputs": [
        {
          "internalType": "address",
          "name": "",
          "type": "address"
        }
      ],
      "name": "registeredUsers",
      "outputs": [
        {
          "internalType": "bool",
          "name": "",
          "type": "bool"
        }
      ],
      "stateMutability": "view",
      "type": "function"
    },
    {
      "inputs": [],
      "name": "renounceOwnership",
      "outputs": [],
      "stateMutability": "nonpayable",
      "type": "function"
    },
    {
      "inputs": [
        {
          "internalType": "uint256",
          "name": "creditLineId",
          "type": "uint256"
        },
        {
          "internalType": "string",
          "name": "reason",
          "type": "string"
        }
      ],
      "name": "revokeCreditLine",
      "outputs": [],
      "stateMutability": "nonpayable",
      "type": "function"
    },
    {
      "inputs": [
        {
          "internalType": "address",
          "name": "_solvencyVault",
          "type": "address"
        }
      ],
      "name": "setSolvencyVault",
      "outputs": [],
      "stateMutability": "nonpayable",
      "type": "function"
    },
    {
      "inputs": [],
      "name": "solvencyVault",
      "outputs": [
        {
          "internalType": "address",
          "name": "",
          "type": "address"
        }
      ],
      "stateMutability": "view",
      "type": "function"
    },
    {
      "inputs": [
        {
          "internalType": "address",
          "name": "newOwner",
          "type": "address"
        }
      ],
      "name": "transferOwnership",
      "outputs": [],
      "stateMutability": "nonpayable",
      "type": "function"
    },
    {
      "inputs": [
        {
          "internalType": "uint256",
          "name": "creditLineId",
          "type": "uint256"
        },
        {
          "internalType": "uint256",
          "name": "newValueUSD",
          "type": "uint256"
        }
      ],
      "name": "updateCreditLine",
      "outputs": [],
      "stateMutability": "nonpayable",
      "type": "function"
    },
    {
      "inputs": [
        {
          "internalType": "address",
          "name": "",
          "type": "address"
        },
        {
          "internalType": "uint256",
          "name": "",
          "type": "uint256"
        }
      ],
      "name": "userCreditLines",
      "outputs": [
        {
          "internalType": "uint256",
          "name": "",
          "type": "uint256"
        }
      ],
      "stateMutability": "view",
      "type": "function"
    },
    {
      "inputs": [
        {
          "internalType": "address",
          "name": "",
          "type": "address"
        }
      ],
      "name": "userRegistrationTime",
      "outputs": [
        {
          "internalType": "uint256",
          "name": "",
          "type": "uint256"
        }
      ],
      "stateMutability": "view",
      "type": "function"
    }
  ],
  "bytecode": "0x6080806040523461008357331561006d5760008054336001600160a01b03198216811783556040519290916001600160a01b0316907f8be0079c531659141344cd1fd0a4f28419497f9722a3daafe3b4186f6b6457e09080a3600180556001600655611ff190816100898239f35b631e4fbdf760e01b815260006004820152602490fd5b600080fdfe6080604052600436101561001257600080fd5b60003560e01c8063079bafe3146116d35780630e50cee514611694578063163f7522146116945780632077997b146115cb57806320bb463e146114555780632199d5cd1461134157806336e433ba1461126d57806344452ba1146112445780634e02503a1461114457806365a1782f1461106e57806367cc7cff14610e5b5780636ad75e1f14610d89578063715018a614610d305780637bca9fcc14610cd85780638da5cb5b14610caf5780638f19cfa914610c91578063ad6e4f3a14610bdd578063b27062db14610b7b578063cbcddf1314610b5d578063d3dd2bdf14610b32578063d5cdd4c6146109aa578063e32195d61461065e578063ea3854d81461059d578063edad8550146103c5578063f030af221461038b578063f2f6818f146101d85763f2fde38b1461014557600080fd5b346101d35760203660031901126101d35761015e611966565b610166611a37565b6001600160a01b039081169081156101ba57600054826bffffffffffffffffffffffff60a01b821617600055167f8be0079c531659141344cd1fd0a4f28419497f9722a3daafe3b4186f6b6457e0600080a3005b604051631e4fbdf760e01b815260006004820152602490fd5b600080fd5b346101d35760803660031901126101d35760043560243590604435801515928382036101d3576002546001600160a01b0391906064359061021c9084163314611a63565b610224611b25565b84600052600560205260406000209361024360ff600d87015416611b48565b61024e831515611aa4565b6007850161025c8154611b8d565b9055600a850161026d848254611ba9565b90551561037657600884016102828154611b8d565b90555b846000526007602052604060002092604051946102a1866119af565b4286526020860194848652604087019589875260608801918583528054600160401b811015610360576102d991600182018155611a1b565b92909261034a5761032c6060986003937fe6ede282c3816020c6237ddeb8149ba1abbd6d10ebfd300af07f526a09b55b859b518655516001860155511515600285019060ff801983541691151516179055565b5191015554169560405192835260208301526040820152a360018055005b634e487b7160e01b600052600060045260246000fd5b634e487b7160e01b600052604160045260246000fd5b600984016103848154611b8d565b9055610285565b346101d35760203660031901126101d3576001600160a01b036103ac611966565b1660005260046020526020604060002054604051908152f35b346101d35760203660031901126101d35760006101a06040516103e781611992565b8281528260208201528260408201528260608201528260808201528260a08201528260c08201528260e08201528261010082015282610120820152826101408201528261016082015282610180820152015260043560005260056020526101c060406000206101a060405161045b81611992565b60ff600d60018060a01b038554169485845260018060a01b036001820154166020850152600281015460408501526003810154606085015260048101546080850152600581015460a0850152600681015460c0850152600781015460e085015260088101546101008501526009810154610120850152600a81015461014085015282600b820154161515610160850152600c81015461018085015201541615158282015260405192835260018060a01b03602082015116602084015260408101516040840152606081015160608401526080810151608084015260a081015160a084015260c081015160c084015260e081015160e08401526101008101516101008401526101208101516101208401526101408101516101408401526101608101511515610160840152610180810151610180840152015115156101a0820152f35b346101d3576105ab3661197c565b6105c060018060a01b03600254163314611a63565b6105c8611b25565b8160005260056020526040600020906105e760ff600d84015416611b48565b60038115926105f68415611ae5565b0191825490611b58808402938404141715610648577f720881e7a116a115d83475e857dd1e6d1129a6aff9007477505eb63f301bde6f926127106040930480915582519182526020820152a260018055005b634e487b7160e01b600052601160045260246000fd5b346101d35760a03660031901126101d357610677611966565b6024356001600160a01b03811681036101d357606435906106a360018060a01b03600254163314611a63565b6106ab611b25565b6001600160a01b03831660009081526003602052604090205460ff161561096f576001600160a01b0381161561093a576106e86044351515611aa4565b81156106f48115611ae5565b611b58808402938404141715610648576006549161071183611b8d565b60065561088860405161072381611992565b60018060a01b038616815260018060a01b03841660208201526044356040820152612710830460608201526000608082015260843560a08201524260c0820152600060e08201526000610100820152600061012082015260006101408201526000610160820152600061018082015260016101a0820152846000526005602052600d6101a060406000209260018060a01b038151166bffffffffffffffffffffffff60a01b9081865416178555600185019060018060a01b036020840151169082541617905560408101516002850155606081015160038501556080810151600485015560a0810151600585015560c0810151600685015560e0810151600785015561010081015160088501556101208101516009850155610140810151600a8501556108666101608201511515600b86019060ff801983541691151516179055565b610180810151600c8501550151151591019060ff801983541691151516179055565b6001600160a01b038416600090815260086020526040902080549190600160401b831015610360576020956127107fd0b5542c8f25b14fdbbe9bbbc395dd5fd5c2ff36f08e69f6e6d80ffb93462feb936108eb8660809560018b990181556119ed565b815460001960039290921b91821b19169088901b179055604080516001600160a01b0398891681526044358b82015292909104908201526084356060820152941693a360018055604051908152f35b60405162461bcd60e51b815260206004820152600d60248201526c24b73b30b634b2103a37b5b2b760991b6044820152606490fd5b60405162461bcd60e51b8152602060048201526013602482015272155cd95c881b9bdd081c9959da5cdd195c9959606a1b6044820152606490fd5b346101d3576020806003193601126101d3576109c4611966565b9060009060018060a01b03809316600052600891828252604060002092604051808585829754938481520190600052856000209260005b87828210610b1c57505050610a12925003856119cb565b60005b8451811015610b1257610a288186611c8b565b51600052600580855260406000206101a0604051610a4581611992565b89835416815289600184015416888201526002830154604082015260038301549283606083015260048101549485608084015281015460a0830152600681015460c0830152600781015460e0830152868101546101008301526009810154610120830152600a810154610140830152600d60ff9182600b820154161515610160850152600c81015461018085015201541615159182910152610af2575b5050610aed90611b8d565b610a15565b93610b04610b0a92610aed9496611b9c565b90611ba9565b929087610ae2565b5050604051908152f35b855484526001958601958a9550930192016109fb565b346101d35760203660031901126101d3576020610b55610b50611966565b611c9f565b604051908152f35b346101d35760203660031901126101d3576020610b55600435611bb6565b346101d357610b893661197c565b906000526007602052604060002080548210156101d357608091610bac91611a1b565b50805490600181015490600360ff600283015416910154916040519384526020840152151560408301526060820152f35b346101d3576020806003193601126101d3576001600160a01b03610bff611966565b1660005260088152604060002060405190818382549182815201908192600052846000209060005b86828210610c7d578686610c3d828803836119cb565b604051928392818401908285525180915260408401929160005b828110610c6657505050500390f35b835185528695509381019392810192600101610c57565b835485529093019260019283019201610c27565b346101d35760003660031901126101d3576020600654604051908152f35b346101d35760003660031901126101d3576000546040516001600160a01b039091168152602090f35b346101d35760403660031901126101d357610cf1611966565b6001600160a01b03166000908152600860205260409020805460243591908210156101d357602091610d22916119ed565b90546040519160031b1c8152f35b346101d35760003660031901126101d357610d49611a37565b600080546001600160a01b0319811682556001600160a01b03167f8be0079c531659141344cd1fd0a4f28419497f9722a3daafe3b4186f6b6457e08280a3005b346101d357610d973661197c565b610d9f611a37565b610da7611b25565b81600052600560205260046040600020610dc760ff600d83015416611b48565b610dd2831515611aa4565b0190815490818111610e20577f1af839ce655eb23ec05b8977b91598e475661a48d34a7f4b4c499ddcaeac551c92610e0c82604094611b9c565b80915582519182526020820152a260018055005b60405162461bcd60e51b8152602060048201526013602482015272105b5bdd5b9d08195e18d959591cc81919589d606a1b6044820152606490fd5b346101d35760403660031901126101d35767ffffffffffffffff600435602480358381116101d357366023820112156101d3578060040135918483116110245760405194602093601f1993610eb7601f830186168701896119cb565b818852368483830101116101d3578160009285889301838b0137880101526002546001600160a01b039290610eef9084163314611a63565b610ef7611b25565b8560005260058552604060002091600d83019182549260ff8416156110385760ff199384169055885115159182610fe7575b5050610fa0575b50505060405191808352845190818185015260005b828110610f8c57857f1c15f1e13a77fb81a0da9e59f48e2101623c7c71d6a01ab217f2a45acd5de8108660408188601f89600085828601015201168101030190a260018055005b868101820151858201604001528101610f45565b6001600b83019182541617905542600c8201555416837f26dc706c10b1f8a4bf68a2f50b9a025921938e72ee2ab65f50815438fba4a88d84604051428152a3848080610f30565b60408051935083019190821183831017611024575060405260088152671b1a5c5d5a59185d60c21b8682015261101d9088611f12565b8880610f29565b634e487b7160e01b60009081526041600452fd5b60405162461bcd60e51b815260048101899052600f818401526e105b1c9958591e481c995d9bdad959608a1b6044820152606490fd5b346101d35761107c3661197c565b611084611a37565b61108c611b25565b81600052600560205260406000206110aa60ff600d83015416611b48565b6110b5821515611aa4565b600460038201549101916110cb83548093611b9c565b81116110ff577f5496d924a06323b0525576522992e3fc0c11a350cd485f9053de0e7ba84aee3592610e0c82604094611ba9565b60405162461bcd60e51b815260206004820152601860248201527f4578636565647320617661696c61626c652063726564697400000000000000006044820152606490fd5b346101d3576020806003193601126101d35760043560005260078152604060002090815467ffffffffffffffff8111610360576040519061118a838260051b01836119cb565b8082528282018094600052836000206000915b8383106111ff5760408051878152865181890181905289928201908960005b8281106111c95784840385f35b855180518552808301518584015260408082015115159086015260609081015190850152948101946080909301926001016111bc565b600486600192604051611211816119af565b85548152848601548382015260ff600287015416151560408201526003860154606082015281520192019201919061119d565b346101d35760003660031901126101d3576002546040516001600160a01b039091168152602090f35b346101d35760203660031901126101d35760043560005260056020526101c0604060002060018060a01b039081815416916001820154169060028101546003820154600483015460058401546006850154600786015490600887015492600988015494600a8901549660ff600b8b0154169860ff600d600c8d01549c0154169b60206040519e8f908152015260408d015260608c015260808b015260a08a015260c089015260e0880152610100870152610120860152610140850152151561016084015261018083015215156101a0820152f35b346101d3576020806003193601126101d35761135b611966565b611363611a37565b6001600160a01b031690811561141a57816000526003815260ff604060002054166113d6577fe29d35093005f4d575e1003753426b57a7f64378ba73332eef9c6ccc2b8decd69082600052600381526040600020600160ff198254161790556004815242604060002055604051428152a2005b6064906040519062461bcd60e51b82526004820152601760248201527f5573657220616c726561647920726567697374657265640000000000000000006044820152fd5b6064906040519062461bcd60e51b825260048201526014602482015273496e76616c69642075736572206164647265737360601b6044820152fd5b346101d3576020806003193601126101d35761146f611966565b6001600160a01b0390811660009081526008808452604080832090518154808252918452858420909491859081880190865b898282106115b5575050506114b8925003856119cb565b60005b84518110156115ab576114ce8186611c8b565b5160005260058087526101a06040600020604051906114ec82611992565b858154168252856001820154168a830152600281015460408301526003810154938460608401526004820154608084015281015460a0830152600681015460c0830152600781015460e0830152868101546101008301526009810154610120830152600a810154610140830152600d60ff9182600b820154161515610160850152600c81015461018085015201541615159182910152611596575b5061159190611b8d565b6114bb565b6115a4906115919295611ba9565b9390611587565b8584604051908152f35b855484526001958601958a9550930192016114a1565b346101d35760203660031901126101d3576115e4611966565b6115ec611a37565b600254906001600160a01b039081831661164f5716908115611618576001600160a01b03191617600255005b60405162461bcd60e51b815260206004820152600f60248201526e496e76616c6964206164647265737360881b6044820152606490fd5b60405162461bcd60e51b815260206004820152601960248201527f536f6c76656e63795661756c7420616c726561647920736574000000000000006044820152606490fd5b346101d35760203660031901126101d3576001600160a01b036116b5611966565b166000526003602052602060ff604060002054166040519015158152f35b346101d35760203660031901126101d3576116ec611966565b6000906000806000916000809360018060a01b0386166000526008602052604060002080548060805260206080019160005260206000209060005b81811061195057505050611740906080900360806119cb565b60005b6080518110156118ac57611758816080611c8b565b516000526005938460205260ff600d60406000206040519761177989611992565b81546001600160a01b039081168a5260018301541660208a0152600282015460408a0152600382015460608a0152600482015460808a015281015460a0890152600681015460c0890152600781015460e089015260088101546101008901526009810154610120890152600a810154610140890152600b81015483161515610160890152600c81015461018089015201541615156101a0860181905261187b575b61184c61183f6118326101609360e089015190611ba9565b9461010088015190611ba9565b9461012087015190611ba9565b940151611866575b61185d90611b8d565b92919092611743565b9461187361185d91611b8d565b959050611854565b949761184c61183f6118326118a161189561016095611b8d565b9c60608a015190611ba9565b98935050505061181a565b5060405163d3dd2bdf60e01b81526001600160a01b039096166004870152869492602087602481305afa9485156119445760009561190f575b60e09750604051968752602087015260408601526060850152608084015260a083015260c0820152f35b94506020873d60201161193c575b8161192a602093836119cb565b810103126101d35760e09651946118e5565b3d915061191d565b6040513d6000823e3d90fd5b8254845260209093019260019283019201611727565b600435906001600160a01b03821682036101d357565b60409060031901126101d3576004359060243590565b6101c0810190811067ffffffffffffffff82111761036057604052565b6080810190811067ffffffffffffffff82111761036057604052565b90601f8019910116810190811067ffffffffffffffff82111761036057604052565b8054821015611a055760005260206000200190600090565b634e487b7160e01b600052603260045260246000fd5b8054821015611a055760005260206000209060021b0190600090565b6000546001600160a01b03163303611a4b57565b60405163118cdaa760e01b8152336004820152602490fd5b15611a6a57565b60405162461bcd60e51b815260206004820152601260248201527113db9b1e4814dbdb1d995b98de55985d5b1d60721b6044820152606490fd5b15611aab57565b60405162461bcd60e51b81526020600482015260126024820152710416d6f756e74206d757374206265203e20360741b6044820152606490fd5b15611aec57565b60405162461bcd60e51b8152602060048201526011602482015270056616c7565206d757374206265203e203607c1b6044820152606490fd5b600260015414611b36576002600155565b604051633ee5aeb560e01b8152600490fd5b15611b4f57565b60405162461bcd60e51b8152602060048201526016602482015275437265646974206c696e65206e6f742061637469766560501b6044820152606490fd5b60001981146106485760010190565b9190820391821161064857565b9190820180921161064857565b6000526005602052604060002060405190611bd082611992565b60018060a01b0380825416835260018201541660208301526002810154604083015260038101549182606082015260ff600d600484015493846080850152600581015460a0850152600681015460c0850152600781015460e085015260088101546101008501526009810154610120850152600a81015461014085015282600b820154161515610160850152600c81015461018085015201541615906101a08215910152611c8457611c8191611b9c565b90565b5050600090565b8051821015611a055760209160051b010190565b9060018060a01b0391826000911681526008602093818552604091828420938351808689829854938481520190845289842092845b8b828210611eeb57505050611ceb925003866119cb565b845115611ee357928380918196825b8151811015611e0457611d0d8183611c8b565b518452600594858c5283852098845196611d2688611992565b898b541688528d8a60018d0154169089015260028b01548689015260038b0154606089015260048b015460808901528a015460a088015260068a015460c088015260078a01548060e0890152888b015497610100810198895260098c0154610120820152600a8c01546101408201528b60ff600b81920154169c6101608301809e15159052600c810154610180840152600d0154161515906101a00152611dcc91611ba9565b9551611dd791611ba9565b9751611def575b611de790611b8d565b969396611cfa565b97611dfc611de791611b8d565b989050611dde565b505050959650929150508015611ed957610320918281029281159082850414811715611ec55760c885029480860460c81490151715611ec557610190808611611ebd575b50600a821115611e8f57505090611e639160c8915b04611ba9565b81811115611e8857611e759250611b9c565b6103e8808211611e83575090565b905090565b5050611e75565b601482029182046014141715611ea95790611e6392611e5d565b634e487b7160e01b85526011600452602485fd5b945038611e48565b634e487b7160e01b86526011600452602486fd5b505050506101f490565b955050505050565b855484526001958601958b955093019201611cd4565b908151811015611a05570160200190565b90805182518111611fb35715611c84576000905b611f338351825190611b9c565b8211611fb35760019260005b8251811015611fa9576001600160f81b031980611f65611f5f8488611ba9565b85611f01565b511690611f728386611f01565b511603611f8757611f8290611b8d565b611f3f565b5092509060005b611fa157611f9b90611b8d565b90611f26565b505050600190565b5092919091611f8e565b50505060009056fea2646970667358221220a57110aab5d6a8cb2438a94a7ac9c5fad60e74f4e747b4770173d38818be1f8164736f6c63430008140033",
  "linkReferences": {},
  "deployedLinkReferences": {}
}