{
  "_format": "hh-sol-artifact-1",
  "contractName": "SecondaryMarket",
  "sourceName": "contracts/marketplace/SecondaryMarket.sol",
  "abi": [
    {
      "inputs": [
        {
          "internalType": "address",
          "name": "_usdc",
          "type": "address"
        },
        {
          "internalType": "address",
          "name": "_identityRegistry",
          "type": "address"
        }
      ],
      "stateMutability": "nonpayable",
      "type": "constructor"
    },
    {
      "inputs": [
        {
          "internalType": "address",
          "name": "owner",
          "type": "address"
        }
      ],
      "name": "OwnableInvalidOwner",
      "type": "error"
    },
    {
      "inputs": [
        {
          "internalType": "address",
          "name": "account",
          "type": "address"
        }
      ],
      "name": "OwnableUnauthorizedAccount",
      "type": "error"
    },
    {
      "inputs": [],
      "name": "ReentrancyGuardReentrantCall",
      "type": "error"
    },
    {
      "inputs": [
        {
          "internalType": "address",
          "name": "token",
          "type": "address"
        }
      ],
      "name": "SafeERC20FailedOperation",
      "type": "error"
    },
    {
      "anonymous": false,
      "inputs": [
        {
          "indexed": true,
          "internalType": "uint256",
          "name": "orderId",
          "type": "uint256"
        },
        {
          "indexed": true,
          "internalType": "address",
          "name": "maker",
          "type": "address"
        },
        {
          "indexed": false,
          "internalType": "uint256",
          "name": "timestamp",
          "type": "uint256"
        }
      ],
      "name": "OrderCancelled",
      "type": "event"
    },
    {
      "anonymous": false,
      "inputs": [
        {
          "indexed": true,
          "internalType": "uint256",
          "name": "orderId",
          "type": "uint256"
        },
        {
          "indexed": true,
          "internalType": "address",
          "name": "maker",
          "type": "address"
        },
        {
          "indexed": true,
          "internalType": "address",
          "name": "tokenAddress",
          "type": "address"
        },
        {
          "indexed": false,
          "internalType": "uint256",
          "name": "amount",
          "type": "uint256"
        },
        {
          "indexed": false,
          "internalType": "uint256",
          "name": "pricePerToken",
          "type": "uint256"
        },
        {
          "indexed": false,
          "internalType": "bool",
          "name": "isBuy",
          "type": "bool"
        },
        {
          "indexed": false,
          "internalType": "uint256",
          "name": "timestamp",
          "type": "uint256"
        }
      ],
      "name": "OrderCreated",
      "type": "event"
    },
    {
      "anonymous": false,
      "inputs": [
        {
          "indexed": true,
          "internalType": "uint256",
          "name": "orderId",
          "type": "uint256"
        },
        {
          "indexed": true,
          "internalType": "address",
          "name": "taker",
          "type": "address"
        },
        {
          "indexed": true,
          "internalType": "address",
          "name": "maker",
          "type": "address"
        },
        {
          "indexed": false,
          "internalType": "address",
          "name": "tokenAddress",
          "type": "address"
        },
        {
          "indexed": false,
          "internalType": "uint256",
          "name": "amountFilled",
          "type": "uint256"
        },
        {
          "indexed": false,
          "internalType": "uint256",
          "name": "totalCost",
          "type": "uint256"
        },
        {
          "indexed": false,
          "internalType": "uint256",
          "name": "remainingAmount",
          "type": "uint256"
        },
        {
          "indexed": false,
          "internalType": "uint256",
          "name": "timestamp",
          "type": "uint256"
        }
      ],
      "name": "OrderFilled",
      "type": "event"
    },
    {
      "anonymous": false,
      "inputs": [
        {
          "indexed": true,
          "internalType": "uint256",
          "name": "orderId",
          "type": "uint256"
        },
        {
          "indexed": true,
          "internalType": "address",
          "name": "maker",
          "type": "address"
        },
        {
          "indexed": false,
          "internalType": "uint256",
          "name": "settledAmount",
          "type": "uint256"
        },
        {
          "indexed": false,
          "internalType": "bool",
          "name": "isYieldClaim",
          "type": "bool"
        }
      ],
      "name": "OrderSettledForYield",
      "type": "event"
    },
    {
      "anonymous": false,
      "inputs": [
        {
          "indexed": true,
          "internalType": "address",
          "name": "previousOwner",
          "type": "address"
        },
        {
          "indexed": true,
          "internalType": "address",
          "name": "newOwner",
          "type": "address"
        }
      ],
      "name": "OwnershipTransferred",
      "type": "event"
    },
    {
      "inputs": [
        {
          "internalType": "uint256",
          "name": "orderId",
          "type": "uint256"
        }
      ],
      "name": "cancelOrder",
      "outputs": [],
      "stateMutability": "nonpayable",
      "type": "function"
    },
    {
      "inputs": [
        {
          "internalType": "address",
          "name": "tokenAddress",
          "type": "address"
        },
        {
          "internalType": "uint256",
          "name": "amount",
          "type": "uint256"
        },
        {
          "internalType": "uint256",
          "name": "pricePerToken",
          "type": "uint256"
        },
        {
          "internalType": "bool",
          "name": "isBuy",
          "type": "bool"
        }
      ],
      "name": "createOrder",
      "outputs": [],
      "stateMutability": "nonpayable",
      "type": "function"
    },
    {
      "inputs": [
        {
          "internalType": "uint256",
          "name": "orderId",
          "type": "uint256"
        },
        {
          "internalType": "uint256",
          "name": "amountToFill",
          "type": "uint256"
        }
      ],
      "name": "fillOrder",
      "outputs": [],
      "stateMutability": "nonpayable",
      "type": "function"
    },
    {
      "inputs": [],
      "name": "identityRegistry",
      "outputs": [
        {
          "internalType": "contract IdentityRegistry",
          "name": "",
          "type": "address"
        }
      ],
      "stateMutability": "view",
      "type": "function"
    },
    {
      "inputs": [],
      "name": "nextOrderId",
      "outputs": [
        {
          "internalType": "uint256",
          "name": "",
          "type": "uint256"
        }
      ],
      "stateMutability": "view",
      "type": "function"
    },
    {
      "inputs": [
        {
          "internalType": "uint256",
          "name": "",
          "type": "uint256"
        }
      ],
      "name": "orders",
      "outputs": [
        {
          "internalType": "uint256",
          "name": "id",
          "type": "uint256"
        },
        {
          "internalType": "address",
          "name": "maker",
          "type": "address"
        },
        {
          "internalType": "address",
          "name": "tokenAddress",
          "type": "address"
        },
        {
          "internalType": "uint256",
          "name": "amount",
          "type": "uint256"
        },
        {
          "internalType": "uint256",
          "name": "pricePerToken",
          "type": "uint256"
        },
        {
          "internalType": "bool",
          "name": "isBuy",
          "type": "bool"
        },
        {
          "internalType": "bool",
          "name": "isActive",
          "type": "bool"
        }
      ],
      "stateMutability": "view",
      "type": "function"
    },
    {
      "inputs": [],
      "name": "owner",
      "outputs": [
        {
          "internalType": "address",
          "name": "",
          "type": "address"
        }
      ],
      "stateMutability": "view",
      "type": "function"
    },
    {
      "inputs": [],
      "name": "renounceOwnership",
      "outputs": [],
      "stateMutability": "nonpayable",
      "type": "function"
    },
    {
      "inputs": [
        {
          "internalType": "address",
          "name": "yieldVault",
          "type": "address"
        },
        {
          "internalType": "address",
          "name": "tokenAddress",
          "type": "address"
        },
        {
          "internalType": "uint256[]",
          "name": "orderIds",
          "type": "uint256[]"
        }
      ],
      "name": "settleYield",
      "outputs": [],
      "stateMutability": "nonpayable",
      "type": "function"
    },
    {
      "inputs": [
        {
          "internalType": "address",
          "name": "newOwner",
          "type": "address"
        }
      ],
      "name": "transferOwnership",
      "outputs": [],
      "stateMutability": "nonpayable",
      "type": "function"
    },
    {
      "inputs": [],
      "name": "usdc",
      "outputs": [
        {
          "internalType": "contract IERC20",
          "name": "",
          "type": "address"
        }
      ],
      "stateMutability": "view",
      "type": "function"
    }
  ],
  "bytecode": "0x6080346100e757601f6111d538819003918201601f19168301916001600160401b038311848410176100ec5780849260409485528339810103126100e757610052602061004b83610102565b9201610102565b600160005533156100ce5760018054336001600160a01b031980831682179093556040519492936001600160a01b0393909284929083167f8be0079c531659141344cd1fd0a4f28419497f9722a3daafe3b4186f6b6457e0600080a316836002541617600255169060035416176003556110be90816101178239f35b604051631e4fbdf760e01b815260006004820152602490fd5b600080fd5b634e487b7160e01b600052604160045260246000fd5b51906001600160a01b03821682036100e75756fe608080604052600436101561001357600080fd5b60003560e01c908163134e18f414610e49575080632a58b33014610e2b5780633e413bee14610e02578063514fcac714610cce578063715018a614610c715780638da5cb5b14610c485780639956b43614610956578063a85c38ef146108d6578063c37dfc5b146105e3578063f2fde38b146105555763f8c745f41461009857600080fd5b3461042c57606036600319011261042c576100b1610e6d565b6024356001600160a01b038116900361042c5767ffffffffffffffff6044351161042c5736602360443501121561042c5767ffffffffffffffff604435600401351161042c573660246044356004013560051b60443501011161042c57610116610e83565b61011e610fd8565b6001600160a01b0381161561051b5760005b604435600401358110610144576001600055005b60248160051b60443501013560005260056020526040600020906005820180549060ff8260081c161580156104fe575b61022d5761ff00198216905560ff161561021f5781670de0b6b3a76400006101a860036101f5950154600484015490610ee9565b0490816101fa575b7fbb8a90e3060681b6d1e7f28f788ed9c64efd291d1b5f12c59d4c80269b9bd29d60408254926001808060a01b039101541693815190815260006020820152a3610f12565b610130565b600254600182015461021a9184916001600160a01b039081169116611047565b6101b0565b600382019182549283610239575b50506101f59150610f12565b60405163095ea7b360e01b81526001600160a01b038616600482015260248101949094526020848060448101038160006024356001600160a01b03165af1938415610439576024946104cf575b506002546040516370a0823160e01b81523060048201529460209186919082906001600160a01b03165afa9384156104395760009461049a575b5054604051630c34f5ed60e11b60208201908152602480356001600160a01b0316908301526044808301939093529181526000918291610301606482610eaf565b519082885af13d15610495573d67ffffffffffffffff811161047f5760405190610335601f8201601f191660200183610eaf565b8152600060203d92013e5b15610445576002546040516370a0823160e01b81523060048201526001600160a01b0390911690602081602481855afa90811561043957600091610400575b506101f59461038d9161103a565b9081806103df575b50507fbb8a90e3060681b6d1e7f28f788ed9c64efd291d1b5f12c59d4c80269b9bd29d60408354926001948560018060a01b03910154169482519182526020820152a3388061022d565b60018401546103f9926001600160a01b0390911690611047565b3881610395565b90506020813d602011610431575b8161041b60209383610eaf565b8101031261042c57516101f561037f565b600080fd5b3d915061040e565b6040513d6000823e3d90fd5b60405162461bcd60e51b8152602060048201526012602482015271165a595b190818db185a5b4819985a5b195960721b6044820152606490fd5b634e487b7160e01b600052604160045260246000fd5b610340565b9093506020813d6020116104c7575b816104b660209383610eaf565b8101031261042c57519260006102c0565b3d91506104a9565b6104f09060203d6020116104f7575b6104e88183610eaf565b810190610ed1565b5038610286565b503d6104de565b5060028401546024356001600160a01b0390811691161415610174565b60405162461bcd60e51b8152602060048201526012602482015271125b9d985b1a5908165a595b1915985d5b1d60721b6044820152606490fd5b3461042c57602036600319011261042c5761056e610e6d565b610576610e83565b6001600160a01b039081169081156105ca57600154826bffffffffffffffffffffffff60a01b821617600155167f8be0079c531659141344cd1fd0a4f28419497f9722a3daafe3b4186f6b6457e0600080a3005b604051631e4fbdf760e01b815260006004820152602490fd5b3461042c57604036600319011261042c5760248035600435610603610fd8565b80600052602091600583526040600020936005850191825461062a60ff8260081c16610ffb565b81156108925760038701938454831161084e576001880180546001600160a01b03939192919084169033821461081257868a86600354166040519283809263b9209e3360e01b82523360048301525afa908115610439576000916107f5575b50156107bc57670de0b6b3a76400006106a660048d015488610ee9565b049687156107835750918a8686896002979560ff83981660001461075a575050866106da9301541685855416903390610f21565b6106e8873385875416611047565b6106f386895461103a565b809855871561074b575b5054169701541694604051958652850152604084015260608301524260808301527fba935f178f55b754462982324cc0b612e870dd892eb8a76f5eba6f6cdaa407a860a03393a46001600055005b805461ff00191690558a6106fd565b9150915061076d92503386885416610f21565b61077e868c85873392015416611047565b6106e8565b8a60136064926040519262461bcd60e51b845260048401528201527254726164652076616c756520746f6f206c6f7760681b6044820152fd5b60405162461bcd60e51b8152600481018b90526012818901527115185ad95c881b9bdd081d995c9a599a595960721b6044820152606490fd5b61080c91508b3d8d116104f7576104e88183610eaf565b8c610689565b60405162461bcd60e51b8152600481018b90526015818901527421b0b73737ba103334b6361037bbb71037b93232b960591b6044820152606490fd5b60405162461bcd60e51b815260048101889052601d818601527f46696c6c20616d6f756e74206578636565647320617661696c61626c650000006044820152606490fd5b60405162461bcd60e51b8152600481018790526017818501527f46696c6c20616d6f756e74206d757374206265203e20300000000000000000006044820152606490fd5b3461042c57602036600319011261042c57600435600052600560205260e0604060002060ff81549160018060a01b0390816001820154169160028201541660038201549060056004840154930154936040519687526020870152604086015260608501526080840152818116151560a084015260081c16151560c0820152f35b3461042c57608036600319011261042c5761096f610e6d565b6024803590604435606435908115159182810361042c5761098e610fd8565b8415610c0f578115610bd75760018060a01b0393846003541691604051809363b9209e3360e01b8252336004830152818460209687935afa90811561043957600091610bba575b5015610b815715610b6e57670de0b6b3a76400006109f38488610ee9565b048015610b3457610a0c90866002541630903390610f21565b60045494610a1986610f12565b6004556040519160e083019083821067ffffffffffffffff831117610b20575060405285825260058383019233845282604082019a16998a8152606082018a8152608083019188835260a08401968a885260c0850196600188528c600052868a526040600020955186558060018701925116916bffffffffffffffffffffffff60a01b9283825416179055600286019251169082541617905551600383015551600482015501915115159060ff61ff0084549251151560081b1692169061ffff19161717905560405194855284015260408301524260608301527f17d2c2ff3ef9c3d9751b4b903e7ae3534a74e8419cb85942f0ba8a3dd161062f60803393a46001600055005b634e487b7160e01b60009081526041600452fd5b60405162461bcd60e51b81526004810184905260138184015272546f74616c2076616c756520746f6f206c6f7760681b6044820152606490fd5b610b7c863033888b16610f21565b610a0c565b60405162461bcd60e51b8152600481018490526012818401527113585ad95c881b9bdd081d995c9a599a595960721b6044820152606490fd5b610bd19150843d86116104f7576104e88183610eaf565b896109d5565b60405162461bcd60e51b8152602060048201526011818601527005072696365206d757374206265203e203607c1b6044820152606490fd5b60405162461bcd60e51b815260206004820152601281860152710416d6f756e74206d757374206265203e20360741b6044820152606490fd5b3461042c57600036600319011261042c576001546040516001600160a01b039091168152602090f35b3461042c57600036600319011261042c57610c8a610e83565b600180546001600160a01b031981169091556000906001600160a01b03167f8be0079c531659141344cd1fd0a4f28419497f9722a3daafe3b4186f6b6457e08280a3005b3461042c57602036600319011261042c57600435610cea610fd8565b600081815260056020526040902060018101546001600160a01b03919082163303610dd15760ff60058201805490610d26838360081c16610ffb565b61ff0019821690551615610da557610d518160046003670de0b6b3a764000094015491015490610ee9565b0480610d8f575b50505b604051904282527fc4058ebc534b64ecb27b2d4eaa1904f98997ec18ebe6ada4117593dde89478cc60203393a36001600055005b610d9e91339060025416611047565b8180610d58565b60038101549081610db9575b505050610d5b565b610dc99260023392015416611047565b818080610db1565b60405162461bcd60e51b81526020600482015260096024820152682737ba1036b0b5b2b960b91b6044820152606490fd5b3461042c57600036600319011261042c576002546040516001600160a01b039091168152602090f35b3461042c57600036600319011261042c576020600454604051908152f35b3461042c57600036600319011261042c576003546001600160a01b03168152602090f35b600435906001600160a01b038216820361042c57565b6001546001600160a01b03163303610e9757565b60405163118cdaa760e01b8152336004820152602490fd5b90601f8019910116810190811067ffffffffffffffff82111761047f57604052565b9081602091031261042c5751801515810361042c5790565b81810292918115918404141715610efc57565b634e487b7160e01b600052601160045260246000fd5b6000198114610efc5760010190565b6040516323b872dd60e01b60208201526001600160a01b03928316602482015292909116604483015260648083019390935291815260a081019181831067ffffffffffffffff84111761047f57610f7a92604052610f7c565b565b906000602091828151910182855af115610439576000513d610fcf57506001600160a01b0381163b155b610fad5750565b604051635274afe760e01b81526001600160a01b039091166004820152602490fd5b60011415610fa6565b600260005414610fe9576002600055565b604051633ee5aeb560e01b8152600490fd5b1561100257565b60405162461bcd60e51b815260206004820152601060248201526f4f72646572206e6f742061637469766560801b6044820152606490fd5b91908203918211610efc57565b60405163a9059cbb60e01b60208201526001600160a01b03929092166024830152604480830193909352918152610f7a91611083606483610eaf565b610f7c56fea26469706673582212205e4c897adccc1a5f393d2e72dbbf07ff8ea447e63fb639a0f2d1dd7caad108a964736f6c63430008140033",
  "linkReferences": {},
  "deployedLinkReferences": {}
}