{
  "_format": "hh-sol-artifact-1",
  "contractName": "AttestationRegistry",
  "sourceName": "contracts/core/AttestationRegistry.sol",
  "abi": [
    {
      "inputs": [],
      "stateMutability": "nonpayable",
      "type": "constructor"
    },
    {
      "inputs": [],
      "name": "ECDSAInvalidSignature",
      "type": "error"
    },
    {
      "inputs": [
        {
          "internalType": "uint256",
          "name": "length",
          "type": "uint256"
        }
      ],
      "name": "ECDSAInvalidSignatureLength",
      "type": "error"
    },
    {
      "inputs": [
        {
          "internalType": "bytes32",
          "name": "s",
          "type": "bytes32"
        }
      ],
      "name": "ECDSAInvalidSignatureS",
      "type": "error"
    },
    {
      "anonymous": false,
      "inputs": [
        {
          "indexed": true,
          "internalType": "bytes32",
          "name": "assetId",
          "type": "bytes32"
        },
        {
          "indexed": false,
          "internalType": "bytes32",
          "name": "blobId",
          "type": "bytes32"
        },
        {
          "indexed": false,
          "internalType": "bytes32",
          "name": "attestationHash",
          "type": "bytes32"
        },
        {
          "indexed": false,
          "internalType": "address",
          "name": "attestor",
          "type": "address"
        }
      ],
      "name": "AssetRegistered",
      "type": "event"
    },
    {
      "anonymous": false,
      "inputs": [
        {
          "indexed": true,
          "internalType": "bytes32",
          "name": "assetId",
          "type": "bytes32"
        },
        {
          "indexed": false,
          "internalType": "string",
          "name": "reason",
          "type": "string"
        },
        {
          "indexed": false,
          "internalType": "uint256",
          "name": "timestamp",
          "type": "uint256"
        }
      ],
      "name": "AssetRevoked",
      "type": "event"
    },
    {
      "inputs": [
        {
          "internalType": "address",
          "name": "attestor",
          "type": "address"
        }
      ],
      "name": "addTrustedAttestor",
      "outputs": [],
      "stateMutability": "nonpayable",
      "type": "function"
    },
    {
      "inputs": [
        {
          "internalType": "bytes32",
          "name": "",
          "type": "bytes32"
        }
      ],
      "name": "assets",
      "outputs": [
        {
          "internalType": "bytes32",
          "name": "assetId",
          "type": "bytes32"
        },
        {
          "internalType": "bytes32",
          "name": "attestationHash",
          "type": "bytes32"
        },
        {
          "internalType": "bytes32",
          "name": "blobId",
          "type": "bytes32"
        },
        {
          "internalType": "address",
          "name": "attestor",
          "type": "address"
        },
        {
          "internalType": "uint48",
          "name": "timestamp",
          "type": "uint48"
        },
        {
          "internalType": "bool",
          "name": "revoked",
          "type": "bool"
        }
      ],
      "stateMutability": "view",
      "type": "function"
    },
    {
      "inputs": [
        {
          "internalType": "bytes32",
          "name": "assetId",
          "type": "bytes32"
        }
      ],
      "name": "isAssetValid",
      "outputs": [
        {
          "internalType": "bool",
          "name": "",
          "type": "bool"
        }
      ],
      "stateMutability": "view",
      "type": "function"
    },
    {
      "inputs": [],
      "name": "owner",
      "outputs": [
        {
          "internalType": "address",
          "name": "",
          "type": "address"
        }
      ],
      "stateMutability": "view",
      "type": "function"
    },
    {
      "inputs": [
        {
          "internalType": "bytes32",
          "name": "assetId",
          "type": "bytes32"
        },
        {
          "internalType": "bytes32",
          "name": "attestationHash",
          "type": "bytes32"
        },
        {
          "internalType": "bytes32",
          "name": "blobId",
          "type": "bytes32"
        },
        {
          "internalType": "bytes",
          "name": "payload",
          "type": "bytes"
        },
        {
          "internalType": "bytes",
          "name": "signature",
          "type": "bytes"
        }
      ],
      "name": "registerAsset",
      "outputs": [],
      "stateMutability": "nonpayable",
      "type": "function"
    },
    {
      "inputs": [
        {
          "internalType": "bytes32",
          "name": "assetId",
          "type": "bytes32"
        },
        {
          "internalType": "string",
          "name": "reason",
          "type": "string"
        }
      ],
      "name": "revokeAsset",
      "outputs": [],
      "stateMutability": "nonpayable",
      "type": "function"
    },
    {
      "inputs": [
        {
          "internalType": "address",
          "name": "",
          "type": "address"
        }
      ],
      "name": "trustedAttestors",
      "outputs": [
        {
          "internalType": "bool",
          "name": "",
          "type": "bool"
        }
      ],
      "stateMutability": "view",
      "type": "function"
    }
  ],
  "bytecode": "0x608060405234801561001057600080fd5b50600280546001600160a01b031916339081179091556000908152600160208190526040909120805460ff19169091179055610a93806100516000396000f3fe608060405234801561001057600080fd5b506004361061007d5760003560e01c80638da5cb5b1161005b5780638da5cb5b146100d25780639fda5b66146100fd578063e430970d14610197578063f97d6341146101aa57600080fd5b80630642d8ef14610082578063339f16a91461009757806370b5027c146100bf575b600080fd5b6100956100903660046108dc565b6101cd565b005b6100aa6100a5366004610928565b6102dd565b60405190151581526020015b60405180910390f35b6100956100cd366004610941565b61032b565b6002546100e5906001600160a01b031681565b6040516001600160a01b0390911681526020016100b6565b61015761010b366004610928565b6000602081905290815260409020805460018201546002830154600390930154919290916001600160a01b03811690600160a01b810465ffffffffffff1690600160d01b900460ff1686565b604080519687526020870195909552938501929092526001600160a01b0316606084015265ffffffffffff166080830152151560a082015260c0016100b6565b6100956101a53660046109ce565b610622565b6100aa6101b83660046109ce565b60016020526000908152604090205460ff1681565b6002546001600160a01b031633146102195760405162461bcd60e51b815260206004820152600a60248201526927b7363c9037bbb732b960b11b60448201526064015b60405180910390fd5b600083815260208190526040902060030154600160a01b900465ffffffffffff166102785760405162461bcd60e51b815260206004820152600f60248201526e105cdcd95d081b9bdd08199bdd5b99608a1b6044820152606401610210565b60008381526020819052604090819020600301805460ff60d01b1916600160d01b1790555183907faf11ffb9ac163de9a3b4c399498aa17972eab8f4575e1929ee9292b0bef9e4fa906102d0908590859042906109fe565b60405180910390a2505050565b600081815260208190526040812060030154600160a01b900465ffffffffffff16158015906103255750600082815260208190526040902060030154600160d01b900460ff16155b92915050565b600087815260208190526040902060030154600160a01b900465ffffffffffff16156103995760405162461bcd60e51b815260206004820152601860248201527f417373657420616c7265616479207265676973746572656400000000000000006044820152606401610210565b8584846040516103aa929190610a37565b6040518091039020146103f75760405162461bcd60e51b81526020600482015260156024820152740a0c2f2d8dec2c840d0c2e6d040dad2e6dac2e8c6d605b1b6044820152606401610210565b7f19457468657265756d205369676e6564204d6573736167653a0a3332000000006000908152601c879052603c81209050600061046a8285858080601f01602080910402602001604051908101604052809392919081815260200183838082843760009201919091525061069092505050565b6001600160a01b03811660009081526001602052604090205490915060ff166104d55760405162461bcd60e51b815260206004820152601a60248201527f496e76616c6964206174746573746f72207369676e61747572650000000000006044820152606401610210565b6040518060c001604052808a8152602001898152602001888152602001826001600160a01b031681526020014265ffffffffffff168152602001600015158152506000808b815260200190815260200160002060008201518160000155602082015181600101556040820151816002015560608201518160030160006101000a8154816001600160a01b0302191690836001600160a01b0316021790555060808201518160030160146101000a81548165ffffffffffff021916908365ffffffffffff16021790555060a082015181600301601a6101000a81548160ff021916908315150217905550905050887ff78715d23ff41830ba0f7b6ddff9cf99f364dcf79c01595a10aff1816dac6454888a8460405161060f9392919092835260208301919091526001600160a01b0316604082015260600190565b60405180910390a2505050505050505050565b6002546001600160a01b031633146106695760405162461bcd60e51b815260206004820152600a60248201526927b7363c9037bbb732b960b11b6044820152606401610210565b6001600160a01b03166000908152600160208190526040909120805460ff19169091179055565b6000806000806106a086866106ba565b9250925092506106b08282610707565b5090949350505050565b600080600083516041036106f45760208401516040850151606086015160001a6106e6888285856107c4565b955095509550505050610700565b50508151600091506002905b9250925092565b600082600381111561071b5761071b610a47565b03610724575050565b600182600381111561073857610738610a47565b036107565760405163f645eedf60e01b815260040160405180910390fd5b600282600381111561076a5761076a610a47565b0361078b5760405163fce698f760e01b815260048101829052602401610210565b600382600381111561079f5761079f610a47565b036107c0576040516335e2f38360e21b815260048101829052602401610210565b5050565b600080807f7fffffffffffffffffffffffffffffff5d576e7357a4501ddfe92f46681b20a08411156107ff5750600091506003905082610889565b604080516000808252602082018084528a905260ff891692820192909252606081018790526080810186905260019060a0016020604051602081039080840390855afa158015610853573d6000803e3d6000fd5b5050604051601f1901519150506001600160a01b03811661087f57506000925060019150829050610889565b9250600091508190505b9450945094915050565b60008083601f8401126108a557600080fd5b50813567ffffffffffffffff8111156108bd57600080fd5b6020830191508360208285010111156108d557600080fd5b9250929050565b6000806000604084860312156108f157600080fd5b83359250602084013567ffffffffffffffff81111561090f57600080fd5b61091b86828701610893565b9497909650939450505050565b60006020828403121561093a57600080fd5b5035919050565b600080600080600080600060a0888a03121561095c57600080fd5b873596506020880135955060408801359450606088013567ffffffffffffffff8082111561098957600080fd5b6109958b838c01610893565b909650945060808a01359150808211156109ae57600080fd5b506109bb8a828b01610893565b989b979a50959850939692959293505050565b6000602082840312156109e057600080fd5b81356001600160a01b03811681146109f757600080fd5b9392505050565b604081528260408201528284606083013760006060848301015260006060601f19601f8601168301019050826020830152949350505050565b8183823760009101908152919050565b634e487b7160e01b600052602160045260246000fdfea264697066735822122088c2e69a45075f797fb1214265b8cdd01a8776aeeb883dfddcd2bec59565925864736f6c63430008140033",
  "linkReferences": {},
  "deployedLinkReferences": {}
}