{
  "_format": "hh-sol-artifact-1",
  "contractName": "AttestationRegistry",
  "sourceName": "contracts/core/AttestationRegistry.sol",
  "abi": [
    {
      "inputs": [],
      "stateMutability": "nonpayable",
      "type": "constructor"
    },
    {
      "inputs": [],
      "name": "ECDSAInvalidSignature",
      "type": "error"
    },
    {
      "inputs": [
        {
          "internalType": "uint256",
          "name": "length",
          "type": "uint256"
        }
      ],
      "name": "ECDSAInvalidSignatureLength",
      "type": "error"
    },
    {
      "inputs": [
        {
          "internalType": "bytes32",
          "name": "s",
          "type": "bytes32"
        }
      ],
      "name": "ECDSAInvalidSignatureS",
      "type": "error"
    },
    {
      "anonymous": false,
      "inputs": [
        {
          "indexed": true,
          "internalType": "bytes32",
          "name": "assetId",
          "type": "bytes32"
        },
        {
          "indexed": false,
          "internalType": "bytes32",
          "name": "blobId",
          "type": "bytes32"
        },
        {
          "indexed": false,
          "internalType": "bytes32",
          "name": "attestationHash",
          "type": "bytes32"
        },
        {
          "indexed": false,
          "internalType": "address",
          "name": "attestor",
          "type": "address"
        }
      ],
      "name": "AssetRegistered",
      "type": "event"
    },
    {
      "anonymous": false,
      "inputs": [
        {
          "indexed": true,
          "internalType": "bytes32",
          "name": "assetId",
          "type": "bytes32"
        },
        {
          "indexed": false,
          "internalType": "string",
          "name": "reason",
          "type": "string"
        },
        {
          "indexed": false,
          "internalType": "uint256",
          "name": "timestamp",
          "type": "uint256"
        }
      ],
      "name": "AssetRevoked",
      "type": "event"
    },
    {
      "inputs": [
        {
          "internalType": "address",
          "name": "attestor",
          "type": "address"
        }
      ],
      "name": "addTrustedAttestor",
      "outputs": [],
      "stateMutability": "nonpayable",
      "type": "function"
    },
    {
      "inputs": [
        {
          "internalType": "bytes32",
          "name": "",
          "type": "bytes32"
        }
      ],
      "name": "assets",
      "outputs": [
        {
          "internalType": "bytes32",
          "name": "assetId",
          "type": "bytes32"
        },
        {
          "internalType": "bytes32",
          "name": "attestationHash",
          "type": "bytes32"
        },
        {
          "internalType": "bytes32",
          "name": "blobId",
          "type": "bytes32"
        },
        {
          "internalType": "address",
          "name": "attestor",
          "type": "address"
        },
        {
          "internalType": "uint48",
          "name": "timestamp",
          "type": "uint48"
        },
        {
          "internalType": "bool",
          "name": "revoked",
          "type": "bool"
        }
      ],
      "stateMutability": "view",
      "type": "function"
    },
    {
      "inputs": [
        {
          "internalType": "bytes32",
          "name": "assetId",
          "type": "bytes32"
        }
      ],
      "name": "isAssetValid",
      "outputs": [
        {
          "internalType": "bool",
          "name": "",
          "type": "bool"
        }
      ],
      "stateMutability": "view",
      "type": "function"
    },
    {
      "inputs": [],
      "name": "owner",
      "outputs": [
        {
          "internalType": "address",
          "name": "",
          "type": "address"
        }
      ],
      "stateMutability": "view",
      "type": "function"
    },
    {
      "inputs": [
        {
          "internalType": "bytes32",
          "name": "assetId",
          "type": "bytes32"
        },
        {
          "internalType": "bytes32",
          "name": "attestationHash",
          "type": "bytes32"
        },
        {
          "internalType": "bytes32",
          "name": "blobId",
          "type": "bytes32"
        },
        {
          "internalType": "bytes",
          "name": "payload",
          "type": "bytes"
        },
        {
          "internalType": "bytes",
          "name": "signature",
          "type": "bytes"
        }
      ],
      "name": "registerAsset",
      "outputs": [],
      "stateMutability": "nonpayable",
      "type": "function"
    },
    {
      "inputs": [
        {
          "internalType": "bytes32",
          "name": "assetId",
          "type": "bytes32"
        },
        {
          "internalType": "string",
          "name": "reason",
          "type": "string"
        }
      ],
      "name": "revokeAsset",
      "outputs": [],
      "stateMutability": "nonpayable",
      "type": "function"
    },
    {
      "inputs": [
        {
          "internalType": "address",
          "name": "",
          "type": "address"
        }
      ],
      "name": "trustedAttestors",
      "outputs": [
        {
          "internalType": "bool",
          "name": "",
          "type": "bool"
        }
      ],
      "stateMutability": "view",
      "type": "function"
    }
  ],
  "bytecode": "0x60808060405234610040573360018060a01b031960025416176002553360005260016020526040600020600160ff1982541617905561080490816100468239f35b600080fdfe6040608081526004908136101561001557600080fd5b600091823560e01c80630642d8ef14610491578063339f16a91461044157806370b5027c1461019b5780638da5cb5b1461016e5780639fda5b66146100ff578063e430970d146100af5763f97d63411461006e57600080fd5b346100ab5760203660031901126100ab57356001600160a01b038116908190036100ab57818360ff92602095526001855220541690519015158152f35b8280fd5b50346100ab5760203660031901126100ab57356001600160a01b03818116918290036100fb576100e4906002541633146105db565b825260016020528120600160ff1982541617905580f35b8380fd5b50346100ab5760203660031901126100ab578160c09360ff9235815280602052209182549260018101549160036002830154920154928151958652602086015284015260018060a01b038116606084015265ffffffffffff8160a01c16608084015260d01c16151560a0820152f35b50503461019757816003193601126101975760025490516001600160a01b039091168152602090f35b5080fd5b5090346100ab5760a03660031901126100ab578135916044359167ffffffffffffffff916024359060643584811161043d576101da90369083016105a8565b9160843591868311610439576101f48693369084016105a8565b918a8c526020958c87528c600365ffffffffffff97889220015460a01c166103f6578791610223913691610614565b868151910120036103bb5761027c929161026d61027392603c8e7f19457468657265756d205369676e6564204d6573736167653a0a33320000000081528a601c5220923691610614565b9061067d565b90939193610749565b6001600160a01b03918216808b5260018552868b205490979060ff16156103785786519160c08301918211838310176103655750928987959360038d9460609b99977ff78715d23ff41830ba0f7b6ddff9cf99f364dcf79c01595a10aff1816dac64549d9b52838152868101888152898201908c82528a8e8401988d8a5260808501984216895260a08501978189528152808b5220925183555160018301555160028201550193511683549265ffffffffffff60a01b905160a01b169160ff60d01b9051151560d01b169264ffffffffff60d81b1617171790558251948552840152820152a280f35b634e487b7160e01b8c526041905260248bfd5b865162461bcd60e51b8152808301869052601a60248201527f496e76616c6964206174746573746f72207369676e61747572650000000000006044820152606490fd5b865162461bcd60e51b815280840186905260156024820152740a0c2f2d8dec2c840d0c2e6d040dad2e6dac2e8c6d605b1b6044820152606490fd5b885162461bcd60e51b8152808601889052601860248201527f417373657420616c7265616479207265676973746572656400000000000000006044820152606490fd5b8980fd5b8780fd5b50346100ab5760203660031901126100ab57816020936003923581528085522001549065ffffffffffff8260a01c1615159182610482575b50519015158152f35b60d01c60ff1615915038610479565b50346100ab57816003193601126100ab5780359160243567ffffffffffffffff81116105a4576104c490369084016105a8565b926104da60018060a01b036002541633146105db565b8486528560205265ffffffffffff6003848820015460a01c161561056f57508385526020859052818520600301805460ff60d01b1916600160d01b17905581518281529182018390527faf11ffb9ac163de9a3b4c399498aa17972eab8f4575e1929ee9292b0bef9e4fa926060918391908190838501378181018301879052426020830152601f01601f19168101030190a280f35b606490602084519162461bcd60e51b8352820152600f60248201526e105cdcd95d081b9bdd08199bdd5b99608a1b6044820152fd5b8480fd5b9181601f840112156105d65782359167ffffffffffffffff83116105d657602083818601950101116105d657565b600080fd5b156105e257565b60405162461bcd60e51b815260206004820152600a60248201526927b7363c9037bbb732b960b11b6044820152606490fd5b92919267ffffffffffffffff918281116106675760405192601f8201601f19908116603f0116840190811184821017610667576040528294818452818301116105d6578281602093846000960137010152565b634e487b7160e01b600052604160045260246000fd5b81519190604183036106ae576106a792506020820151906060604084015193015160001a906106b9565b9192909190565b505060009160029190565b91907f7fffffffffffffffffffffffffffffff5d576e7357a4501ddfe92f46681b20a0841161073d57926020929160ff608095604051948552168484015260408301526060820152600092839182805260015afa156107315780516001600160a01b0381161561072857918190565b50809160019190565b604051903d90823e3d90fd5b50505060009160039190565b60048110156107b8578061075b575050565b600181036107755760405163f645eedf60e01b8152600490fd5b600281036107965760405163fce698f760e01b815260048101839052602490fd5b6003146107a05750565b602490604051906335e2f38360e21b82526004820152fd5b634e487b7160e01b600052602160045260246000fdfea26469706673582212200fa632769de24e2dd8816977b91b23066eec942d0c027c2543b75af0186874d264736f6c63430008140033",
  "linkReferences": {},
  "deployedLinkReferences": {}
}