{
  "_format": "hh-sol-artifact-1",
  "contractName": "METHFaucet",
  "sourceName": "contracts/test/METHFaucet.sol",
  "abi": [
    {
      "inputs": [
        {
          "internalType": "address",
          "name": "_mockMETH",
          "type": "address"
        }
      ],
      "stateMutability": "nonpayable",
      "type": "constructor"
    },
    {
      "inputs": [],
      "name": "mockMETH",
      "outputs": [
        {
          "internalType": "contract IERC20",
          "name": "",
          "type": "address"
        }
      ],
      "stateMutability": "view",
      "type": "function"
    },
    {
      "inputs": [
        {
          "internalType": "address",
          "name": "to",
          "type": "address"
        },
        {
          "internalType": "uint256",
          "name": "amountInMETH",
          "type": "uint256"
        }
      ],
      "name": "requestMETH",
      "outputs": [],
      "stateMutability": "nonpayable",
      "type": "function"
    },
    {
      "inputs": [
        {
          "internalType": "address",
          "name": "to",
          "type": "address"
        },
        {
          "internalType": "uint256",
          "name": "amount",
          "type": "uint256"
        }
      ],
      "name": "requestTokens",
      "outputs": [],
      "stateMutability": "nonpayable",
      "type": "function"
    }
  ],
  "bytecode": "0x60803461007457601f6102af38819003918201601f19168301916001600160401b038311848410176100795780849260209460405283398101031261007457516001600160a01b0381169081900361007457600080546001600160a01b03191691909117905560405161021f90816100908239f35b600080fd5b634e487b7160e01b600052604160045260246000fdfe608080604052600436101561001357600080fd5b600090813560e01c908163af4215641461012057508063bb7c22921461006b5763c554ac9b1461004257600080fd5b34610068578060031936011261006857546040516001600160a01b039091168152602090f35b80fd5b50346100685761007a36610194565b670de0b6b3a76400009291929081810291818304149015171561010c578154919283926001600160a01b031691823b15610107576040516340c10f1960e01b81526001600160a01b0392909216600483015260248201529082908290604490829084905af180156100fc576100ec5750f35b6100f5906101bf565b6100685780f35b6040513d84823e3d90fd5b505050fd5b634e487b7160e01b82526011600452602482fd5b905034610190578161013136610194565b82546001600160a01b031690813b1561018c576340c10f1960e01b85526001600160a01b0392909216600485015260248401919091528290604490829084905af180156100fc57610180575080f35b610189906101bf565b80f35b8380fd5b5080fd5b60409060031901126101ba576004356001600160a01b03811681036101ba579060243590565b600080fd5b67ffffffffffffffff81116101d357604052565b634e487b7160e01b600052604160045260246000fdfea2646970667358221220bb9d7fcfb062131eb57ccfa2ab5ea94a5e880c4dd8810157c5ea104a60fee5de64736f6c63430008140033",
  "linkReferences": {},
  "deployedLinkReferences": {}
}