{
  "_format": "hh-sol-artifact-1",
  "contractName": "METHFaucet",
  "sourceName": "contracts/test/METHFaucet.sol",
  "abi": [
    {
      "inputs": [
        {
          "internalType": "address",
          "name": "_mockMETH",
          "type": "address"
        }
      ],
      "stateMutability": "nonpayable",
      "type": "constructor"
    },
    {
      "inputs": [],
      "name": "mockMETH",
      "outputs": [
        {
          "internalType": "contract IERC20",
          "name": "",
          "type": "address"
        }
      ],
      "stateMutability": "view",
      "type": "function"
    },
    {
      "inputs": [
        {
          "internalType": "address",
          "name": "to",
          "type": "address"
        },
        {
          "internalType": "uint256",
          "name": "amountInMETH",
          "type": "uint256"
        }
      ],
      "name": "requestMETH",
      "outputs": [],
      "stateMutability": "nonpayable",
      "type": "function"
    },
    {
      "inputs": [
        {
          "internalType": "address",
          "name": "to",
          "type": "address"
        },
        {
          "internalType": "uint256",
          "name": "amount",
          "type": "uint256"
        }
      ],
      "name": "requestTokens",
      "outputs": [],
      "stateMutability": "nonpayable",
      "type": "function"
    }
  ],
  "bytecode": "0x608060405234801561001057600080fd5b506040516102b43803806102b483398101604081905261002f91610054565b600080546001600160a01b0319166001600160a01b0392909216919091179055610084565b60006020828403121561006657600080fd5b81516001600160a01b038116811461007d57600080fd5b9392505050565b610221806100936000396000f3fe608060405234801561001057600080fd5b50600436106100415760003560e01c8063af42156414610046578063bb7c22921461005b578063c554ac9b1461006e575b600080fd5b610059610054366004610188565b61009d565b005b610059610069366004610188565b610107565b600054610081906001600160a01b031681565b6040516001600160a01b03909116815260200160405180910390f35b6000546040516340c10f1960e01b81526001600160a01b03848116600483015260248201849052909116906340c10f1990604401600060405180830381600087803b1580156100eb57600080fd5b505af11580156100ff573d6000803e3d6000fd5b505050505050565b600061011b82670de0b6b3a76400006101c0565b6000546040516340c10f1960e01b81526001600160a01b038681166004830152602482018490529293509116906340c10f1990604401600060405180830381600087803b15801561016b57600080fd5b505af115801561017f573d6000803e3d6000fd5b50505050505050565b6000806040838503121561019b57600080fd5b82356001600160a01b03811681146101b257600080fd5b946020939093013593505050565b80820281158282048414176101e557634e487b7160e01b600052601160045260246000fd5b9291505056fea2646970667358221220a06867fc5eeb3464d68fb31b3bfa001b97961f9a436df188313696250d7cc24d64736f6c63430008140033",
  "linkReferences": {},
  "deployedLinkReferences": {}
}